{
  "abi": [
    {
      "inputs": [
        {
          "internalType": "address",
          "name": "_creator_address",
          "type": "address"
        },
        {
          "internalType": "address",
          "name": "_interep_address",
          "type": "address"
        }
      ],
      "stateMutability": "nonpayable",
      "type": "constructor"
    },
    {
      "anonymous": false,
      "inputs": [
        {
          "indexed": true,
          "internalType": "uint256",
          "name": "marketId",
          "type": "uint256"
        },
        {
          "components": [
            {
              "internalType": "uint256",
              "name": "managers_stake",
              "type": "uint256"
            },
            {
              "internalType": "uint256",
              "name": "approved_principal",
              "type": "uint256"
            },
            {
              "internalType": "uint256",
              "name": "approved_yield",
              "type": "uint256"
            }
          ],
          "indexed": false,
          "internalType": "struct ApprovalData",
          "name": "data",
          "type": "tuple"
        }
      ],
      "name": "MarketApproved",
      "type": "event"
    },
    {
      "anonymous": false,
      "inputs": [
        {
          "indexed": true,
          "internalType": "uint256",
          "name": "marketId",
          "type": "uint256"
        }
      ],
      "name": "MarketDenied",
      "type": "event"
    },
    {
      "anonymous": false,
      "inputs": [
        {
          "indexed": true,
          "internalType": "uint256",
          "name": "marketId",
          "type": "uint256"
        },
        {
          "indexed": true,
          "internalType": "address",
          "name": "vault",
          "type": "address"
        },
        {
          "indexed": true,
          "internalType": "address",
          "name": "recipient",
          "type": "address"
        },
        {
          "indexed": false,
          "internalType": "address",
          "name": "pool",
          "type": "address"
        },
        {
          "indexed": false,
          "internalType": "address",
          "name": "longZCB",
          "type": "address"
        },
        {
          "indexed": false,
          "internalType": "address",
          "name": "shortZCB",
          "type": "address"
        },
        {
          "components": [
            {
              "internalType": "bytes32",
              "name": "name",
              "type": "bytes32"
            },
            {
              "internalType": "bool",
              "name": "isPool",
              "type": "bool"
            },
            {
              "internalType": "bool",
              "name": "trusted",
              "type": "bool"
            },
            {
              "internalType": "uint256",
              "name": "balance",
              "type": "uint256"
            },
            {
              "internalType": "uint256",
              "name": "faceValue",
              "type": "uint256"
            },
            {
              "internalType": "uint256",
              "name": "marketId",
              "type": "uint256"
            },
            {
              "internalType": "uint256",
              "name": "principal",
              "type": "uint256"
            },
            {
              "internalType": "uint256",
              "name": "expectedYield",
              "type": "uint256"
            },
            {
              "internalType": "uint256",
              "name": "duration",
              "type": "uint256"
            },
            {
              "internalType": "string",
              "name": "description",
              "type": "string"
            },
            {
              "internalType": "address",
              "name": "instrument_address",
              "type": "address"
            },
            {
              "internalType": "enum InstrumentType",
              "name": "instrument_type",
              "type": "uint8"
            },
            {
              "internalType": "uint256",
              "name": "maturityDate",
              "type": "uint256"
            },
            {
              "components": [
                {
                  "internalType": "uint256",
                  "name": "saleAmount",
                  "type": "uint256"
                },
                {
                  "internalType": "uint256",
                  "name": "initPrice",
                  "type": "uint256"
                },
                {
                  "internalType": "uint256",
                  "name": "promisedReturn",
                  "type": "uint256"
                },
                {
                  "internalType": "uint256",
                  "name": "inceptionTime",
                  "type": "uint256"
                },
                {
                  "internalType": "uint256",
                  "name": "inceptionPrice",
                  "type": "uint256"
                },
                {
                  "internalType": "uint256",
                  "name": "leverageFactor",
                  "type": "uint256"
                },
                {
                  "internalType": "uint256",
                  "name": "managementFee",
                  "type": "uint256"
                }
              ],
              "internalType": "struct PoolData",
              "name": "poolData",
              "type": "tuple"
            }
          ],
          "indexed": false,
          "internalType": "struct InstrumentData",
          "name": "instrumentData",
          "type": "tuple"
        }
      ],
      "name": "MarketInitiated",
      "type": "event"
    },
    {
      "anonymous": false,
      "inputs": [
        {
          "indexed": true,
          "internalType": "uint256",
          "name": "marketId",
          "type": "uint256"
        },
        {
          "indexed": false,
          "internalType": "bool",
          "name": "atLoss",
          "type": "bool"
        },
        {
          "indexed": false,
          "internalType": "uint256",
          "name": "extraGain",
          "type": "uint256"
        },
        {
          "indexed": false,
          "internalType": "uint256",
          "name": "principalLoss",
          "type": "uint256"
        },
        {
          "indexed": false,
          "internalType": "bool",
          "name": "premature",
          "type": "bool"
        }
      ],
      "name": "MarketResolved",
      "type": "event"
    },
    {
      "anonymous": false,
      "inputs": [
        {
          "indexed": true,
          "internalType": "uint256",
          "name": "marketId",
          "type": "uint256"
        },
        {
          "indexed": false,
          "internalType": "uint256",
          "name": "amount",
          "type": "uint256"
        },
        {
          "indexed": false,
          "internalType": "address",
          "name": "to",
          "type": "address"
        }
      ],
      "name": "RedeemTransfer",
      "type": "event"
    },
    {
      "anonymous": false,
      "inputs": [
        {
          "indexed": true,
          "internalType": "address",
          "name": "vault",
          "type": "address"
        },
        {
          "indexed": false,
          "internalType": "uint256",
          "name": "vaultId",
          "type": "uint256"
        },
        {
          "indexed": false,
          "internalType": "address",
          "name": "underlying",
          "type": "address"
        },
        {
          "indexed": false,
          "internalType": "bool",
          "name": "onlyVerified",
          "type": "bool"
        },
        {
          "indexed": false,
          "internalType": "uint256",
          "name": "r",
          "type": "uint256"
        },
        {
          "indexed": false,
          "internalType": "uint256",
          "name": "assetLimit",
          "type": "uint256"
        },
        {
          "indexed": false,
          "internalType": "uint256",
          "name": "totalAssetLimit",
          "type": "uint256"
        },
        {
          "components": [
            {
              "internalType": "uint256",
              "name": "N",
              "type": "uint256"
            },
            {
              "internalType": "uint256",
              "name": "sigma",
              "type": "uint256"
            },
            {
              "internalType": "uint256",
              "name": "alpha",
              "type": "uint256"
            },
            {
              "internalType": "uint256",
              "name": "omega",
              "type": "uint256"
            },
            {
              "internalType": "uint256",
              "name": "delta",
              "type": "uint256"
            },
            {
              "internalType": "uint256",
              "name": "r",
              "type": "uint256"
            },
            {
              "internalType": "uint256",
              "name": "s",
              "type": "uint256"
            },
            {
              "internalType": "uint256",
              "name": "steak",
              "type": "uint256"
            }
          ],
          "indexed": false,
          "internalType": "struct MarketParameters",
          "name": "defaultParams",
          "type": "tuple"
        }
      ],
      "name": "VaultCreated",
      "type": "event"
    },
    {
      "inputs": [],
      "name": "Data",
      "outputs": [
        {
          "internalType": "contract StorageHandler",
          "name": "",
          "type": "address"
        }
      ],
      "stateMutability": "view",
      "type": "function"
    },
    {
      "inputs": [
        {
          "internalType": "address",
          "name": "",
          "type": "address"
        }
      ],
      "name": "ad_to_id",
      "outputs": [
        {
          "internalType": "uint256",
          "name": "",
          "type": "uint256"
        }
      ],
      "stateMutability": "view",
      "type": "function"
    },
    {
      "inputs": [
        {
          "internalType": "uint256",
          "name": "marketId",
          "type": "uint256"
        }
      ],
      "name": "approvalCondition",
      "outputs": [
        {
          "internalType": "bool",
          "name": "",
          "type": "bool"
        }
      ],
      "stateMutability": "view",
      "type": "function"
    },
    {
      "inputs": [
        {
          "internalType": "uint256",
          "name": "marketId",
          "type": "uint256"
        }
      ],
      "name": "approveMarket",
      "outputs": [],
      "stateMutability": "nonpayable",
      "type": "function"
    },
    {
      "inputs": [
        {
          "internalType": "uint256",
          "name": "marketId",
          "type": "uint256"
        }
      ],
      "name": "beforeResolve",
      "outputs": [],
      "stateMutability": "nonpayable",
      "type": "function"
    },
    {
      "inputs": [
        {
          "internalType": "uint256",
          "name": "marketId",
          "type": "uint256"
        },
        {
          "internalType": "uint256",
          "name": "incompleteReturns",
          "type": "uint256"
        }
      ],
      "name": "calcIncompleteReturns",
      "outputs": [
        {
          "internalType": "uint256",
          "name": "seniorReturn",
          "type": "uint256"
        }
      ],
      "stateMutability": "view",
      "type": "function"
    },
    {
      "inputs": [
        {
          "internalType": "address",
          "name": "underlying",
          "type": "address"
        },
        {
          "internalType": "bool",
          "name": "_onlyVerified",
          "type": "bool"
        },
        {
          "internalType": "uint256",
          "name": "_r",
          "type": "uint256"
        },
        {
          "internalType": "uint256",
          "name": "_asset_limit",
          "type": "uint256"
        },
        {
          "internalType": "uint256",
          "name": "_total_asset_limit",
          "type": "uint256"
        },
        {
          "components": [
            {
              "internalType": "uint256",
              "name": "N",
              "type": "uint256"
            },
            {
              "internalType": "uint256",
              "name": "sigma",
              "type": "uint256"
            },
            {
              "internalType": "uint256",
              "name": "alpha",
              "type": "uint256"
            },
            {
              "internalType": "uint256",
              "name": "omega",
              "type": "uint256"
            },
            {
              "internalType": "uint256",
              "name": "delta",
              "type": "uint256"
            },
            {
              "internalType": "uint256",
              "name": "r",
              "type": "uint256"
            },
            {
              "internalType": "uint256",
              "name": "s",
              "type": "uint256"
            },
            {
              "internalType": "uint256",
              "name": "steak",
              "type": "uint256"
            }
          ],
          "internalType": "struct MarketParameters",
          "name": "default_params",
          "type": "tuple"
        },
        {
          "internalType": "string",
          "name": "_description",
          "type": "string"
        }
      ],
      "name": "createVault",
      "outputs": [],
      "stateMutability": "nonpayable",
      "type": "function"
    },
    {
      "inputs": [
        {
          "internalType": "uint256",
          "name": "marketId",
          "type": "uint256"
        },
        {
          "internalType": "address",
          "name": "validator",
          "type": "address"
        }
      ],
      "name": "deniedValidator",
      "outputs": [
        {
          "internalType": "uint256",
          "name": "collateral_amount",
          "type": "uint256"
        }
      ],
      "stateMutability": "nonpayable",
      "type": "function"
    },
    {
      "inputs": [
        {
          "internalType": "uint256",
          "name": "marketId",
          "type": "uint256"
        }
      ],
      "name": "denyMarket",
      "outputs": [],
      "stateMutability": "nonpayable",
      "type": "function"
    },
    {
      "inputs": [
        {
          "internalType": "uint256",
          "name": "marketId",
          "type": "uint256"
        },
        {
          "internalType": "uint256",
          "name": "amount",
          "type": "uint256"
        }
      ],
      "name": "dustToVault",
      "outputs": [],
      "stateMutability": "nonpayable",
      "type": "function"
    },
    {
      "inputs": [
        {
          "internalType": "uint256",
          "name": "marketId",
          "type": "uint256"
        },
        {
          "internalType": "bool",
          "name": "emergency",
          "type": "bool"
        }
      ],
      "name": "forceCloseInstrument",
      "outputs": [
        {
          "internalType": "bool",
          "name": "",
          "type": "bool"
        }
      ],
      "stateMutability": "nonpayable",
      "type": "function"
    },
    {
      "inputs": [
        {
          "internalType": "uint256",
          "name": "requestId",
          "type": "uint256"
        },
        {
          "internalType": "uint256[]",
          "name": "randomWords",
          "type": "uint256[]"
        }
      ],
      "name": "fulfillRandomWords",
      "outputs": [],
      "stateMutability": "nonpayable",
      "type": "function"
    },
    {
      "inputs": [
        {
          "internalType": "uint256",
          "name": "marketId",
          "type": "uint256"
        }
      ],
      "name": "getApprovalData",
      "outputs": [
        {
          "components": [
            {
              "internalType": "uint256",
              "name": "managers_stake",
              "type": "uint256"
            },
            {
              "internalType": "uint256",
              "name": "approved_principal",
              "type": "uint256"
            },
            {
              "internalType": "uint256",
              "name": "approved_yield",
              "type": "uint256"
            }
          ],
          "internalType": "struct ApprovalData",
          "name": "data",
          "type": "tuple"
        }
      ],
      "stateMutability": "view",
      "type": "function"
    },
    {
      "inputs": [
        {
          "internalType": "uint256",
          "name": "marketId",
          "type": "uint256"
        }
      ],
      "name": "getInstrumentSnapShot",
      "outputs": [
        {
          "internalType": "uint256",
          "name": "managerStake",
          "type": "uint256"
        },
        {
          "internalType": "uint256",
          "name": "exposurePercentage",
          "type": "uint256"
        },
        {
          "internalType": "uint256",
          "name": "seniorAPR",
          "type": "uint256"
        },
        {
          "internalType": "uint256",
          "name": "approvalPrice",
          "type": "uint256"
        }
      ],
      "stateMutability": "view",
      "type": "function"
    },
    {
      "inputs": [
        {
          "internalType": "address",
          "name": "recipient",
          "type": "address"
        }
      ],
      "name": "getMarketId",
      "outputs": [
        {
          "internalType": "uint256",
          "name": "",
          "type": "uint256"
        }
      ],
      "stateMutability": "view",
      "type": "function"
    },
    {
      "inputs": [
        {
          "internalType": "uint256",
          "name": "vaultId",
          "type": "uint256"
        }
      ],
      "name": "getMarketIds",
      "outputs": [
        {
          "internalType": "uint256[]",
          "name": "",
          "type": "uint256[]"
        }
      ],
      "stateMutability": "view",
      "type": "function"
    },
    {
      "inputs": [
        {
          "internalType": "uint256",
          "name": "marketId",
          "type": "uint256"
        }
      ],
      "name": "getTotalSupply",
      "outputs": [
        {
          "internalType": "uint256",
          "name": "",
          "type": "uint256"
        }
      ],
      "stateMutability": "view",
      "type": "function"
    },
    {
      "inputs": [
        {
          "internalType": "address",
          "name": "trader",
          "type": "address"
        }
      ],
      "name": "getTraderScore",
      "outputs": [
        {
          "internalType": "uint256",
          "name": "",
          "type": "uint256"
        }
      ],
      "stateMutability": "view",
      "type": "function"
    },
    {
      "inputs": [
        {
          "internalType": "uint256",
          "name": "marketId",
          "type": "uint256"
        }
      ],
      "name": "getValidatorRequiredCollateral",
      "outputs": [
        {
          "internalType": "uint256",
          "name": "",
          "type": "uint256"
        }
      ],
      "stateMutability": "view",
      "type": "function"
    },
    {
      "inputs": [
        {
          "internalType": "uint256",
          "name": "marketId",
          "type": "uint256"
        }
      ],
      "name": "getVault",
      "outputs": [
        {
          "internalType": "contract Vault",
          "name": "",
          "type": "address"
        }
      ],
      "stateMutability": "view",
      "type": "function"
    },
    {
      "inputs": [
        {
          "internalType": "uint256",
          "name": "marketId",
          "type": "uint256"
        }
      ],
      "name": "getVaultAd",
      "outputs": [
        {
          "internalType": "address",
          "name": "",
          "type": "address"
        }
      ],
      "stateMutability": "view",
      "type": "function"
    },
    {
      "inputs": [
        {
          "internalType": "uint256",
          "name": "vaultId",
          "type": "uint256"
        }
      ],
      "name": "getVaultSnapShot",
      "outputs": [
        {
          "internalType": "uint256",
          "name": "totalProtection",
          "type": "uint256"
        },
        {
          "internalType": "uint256",
          "name": "totalEstimatedAPR",
          "type": "uint256"
        },
        {
          "internalType": "uint256",
          "name": "goalAPR",
          "type": "uint256"
        },
        {
          "internalType": "uint256",
          "name": "exchangeRate",
          "type": "uint256"
        }
      ],
      "stateMutability": "view",
      "type": "function"
    },
    {
      "inputs": [
        {
          "internalType": "uint256",
          "name": "vaultId",
          "type": "uint256"
        }
      ],
      "name": "getVaultfromId",
      "outputs": [
        {
          "internalType": "address",
          "name": "",
          "type": "address"
        }
      ],
      "stateMutability": "view",
      "type": "function"
    },
    {
      "inputs": [
        {
          "internalType": "uint256",
          "name": "marketId",
          "type": "uint256"
        },
        {
          "internalType": "address",
          "name": "validator",
          "type": "address"
        }
      ],
      "name": "hasApproved",
      "outputs": [
        {
          "internalType": "bool",
          "name": "",
          "type": "bool"
        }
      ],
      "stateMutability": "view",
      "type": "function"
    },
    {
      "inputs": [
        {
          "internalType": "uint256",
          "name": "",
          "type": "uint256"
        }
      ],
      "name": "id_parent",
      "outputs": [
        {
          "internalType": "uint256",
          "name": "",
          "type": "uint256"
        }
      ],
      "stateMutability": "view",
      "type": "function"
    },
    {
      "inputs": [
        {
          "internalType": "bytes",
          "name": "_setup",
          "type": "bytes"
        }
      ],
      "name": "initialize",
      "outputs": [],
      "stateMutability": "nonpayable",
      "type": "function"
    },
    {
      "inputs": [
        {
          "internalType": "address",
          "name": "recipient",
          "type": "address"
        },
        {
          "components": [
            {
              "internalType": "bytes32",
              "name": "name",
              "type": "bytes32"
            },
            {
              "internalType": "bool",
              "name": "isPool",
              "type": "bool"
            },
            {
              "internalType": "bool",
              "name": "trusted",
              "type": "bool"
            },
            {
              "internalType": "uint256",
              "name": "balance",
              "type": "uint256"
            },
            {
              "internalType": "uint256",
              "name": "faceValue",
              "type": "uint256"
            },
            {
              "internalType": "uint256",
              "name": "marketId",
              "type": "uint256"
            },
            {
              "internalType": "uint256",
              "name": "principal",
              "type": "uint256"
            },
            {
              "internalType": "uint256",
              "name": "expectedYield",
              "type": "uint256"
            },
            {
              "internalType": "uint256",
              "name": "duration",
              "type": "uint256"
            },
            {
              "internalType": "string",
              "name": "description",
              "type": "string"
            },
            {
              "internalType": "address",
              "name": "instrument_address",
              "type": "address"
            },
            {
              "internalType": "enum InstrumentType",
              "name": "instrument_type",
              "type": "uint8"
            },
            {
              "internalType": "uint256",
              "name": "maturityDate",
              "type": "uint256"
            },
            {
              "components": [
                {
                  "internalType": "uint256",
                  "name": "saleAmount",
                  "type": "uint256"
                },
                {
                  "internalType": "uint256",
                  "name": "initPrice",
                  "type": "uint256"
                },
                {
                  "internalType": "uint256",
                  "name": "promisedReturn",
                  "type": "uint256"
                },
                {
                  "internalType": "uint256",
                  "name": "inceptionTime",
                  "type": "uint256"
                },
                {
                  "internalType": "uint256",
                  "name": "inceptionPrice",
                  "type": "uint256"
                },
                {
                  "internalType": "uint256",
                  "name": "leverageFactor",
                  "type": "uint256"
                },
                {
                  "internalType": "uint256",
                  "name": "managementFee",
                  "type": "uint256"
                }
              ],
              "internalType": "struct PoolData",
              "name": "poolData",
              "type": "tuple"
            }
          ],
          "internalType": "struct InstrumentData",
          "name": "instrumentData",
          "type": "tuple"
        },
        {
          "internalType": "uint256",
          "name": "vaultId",
          "type": "uint256"
        }
      ],
      "name": "initiateMarket",
      "outputs": [],
      "stateMutability": "nonpayable",
      "type": "function"
    },
    {
      "inputs": [
        {
          "internalType": "address",
          "name": "trader",
          "type": "address"
        },
        {
          "internalType": "uint256",
          "name": "r",
          "type": "uint256"
        }
      ],
      "name": "isReputable",
      "outputs": [
        {
          "internalType": "bool",
          "name": "",
          "type": "bool"
        }
      ],
      "stateMutability": "view",
      "type": "function"
    },
    {
      "inputs": [
        {
          "internalType": "uint256",
          "name": "marketId",
          "type": "uint256"
        },
        {
          "internalType": "address",
          "name": "user",
          "type": "address"
        }
      ],
      "name": "isValidator",
      "outputs": [
        {
          "internalType": "bool",
          "name": "",
          "type": "bool"
        }
      ],
      "stateMutability": "view",
      "type": "function"
    },
    {
      "inputs": [
        {
          "internalType": "address",
          "name": "addr",
          "type": "address"
        }
      ],
      "name": "isVerified",
      "outputs": [
        {
          "internalType": "bool",
          "name": "",
          "type": "bool"
        }
      ],
      "stateMutability": "view",
      "type": "function"
    },
    {
      "inputs": [],
      "name": "leverageManager",
      "outputs": [
        {
          "internalType": "contract LeverageManager",
          "name": "",
          "type": "address"
        }
      ],
      "stateMutability": "view",
      "type": "function"
    },
    {
      "inputs": [
        {
          "internalType": "uint256",
          "name": "marketId",
          "type": "uint256"
        }
      ],
      "name": "marketCondition",
      "outputs": [
        {
          "internalType": "bool",
          "name": "",
          "type": "bool"
        }
      ],
      "stateMutability": "view",
      "type": "function"
    },
    {
      "inputs": [
        {
          "internalType": "uint256",
          "name": "marketId",
          "type": "uint256"
        }
      ],
      "name": "marketIdToVaultId",
      "outputs": [
        {
          "internalType": "uint256",
          "name": "",
          "type": "uint256"
        }
      ],
      "stateMutability": "view",
      "type": "function"
    },
    {
      "inputs": [
        {
          "internalType": "uint256",
          "name": "marketId",
          "type": "uint256"
        }
      ],
      "name": "marketId_to_vaultId",
      "outputs": [
        {
          "internalType": "uint256",
          "name": "",
          "type": "uint256"
        }
      ],
      "stateMutability": "view",
      "type": "function"
    },
    {
      "inputs": [],
      "name": "marketManager",
      "outputs": [
        {
          "internalType": "contract MarketManager",
          "name": "",
          "type": "address"
        }
      ],
      "stateMutability": "view",
      "type": "function"
    },
    {
      "inputs": [
        {
          "internalType": "uint256",
          "name": "",
          "type": "uint256"
        }
      ],
      "name": "market_data",
      "outputs": [
        {
          "internalType": "address",
          "name": "instrument_address",
          "type": "address"
        },
        {
          "internalType": "address",
          "name": "utilizer",
          "type": "address"
        }
      ],
      "stateMutability": "view",
      "type": "function"
    },
    {
      "inputs": [],
      "name": "orderManager",
      "outputs": [
        {
          "internalType": "contract OrderManager",
          "name": "",
          "type": "address"
        }
      ],
      "stateMutability": "view",
      "type": "function"
    },
    {
      "inputs": [],
      "name": "poolFactory",
      "outputs": [
        {
          "internalType": "contract SyntheticZCBPoolFactory",
          "name": "",
          "type": "address"
        }
      ],
      "stateMutability": "view",
      "type": "function"
    },
    {
      "inputs": [
        {
          "internalType": "uint256",
          "name": "marketId",
          "type": "uint256"
        },
        {
          "internalType": "uint256",
          "name": "amount",
          "type": "uint256"
        }
      ],
      "name": "pullLeverage",
      "outputs": [],
      "stateMutability": "nonpayable",
      "type": "function"
    },
    {
      "inputs": [
        {
          "internalType": "uint256",
          "name": "marketId",
          "type": "uint256"
        },
        {
          "internalType": "uint256",
          "name": "amount",
          "type": "uint256"
        }
      ],
      "name": "pushLeverage",
      "outputs": [],
      "stateMutability": "nonpayable",
      "type": "function"
    },
    {
      "inputs": [
        {
          "internalType": "uint256",
          "name": "marketId",
          "type": "uint256"
        },
        {
          "internalType": "address",
          "name": "validator",
          "type": "address"
        }
      ],
      "name": "redeemValidator",
      "outputs": [],
      "stateMutability": "nonpayable",
      "type": "function"
    },
    {
      "inputs": [
        {
          "internalType": "uint256",
          "name": "amount",
          "type": "uint256"
        },
        {
          "internalType": "address",
          "name": "to",
          "type": "address"
        },
        {
          "internalType": "uint256",
          "name": "marketId",
          "type": "uint256"
        }
      ],
      "name": "redeem_transfer",
      "outputs": [],
      "stateMutability": "nonpayable",
      "type": "function"
    },
    {
      "inputs": [],
      "name": "reputationManager",
      "outputs": [
        {
          "internalType": "contract ReputationManager",
          "name": "",
          "type": "address"
        }
      ],
      "stateMutability": "view",
      "type": "function"
    },
    {
      "inputs": [
        {
          "internalType": "uint256",
          "name": "marketId",
          "type": "uint256"
        }
      ],
      "name": "resolveCondition",
      "outputs": [
        {
          "internalType": "bool",
          "name": "",
          "type": "bool"
        }
      ],
      "stateMutability": "view",
      "type": "function"
    },
    {
      "inputs": [
        {
          "internalType": "uint256",
          "name": "marketId",
          "type": "uint256"
        }
      ],
      "name": "resolveMarket",
      "outputs": [],
      "stateMutability": "nonpayable",
      "type": "function"
    },
    {
      "inputs": [
        {
          "internalType": "uint256",
          "name": "marketId",
          "type": "uint256"
        },
        {
          "internalType": "uint256",
          "name": "amount",
          "type": "uint256"
        }
      ],
      "name": "returnLeverageCapital",
      "outputs": [],
      "stateMutability": "nonpayable",
      "type": "function"
    },
    {
      "inputs": [
        {
          "internalType": "uint256",
          "name": "marketId",
          "type": "uint256"
        }
      ],
      "name": "unlockValidatorStake",
      "outputs": [],
      "stateMutability": "nonpayable",
      "type": "function"
    },
    {
      "inputs": [
        {
          "internalType": "uint256",
          "name": "marketId",
          "type": "uint256"
        }
      ],
      "name": "validatorApprove",
      "outputs": [
        {
          "internalType": "uint256",
          "name": "",
          "type": "uint256"
        }
      ],
      "stateMutability": "nonpayable",
      "type": "function"
    },
    {
      "inputs": [
        {
          "internalType": "uint256",
          "name": "marketId",
          "type": "uint256"
        }
      ],
      "name": "validatorResolve",
      "outputs": [],
      "stateMutability": "nonpayable",
      "type": "function"
    },
    {
      "inputs": [],
      "name": "vaultFactory",
      "outputs": [
        {
          "internalType": "contract VaultFactory",
          "name": "",
          "type": "address"
        }
      ],
      "stateMutability": "view",
      "type": "function"
    },
    {
      "inputs": [
        {
          "internalType": "uint256",
          "name": "",
          "type": "uint256"
        },
        {
          "internalType": "uint256",
          "name": "",
          "type": "uint256"
        }
      ],
      "name": "vault_to_marketIds",
      "outputs": [
        {
          "internalType": "uint256",
          "name": "",
          "type": "uint256"
        }
      ],
      "stateMutability": "view",
      "type": "function"
    },
    {
      "inputs": [
        {
          "internalType": "uint256",
          "name": "",
          "type": "uint256"
        }
      ],
      "name": "vaults",
      "outputs": [
        {
          "internalType": "contract Vault",
          "name": "",
          "type": "address"
        }
      ],
      "stateMutability": "view",
      "type": "function"
    },
    {
      "inputs": [
        {
          "internalType": "address",
          "name": "",
          "type": "address"
        }
      ],
      "name": "verified",
      "outputs": [
        {
          "internalType": "bool",
          "name": "",
          "type": "bool"
        }
      ],
      "stateMutability": "view",
      "type": "function"
    },
    {
      "inputs": [
        {
          "internalType": "address",
          "name": "who",
          "type": "address"
        }
      ],
      "name": "verifyAddress",
      "outputs": [],
      "stateMutability": "nonpayable",
      "type": "function"
    }
  ],
  "bytecode": {
    "object": "0x60806040523480156200001157600080fd5b50604051620060b2380380620060b2833981016040819052620000349162000078565b50600880546001600160a01b0319166001600160a01b0392909216919091179055620000b0565b80516001600160a01b03811681146200007357600080fd5b919050565b600080604083850312156200008c57600080fd5b62000097836200005b565b9150620000a7602084016200005b565b90509250929050565b615ff280620000c06000396000f3fe608060405234801561001057600080fd5b50600436106103425760003560e01c80638dc3d9b4116101b8578063c971c3fd11610104578063e8858b4f116100a2578063f0fd1d381161007c578063f0fd1d3814610820578063f25fcc9f14610833578063f9b6117f1461085c578063fcb2cafc1461086f57600080fd5b8063e8858b4f146107e7578063e8a78026146107fa578063e8e3fbb71461080d57600080fd5b8063d1227136116100de578063d12271361461079b578063d65ec964146107ae578063d8a06f73146107c1578063da0a697f146107d457600080fd5b8063c971c3fd14610775578063cabe2ae114610788578063ce93ec67146103c657600080fd5b8063ac1b6b0111610171578063b743939b1161014b578063b743939b14610723578063b9209e3314610736578063c4abc6501461067f578063c8f559c01461076257600080fd5b8063ac1b6b01146106bb578063ad4e4e70146106f0578063b1b7e1f21461070357600080fd5b80638dc3d9b4146106265780638f5709a5146106395780638fbbc8681461064c57806392ab723e1461066c5780639403b6341461067f5780639fe1458b1461069257600080fd5b806341ed2c12116102925780636b868afb1161023057806381fd6c021161020a57806381fd6c0214610583578063830e2a02146105965780638c64ea4a146105a95780638d4f16d7146105d257600080fd5b80636b868afb1461053d5780637789ec5a1461055057806381e1b07c1461057057600080fd5b8063482c0aa81161026c578063482c0aa8146104f15780634b6e7d78146105045780634cb44087146105175780636399d03d1461052a57600080fd5b806341ed2c12146104a05780634219dc40146104cb578063439fab91146104de57600080fd5b806322029eef116102ff5780632b858734116102d95780632b8587341461043457806337b4dd3a1461044757806338ba46141461047a578063402978121461048d57600080fd5b806322029eef146103fb5780632358d5a81461040e57806323f2a73f1461042157600080fd5b806305a1ce991461034757806308ad90a51461036f5780630c33df18146103905780630db065f4146103a357806314f2b14c146103c65780631d4cc27f146103e6575b600080fd5b61035a610355366004614d26565b610882565b60405190151581526020015b60405180910390f35b61038261037d366004614d67565b6108f7565b604051908152602001610366565b61035a61039e366004614d9d565b610967565b61035a6103b1366004614d67565b60026020526000908152604090205460ff1681565b6103826103d4366004614d26565b60009081526006602052604090205490565b6103f96103f4366004614dcd565b610a44565b005b6103f9610409366004614dcd565b610b74565b61035a61041c366004614def565b610d29565b61035a61042f366004614def565b610da7565b6103f9610442366004614d26565b610de1565b61045a610455366004614d26565b610f66565b604080519485526020850193909352918301526060820152608001610366565b6103f9610488366004614ec8565b611317565b61038261049b366004614dcd565b61137f565b6009546104b3906001600160a01b031681565b6040516001600160a01b039091168152602001610366565b600b546104b3906001600160a01b031681565b6103f96104ec366004614fc1565b6114b4565b6103826104ff366004614dcd565b611809565b600e546104b3906001600160a01b031681565b6103f9610525366004614d26565b61183a565b6103f9610538366004614d26565b611984565b600c546104b3906001600160a01b031681565b61038261055e366004614d67565b60046020526000908152604090205481565b61035a61057e366004614d26565b611b30565b600d546104b3906001600160a01b031681565b6103826105a4366004614def565b611b62565b6104b36105b7366004614d26565b6005602052600090815260409020546001600160a01b031681565b6106066105e0366004614d26565b600360205260009081526040902080546001909101546001600160a01b03918216911682565b604080516001600160a01b03938416815292909116602083015201610366565b6103f9610634366004614d26565b611c45565b6103f9610647366004614def565b611ca6565b61038261065a366004614d26565b60066020526000908152604090205481565b61038261067a366004614d26565b611d48565b6104b361068d366004614d26565b611df3565b6104b36106a0366004614d26565b6000908152600560205260409020546001600160a01b031690565b6106ce6106c9366004614d26565b611e1b565b6040805182518152602080840151908201529181015190820152606001610366565b6103f96106fe366004614d26565b611e77565b610716610711366004614d26565b611eae565b604051610366919061503d565b61035a610731366004614d26565b611f10565b61035a610744366004614d67565b6001600160a01b031660009081526002602052604090205460ff1690565b61045a610770366004614d26565b612316565b6103f9610783366004614dcd565b612615565b6103f9610796366004614d26565b612656565b6103826107a9366004614d26565b6132a9565b6103826107bc366004614d26565b613415565b600a546104b3906001600160a01b031681565b6103f96107e2366004614dcd565b613447565b6103f96107f5366004615050565b613552565b61035a61080836600461514d565b61367e565b6103f961081b366004615270565b6136b8565b6103f961082e3660046153b1565b614236565b610382610841366004614d67565b6001600160a01b031660009081526004602052604090205490565b600f546104b3906001600160a01b031681565b6103f961087d366004614d67565b6143c7565b600080546040516305a1ce9960e01b8152600481018490526001600160a01b03909116906305a1ce99906024015b602060405180830381865afa1580156108cd573d6000803e3d6000fd5b505050506040513d601f19601f820116820180604052508101906108f191906153f4565b92915050565b600c546040516344c7439360e01b81526001600160a01b03838116600483015260009216906344c74393906024015b602060405180830381865afa158015610943573d6000803e3d6000fd5b505050506040513d601f19601f820116820180604052508101906108f19190615411565b600082815260066020908152604080832054835260059091528082205490516359dc5c6f60e01b8152600481018590526001600160a01b039091169081906359dc5c6f90602401600060405180830381600087803b1580156109c857600080fd5b505af11580156109dc573d6000803e3d6000fd5b5050604051630ae161cd60e21b8152600481018790526001600160a01b0384169250632b8587349150602401600060405180830381600087803b158015610a2257600080fd5b505af1158015610a36573d6000803e3d6000fd5b506001979650505050505050565b81610a4f8133610da7565b80610a6457506008546001600160a01b031633145b610a895760405162461bcd60e51b8152600401610a809061542a565b60405180910390fd5b6000610a9484611df3565b9050806001600160a01b031663c5d664c66040518163ffffffff1660e01b8152600401602060405180830381865afa158015610ad4573d6000803e3d6000fd5b505050506040513d601f19601f82011682018060405250810190610af89190615453565b60405163a9059cbb60e01b81526001600160a01b03838116600483015260248201869052919091169063a9059cbb906044016020604051808303816000875af1158015610b49573d6000803e3d6000fd5b505050506040513d601f19601f82011682018060405250810190610b6d91906153f4565b5050505050565b6009546001600160a01b0316331480610b975750600d546001600160a01b031633145b80610bac5750600f546001600160a01b031633145b80610bc157506008546001600160a01b031633145b610bdd5760405162461bcd60e51b8152600401610a8090615470565b6000610be883611df3565b9050806001600160a01b031663c5d664c66040518163ffffffff1660e01b8152600401602060405180830381865afa158015610c28573d6000803e3d6000fd5b505050506040513d601f19601f82011682018060405250810190610c4c9190615453565b60405163a9059cbb60e01b81526001600160a01b03838116600483015260248201859052919091169063a9059cbb906044016020604051808303816000875af1158015610c9d573d6000803e3d6000fd5b505050506040513d601f19601f82011682018060405250810190610cc191906153f4565b5060405163bbe0841760e01b815260006004820152602481018390526001600160a01b0382169063bbe08417906044015b600060405180830381600087803b158015610d0c57600080fd5b505af1158015610d20573d6000803e3d6000fd5b50505050505050565b6000805460405163046b1ab560e31b8152600481018590526001600160a01b03848116602483015290911690632358d5a8906044015b602060405180830381865afa158015610d7c573d6000803e3d6000fd5b505050506040513d601f19601f82011682018060405250810190610da091906153f4565b9392505050565b600080546040516323f2a73f60e01b8152600481018590526001600160a01b038481166024830152909116906323f2a73f90604401610d5f565b600954604051638a6cac3d60e01b81526004810183905260009182916001600160a01b0390911690638a6cac3d9060240160c060405180830381865afa158015610e2f573d6000803e3d6000fd5b505050506040513d601f19601f82011682018060405250810190610e539190615492565b505093505050915081158015610e665750805b610eb25760405162461bcd60e51b815260206004820152601960248201527f6d61726b657420636f6e646974696f6e73206e6f74206d6574000000000000006044820152606401610a80565b610ebb83611b30565b610f1b5760405162461bcd60e51b815260206004820152602b60248201527f6e6f7420656e6f7567682076616c696461746f7273206861766520766f74656460448201526a20746f207265736f6c766560a81b6064820152608401610a80565b6000838152600660209081526040808320548352600590915290819020549051630ae161cd60e21b8152600481018590526001600160a01b0390911690632b85873490602401610cf2565b60095460405163eb44fdd360e01b81526004810183905260009182918291829182916001600160a01b03169063eb44fdd390602401600060405180830381865afa158015610fb8573d6000803e3d6000fd5b505050506040513d6000823e601f3d908101601f19168201604052610fe09190810190615580565b90506000610fed87611e1b565b90506000610ffa88611df3565b6001600160a01b0316639ec4d40e896040518263ffffffff1660e01b815260040161102791815260200190565b600060405180830381865afa158015611044573d6000803e3d6000fd5b505050506040513d6000823e601f3d908101601f1916820160405261106c91908101906156b1565b82519750905061110161107e89611df3565b6001600160a01b03166301e1d1146040518163ffffffff1660e01b8152600401602060405180830381865afa1580156110bb573d6000803e3d6000fd5b505050506040513d601f19601f820116820180604052508101906110df9190615411565b6110ea9060016157ec565b835160208501516110fb91906157ff565b90614466565b9550806101a00151604001519450806101a00151608001519350806020015161130d57815160009081901561129b5773__$7f722a1af7b4060aab6915c87e2e2208cb$__63018b03518560000151600088600001516001600160a01b0316636e2f7ad36040518163ffffffff1660e01b8152600401602060405180830381865afa158015611193573d6000803e3d6000fd5b505050506040513d601f19601f820116820180604052508101906111b79190615411565b89600001516001600160a01b0316634df7e3d06040518163ffffffff1660e01b8152600401602060405180830381865afa1580156111f9573d6000803e3d6000fd5b505050506040513d601f19601f8201168201806040525081019061121d9190615411565b6040516001600160e01b031960e087901b16815260048101949094526024840192909252604483015260648201526001608482015260a4016040805180830381865af4158015611271573d6000803e3d6000fd5b505050506040513d601f19601f820116820180604052508101906112959190615812565b90925090505b835160c08401516000916112ae916157ff565b8385608001516112be91906157ff565b6112c891906157ff565b905060008560200151116112dd576000611305565b845160c085015161130591906112f49060016157ec565b6112fe91906157ff565b8290614466565b975090955050505b5050509193509193565b600054604051630e2e918560e21b81526001600160a01b03909116906338ba4614906113499085908590600401615836565b600060405180830381600087803b15801561136357600080fd5b505af1158015611377573d6000803e3d6000fd5b505050505050565b60095460405163661f1cf560e01b81526004810184905260009182916001600160a01b039091169063661f1cf590602401602060405180830381865afa1580156113cd573d6000803e3d6000fd5b505050506040513d601f19601f820116820180604052508101906113f19190615411565b905060006113fe85611df3565b6001600160a01b0316639ec4d40e866040518263ffffffff1660e01b815260040161142b91815260200190565b600060405180830381865afa158015611448573d6000803e3d6000fd5b505050506040513d6000823e601f3d908101601f1916820160405261147091908101906156b1565b60c0015190506114ab828261148d6729a2241af62c00008361447b565b61149791906157ec565b6114a191906157ff565b6110fb838761447b565b95945050505050565b6008546001600160a01b031633146114cb57600080fd5b6000808080808080806114e0898b018b61584f565b9750975097509750975097509750975087600960006101000a8154816001600160a01b0302191690836001600160a01b0316021790555086600c60006101000a8154816001600160a01b0302191690836001600160a01b03160217905550600960009054906101000a90046001600160a01b03166001600160a01b03166356a837f4886040518263ffffffff1660e01b815260040161158e91906001600160a01b0391909116815260200190565b600060405180830381600087803b1580156115a857600080fd5b505af11580156115bc573d6000803e3d6000fd5b5050600080546001600160a01b038a81166001600160a01b031992831617909255600d80548a8416921682179055600954604051631e60984f60e31b81526004810192909252909116925063f304c2789150602401600060405180830381600087803b15801561162b57600080fd5b505af115801561163f573d6000803e3d6000fd5b5050600f80546001600160a01b038881166001600160a01b031992831617909255600a8054888416908316179055600b8054878416908316179055600e805486841692168217905560095460405163280032e960e11b81526004810192909252909116925063500065d29150602401600060405180830381600087803b1580156116c857600080fd5b505af11580156116dc573d6000803e3d6000fd5b5050600c5460405163280032e960e11b81526001600160a01b038581166004830152909116925063500065d29150602401600060405180830381600087803b15801561172757600080fd5b505af115801561173b573d6000803e3d6000fd5b5050600d5460405163280032e960e11b81526001600160a01b038581166004830152909116925063500065d29150602401600060405180830381600087803b15801561178657600080fd5b505af115801561179a573d6000803e3d6000fd5b5050600f5460405163280032e960e11b81526001600160a01b038581166004830152909116925063500065d29150602401600060405180830381600087803b1580156117e557600080fd5b505af11580156117f9573d6000803e3d6000fd5b5050505050505050505050505050565b6007602052816000526040600020818154811061182557600080fd5b90600052602060002001600091509150505481565b806118458133610da7565b8061185a57506008546001600160a01b031633145b6118765760405162461bcd60e51b8152600401610a809061542a565b600082815260066020908152604080832054835260059091529081902054905163d746d3ef60e01b8152600481018490526001600160a01b039091169063d746d3ef90602401600060405180830381600087803b1580156118d657600080fd5b505af11580156118ea573d6000803e3d6000fd5b505050506118f782614490565b600954604051634cb4408760e01b8152600481018490526001600160a01b0390911690634cb4408790602401600060405180830381600087803b15801561193d57600080fd5b505af1158015611951573d6000803e3d6000fd5b50506040518492507f38274fdcd6150638fa33375a76a55bc5b507aa04639aef21fcf7a1bf0b9c095d9150600090a25050565b8061198f8133610da7565b806119a457506008546001600160a01b031633145b6119c05760405162461bcd60e51b8152600401610a809061542a565b6000806000806119cf86611df3565b6001600160a01b031663e134cc82876040518263ffffffff1660e01b81526004016119fc91815260200190565b6080604051808303816000875af1158015611a1b573d6000803e3d6000fd5b505050506040513d601f19601f82011682018060405250810190611a3f91906158f8565b9350935093509350611a548685858585614533565b60008054878252600160208190526040928390200154915163665293b360e11b8152600481018990526024810192909252604482018490526001600160a01b03169063cca5276690606401600060405180830381600087803b158015611ab957600080fd5b505af1158015611acd573d6000803e3d6000fd5b50505050611ada86614490565b60408051851515815260208101859052908101839052811515606082015286907f77220ccc88401eef4453630e1f9b709ab45bd7912e6599a260abd10a84ac3ed2906080015b60405180910390a2505050505050565b600080546040516320786c1f60e21b8152600481018490526001600160a01b03909116906381e1b07c906024016108b0565b6009546000906001600160a01b0316331480611b885750600d546001600160a01b031633145b80611b9d5750600f546001600160a01b031633145b80611bb257506008546001600160a01b031633145b611bce5760405162461bcd60e51b8152600401610a8090615470565b600054604051634187150160e11b8152600481018590526001600160a01b0384811660248301529091169063830e2a02906044016020604051808303816000875af1158015611c21573d6000803e3d6000fd5b505050506040513d601f19601f82011682018060405250810190610da09190615411565b600054604051636172cd6760e01b8152600481018390523360248201526001600160a01b0390911690636172cd67906044015b600060405180830381600087803b158015611c9257600080fd5b505af1158015610b6d573d6000803e3d6000fd5b6009546001600160a01b0316331480611cc95750600d546001600160a01b031633145b80611cde5750600f546001600160a01b031633145b80611cf357506008546001600160a01b031633145b611d0f5760405162461bcd60e51b8152600401610a8090615470565b600054604051638f5709a560e01b8152600481018490526001600160a01b03838116602483015290911690638f5709a590604401611349565b60095460405163054d50b360e21b8152600481018390526000916001600160a01b03169063153542cc90602401602060405180830381865afa158015611d92573d6000803e3d6000fd5b505050506040513d601f19601f82011682018060405250810190611db69190615453565b6001600160a01b03166318160ddd6040518163ffffffff1660e01b8152600401602060405180830381865afa158015610943573d6000803e3d6000fd5b600090815260066020908152604080832054835260059091529020546001600160a01b031690565b611e3f60405180606001604052806000815260200160008152602001600081525090565b506000908152600160208181526040928390208351606081018552815481529281015491830191909152600201549181019190915290565b60005460405163f23566b560e01b8152600481018390523360248201526001600160a01b039091169063f23566b590604401611c78565b600081815260076020908152604091829020805483518184028101840190945280845260609392830182828015611f0457602002820191906000526020600020905b815481526020019060010190808311611ef0575b50505050509050919050565b60095460405163b1283e7760e01b81526004810183905260009182916001600160a01b039091169063b1283e7790602401600060405180830381865afa158015611f5e573d6000803e3d6000fd5b505050506040513d6000823e601f3d908101601f19168201604052611f869190810190615944565b9650505050505050801561208b57611f9d83611df3565b6001600160a01b0316639ec4d40e846040518263ffffffff1660e01b8152600401611fca91815260200190565b600060405180830381865afa158015611fe7573d6000803e3d6000fd5b505050506040513d6000823e601f3d908101601f1916820160405261200f91908101906156b1565b6101a001515160095460405163661f1cf560e01b8152600481018690526001600160a01b039091169063661f1cf590602401602060405180830381865afa15801561205e573d6000803e3d6000fd5b505050506040513d601f19601f820116820180604052508101906120829190615411565b10159392505050565b600061209684611df3565b6001600160a01b0316639ec4d40e856040518263ffffffff1660e01b81526004016120c391815260200190565b600060405180830381865afa1580156120e0573d6000803e3d6000fd5b505050506040513d6000823e601f3d908101601f1916820160405261210891908101906156b1565b60c00151604080518082018252600f81526e36b0b935b2ba31b7b73234ba34b7b760891b6020820152600954915163661f1cf560e01b8152600481018890529293506122249290916001600160a01b03169063661f1cf590602401602060405180830381865afa158015612180573d6000803e3d6000fd5b505050506040513d601f19601f820116820180604052508101906121a49190615411565b60095460405163c6ceb96b60e01b81526004810189905261221f916001600160a01b03169063c6ceb96b9060240161010060405180830381865afa1580156121f0573d6000803e3d6000fd5b505050506040513d601f19601f8201168201806040525081019061221491906159e3565b60400151859061447b565b614875565b60095460405163c6ceb96b60e01b81526004810186905261229f916001600160a01b03169063c6ceb96b9060240161010060405180830381865afa158015612270573d6000803e3d6000fd5b505050506040513d601f19601f8201168201806040525081019061229491906159e3565b60400151829061447b565b60095460405163661f1cf560e01b8152600481018790526001600160a01b039091169063661f1cf590602401602060405180830381865afa1580156122e8573d6000803e3d6000fd5b505050506040513d601f19601f8201168201806040525081019061230c9190615411565b1015949350505050565b60008060008060006007600087815260200190815260200160002080548060200260200160405190810160405280929190818152602001828054801561237b57602002820191906000526020600020905b815481526020019060010190808311612367575b5050505050905060005b8151811015612481576000806123b38484815181106123a6576123a6615a72565b6020026020010151610f66565b5090935091506123c59050828261447b565b6123cf90886157ec565b60095485519198506001600160a01b03169063661f1cf5908690869081106123f9576123f9615a72565b60200260200101516040518263ffffffff1660e01b815260040161241f91815260200190565b602060405180830381865afa15801561243c573d6000803e3d6000fd5b505050506040513d601f19601f820116820180604052508101906124609190615411565b61246a90896157ec565b97505050808061247990615a88565b915050612385565b506000868152600560209081526040918290205482516336190e4560e11b815292516001600160a01b0390911692670c7d713b49da00009283928592636c321c8a9260048083019391928290030181865afa1580156124e4573d6000803e3d6000fd5b505050506040513d601f19601f820116820180604052508101906125089190615411565b116125955761258e86612588846001600160a01b0316636c321c8a6040518163ffffffff1660e01b8152600401602060405180830381865afa158015612552573d6000803e3d6000fd5b505050506040513d601f19601f820116820180604052508101906125769190615411565b6125819060016157ec565b8490614466565b9061447b565b9450612599565b8594505b60405163ef8b30f760e01b8152670de0b6b3a764000060048201526001600160a01b0383169063ef8b30f790602401602060405180830381865afa1580156125e5573d6000803e3d6000fd5b505050506040513d601f19601f820116820180604052508101906126099190615411565b93505050509193509193565b816126208133610da7565b8061263557506008546001600160a01b031633145b6126515760405162461bcd60e51b8152600401610a809061542a565b505050565b6000546001600160a01b031633148061267957506008546001600160a01b031633145b6126b25760405162461bcd60e51b815260206004820152600a60248201526910bb30b634b230ba37b960b11b6044820152606401610a80565b6000818152600660209081526040808320548352600590915280822054600954915163068bcd8d60e01b8152600481018590526001600160a01b039182169392919091169063068bcd8d90602401602060405180830381865afa15801561271d573d6000803e3d6000fd5b505050506040513d601f19601f820116820180604052508101906127419190615453565b600954604051634bee760b60e11b8152600481018690529192506001600160a01b0316906397dcec1690602401602060405180830381865afa15801561278b573d6000803e3d6000fd5b505050506040513d601f19601f820116820180604052508101906127af9190615411565b6003146127f15760405162461bcd60e51b815260206004820152601060248201526f10b6b0b935b2ba21b7b73234ba34b7b760811b6044820152606401610a80565b60405163238f0e7560e11b8152600481018490526001600160a01b0383169063471e1cea90602401602060405180830381865afa158015612836573d6000803e3d6000fd5b505050506040513d601f19601f8201168201806040525081019061285a91906153f4565b61289d5760405162461bcd60e51b815260206004820152601460248201527310b4b739ba393ab6b2b73a21b7b73234ba34b7b760611b6044820152606401610a80565b60095460405163cabe2ae160e01b8152600481018590526001600160a01b039091169063cabe2ae190602401600060405180830381600087803b1580156128e357600080fd5b505af11580156128f7573d6000803e3d6000fd5b505060095460405163b1283e7760e01b815260048101879052600093506001600160a01b03909116915063b1283e7790602401600060405180830381865afa158015612947573d6000803e3d6000fd5b505050506040513d6000823e601f3d908101601f1916820160405261296f9190810190615944565b60095460405163661f1cf560e01b8152600481018d9052919850600097506001600160a01b0316955063661f1cf5945060240192506129ac915050565b602060405180830381865afa1580156129c9573d6000803e3d6000fd5b505050506040513d601f19601f820116820180604052508101906129ed9190615411565b9050612a8160405180604001604052806013815260200172036b0b730b3b2b921b7b63630ba32b930b61d1606d1b81525082856001600160a01b03166308ef2b4c6040518163ffffffff1660e01b8152600401602060405180830381865afa158015612a5d573d6000803e3d6000fd5b505050506040513d601f19601f8201168201806040525081019061221f9190615411565b60408051808201825260058152643f3f3f3f3f60d81b6020820152600e54915163eb44fdd360e01b815260048101889052612c58926001600160a01b03169063eb44fdd390602401600060405180830381865afa158015612ae6573d6000803e3d6000fd5b505050506040513d6000823e601f3d908101601f19168201604052612b0e9190810190615580565b604001516001600160a01b03166318160ddd6040518163ffffffff1660e01b8152600401602060405180830381865afa158015612b4f573d6000803e3d6000fd5b505050506040513d601f19601f82011682018060405250810190612b739190615411565b600e5460405163eb44fdd360e01b8152600481018a90526001600160a01b039091169063eb44fdd390602401600060405180830381865afa158015612bbc573d6000803e3d6000fd5b505050506040513d6000823e601f3d908101601f19168201604052612be49190810190615580565b602001516001600160a01b03166318160ddd6040518163ffffffff1660e01b8152600401602060405180830381865afa158015612c25573d6000803e3d6000fd5b505050506040513d601f19601f82011682018060405250810190612c499190615411565b612c5391906157ff565b6148bc565b826001600160a01b03166396fd1c4230856001600160a01b03166308ef2b4c6040518163ffffffff1660e01b8152600401602060405180830381865afa158015612ca6573d6000803e3d6000fd5b505050506040513d601f19601f82011682018060405250810190612cca9190615411565b6040516001600160e01b031960e085901b1681526001600160a01b0390921660048301526024820152604401600060405180830381600087803b158015612d1057600080fd5b505af1158015612d24573d6000803e3d6000fd5b50506040516376da9e9f60e11b815260048101889052600092506001600160a01b038716915063edb53d3e90602401602060405180830381865afa158015612d70573d6000803e3d6000fd5b505050506040513d601f19601f82011682018060405250810190612d949190615453565b9050846001600160a01b031663c5d664c66040518163ffffffff1660e01b8152600401602060405180830381865afa158015612dd4573d6000803e3d6000fd5b505050506040513d601f19601f82011682018060405250810190612df89190615453565b60405163095ea7b360e01b81526001600160a01b03838116600483015260248201859052919091169063095ea7b3906044016020604051808303816000875af1158015612e49573d6000803e3d6000fd5b505050506040513d601f19601f82011682018060405250810190612e6d91906153f4565b5082156130795760095460405163054d50b360e21b815260048101889052612fbf9188916001600160a01b039091169063153542cc90602401602060405180830381865afa158015612ec3573d6000803e3d6000fd5b505050506040513d601f19601f82011682018060405250810190612ee79190615453565b6001600160a01b03166318160ddd6040518163ffffffff1660e01b8152600401602060405180830381865afa158015612f24573d6000803e3d6000fd5b505050506040513d601f19601f82011682018060405250810190612f489190615411565b604051634f626a0760e11b8152600481018a90526001600160a01b03891690639ec4d40e90602401600060405180830381865afa158015612f8d573d6000803e3d6000fd5b505050506040513d6000823e601f3d908101601f19168201604052612fb591908101906156b1565b6101a00151614905565b604051636e553f6560e01b8152600481018390526001600160a01b03868116602483015260009190831690636e553f65906044016020604051808303816000875af1158015613012573d6000803e3d6000fd5b505050506040513d601f19601f820116820180604052508101906130369190615411565b116130745760405162461bcd60e51b815260206004820152600e60248201526d11115413d4d25517d1905253115160921b6044820152606401610a80565b6131da565b6040516303d972f160e21b8152600481018790526001600160a01b03861690630f65cbc490602401602060405180830381865afa1580156130be573d6000803e3d6000fd5b505050506040513d601f19601f820116820180604052508101906130e29190615411565b6000036130f8576130f386856149ba565b613101565b61310186614c05565b846001600160a01b031663c5d664c66040518163ffffffff1660e01b8152600401602060405180830381865afa15801561313f573d6000803e3d6000fd5b505050506040513d601f19601f820116820180604052508101906131639190615453565b60405163a9059cbb60e01b81526001600160a01b03838116600483015260248201859052919091169063a9059cbb906044016020604051808303816000875af11580156131b4573d6000803e3d6000fd5b505050506040513d601f19601f820116820180604052508101906131d891906153f4565b505b6000868152600160208190526040918290208481559151624e1afd60e81b81526004810189905260248101859052908201546044820152600290910154606482015283151560848201526001600160a01b03861690634e1afd009060a401600060405180830381600087803b15801561325257600080fd5b505af1158015613266573d6000803e3d6000fd5b5050506000878152600160205260409081902090518892507fa5a0c282064b5581aa97f2fdef075816b806dd6394a5eaaf1831ec95a1f79d5791611b2091615aa1565b600080546040516317c2ad2760e21b815260048101849052336024820152829182916001600160a01b0390911690635f0ab49c9060440160408051808303816000875af11580156132fe573d6000803e3d6000fd5b505050506040513d601f19601f820116820180604052508101906133229190615812565b60095460405163334b11d360e11b81526004810188905260248101849052604481018390523360648201529294509092506001600160a01b03169063669623a690608401600060405180830381600087803b15801561338057600080fd5b505af1158015613394573d6000803e3d6000fd5b505050506133a184610882565b1561340e576133af84612656565b60095460405163cabe2ae160e01b8152600481018690526001600160a01b039091169063cabe2ae190602401600060405180830381600087803b1580156133f557600080fd5b505af1158015613409573d6000803e3d6000fd5b505050505b5092915050565b60008054604051633597b25960e21b8152600481018490526001600160a01b039091169063d65ec96490602401610926565b6009546001600160a01b031633148061346a5750600d546001600160a01b031633145b8061347f5750600f546001600160a01b031633145b8061349457506008546001600160a01b031633145b6134b05760405162461bcd60e51b8152600401610a8090615470565b60006134bb83611df3565b604051633c16f3ed60e21b8152600481018490523360248201529091506001600160a01b0382169063f05bcfb490604401600060405180830381600087803b15801561350657600080fd5b505af115801561351a573d6000803e3d6000fd5b505060405163bbe0841760e01b815260016004820152602481018590526001600160a01b038416925063bbe084179150604401610cf2565b600a5460405160009182916001600160a01b0390911690631fe84c5b908c90309061358b908e908e908e908e908d908d90602001615ac2565b604051602081830303815290604052896040518563ffffffff1660e01b81526004016135ba9493929190615b89565b60408051808303816000875af11580156135d8573d6000803e3d6000fd5b505050506040513d601f19601f820116820180604052508101906135fc9190615bc6565b6000818152600560205260409081902080546001600160a01b0319166001600160a01b0385169081179091559051929450909250907f7ecb7591c061739d6ccd6a6299e0adf7d3447c390b9321530e0a400f7c65d1b79061366a9084908e908e908e908e908e908e90615bf4565b60405180910390a250505050505050505050565b600c54604051637453c01360e11b81526001600160a01b03848116600483015260248201849052600092169063e8a7802690604401610d5f565b6001600160a01b0383166136fa5760405162461bcd60e51b815260206004820152600960248201526830b2323932b9b9982960b91b6044820152606401610a80565b6101408201516001600160a01b03166137415760405162461bcd60e51b815260206004820152600960248201526861646472657373304960b81b6044820152606401610a80565b6000818152600560205260409020546001600160a01b03166137915760405162461bcd60e51b815260206004820152600960248201526830b2323932b9b9982b60b91b6044820152606401610a80565b600081815260056020908152604080832054600954825163764bc84160e11b815292516001600160a01b039283169594919092169263ec97908292600480830193928290030181865afa1580156137ec573d6000803e3d6000fd5b505050506040513d601f19601f820116820180604052508101906138109190615411565b60008181526006602090815260408083208790558683526007825280832080546001818101835591855283852001859055815180830183526101408a01516001600160a01b0390811682528b8116828601908152878752600390955294839020905181549086166001600160a01b031991821617825593519101805491851691909316179091556009548151637572cb1f60e01b81529151939450821692634e042a5992861691637572cb1f916004808301926101009291908290030181865afa1580156138e2573d6000803e3d6000fd5b505050506040513d601f19601f8201168201806040525081019061390691906159e3565b846001600160a01b0316636c321c8a6040518163ffffffff1660e01b8152600401602060405180830381865afa158015613944573d6000803e3d6000fd5b505050506040513d601f19601f820116820180604052508101906139689190615411565b846040518463ffffffff1660e01b815260040161398793929190615c41565b600060405180830381600087803b1580156139a157600080fd5b505af11580156139b5573d6000803e3d6000fd5b5050600b5460008681526005602090815260408083205481516362eb326360e11b8152915193965086955085946001600160a01b039081169463981f513694919092169263c5d664c692600480830193928290030181865afa158015613a1f573d6000803e3d6000fd5b505050506040513d601f19601f82011682018060405250810190613a439190615453565b60095460405160e084901b6001600160e01b03191681526001600160a01b039283166004820152911660248201526044016060604051808303816000875af1158015613a93573d6000803e3d6000fd5b505050506040513d601f19601f82011682018060405250810190613ab79190615c63565b6040805160e081018252600080825260208083018290529282018190526060808301526080820181905260a0820181905260c0820152908b015193965091945092509015613df957670de0b6b3a7640000886101a001516020015111158015613b2e57506101a08801516080810151602090910151105b613b665760405162461bcd60e51b8152602060048201526009602482015268282924a1a29022a92960b91b6044820152606401610a80565b6000886101a001516040015111613bac5760405162461bcd60e51b815260206004820152600a6024820152692922aa2aa9271022a92960b11b6044820152606401610a80565b6101a08801805142606090910152518051602082015160809092015160095460405163c6ceb96b60e01b8152600481018a90526001600160a01b03878116956334327d8b95949093909291169063c6ceb96b9060240161010060405180830381865afa158015613c20573d6000803e3d6000fd5b505050506040513d601f19601f82011682018060405250810190613c4491906159e3565b602001516040516001600160e01b031960e087901b16815260048101949094526024840192909252604483015260648201526084016020604051808303816000875af1158015613c98573d6000803e3d6000fd5b505050506040513d601f19601f82011682018060405250810190613cbc9190615411565b6101a089015160c0015260095461012089015160405163080ec90d60e21b81526001600160a01b039092169163203b243491613d0591899187918a918a91600190600401615cb0565b600060405180830381600087803b158015613d1f57600080fd5b505af1158015613d33573d6000803e3d6000fd5b50506040805160e0810182526001600160a01b038681168252888116602080840191909152888216838501526101208e01516060840152426080840152600060a08401819052600160c0850152546101a08f015151918f01519451639c84342360e01b8152600481018d905260248101929092529315156044820152919550919091169250639c8434239150606401600060405180830381600087803b158015613ddc57600080fd5b505af1158015613df0573d6000803e3d6000fd5b50505050614058565b60095460405163c6ceb96b60e01b8152600481018790526000916001600160a01b03169063c6ceb96b9060240161010060405180830381865afa158015613e44573d6000803e3d6000fd5b505050506040513d601f19601f82011682018060405250810190613e6891906159e3565b60c08a015160e08b015160208301516040808501516080860151915163ac4bc1cb60e01b8152600481019590955260248501939093526044840191909152606483019190915260848201529091506001600160a01b0384169063ac4bc1cb9060a401600060405180830381600087803b158015613ee457600080fd5b505af1158015613ef8573d6000803e3d6000fd5b50506009546101208c015160405163080ec90d60e21b81526001600160a01b03909216935063203b24349250613f3b918a9188918b918b91600090600401615cb0565b600060405180830381600087803b158015613f5557600080fd5b505af1158015613f69573d6000803e3d6000fd5b505050506040518060e00160405280846001600160a01b03168152602001866001600160a01b03168152602001856001600160a01b031681526020018a610120015181526020014281526020016000815260200160001515815250915060008054906101000a90046001600160a01b03166001600160a01b0316639c843423878b60c001518c602001516040518463ffffffff1660e01b81526004016140249392919092835260208301919091521515604082015260600190565b600060405180830381600087803b15801561403e57600080fd5b505af1158015614052573d6000803e3d6000fd5b50505050505b600e54604051637c4b1bb560e11b81526001600160a01b03909116906392b8c31e90829063f896376a90614090908690600401615d6c565b6020604051808303816000875af11580156140af573d6000803e3d6000fd5b505050506040513d601f19601f820116820180604052508101906140d39190615411565b8a6101a0015160800151600060018d876040518763ffffffff1660e01b815260040161410496959493929190615ec2565b600060405180830381600087803b15801561411e57600080fd5b505af1158015614132573d6000803e3d6000fd5b5050505060a088018590526040516398d796e760e01b81526001600160a01b038716906398d796e790614169908b90600401615f0e565b600060405180830381600087803b15801561418357600080fd5b505af1158015614197573d6000803e3d6000fd5b50505050886001600160a01b03166005600089815260200190815260200160002060009054906101000a90046001600160a01b03166001600160a01b0316867fc276e8dd3cf2547c0646ef7093b7ef8fb4edc8fde6df7574f8757ca3336e940f8588888e60405161420b9493929190615f21565b60405180910390a45050506001600160a01b0390951660009081526004602052604090205550505050565b6009546001600160a01b03163314806142595750600d546001600160a01b031633145b8061426e5750600f546001600160a01b031633145b8061428357506008546001600160a01b031633145b61429f5760405162461bcd60e51b8152600401610a8090615470565b6142a881611df3565b6001600160a01b031663c5d664c66040518163ffffffff1660e01b8152600401602060405180830381865afa1580156142e5573d6000803e3d6000fd5b505050506040513d601f19601f820116820180604052508101906143099190615453565b60405163a9059cbb60e01b81526001600160a01b03848116600483015260248201869052919091169063a9059cbb906044016020604051808303816000875af115801561435a573d6000803e3d6000fd5b505050506040513d601f19601f8201168201806040525081019061437e91906153f4565b50604080518481526001600160a01b038416602082015282917f23eee7127e8ffafe0ff607129c8dc9492da94a3ee89d9690587399ac0e4e644f910160405180910390a2505050565b6008546001600160a01b031633146144095760405162461bcd60e51b8152602060048201526005602482015264042c2eae8d60db1b6044820152606401610a80565b6001600160a01b0381811660008181526002602052604090819020805460ff19166001179055600c549051630622fd1760e01b81526004810192909252670de0b6b3a7640000602483015290911690630622fd1790604401611c78565b6000610da083670de0b6b3a764000084614cd0565b6000610da08383670de0b6b3a7640000614cd0565b60095460405163068bcd8d60e01b8152600481018390526001600160a01b039091169063068bcd8d90602401602060405180830381865afa1580156144d9573d6000803e3d6000fd5b505050506040513d601f19601f820116820180604052508101906144fd9190615453565b604051634b7e8e2160e11b815230600482015260001960248201526001600160a01b0391909116906396fd1c4290604401611c78565b831561454757821561454757614547615f5f565b60095460405163054d50b360e21b8152600481018790526000916001600160a01b03169063153542cc90602401602060405180830381865afa158015614591573d6000803e3d6000fd5b505050506040513d601f19601f820116820180604052508101906145b59190615453565b6001600160a01b03166318160ddd6040518163ffffffff1660e01b8152600401602060405180830381865afa1580156145f2573d6000803e3d6000fd5b505050506040513d601f19601f820116820180604052508101906146169190615411565b60095460405163920f4e5560e01b8152600481018990529192506000916001600160a01b039091169063920f4e5590602401602060405180830381865afa158015614665573d6000803e3d6000fd5b505050506040513d601f19601f820116820180604052508101906146899190615453565b6001600160a01b03166318160ddd6040518163ffffffff1660e01b8152600401602060405180830381865afa1580156146c6573d6000803e3d6000fd5b505050506040513d601f19601f820116820180604052508101906146ea9190615411565b905060008380156146fb5750600086115b156147115761470a888761137f565b905061477b565b8661473c5761472a61472383856157ec565b8790614466565b61470a90670de0b6b3a76400006157ec565b6147468584614466565b670de0b6b3a76400001161475c5750600061477b565b6147668584614466565b61477890670de0b6b3a76400006157ff565b90505b61478488611df3565b6001600160a01b031663f05bcfb46147a08361258886886157ff565b6040516001600160e01b031960e084901b1681526004810191909152306024820152604401600060405180830381600087803b1580156147df57600080fd5b505af11580156147f3573d6000803e3d6000fd5b50506009546040516361fa5af560e01b8152600481018c90528a1515602482015287156044820152606481018590526001600160a01b0390911692506361fa5af59150608401600060405180830381600087803b15801561485357600080fd5b505af1158015614867573d6000803e3d6000fd5b505050505050505050505050565b61265183838360405160240161488d93929190615f75565b60408051601f198184030181529190526020810180516001600160e01b031663969cdd0360e01b179052614cee565b61490182826040516024016148d2929190615f9a565b60408051601f198184030181529190526020810180516001600160e01b03166309710a9d60e41b179052614cee565b5050565b60008160a00151116149485760405162461bcd60e51b815260206004820152600c60248201526b18102622ab2fa320a1aa27a960a11b6044820152606401610a80565b60405180606001604052806000815260200161498483608001516125888560a00151670de0b6b3a764000061497d91906157ec565b879061447b565b81526000602091820181905294855260018082526040958690208351815591830151908201559301516002909301929092555050565b600082815260066020908152604080832054835260059091528082205490516318353be960e21b81526004810185905282916001600160a01b0316906360d4efa4906024016040805180830381865afa158015614a1b573d6000803e3d6000fd5b505050506040513d601f19601f82011682018060405250810190614a3f9190615812565b60095460405163661f1cf560e01b815260048101889052929450909250600091614b4791614b41916001600160a01b039091169063661f1cf590602401602060405180830381865afa158015614a99573d6000803e3d6000fd5b505050506040513d601f19601f82011682018060405250810190614abd9190615411565b60095460405163c6ceb96b60e01b8152600481018a9052670de0b6b3a7640000916001600160a01b03169063c6ceb96b9060240161010060405180830381865afa158015614b0f573d6000803e3d6000fd5b505050506040513d601f19601f82011682018060405250810190614b3391906159e3565b60c0015161258891906157ec565b84614d0f565b90506000614bbd856001600160a01b03166314e2b929846040518263ffffffff1660e01b8152600401614b7c91815260200190565b602060405180830381865afa158015614b99573d6000803e3d6000fd5b505050506040513d601f19601f82011682018060405250810190614b419190615411565b60408051606081018252600080825260208083019687528284019485529981526001998a90529190912090518155925196830196909655509351600290940193909355505050565b600081815260066020908152604080832054835260059091528082205490516318353be960e21b81526004810184905282916001600160a01b0316906360d4efa4906024016040805180830381865afa158015614c66573d6000803e3d6000fd5b505050506040513d601f19601f82011682018060405250810190614c8a9190615812565b6040805160608101825260008082526020808301958652828401948552978152600197889052919091209051815591519482019490945592516002909301929092555050565b6000826000190484118302158202614ce757600080fd5b5091020490565b80516a636f6e736f6c652e6c6f67602083016000808483855afa5050505050565b600081831115614d1f5781610da0565b5090919050565b600060208284031215614d3857600080fd5b5035919050565b6001600160a01b0381168114614d5457600080fd5b50565b8035614d6281614d3f565b919050565b600060208284031215614d7957600080fd5b8135610da081614d3f565b8015158114614d5457600080fd5b8035614d6281614d84565b60008060408385031215614db057600080fd5b823591506020830135614dc281614d84565b809150509250929050565b60008060408385031215614de057600080fd5b50508035926020909101359150565b60008060408385031215614e0257600080fd5b823591506020830135614dc281614d3f565b634e487b7160e01b600052604160045260246000fd5b60405161010081016001600160401b0381118282101715614e4d57614e4d614e14565b60405290565b60405160e081016001600160401b0381118282101715614e4d57614e4d614e14565b6040516101c081016001600160401b0381118282101715614e4d57614e4d614e14565b604051601f8201601f191681016001600160401b0381118282101715614ec057614ec0614e14565b604052919050565b60008060408385031215614edb57600080fd5b823591506020808401356001600160401b0380821115614efa57600080fd5b818601915086601f830112614f0e57600080fd5b813581811115614f2057614f20614e14565b8060051b9150614f31848301614e98565b8181529183018401918481019089841115614f4b57600080fd5b938501935b83851015614f6957843582529385019390850190614f50565b8096505050505050509250929050565b60008083601f840112614f8b57600080fd5b5081356001600160401b03811115614fa257600080fd5b602083019150836020828501011115614fba57600080fd5b9250929050565b60008060208385031215614fd457600080fd5b82356001600160401b03811115614fea57600080fd5b614ff685828601614f79565b90969095509350505050565b600081518084526020808501945080840160005b8381101561503257815187529582019590820190600101615016565b509495945050505050565b602081526000610da06020830184615002565b600080600080600080600080888a036101c081121561506e57600080fd5b893561507981614d3f565b985060208a013561508981614d84565b975060408a0135965060608a0135955060808a01359450610100609f1982018113156150b457600080fd5b6150bc614e2a565b915060a08b0135825260c08b0135602083015260e08b01356040830152808b01356060830152506101208a013560808201526101408a013560a08201526101608a013560c08201526101808a013560e0820152809350506101a08901356001600160401b0381111561512d57600080fd5b6151398b828c01614f79565b999c989b5096995094979396929594505050565b6000806040838503121561516057600080fd5b823561516b81614d3f565b946020939093013593505050565b60006001600160401b0382111561519257615192614e14565b50601f01601f191660200190565b600082601f8301126151b157600080fd5b81356151c46151bf82615179565b614e98565b8181528460208386010111156151d957600080fd5b816020850160208301376000918101602001919091529392505050565b60068110614d5457600080fd5b8035614d62816151f6565b600060e0828403121561522057600080fd5b615228614e53565b9050813581526020820135602082015260408201356040820152606082013560608201526080820135608082015260a082013560a082015260c082013560c082015292915050565b60008060006060848603121561528557600080fd5b833561529081614d3f565b925060208401356001600160401b03808211156152ac57600080fd5b9085019061028082880312156152c157600080fd5b6152c9614e75565b823581526152d960208401614d92565b60208201526152ea60408401614d92565b6040820152606083013560608201526080830135608082015260a083013560a082015260c083013560c082015260e083013560e0820152610100808401358183015250610120808401358381111561534157600080fd5b61534d8a8287016151a0565b8284015250506101409150615363828401614d57565b828201526101609150615377828401615203565b82820152610180915081830135828201526101a091506153998883850161520e565b82820152809450505050604084013590509250925092565b6000806000606084860312156153c657600080fd5b8335925060208401356153d881614d3f565b929592945050506040919091013590565b8051614d6281614d84565b60006020828403121561540657600080fd5b8151610da081614d84565b60006020828403121561542357600080fd5b5051919050565b6020808252600490820152630855985b60e21b604082015260600190565b8051614d6281614d3f565b60006020828403121561546557600080fd5b8151610da081614d3f565b60208082526008908201526710b6b0b730b3b2b960c11b604082015260600190565b60008060008060008060c087890312156154ab57600080fd5b86516154b681614d84565b60208801519096506154c781614d84565b60408801519095506154d881614d84565b60608801519094506154e981614d84565b60808801519093506154fa81614d84565b8092505060a087015190509295509295509295565b60005b8381101561552a578181015183820152602001615512565b50506000910152565b600082601f83011261554457600080fd5b81516155526151bf82615179565b81815284602083860101111561556757600080fd5b61557882602083016020870161550f565b949350505050565b60006020828403121561559257600080fd5b81516001600160401b03808211156155a957600080fd5b9083019060e082860312156155bd57600080fd5b6155c5614e53565b6155ce83615448565b81526155dc60208401615448565b60208201526155ed60408401615448565b604082015260608301518281111561560457600080fd5b61561087828601615533565b6060830152506080830151608082015260a083015160a082015261563660c084016153e9565b60c082015295945050505050565b8051614d62816151f6565b600060e0828403121561566157600080fd5b615669614e53565b9050815181526020820151602082015260408201516040820152606082015160608201526080820151608082015260a082015160a082015260c082015160c082015292915050565b6000602082840312156156c357600080fd5b81516001600160401b03808211156156da57600080fd5b9083019061028082860312156156ef57600080fd5b6156f7614e75565b82518152615707602084016153e9565b6020820152615718604084016153e9565b6040820152606083015160608201526080830151608082015260a083015160a082015260c083015160c082015260e083015160e0820152610100808401518183015250610120808401518381111561576f57600080fd5b61577b88828701615533565b8284015250506101409150615791828401615448565b8282015261016091506157a5828401615644565b82820152610180915081830151828201526101a091506157c78683850161564f565b91810191909152949350505050565b634e487b7160e01b600052601160045260246000fd5b808201808211156108f1576108f16157d6565b818103818111156108f1576108f16157d6565b6000806040838503121561582557600080fd5b505080516020909101519092909150565b8281526040602082015260006155786040830184615002565b600080600080600080600080610100898b03121561586c57600080fd5b883561587781614d3f565b9750602089013561588781614d3f565b9650604089013561589781614d3f565b955060608901356158a781614d3f565b945060808901356158b781614d3f565b935060a08901356158c781614d3f565b925060c08901356158d781614d3f565b915060e08901356158e781614d3f565b809150509295985092959890939650565b6000806000806080858703121561590e57600080fd5b845161591981614d84565b809450506020850151925060408501519150606085015161593981614d84565b939692955090935050565b600080600080600080600060e0888a03121561595f57600080fd5b875161596a81614d3f565b602089015190975061597b81614d3f565b604089015190965061598c81614d3f565b60608901519095506001600160401b038111156159a857600080fd5b6159b48a828b01615533565b9450506080880151925060a0880151915060c08801516159d381614d84565b8091505092959891949750929550565b60006101008083850312156159f757600080fd5b604051908101906001600160401b0382118183101715615a1957615a19614e14565b81604052835181526020840151602082015260408401516040820152606084015160608201526080840151608082015260a084015160a082015260c084015160c082015260e084015160e0820152809250505092915050565b634e487b7160e01b600052603260045260246000fd5b600060018201615a9a57615a9a6157d6565b5060010190565b815481526001820154602082015260028201546040820152606081016108f1565b861515815285602082015284604082015283606082015260a060808201528160a0820152818360c0830137600081830160c090810191909152601f909201601f1916010195945050505050565b60008151808452615b2781602086016020860161550f565b601f01601f19169290920160200192915050565b805182526020810151602083015260408101516040830152606081015160608301526080810151608083015260a081015160a083015260c081015160c083015260e081015160e08301525050565b6001600160a01b0385811682528416602082015261016060408201819052600090615bb683820186615b0f565b9150506114ab6060830184615b3b565b60008060408385031215615bd957600080fd5b8251615be481614d3f565b6020939093015192949293505050565b8781526001600160a01b03871660208201528515156040820152606081018590526080810184905260a081018390526101c08101615c3560c0830184615b3b565b98975050505050505050565b6101408101615c508286615b3b565b6101008201939093526101200152919050565b600080600060608486031215615c7857600080fd5b8351615c8381614d3f565b6020850151909350615c9481614d3f565b6040850151909250615ca581614d3f565b809150509250925092565b8681526001600160a01b03868116602083015285811660408301528416606082015260c060808201819052600090615cea90830185615b0f565b905082151560a0830152979650505050505050565b600060018060a01b0380835116845280602084015116602085015280604084015116604085015250606082015160e06060850152615d4060e0850182615b0f565b90506080830151608085015260a083015160a085015260c0830151151560c08501528091505092915050565b602081526000610da06020830184615cff565b60068110615d9d57634e487b7160e01b600052602160045260246000fd5b9052565b6000610280825184526020830151615dbd602086018215159052565b506040830151615dd1604086018215159052565b50606083015160608501526080830151608085015260a083015160a085015260c083015160c085015260e083015160e0850152610100808401518186015250610120808401518282870152615e2883870182615b0f565b9250505061014080840151615e47828701826001600160a01b03169052565b505061016080840151615e5c82870182615d7f565b505061018083810151908501526101a08084015180518287015260208101516101c087015260408101516101e08701526060810151610200870152608081015161022087015260a081015161024087015260c08101516102608701525090949350505050565b868152856020820152846040820152831515606082015260c060808201526000615eef60c0830185615da1565b82810360a0840152615f018185615cff565b9998505050505050505050565b602081526000610da06020830184615da1565b6001600160a01b038581168252848116602083015283166040820152608060608201819052600090615f5590830184615da1565b9695505050505050565b634e487b7160e01b600052600160045260246000fd5b606081526000615f886060830186615b0f565b60208301949094525060400152919050565b604081526000615fad6040830185615b0f565b9050826020830152939250505056fea2646970667358221220bdff82540d1ab09d9c54195d31f0f2dbf8f81bce7d8a31bf913a3e2e7c9d70c664736f6c63430008110033",
    "linkReferences": {
      "contracts/bonds/GBC.sol": {
        "LinearCurve": [
          {
            "start": 4594,
            "length": 20
          }
        ]
      }
    }
  },
  "methodIdentifiers": {
    "Data()": "4b6e7d78",
    "ad_to_id(address)": "7789ec5a",
    "approvalCondition(uint256)": "05a1ce99",
    "approveMarket(uint256)": "cabe2ae1",
    "beforeResolve(uint256)": "2b858734",
    "calcIncompleteReturns(uint256,uint256)": "40297812",
    "createVault(address,bool,uint256,uint256,uint256,(uint256,uint256,uint256,uint256,uint256,uint256,uint256,uint256),string)": "e8858b4f",
    "deniedValidator(uint256,address)": "830e2a02",
    "denyMarket(uint256)": "4cb44087",
    "dustToVault(uint256,uint256)": "1d4cc27f",
    "forceCloseInstrument(uint256,bool)": "0c33df18",
    "fulfillRandomWords(uint256,uint256[])": "38ba4614",
    "getApprovalData(uint256)": "ac1b6b01",
    "getInstrumentSnapShot(uint256)": "37b4dd3a",
    "getMarketId(address)": "f25fcc9f",
    "getMarketIds(uint256)": "b1b7e1f2",
    "getTotalSupply(uint256)": "92ab723e",
    "getTraderScore(address)": "08ad90a5",
    "getValidatorRequiredCollateral(uint256)": "d65ec964",
    "getVault(uint256)": "9403b634",
    "getVaultAd(uint256)": "c4abc650",
    "getVaultSnapShot(uint256)": "c8f559c0",
    "getVaultfromId(uint256)": "9fe1458b",
    "hasApproved(uint256,address)": "2358d5a8",
    "id_parent(uint256)": "8fbbc868",
    "initialize(bytes)": "439fab91",
    "initiateMarket(address,(bytes32,bool,bool,uint256,uint256,uint256,uint256,uint256,uint256,string,address,uint8,uint256,(uint256,uint256,uint256,uint256,uint256,uint256,uint256)),uint256)": "e8e3fbb7",
    "isReputable(address,uint256)": "e8a78026",
    "isValidator(uint256,address)": "23f2a73f",
    "isVerified(address)": "b9209e33",
    "leverageManager()": "81fd6c02",
    "marketCondition(uint256)": "b743939b",
    "marketIdToVaultId(uint256)": "ce93ec67",
    "marketId_to_vaultId(uint256)": "14f2b14c",
    "marketManager()": "41ed2c12",
    "market_data(uint256)": "8d4f16d7",
    "orderManager()": "f9b6117f",
    "poolFactory()": "4219dc40",
    "pullLeverage(uint256,uint256)": "da0a697f",
    "pushLeverage(uint256,uint256)": "22029eef",
    "redeemValidator(uint256,address)": "8f5709a5",
    "redeem_transfer(uint256,address,uint256)": "f0fd1d38",
    "reputationManager()": "6b868afb",
    "resolveCondition(uint256)": "81e1b07c",
    "resolveMarket(uint256)": "6399d03d",
    "returnLeverageCapital(uint256,uint256)": "c971c3fd",
    "unlockValidatorStake(uint256)": "8dc3d9b4",
    "validatorApprove(uint256)": "d1227136",
    "validatorResolve(uint256)": "ad4e4e70",
    "vaultFactory()": "d8a06f73",
    "vault_to_marketIds(uint256,uint256)": "482c0aa8",
    "vaults(uint256)": "8c64ea4a",
    "verified(address)": "0db065f4",
    "verifyAddress(address)": "fcb2cafc"
  },
  "id": 18
}