{
  "abi": [
    {
      "inputs": [
        {
          "internalType": "address",
          "name": "_creator_address",
          "type": "address"
        },
        {
          "internalType": "address",
          "name": "_interep_address",
          "type": "address"
        }
      ],
      "stateMutability": "nonpayable",
      "type": "constructor"
    },
    {
      "anonymous": false,
      "inputs": [
        {
          "indexed": true,
          "internalType": "uint256",
          "name": "marketId",
          "type": "uint256"
        },
        {
          "components": [
            {
              "internalType": "uint256",
              "name": "managers_stake",
              "type": "uint256"
            },
            {
              "internalType": "uint256",
              "name": "approved_principal",
              "type": "uint256"
            },
            {
              "internalType": "uint256",
              "name": "approved_yield",
              "type": "uint256"
            }
          ],
          "indexed": false,
          "internalType": "struct Controller.ApprovalData",
          "name": "data",
          "type": "tuple"
        }
      ],
      "name": "MarketApproved",
      "type": "event"
    },
    {
      "anonymous": false,
      "inputs": [
        {
          "indexed": true,
          "internalType": "uint256",
          "name": "marketId",
          "type": "uint256"
        }
      ],
      "name": "MarketDenied",
      "type": "event"
    },
    {
      "anonymous": false,
      "inputs": [
        {
          "indexed": true,
          "internalType": "uint256",
          "name": "marketId",
          "type": "uint256"
        },
        {
          "indexed": true,
          "internalType": "address",
          "name": "vault",
          "type": "address"
        },
        {
          "indexed": true,
          "internalType": "address",
          "name": "recipient",
          "type": "address"
        },
        {
          "indexed": false,
          "internalType": "address",
          "name": "pool",
          "type": "address"
        },
        {
          "indexed": false,
          "internalType": "address",
          "name": "longZCB",
          "type": "address"
        },
        {
          "indexed": false,
          "internalType": "address",
          "name": "shortZCB",
          "type": "address"
        },
        {
          "components": [
            {
              "internalType": "bytes32",
              "name": "name",
              "type": "bytes32"
            },
            {
              "internalType": "bool",
              "name": "isPool",
              "type": "bool"
            },
            {
              "internalType": "bool",
              "name": "trusted",
              "type": "bool"
            },
            {
              "internalType": "uint256",
              "name": "balance",
              "type": "uint256"
            },
            {
              "internalType": "uint256",
              "name": "faceValue",
              "type": "uint256"
            },
            {
              "internalType": "uint256",
              "name": "marketId",
              "type": "uint256"
            },
            {
              "internalType": "uint256",
              "name": "principal",
              "type": "uint256"
            },
            {
              "internalType": "uint256",
              "name": "expectedYield",
              "type": "uint256"
            },
            {
              "internalType": "uint256",
              "name": "duration",
              "type": "uint256"
            },
            {
              "internalType": "string",
              "name": "description",
              "type": "string"
            },
            {
              "internalType": "address",
              "name": "instrument_address",
              "type": "address"
            },
            {
              "internalType": "enum Vault.InstrumentType",
              "name": "instrument_type",
              "type": "uint8"
            },
            {
              "internalType": "uint256",
              "name": "maturityDate",
              "type": "uint256"
            },
            {
              "components": [
                {
                  "internalType": "uint256",
                  "name": "saleAmount",
                  "type": "uint256"
                },
                {
                  "internalType": "uint256",
                  "name": "initPrice",
                  "type": "uint256"
                },
                {
                  "internalType": "uint256",
                  "name": "promisedReturn",
                  "type": "uint256"
                },
                {
                  "internalType": "uint256",
                  "name": "inceptionTime",
                  "type": "uint256"
                },
                {
                  "internalType": "uint256",
                  "name": "inceptionPrice",
                  "type": "uint256"
                },
                {
                  "internalType": "uint256",
                  "name": "leverageFactor",
                  "type": "uint256"
                },
                {
                  "internalType": "uint256",
                  "name": "managementFee",
                  "type": "uint256"
                }
              ],
              "internalType": "struct Vault.PoolData",
              "name": "poolData",
              "type": "tuple"
            }
          ],
          "indexed": false,
          "internalType": "struct Vault.InstrumentData",
          "name": "instrumentData",
          "type": "tuple"
        }
      ],
      "name": "MarketInitiated",
      "type": "event"
    },
    {
      "anonymous": false,
      "inputs": [
        {
          "indexed": true,
          "internalType": "uint256",
          "name": "marketId",
          "type": "uint256"
        },
        {
          "indexed": false,
          "internalType": "bool",
          "name": "atLoss",
          "type": "bool"
        },
        {
          "indexed": false,
          "internalType": "uint256",
          "name": "extraGain",
          "type": "uint256"
        },
        {
          "indexed": false,
          "internalType": "uint256",
          "name": "principalLoss",
          "type": "uint256"
        },
        {
          "indexed": false,
          "internalType": "bool",
          "name": "premature",
          "type": "bool"
        }
      ],
      "name": "MarketResolved",
      "type": "event"
    },
    {
      "anonymous": false,
      "inputs": [
        {
          "indexed": true,
          "internalType": "address",
          "name": "vault",
          "type": "address"
        },
        {
          "indexed": false,
          "internalType": "uint256",
          "name": "vaultId",
          "type": "uint256"
        },
        {
          "indexed": false,
          "internalType": "address",
          "name": "underlying",
          "type": "address"
        },
        {
          "indexed": false,
          "internalType": "bool",
          "name": "onlyVerified",
          "type": "bool"
        },
        {
          "indexed": false,
          "internalType": "uint256",
          "name": "r",
          "type": "uint256"
        },
        {
          "indexed": false,
          "internalType": "uint256",
          "name": "assetLimit",
          "type": "uint256"
        },
        {
          "indexed": false,
          "internalType": "uint256",
          "name": "totalAssetLimit",
          "type": "uint256"
        },
        {
          "components": [
            {
              "internalType": "uint256",
              "name": "N",
              "type": "uint256"
            },
            {
              "internalType": "uint256",
              "name": "sigma",
              "type": "uint256"
            },
            {
              "internalType": "uint256",
              "name": "alpha",
              "type": "uint256"
            },
            {
              "internalType": "uint256",
              "name": "omega",
              "type": "uint256"
            },
            {
              "internalType": "uint256",
              "name": "delta",
              "type": "uint256"
            },
            {
              "internalType": "uint256",
              "name": "r",
              "type": "uint256"
            },
            {
              "internalType": "uint256",
              "name": "s",
              "type": "uint256"
            },
            {
              "internalType": "uint256",
              "name": "steak",
              "type": "uint256"
            }
          ],
          "indexed": false,
          "internalType": "struct MarketManager.MarketParameters",
          "name": "defaultParams",
          "type": "tuple"
        }
      ],
      "name": "VaultCreated",
      "type": "event"
    },
    {
      "inputs": [
        {
          "internalType": "address",
          "name": "",
          "type": "address"
        }
      ],
      "name": "ad_to_id",
      "outputs": [
        {
          "internalType": "uint256",
          "name": "",
          "type": "uint256"
        }
      ],
      "stateMutability": "view",
      "type": "function"
    },
    {
      "inputs": [
        {
          "internalType": "uint256",
          "name": "marketId",
          "type": "uint256"
        }
      ],
      "name": "approvalCondition",
      "outputs": [
        {
          "internalType": "bool",
          "name": "",
          "type": "bool"
        }
      ],
      "stateMutability": "view",
      "type": "function"
    },
    {
      "inputs": [
        {
          "internalType": "uint256",
          "name": "marketId",
          "type": "uint256"
        }
      ],
      "name": "approveMarket",
      "outputs": [],
      "stateMutability": "nonpayable",
      "type": "function"
    },
    {
      "inputs": [
        {
          "internalType": "uint256",
          "name": "marketId",
          "type": "uint256"
        }
      ],
      "name": "beforeResolve",
      "outputs": [],
      "stateMutability": "nonpayable",
      "type": "function"
    },
    {
      "inputs": [
        {
          "internalType": "address",
          "name": "underlying",
          "type": "address"
        },
        {
          "internalType": "bool",
          "name": "_onlyVerified",
          "type": "bool"
        },
        {
          "internalType": "uint256",
          "name": "_r",
          "type": "uint256"
        },
        {
          "internalType": "uint256",
          "name": "_asset_limit",
          "type": "uint256"
        },
        {
          "internalType": "uint256",
          "name": "_total_asset_limit",
          "type": "uint256"
        },
        {
          "components": [
            {
              "internalType": "uint256",
              "name": "N",
              "type": "uint256"
            },
            {
              "internalType": "uint256",
              "name": "sigma",
              "type": "uint256"
            },
            {
              "internalType": "uint256",
              "name": "alpha",
              "type": "uint256"
            },
            {
              "internalType": "uint256",
              "name": "omega",
              "type": "uint256"
            },
            {
              "internalType": "uint256",
              "name": "delta",
              "type": "uint256"
            },
            {
              "internalType": "uint256",
              "name": "r",
              "type": "uint256"
            },
            {
              "internalType": "uint256",
              "name": "s",
              "type": "uint256"
            },
            {
              "internalType": "uint256",
              "name": "steak",
              "type": "uint256"
            }
          ],
          "internalType": "struct MarketManager.MarketParameters",
          "name": "default_params",
          "type": "tuple"
        },
        {
          "internalType": "string",
          "name": "_description",
          "type": "string"
        }
      ],
      "name": "createVault",
      "outputs": [],
      "stateMutability": "nonpayable",
      "type": "function"
    },
    {
      "inputs": [
        {
          "internalType": "uint256",
          "name": "marketId",
          "type": "uint256"
        },
        {
          "internalType": "address",
          "name": "validator",
          "type": "address"
        }
      ],
      "name": "deniedValidator",
      "outputs": [
        {
          "internalType": "uint256",
          "name": "collateral_amount",
          "type": "uint256"
        }
      ],
      "stateMutability": "nonpayable",
      "type": "function"
    },
    {
      "inputs": [
        {
          "internalType": "uint256",
          "name": "marketId",
          "type": "uint256"
        }
      ],
      "name": "denyMarket",
      "outputs": [],
      "stateMutability": "nonpayable",
      "type": "function"
    },
    {
      "inputs": [
        {
          "internalType": "uint256",
          "name": "marketId",
          "type": "uint256"
        },
        {
          "internalType": "bool",
          "name": "emergency",
          "type": "bool"
        }
      ],
      "name": "forceCloseInstrument",
      "outputs": [
        {
          "internalType": "bool",
          "name": "",
          "type": "bool"
        }
      ],
      "stateMutability": "nonpayable",
      "type": "function"
    },
    {
      "inputs": [
        {
          "internalType": "uint256",
          "name": "requestId",
          "type": "uint256"
        },
        {
          "internalType": "uint256[]",
          "name": "randomWords",
          "type": "uint256[]"
        }
      ],
      "name": "fulfillRandomWords",
      "outputs": [],
      "stateMutability": "nonpayable",
      "type": "function"
    },
    {
      "inputs": [
        {
          "internalType": "uint256",
          "name": "marketId",
          "type": "uint256"
        }
      ],
      "name": "getApprovalData",
      "outputs": [
        {
          "components": [
            {
              "internalType": "uint256",
              "name": "managers_stake",
              "type": "uint256"
            },
            {
              "internalType": "uint256",
              "name": "approved_principal",
              "type": "uint256"
            },
            {
              "internalType": "uint256",
              "name": "approved_yield",
              "type": "uint256"
            }
          ],
          "internalType": "struct Controller.ApprovalData",
          "name": "",
          "type": "tuple"
        }
      ],
      "stateMutability": "view",
      "type": "function"
    },
    {
      "inputs": [
        {
          "internalType": "uint256",
          "name": "marketId",
          "type": "uint256"
        }
      ],
      "name": "getFinalStake",
      "outputs": [
        {
          "internalType": "uint256",
          "name": "",
          "type": "uint256"
        }
      ],
      "stateMutability": "view",
      "type": "function"
    },
    {
      "inputs": [
        {
          "internalType": "uint256",
          "name": "marketId",
          "type": "uint256"
        }
      ],
      "name": "getInitialStake",
      "outputs": [
        {
          "internalType": "uint256",
          "name": "",
          "type": "uint256"
        }
      ],
      "stateMutability": "view",
      "type": "function"
    },
    {
      "inputs": [
        {
          "internalType": "uint256",
          "name": "marketId",
          "type": "uint256"
        }
      ],
      "name": "getInstrumentSnapShot",
      "outputs": [
        {
          "internalType": "uint256",
          "name": "managerStake",
          "type": "uint256"
        },
        {
          "internalType": "uint256",
          "name": "exposurePercentage",
          "type": "uint256"
        },
        {
          "internalType": "uint256",
          "name": "seniorAPR",
          "type": "uint256"
        },
        {
          "internalType": "uint256",
          "name": "approvalPrice",
          "type": "uint256"
        }
      ],
      "stateMutability": "view",
      "type": "function"
    },
    {
      "inputs": [
        {
          "internalType": "address",
          "name": "recipient",
          "type": "address"
        }
      ],
      "name": "getMarketId",
      "outputs": [
        {
          "internalType": "uint256",
          "name": "",
          "type": "uint256"
        }
      ],
      "stateMutability": "view",
      "type": "function"
    },
    {
      "inputs": [
        {
          "internalType": "uint256",
          "name": "vaultId",
          "type": "uint256"
        }
      ],
      "name": "getMarketIds",
      "outputs": [
        {
          "internalType": "uint256[]",
          "name": "",
          "type": "uint256[]"
        }
      ],
      "stateMutability": "view",
      "type": "function"
    },
    {
      "inputs": [
        {
          "internalType": "uint256",
          "name": "marketId",
          "type": "uint256"
        }
      ],
      "name": "getNumApproved",
      "outputs": [
        {
          "internalType": "uint256",
          "name": "",
          "type": "uint256"
        }
      ],
      "stateMutability": "view",
      "type": "function"
    },
    {
      "inputs": [
        {
          "internalType": "uint256",
          "name": "marketId",
          "type": "uint256"
        }
      ],
      "name": "getNumResolved",
      "outputs": [
        {
          "internalType": "uint256",
          "name": "",
          "type": "uint256"
        }
      ],
      "stateMutability": "view",
      "type": "function"
    },
    {
      "inputs": [
        {
          "internalType": "uint256",
          "name": "marketId",
          "type": "uint256"
        }
      ],
      "name": "getTotalStaked",
      "outputs": [
        {
          "internalType": "uint256",
          "name": "",
          "type": "uint256"
        }
      ],
      "stateMutability": "view",
      "type": "function"
    },
    {
      "inputs": [
        {
          "internalType": "uint256",
          "name": "marketId",
          "type": "uint256"
        }
      ],
      "name": "getTotalSupply",
      "outputs": [
        {
          "internalType": "uint256",
          "name": "",
          "type": "uint256"
        }
      ],
      "stateMutability": "view",
      "type": "function"
    },
    {
      "inputs": [
        {
          "internalType": "uint256",
          "name": "marketId",
          "type": "uint256"
        }
      ],
      "name": "getTotalValidatorSales",
      "outputs": [
        {
          "internalType": "uint256",
          "name": "",
          "type": "uint256"
        }
      ],
      "stateMutability": "view",
      "type": "function"
    },
    {
      "inputs": [
        {
          "internalType": "address",
          "name": "trader",
          "type": "address"
        }
      ],
      "name": "getTraderScore",
      "outputs": [
        {
          "internalType": "uint256",
          "name": "",
          "type": "uint256"
        }
      ],
      "stateMutability": "view",
      "type": "function"
    },
    {
      "inputs": [
        {
          "internalType": "uint256",
          "name": "marketId",
          "type": "uint256"
        }
      ],
      "name": "getValidatorCap",
      "outputs": [
        {
          "internalType": "uint256",
          "name": "",
          "type": "uint256"
        }
      ],
      "stateMutability": "view",
      "type": "function"
    },
    {
      "inputs": [
        {
          "internalType": "uint256",
          "name": "marketId",
          "type": "uint256"
        }
      ],
      "name": "getValidatorPrice",
      "outputs": [
        {
          "internalType": "uint256",
          "name": "",
          "type": "uint256"
        }
      ],
      "stateMutability": "view",
      "type": "function"
    },
    {
      "inputs": [
        {
          "internalType": "uint256",
          "name": "marketId",
          "type": "uint256"
        }
      ],
      "name": "getValidatorRequiredCollateral",
      "outputs": [
        {
          "internalType": "uint256",
          "name": "",
          "type": "uint256"
        }
      ],
      "stateMutability": "view",
      "type": "function"
    },
    {
      "inputs": [
        {
          "internalType": "uint256",
          "name": "marketId",
          "type": "uint256"
        }
      ],
      "name": "getVault",
      "outputs": [
        {
          "internalType": "contract Vault",
          "name": "",
          "type": "address"
        }
      ],
      "stateMutability": "view",
      "type": "function"
    },
    {
      "inputs": [
        {
          "internalType": "uint256",
          "name": "marketId",
          "type": "uint256"
        }
      ],
      "name": "getVaultAd",
      "outputs": [
        {
          "internalType": "address",
          "name": "",
          "type": "address"
        }
      ],
      "stateMutability": "view",
      "type": "function"
    },
    {
      "inputs": [
        {
          "internalType": "uint256",
          "name": "vaultId",
          "type": "uint256"
        }
      ],
      "name": "getVaultSnapShot",
      "outputs": [
        {
          "internalType": "uint256",
          "name": "totalProtection",
          "type": "uint256"
        },
        {
          "internalType": "uint256",
          "name": "totalEstimatedAPR",
          "type": "uint256"
        },
        {
          "internalType": "uint256",
          "name": "goalAPR",
          "type": "uint256"
        },
        {
          "internalType": "uint256",
          "name": "exchangeRate",
          "type": "uint256"
        }
      ],
      "stateMutability": "view",
      "type": "function"
    },
    {
      "inputs": [
        {
          "internalType": "uint256",
          "name": "vaultId",
          "type": "uint256"
        }
      ],
      "name": "getVaultfromId",
      "outputs": [
        {
          "internalType": "address",
          "name": "",
          "type": "address"
        }
      ],
      "stateMutability": "view",
      "type": "function"
    },
    {
      "inputs": [
        {
          "internalType": "uint256",
          "name": "marketId",
          "type": "uint256"
        },
        {
          "internalType": "address",
          "name": "validator",
          "type": "address"
        }
      ],
      "name": "hasApproved",
      "outputs": [
        {
          "internalType": "bool",
          "name": "",
          "type": "bool"
        }
      ],
      "stateMutability": "view",
      "type": "function"
    },
    {
      "inputs": [
        {
          "internalType": "uint256",
          "name": "",
          "type": "uint256"
        }
      ],
      "name": "id_parent",
      "outputs": [
        {
          "internalType": "uint256",
          "name": "",
          "type": "uint256"
        }
      ],
      "stateMutability": "view",
      "type": "function"
    },
    {
      "inputs": [
        {
          "internalType": "address",
          "name": "recipient",
          "type": "address"
        },
        {
          "components": [
            {
              "internalType": "bytes32",
              "name": "name",
              "type": "bytes32"
            },
            {
              "internalType": "bool",
              "name": "isPool",
              "type": "bool"
            },
            {
              "internalType": "bool",
              "name": "trusted",
              "type": "bool"
            },
            {
              "internalType": "uint256",
              "name": "balance",
              "type": "uint256"
            },
            {
              "internalType": "uint256",
              "name": "faceValue",
              "type": "uint256"
            },
            {
              "internalType": "uint256",
              "name": "marketId",
              "type": "uint256"
            },
            {
              "internalType": "uint256",
              "name": "principal",
              "type": "uint256"
            },
            {
              "internalType": "uint256",
              "name": "expectedYield",
              "type": "uint256"
            },
            {
              "internalType": "uint256",
              "name": "duration",
              "type": "uint256"
            },
            {
              "internalType": "string",
              "name": "description",
              "type": "string"
            },
            {
              "internalType": "address",
              "name": "instrument_address",
              "type": "address"
            },
            {
              "internalType": "enum Vault.InstrumentType",
              "name": "instrument_type",
              "type": "uint8"
            },
            {
              "internalType": "uint256",
              "name": "maturityDate",
              "type": "uint256"
            },
            {
              "components": [
                {
                  "internalType": "uint256",
                  "name": "saleAmount",
                  "type": "uint256"
                },
                {
                  "internalType": "uint256",
                  "name": "initPrice",
                  "type": "uint256"
                },
                {
                  "internalType": "uint256",
                  "name": "promisedReturn",
                  "type": "uint256"
                },
                {
                  "internalType": "uint256",
                  "name": "inceptionTime",
                  "type": "uint256"
                },
                {
                  "internalType": "uint256",
                  "name": "inceptionPrice",
                  "type": "uint256"
                },
                {
                  "internalType": "uint256",
                  "name": "leverageFactor",
                  "type": "uint256"
                },
                {
                  "internalType": "uint256",
                  "name": "managementFee",
                  "type": "uint256"
                }
              ],
              "internalType": "struct Vault.PoolData",
              "name": "poolData",
              "type": "tuple"
            }
          ],
          "internalType": "struct Vault.InstrumentData",
          "name": "instrumentData",
          "type": "tuple"
        },
        {
          "internalType": "uint256",
          "name": "vaultId",
          "type": "uint256"
        }
      ],
      "name": "initiateMarket",
      "outputs": [],
      "stateMutability": "nonpayable",
      "type": "function"
    },
    {
      "inputs": [
        {
          "internalType": "address",
          "name": "trader",
          "type": "address"
        },
        {
          "internalType": "uint256",
          "name": "r",
          "type": "uint256"
        }
      ],
      "name": "isReputable",
      "outputs": [
        {
          "internalType": "bool",
          "name": "",
          "type": "bool"
        }
      ],
      "stateMutability": "view",
      "type": "function"
    },
    {
      "inputs": [
        {
          "internalType": "uint256",
          "name": "marketId",
          "type": "uint256"
        },
        {
          "internalType": "address",
          "name": "user",
          "type": "address"
        }
      ],
      "name": "isValidator",
      "outputs": [
        {
          "internalType": "bool",
          "name": "",
          "type": "bool"
        }
      ],
      "stateMutability": "view",
      "type": "function"
    },
    {
      "inputs": [
        {
          "internalType": "address",
          "name": "addr",
          "type": "address"
        }
      ],
      "name": "isVerified",
      "outputs": [
        {
          "internalType": "bool",
          "name": "",
          "type": "bool"
        }
      ],
      "stateMutability": "view",
      "type": "function"
    },
    {
      "inputs": [
        {
          "internalType": "uint256",
          "name": "marketId",
          "type": "uint256"
        }
      ],
      "name": "marketCondition",
      "outputs": [
        {
          "internalType": "bool",
          "name": "",
          "type": "bool"
        }
      ],
      "stateMutability": "view",
      "type": "function"
    },
    {
      "inputs": [
        {
          "internalType": "uint256",
          "name": "marketId",
          "type": "uint256"
        }
      ],
      "name": "marketIdToVaultId",
      "outputs": [
        {
          "internalType": "uint256",
          "name": "",
          "type": "uint256"
        }
      ],
      "stateMutability": "view",
      "type": "function"
    },
    {
      "inputs": [
        {
          "internalType": "uint256",
          "name": "marketId",
          "type": "uint256"
        }
      ],
      "name": "marketId_to_vaultId",
      "outputs": [
        {
          "internalType": "uint256",
          "name": "",
          "type": "uint256"
        }
      ],
      "stateMutability": "view",
      "type": "function"
    },
    {
      "inputs": [
        {
          "internalType": "uint256",
          "name": "",
          "type": "uint256"
        }
      ],
      "name": "market_data",
      "outputs": [
        {
          "internalType": "address",
          "name": "instrument_address",
          "type": "address"
        },
        {
          "internalType": "address",
          "name": "utilizer",
          "type": "address"
        }
      ],
      "stateMutability": "view",
      "type": "function"
    },
    {
      "inputs": [
        {
          "internalType": "uint256",
          "name": "marketId",
          "type": "uint256"
        },
        {
          "internalType": "uint256",
          "name": "amount",
          "type": "uint256"
        }
      ],
      "name": "pullLeverage",
      "outputs": [],
      "stateMutability": "nonpayable",
      "type": "function"
    },
    {
      "inputs": [
        {
          "internalType": "uint256",
          "name": "marketId",
          "type": "uint256"
        },
        {
          "internalType": "address",
          "name": "validator",
          "type": "address"
        }
      ],
      "name": "redeemValidator",
      "outputs": [],
      "stateMutability": "nonpayable",
      "type": "function"
    },
    {
      "inputs": [
        {
          "internalType": "uint256",
          "name": "amount",
          "type": "uint256"
        },
        {
          "internalType": "address",
          "name": "to",
          "type": "address"
        },
        {
          "internalType": "uint256",
          "name": "marketId",
          "type": "uint256"
        }
      ],
      "name": "redeem_transfer",
      "outputs": [],
      "stateMutability": "nonpayable",
      "type": "function"
    },
    {
      "inputs": [
        {
          "internalType": "uint256",
          "name": "marketId",
          "type": "uint256"
        }
      ],
      "name": "resolveCondition",
      "outputs": [
        {
          "internalType": "bool",
          "name": "",
          "type": "bool"
        }
      ],
      "stateMutability": "view",
      "type": "function"
    },
    {
      "inputs": [
        {
          "internalType": "uint256",
          "name": "marketId",
          "type": "uint256"
        }
      ],
      "name": "resolveMarket",
      "outputs": [],
      "stateMutability": "nonpayable",
      "type": "function"
    },
    {
      "inputs": [
        {
          "internalType": "address",
          "name": "_marketManager",
          "type": "address"
        }
      ],
      "name": "setMarketManager",
      "outputs": [],
      "stateMutability": "nonpayable",
      "type": "function"
    },
    {
      "inputs": [
        {
          "internalType": "address",
          "name": "_poolFactory",
          "type": "address"
        }
      ],
      "name": "setPoolFactory",
      "outputs": [],
      "stateMutability": "nonpayable",
      "type": "function"
    },
    {
      "inputs": [
        {
          "internalType": "address",
          "name": "_reputationManager",
          "type": "address"
        }
      ],
      "name": "setReputationManager",
      "outputs": [],
      "stateMutability": "nonpayable",
      "type": "function"
    },
    {
      "inputs": [
        {
          "internalType": "address",
          "name": "_validatorManager",
          "type": "address"
        }
      ],
      "name": "setValidatorManager",
      "outputs": [],
      "stateMutability": "nonpayable",
      "type": "function"
    },
    {
      "inputs": [
        {
          "internalType": "address",
          "name": "_vaultFactory",
          "type": "address"
        }
      ],
      "name": "setVaultFactory",
      "outputs": [],
      "stateMutability": "nonpayable",
      "type": "function"
    },
    {
      "inputs": [
        {
          "internalType": "uint256",
          "name": "marketId",
          "type": "uint256"
        }
      ],
      "name": "testApproveMarket",
      "outputs": [],
      "stateMutability": "nonpayable",
      "type": "function"
    },
    {
      "inputs": [
        {
          "internalType": "uint256",
          "name": "marketId",
          "type": "uint256"
        }
      ],
      "name": "testResolveMarket",
      "outputs": [],
      "stateMutability": "nonpayable",
      "type": "function"
    },
    {
      "inputs": [],
      "name": "testVerifyAddress",
      "outputs": [],
      "stateMutability": "nonpayable",
      "type": "function"
    },
    {
      "inputs": [
        {
          "internalType": "uint256",
          "name": "marketId",
          "type": "uint256"
        }
      ],
      "name": "unlockValidatorStake",
      "outputs": [],
      "stateMutability": "nonpayable",
      "type": "function"
    },
    {
      "inputs": [
        {
          "internalType": "uint256",
          "name": "marketId",
          "type": "uint256"
        }
      ],
      "name": "validatorApprove",
      "outputs": [
        {
          "internalType": "uint256",
          "name": "",
          "type": "uint256"
        }
      ],
      "stateMutability": "nonpayable",
      "type": "function"
    },
    {
      "inputs": [
        {
          "internalType": "uint256",
          "name": "marketId",
          "type": "uint256"
        }
      ],
      "name": "validatorResolve",
      "outputs": [],
      "stateMutability": "nonpayable",
      "type": "function"
    },
    {
      "inputs": [
        {
          "internalType": "uint256",
          "name": "",
          "type": "uint256"
        },
        {
          "internalType": "uint256",
          "name": "",
          "type": "uint256"
        }
      ],
      "name": "vault_to_marketIds",
      "outputs": [
        {
          "internalType": "uint256",
          "name": "",
          "type": "uint256"
        }
      ],
      "stateMutability": "view",
      "type": "function"
    },
    {
      "inputs": [
        {
          "internalType": "uint256",
          "name": "",
          "type": "uint256"
        }
      ],
      "name": "vaults",
      "outputs": [
        {
          "internalType": "contract Vault",
          "name": "",
          "type": "address"
        }
      ],
      "stateMutability": "view",
      "type": "function"
    },
    {
      "inputs": [
        {
          "internalType": "address",
          "name": "",
          "type": "address"
        }
      ],
      "name": "verified",
      "outputs": [
        {
          "internalType": "bool",
          "name": "",
          "type": "bool"
        }
      ],
      "stateMutability": "view",
      "type": "function"
    },
    {
      "inputs": [
        {
          "internalType": "uint256",
          "name": "marketId",
          "type": "uint256"
        }
      ],
      "name": "viewValidators",
      "outputs": [
        {
          "internalType": "address[]",
          "name": "",
          "type": "address[]"
        }
      ],
      "stateMutability": "view",
      "type": "function"
    }
  ],
  "bytecode": {
    "object": "0x60806040523480156200001157600080fd5b50604051620058dd380380620058dd833981016040819052620000349162000078565b50600880546001600160a01b0319166001600160a01b0392909216919091179055620000b0565b80516001600160a01b03811681146200007357600080fd5b919050565b600080604083850312156200008c57600080fd5b62000097836200005b565b9150620000a7602084016200005b565b90509250929050565b61581d80620000c06000396000f3fe608060405234801561001057600080fd5b506004361061038e5760003560e01c80638f5709a5116101de578063c4abc6501161010f578063d82aff11116100ad578063e8e3fbb71161007c578063e8e3fbb7146108ba578063ebd4dc46146108cd578063f0fd1d38146108e0578063f25fcc9f146108f357600080fd5b8063d82aff111461086e578063da0a697f14610881578063e8858b4f14610894578063e8a78026146108a757600080fd5b8063ce93ec67116100e9578063ce93ec671461041c578063d122713614610835578063d466461c14610848578063d65ec9641461085b57600080fd5b8063c4abc650146106f3578063c8f559c01461080f578063cabe2ae11461082257600080fd5b8063ac1b6b011161017c578063b37eedcd11610156578063b37eedcd146107aa578063b743939b146107bd578063b9209e33146107d0578063c3f956fa146107fc57600080fd5b8063ac1b6b0114610742578063ad4e4e7014610777578063b1b7e1f21461078a57600080fd5b8063937b6feb116101b8578063937b6feb146106e05780639403b634146106f35780639fe1458b14610706578063a40c63f71461072f57600080fd5b80638f5709a51461069a5780638fbbc868146106ad57806392ab723e146106cd57600080fd5b80633ec8dc3b116102c35780637789ec5a11610261578063875e487e11610230578063875e487e146105df5780638c64ea4a146105f25780638d4f16d7146106335780638dc3d9b41461068757600080fd5b80637789ec5a14610586578063805798ac146105a657806381e1b07c146105b9578063830e2a02146105cc57600080fd5b8063482c0aa81161029d578063482c0aa81461053a5780634cb440871461054d57806356a837f4146105605780636399d03d1461057357600080fd5b80633ec8dc3b146104f457806345f34e9214610514578063473597a01461052757600080fd5b806323f2a73f1161033057806337b4dd3a1161030a57806337b4dd3a1461048857806337bc93b0146104bb57806338ba4614146104ce5780633ea7fbdb146104e157600080fd5b806323f2a73f1461044f5780632b858734146104625780632f8899f31461047557600080fd5b80630c33df181161036c5780630c33df18146103e65780630db065f4146103f957806314f2b14c1461041c5780632358d5a81461043c57600080fd5b806303cccb351461039357806305a1ce991461039d57806308ad90a5146103c5575b600080fd5b61039b61091c565b005b6103b06103ab36600461464d565b6109a4565b60405190151581526020015b60405180910390f35b6103d86103d336600461468b565b610a19565b6040519081526020016103bc565b6103b06103f43660046146c1565b610a89565b6103b061040736600461468b565b60026020526000908152604090205460ff1681565b6103d861042a36600461464d565b60009081526006602052604090205490565b6103b061044a3660046146f1565b610b66565b6103b061045d3660046146f1565b610be4565b61039b61047036600461464d565b610c1e565b6103d861048336600461464d565b610ddb565b61049b61049636600461464d565b610e0d565b6040805194855260208501939093529183015260608201526080016103bc565b6103d86104c936600461464d565b6111c4565b61039b6104dc3660046147ed565b6111f6565b61039b6104ef36600461468b565b61125e565b61050761050236600461464d565b6112bf565b6040516103bc919061488e565b61039b61052236600461468b565b611331565b61039b61053536600461468b565b611392565b6103d86105483660046148db565b6113f3565b61039b61055b36600461464d565b611424565b61039b61056e36600461468b565b611587565b61039b61058136600461464d565b61167e565b6103d861059436600461468b565b60046020526000908152604090205481565b6103d86105b436600461464d565b611850565b6103b06105c736600461464d565b611882565b6103d86105da3660046146f1565b6118b4565b6103d86105ed36600461464d565b61196d565b61061b61060036600461464d565b6005602052600090815260409020546001600160a01b031681565b6040516001600160a01b0390911681526020016103bc565b61066761064136600461464d565b600360205260009081526040902080546001909101546001600160a01b03918216911682565b604080516001600160a01b039384168152929091166020830152016103bc565b61039b61069536600461464d565b61199f565b61039b6106a83660046146f1565b6119d6565b6103d86106bb36600461464d565b60066020526000908152604090205481565b6103d86106db36600461464d565b611a4e565b6103d86106ee36600461464d565b611af9565b61061b61070136600461464d565b611b2b565b61061b61071436600461464d565b6000908152600560205260409020546001600160a01b031690565b6103d861073d36600461464d565b611b53565b61075561075036600461464d565b611b85565b60408051825181526020808401519082015291810151908201526060016103bc565b61039b61078536600461464d565b611bb7565b61079d61079836600461464d565b611bee565b6040516103bc9190614938565b61039b6107b836600461464d565b611c50565b6103b06107cb36600461464d565b611cf4565b6103b06107de36600461468b565b6001600160a01b031660009081526002602052604090205460ff1690565b61039b61080a36600461464d565b6120fa565b61049b61081d36600461464d565b6122f1565b61039b61083036600461464d565b6125f0565b6103d861084336600461464d565b612fbe565b6103d861085636600461464d565b61312a565b6103d861086936600461464d565b61315c565b61039b61087c36600461468b565b61318e565b61039b61088f3660046148db565b613202565b61039b6108a2366004614993565b613282565b6103b06108b5366004614a90565b6133ae565b61039b6108c8366004614bae565b6133e8565b6103d86108db36600461464d565b613d84565b61039b6108ee366004614cef565b613db6565b6103d861090136600461468b565b6001600160a01b031660009081526004602052604090205490565b3360008181526002602052604090819020805460ff19166001179055600c549051630622fd1760e01b81526004810192909252670de0b6b3a764000060248301526001600160a01b031690630622fd1790604401600060405180830381600087803b15801561098a57600080fd5b505af115801561099e573d6000803e3d6000fd5b50505050565b600080546040516305a1ce9960e01b8152600481018490526001600160a01b03909116906305a1ce99906024015b602060405180830381865afa1580156109ef573d6000803e3d6000fd5b505050506040513d601f19601f82011682018060405250810190610a139190614d32565b92915050565b600c546040516344c7439360e01b81526001600160a01b03838116600483015260009216906344c74393906024015b602060405180830381865afa158015610a65573d6000803e3d6000fd5b505050506040513d601f19601f82011682018060405250810190610a139190614d4f565b600082815260066020908152604080832054835260059091528082205490516359dc5c6f60e01b8152600481018590526001600160a01b039091169081906359dc5c6f90602401600060405180830381600087803b158015610aea57600080fd5b505af1158015610afe573d6000803e3d6000fd5b5050604051630ae161cd60e21b8152600481018790526001600160a01b0384169250632b8587349150602401600060405180830381600087803b158015610b4457600080fd5b505af1158015610b58573d6000803e3d6000fd5b506001979650505050505050565b6000805460405163046b1ab560e31b8152600481018590526001600160a01b03848116602483015290911690632358d5a8906044015b602060405180830381865afa158015610bb9573d6000803e3d6000fd5b505050506040513d601f19601f82011682018060405250810190610bdd9190614d32565b9392505050565b600080546040516323f2a73f60e01b8152600481018590526001600160a01b038481166024830152909116906323f2a73f90604401610b9c565b600954604051638a6cac3d60e01b81526004810183905260009182916001600160a01b0390911690638a6cac3d9060240160c060405180830381865afa158015610c6c573d6000803e3d6000fd5b505050506040513d601f19601f82011682018060405250810190610c909190614d68565b505093505050915081158015610ca35750805b610cf45760405162461bcd60e51b815260206004820152601960248201527f6d61726b657420636f6e646974696f6e73206e6f74206d65740000000000000060448201526064015b60405180910390fd5b610cfd83611882565b610d5d5760405162461bcd60e51b815260206004820152602b60248201527f6e6f7420656e6f7567682076616c696461746f7273206861766520766f74656460448201526a20746f207265736f6c766560a81b6064820152608401610ceb565b6000838152600660209081526040808320548352600590915290819020549051630ae161cd60e21b8152600481018590526001600160a01b0390911690632b858734906024015b600060405180830381600087803b158015610dbe57600080fd5b505af1158015610dd2573d6000803e3d6000fd5b50505050505050565b60008054604051632f8899f360e01b8152600481018490526001600160a01b0390911690632f8899f390602401610a48565b60095460405163eb44fdd360e01b81526004810183905260009182918291829182916001600160a01b03169063eb44fdd390602401600060405180830381865afa158015610e5f573d6000803e3d6000fd5b505050506040513d6000823e601f3d908101601f19168201604052610e879190810190614e61565b90506000610e9487611b85565b90506000610ea188611b2b565b6001600160a01b0316639ec4d40e896040518263ffffffff1660e01b8152600401610ece91815260200190565b600060405180830381865afa158015610eeb573d6000803e3d6000fd5b505050506040513d6000823e601f3d908101601f19168201604052610f139190810190614f92565b825197509050610fa8610f2589611b2b565b6001600160a01b03166301e1d1146040518163ffffffff1660e01b8152600401602060405180830381865afa158015610f62573d6000803e3d6000fd5b505050506040513d601f19601f82011682018060405250810190610f869190614d4f565b610f919060016150cd565b83516020850151610fa291906150e0565b90613e48565b955080602001516111a157815160009081901561112a5773__$7f722a1af7b4060aab6915c87e2e2208cb$__63018b03518560000151600088600001516001600160a01b0316636e2f7ad36040518163ffffffff1660e01b8152600401602060405180830381865afa158015611022573d6000803e3d6000fd5b505050506040513d601f19601f820116820180604052508101906110469190614d4f565b89600001516001600160a01b0316634df7e3d06040518163ffffffff1660e01b8152600401602060405180830381865afa158015611088573d6000803e3d6000fd5b505050506040513d601f19601f820116820180604052508101906110ac9190614d4f565b6040516001600160e01b031960e087901b16815260048101949094526024840192909252604483015260648201526001608482015260a4016040805180830381865af4158015611100573d6000803e3d6000fd5b505050506040513d601f19601f8201168201806040525081019061112491906150f3565b90925090505b835160c084015160009161113d916150e0565b83856080015161114d91906150e0565b61115791906150e0565b9050600085602001511161116c576000611194565b845160c085015161119491906111839060016150cd565b61118d91906150e0565b8290613e48565b97508196505050506111ba565b806101a00151604001519450806101a001516080015193505b5050509193509193565b6000805460405163037bc93b60e41b8152600481018490526001600160a01b03909116906337bc93b090602401610a48565b600054604051630e2e918560e21b81526001600160a01b03909116906338ba4614906112289085908590600401615117565b600060405180830381600087803b15801561124257600080fd5b505af1158015611256573d6000803e3d6000fd5b505050505050565b6009546001600160a01b031633148061128157506008546001600160a01b031633145b61129d5760405162461bcd60e51b8152600401610ceb90615130565b600a80546001600160a01b0319166001600160a01b0392909216919091179055565b600054604051633ec8dc3b60e01b8152600481018390526060916001600160a01b031690633ec8dc3b90602401600060405180830381865afa158015611309573d6000803e3d6000fd5b505050506040513d6000823e601f3d908101601f19168201604052610a139190810190615152565b6009546001600160a01b031633148061135457506008546001600160a01b031633145b6113705760405162461bcd60e51b8152600401610ceb90615130565b600080546001600160a01b0319166001600160a01b0392909216919091179055565b6009546001600160a01b03163314806113b557506008546001600160a01b031633145b6113d15760405162461bcd60e51b8152600401610ceb90615130565b600b80546001600160a01b0319166001600160a01b0392909216919091179055565b6007602052816000526040600020818154811061140f57600080fd5b90600052602060002001600091509150505481565b8061142f8133610be4565b8061144457506008546001600160a01b031633145b6114795760405162461bcd60e51b8152600401610ceb906020808252600490820152630855985b60e21b604082015260600190565b600082815260066020908152604080832054835260059091529081902054905163d746d3ef60e01b8152600481018490526001600160a01b039091169063d746d3ef90602401600060405180830381600087803b1580156114d957600080fd5b505af11580156114ed573d6000803e3d6000fd5b505050506114fa82613e5d565b600954604051634cb4408760e01b8152600481018490526001600160a01b0390911690634cb4408790602401600060405180830381600087803b15801561154057600080fd5b505af1158015611554573d6000803e3d6000fd5b50506040518492507f38274fdcd6150638fa33375a76a55bc5b507aa04639aef21fcf7a1bf0b9c095d9150600090a25050565b6009546001600160a01b03163314806115aa57506008546001600160a01b031633145b6115c65760405162461bcd60e51b8152600401610ceb90615130565b6009546001600160a01b03166116045760405162461bcd60e51b8152602060048201526003602482015262306d6d60e81b6044820152606401610ceb565b600c80546001600160a01b0319166001600160a01b038381169182179092556009546040516315aa0dfd60e21b81526004810192909252909116906356a837f4906024015b600060405180830381600087803b15801561166357600080fd5b505af1158015611677573d6000803e3d6000fd5b5050505050565b806116898133610be4565b8061169e57506008546001600160a01b031633145b6116d35760405162461bcd60e51b8152600401610ceb906020808252600490820152630855985b60e21b604082015260600190565b6000828152600660209081526040808320548352600590915280822054905163709a664160e11b8152600481018590528291829182916001600160a01b03169063e134cc82906024016080604051808303816000875af115801561173b573d6000803e3d6000fd5b505050506040513d601f19601f8201168201806040525081019061175f91906151eb565b93509350935093506117748685858585613f15565b60008054878252600160208190526040928390200154915163665293b360e11b8152600481018990526024810192909252604482018490526001600160a01b03169063cca5276690606401600060405180830381600087803b1580156117d957600080fd5b505af11580156117ed573d6000803e3d6000fd5b505050506117fa86613e5d565b60408051851515815260208101859052908101839052811515606082015286907f77220ccc88401eef4453630e1f9b709ab45bd7912e6599a260abd10a84ac3ed2906080015b60405180910390a2505050505050565b60008054604051632015e62b60e21b8152600481018490526001600160a01b039091169063805798ac90602401610a48565b600080546040516320786c1f60e21b8152600481018490526001600160a01b03909116906381e1b07c906024016109d2565b6009546000906001600160a01b03163314806118da57506008546001600160a01b031633145b6118f65760405162461bcd60e51b8152600401610ceb90615130565b600054604051634187150160e11b8152600481018590526001600160a01b0384811660248301529091169063830e2a02906044016020604051808303816000875af1158015611949573d6000803e3d6000fd5b505050506040513d601f19601f82011682018060405250810190610bdd9190614d4f565b600080546040516343af243f60e11b8152600481018490526001600160a01b039091169063875e487e90602401610a48565b600054604051636172cd6760e01b8152600481018390523360248201526001600160a01b0390911690636172cd6790604401611649565b6009546001600160a01b03163314806119f957506008546001600160a01b031633145b611a155760405162461bcd60e51b8152600401610ceb90615130565b600054604051638f5709a560e01b8152600481018490526001600160a01b03838116602483015290911690638f5709a590604401611228565b60095460405163054d50b360e21b8152600481018390526000916001600160a01b03169063153542cc90602401602060405180830381865afa158015611a98573d6000803e3d6000fd5b505050506040513d601f19601f82011682018060405250810190611abc9190615237565b6001600160a01b03166318160ddd6040518163ffffffff1660e01b8152600401602060405180830381865afa158015610a65573d6000803e3d6000fd5b6000805460405163937b6feb60e01b8152600481018490526001600160a01b039091169063937b6feb90602401610a48565b600090815260066020908152604080832054835260059091529020546001600160a01b031690565b6000805460405163a40c63f760e01b8152600481018490526001600160a01b039091169063a40c63f790602401610a48565b611ba960405180606001604052806000815260200160008152602001600081525090565b600091909152600160205290565b60005460405163f23566b560e01b8152600481018390523360248201526001600160a01b039091169063f23566b590604401611649565b600081815260076020908152604091829020805483518184028101840190945280845260609392830182828015611c4457602002820191906000526020600020905b815481526020019060010190808311611c30575b50505050509050919050565b6008546001600160a01b03163314611c935760405162461bcd60e51b815260206004820152600660248201526510b7bbb732b960d11b6044820152606401610ceb565b611c9c81611cf4565b611ce85760405162461bcd60e51b815260206004820152601860248201527f6d61726b657420636f6e646974696f6e206e6f74206d657400000000000000006044820152606401610ceb565b611cf1816125f0565b50565b60095460405163b1283e7760e01b81526004810183905260009182916001600160a01b039091169063b1283e7790602401600060405180830381865afa158015611d42573d6000803e3d6000fd5b505050506040513d6000823e601f3d908101601f19168201604052611d6a9190810190615254565b96505050505050508015611e6f57611d8183611b2b565b6001600160a01b0316639ec4d40e846040518263ffffffff1660e01b8152600401611dae91815260200190565b600060405180830381865afa158015611dcb573d6000803e3d6000fd5b505050506040513d6000823e601f3d908101601f19168201604052611df39190810190614f92565b6101a001515160095460405163661f1cf560e01b8152600481018690526001600160a01b039091169063661f1cf590602401602060405180830381865afa158015611e42573d6000803e3d6000fd5b505050506040513d601f19601f82011682018060405250810190611e669190614d4f565b10159392505050565b6000611e7a84611b2b565b6001600160a01b0316639ec4d40e856040518263ffffffff1660e01b8152600401611ea791815260200190565b600060405180830381865afa158015611ec4573d6000803e3d6000fd5b505050506040513d6000823e601f3d908101601f19168201604052611eec9190810190614f92565b60c00151604080518082018252600f81526e36b0b935b2ba31b7b73234ba34b7b760891b6020820152600954915163661f1cf560e01b8152600481018890529293506120089290916001600160a01b03169063661f1cf590602401602060405180830381865afa158015611f64573d6000803e3d6000fd5b505050506040513d601f19601f82011682018060405250810190611f889190614d4f565b60095460405163c6ceb96b60e01b815260048101899052612003916001600160a01b03169063c6ceb96b9060240161010060405180830381865afa158015611fd4573d6000803e3d6000fd5b505050506040513d601f19601f82011682018060405250810190611ff891906152f3565b604001518590614217565b6141cb565b60095460405163c6ceb96b60e01b815260048101869052612083916001600160a01b03169063c6ceb96b9060240161010060405180830381865afa158015612054573d6000803e3d6000fd5b505050506040513d601f19601f8201168201806040525081019061207891906152f3565b604001518290614217565b60095460405163661f1cf560e01b8152600481018790526001600160a01b039091169063661f1cf590602401602060405180830381865afa1580156120cc573d6000803e3d6000fd5b505050506040513d601f19601f820116820180604052508101906120f09190614d4f565b1015949350505050565b6000818152600660209081526040808320548352600590915290819020549051630ae161cd60e21b8152600481018390526001600160a01b0390911690632b85873490602401600060405180830381600087803b15801561215a57600080fd5b505af115801561216e573d6000803e3d6000fd5b5050506000828152600660209081526040808320548352600590915280822054905163709a664160e11b8152600481018590529192508291829182916001600160a01b039091169063e134cc82906024016080604051808303816000875af11580156121de573d6000803e3d6000fd5b505050506040513d601f19601f8201168201806040525081019061220291906151eb565b93509350935093506122178585858585613f15565b60008054868252600160208190526040928390200154915163665293b360e11b8152600481018890526024810192909252604482018490526001600160a01b03169063cca5276690606401600060405180830381600087803b15801561227c57600080fd5b505af1158015612290573d6000803e3d6000fd5b5050505061229d85613e5d565b60408051851515815260208101859052908101839052811515606082015285907f77220ccc88401eef4453630e1f9b709ab45bd7912e6599a260abd10a84ac3ed29060800160405180910390a25050505050565b60008060008060006007600087815260200190815260200160002080548060200260200160405190810160405280929190818152602001828054801561235657602002820191906000526020600020905b815481526020019060010190808311612342575b5050505050905060005b815181101561245c5760008061238e84848151811061238157612381615382565b6020026020010151610e0d565b5090935091506123a090508282614217565b6123aa90886150cd565b60095485519198506001600160a01b03169063661f1cf5908690869081106123d4576123d4615382565b60200260200101516040518263ffffffff1660e01b81526004016123fa91815260200190565b602060405180830381865afa158015612417573d6000803e3d6000fd5b505050506040513d601f19601f8201168201806040525081019061243b9190614d4f565b61244590896150cd565b97505050808061245490615398565b915050612360565b506000868152600560209081526040918290205482516336190e4560e11b815292516001600160a01b0390911692670c7d713b49da00009283928592636c321c8a9260048083019391928290030181865afa1580156124bf573d6000803e3d6000fd5b505050506040513d601f19601f820116820180604052508101906124e39190614d4f565b116125705761256986612563846001600160a01b0316636c321c8a6040518163ffffffff1660e01b8152600401602060405180830381865afa15801561252d573d6000803e3d6000fd5b505050506040513d601f19601f820116820180604052508101906125519190614d4f565b61255c9060016150cd565b8490613e48565b90614217565b9450612574565b8594505b60405163ef8b30f760e01b8152670de0b6b3a764000060048201526001600160a01b0383169063ef8b30f790602401602060405180830381865afa1580156125c0573d6000803e3d6000fd5b505050506040513d601f19601f820116820180604052508101906125e49190614d4f565b93505050509193509193565b6000546001600160a01b031633148061261357506008546001600160a01b031633145b61264c5760405162461bcd60e51b815260206004820152600a60248201526910bb30b634b230ba37b960b11b6044820152606401610ceb565b6000818152600660209081526040808320548352600590915280822054600954915163068bcd8d60e01b8152600481018590526001600160a01b039182169392919091169063068bcd8d90602401602060405180830381865afa1580156126b7573d6000803e3d6000fd5b505050506040513d601f19601f820116820180604052508101906126db9190615237565b600954604051634bee760b60e11b8152600481018690529192506001600160a01b0316906397dcec1690602401602060405180830381865afa158015612725573d6000803e3d6000fd5b505050506040513d601f19601f820116820180604052508101906127499190614d4f565b60031461278b5760405162461bcd60e51b815260206004820152601060248201526f10b6b0b935b2ba21b7b73234ba34b7b760811b6044820152606401610ceb565b60405163238f0e7560e11b8152600481018490526001600160a01b0383169063471e1cea90602401602060405180830381865afa1580156127d0573d6000803e3d6000fd5b505050506040513d601f19601f820116820180604052508101906127f49190614d32565b6128375760405162461bcd60e51b815260206004820152601460248201527310b4b739ba393ab6b2b73a21b7b73234ba34b7b760611b6044820152606401610ceb565b60095460405163cabe2ae160e01b8152600481018590526001600160a01b039091169063cabe2ae190602401600060405180830381600087803b15801561287d57600080fd5b505af1158015612891573d6000803e3d6000fd5b505060095460405163b1283e7760e01b815260048101879052600093506001600160a01b03909116915063b1283e7790602401600060405180830381865afa1580156128e1573d6000803e3d6000fd5b505050506040513d6000823e601f3d908101601f191682016040526129099190810190615254565b60095460405163661f1cf560e01b8152600481018d9052919850600097506001600160a01b0316955063661f1cf594506024019250612946915050565b602060405180830381865afa158015612963573d6000803e3d6000fd5b505050506040513d601f19601f820116820180604052508101906129879190614d4f565b604051634b7e8e2160e11b8152306004820152602481018290529091506001600160a01b038416906396fd1c4290604401600060405180830381600087803b1580156129d257600080fd5b505af11580156129e6573d6000803e3d6000fd5b50506040516376da9e9f60e11b815260048101889052600092506001600160a01b038716915063edb53d3e90602401602060405180830381865afa158015612a32573d6000803e3d6000fd5b505050506040513d601f19601f82011682018060405250810190612a569190615237565b9050846001600160a01b031663c5d664c66040518163ffffffff1660e01b8152600401602060405180830381865afa158015612a96573d6000803e3d6000fd5b505050506040513d601f19601f82011682018060405250810190612aba9190615237565b60405163095ea7b360e01b81526001600160a01b03838116600483015260248201859052919091169063095ea7b3906044016020604051808303816000875af1158015612b0b573d6000803e3d6000fd5b505050506040513d601f19601f82011682018060405250810190612b2f9190614d32565b508215612d3b5760095460405163054d50b360e21b815260048101889052612c819188916001600160a01b039091169063153542cc90602401602060405180830381865afa158015612b85573d6000803e3d6000fd5b505050506040513d601f19601f82011682018060405250810190612ba99190615237565b6001600160a01b03166318160ddd6040518163ffffffff1660e01b8152600401602060405180830381865afa158015612be6573d6000803e3d6000fd5b505050506040513d601f19601f82011682018060405250810190612c0a9190614d4f565b604051634f626a0760e11b8152600481018a90526001600160a01b03891690639ec4d40e90602401600060405180830381865afa158015612c4f573d6000803e3d6000fd5b505050506040513d6000823e601f3d908101601f19168201604052612c779190810190614f92565b6101a0015161422c565b604051636e553f6560e01b8152600481018390526001600160a01b03868116602483015260009190831690636e553f65906044016020604051808303816000875af1158015612cd4573d6000803e3d6000fd5b505050506040513d601f19601f82011682018060405250810190612cf89190614d4f565b11612d365760405162461bcd60e51b815260206004820152600e60248201526d11115413d4d25517d1905253115160921b6044820152606401610ceb565b612e9c565b6040516303d972f160e21b8152600481018790526001600160a01b03861690630f65cbc490602401602060405180830381865afa158015612d80573d6000803e3d6000fd5b505050506040513d601f19601f82011682018060405250810190612da49190614d4f565b600003612dba57612db586856142e1565b612dc3565b612dc38661452c565b846001600160a01b031663c5d664c66040518163ffffffff1660e01b8152600401602060405180830381865afa158015612e01573d6000803e3d6000fd5b505050506040513d601f19601f82011682018060405250810190612e259190615237565b60405163a9059cbb60e01b81526001600160a01b03838116600483015260248201859052919091169063a9059cbb906044016020604051808303816000875af1158015612e76573d6000803e3d6000fd5b505050506040513d601f19601f82011682018060405250810190612e9a9190614d32565b505b6000868152600160208190526040918290208481559151624e1afd60e81b81526004810189905260248101859052908201546044820152600290910154606482015283151560848201526001600160a01b03861690634e1afd009060a401600060405180830381600087803b158015612f1457600080fd5b505af1158015612f28573d6000803e3d6000fd5b50505050836001600160a01b0316638d01450f6040518163ffffffff1660e01b8152600401600060405180830381600087803b158015612f6757600080fd5b505af1158015612f7b573d6000803e3d6000fd5b5050506000878152600160205260409081902090518892507fa5a0c282064b5581aa97f2fdef075816b806dd6394a5eaaf1831ec95a1f79d5791611840916153b1565b600080546040516317c2ad2760e21b815260048101849052336024820152829182916001600160a01b0390911690635f0ab49c9060440160408051808303816000875af1158015613013573d6000803e3d6000fd5b505050506040513d601f19601f8201168201806040525081019061303791906150f3565b60095460405163334b11d360e11b81526004810188905260248101849052604481018390523360648201529294509092506001600160a01b03169063669623a690608401600060405180830381600087803b15801561309557600080fd5b505af11580156130a9573d6000803e3d6000fd5b505050506130b6846109a4565b15613123576130c4846125f0565b60095460405163cabe2ae160e01b8152600481018690526001600160a01b039091169063cabe2ae190602401600060405180830381600087803b15801561310a57600080fd5b505af115801561311e573d6000803e3d6000fd5b505050505b5092915050565b60008054604051633519918760e21b8152600481018490526001600160a01b039091169063d466461c90602401610a48565b60008054604051633597b25960e21b8152600481018490526001600160a01b039091169063d65ec96490602401610a48565b6009546001600160a01b03163314806131b157506008546001600160a01b031633145b6131cd5760405162461bcd60e51b8152600401610ceb90615130565b6001600160a01b0381166131e057600080fd5b600980546001600160a01b0319166001600160a01b0392909216919091179055565b6009546001600160a01b031633148061322557506008546001600160a01b031633145b6132415760405162461bcd60e51b8152600401610ceb90615130565b61324a82611b2b565b600954604051633c16f3ed60e21b8152600481018490526001600160a01b03918216602482015291169063f05bcfb490604401611228565b600a5460405160009182916001600160a01b0390911690631fe84c5b908c9030906132bb908e908e908e908e908d908d906020016153d2565b604051602081830303815290604052896040518563ffffffff1660e01b81526004016132ea9493929190615499565b60408051808303816000875af1158015613308573d6000803e3d6000fd5b505050506040513d601f19601f8201168201806040525081019061332c91906154df565b6000818152600560205260409081902080546001600160a01b0319166001600160a01b0385169081179091559051929450909250907f7ecb7591c061739d6ccd6a6299e0adf7d3447c390b9321530e0a400f7c65d1b79061339a9084908e908e908e908e908e908e9061550d565b60405180910390a250505050505050505050565b600c54604051637453c01360e11b81526001600160a01b03848116600483015260248201849052600092169063e8a7802690604401610b9c565b6001600160a01b03831661342a5760405162461bcd60e51b815260206004820152600960248201526830b2323932b9b9982960b91b6044820152606401610ceb565b6101408201516001600160a01b03166134715760405162461bcd60e51b815260206004820152600960248201526861646472657373304960b81b6044820152606401610ceb565b6000818152600560205260409020546001600160a01b03166134c15760405162461bcd60e51b815260206004820152600960248201526830b2323932b9b9982b60b91b6044820152606401610ceb565b600081815260056020908152604080832054600954825163764bc84160e11b815292516001600160a01b039283169594919092169263ec97908292600480830193928290030181865afa15801561351c573d6000803e3d6000fd5b505050506040513d601f19601f820116820180604052508101906135409190614d4f565b60008181526006602090815260408083208790558683526007825280832080546001818101835591855283852001859055815180830183526101408a01516001600160a01b0390811682528b8116828601908152878752600390955294839020905181549086166001600160a01b031991821617825593519101805491851691909316179091556009548151637572cb1f60e01b81529151939450821692634e042a5992861691637572cb1f916004808301926101009291908290030181865afa158015613612573d6000803e3d6000fd5b505050506040513d601f19601f8201168201806040525081019061363691906152f3565b846001600160a01b0316636c321c8a6040518163ffffffff1660e01b8152600401602060405180830381865afa158015613674573d6000803e3d6000fd5b505050506040513d601f19601f820116820180604052508101906136989190614d4f565b846040518463ffffffff1660e01b81526004016136b79392919061555a565b600060405180830381600087803b1580156136d157600080fd5b505af11580156136e5573d6000803e3d6000fd5b5050600b5460008681526005602090815260408083205481516362eb326360e11b8152915193965086955085946001600160a01b039081169463981f513694919092169263c5d664c692600480830193928290030181865afa15801561374f573d6000803e3d6000fd5b505050506040513d601f19601f820116820180604052508101906137739190615237565b60095460405160e084901b6001600160e01b03191681526001600160a01b039283166004820152911660248201526044016060604051808303816000875af11580156137c3573d6000803e3d6000fd5b505050506040513d601f19601f820116820180604052508101906137e7919061557c565b925092509250866020015115613aad57670de0b6b3a7640000876101a00151602001511115801561382657506101a08701516080810151602090910151105b61385e5760405162461bcd60e51b8152602060048201526009602482015268282924a1a29022a92960b91b6044820152606401610ceb565b6000876101a0015160400151116138a45760405162461bcd60e51b815260206004820152600a6024820152692922aa2aa9271022a92960b11b6044820152606401610ceb565b6101a08701805142606090910152518051602082015160809092015160095460405163c6ceb96b60e01b8152600481018990526001600160a01b03868116956334327d8b95949093909291169063c6ceb96b9060240161010060405180830381865afa158015613918573d6000803e3d6000fd5b505050506040513d601f19601f8201168201806040525081019061393c91906152f3565b602001516040516001600160e01b031960e087901b16815260048101949094526024840192909252604483015260648201526084016020604051808303816000875af1158015613990573d6000803e3d6000fd5b505050506040513d601f19601f820116820180604052508101906139b49190614d4f565b6101a088015160c0015260095461012088015160405163080ec90d60e21b81526001600160a01b039092169163203b2434916139fd9188918691899189916001906004016155c9565b600060405180830381600087803b158015613a1757600080fd5b505af1158015613a2b573d6000803e3d6000fd5b50506000546101a08a01515160208b0151604051639c84342360e01b8152600481018a90526024810192909252151560448201526001600160a01b039091169250639c8434239150606401600060405180830381600087803b158015613a9057600080fd5b505af1158015613aa4573d6000803e3d6000fd5b50505050613c9a565b60095460405163c6ceb96b60e01b8152600481018690526000916001600160a01b03169063c6ceb96b9060240161010060405180830381865afa158015613af8573d6000803e3d6000fd5b505050506040513d601f19601f82011682018060405250810190613b1c91906152f3565b60c089015160e08a015160208301516040808501516080860151915163ac4bc1cb60e01b8152600481019590955260248501939093526044840191909152606483019190915260848201529091506001600160a01b0383169063ac4bc1cb9060a401600060405180830381600087803b158015613b9857600080fd5b505af1158015613bac573d6000803e3d6000fd5b50506009546101208b015160405163080ec90d60e21b81526001600160a01b03909216935063203b24349250613bef91899187918a918a916000906004016155c9565b600060405180830381600087803b158015613c0957600080fd5b505af1158015613c1d573d6000803e3d6000fd5b505060005460c08b015160208c0151604051639c84342360e01b8152600481018b90526024810192909252151560448201526001600160a01b039091169250639c8434239150606401600060405180830381600087803b158015613c8057600080fd5b505af1158015613c94573d6000803e3d6000fd5b50505050505b60a087018490526040516398d796e760e01b81526001600160a01b038616906398d796e790613ccd908a9060040161575b565b600060405180830381600087803b158015613ce757600080fd5b505af1158015613cfb573d6000803e3d6000fd5b505050600087815260056020526040908190205490516001600160a01b038b811693509091169086907fc276e8dd3cf2547c0646ef7093b7ef8fb4edc8fde6df7574f8757ca3336e940f90613d57908690899089908f9061576e565b60405180910390a45050506001600160a01b03909416600090815260046020526040902093909355505050565b600080546040516375ea6e2360e11b8152600481018490526001600160a01b039091169063ebd4dc4690602401610a48565b6009546001600160a01b0316331480613dd957506008546001600160a01b031633145b613df55760405162461bcd60e51b8152600401610ceb90615130565b6000818152600660209081526040808320548352600590915290819020549051633c16f3ed60e21b8152600481018590526001600160a01b0384811660248301529091169063f05bcfb490604401610da4565b6000610bdd83670de0b6b3a7640000846145f7565b60095460405163068bcd8d60e01b8152600481018390526001600160a01b039091169063068bcd8d90602401602060405180830381865afa158015613ea6573d6000803e3d6000fd5b505050506040513d601f19601f82011682018060405250810190613eca9190615237565b6001600160a01b03166396fd1c42613ee183611b2b565b6040516001600160e01b031960e084901b1681526001600160a01b0390911660048201526000196024820152604401611649565b8315613f29578215613f2957613f296157ac565b60095460405163054d50b360e21b8152600481018790526000916001600160a01b03169063153542cc90602401602060405180830381865afa158015613f73573d6000803e3d6000fd5b505050506040513d601f19601f82011682018060405250810190613f979190615237565b6001600160a01b03166318160ddd6040518163ffffffff1660e01b8152600401602060405180830381865afa158015613fd4573d6000803e3d6000fd5b505050506040513d601f19601f82011682018060405250810190613ff89190614d4f565b9050600080851161400a5760006140d8565b60095460405163920f4e5560e01b8152600481018990526001600160a01b039091169063920f4e5590602401602060405180830381865afa158015614053573d6000803e3d6000fd5b505050506040513d601f19601f820116820180604052508101906140779190615237565b6001600160a01b03166318160ddd6040518163ffffffff1660e01b8152600401602060405180830381865afa1580156140b4573d6000803e3d6000fd5b505050506040513d601f19601f820116820180604052508101906140d89190614d4f565b905060008661410e576140f56140ee83856150cd565b8790613e48565b61410790670de0b6b3a76400006150cd565b905061414d565b6141188584613e48565b670de0b6b3a76400001161412e5750600061414d565b6141388584613e48565b61414a90670de0b6b3a76400006150e0565b90505b6009546040516361fa5af560e01b8152600481018a9052881515602482015285156044820152606481018390526001600160a01b03909116906361fa5af590608401600060405180830381600087803b1580156141a957600080fd5b505af11580156141bd573d6000803e3d6000fd5b505050505050505050505050565b6142128383836040516024016141e3939291906157c2565b60408051601f198184030181529190526020810180516001600160e01b031663969cdd0360e01b179052614615565b505050565b6000610bdd8383670de0b6b3a76400006145f7565b60008160a001511161426f5760405162461bcd60e51b815260206004820152600c60248201526b18102622ab2fa320a1aa27a960a11b6044820152606401610ceb565b6040518060600160405280600081526020016142ab83608001516125638560a00151670de0b6b3a76400006142a491906150cd565b8790614217565b81526000602091820181905294855260018082526040958690208351815591830151908201559301516002909301929092555050565b600082815260066020908152604080832054835260059091528082205490516318353be960e21b81526004810185905282916001600160a01b0316906360d4efa4906024016040805180830381865afa158015614342573d6000803e3d6000fd5b505050506040513d601f19601f8201168201806040525081019061436691906150f3565b60095460405163661f1cf560e01b81526004810188905292945090925060009161446e91614468916001600160a01b039091169063661f1cf590602401602060405180830381865afa1580156143c0573d6000803e3d6000fd5b505050506040513d601f19601f820116820180604052508101906143e49190614d4f565b60095460405163c6ceb96b60e01b8152600481018a9052670de0b6b3a7640000916001600160a01b03169063c6ceb96b9060240161010060405180830381865afa158015614436573d6000803e3d6000fd5b505050506040513d601f19601f8201168201806040525081019061445a91906152f3565b60c0015161256391906150cd565b84614636565b905060006144e4856001600160a01b03166314e2b929846040518263ffffffff1660e01b81526004016144a391815260200190565b602060405180830381865afa1580156144c0573d6000803e3d6000fd5b505050506040513d601f19601f820116820180604052508101906144689190614d4f565b60408051606081018252600080825260208083019687528284019485529981526001998a90529190912090518155925196830196909655509351600290940193909355505050565b600081815260066020908152604080832054835260059091528082205490516318353be960e21b81526004810184905282916001600160a01b0316906360d4efa4906024016040805180830381865afa15801561458d573d6000803e3d6000fd5b505050506040513d601f19601f820116820180604052508101906145b191906150f3565b6040805160608101825260008082526020808301958652828401948552978152600197889052919091209051815591519482019490945592516002909301929092555050565b600082600019048411830215820261460e57600080fd5b5091020490565b80516a636f6e736f6c652e6c6f67602083016000808483855afa5050505050565b6000818311156146465781610bdd565b5090919050565b60006020828403121561465f57600080fd5b5035919050565b6001600160a01b0381168114611cf157600080fd5b803561468681614666565b919050565b60006020828403121561469d57600080fd5b8135610bdd81614666565b8015158114611cf157600080fd5b8035614686816146a8565b600080604083850312156146d457600080fd5b8235915060208301356146e6816146a8565b809150509250929050565b6000806040838503121561470457600080fd5b8235915060208301356146e681614666565b634e487b7160e01b600052604160045260246000fd5b60405161010081016001600160401b038111828210171561474f5761474f614716565b60405290565b60405160e081016001600160401b038111828210171561474f5761474f614716565b6040516101c081016001600160401b038111828210171561474f5761474f614716565b604051601f8201601f191681016001600160401b03811182821017156147c2576147c2614716565b604052919050565b60006001600160401b038211156147e3576147e3614716565b5060051b60200190565b6000806040838503121561480057600080fd5b823591506020808401356001600160401b0381111561481e57600080fd5b8401601f8101861361482f57600080fd5b803561484261483d826147ca565b61479a565b81815260059190911b8201830190838101908883111561486157600080fd5b928401925b8284101561487f57833582529284019290840190614866565b80955050505050509250929050565b6020808252825182820181905260009190848201906040850190845b818110156148cf5783516001600160a01b0316835292840192918401916001016148aa565b50909695505050505050565b600080604083850312156148ee57600080fd5b50508035926020909101359150565b600081518084526020808501945080840160005b8381101561492d57815187529582019590820190600101614911565b509495945050505050565b602081526000610bdd60208301846148fd565b60008083601f84011261495d57600080fd5b5081356001600160401b0381111561497457600080fd5b60208301915083602082850101111561498c57600080fd5b9250929050565b600080600080600080600080888a036101c08112156149b157600080fd5b89356149bc81614666565b985060208a01356149cc816146a8565b975060408a0135965060608a0135955060808a01359450610100609f1982018113156149f757600080fd5b6149ff61472c565b915060a08b0135825260c08b0135602083015260e08b01356040830152808b01356060830152506101208a013560808201526101408a013560a08201526101608a013560c08201526101808a013560e0820152809350506101a08901356001600160401b03811115614a7057600080fd5b614a7c8b828c0161494b565b999c989b5096995094979396929594505050565b60008060408385031215614aa357600080fd5b8235614aae81614666565b946020939093013593505050565b60006001600160401b03821115614ad557614ad5614716565b50601f01601f191660200190565b600082601f830112614af457600080fd5b8135614b0261483d82614abc565b818152846020838601011115614b1757600080fd5b816020850160208301376000918101602001919091529392505050565b60068110611cf157600080fd5b803561468681614b34565b600060e08284031215614b5e57600080fd5b614b66614755565b9050813581526020820135602082015260408201356040820152606082013560608201526080820135608082015260a082013560a082015260c082013560c082015292915050565b600080600060608486031215614bc357600080fd5b8335614bce81614666565b925060208401356001600160401b0380821115614bea57600080fd5b908501906102808288031215614bff57600080fd5b614c07614777565b82358152614c17602084016146b6565b6020820152614c28604084016146b6565b6040820152606083013560608201526080830135608082015260a083013560a082015260c083013560c082015260e083013560e08201526101008084013581830152506101208084013583811115614c7f57600080fd5b614c8b8a828701614ae3565b8284015250506101409150614ca182840161467b565b828201526101609150614cb5828401614b41565b82820152610180915081830135828201526101a09150614cd788838501614b4c565b82820152809450505050604084013590509250925092565b600080600060608486031215614d0457600080fd5b833592506020840135614d1681614666565b929592945050506040919091013590565b8051614686816146a8565b600060208284031215614d4457600080fd5b8151610bdd816146a8565b600060208284031215614d6157600080fd5b5051919050565b60008060008060008060c08789031215614d8157600080fd5b8651614d8c816146a8565b6020880151909650614d9d816146a8565b6040880151909550614dae816146a8565b6060880151909450614dbf816146a8565b6080880151909350614dd0816146a8565b8092505060a087015190509295509295509295565b805161468681614666565b60005b83811015614e0b578181015183820152602001614df3565b50506000910152565b600082601f830112614e2557600080fd5b8151614e3361483d82614abc565b818152846020838601011115614e4857600080fd5b614e59826020830160208701614df0565b949350505050565b600060208284031215614e7357600080fd5b81516001600160401b0380821115614e8a57600080fd5b9083019060e08286031215614e9e57600080fd5b614ea6614755565b614eaf83614de5565b8152614ebd60208401614de5565b6020820152614ece60408401614de5565b6040820152606083015182811115614ee557600080fd5b614ef187828601614e14565b6060830152506080830151608082015260a083015160a0820152614f1760c08401614d27565b60c082015295945050505050565b805161468681614b34565b600060e08284031215614f4257600080fd5b614f4a614755565b9050815181526020820151602082015260408201516040820152606082015160608201526080820151608082015260a082015160a082015260c082015160c082015292915050565b600060208284031215614fa457600080fd5b81516001600160401b0380821115614fbb57600080fd5b908301906102808286031215614fd057600080fd5b614fd8614777565b82518152614fe860208401614d27565b6020820152614ff960408401614d27565b6040820152606083015160608201526080830151608082015260a083015160a082015260c083015160c082015260e083015160e0820152610100808401518183015250610120808401518381111561505057600080fd5b61505c88828701614e14565b8284015250506101409150615072828401614de5565b828201526101609150615086828401614f25565b82820152610180915081830151828201526101a091506150a886838501614f30565b91810191909152949350505050565b634e487b7160e01b600052601160045260246000fd5b80820180821115610a1357610a136150b7565b81810381811115610a1357610a136150b7565b6000806040838503121561510657600080fd5b505080516020909101519092909150565b828152604060208201526000614e5960408301846148fd565b60208082526008908201526710b6b0b730b3b2b960c11b604082015260600190565b6000602080838503121561516557600080fd5b82516001600160401b0381111561517b57600080fd5b8301601f8101851361518c57600080fd5b805161519a61483d826147ca565b81815260059190911b820183019083810190878311156151b957600080fd5b928401925b828410156151e05783516151d181614666565b825292840192908401906151be565b979650505050505050565b6000806000806080858703121561520157600080fd5b845161520c816146a8565b809450506020850151925060408501519150606085015161522c816146a8565b939692955090935050565b60006020828403121561524957600080fd5b8151610bdd81614666565b600080600080600080600060e0888a03121561526f57600080fd5b875161527a81614666565b602089015190975061528b81614666565b604089015190965061529c81614666565b60608901519095506001600160401b038111156152b857600080fd5b6152c48a828b01614e14565b9450506080880151925060a0880151915060c08801516152e3816146a8565b8091505092959891949750929550565b600061010080838503121561530757600080fd5b604051908101906001600160401b038211818310171561532957615329614716565b81604052835181526020840151602082015260408401516040820152606084015160608201526080840151608082015260a084015160a082015260c084015160c082015260e084015160e0820152809250505092915050565b634e487b7160e01b600052603260045260246000fd5b6000600182016153aa576153aa6150b7565b5060010190565b81548152600182015460208201526002820154604082015260608101610a13565b861515815285602082015284604082015283606082015260a060808201528160a0820152818360c0830137600081830160c090810191909152601f909201601f1916010195945050505050565b60008151808452615437816020860160208601614df0565b601f01601f19169290920160200192915050565b805182526020810151602083015260408101516040830152606081015160608301526080810151608083015260a081015160a083015260c081015160c083015260e081015160e08301525050565b6001600160a01b03858116825284166020820152610160604082018190526000906154c68382018661541f565b9150506154d6606083018461544b565b95945050505050565b600080604083850312156154f257600080fd5b82516154fd81614666565b6020939093015192949293505050565b8781526001600160a01b03871660208201528515156040820152606081018590526080810184905260a081018390526101c0810161554e60c083018461544b565b98975050505050505050565b6101408101615569828661544b565b6101008201939093526101200152919050565b60008060006060848603121561559157600080fd5b835161559c81614666565b60208501519093506155ad81614666565b60408501519092506155be81614666565b809150509250925092565b8681526001600160a01b03868116602083015285811660408301528416606082015260c0608082018190526000906156039083018561541f565b905082151560a0830152979650505050505050565b6006811061563657634e487b7160e01b600052602160045260246000fd5b9052565b6000610280825184526020830151615656602086018215159052565b50604083015161566a604086018215159052565b50606083015160608501526080830151608085015260a083015160a085015260c083015160c085015260e083015160e08501526101008084015181860152506101208084015182828701526156c18387018261541f565b92505050610140808401516156e0828701826001600160a01b03169052565b5050610160808401516156f582870182615618565b505061018083810151908501526101a08084015180518287015260208101516101c087015260408101516101e08701526060810151610200870152608081015161022087015260a081015161024087015260c08101516102608701525090949350505050565b602081526000610bdd602083018461563a565b6001600160a01b0385811682528481166020830152831660408201526080606082018190526000906157a29083018461563a565b9695505050505050565b634e487b7160e01b600052600160045260246000fd5b6060815260006157d5606083018661541f565b6020830194909452506040015291905056fea264697066735822122002aee014c5a1a9066080957ab221799415429dfc88d529ce301b95917c9f4fe964736f6c63430008110033",
    "linkReferences": {
      "contracts/bonds/GBC.sol": {
        "LinearCurve": [
          {
            "start": 4225,
            "length": 20
          }
        ]
      }
    }
  },
  "methodIdentifiers": {
    "ad_to_id(address)": "7789ec5a",
    "approvalCondition(uint256)": "05a1ce99",
    "approveMarket(uint256)": "cabe2ae1",
    "beforeResolve(uint256)": "2b858734",
    "createVault(address,bool,uint256,uint256,uint256,(uint256,uint256,uint256,uint256,uint256,uint256,uint256,uint256),string)": "e8858b4f",
    "deniedValidator(uint256,address)": "830e2a02",
    "denyMarket(uint256)": "4cb44087",
    "forceCloseInstrument(uint256,bool)": "0c33df18",
    "fulfillRandomWords(uint256,uint256[])": "38ba4614",
    "getApprovalData(uint256)": "ac1b6b01",
    "getFinalStake(uint256)": "937b6feb",
    "getInitialStake(uint256)": "875e487e",
    "getInstrumentSnapShot(uint256)": "37b4dd3a",
    "getMarketId(address)": "f25fcc9f",
    "getMarketIds(uint256)": "b1b7e1f2",
    "getNumApproved(uint256)": "805798ac",
    "getNumResolved(uint256)": "ebd4dc46",
    "getTotalStaked(uint256)": "2f8899f3",
    "getTotalSupply(uint256)": "92ab723e",
    "getTotalValidatorSales(uint256)": "37bc93b0",
    "getTraderScore(address)": "08ad90a5",
    "getValidatorCap(uint256)": "d466461c",
    "getValidatorPrice(uint256)": "a40c63f7",
    "getValidatorRequiredCollateral(uint256)": "d65ec964",
    "getVault(uint256)": "9403b634",
    "getVaultAd(uint256)": "c4abc650",
    "getVaultSnapShot(uint256)": "c8f559c0",
    "getVaultfromId(uint256)": "9fe1458b",
    "hasApproved(uint256,address)": "2358d5a8",
    "id_parent(uint256)": "8fbbc868",
    "initiateMarket(address,(bytes32,bool,bool,uint256,uint256,uint256,uint256,uint256,uint256,string,address,uint8,uint256,(uint256,uint256,uint256,uint256,uint256,uint256,uint256)),uint256)": "e8e3fbb7",
    "isReputable(address,uint256)": "e8a78026",
    "isValidator(uint256,address)": "23f2a73f",
    "isVerified(address)": "b9209e33",
    "marketCondition(uint256)": "b743939b",
    "marketIdToVaultId(uint256)": "ce93ec67",
    "marketId_to_vaultId(uint256)": "14f2b14c",
    "market_data(uint256)": "8d4f16d7",
    "pullLeverage(uint256,uint256)": "da0a697f",
    "redeemValidator(uint256,address)": "8f5709a5",
    "redeem_transfer(uint256,address,uint256)": "f0fd1d38",
    "resolveCondition(uint256)": "81e1b07c",
    "resolveMarket(uint256)": "6399d03d",
    "setMarketManager(address)": "d82aff11",
    "setPoolFactory(address)": "473597a0",
    "setReputationManager(address)": "56a837f4",
    "setValidatorManager(address)": "45f34e92",
    "setVaultFactory(address)": "3ea7fbdb",
    "testApproveMarket(uint256)": "b37eedcd",
    "testResolveMarket(uint256)": "c3f956fa",
    "testVerifyAddress()": "03cccb35",
    "unlockValidatorStake(uint256)": "8dc3d9b4",
    "validatorApprove(uint256)": "d1227136",
    "validatorResolve(uint256)": "ad4e4e70",
    "vault_to_marketIds(uint256,uint256)": "482c0aa8",
    "vaults(uint256)": "8c64ea4a",
    "verified(address)": "0db065f4",
    "viewValidators(uint256)": "3ec8dc3b"
  },
  "id": 13
}