{
  "abi": [
    {
      "inputs": [
        {
          "internalType": "address",
          "name": "_creator_address",
          "type": "address"
        },
        {
          "internalType": "address",
          "name": "_interep_address",
          "type": "address"
        }
      ],
      "stateMutability": "nonpayable",
      "type": "constructor"
    },
    {
      "anonymous": false,
      "inputs": [
        {
          "indexed": true,
          "internalType": "uint256",
          "name": "marketId",
          "type": "uint256"
        },
        {
          "components": [
            {
              "internalType": "uint256",
              "name": "managers_stake",
              "type": "uint256"
            },
            {
              "internalType": "uint256",
              "name": "approved_principal",
              "type": "uint256"
            },
            {
              "internalType": "uint256",
              "name": "approved_yield",
              "type": "uint256"
            }
          ],
          "indexed": false,
          "internalType": "struct ApprovalData",
          "name": "data",
          "type": "tuple"
        }
      ],
      "name": "MarketApproved",
      "type": "event"
    },
    {
      "anonymous": false,
      "inputs": [
        {
          "indexed": true,
          "internalType": "uint256",
          "name": "marketId",
          "type": "uint256"
        }
      ],
      "name": "MarketDenied",
      "type": "event"
    },
    {
      "anonymous": false,
      "inputs": [
        {
          "indexed": true,
          "internalType": "uint256",
          "name": "marketId",
          "type": "uint256"
        },
        {
          "indexed": true,
          "internalType": "address",
          "name": "vault",
          "type": "address"
        },
        {
          "indexed": true,
          "internalType": "address",
          "name": "recipient",
          "type": "address"
        },
        {
          "indexed": false,
          "internalType": "address",
          "name": "pool",
          "type": "address"
        },
        {
          "indexed": false,
          "internalType": "address",
          "name": "longZCB",
          "type": "address"
        },
        {
          "indexed": false,
          "internalType": "address",
          "name": "shortZCB",
          "type": "address"
        },
        {
          "components": [
            {
              "internalType": "bytes32",
              "name": "name",
              "type": "bytes32"
            },
            {
              "internalType": "bool",
              "name": "isPool",
              "type": "bool"
            },
            {
              "internalType": "bool",
              "name": "trusted",
              "type": "bool"
            },
            {
              "internalType": "uint256",
              "name": "balance",
              "type": "uint256"
            },
            {
              "internalType": "uint256",
              "name": "faceValue",
              "type": "uint256"
            },
            {
              "internalType": "uint256",
              "name": "marketId",
              "type": "uint256"
            },
            {
              "internalType": "uint256",
              "name": "principal",
              "type": "uint256"
            },
            {
              "internalType": "uint256",
              "name": "expectedYield",
              "type": "uint256"
            },
            {
              "internalType": "uint256",
              "name": "duration",
              "type": "uint256"
            },
            {
              "internalType": "string",
              "name": "description",
              "type": "string"
            },
            {
              "internalType": "address",
              "name": "instrument_address",
              "type": "address"
            },
            {
              "internalType": "enum Vault.InstrumentType",
              "name": "instrument_type",
              "type": "uint8"
            },
            {
              "internalType": "uint256",
              "name": "maturityDate",
              "type": "uint256"
            },
            {
              "components": [
                {
                  "internalType": "uint256",
                  "name": "saleAmount",
                  "type": "uint256"
                },
                {
                  "internalType": "uint256",
                  "name": "initPrice",
                  "type": "uint256"
                },
                {
                  "internalType": "uint256",
                  "name": "promisedReturn",
                  "type": "uint256"
                },
                {
                  "internalType": "uint256",
                  "name": "inceptionTime",
                  "type": "uint256"
                },
                {
                  "internalType": "uint256",
                  "name": "inceptionPrice",
                  "type": "uint256"
                },
                {
                  "internalType": "uint256",
                  "name": "leverageFactor",
                  "type": "uint256"
                },
                {
                  "internalType": "uint256",
                  "name": "managementFee",
                  "type": "uint256"
                }
              ],
              "internalType": "struct Vault.PoolData",
              "name": "poolData",
              "type": "tuple"
            }
          ],
          "indexed": false,
          "internalType": "struct Vault.InstrumentData",
          "name": "instrumentData",
          "type": "tuple"
        }
      ],
      "name": "MarketInitiated",
      "type": "event"
    },
    {
      "anonymous": false,
      "inputs": [
        {
          "indexed": true,
          "internalType": "uint256",
          "name": "marketId",
          "type": "uint256"
        },
        {
          "indexed": false,
          "internalType": "bool",
          "name": "atLoss",
          "type": "bool"
        },
        {
          "indexed": false,
          "internalType": "uint256",
          "name": "extraGain",
          "type": "uint256"
        },
        {
          "indexed": false,
          "internalType": "uint256",
          "name": "principalLoss",
          "type": "uint256"
        },
        {
          "indexed": false,
          "internalType": "bool",
          "name": "premature",
          "type": "bool"
        }
      ],
      "name": "MarketResolved",
      "type": "event"
    },
    {
      "anonymous": false,
      "inputs": [
        {
          "indexed": true,
          "internalType": "uint256",
          "name": "marketId",
          "type": "uint256"
        },
        {
          "indexed": false,
          "internalType": "uint256",
          "name": "amount",
          "type": "uint256"
        },
        {
          "indexed": false,
          "internalType": "address",
          "name": "to",
          "type": "address"
        }
      ],
      "name": "RedeemTransfer",
      "type": "event"
    },
    {
      "anonymous": false,
      "inputs": [
        {
          "indexed": true,
          "internalType": "address",
          "name": "vault",
          "type": "address"
        },
        {
          "indexed": false,
          "internalType": "uint256",
          "name": "vaultId",
          "type": "uint256"
        },
        {
          "indexed": false,
          "internalType": "address",
          "name": "underlying",
          "type": "address"
        },
        {
          "indexed": false,
          "internalType": "bool",
          "name": "onlyVerified",
          "type": "bool"
        },
        {
          "indexed": false,
          "internalType": "uint256",
          "name": "r",
          "type": "uint256"
        },
        {
          "indexed": false,
          "internalType": "uint256",
          "name": "assetLimit",
          "type": "uint256"
        },
        {
          "indexed": false,
          "internalType": "uint256",
          "name": "totalAssetLimit",
          "type": "uint256"
        },
        {
          "components": [
            {
              "internalType": "uint256",
              "name": "N",
              "type": "uint256"
            },
            {
              "internalType": "uint256",
              "name": "sigma",
              "type": "uint256"
            },
            {
              "internalType": "uint256",
              "name": "alpha",
              "type": "uint256"
            },
            {
              "internalType": "uint256",
              "name": "omega",
              "type": "uint256"
            },
            {
              "internalType": "uint256",
              "name": "delta",
              "type": "uint256"
            },
            {
              "internalType": "uint256",
              "name": "r",
              "type": "uint256"
            },
            {
              "internalType": "uint256",
              "name": "s",
              "type": "uint256"
            },
            {
              "internalType": "uint256",
              "name": "steak",
              "type": "uint256"
            }
          ],
          "indexed": false,
          "internalType": "struct MarketManager.MarketParameters",
          "name": "defaultParams",
          "type": "tuple"
        }
      ],
      "name": "VaultCreated",
      "type": "event"
    },
    {
      "inputs": [],
      "name": "Data",
      "outputs": [
        {
          "internalType": "contract StorageHandler",
          "name": "",
          "type": "address"
        }
      ],
      "stateMutability": "view",
      "type": "function"
    },
    {
      "inputs": [
        {
          "internalType": "address",
          "name": "",
          "type": "address"
        }
      ],
      "name": "ad_to_id",
      "outputs": [
        {
          "internalType": "uint256",
          "name": "",
          "type": "uint256"
        }
      ],
      "stateMutability": "view",
      "type": "function"
    },
    {
      "inputs": [
        {
          "internalType": "uint256",
          "name": "marketId",
          "type": "uint256"
        }
      ],
      "name": "approvalCondition",
      "outputs": [
        {
          "internalType": "bool",
          "name": "",
          "type": "bool"
        }
      ],
      "stateMutability": "view",
      "type": "function"
    },
    {
      "inputs": [
        {
          "internalType": "uint256",
          "name": "marketId",
          "type": "uint256"
        }
      ],
      "name": "approveMarket",
      "outputs": [],
      "stateMutability": "nonpayable",
      "type": "function"
    },
    {
      "inputs": [
        {
          "internalType": "uint256",
          "name": "marketId",
          "type": "uint256"
        }
      ],
      "name": "beforeResolve",
      "outputs": [],
      "stateMutability": "nonpayable",
      "type": "function"
    },
    {
      "inputs": [
        {
          "internalType": "uint256",
          "name": "marketId",
          "type": "uint256"
        },
        {
          "internalType": "uint256",
          "name": "incompleteReturns",
          "type": "uint256"
        }
      ],
      "name": "calcIncompleteReturns",
      "outputs": [
        {
          "internalType": "uint256",
          "name": "seniorReturn",
          "type": "uint256"
        }
      ],
      "stateMutability": "view",
      "type": "function"
    },
    {
      "inputs": [],
      "name": "canSelfVerify",
      "outputs": [],
      "stateMutability": "nonpayable",
      "type": "function"
    },
    {
      "inputs": [
        {
          "internalType": "address",
          "name": "underlying",
          "type": "address"
        },
        {
          "internalType": "bool",
          "name": "_onlyVerified",
          "type": "bool"
        },
        {
          "internalType": "uint256",
          "name": "_r",
          "type": "uint256"
        },
        {
          "internalType": "uint256",
          "name": "_asset_limit",
          "type": "uint256"
        },
        {
          "internalType": "uint256",
          "name": "_total_asset_limit",
          "type": "uint256"
        },
        {
          "components": [
            {
              "internalType": "uint256",
              "name": "N",
              "type": "uint256"
            },
            {
              "internalType": "uint256",
              "name": "sigma",
              "type": "uint256"
            },
            {
              "internalType": "uint256",
              "name": "alpha",
              "type": "uint256"
            },
            {
              "internalType": "uint256",
              "name": "omega",
              "type": "uint256"
            },
            {
              "internalType": "uint256",
              "name": "delta",
              "type": "uint256"
            },
            {
              "internalType": "uint256",
              "name": "r",
              "type": "uint256"
            },
            {
              "internalType": "uint256",
              "name": "s",
              "type": "uint256"
            },
            {
              "internalType": "uint256",
              "name": "steak",
              "type": "uint256"
            }
          ],
          "internalType": "struct MarketManager.MarketParameters",
          "name": "default_params",
          "type": "tuple"
        },
        {
          "internalType": "string",
          "name": "_description",
          "type": "string"
        }
      ],
      "name": "createVault",
      "outputs": [],
      "stateMutability": "nonpayable",
      "type": "function"
    },
    {
      "inputs": [
        {
          "internalType": "uint256",
          "name": "marketId",
          "type": "uint256"
        },
        {
          "internalType": "address",
          "name": "validator",
          "type": "address"
        }
      ],
      "name": "deniedValidator",
      "outputs": [
        {
          "internalType": "uint256",
          "name": "collateral_amount",
          "type": "uint256"
        }
      ],
      "stateMutability": "nonpayable",
      "type": "function"
    },
    {
      "inputs": [
        {
          "internalType": "uint256",
          "name": "marketId",
          "type": "uint256"
        }
      ],
      "name": "denyMarket",
      "outputs": [],
      "stateMutability": "nonpayable",
      "type": "function"
    },
    {
      "inputs": [
        {
          "internalType": "uint256",
          "name": "marketId",
          "type": "uint256"
        },
        {
          "internalType": "bool",
          "name": "emergency",
          "type": "bool"
        }
      ],
      "name": "forceCloseInstrument",
      "outputs": [
        {
          "internalType": "bool",
          "name": "",
          "type": "bool"
        }
      ],
      "stateMutability": "nonpayable",
      "type": "function"
    },
    {
      "inputs": [
        {
          "internalType": "uint256",
          "name": "requestId",
          "type": "uint256"
        },
        {
          "internalType": "uint256[]",
          "name": "randomWords",
          "type": "uint256[]"
        }
      ],
      "name": "fulfillRandomWords",
      "outputs": [],
      "stateMutability": "nonpayable",
      "type": "function"
    },
    {
      "inputs": [
        {
          "internalType": "uint256",
          "name": "marketId",
          "type": "uint256"
        }
      ],
      "name": "getApprovalData",
      "outputs": [
        {
          "components": [
            {
              "internalType": "uint256",
              "name": "managers_stake",
              "type": "uint256"
            },
            {
              "internalType": "uint256",
              "name": "approved_principal",
              "type": "uint256"
            },
            {
              "internalType": "uint256",
              "name": "approved_yield",
              "type": "uint256"
            }
          ],
          "internalType": "struct ApprovalData",
          "name": "data",
          "type": "tuple"
        }
      ],
      "stateMutability": "view",
      "type": "function"
    },
    {
      "inputs": [
        {
          "internalType": "uint256",
          "name": "marketId",
          "type": "uint256"
        }
      ],
      "name": "getFinalStake",
      "outputs": [
        {
          "internalType": "uint256",
          "name": "",
          "type": "uint256"
        }
      ],
      "stateMutability": "view",
      "type": "function"
    },
    {
      "inputs": [
        {
          "internalType": "uint256",
          "name": "marketId",
          "type": "uint256"
        }
      ],
      "name": "getInitialStake",
      "outputs": [
        {
          "internalType": "uint256",
          "name": "",
          "type": "uint256"
        }
      ],
      "stateMutability": "view",
      "type": "function"
    },
    {
      "inputs": [
        {
          "internalType": "uint256",
          "name": "marketId",
          "type": "uint256"
        }
      ],
      "name": "getInstrumentSnapShot",
      "outputs": [
        {
          "internalType": "uint256",
          "name": "managerStake",
          "type": "uint256"
        },
        {
          "internalType": "uint256",
          "name": "exposurePercentage",
          "type": "uint256"
        },
        {
          "internalType": "uint256",
          "name": "seniorAPR",
          "type": "uint256"
        },
        {
          "internalType": "uint256",
          "name": "approvalPrice",
          "type": "uint256"
        }
      ],
      "stateMutability": "view",
      "type": "function"
    },
    {
      "inputs": [
        {
          "internalType": "address",
          "name": "recipient",
          "type": "address"
        }
      ],
      "name": "getMarketId",
      "outputs": [
        {
          "internalType": "uint256",
          "name": "",
          "type": "uint256"
        }
      ],
      "stateMutability": "view",
      "type": "function"
    },
    {
      "inputs": [
        {
          "internalType": "uint256",
          "name": "vaultId",
          "type": "uint256"
        }
      ],
      "name": "getMarketIds",
      "outputs": [
        {
          "internalType": "uint256[]",
          "name": "",
          "type": "uint256[]"
        }
      ],
      "stateMutability": "view",
      "type": "function"
    },
    {
      "inputs": [
        {
          "internalType": "uint256",
          "name": "marketId",
          "type": "uint256"
        }
      ],
      "name": "getNumApproved",
      "outputs": [
        {
          "internalType": "uint256",
          "name": "",
          "type": "uint256"
        }
      ],
      "stateMutability": "view",
      "type": "function"
    },
    {
      "inputs": [
        {
          "internalType": "uint256",
          "name": "marketId",
          "type": "uint256"
        }
      ],
      "name": "getNumResolved",
      "outputs": [
        {
          "internalType": "uint256",
          "name": "",
          "type": "uint256"
        }
      ],
      "stateMutability": "view",
      "type": "function"
    },
    {
      "inputs": [
        {
          "internalType": "uint256",
          "name": "marketId",
          "type": "uint256"
        }
      ],
      "name": "getTotalStaked",
      "outputs": [
        {
          "internalType": "uint256",
          "name": "",
          "type": "uint256"
        }
      ],
      "stateMutability": "view",
      "type": "function"
    },
    {
      "inputs": [
        {
          "internalType": "uint256",
          "name": "marketId",
          "type": "uint256"
        }
      ],
      "name": "getTotalSupply",
      "outputs": [
        {
          "internalType": "uint256",
          "name": "",
          "type": "uint256"
        }
      ],
      "stateMutability": "view",
      "type": "function"
    },
    {
      "inputs": [
        {
          "internalType": "uint256",
          "name": "marketId",
          "type": "uint256"
        }
      ],
      "name": "getTotalValidatorSales",
      "outputs": [
        {
          "internalType": "uint256",
          "name": "",
          "type": "uint256"
        }
      ],
      "stateMutability": "view",
      "type": "function"
    },
    {
      "inputs": [
        {
          "internalType": "address",
          "name": "trader",
          "type": "address"
        }
      ],
      "name": "getTraderScore",
      "outputs": [
        {
          "internalType": "uint256",
          "name": "",
          "type": "uint256"
        }
      ],
      "stateMutability": "view",
      "type": "function"
    },
    {
      "inputs": [
        {
          "internalType": "uint256",
          "name": "marketId",
          "type": "uint256"
        }
      ],
      "name": "getValidatorCap",
      "outputs": [
        {
          "internalType": "uint256",
          "name": "",
          "type": "uint256"
        }
      ],
      "stateMutability": "view",
      "type": "function"
    },
    {
      "inputs": [
        {
          "internalType": "uint256",
          "name": "marketId",
          "type": "uint256"
        }
      ],
      "name": "getValidatorPrice",
      "outputs": [
        {
          "internalType": "uint256",
          "name": "",
          "type": "uint256"
        }
      ],
      "stateMutability": "view",
      "type": "function"
    },
    {
      "inputs": [
        {
          "internalType": "uint256",
          "name": "marketId",
          "type": "uint256"
        }
      ],
      "name": "getValidatorRequiredCollateral",
      "outputs": [
        {
          "internalType": "uint256",
          "name": "",
          "type": "uint256"
        }
      ],
      "stateMutability": "view",
      "type": "function"
    },
    {
      "inputs": [
        {
          "internalType": "uint256",
          "name": "marketId",
          "type": "uint256"
        }
      ],
      "name": "getVault",
      "outputs": [
        {
          "internalType": "contract Vault",
          "name": "",
          "type": "address"
        }
      ],
      "stateMutability": "view",
      "type": "function"
    },
    {
      "inputs": [
        {
          "internalType": "uint256",
          "name": "marketId",
          "type": "uint256"
        }
      ],
      "name": "getVaultAd",
      "outputs": [
        {
          "internalType": "address",
          "name": "",
          "type": "address"
        }
      ],
      "stateMutability": "view",
      "type": "function"
    },
    {
      "inputs": [
        {
          "internalType": "uint256",
          "name": "vaultId",
          "type": "uint256"
        }
      ],
      "name": "getVaultSnapShot",
      "outputs": [
        {
          "internalType": "uint256",
          "name": "totalProtection",
          "type": "uint256"
        },
        {
          "internalType": "uint256",
          "name": "totalEstimatedAPR",
          "type": "uint256"
        },
        {
          "internalType": "uint256",
          "name": "goalAPR",
          "type": "uint256"
        },
        {
          "internalType": "uint256",
          "name": "exchangeRate",
          "type": "uint256"
        }
      ],
      "stateMutability": "view",
      "type": "function"
    },
    {
      "inputs": [
        {
          "internalType": "uint256",
          "name": "vaultId",
          "type": "uint256"
        }
      ],
      "name": "getVaultfromId",
      "outputs": [
        {
          "internalType": "address",
          "name": "",
          "type": "address"
        }
      ],
      "stateMutability": "view",
      "type": "function"
    },
    {
      "inputs": [
        {
          "internalType": "uint256",
          "name": "marketId",
          "type": "uint256"
        },
        {
          "internalType": "address",
          "name": "validator",
          "type": "address"
        }
      ],
      "name": "hasApproved",
      "outputs": [
        {
          "internalType": "bool",
          "name": "",
          "type": "bool"
        }
      ],
      "stateMutability": "view",
      "type": "function"
    },
    {
      "inputs": [
        {
          "internalType": "uint256",
          "name": "",
          "type": "uint256"
        }
      ],
      "name": "id_parent",
      "outputs": [
        {
          "internalType": "uint256",
          "name": "",
          "type": "uint256"
        }
      ],
      "stateMutability": "view",
      "type": "function"
    },
    {
      "inputs": [
        {
          "internalType": "address",
          "name": "recipient",
          "type": "address"
        },
        {
          "components": [
            {
              "internalType": "bytes32",
              "name": "name",
              "type": "bytes32"
            },
            {
              "internalType": "bool",
              "name": "isPool",
              "type": "bool"
            },
            {
              "internalType": "bool",
              "name": "trusted",
              "type": "bool"
            },
            {
              "internalType": "uint256",
              "name": "balance",
              "type": "uint256"
            },
            {
              "internalType": "uint256",
              "name": "faceValue",
              "type": "uint256"
            },
            {
              "internalType": "uint256",
              "name": "marketId",
              "type": "uint256"
            },
            {
              "internalType": "uint256",
              "name": "principal",
              "type": "uint256"
            },
            {
              "internalType": "uint256",
              "name": "expectedYield",
              "type": "uint256"
            },
            {
              "internalType": "uint256",
              "name": "duration",
              "type": "uint256"
            },
            {
              "internalType": "string",
              "name": "description",
              "type": "string"
            },
            {
              "internalType": "address",
              "name": "instrument_address",
              "type": "address"
            },
            {
              "internalType": "enum Vault.InstrumentType",
              "name": "instrument_type",
              "type": "uint8"
            },
            {
              "internalType": "uint256",
              "name": "maturityDate",
              "type": "uint256"
            },
            {
              "components": [
                {
                  "internalType": "uint256",
                  "name": "saleAmount",
                  "type": "uint256"
                },
                {
                  "internalType": "uint256",
                  "name": "initPrice",
                  "type": "uint256"
                },
                {
                  "internalType": "uint256",
                  "name": "promisedReturn",
                  "type": "uint256"
                },
                {
                  "internalType": "uint256",
                  "name": "inceptionTime",
                  "type": "uint256"
                },
                {
                  "internalType": "uint256",
                  "name": "inceptionPrice",
                  "type": "uint256"
                },
                {
                  "internalType": "uint256",
                  "name": "leverageFactor",
                  "type": "uint256"
                },
                {
                  "internalType": "uint256",
                  "name": "managementFee",
                  "type": "uint256"
                }
              ],
              "internalType": "struct Vault.PoolData",
              "name": "poolData",
              "type": "tuple"
            }
          ],
          "internalType": "struct Vault.InstrumentData",
          "name": "instrumentData",
          "type": "tuple"
        },
        {
          "internalType": "uint256",
          "name": "vaultId",
          "type": "uint256"
        }
      ],
      "name": "initiateMarket",
      "outputs": [],
      "stateMutability": "nonpayable",
      "type": "function"
    },
    {
      "inputs": [
        {
          "internalType": "address",
          "name": "trader",
          "type": "address"
        },
        {
          "internalType": "uint256",
          "name": "r",
          "type": "uint256"
        }
      ],
      "name": "isReputable",
      "outputs": [
        {
          "internalType": "bool",
          "name": "",
          "type": "bool"
        }
      ],
      "stateMutability": "view",
      "type": "function"
    },
    {
      "inputs": [
        {
          "internalType": "uint256",
          "name": "marketId",
          "type": "uint256"
        },
        {
          "internalType": "address",
          "name": "user",
          "type": "address"
        }
      ],
      "name": "isValidator",
      "outputs": [
        {
          "internalType": "bool",
          "name": "",
          "type": "bool"
        }
      ],
      "stateMutability": "view",
      "type": "function"
    },
    {
      "inputs": [
        {
          "internalType": "address",
          "name": "addr",
          "type": "address"
        }
      ],
      "name": "isVerified",
      "outputs": [
        {
          "internalType": "bool",
          "name": "",
          "type": "bool"
        }
      ],
      "stateMutability": "view",
      "type": "function"
    },
    {
      "inputs": [],
      "name": "leverageManager",
      "outputs": [
        {
          "internalType": "contract LeverageManager",
          "name": "",
          "type": "address"
        }
      ],
      "stateMutability": "view",
      "type": "function"
    },
    {
      "inputs": [
        {
          "internalType": "uint256",
          "name": "marketId",
          "type": "uint256"
        }
      ],
      "name": "marketCondition",
      "outputs": [
        {
          "internalType": "bool",
          "name": "",
          "type": "bool"
        }
      ],
      "stateMutability": "view",
      "type": "function"
    },
    {
      "inputs": [
        {
          "internalType": "uint256",
          "name": "marketId",
          "type": "uint256"
        }
      ],
      "name": "marketIdToVaultId",
      "outputs": [
        {
          "internalType": "uint256",
          "name": "",
          "type": "uint256"
        }
      ],
      "stateMutability": "view",
      "type": "function"
    },
    {
      "inputs": [
        {
          "internalType": "uint256",
          "name": "marketId",
          "type": "uint256"
        }
      ],
      "name": "marketId_to_vaultId",
      "outputs": [
        {
          "internalType": "uint256",
          "name": "",
          "type": "uint256"
        }
      ],
      "stateMutability": "view",
      "type": "function"
    },
    {
      "inputs": [],
      "name": "marketManager",
      "outputs": [
        {
          "internalType": "contract MarketManager",
          "name": "",
          "type": "address"
        }
      ],
      "stateMutability": "view",
      "type": "function"
    },
    {
      "inputs": [
        {
          "internalType": "uint256",
          "name": "",
          "type": "uint256"
        }
      ],
      "name": "market_data",
      "outputs": [
        {
          "internalType": "address",
          "name": "instrument_address",
          "type": "address"
        },
        {
          "internalType": "address",
          "name": "utilizer",
          "type": "address"
        }
      ],
      "stateMutability": "view",
      "type": "function"
    },
    {
      "inputs": [],
      "name": "poolFactory",
      "outputs": [
        {
          "internalType": "contract SyntheticZCBPoolFactory",
          "name": "",
          "type": "address"
        }
      ],
      "stateMutability": "view",
      "type": "function"
    },
    {
      "inputs": [
        {
          "internalType": "uint256",
          "name": "marketId",
          "type": "uint256"
        },
        {
          "internalType": "uint256",
          "name": "amount",
          "type": "uint256"
        }
      ],
      "name": "pullLeverage",
      "outputs": [],
      "stateMutability": "nonpayable",
      "type": "function"
    },
    {
      "inputs": [
        {
          "internalType": "uint256",
          "name": "marketId",
          "type": "uint256"
        },
        {
          "internalType": "address",
          "name": "validator",
          "type": "address"
        }
      ],
      "name": "redeemValidator",
      "outputs": [],
      "stateMutability": "nonpayable",
      "type": "function"
    },
    {
      "inputs": [
        {
          "internalType": "uint256",
          "name": "amount",
          "type": "uint256"
        },
        {
          "internalType": "address",
          "name": "to",
          "type": "address"
        },
        {
          "internalType": "uint256",
          "name": "marketId",
          "type": "uint256"
        }
      ],
      "name": "redeem_transfer",
      "outputs": [],
      "stateMutability": "nonpayable",
      "type": "function"
    },
    {
      "inputs": [],
      "name": "reputationManager",
      "outputs": [
        {
          "internalType": "contract ReputationManager",
          "name": "",
          "type": "address"
        }
      ],
      "stateMutability": "view",
      "type": "function"
    },
    {
      "inputs": [
        {
          "internalType": "uint256",
          "name": "marketId",
          "type": "uint256"
        }
      ],
      "name": "resolveCondition",
      "outputs": [
        {
          "internalType": "bool",
          "name": "",
          "type": "bool"
        }
      ],
      "stateMutability": "view",
      "type": "function"
    },
    {
      "inputs": [
        {
          "internalType": "uint256",
          "name": "marketId",
          "type": "uint256"
        }
      ],
      "name": "resolveMarket",
      "outputs": [],
      "stateMutability": "nonpayable",
      "type": "function"
    },
    {
      "inputs": [],
      "name": "selfVerify",
      "outputs": [
        {
          "internalType": "bool",
          "name": "",
          "type": "bool"
        }
      ],
      "stateMutability": "view",
      "type": "function"
    },
    {
      "inputs": [
        {
          "internalType": "address",
          "name": "_dataStore",
          "type": "address"
        }
      ],
      "name": "setDataStore",
      "outputs": [],
      "stateMutability": "nonpayable",
      "type": "function"
    },
    {
      "inputs": [
        {
          "internalType": "address",
          "name": "_leverageManager",
          "type": "address"
        }
      ],
      "name": "setLeverageManager",
      "outputs": [],
      "stateMutability": "nonpayable",
      "type": "function"
    },
    {
      "inputs": [
        {
          "internalType": "address",
          "name": "_marketManager",
          "type": "address"
        }
      ],
      "name": "setMarketManager",
      "outputs": [],
      "stateMutability": "nonpayable",
      "type": "function"
    },
    {
      "inputs": [
        {
          "internalType": "address",
          "name": "_poolFactory",
          "type": "address"
        }
      ],
      "name": "setPoolFactory",
      "outputs": [],
      "stateMutability": "nonpayable",
      "type": "function"
    },
    {
      "inputs": [
        {
          "internalType": "address",
          "name": "_reputationManager",
          "type": "address"
        }
      ],
      "name": "setReputationManager",
      "outputs": [],
      "stateMutability": "nonpayable",
      "type": "function"
    },
    {
      "inputs": [
        {
          "internalType": "address",
          "name": "_validatorManager",
          "type": "address"
        }
      ],
      "name": "setValidatorManager",
      "outputs": [],
      "stateMutability": "nonpayable",
      "type": "function"
    },
    {
      "inputs": [
        {
          "internalType": "address",
          "name": "_vaultFactory",
          "type": "address"
        }
      ],
      "name": "setVaultFactory",
      "outputs": [],
      "stateMutability": "nonpayable",
      "type": "function"
    },
    {
      "inputs": [
        {
          "internalType": "uint256",
          "name": "marketId",
          "type": "uint256"
        }
      ],
      "name": "testApproveMarket",
      "outputs": [],
      "stateMutability": "nonpayable",
      "type": "function"
    },
    {
      "inputs": [
        {
          "internalType": "uint256",
          "name": "marketId",
          "type": "uint256"
        }
      ],
      "name": "testResolveMarket",
      "outputs": [],
      "stateMutability": "nonpayable",
      "type": "function"
    },
    {
      "inputs": [],
      "name": "testVerifyAddress",
      "outputs": [],
      "stateMutability": "nonpayable",
      "type": "function"
    },
    {
      "inputs": [
        {
          "internalType": "uint256",
          "name": "marketId",
          "type": "uint256"
        }
      ],
      "name": "unlockValidatorStake",
      "outputs": [],
      "stateMutability": "nonpayable",
      "type": "function"
    },
    {
      "inputs": [
        {
          "internalType": "uint256",
          "name": "marketId",
          "type": "uint256"
        }
      ],
      "name": "validatorApprove",
      "outputs": [
        {
          "internalType": "uint256",
          "name": "",
          "type": "uint256"
        }
      ],
      "stateMutability": "nonpayable",
      "type": "function"
    },
    {
      "inputs": [
        {
          "internalType": "uint256",
          "name": "marketId",
          "type": "uint256"
        }
      ],
      "name": "validatorResolve",
      "outputs": [],
      "stateMutability": "nonpayable",
      "type": "function"
    },
    {
      "inputs": [],
      "name": "vaultFactory",
      "outputs": [
        {
          "internalType": "contract VaultFactory",
          "name": "",
          "type": "address"
        }
      ],
      "stateMutability": "view",
      "type": "function"
    },
    {
      "inputs": [
        {
          "internalType": "uint256",
          "name": "",
          "type": "uint256"
        },
        {
          "internalType": "uint256",
          "name": "",
          "type": "uint256"
        }
      ],
      "name": "vault_to_marketIds",
      "outputs": [
        {
          "internalType": "uint256",
          "name": "",
          "type": "uint256"
        }
      ],
      "stateMutability": "view",
      "type": "function"
    },
    {
      "inputs": [
        {
          "internalType": "uint256",
          "name": "",
          "type": "uint256"
        }
      ],
      "name": "vaults",
      "outputs": [
        {
          "internalType": "contract Vault",
          "name": "",
          "type": "address"
        }
      ],
      "stateMutability": "view",
      "type": "function"
    },
    {
      "inputs": [
        {
          "internalType": "address",
          "name": "",
          "type": "address"
        }
      ],
      "name": "verified",
      "outputs": [
        {
          "internalType": "bool",
          "name": "",
          "type": "bool"
        }
      ],
      "stateMutability": "view",
      "type": "function"
    },
    {
      "inputs": [
        {
          "internalType": "address",
          "name": "who",
          "type": "address"
        }
      ],
      "name": "verifyAddress",
      "outputs": [],
      "stateMutability": "nonpayable",
      "type": "function"
    },
    {
      "inputs": [
        {
          "internalType": "uint256",
          "name": "marketId",
          "type": "uint256"
        }
      ],
      "name": "viewValidators",
      "outputs": [
        {
          "internalType": "address[]",
          "name": "",
          "type": "address[]"
        }
      ],
      "stateMutability": "view",
      "type": "function"
    }
  ],
  "bytecode": {
    "object": "0x6080604052600e805460ff60a01b1916600160a01b1790553480156200002457600080fd5b50604051620060573803806200605783398101604081905262000047916200008b565b50600880546001600160a01b0319166001600160a01b0392909216919091179055620000c3565b80516001600160a01b03811681146200008657600080fd5b919050565b600080604083850312156200009f57600080fd5b620000aa836200006e565b9150620000ba602084016200006e565b90509250929050565b615f8480620000d36000396000f3fe608060405234801561001057600080fd5b50600436106104125760003560e01c80638d4f16d711610220578063c8f559c011610130578063e8858b4f116100b8578063f0fd1d3811610087578063f0fd1d3814610a04578063f25fcc9f14610a17578063f304c27814610a40578063f42cb86f14610a53578063fcb2cafc14610a6757600080fd5b8063e8858b4f146109b8578063e8a78026146109cb578063e8e3fbb7146109de578063ebd4dc46146109f157600080fd5b8063d466461c116100ff578063d466461c14610959578063d65ec9641461096c578063d82aff111461097f578063d8a06f7314610992578063da0a697f146109a557600080fd5b8063c8f559c014610920578063cabe2ae114610933578063ce93ec67146104a0578063d12271361461094657600080fd5b8063a40c63f7116101b3578063b37eedcd11610182578063b37eedcd146108bb578063b743939b146108ce578063b9209e33146108e1578063c3f956fa1461090d578063c4abc6501461080457600080fd5b8063a40c63f714610840578063ac1b6b0114610853578063ad4e4e7014610888578063b1b7e1f21461089b57600080fd5b806392ab723e116101ef57806392ab723e146107de578063937b6feb146107f15780639403b634146108045780639fe1458b1461081757600080fd5b80638d4f16d7146107445780638dc3d9b4146107985780638f5709a5146107ab5780638fbbc868146107be57600080fd5b80634219dc40116103265780636b868afb116102ae57806381e1b07c1161027d57806381e1b07c146106cf57806381fd6c02146106e2578063830e2a02146106f5578063875e487e146107085780638c64ea4a1461071b57600080fd5b80636b868afb146106815780636fe2983b146106945780637789ec5a1461069c578063805798ac146106bc57600080fd5b80634b6e7d78116102f55780634b6e7d78146106225780634cb4408714610635578063500065d21461064857806356a837f41461065b5780636399d03d1461066e57600080fd5b80634219dc40146105d657806345f34e92146105e9578063473597a0146105fc578063482c0aa81461060f57600080fd5b80632b858734116103a957806338ba46141161037857806338ba4614146105525780633ea7fbdb146105655780633ec8dc3b14610578578063402978121461059857806341ed2c12146105ab57600080fd5b80632b858734146104e65780632f8899f3146104f957806337b4dd3a1461050c57806337bc93b01461053f57600080fd5b80630db065f4116103e55780630db065f41461047d57806314f2b14c146104a05780632358d5a8146104c057806323f2a73f146104d357600080fd5b806303cccb351461041757806305a1ce991461042157806308ad90a5146104495780630c33df181461046a575b600080fd5b61041f610a7a565b005b61043461042f366004614dbd565b610b4e565b60405190151581526020015b60405180910390f35b61045c610457366004614dfb565b610bc3565b604051908152602001610440565b610434610478366004614e31565b610c33565b61043461048b366004614dfb565b60026020526000908152604090205460ff1681565b61045c6104ae366004614dbd565b60009081526006602052604090205490565b6104346104ce366004614e61565b610d10565b6104346104e1366004614e61565b610d8e565b61041f6104f4366004614dbd565b610dc8565b61045c610507366004614dbd565b610f7f565b61051f61051a366004614dbd565b610fb1565b604080519485526020850193909352918301526060820152608001610440565b61045c61054d366004614dbd565b611362565b61041f610560366004614f5d565b611394565b61041f610573366004614dfb565b6113fc565b61058b610586366004614dbd565b611472565b6040516104409190614ffe565b61045c6105a636600461504b565b6114e4565b6009546105be906001600160a01b031681565b6040516001600160a01b039091168152602001610440565b600b546105be906001600160a01b031681565b61041f6105f7366004614dfb565b611619565b61041f61060a366004614dfb565b61168f565b61045c61061d36600461504b565b611705565b600e546105be906001600160a01b031681565b61041f610643366004614dbd565b611736565b61041f610656366004614dfb565b611899565b61041f610669366004614dfb565b611a25565b61041f61067c366004614dbd565b611b00565b600c546105be906001600160a01b031681565b61041f611cd2565b61045c6106aa366004614dfb565b60046020526000908152604090205481565b61045c6106ca366004614dbd565b611d35565b6104346106dd366004614dbd565b611d67565b600d546105be906001600160a01b031681565b61045c610703366004614e61565b611d99565b61045c610716366004614dbd565b611e67565b6105be610729366004614dbd565b6005602052600090815260409020546001600160a01b031681565b610778610752366004614dbd565b600360205260009081526040902080546001909101546001600160a01b03918216911682565b604080516001600160a01b03938416815292909116602083015201610440565b61041f6107a6366004614dbd565b611e99565b61041f6107b9366004614e61565b611ed0565b61045c6107cc366004614dbd565b60066020526000908152604090205481565b61045c6107ec366004614dbd565b611f5d565b61045c6107ff366004614dbd565b612008565b6105be610812366004614dbd565b61203a565b6105be610825366004614dbd565b6000908152600560205260409020546001600160a01b031690565b61045c61084e366004614dbd565b612062565b610866610861366004614dbd565b612094565b6040805182518152602080840151908201529181015190820152606001610440565b61041f610896366004614dbd565b6120f0565b6108ae6108a9366004614dbd565b612127565b60405161044091906150a8565b61041f6108c9366004614dbd565b612189565b6104346108dc366004614dbd565b61222d565b6104346108ef366004614dfb565b6001600160a01b031660009081526002602052604090205460ff1690565b61041f61091b366004614dbd565b612633565b61051f61092e366004614dbd565b61282a565b61041f610941366004614dbd565b612b29565b61045c610954366004614dbd565b6134f7565b61045c610967366004614dbd565b613663565b61045c61097a366004614dbd565b613695565b61041f61098d366004614dfb565b6136c7565b600a546105be906001600160a01b031681565b61041f6109b336600461504b565b613750565b61041f6109c6366004615103565b6137e2565b6104346109d9366004615200565b61390e565b61041f6109ec36600461531e565b613948565b61045c6109ff366004614dbd565b6142e4565b61041f610a1236600461545f565b614316565b61045c610a25366004614dfb565b6001600160a01b031660009081526004602052604090205490565b61041f610a4e366004614dfb565b614432565b600e5461043490600160a01b900460ff1681565b61041f610a75366004614dfb565b6144cf565b600e54600160a01b900460ff16610ac65760405162461bcd60e51b815260206004820152600b60248201526a2173656c6656657269667960a81b60448201526064015b60405180910390fd5b3360008181526002602052604090819020805460ff19166001179055600c549051630622fd1760e01b81526004810192909252670de0b6b3a764000060248301526001600160a01b031690630622fd1790604401600060405180830381600087803b158015610b3457600080fd5b505af1158015610b48573d6000803e3d6000fd5b50505050565b600080546040516305a1ce9960e01b8152600481018490526001600160a01b03909116906305a1ce99906024015b602060405180830381865afa158015610b99573d6000803e3d6000fd5b505050506040513d601f19601f82011682018060405250810190610bbd91906154a2565b92915050565b600c546040516344c7439360e01b81526001600160a01b03838116600483015260009216906344c74393906024015b602060405180830381865afa158015610c0f573d6000803e3d6000fd5b505050506040513d601f19601f82011682018060405250810190610bbd91906154bf565b600082815260066020908152604080832054835260059091528082205490516359dc5c6f60e01b8152600481018590526001600160a01b039091169081906359dc5c6f90602401600060405180830381600087803b158015610c9457600080fd5b505af1158015610ca8573d6000803e3d6000fd5b5050604051630ae161cd60e21b8152600481018790526001600160a01b0384169250632b8587349150602401600060405180830381600087803b158015610cee57600080fd5b505af1158015610d02573d6000803e3d6000fd5b506001979650505050505050565b6000805460405163046b1ab560e31b8152600481018590526001600160a01b03848116602483015290911690632358d5a8906044015b602060405180830381865afa158015610d63573d6000803e3d6000fd5b505050506040513d601f19601f82011682018060405250810190610d8791906154a2565b9392505050565b600080546040516323f2a73f60e01b8152600481018590526001600160a01b038481166024830152909116906323f2a73f90604401610d46565b600954604051638a6cac3d60e01b81526004810183905260009182916001600160a01b0390911690638a6cac3d9060240160c060405180830381865afa158015610e16573d6000803e3d6000fd5b505050506040513d601f19601f82011682018060405250810190610e3a91906154d8565b505093505050915081158015610e4d5750805b610e995760405162461bcd60e51b815260206004820152601960248201527f6d61726b657420636f6e646974696f6e73206e6f74206d6574000000000000006044820152606401610abd565b610ea283611d67565b610f025760405162461bcd60e51b815260206004820152602b60248201527f6e6f7420656e6f7567682076616c696461746f7273206861766520766f74656460448201526a20746f207265736f6c766560a81b6064820152608401610abd565b6000838152600660209081526040808320548352600590915290819020549051630ae161cd60e21b8152600481018590526001600160a01b0390911690632b85873490602401600060405180830381600087803b158015610f6257600080fd5b505af1158015610f76573d6000803e3d6000fd5b50505050505050565b60008054604051632f8899f360e01b8152600481018490526001600160a01b0390911690632f8899f390602401610bf2565b60095460405163eb44fdd360e01b81526004810183905260009182918291829182916001600160a01b03169063eb44fdd390602401600060405180830381865afa158015611003573d6000803e3d6000fd5b505050506040513d6000823e601f3d908101601f1916820160405261102b91908101906155d1565b9050600061103887612094565b905060006110458861203a565b6001600160a01b0316639ec4d40e896040518263ffffffff1660e01b815260040161107291815260200190565b600060405180830381865afa15801561108f573d6000803e3d6000fd5b505050506040513d6000823e601f3d908101601f191682016040526110b79190810190615702565b82519750905061114c6110c98961203a565b6001600160a01b03166301e1d1146040518163ffffffff1660e01b8152600401602060405180830381865afa158015611106573d6000803e3d6000fd5b505050506040513d601f19601f8201168201806040525081019061112a91906154bf565b61113590600161583d565b835160208501516111469190615850565b9061456e565b9550806101a00151604001519450806101a0015160800151935080602001516113585781516000908190156112e65773__$7f722a1af7b4060aab6915c87e2e2208cb$__63018b03518560000151600088600001516001600160a01b0316636e2f7ad36040518163ffffffff1660e01b8152600401602060405180830381865afa1580156111de573d6000803e3d6000fd5b505050506040513d601f19601f8201168201806040525081019061120291906154bf565b89600001516001600160a01b0316634df7e3d06040518163ffffffff1660e01b8152600401602060405180830381865afa158015611244573d6000803e3d6000fd5b505050506040513d601f19601f8201168201806040525081019061126891906154bf565b6040516001600160e01b031960e087901b16815260048101949094526024840192909252604483015260648201526001608482015260a4016040805180830381865af41580156112bc573d6000803e3d6000fd5b505050506040513d601f19601f820116820180604052508101906112e09190615863565b90925090505b835160c08401516000916112f991615850565b8385608001516113099190615850565b6113139190615850565b90506000856020015111611328576000611350565b845160c0850151611350919061133f90600161583d565b6113499190615850565b829061456e565b975090955050505b5050509193509193565b6000805460405163037bc93b60e41b8152600481018490526001600160a01b03909116906337bc93b090602401610bf2565b600054604051630e2e918560e21b81526001600160a01b03909116906338ba4614906113c69085908590600401615887565b600060405180830381600087803b1580156113e057600080fd5b505af11580156113f4573d6000803e3d6000fd5b505050505050565b6009546001600160a01b031633148061141f5750600d546001600160a01b031633145b8061143457506008546001600160a01b031633145b6114505760405162461bcd60e51b8152600401610abd906158a0565b600a80546001600160a01b0319166001600160a01b0392909216919091179055565b600054604051633ec8dc3b60e01b8152600481018390526060916001600160a01b031690633ec8dc3b90602401600060405180830381865afa1580156114bc573d6000803e3d6000fd5b505050506040513d6000823e601f3d908101601f19168201604052610bbd91908101906158c2565b60095460405163661f1cf560e01b81526004810184905260009182916001600160a01b039091169063661f1cf590602401602060405180830381865afa158015611532573d6000803e3d6000fd5b505050506040513d601f19601f8201168201806040525081019061155691906154bf565b905060006115638561203a565b6001600160a01b0316639ec4d40e866040518263ffffffff1660e01b815260040161159091815260200190565b600060405180830381865afa1580156115ad573d6000803e3d6000fd5b505050506040513d6000823e601f3d908101601f191682016040526115d59190810190615702565b60c00151905061161082826115f26729a2241af62c000083614583565b6115fc919061583d565b6116069190615850565b6111468387614583565b95945050505050565b6009546001600160a01b031633148061163c5750600d546001600160a01b031633145b8061165157506008546001600160a01b031633145b61166d5760405162461bcd60e51b8152600401610abd906158a0565b600080546001600160a01b0319166001600160a01b0392909216919091179055565b6009546001600160a01b03163314806116b25750600d546001600160a01b031633145b806116c757506008546001600160a01b031633145b6116e35760405162461bcd60e51b8152600401610abd906158a0565b600b80546001600160a01b0319166001600160a01b0392909216919091179055565b6007602052816000526040600020818154811061172157600080fd5b90600052602060002001600091509150505481565b806117418133610d8e565b8061175657506008546001600160a01b031633145b61178b5760405162461bcd60e51b8152600401610abd906020808252600490820152630855985b60e21b604082015260600190565b600082815260066020908152604080832054835260059091529081902054905163d746d3ef60e01b8152600481018490526001600160a01b039091169063d746d3ef90602401600060405180830381600087803b1580156117eb57600080fd5b505af11580156117ff573d6000803e3d6000fd5b5050505061180c82614598565b600954604051634cb4408760e01b8152600481018490526001600160a01b0390911690634cb4408790602401600060405180830381600087803b15801561185257600080fd5b505af1158015611866573d6000803e3d6000fd5b50506040518492507f38274fdcd6150638fa33375a76a55bc5b507aa04639aef21fcf7a1bf0b9c095d9150600090a25050565b6009546001600160a01b03163314806118bc5750600d546001600160a01b031633145b806118d157506008546001600160a01b031633145b6118ed5760405162461bcd60e51b8152600401610abd906158a0565b600e80546001600160a01b0319166001600160a01b0383811691821790925560095460405163280032e960e11b815260048101929092529091169063500065d290602401600060405180830381600087803b15801561194b57600080fd5b505af115801561195f573d6000803e3d6000fd5b5050600c5460405163280032e960e11b81526001600160a01b038581166004830152909116925063500065d29150602401600060405180830381600087803b1580156119aa57600080fd5b505af11580156119be573d6000803e3d6000fd5b5050600d5460405163280032e960e11b81526001600160a01b038581166004830152909116925063500065d291506024015b600060405180830381600087803b158015611a0a57600080fd5b505af1158015611a1e573d6000803e3d6000fd5b5050505050565b6009546001600160a01b0316331480611a485750600d546001600160a01b031633145b80611a5d57506008546001600160a01b031633145b611a795760405162461bcd60e51b8152600401610abd906158a0565b6009546001600160a01b0316611ab75760405162461bcd60e51b8152602060048201526003602482015262306d6d60e81b6044820152606401610abd565b600c80546001600160a01b0319166001600160a01b038381169182179092556009546040516315aa0dfd60e21b81526004810192909252909116906356a837f4906024016119f0565b80611b0b8133610d8e565b80611b2057506008546001600160a01b031633145b611b555760405162461bcd60e51b8152600401610abd906020808252600490820152630855985b60e21b604082015260600190565b6000828152600660209081526040808320548352600590915280822054905163709a664160e11b8152600481018590528291829182916001600160a01b03169063e134cc82906024016080604051808303816000875af1158015611bbd573d6000803e3d6000fd5b505050506040513d601f19601f82011682018060405250810190611be1919061595b565b9350935093509350611bf68685858585614650565b60008054878252600160208190526040928390200154915163665293b360e11b8152600481018990526024810192909252604482018490526001600160a01b03169063cca5276690606401600060405180830381600087803b158015611c5b57600080fd5b505af1158015611c6f573d6000803e3d6000fd5b50505050611c7c86614598565b60408051851515815260208101859052908101839052811515606082015286907f77220ccc88401eef4453630e1f9b709ab45bd7912e6599a260abd10a84ac3ed2906080015b60405180910390a2505050505050565b6008546001600160a01b03163314611d145760405162461bcd60e51b8152602060048201526005602482015264042c2eae8d60db1b6044820152606401610abd565b600e805460ff60a01b198116600160a01b9182900460ff1615909102179055565b60008054604051632015e62b60e21b8152600481018490526001600160a01b039091169063805798ac90602401610bf2565b600080546040516320786c1f60e21b8152600481018490526001600160a01b03909116906381e1b07c90602401610b7c565b6009546000906001600160a01b0316331480611dbf5750600d546001600160a01b031633145b80611dd457506008546001600160a01b031633145b611df05760405162461bcd60e51b8152600401610abd906158a0565b600054604051634187150160e11b8152600481018590526001600160a01b0384811660248301529091169063830e2a02906044016020604051808303816000875af1158015611e43573d6000803e3d6000fd5b505050506040513d601f19601f82011682018060405250810190610d8791906154bf565b600080546040516343af243f60e11b8152600481018490526001600160a01b039091169063875e487e90602401610bf2565b600054604051636172cd6760e01b8152600481018390523360248201526001600160a01b0390911690636172cd67906044016119f0565b6009546001600160a01b0316331480611ef35750600d546001600160a01b031633145b80611f0857506008546001600160a01b031633145b611f245760405162461bcd60e51b8152600401610abd906158a0565b600054604051638f5709a560e01b8152600481018490526001600160a01b03838116602483015290911690638f5709a5906044016113c6565b60095460405163054d50b360e21b8152600481018390526000916001600160a01b03169063153542cc90602401602060405180830381865afa158015611fa7573d6000803e3d6000fd5b505050506040513d601f19601f82011682018060405250810190611fcb91906159a7565b6001600160a01b03166318160ddd6040518163ffffffff1660e01b8152600401602060405180830381865afa158015610c0f573d6000803e3d6000fd5b6000805460405163937b6feb60e01b8152600481018490526001600160a01b039091169063937b6feb90602401610bf2565b600090815260066020908152604080832054835260059091529020546001600160a01b031690565b6000805460405163a40c63f760e01b8152600481018490526001600160a01b039091169063a40c63f790602401610bf2565b6120b860405180606001604052806000815260200160008152602001600081525090565b506000908152600160208181526040928390208351606081018552815481529281015491830191909152600201549181019190915290565b60005460405163f23566b560e01b8152600481018390523360248201526001600160a01b039091169063f23566b5906044016119f0565b60008181526007602090815260409182902080548351818402810184019094528084526060939283018282801561217d57602002820191906000526020600020905b815481526020019060010190808311612169575b50505050509050919050565b6008546001600160a01b031633146121cc5760405162461bcd60e51b815260206004820152600660248201526510b7bbb732b960d11b6044820152606401610abd565b6121d58161222d565b6122215760405162461bcd60e51b815260206004820152601860248201527f6d61726b657420636f6e646974696f6e206e6f74206d657400000000000000006044820152606401610abd565b61222a81612b29565b50565b60095460405163b1283e7760e01b81526004810183905260009182916001600160a01b039091169063b1283e7790602401600060405180830381865afa15801561227b573d6000803e3d6000fd5b505050506040513d6000823e601f3d908101601f191682016040526122a391908101906159c4565b965050505050505080156123a8576122ba8361203a565b6001600160a01b0316639ec4d40e846040518263ffffffff1660e01b81526004016122e791815260200190565b600060405180830381865afa158015612304573d6000803e3d6000fd5b505050506040513d6000823e601f3d908101601f1916820160405261232c9190810190615702565b6101a001515160095460405163661f1cf560e01b8152600481018690526001600160a01b039091169063661f1cf590602401602060405180830381865afa15801561237b573d6000803e3d6000fd5b505050506040513d601f19601f8201168201806040525081019061239f91906154bf565b10159392505050565b60006123b38461203a565b6001600160a01b0316639ec4d40e856040518263ffffffff1660e01b81526004016123e091815260200190565b600060405180830381865afa1580156123fd573d6000803e3d6000fd5b505050506040513d6000823e601f3d908101601f191682016040526124259190810190615702565b60c00151604080518082018252600f81526e36b0b935b2ba31b7b73234ba34b7b760891b6020820152600954915163661f1cf560e01b8152600481018890529293506125419290916001600160a01b03169063661f1cf590602401602060405180830381865afa15801561249d573d6000803e3d6000fd5b505050506040513d601f19601f820116820180604052508101906124c191906154bf565b60095460405163c6ceb96b60e01b81526004810189905261253c916001600160a01b03169063c6ceb96b9060240161010060405180830381865afa15801561250d573d6000803e3d6000fd5b505050506040513d601f19601f820116820180604052508101906125319190615a63565b604001518590614583565b614950565b60095460405163c6ceb96b60e01b8152600481018690526125bc916001600160a01b03169063c6ceb96b9060240161010060405180830381865afa15801561258d573d6000803e3d6000fd5b505050506040513d601f19601f820116820180604052508101906125b19190615a63565b604001518290614583565b60095460405163661f1cf560e01b8152600481018790526001600160a01b039091169063661f1cf590602401602060405180830381865afa158015612605573d6000803e3d6000fd5b505050506040513d601f19601f8201168201806040525081019061262991906154bf565b1015949350505050565b6000818152600660209081526040808320548352600590915290819020549051630ae161cd60e21b8152600481018390526001600160a01b0390911690632b85873490602401600060405180830381600087803b15801561269357600080fd5b505af11580156126a7573d6000803e3d6000fd5b5050506000828152600660209081526040808320548352600590915280822054905163709a664160e11b8152600481018590529192508291829182916001600160a01b039091169063e134cc82906024016080604051808303816000875af1158015612717573d6000803e3d6000fd5b505050506040513d601f19601f8201168201806040525081019061273b919061595b565b93509350935093506127508585858585614650565b60008054868252600160208190526040928390200154915163665293b360e11b8152600481018890526024810192909252604482018490526001600160a01b03169063cca5276690606401600060405180830381600087803b1580156127b557600080fd5b505af11580156127c9573d6000803e3d6000fd5b505050506127d685614598565b60408051851515815260208101859052908101839052811515606082015285907f77220ccc88401eef4453630e1f9b709ab45bd7912e6599a260abd10a84ac3ed29060800160405180910390a25050505050565b60008060008060006007600087815260200190815260200160002080548060200260200160405190810160405280929190818152602001828054801561288f57602002820191906000526020600020905b81548152602001906001019080831161287b575b5050505050905060005b8151811015612995576000806128c78484815181106128ba576128ba615af2565b6020026020010151610fb1565b5090935091506128d990508282614583565b6128e3908861583d565b60095485519198506001600160a01b03169063661f1cf59086908690811061290d5761290d615af2565b60200260200101516040518263ffffffff1660e01b815260040161293391815260200190565b602060405180830381865afa158015612950573d6000803e3d6000fd5b505050506040513d601f19601f8201168201806040525081019061297491906154bf565b61297e908961583d565b97505050808061298d90615b08565b915050612899565b506000868152600560209081526040918290205482516336190e4560e11b815292516001600160a01b0390911692670c7d713b49da00009283928592636c321c8a9260048083019391928290030181865afa1580156129f8573d6000803e3d6000fd5b505050506040513d601f19601f82011682018060405250810190612a1c91906154bf565b11612aa957612aa286612a9c846001600160a01b0316636c321c8a6040518163ffffffff1660e01b8152600401602060405180830381865afa158015612a66573d6000803e3d6000fd5b505050506040513d601f19601f82011682018060405250810190612a8a91906154bf565b612a9590600161583d565b849061456e565b90614583565b9450612aad565b8594505b60405163ef8b30f760e01b8152670de0b6b3a764000060048201526001600160a01b0383169063ef8b30f790602401602060405180830381865afa158015612af9573d6000803e3d6000fd5b505050506040513d601f19601f82011682018060405250810190612b1d91906154bf565b93505050509193509193565b6000546001600160a01b0316331480612b4c57506008546001600160a01b031633145b612b855760405162461bcd60e51b815260206004820152600a60248201526910bb30b634b230ba37b960b11b6044820152606401610abd565b6000818152600660209081526040808320548352600590915280822054600954915163068bcd8d60e01b8152600481018590526001600160a01b039182169392919091169063068bcd8d90602401602060405180830381865afa158015612bf0573d6000803e3d6000fd5b505050506040513d601f19601f82011682018060405250810190612c1491906159a7565b600954604051634bee760b60e11b8152600481018690529192506001600160a01b0316906397dcec1690602401602060405180830381865afa158015612c5e573d6000803e3d6000fd5b505050506040513d601f19601f82011682018060405250810190612c8291906154bf565b600314612cc45760405162461bcd60e51b815260206004820152601060248201526f10b6b0b935b2ba21b7b73234ba34b7b760811b6044820152606401610abd565b60405163238f0e7560e11b8152600481018490526001600160a01b0383169063471e1cea90602401602060405180830381865afa158015612d09573d6000803e3d6000fd5b505050506040513d601f19601f82011682018060405250810190612d2d91906154a2565b612d705760405162461bcd60e51b815260206004820152601460248201527310b4b739ba393ab6b2b73a21b7b73234ba34b7b760611b6044820152606401610abd565b60095460405163cabe2ae160e01b8152600481018590526001600160a01b039091169063cabe2ae190602401600060405180830381600087803b158015612db657600080fd5b505af1158015612dca573d6000803e3d6000fd5b505060095460405163b1283e7760e01b815260048101879052600093506001600160a01b03909116915063b1283e7790602401600060405180830381865afa158015612e1a573d6000803e3d6000fd5b505050506040513d6000823e601f3d908101601f19168201604052612e4291908101906159c4565b60095460405163661f1cf560e01b8152600481018d9052919850600097506001600160a01b0316955063661f1cf594506024019250612e7f915050565b602060405180830381865afa158015612e9c573d6000803e3d6000fd5b505050506040513d601f19601f82011682018060405250810190612ec091906154bf565b604051634b7e8e2160e11b8152306004820152602481018290529091506001600160a01b038416906396fd1c4290604401600060405180830381600087803b158015612f0b57600080fd5b505af1158015612f1f573d6000803e3d6000fd5b50506040516376da9e9f60e11b815260048101889052600092506001600160a01b038716915063edb53d3e90602401602060405180830381865afa158015612f6b573d6000803e3d6000fd5b505050506040513d601f19601f82011682018060405250810190612f8f91906159a7565b9050846001600160a01b031663c5d664c66040518163ffffffff1660e01b8152600401602060405180830381865afa158015612fcf573d6000803e3d6000fd5b505050506040513d601f19601f82011682018060405250810190612ff391906159a7565b60405163095ea7b360e01b81526001600160a01b03838116600483015260248201859052919091169063095ea7b3906044016020604051808303816000875af1158015613044573d6000803e3d6000fd5b505050506040513d601f19601f8201168201806040525081019061306891906154a2565b5082156132745760095460405163054d50b360e21b8152600481018890526131ba9188916001600160a01b039091169063153542cc90602401602060405180830381865afa1580156130be573d6000803e3d6000fd5b505050506040513d601f19601f820116820180604052508101906130e291906159a7565b6001600160a01b03166318160ddd6040518163ffffffff1660e01b8152600401602060405180830381865afa15801561311f573d6000803e3d6000fd5b505050506040513d601f19601f8201168201806040525081019061314391906154bf565b604051634f626a0760e11b8152600481018a90526001600160a01b03891690639ec4d40e90602401600060405180830381865afa158015613188573d6000803e3d6000fd5b505050506040513d6000823e601f3d908101601f191682016040526131b09190810190615702565b6101a0015161499c565b604051636e553f6560e01b8152600481018390526001600160a01b03868116602483015260009190831690636e553f65906044016020604051808303816000875af115801561320d573d6000803e3d6000fd5b505050506040513d601f19601f8201168201806040525081019061323191906154bf565b1161326f5760405162461bcd60e51b815260206004820152600e60248201526d11115413d4d25517d1905253115160921b6044820152606401610abd565b6133d5565b6040516303d972f160e21b8152600481018790526001600160a01b03861690630f65cbc490602401602060405180830381865afa1580156132b9573d6000803e3d6000fd5b505050506040513d601f19601f820116820180604052508101906132dd91906154bf565b6000036132f3576132ee8685614a51565b6132fc565b6132fc86614c9c565b846001600160a01b031663c5d664c66040518163ffffffff1660e01b8152600401602060405180830381865afa15801561333a573d6000803e3d6000fd5b505050506040513d601f19601f8201168201806040525081019061335e91906159a7565b60405163a9059cbb60e01b81526001600160a01b03838116600483015260248201859052919091169063a9059cbb906044016020604051808303816000875af11580156133af573d6000803e3d6000fd5b505050506040513d601f19601f820116820180604052508101906133d391906154a2565b505b6000868152600160208190526040918290208481559151624e1afd60e81b81526004810189905260248101859052908201546044820152600290910154606482015283151560848201526001600160a01b03861690634e1afd009060a401600060405180830381600087803b15801561344d57600080fd5b505af1158015613461573d6000803e3d6000fd5b50505050836001600160a01b0316638d01450f6040518163ffffffff1660e01b8152600401600060405180830381600087803b1580156134a057600080fd5b505af11580156134b4573d6000803e3d6000fd5b5050506000878152600160205260409081902090518892507fa5a0c282064b5581aa97f2fdef075816b806dd6394a5eaaf1831ec95a1f79d5791611cc291615b21565b600080546040516317c2ad2760e21b815260048101849052336024820152829182916001600160a01b0390911690635f0ab49c9060440160408051808303816000875af115801561354c573d6000803e3d6000fd5b505050506040513d601f19601f820116820180604052508101906135709190615863565b60095460405163334b11d360e11b81526004810188905260248101849052604481018390523360648201529294509092506001600160a01b03169063669623a690608401600060405180830381600087803b1580156135ce57600080fd5b505af11580156135e2573d6000803e3d6000fd5b505050506135ef84610b4e565b1561365c576135fd84612b29565b60095460405163cabe2ae160e01b8152600481018690526001600160a01b039091169063cabe2ae190602401600060405180830381600087803b15801561364357600080fd5b505af1158015613657573d6000803e3d6000fd5b505050505b5092915050565b60008054604051633519918760e21b8152600481018490526001600160a01b039091169063d466461c90602401610bf2565b60008054604051633597b25960e21b8152600481018490526001600160a01b039091169063d65ec96490602401610bf2565b6009546001600160a01b03163314806136ea5750600d546001600160a01b031633145b806136ff57506008546001600160a01b031633145b61371b5760405162461bcd60e51b8152600401610abd906158a0565b6001600160a01b03811661372e57600080fd5b600980546001600160a01b0319166001600160a01b0392909216919091179055565b6009546001600160a01b03163314806137735750600d546001600160a01b031633145b8061378857506008546001600160a01b031633145b6137a45760405162461bcd60e51b8152600401610abd906158a0565b6137ad8261203a565b604051633c16f3ed60e21b8152600481018390523360248201526001600160a01b03919091169063f05bcfb4906044016113c6565b600a5460405160009182916001600160a01b0390911690631fe84c5b908c90309061381b908e908e908e908e908d908d90602001615b42565b604051602081830303815290604052896040518563ffffffff1660e01b815260040161384a9493929190615c09565b60408051808303816000875af1158015613868573d6000803e3d6000fd5b505050506040513d601f19601f8201168201806040525081019061388c9190615c46565b6000818152600560205260409081902080546001600160a01b0319166001600160a01b0385169081179091559051929450909250907f7ecb7591c061739d6ccd6a6299e0adf7d3447c390b9321530e0a400f7c65d1b7906138fa9084908e908e908e908e908e908e90615c74565b60405180910390a250505050505050505050565b600c54604051637453c01360e11b81526001600160a01b03848116600483015260248201849052600092169063e8a7802690604401610d46565b6001600160a01b03831661398a5760405162461bcd60e51b815260206004820152600960248201526830b2323932b9b9982960b91b6044820152606401610abd565b6101408201516001600160a01b03166139d15760405162461bcd60e51b815260206004820152600960248201526861646472657373304960b81b6044820152606401610abd565b6000818152600560205260409020546001600160a01b0316613a215760405162461bcd60e51b815260206004820152600960248201526830b2323932b9b9982b60b91b6044820152606401610abd565b600081815260056020908152604080832054600954825163764bc84160e11b815292516001600160a01b039283169594919092169263ec97908292600480830193928290030181865afa158015613a7c573d6000803e3d6000fd5b505050506040513d601f19601f82011682018060405250810190613aa091906154bf565b60008181526006602090815260408083208790558683526007825280832080546001818101835591855283852001859055815180830183526101408a01516001600160a01b0390811682528b8116828601908152878752600390955294839020905181549086166001600160a01b031991821617825593519101805491851691909316179091556009548151637572cb1f60e01b81529151939450821692634e042a5992861691637572cb1f916004808301926101009291908290030181865afa158015613b72573d6000803e3d6000fd5b505050506040513d601f19601f82011682018060405250810190613b969190615a63565b846001600160a01b0316636c321c8a6040518163ffffffff1660e01b8152600401602060405180830381865afa158015613bd4573d6000803e3d6000fd5b505050506040513d601f19601f82011682018060405250810190613bf891906154bf565b846040518463ffffffff1660e01b8152600401613c1793929190615cc1565b600060405180830381600087803b158015613c3157600080fd5b505af1158015613c45573d6000803e3d6000fd5b5050600b5460008681526005602090815260408083205481516362eb326360e11b8152915193965086955085946001600160a01b039081169463981f513694919092169263c5d664c692600480830193928290030181865afa158015613caf573d6000803e3d6000fd5b505050506040513d601f19601f82011682018060405250810190613cd391906159a7565b60095460405160e084901b6001600160e01b03191681526001600160a01b039283166004820152911660248201526044016060604051808303816000875af1158015613d23573d6000803e3d6000fd5b505050506040513d601f19601f82011682018060405250810190613d479190615ce3565b92509250925086602001511561400d57670de0b6b3a7640000876101a001516020015111158015613d8657506101a08701516080810151602090910151105b613dbe5760405162461bcd60e51b8152602060048201526009602482015268282924a1a29022a92960b91b6044820152606401610abd565b6000876101a001516040015111613e045760405162461bcd60e51b815260206004820152600a6024820152692922aa2aa9271022a92960b11b6044820152606401610abd565b6101a08701805142606090910152518051602082015160809092015160095460405163c6ceb96b60e01b8152600481018990526001600160a01b03868116956334327d8b95949093909291169063c6ceb96b9060240161010060405180830381865afa158015613e78573d6000803e3d6000fd5b505050506040513d601f19601f82011682018060405250810190613e9c9190615a63565b602001516040516001600160e01b031960e087901b16815260048101949094526024840192909252604483015260648201526084016020604051808303816000875af1158015613ef0573d6000803e3d6000fd5b505050506040513d601f19601f82011682018060405250810190613f1491906154bf565b6101a088015160c0015260095461012088015160405163080ec90d60e21b81526001600160a01b039092169163203b243491613f5d918891869189918991600190600401615d30565b600060405180830381600087803b158015613f7757600080fd5b505af1158015613f8b573d6000803e3d6000fd5b50506000546101a08a01515160208b0151604051639c84342360e01b8152600481018a90526024810192909252151560448201526001600160a01b039091169250639c8434239150606401600060405180830381600087803b158015613ff057600080fd5b505af1158015614004573d6000803e3d6000fd5b505050506141fa565b60095460405163c6ceb96b60e01b8152600481018690526000916001600160a01b03169063c6ceb96b9060240161010060405180830381865afa158015614058573d6000803e3d6000fd5b505050506040513d601f19601f8201168201806040525081019061407c9190615a63565b60c089015160e08a015160208301516040808501516080860151915163ac4bc1cb60e01b8152600481019590955260248501939093526044840191909152606483019190915260848201529091506001600160a01b0383169063ac4bc1cb9060a401600060405180830381600087803b1580156140f857600080fd5b505af115801561410c573d6000803e3d6000fd5b50506009546101208b015160405163080ec90d60e21b81526001600160a01b03909216935063203b2434925061414f91899187918a918a91600090600401615d30565b600060405180830381600087803b15801561416957600080fd5b505af115801561417d573d6000803e3d6000fd5b505060005460c08b015160208c0151604051639c84342360e01b8152600481018b90526024810192909252151560448201526001600160a01b039091169250639c8434239150606401600060405180830381600087803b1580156141e057600080fd5b505af11580156141f4573d6000803e3d6000fd5b50505050505b60a087018490526040516398d796e760e01b81526001600160a01b038616906398d796e79061422d908a90600401615ec2565b600060405180830381600087803b15801561424757600080fd5b505af115801561425b573d6000803e3d6000fd5b505050600087815260056020526040908190205490516001600160a01b038b811693509091169086907fc276e8dd3cf2547c0646ef7093b7ef8fb4edc8fde6df7574f8757ca3336e940f906142b7908690899089908f90615ed5565b60405180910390a45050506001600160a01b03909416600090815260046020526040902093909355505050565b600080546040516375ea6e2360e11b8152600481018490526001600160a01b039091169063ebd4dc4690602401610bf2565b6009546001600160a01b03163314806143395750600d546001600160a01b031633145b8061434e57506008546001600160a01b031633145b61436a5760405162461bcd60e51b8152600401610abd906158a0565b6000818152600660209081526040808320548352600590915290819020549051633c16f3ed60e21b8152600481018590526001600160a01b0384811660248301529091169063f05bcfb490604401600060405180830381600087803b1580156143d257600080fd5b505af11580156143e6573d6000803e3d6000fd5b5050604080518681526001600160a01b03861660208201528493507f23eee7127e8ffafe0ff607129c8dc9492da94a3ee89d9690587399ac0e4e644f92500160405180910390a2505050565b6009546001600160a01b03163314806144555750600d546001600160a01b031633145b8061446a57506008546001600160a01b031633145b6144865760405162461bcd60e51b8152600401610abd906158a0565b600d80546001600160a01b0319166001600160a01b03838116918217909255600954604051631e60984f60e31b815260048101929092529091169063f304c278906024016119f0565b6008546001600160a01b031633146145115760405162461bcd60e51b8152602060048201526005602482015264042c2eae8d60db1b6044820152606401610abd565b6001600160a01b0381811660008181526002602052604090819020805460ff19166001179055600c549051630622fd1760e01b81526004810192909252670de0b6b3a7640000602483015290911690630622fd17906044016119f0565b6000610d8783670de0b6b3a764000084614d67565b6000610d878383670de0b6b3a7640000614d67565b60095460405163068bcd8d60e01b8152600481018390526001600160a01b039091169063068bcd8d90602401602060405180830381865afa1580156145e1573d6000803e3d6000fd5b505050506040513d601f19601f8201168201806040525081019061460591906159a7565b6001600160a01b03166396fd1c4261461c8361203a565b6040516001600160e01b031960e084901b1681526001600160a01b03909116600482015260001960248201526044016119f0565b831561466457821561466457614664615f13565b60095460405163054d50b360e21b8152600481018790526000916001600160a01b03169063153542cc90602401602060405180830381865afa1580156146ae573d6000803e3d6000fd5b505050506040513d601f19601f820116820180604052508101906146d291906159a7565b6001600160a01b03166318160ddd6040518163ffffffff1660e01b8152600401602060405180830381865afa15801561470f573d6000803e3d6000fd5b505050506040513d601f19601f8201168201806040525081019061473391906154bf565b90506000808511614745576000614813565b60095460405163920f4e5560e01b8152600481018990526001600160a01b039091169063920f4e5590602401602060405180830381865afa15801561478e573d6000803e3d6000fd5b505050506040513d601f19601f820116820180604052508101906147b291906159a7565b6001600160a01b03166318160ddd6040518163ffffffff1660e01b8152600401602060405180830381865afa1580156147ef573d6000803e3d6000fd5b505050506040513d601f19601f8201168201806040525081019061481391906154bf565b905060008380156148245750600086115b1561483a5761483388876114e4565b90506148d2565b6148686040518060400160405280600b81526020016a07570646174696e672072760ac1b8152508787614950565b866148935761488161487a838561583d565b879061456e565b61483390670de0b6b3a764000061583d565b61489d858461456e565b670de0b6b3a7640000116148b3575060006148d2565b6148bd858461456e565b6148cf90670de0b6b3a7640000615850565b90505b6009546040516361fa5af560e01b8152600481018a9052881515602482015285156044820152606481018390526001600160a01b03909116906361fa5af590608401600060405180830381600087803b15801561492e57600080fd5b505af1158015614942573d6000803e3d6000fd5b505050505050505050505050565b61499783838360405160240161496893929190615f29565b60408051601f198184030181529190526020810180516001600160e01b031663969cdd0360e01b179052614d85565b505050565b60008160a00151116149df5760405162461bcd60e51b815260206004820152600c60248201526b18102622ab2fa320a1aa27a960a11b6044820152606401610abd565b604051806060016040528060008152602001614a1b8360800151612a9c8560a00151670de0b6b3a7640000614a14919061583d565b8790614583565b81526000602091820181905294855260018082526040958690208351815591830151908201559301516002909301929092555050565b600082815260066020908152604080832054835260059091528082205490516318353be960e21b81526004810185905282916001600160a01b0316906360d4efa4906024016040805180830381865afa158015614ab2573d6000803e3d6000fd5b505050506040513d601f19601f82011682018060405250810190614ad69190615863565b60095460405163661f1cf560e01b815260048101889052929450909250600091614bde91614bd8916001600160a01b039091169063661f1cf590602401602060405180830381865afa158015614b30573d6000803e3d6000fd5b505050506040513d601f19601f82011682018060405250810190614b5491906154bf565b60095460405163c6ceb96b60e01b8152600481018a9052670de0b6b3a7640000916001600160a01b03169063c6ceb96b9060240161010060405180830381865afa158015614ba6573d6000803e3d6000fd5b505050506040513d601f19601f82011682018060405250810190614bca9190615a63565b60c00151612a9c919061583d565b84614da6565b90506000614c54856001600160a01b03166314e2b929846040518263ffffffff1660e01b8152600401614c1391815260200190565b602060405180830381865afa158015614c30573d6000803e3d6000fd5b505050506040513d601f19601f82011682018060405250810190614bd891906154bf565b60408051606081018252600080825260208083019687528284019485529981526001998a90529190912090518155925196830196909655509351600290940193909355505050565b600081815260066020908152604080832054835260059091528082205490516318353be960e21b81526004810184905282916001600160a01b0316906360d4efa4906024016040805180830381865afa158015614cfd573d6000803e3d6000fd5b505050506040513d601f19601f82011682018060405250810190614d219190615863565b6040805160608101825260008082526020808301958652828401948552978152600197889052919091209051815591519482019490945592516002909301929092555050565b6000826000190484118302158202614d7e57600080fd5b5091020490565b80516a636f6e736f6c652e6c6f67602083016000808483855afa5050505050565b600081831115614db65781610d87565b5090919050565b600060208284031215614dcf57600080fd5b5035919050565b6001600160a01b038116811461222a57600080fd5b8035614df681614dd6565b919050565b600060208284031215614e0d57600080fd5b8135610d8781614dd6565b801515811461222a57600080fd5b8035614df681614e18565b60008060408385031215614e4457600080fd5b823591506020830135614e5681614e18565b809150509250929050565b60008060408385031215614e7457600080fd5b823591506020830135614e5681614dd6565b634e487b7160e01b600052604160045260246000fd5b60405161010081016001600160401b0381118282101715614ebf57614ebf614e86565b60405290565b60405160e081016001600160401b0381118282101715614ebf57614ebf614e86565b6040516101c081016001600160401b0381118282101715614ebf57614ebf614e86565b604051601f8201601f191681016001600160401b0381118282101715614f3257614f32614e86565b604052919050565b60006001600160401b03821115614f5357614f53614e86565b5060051b60200190565b60008060408385031215614f7057600080fd5b823591506020808401356001600160401b03811115614f8e57600080fd5b8401601f81018613614f9f57600080fd5b8035614fb2614fad82614f3a565b614f0a565b81815260059190911b82018301908381019088831115614fd157600080fd5b928401925b82841015614fef57833582529284019290840190614fd6565b80955050505050509250929050565b6020808252825182820181905260009190848201906040850190845b8181101561503f5783516001600160a01b03168352928401929184019160010161501a565b50909695505050505050565b6000806040838503121561505e57600080fd5b50508035926020909101359150565b600081518084526020808501945080840160005b8381101561509d57815187529582019590820190600101615081565b509495945050505050565b602081526000610d87602083018461506d565b60008083601f8401126150cd57600080fd5b5081356001600160401b038111156150e457600080fd5b6020830191508360208285010111156150fc57600080fd5b9250929050565b600080600080600080600080888a036101c081121561512157600080fd5b893561512c81614dd6565b985060208a013561513c81614e18565b975060408a0135965060608a0135955060808a01359450610100609f19820181131561516757600080fd5b61516f614e9c565b915060a08b0135825260c08b0135602083015260e08b01356040830152808b01356060830152506101208a013560808201526101408a013560a08201526101608a013560c08201526101808a013560e0820152809350506101a08901356001600160401b038111156151e057600080fd5b6151ec8b828c016150bb565b999c989b5096995094979396929594505050565b6000806040838503121561521357600080fd5b823561521e81614dd6565b946020939093013593505050565b60006001600160401b0382111561524557615245614e86565b50601f01601f191660200190565b600082601f83011261526457600080fd5b8135615272614fad8261522c565b81815284602083860101111561528757600080fd5b816020850160208301376000918101602001919091529392505050565b6006811061222a57600080fd5b8035614df6816152a4565b600060e082840312156152ce57600080fd5b6152d6614ec5565b9050813581526020820135602082015260408201356040820152606082013560608201526080820135608082015260a082013560a082015260c082013560c082015292915050565b60008060006060848603121561533357600080fd5b833561533e81614dd6565b925060208401356001600160401b038082111561535a57600080fd5b90850190610280828803121561536f57600080fd5b615377614ee7565b8235815261538760208401614e26565b602082015261539860408401614e26565b6040820152606083013560608201526080830135608082015260a083013560a082015260c083013560c082015260e083013560e082015261010080840135818301525061012080840135838111156153ef57600080fd5b6153fb8a828701615253565b8284015250506101409150615411828401614deb565b8282015261016091506154258284016152b1565b82820152610180915081830135828201526101a09150615447888385016152bc565b82820152809450505050604084013590509250925092565b60008060006060848603121561547457600080fd5b83359250602084013561548681614dd6565b929592945050506040919091013590565b8051614df681614e18565b6000602082840312156154b457600080fd5b8151610d8781614e18565b6000602082840312156154d157600080fd5b5051919050565b60008060008060008060c087890312156154f157600080fd5b86516154fc81614e18565b602088015190965061550d81614e18565b604088015190955061551e81614e18565b606088015190945061552f81614e18565b608088015190935061554081614e18565b8092505060a087015190509295509295509295565b8051614df681614dd6565b60005b8381101561557b578181015183820152602001615563565b50506000910152565b600082601f83011261559557600080fd5b81516155a3614fad8261522c565b8181528460208386010111156155b857600080fd5b6155c9826020830160208701615560565b949350505050565b6000602082840312156155e357600080fd5b81516001600160401b03808211156155fa57600080fd5b9083019060e0828603121561560e57600080fd5b615616614ec5565b61561f83615555565b815261562d60208401615555565b602082015261563e60408401615555565b604082015260608301518281111561565557600080fd5b61566187828601615584565b6060830152506080830151608082015260a083015160a082015261568760c08401615497565b60c082015295945050505050565b8051614df6816152a4565b600060e082840312156156b257600080fd5b6156ba614ec5565b9050815181526020820151602082015260408201516040820152606082015160608201526080820151608082015260a082015160a082015260c082015160c082015292915050565b60006020828403121561571457600080fd5b81516001600160401b038082111561572b57600080fd5b90830190610280828603121561574057600080fd5b615748614ee7565b8251815261575860208401615497565b602082015261576960408401615497565b6040820152606083015160608201526080830151608082015260a083015160a082015260c083015160c082015260e083015160e082015261010080840151818301525061012080840151838111156157c057600080fd5b6157cc88828701615584565b82840152505061014091506157e2828401615555565b8282015261016091506157f6828401615695565b82820152610180915081830151828201526101a09150615818868385016156a0565b91810191909152949350505050565b634e487b7160e01b600052601160045260246000fd5b80820180821115610bbd57610bbd615827565b81810381811115610bbd57610bbd615827565b6000806040838503121561587657600080fd5b505080516020909101519092909150565b8281526040602082015260006155c9604083018461506d565b60208082526008908201526710b6b0b730b3b2b960c11b604082015260600190565b600060208083850312156158d557600080fd5b82516001600160401b038111156158eb57600080fd5b8301601f810185136158fc57600080fd5b805161590a614fad82614f3a565b81815260059190911b8201830190838101908783111561592957600080fd5b928401925b8284101561595057835161594181614dd6565b8252928401929084019061592e565b979650505050505050565b6000806000806080858703121561597157600080fd5b845161597c81614e18565b809450506020850151925060408501519150606085015161599c81614e18565b939692955090935050565b6000602082840312156159b957600080fd5b8151610d8781614dd6565b600080600080600080600060e0888a0312156159df57600080fd5b87516159ea81614dd6565b60208901519097506159fb81614dd6565b6040890151909650615a0c81614dd6565b60608901519095506001600160401b03811115615a2857600080fd5b615a348a828b01615584565b9450506080880151925060a0880151915060c0880151615a5381614e18565b8091505092959891949750929550565b6000610100808385031215615a7757600080fd5b604051908101906001600160401b0382118183101715615a9957615a99614e86565b81604052835181526020840151602082015260408401516040820152606084015160608201526080840151608082015260a084015160a082015260c084015160c082015260e084015160e0820152809250505092915050565b634e487b7160e01b600052603260045260246000fd5b600060018201615b1a57615b1a615827565b5060010190565b81548152600182015460208201526002820154604082015260608101610bbd565b861515815285602082015284604082015283606082015260a060808201528160a0820152818360c0830137600081830160c090810191909152601f909201601f1916010195945050505050565b60008151808452615ba7816020860160208601615560565b601f01601f19169290920160200192915050565b805182526020810151602083015260408101516040830152606081015160608301526080810151608083015260a081015160a083015260c081015160c083015260e081015160e08301525050565b6001600160a01b0385811682528416602082015261016060408201819052600090615c3683820186615b8f565b9150506116106060830184615bbb565b60008060408385031215615c5957600080fd5b8251615c6481614dd6565b6020939093015192949293505050565b8781526001600160a01b03871660208201528515156040820152606081018590526080810184905260a081018390526101c08101615cb560c0830184615bbb565b98975050505050505050565b6101408101615cd08286615bbb565b6101008201939093526101200152919050565b600080600060608486031215615cf857600080fd5b8351615d0381614dd6565b6020850151909350615d1481614dd6565b6040850151909250615d2581614dd6565b809150509250925092565b8681526001600160a01b03868116602083015285811660408301528416606082015260c060808201819052600090615d6a90830185615b8f565b905082151560a0830152979650505050505050565b60068110615d9d57634e487b7160e01b600052602160045260246000fd5b9052565b6000610280825184526020830151615dbd602086018215159052565b506040830151615dd1604086018215159052565b50606083015160608501526080830151608085015260a083015160a085015260c083015160c085015260e083015160e0850152610100808401518186015250610120808401518282870152615e2883870182615b8f565b9250505061014080840151615e47828701826001600160a01b03169052565b505061016080840151615e5c82870182615d7f565b505061018083810151908501526101a08084015180518287015260208101516101c087015260408101516101e08701526060810151610200870152608081015161022087015260a081015161024087015260c08101516102608701525090949350505050565b602081526000610d876020830184615da1565b6001600160a01b038581168252848116602083015283166040820152608060608201819052600090615f0990830184615da1565b9695505050505050565b634e487b7160e01b600052600160045260246000fd5b606081526000615f3c6060830186615b8f565b6020830194909452506040015291905056fea26469706673582212208ffc53ad2d058b3b86bed14d2fc79a2daf046745abb5d76d9ac62f9f159b5fc664736f6c63430008110033",
    "linkReferences": {
      "contracts/bonds/GBC.sol": {
        "LinearCurve": [
          {
            "start": 4688,
            "length": 20
          }
        ]
      }
    }
  },
  "methodIdentifiers": {
    "Data()": "4b6e7d78",
    "ad_to_id(address)": "7789ec5a",
    "approvalCondition(uint256)": "05a1ce99",
    "approveMarket(uint256)": "cabe2ae1",
    "beforeResolve(uint256)": "2b858734",
    "calcIncompleteReturns(uint256,uint256)": "40297812",
    "canSelfVerify()": "6fe2983b",
    "createVault(address,bool,uint256,uint256,uint256,(uint256,uint256,uint256,uint256,uint256,uint256,uint256,uint256),string)": "e8858b4f",
    "deniedValidator(uint256,address)": "830e2a02",
    "denyMarket(uint256)": "4cb44087",
    "forceCloseInstrument(uint256,bool)": "0c33df18",
    "fulfillRandomWords(uint256,uint256[])": "38ba4614",
    "getApprovalData(uint256)": "ac1b6b01",
    "getFinalStake(uint256)": "937b6feb",
    "getInitialStake(uint256)": "875e487e",
    "getInstrumentSnapShot(uint256)": "37b4dd3a",
    "getMarketId(address)": "f25fcc9f",
    "getMarketIds(uint256)": "b1b7e1f2",
    "getNumApproved(uint256)": "805798ac",
    "getNumResolved(uint256)": "ebd4dc46",
    "getTotalStaked(uint256)": "2f8899f3",
    "getTotalSupply(uint256)": "92ab723e",
    "getTotalValidatorSales(uint256)": "37bc93b0",
    "getTraderScore(address)": "08ad90a5",
    "getValidatorCap(uint256)": "d466461c",
    "getValidatorPrice(uint256)": "a40c63f7",
    "getValidatorRequiredCollateral(uint256)": "d65ec964",
    "getVault(uint256)": "9403b634",
    "getVaultAd(uint256)": "c4abc650",
    "getVaultSnapShot(uint256)": "c8f559c0",
    "getVaultfromId(uint256)": "9fe1458b",
    "hasApproved(uint256,address)": "2358d5a8",
    "id_parent(uint256)": "8fbbc868",
    "initiateMarket(address,(bytes32,bool,bool,uint256,uint256,uint256,uint256,uint256,uint256,string,address,uint8,uint256,(uint256,uint256,uint256,uint256,uint256,uint256,uint256)),uint256)": "e8e3fbb7",
    "isReputable(address,uint256)": "e8a78026",
    "isValidator(uint256,address)": "23f2a73f",
    "isVerified(address)": "b9209e33",
    "leverageManager()": "81fd6c02",
    "marketCondition(uint256)": "b743939b",
    "marketIdToVaultId(uint256)": "ce93ec67",
    "marketId_to_vaultId(uint256)": "14f2b14c",
    "marketManager()": "41ed2c12",
    "market_data(uint256)": "8d4f16d7",
    "poolFactory()": "4219dc40",
    "pullLeverage(uint256,uint256)": "da0a697f",
    "redeemValidator(uint256,address)": "8f5709a5",
    "redeem_transfer(uint256,address,uint256)": "f0fd1d38",
    "reputationManager()": "6b868afb",
    "resolveCondition(uint256)": "81e1b07c",
    "resolveMarket(uint256)": "6399d03d",
    "selfVerify()": "f42cb86f",
    "setDataStore(address)": "500065d2",
    "setLeverageManager(address)": "f304c278",
    "setMarketManager(address)": "d82aff11",
    "setPoolFactory(address)": "473597a0",
    "setReputationManager(address)": "56a837f4",
    "setValidatorManager(address)": "45f34e92",
    "setVaultFactory(address)": "3ea7fbdb",
    "testApproveMarket(uint256)": "b37eedcd",
    "testResolveMarket(uint256)": "c3f956fa",
    "testVerifyAddress()": "03cccb35",
    "unlockValidatorStake(uint256)": "8dc3d9b4",
    "validatorApprove(uint256)": "d1227136",
    "validatorResolve(uint256)": "ad4e4e70",
    "vaultFactory()": "d8a06f73",
    "vault_to_marketIds(uint256,uint256)": "482c0aa8",
    "vaults(uint256)": "8c64ea4a",
    "verified(address)": "0db065f4",
    "verifyAddress(address)": "fcb2cafc",
    "viewValidators(uint256)": "3ec8dc3b"
  },
  "id": 15
}