{
  "abi": [
    {
      "inputs": [
        {
          "internalType": "address",
          "name": "_creator_address",
          "type": "address"
        },
        {
          "internalType": "address",
          "name": "_interep_address",
          "type": "address"
        }
      ],
      "stateMutability": "nonpayable",
      "type": "constructor"
    },
    {
      "anonymous": false,
      "inputs": [
        {
          "indexed": true,
          "internalType": "uint256",
          "name": "marketId",
          "type": "uint256"
        },
        {
          "components": [
            {
              "internalType": "uint256",
              "name": "managers_stake",
              "type": "uint256"
            },
            {
              "internalType": "uint256",
              "name": "approved_principal",
              "type": "uint256"
            },
            {
              "internalType": "uint256",
              "name": "approved_yield",
              "type": "uint256"
            }
          ],
          "indexed": false,
          "internalType": "struct Controller.ApprovalData",
          "name": "data",
          "type": "tuple"
        }
      ],
      "name": "MarketApproved",
      "type": "event"
    },
    {
      "anonymous": false,
      "inputs": [
        {
          "indexed": true,
          "internalType": "uint256",
          "name": "marketId",
          "type": "uint256"
        }
      ],
      "name": "MarketDenied",
      "type": "event"
    },
    {
      "anonymous": false,
      "inputs": [
        {
          "indexed": true,
          "internalType": "uint256",
          "name": "marketId",
          "type": "uint256"
        },
        {
          "indexed": true,
          "internalType": "address",
          "name": "vault",
          "type": "address"
        },
        {
          "indexed": true,
          "internalType": "address",
          "name": "recipient",
          "type": "address"
        },
        {
          "indexed": false,
          "internalType": "address",
          "name": "pool",
          "type": "address"
        },
        {
          "indexed": false,
          "internalType": "address",
          "name": "longZCB",
          "type": "address"
        },
        {
          "indexed": false,
          "internalType": "address",
          "name": "shortZCB",
          "type": "address"
        },
        {
          "components": [
            {
              "internalType": "bytes32",
              "name": "name",
              "type": "bytes32"
            },
            {
              "internalType": "bool",
              "name": "isPool",
              "type": "bool"
            },
            {
              "internalType": "bool",
              "name": "trusted",
              "type": "bool"
            },
            {
              "internalType": "uint256",
              "name": "balance",
              "type": "uint256"
            },
            {
              "internalType": "uint256",
              "name": "faceValue",
              "type": "uint256"
            },
            {
              "internalType": "uint256",
              "name": "marketId",
              "type": "uint256"
            },
            {
              "internalType": "uint256",
              "name": "principal",
              "type": "uint256"
            },
            {
              "internalType": "uint256",
              "name": "expectedYield",
              "type": "uint256"
            },
            {
              "internalType": "uint256",
              "name": "duration",
              "type": "uint256"
            },
            {
              "internalType": "string",
              "name": "description",
              "type": "string"
            },
            {
              "internalType": "address",
              "name": "instrument_address",
              "type": "address"
            },
            {
              "internalType": "enum Vault.InstrumentType",
              "name": "instrument_type",
              "type": "uint8"
            },
            {
              "internalType": "uint256",
              "name": "maturityDate",
              "type": "uint256"
            },
            {
              "components": [
                {
                  "internalType": "uint256",
                  "name": "saleAmount",
                  "type": "uint256"
                },
                {
                  "internalType": "uint256",
                  "name": "initPrice",
                  "type": "uint256"
                },
                {
                  "internalType": "uint256",
                  "name": "promisedReturn",
                  "type": "uint256"
                },
                {
                  "internalType": "uint256",
                  "name": "inceptionTime",
                  "type": "uint256"
                },
                {
                  "internalType": "uint256",
                  "name": "inceptionPrice",
                  "type": "uint256"
                },
                {
                  "internalType": "uint256",
                  "name": "leverageFactor",
                  "type": "uint256"
                },
                {
                  "internalType": "uint256",
                  "name": "managementFee",
                  "type": "uint256"
                }
              ],
              "internalType": "struct Vault.PoolData",
              "name": "poolData",
              "type": "tuple"
            }
          ],
          "indexed": false,
          "internalType": "struct Vault.InstrumentData",
          "name": "instrumentData",
          "type": "tuple"
        }
      ],
      "name": "MarketInitiated",
      "type": "event"
    },
    {
      "anonymous": false,
      "inputs": [
        {
          "indexed": true,
          "internalType": "uint256",
          "name": "marketId",
          "type": "uint256"
        },
        {
          "indexed": false,
          "internalType": "bool",
          "name": "atLoss",
          "type": "bool"
        },
        {
          "indexed": false,
          "internalType": "uint256",
          "name": "extraGain",
          "type": "uint256"
        },
        {
          "indexed": false,
          "internalType": "uint256",
          "name": "principalLoss",
          "type": "uint256"
        },
        {
          "indexed": false,
          "internalType": "bool",
          "name": "premature",
          "type": "bool"
        }
      ],
      "name": "MarketResolved",
      "type": "event"
    },
    {
      "anonymous": false,
      "inputs": [
        {
          "indexed": true,
          "internalType": "uint256",
          "name": "marketId",
          "type": "uint256"
        },
        {
          "indexed": false,
          "internalType": "uint256",
          "name": "amount",
          "type": "uint256"
        },
        {
          "indexed": false,
          "internalType": "address",
          "name": "to",
          "type": "address"
        }
      ],
      "name": "RedeemTransfer",
      "type": "event"
    },
    {
      "anonymous": false,
      "inputs": [
        {
          "indexed": true,
          "internalType": "address",
          "name": "vault",
          "type": "address"
        },
        {
          "indexed": false,
          "internalType": "uint256",
          "name": "vaultId",
          "type": "uint256"
        },
        {
          "indexed": false,
          "internalType": "address",
          "name": "underlying",
          "type": "address"
        },
        {
          "indexed": false,
          "internalType": "bool",
          "name": "onlyVerified",
          "type": "bool"
        },
        {
          "indexed": false,
          "internalType": "uint256",
          "name": "r",
          "type": "uint256"
        },
        {
          "indexed": false,
          "internalType": "uint256",
          "name": "assetLimit",
          "type": "uint256"
        },
        {
          "indexed": false,
          "internalType": "uint256",
          "name": "totalAssetLimit",
          "type": "uint256"
        },
        {
          "components": [
            {
              "internalType": "uint256",
              "name": "N",
              "type": "uint256"
            },
            {
              "internalType": "uint256",
              "name": "sigma",
              "type": "uint256"
            },
            {
              "internalType": "uint256",
              "name": "alpha",
              "type": "uint256"
            },
            {
              "internalType": "uint256",
              "name": "omega",
              "type": "uint256"
            },
            {
              "internalType": "uint256",
              "name": "delta",
              "type": "uint256"
            },
            {
              "internalType": "uint256",
              "name": "r",
              "type": "uint256"
            },
            {
              "internalType": "uint256",
              "name": "s",
              "type": "uint256"
            },
            {
              "internalType": "uint256",
              "name": "steak",
              "type": "uint256"
            }
          ],
          "indexed": false,
          "internalType": "struct MarketManager.MarketParameters",
          "name": "defaultParams",
          "type": "tuple"
        }
      ],
      "name": "VaultCreated",
      "type": "event"
    },
    {
      "inputs": [
        {
          "internalType": "address",
          "name": "",
          "type": "address"
        }
      ],
      "name": "ad_to_id",
      "outputs": [
        {
          "internalType": "uint256",
          "name": "",
          "type": "uint256"
        }
      ],
      "stateMutability": "view",
      "type": "function"
    },
    {
      "inputs": [
        {
          "internalType": "uint256",
          "name": "marketId",
          "type": "uint256"
        }
      ],
      "name": "approvalCondition",
      "outputs": [
        {
          "internalType": "bool",
          "name": "",
          "type": "bool"
        }
      ],
      "stateMutability": "view",
      "type": "function"
    },
    {
      "inputs": [
        {
          "internalType": "uint256",
          "name": "marketId",
          "type": "uint256"
        }
      ],
      "name": "approveMarket",
      "outputs": [],
      "stateMutability": "nonpayable",
      "type": "function"
    },
    {
      "inputs": [
        {
          "internalType": "uint256",
          "name": "marketId",
          "type": "uint256"
        }
      ],
      "name": "beforeResolve",
      "outputs": [],
      "stateMutability": "nonpayable",
      "type": "function"
    },
    {
      "inputs": [],
      "name": "canSelfVerify",
      "outputs": [],
      "stateMutability": "nonpayable",
      "type": "function"
    },
    {
      "inputs": [
        {
          "internalType": "address",
          "name": "underlying",
          "type": "address"
        },
        {
          "internalType": "bool",
          "name": "_onlyVerified",
          "type": "bool"
        },
        {
          "internalType": "uint256",
          "name": "_r",
          "type": "uint256"
        },
        {
          "internalType": "uint256",
          "name": "_asset_limit",
          "type": "uint256"
        },
        {
          "internalType": "uint256",
          "name": "_total_asset_limit",
          "type": "uint256"
        },
        {
          "components": [
            {
              "internalType": "uint256",
              "name": "N",
              "type": "uint256"
            },
            {
              "internalType": "uint256",
              "name": "sigma",
              "type": "uint256"
            },
            {
              "internalType": "uint256",
              "name": "alpha",
              "type": "uint256"
            },
            {
              "internalType": "uint256",
              "name": "omega",
              "type": "uint256"
            },
            {
              "internalType": "uint256",
              "name": "delta",
              "type": "uint256"
            },
            {
              "internalType": "uint256",
              "name": "r",
              "type": "uint256"
            },
            {
              "internalType": "uint256",
              "name": "s",
              "type": "uint256"
            },
            {
              "internalType": "uint256",
              "name": "steak",
              "type": "uint256"
            }
          ],
          "internalType": "struct MarketManager.MarketParameters",
          "name": "default_params",
          "type": "tuple"
        },
        {
          "internalType": "string",
          "name": "_description",
          "type": "string"
        }
      ],
      "name": "createVault",
      "outputs": [],
      "stateMutability": "nonpayable",
      "type": "function"
    },
    {
      "inputs": [
        {
          "internalType": "uint256",
          "name": "marketId",
          "type": "uint256"
        },
        {
          "internalType": "address",
          "name": "validator",
          "type": "address"
        }
      ],
      "name": "deniedValidator",
      "outputs": [
        {
          "internalType": "uint256",
          "name": "collateral_amount",
          "type": "uint256"
        }
      ],
      "stateMutability": "nonpayable",
      "type": "function"
    },
    {
      "inputs": [
        {
          "internalType": "uint256",
          "name": "marketId",
          "type": "uint256"
        }
      ],
      "name": "denyMarket",
      "outputs": [],
      "stateMutability": "nonpayable",
      "type": "function"
    },
    {
      "inputs": [
        {
          "internalType": "uint256",
          "name": "marketId",
          "type": "uint256"
        },
        {
          "internalType": "bool",
          "name": "emergency",
          "type": "bool"
        }
      ],
      "name": "forceCloseInstrument",
      "outputs": [
        {
          "internalType": "bool",
          "name": "",
          "type": "bool"
        }
      ],
      "stateMutability": "nonpayable",
      "type": "function"
    },
    {
      "inputs": [
        {
          "internalType": "uint256",
          "name": "requestId",
          "type": "uint256"
        },
        {
          "internalType": "uint256[]",
          "name": "randomWords",
          "type": "uint256[]"
        }
      ],
      "name": "fulfillRandomWords",
      "outputs": [],
      "stateMutability": "nonpayable",
      "type": "function"
    },
    {
      "inputs": [
        {
          "internalType": "uint256",
          "name": "marketId",
          "type": "uint256"
        }
      ],
      "name": "getApprovalData",
      "outputs": [
        {
          "components": [
            {
              "internalType": "uint256",
              "name": "managers_stake",
              "type": "uint256"
            },
            {
              "internalType": "uint256",
              "name": "approved_principal",
              "type": "uint256"
            },
            {
              "internalType": "uint256",
              "name": "approved_yield",
              "type": "uint256"
            }
          ],
          "internalType": "struct Controller.ApprovalData",
          "name": "",
          "type": "tuple"
        }
      ],
      "stateMutability": "view",
      "type": "function"
    },
    {
      "inputs": [
        {
          "internalType": "uint256",
          "name": "marketId",
          "type": "uint256"
        }
      ],
      "name": "getFinalStake",
      "outputs": [
        {
          "internalType": "uint256",
          "name": "",
          "type": "uint256"
        }
      ],
      "stateMutability": "view",
      "type": "function"
    },
    {
      "inputs": [
        {
          "internalType": "uint256",
          "name": "marketId",
          "type": "uint256"
        }
      ],
      "name": "getInitialStake",
      "outputs": [
        {
          "internalType": "uint256",
          "name": "",
          "type": "uint256"
        }
      ],
      "stateMutability": "view",
      "type": "function"
    },
    {
      "inputs": [
        {
          "internalType": "uint256",
          "name": "marketId",
          "type": "uint256"
        }
      ],
      "name": "getInstrumentSnapShot",
      "outputs": [
        {
          "internalType": "uint256",
          "name": "managerStake",
          "type": "uint256"
        },
        {
          "internalType": "uint256",
          "name": "exposurePercentage",
          "type": "uint256"
        },
        {
          "internalType": "uint256",
          "name": "seniorAPR",
          "type": "uint256"
        },
        {
          "internalType": "uint256",
          "name": "approvalPrice",
          "type": "uint256"
        }
      ],
      "stateMutability": "view",
      "type": "function"
    },
    {
      "inputs": [
        {
          "internalType": "address",
          "name": "recipient",
          "type": "address"
        }
      ],
      "name": "getMarketId",
      "outputs": [
        {
          "internalType": "uint256",
          "name": "",
          "type": "uint256"
        }
      ],
      "stateMutability": "view",
      "type": "function"
    },
    {
      "inputs": [
        {
          "internalType": "uint256",
          "name": "vaultId",
          "type": "uint256"
        }
      ],
      "name": "getMarketIds",
      "outputs": [
        {
          "internalType": "uint256[]",
          "name": "",
          "type": "uint256[]"
        }
      ],
      "stateMutability": "view",
      "type": "function"
    },
    {
      "inputs": [
        {
          "internalType": "uint256",
          "name": "marketId",
          "type": "uint256"
        }
      ],
      "name": "getNumApproved",
      "outputs": [
        {
          "internalType": "uint256",
          "name": "",
          "type": "uint256"
        }
      ],
      "stateMutability": "view",
      "type": "function"
    },
    {
      "inputs": [
        {
          "internalType": "uint256",
          "name": "marketId",
          "type": "uint256"
        }
      ],
      "name": "getNumResolved",
      "outputs": [
        {
          "internalType": "uint256",
          "name": "",
          "type": "uint256"
        }
      ],
      "stateMutability": "view",
      "type": "function"
    },
    {
      "inputs": [
        {
          "internalType": "uint256",
          "name": "marketId",
          "type": "uint256"
        }
      ],
      "name": "getTotalStaked",
      "outputs": [
        {
          "internalType": "uint256",
          "name": "",
          "type": "uint256"
        }
      ],
      "stateMutability": "view",
      "type": "function"
    },
    {
      "inputs": [
        {
          "internalType": "uint256",
          "name": "marketId",
          "type": "uint256"
        }
      ],
      "name": "getTotalSupply",
      "outputs": [
        {
          "internalType": "uint256",
          "name": "",
          "type": "uint256"
        }
      ],
      "stateMutability": "view",
      "type": "function"
    },
    {
      "inputs": [
        {
          "internalType": "uint256",
          "name": "marketId",
          "type": "uint256"
        }
      ],
      "name": "getTotalValidatorSales",
      "outputs": [
        {
          "internalType": "uint256",
          "name": "",
          "type": "uint256"
        }
      ],
      "stateMutability": "view",
      "type": "function"
    },
    {
      "inputs": [
        {
          "internalType": "address",
          "name": "trader",
          "type": "address"
        }
      ],
      "name": "getTraderScore",
      "outputs": [
        {
          "internalType": "uint256",
          "name": "",
          "type": "uint256"
        }
      ],
      "stateMutability": "view",
      "type": "function"
    },
    {
      "inputs": [
        {
          "internalType": "uint256",
          "name": "marketId",
          "type": "uint256"
        }
      ],
      "name": "getValidatorCap",
      "outputs": [
        {
          "internalType": "uint256",
          "name": "",
          "type": "uint256"
        }
      ],
      "stateMutability": "view",
      "type": "function"
    },
    {
      "inputs": [
        {
          "internalType": "uint256",
          "name": "marketId",
          "type": "uint256"
        }
      ],
      "name": "getValidatorPrice",
      "outputs": [
        {
          "internalType": "uint256",
          "name": "",
          "type": "uint256"
        }
      ],
      "stateMutability": "view",
      "type": "function"
    },
    {
      "inputs": [
        {
          "internalType": "uint256",
          "name": "marketId",
          "type": "uint256"
        }
      ],
      "name": "getValidatorRequiredCollateral",
      "outputs": [
        {
          "internalType": "uint256",
          "name": "",
          "type": "uint256"
        }
      ],
      "stateMutability": "view",
      "type": "function"
    },
    {
      "inputs": [
        {
          "internalType": "uint256",
          "name": "marketId",
          "type": "uint256"
        }
      ],
      "name": "getVault",
      "outputs": [
        {
          "internalType": "contract Vault",
          "name": "",
          "type": "address"
        }
      ],
      "stateMutability": "view",
      "type": "function"
    },
    {
      "inputs": [
        {
          "internalType": "uint256",
          "name": "marketId",
          "type": "uint256"
        }
      ],
      "name": "getVaultAd",
      "outputs": [
        {
          "internalType": "address",
          "name": "",
          "type": "address"
        }
      ],
      "stateMutability": "view",
      "type": "function"
    },
    {
      "inputs": [
        {
          "internalType": "uint256",
          "name": "vaultId",
          "type": "uint256"
        }
      ],
      "name": "getVaultSnapShot",
      "outputs": [
        {
          "internalType": "uint256",
          "name": "totalProtection",
          "type": "uint256"
        },
        {
          "internalType": "uint256",
          "name": "totalEstimatedAPR",
          "type": "uint256"
        },
        {
          "internalType": "uint256",
          "name": "goalAPR",
          "type": "uint256"
        },
        {
          "internalType": "uint256",
          "name": "exchangeRate",
          "type": "uint256"
        }
      ],
      "stateMutability": "view",
      "type": "function"
    },
    {
      "inputs": [
        {
          "internalType": "uint256",
          "name": "vaultId",
          "type": "uint256"
        }
      ],
      "name": "getVaultfromId",
      "outputs": [
        {
          "internalType": "address",
          "name": "",
          "type": "address"
        }
      ],
      "stateMutability": "view",
      "type": "function"
    },
    {
      "inputs": [
        {
          "internalType": "uint256",
          "name": "marketId",
          "type": "uint256"
        },
        {
          "internalType": "address",
          "name": "validator",
          "type": "address"
        }
      ],
      "name": "hasApproved",
      "outputs": [
        {
          "internalType": "bool",
          "name": "",
          "type": "bool"
        }
      ],
      "stateMutability": "view",
      "type": "function"
    },
    {
      "inputs": [
        {
          "internalType": "uint256",
          "name": "",
          "type": "uint256"
        }
      ],
      "name": "id_parent",
      "outputs": [
        {
          "internalType": "uint256",
          "name": "",
          "type": "uint256"
        }
      ],
      "stateMutability": "view",
      "type": "function"
    },
    {
      "inputs": [
        {
          "internalType": "address",
          "name": "recipient",
          "type": "address"
        },
        {
          "components": [
            {
              "internalType": "bytes32",
              "name": "name",
              "type": "bytes32"
            },
            {
              "internalType": "bool",
              "name": "isPool",
              "type": "bool"
            },
            {
              "internalType": "bool",
              "name": "trusted",
              "type": "bool"
            },
            {
              "internalType": "uint256",
              "name": "balance",
              "type": "uint256"
            },
            {
              "internalType": "uint256",
              "name": "faceValue",
              "type": "uint256"
            },
            {
              "internalType": "uint256",
              "name": "marketId",
              "type": "uint256"
            },
            {
              "internalType": "uint256",
              "name": "principal",
              "type": "uint256"
            },
            {
              "internalType": "uint256",
              "name": "expectedYield",
              "type": "uint256"
            },
            {
              "internalType": "uint256",
              "name": "duration",
              "type": "uint256"
            },
            {
              "internalType": "string",
              "name": "description",
              "type": "string"
            },
            {
              "internalType": "address",
              "name": "instrument_address",
              "type": "address"
            },
            {
              "internalType": "enum Vault.InstrumentType",
              "name": "instrument_type",
              "type": "uint8"
            },
            {
              "internalType": "uint256",
              "name": "maturityDate",
              "type": "uint256"
            },
            {
              "components": [
                {
                  "internalType": "uint256",
                  "name": "saleAmount",
                  "type": "uint256"
                },
                {
                  "internalType": "uint256",
                  "name": "initPrice",
                  "type": "uint256"
                },
                {
                  "internalType": "uint256",
                  "name": "promisedReturn",
                  "type": "uint256"
                },
                {
                  "internalType": "uint256",
                  "name": "inceptionTime",
                  "type": "uint256"
                },
                {
                  "internalType": "uint256",
                  "name": "inceptionPrice",
                  "type": "uint256"
                },
                {
                  "internalType": "uint256",
                  "name": "leverageFactor",
                  "type": "uint256"
                },
                {
                  "internalType": "uint256",
                  "name": "managementFee",
                  "type": "uint256"
                }
              ],
              "internalType": "struct Vault.PoolData",
              "name": "poolData",
              "type": "tuple"
            }
          ],
          "internalType": "struct Vault.InstrumentData",
          "name": "instrumentData",
          "type": "tuple"
        },
        {
          "internalType": "uint256",
          "name": "vaultId",
          "type": "uint256"
        }
      ],
      "name": "initiateMarket",
      "outputs": [],
      "stateMutability": "nonpayable",
      "type": "function"
    },
    {
      "inputs": [
        {
          "internalType": "address",
          "name": "trader",
          "type": "address"
        },
        {
          "internalType": "uint256",
          "name": "r",
          "type": "uint256"
        }
      ],
      "name": "isReputable",
      "outputs": [
        {
          "internalType": "bool",
          "name": "",
          "type": "bool"
        }
      ],
      "stateMutability": "view",
      "type": "function"
    },
    {
      "inputs": [
        {
          "internalType": "uint256",
          "name": "marketId",
          "type": "uint256"
        },
        {
          "internalType": "address",
          "name": "user",
          "type": "address"
        }
      ],
      "name": "isValidator",
      "outputs": [
        {
          "internalType": "bool",
          "name": "",
          "type": "bool"
        }
      ],
      "stateMutability": "view",
      "type": "function"
    },
    {
      "inputs": [
        {
          "internalType": "address",
          "name": "addr",
          "type": "address"
        }
      ],
      "name": "isVerified",
      "outputs": [
        {
          "internalType": "bool",
          "name": "",
          "type": "bool"
        }
      ],
      "stateMutability": "view",
      "type": "function"
    },
    {
      "inputs": [
        {
          "internalType": "uint256",
          "name": "marketId",
          "type": "uint256"
        }
      ],
      "name": "marketCondition",
      "outputs": [
        {
          "internalType": "bool",
          "name": "",
          "type": "bool"
        }
      ],
      "stateMutability": "view",
      "type": "function"
    },
    {
      "inputs": [
        {
          "internalType": "uint256",
          "name": "marketId",
          "type": "uint256"
        }
      ],
      "name": "marketIdToVaultId",
      "outputs": [
        {
          "internalType": "uint256",
          "name": "",
          "type": "uint256"
        }
      ],
      "stateMutability": "view",
      "type": "function"
    },
    {
      "inputs": [
        {
          "internalType": "uint256",
          "name": "marketId",
          "type": "uint256"
        }
      ],
      "name": "marketId_to_vaultId",
      "outputs": [
        {
          "internalType": "uint256",
          "name": "",
          "type": "uint256"
        }
      ],
      "stateMutability": "view",
      "type": "function"
    },
    {
      "inputs": [
        {
          "internalType": "uint256",
          "name": "",
          "type": "uint256"
        }
      ],
      "name": "market_data",
      "outputs": [
        {
          "internalType": "address",
          "name": "instrument_address",
          "type": "address"
        },
        {
          "internalType": "address",
          "name": "utilizer",
          "type": "address"
        }
      ],
      "stateMutability": "view",
      "type": "function"
    },
    {
      "inputs": [
        {
          "internalType": "uint256",
          "name": "marketId",
          "type": "uint256"
        },
        {
          "internalType": "uint256",
          "name": "amount",
          "type": "uint256"
        }
      ],
      "name": "pullLeverage",
      "outputs": [],
      "stateMutability": "nonpayable",
      "type": "function"
    },
    {
      "inputs": [
        {
          "internalType": "uint256",
          "name": "marketId",
          "type": "uint256"
        },
        {
          "internalType": "address",
          "name": "validator",
          "type": "address"
        }
      ],
      "name": "redeemValidator",
      "outputs": [],
      "stateMutability": "nonpayable",
      "type": "function"
    },
    {
      "inputs": [
        {
          "internalType": "uint256",
          "name": "amount",
          "type": "uint256"
        },
        {
          "internalType": "address",
          "name": "to",
          "type": "address"
        },
        {
          "internalType": "uint256",
          "name": "marketId",
          "type": "uint256"
        }
      ],
      "name": "redeem_transfer",
      "outputs": [],
      "stateMutability": "nonpayable",
      "type": "function"
    },
    {
      "inputs": [
        {
          "internalType": "uint256",
          "name": "marketId",
          "type": "uint256"
        }
      ],
      "name": "resolveCondition",
      "outputs": [
        {
          "internalType": "bool",
          "name": "",
          "type": "bool"
        }
      ],
      "stateMutability": "view",
      "type": "function"
    },
    {
      "inputs": [
        {
          "internalType": "uint256",
          "name": "marketId",
          "type": "uint256"
        }
      ],
      "name": "resolveMarket",
      "outputs": [],
      "stateMutability": "nonpayable",
      "type": "function"
    },
    {
      "inputs": [],
      "name": "selfVerify",
      "outputs": [
        {
          "internalType": "bool",
          "name": "",
          "type": "bool"
        }
      ],
      "stateMutability": "view",
      "type": "function"
    },
    {
      "inputs": [
        {
          "internalType": "address",
          "name": "_marketManager",
          "type": "address"
        }
      ],
      "name": "setMarketManager",
      "outputs": [],
      "stateMutability": "nonpayable",
      "type": "function"
    },
    {
      "inputs": [
        {
          "internalType": "address",
          "name": "_poolFactory",
          "type": "address"
        }
      ],
      "name": "setPoolFactory",
      "outputs": [],
      "stateMutability": "nonpayable",
      "type": "function"
    },
    {
      "inputs": [
        {
          "internalType": "address",
          "name": "_reputationManager",
          "type": "address"
        }
      ],
      "name": "setReputationManager",
      "outputs": [],
      "stateMutability": "nonpayable",
      "type": "function"
    },
    {
      "inputs": [
        {
          "internalType": "address",
          "name": "_validatorManager",
          "type": "address"
        }
      ],
      "name": "setValidatorManager",
      "outputs": [],
      "stateMutability": "nonpayable",
      "type": "function"
    },
    {
      "inputs": [
        {
          "internalType": "address",
          "name": "_vaultFactory",
          "type": "address"
        }
      ],
      "name": "setVaultFactory",
      "outputs": [],
      "stateMutability": "nonpayable",
      "type": "function"
    },
    {
      "inputs": [
        {
          "internalType": "uint256",
          "name": "marketId",
          "type": "uint256"
        }
      ],
      "name": "testApproveMarket",
      "outputs": [],
      "stateMutability": "nonpayable",
      "type": "function"
    },
    {
      "inputs": [
        {
          "internalType": "uint256",
          "name": "marketId",
          "type": "uint256"
        }
      ],
      "name": "testResolveMarket",
      "outputs": [],
      "stateMutability": "nonpayable",
      "type": "function"
    },
    {
      "inputs": [],
      "name": "testVerifyAddress",
      "outputs": [],
      "stateMutability": "nonpayable",
      "type": "function"
    },
    {
      "inputs": [
        {
          "internalType": "uint256",
          "name": "marketId",
          "type": "uint256"
        }
      ],
      "name": "unlockValidatorStake",
      "outputs": [],
      "stateMutability": "nonpayable",
      "type": "function"
    },
    {
      "inputs": [
        {
          "internalType": "uint256",
          "name": "marketId",
          "type": "uint256"
        }
      ],
      "name": "validatorApprove",
      "outputs": [
        {
          "internalType": "uint256",
          "name": "",
          "type": "uint256"
        }
      ],
      "stateMutability": "nonpayable",
      "type": "function"
    },
    {
      "inputs": [
        {
          "internalType": "uint256",
          "name": "marketId",
          "type": "uint256"
        }
      ],
      "name": "validatorResolve",
      "outputs": [],
      "stateMutability": "nonpayable",
      "type": "function"
    },
    {
      "inputs": [
        {
          "internalType": "uint256",
          "name": "",
          "type": "uint256"
        },
        {
          "internalType": "uint256",
          "name": "",
          "type": "uint256"
        }
      ],
      "name": "vault_to_marketIds",
      "outputs": [
        {
          "internalType": "uint256",
          "name": "",
          "type": "uint256"
        }
      ],
      "stateMutability": "view",
      "type": "function"
    },
    {
      "inputs": [
        {
          "internalType": "uint256",
          "name": "",
          "type": "uint256"
        }
      ],
      "name": "vaults",
      "outputs": [
        {
          "internalType": "contract Vault",
          "name": "",
          "type": "address"
        }
      ],
      "stateMutability": "view",
      "type": "function"
    },
    {
      "inputs": [
        {
          "internalType": "address",
          "name": "",
          "type": "address"
        }
      ],
      "name": "verified",
      "outputs": [
        {
          "internalType": "bool",
          "name": "",
          "type": "bool"
        }
      ],
      "stateMutability": "view",
      "type": "function"
    },
    {
      "inputs": [
        {
          "internalType": "uint256",
          "name": "marketId",
          "type": "uint256"
        }
      ],
      "name": "viewValidators",
      "outputs": [
        {
          "internalType": "address[]",
          "name": "",
          "type": "address[]"
        }
      ],
      "stateMutability": "view",
      "type": "function"
    }
  ],
  "bytecode": {
    "object": "0x6080604052600c805460ff60a01b1916600160a01b1790553480156200002457600080fd5b5060405162005a3a38038062005a3a83398101604081905262000047916200008b565b50600880546001600160a01b0319166001600160a01b0392909216919091179055620000c3565b80516001600160a01b03811681146200008657600080fd5b919050565b600080604083850312156200009f57600080fd5b620000aa836200006e565b9150620000ba602084016200006e565b90509250929050565b61596780620000d36000396000f3fe608060405234801561001057600080fd5b50600436106103a45760003560e01c80638f5709a5116101e9578063c8f559c01161010f578063da0a697f116100ad578063ebd4dc461161007c578063ebd4dc46146108eb578063f0fd1d38146108fe578063f25fcc9f14610911578063f42cb86f1461093a57600080fd5b8063da0a697f1461089f578063e8858b4f146108b2578063e8a78026146108c5578063e8e3fbb7146108d857600080fd5b8063d1227136116100e9578063d122713614610853578063d466461c14610866578063d65ec96414610879578063d82aff111461088c57600080fd5b8063c8f559c01461082d578063cabe2ae114610840578063ce93ec671461043257600080fd5b8063ac1b6b0111610187578063b743939b11610156578063b743939b146107db578063b9209e33146107ee578063c3f956fa1461081a578063c4abc6501461071157600080fd5b8063ac1b6b0114610760578063ad4e4e7014610795578063b1b7e1f2146107a8578063b37eedcd146107c857600080fd5b8063937b6feb116101c3578063937b6feb146106fe5780639403b634146107115780639fe1458b14610724578063a40c63f71461074d57600080fd5b80638f5709a5146106b85780638fbbc868146106cb57806392ab723e146106eb57600080fd5b806345f34e92116102ce5780637789ec5a1161026c578063875e487e1161023b578063875e487e146105fd5780638c64ea4a146106105780638d4f16d7146106515780638dc3d9b4146106a557600080fd5b80637789ec5a146105a4578063805798ac146105c457806381e1b07c146105d7578063830e2a02146105ea57600080fd5b80634cb44087116102a85780634cb440871461056357806356a837f4146105765780636399d03d146105895780636fe2983b1461059c57600080fd5b806345f34e921461052a578063473597a01461053d578063482c0aa81461055057600080fd5b806323f2a73f1161034657806337bc93b01161031557806337bc93b0146104d157806338ba4614146104e45780633ea7fbdb146104f75780633ec8dc3b1461050a57600080fd5b806323f2a73f146104655780632b858734146104785780632f8899f31461048b57806337b4dd3a1461049e57600080fd5b80630c33df18116103825780630c33df18146103fc5780630db065f41461040f57806314f2b14c146104325780632358d5a81461045257600080fd5b806303cccb35146103a957806305a1ce99146103b357806308ad90a5146103db575b600080fd5b6103b161094e565b005b6103c66103c1366004614797565b610a22565b60405190151581526020015b60405180910390f35b6103ee6103e93660046147d5565b610a97565b6040519081526020016103d2565b6103c661040a36600461480b565b610b07565b6103c661041d3660046147d5565b60026020526000908152604090205460ff1681565b6103ee610440366004614797565b60009081526006602052604090205490565b6103c661046036600461483b565b610be4565b6103c661047336600461483b565b610c62565b6103b1610486366004614797565b610c9c565b6103ee610499366004614797565b610e53565b6104b16104ac366004614797565b610e85565b6040805194855260208501939093529183015260608201526080016103d2565b6103ee6104df366004614797565b611236565b6103b16104f2366004614937565b611268565b6103b16105053660046147d5565b6112d0565b61051d610518366004614797565b611331565b6040516103d291906149d8565b6103b16105383660046147d5565b6113a3565b6103b161054b3660046147d5565b611404565b6103ee61055e366004614a25565b611465565b6103b1610571366004614797565b611496565b6103b16105843660046147d5565b6115f9565b6103b1610597366004614797565b6116f0565b6103b16118c2565b6103ee6105b23660046147d5565b60046020526000908152604090205481565b6103ee6105d2366004614797565b611925565b6103c66105e5366004614797565b611957565b6103ee6105f836600461483b565b611989565b6103ee61060b366004614797565b611a42565b61063961061e366004614797565b6005602052600090815260409020546001600160a01b031681565b6040516001600160a01b0390911681526020016103d2565b61068561065f366004614797565b600360205260009081526040902080546001909101546001600160a01b03918216911682565b604080516001600160a01b039384168152929091166020830152016103d2565b6103b16106b3366004614797565b611a74565b6103b16106c636600461483b565b611aab565b6103ee6106d9366004614797565b60066020526000908152604090205481565b6103ee6106f9366004614797565b611b23565b6103ee61070c366004614797565b611bce565b61063961071f366004614797565b611c00565b610639610732366004614797565b6000908152600560205260409020546001600160a01b031690565b6103ee61075b366004614797565b611c28565b61077361076e366004614797565b611c5a565b60408051825181526020808401519082015291810151908201526060016103d2565b6103b16107a3366004614797565b611c8c565b6107bb6107b6366004614797565b611cc3565b6040516103d29190614a82565b6103b16107d6366004614797565b611d25565b6103c66107e9366004614797565b611dc9565b6103c66107fc3660046147d5565b6001600160a01b031660009081526002602052604090205460ff1690565b6103b1610828366004614797565b6121cf565b6104b161083b366004614797565b6123c6565b6103b161084e366004614797565b6126c5565b6103ee610861366004614797565b613093565b6103ee610874366004614797565b6131ff565b6103ee610887366004614797565b613231565b6103b161089a3660046147d5565b613263565b6103b16108ad366004614a25565b6132d7565b6103b16108c0366004614add565b613357565b6103c66108d3366004614bda565b613483565b6103b16108e6366004614cf8565b6134bd565b6103ee6108f9366004614797565b613e59565b6103b161090c366004614e39565b613e8b565b6103ee61091f3660046147d5565b6001600160a01b031660009081526004602052604090205490565b600c546103c690600160a01b900460ff1681565b600c54600160a01b900460ff1661099a5760405162461bcd60e51b815260206004820152600b60248201526a2173656c6656657269667960a81b60448201526064015b60405180910390fd5b3360008181526002602052604090819020805460ff19166001179055600c549051630622fd1760e01b81526004810192909252670de0b6b3a764000060248301526001600160a01b031690630622fd1790604401600060405180830381600087803b158015610a0857600080fd5b505af1158015610a1c573d6000803e3d6000fd5b50505050565b600080546040516305a1ce9960e01b8152600481018490526001600160a01b03909116906305a1ce99906024015b602060405180830381865afa158015610a6d573d6000803e3d6000fd5b505050506040513d601f19601f82011682018060405250810190610a919190614e7c565b92915050565b600c546040516344c7439360e01b81526001600160a01b03838116600483015260009216906344c74393906024015b602060405180830381865afa158015610ae3573d6000803e3d6000fd5b505050506040513d601f19601f82011682018060405250810190610a919190614e99565b600082815260066020908152604080832054835260059091528082205490516359dc5c6f60e01b8152600481018590526001600160a01b039091169081906359dc5c6f90602401600060405180830381600087803b158015610b6857600080fd5b505af1158015610b7c573d6000803e3d6000fd5b5050604051630ae161cd60e21b8152600481018790526001600160a01b0384169250632b8587349150602401600060405180830381600087803b158015610bc257600080fd5b505af1158015610bd6573d6000803e3d6000fd5b506001979650505050505050565b6000805460405163046b1ab560e31b8152600481018590526001600160a01b03848116602483015290911690632358d5a8906044015b602060405180830381865afa158015610c37573d6000803e3d6000fd5b505050506040513d601f19601f82011682018060405250810190610c5b9190614e7c565b9392505050565b600080546040516323f2a73f60e01b8152600481018590526001600160a01b038481166024830152909116906323f2a73f90604401610c1a565b600954604051638a6cac3d60e01b81526004810183905260009182916001600160a01b0390911690638a6cac3d9060240160c060405180830381865afa158015610cea573d6000803e3d6000fd5b505050506040513d601f19601f82011682018060405250810190610d0e9190614eb2565b505093505050915081158015610d215750805b610d6d5760405162461bcd60e51b815260206004820152601960248201527f6d61726b657420636f6e646974696f6e73206e6f74206d6574000000000000006044820152606401610991565b610d7683611957565b610dd65760405162461bcd60e51b815260206004820152602b60248201527f6e6f7420656e6f7567682076616c696461746f7273206861766520766f74656460448201526a20746f207265736f6c766560a81b6064820152608401610991565b6000838152600660209081526040808320548352600590915290819020549051630ae161cd60e21b8152600481018590526001600160a01b0390911690632b85873490602401600060405180830381600087803b158015610e3657600080fd5b505af1158015610e4a573d6000803e3d6000fd5b50505050505050565b60008054604051632f8899f360e01b8152600481018490526001600160a01b0390911690632f8899f390602401610ac6565b60095460405163eb44fdd360e01b81526004810183905260009182918291829182916001600160a01b03169063eb44fdd390602401600060405180830381865afa158015610ed7573d6000803e3d6000fd5b505050506040513d6000823e601f3d908101601f19168201604052610eff9190810190614fab565b90506000610f0c87611c5a565b90506000610f1988611c00565b6001600160a01b0316639ec4d40e896040518263ffffffff1660e01b8152600401610f4691815260200190565b600060405180830381865afa158015610f63573d6000803e3d6000fd5b505050506040513d6000823e601f3d908101601f19168201604052610f8b91908101906150dc565b825197509050611020610f9d89611c00565b6001600160a01b03166301e1d1146040518163ffffffff1660e01b8152600401602060405180830381865afa158015610fda573d6000803e3d6000fd5b505050506040513d601f19601f82011682018060405250810190610ffe9190614e99565b611009906001615217565b8351602085015161101a919061522a565b90613f92565b9550806101a00151604001519450806101a00151608001519350806020015161122c5781516000908190156111ba5773__$7f722a1af7b4060aab6915c87e2e2208cb$__63018b03518560000151600088600001516001600160a01b0316636e2f7ad36040518163ffffffff1660e01b8152600401602060405180830381865afa1580156110b2573d6000803e3d6000fd5b505050506040513d601f19601f820116820180604052508101906110d69190614e99565b89600001516001600160a01b0316634df7e3d06040518163ffffffff1660e01b8152600401602060405180830381865afa158015611118573d6000803e3d6000fd5b505050506040513d601f19601f8201168201806040525081019061113c9190614e99565b6040516001600160e01b031960e087901b16815260048101949094526024840192909252604483015260648201526001608482015260a4016040805180830381865af4158015611190573d6000803e3d6000fd5b505050506040513d601f19601f820116820180604052508101906111b4919061523d565b90925090505b835160c08401516000916111cd9161522a565b8385608001516111dd919061522a565b6111e7919061522a565b905060008560200151116111fc576000611224565b845160c08501516112249190611213906001615217565b61121d919061522a565b8290613f92565b975090955050505b5050509193509193565b6000805460405163037bc93b60e41b8152600481018490526001600160a01b03909116906337bc93b090602401610ac6565b600054604051630e2e918560e21b81526001600160a01b03909116906338ba46149061129a9085908590600401615261565b600060405180830381600087803b1580156112b457600080fd5b505af11580156112c8573d6000803e3d6000fd5b505050505050565b6009546001600160a01b03163314806112f357506008546001600160a01b031633145b61130f5760405162461bcd60e51b81526004016109919061527a565b600a80546001600160a01b0319166001600160a01b0392909216919091179055565b600054604051633ec8dc3b60e01b8152600481018390526060916001600160a01b031690633ec8dc3b90602401600060405180830381865afa15801561137b573d6000803e3d6000fd5b505050506040513d6000823e601f3d908101601f19168201604052610a91919081019061529c565b6009546001600160a01b03163314806113c657506008546001600160a01b031633145b6113e25760405162461bcd60e51b81526004016109919061527a565b600080546001600160a01b0319166001600160a01b0392909216919091179055565b6009546001600160a01b031633148061142757506008546001600160a01b031633145b6114435760405162461bcd60e51b81526004016109919061527a565b600b80546001600160a01b0319166001600160a01b0392909216919091179055565b6007602052816000526040600020818154811061148157600080fd5b90600052602060002001600091509150505481565b806114a18133610c62565b806114b657506008546001600160a01b031633145b6114eb5760405162461bcd60e51b8152600401610991906020808252600490820152630855985b60e21b604082015260600190565b600082815260066020908152604080832054835260059091529081902054905163d746d3ef60e01b8152600481018490526001600160a01b039091169063d746d3ef90602401600060405180830381600087803b15801561154b57600080fd5b505af115801561155f573d6000803e3d6000fd5b5050505061156c82613fa7565b600954604051634cb4408760e01b8152600481018490526001600160a01b0390911690634cb4408790602401600060405180830381600087803b1580156115b257600080fd5b505af11580156115c6573d6000803e3d6000fd5b50506040518492507f38274fdcd6150638fa33375a76a55bc5b507aa04639aef21fcf7a1bf0b9c095d9150600090a25050565b6009546001600160a01b031633148061161c57506008546001600160a01b031633145b6116385760405162461bcd60e51b81526004016109919061527a565b6009546001600160a01b03166116765760405162461bcd60e51b8152602060048201526003602482015262306d6d60e81b6044820152606401610991565b600c80546001600160a01b0319166001600160a01b038381169182179092556009546040516315aa0dfd60e21b81526004810192909252909116906356a837f4906024015b600060405180830381600087803b1580156116d557600080fd5b505af11580156116e9573d6000803e3d6000fd5b5050505050565b806116fb8133610c62565b8061171057506008546001600160a01b031633145b6117455760405162461bcd60e51b8152600401610991906020808252600490820152630855985b60e21b604082015260600190565b6000828152600660209081526040808320548352600590915280822054905163709a664160e11b8152600481018590528291829182916001600160a01b03169063e134cc82906024016080604051808303816000875af11580156117ad573d6000803e3d6000fd5b505050506040513d601f19601f820116820180604052508101906117d19190615335565b93509350935093506117e6868585858561405f565b60008054878252600160208190526040928390200154915163665293b360e11b8152600481018990526024810192909252604482018490526001600160a01b03169063cca5276690606401600060405180830381600087803b15801561184b57600080fd5b505af115801561185f573d6000803e3d6000fd5b5050505061186c86613fa7565b60408051851515815260208101859052908101839052811515606082015286907f77220ccc88401eef4453630e1f9b709ab45bd7912e6599a260abd10a84ac3ed2906080015b60405180910390a2505050505050565b6008546001600160a01b031633146119045760405162461bcd60e51b8152602060048201526005602482015264042c2eae8d60db1b6044820152606401610991565b600c805460ff60a01b198116600160a01b9182900460ff1615909102179055565b60008054604051632015e62b60e21b8152600481018490526001600160a01b039091169063805798ac90602401610ac6565b600080546040516320786c1f60e21b8152600481018490526001600160a01b03909116906381e1b07c90602401610a50565b6009546000906001600160a01b03163314806119af57506008546001600160a01b031633145b6119cb5760405162461bcd60e51b81526004016109919061527a565b600054604051634187150160e11b8152600481018590526001600160a01b0384811660248301529091169063830e2a02906044016020604051808303816000875af1158015611a1e573d6000803e3d6000fd5b505050506040513d601f19601f82011682018060405250810190610c5b9190614e99565b600080546040516343af243f60e11b8152600481018490526001600160a01b039091169063875e487e90602401610ac6565b600054604051636172cd6760e01b8152600481018390523360248201526001600160a01b0390911690636172cd67906044016116bb565b6009546001600160a01b0316331480611ace57506008546001600160a01b031633145b611aea5760405162461bcd60e51b81526004016109919061527a565b600054604051638f5709a560e01b8152600481018490526001600160a01b03838116602483015290911690638f5709a59060440161129a565b60095460405163054d50b360e21b8152600481018390526000916001600160a01b03169063153542cc90602401602060405180830381865afa158015611b6d573d6000803e3d6000fd5b505050506040513d601f19601f82011682018060405250810190611b919190615381565b6001600160a01b03166318160ddd6040518163ffffffff1660e01b8152600401602060405180830381865afa158015610ae3573d6000803e3d6000fd5b6000805460405163937b6feb60e01b8152600481018490526001600160a01b039091169063937b6feb90602401610ac6565b600090815260066020908152604080832054835260059091529020546001600160a01b031690565b6000805460405163a40c63f760e01b8152600481018490526001600160a01b039091169063a40c63f790602401610ac6565b611c7e60405180606001604052806000815260200160008152602001600081525090565b600091909152600160205290565b60005460405163f23566b560e01b8152600481018390523360248201526001600160a01b039091169063f23566b5906044016116bb565b600081815260076020908152604091829020805483518184028101840190945280845260609392830182828015611d1957602002820191906000526020600020905b815481526020019060010190808311611d05575b50505050509050919050565b6008546001600160a01b03163314611d685760405162461bcd60e51b815260206004820152600660248201526510b7bbb732b960d11b6044820152606401610991565b611d7181611dc9565b611dbd5760405162461bcd60e51b815260206004820152601860248201527f6d61726b657420636f6e646974696f6e206e6f74206d657400000000000000006044820152606401610991565b611dc6816126c5565b50565b60095460405163b1283e7760e01b81526004810183905260009182916001600160a01b039091169063b1283e7790602401600060405180830381865afa158015611e17573d6000803e3d6000fd5b505050506040513d6000823e601f3d908101601f19168201604052611e3f919081019061539e565b96505050505050508015611f4457611e5683611c00565b6001600160a01b0316639ec4d40e846040518263ffffffff1660e01b8152600401611e8391815260200190565b600060405180830381865afa158015611ea0573d6000803e3d6000fd5b505050506040513d6000823e601f3d908101601f19168201604052611ec891908101906150dc565b6101a001515160095460405163661f1cf560e01b8152600481018690526001600160a01b039091169063661f1cf590602401602060405180830381865afa158015611f17573d6000803e3d6000fd5b505050506040513d601f19601f82011682018060405250810190611f3b9190614e99565b10159392505050565b6000611f4f84611c00565b6001600160a01b0316639ec4d40e856040518263ffffffff1660e01b8152600401611f7c91815260200190565b600060405180830381865afa158015611f99573d6000803e3d6000fd5b505050506040513d6000823e601f3d908101601f19168201604052611fc191908101906150dc565b60c00151604080518082018252600f81526e36b0b935b2ba31b7b73234ba34b7b760891b6020820152600954915163661f1cf560e01b8152600481018890529293506120dd9290916001600160a01b03169063661f1cf590602401602060405180830381865afa158015612039573d6000803e3d6000fd5b505050506040513d601f19601f8201168201806040525081019061205d9190614e99565b60095460405163c6ceb96b60e01b8152600481018990526120d8916001600160a01b03169063c6ceb96b9060240161010060405180830381865afa1580156120a9573d6000803e3d6000fd5b505050506040513d601f19601f820116820180604052508101906120cd919061543d565b604001518590614361565b614315565b60095460405163c6ceb96b60e01b815260048101869052612158916001600160a01b03169063c6ceb96b9060240161010060405180830381865afa158015612129573d6000803e3d6000fd5b505050506040513d601f19601f8201168201806040525081019061214d919061543d565b604001518290614361565b60095460405163661f1cf560e01b8152600481018790526001600160a01b039091169063661f1cf590602401602060405180830381865afa1580156121a1573d6000803e3d6000fd5b505050506040513d601f19601f820116820180604052508101906121c59190614e99565b1015949350505050565b6000818152600660209081526040808320548352600590915290819020549051630ae161cd60e21b8152600481018390526001600160a01b0390911690632b85873490602401600060405180830381600087803b15801561222f57600080fd5b505af1158015612243573d6000803e3d6000fd5b5050506000828152600660209081526040808320548352600590915280822054905163709a664160e11b8152600481018590529192508291829182916001600160a01b039091169063e134cc82906024016080604051808303816000875af11580156122b3573d6000803e3d6000fd5b505050506040513d601f19601f820116820180604052508101906122d79190615335565b93509350935093506122ec858585858561405f565b60008054868252600160208190526040928390200154915163665293b360e11b8152600481018890526024810192909252604482018490526001600160a01b03169063cca5276690606401600060405180830381600087803b15801561235157600080fd5b505af1158015612365573d6000803e3d6000fd5b5050505061237285613fa7565b60408051851515815260208101859052908101839052811515606082015285907f77220ccc88401eef4453630e1f9b709ab45bd7912e6599a260abd10a84ac3ed29060800160405180910390a25050505050565b60008060008060006007600087815260200190815260200160002080548060200260200160405190810160405280929190818152602001828054801561242b57602002820191906000526020600020905b815481526020019060010190808311612417575b5050505050905060005b815181101561253157600080612463848481518110612456576124566154cc565b6020026020010151610e85565b50909350915061247590508282614361565b61247f9088615217565b60095485519198506001600160a01b03169063661f1cf5908690869081106124a9576124a96154cc565b60200260200101516040518263ffffffff1660e01b81526004016124cf91815260200190565b602060405180830381865afa1580156124ec573d6000803e3d6000fd5b505050506040513d601f19601f820116820180604052508101906125109190614e99565b61251a9089615217565b975050508080612529906154e2565b915050612435565b506000868152600560209081526040918290205482516336190e4560e11b815292516001600160a01b0390911692670c7d713b49da00009283928592636c321c8a9260048083019391928290030181865afa158015612594573d6000803e3d6000fd5b505050506040513d601f19601f820116820180604052508101906125b89190614e99565b116126455761263e86612638846001600160a01b0316636c321c8a6040518163ffffffff1660e01b8152600401602060405180830381865afa158015612602573d6000803e3d6000fd5b505050506040513d601f19601f820116820180604052508101906126269190614e99565b612631906001615217565b8490613f92565b90614361565b9450612649565b8594505b60405163ef8b30f760e01b8152670de0b6b3a764000060048201526001600160a01b0383169063ef8b30f790602401602060405180830381865afa158015612695573d6000803e3d6000fd5b505050506040513d601f19601f820116820180604052508101906126b99190614e99565b93505050509193509193565b6000546001600160a01b03163314806126e857506008546001600160a01b031633145b6127215760405162461bcd60e51b815260206004820152600a60248201526910bb30b634b230ba37b960b11b6044820152606401610991565b6000818152600660209081526040808320548352600590915280822054600954915163068bcd8d60e01b8152600481018590526001600160a01b039182169392919091169063068bcd8d90602401602060405180830381865afa15801561278c573d6000803e3d6000fd5b505050506040513d601f19601f820116820180604052508101906127b09190615381565b600954604051634bee760b60e11b8152600481018690529192506001600160a01b0316906397dcec1690602401602060405180830381865afa1580156127fa573d6000803e3d6000fd5b505050506040513d601f19601f8201168201806040525081019061281e9190614e99565b6003146128605760405162461bcd60e51b815260206004820152601060248201526f10b6b0b935b2ba21b7b73234ba34b7b760811b6044820152606401610991565b60405163238f0e7560e11b8152600481018490526001600160a01b0383169063471e1cea90602401602060405180830381865afa1580156128a5573d6000803e3d6000fd5b505050506040513d601f19601f820116820180604052508101906128c99190614e7c565b61290c5760405162461bcd60e51b815260206004820152601460248201527310b4b739ba393ab6b2b73a21b7b73234ba34b7b760611b6044820152606401610991565b60095460405163cabe2ae160e01b8152600481018590526001600160a01b039091169063cabe2ae190602401600060405180830381600087803b15801561295257600080fd5b505af1158015612966573d6000803e3d6000fd5b505060095460405163b1283e7760e01b815260048101879052600093506001600160a01b03909116915063b1283e7790602401600060405180830381865afa1580156129b6573d6000803e3d6000fd5b505050506040513d6000823e601f3d908101601f191682016040526129de919081019061539e565b60095460405163661f1cf560e01b8152600481018d9052919850600097506001600160a01b0316955063661f1cf594506024019250612a1b915050565b602060405180830381865afa158015612a38573d6000803e3d6000fd5b505050506040513d601f19601f82011682018060405250810190612a5c9190614e99565b604051634b7e8e2160e11b8152306004820152602481018290529091506001600160a01b038416906396fd1c4290604401600060405180830381600087803b158015612aa757600080fd5b505af1158015612abb573d6000803e3d6000fd5b50506040516376da9e9f60e11b815260048101889052600092506001600160a01b038716915063edb53d3e90602401602060405180830381865afa158015612b07573d6000803e3d6000fd5b505050506040513d601f19601f82011682018060405250810190612b2b9190615381565b9050846001600160a01b031663c5d664c66040518163ffffffff1660e01b8152600401602060405180830381865afa158015612b6b573d6000803e3d6000fd5b505050506040513d601f19601f82011682018060405250810190612b8f9190615381565b60405163095ea7b360e01b81526001600160a01b03838116600483015260248201859052919091169063095ea7b3906044016020604051808303816000875af1158015612be0573d6000803e3d6000fd5b505050506040513d601f19601f82011682018060405250810190612c049190614e7c565b508215612e105760095460405163054d50b360e21b815260048101889052612d569188916001600160a01b039091169063153542cc90602401602060405180830381865afa158015612c5a573d6000803e3d6000fd5b505050506040513d601f19601f82011682018060405250810190612c7e9190615381565b6001600160a01b03166318160ddd6040518163ffffffff1660e01b8152600401602060405180830381865afa158015612cbb573d6000803e3d6000fd5b505050506040513d601f19601f82011682018060405250810190612cdf9190614e99565b604051634f626a0760e11b8152600481018a90526001600160a01b03891690639ec4d40e90602401600060405180830381865afa158015612d24573d6000803e3d6000fd5b505050506040513d6000823e601f3d908101601f19168201604052612d4c91908101906150dc565b6101a00151614376565b604051636e553f6560e01b8152600481018390526001600160a01b03868116602483015260009190831690636e553f65906044016020604051808303816000875af1158015612da9573d6000803e3d6000fd5b505050506040513d601f19601f82011682018060405250810190612dcd9190614e99565b11612e0b5760405162461bcd60e51b815260206004820152600e60248201526d11115413d4d25517d1905253115160921b6044820152606401610991565b612f71565b6040516303d972f160e21b8152600481018790526001600160a01b03861690630f65cbc490602401602060405180830381865afa158015612e55573d6000803e3d6000fd5b505050506040513d601f19601f82011682018060405250810190612e799190614e99565b600003612e8f57612e8a868561442b565b612e98565b612e9886614676565b846001600160a01b031663c5d664c66040518163ffffffff1660e01b8152600401602060405180830381865afa158015612ed6573d6000803e3d6000fd5b505050506040513d601f19601f82011682018060405250810190612efa9190615381565b60405163a9059cbb60e01b81526001600160a01b03838116600483015260248201859052919091169063a9059cbb906044016020604051808303816000875af1158015612f4b573d6000803e3d6000fd5b505050506040513d601f19601f82011682018060405250810190612f6f9190614e7c565b505b6000868152600160208190526040918290208481559151624e1afd60e81b81526004810189905260248101859052908201546044820152600290910154606482015283151560848201526001600160a01b03861690634e1afd009060a401600060405180830381600087803b158015612fe957600080fd5b505af1158015612ffd573d6000803e3d6000fd5b50505050836001600160a01b0316638d01450f6040518163ffffffff1660e01b8152600401600060405180830381600087803b15801561303c57600080fd5b505af1158015613050573d6000803e3d6000fd5b5050506000878152600160205260409081902090518892507fa5a0c282064b5581aa97f2fdef075816b806dd6394a5eaaf1831ec95a1f79d57916118b2916154fb565b600080546040516317c2ad2760e21b815260048101849052336024820152829182916001600160a01b0390911690635f0ab49c9060440160408051808303816000875af11580156130e8573d6000803e3d6000fd5b505050506040513d601f19601f8201168201806040525081019061310c919061523d565b60095460405163334b11d360e11b81526004810188905260248101849052604481018390523360648201529294509092506001600160a01b03169063669623a690608401600060405180830381600087803b15801561316a57600080fd5b505af115801561317e573d6000803e3d6000fd5b5050505061318b84610a22565b156131f857613199846126c5565b60095460405163cabe2ae160e01b8152600481018690526001600160a01b039091169063cabe2ae190602401600060405180830381600087803b1580156131df57600080fd5b505af11580156131f3573d6000803e3d6000fd5b505050505b5092915050565b60008054604051633519918760e21b8152600481018490526001600160a01b039091169063d466461c90602401610ac6565b60008054604051633597b25960e21b8152600481018490526001600160a01b039091169063d65ec96490602401610ac6565b6009546001600160a01b031633148061328657506008546001600160a01b031633145b6132a25760405162461bcd60e51b81526004016109919061527a565b6001600160a01b0381166132b557600080fd5b600980546001600160a01b0319166001600160a01b0392909216919091179055565b6009546001600160a01b03163314806132fa57506008546001600160a01b031633145b6133165760405162461bcd60e51b81526004016109919061527a565b61331f82611c00565b600954604051633c16f3ed60e21b8152600481018490526001600160a01b03918216602482015291169063f05bcfb49060440161129a565b600a5460405160009182916001600160a01b0390911690631fe84c5b908c903090613390908e908e908e908e908d908d9060200161551c565b604051602081830303815290604052896040518563ffffffff1660e01b81526004016133bf94939291906155e3565b60408051808303816000875af11580156133dd573d6000803e3d6000fd5b505050506040513d601f19601f820116820180604052508101906134019190615629565b6000818152600560205260409081902080546001600160a01b0319166001600160a01b0385169081179091559051929450909250907f7ecb7591c061739d6ccd6a6299e0adf7d3447c390b9321530e0a400f7c65d1b79061346f9084908e908e908e908e908e908e90615657565b60405180910390a250505050505050505050565b600c54604051637453c01360e11b81526001600160a01b03848116600483015260248201849052600092169063e8a7802690604401610c1a565b6001600160a01b0383166134ff5760405162461bcd60e51b815260206004820152600960248201526830b2323932b9b9982960b91b6044820152606401610991565b6101408201516001600160a01b03166135465760405162461bcd60e51b815260206004820152600960248201526861646472657373304960b81b6044820152606401610991565b6000818152600560205260409020546001600160a01b03166135965760405162461bcd60e51b815260206004820152600960248201526830b2323932b9b9982b60b91b6044820152606401610991565b600081815260056020908152604080832054600954825163764bc84160e11b815292516001600160a01b039283169594919092169263ec97908292600480830193928290030181865afa1580156135f1573d6000803e3d6000fd5b505050506040513d601f19601f820116820180604052508101906136159190614e99565b60008181526006602090815260408083208790558683526007825280832080546001818101835591855283852001859055815180830183526101408a01516001600160a01b0390811682528b8116828601908152878752600390955294839020905181549086166001600160a01b031991821617825593519101805491851691909316179091556009548151637572cb1f60e01b81529151939450821692634e042a5992861691637572cb1f916004808301926101009291908290030181865afa1580156136e7573d6000803e3d6000fd5b505050506040513d601f19601f8201168201806040525081019061370b919061543d565b846001600160a01b0316636c321c8a6040518163ffffffff1660e01b8152600401602060405180830381865afa158015613749573d6000803e3d6000fd5b505050506040513d601f19601f8201168201806040525081019061376d9190614e99565b846040518463ffffffff1660e01b815260040161378c939291906156a4565b600060405180830381600087803b1580156137a657600080fd5b505af11580156137ba573d6000803e3d6000fd5b5050600b5460008681526005602090815260408083205481516362eb326360e11b8152915193965086955085946001600160a01b039081169463981f513694919092169263c5d664c692600480830193928290030181865afa158015613824573d6000803e3d6000fd5b505050506040513d601f19601f820116820180604052508101906138489190615381565b60095460405160e084901b6001600160e01b03191681526001600160a01b039283166004820152911660248201526044016060604051808303816000875af1158015613898573d6000803e3d6000fd5b505050506040513d601f19601f820116820180604052508101906138bc91906156c6565b925092509250866020015115613b8257670de0b6b3a7640000876101a0015160200151111580156138fb57506101a08701516080810151602090910151105b6139335760405162461bcd60e51b8152602060048201526009602482015268282924a1a29022a92960b91b6044820152606401610991565b6000876101a0015160400151116139795760405162461bcd60e51b815260206004820152600a6024820152692922aa2aa9271022a92960b11b6044820152606401610991565b6101a08701805142606090910152518051602082015160809092015160095460405163c6ceb96b60e01b8152600481018990526001600160a01b03868116956334327d8b95949093909291169063c6ceb96b9060240161010060405180830381865afa1580156139ed573d6000803e3d6000fd5b505050506040513d601f19601f82011682018060405250810190613a11919061543d565b602001516040516001600160e01b031960e087901b16815260048101949094526024840192909252604483015260648201526084016020604051808303816000875af1158015613a65573d6000803e3d6000fd5b505050506040513d601f19601f82011682018060405250810190613a899190614e99565b6101a088015160c0015260095461012088015160405163080ec90d60e21b81526001600160a01b039092169163203b243491613ad2918891869189918991600190600401615713565b600060405180830381600087803b158015613aec57600080fd5b505af1158015613b00573d6000803e3d6000fd5b50506000546101a08a01515160208b0151604051639c84342360e01b8152600481018a90526024810192909252151560448201526001600160a01b039091169250639c8434239150606401600060405180830381600087803b158015613b6557600080fd5b505af1158015613b79573d6000803e3d6000fd5b50505050613d6f565b60095460405163c6ceb96b60e01b8152600481018690526000916001600160a01b03169063c6ceb96b9060240161010060405180830381865afa158015613bcd573d6000803e3d6000fd5b505050506040513d601f19601f82011682018060405250810190613bf1919061543d565b60c089015160e08a015160208301516040808501516080860151915163ac4bc1cb60e01b8152600481019590955260248501939093526044840191909152606483019190915260848201529091506001600160a01b0383169063ac4bc1cb9060a401600060405180830381600087803b158015613c6d57600080fd5b505af1158015613c81573d6000803e3d6000fd5b50506009546101208b015160405163080ec90d60e21b81526001600160a01b03909216935063203b24349250613cc491899187918a918a91600090600401615713565b600060405180830381600087803b158015613cde57600080fd5b505af1158015613cf2573d6000803e3d6000fd5b505060005460c08b015160208c0151604051639c84342360e01b8152600481018b90526024810192909252151560448201526001600160a01b039091169250639c8434239150606401600060405180830381600087803b158015613d5557600080fd5b505af1158015613d69573d6000803e3d6000fd5b50505050505b60a087018490526040516398d796e760e01b81526001600160a01b038616906398d796e790613da2908a906004016158a5565b600060405180830381600087803b158015613dbc57600080fd5b505af1158015613dd0573d6000803e3d6000fd5b505050600087815260056020526040908190205490516001600160a01b038b811693509091169086907fc276e8dd3cf2547c0646ef7093b7ef8fb4edc8fde6df7574f8757ca3336e940f90613e2c908690899089908f906158b8565b60405180910390a45050506001600160a01b03909416600090815260046020526040902093909355505050565b600080546040516375ea6e2360e11b8152600481018490526001600160a01b039091169063ebd4dc4690602401610ac6565b6009546001600160a01b0316331480613eae57506008546001600160a01b031633145b613eca5760405162461bcd60e51b81526004016109919061527a565b6000818152600660209081526040808320548352600590915290819020549051633c16f3ed60e21b8152600481018590526001600160a01b0384811660248301529091169063f05bcfb490604401600060405180830381600087803b158015613f3257600080fd5b505af1158015613f46573d6000803e3d6000fd5b5050604080518681526001600160a01b03861660208201528493507f23eee7127e8ffafe0ff607129c8dc9492da94a3ee89d9690587399ac0e4e644f92500160405180910390a2505050565b6000610c5b83670de0b6b3a764000084614741565b60095460405163068bcd8d60e01b8152600481018390526001600160a01b039091169063068bcd8d90602401602060405180830381865afa158015613ff0573d6000803e3d6000fd5b505050506040513d601f19601f820116820180604052508101906140149190615381565b6001600160a01b03166396fd1c4261402b83611c00565b6040516001600160e01b031960e084901b1681526001600160a01b03909116600482015260001960248201526044016116bb565b8315614073578215614073576140736158f6565b60095460405163054d50b360e21b8152600481018790526000916001600160a01b03169063153542cc90602401602060405180830381865afa1580156140bd573d6000803e3d6000fd5b505050506040513d601f19601f820116820180604052508101906140e19190615381565b6001600160a01b03166318160ddd6040518163ffffffff1660e01b8152600401602060405180830381865afa15801561411e573d6000803e3d6000fd5b505050506040513d601f19601f820116820180604052508101906141429190614e99565b90506000808511614154576000614222565b60095460405163920f4e5560e01b8152600481018990526001600160a01b039091169063920f4e5590602401602060405180830381865afa15801561419d573d6000803e3d6000fd5b505050506040513d601f19601f820116820180604052508101906141c19190615381565b6001600160a01b03166318160ddd6040518163ffffffff1660e01b8152600401602060405180830381865afa1580156141fe573d6000803e3d6000fd5b505050506040513d601f19601f820116820180604052508101906142229190614e99565b90506000866142585761423f6142388385615217565b8790613f92565b61425190670de0b6b3a7640000615217565b9050614297565b6142628584613f92565b670de0b6b3a76400001161427857506000614297565b6142828584613f92565b61429490670de0b6b3a764000061522a565b90505b6009546040516361fa5af560e01b8152600481018a9052881515602482015285156044820152606481018390526001600160a01b03909116906361fa5af590608401600060405180830381600087803b1580156142f357600080fd5b505af1158015614307573d6000803e3d6000fd5b505050505050505050505050565b61435c83838360405160240161432d9392919061590c565b60408051601f198184030181529190526020810180516001600160e01b031663969cdd0360e01b17905261475f565b505050565b6000610c5b8383670de0b6b3a7640000614741565b60008160a00151116143b95760405162461bcd60e51b815260206004820152600c60248201526b18102622ab2fa320a1aa27a960a11b6044820152606401610991565b6040518060600160405280600081526020016143f583608001516126388560a00151670de0b6b3a76400006143ee9190615217565b8790614361565b81526000602091820181905294855260018082526040958690208351815591830151908201559301516002909301929092555050565b600082815260066020908152604080832054835260059091528082205490516318353be960e21b81526004810185905282916001600160a01b0316906360d4efa4906024016040805180830381865afa15801561448c573d6000803e3d6000fd5b505050506040513d601f19601f820116820180604052508101906144b0919061523d565b60095460405163661f1cf560e01b8152600481018890529294509092506000916145b8916145b2916001600160a01b039091169063661f1cf590602401602060405180830381865afa15801561450a573d6000803e3d6000fd5b505050506040513d601f19601f8201168201806040525081019061452e9190614e99565b60095460405163c6ceb96b60e01b8152600481018a9052670de0b6b3a7640000916001600160a01b03169063c6ceb96b9060240161010060405180830381865afa158015614580573d6000803e3d6000fd5b505050506040513d601f19601f820116820180604052508101906145a4919061543d565b60c001516126389190615217565b84614780565b9050600061462e856001600160a01b03166314e2b929846040518263ffffffff1660e01b81526004016145ed91815260200190565b602060405180830381865afa15801561460a573d6000803e3d6000fd5b505050506040513d601f19601f820116820180604052508101906145b29190614e99565b60408051606081018252600080825260208083019687528284019485529981526001998a90529190912090518155925196830196909655509351600290940193909355505050565b600081815260066020908152604080832054835260059091528082205490516318353be960e21b81526004810184905282916001600160a01b0316906360d4efa4906024016040805180830381865afa1580156146d7573d6000803e3d6000fd5b505050506040513d601f19601f820116820180604052508101906146fb919061523d565b6040805160608101825260008082526020808301958652828401948552978152600197889052919091209051815591519482019490945592516002909301929092555050565b600082600019048411830215820261475857600080fd5b5091020490565b80516a636f6e736f6c652e6c6f67602083016000808483855afa5050505050565b6000818311156147905781610c5b565b5090919050565b6000602082840312156147a957600080fd5b5035919050565b6001600160a01b0381168114611dc657600080fd5b80356147d0816147b0565b919050565b6000602082840312156147e757600080fd5b8135610c5b816147b0565b8015158114611dc657600080fd5b80356147d0816147f2565b6000806040838503121561481e57600080fd5b823591506020830135614830816147f2565b809150509250929050565b6000806040838503121561484e57600080fd5b823591506020830135614830816147b0565b634e487b7160e01b600052604160045260246000fd5b60405161010081016001600160401b038111828210171561489957614899614860565b60405290565b60405160e081016001600160401b038111828210171561489957614899614860565b6040516101c081016001600160401b038111828210171561489957614899614860565b604051601f8201601f191681016001600160401b038111828210171561490c5761490c614860565b604052919050565b60006001600160401b0382111561492d5761492d614860565b5060051b60200190565b6000806040838503121561494a57600080fd5b823591506020808401356001600160401b0381111561496857600080fd5b8401601f8101861361497957600080fd5b803561498c61498782614914565b6148e4565b81815260059190911b820183019083810190888311156149ab57600080fd5b928401925b828410156149c9578335825292840192908401906149b0565b80955050505050509250929050565b6020808252825182820181905260009190848201906040850190845b81811015614a195783516001600160a01b0316835292840192918401916001016149f4565b50909695505050505050565b60008060408385031215614a3857600080fd5b50508035926020909101359150565b600081518084526020808501945080840160005b83811015614a7757815187529582019590820190600101614a5b565b509495945050505050565b602081526000610c5b6020830184614a47565b60008083601f840112614aa757600080fd5b5081356001600160401b03811115614abe57600080fd5b602083019150836020828501011115614ad657600080fd5b9250929050565b600080600080600080600080888a036101c0811215614afb57600080fd5b8935614b06816147b0565b985060208a0135614b16816147f2565b975060408a0135965060608a0135955060808a01359450610100609f198201811315614b4157600080fd5b614b49614876565b915060a08b0135825260c08b0135602083015260e08b01356040830152808b01356060830152506101208a013560808201526101408a013560a08201526101608a013560c08201526101808a013560e0820152809350506101a08901356001600160401b03811115614bba57600080fd5b614bc68b828c01614a95565b999c989b5096995094979396929594505050565b60008060408385031215614bed57600080fd5b8235614bf8816147b0565b946020939093013593505050565b60006001600160401b03821115614c1f57614c1f614860565b50601f01601f191660200190565b600082601f830112614c3e57600080fd5b8135614c4c61498782614c06565b818152846020838601011115614c6157600080fd5b816020850160208301376000918101602001919091529392505050565b60068110611dc657600080fd5b80356147d081614c7e565b600060e08284031215614ca857600080fd5b614cb061489f565b9050813581526020820135602082015260408201356040820152606082013560608201526080820135608082015260a082013560a082015260c082013560c082015292915050565b600080600060608486031215614d0d57600080fd5b8335614d18816147b0565b925060208401356001600160401b0380821115614d3457600080fd5b908501906102808288031215614d4957600080fd5b614d516148c1565b82358152614d6160208401614800565b6020820152614d7260408401614800565b6040820152606083013560608201526080830135608082015260a083013560a082015260c083013560c082015260e083013560e08201526101008084013581830152506101208084013583811115614dc957600080fd5b614dd58a828701614c2d565b8284015250506101409150614deb8284016147c5565b828201526101609150614dff828401614c8b565b82820152610180915081830135828201526101a09150614e2188838501614c96565b82820152809450505050604084013590509250925092565b600080600060608486031215614e4e57600080fd5b833592506020840135614e60816147b0565b929592945050506040919091013590565b80516147d0816147f2565b600060208284031215614e8e57600080fd5b8151610c5b816147f2565b600060208284031215614eab57600080fd5b5051919050565b60008060008060008060c08789031215614ecb57600080fd5b8651614ed6816147f2565b6020880151909650614ee7816147f2565b6040880151909550614ef8816147f2565b6060880151909450614f09816147f2565b6080880151909350614f1a816147f2565b8092505060a087015190509295509295509295565b80516147d0816147b0565b60005b83811015614f55578181015183820152602001614f3d565b50506000910152565b600082601f830112614f6f57600080fd5b8151614f7d61498782614c06565b818152846020838601011115614f9257600080fd5b614fa3826020830160208701614f3a565b949350505050565b600060208284031215614fbd57600080fd5b81516001600160401b0380821115614fd457600080fd5b9083019060e08286031215614fe857600080fd5b614ff061489f565b614ff983614f2f565b815261500760208401614f2f565b602082015261501860408401614f2f565b604082015260608301518281111561502f57600080fd5b61503b87828601614f5e565b6060830152506080830151608082015260a083015160a082015261506160c08401614e71565b60c082015295945050505050565b80516147d081614c7e565b600060e0828403121561508c57600080fd5b61509461489f565b9050815181526020820151602082015260408201516040820152606082015160608201526080820151608082015260a082015160a082015260c082015160c082015292915050565b6000602082840312156150ee57600080fd5b81516001600160401b038082111561510557600080fd5b90830190610280828603121561511a57600080fd5b6151226148c1565b8251815261513260208401614e71565b602082015261514360408401614e71565b6040820152606083015160608201526080830151608082015260a083015160a082015260c083015160c082015260e083015160e0820152610100808401518183015250610120808401518381111561519a57600080fd5b6151a688828701614f5e565b82840152505061014091506151bc828401614f2f565b8282015261016091506151d082840161506f565b82820152610180915081830151828201526101a091506151f28683850161507a565b91810191909152949350505050565b634e487b7160e01b600052601160045260246000fd5b80820180821115610a9157610a91615201565b81810381811115610a9157610a91615201565b6000806040838503121561525057600080fd5b505080516020909101519092909150565b828152604060208201526000614fa36040830184614a47565b60208082526008908201526710b6b0b730b3b2b960c11b604082015260600190565b600060208083850312156152af57600080fd5b82516001600160401b038111156152c557600080fd5b8301601f810185136152d657600080fd5b80516152e461498782614914565b81815260059190911b8201830190838101908783111561530357600080fd5b928401925b8284101561532a57835161531b816147b0565b82529284019290840190615308565b979650505050505050565b6000806000806080858703121561534b57600080fd5b8451615356816147f2565b8094505060208501519250604085015191506060850151615376816147f2565b939692955090935050565b60006020828403121561539357600080fd5b8151610c5b816147b0565b600080600080600080600060e0888a0312156153b957600080fd5b87516153c4816147b0565b60208901519097506153d5816147b0565b60408901519096506153e6816147b0565b60608901519095506001600160401b0381111561540257600080fd5b61540e8a828b01614f5e565b9450506080880151925060a0880151915060c088015161542d816147f2565b8091505092959891949750929550565b600061010080838503121561545157600080fd5b604051908101906001600160401b038211818310171561547357615473614860565b81604052835181526020840151602082015260408401516040820152606084015160608201526080840151608082015260a084015160a082015260c084015160c082015260e084015160e0820152809250505092915050565b634e487b7160e01b600052603260045260246000fd5b6000600182016154f4576154f4615201565b5060010190565b81548152600182015460208201526002820154604082015260608101610a91565b861515815285602082015284604082015283606082015260a060808201528160a0820152818360c0830137600081830160c090810191909152601f909201601f1916010195945050505050565b60008151808452615581816020860160208601614f3a565b601f01601f19169290920160200192915050565b805182526020810151602083015260408101516040830152606081015160608301526080810151608083015260a081015160a083015260c081015160c083015260e081015160e08301525050565b6001600160a01b038581168252841660208201526101606040820181905260009061561083820186615569565b9150506156206060830184615595565b95945050505050565b6000806040838503121561563c57600080fd5b8251615647816147b0565b6020939093015192949293505050565b8781526001600160a01b03871660208201528515156040820152606081018590526080810184905260a081018390526101c0810161569860c0830184615595565b98975050505050505050565b61014081016156b38286615595565b6101008201939093526101200152919050565b6000806000606084860312156156db57600080fd5b83516156e6816147b0565b60208501519093506156f7816147b0565b6040850151909250615708816147b0565b809150509250925092565b8681526001600160a01b03868116602083015285811660408301528416606082015260c06080820181905260009061574d90830185615569565b905082151560a0830152979650505050505050565b6006811061578057634e487b7160e01b600052602160045260246000fd5b9052565b60006102808251845260208301516157a0602086018215159052565b5060408301516157b4604086018215159052565b50606083015160608501526080830151608085015260a083015160a085015260c083015160c085015260e083015160e085015261010080840151818601525061012080840151828287015261580b83870182615569565b925050506101408084015161582a828701826001600160a01b03169052565b50506101608084015161583f82870182615762565b505061018083810151908501526101a08084015180518287015260208101516101c087015260408101516101e08701526060810151610200870152608081015161022087015260a081015161024087015260c08101516102608701525090949350505050565b602081526000610c5b6020830184615784565b6001600160a01b0385811682528481166020830152831660408201526080606082018190526000906158ec90830184615784565b9695505050505050565b634e487b7160e01b600052600160045260246000fd5b60608152600061591f6060830186615569565b6020830194909452506040015291905056fea264697066735822122048da13037cf846d620a90bcdf67a5b0a5403eec308355a0822e2720bd4e9bb3364736f6c63430008110033",
    "linkReferences": {
      "contracts/bonds/GBC.sol": {
        "LinearCurve": [
          {
            "start": 4388,
            "length": 20
          }
        ]
      }
    }
  },
  "methodIdentifiers": {
    "ad_to_id(address)": "7789ec5a",
    "approvalCondition(uint256)": "05a1ce99",
    "approveMarket(uint256)": "cabe2ae1",
    "beforeResolve(uint256)": "2b858734",
    "canSelfVerify()": "6fe2983b",
    "createVault(address,bool,uint256,uint256,uint256,(uint256,uint256,uint256,uint256,uint256,uint256,uint256,uint256),string)": "e8858b4f",
    "deniedValidator(uint256,address)": "830e2a02",
    "denyMarket(uint256)": "4cb44087",
    "forceCloseInstrument(uint256,bool)": "0c33df18",
    "fulfillRandomWords(uint256,uint256[])": "38ba4614",
    "getApprovalData(uint256)": "ac1b6b01",
    "getFinalStake(uint256)": "937b6feb",
    "getInitialStake(uint256)": "875e487e",
    "getInstrumentSnapShot(uint256)": "37b4dd3a",
    "getMarketId(address)": "f25fcc9f",
    "getMarketIds(uint256)": "b1b7e1f2",
    "getNumApproved(uint256)": "805798ac",
    "getNumResolved(uint256)": "ebd4dc46",
    "getTotalStaked(uint256)": "2f8899f3",
    "getTotalSupply(uint256)": "92ab723e",
    "getTotalValidatorSales(uint256)": "37bc93b0",
    "getTraderScore(address)": "08ad90a5",
    "getValidatorCap(uint256)": "d466461c",
    "getValidatorPrice(uint256)": "a40c63f7",
    "getValidatorRequiredCollateral(uint256)": "d65ec964",
    "getVault(uint256)": "9403b634",
    "getVaultAd(uint256)": "c4abc650",
    "getVaultSnapShot(uint256)": "c8f559c0",
    "getVaultfromId(uint256)": "9fe1458b",
    "hasApproved(uint256,address)": "2358d5a8",
    "id_parent(uint256)": "8fbbc868",
    "initiateMarket(address,(bytes32,bool,bool,uint256,uint256,uint256,uint256,uint256,uint256,string,address,uint8,uint256,(uint256,uint256,uint256,uint256,uint256,uint256,uint256)),uint256)": "e8e3fbb7",
    "isReputable(address,uint256)": "e8a78026",
    "isValidator(uint256,address)": "23f2a73f",
    "isVerified(address)": "b9209e33",
    "marketCondition(uint256)": "b743939b",
    "marketIdToVaultId(uint256)": "ce93ec67",
    "marketId_to_vaultId(uint256)": "14f2b14c",
    "market_data(uint256)": "8d4f16d7",
    "pullLeverage(uint256,uint256)": "da0a697f",
    "redeemValidator(uint256,address)": "8f5709a5",
    "redeem_transfer(uint256,address,uint256)": "f0fd1d38",
    "resolveCondition(uint256)": "81e1b07c",
    "resolveMarket(uint256)": "6399d03d",
    "selfVerify()": "f42cb86f",
    "setMarketManager(address)": "d82aff11",
    "setPoolFactory(address)": "473597a0",
    "setReputationManager(address)": "56a837f4",
    "setValidatorManager(address)": "45f34e92",
    "setVaultFactory(address)": "3ea7fbdb",
    "testApproveMarket(uint256)": "b37eedcd",
    "testResolveMarket(uint256)": "c3f956fa",
    "testVerifyAddress()": "03cccb35",
    "unlockValidatorStake(uint256)": "8dc3d9b4",
    "validatorApprove(uint256)": "d1227136",
    "validatorResolve(uint256)": "ad4e4e70",
    "vault_to_marketIds(uint256,uint256)": "482c0aa8",
    "vaults(uint256)": "8c64ea4a",
    "verified(address)": "0db065f4",
    "viewValidators(uint256)": "3ec8dc3b"
  },
  "id": 15
}