{
  "_format": "hh-sol-artifact-1",
  "contractName": "Controller",
  "sourceName": "contracts/protocol/controller.sol",
  "abi": [
    {
      "inputs": [
        {
          "internalType": "address",
          "name": "_creator_address",
          "type": "address"
        },
        {
          "internalType": "address",
          "name": "_interep_address",
          "type": "address"
        }
      ],
      "stateMutability": "nonpayable",
      "type": "constructor"
    },
    {
      "anonymous": false,
      "inputs": [
        {
          "indexed": false,
          "internalType": "uint256",
          "name": "marketId",
          "type": "uint256"
        },
        {
          "indexed": false,
          "internalType": "address",
          "name": "recipient",
          "type": "address"
        }
      ],
      "name": "MarketInitiated",
      "type": "event"
    },
    {
      "inputs": [
        {
          "internalType": "address",
          "name": "trader",
          "type": "address"
        },
        {
          "internalType": "uint256",
          "name": "update",
          "type": "uint256"
        }
      ],
      "name": "_decrementScore",
      "outputs": [],
      "stateMutability": "nonpayable",
      "type": "function"
    },
    {
      "inputs": [
        {
          "internalType": "uint256",
          "name": "percentile",
          "type": "uint256"
        },
        {
          "internalType": "address",
          "name": "utilizer",
          "type": "address"
        }
      ],
      "name": "_filterTraders",
      "outputs": [
        {
          "internalType": "address[]",
          "name": "",
          "type": "address[]"
        }
      ],
      "stateMutability": "view",
      "type": "function"
    },
    {
      "inputs": [
        {
          "internalType": "uint256",
          "name": "marketId",
          "type": "uint256"
        }
      ],
      "name": "_getValidators",
      "outputs": [],
      "stateMutability": "nonpayable",
      "type": "function"
    },
    {
      "inputs": [
        {
          "internalType": "address",
          "name": "trader",
          "type": "address"
        },
        {
          "internalType": "uint256",
          "name": "update",
          "type": "uint256"
        }
      ],
      "name": "_incrementScore",
      "outputs": [],
      "stateMutability": "nonpayable",
      "type": "function"
    },
    {
      "inputs": [
        {
          "internalType": "address",
          "name": "",
          "type": "address"
        }
      ],
      "name": "ad_to_id",
      "outputs": [
        {
          "internalType": "uint256",
          "name": "",
          "type": "uint256"
        }
      ],
      "stateMutability": "view",
      "type": "function"
    },
    {
      "inputs": [
        {
          "internalType": "uint256",
          "name": "marketId",
          "type": "uint256"
        }
      ],
      "name": "approvalCondition",
      "outputs": [
        {
          "internalType": "bool",
          "name": "",
          "type": "bool"
        }
      ],
      "stateMutability": "view",
      "type": "function"
    },
    {
      "inputs": [
        {
          "internalType": "uint256",
          "name": "marketId",
          "type": "uint256"
        }
      ],
      "name": "beforeResolve",
      "outputs": [],
      "stateMutability": "nonpayable",
      "type": "function"
    },
    {
      "inputs": [
        {
          "internalType": "uint256",
          "name": "bondAmount",
          "type": "uint256"
        },
        {
          "internalType": "uint256",
          "name": "collateral_amount",
          "type": "uint256"
        },
        {
          "internalType": "uint256",
          "name": "budget",
          "type": "uint256"
        }
      ],
      "name": "calcImpliedProbability",
      "outputs": [
        {
          "internalType": "uint256",
          "name": "",
          "type": "uint256"
        }
      ],
      "stateMutability": "pure",
      "type": "function"
    },
    {
      "inputs": [
        {
          "internalType": "uint256",
          "name": "percentile",
          "type": "uint256"
        }
      ],
      "name": "calculateMinScore",
      "outputs": [
        {
          "internalType": "uint256",
          "name": "",
          "type": "uint256"
        }
      ],
      "stateMutability": "view",
      "type": "function"
    },
    {
      "inputs": [
        {
          "internalType": "address",
          "name": "underlying",
          "type": "address"
        },
        {
          "internalType": "bool",
          "name": "_onlyVerified",
          "type": "bool"
        },
        {
          "internalType": "uint256",
          "name": "_r",
          "type": "uint256"
        },
        {
          "internalType": "uint256",
          "name": "_asset_limit",
          "type": "uint256"
        },
        {
          "internalType": "uint256",
          "name": "_total_asset_limit",
          "type": "uint256"
        },
        {
          "components": [
            {
              "internalType": "uint256",
              "name": "N",
              "type": "uint256"
            },
            {
              "internalType": "uint256",
              "name": "sigma",
              "type": "uint256"
            },
            {
              "internalType": "uint256",
              "name": "alpha",
              "type": "uint256"
            },
            {
              "internalType": "uint256",
              "name": "omega",
              "type": "uint256"
            },
            {
              "internalType": "uint256",
              "name": "delta",
              "type": "uint256"
            },
            {
              "internalType": "uint256",
              "name": "r",
              "type": "uint256"
            },
            {
              "internalType": "uint256",
              "name": "s",
              "type": "uint256"
            },
            {
              "internalType": "uint256",
              "name": "steak",
              "type": "uint256"
            }
          ],
          "internalType": "struct MarketManager.MarketParameters",
          "name": "default_params",
          "type": "tuple"
        }
      ],
      "name": "createVault",
      "outputs": [],
      "stateMutability": "nonpayable",
      "type": "function"
    },
    {
      "inputs": [
        {
          "internalType": "uint256",
          "name": "marketId",
          "type": "uint256"
        }
      ],
      "name": "deduct_selling_fee",
      "outputs": [
        {
          "internalType": "uint256",
          "name": "",
          "type": "uint256"
        }
      ],
      "stateMutability": "view",
      "type": "function"
    },
    {
      "inputs": [
        {
          "internalType": "uint256",
          "name": "marketId",
          "type": "uint256"
        },
        {
          "internalType": "address",
          "name": "validator",
          "type": "address"
        }
      ],
      "name": "deniedValidator",
      "outputs": [
        {
          "internalType": "uint256",
          "name": "collateral_amount",
          "type": "uint256"
        }
      ],
      "stateMutability": "nonpayable",
      "type": "function"
    },
    {
      "inputs": [
        {
          "internalType": "uint256",
          "name": "marketId",
          "type": "uint256"
        }
      ],
      "name": "denyMarket",
      "outputs": [],
      "stateMutability": "nonpayable",
      "type": "function"
    },
    {
      "inputs": [
        {
          "internalType": "uint256",
          "name": "marketId",
          "type": "uint256"
        },
        {
          "internalType": "bool",
          "name": "emergency",
          "type": "bool"
        }
      ],
      "name": "forceCloseInstrument",
      "outputs": [
        {
          "internalType": "bool",
          "name": "",
          "type": "bool"
        }
      ],
      "stateMutability": "nonpayable",
      "type": "function"
    },
    {
      "inputs": [
        {
          "internalType": "uint256",
          "name": "requestId",
          "type": "uint256"
        },
        {
          "internalType": "uint256[]",
          "name": "randomWords",
          "type": "uint256[]"
        }
      ],
      "name": "fulfillRandomWords",
      "outputs": [],
      "stateMutability": "nonpayable",
      "type": "function"
    },
    {
      "inputs": [
        {
          "internalType": "uint256",
          "name": "marketId",
          "type": "uint256"
        }
      ],
      "name": "getApprovalData",
      "outputs": [
        {
          "components": [
            {
              "internalType": "uint256",
              "name": "approved_principal",
              "type": "uint256"
            },
            {
              "internalType": "uint256",
              "name": "approved_yield",
              "type": "uint256"
            }
          ],
          "internalType": "struct Controller.ApprovalData",
          "name": "",
          "type": "tuple"
        }
      ],
      "stateMutability": "view",
      "type": "function"
    },
    {
      "inputs": [
        {
          "internalType": "uint256",
          "name": "marketId",
          "type": "uint256"
        }
      ],
      "name": "getFinalStake",
      "outputs": [
        {
          "internalType": "uint256",
          "name": "",
          "type": "uint256"
        }
      ],
      "stateMutability": "view",
      "type": "function"
    },
    {
      "inputs": [
        {
          "internalType": "uint256",
          "name": "marketId",
          "type": "uint256"
        }
      ],
      "name": "getInitialStake",
      "outputs": [
        {
          "internalType": "uint256",
          "name": "",
          "type": "uint256"
        }
      ],
      "stateMutability": "view",
      "type": "function"
    },
    {
      "inputs": [
        {
          "internalType": "address",
          "name": "recipient",
          "type": "address"
        }
      ],
      "name": "getMarketId",
      "outputs": [
        {
          "internalType": "uint256",
          "name": "",
          "type": "uint256"
        }
      ],
      "stateMutability": "view",
      "type": "function"
    },
    {
      "inputs": [
        {
          "internalType": "uint256",
          "name": "vaultId",
          "type": "uint256"
        }
      ],
      "name": "getMarketIds",
      "outputs": [
        {
          "internalType": "uint256[]",
          "name": "",
          "type": "uint256[]"
        }
      ],
      "stateMutability": "view",
      "type": "function"
    },
    {
      "inputs": [
        {
          "internalType": "uint256",
          "name": "marketId",
          "type": "uint256"
        }
      ],
      "name": "getNumApproved",
      "outputs": [
        {
          "internalType": "uint256",
          "name": "",
          "type": "uint256"
        }
      ],
      "stateMutability": "view",
      "type": "function"
    },
    {
      "inputs": [
        {
          "internalType": "uint256",
          "name": "marketId",
          "type": "uint256"
        }
      ],
      "name": "getNumResolved",
      "outputs": [
        {
          "internalType": "uint256",
          "name": "",
          "type": "uint256"
        }
      ],
      "stateMutability": "view",
      "type": "function"
    },
    {
      "inputs": [
        {
          "internalType": "uint256",
          "name": "marketId",
          "type": "uint256"
        }
      ],
      "name": "getTotalStaked",
      "outputs": [
        {
          "internalType": "uint256",
          "name": "",
          "type": "uint256"
        }
      ],
      "stateMutability": "view",
      "type": "function"
    },
    {
      "inputs": [
        {
          "internalType": "uint256",
          "name": "marketId",
          "type": "uint256"
        }
      ],
      "name": "getTotalSupply",
      "outputs": [
        {
          "internalType": "uint256",
          "name": "",
          "type": "uint256"
        }
      ],
      "stateMutability": "view",
      "type": "function"
    },
    {
      "inputs": [],
      "name": "getTraders",
      "outputs": [
        {
          "internalType": "address[]",
          "name": "",
          "type": "address[]"
        }
      ],
      "stateMutability": "nonpayable",
      "type": "function"
    },
    {
      "inputs": [
        {
          "internalType": "uint256",
          "name": "marketId",
          "type": "uint256"
        }
      ],
      "name": "getValidatorRequiredCollateral",
      "outputs": [
        {
          "internalType": "uint256",
          "name": "",
          "type": "uint256"
        }
      ],
      "stateMutability": "view",
      "type": "function"
    },
    {
      "inputs": [
        {
          "internalType": "uint256",
          "name": "marketId",
          "type": "uint256"
        }
      ],
      "name": "getVault",
      "outputs": [
        {
          "internalType": "contract Vault",
          "name": "",
          "type": "address"
        }
      ],
      "stateMutability": "view",
      "type": "function"
    },
    {
      "inputs": [
        {
          "internalType": "uint256",
          "name": "marketId",
          "type": "uint256"
        }
      ],
      "name": "getVaultAd",
      "outputs": [
        {
          "internalType": "address",
          "name": "",
          "type": "address"
        }
      ],
      "stateMutability": "view",
      "type": "function"
    },
    {
      "inputs": [
        {
          "internalType": "uint256",
          "name": "vaultId",
          "type": "uint256"
        }
      ],
      "name": "getVaultfromId",
      "outputs": [
        {
          "internalType": "address",
          "name": "",
          "type": "address"
        }
      ],
      "stateMutability": "view",
      "type": "function"
    },
    {
      "inputs": [
        {
          "internalType": "uint256",
          "name": "marketId",
          "type": "uint256"
        },
        {
          "internalType": "address",
          "name": "validator",
          "type": "address"
        }
      ],
      "name": "hasApproved",
      "outputs": [
        {
          "internalType": "bool",
          "name": "",
          "type": "bool"
        }
      ],
      "stateMutability": "view",
      "type": "function"
    },
    {
      "inputs": [
        {
          "internalType": "uint256",
          "name": "",
          "type": "uint256"
        }
      ],
      "name": "id_parent",
      "outputs": [
        {
          "internalType": "uint256",
          "name": "",
          "type": "uint256"
        }
      ],
      "stateMutability": "view",
      "type": "function"
    },
    {
      "inputs": [
        {
          "internalType": "address",
          "name": "recipient",
          "type": "address"
        },
        {
          "components": [
            {
              "internalType": "bool",
              "name": "isPool",
              "type": "bool"
            },
            {
              "internalType": "bool",
              "name": "trusted",
              "type": "bool"
            },
            {
              "internalType": "uint256",
              "name": "balance",
              "type": "uint256"
            },
            {
              "internalType": "uint256",
              "name": "faceValue",
              "type": "uint256"
            },
            {
              "internalType": "uint256",
              "name": "marketId",
              "type": "uint256"
            },
            {
              "internalType": "uint256",
              "name": "principal",
              "type": "uint256"
            },
            {
              "internalType": "uint256",
              "name": "expectedYield",
              "type": "uint256"
            },
            {
              "internalType": "uint256",
              "name": "duration",
              "type": "uint256"
            },
            {
              "internalType": "string",
              "name": "description",
              "type": "string"
            },
            {
              "internalType": "address",
              "name": "Instrument_address",
              "type": "address"
            },
            {
              "internalType": "enum Vault.InstrumentType",
              "name": "instrument_type",
              "type": "uint8"
            },
            {
              "internalType": "uint256",
              "name": "maturityDate",
              "type": "uint256"
            },
            {
              "components": [
                {
                  "internalType": "uint256",
                  "name": "saleAmount",
                  "type": "uint256"
                },
                {
                  "internalType": "uint256",
                  "name": "initPrice",
                  "type": "uint256"
                },
                {
                  "internalType": "uint256",
                  "name": "promisedReturn",
                  "type": "uint256"
                },
                {
                  "internalType": "uint256",
                  "name": "inceptionTime",
                  "type": "uint256"
                },
                {
                  "internalType": "uint256",
                  "name": "inceptionPrice",
                  "type": "uint256"
                },
                {
                  "internalType": "uint256",
                  "name": "leverageFactor",
                  "type": "uint256"
                },
                {
                  "internalType": "uint256",
                  "name": "managementFee",
                  "type": "uint256"
                }
              ],
              "internalType": "struct Vault.PoolData",
              "name": "poolData",
              "type": "tuple"
            }
          ],
          "internalType": "struct Vault.InstrumentData",
          "name": "instrumentData",
          "type": "tuple"
        },
        {
          "internalType": "uint256",
          "name": "vaultId",
          "type": "uint256"
        }
      ],
      "name": "initiateMarket",
      "outputs": [],
      "stateMutability": "nonpayable",
      "type": "function"
    },
    {
      "inputs": [
        {
          "internalType": "address",
          "name": "",
          "type": "address"
        }
      ],
      "name": "isRated",
      "outputs": [
        {
          "internalType": "bool",
          "name": "",
          "type": "bool"
        }
      ],
      "stateMutability": "view",
      "type": "function"
    },
    {
      "inputs": [
        {
          "internalType": "address",
          "name": "trader",
          "type": "address"
        },
        {
          "internalType": "uint256",
          "name": "percentile",
          "type": "uint256"
        }
      ],
      "name": "isReputable",
      "outputs": [
        {
          "internalType": "bool",
          "name": "",
          "type": "bool"
        }
      ],
      "stateMutability": "view",
      "type": "function"
    },
    {
      "inputs": [
        {
          "internalType": "uint256",
          "name": "marketId",
          "type": "uint256"
        },
        {
          "internalType": "address",
          "name": "user",
          "type": "address"
        }
      ],
      "name": "isValidator",
      "outputs": [
        {
          "internalType": "bool",
          "name": "",
          "type": "bool"
        }
      ],
      "stateMutability": "view",
      "type": "function"
    },
    {
      "inputs": [
        {
          "internalType": "address",
          "name": "addr",
          "type": "address"
        }
      ],
      "name": "isVerified",
      "outputs": [
        {
          "internalType": "bool",
          "name": "",
          "type": "bool"
        }
      ],
      "stateMutability": "view",
      "type": "function"
    },
    {
      "inputs": [
        {
          "internalType": "uint256",
          "name": "marketId",
          "type": "uint256"
        }
      ],
      "name": "marketCondition",
      "outputs": [
        {
          "internalType": "bool",
          "name": "",
          "type": "bool"
        }
      ],
      "stateMutability": "view",
      "type": "function"
    },
    {
      "inputs": [
        {
          "internalType": "uint256",
          "name": "marketId",
          "type": "uint256"
        }
      ],
      "name": "marketIdToVaultId",
      "outputs": [
        {
          "internalType": "uint256",
          "name": "",
          "type": "uint256"
        }
      ],
      "stateMutability": "view",
      "type": "function"
    },
    {
      "inputs": [
        {
          "internalType": "uint256",
          "name": "marketId",
          "type": "uint256"
        }
      ],
      "name": "marketId_to_vaultId",
      "outputs": [
        {
          "internalType": "uint256",
          "name": "",
          "type": "uint256"
        }
      ],
      "stateMutability": "view",
      "type": "function"
    },
    {
      "inputs": [
        {
          "internalType": "uint256",
          "name": "",
          "type": "uint256"
        }
      ],
      "name": "market_data",
      "outputs": [
        {
          "internalType": "address",
          "name": "instrument_address",
          "type": "address"
        },
        {
          "internalType": "address",
          "name": "utilizer",
          "type": "address"
        }
      ],
      "stateMutability": "view",
      "type": "function"
    },
    {
      "inputs": [
        {
          "internalType": "uint256",
          "name": "marketId",
          "type": "uint256"
        },
        {
          "internalType": "uint256",
          "name": "amount",
          "type": "uint256"
        }
      ],
      "name": "pullLeverage",
      "outputs": [],
      "stateMutability": "nonpayable",
      "type": "function"
    },
    {
      "inputs": [
        {
          "internalType": "uint256",
          "name": "marketId",
          "type": "uint256"
        },
        {
          "internalType": "address",
          "name": "validator",
          "type": "address"
        }
      ],
      "name": "redeemValidator",
      "outputs": [],
      "stateMutability": "nonpayable",
      "type": "function"
    },
    {
      "inputs": [
        {
          "internalType": "uint256",
          "name": "amount",
          "type": "uint256"
        },
        {
          "internalType": "address",
          "name": "to",
          "type": "address"
        },
        {
          "internalType": "uint256",
          "name": "marketId",
          "type": "uint256"
        }
      ],
      "name": "redeem_transfer",
      "outputs": [],
      "stateMutability": "nonpayable",
      "type": "function"
    },
    {
      "inputs": [
        {
          "internalType": "uint256",
          "name": "marketId",
          "type": "uint256"
        }
      ],
      "name": "resolveCondition",
      "outputs": [
        {
          "internalType": "bool",
          "name": "",
          "type": "bool"
        }
      ],
      "stateMutability": "view",
      "type": "function"
    },
    {
      "inputs": [
        {
          "internalType": "uint256",
          "name": "marketId",
          "type": "uint256"
        }
      ],
      "name": "resolveMarket",
      "outputs": [],
      "stateMutability": "nonpayable",
      "type": "function"
    },
    {
      "inputs": [],
      "name": "riskTransferPenalty",
      "outputs": [
        {
          "internalType": "uint256",
          "name": "",
          "type": "uint256"
        }
      ],
      "stateMutability": "view",
      "type": "function"
    },
    {
      "inputs": [
        {
          "internalType": "address",
          "name": "_marketManager",
          "type": "address"
        }
      ],
      "name": "setMarketManager",
      "outputs": [],
      "stateMutability": "nonpayable",
      "type": "function"
    },
    {
      "inputs": [
        {
          "internalType": "address",
          "name": "_poolFactory",
          "type": "address"
        }
      ],
      "name": "setPoolFactory",
      "outputs": [],
      "stateMutability": "nonpayable",
      "type": "function"
    },
    {
      "inputs": [
        {
          "internalType": "address",
          "name": "trader",
          "type": "address"
        },
        {
          "internalType": "uint256",
          "name": "score",
          "type": "uint256"
        }
      ],
      "name": "setTraderScore",
      "outputs": [],
      "stateMutability": "nonpayable",
      "type": "function"
    },
    {
      "inputs": [
        {
          "internalType": "address",
          "name": "_vaultFactory",
          "type": "address"
        }
      ],
      "name": "setVaultFactory",
      "outputs": [],
      "stateMutability": "nonpayable",
      "type": "function"
    },
    {
      "inputs": [],
      "name": "testVerifyAddress",
      "outputs": [],
      "stateMutability": "nonpayable",
      "type": "function"
    },
    {
      "inputs": [
        {
          "internalType": "address",
          "name": "",
          "type": "address"
        }
      ],
      "name": "trader_scores",
      "outputs": [
        {
          "internalType": "uint256",
          "name": "",
          "type": "uint256"
        }
      ],
      "stateMutability": "view",
      "type": "function"
    },
    {
      "inputs": [
        {
          "internalType": "uint256",
          "name": "",
          "type": "uint256"
        }
      ],
      "name": "traders",
      "outputs": [
        {
          "internalType": "address",
          "name": "",
          "type": "address"
        }
      ],
      "stateMutability": "view",
      "type": "function"
    },
    {
      "inputs": [
        {
          "internalType": "uint256",
          "name": "marketId",
          "type": "uint256"
        }
      ],
      "name": "unlockValidatorStake",
      "outputs": [],
      "stateMutability": "nonpayable",
      "type": "function"
    },
    {
      "inputs": [
        {
          "internalType": "uint256",
          "name": "marketId",
          "type": "uint256"
        },
        {
          "internalType": "address",
          "name": "trader",
          "type": "address"
        },
        {
          "internalType": "bool",
          "name": "increment",
          "type": "bool"
        }
      ],
      "name": "updateReputation",
      "outputs": [],
      "stateMutability": "nonpayable",
      "type": "function"
    },
    {
      "inputs": [
        {
          "internalType": "uint256",
          "name": "marketId",
          "type": "uint256"
        }
      ],
      "name": "validatorApprove",
      "outputs": [
        {
          "internalType": "uint256",
          "name": "",
          "type": "uint256"
        }
      ],
      "stateMutability": "nonpayable",
      "type": "function"
    },
    {
      "inputs": [
        {
          "internalType": "uint256",
          "name": "marketId",
          "type": "uint256"
        }
      ],
      "name": "validatorResolve",
      "outputs": [],
      "stateMutability": "nonpayable",
      "type": "function"
    },
    {
      "inputs": [
        {
          "internalType": "uint256",
          "name": "",
          "type": "uint256"
        },
        {
          "internalType": "uint256",
          "name": "",
          "type": "uint256"
        }
      ],
      "name": "vault_to_marketIds",
      "outputs": [
        {
          "internalType": "uint256",
          "name": "",
          "type": "uint256"
        }
      ],
      "stateMutability": "view",
      "type": "function"
    },
    {
      "inputs": [
        {
          "internalType": "uint256",
          "name": "",
          "type": "uint256"
        }
      ],
      "name": "vaults",
      "outputs": [
        {
          "internalType": "contract Vault",
          "name": "",
          "type": "address"
        }
      ],
      "stateMutability": "view",
      "type": "function"
    },
    {
      "inputs": [
        {
          "internalType": "address",
          "name": "",
          "type": "address"
        }
      ],
      "name": "verified",
      "outputs": [
        {
          "internalType": "bool",
          "name": "",
          "type": "bool"
        }
      ],
      "stateMutability": "view",
      "type": "function"
    },
    {
      "inputs": [
        {
          "internalType": "uint256",
          "name": "marketId",
          "type": "uint256"
        }
      ],
      "name": "viewValidators",
      "outputs": [
        {
          "internalType": "address[]",
          "name": "",
          "type": "address[]"
        }
      ],
      "stateMutability": "view",
      "type": "function"
    }
  ],
  "bytecode": "0x60806040523480156200001157600080fd5b506040516200607738038062006077833981016040819052620000349162000078565b50600780546001600160a01b0319166001600160a01b0392909216919091179055620000b0565b80516001600160a01b03811681146200007357600080fd5b919050565b600080604083850312156200008c57600080fd5b62000097836200005b565b9150620000a7602084016200005b565b90509250929050565b615fb780620000c06000396000f3fe608060405234801561001057600080fd5b50600436106103af5760003560e01c806381e1b07c116101f4578063b1b7e1f21161011a578063da0a697f116100ad578063ebd4dc461161007c578063ebd4dc46146109b4578063f0fd1d38146109d8578063f251f82e146109eb578063f25fcc9f146109fe57600080fd5b8063da0a697f14610968578063dda10bca1461097b578063e8a780261461098e578063ebac3140146109a157600080fd5b8063ce93ec67116100e9578063ce93ec67146104a8578063d12271361461092f578063d65ec96414610942578063d82aff111461095557600080fd5b8063b1b7e1f2146108d0578063b743939b146108f0578063b9209e3314610903578063c4abc6501461082357600080fd5b80638fbbc868116101925780639fe1458b116101615780639fe1458b14610836578063a117acd61461085f578063ac1b6b0114610872578063ad4e4e70146108bd57600080fd5b80638fbbc868146107cd57806392ab723e146107ed578063937b6feb146108005780639403b6341461082357600080fd5b80638c64ea4a116101ce5780638c64ea4a1461072a5780638d4f16d7146107535780638dc3d9b4146107a75780638f5709a5146107ba57600080fd5b806381e1b07c146106c9578063830e2a02146106f4578063875e487e1461070757600080fd5b806338ba4614116102d9578063494ef4471161027757806365bc5ef91161024657806365bc5ef9146106645780637789ec5a146106735780637ea3417f14610693578063805798ac146106a657600080fd5b8063494ef447146106235780634cb440871461063657806357b61360146106495780636399d03d1461065157600080fd5b806344c74393116102b357806344c74393146105ca578063457a89f6146105ea578063473597a0146105fd578063482c0aa81461061057600080fd5b806338ba4614146105845780633ea7fbdb146105975780633ec8dc3b146105aa57600080fd5b8063135e563d1161035157806323f2a73f1161032057806323f2a73f146105285780632b8587341461053b5780632f8899f31461054e578063340e04b31461057157600080fd5b8063135e563d1461047d57806314f2b14c146104a85780632358d5a8146104c857806323ba61071461050557600080fd5b806308a8333f1161038d57806308a8333f146104135780630c33df18146104345780630d159896146104475780630db065f41461045a57600080fd5b806303cccb35146103b457806305a1ce99146103d85780630622fd1714610400575b600080fd5b6103d6336000908152600160208190526040909120805460ff19169091179055565b005b6103eb6103e6366004614f92565b610a27565b60405190151581526020015b60405180910390f35b6103d661040e366004614fd0565b610a6a565b610426610421366004614f92565b610ab4565b6040519081526020016103f7565b6103eb610442366004615015565b610bf9565b610426610455366004614f92565b610cd4565b6103eb610468366004615045565b60016020526000908152604090205460ff1681565b61049061048b366004614f92565b610d84565b6040516001600160a01b0390911681526020016103f7565b6104266104b6366004614f92565b60009081526005602052604090205490565b6103eb6104d6366004615062565b6000828152600c602090815260408083206001600160a01b038516845260010190915290205460ff1692915050565b6103eb610513366004615045565b600e6020526000908152604090205460ff1681565b6103eb610536366004615062565b610dae565b6103d6610549366004614f92565b610e29565b61042661055c366004614f92565b6000908152600c602052604090206008015490565b6103d661057f36600461513b565b610ff7565b6103d6610592366004615205565b6110b0565b6103d66105a5366004615045565b611291565b6105bd6105b8366004614f92565b6112f2565b6040516103f791906152b6565b6104266105d8366004615045565b600d6020526000908152604090205481565b6103d66105f8366004614f92565b611361565b6103d661060b366004615045565b6114f0565b61042661061e3660046152f7565b611551565b6103d6610631366004615319565b611582565b6103d6610644366004614f92565b61166f565b6105bd61178f565b6103d661065f366004614f92565b6117f1565b61042667016345785d8a000081565b610426610681366004615045565b60036020526000908152604090205481565b6105bd6106a1366004615062565b6118f4565b6104266106b4366004614f92565b6000908152600c602052604090206009015490565b6103eb6106d7366004614f92565b6000908152600c6020819052604090912060038101549101541490565b610426610702366004615062565b611d43565b610426610715366004614f92565b6000908152600c60205260409020600a015490565b610490610738366004614f92565b6004602052600090815260409020546001600160a01b031681565b610787610761366004614f92565b600260205260009081526040902080546001909101546001600160a01b03918216911682565b604080516001600160a01b039384168152929091166020830152016103f7565b6103d66107b5366004614f92565b611de3565b6103d66107c8366004615062565b611ffc565b6104266107db366004614f92565b60056020526000908152604090205481565b6104266107fb366004614f92565b612061565b61042661080e366004614f92565b6000908152600c60205260409020600b015490565b610490610831366004614f92565b612130565b610490610844366004614f92565b6000908152600460205260409020546001600160a01b031690565b6103d661086d366004615452565b612158565b6108a2610880366004614f92565b6040805180820190915260008082526020820152600091825260209190915290565b604080518251815260209283015192810192909252016103f7565b6103d66108cb366004614f92565b6128e5565b6108e36108de366004614f92565b6129bd565b6040516103f79190615587565b6103eb6108fe366004614f92565b612a1e565b6103eb610911366004615045565b6001600160a01b031660009081526001602052604090205460ff1690565b61042661093d366004614f92565b612d17565b610426610950366004614f92565b61307e565b6103d6610963366004615045565b613139565b6103d66109763660046152f7565b6131ad565b6104266109893660046155bf565b61322d565b6103eb61099c366004614fd0565b613283565b6103d66109af366004614fd0565b613316565b6104266109c2366004614f92565b6000908152600c60208190526040909120015490565b6103d66109e63660046155eb565b613390565b6103d66109f9366004614fd0565b613422565b610426610a0c366004615045565b6001600160a01b031660009081526003602052604090205490565b6000818152600c60205260408120600481015460079091015410801590610a6457506000828152600c602052604090206009810154600390910154145b92915050565b6001600160a01b0382166000908152600d602052604090205480821115610a9e57610a99836109f98385615639565b505050565b80821015610a9957610a99836109af8484615639565b600080610ac083612130565b6001600160a01b0316639ec4d40e846040518263ffffffff1660e01b8152600401610aed91815260200190565b600060405180830381865afa158015610b0a573d6000803e3d6000fd5b505050506040513d6000823e601f3d908101601f19168201604052610b32919081019061574c565b60e00151670de0b6b3a764000042610b4986612130565b6001600160a01b0316639ec4d40e876040518263ffffffff1660e01b8152600401610b7691815260200190565b600060405180830381865afa158015610b93573d6000803e3d6000fd5b505050506040513d6000823e601f3d908101601f19168201604052610bbb919081019061574c565b6101600151610bca9190615639565b610bd49190615865565b610bde919061589a565b9050610bf28167016345785d8a000061345b565b9392505050565b60008281526005602090815260408083205483526004918290528083205490516359dc5c6f60e01b81529182018590526001600160a01b03169081906359dc5c6f90602401600060405180830381600087803b158015610c5857600080fd5b505af1158015610c6c573d6000803e3d6000fd5b5050604051630ae161cd60e21b8152600481018790526001600160a01b0384169250632b8587349150602401600060405180830381600087803b158015610cb257600080fd5b505af1158015610cc6573d6000803e3d6000fd5b506001979650505050505050565b600f546000908190610cef90670de0b6b3a764000090615865565b9050610cfc60648461589a565b610d095750600092915050565b6000610d20610d1960648661589a565b839061345b565b9050610d34670de0b6b3a76400008261589a565b9050600d6000600f610d47600185615639565b81548110610d5757610d576158ae565b60009182526020808320909101546001600160a01b03168352820192909252604001902054949350505050565b600f8181548110610d9457600080fd5b6000918252602090912001546001600160a01b0316905081565b6000828152600c60205260408120600301815b8154811015610e1e57836001600160a01b0316828281548110610de657610de66158ae565b6000918252602090912001546001600160a01b03161415610e0c57600192505050610a64565b80610e16816158c4565b915050610dc1565b506000949350505050565b600854604051638a6cac3d60e01b81526004810183905260009182916001600160a01b0390911690638a6cac3d9060240160c060405180830381865afa158015610e77573d6000803e3d6000fd5b505050506040513d601f19601f82011682018060405250810190610e9b91906158df565b505093505050915081158015610eae5750805b610eff5760405162461bcd60e51b815260206004820152601960248201527f6d61726b657420636f6e646974696f6e73206e6f74206d65740000000000000060448201526064015b60405180910390fd5b6000838152600c60208190526040909120600381015491015414610f795760405162461bcd60e51b815260206004820152602b60248201527f6e6f7420656e6f7567682076616c696461746f7273206861766520766f74656460448201526a20746f207265736f6c766560a81b6064820152608401610ef6565b600083815260056020908152604080832054835260049182905291829020549151630ae161cd60e21b81529081018590526001600160a01b0390911690632b858734906024015b600060405180830381600087803b158015610fda57600080fd5b505af1158015610fee573d6000803e3d6000fd5b50505050505050565b60095460405163da33133360e01b815260009182916001600160a01b039091169063da33133390611038908b9030908c908c908c908c908c906004016159aa565b60408051808303816000875af1158015611056573d6000803e3d6000fd5b505050506040513d601f19601f8201168201806040525081019061107a91906159f9565b600090815260046020526040902080546001600160a01b0319166001600160a01b03929092169190911790555050505050505050565b6000828152600b6020526040808220546008549151632a4a9dd160e01b81526004810182905290929182916001600160a01b0390911690632a4a9dd19060240161010060405180830381865afa15801561110e573d6000803e3d6000fd5b505050506040513d601f19601f820116820180604052508101906111329190615a27565b505095505050505091508184511461114c5761114c615a84565b6000838152600260205260408120600101546001600160a01b03169061117283836118f4565b805190915060005b858160ff1610156112865760006111ae84848b8560ff16815181106111a1576111a16158ae565b6020026020010151613470565b9050600c60008981526020019081526020016000206003018482815181106111d8576111d86158ae565b60209081029190910181015182546001808201855560009485529290932090920180546001600160a01b0319166001600160a01b039093169290921790915584906112239085615639565b81518110611233576112336158ae565b602002602001015184828151811061124d5761124d6158ae565b6001600160a01b03909216602092830291909101909101528261126f81615a9a565b93505050808061127e90615ab1565b91505061117a565b505050505050505050565b6008546001600160a01b03163314806112b457506007546001600160a01b031633145b6112d05760405162461bcd60e51b8152600401610ef690615ad1565b600980546001600160a01b0319166001600160a01b0392909216919091179055565b6000818152600c602090815260409182902060030180548351818402810184019094528084526060939283018282801561135557602002820191906000526020600020905b81546001600160a01b03168152600190910190602001808311611337575b50505050509050919050565b600081815260026020526040808220600101546008549151632a4a9dd160e01b8152600481018590526001600160a01b03918216939283921690632a4a9dd19060240161010060405180830381865afa1580156113c2573d6000803e3d6000fd5b505050506040513d601f19601f820116820180604052508101906113e69190615a27565b5050955050505050915060006113fc82856118f4565b9050828151116114a0576000858152600c60209081526040909120825161142b92600390920191840190614f18565b50828151101561149957600854815160405163555f8d2d60e01b81526004810188905260248101919091526001600160a01b039091169063555f8d2d90604401600060405180830381600087803b15801561148557600080fd5b505af1158015611286573d6000803e3d6000fd5b5050505050565b5050506000828152600c602090815260408220600601805460ff19166001908117909155909152600b9052507f72c6bfb7988af3a1efa6568f02a999bc52252641c659d85961ca3d372b57d5cf55565b6008546001600160a01b031633148061151357506007546001600160a01b031633145b61152f5760405162461bcd60e51b8152600401610ef690615ad1565b600a80546001600160a01b0319166001600160a01b0392909216919091179055565b6006602052816000526040600020818154811061156d57600080fd5b90600052602060002001600091509150505481565b6008546001600160a01b03163314806115a557506007546001600160a01b031633145b6115c15760405162461bcd60e51b8152600401610ef690615ad1565b600854604051632841c2b760e21b8152600481018590526001600160a01b038481166024830152600092169063a1070adc90604401602060405180830381865afa158015611613573d6000803e3d6000fd5b505050506040513d601f19601f820116820180604052508101906116379190615af3565b9050600061164e8280670de0b6b3a76400006135b0565b90508215611665576116608482613422565b611499565b6114998482613316565b8061167a8133610dae565b8061168f57506007546001600160a01b031633145b6116ab5760405162461bcd60e51b8152600401610ef690615b0c565b60008281526005602090815260408083205483526004918290529182902054915163d746d3ef60e01b81529081018490526001600160a01b039091169063d746d3ef90602401600060405180830381600087803b15801561170b57600080fd5b505af115801561171f573d6000803e3d6000fd5b5050505061172c826135cf565b600854604051634cb4408760e01b8152600481018490526001600160a01b0390911690634cb44087906024015b600060405180830381600087803b15801561177357600080fd5b505af1158015611787573d6000803e3d6000fd5b505050505050565b6060600f8054806020026020016040519081016040528092919081815260200182805480156117e757602002820191906000526020600020905b81546001600160a01b031681526001909101906020018083116117c9575b5050505050905090565b806117fc8133610dae565b8061181157506007546001600160a01b031633145b61182d5760405162461bcd60e51b8152600401610ef690615b0c565b600082815260056020908152604080832054835260049182905280832054905163709a664160e11b81529182018590528291829182916001600160a01b039091169063e134cc82906024016080604051808303816000875af1158015611897573d6000803e3d6000fd5b505050506040513d601f19601f820116820180604052508101906118bb9190615b2a565b93509350935093506118d086858585856136b0565b6000868152602081905260409020546118eb90879084613966565b611787866135cf565b600f5460609060009061191090670de0b6b3a764000090615865565b905061191d60648561589a565b611aea57611946604051806040016040528060048152602001636865726560e01b815250613b85565b6001600160a01b0383166000908152600e602052604090205460ff1615611a8757600f5460009061197990600190615639565b6001600160401b0381111561199057611990615087565b6040519080825280602002602001820160405280156119b9578160200160208202803683370190505b5090506000805b600f54811015611a7b57600f81815481106119dd576119dd6158ae565b6000918252602090912001546001600160a01b0387811691161415611a055760019150611a69565b600f8181548110611a1857611a186158ae565b6000918252602090912001546001600160a01b031683611a388484615639565b81518110611a4857611a486158ae565b60200260200101906001600160a01b031690816001600160a01b0316815250505b80611a73816158c4565b9150506119c0565b50819350505050610a64565b600f805480602002602001604051908101604052809291908181526020018280548015611add57602002820191906000526020600020905b81546001600160a01b03168152600190910190602001808311611abf575b5050505050915050610a64565b6000611b18606486611b04670de0b6b3a764000083615865565b611b0e9190615639565b610d19919061589a565b9050611b2c670de0b6b3a76400008261589a565b905060606001600160a01b0385161580611b5f57506001600160a01b0385166000908152600e602052604090205460ff16155b15611c2657816001600160401b03811115611b7c57611b7c615087565b604051908082528060200260200182016040528015611ba5578160200160208202803683370190505b50905060005b82811015611c2057600f8181548110611bc657611bc66158ae565b9060005260206000200160009054906101000a90046001600160a01b0316828281518110611bf657611bf66158ae565b6001600160a01b039092166020928302919091019091015280611c18816158c4565b915050611bab565b50611d3a565b611c31600183615639565b6001600160401b03811115611c4857611c48615087565b604051908082528060200260200182016040528015611c71578160200160208202803683370190505b5090506000805b83811015611d3757866001600160a01b0316600f8281548110611c9d57611c9d6158ae565b6000918252602090912001546001600160a01b03161415611cc15760019150611d25565b600f8181548110611cd457611cd46158ae565b6000918252602090912001546001600160a01b031683611cf48484615639565b81518110611d0457611d046158ae565b60200260200101906001600160a01b031690816001600160a01b0316815250505b80611d2f816158c4565b915050611c78565b50505b95945050505050565b6008546000906001600160a01b0316331480611d6957506007546001600160a01b031633145b611d855760405162461bcd60e51b8152600401610ef690615ad1565b6000838152600c6020908152604080832060058101546001600160a01b0387168552925290912054611db69161345b565b6000938452600c602090815260408086206001600160a01b03909516865293905291832092909255919050565b611ded8133610dae565b611e265760405162461bcd60e51b815260206004820152600a60248201526910bb30b634b230ba37b960b11b6044820152606401610ef6565b6000818152600c6020908152604080832033845260010190915290205460ff16611e7b5760405162461bcd60e51b8152602060048201526006602482015265217374616b6560d01b6044820152606401610ef6565b600854604051638a6cac3d60e01b8152600481018390526000916001600160a01b031690638a6cac3d9060240160c060405180830381865afa158015611ec5573d6000803e3d6000fd5b505050506040513d601f19601f82011682018060405250810190611ee991906158df565b50505060008581526005602090815260408083205483526004909152902054929350506001600160a01b0390911690508115611f84576000838152600c60205260409020600a0154611f50903390611f4086612130565b6001600160a01b03169190613bcb565b6000838152600c60205260408120600a8101546008909101805491929091611f79908490615639565b90915550611fd49050565b6000838152600c60205260409020600b0154611fa5903390611f4086612130565b6000838152600c60205260408120600b8101546008909101805491929091611fce908490615639565b90915550505b50506000908152600c602090815260408083203384526001019091529020805460ff19169055565b6008546001600160a01b031633148061201f57506007546001600160a01b031633145b61203b5760405162461bcd60e51b8152600401610ef690615ad1565b6000918252600c602090815260408084206001600160a01b039093168452919052812055565b60085460405163054d50b360e21b8152600481018390526000916001600160a01b03169063153542cc90602401602060405180830381865afa1580156120ab573d6000803e3d6000fd5b505050506040513d601f19601f820116820180604052508101906120cf9190615b76565b6001600160a01b03166318160ddd6040518163ffffffff1660e01b8152600401602060405180830381865afa15801561210c573d6000803e3d6000fd5b505050506040513d601f19601f82011682018060405250810190610a649190615af3565b600090815260056020908152604080832054835260049091529020546001600160a01b031690565b6001600160a01b03831661217e5760405162461bcd60e51b8152600401610ef690615b93565b6101208201516001600160a01b03166121a95760405162461bcd60e51b8152600401610ef690615b93565b6000818152600460205260409020546001600160a01b03166121dd5760405162461bcd60e51b8152600401610ef690615b93565b600081815260046020818152604080842054600854825163764bc84160e11b815292516001600160a01b039283169695919092169363ec97908293808301939192908290030181865afa158015612238573d6000803e3d6000fd5b505050506040513d601f19601f8201168201806040525081019061225c9190615af3565b60008181526005602090815260408083208790558683526006825280832080546001818101835591855283852001859055815180830183526101208a01516001600160a01b0390811682528b8116828601908152878752600290955294839020905181549086166001600160a01b031991821617825593519101805491851691909316179091556008548151637572cb1f60e01b81529151939450821692634e042a5992861691637572cb1f916004808301926101009291908290030181865afa15801561232e573d6000803e3d6000fd5b505050506040513d601f19601f820116820180604052508101906123529190615bb5565b846001600160a01b0316636c321c8a6040518163ffffffff1660e01b8152600401602060405180830381865afa158015612390573d6000803e3d6000fd5b505050506040513d601f19601f820116820180604052508101906123b49190615af3565b846040518463ffffffff1660e01b81526004016123d393929190615c44565b600060405180830381600087803b1580156123ed57600080fd5b505af1158015612401573d6000803e3d6000fd5b5050600a5460008681526004602081815260408084205481516362eb326360e11b8152915194975087965086956001600160a01b039081169563981f513695919092169363c5d664c693808301939192908290030181865afa15801561246b573d6000803e3d6000fd5b505050506040513d601f19601f8201168201806040525081019061248f9190615b76565b60085460405160e084901b6001600160e01b03191681526001600160a01b039283166004820152911660248201526044016060604051808303816000875af11580156124df573d6000803e3d6000fd5b505050506040513d601f19601f820116820180604052508101906125039190615c66565b9250925092508660000151156126ae576101808701518051602082015160809092015160085460405163c6ceb96b60e01b8152600481018990526001600160a01b03868116956334327d8b95949093909291169063c6ceb96b9060240161010060405180830381865afa15801561257e573d6000803e3d6000fd5b505050506040513d601f19601f820116820180604052508101906125a29190615bb5565b602001516040516001600160e01b031960e087901b16815260048101949094526024840192909252604483015260648201526084016020604051808303816000875af11580156125f6573d6000803e3d6000fd5b505050506040513d601f19601f8201168201806040525081019061261a9190615af3565b61018088015160c0015260085461010088015160405163080ec90d60e21b81526001600160a01b039092169163203b243491612663918891869189918991600190600401615cd4565b600060405180830381600087803b15801561267d57600080fd5b505af1158015612691573d6000803e3d6000fd5b505050506101808701515187516126a9918691613c49565b612819565b60a087015160c088015160085460405163c6ceb96b60e01b8152600481018890526001600160a01b03858116946375e2d946949093909291169063c6ceb96b9060240161010060405180830381865afa15801561270f573d6000803e3d6000fd5b505050506040513d601f19601f820116820180604052508101906127339190615bb5565b602001516040516001600160e01b031960e086901b168152600481019390935260248301919091526044820152606401600060405180830381600087803b15801561277d57600080fd5b505af1158015612791573d6000803e3d6000fd5b50506008546101008a015160405163080ec90d60e21b81526001600160a01b03909216935063203b243492506127d4918891869189918991600090600401615cd4565b600060405180830381600087803b1580156127ee57600080fd5b505af1158015612802573d6000803e3d6000fd5b50505050612819848860a001518960000151613c49565b60808701849052604051631b9c373d60e21b81526001600160a01b03861690636e70dcf49061284c908a90600401615d45565b600060405180830381600087803b15801561286657600080fd5b505af115801561287a573d6000803e3d6000fd5b5050604080518781526001600160a01b038c1660208201527f5e2ab39d79551e4c4e66256d806dd566d4d015420519d2ed2621563488a5d2a8935001905060405180910390a15050506001600160a01b03909416600090815260036020526040902093909355505050565b6128ef8133610dae565b6129245760405162461bcd60e51b8152600401610ef690602080825260049082015263085d985b60e21b604082015260600190565b6000818152600c6020908152604080832033845260020190915290205460ff16156129795760405162461bcd60e51b81526020600482015260056024820152641d9bdd195960da1b6044820152606401610ef6565b6000818152600c60208181526040808420338552600281018352908420805460ff1916600117905584845290829052018054916129b5836158c4565b919050555050565b60008181526006602090815260409182902080548351818402810184019094528084526060939283018282801561135557602002820191906000526020600020905b8154815260200190600101908083116129ff5750505050509050919050565b60085460405163b1283e7760e01b81526004810183905260009182916001600160a01b039091169063b1283e7790602401600060405180830381865afa158015612a6c573d6000803e3d6000fd5b505050506040513d6000823e601f3d908101601f19168201604052612a949190810190615e62565b96505050505050508015612b9957612aab83612130565b6001600160a01b0316639ec4d40e846040518263ffffffff1660e01b8152600401612ad891815260200190565b600060405180830381865afa158015612af5573d6000803e3d6000fd5b505050506040513d6000823e601f3d908101601f19168201604052612b1d919081019061574c565b61018001515160085460405163661f1cf560e01b8152600481018690526001600160a01b039091169063661f1cf590602401602060405180830381865afa158015612b6c573d6000803e3d6000fd5b505050506040513d601f19601f82011682018060405250810190612b909190615af3565b10159392505050565b6000612ba484612130565b6001600160a01b0316639ec4d40e856040518263ffffffff1660e01b8152600401612bd191815260200190565b600060405180830381865afa158015612bee573d6000803e3d6000fd5b505050506040513d6000823e601f3d908101601f19168201604052612c16919081019061574c565b60a0015160085460405163c6ceb96b60e01b815260048101879052919250612c9a916001600160a01b039091169063c6ceb96b9060240161010060405180830381865afa158015612c6b573d6000803e3d6000fd5b505050506040513d601f19601f82011682018060405250810190612c8f9190615bb5565b60400151829061345b565b60085460405163661f1cf560e01b8152600481018790526001600160a01b039091169063661f1cf590602401602060405180830381865afa158015612ce3573d6000803e3d6000fd5b505050506040513d601f19601f82011682018060405250810190612d079190615af3565b1015949350505050565b50919050565b6000612d238233610dae565b612d3f5760405162461bcd60e51b8152600401610ef690615b0c565b612d4882612a1e565b612d815760405162461bcd60e51b815260206004820152600a60248201526910b1b7b73234ba34b7b760b11b6044820152606401610ef6565b6000828152600c60209081526040808320338452600181019092529091205460ff1615612dda5760405162461bcd60e51b8152602060048201526007602482015266085cdd185ad95960ca1b6044820152606401610ef6565b612dfe333083600a0154612ded87612130565b6001600160a01b0316929190613ca2565b80600a0154816008016000828254612e169190615f01565b909155505033600090815260018281016020526040808320805460ff19169092179091556008549051632a4a9dd160e01b8152600481018690526001600160a01b0390911690632a4a9dd19060240161010060405180830381865afa158015612e83573d6000803e3d6000fd5b505050506040513d601f19601f82011682018060405250810190612ea79190615a27565b5050505050505090506000818360040154612ec2919061589a565b90506000612edd84600501548361345b90919063ffffffff16565b33600090815260208690526040902054909150821015612f2a5760405162461bcd60e51b8152602060048201526008602482015267185c1c1c9bdd995960c21b6044820152606401610ef6565b3360009081526020859052604081208054849290612f49908490615f01565b90915550612f5a9050826001615f01565b846007016000828254612f6d9190615f01565b925050819055506001846009016000828254612f899190615f01565b909155505060085460405163334b11d360e11b81526004810188905260248101839052604481018490523360648201526001600160a01b039091169063669623a690608401600060405180830381600087803b158015612fe857600080fd5b505af1158015612ffc573d6000803e3d6000fd5b5050505061300986610a27565b15611d3a5761301786613d25565b60085460405163cabe2ae160e01b8152600481018890526001600160a01b039091169063cabe2ae190602401600060405180830381600087803b15801561305d57600080fd5b505af1158015613071573d6000803e3d6000fd5b5050505095945050505050565b6000818152600c60205260408082206004908101546008549251632a4a9dd160e01b81529182018590529183916001600160a01b0390911690632a4a9dd19060240161010060405180830381865afa1580156130de573d6000803e3d6000fd5b505050506040513d601f19601f820116820180604052508101906131029190615a27565b50505050505050905060008183613119919061589a565b6000868152600c6020526040902060050154909150611d3a90829061345b565b6008546001600160a01b031633148061315c57506007546001600160a01b031633145b6131785760405162461bcd60e51b8152600401610ef690615ad1565b6001600160a01b03811661318b57600080fd5b600880546001600160a01b0319166001600160a01b0392909216919091179055565b6008546001600160a01b03163314806131d057506007546001600160a01b031633145b6131ec5760405162461bcd60e51b8152600401610ef690615ad1565b6131f582612130565b600854604051633c16f3ed60e21b8152600481018490526001600160a01b03918216602482015291169063f05bcfb490604401611759565b60008061323a84866142f6565b90506000613253610d1983670de0b6b3a7640000615639565b9050600061326187866142f6565b90508261326e828461345b565b6132789190615f01565b979650505050505050565b60008061328f8461430b565b90506000670de0b6b3a76400006132a7836001615f01565b600f546132b49190615639565b6132be9190615865565b600f549091506000906132da90670de0b6b3a764000090615865565b905060006132e883836142f6565b6132f3906064615865565b9050858110613309576001945050505050610a64565b6000945050505050610a64565b6001600160a01b0382166000908152600d60205260409020548110613353576001600160a01b0382166000908152600d6020526040812055613381565b6001600160a01b0382166000908152600d60205260408120805483929061337b908490615639565b90915550505b61338c826000614363565b5050565b6008546001600160a01b03163314806133b357506007546001600160a01b031633145b6133cf5760405162461bcd60e51b8152600401610ef690615ad1565b600081815260056020908152604080832054835260049182905291829020549151633c16f3ed60e21b81529081018590526001600160a01b0384811660248301529091169063f05bcfb490604401610fc0565b6001600160a01b0382166000908152600d60205260408120805483929061344a908490615f01565b9091555061338c9050826001614363565b6000610bf28383670de0b6b3a76400006135b0565b60008060005b848160ff1610156134e257600d6000878360ff168151811061349a5761349a6158ae565b60200260200101516001600160a01b03166001600160a01b0316815260200190815260200160002054826134ce9190615f01565b9150806134da81615ab1565b915050613476565b5060006134ef8285615f19565b905060005b858160ff161015613571576000600d6000898460ff168151811061351a5761351a6158ae565b60200260200101516001600160a01b03166001600160a01b031681526020019081526020016000205490508083101561355b575060ff169250610bf2915050565b909103908061356981615ab1565b9150506134f4565b506135a76040518060400160405280601481526020017373686f756c64206e65766572206265206865726560601b815250613b85565b50509392505050565b8282028115158415858304851417166135c857600080fd5b0492915050565b60085460405163068bcd8d60e01b8152600481018390526001600160a01b039091169063068bcd8d90602401602060405180830381865afa158015613618573d6000803e3d6000fd5b505050506040513d601f19601f8201168201806040525081019061363c9190615b76565b6001600160a01b03166396fd1c4261365383612130565b6040516001600160e01b031960e084901b1681526001600160a01b0390911660048201526000196024820152604401600060405180830381600087803b15801561369c57600080fd5b505af1158015611499573d6000803e3d6000fd5b83156136c45782156136c4576136c4615a84565b60085460405163054d50b360e21b8152600481018790526000916001600160a01b03169063153542cc90602401602060405180830381865afa15801561370e573d6000803e3d6000fd5b505050506040513d601f19601f820116820180604052508101906137329190615b76565b6001600160a01b03166318160ddd6040518163ffffffff1660e01b8152600401602060405180830381865afa15801561376f573d6000803e3d6000fd5b505050506040513d601f19601f820116820180604052508101906137939190615af3565b905060008085116137a5576000613873565b60085460405163920f4e5560e01b8152600481018990526001600160a01b039091169063920f4e5590602401602060405180830381865afa1580156137ee573d6000803e3d6000fd5b505050506040513d601f19601f820116820180604052508101906138129190615b76565b6001600160a01b03166318160ddd6040518163ffffffff1660e01b8152600401602060405180830381865afa15801561384f573d6000803e3d6000fd5b505050506040513d601f19601f820116820180604052508101906138739190615af3565b90506000866138a9576138906138898385615f01565b87906142f6565b6138a290670de0b6b3a7640000615f01565b90506138e8565b6138b385846142f6565b670de0b6b3a7640000116138c9575060006138e8565b6138d385846142f6565b6138e590670de0b6b3a7640000615639565b90505b6008546040516361fa5af560e01b8152600481018a9052881515602482015285156044820152606481018390526001600160a01b03909116906361fa5af590608401600060405180830381600087803b15801561394457600080fd5b505af1158015613958573d6000803e3d6000fd5b505050505050505050505050565b806139885750506000908152600c60205260409020600a810154600b90910155565b60008381526005602090815260408083205483526004918290528083205490516363737ac960e11b81529182018590526001600160a01b03169190829063c6e6f59290602401602060405180830381865afa1580156139eb573d6000803e3d6000fd5b505050506040513d601f19601f82011682018060405250810190613a0f9190615af3565b6040516363737ac960e11b8152600481018590529091506000906001600160a01b0384169063c6e6f59290602401602060405180830381865afa158015613a5a573d6000803e3d6000fd5b505050506040513d601f19601f82011682018060405250810190613a7e9190615af3565b6000878152600c6020526040812060080154919250613abb613aa160028461589a565b613ab586613aaf8782615639565b906142f6565b9061345b565b613ac660028461589a565b613ad09190615f01565b9050613adb88612130565b6001600160a01b03166342966c68613af38385615639565b6040518263ffffffff1660e01b8152600401613b1191815260200190565b600060405180830381600087803b158015613b2b57600080fd5b505af1158015613b3f573d6000803e3d6000fd5b5050506000898152600c602052604090206008810183905560030154613b6691508261589a565b6000988952600c6020526040909820600b019790975550505050505050565b613bc881604051602401613b999190615f2d565b60408051601f198184030181529190526020810180516001600160e01b031663104c13eb60e21b1790526146fb565b50565b600060405163a9059cbb60e01b8152836004820152826024820152602060006044836000895af13d15601f3d1160016000511416171691505080613c435760405162461bcd60e51b815260206004820152600f60248201526e1514905394d1915497d19052531151608a1b6044820152606401610ef6565b50505050565b81613c845760405162461bcd60e51b815260206004820152600b60248201526a0c081c1c9a5b98da5c185b60aa1b6044820152606401610ef6565b613c8d83611361565b613c9883838361471c565b610a9983836148fe565b60006040516323b872dd60e01b81528460048201528360248201528260448201526020600060648360008a5af13d15601f3d11600160005114161716915050806114995760405162461bcd60e51b81526020600482015260146024820152731514905394d1915497d19493d357d1905253115160621b6044820152606401610ef6565b600081815260056020908152604080832054835260049182905280832054600854915163068bcd8d60e01b81529283018590526001600160a01b03908116939291169063068bcd8d90602401602060405180830381865afa158015613d8e573d6000803e3d6000fd5b505050506040513d601f19601f82011682018060405250810190613db29190615b76565b600854604051634bee760b60e11b8152600481018690529192506001600160a01b0316906397dcec1690602401602060405180830381865afa158015613dfc573d6000803e3d6000fd5b505050506040513d601f19601f82011682018060405250810190613e209190615af3565b600314613e625760405162461bcd60e51b815260206004820152601060248201526f10b6b0b935b2ba21b7b73234ba34b7b760811b6044820152606401610ef6565b60405163238f0e7560e11b8152600481018490526001600160a01b0383169063471e1cea90602401602060405180830381865afa158015613ea7573d6000803e3d6000fd5b505050506040513d601f19601f82011682018060405250810190613ecb9190615f40565b613f0e5760405162461bcd60e51b815260206004820152601460248201527310b4b739ba393ab6b2b73a21b7b73234ba34b7b760611b6044820152606401610ef6565b60085460405163b1283e7760e01b8152600481018590526000916001600160a01b03169063b1283e7790602401600060405180830381865afa158015613f58573d6000803e3d6000fd5b505050506040513d6000823e601f3d908101601f19168201604052613f809190810190615e62565b60085460405163661f1cf560e01b8152600481018d9052919850600097506001600160a01b0316955063661f1cf594506024019250613fbd915050565b602060405180830381865afa158015613fda573d6000803e3d6000fd5b505050506040513d601f19601f82011682018060405250810190613ffe9190615af3565b905081156141565760085460405163054d50b360e21b8152600481018790526141519187916001600160a01b039091169063153542cc90602401602060405180830381865afa158015614055573d6000803e3d6000fd5b505050506040513d601f19601f820116820180604052508101906140799190615b76565b6001600160a01b03166318160ddd6040518163ffffffff1660e01b8152600401602060405180830381865afa1580156140b6573d6000803e3d6000fd5b505050506040513d601f19601f820116820180604052508101906140da9190615af3565b604051634f626a0760e11b8152600481018990526001600160a01b03881690639ec4d40e90602401600060405180830381865afa15801561411f573d6000803e3d6000fd5b505050506040513d6000823e601f3d908101601f19168201604052614147919081019061574c565b6101800151614a31565b6141d6565b6040516303d972f160e21b8152600481018690526001600160a01b03851690630f65cbc490602401602060405180830381865afa15801561419b573d6000803e3d6000fd5b505050506040513d601f19601f820116820180604052508101906141bf9190615af3565b6141cd576141518584614ad4565b6141d685614d0d565b604051634b7e8e2160e11b81526001600160a01b038581166004830152602482018390528416906396fd1c4290604401600060405180830381600087803b15801561422057600080fd5b505af1158015614234573d6000803e3d6000fd5b505050600086815260208190526040908190209051636a9f1bdb60e01b81526004810188905281546024820152600190910154604482015283151560648201526001600160a01b0386169150636a9f1bdb90608401600060405180830381600087803b1580156142a357600080fd5b505af11580156142b7573d6000803e3d6000fd5b50505050826001600160a01b0316638d01450f6040518163ffffffff1660e01b8152600401600060405180830381600087803b15801561148557600080fd5b6000610bf283670de0b6b3a7640000846135b0565b6000805b600f54811015612d1157600f818154811061432c5761432c6158ae565b6000918252602090912001546001600160a01b03848116911614156143515792915050565b8061435b816158c4565b91505061430f565b6001600160a01b0382166000908152600d6020908152604080832054600e9092529091205460ff1661457c576001600160a01b0383166000908152600e60205260409020805460ff19166001179055600f5461440d575050600f80546001810182556000919091527f8d1108e10bcb7c27dddfc02ed9d693a074039d026cf4ea4240b40f7d581ac8020180546001600160a01b0319166001600160a01b0392909216919091179055565b60005b600f54811015613c4357600d6000600f8381548110614431576144316158ae565b60009182526020808320909101546001600160a01b031683528201929092526040019020548211156144fe57600f80546001818101835560008390527f8d1108e10bcb7c27dddfc02ed9d693a074039d026cf4ea4240b40f7d581ac80290910180546001600160a01b031916905590546144b69183916144b19190615639565b614dc6565b83600f82815481106144ca576144ca6158ae565b9060005260206000200160006101000a8154816001600160a01b0302191690836001600160a01b0316021790555050505050565b600f5461450d90600190615639565b81141561456a575050600f80546001810182556000919091527f8d1108e10bcb7c27dddfc02ed9d693a074039d026cf4ea4240b40f7d581ac8020180546001600160a01b0319166001600160a01b03939093169290921790915550565b80614574816158c4565b915050614410565b60006145878461430b565b9050801580156145945750825b806145b55750600f546145a990600190615639565b811480156145b5575082155b156145c05750505050565b821561467f5760005b8181101561467957600d6000600f83815481106145e8576145e86158ae565b60009182526020808320909101546001600160a01b031683528201929092526040019020548311156146675761461e8183614dc6565b84600f8281548110614632576146326158ae565b9060005260206000200160006101000a8154816001600160a01b0302191690836001600160a01b031602179055505050505050565b80614671816158c4565b9150506145c9565b50613c43565b600f5460009061469190600190615639565b90505b8181111561149957600d6000600f83815481106146b3576146b36158ae565b60009182526020808320909101546001600160a01b031683528201929092526040019020548310156146e95761461e8282614e54565b806146f381615a9a565b915050614694565b80516a636f6e736f6c652e6c6f67602083016000808483855afa5050505050565b60085460405163068bcd8d60e01b8152600481018590526000916001600160a01b03169063068bcd8d90602401602060405180830381865afa158015614766573d6000803e3d6000fd5b505050506040513d601f19601f8201168201806040525081019061478a9190615b76565b600854604051632a4a9dd160e01b8152600481018790529192506000916001600160a01b0390911690632a4a9dd19060240161010060405180830381865afa1580156147da573d6000803e3d6000fd5b505050506040513d601f19601f820116820180604052508101906147fe9190615a27565b50505050505091505061481081614ee2565b8015614820575061482084614ee2565b6148575760405162461bcd60e51b81526020600482015260086024820152673830b930b6a2a92960c11b6044820152606401610ef6565b6000858152600c6020526040812090614870838761345b565b90506000846001600160a01b0316637063b06c6040518163ffffffff1660e01b8152600401602060405180830381865afa1580156148b2573d6000803e3d6000fd5b505050506040513d601f19601f820116820180604052508101906148d69190615af3565b905060006148e483836142f6565b600485019290925550600590920191909155505050505050565b60008281526005602090815260408083205483526004918290528083205490516363737ac960e11b81529182018490526001600160a01b03169190829063c6e6f59290602401602060405180830381865afa158015614961573d6000803e3d6000fd5b505050506040513d601f19601f820116820180604052508101906149859190615af3565b600854604051632a4a9dd160e01b8152600481018790529192506000916001600160a01b0390911690632a4a9dd19060240161010060405180830381865afa1580156149d5573d6000803e3d6000fd5b505050506040513d601f19601f820116820180604052508101906149f99190615a27565b975050505050505050614a15828261345b90919063ffffffff16565b6000958652600c6020526040909520600a019490945550505050565b60008160a0015111614a745760405162461bcd60e51b815260206004820152600c60248201526b18102622ab2fa320a1aa27a960a11b6044820152606401610ef6565b6040518060400160405280614aa98360800151613ab58560a00151670de0b6b3a7640000614aa29190615f01565b879061345b565b8152600060209182018190529485528481526040909420815181559301516001909301929092555050565b60008281526005602090815260408083205483526004918290528083205490516318353be960e21b815291820185905282916001600160a01b03909116906360d4efa4906024016040805180830381865afa158015614b37573d6000803e3d6000fd5b505050506040513d601f19601f82011682018060405250810190614b5b9190615f5d565b60085460405163661f1cf560e01b815260048101889052929450909250600091614c6391614c5d916001600160a01b039091169063661f1cf590602401602060405180830381865afa158015614bb5573d6000803e3d6000fd5b505050506040513d601f19601f82011682018060405250810190614bd99190615af3565b60085460405163c6ceb96b60e01b8152600481018a9052670de0b6b3a7640000916001600160a01b03169063c6ceb96b9060240161010060405180830381865afa158015614c2b573d6000803e3d6000fd5b505050506040513d601f19601f82011682018060405250810190614c4f9190615bb5565b60c00151613ab59190615f01565b84614f01565b90506000614cd9856001600160a01b03166314e2b929846040518263ffffffff1660e01b8152600401614c9891815260200190565b602060405180830381865afa158015614cb5573d6000803e3d6000fd5b505050506040513d601f19601f82011682018060405250810190614c5d9190615af3565b6040805180820182529384526020808501928352600098895288905290962091518255509351600190940193909355505050565b60008181526005602090815260408083205483526004918290528083205490516318353be960e21b815291820184905282916001600160a01b03909116906360d4efa4906024016040805180830381865afa158015614d70573d6000803e3d6000fd5b505050506040513d601f19601f82011682018060405250810190614d949190615f5d565b604080518082018252928352602080840192835260009687528690529094209051815592516001909301929092555050565b805b82811115610a9957600f614ddd600183615639565b81548110614ded57614ded6158ae565b600091825260209091200154600f80546001600160a01b039092169183908110614e1957614e196158ae565b600091825260209091200180546001600160a01b0319166001600160a01b039290921691909117905580614e4c81615a9a565b915050614dc8565b815b81811015610a9957600f614e6b826001615f01565b81548110614e7b57614e7b6158ae565b600091825260209091200154600f80546001600160a01b039092169183908110614ea757614ea76158ae565b600091825260209091200180546001600160a01b0319166001600160a01b039290921691909117905580614eda816158c4565b915050614e56565b6000614ef8612710670de0b6b3a764000061589a565b90911015919050565b600081831115614f115781610bf2565b5090919050565b828054828255906000526020600020908101928215614f6d579160200282015b82811115614f6d57825182546001600160a01b0319166001600160a01b03909116178255602090920191600190910190614f38565b50614f79929150614f7d565b5090565b5b80821115614f795760008155600101614f7e565b600060208284031215614fa457600080fd5b5035919050565b6001600160a01b0381168114613bc857600080fd5b8035614fcb81614fab565b919050565b60008060408385031215614fe357600080fd5b8235614fee81614fab565b946020939093013593505050565b8015158114613bc857600080fd5b8035614fcb81614ffc565b6000806040838503121561502857600080fd5b82359150602083013561503a81614ffc565b809150509250929050565b60006020828403121561505757600080fd5b8135610bf281614fab565b6000806040838503121561507557600080fd5b82359150602083013561503a81614fab565b634e487b7160e01b600052604160045260246000fd5b60405161010081016001600160401b03811182821017156150c0576150c0615087565b60405290565b60405160e081016001600160401b03811182821017156150c0576150c0615087565b6040516101a081016001600160401b03811182821017156150c0576150c0615087565b604051601f8201601f191681016001600160401b038111828210171561513357615133615087565b604052919050565b6000806000806000808688036101a081121561515657600080fd5b873561516181614fab565b9650602088013561517181614ffc565b9550604088013594506060880135935060808801359250610100609f19820181131561519c57600080fd5b6151a461509d565b915060a0890135825260c0890135602083015260e0890135604083015280890135606083015250610120880135608082015261014088013560a082015261016088013560c082015261018088013560e0820152809150509295509295509295565b6000806040838503121561521857600080fd5b823591506020808401356001600160401b038082111561523757600080fd5b818601915086601f83011261524b57600080fd5b81358181111561525d5761525d615087565b8060051b915061526e84830161510b565b818152918301840191848101908984111561528857600080fd5b938501935b838510156152a65784358252938501939085019061528d565b8096505050505050509250929050565b6020808252825182820181905260009190848201906040850190845b81811015611d375783516001600160a01b0316835292840192918401916001016152d2565b6000806040838503121561530a57600080fd5b50508035926020909101359150565b60008060006060848603121561532e57600080fd5b83359250602084013561534081614fab565b9150604084013561535081614ffc565b809150509250925092565b60006001600160401b0382111561537457615374615087565b50601f01601f191660200190565b600082601f83011261539357600080fd5b81356153a66153a18261535b565b61510b565b8181528460208386010111156153bb57600080fd5b816020850160208301376000918101602001919091529392505050565b60048110613bc857600080fd5b8035614fcb816153d8565b600060e0828403121561540257600080fd5b61540a6150c6565b9050813581526020820135602082015260408201356040820152606082013560608201526080820135608082015260a082013560a082015260c082013560c082015292915050565b60008060006060848603121561546757600080fd5b833561547281614fab565b925060208401356001600160401b038082111561548e57600080fd5b9085019061026082880312156154a357600080fd5b6154ab6150e8565b6154b48361500a565b81526154c26020840161500a565b602082015260408301356040820152606083013560608201526080830135608082015260a083013560a082015260c083013560c082015260e083013560e0820152610100808401358381111561551757600080fd5b6155238a828701615382565b8284015250506101209150615539828401614fc0565b82820152610140915061554d8284016153e5565b8282015261016091508183013582820152610180915061556f888385016153f0565b82820152809450505050604084013590509250925092565b6020808252825182820181905260009190848201906040850190845b81811015611d37578351835292840192918401916001016155a3565b6000806000606084860312156155d457600080fd5b505081359360208301359350604090920135919050565b60008060006060848603121561560057600080fd5b83359250602084013561561281614fab565b929592945050506040919091013590565b634e487b7160e01b600052601160045260246000fd5b60008282101561564b5761564b615623565b500390565b8051614fcb81614ffc565b60005b8381101561567657818101518382015260200161565e565b83811115613c435750506000910152565b600082601f83011261569857600080fd5b81516156a66153a18261535b565b8181528460208386010111156156bb57600080fd5b6156cc82602083016020870161565b565b949350505050565b8051614fcb81614fab565b8051614fcb816153d8565b600060e082840312156156fc57600080fd5b6157046150c6565b9050815181526020820151602082015260408201516040820152606082015160608201526080820151608082015260a082015160a082015260c082015160c082015292915050565b60006020828403121561575e57600080fd5b81516001600160401b038082111561577557600080fd5b90830190610260828603121561578a57600080fd5b6157926150e8565b61579b83615650565b81526157a960208401615650565b602082015260408301516040820152606083015160608201526080830151608082015260a083015160a082015260c083015160c082015260e083015160e082015261010080840151838111156157fe57600080fd5b61580a88828701615687565b82840152505061012091506158208284016156d4565b8282015261014091506158348284016156df565b82820152610160915081830151828201526101809150615856868385016156ea565b91810191909152949350505050565b600081600019048311821515161561587f5761587f615623565b500290565b634e487b7160e01b600052601260045260246000fd5b6000826158a9576158a9615884565b500490565b634e487b7160e01b600052603260045260246000fd5b60006000198214156158d8576158d8615623565b5060010190565b60008060008060008060c087890312156158f857600080fd5b865161590381614ffc565b602088015190965061591481614ffc565b604088015190955061592581614ffc565b606088015190945061593681614ffc565b608088015190935061594781614ffc565b8092505060a087015190509295509295509295565b805182526020810151602083015260408101516040830152606081015160608301526080810151608083015260a081015160a083015260c081015160c083015260e081015160e08301525050565b6001600160a01b038881168252871660208201528515156040820152606081018590526080810184905260a081018390526101c081016159ed60c083018461595c565b98975050505050505050565b60008060408385031215615a0c57600080fd5b8251615a1781614fab565b6020939093015192949293505050565b600080600080600080600080610100898b031215615a4457600080fd5b505086516020880151604089015160608a015160808b015160a08c015160c08d015160e0909d0151959e949d50929b919a50985090965094509092509050565b634e487b7160e01b600052600160045260246000fd5b600081615aa957615aa9615623565b506000190190565b600060ff821660ff811415615ac857615ac8615623565b60010192915050565b60208082526008908201526710b6b0b730b3b2b960c11b604082015260600190565b600060208284031215615b0557600080fd5b5051919050565b6020808252600490820152630855985b60e21b604082015260600190565b60008060008060808587031215615b4057600080fd5b8451615b4b81614ffc565b8094505060208501519250604085015191506060850151615b6b81614ffc565b939692955090935050565b600060208284031215615b8857600080fd5b8151610bf281614fab565b602080825260089082015267061646472657373360c41b604082015260600190565b6000610100808385031215615bc957600080fd5b604051908101906001600160401b0382118183101715615beb57615beb615087565b81604052835181526020840151602082015260408401516040820152606084015160608201526080840151608082015260a084015160a082015260c084015160c082015260e084015160e0820152809250505092915050565b6101408101615c53828661595c565b6101008201939093526101200152919050565b600080600060608486031215615c7b57600080fd5b8351615c8681614fab565b6020850151909350615c9781614fab565b604085015190925061535081614fab565b60008151808452615cc081602086016020860161565b565b601f01601f19169290920160200192915050565b8681526001600160a01b03868116602083015285811660408301528416606082015260c060808201819052600090615d0e90830185615ca8565b905082151560a0830152979650505050505050565b60048110615d4157634e487b7160e01b600052602160045260246000fd5b9052565b60208152615d5860208201835115159052565b60006020830151615d6d604084018215159052565b506040830151606083015260608301516080830152608083015160a083015260a083015160c083015260c083015160e083015260e083015161010081818501528085015191505061012061026081850152615dcc610280850183615ca8565b90850151909150610140615dea858201836001600160a01b03169052565b8501519050610160615dfe85820183615d23565b8501516101808581019190915285015180516101a086015260208101516101c086015260408101516101e08601526060810151610200860152608081015161022086015260a081015161024086015260c08101516102608601529050509392505050565b600080600080600080600060e0888a031215615e7d57600080fd5b8751615e8881614fab565b6020890151909750615e9981614fab565b6040890151909650615eaa81614fab565b60608901519095506001600160401b03811115615ec657600080fd5b615ed28a828b01615687565b9450506080880151925060a0880151915060c0880151615ef181614ffc565b8091505092959891949750929550565b60008219821115615f1457615f14615623565b500190565b600082615f2857615f28615884565b500690565b602081526000610bf26020830184615ca8565b600060208284031215615f5257600080fd5b8151610bf281614ffc565b60008060408385031215615f7057600080fd5b50508051602090910151909290915056fea26469706673582212205c8f04fb2d0a382b5adfa31348533fcfcc52e6abb0ea9a79ef3e0c3841c9758e64736f6c634300080c0033",
  "linkReferences": {},
  "deployedLinkReferences": {}
}