{
  "abi": [
    {
      "inputs": [
        {
          "internalType": "address",
          "name": "_creator_address",
          "type": "address"
        },
        {
          "internalType": "address",
          "name": "_interep_address",
          "type": "address"
        }
      ],
      "stateMutability": "nonpayable",
      "type": "constructor"
    },
    {
      "anonymous": false,
      "inputs": [
        {
          "indexed": false,
          "internalType": "uint256",
          "name": "marketId",
          "type": "uint256"
        },
        {
          "indexed": false,
          "internalType": "address",
          "name": "recipient",
          "type": "address"
        }
      ],
      "name": "MarketInitiated",
      "type": "event"
    },
    {
      "inputs": [
        {
          "internalType": "uint256",
          "name": "marketId",
          "type": "uint256"
        }
      ],
      "name": "_getValidators",
      "outputs": [],
      "stateMutability": "nonpayable",
      "type": "function"
    },
    {
      "inputs": [
        {
          "internalType": "address",
          "name": "",
          "type": "address"
        }
      ],
      "name": "ad_to_id",
      "outputs": [
        {
          "internalType": "uint256",
          "name": "",
          "type": "uint256"
        }
      ],
      "stateMutability": "view",
      "type": "function"
    },
    {
      "inputs": [
        {
          "internalType": "uint256",
          "name": "marketId",
          "type": "uint256"
        }
      ],
      "name": "approvalCondition",
      "outputs": [
        {
          "internalType": "bool",
          "name": "",
          "type": "bool"
        }
      ],
      "stateMutability": "view",
      "type": "function"
    },
    {
      "inputs": [
        {
          "internalType": "uint256",
          "name": "marketId",
          "type": "uint256"
        }
      ],
      "name": "beforeResolve",
      "outputs": [],
      "stateMutability": "nonpayable",
      "type": "function"
    },
    {
      "inputs": [
        {
          "internalType": "uint256",
          "name": "bondAmount",
          "type": "uint256"
        },
        {
          "internalType": "uint256",
          "name": "collateral_amount",
          "type": "uint256"
        },
        {
          "internalType": "uint256",
          "name": "budget",
          "type": "uint256"
        }
      ],
      "name": "calcImpliedProbability",
      "outputs": [
        {
          "internalType": "uint256",
          "name": "",
          "type": "uint256"
        }
      ],
      "stateMutability": "pure",
      "type": "function"
    },
    {
      "inputs": [
        {
          "internalType": "address",
          "name": "underlying",
          "type": "address"
        },
        {
          "internalType": "bool",
          "name": "_onlyVerified",
          "type": "bool"
        },
        {
          "internalType": "uint256",
          "name": "_r",
          "type": "uint256"
        },
        {
          "internalType": "uint256",
          "name": "_asset_limit",
          "type": "uint256"
        },
        {
          "internalType": "uint256",
          "name": "_total_asset_limit",
          "type": "uint256"
        },
        {
          "components": [
            {
              "internalType": "uint256",
              "name": "N",
              "type": "uint256"
            },
            {
              "internalType": "uint256",
              "name": "sigma",
              "type": "uint256"
            },
            {
              "internalType": "uint256",
              "name": "alpha",
              "type": "uint256"
            },
            {
              "internalType": "uint256",
              "name": "omega",
              "type": "uint256"
            },
            {
              "internalType": "uint256",
              "name": "delta",
              "type": "uint256"
            },
            {
              "internalType": "uint256",
              "name": "r",
              "type": "uint256"
            },
            {
              "internalType": "uint256",
              "name": "s",
              "type": "uint256"
            },
            {
              "internalType": "uint256",
              "name": "steak",
              "type": "uint256"
            }
          ],
          "internalType": "struct MarketManager.MarketParameters",
          "name": "default_params",
          "type": "tuple"
        }
      ],
      "name": "createVault",
      "outputs": [],
      "stateMutability": "nonpayable",
      "type": "function"
    },
    {
      "inputs": [
        {
          "internalType": "uint256",
          "name": "marketId",
          "type": "uint256"
        }
      ],
      "name": "deduct_selling_fee",
      "outputs": [
        {
          "internalType": "uint256",
          "name": "",
          "type": "uint256"
        }
      ],
      "stateMutability": "view",
      "type": "function"
    },
    {
      "inputs": [
        {
          "internalType": "uint256",
          "name": "marketId",
          "type": "uint256"
        },
        {
          "internalType": "address",
          "name": "validator",
          "type": "address"
        }
      ],
      "name": "deniedValidator",
      "outputs": [
        {
          "internalType": "uint256",
          "name": "collateral_amount",
          "type": "uint256"
        }
      ],
      "stateMutability": "nonpayable",
      "type": "function"
    },
    {
      "inputs": [
        {
          "internalType": "uint256",
          "name": "marketId",
          "type": "uint256"
        }
      ],
      "name": "denyMarket",
      "outputs": [],
      "stateMutability": "nonpayable",
      "type": "function"
    },
    {
      "inputs": [
        {
          "internalType": "uint256",
          "name": "marketId",
          "type": "uint256"
        },
        {
          "internalType": "bool",
          "name": "emergency",
          "type": "bool"
        }
      ],
      "name": "forceCloseInstrument",
      "outputs": [
        {
          "internalType": "bool",
          "name": "",
          "type": "bool"
        }
      ],
      "stateMutability": "nonpayable",
      "type": "function"
    },
    {
      "inputs": [
        {
          "internalType": "uint256",
          "name": "requestId",
          "type": "uint256"
        },
        {
          "internalType": "uint256[]",
          "name": "randomWords",
          "type": "uint256[]"
        }
      ],
      "name": "fulfillRandomWords",
      "outputs": [],
      "stateMutability": "nonpayable",
      "type": "function"
    },
    {
      "inputs": [
        {
          "internalType": "uint256",
          "name": "marketId",
          "type": "uint256"
        }
      ],
      "name": "getApprovalData",
      "outputs": [
        {
          "components": [
            {
              "internalType": "uint256",
              "name": "approved_principal",
              "type": "uint256"
            },
            {
              "internalType": "uint256",
              "name": "approved_yield",
              "type": "uint256"
            }
          ],
          "internalType": "struct Controller.ApprovalData",
          "name": "",
          "type": "tuple"
        }
      ],
      "stateMutability": "view",
      "type": "function"
    },
    {
      "inputs": [
        {
          "internalType": "uint256",
          "name": "marketId",
          "type": "uint256"
        }
      ],
      "name": "getFinalStake",
      "outputs": [
        {
          "internalType": "uint256",
          "name": "",
          "type": "uint256"
        }
      ],
      "stateMutability": "view",
      "type": "function"
    },
    {
      "inputs": [
        {
          "internalType": "uint256",
          "name": "marketId",
          "type": "uint256"
        }
      ],
      "name": "getInitialStake",
      "outputs": [
        {
          "internalType": "uint256",
          "name": "",
          "type": "uint256"
        }
      ],
      "stateMutability": "view",
      "type": "function"
    },
    {
      "inputs": [
        {
          "internalType": "address",
          "name": "recipient",
          "type": "address"
        }
      ],
      "name": "getMarketId",
      "outputs": [
        {
          "internalType": "uint256",
          "name": "",
          "type": "uint256"
        }
      ],
      "stateMutability": "view",
      "type": "function"
    },
    {
      "inputs": [
        {
          "internalType": "uint256",
          "name": "vaultId",
          "type": "uint256"
        }
      ],
      "name": "getMarketIds",
      "outputs": [
        {
          "internalType": "uint256[]",
          "name": "",
          "type": "uint256[]"
        }
      ],
      "stateMutability": "view",
      "type": "function"
    },
    {
      "inputs": [
        {
          "internalType": "uint256",
          "name": "marketId",
          "type": "uint256"
        }
      ],
      "name": "getNumApproved",
      "outputs": [
        {
          "internalType": "uint256",
          "name": "",
          "type": "uint256"
        }
      ],
      "stateMutability": "view",
      "type": "function"
    },
    {
      "inputs": [
        {
          "internalType": "uint256",
          "name": "marketId",
          "type": "uint256"
        }
      ],
      "name": "getNumResolved",
      "outputs": [
        {
          "internalType": "uint256",
          "name": "",
          "type": "uint256"
        }
      ],
      "stateMutability": "view",
      "type": "function"
    },
    {
      "inputs": [
        {
          "internalType": "uint256",
          "name": "marketId",
          "type": "uint256"
        }
      ],
      "name": "getTotalStaked",
      "outputs": [
        {
          "internalType": "uint256",
          "name": "",
          "type": "uint256"
        }
      ],
      "stateMutability": "view",
      "type": "function"
    },
    {
      "inputs": [
        {
          "internalType": "uint256",
          "name": "marketId",
          "type": "uint256"
        }
      ],
      "name": "getTotalSupply",
      "outputs": [
        {
          "internalType": "uint256",
          "name": "",
          "type": "uint256"
        }
      ],
      "stateMutability": "view",
      "type": "function"
    },
    {
      "inputs": [
        {
          "internalType": "uint256",
          "name": "marketId",
          "type": "uint256"
        }
      ],
      "name": "getTotalValidatorSales",
      "outputs": [
        {
          "internalType": "uint256",
          "name": "",
          "type": "uint256"
        }
      ],
      "stateMutability": "view",
      "type": "function"
    },
    {
      "inputs": [
        {
          "internalType": "address",
          "name": "trader",
          "type": "address"
        }
      ],
      "name": "getTraderScore",
      "outputs": [
        {
          "internalType": "uint256",
          "name": "",
          "type": "uint256"
        }
      ],
      "stateMutability": "view",
      "type": "function"
    },
    {
      "inputs": [
        {
          "internalType": "uint256",
          "name": "marketId",
          "type": "uint256"
        }
      ],
      "name": "getValidatorCap",
      "outputs": [
        {
          "internalType": "uint256",
          "name": "",
          "type": "uint256"
        }
      ],
      "stateMutability": "view",
      "type": "function"
    },
    {
      "inputs": [
        {
          "internalType": "uint256",
          "name": "marketId",
          "type": "uint256"
        }
      ],
      "name": "getValidatorPrice",
      "outputs": [
        {
          "internalType": "uint256",
          "name": "",
          "type": "uint256"
        }
      ],
      "stateMutability": "view",
      "type": "function"
    },
    {
      "inputs": [
        {
          "internalType": "uint256",
          "name": "marketId",
          "type": "uint256"
        }
      ],
      "name": "getValidatorRequiredCollateral",
      "outputs": [
        {
          "internalType": "uint256",
          "name": "",
          "type": "uint256"
        }
      ],
      "stateMutability": "view",
      "type": "function"
    },
    {
      "inputs": [
        {
          "internalType": "uint256",
          "name": "marketId",
          "type": "uint256"
        }
      ],
      "name": "getVault",
      "outputs": [
        {
          "internalType": "contract Vault",
          "name": "",
          "type": "address"
        }
      ],
      "stateMutability": "view",
      "type": "function"
    },
    {
      "inputs": [
        {
          "internalType": "uint256",
          "name": "marketId",
          "type": "uint256"
        }
      ],
      "name": "getVaultAd",
      "outputs": [
        {
          "internalType": "address",
          "name": "",
          "type": "address"
        }
      ],
      "stateMutability": "view",
      "type": "function"
    },
    {
      "inputs": [
        {
          "internalType": "uint256",
          "name": "vaultId",
          "type": "uint256"
        }
      ],
      "name": "getVaultfromId",
      "outputs": [
        {
          "internalType": "address",
          "name": "",
          "type": "address"
        }
      ],
      "stateMutability": "view",
      "type": "function"
    },
    {
      "inputs": [
        {
          "internalType": "uint256",
          "name": "marketId",
          "type": "uint256"
        },
        {
          "internalType": "address",
          "name": "validator",
          "type": "address"
        }
      ],
      "name": "hasApproved",
      "outputs": [
        {
          "internalType": "bool",
          "name": "",
          "type": "bool"
        }
      ],
      "stateMutability": "view",
      "type": "function"
    },
    {
      "inputs": [
        {
          "internalType": "uint256",
          "name": "",
          "type": "uint256"
        }
      ],
      "name": "id_parent",
      "outputs": [
        {
          "internalType": "uint256",
          "name": "",
          "type": "uint256"
        }
      ],
      "stateMutability": "view",
      "type": "function"
    },
    {
      "inputs": [
        {
          "internalType": "address",
          "name": "recipient",
          "type": "address"
        },
        {
          "components": [
            {
              "internalType": "bytes32",
              "name": "name",
              "type": "bytes32"
            },
            {
              "internalType": "bool",
              "name": "isPool",
              "type": "bool"
            },
            {
              "internalType": "bool",
              "name": "trusted",
              "type": "bool"
            },
            {
              "internalType": "uint256",
              "name": "balance",
              "type": "uint256"
            },
            {
              "internalType": "uint256",
              "name": "faceValue",
              "type": "uint256"
            },
            {
              "internalType": "uint256",
              "name": "marketId",
              "type": "uint256"
            },
            {
              "internalType": "uint256",
              "name": "principal",
              "type": "uint256"
            },
            {
              "internalType": "uint256",
              "name": "expectedYield",
              "type": "uint256"
            },
            {
              "internalType": "uint256",
              "name": "duration",
              "type": "uint256"
            },
            {
              "internalType": "string",
              "name": "description",
              "type": "string"
            },
            {
              "internalType": "address",
              "name": "instrument_address",
              "type": "address"
            },
            {
              "internalType": "enum Vault.InstrumentType",
              "name": "instrument_type",
              "type": "uint8"
            },
            {
              "internalType": "uint256",
              "name": "maturityDate",
              "type": "uint256"
            },
            {
              "components": [
                {
                  "internalType": "uint256",
                  "name": "saleAmount",
                  "type": "uint256"
                },
                {
                  "internalType": "uint256",
                  "name": "initPrice",
                  "type": "uint256"
                },
                {
                  "internalType": "uint256",
                  "name": "promisedReturn",
                  "type": "uint256"
                },
                {
                  "internalType": "uint256",
                  "name": "inceptionTime",
                  "type": "uint256"
                },
                {
                  "internalType": "uint256",
                  "name": "inceptionPrice",
                  "type": "uint256"
                },
                {
                  "internalType": "uint256",
                  "name": "leverageFactor",
                  "type": "uint256"
                },
                {
                  "internalType": "uint256",
                  "name": "managementFee",
                  "type": "uint256"
                }
              ],
              "internalType": "struct Vault.PoolData",
              "name": "poolData",
              "type": "tuple"
            }
          ],
          "internalType": "struct Vault.InstrumentData",
          "name": "instrumentData",
          "type": "tuple"
        },
        {
          "internalType": "uint256",
          "name": "vaultId",
          "type": "uint256"
        }
      ],
      "name": "initiateMarket",
      "outputs": [],
      "stateMutability": "nonpayable",
      "type": "function"
    },
    {
      "inputs": [
        {
          "internalType": "address",
          "name": "trader",
          "type": "address"
        },
        {
          "internalType": "uint256",
          "name": "r",
          "type": "uint256"
        }
      ],
      "name": "isReputable",
      "outputs": [
        {
          "internalType": "bool",
          "name": "",
          "type": "bool"
        }
      ],
      "stateMutability": "view",
      "type": "function"
    },
    {
      "inputs": [
        {
          "internalType": "uint256",
          "name": "marketId",
          "type": "uint256"
        },
        {
          "internalType": "address",
          "name": "user",
          "type": "address"
        }
      ],
      "name": "isValidator",
      "outputs": [
        {
          "internalType": "bool",
          "name": "",
          "type": "bool"
        }
      ],
      "stateMutability": "view",
      "type": "function"
    },
    {
      "inputs": [
        {
          "internalType": "address",
          "name": "addr",
          "type": "address"
        }
      ],
      "name": "isVerified",
      "outputs": [
        {
          "internalType": "bool",
          "name": "",
          "type": "bool"
        }
      ],
      "stateMutability": "view",
      "type": "function"
    },
    {
      "inputs": [
        {
          "internalType": "uint256",
          "name": "marketId",
          "type": "uint256"
        }
      ],
      "name": "marketCondition",
      "outputs": [
        {
          "internalType": "bool",
          "name": "",
          "type": "bool"
        }
      ],
      "stateMutability": "view",
      "type": "function"
    },
    {
      "inputs": [
        {
          "internalType": "uint256",
          "name": "marketId",
          "type": "uint256"
        }
      ],
      "name": "marketIdToVaultId",
      "outputs": [
        {
          "internalType": "uint256",
          "name": "",
          "type": "uint256"
        }
      ],
      "stateMutability": "view",
      "type": "function"
    },
    {
      "inputs": [
        {
          "internalType": "uint256",
          "name": "marketId",
          "type": "uint256"
        }
      ],
      "name": "marketId_to_vaultId",
      "outputs": [
        {
          "internalType": "uint256",
          "name": "",
          "type": "uint256"
        }
      ],
      "stateMutability": "view",
      "type": "function"
    },
    {
      "inputs": [
        {
          "internalType": "uint256",
          "name": "",
          "type": "uint256"
        }
      ],
      "name": "market_data",
      "outputs": [
        {
          "internalType": "address",
          "name": "instrument_address",
          "type": "address"
        },
        {
          "internalType": "address",
          "name": "utilizer",
          "type": "address"
        }
      ],
      "stateMutability": "view",
      "type": "function"
    },
    {
      "inputs": [
        {
          "internalType": "uint256",
          "name": "marketId",
          "type": "uint256"
        },
        {
          "internalType": "uint256",
          "name": "amount",
          "type": "uint256"
        }
      ],
      "name": "pullLeverage",
      "outputs": [],
      "stateMutability": "nonpayable",
      "type": "function"
    },
    {
      "inputs": [
        {
          "internalType": "uint256",
          "name": "marketId",
          "type": "uint256"
        },
        {
          "internalType": "address",
          "name": "validator",
          "type": "address"
        }
      ],
      "name": "redeemValidator",
      "outputs": [],
      "stateMutability": "nonpayable",
      "type": "function"
    },
    {
      "inputs": [
        {
          "internalType": "uint256",
          "name": "amount",
          "type": "uint256"
        },
        {
          "internalType": "address",
          "name": "to",
          "type": "address"
        },
        {
          "internalType": "uint256",
          "name": "marketId",
          "type": "uint256"
        }
      ],
      "name": "redeem_transfer",
      "outputs": [],
      "stateMutability": "nonpayable",
      "type": "function"
    },
    {
      "inputs": [
        {
          "internalType": "uint256",
          "name": "marketId",
          "type": "uint256"
        }
      ],
      "name": "resolveCondition",
      "outputs": [
        {
          "internalType": "bool",
          "name": "",
          "type": "bool"
        }
      ],
      "stateMutability": "view",
      "type": "function"
    },
    {
      "inputs": [
        {
          "internalType": "uint256",
          "name": "marketId",
          "type": "uint256"
        }
      ],
      "name": "resolveMarket",
      "outputs": [],
      "stateMutability": "nonpayable",
      "type": "function"
    },
    {
      "inputs": [],
      "name": "riskTransferPenalty",
      "outputs": [
        {
          "internalType": "uint256",
          "name": "",
          "type": "uint256"
        }
      ],
      "stateMutability": "view",
      "type": "function"
    },
    {
      "inputs": [
        {
          "internalType": "address",
          "name": "_marketManager",
          "type": "address"
        }
      ],
      "name": "setMarketManager",
      "outputs": [],
      "stateMutability": "nonpayable",
      "type": "function"
    },
    {
      "inputs": [
        {
          "internalType": "address",
          "name": "_poolFactory",
          "type": "address"
        }
      ],
      "name": "setPoolFactory",
      "outputs": [],
      "stateMutability": "nonpayable",
      "type": "function"
    },
    {
      "inputs": [
        {
          "internalType": "address",
          "name": "_reputationManager",
          "type": "address"
        }
      ],
      "name": "setReputationManager",
      "outputs": [],
      "stateMutability": "nonpayable",
      "type": "function"
    },
    {
      "inputs": [
        {
          "internalType": "address",
          "name": "_vaultFactory",
          "type": "address"
        }
      ],
      "name": "setVaultFactory",
      "outputs": [],
      "stateMutability": "nonpayable",
      "type": "function"
    },
    {
      "inputs": [],
      "name": "testVerifyAddress",
      "outputs": [],
      "stateMutability": "nonpayable",
      "type": "function"
    },
    {
      "inputs": [
        {
          "internalType": "uint256",
          "name": "marketId",
          "type": "uint256"
        }
      ],
      "name": "unlockValidatorStake",
      "outputs": [],
      "stateMutability": "nonpayable",
      "type": "function"
    },
    {
      "inputs": [
        {
          "internalType": "uint256",
          "name": "marketId",
          "type": "uint256"
        },
        {
          "internalType": "address",
          "name": "trader",
          "type": "address"
        },
        {
          "internalType": "bool",
          "name": "increment",
          "type": "bool"
        }
      ],
      "name": "updateReputation",
      "outputs": [],
      "stateMutability": "nonpayable",
      "type": "function"
    },
    {
      "inputs": [
        {
          "internalType": "uint256",
          "name": "marketId",
          "type": "uint256"
        }
      ],
      "name": "validatorApprove",
      "outputs": [
        {
          "internalType": "uint256",
          "name": "",
          "type": "uint256"
        }
      ],
      "stateMutability": "nonpayable",
      "type": "function"
    },
    {
      "inputs": [
        {
          "internalType": "uint256",
          "name": "marketId",
          "type": "uint256"
        }
      ],
      "name": "validatorResolve",
      "outputs": [],
      "stateMutability": "nonpayable",
      "type": "function"
    },
    {
      "inputs": [
        {
          "internalType": "uint256",
          "name": "",
          "type": "uint256"
        }
      ],
      "name": "validator_data",
      "outputs": [
        {
          "internalType": "uint256",
          "name": "val_cap",
          "type": "uint256"
        },
        {
          "internalType": "uint256",
          "name": "avg_price",
          "type": "uint256"
        },
        {
          "internalType": "bool",
          "name": "requested",
          "type": "bool"
        },
        {
          "internalType": "uint256",
          "name": "totalSales",
          "type": "uint256"
        },
        {
          "internalType": "uint256",
          "name": "totalStaked",
          "type": "uint256"
        },
        {
          "internalType": "uint256",
          "name": "numApproved",
          "type": "uint256"
        },
        {
          "internalType": "uint256",
          "name": "initialStake",
          "type": "uint256"
        },
        {
          "internalType": "uint256",
          "name": "finalStake",
          "type": "uint256"
        },
        {
          "internalType": "uint256",
          "name": "numResolved",
          "type": "uint256"
        }
      ],
      "stateMutability": "view",
      "type": "function"
    },
    {
      "inputs": [
        {
          "internalType": "uint256",
          "name": "",
          "type": "uint256"
        },
        {
          "internalType": "uint256",
          "name": "",
          "type": "uint256"
        }
      ],
      "name": "vault_to_marketIds",
      "outputs": [
        {
          "internalType": "uint256",
          "name": "",
          "type": "uint256"
        }
      ],
      "stateMutability": "view",
      "type": "function"
    },
    {
      "inputs": [
        {
          "internalType": "uint256",
          "name": "",
          "type": "uint256"
        }
      ],
      "name": "vaults",
      "outputs": [
        {
          "internalType": "contract Vault",
          "name": "",
          "type": "address"
        }
      ],
      "stateMutability": "view",
      "type": "function"
    },
    {
      "inputs": [
        {
          "internalType": "address",
          "name": "",
          "type": "address"
        }
      ],
      "name": "verified",
      "outputs": [
        {
          "internalType": "bool",
          "name": "",
          "type": "bool"
        }
      ],
      "stateMutability": "view",
      "type": "function"
    },
    {
      "inputs": [
        {
          "internalType": "uint256",
          "name": "marketId",
          "type": "uint256"
        }
      ],
      "name": "viewValidators",
      "outputs": [
        {
          "internalType": "address[]",
          "name": "",
          "type": "address[]"
        }
      ],
      "stateMutability": "view",
      "type": "function"
    }
  ],
  "bytecode": {
    "object": "0x60806040523480156200001157600080fd5b506040516200571538038062005715833981016040819052620000349162000078565b50600780546001600160a01b0319166001600160a01b0392909216919091179055620000b0565b80516001600160a01b03811681146200007357600080fd5b919050565b600080604083850312156200008c57600080fd5b62000097836200005b565b9150620000a7602084016200005b565b90509250929050565b61565580620000c06000396000f3fe608060405234801561001057600080fd5b506004361061038e5760003560e01c80638c64ea4a116101de578063b9209e331161010f578063d82aff11116100ad578063e8e3fbb71161007c578063e8e3fbb714610a0f578063ebd4dc4614610a22578063f0fd1d3814610a45578063f25fcc9f14610a5857600080fd5b8063d82aff11146109c3578063da0a697f146109d6578063dda10bca146109e9578063e8a78026146109fc57600080fd5b8063ce93ec67116100e9578063ce93ec6714610449578063d12271361461097a578063d466461c1461098d578063d65ec964146109b057600080fd5b8063b9209e33146108a4578063c4abc650146107b4578063c8fa33e7146108d057600080fd5b80639403b6341161017c578063ac1b6b0111610156578063ac1b6b0114610813578063ad4e4e701461085e578063b1b7e1f214610871578063b743939b1461089157600080fd5b80639403b634146107b45780639fe1458b146107c7578063a40c63f7146107f057600080fd5b80638f5709a5116101b85780638f5709a51461074b5780638fbbc8681461075e57806392ab723e1461077e578063937b6feb1461079157600080fd5b80638c64ea4a146106a35780638d4f16d7146106e45780638dc3d9b41461073857600080fd5b80633ea7fbdb116102c357806356a837f411610261578063805798ac11610230578063805798ac1461061f57806381e1b07c14610642578063830e2a021461066d578063875e487e1461068057600080fd5b806356a837f4146105ca5780636399d03d146105dd57806365bc5ef9146105f05780637789ec5a146105ff57600080fd5b8063473597a01161029d578063473597a01461057e578063482c0aa814610591578063494ef447146105a45780634cb44087146105b757600080fd5b80633ea7fbdb146105385780633ec8dc3b1461054b578063457a89f61461056b57600080fd5b80632358d5a8116103305780632f8899f31161030a5780632f8899f3146104cc578063340e04b3146104ef57806337bc93b01461050257806338ba46141461052557600080fd5b80632358d5a81461046957806323f2a73f146104a65780632b858734146104b957600080fd5b806308ad90a51161036c57806308ad90a5146104005780630c33df18146104135780630db065f41461042657806314f2b14c1461044957600080fd5b806303cccb351461039357806305a1ce99146103b757806308a8333f146103df575b600080fd5b6103b5336000908152600160208190526040909120805460ff19169091179055565b005b6103ca6103c5366004614585565b610a81565b60405190151581526020015b60405180910390f35b6103f26103ed366004614585565b610ac4565b6040519081526020016103d6565b6103f261040e3660046145c6565b610c0a565b6103ca6104213660046145fc565b610c79565b6103ca6104343660046145c6565b60016020526000908152604090205460ff1681565b6103f2610457366004614585565b60009081526005602052604090205490565b6103ca61047736600461462c565b6000828152600d602090815260408083206001600160a01b038516845260010190915290205460ff1692915050565b6103ca6104b436600461462c565b610d54565b6103b56104c7366004614585565b610dce565b6103f26104da366004614585565b6000908152600d602052604090206008015490565b6103b56104fd366004614709565b610f9c565b6103f2610510366004614585565b6000908152600d602052604090206007015490565b6103b56105333660046147f7565b611055565b6103b56105463660046145c6565b6112a0565b61055e610559366004614585565b611301565b6040516103d69190614899565b6103b5610579366004614585565b611370565b6103b561058c3660046145c6565b611577565b6103f261059f3660046148e6565b6115d8565b6103b56105b2366004614908565b611609565b6103b56105c5366004614585565b611781565b6103b56105d83660046145c6565b6118a1565b6103b56105eb366004614585565b611902565b6103f267016345785d8a000081565b6103f261060d3660046145c6565b60036020526000908152604090205481565b6103f261062d366004614585565b6000908152600d602052604090206009015490565b6103ca610650366004614585565b6000908152600d602052604090206003810154600c909101541490565b6103f261067b36600461462c565b611a05565b6103f261068e366004614585565b6000908152600d60205260409020600a015490565b6106cc6106b1366004614585565b6004602052600090815260409020546001600160a01b031681565b6040516001600160a01b0390911681526020016103d6565b6107186106f2366004614585565b600260205260009081526040902080546001909101546001600160a01b03918216911682565b604080516001600160a01b039384168152929091166020830152016103d6565b6103b5610746366004614585565b611aa5565b6103b561075936600461462c565b611cbe565b6103f261076c366004614585565b60056020526000908152604090205481565b6103f261078c366004614585565b611d23565b6103f261079f366004614585565b6000908152600d60205260409020600b015490565b6106cc6107c2366004614585565b611dce565b6106cc6107d5366004614585565b6000908152600460205260409020546001600160a01b031690565b6103f26107fe366004614585565b6000908152600d602052604090206005015490565b610843610821366004614585565b6040805180820190915260008082526020820152600091825260209190915290565b604080518251815260209283015192810192909252016103d6565b6103b561086c366004614585565b611df6565b61088461087f366004614585565b611ecf565b6040516103d6919061494a565b6103ca61089f366004614585565b611f30565b6103ca6108b23660046145c6565b6001600160a01b031660009081526001602052604090205460ff1690565b6109306108de366004614585565b600d602052600090815260409020600481015460058201546006830154600784015460088501546009860154600a870154600b880154600c909801549697959660ff9095169593949293919290919089565b60408051998a5260208a0198909852951515968801969096526060870193909352608086019190915260a085015260c084015260e0830191909152610100820152610120016103d6565b6103f2610988366004614585565b612223565b6103f261099b366004614585565b6000908152600d602052604090206004015490565b6103f26109be366004614585565b61258b565b6103b56109d13660046145c6565b612646565b6103b56109e43660046148e6565b6126ba565b6103f26109f7366004614982565b61273a565b6103ca610a0a3660046149ae565b612797565b6103b5610a1d366004614acd565b61280d565b6103f2610a30366004614585565b6000908152600d60205260409020600c015490565b6103b5610a53366004614c0f565b612f9e565b6103f2610a663660046145c6565b6001600160a01b031660009081526003602052604090205490565b6000818152600d60205260408120600481015460079091015410801590610abe57506000828152600d602052604090206009810154600390910154145b92915050565b600080610ad083611dce565b6001600160a01b0316639ec4d40e846040518263ffffffff1660e01b8152600401610afd91815260200190565b600060405180830381865afa158015610b1a573d6000803e3d6000fd5b505050506040513d6000823e601f3d908101601f19168201604052610b429190810190614d3b565b6101000151670de0b6b3a764000042610b5a86611dce565b6001600160a01b0316639ec4d40e876040518263ffffffff1660e01b8152600401610b8791815260200190565b600060405180830381865afa158015610ba4573d6000803e3d6000fd5b505050506040513d6000823e601f3d908101601f19168201604052610bcc9190810190614d3b565b6101800151610bdb9190614e77565b610be59190614e8a565b610bef9190614eb7565b9050610c038167016345785d8a0000613030565b9392505050565b600b546040516344c7439360e01b81526001600160a01b03838116600483015260009216906344c7439390602401602060405180830381865afa158015610c55573d6000803e3d6000fd5b505050506040513d601f19601f82011682018060405250810190610abe9190614ecb565b60008281526005602090815260408083205483526004918290528083205490516359dc5c6f60e01b81529182018590526001600160a01b03169081906359dc5c6f90602401600060405180830381600087803b158015610cd857600080fd5b505af1158015610cec573d6000803e3d6000fd5b5050604051630ae161cd60e21b8152600481018790526001600160a01b0384169250632b8587349150602401600060405180830381600087803b158015610d3257600080fd5b505af1158015610d46573d6000803e3d6000fd5b506001979650505050505050565b6000828152600d60205260408120600301815b8154811015610dc357836001600160a01b0316828281548110610d8c57610d8c614ee4565b6000918252602090912001546001600160a01b031603610db157600192505050610abe565b80610dbb81614efa565b915050610d67565b506000949350505050565b600854604051638a6cac3d60e01b81526004810183905260009182916001600160a01b0390911690638a6cac3d9060240160c060405180830381865afa158015610e1c573d6000803e3d6000fd5b505050506040513d601f19601f82011682018060405250810190610e409190614f13565b505093505050915081158015610e535750805b610ea45760405162461bcd60e51b815260206004820152601960248201527f6d61726b657420636f6e646974696f6e73206e6f74206d65740000000000000060448201526064015b60405180910390fd5b6000838152600d602052604090206003810154600c9091015414610f1e5760405162461bcd60e51b815260206004820152602b60248201527f6e6f7420656e6f7567682076616c696461746f7273206861766520766f74656460448201526a20746f207265736f6c766560a81b6064820152608401610e9b565b600083815260056020908152604080832054835260049182905291829020549151630ae161cd60e21b81529081018590526001600160a01b0390911690632b858734906024015b600060405180830381600087803b158015610f7f57600080fd5b505af1158015610f93573d6000803e3d6000fd5b50505050505050565b60095460405163da33133360e01b815260009182916001600160a01b039091169063da33133390610fdd908b9030908c908c908c908c908c90600401614fde565b60408051808303816000875af1158015610ffb573d6000803e3d6000fd5b505050506040513d601f19601f8201168201806040525081019061101f919061502d565b600090815260046020526040902080546001600160a01b0319166001600160a01b03929092169190911790555050505050505050565b6000828152600c6020526040808220546008549151632a4a9dd160e01b81526004810182905290929182916001600160a01b0390911690632a4a9dd19060240161010060405180830381865afa1580156110b3573d6000803e3d6000fd5b505050506040513d601f19601f820116820180604052508101906110d7919061505b565b50509550505050509150818451146110f1576110f16150b8565b60008381526002602052604080822060010154600b549151631535c04160e11b8152600481018590526001600160a01b039182166024820181905293929190911690632a6b808290604401600060405180830381865afa158015611159573d6000803e3d6000fd5b505050506040513d6000823e601f3d908101601f1916820160405261118191908101906150ce565b805190915060005b858160ff1610156112955760006111bd84848b8560ff16815181106111b0576111b0614ee4565b6020026020010151613045565b9050600d60008981526020019081526020016000206003018482815181106111e7576111e7614ee4565b60209081029190910181015182546001808201855560009485529290932090920180546001600160a01b0319166001600160a01b039093169290921790915584906112329085614e77565b8151811061124257611242614ee4565b602002602001015184828151811061125c5761125c614ee4565b6001600160a01b03909216602092830291909101909101528261127e8161515d565b93505050808061128d90615174565b915050611189565b505050505050505050565b6008546001600160a01b03163314806112c357506007546001600160a01b031633145b6112df5760405162461bcd60e51b8152600401610e9b90615193565b600980546001600160a01b0319166001600160a01b0392909216919091179055565b6000818152600d602090815260409182902060030180548351818402810184019094528084526060939283018282801561136457602002820191906000526020600020905b81546001600160a01b03168152600190910190602001808311611346575b50505050509050919050565b600081815260026020526040808220600101546008549151632a4a9dd160e01b8152600481018590526001600160a01b03918216939283921690632a4a9dd19060240161010060405180830381865afa1580156113d1573d6000803e3d6000fd5b505050506040513d601f19601f820116820180604052508101906113f5919061505b565b5050600b54604051631535c04160e11b8152600481018390526001600160a01b038b81166024830152979950919750600096169450632a6b80829350604401915061143d9050565b600060405180830381865afa15801561145a573d6000803e3d6000fd5b505050506040513d6000823e601f3d908101601f1916820160405261148291908101906150ce565b905082815111611527576000858152600d6020908152604090912082516114b19260039092019184019061450b565b50828151101561152057600854815160405163555f8d2d60e01b81526004810188905260248101919091526001600160a01b039091169063555f8d2d906044015b600060405180830381600087803b15801561150c57600080fd5b505af1158015611295573d6000803e3d6000fd5b5050505050565b5050506000828152600d602090815260408220600601805460ff19166001908117909155909152600c9052507fd421a5181c571bba3f01190c922c3b2a896fc1d84e86c9f17ac10e67ebef8b5c55565b6008546001600160a01b031633148061159a57506007546001600160a01b031633145b6115b65760405162461bcd60e51b8152600401610e9b90615193565b600a80546001600160a01b0319166001600160a01b0392909216919091179055565b600660205281600052604060002081815481106115f457600080fd5b90600052602060002001600091509150505481565b6008546001600160a01b031633148061162c57506007546001600160a01b031633145b6116485760405162461bcd60e51b8152600401610e9b90615193565b600854604051632841c2b760e21b8152600481018590526001600160a01b038481166024830152600092169063a1070adc90604401602060405180830381865afa15801561169a573d6000803e3d6000fd5b505050506040513d601f19601f820116820180604052508101906116be9190614ecb565b905060006116d58280670de0b6b3a7640000613108565b9050821561174857600b546040516370b2466960e11b81526001600160a01b038681166004830152602482018490529091169063e1648cd290604401600060405180830381600087803b15801561172b57600080fd5b505af115801561173f573d6000803e3d6000fd5b50505050611520565b600b5460405163224e1c2d60e01b81526001600160a01b038681166004830152602482018490529091169063224e1c2d906044016114f2565b8061178c8133610d54565b806117a157506007546001600160a01b031633145b6117bd5760405162461bcd60e51b8152600401610e9b906151b5565b60008281526005602090815260408083205483526004918290529182902054915163d746d3ef60e01b81529081018490526001600160a01b039091169063d746d3ef90602401600060405180830381600087803b15801561181d57600080fd5b505af1158015611831573d6000803e3d6000fd5b5050505061183e82613127565b600854604051634cb4408760e01b8152600481018490526001600160a01b0390911690634cb44087906024015b600060405180830381600087803b15801561188557600080fd5b505af1158015611899573d6000803e3d6000fd5b505050505050565b6008546001600160a01b03163314806118c457506007546001600160a01b031633145b6118e05760405162461bcd60e51b8152600401610e9b90615193565b600b80546001600160a01b0319166001600160a01b0392909216919091179055565b8061190d8133610d54565b8061192257506007546001600160a01b031633145b61193e5760405162461bcd60e51b8152600401610e9b906151b5565b600082815260056020908152604080832054835260049182905280832054905163709a664160e11b81529182018590528291829182916001600160a01b039091169063e134cc82906024016080604051808303816000875af11580156119a8573d6000803e3d6000fd5b505050506040513d601f19601f820116820180604052508101906119cc91906151d3565b93509350935093506119e18685858585613208565b6000868152602081905260409020546119fc908790846134be565b61189986613127565b6008546000906001600160a01b0316331480611a2b57506007546001600160a01b031633145b611a475760405162461bcd60e51b8152600401610e9b90615193565b6000838152600d6020908152604080832060058101546001600160a01b0387168552925290912054611a7891613030565b6000938452600d602090815260408086206001600160a01b03909516865293905291832092909255919050565b611aaf8133610d54565b611ae85760405162461bcd60e51b815260206004820152600a60248201526910bb30b634b230ba37b960b11b6044820152606401610e9b565b6000818152600d6020908152604080832033845260010190915290205460ff16611b3d5760405162461bcd60e51b8152602060048201526006602482015265217374616b6560d01b6044820152606401610e9b565b600854604051638a6cac3d60e01b8152600481018390526000916001600160a01b031690638a6cac3d9060240160c060405180830381865afa158015611b87573d6000803e3d6000fd5b505050506040513d601f19601f82011682018060405250810190611bab9190614f13565b50505060008581526005602090815260408083205483526004909152902054929350506001600160a01b0390911690508115611c46576000838152600d60205260409020600a0154611c12903390611c0286611dce565b6001600160a01b031691906136e0565b6000838152600d60205260408120600a8101546008909101805491929091611c3b908490614e77565b90915550611c969050565b6000838152600d60205260409020600b0154611c67903390611c0286611dce565b6000838152600d60205260408120600b8101546008909101805491929091611c90908490614e77565b90915550505b50506000908152600d602090815260408083203384526001019091529020805460ff19169055565b6008546001600160a01b0316331480611ce157506007546001600160a01b031633145b611cfd5760405162461bcd60e51b8152600401610e9b90615193565b6000918252600d602090815260408084206001600160a01b039093168452919052812055565b60085460405163054d50b360e21b8152600481018390526000916001600160a01b03169063153542cc90602401602060405180830381865afa158015611d6d573d6000803e3d6000fd5b505050506040513d601f19601f82011682018060405250810190611d91919061521f565b6001600160a01b03166318160ddd6040518163ffffffff1660e01b8152600401602060405180830381865afa158015610c55573d6000803e3d6000fd5b600090815260056020908152604080832054835260049091529020546001600160a01b031690565b611e008133610d54565b611e355760405162461bcd60e51b8152600401610e9b90602080825260049082015263085d985b60e21b604082015260600190565b6000818152600d6020908152604080832033845260020190915290205460ff1615611e8a5760405162461bcd60e51b81526020600482015260056024820152641d9bdd195960da1b6044820152606401610e9b565b6000818152600d60208181526040808420338552600281018352908420805460ff19166001179055848452919052600c01805491611ec783614efa565b919050555050565b60008181526006602090815260409182902080548351818402810184019094528084526060939283018282801561136457602002820191906000526020600020905b815481526020019060010190808311611f115750505050509050919050565b60085460405163b1283e7760e01b81526004810183905260009182916001600160a01b039091169063b1283e7790602401600060405180830381865afa158015611f7e573d6000803e3d6000fd5b505050506040513d6000823e601f3d908101601f19168201604052611fa6919081019061523c565b965050505050505080156120ab57611fbd83611dce565b6001600160a01b0316639ec4d40e846040518263ffffffff1660e01b8152600401611fea91815260200190565b600060405180830381865afa158015612007573d6000803e3d6000fd5b505050506040513d6000823e601f3d908101601f1916820160405261202f9190810190614d3b565b6101a001515160085460405163661f1cf560e01b8152600481018690526001600160a01b039091169063661f1cf590602401602060405180830381865afa15801561207e573d6000803e3d6000fd5b505050506040513d601f19601f820116820180604052508101906120a29190614ecb565b10159392505050565b60006120b684611dce565b6001600160a01b0316639ec4d40e856040518263ffffffff1660e01b81526004016120e391815260200190565b600060405180830381865afa158015612100573d6000803e3d6000fd5b505050506040513d6000823e601f3d908101601f191682016040526121289190810190614d3b565b60c0015160085460405163c6ceb96b60e01b8152600481018790529192506121ac916001600160a01b039091169063c6ceb96b9060240161010060405180830381865afa15801561217d573d6000803e3d6000fd5b505050506040513d601f19601f820116820180604052508101906121a191906152dc565b604001518290613030565b60085460405163661f1cf560e01b8152600481018790526001600160a01b039091169063661f1cf590602401602060405180830381865afa1580156121f5573d6000803e3d6000fd5b505050506040513d601f19601f820116820180604052508101906122199190614ecb565b1015949350505050565b600061222f8233610d54565b61224b5760405162461bcd60e51b8152600401610e9b906151b5565b61225482611f30565b61228d5760405162461bcd60e51b815260206004820152600a60248201526910b1b7b73234ba34b7b760b11b6044820152606401610e9b565b6000828152600d60209081526040808320338452600181019092529091205460ff16156122e65760405162461bcd60e51b8152602060048201526007602482015266085cdd185ad95960ca1b6044820152606401610e9b565b61230a333083600a01546122f987611dce565b6001600160a01b031692919061375e565b80600a0154816008016000828254612322919061536c565b909155505033600090815260018281016020526040808320805460ff19169092179091556008549051632a4a9dd160e01b8152600481018690526001600160a01b0390911690632a4a9dd19060240161010060405180830381865afa15801561238f573d6000803e3d6000fd5b505050506040513d601f19601f820116820180604052508101906123b3919061505b565b50505050505050905060008183600401546123ce9190614eb7565b905060006123e984600501548361303090919063ffffffff16565b336000908152602086905260409020549091508210156124365760405162461bcd60e51b8152602060048201526008602482015267185c1c1c9bdd995960c21b6044820152606401610e9b565b336000908152602085905260408120805484929061245590849061536c565b90915550612466905082600161536c565b846007016000828254612479919061536c565b925050819055506001846009016000828254612495919061536c565b909155505060085460405163334b11d360e11b81526004810188905260248101839052604481018490523360648201526001600160a01b039091169063669623a690608401600060405180830381600087803b1580156124f457600080fd5b505af1158015612508573d6000803e3d6000fd5b5050505061251586610a81565b1561258257612523866137e1565b60085460405163cabe2ae160e01b8152600481018890526001600160a01b039091169063cabe2ae190602401600060405180830381600087803b15801561256957600080fd5b505af115801561257d573d6000803e3d6000fd5b505050505b95945050505050565b6000818152600d60205260408082206004908101546008549251632a4a9dd160e01b81529182018590529183916001600160a01b0390911690632a4a9dd19060240161010060405180830381865afa1580156125eb573d6000803e3d6000fd5b505050506040513d601f19601f8201168201806040525081019061260f919061505b565b505050505050509050600081836126269190614eb7565b6000868152600d6020526040902060050154909150612582908290613030565b6008546001600160a01b031633148061266957506007546001600160a01b031633145b6126855760405162461bcd60e51b8152600401610e9b90615193565b6001600160a01b03811661269857600080fd5b600880546001600160a01b0319166001600160a01b0392909216919091179055565b6008546001600160a01b03163314806126dd57506007546001600160a01b031633145b6126f95760405162461bcd60e51b8152600401610e9b90615193565b61270282611dce565b600854604051633c16f3ed60e21b8152600481018490526001600160a01b03918216602482015291169063f05bcfb49060440161186b565b6000806127478486613db5565b9050600061276761276083670de0b6b3a7640000614e77565b8390613030565b905060006127758786613db5565b9050826127828284613030565b61278c919061536c565b979650505050505050565b600b54604051637453c01360e11b81526001600160a01b03848116600483015260248201849052600092169063e8a7802690604401602060405180830381865afa1580156127e9573d6000803e3d6000fd5b505050506040513d601f19601f82011682018060405250810190610c03919061537f565b6001600160a01b0383166128335760405162461bcd60e51b8152600401610e9b9061539c565b6101408201516001600160a01b031661285e5760405162461bcd60e51b8152600401610e9b9061539c565b6000818152600460205260409020546001600160a01b03166128925760405162461bcd60e51b8152600401610e9b9061539c565b600081815260046020818152604080842054600854825163764bc84160e11b815292516001600160a01b039283169695919092169363ec97908293808301939192908290030181865afa1580156128ed573d6000803e3d6000fd5b505050506040513d601f19601f820116820180604052508101906129119190614ecb565b60008181526005602090815260408083208790558683526006825280832080546001818101835591855283852001859055815180830183526101408a01516001600160a01b0390811682528b8116828601908152878752600290955294839020905181549086166001600160a01b031991821617825593519101805491851691909316179091556008548151637572cb1f60e01b81529151939450821692634e042a5992861691637572cb1f916004808301926101009291908290030181865afa1580156129e3573d6000803e3d6000fd5b505050506040513d601f19601f82011682018060405250810190612a0791906152dc565b846001600160a01b0316636c321c8a6040518163ffffffff1660e01b8152600401602060405180830381865afa158015612a45573d6000803e3d6000fd5b505050506040513d601f19601f82011682018060405250810190612a699190614ecb565b846040518463ffffffff1660e01b8152600401612a88939291906153be565b600060405180830381600087803b158015612aa257600080fd5b505af1158015612ab6573d6000803e3d6000fd5b5050600a5460008681526004602081815260408084205481516362eb326360e11b8152915194975087965086956001600160a01b039081169563981f513695919092169363c5d664c693808301939192908290030181865afa158015612b20573d6000803e3d6000fd5b505050506040513d601f19601f82011682018060405250810190612b44919061521f565b60085460405160e084901b6001600160e01b03191681526001600160a01b039283166004820152911660248201526044016060604051808303816000875af1158015612b94573d6000803e3d6000fd5b505050506040513d601f19601f82011682018060405250810190612bb891906153e0565b925092509250866020015115612d67576101a08701518051602082015160809092015160085460405163c6ceb96b60e01b8152600481018990526001600160a01b03868116956334327d8b95949093909291169063c6ceb96b9060240161010060405180830381865afa158015612c33573d6000803e3d6000fd5b505050506040513d601f19601f82011682018060405250810190612c5791906152dc565b602001516040516001600160e01b031960e087901b16815260048101949094526024840192909252604483015260648201526084016020604051808303816000875af1158015612cab573d6000803e3d6000fd5b505050506040513d601f19601f82011682018060405250810190612ccf9190614ecb565b6101a088015160c0015260085461012088015160405163080ec90d60e21b81526001600160a01b039092169163203b243491612d1891889186918991899160019060040161544e565b600060405180830381600087803b158015612d3257600080fd5b505af1158015612d46573d6000803e3d6000fd5b50505050612d6284886101a00151600001518960200151613dca565b612ed2565b60c087015160e088015160085460405163c6ceb96b60e01b8152600481018890526001600160a01b03858116946375e2d946949093909291169063c6ceb96b9060240161010060405180830381865afa158015612dc8573d6000803e3d6000fd5b505050506040513d601f19601f82011682018060405250810190612dec91906152dc565b602001516040516001600160e01b031960e086901b168152600481019390935260248301919091526044820152606401600060405180830381600087803b158015612e3657600080fd5b505af1158015612e4a573d6000803e3d6000fd5b50506008546101208a015160405163080ec90d60e21b81526001600160a01b03909216935063203b24349250612e8d91889186918991899160009060040161544e565b600060405180830381600087803b158015612ea757600080fd5b505af1158015612ebb573d6000803e3d6000fd5b50505050612ed2848860c001518960200151613dca565b60a087018490526040516398d796e760e01b81526001600160a01b038616906398d796e790612f05908a906004016154bf565b600060405180830381600087803b158015612f1f57600080fd5b505af1158015612f33573d6000803e3d6000fd5b5050604080518781526001600160a01b038c1660208201527f5e2ab39d79551e4c4e66256d806dd566d4d015420519d2ed2621563488a5d2a8935001905060405180910390a15050506001600160a01b03909416600090815260036020526040902093909355505050565b6008546001600160a01b0316331480612fc157506007546001600160a01b031633145b612fdd5760405162461bcd60e51b8152600401610e9b90615193565b600081815260056020908152604080832054835260049182905291829020549151633c16f3ed60e21b81529081018590526001600160a01b0384811660248301529091169063f05bcfb490604401610f65565b6000610c038383670de0b6b3a7640000613108565b60008060005b848160ff1610156130995761307b868260ff168151811061306e5761306e614ee4565b6020026020010151610c0a565b613085908361536c565b91508061309181615174565b91505061304b565b5060006130a682856155e7565b905060005b858160ff1610156130fe5760006130d0888360ff168151811061306e5761306e614ee4565b9050808310156130e8575060ff169250610c03915050565b90910390806130f681615174565b9150506130ab565b5050509392505050565b82820281151584158583048514171661312057600080fd5b0492915050565b60085460405163068bcd8d60e01b8152600481018390526001600160a01b039091169063068bcd8d90602401602060405180830381865afa158015613170573d6000803e3d6000fd5b505050506040513d601f19601f82011682018060405250810190613194919061521f565b6001600160a01b03166396fd1c426131ab83611dce565b6040516001600160e01b031960e084901b1681526001600160a01b0390911660048201526000196024820152604401600060405180830381600087803b1580156131f457600080fd5b505af1158015611520573d6000803e3d6000fd5b831561321c57821561321c5761321c6150b8565b60085460405163054d50b360e21b8152600481018790526000916001600160a01b03169063153542cc90602401602060405180830381865afa158015613266573d6000803e3d6000fd5b505050506040513d601f19601f8201168201806040525081019061328a919061521f565b6001600160a01b03166318160ddd6040518163ffffffff1660e01b8152600401602060405180830381865afa1580156132c7573d6000803e3d6000fd5b505050506040513d601f19601f820116820180604052508101906132eb9190614ecb565b905060008085116132fd5760006133cb565b60085460405163920f4e5560e01b8152600481018990526001600160a01b039091169063920f4e5590602401602060405180830381865afa158015613346573d6000803e3d6000fd5b505050506040513d601f19601f8201168201806040525081019061336a919061521f565b6001600160a01b03166318160ddd6040518163ffffffff1660e01b8152600401602060405180830381865afa1580156133a7573d6000803e3d6000fd5b505050506040513d601f19601f820116820180604052508101906133cb9190614ecb565b9050600086613401576133e86133e1838561536c565b8790613db5565b6133fa90670de0b6b3a764000061536c565b9050613440565b61340b8584613db5565b670de0b6b3a76400001161342157506000613440565b61342b8584613db5565b61343d90670de0b6b3a7640000614e77565b90505b6008546040516361fa5af560e01b8152600481018a9052881515602482015285156044820152606481018390526001600160a01b03909116906361fa5af590608401600060405180830381600087803b15801561349c57600080fd5b505af11580156134b0573d6000803e3d6000fd5b505050505050505050505050565b806000036134e35750506000908152600d60205260409020600a810154600b90910155565b60008381526005602090815260408083205483526004918290528083205490516363737ac960e11b81529182018590526001600160a01b03169190829063c6e6f59290602401602060405180830381865afa158015613546573d6000803e3d6000fd5b505050506040513d601f19601f8201168201806040525081019061356a9190614ecb565b6040516363737ac960e11b8152600481018590529091506000906001600160a01b0384169063c6e6f59290602401602060405180830381865afa1580156135b5573d6000803e3d6000fd5b505050506040513d601f19601f820116820180604052508101906135d99190614ecb565b6000878152600d60205260408120600801549192506136166135fc600284614eb7565b6136108661360a8782614e77565b90613db5565b90613030565b613621600284614eb7565b61362b919061536c565b905061363688611dce565b6001600160a01b03166342966c6861364e8385614e77565b6040518263ffffffff1660e01b815260040161366c91815260200190565b600060405180830381600087803b15801561368657600080fd5b505af115801561369a573d6000803e3d6000fd5b5050506000898152600d6020526040902060088101839055600301546136c1915082614eb7565b6000988952600d6020526040909820600b019790975550505050505050565b600060405163a9059cbb60e01b8152836004820152826024820152602060006044836000895af13d15601f3d11600160005114161716915050806137585760405162461bcd60e51b815260206004820152600f60248201526e1514905394d1915497d19052531151608a1b6044820152606401610e9b565b50505050565b60006040516323b872dd60e01b81528460048201528360248201528260448201526020600060648360008a5af13d15601f3d11600160005114161716915050806115205760405162461bcd60e51b81526020600482015260146024820152731514905394d1915497d19493d357d1905253115160621b6044820152606401610e9b565b600081815260056020908152604080832054835260049182905280832054600854915163068bcd8d60e01b81529283018590526001600160a01b03908116939291169063068bcd8d90602401602060405180830381865afa15801561384a573d6000803e3d6000fd5b505050506040513d601f19601f8201168201806040525081019061386e919061521f565b600854604051634bee760b60e11b8152600481018690529192506001600160a01b0316906397dcec1690602401602060405180830381865afa1580156138b8573d6000803e3d6000fd5b505050506040513d601f19601f820116820180604052508101906138dc9190614ecb565b60031461391e5760405162461bcd60e51b815260206004820152601060248201526f10b6b0b935b2ba21b7b73234ba34b7b760811b6044820152606401610e9b565b60405163238f0e7560e11b8152600481018490526001600160a01b0383169063471e1cea90602401602060405180830381865afa158015613963573d6000803e3d6000fd5b505050506040513d601f19601f82011682018060405250810190613987919061537f565b6139ca5760405162461bcd60e51b815260206004820152601460248201527310b4b739ba393ab6b2b73a21b7b73234ba34b7b760611b6044820152606401610e9b565b60085460405163b1283e7760e01b8152600481018590526000916001600160a01b03169063b1283e7790602401600060405180830381865afa158015613a14573d6000803e3d6000fd5b505050506040513d6000823e601f3d908101601f19168201604052613a3c919081019061523c565b60085460405163661f1cf560e01b8152600481018d9052919850600097506001600160a01b0316955063661f1cf594506024019250613a79915050565b602060405180830381865afa158015613a96573d6000803e3d6000fd5b505050506040513d601f19601f82011682018060405250810190613aba9190614ecb565b90508115613c125760085460405163054d50b360e21b815260048101879052613c0d9187916001600160a01b039091169063153542cc90602401602060405180830381865afa158015613b11573d6000803e3d6000fd5b505050506040513d601f19601f82011682018060405250810190613b35919061521f565b6001600160a01b03166318160ddd6040518163ffffffff1660e01b8152600401602060405180830381865afa158015613b72573d6000803e3d6000fd5b505050506040513d601f19601f82011682018060405250810190613b969190614ecb565b604051634f626a0760e11b8152600481018990526001600160a01b03881690639ec4d40e90602401600060405180830381865afa158015613bdb573d6000803e3d6000fd5b505050506040513d6000823e601f3d908101601f19168201604052613c039190810190614d3b565b6101a00151613e2b565b613c95565b6040516303d972f160e21b8152600481018690526001600160a01b03851690630f65cbc490602401602060405180830381865afa158015613c57573d6000803e3d6000fd5b505050506040513d601f19601f82011682018060405250810190613c7b9190614ecb565b600003613c8c57613c0d8584613ece565b613c9585614107565b604051634b7e8e2160e11b81526001600160a01b038581166004830152602482018390528416906396fd1c4290604401600060405180830381600087803b158015613cdf57600080fd5b505af1158015613cf3573d6000803e3d6000fd5b505050600086815260208190526040908190209051636a9f1bdb60e01b81526004810188905281546024820152600190910154604482015283151560648201526001600160a01b0386169150636a9f1bdb90608401600060405180830381600087803b158015613d6257600080fd5b505af1158015613d76573d6000803e3d6000fd5b50505050826001600160a01b0316638d01450f6040518163ffffffff1660e01b8152600401600060405180830381600087803b15801561150c57600080fd5b6000610c0383670de0b6b3a764000084613108565b81600003613e085760405162461bcd60e51b815260206004820152600b60248201526a0c081c1c9a5b98da5c185b60aa1b6044820152606401610e9b565b613e1183611370565b613e1c8383836141c0565b613e2683836143a2565b505050565b60008160a0015111613e6e5760405162461bcd60e51b815260206004820152600c60248201526b18102622ab2fa320a1aa27a960a11b6044820152606401610e9b565b6040518060400160405280613ea383608001516136108560a00151670de0b6b3a7640000613e9c919061536c565b8790613030565b8152600060209182018190529485528481526040909420815181559301516001909301929092555050565b60008281526005602090815260408083205483526004918290528083205490516318353be960e21b815291820185905282916001600160a01b03909116906360d4efa4906024016040805180830381865afa158015613f31573d6000803e3d6000fd5b505050506040513d601f19601f82011682018060405250810190613f5591906155fb565b60085460405163661f1cf560e01b81526004810188905292945090925060009161405d91614057916001600160a01b039091169063661f1cf590602401602060405180830381865afa158015613faf573d6000803e3d6000fd5b505050506040513d601f19601f82011682018060405250810190613fd39190614ecb565b60085460405163c6ceb96b60e01b8152600481018a9052670de0b6b3a7640000916001600160a01b03169063c6ceb96b9060240161010060405180830381865afa158015614025573d6000803e3d6000fd5b505050506040513d601f19601f8201168201806040525081019061404991906152dc565b60c00151613610919061536c565b846144d5565b905060006140d3856001600160a01b03166314e2b929846040518263ffffffff1660e01b815260040161409291815260200190565b602060405180830381865afa1580156140af573d6000803e3d6000fd5b505050506040513d601f19601f820116820180604052508101906140579190614ecb565b6040805180820182529384526020808501928352600098895288905290962091518255509351600190940193909355505050565b60008181526005602090815260408083205483526004918290528083205490516318353be960e21b815291820184905282916001600160a01b03909116906360d4efa4906024016040805180830381865afa15801561416a573d6000803e3d6000fd5b505050506040513d601f19601f8201168201806040525081019061418e91906155fb565b604080518082018252928352602080840192835260009687528690529094209051815592516001909301929092555050565b60085460405163068bcd8d60e01b8152600481018590526000916001600160a01b03169063068bcd8d90602401602060405180830381865afa15801561420a573d6000803e3d6000fd5b505050506040513d601f19601f8201168201806040525081019061422e919061521f565b600854604051632a4a9dd160e01b8152600481018790529192506000916001600160a01b0390911690632a4a9dd19060240161010060405180830381865afa15801561427e573d6000803e3d6000fd5b505050506040513d601f19601f820116820180604052508101906142a2919061505b565b5050505050509150506142b4816144ec565b80156142c457506142c4846144ec565b6142fb5760405162461bcd60e51b81526020600482015260086024820152673830b930b6a2a92960c11b6044820152606401610e9b565b6000858152600d60205260408120906143148387613030565b90506000846001600160a01b0316637063b06c6040518163ffffffff1660e01b8152600401602060405180830381865afa158015614356573d6000803e3d6000fd5b505050506040513d601f19601f8201168201806040525081019061437a9190614ecb565b905060006143888383613db5565b600485019290925550600590920191909155505050505050565b60008281526005602090815260408083205483526004918290528083205490516363737ac960e11b81529182018490526001600160a01b03169190829063c6e6f59290602401602060405180830381865afa158015614405573d6000803e3d6000fd5b505050506040513d601f19601f820116820180604052508101906144299190614ecb565b600854604051632a4a9dd160e01b8152600481018790529192506000916001600160a01b0390911690632a4a9dd19060240161010060405180830381865afa158015614479573d6000803e3d6000fd5b505050506040513d601f19601f8201168201806040525081019061449d919061505b565b9750505050505050506144b9828261303090919063ffffffff16565b6000958652600d6020526040909520600a019490945550505050565b6000818311156144e55781610c03565b5090919050565b6000614502612710670de0b6b3a7640000614eb7565b90911015919050565b828054828255906000526020600020908101928215614560579160200282015b8281111561456057825182546001600160a01b0319166001600160a01b0390911617825560209092019160019091019061452b565b5061456c929150614570565b5090565b5b8082111561456c5760008155600101614571565b60006020828403121561459757600080fd5b5035919050565b6001600160a01b03811681146145b357600080fd5b50565b80356145c18161459e565b919050565b6000602082840312156145d857600080fd5b8135610c038161459e565b80151581146145b357600080fd5b80356145c1816145e3565b6000806040838503121561460f57600080fd5b823591506020830135614621816145e3565b809150509250929050565b6000806040838503121561463f57600080fd5b8235915060208301356146218161459e565b634e487b7160e01b600052604160045260246000fd5b604051610100810167ffffffffffffffff8111828210171561468b5761468b614651565b60405290565b60405160e0810167ffffffffffffffff8111828210171561468b5761468b614651565b6040516101c0810167ffffffffffffffff8111828210171561468b5761468b614651565b604051601f8201601f1916810167ffffffffffffffff8111828210171561470157614701614651565b604052919050565b6000806000806000808688036101a081121561472457600080fd5b873561472f8161459e565b9650602088013561473f816145e3565b9550604088013594506060880135935060808801359250610100609f19820181131561476a57600080fd5b614772614667565b915060a0890135825260c0890135602083015260e0890135604083015280890135606083015250610120880135608082015261014088013560a082015261016088013560c082015261018088013560e0820152809150509295509295509295565b600067ffffffffffffffff8211156147ed576147ed614651565b5060051b60200190565b6000806040838503121561480a57600080fd5b8235915060208084013567ffffffffffffffff81111561482957600080fd5b8401601f8101861361483a57600080fd5b803561484d614848826147d3565b6146d8565b81815260059190911b8201830190838101908883111561486c57600080fd5b928401925b8284101561488a57833582529284019290840190614871565b80955050505050509250929050565b6020808252825182820181905260009190848201906040850190845b818110156148da5783516001600160a01b0316835292840192918401916001016148b5565b50909695505050505050565b600080604083850312156148f957600080fd5b50508035926020909101359150565b60008060006060848603121561491d57600080fd5b83359250602084013561492f8161459e565b9150604084013561493f816145e3565b809150509250925092565b6020808252825182820181905260009190848201906040850190845b818110156148da57835183529284019291840191600101614966565b60008060006060848603121561499757600080fd5b505081359360208301359350604090920135919050565b600080604083850312156149c157600080fd5b82356149cc8161459e565b946020939093013593505050565b600067ffffffffffffffff8211156149f4576149f4614651565b50601f01601f191660200190565b600082601f830112614a1357600080fd5b8135614a21614848826149da565b818152846020838601011115614a3657600080fd5b816020850160208301376000918101602001919091529392505050565b600481106145b357600080fd5b80356145c181614a53565b600060e08284031215614a7d57600080fd5b614a85614691565b9050813581526020820135602082015260408201356040820152606082013560608201526080820135608082015260a082013560a082015260c082013560c082015292915050565b600080600060608486031215614ae257600080fd5b8335614aed8161459e565b9250602084013567ffffffffffffffff80821115614b0a57600080fd5b908501906102808288031215614b1f57600080fd5b614b276146b4565b82358152614b37602084016145f1565b6020820152614b48604084016145f1565b6040820152606083013560608201526080830135608082015260a083013560a082015260c083013560c082015260e083013560e08201526101008084013581830152506101208084013583811115614b9f57600080fd5b614bab8a828701614a02565b8284015250506101409150614bc18284016145b6565b828201526101609150614bd5828401614a60565b82820152610180915081830135828201526101a09150614bf788838501614a6b565b82820152809450505050604084013590509250925092565b600080600060608486031215614c2457600080fd5b833592506020840135614c368161459e565b929592945050506040919091013590565b80516145c1816145e3565b60005b83811015614c6d578181015183820152602001614c55565b50506000910152565b600082601f830112614c8757600080fd5b8151614c95614848826149da565b818152846020838601011115614caa57600080fd5b614cbb826020830160208701614c52565b949350505050565b80516145c18161459e565b80516145c181614a53565b600060e08284031215614ceb57600080fd5b614cf3614691565b9050815181526020820151602082015260408201516040820152606082015160608201526080820151608082015260a082015160a082015260c082015160c082015292915050565b600060208284031215614d4d57600080fd5b815167ffffffffffffffff80821115614d6557600080fd5b908301906102808286031215614d7a57600080fd5b614d826146b4565b82518152614d9260208401614c47565b6020820152614da360408401614c47565b6040820152606083015160608201526080830151608082015260a083015160a082015260c083015160c082015260e083015160e08201526101008084015181830152506101208084015183811115614dfa57600080fd5b614e0688828701614c76565b8284015250506101409150614e1c828401614cc3565b828201526101609150614e30828401614cce565b82820152610180915081830151828201526101a09150614e5286838501614cd9565b91810191909152949350505050565b634e487b7160e01b600052601160045260246000fd5b81810381811115610abe57610abe614e61565b8082028115828204841417610abe57610abe614e61565b634e487b7160e01b600052601260045260246000fd5b600082614ec657614ec6614ea1565b500490565b600060208284031215614edd57600080fd5b5051919050565b634e487b7160e01b600052603260045260246000fd5b600060018201614f0c57614f0c614e61565b5060010190565b60008060008060008060c08789031215614f2c57600080fd5b8651614f37816145e3565b6020880151909650614f48816145e3565b6040880151909550614f59816145e3565b6060880151909450614f6a816145e3565b6080880151909350614f7b816145e3565b8092505060a087015190509295509295509295565b805182526020810151602083015260408101516040830152606081015160608301526080810151608083015260a081015160a083015260c081015160c083015260e081015160e08301525050565b6001600160a01b038881168252871660208201528515156040820152606081018590526080810184905260a081018390526101c0810161502160c0830184614f90565b98975050505050505050565b6000806040838503121561504057600080fd5b825161504b8161459e565b6020939093015192949293505050565b600080600080600080600080610100898b03121561507857600080fd5b505086516020880151604089015160608a015160808b015160a08c015160c08d015160e0909d0151959e949d50929b919a50985090965094509092509050565b634e487b7160e01b600052600160045260246000fd5b600060208083850312156150e157600080fd5b825167ffffffffffffffff8111156150f857600080fd5b8301601f8101851361510957600080fd5b8051615117614848826147d3565b81815260059190911b8201830190838101908783111561513657600080fd5b928401925b8284101561278c57835161514e8161459e565b8252928401929084019061513b565b60008161516c5761516c614e61565b506000190190565b600060ff821660ff810361518a5761518a614e61565b60010192915050565b60208082526008908201526710b6b0b730b3b2b960c11b604082015260600190565b6020808252600490820152630855985b60e21b604082015260600190565b600080600080608085870312156151e957600080fd5b84516151f4816145e3565b8094505060208501519250604085015191506060850151615214816145e3565b939692955090935050565b60006020828403121561523157600080fd5b8151610c038161459e565b600080600080600080600060e0888a03121561525757600080fd5b87516152628161459e565b60208901519097506152738161459e565b60408901519096506152848161459e565b606089015190955067ffffffffffffffff8111156152a157600080fd5b6152ad8a828b01614c76565b9450506080880151925060a0880151915060c08801516152cc816145e3565b8091505092959891949750929550565b60006101008083850312156152f057600080fd5b6040519081019067ffffffffffffffff8211818310171561531357615313614651565b81604052835181526020840151602082015260408401516040820152606084015160608201526080840151608082015260a084015160a082015260c084015160c082015260e084015160e0820152809250505092915050565b80820180821115610abe57610abe614e61565b60006020828403121561539157600080fd5b8151610c03816145e3565b602080825260089082015267061646472657373360c41b604082015260600190565b61014081016153cd8286614f90565b6101008201939093526101200152919050565b6000806000606084860312156153f557600080fd5b83516154008161459e565b60208501519093506154118161459e565b604085015190925061493f8161459e565b6000815180845261543a816020860160208601614c52565b601f01601f19169290920160200192915050565b8681526001600160a01b03868116602083015285811660408301528416606082015260c06080820181905260009061548890830185615422565b905082151560a0830152979650505050505050565b600481106154bb57634e487b7160e01b600052602160045260246000fd5b9052565b6020815281516020820152600060208301516154df604084018215159052565b50604083015180151560608401525060608301516080830152608083015160a083015260a083015160c083015260c083015160e083015260e0830151610100818185015280850151915050610120818185015280850151915050610140610280818501526155516102a0850183615422565b9085015190915061016061556f858201836001600160a01b03169052565b85015190506101806155838582018361549d565b8501516101a08581019190915285015180516101c086015260208101516101e086015260408101516102008601526060810151610220860152608081015161024086015260a081015161026086015260c08101516102808601529050509392505050565b6000826155f6576155f6614ea1565b500690565b6000806040838503121561560e57600080fd5b50508051602090910151909290915056fea264697066735822122072773c0f80170afd40f60b2dd3e616cef39eb6ef574c7d2a55b8031024f2cbf764736f6c63430008110033",
    "linkReferences": {}
  },
  "methodIdentifiers": {
    "_getValidators(uint256)": "457a89f6",
    "ad_to_id(address)": "7789ec5a",
    "approvalCondition(uint256)": "05a1ce99",
    "beforeResolve(uint256)": "2b858734",
    "calcImpliedProbability(uint256,uint256,uint256)": "dda10bca",
    "createVault(address,bool,uint256,uint256,uint256,(uint256,uint256,uint256,uint256,uint256,uint256,uint256,uint256))": "340e04b3",
    "deduct_selling_fee(uint256)": "08a8333f",
    "deniedValidator(uint256,address)": "830e2a02",
    "denyMarket(uint256)": "4cb44087",
    "forceCloseInstrument(uint256,bool)": "0c33df18",
    "fulfillRandomWords(uint256,uint256[])": "38ba4614",
    "getApprovalData(uint256)": "ac1b6b01",
    "getFinalStake(uint256)": "937b6feb",
    "getInitialStake(uint256)": "875e487e",
    "getMarketId(address)": "f25fcc9f",
    "getMarketIds(uint256)": "b1b7e1f2",
    "getNumApproved(uint256)": "805798ac",
    "getNumResolved(uint256)": "ebd4dc46",
    "getTotalStaked(uint256)": "2f8899f3",
    "getTotalSupply(uint256)": "92ab723e",
    "getTotalValidatorSales(uint256)": "37bc93b0",
    "getTraderScore(address)": "08ad90a5",
    "getValidatorCap(uint256)": "d466461c",
    "getValidatorPrice(uint256)": "a40c63f7",
    "getValidatorRequiredCollateral(uint256)": "d65ec964",
    "getVault(uint256)": "9403b634",
    "getVaultAd(uint256)": "c4abc650",
    "getVaultfromId(uint256)": "9fe1458b",
    "hasApproved(uint256,address)": "2358d5a8",
    "id_parent(uint256)": "8fbbc868",
    "initiateMarket(address,(bytes32,bool,bool,uint256,uint256,uint256,uint256,uint256,uint256,string,address,uint8,uint256,(uint256,uint256,uint256,uint256,uint256,uint256,uint256)),uint256)": "e8e3fbb7",
    "isReputable(address,uint256)": "e8a78026",
    "isValidator(uint256,address)": "23f2a73f",
    "isVerified(address)": "b9209e33",
    "marketCondition(uint256)": "b743939b",
    "marketIdToVaultId(uint256)": "ce93ec67",
    "marketId_to_vaultId(uint256)": "14f2b14c",
    "market_data(uint256)": "8d4f16d7",
    "pullLeverage(uint256,uint256)": "da0a697f",
    "redeemValidator(uint256,address)": "8f5709a5",
    "redeem_transfer(uint256,address,uint256)": "f0fd1d38",
    "resolveCondition(uint256)": "81e1b07c",
    "resolveMarket(uint256)": "6399d03d",
    "riskTransferPenalty()": "65bc5ef9",
    "setMarketManager(address)": "d82aff11",
    "setPoolFactory(address)": "473597a0",
    "setReputationManager(address)": "56a837f4",
    "setVaultFactory(address)": "3ea7fbdb",
    "testVerifyAddress()": "03cccb35",
    "unlockValidatorStake(uint256)": "8dc3d9b4",
    "updateReputation(uint256,address,bool)": "494ef447",
    "validatorApprove(uint256)": "d1227136",
    "validatorResolve(uint256)": "ad4e4e70",
    "validator_data(uint256)": "c8fa33e7",
    "vault_to_marketIds(uint256,uint256)": "482c0aa8",
    "vaults(uint256)": "8c64ea4a",
    "verified(address)": "0db065f4",
    "viewValidators(uint256)": "3ec8dc3b"
  },
  "id": 8
}