{
  "abi": [
    {
      "inputs": [
        {
          "internalType": "address",
          "name": "_creator_address",
          "type": "address"
        },
        {
          "internalType": "address",
          "name": "_interep_address",
          "type": "address"
        }
      ],
      "stateMutability": "nonpayable",
      "type": "constructor"
    },
    {
      "anonymous": false,
      "inputs": [
        {
          "indexed": true,
          "internalType": "uint256",
          "name": "marketId",
          "type": "uint256"
        },
        {
          "components": [
            {
              "internalType": "uint256",
              "name": "managers_stake",
              "type": "uint256"
            },
            {
              "internalType": "uint256",
              "name": "approved_principal",
              "type": "uint256"
            },
            {
              "internalType": "uint256",
              "name": "approved_yield",
              "type": "uint256"
            }
          ],
          "indexed": false,
          "internalType": "struct ApprovalData",
          "name": "data",
          "type": "tuple"
        }
      ],
      "name": "MarketApproved",
      "type": "event"
    },
    {
      "anonymous": false,
      "inputs": [
        {
          "indexed": true,
          "internalType": "uint256",
          "name": "marketId",
          "type": "uint256"
        }
      ],
      "name": "MarketDenied",
      "type": "event"
    },
    {
      "anonymous": false,
      "inputs": [
        {
          "indexed": true,
          "internalType": "uint256",
          "name": "marketId",
          "type": "uint256"
        },
        {
          "indexed": true,
          "internalType": "address",
          "name": "vault",
          "type": "address"
        },
        {
          "indexed": true,
          "internalType": "address",
          "name": "recipient",
          "type": "address"
        },
        {
          "indexed": false,
          "internalType": "address",
          "name": "pool",
          "type": "address"
        },
        {
          "indexed": false,
          "internalType": "address",
          "name": "longZCB",
          "type": "address"
        },
        {
          "indexed": false,
          "internalType": "address",
          "name": "shortZCB",
          "type": "address"
        },
        {
          "components": [
            {
              "internalType": "bytes32",
              "name": "name",
              "type": "bytes32"
            },
            {
              "internalType": "bool",
              "name": "isPool",
              "type": "bool"
            },
            {
              "internalType": "bool",
              "name": "trusted",
              "type": "bool"
            },
            {
              "internalType": "uint256",
              "name": "balance",
              "type": "uint256"
            },
            {
              "internalType": "uint256",
              "name": "faceValue",
              "type": "uint256"
            },
            {
              "internalType": "uint256",
              "name": "marketId",
              "type": "uint256"
            },
            {
              "internalType": "uint256",
              "name": "principal",
              "type": "uint256"
            },
            {
              "internalType": "uint256",
              "name": "expectedYield",
              "type": "uint256"
            },
            {
              "internalType": "uint256",
              "name": "duration",
              "type": "uint256"
            },
            {
              "internalType": "string",
              "name": "description",
              "type": "string"
            },
            {
              "internalType": "address",
              "name": "instrument_address",
              "type": "address"
            },
            {
              "internalType": "enum InstrumentType",
              "name": "instrument_type",
              "type": "uint8"
            },
            {
              "internalType": "uint256",
              "name": "maturityDate",
              "type": "uint256"
            },
            {
              "components": [
                {
                  "internalType": "uint256",
                  "name": "saleAmount",
                  "type": "uint256"
                },
                {
                  "internalType": "uint256",
                  "name": "initPrice",
                  "type": "uint256"
                },
                {
                  "internalType": "uint256",
                  "name": "promisedReturn",
                  "type": "uint256"
                },
                {
                  "internalType": "uint256",
                  "name": "inceptionTime",
                  "type": "uint256"
                },
                {
                  "internalType": "uint256",
                  "name": "inceptionPrice",
                  "type": "uint256"
                },
                {
                  "internalType": "uint256",
                  "name": "leverageFactor",
                  "type": "uint256"
                },
                {
                  "internalType": "uint256",
                  "name": "managementFee",
                  "type": "uint256"
                }
              ],
              "internalType": "struct PoolData",
              "name": "poolData",
              "type": "tuple"
            }
          ],
          "indexed": false,
          "internalType": "struct InstrumentData",
          "name": "instrumentData",
          "type": "tuple"
        }
      ],
      "name": "MarketInitiated",
      "type": "event"
    },
    {
      "anonymous": false,
      "inputs": [
        {
          "indexed": true,
          "internalType": "uint256",
          "name": "marketId",
          "type": "uint256"
        },
        {
          "indexed": false,
          "internalType": "bool",
          "name": "atLoss",
          "type": "bool"
        },
        {
          "indexed": false,
          "internalType": "uint256",
          "name": "extraGain",
          "type": "uint256"
        },
        {
          "indexed": false,
          "internalType": "uint256",
          "name": "principalLoss",
          "type": "uint256"
        },
        {
          "indexed": false,
          "internalType": "bool",
          "name": "premature",
          "type": "bool"
        }
      ],
      "name": "MarketResolved",
      "type": "event"
    },
    {
      "anonymous": false,
      "inputs": [
        {
          "indexed": true,
          "internalType": "uint256",
          "name": "marketId",
          "type": "uint256"
        },
        {
          "indexed": false,
          "internalType": "uint256",
          "name": "amount",
          "type": "uint256"
        },
        {
          "indexed": false,
          "internalType": "address",
          "name": "to",
          "type": "address"
        }
      ],
      "name": "RedeemTransfer",
      "type": "event"
    },
    {
      "anonymous": false,
      "inputs": [
        {
          "indexed": true,
          "internalType": "address",
          "name": "vault",
          "type": "address"
        },
        {
          "indexed": false,
          "internalType": "uint256",
          "name": "vaultId",
          "type": "uint256"
        },
        {
          "indexed": false,
          "internalType": "address",
          "name": "underlying",
          "type": "address"
        },
        {
          "indexed": false,
          "internalType": "bool",
          "name": "onlyVerified",
          "type": "bool"
        },
        {
          "indexed": false,
          "internalType": "uint256",
          "name": "r",
          "type": "uint256"
        },
        {
          "indexed": false,
          "internalType": "uint256",
          "name": "assetLimit",
          "type": "uint256"
        },
        {
          "indexed": false,
          "internalType": "uint256",
          "name": "totalAssetLimit",
          "type": "uint256"
        },
        {
          "components": [
            {
              "internalType": "uint256",
              "name": "N",
              "type": "uint256"
            },
            {
              "internalType": "uint256",
              "name": "sigma",
              "type": "uint256"
            },
            {
              "internalType": "uint256",
              "name": "alpha",
              "type": "uint256"
            },
            {
              "internalType": "uint256",
              "name": "omega",
              "type": "uint256"
            },
            {
              "internalType": "uint256",
              "name": "delta",
              "type": "uint256"
            },
            {
              "internalType": "uint256",
              "name": "r",
              "type": "uint256"
            },
            {
              "internalType": "uint256",
              "name": "s",
              "type": "uint256"
            },
            {
              "internalType": "uint256",
              "name": "steak",
              "type": "uint256"
            }
          ],
          "indexed": false,
          "internalType": "struct MarketParameters",
          "name": "defaultParams",
          "type": "tuple"
        }
      ],
      "name": "VaultCreated",
      "type": "event"
    },
    {
      "inputs": [],
      "name": "Data",
      "outputs": [
        {
          "internalType": "contract StorageHandler",
          "name": "",
          "type": "address"
        }
      ],
      "stateMutability": "view",
      "type": "function"
    },
    {
      "inputs": [
        {
          "internalType": "address",
          "name": "",
          "type": "address"
        }
      ],
      "name": "ad_to_id",
      "outputs": [
        {
          "internalType": "uint256",
          "name": "",
          "type": "uint256"
        }
      ],
      "stateMutability": "view",
      "type": "function"
    },
    {
      "inputs": [
        {
          "internalType": "uint256",
          "name": "marketId",
          "type": "uint256"
        }
      ],
      "name": "approvalCondition",
      "outputs": [
        {
          "internalType": "bool",
          "name": "",
          "type": "bool"
        }
      ],
      "stateMutability": "view",
      "type": "function"
    },
    {
      "inputs": [
        {
          "internalType": "uint256",
          "name": "marketId",
          "type": "uint256"
        }
      ],
      "name": "approveMarket",
      "outputs": [],
      "stateMutability": "nonpayable",
      "type": "function"
    },
    {
      "inputs": [
        {
          "internalType": "uint256",
          "name": "marketId",
          "type": "uint256"
        }
      ],
      "name": "beforeResolve",
      "outputs": [],
      "stateMutability": "nonpayable",
      "type": "function"
    },
    {
      "inputs": [
        {
          "internalType": "uint256",
          "name": "marketId",
          "type": "uint256"
        },
        {
          "internalType": "uint256",
          "name": "incompleteReturns",
          "type": "uint256"
        }
      ],
      "name": "calcIncompleteReturns",
      "outputs": [
        {
          "internalType": "uint256",
          "name": "seniorReturn",
          "type": "uint256"
        }
      ],
      "stateMutability": "view",
      "type": "function"
    },
    {
      "inputs": [
        {
          "internalType": "address",
          "name": "underlying",
          "type": "address"
        },
        {
          "internalType": "bool",
          "name": "_onlyVerified",
          "type": "bool"
        },
        {
          "internalType": "uint256",
          "name": "_r",
          "type": "uint256"
        },
        {
          "internalType": "uint256",
          "name": "_asset_limit",
          "type": "uint256"
        },
        {
          "internalType": "uint256",
          "name": "_total_asset_limit",
          "type": "uint256"
        },
        {
          "components": [
            {
              "internalType": "uint256",
              "name": "N",
              "type": "uint256"
            },
            {
              "internalType": "uint256",
              "name": "sigma",
              "type": "uint256"
            },
            {
              "internalType": "uint256",
              "name": "alpha",
              "type": "uint256"
            },
            {
              "internalType": "uint256",
              "name": "omega",
              "type": "uint256"
            },
            {
              "internalType": "uint256",
              "name": "delta",
              "type": "uint256"
            },
            {
              "internalType": "uint256",
              "name": "r",
              "type": "uint256"
            },
            {
              "internalType": "uint256",
              "name": "s",
              "type": "uint256"
            },
            {
              "internalType": "uint256",
              "name": "steak",
              "type": "uint256"
            }
          ],
          "internalType": "struct MarketParameters",
          "name": "default_params",
          "type": "tuple"
        },
        {
          "internalType": "string",
          "name": "_description",
          "type": "string"
        }
      ],
      "name": "createVault",
      "outputs": [],
      "stateMutability": "nonpayable",
      "type": "function"
    },
    {
      "inputs": [
        {
          "internalType": "uint256",
          "name": "marketId",
          "type": "uint256"
        },
        {
          "internalType": "address",
          "name": "validator",
          "type": "address"
        }
      ],
      "name": "deniedValidator",
      "outputs": [
        {
          "internalType": "uint256",
          "name": "collateral_amount",
          "type": "uint256"
        }
      ],
      "stateMutability": "nonpayable",
      "type": "function"
    },
    {
      "inputs": [
        {
          "internalType": "uint256",
          "name": "marketId",
          "type": "uint256"
        }
      ],
      "name": "denyMarket",
      "outputs": [],
      "stateMutability": "nonpayable",
      "type": "function"
    },
    {
      "inputs": [
        {
          "internalType": "uint256",
          "name": "marketId",
          "type": "uint256"
        },
        {
          "internalType": "bool",
          "name": "emergency",
          "type": "bool"
        }
      ],
      "name": "forceCloseInstrument",
      "outputs": [
        {
          "internalType": "bool",
          "name": "",
          "type": "bool"
        }
      ],
      "stateMutability": "nonpayable",
      "type": "function"
    },
    {
      "inputs": [
        {
          "internalType": "uint256",
          "name": "requestId",
          "type": "uint256"
        },
        {
          "internalType": "uint256[]",
          "name": "randomWords",
          "type": "uint256[]"
        }
      ],
      "name": "fulfillRandomWords",
      "outputs": [],
      "stateMutability": "nonpayable",
      "type": "function"
    },
    {
      "inputs": [
        {
          "internalType": "uint256",
          "name": "marketId",
          "type": "uint256"
        }
      ],
      "name": "getApprovalData",
      "outputs": [
        {
          "components": [
            {
              "internalType": "uint256",
              "name": "managers_stake",
              "type": "uint256"
            },
            {
              "internalType": "uint256",
              "name": "approved_principal",
              "type": "uint256"
            },
            {
              "internalType": "uint256",
              "name": "approved_yield",
              "type": "uint256"
            }
          ],
          "internalType": "struct ApprovalData",
          "name": "data",
          "type": "tuple"
        }
      ],
      "stateMutability": "view",
      "type": "function"
    },
    {
      "inputs": [
        {
          "internalType": "uint256",
          "name": "marketId",
          "type": "uint256"
        }
      ],
      "name": "getFinalStake",
      "outputs": [
        {
          "internalType": "uint256",
          "name": "",
          "type": "uint256"
        }
      ],
      "stateMutability": "view",
      "type": "function"
    },
    {
      "inputs": [
        {
          "internalType": "uint256",
          "name": "marketId",
          "type": "uint256"
        }
      ],
      "name": "getInitialStake",
      "outputs": [
        {
          "internalType": "uint256",
          "name": "",
          "type": "uint256"
        }
      ],
      "stateMutability": "view",
      "type": "function"
    },
    {
      "inputs": [
        {
          "internalType": "uint256",
          "name": "marketId",
          "type": "uint256"
        }
      ],
      "name": "getInstrumentSnapShot",
      "outputs": [
        {
          "internalType": "uint256",
          "name": "managerStake",
          "type": "uint256"
        },
        {
          "internalType": "uint256",
          "name": "exposurePercentage",
          "type": "uint256"
        },
        {
          "internalType": "uint256",
          "name": "seniorAPR",
          "type": "uint256"
        },
        {
          "internalType": "uint256",
          "name": "approvalPrice",
          "type": "uint256"
        }
      ],
      "stateMutability": "view",
      "type": "function"
    },
    {
      "inputs": [
        {
          "internalType": "address",
          "name": "recipient",
          "type": "address"
        }
      ],
      "name": "getMarketId",
      "outputs": [
        {
          "internalType": "uint256",
          "name": "",
          "type": "uint256"
        }
      ],
      "stateMutability": "view",
      "type": "function"
    },
    {
      "inputs": [
        {
          "internalType": "uint256",
          "name": "vaultId",
          "type": "uint256"
        }
      ],
      "name": "getMarketIds",
      "outputs": [
        {
          "internalType": "uint256[]",
          "name": "",
          "type": "uint256[]"
        }
      ],
      "stateMutability": "view",
      "type": "function"
    },
    {
      "inputs": [
        {
          "internalType": "uint256",
          "name": "marketId",
          "type": "uint256"
        }
      ],
      "name": "getNumApproved",
      "outputs": [
        {
          "internalType": "uint256",
          "name": "",
          "type": "uint256"
        }
      ],
      "stateMutability": "view",
      "type": "function"
    },
    {
      "inputs": [
        {
          "internalType": "uint256",
          "name": "marketId",
          "type": "uint256"
        }
      ],
      "name": "getNumResolved",
      "outputs": [
        {
          "internalType": "uint256",
          "name": "",
          "type": "uint256"
        }
      ],
      "stateMutability": "view",
      "type": "function"
    },
    {
      "inputs": [
        {
          "internalType": "uint256",
          "name": "marketId",
          "type": "uint256"
        }
      ],
      "name": "getTotalStaked",
      "outputs": [
        {
          "internalType": "uint256",
          "name": "",
          "type": "uint256"
        }
      ],
      "stateMutability": "view",
      "type": "function"
    },
    {
      "inputs": [
        {
          "internalType": "uint256",
          "name": "marketId",
          "type": "uint256"
        }
      ],
      "name": "getTotalSupply",
      "outputs": [
        {
          "internalType": "uint256",
          "name": "",
          "type": "uint256"
        }
      ],
      "stateMutability": "view",
      "type": "function"
    },
    {
      "inputs": [
        {
          "internalType": "uint256",
          "name": "marketId",
          "type": "uint256"
        }
      ],
      "name": "getTotalValidatorSales",
      "outputs": [
        {
          "internalType": "uint256",
          "name": "",
          "type": "uint256"
        }
      ],
      "stateMutability": "view",
      "type": "function"
    },
    {
      "inputs": [
        {
          "internalType": "address",
          "name": "trader",
          "type": "address"
        }
      ],
      "name": "getTraderScore",
      "outputs": [
        {
          "internalType": "uint256",
          "name": "",
          "type": "uint256"
        }
      ],
      "stateMutability": "view",
      "type": "function"
    },
    {
      "inputs": [
        {
          "internalType": "uint256",
          "name": "marketId",
          "type": "uint256"
        }
      ],
      "name": "getValidatorCap",
      "outputs": [
        {
          "internalType": "uint256",
          "name": "",
          "type": "uint256"
        }
      ],
      "stateMutability": "view",
      "type": "function"
    },
    {
      "inputs": [
        {
          "internalType": "uint256",
          "name": "marketId",
          "type": "uint256"
        }
      ],
      "name": "getValidatorPrice",
      "outputs": [
        {
          "internalType": "uint256",
          "name": "",
          "type": "uint256"
        }
      ],
      "stateMutability": "view",
      "type": "function"
    },
    {
      "inputs": [
        {
          "internalType": "uint256",
          "name": "marketId",
          "type": "uint256"
        }
      ],
      "name": "getValidatorRequiredCollateral",
      "outputs": [
        {
          "internalType": "uint256",
          "name": "",
          "type": "uint256"
        }
      ],
      "stateMutability": "view",
      "type": "function"
    },
    {
      "inputs": [
        {
          "internalType": "uint256",
          "name": "marketId",
          "type": "uint256"
        }
      ],
      "name": "getVault",
      "outputs": [
        {
          "internalType": "contract Vault",
          "name": "",
          "type": "address"
        }
      ],
      "stateMutability": "view",
      "type": "function"
    },
    {
      "inputs": [
        {
          "internalType": "uint256",
          "name": "marketId",
          "type": "uint256"
        }
      ],
      "name": "getVaultAd",
      "outputs": [
        {
          "internalType": "address",
          "name": "",
          "type": "address"
        }
      ],
      "stateMutability": "view",
      "type": "function"
    },
    {
      "inputs": [
        {
          "internalType": "uint256",
          "name": "vaultId",
          "type": "uint256"
        }
      ],
      "name": "getVaultSnapShot",
      "outputs": [
        {
          "internalType": "uint256",
          "name": "totalProtection",
          "type": "uint256"
        },
        {
          "internalType": "uint256",
          "name": "totalEstimatedAPR",
          "type": "uint256"
        },
        {
          "internalType": "uint256",
          "name": "goalAPR",
          "type": "uint256"
        },
        {
          "internalType": "uint256",
          "name": "exchangeRate",
          "type": "uint256"
        }
      ],
      "stateMutability": "view",
      "type": "function"
    },
    {
      "inputs": [
        {
          "internalType": "uint256",
          "name": "vaultId",
          "type": "uint256"
        }
      ],
      "name": "getVaultfromId",
      "outputs": [
        {
          "internalType": "address",
          "name": "",
          "type": "address"
        }
      ],
      "stateMutability": "view",
      "type": "function"
    },
    {
      "inputs": [
        {
          "internalType": "uint256",
          "name": "marketId",
          "type": "uint256"
        },
        {
          "internalType": "address",
          "name": "validator",
          "type": "address"
        }
      ],
      "name": "hasApproved",
      "outputs": [
        {
          "internalType": "bool",
          "name": "",
          "type": "bool"
        }
      ],
      "stateMutability": "view",
      "type": "function"
    },
    {
      "inputs": [
        {
          "internalType": "uint256",
          "name": "",
          "type": "uint256"
        }
      ],
      "name": "id_parent",
      "outputs": [
        {
          "internalType": "uint256",
          "name": "",
          "type": "uint256"
        }
      ],
      "stateMutability": "view",
      "type": "function"
    },
    {
      "inputs": [
        {
          "internalType": "bytes",
          "name": "_setup",
          "type": "bytes"
        }
      ],
      "name": "initialize",
      "outputs": [],
      "stateMutability": "nonpayable",
      "type": "function"
    },
    {
      "inputs": [
        {
          "internalType": "address",
          "name": "recipient",
          "type": "address"
        },
        {
          "components": [
            {
              "internalType": "bytes32",
              "name": "name",
              "type": "bytes32"
            },
            {
              "internalType": "bool",
              "name": "isPool",
              "type": "bool"
            },
            {
              "internalType": "bool",
              "name": "trusted",
              "type": "bool"
            },
            {
              "internalType": "uint256",
              "name": "balance",
              "type": "uint256"
            },
            {
              "internalType": "uint256",
              "name": "faceValue",
              "type": "uint256"
            },
            {
              "internalType": "uint256",
              "name": "marketId",
              "type": "uint256"
            },
            {
              "internalType": "uint256",
              "name": "principal",
              "type": "uint256"
            },
            {
              "internalType": "uint256",
              "name": "expectedYield",
              "type": "uint256"
            },
            {
              "internalType": "uint256",
              "name": "duration",
              "type": "uint256"
            },
            {
              "internalType": "string",
              "name": "description",
              "type": "string"
            },
            {
              "internalType": "address",
              "name": "instrument_address",
              "type": "address"
            },
            {
              "internalType": "enum InstrumentType",
              "name": "instrument_type",
              "type": "uint8"
            },
            {
              "internalType": "uint256",
              "name": "maturityDate",
              "type": "uint256"
            },
            {
              "components": [
                {
                  "internalType": "uint256",
                  "name": "saleAmount",
                  "type": "uint256"
                },
                {
                  "internalType": "uint256",
                  "name": "initPrice",
                  "type": "uint256"
                },
                {
                  "internalType": "uint256",
                  "name": "promisedReturn",
                  "type": "uint256"
                },
                {
                  "internalType": "uint256",
                  "name": "inceptionTime",
                  "type": "uint256"
                },
                {
                  "internalType": "uint256",
                  "name": "inceptionPrice",
                  "type": "uint256"
                },
                {
                  "internalType": "uint256",
                  "name": "leverageFactor",
                  "type": "uint256"
                },
                {
                  "internalType": "uint256",
                  "name": "managementFee",
                  "type": "uint256"
                }
              ],
              "internalType": "struct PoolData",
              "name": "poolData",
              "type": "tuple"
            }
          ],
          "internalType": "struct InstrumentData",
          "name": "instrumentData",
          "type": "tuple"
        },
        {
          "internalType": "uint256",
          "name": "vaultId",
          "type": "uint256"
        }
      ],
      "name": "initiateMarket",
      "outputs": [],
      "stateMutability": "nonpayable",
      "type": "function"
    },
    {
      "inputs": [
        {
          "internalType": "address",
          "name": "trader",
          "type": "address"
        },
        {
          "internalType": "uint256",
          "name": "r",
          "type": "uint256"
        }
      ],
      "name": "isReputable",
      "outputs": [
        {
          "internalType": "bool",
          "name": "",
          "type": "bool"
        }
      ],
      "stateMutability": "view",
      "type": "function"
    },
    {
      "inputs": [
        {
          "internalType": "uint256",
          "name": "marketId",
          "type": "uint256"
        },
        {
          "internalType": "address",
          "name": "user",
          "type": "address"
        }
      ],
      "name": "isValidator",
      "outputs": [
        {
          "internalType": "bool",
          "name": "",
          "type": "bool"
        }
      ],
      "stateMutability": "view",
      "type": "function"
    },
    {
      "inputs": [
        {
          "internalType": "address",
          "name": "addr",
          "type": "address"
        }
      ],
      "name": "isVerified",
      "outputs": [
        {
          "internalType": "bool",
          "name": "",
          "type": "bool"
        }
      ],
      "stateMutability": "view",
      "type": "function"
    },
    {
      "inputs": [],
      "name": "leverageManager",
      "outputs": [
        {
          "internalType": "contract LeverageManager",
          "name": "",
          "type": "address"
        }
      ],
      "stateMutability": "view",
      "type": "function"
    },
    {
      "inputs": [
        {
          "internalType": "uint256",
          "name": "marketId",
          "type": "uint256"
        }
      ],
      "name": "marketCondition",
      "outputs": [
        {
          "internalType": "bool",
          "name": "",
          "type": "bool"
        }
      ],
      "stateMutability": "view",
      "type": "function"
    },
    {
      "inputs": [
        {
          "internalType": "uint256",
          "name": "marketId",
          "type": "uint256"
        }
      ],
      "name": "marketIdToVaultId",
      "outputs": [
        {
          "internalType": "uint256",
          "name": "",
          "type": "uint256"
        }
      ],
      "stateMutability": "view",
      "type": "function"
    },
    {
      "inputs": [
        {
          "internalType": "uint256",
          "name": "marketId",
          "type": "uint256"
        }
      ],
      "name": "marketId_to_vaultId",
      "outputs": [
        {
          "internalType": "uint256",
          "name": "",
          "type": "uint256"
        }
      ],
      "stateMutability": "view",
      "type": "function"
    },
    {
      "inputs": [],
      "name": "marketManager",
      "outputs": [
        {
          "internalType": "contract MarketManager",
          "name": "",
          "type": "address"
        }
      ],
      "stateMutability": "view",
      "type": "function"
    },
    {
      "inputs": [
        {
          "internalType": "uint256",
          "name": "",
          "type": "uint256"
        }
      ],
      "name": "market_data",
      "outputs": [
        {
          "internalType": "address",
          "name": "instrument_address",
          "type": "address"
        },
        {
          "internalType": "address",
          "name": "utilizer",
          "type": "address"
        }
      ],
      "stateMutability": "view",
      "type": "function"
    },
    {
      "inputs": [],
      "name": "orderManager",
      "outputs": [
        {
          "internalType": "contract OrderManager",
          "name": "",
          "type": "address"
        }
      ],
      "stateMutability": "view",
      "type": "function"
    },
    {
      "inputs": [],
      "name": "poolFactory",
      "outputs": [
        {
          "internalType": "contract SyntheticZCBPoolFactory",
          "name": "",
          "type": "address"
        }
      ],
      "stateMutability": "view",
      "type": "function"
    },
    {
      "inputs": [
        {
          "internalType": "uint256",
          "name": "marketId",
          "type": "uint256"
        },
        {
          "internalType": "uint256",
          "name": "amount",
          "type": "uint256"
        }
      ],
      "name": "pullLeverage",
      "outputs": [],
      "stateMutability": "nonpayable",
      "type": "function"
    },
    {
      "inputs": [
        {
          "internalType": "uint256",
          "name": "marketId",
          "type": "uint256"
        },
        {
          "internalType": "address",
          "name": "validator",
          "type": "address"
        }
      ],
      "name": "redeemValidator",
      "outputs": [],
      "stateMutability": "nonpayable",
      "type": "function"
    },
    {
      "inputs": [
        {
          "internalType": "uint256",
          "name": "amount",
          "type": "uint256"
        },
        {
          "internalType": "address",
          "name": "to",
          "type": "address"
        },
        {
          "internalType": "uint256",
          "name": "marketId",
          "type": "uint256"
        }
      ],
      "name": "redeem_transfer",
      "outputs": [],
      "stateMutability": "nonpayable",
      "type": "function"
    },
    {
      "inputs": [],
      "name": "reputationManager",
      "outputs": [
        {
          "internalType": "contract ReputationManager",
          "name": "",
          "type": "address"
        }
      ],
      "stateMutability": "view",
      "type": "function"
    },
    {
      "inputs": [
        {
          "internalType": "uint256",
          "name": "marketId",
          "type": "uint256"
        }
      ],
      "name": "resolveCondition",
      "outputs": [
        {
          "internalType": "bool",
          "name": "",
          "type": "bool"
        }
      ],
      "stateMutability": "view",
      "type": "function"
    },
    {
      "inputs": [
        {
          "internalType": "uint256",
          "name": "marketId",
          "type": "uint256"
        }
      ],
      "name": "resolveMarket",
      "outputs": [],
      "stateMutability": "nonpayable",
      "type": "function"
    },
    {
      "inputs": [
        {
          "internalType": "uint256",
          "name": "marketId",
          "type": "uint256"
        }
      ],
      "name": "testApproveMarket",
      "outputs": [],
      "stateMutability": "nonpayable",
      "type": "function"
    },
    {
      "inputs": [
        {
          "internalType": "uint256",
          "name": "marketId",
          "type": "uint256"
        }
      ],
      "name": "unlockValidatorStake",
      "outputs": [],
      "stateMutability": "nonpayable",
      "type": "function"
    },
    {
      "inputs": [
        {
          "internalType": "uint256",
          "name": "marketId",
          "type": "uint256"
        }
      ],
      "name": "validatorApprove",
      "outputs": [
        {
          "internalType": "uint256",
          "name": "",
          "type": "uint256"
        }
      ],
      "stateMutability": "nonpayable",
      "type": "function"
    },
    {
      "inputs": [
        {
          "internalType": "uint256",
          "name": "marketId",
          "type": "uint256"
        }
      ],
      "name": "validatorResolve",
      "outputs": [],
      "stateMutability": "nonpayable",
      "type": "function"
    },
    {
      "inputs": [],
      "name": "vaultFactory",
      "outputs": [
        {
          "internalType": "contract VaultFactory",
          "name": "",
          "type": "address"
        }
      ],
      "stateMutability": "view",
      "type": "function"
    },
    {
      "inputs": [
        {
          "internalType": "uint256",
          "name": "",
          "type": "uint256"
        },
        {
          "internalType": "uint256",
          "name": "",
          "type": "uint256"
        }
      ],
      "name": "vault_to_marketIds",
      "outputs": [
        {
          "internalType": "uint256",
          "name": "",
          "type": "uint256"
        }
      ],
      "stateMutability": "view",
      "type": "function"
    },
    {
      "inputs": [
        {
          "internalType": "uint256",
          "name": "",
          "type": "uint256"
        }
      ],
      "name": "vaults",
      "outputs": [
        {
          "internalType": "contract Vault",
          "name": "",
          "type": "address"
        }
      ],
      "stateMutability": "view",
      "type": "function"
    },
    {
      "inputs": [
        {
          "internalType": "address",
          "name": "",
          "type": "address"
        }
      ],
      "name": "verified",
      "outputs": [
        {
          "internalType": "bool",
          "name": "",
          "type": "bool"
        }
      ],
      "stateMutability": "view",
      "type": "function"
    },
    {
      "inputs": [
        {
          "internalType": "address",
          "name": "who",
          "type": "address"
        }
      ],
      "name": "verifyAddress",
      "outputs": [],
      "stateMutability": "nonpayable",
      "type": "function"
    },
    {
      "inputs": [
        {
          "internalType": "uint256",
          "name": "marketId",
          "type": "uint256"
        }
      ],
      "name": "viewValidators",
      "outputs": [
        {
          "internalType": "address[]",
          "name": "",
          "type": "address[]"
        }
      ],
      "stateMutability": "view",
      "type": "function"
    }
  ],
  "bytecode": {
    "object": "0x60806040523480156200001157600080fd5b5060405162005fcb38038062005fcb833981016040819052620000349162000078565b50600880546001600160a01b0319166001600160a01b0392909216919091179055620000b0565b80516001600160a01b03811681146200007357600080fd5b919050565b600080604083850312156200008c57600080fd5b62000097836200005b565b9150620000a7602084016200005b565b90509250929050565b615f0b80620000c06000396000f3fe608060405234801561001057600080fd5b50600436106103af5760003560e01c80638dc3d9b4116101f4578063c8f559c01161011a578063e8858b4f116100ad578063f0fd1d381161007c578063f0fd1d381461091f578063f25fcc9f14610932578063f9b6117f1461095b578063fcb2cafc1461096e57600080fd5b8063e8858b4f146108d3578063e8a78026146108e6578063e8e3fbb7146108f9578063ebd4dc461461090c57600080fd5b8063d466461c116100e9578063d466461c14610887578063d65ec9641461089a578063d8a06f73146108ad578063da0a697f146108c057600080fd5b8063c8f559c01461084e578063cabe2ae114610861578063ce93ec6714610433578063d12271361461087457600080fd5b8063a40c63f711610192578063b37eedcd11610161578063b37eedcd146107fc578063b743939b1461080f578063b9209e3314610822578063c4abc6501461074557600080fd5b8063a40c63f714610781578063ac1b6b0114610794578063ad4e4e70146107c9578063b1b7e1f2146107dc57600080fd5b806392ab723e116101ce57806392ab723e1461071f578063937b6feb146107325780639403b634146107455780639fe1458b1461075857600080fd5b80638dc3d9b4146106d95780638f5709a5146106ec5780638fbbc868146106ff57600080fd5b80634219dc40116102d95780637789ec5a11610277578063830e2a0211610246578063830e2a0214610636578063875e487e146106495780638c64ea4a1461065c5780638d4f16d71461068557600080fd5b80637789ec5a146105dd578063805798ac146105fd57806381e1b07c1461061057806381fd6c021461062357600080fd5b80634b6e7d78116102b35780634b6e7d78146105915780634cb44087146105a45780636399d03d146105b75780636b868afb146105ca57600080fd5b80634219dc4014610558578063439fab911461056b578063482c0aa81461057e57600080fd5b80632b8587341161035157806338ba46141161032057806338ba4614146104e75780633ec8dc3b146104fa578063402978121461051a57806341ed2c121461052d57600080fd5b80632b858734146104795780632f8899f31461048e57806337b4dd3a146104a157806337bc93b0146104d457600080fd5b80630db065f41161038d5780630db065f41461041057806314f2b14c146104335780632358d5a81461045357806323f2a73f1461046657600080fd5b806305a1ce99146103b457806308ad90a5146103dc5780630c33df18146103fd575b600080fd5b6103c76103c2366004614b8e565b610981565b60405190151581526020015b60405180910390f35b6103ef6103ea366004614bcc565b6109f6565b6040519081526020016103d3565b6103c761040b366004614c02565b610a66565b6103c761041e366004614bcc565b60026020526000908152604090205460ff1681565b6103ef610441366004614b8e565b60009081526006602052604090205490565b6103c7610461366004614c32565b610b43565b6103c7610474366004614c32565b610bc1565b61048c610487366004614b8e565b610bfb565b005b6103ef61049c366004614b8e565b610db7565b6104b46104af366004614b8e565b610de9565b6040805194855260208501939093529183015260608201526080016103d3565b6103ef6104e2366004614b8e565b61119a565b61048c6104f5366004614d2e565b6111cc565b61050d610508366004614b8e565b611234565b6040516103d39190614dcf565b6103ef610528366004614e1c565b6112a6565b600954610540906001600160a01b031681565b6040516001600160a01b0390911681526020016103d3565b600b54610540906001600160a01b031681565b61048c610579366004614e86565b6113db565b6103ef61058c366004614e1c565b611730565b600e54610540906001600160a01b031681565b61048c6105b2366004614b8e565b611761565b61048c6105c5366004614b8e565b6118c4565b600c54610540906001600160a01b031681565b6103ef6105eb366004614bcc565b60046020526000908152604090205481565b6103ef61060b366004614b8e565b611a96565b6103c761061e366004614b8e565b611ac8565b600d54610540906001600160a01b031681565b6103ef610644366004614c32565b611afa565b6103ef610657366004614b8e565b611bdd565b61054061066a366004614b8e565b6005602052600090815260409020546001600160a01b031681565b6106b9610693366004614b8e565b600360205260009081526040902080546001909101546001600160a01b03918216911682565b604080516001600160a01b039384168152929091166020830152016103d3565b61048c6106e7366004614b8e565b611c0f565b61048c6106fa366004614c32565b611c77565b6103ef61070d366004614b8e565b60066020526000908152604090205481565b6103ef61072d366004614b8e565b611d19565b6103ef610740366004614b8e565b611dc4565b610540610753366004614b8e565b611df6565b610540610766366004614b8e565b6000908152600560205260409020546001600160a01b031690565b6103ef61078f366004614b8e565b611e1e565b6107a76107a2366004614b8e565b611e50565b60408051825181526020808401519082015291810151908201526060016103d3565b61048c6107d7366004614b8e565b611eac565b6107ef6107ea366004614b8e565b611ee3565b6040516103d39190614f02565b61048c61080a366004614b8e565b611f45565b6103c761081d366004614b8e565b611fe9565b6103c7610830366004614bcc565b6001600160a01b031660009081526002602052604090205460ff1690565b6104b461085c366004614b8e565b6123ef565b61048c61086f366004614b8e565b6126ee565b6103ef610882366004614b8e565b61316a565b6103ef610895366004614b8e565b6132d6565b6103ef6108a8366004614b8e565b613308565b600a54610540906001600160a01b031681565b61048c6108ce366004614e1c565b61333a565b61048c6108e1366004614f15565b6133e1565b6103c76108f4366004615012565b61350d565b61048c610907366004615130565b613547565b6103ef61091a366004614b8e565b6140c5565b61048c61092d366004615271565b6140f7565b6103ef610940366004614bcc565b6001600160a01b031660009081526004602052604090205490565b600f54610540906001600160a01b031681565b61048c61097c366004614bcc565b6142a0565b600080546040516305a1ce9960e01b8152600481018490526001600160a01b03909116906305a1ce99906024015b602060405180830381865afa1580156109cc573d6000803e3d6000fd5b505050506040513d601f19601f820116820180604052508101906109f091906152b4565b92915050565b600c546040516344c7439360e01b81526001600160a01b03838116600483015260009216906344c74393906024015b602060405180830381865afa158015610a42573d6000803e3d6000fd5b505050506040513d601f19601f820116820180604052508101906109f091906152d1565b600082815260066020908152604080832054835260059091528082205490516359dc5c6f60e01b8152600481018590526001600160a01b039091169081906359dc5c6f90602401600060405180830381600087803b158015610ac757600080fd5b505af1158015610adb573d6000803e3d6000fd5b5050604051630ae161cd60e21b8152600481018790526001600160a01b0384169250632b8587349150602401600060405180830381600087803b158015610b2157600080fd5b505af1158015610b35573d6000803e3d6000fd5b506001979650505050505050565b6000805460405163046b1ab560e31b8152600481018590526001600160a01b03848116602483015290911690632358d5a8906044015b602060405180830381865afa158015610b96573d6000803e3d6000fd5b505050506040513d601f19601f82011682018060405250810190610bba91906152b4565b9392505050565b600080546040516323f2a73f60e01b8152600481018590526001600160a01b038481166024830152909116906323f2a73f90604401610b79565b600954604051638a6cac3d60e01b81526004810183905260009182916001600160a01b0390911690638a6cac3d9060240160c060405180830381865afa158015610c49573d6000803e3d6000fd5b505050506040513d601f19601f82011682018060405250810190610c6d91906152ea565b505093505050915081158015610c805750805b610cd15760405162461bcd60e51b815260206004820152601960248201527f6d61726b657420636f6e646974696f6e73206e6f74206d65740000000000000060448201526064015b60405180910390fd5b610cda83611ac8565b610d3a5760405162461bcd60e51b815260206004820152602b60248201527f6e6f7420656e6f7567682076616c696461746f7273206861766520766f74656460448201526a20746f207265736f6c766560a81b6064820152608401610cc8565b6000838152600660209081526040808320548352600590915290819020549051630ae161cd60e21b8152600481018590526001600160a01b0390911690632b85873490602401600060405180830381600087803b158015610d9a57600080fd5b505af1158015610dae573d6000803e3d6000fd5b50505050505050565b60008054604051632f8899f360e01b8152600481018490526001600160a01b0390911690632f8899f390602401610a25565b60095460405163eb44fdd360e01b81526004810183905260009182918291829182916001600160a01b03169063eb44fdd390602401600060405180830381865afa158015610e3b573d6000803e3d6000fd5b505050506040513d6000823e601f3d908101601f19168201604052610e6391908101906153e3565b90506000610e7087611e50565b90506000610e7d88611df6565b6001600160a01b0316639ec4d40e896040518263ffffffff1660e01b8152600401610eaa91815260200190565b600060405180830381865afa158015610ec7573d6000803e3d6000fd5b505050506040513d6000823e601f3d908101601f19168201604052610eef9190810190615514565b825197509050610f84610f0189611df6565b6001600160a01b03166301e1d1146040518163ffffffff1660e01b8152600401602060405180830381865afa158015610f3e573d6000803e3d6000fd5b505050506040513d601f19601f82011682018060405250810190610f6291906152d1565b610f6d90600161564f565b83516020850151610f7e9190615662565b9061433f565b9550806101a00151604001519450806101a00151608001519350806020015161119057815160009081901561111e5773__$7f722a1af7b4060aab6915c87e2e2208cb$__63018b03518560000151600088600001516001600160a01b0316636e2f7ad36040518163ffffffff1660e01b8152600401602060405180830381865afa158015611016573d6000803e3d6000fd5b505050506040513d601f19601f8201168201806040525081019061103a91906152d1565b89600001516001600160a01b0316634df7e3d06040518163ffffffff1660e01b8152600401602060405180830381865afa15801561107c573d6000803e3d6000fd5b505050506040513d601f19601f820116820180604052508101906110a091906152d1565b6040516001600160e01b031960e087901b16815260048101949094526024840192909252604483015260648201526001608482015260a4016040805180830381865af41580156110f4573d6000803e3d6000fd5b505050506040513d601f19601f820116820180604052508101906111189190615675565b90925090505b835160c084015160009161113191615662565b8385608001516111419190615662565b61114b9190615662565b90506000856020015111611160576000611188565b845160c0850151611188919061117790600161564f565b6111819190615662565b829061433f565b975090955050505b5050509193509193565b6000805460405163037bc93b60e41b8152600481018490526001600160a01b03909116906337bc93b090602401610a25565b600054604051630e2e918560e21b81526001600160a01b03909116906338ba4614906111fe9085908590600401615699565b600060405180830381600087803b15801561121857600080fd5b505af115801561122c573d6000803e3d6000fd5b505050505050565b600054604051633ec8dc3b60e01b8152600481018390526060916001600160a01b031690633ec8dc3b90602401600060405180830381865afa15801561127e573d6000803e3d6000fd5b505050506040513d6000823e601f3d908101601f191682016040526109f091908101906156b2565b60095460405163661f1cf560e01b81526004810184905260009182916001600160a01b039091169063661f1cf590602401602060405180830381865afa1580156112f4573d6000803e3d6000fd5b505050506040513d601f19601f8201168201806040525081019061131891906152d1565b9050600061132585611df6565b6001600160a01b0316639ec4d40e866040518263ffffffff1660e01b815260040161135291815260200190565b600060405180830381865afa15801561136f573d6000803e3d6000fd5b505050506040513d6000823e601f3d908101601f191682016040526113979190810190615514565b60c0015190506113d282826113b46729a2241af62c000083614354565b6113be919061564f565b6113c89190615662565b610f7e8387614354565b95945050505050565b6008546001600160a01b031633146113f257600080fd5b600080808080808080611407898b018b61574b565b9750975097509750975097509750975087600960006101000a8154816001600160a01b0302191690836001600160a01b0316021790555086600c60006101000a8154816001600160a01b0302191690836001600160a01b03160217905550600960009054906101000a90046001600160a01b03166001600160a01b03166356a837f4886040518263ffffffff1660e01b81526004016114b591906001600160a01b0391909116815260200190565b600060405180830381600087803b1580156114cf57600080fd5b505af11580156114e3573d6000803e3d6000fd5b5050600080546001600160a01b038a81166001600160a01b031992831617909255600d80548a8416921682179055600954604051631e60984f60e31b81526004810192909252909116925063f304c2789150602401600060405180830381600087803b15801561155257600080fd5b505af1158015611566573d6000803e3d6000fd5b5050600f80546001600160a01b038881166001600160a01b031992831617909255600a8054888416908316179055600b8054878416908316179055600e805486841692168217905560095460405163280032e960e11b81526004810192909252909116925063500065d29150602401600060405180830381600087803b1580156115ef57600080fd5b505af1158015611603573d6000803e3d6000fd5b5050600c5460405163280032e960e11b81526001600160a01b038581166004830152909116925063500065d29150602401600060405180830381600087803b15801561164e57600080fd5b505af1158015611662573d6000803e3d6000fd5b5050600d5460405163280032e960e11b81526001600160a01b038581166004830152909116925063500065d29150602401600060405180830381600087803b1580156116ad57600080fd5b505af11580156116c1573d6000803e3d6000fd5b5050600f5460405163280032e960e11b81526001600160a01b038581166004830152909116925063500065d29150602401600060405180830381600087803b15801561170c57600080fd5b505af1158015611720573d6000803e3d6000fd5b5050505050505050505050505050565b6007602052816000526040600020818154811061174c57600080fd5b90600052602060002001600091509150505481565b8061176c8133610bc1565b8061178157506008546001600160a01b031633145b6117b65760405162461bcd60e51b8152600401610cc8906020808252600490820152630855985b60e21b604082015260600190565b600082815260066020908152604080832054835260059091529081902054905163d746d3ef60e01b8152600481018490526001600160a01b039091169063d746d3ef90602401600060405180830381600087803b15801561181657600080fd5b505af115801561182a573d6000803e3d6000fd5b5050505061183782614369565b600954604051634cb4408760e01b8152600481018490526001600160a01b0390911690634cb4408790602401600060405180830381600087803b15801561187d57600080fd5b505af1158015611891573d6000803e3d6000fd5b50506040518492507f38274fdcd6150638fa33375a76a55bc5b507aa04639aef21fcf7a1bf0b9c095d9150600090a25050565b806118cf8133610bc1565b806118e457506008546001600160a01b031633145b6119195760405162461bcd60e51b8152600401610cc8906020808252600490820152630855985b60e21b604082015260600190565b6000828152600660209081526040808320548352600590915280822054905163709a664160e11b8152600481018590528291829182916001600160a01b03169063e134cc82906024016080604051808303816000875af1158015611981573d6000803e3d6000fd5b505050506040513d601f19601f820116820180604052508101906119a591906157f4565b93509350935093506119ba8685858585614421565b60008054878252600160208190526040928390200154915163665293b360e11b8152600481018990526024810192909252604482018490526001600160a01b03169063cca5276690606401600060405180830381600087803b158015611a1f57600080fd5b505af1158015611a33573d6000803e3d6000fd5b50505050611a4086614369565b60408051851515815260208101859052908101839052811515606082015286907f77220ccc88401eef4453630e1f9b709ab45bd7912e6599a260abd10a84ac3ed2906080015b60405180910390a2505050505050565b60008054604051632015e62b60e21b8152600481018490526001600160a01b039091169063805798ac90602401610a25565b600080546040516320786c1f60e21b8152600481018490526001600160a01b03909116906381e1b07c906024016109af565b6009546000906001600160a01b0316331480611b205750600d546001600160a01b031633145b80611b355750600f546001600160a01b031633145b80611b4a57506008546001600160a01b031633145b611b665760405162461bcd60e51b8152600401610cc890615840565b600054604051634187150160e11b8152600481018590526001600160a01b0384811660248301529091169063830e2a02906044016020604051808303816000875af1158015611bb9573d6000803e3d6000fd5b505050506040513d601f19601f82011682018060405250810190610bba91906152d1565b600080546040516343af243f60e11b8152600481018490526001600160a01b039091169063875e487e90602401610a25565b600054604051636172cd6760e01b8152600481018390523360248201526001600160a01b0390911690636172cd67906044015b600060405180830381600087803b158015611c5c57600080fd5b505af1158015611c70573d6000803e3d6000fd5b5050505050565b6009546001600160a01b0316331480611c9a5750600d546001600160a01b031633145b80611caf5750600f546001600160a01b031633145b80611cc457506008546001600160a01b031633145b611ce05760405162461bcd60e51b8152600401610cc890615840565b600054604051638f5709a560e01b8152600481018490526001600160a01b03838116602483015290911690638f5709a5906044016111fe565b60095460405163054d50b360e21b8152600481018390526000916001600160a01b03169063153542cc90602401602060405180830381865afa158015611d63573d6000803e3d6000fd5b505050506040513d601f19601f82011682018060405250810190611d879190615862565b6001600160a01b03166318160ddd6040518163ffffffff1660e01b8152600401602060405180830381865afa158015610a42573d6000803e3d6000fd5b6000805460405163937b6feb60e01b8152600481018490526001600160a01b039091169063937b6feb90602401610a25565b600090815260066020908152604080832054835260059091529020546001600160a01b031690565b6000805460405163a40c63f760e01b8152600481018490526001600160a01b039091169063a40c63f790602401610a25565b611e7460405180606001604052806000815260200160008152602001600081525090565b506000908152600160208181526040928390208351606081018552815481529281015491830191909152600201549181019190915290565b60005460405163f23566b560e01b8152600481018390523360248201526001600160a01b039091169063f23566b590604401611c42565b600081815260076020908152604091829020805483518184028101840190945280845260609392830182828015611f3957602002820191906000526020600020905b815481526020019060010190808311611f25575b50505050509050919050565b6008546001600160a01b03163314611f885760405162461bcd60e51b815260206004820152600660248201526510b7bbb732b960d11b6044820152606401610cc8565b611f9181611fe9565b611fdd5760405162461bcd60e51b815260206004820152601860248201527f6d61726b657420636f6e646974696f6e206e6f74206d657400000000000000006044820152606401610cc8565b611fe6816126ee565b50565b60095460405163b1283e7760e01b81526004810183905260009182916001600160a01b039091169063b1283e7790602401600060405180830381865afa158015612037573d6000803e3d6000fd5b505050506040513d6000823e601f3d908101601f1916820160405261205f919081019061587f565b965050505050505080156121645761207683611df6565b6001600160a01b0316639ec4d40e846040518263ffffffff1660e01b81526004016120a391815260200190565b600060405180830381865afa1580156120c0573d6000803e3d6000fd5b505050506040513d6000823e601f3d908101601f191682016040526120e89190810190615514565b6101a001515160095460405163661f1cf560e01b8152600481018690526001600160a01b039091169063661f1cf590602401602060405180830381865afa158015612137573d6000803e3d6000fd5b505050506040513d601f19601f8201168201806040525081019061215b91906152d1565b10159392505050565b600061216f84611df6565b6001600160a01b0316639ec4d40e856040518263ffffffff1660e01b815260040161219c91815260200190565b600060405180830381865afa1580156121b9573d6000803e3d6000fd5b505050506040513d6000823e601f3d908101601f191682016040526121e19190810190615514565b60c00151604080518082018252600f81526e36b0b935b2ba31b7b73234ba34b7b760891b6020820152600954915163661f1cf560e01b8152600481018890529293506122fd9290916001600160a01b03169063661f1cf590602401602060405180830381865afa158015612259573d6000803e3d6000fd5b505050506040513d601f19601f8201168201806040525081019061227d91906152d1565b60095460405163c6ceb96b60e01b8152600481018990526122f8916001600160a01b03169063c6ceb96b9060240161010060405180830381865afa1580156122c9573d6000803e3d6000fd5b505050506040513d601f19601f820116820180604052508101906122ed919061591e565b604001518590614354565b614721565b60095460405163c6ceb96b60e01b815260048101869052612378916001600160a01b03169063c6ceb96b9060240161010060405180830381865afa158015612349573d6000803e3d6000fd5b505050506040513d601f19601f8201168201806040525081019061236d919061591e565b604001518290614354565b60095460405163661f1cf560e01b8152600481018790526001600160a01b039091169063661f1cf590602401602060405180830381865afa1580156123c1573d6000803e3d6000fd5b505050506040513d601f19601f820116820180604052508101906123e591906152d1565b1015949350505050565b60008060008060006007600087815260200190815260200160002080548060200260200160405190810160405280929190818152602001828054801561245457602002820191906000526020600020905b815481526020019060010190808311612440575b5050505050905060005b815181101561255a5760008061248c84848151811061247f5761247f6159ad565b6020026020010151610de9565b50909350915061249e90508282614354565b6124a8908861564f565b60095485519198506001600160a01b03169063661f1cf5908690869081106124d2576124d26159ad565b60200260200101516040518263ffffffff1660e01b81526004016124f891815260200190565b602060405180830381865afa158015612515573d6000803e3d6000fd5b505050506040513d601f19601f8201168201806040525081019061253991906152d1565b612543908961564f565b975050508080612552906159c3565b91505061245e565b506000868152600560209081526040918290205482516336190e4560e11b815292516001600160a01b0390911692670c7d713b49da00009283928592636c321c8a9260048083019391928290030181865afa1580156125bd573d6000803e3d6000fd5b505050506040513d601f19601f820116820180604052508101906125e191906152d1565b1161266e5761266786612661846001600160a01b0316636c321c8a6040518163ffffffff1660e01b8152600401602060405180830381865afa15801561262b573d6000803e3d6000fd5b505050506040513d601f19601f8201168201806040525081019061264f91906152d1565b61265a90600161564f565b849061433f565b90614354565b9450612672565b8594505b60405163ef8b30f760e01b8152670de0b6b3a764000060048201526001600160a01b0383169063ef8b30f790602401602060405180830381865afa1580156126be573d6000803e3d6000fd5b505050506040513d601f19601f820116820180604052508101906126e291906152d1565b93505050509193509193565b6000546001600160a01b031633148061271157506008546001600160a01b031633145b61274a5760405162461bcd60e51b815260206004820152600a60248201526910bb30b634b230ba37b960b11b6044820152606401610cc8565b6000818152600660209081526040808320548352600590915280822054600954915163068bcd8d60e01b8152600481018590526001600160a01b039182169392919091169063068bcd8d90602401602060405180830381865afa1580156127b5573d6000803e3d6000fd5b505050506040513d601f19601f820116820180604052508101906127d99190615862565b600954604051634bee760b60e11b8152600481018690529192506001600160a01b0316906397dcec1690602401602060405180830381865afa158015612823573d6000803e3d6000fd5b505050506040513d601f19601f8201168201806040525081019061284791906152d1565b6003146128895760405162461bcd60e51b815260206004820152601060248201526f10b6b0b935b2ba21b7b73234ba34b7b760811b6044820152606401610cc8565b60405163238f0e7560e11b8152600481018490526001600160a01b0383169063471e1cea90602401602060405180830381865afa1580156128ce573d6000803e3d6000fd5b505050506040513d601f19601f820116820180604052508101906128f291906152b4565b6129355760405162461bcd60e51b815260206004820152601460248201527310b4b739ba393ab6b2b73a21b7b73234ba34b7b760611b6044820152606401610cc8565b60095460405163cabe2ae160e01b8152600481018590526001600160a01b039091169063cabe2ae190602401600060405180830381600087803b15801561297b57600080fd5b505af115801561298f573d6000803e3d6000fd5b505060095460405163b1283e7760e01b815260048101879052600093506001600160a01b03909116915063b1283e7790602401600060405180830381865afa1580156129df573d6000803e3d6000fd5b505050506040513d6000823e601f3d908101601f19168201604052612a07919081019061587f565b60095460405163661f1cf560e01b8152600481018d9052919850600097506001600160a01b0316955063661f1cf594506024019250612a44915050565b602060405180830381865afa158015612a61573d6000803e3d6000fd5b505050506040513d601f19601f82011682018060405250810190612a8591906152d1565b9050612b1960405180604001604052806013815260200172036b0b730b3b2b921b7b63630ba32b930b61d1606d1b81525082856001600160a01b03166308ef2b4c6040518163ffffffff1660e01b8152600401602060405180830381865afa158015612af5573d6000803e3d6000fd5b505050506040513d601f19601f820116820180604052508101906122f891906152d1565b826001600160a01b03166396fd1c4230856001600160a01b03166308ef2b4c6040518163ffffffff1660e01b8152600401602060405180830381865afa158015612b67573d6000803e3d6000fd5b505050506040513d601f19601f82011682018060405250810190612b8b91906152d1565b6040516001600160e01b031960e085901b1681526001600160a01b0390921660048301526024820152604401600060405180830381600087803b158015612bd157600080fd5b505af1158015612be5573d6000803e3d6000fd5b50506040516376da9e9f60e11b815260048101889052600092506001600160a01b038716915063edb53d3e90602401602060405180830381865afa158015612c31573d6000803e3d6000fd5b505050506040513d601f19601f82011682018060405250810190612c559190615862565b9050846001600160a01b031663c5d664c66040518163ffffffff1660e01b8152600401602060405180830381865afa158015612c95573d6000803e3d6000fd5b505050506040513d601f19601f82011682018060405250810190612cb99190615862565b60405163095ea7b360e01b81526001600160a01b03838116600483015260248201859052919091169063095ea7b3906044016020604051808303816000875af1158015612d0a573d6000803e3d6000fd5b505050506040513d601f19601f82011682018060405250810190612d2e91906152b4565b508215612f3a5760095460405163054d50b360e21b815260048101889052612e809188916001600160a01b039091169063153542cc90602401602060405180830381865afa158015612d84573d6000803e3d6000fd5b505050506040513d601f19601f82011682018060405250810190612da89190615862565b6001600160a01b03166318160ddd6040518163ffffffff1660e01b8152600401602060405180830381865afa158015612de5573d6000803e3d6000fd5b505050506040513d601f19601f82011682018060405250810190612e0991906152d1565b604051634f626a0760e11b8152600481018a90526001600160a01b03891690639ec4d40e90602401600060405180830381865afa158015612e4e573d6000803e3d6000fd5b505050506040513d6000823e601f3d908101601f19168201604052612e769190810190615514565b6101a0015161476d565b604051636e553f6560e01b8152600481018390526001600160a01b03868116602483015260009190831690636e553f65906044016020604051808303816000875af1158015612ed3573d6000803e3d6000fd5b505050506040513d601f19601f82011682018060405250810190612ef791906152d1565b11612f355760405162461bcd60e51b815260206004820152600e60248201526d11115413d4d25517d1905253115160921b6044820152606401610cc8565b61309b565b6040516303d972f160e21b8152600481018790526001600160a01b03861690630f65cbc490602401602060405180830381865afa158015612f7f573d6000803e3d6000fd5b505050506040513d601f19601f82011682018060405250810190612fa391906152d1565b600003612fb957612fb48685614822565b612fc2565b612fc286614a6d565b846001600160a01b031663c5d664c66040518163ffffffff1660e01b8152600401602060405180830381865afa158015613000573d6000803e3d6000fd5b505050506040513d601f19601f820116820180604052508101906130249190615862565b60405163a9059cbb60e01b81526001600160a01b03838116600483015260248201859052919091169063a9059cbb906044016020604051808303816000875af1158015613075573d6000803e3d6000fd5b505050506040513d601f19601f8201168201806040525081019061309991906152b4565b505b6000868152600160208190526040918290208481559151624e1afd60e81b81526004810189905260248101859052908201546044820152600290910154606482015283151560848201526001600160a01b03861690634e1afd009060a401600060405180830381600087803b15801561311357600080fd5b505af1158015613127573d6000803e3d6000fd5b5050506000878152600160205260409081902090518892507fa5a0c282064b5581aa97f2fdef075816b806dd6394a5eaaf1831ec95a1f79d5791611a86916159dc565b600080546040516317c2ad2760e21b815260048101849052336024820152829182916001600160a01b0390911690635f0ab49c9060440160408051808303816000875af11580156131bf573d6000803e3d6000fd5b505050506040513d601f19601f820116820180604052508101906131e39190615675565b60095460405163334b11d360e11b81526004810188905260248101849052604481018390523360648201529294509092506001600160a01b03169063669623a690608401600060405180830381600087803b15801561324157600080fd5b505af1158015613255573d6000803e3d6000fd5b5050505061326284610981565b156132cf57613270846126ee565b60095460405163cabe2ae160e01b8152600481018690526001600160a01b039091169063cabe2ae190602401600060405180830381600087803b1580156132b657600080fd5b505af11580156132ca573d6000803e3d6000fd5b505050505b5092915050565b60008054604051633519918760e21b8152600481018490526001600160a01b039091169063d466461c90602401610a25565b60008054604051633597b25960e21b8152600481018490526001600160a01b039091169063d65ec96490602401610a25565b6009546001600160a01b031633148061335d5750600d546001600160a01b031633145b806133725750600f546001600160a01b031633145b8061338757506008546001600160a01b031633145b6133a35760405162461bcd60e51b8152600401610cc890615840565b6133ac82611df6565b604051633c16f3ed60e21b8152600481018390523360248201526001600160a01b03919091169063f05bcfb4906044016111fe565b600a5460405160009182916001600160a01b0390911690631fe84c5b908c90309061341a908e908e908e908e908d908d906020016159fd565b604051602081830303815290604052896040518563ffffffff1660e01b81526004016134499493929190615ac4565b60408051808303816000875af1158015613467573d6000803e3d6000fd5b505050506040513d601f19601f8201168201806040525081019061348b9190615b01565b6000818152600560205260409081902080546001600160a01b0319166001600160a01b0385169081179091559051929450909250907f7ecb7591c061739d6ccd6a6299e0adf7d3447c390b9321530e0a400f7c65d1b7906134f99084908e908e908e908e908e908e90615b2f565b60405180910390a250505050505050505050565b600c54604051637453c01360e11b81526001600160a01b03848116600483015260248201849052600092169063e8a7802690604401610b79565b6001600160a01b0383166135895760405162461bcd60e51b815260206004820152600960248201526830b2323932b9b9982960b91b6044820152606401610cc8565b6101408201516001600160a01b03166135d05760405162461bcd60e51b815260206004820152600960248201526861646472657373304960b81b6044820152606401610cc8565b6000818152600560205260409020546001600160a01b03166136205760405162461bcd60e51b815260206004820152600960248201526830b2323932b9b9982b60b91b6044820152606401610cc8565b600081815260056020908152604080832054600954825163764bc84160e11b815292516001600160a01b039283169594919092169263ec97908292600480830193928290030181865afa15801561367b573d6000803e3d6000fd5b505050506040513d601f19601f8201168201806040525081019061369f91906152d1565b60008181526006602090815260408083208790558683526007825280832080546001818101835591855283852001859055815180830183526101408a01516001600160a01b0390811682528b8116828601908152878752600390955294839020905181549086166001600160a01b031991821617825593519101805491851691909316179091556009548151637572cb1f60e01b81529151939450821692634e042a5992861691637572cb1f916004808301926101009291908290030181865afa158015613771573d6000803e3d6000fd5b505050506040513d601f19601f82011682018060405250810190613795919061591e565b846001600160a01b0316636c321c8a6040518163ffffffff1660e01b8152600401602060405180830381865afa1580156137d3573d6000803e3d6000fd5b505050506040513d601f19601f820116820180604052508101906137f791906152d1565b846040518463ffffffff1660e01b815260040161381693929190615b7c565b600060405180830381600087803b15801561383057600080fd5b505af1158015613844573d6000803e3d6000fd5b5050600b5460008681526005602090815260408083205481516362eb326360e11b8152915193965086955085946001600160a01b039081169463981f513694919092169263c5d664c692600480830193928290030181865afa1580156138ae573d6000803e3d6000fd5b505050506040513d601f19601f820116820180604052508101906138d29190615862565b60095460405160e084901b6001600160e01b03191681526001600160a01b039283166004820152911660248201526044016060604051808303816000875af1158015613922573d6000803e3d6000fd5b505050506040513d601f19601f820116820180604052508101906139469190615b9e565b6040805160e081018252600080825260208083018290529282018190526060808301526080820181905260a0820181905260c0820152908b015193965091945092509015613c8857670de0b6b3a7640000886101a0015160200151111580156139bd57506101a08801516080810151602090910151105b6139f55760405162461bcd60e51b8152602060048201526009602482015268282924a1a29022a92960b91b6044820152606401610cc8565b6000886101a001516040015111613a3b5760405162461bcd60e51b815260206004820152600a6024820152692922aa2aa9271022a92960b11b6044820152606401610cc8565b6101a08801805142606090910152518051602082015160809092015160095460405163c6ceb96b60e01b8152600481018a90526001600160a01b03878116956334327d8b95949093909291169063c6ceb96b9060240161010060405180830381865afa158015613aaf573d6000803e3d6000fd5b505050506040513d601f19601f82011682018060405250810190613ad3919061591e565b602001516040516001600160e01b031960e087901b16815260048101949094526024840192909252604483015260648201526084016020604051808303816000875af1158015613b27573d6000803e3d6000fd5b505050506040513d601f19601f82011682018060405250810190613b4b91906152d1565b6101a089015160c0015260095461012089015160405163080ec90d60e21b81526001600160a01b039092169163203b243491613b9491899187918a918a91600190600401615beb565b600060405180830381600087803b158015613bae57600080fd5b505af1158015613bc2573d6000803e3d6000fd5b50506040805160e0810182526001600160a01b038681168252888116602080840191909152888216838501526101208e01516060840152426080840152600060a08401819052600160c0850152546101a08f015151918f01519451639c84342360e01b8152600481018d905260248101929092529315156044820152919550919091169250639c8434239150606401600060405180830381600087803b158015613c6b57600080fd5b505af1158015613c7f573d6000803e3d6000fd5b50505050613ee7565b60095460405163c6ceb96b60e01b8152600481018790526000916001600160a01b03169063c6ceb96b9060240161010060405180830381865afa158015613cd3573d6000803e3d6000fd5b505050506040513d601f19601f82011682018060405250810190613cf7919061591e565b60c08a015160e08b015160208301516040808501516080860151915163ac4bc1cb60e01b8152600481019590955260248501939093526044840191909152606483019190915260848201529091506001600160a01b0384169063ac4bc1cb9060a401600060405180830381600087803b158015613d7357600080fd5b505af1158015613d87573d6000803e3d6000fd5b50506009546101208c015160405163080ec90d60e21b81526001600160a01b03909216935063203b24349250613dca918a9188918b918b91600090600401615beb565b600060405180830381600087803b158015613de457600080fd5b505af1158015613df8573d6000803e3d6000fd5b505050506040518060e00160405280846001600160a01b03168152602001866001600160a01b03168152602001856001600160a01b031681526020018a610120015181526020014281526020016000815260200160001515815250915060008054906101000a90046001600160a01b03166001600160a01b0316639c843423878b60c001518c602001516040518463ffffffff1660e01b8152600401613eb39392919092835260208301919091521515604082015260600190565b600060405180830381600087803b158015613ecd57600080fd5b505af1158015613ee1573d6000803e3d6000fd5b50505050505b600e54604051637c4b1bb560e11b81526001600160a01b03909116906392b8c31e90829063f896376a90613f1f908690600401615ca7565b6020604051808303816000875af1158015613f3e573d6000803e3d6000fd5b505050506040513d601f19601f82011682018060405250810190613f6291906152d1565b8a6101a0015160800151600060018d876040518763ffffffff1660e01b8152600401613f9396959493929190615dfd565b600060405180830381600087803b158015613fad57600080fd5b505af1158015613fc1573d6000803e3d6000fd5b5050505060a088018590526040516398d796e760e01b81526001600160a01b038716906398d796e790613ff8908b90600401615e49565b600060405180830381600087803b15801561401257600080fd5b505af1158015614026573d6000803e3d6000fd5b50505050886001600160a01b03166005600089815260200190815260200160002060009054906101000a90046001600160a01b03166001600160a01b0316867fc276e8dd3cf2547c0646ef7093b7ef8fb4edc8fde6df7574f8757ca3336e940f8588888e60405161409a9493929190615e5c565b60405180910390a45050506001600160a01b0390951660009081526004602052604090205550505050565b600080546040516375ea6e2360e11b8152600481018490526001600160a01b039091169063ebd4dc4690602401610a25565b6009546001600160a01b031633148061411a5750600d546001600160a01b031633145b8061412f5750600f546001600160a01b031633145b8061414457506008546001600160a01b031633145b6141605760405162461bcd60e51b8152600401610cc890615840565b600081815260066020908152604080832054835260058252918290205482516362eb326360e11b815292516001600160a01b039091169263c5d664c69260048083019391928290030181865afa1580156141be573d6000803e3d6000fd5b505050506040513d601f19601f820116820180604052508101906141e29190615862565b60405163a9059cbb60e01b81526001600160a01b03848116600483015260248201869052919091169063a9059cbb906044016020604051808303816000875af1158015614233573d6000803e3d6000fd5b505050506040513d601f19601f8201168201806040525081019061425791906152b4565b50604080518481526001600160a01b038416602082015282917f23eee7127e8ffafe0ff607129c8dc9492da94a3ee89d9690587399ac0e4e644f910160405180910390a2505050565b6008546001600160a01b031633146142e25760405162461bcd60e51b8152602060048201526005602482015264042c2eae8d60db1b6044820152606401610cc8565b6001600160a01b0381811660008181526002602052604090819020805460ff19166001179055600c549051630622fd1760e01b81526004810192909252670de0b6b3a7640000602483015290911690630622fd1790604401611c42565b6000610bba83670de0b6b3a764000084614b38565b6000610bba8383670de0b6b3a7640000614b38565b60095460405163068bcd8d60e01b8152600481018390526001600160a01b039091169063068bcd8d90602401602060405180830381865afa1580156143b2573d6000803e3d6000fd5b505050506040513d601f19601f820116820180604052508101906143d69190615862565b6001600160a01b03166396fd1c426143ed83611df6565b6040516001600160e01b031960e084901b1681526001600160a01b0390911660048201526000196024820152604401611c42565b831561443557821561443557614435615e9a565b60095460405163054d50b360e21b8152600481018790526000916001600160a01b03169063153542cc90602401602060405180830381865afa15801561447f573d6000803e3d6000fd5b505050506040513d601f19601f820116820180604052508101906144a39190615862565b6001600160a01b03166318160ddd6040518163ffffffff1660e01b8152600401602060405180830381865afa1580156144e0573d6000803e3d6000fd5b505050506040513d601f19601f8201168201806040525081019061450491906152d1565b905060008085116145165760006145e4565b60095460405163920f4e5560e01b8152600481018990526001600160a01b039091169063920f4e5590602401602060405180830381865afa15801561455f573d6000803e3d6000fd5b505050506040513d601f19601f820116820180604052508101906145839190615862565b6001600160a01b03166318160ddd6040518163ffffffff1660e01b8152600401602060405180830381865afa1580156145c0573d6000803e3d6000fd5b505050506040513d601f19601f820116820180604052508101906145e491906152d1565b905060008380156145f55750600086115b1561460b5761460488876112a6565b90506146a3565b6146396040518060400160405280600b81526020016a07570646174696e672072760ac1b8152508787614721565b866146645761465261464b838561564f565b879061433f565b61460490670de0b6b3a764000061564f565b61466e858461433f565b670de0b6b3a764000011614684575060006146a3565b61468e858461433f565b6146a090670de0b6b3a7640000615662565b90505b6009546040516361fa5af560e01b8152600481018a9052881515602482015285156044820152606481018390526001600160a01b03909116906361fa5af590608401600060405180830381600087803b1580156146ff57600080fd5b505af1158015614713573d6000803e3d6000fd5b505050505050505050505050565b61476883838360405160240161473993929190615eb0565b60408051601f198184030181529190526020810180516001600160e01b031663969cdd0360e01b179052614b56565b505050565b60008160a00151116147b05760405162461bcd60e51b815260206004820152600c60248201526b18102622ab2fa320a1aa27a960a11b6044820152606401610cc8565b6040518060600160405280600081526020016147ec83608001516126618560a00151670de0b6b3a76400006147e5919061564f565b8790614354565b81526000602091820181905294855260018082526040958690208351815591830151908201559301516002909301929092555050565b600082815260066020908152604080832054835260059091528082205490516318353be960e21b81526004810185905282916001600160a01b0316906360d4efa4906024016040805180830381865afa158015614883573d6000803e3d6000fd5b505050506040513d601f19601f820116820180604052508101906148a79190615675565b60095460405163661f1cf560e01b8152600481018890529294509092506000916149af916149a9916001600160a01b039091169063661f1cf590602401602060405180830381865afa158015614901573d6000803e3d6000fd5b505050506040513d601f19601f8201168201806040525081019061492591906152d1565b60095460405163c6ceb96b60e01b8152600481018a9052670de0b6b3a7640000916001600160a01b03169063c6ceb96b9060240161010060405180830381865afa158015614977573d6000803e3d6000fd5b505050506040513d601f19601f8201168201806040525081019061499b919061591e565b60c00151612661919061564f565b84614b77565b90506000614a25856001600160a01b03166314e2b929846040518263ffffffff1660e01b81526004016149e491815260200190565b602060405180830381865afa158015614a01573d6000803e3d6000fd5b505050506040513d601f19601f820116820180604052508101906149a991906152d1565b60408051606081018252600080825260208083019687528284019485529981526001998a90529190912090518155925196830196909655509351600290940193909355505050565b600081815260066020908152604080832054835260059091528082205490516318353be960e21b81526004810184905282916001600160a01b0316906360d4efa4906024016040805180830381865afa158015614ace573d6000803e3d6000fd5b505050506040513d601f19601f82011682018060405250810190614af29190615675565b6040805160608101825260008082526020808301958652828401948552978152600197889052919091209051815591519482019490945592516002909301929092555050565b6000826000190484118302158202614b4f57600080fd5b5091020490565b80516a636f6e736f6c652e6c6f67602083016000808483855afa5050505050565b600081831115614b875781610bba565b5090919050565b600060208284031215614ba057600080fd5b5035919050565b6001600160a01b0381168114611fe657600080fd5b8035614bc781614ba7565b919050565b600060208284031215614bde57600080fd5b8135610bba81614ba7565b8015158114611fe657600080fd5b8035614bc781614be9565b60008060408385031215614c1557600080fd5b823591506020830135614c2781614be9565b809150509250929050565b60008060408385031215614c4557600080fd5b823591506020830135614c2781614ba7565b634e487b7160e01b600052604160045260246000fd5b60405161010081016001600160401b0381118282101715614c9057614c90614c57565b60405290565b60405160e081016001600160401b0381118282101715614c9057614c90614c57565b6040516101c081016001600160401b0381118282101715614c9057614c90614c57565b604051601f8201601f191681016001600160401b0381118282101715614d0357614d03614c57565b604052919050565b60006001600160401b03821115614d2457614d24614c57565b5060051b60200190565b60008060408385031215614d4157600080fd5b823591506020808401356001600160401b03811115614d5f57600080fd5b8401601f81018613614d7057600080fd5b8035614d83614d7e82614d0b565b614cdb565b81815260059190911b82018301908381019088831115614da257600080fd5b928401925b82841015614dc057833582529284019290840190614da7565b80955050505050509250929050565b6020808252825182820181905260009190848201906040850190845b81811015614e105783516001600160a01b031683529284019291840191600101614deb565b50909695505050505050565b60008060408385031215614e2f57600080fd5b50508035926020909101359150565b60008083601f840112614e5057600080fd5b5081356001600160401b03811115614e6757600080fd5b602083019150836020828501011115614e7f57600080fd5b9250929050565b60008060208385031215614e9957600080fd5b82356001600160401b03811115614eaf57600080fd5b614ebb85828601614e3e565b90969095509350505050565b600081518084526020808501945080840160005b83811015614ef757815187529582019590820190600101614edb565b509495945050505050565b602081526000610bba6020830184614ec7565b600080600080600080600080888a036101c0811215614f3357600080fd5b8935614f3e81614ba7565b985060208a0135614f4e81614be9565b975060408a0135965060608a0135955060808a01359450610100609f198201811315614f7957600080fd5b614f81614c6d565b915060a08b0135825260c08b0135602083015260e08b01356040830152808b01356060830152506101208a013560808201526101408a013560a08201526101608a013560c08201526101808a013560e0820152809350506101a08901356001600160401b03811115614ff257600080fd5b614ffe8b828c01614e3e565b999c989b5096995094979396929594505050565b6000806040838503121561502557600080fd5b823561503081614ba7565b946020939093013593505050565b60006001600160401b0382111561505757615057614c57565b50601f01601f191660200190565b600082601f83011261507657600080fd5b8135615084614d7e8261503e565b81815284602083860101111561509957600080fd5b816020850160208301376000918101602001919091529392505050565b60068110611fe657600080fd5b8035614bc7816150b6565b600060e082840312156150e057600080fd5b6150e8614c96565b9050813581526020820135602082015260408201356040820152606082013560608201526080820135608082015260a082013560a082015260c082013560c082015292915050565b60008060006060848603121561514557600080fd5b833561515081614ba7565b925060208401356001600160401b038082111561516c57600080fd5b90850190610280828803121561518157600080fd5b615189614cb8565b8235815261519960208401614bf7565b60208201526151aa60408401614bf7565b6040820152606083013560608201526080830135608082015260a083013560a082015260c083013560c082015260e083013560e0820152610100808401358183015250610120808401358381111561520157600080fd5b61520d8a828701615065565b8284015250506101409150615223828401614bbc565b8282015261016091506152378284016150c3565b82820152610180915081830135828201526101a09150615259888385016150ce565b82820152809450505050604084013590509250925092565b60008060006060848603121561528657600080fd5b83359250602084013561529881614ba7565b929592945050506040919091013590565b8051614bc781614be9565b6000602082840312156152c657600080fd5b8151610bba81614be9565b6000602082840312156152e357600080fd5b5051919050565b60008060008060008060c0878903121561530357600080fd5b865161530e81614be9565b602088015190965061531f81614be9565b604088015190955061533081614be9565b606088015190945061534181614be9565b608088015190935061535281614be9565b8092505060a087015190509295509295509295565b8051614bc781614ba7565b60005b8381101561538d578181015183820152602001615375565b50506000910152565b600082601f8301126153a757600080fd5b81516153b5614d7e8261503e565b8181528460208386010111156153ca57600080fd5b6153db826020830160208701615372565b949350505050565b6000602082840312156153f557600080fd5b81516001600160401b038082111561540c57600080fd5b9083019060e0828603121561542057600080fd5b615428614c96565b61543183615367565b815261543f60208401615367565b602082015261545060408401615367565b604082015260608301518281111561546757600080fd5b61547387828601615396565b6060830152506080830151608082015260a083015160a082015261549960c084016152a9565b60c082015295945050505050565b8051614bc7816150b6565b600060e082840312156154c457600080fd5b6154cc614c96565b9050815181526020820151602082015260408201516040820152606082015160608201526080820151608082015260a082015160a082015260c082015160c082015292915050565b60006020828403121561552657600080fd5b81516001600160401b038082111561553d57600080fd5b90830190610280828603121561555257600080fd5b61555a614cb8565b8251815261556a602084016152a9565b602082015261557b604084016152a9565b6040820152606083015160608201526080830151608082015260a083015160a082015260c083015160c082015260e083015160e082015261010080840151818301525061012080840151838111156155d257600080fd5b6155de88828701615396565b82840152505061014091506155f4828401615367565b8282015261016091506156088284016154a7565b82820152610180915081830151828201526101a0915061562a868385016154b2565b91810191909152949350505050565b634e487b7160e01b600052601160045260246000fd5b808201808211156109f0576109f0615639565b818103818111156109f0576109f0615639565b6000806040838503121561568857600080fd5b505080516020909101519092909150565b8281526040602082015260006153db6040830184614ec7565b600060208083850312156156c557600080fd5b82516001600160401b038111156156db57600080fd5b8301601f810185136156ec57600080fd5b80516156fa614d7e82614d0b565b81815260059190911b8201830190838101908783111561571957600080fd5b928401925b8284101561574057835161573181614ba7565b8252928401929084019061571e565b979650505050505050565b600080600080600080600080610100898b03121561576857600080fd5b883561577381614ba7565b9750602089013561578381614ba7565b9650604089013561579381614ba7565b955060608901356157a381614ba7565b945060808901356157b381614ba7565b935060a08901356157c381614ba7565b925060c08901356157d381614ba7565b915060e08901356157e381614ba7565b809150509295985092959890939650565b6000806000806080858703121561580a57600080fd5b845161581581614be9565b809450506020850151925060408501519150606085015161583581614be9565b939692955090935050565b60208082526008908201526710b6b0b730b3b2b960c11b604082015260600190565b60006020828403121561587457600080fd5b8151610bba81614ba7565b600080600080600080600060e0888a03121561589a57600080fd5b87516158a581614ba7565b60208901519097506158b681614ba7565b60408901519096506158c781614ba7565b60608901519095506001600160401b038111156158e357600080fd5b6158ef8a828b01615396565b9450506080880151925060a0880151915060c088015161590e81614be9565b8091505092959891949750929550565b600061010080838503121561593257600080fd5b604051908101906001600160401b038211818310171561595457615954614c57565b81604052835181526020840151602082015260408401516040820152606084015160608201526080840151608082015260a084015160a082015260c084015160c082015260e084015160e0820152809250505092915050565b634e487b7160e01b600052603260045260246000fd5b6000600182016159d5576159d5615639565b5060010190565b815481526001820154602082015260028201546040820152606081016109f0565b861515815285602082015284604082015283606082015260a060808201528160a0820152818360c0830137600081830160c090810191909152601f909201601f1916010195945050505050565b60008151808452615a62816020860160208601615372565b601f01601f19169290920160200192915050565b805182526020810151602083015260408101516040830152606081015160608301526080810151608083015260a081015160a083015260c081015160c083015260e081015160e08301525050565b6001600160a01b0385811682528416602082015261016060408201819052600090615af183820186615a4a565b9150506113d26060830184615a76565b60008060408385031215615b1457600080fd5b8251615b1f81614ba7565b6020939093015192949293505050565b8781526001600160a01b03871660208201528515156040820152606081018590526080810184905260a081018390526101c08101615b7060c0830184615a76565b98975050505050505050565b6101408101615b8b8286615a76565b6101008201939093526101200152919050565b600080600060608486031215615bb357600080fd5b8351615bbe81614ba7565b6020850151909350615bcf81614ba7565b6040850151909250615be081614ba7565b809150509250925092565b8681526001600160a01b03868116602083015285811660408301528416606082015260c060808201819052600090615c2590830185615a4a565b905082151560a0830152979650505050505050565b600060018060a01b0380835116845280602084015116602085015280604084015116604085015250606082015160e06060850152615c7b60e0850182615a4a565b90506080830151608085015260a083015160a085015260c0830151151560c08501528091505092915050565b602081526000610bba6020830184615c3a565b60068110615cd857634e487b7160e01b600052602160045260246000fd5b9052565b6000610280825184526020830151615cf8602086018215159052565b506040830151615d0c604086018215159052565b50606083015160608501526080830151608085015260a083015160a085015260c083015160c085015260e083015160e0850152610100808401518186015250610120808401518282870152615d6383870182615a4a565b9250505061014080840151615d82828701826001600160a01b03169052565b505061016080840151615d9782870182615cba565b505061018083810151908501526101a08084015180518287015260208101516101c087015260408101516101e08701526060810151610200870152608081015161022087015260a081015161024087015260c08101516102608701525090949350505050565b868152856020820152846040820152831515606082015260c060808201526000615e2a60c0830185615cdc565b82810360a0840152615e3c8185615c3a565b9998505050505050505050565b602081526000610bba6020830184615cdc565b6001600160a01b038581168252848116602083015283166040820152608060608201819052600090615e9090830184615cdc565b9695505050505050565b634e487b7160e01b600052600160045260246000fd5b606081526000615ec36060830186615a4a565b6020830194909452506040015291905056fea264697066735822122030080b2bccdb5dce5c5df7845e494d92199d436f8741fad0eddc998b68cbc6c364736f6c63430008110033",
    "linkReferences": {
      "contracts/bonds/GBC.sol": {
        "LinearCurve": [
          {
            "start": 4213,
            "length": 20
          }
        ]
      }
    }
  },
  "methodIdentifiers": {
    "Data()": "4b6e7d78",
    "ad_to_id(address)": "7789ec5a",
    "approvalCondition(uint256)": "05a1ce99",
    "approveMarket(uint256)": "cabe2ae1",
    "beforeResolve(uint256)": "2b858734",
    "calcIncompleteReturns(uint256,uint256)": "40297812",
    "createVault(address,bool,uint256,uint256,uint256,(uint256,uint256,uint256,uint256,uint256,uint256,uint256,uint256),string)": "e8858b4f",
    "deniedValidator(uint256,address)": "830e2a02",
    "denyMarket(uint256)": "4cb44087",
    "forceCloseInstrument(uint256,bool)": "0c33df18",
    "fulfillRandomWords(uint256,uint256[])": "38ba4614",
    "getApprovalData(uint256)": "ac1b6b01",
    "getFinalStake(uint256)": "937b6feb",
    "getInitialStake(uint256)": "875e487e",
    "getInstrumentSnapShot(uint256)": "37b4dd3a",
    "getMarketId(address)": "f25fcc9f",
    "getMarketIds(uint256)": "b1b7e1f2",
    "getNumApproved(uint256)": "805798ac",
    "getNumResolved(uint256)": "ebd4dc46",
    "getTotalStaked(uint256)": "2f8899f3",
    "getTotalSupply(uint256)": "92ab723e",
    "getTotalValidatorSales(uint256)": "37bc93b0",
    "getTraderScore(address)": "08ad90a5",
    "getValidatorCap(uint256)": "d466461c",
    "getValidatorPrice(uint256)": "a40c63f7",
    "getValidatorRequiredCollateral(uint256)": "d65ec964",
    "getVault(uint256)": "9403b634",
    "getVaultAd(uint256)": "c4abc650",
    "getVaultSnapShot(uint256)": "c8f559c0",
    "getVaultfromId(uint256)": "9fe1458b",
    "hasApproved(uint256,address)": "2358d5a8",
    "id_parent(uint256)": "8fbbc868",
    "initialize(bytes)": "439fab91",
    "initiateMarket(address,(bytes32,bool,bool,uint256,uint256,uint256,uint256,uint256,uint256,string,address,uint8,uint256,(uint256,uint256,uint256,uint256,uint256,uint256,uint256)),uint256)": "e8e3fbb7",
    "isReputable(address,uint256)": "e8a78026",
    "isValidator(uint256,address)": "23f2a73f",
    "isVerified(address)": "b9209e33",
    "leverageManager()": "81fd6c02",
    "marketCondition(uint256)": "b743939b",
    "marketIdToVaultId(uint256)": "ce93ec67",
    "marketId_to_vaultId(uint256)": "14f2b14c",
    "marketManager()": "41ed2c12",
    "market_data(uint256)": "8d4f16d7",
    "orderManager()": "f9b6117f",
    "poolFactory()": "4219dc40",
    "pullLeverage(uint256,uint256)": "da0a697f",
    "redeemValidator(uint256,address)": "8f5709a5",
    "redeem_transfer(uint256,address,uint256)": "f0fd1d38",
    "reputationManager()": "6b868afb",
    "resolveCondition(uint256)": "81e1b07c",
    "resolveMarket(uint256)": "6399d03d",
    "testApproveMarket(uint256)": "b37eedcd",
    "unlockValidatorStake(uint256)": "8dc3d9b4",
    "validatorApprove(uint256)": "d1227136",
    "validatorResolve(uint256)": "ad4e4e70",
    "vaultFactory()": "d8a06f73",
    "vault_to_marketIds(uint256,uint256)": "482c0aa8",
    "vaults(uint256)": "8c64ea4a",
    "verified(address)": "0db065f4",
    "verifyAddress(address)": "fcb2cafc",
    "viewValidators(uint256)": "3ec8dc3b"
  },
  "id": 17
}