{
  "abi": [
    {
      "inputs": [
        {
          "internalType": "address",
          "name": "_creator_address",
          "type": "address"
        },
        {
          "internalType": "address",
          "name": "_interep_address",
          "type": "address"
        }
      ],
      "stateMutability": "nonpayable",
      "type": "constructor"
    },
    {
      "anonymous": false,
      "inputs": [
        {
          "indexed": true,
          "internalType": "uint256",
          "name": "marketId",
          "type": "uint256"
        },
        {
          "components": [
            {
              "internalType": "uint256",
              "name": "managers_stake",
              "type": "uint256"
            },
            {
              "internalType": "uint256",
              "name": "approved_principal",
              "type": "uint256"
            },
            {
              "internalType": "uint256",
              "name": "approved_yield",
              "type": "uint256"
            }
          ],
          "indexed": false,
          "internalType": "struct ApprovalData",
          "name": "data",
          "type": "tuple"
        }
      ],
      "name": "MarketApproved",
      "type": "event"
    },
    {
      "anonymous": false,
      "inputs": [
        {
          "indexed": true,
          "internalType": "uint256",
          "name": "marketId",
          "type": "uint256"
        }
      ],
      "name": "MarketDenied",
      "type": "event"
    },
    {
      "anonymous": false,
      "inputs": [
        {
          "indexed": true,
          "internalType": "uint256",
          "name": "marketId",
          "type": "uint256"
        },
        {
          "indexed": true,
          "internalType": "address",
          "name": "vault",
          "type": "address"
        },
        {
          "indexed": true,
          "internalType": "address",
          "name": "recipient",
          "type": "address"
        },
        {
          "indexed": false,
          "internalType": "address",
          "name": "pool",
          "type": "address"
        },
        {
          "indexed": false,
          "internalType": "address",
          "name": "longZCB",
          "type": "address"
        },
        {
          "indexed": false,
          "internalType": "address",
          "name": "shortZCB",
          "type": "address"
        },
        {
          "components": [
            {
              "internalType": "bytes32",
              "name": "name",
              "type": "bytes32"
            },
            {
              "internalType": "bool",
              "name": "isPool",
              "type": "bool"
            },
            {
              "internalType": "bool",
              "name": "trusted",
              "type": "bool"
            },
            {
              "internalType": "uint256",
              "name": "balance",
              "type": "uint256"
            },
            {
              "internalType": "uint256",
              "name": "faceValue",
              "type": "uint256"
            },
            {
              "internalType": "uint256",
              "name": "marketId",
              "type": "uint256"
            },
            {
              "internalType": "uint256",
              "name": "principal",
              "type": "uint256"
            },
            {
              "internalType": "uint256",
              "name": "expectedYield",
              "type": "uint256"
            },
            {
              "internalType": "uint256",
              "name": "duration",
              "type": "uint256"
            },
            {
              "internalType": "string",
              "name": "description",
              "type": "string"
            },
            {
              "internalType": "address",
              "name": "instrument_address",
              "type": "address"
            },
            {
              "internalType": "enum InstrumentType",
              "name": "instrument_type",
              "type": "uint8"
            },
            {
              "internalType": "uint256",
              "name": "maturityDate",
              "type": "uint256"
            },
            {
              "components": [
                {
                  "internalType": "uint256",
                  "name": "saleAmount",
                  "type": "uint256"
                },
                {
                  "internalType": "uint256",
                  "name": "initPrice",
                  "type": "uint256"
                },
                {
                  "internalType": "uint256",
                  "name": "promisedReturn",
                  "type": "uint256"
                },
                {
                  "internalType": "uint256",
                  "name": "inceptionTime",
                  "type": "uint256"
                },
                {
                  "internalType": "uint256",
                  "name": "inceptionPrice",
                  "type": "uint256"
                },
                {
                  "internalType": "uint256",
                  "name": "leverageFactor",
                  "type": "uint256"
                },
                {
                  "internalType": "uint256",
                  "name": "managementFee",
                  "type": "uint256"
                }
              ],
              "internalType": "struct PoolData",
              "name": "poolData",
              "type": "tuple"
            }
          ],
          "indexed": false,
          "internalType": "struct InstrumentData",
          "name": "instrumentData",
          "type": "tuple"
        }
      ],
      "name": "MarketInitiated",
      "type": "event"
    },
    {
      "anonymous": false,
      "inputs": [
        {
          "indexed": true,
          "internalType": "uint256",
          "name": "marketId",
          "type": "uint256"
        },
        {
          "indexed": false,
          "internalType": "bool",
          "name": "atLoss",
          "type": "bool"
        },
        {
          "indexed": false,
          "internalType": "uint256",
          "name": "extraGain",
          "type": "uint256"
        },
        {
          "indexed": false,
          "internalType": "uint256",
          "name": "principalLoss",
          "type": "uint256"
        },
        {
          "indexed": false,
          "internalType": "bool",
          "name": "premature",
          "type": "bool"
        }
      ],
      "name": "MarketResolved",
      "type": "event"
    },
    {
      "anonymous": false,
      "inputs": [
        {
          "indexed": true,
          "internalType": "uint256",
          "name": "marketId",
          "type": "uint256"
        },
        {
          "indexed": false,
          "internalType": "uint256",
          "name": "amount",
          "type": "uint256"
        },
        {
          "indexed": false,
          "internalType": "address",
          "name": "to",
          "type": "address"
        }
      ],
      "name": "RedeemTransfer",
      "type": "event"
    },
    {
      "anonymous": false,
      "inputs": [
        {
          "indexed": true,
          "internalType": "address",
          "name": "vault",
          "type": "address"
        },
        {
          "indexed": false,
          "internalType": "uint256",
          "name": "vaultId",
          "type": "uint256"
        },
        {
          "indexed": false,
          "internalType": "address",
          "name": "underlying",
          "type": "address"
        },
        {
          "indexed": false,
          "internalType": "bool",
          "name": "onlyVerified",
          "type": "bool"
        },
        {
          "indexed": false,
          "internalType": "uint256",
          "name": "r",
          "type": "uint256"
        },
        {
          "indexed": false,
          "internalType": "uint256",
          "name": "assetLimit",
          "type": "uint256"
        },
        {
          "indexed": false,
          "internalType": "uint256",
          "name": "totalAssetLimit",
          "type": "uint256"
        },
        {
          "components": [
            {
              "internalType": "uint256",
              "name": "N",
              "type": "uint256"
            },
            {
              "internalType": "uint256",
              "name": "sigma",
              "type": "uint256"
            },
            {
              "internalType": "uint256",
              "name": "alpha",
              "type": "uint256"
            },
            {
              "internalType": "uint256",
              "name": "omega",
              "type": "uint256"
            },
            {
              "internalType": "uint256",
              "name": "delta",
              "type": "uint256"
            },
            {
              "internalType": "uint256",
              "name": "r",
              "type": "uint256"
            },
            {
              "internalType": "uint256",
              "name": "s",
              "type": "uint256"
            },
            {
              "internalType": "uint256",
              "name": "steak",
              "type": "uint256"
            }
          ],
          "indexed": false,
          "internalType": "struct MarketParameters",
          "name": "defaultParams",
          "type": "tuple"
        }
      ],
      "name": "VaultCreated",
      "type": "event"
    },
    {
      "inputs": [],
      "name": "Data",
      "outputs": [
        {
          "internalType": "contract StorageHandler",
          "name": "",
          "type": "address"
        }
      ],
      "stateMutability": "view",
      "type": "function"
    },
    {
      "inputs": [
        {
          "internalType": "address",
          "name": "",
          "type": "address"
        }
      ],
      "name": "ad_to_id",
      "outputs": [
        {
          "internalType": "uint256",
          "name": "",
          "type": "uint256"
        }
      ],
      "stateMutability": "view",
      "type": "function"
    },
    {
      "inputs": [
        {
          "internalType": "uint256",
          "name": "marketId",
          "type": "uint256"
        }
      ],
      "name": "approvalCondition",
      "outputs": [
        {
          "internalType": "bool",
          "name": "",
          "type": "bool"
        }
      ],
      "stateMutability": "view",
      "type": "function"
    },
    {
      "inputs": [
        {
          "internalType": "uint256",
          "name": "marketId",
          "type": "uint256"
        }
      ],
      "name": "approveMarket",
      "outputs": [],
      "stateMutability": "nonpayable",
      "type": "function"
    },
    {
      "inputs": [
        {
          "internalType": "uint256",
          "name": "marketId",
          "type": "uint256"
        }
      ],
      "name": "beforeResolve",
      "outputs": [],
      "stateMutability": "nonpayable",
      "type": "function"
    },
    {
      "inputs": [
        {
          "internalType": "uint256",
          "name": "marketId",
          "type": "uint256"
        },
        {
          "internalType": "uint256",
          "name": "incompleteReturns",
          "type": "uint256"
        }
      ],
      "name": "calcIncompleteReturns",
      "outputs": [
        {
          "internalType": "uint256",
          "name": "seniorReturn",
          "type": "uint256"
        }
      ],
      "stateMutability": "view",
      "type": "function"
    },
    {
      "inputs": [
        {
          "internalType": "address",
          "name": "underlying",
          "type": "address"
        },
        {
          "internalType": "bool",
          "name": "_onlyVerified",
          "type": "bool"
        },
        {
          "internalType": "uint256",
          "name": "_r",
          "type": "uint256"
        },
        {
          "internalType": "uint256",
          "name": "_asset_limit",
          "type": "uint256"
        },
        {
          "internalType": "uint256",
          "name": "_total_asset_limit",
          "type": "uint256"
        },
        {
          "components": [
            {
              "internalType": "uint256",
              "name": "N",
              "type": "uint256"
            },
            {
              "internalType": "uint256",
              "name": "sigma",
              "type": "uint256"
            },
            {
              "internalType": "uint256",
              "name": "alpha",
              "type": "uint256"
            },
            {
              "internalType": "uint256",
              "name": "omega",
              "type": "uint256"
            },
            {
              "internalType": "uint256",
              "name": "delta",
              "type": "uint256"
            },
            {
              "internalType": "uint256",
              "name": "r",
              "type": "uint256"
            },
            {
              "internalType": "uint256",
              "name": "s",
              "type": "uint256"
            },
            {
              "internalType": "uint256",
              "name": "steak",
              "type": "uint256"
            }
          ],
          "internalType": "struct MarketParameters",
          "name": "default_params",
          "type": "tuple"
        },
        {
          "internalType": "string",
          "name": "_description",
          "type": "string"
        }
      ],
      "name": "createVault",
      "outputs": [],
      "stateMutability": "nonpayable",
      "type": "function"
    },
    {
      "inputs": [
        {
          "internalType": "uint256",
          "name": "marketId",
          "type": "uint256"
        },
        {
          "internalType": "address",
          "name": "validator",
          "type": "address"
        }
      ],
      "name": "deniedValidator",
      "outputs": [
        {
          "internalType": "uint256",
          "name": "collateral_amount",
          "type": "uint256"
        }
      ],
      "stateMutability": "nonpayable",
      "type": "function"
    },
    {
      "inputs": [
        {
          "internalType": "uint256",
          "name": "marketId",
          "type": "uint256"
        }
      ],
      "name": "denyMarket",
      "outputs": [],
      "stateMutability": "nonpayable",
      "type": "function"
    },
    {
      "inputs": [
        {
          "internalType": "uint256",
          "name": "marketId",
          "type": "uint256"
        },
        {
          "internalType": "bool",
          "name": "emergency",
          "type": "bool"
        }
      ],
      "name": "forceCloseInstrument",
      "outputs": [
        {
          "internalType": "bool",
          "name": "",
          "type": "bool"
        }
      ],
      "stateMutability": "nonpayable",
      "type": "function"
    },
    {
      "inputs": [
        {
          "internalType": "uint256",
          "name": "requestId",
          "type": "uint256"
        },
        {
          "internalType": "uint256[]",
          "name": "randomWords",
          "type": "uint256[]"
        }
      ],
      "name": "fulfillRandomWords",
      "outputs": [],
      "stateMutability": "nonpayable",
      "type": "function"
    },
    {
      "inputs": [
        {
          "internalType": "uint256",
          "name": "marketId",
          "type": "uint256"
        }
      ],
      "name": "getApprovalData",
      "outputs": [
        {
          "components": [
            {
              "internalType": "uint256",
              "name": "managers_stake",
              "type": "uint256"
            },
            {
              "internalType": "uint256",
              "name": "approved_principal",
              "type": "uint256"
            },
            {
              "internalType": "uint256",
              "name": "approved_yield",
              "type": "uint256"
            }
          ],
          "internalType": "struct ApprovalData",
          "name": "data",
          "type": "tuple"
        }
      ],
      "stateMutability": "view",
      "type": "function"
    },
    {
      "inputs": [
        {
          "internalType": "uint256",
          "name": "marketId",
          "type": "uint256"
        }
      ],
      "name": "getFinalStake",
      "outputs": [
        {
          "internalType": "uint256",
          "name": "",
          "type": "uint256"
        }
      ],
      "stateMutability": "view",
      "type": "function"
    },
    {
      "inputs": [
        {
          "internalType": "uint256",
          "name": "marketId",
          "type": "uint256"
        }
      ],
      "name": "getInitialStake",
      "outputs": [
        {
          "internalType": "uint256",
          "name": "",
          "type": "uint256"
        }
      ],
      "stateMutability": "view",
      "type": "function"
    },
    {
      "inputs": [
        {
          "internalType": "uint256",
          "name": "marketId",
          "type": "uint256"
        }
      ],
      "name": "getInstrumentSnapShot",
      "outputs": [
        {
          "internalType": "uint256",
          "name": "managerStake",
          "type": "uint256"
        },
        {
          "internalType": "uint256",
          "name": "exposurePercentage",
          "type": "uint256"
        },
        {
          "internalType": "uint256",
          "name": "seniorAPR",
          "type": "uint256"
        },
        {
          "internalType": "uint256",
          "name": "approvalPrice",
          "type": "uint256"
        }
      ],
      "stateMutability": "view",
      "type": "function"
    },
    {
      "inputs": [
        {
          "internalType": "address",
          "name": "recipient",
          "type": "address"
        }
      ],
      "name": "getMarketId",
      "outputs": [
        {
          "internalType": "uint256",
          "name": "",
          "type": "uint256"
        }
      ],
      "stateMutability": "view",
      "type": "function"
    },
    {
      "inputs": [
        {
          "internalType": "uint256",
          "name": "vaultId",
          "type": "uint256"
        }
      ],
      "name": "getMarketIds",
      "outputs": [
        {
          "internalType": "uint256[]",
          "name": "",
          "type": "uint256[]"
        }
      ],
      "stateMutability": "view",
      "type": "function"
    },
    {
      "inputs": [
        {
          "internalType": "uint256",
          "name": "marketId",
          "type": "uint256"
        }
      ],
      "name": "getNumApproved",
      "outputs": [
        {
          "internalType": "uint256",
          "name": "",
          "type": "uint256"
        }
      ],
      "stateMutability": "view",
      "type": "function"
    },
    {
      "inputs": [
        {
          "internalType": "uint256",
          "name": "marketId",
          "type": "uint256"
        }
      ],
      "name": "getNumResolved",
      "outputs": [
        {
          "internalType": "uint256",
          "name": "",
          "type": "uint256"
        }
      ],
      "stateMutability": "view",
      "type": "function"
    },
    {
      "inputs": [
        {
          "internalType": "uint256",
          "name": "marketId",
          "type": "uint256"
        }
      ],
      "name": "getTotalStaked",
      "outputs": [
        {
          "internalType": "uint256",
          "name": "",
          "type": "uint256"
        }
      ],
      "stateMutability": "view",
      "type": "function"
    },
    {
      "inputs": [
        {
          "internalType": "uint256",
          "name": "marketId",
          "type": "uint256"
        }
      ],
      "name": "getTotalSupply",
      "outputs": [
        {
          "internalType": "uint256",
          "name": "",
          "type": "uint256"
        }
      ],
      "stateMutability": "view",
      "type": "function"
    },
    {
      "inputs": [
        {
          "internalType": "uint256",
          "name": "marketId",
          "type": "uint256"
        }
      ],
      "name": "getTotalValidatorSales",
      "outputs": [
        {
          "internalType": "uint256",
          "name": "",
          "type": "uint256"
        }
      ],
      "stateMutability": "view",
      "type": "function"
    },
    {
      "inputs": [
        {
          "internalType": "address",
          "name": "trader",
          "type": "address"
        }
      ],
      "name": "getTraderScore",
      "outputs": [
        {
          "internalType": "uint256",
          "name": "",
          "type": "uint256"
        }
      ],
      "stateMutability": "view",
      "type": "function"
    },
    {
      "inputs": [
        {
          "internalType": "uint256",
          "name": "marketId",
          "type": "uint256"
        }
      ],
      "name": "getValidatorCap",
      "outputs": [
        {
          "internalType": "uint256",
          "name": "",
          "type": "uint256"
        }
      ],
      "stateMutability": "view",
      "type": "function"
    },
    {
      "inputs": [
        {
          "internalType": "uint256",
          "name": "marketId",
          "type": "uint256"
        }
      ],
      "name": "getValidatorPrice",
      "outputs": [
        {
          "internalType": "uint256",
          "name": "",
          "type": "uint256"
        }
      ],
      "stateMutability": "view",
      "type": "function"
    },
    {
      "inputs": [
        {
          "internalType": "uint256",
          "name": "marketId",
          "type": "uint256"
        }
      ],
      "name": "getValidatorRequiredCollateral",
      "outputs": [
        {
          "internalType": "uint256",
          "name": "",
          "type": "uint256"
        }
      ],
      "stateMutability": "view",
      "type": "function"
    },
    {
      "inputs": [
        {
          "internalType": "uint256",
          "name": "marketId",
          "type": "uint256"
        }
      ],
      "name": "getVault",
      "outputs": [
        {
          "internalType": "contract Vault",
          "name": "",
          "type": "address"
        }
      ],
      "stateMutability": "view",
      "type": "function"
    },
    {
      "inputs": [
        {
          "internalType": "uint256",
          "name": "marketId",
          "type": "uint256"
        }
      ],
      "name": "getVaultAd",
      "outputs": [
        {
          "internalType": "address",
          "name": "",
          "type": "address"
        }
      ],
      "stateMutability": "view",
      "type": "function"
    },
    {
      "inputs": [
        {
          "internalType": "uint256",
          "name": "vaultId",
          "type": "uint256"
        }
      ],
      "name": "getVaultSnapShot",
      "outputs": [
        {
          "internalType": "uint256",
          "name": "totalProtection",
          "type": "uint256"
        },
        {
          "internalType": "uint256",
          "name": "totalEstimatedAPR",
          "type": "uint256"
        },
        {
          "internalType": "uint256",
          "name": "goalAPR",
          "type": "uint256"
        },
        {
          "internalType": "uint256",
          "name": "exchangeRate",
          "type": "uint256"
        }
      ],
      "stateMutability": "view",
      "type": "function"
    },
    {
      "inputs": [
        {
          "internalType": "uint256",
          "name": "vaultId",
          "type": "uint256"
        }
      ],
      "name": "getVaultfromId",
      "outputs": [
        {
          "internalType": "address",
          "name": "",
          "type": "address"
        }
      ],
      "stateMutability": "view",
      "type": "function"
    },
    {
      "inputs": [
        {
          "internalType": "uint256",
          "name": "marketId",
          "type": "uint256"
        },
        {
          "internalType": "address",
          "name": "validator",
          "type": "address"
        }
      ],
      "name": "hasApproved",
      "outputs": [
        {
          "internalType": "bool",
          "name": "",
          "type": "bool"
        }
      ],
      "stateMutability": "view",
      "type": "function"
    },
    {
      "inputs": [
        {
          "internalType": "uint256",
          "name": "",
          "type": "uint256"
        }
      ],
      "name": "id_parent",
      "outputs": [
        {
          "internalType": "uint256",
          "name": "",
          "type": "uint256"
        }
      ],
      "stateMutability": "view",
      "type": "function"
    },
    {
      "inputs": [
        {
          "internalType": "address",
          "name": "recipient",
          "type": "address"
        },
        {
          "components": [
            {
              "internalType": "bytes32",
              "name": "name",
              "type": "bytes32"
            },
            {
              "internalType": "bool",
              "name": "isPool",
              "type": "bool"
            },
            {
              "internalType": "bool",
              "name": "trusted",
              "type": "bool"
            },
            {
              "internalType": "uint256",
              "name": "balance",
              "type": "uint256"
            },
            {
              "internalType": "uint256",
              "name": "faceValue",
              "type": "uint256"
            },
            {
              "internalType": "uint256",
              "name": "marketId",
              "type": "uint256"
            },
            {
              "internalType": "uint256",
              "name": "principal",
              "type": "uint256"
            },
            {
              "internalType": "uint256",
              "name": "expectedYield",
              "type": "uint256"
            },
            {
              "internalType": "uint256",
              "name": "duration",
              "type": "uint256"
            },
            {
              "internalType": "string",
              "name": "description",
              "type": "string"
            },
            {
              "internalType": "address",
              "name": "instrument_address",
              "type": "address"
            },
            {
              "internalType": "enum InstrumentType",
              "name": "instrument_type",
              "type": "uint8"
            },
            {
              "internalType": "uint256",
              "name": "maturityDate",
              "type": "uint256"
            },
            {
              "components": [
                {
                  "internalType": "uint256",
                  "name": "saleAmount",
                  "type": "uint256"
                },
                {
                  "internalType": "uint256",
                  "name": "initPrice",
                  "type": "uint256"
                },
                {
                  "internalType": "uint256",
                  "name": "promisedReturn",
                  "type": "uint256"
                },
                {
                  "internalType": "uint256",
                  "name": "inceptionTime",
                  "type": "uint256"
                },
                {
                  "internalType": "uint256",
                  "name": "inceptionPrice",
                  "type": "uint256"
                },
                {
                  "internalType": "uint256",
                  "name": "leverageFactor",
                  "type": "uint256"
                },
                {
                  "internalType": "uint256",
                  "name": "managementFee",
                  "type": "uint256"
                }
              ],
              "internalType": "struct PoolData",
              "name": "poolData",
              "type": "tuple"
            }
          ],
          "internalType": "struct InstrumentData",
          "name": "instrumentData",
          "type": "tuple"
        },
        {
          "internalType": "uint256",
          "name": "vaultId",
          "type": "uint256"
        }
      ],
      "name": "initiateMarket",
      "outputs": [],
      "stateMutability": "nonpayable",
      "type": "function"
    },
    {
      "inputs": [
        {
          "internalType": "address",
          "name": "trader",
          "type": "address"
        },
        {
          "internalType": "uint256",
          "name": "r",
          "type": "uint256"
        }
      ],
      "name": "isReputable",
      "outputs": [
        {
          "internalType": "bool",
          "name": "",
          "type": "bool"
        }
      ],
      "stateMutability": "view",
      "type": "function"
    },
    {
      "inputs": [
        {
          "internalType": "uint256",
          "name": "marketId",
          "type": "uint256"
        },
        {
          "internalType": "address",
          "name": "user",
          "type": "address"
        }
      ],
      "name": "isValidator",
      "outputs": [
        {
          "internalType": "bool",
          "name": "",
          "type": "bool"
        }
      ],
      "stateMutability": "view",
      "type": "function"
    },
    {
      "inputs": [
        {
          "internalType": "address",
          "name": "addr",
          "type": "address"
        }
      ],
      "name": "isVerified",
      "outputs": [
        {
          "internalType": "bool",
          "name": "",
          "type": "bool"
        }
      ],
      "stateMutability": "view",
      "type": "function"
    },
    {
      "inputs": [],
      "name": "leverageManager",
      "outputs": [
        {
          "internalType": "contract LeverageManager",
          "name": "",
          "type": "address"
        }
      ],
      "stateMutability": "view",
      "type": "function"
    },
    {
      "inputs": [
        {
          "internalType": "uint256",
          "name": "marketId",
          "type": "uint256"
        }
      ],
      "name": "marketCondition",
      "outputs": [
        {
          "internalType": "bool",
          "name": "",
          "type": "bool"
        }
      ],
      "stateMutability": "view",
      "type": "function"
    },
    {
      "inputs": [
        {
          "internalType": "uint256",
          "name": "marketId",
          "type": "uint256"
        }
      ],
      "name": "marketIdToVaultId",
      "outputs": [
        {
          "internalType": "uint256",
          "name": "",
          "type": "uint256"
        }
      ],
      "stateMutability": "view",
      "type": "function"
    },
    {
      "inputs": [
        {
          "internalType": "uint256",
          "name": "marketId",
          "type": "uint256"
        }
      ],
      "name": "marketId_to_vaultId",
      "outputs": [
        {
          "internalType": "uint256",
          "name": "",
          "type": "uint256"
        }
      ],
      "stateMutability": "view",
      "type": "function"
    },
    {
      "inputs": [],
      "name": "marketManager",
      "outputs": [
        {
          "internalType": "contract MarketManager",
          "name": "",
          "type": "address"
        }
      ],
      "stateMutability": "view",
      "type": "function"
    },
    {
      "inputs": [
        {
          "internalType": "uint256",
          "name": "",
          "type": "uint256"
        }
      ],
      "name": "market_data",
      "outputs": [
        {
          "internalType": "address",
          "name": "instrument_address",
          "type": "address"
        },
        {
          "internalType": "address",
          "name": "utilizer",
          "type": "address"
        }
      ],
      "stateMutability": "view",
      "type": "function"
    },
    {
      "inputs": [],
      "name": "poolFactory",
      "outputs": [
        {
          "internalType": "contract SyntheticZCBPoolFactory",
          "name": "",
          "type": "address"
        }
      ],
      "stateMutability": "view",
      "type": "function"
    },
    {
      "inputs": [
        {
          "internalType": "uint256",
          "name": "marketId",
          "type": "uint256"
        },
        {
          "internalType": "uint256",
          "name": "amount",
          "type": "uint256"
        }
      ],
      "name": "pullLeverage",
      "outputs": [],
      "stateMutability": "nonpayable",
      "type": "function"
    },
    {
      "inputs": [
        {
          "internalType": "uint256",
          "name": "marketId",
          "type": "uint256"
        },
        {
          "internalType": "address",
          "name": "validator",
          "type": "address"
        }
      ],
      "name": "redeemValidator",
      "outputs": [],
      "stateMutability": "nonpayable",
      "type": "function"
    },
    {
      "inputs": [
        {
          "internalType": "uint256",
          "name": "amount",
          "type": "uint256"
        },
        {
          "internalType": "address",
          "name": "to",
          "type": "address"
        },
        {
          "internalType": "uint256",
          "name": "marketId",
          "type": "uint256"
        }
      ],
      "name": "redeem_transfer",
      "outputs": [],
      "stateMutability": "nonpayable",
      "type": "function"
    },
    {
      "inputs": [],
      "name": "reputationManager",
      "outputs": [
        {
          "internalType": "contract ReputationManager",
          "name": "",
          "type": "address"
        }
      ],
      "stateMutability": "view",
      "type": "function"
    },
    {
      "inputs": [
        {
          "internalType": "uint256",
          "name": "marketId",
          "type": "uint256"
        }
      ],
      "name": "resolveCondition",
      "outputs": [
        {
          "internalType": "bool",
          "name": "",
          "type": "bool"
        }
      ],
      "stateMutability": "view",
      "type": "function"
    },
    {
      "inputs": [
        {
          "internalType": "uint256",
          "name": "marketId",
          "type": "uint256"
        }
      ],
      "name": "resolveMarket",
      "outputs": [],
      "stateMutability": "nonpayable",
      "type": "function"
    },
    {
      "inputs": [
        {
          "internalType": "address",
          "name": "_dataStore",
          "type": "address"
        }
      ],
      "name": "setDataStore",
      "outputs": [],
      "stateMutability": "nonpayable",
      "type": "function"
    },
    {
      "inputs": [
        {
          "internalType": "address",
          "name": "_leverageManager",
          "type": "address"
        }
      ],
      "name": "setLeverageManager",
      "outputs": [],
      "stateMutability": "nonpayable",
      "type": "function"
    },
    {
      "inputs": [
        {
          "internalType": "address",
          "name": "_marketManager",
          "type": "address"
        }
      ],
      "name": "setMarketManager",
      "outputs": [],
      "stateMutability": "nonpayable",
      "type": "function"
    },
    {
      "inputs": [
        {
          "internalType": "address",
          "name": "_poolFactory",
          "type": "address"
        }
      ],
      "name": "setPoolFactory",
      "outputs": [],
      "stateMutability": "nonpayable",
      "type": "function"
    },
    {
      "inputs": [
        {
          "internalType": "address",
          "name": "_reputationManager",
          "type": "address"
        }
      ],
      "name": "setReputationManager",
      "outputs": [],
      "stateMutability": "nonpayable",
      "type": "function"
    },
    {
      "inputs": [
        {
          "internalType": "address",
          "name": "_validatorManager",
          "type": "address"
        }
      ],
      "name": "setValidatorManager",
      "outputs": [],
      "stateMutability": "nonpayable",
      "type": "function"
    },
    {
      "inputs": [
        {
          "internalType": "address",
          "name": "_vaultFactory",
          "type": "address"
        }
      ],
      "name": "setVaultFactory",
      "outputs": [],
      "stateMutability": "nonpayable",
      "type": "function"
    },
    {
      "inputs": [
        {
          "internalType": "uint256",
          "name": "marketId",
          "type": "uint256"
        }
      ],
      "name": "testApproveMarket",
      "outputs": [],
      "stateMutability": "nonpayable",
      "type": "function"
    },
    {
      "inputs": [
        {
          "internalType": "uint256",
          "name": "marketId",
          "type": "uint256"
        }
      ],
      "name": "testResolveMarket",
      "outputs": [],
      "stateMutability": "nonpayable",
      "type": "function"
    },
    {
      "inputs": [
        {
          "internalType": "uint256",
          "name": "marketId",
          "type": "uint256"
        }
      ],
      "name": "unlockValidatorStake",
      "outputs": [],
      "stateMutability": "nonpayable",
      "type": "function"
    },
    {
      "inputs": [
        {
          "internalType": "uint256",
          "name": "marketId",
          "type": "uint256"
        }
      ],
      "name": "validatorApprove",
      "outputs": [
        {
          "internalType": "uint256",
          "name": "",
          "type": "uint256"
        }
      ],
      "stateMutability": "nonpayable",
      "type": "function"
    },
    {
      "inputs": [
        {
          "internalType": "uint256",
          "name": "marketId",
          "type": "uint256"
        }
      ],
      "name": "validatorResolve",
      "outputs": [],
      "stateMutability": "nonpayable",
      "type": "function"
    },
    {
      "inputs": [],
      "name": "vaultFactory",
      "outputs": [
        {
          "internalType": "contract VaultFactory",
          "name": "",
          "type": "address"
        }
      ],
      "stateMutability": "view",
      "type": "function"
    },
    {
      "inputs": [
        {
          "internalType": "uint256",
          "name": "",
          "type": "uint256"
        },
        {
          "internalType": "uint256",
          "name": "",
          "type": "uint256"
        }
      ],
      "name": "vault_to_marketIds",
      "outputs": [
        {
          "internalType": "uint256",
          "name": "",
          "type": "uint256"
        }
      ],
      "stateMutability": "view",
      "type": "function"
    },
    {
      "inputs": [
        {
          "internalType": "uint256",
          "name": "",
          "type": "uint256"
        }
      ],
      "name": "vaults",
      "outputs": [
        {
          "internalType": "contract Vault",
          "name": "",
          "type": "address"
        }
      ],
      "stateMutability": "view",
      "type": "function"
    },
    {
      "inputs": [
        {
          "internalType": "address",
          "name": "",
          "type": "address"
        }
      ],
      "name": "verified",
      "outputs": [
        {
          "internalType": "bool",
          "name": "",
          "type": "bool"
        }
      ],
      "stateMutability": "view",
      "type": "function"
    },
    {
      "inputs": [
        {
          "internalType": "address",
          "name": "who",
          "type": "address"
        }
      ],
      "name": "verifyAddress",
      "outputs": [],
      "stateMutability": "nonpayable",
      "type": "function"
    },
    {
      "inputs": [
        {
          "internalType": "uint256",
          "name": "marketId",
          "type": "uint256"
        }
      ],
      "name": "viewValidators",
      "outputs": [
        {
          "internalType": "address[]",
          "name": "",
          "type": "address[]"
        }
      ],
      "stateMutability": "view",
      "type": "function"
    }
  ],
  "bytecode": {
    "object": "0x60806040523480156200001157600080fd5b5060405162005f6e38038062005f6e833981016040819052620000349162000078565b50600880546001600160a01b0319166001600160a01b0392909216919091179055620000b0565b80516001600160a01b03811681146200007357600080fd5b919050565b600080604083850312156200008c57600080fd5b62000097836200005b565b9150620000a7602084016200005b565b90509250929050565b615eae80620000c06000396000f3fe608060405234801561001057600080fd5b50600436106103f15760003560e01c80638d4f16d711610215578063c8f559c011610125578063da0a697f116100b8578063ebd4dc4611610087578063ebd4dc46146109c0578063f0fd1d38146109d3578063f25fcc9f146109e6578063f304c27814610a0f578063fcb2cafc14610a2257600080fd5b8063da0a697f14610974578063e8858b4f14610987578063e8a780261461099a578063e8e3fbb7146109ad57600080fd5b8063d466461c116100f4578063d466461c14610928578063d65ec9641461093b578063d82aff111461094e578063d8a06f731461096157600080fd5b8063c8f559c0146108ef578063cabe2ae114610902578063ce93ec6714610475578063d12271361461091557600080fd5b8063a40c63f7116101a8578063b37eedcd11610177578063b37eedcd1461088a578063b743939b1461089d578063b9209e33146108b0578063c3f956fa146108dc578063c4abc650146107d357600080fd5b8063a40c63f71461080f578063ac1b6b0114610822578063ad4e4e7014610857578063b1b7e1f21461086a57600080fd5b806392ab723e116101e457806392ab723e146107ad578063937b6feb146107c05780639403b634146107d35780639fe1458b146107e657600080fd5b80638d4f16d7146107135780638dc3d9b4146107675780638f5709a51461077a5780638fbbc8681461078d57600080fd5b80634219dc40116103105780636399d03d116102a357806381e1b07c1161027257806381e1b07c1461069e57806381fd6c02146106b1578063830e2a02146106c4578063875e487e146106d75780638c64ea4a146106ea57600080fd5b80636399d03d146106455780636b868afb146106585780637789ec5a1461066b578063805798ac1461068b57600080fd5b80634b6e7d78116102df5780634b6e7d78146105f95780634cb440871461060c578063500065d21461061f57806356a837f41461063257600080fd5b80634219dc40146105ad57806345f34e92146105c0578063473597a0146105d3578063482c0aa8146105e657600080fd5b80632f8899f3116103885780633ea7fbdb116103575780633ea7fbdb1461053c5780633ec8dc3b1461054f578063402978121461056f57806341ed2c121461058257600080fd5b80632f8899f3146104d057806337b4dd3a146104e357806337bc93b01461051657806338ba46141461052957600080fd5b806314f2b14c116103c457806314f2b14c146104755780632358d5a81461049557806323f2a73f146104a85780632b858734146104bb57600080fd5b806305a1ce99146103f657806308ad90a51461041e5780630c33df181461043f5780630db065f414610452575b600080fd5b610409610404366004614cba565b610a35565b60405190151581526020015b60405180910390f35b61043161042c366004614cf8565b610aaa565b604051908152602001610415565b61040961044d366004614d2e565b610b1a565b610409610460366004614cf8565b60026020526000908152604090205460ff1681565b610431610483366004614cba565b60009081526006602052604090205490565b6104096104a3366004614d5e565b610bf7565b6104096104b6366004614d5e565b610c75565b6104ce6104c9366004614cba565b610caf565b005b6104316104de366004614cba565b610e6b565b6104f66104f1366004614cba565b610e9d565b604080519485526020850193909352918301526060820152608001610415565b610431610524366004614cba565b61124e565b6104ce610537366004614e5a565b611280565b6104ce61054a366004614cf8565b6112e8565b61056261055d366004614cba565b61135e565b6040516104159190614efb565b61043161057d366004614f48565b6113d0565b600954610595906001600160a01b031681565b6040516001600160a01b039091168152602001610415565b600b54610595906001600160a01b031681565b6104ce6105ce366004614cf8565b611505565b6104ce6105e1366004614cf8565b61157b565b6104316105f4366004614f48565b6115f1565b600e54610595906001600160a01b031681565b6104ce61061a366004614cba565b611622565b6104ce61062d366004614cf8565b611785565b6104ce610640366004614cf8565b611911565b6104ce610653366004614cba565b6119ec565b600c54610595906001600160a01b031681565b610431610679366004614cf8565b60046020526000908152604090205481565b610431610699366004614cba565b611bbe565b6104096106ac366004614cba565b611bf0565b600d54610595906001600160a01b031681565b6104316106d2366004614d5e565b611c22565b6104316106e5366004614cba565b611cf0565b6105956106f8366004614cba565b6005602052600090815260409020546001600160a01b031681565b610747610721366004614cba565b600360205260009081526040902080546001909101546001600160a01b03918216911682565b604080516001600160a01b03938416815292909116602083015201610415565b6104ce610775366004614cba565b611d22565b6104ce610788366004614d5e565b611d59565b61043161079b366004614cba565b60066020526000908152604090205481565b6104316107bb366004614cba565b611de6565b6104316107ce366004614cba565b611e91565b6105956107e1366004614cba565b611ec3565b6105956107f4366004614cba565b6000908152600560205260409020546001600160a01b031690565b61043161081d366004614cba565b611eeb565b610835610830366004614cba565b611f1d565b6040805182518152602080840151908201529181015190820152606001610415565b6104ce610865366004614cba565b611f79565b61087d610878366004614cba565b611fb0565b6040516104159190614fa5565b6104ce610898366004614cba565b612012565b6104096108ab366004614cba565b6120b6565b6104096108be366004614cf8565b6001600160a01b031660009081526002602052604090205460ff1690565b6104ce6108ea366004614cba565b6124bc565b6104f66108fd366004614cba565b6126b3565b6104ce610910366004614cba565b6129b2565b610431610923366004614cba565b613380565b610431610936366004614cba565b6134ec565b610431610949366004614cba565b61351e565b6104ce61095c366004614cf8565b613550565b600a54610595906001600160a01b031681565b6104ce610982366004614f48565b6135d9565b6104ce610995366004615000565b61366b565b6104096109a83660046150fd565b613797565b6104ce6109bb36600461521b565b6137d1565b6104316109ce366004614cba565b6141e1565b6104ce6109e136600461535c565b614213565b6104316109f4366004614cf8565b6001600160a01b031660009081526004602052604090205490565b6104ce610a1d366004614cf8565b61432f565b6104ce610a30366004614cf8565b6143cc565b600080546040516305a1ce9960e01b8152600481018490526001600160a01b03909116906305a1ce99906024015b602060405180830381865afa158015610a80573d6000803e3d6000fd5b505050506040513d601f19601f82011682018060405250810190610aa4919061539f565b92915050565b600c546040516344c7439360e01b81526001600160a01b03838116600483015260009216906344c74393906024015b602060405180830381865afa158015610af6573d6000803e3d6000fd5b505050506040513d601f19601f82011682018060405250810190610aa491906153bc565b600082815260066020908152604080832054835260059091528082205490516359dc5c6f60e01b8152600481018590526001600160a01b039091169081906359dc5c6f90602401600060405180830381600087803b158015610b7b57600080fd5b505af1158015610b8f573d6000803e3d6000fd5b5050604051630ae161cd60e21b8152600481018790526001600160a01b0384169250632b8587349150602401600060405180830381600087803b158015610bd557600080fd5b505af1158015610be9573d6000803e3d6000fd5b506001979650505050505050565b6000805460405163046b1ab560e31b8152600481018590526001600160a01b03848116602483015290911690632358d5a8906044015b602060405180830381865afa158015610c4a573d6000803e3d6000fd5b505050506040513d601f19601f82011682018060405250810190610c6e919061539f565b9392505050565b600080546040516323f2a73f60e01b8152600481018590526001600160a01b038481166024830152909116906323f2a73f90604401610c2d565b600954604051638a6cac3d60e01b81526004810183905260009182916001600160a01b0390911690638a6cac3d9060240160c060405180830381865afa158015610cfd573d6000803e3d6000fd5b505050506040513d601f19601f82011682018060405250810190610d2191906153d5565b505093505050915081158015610d345750805b610d855760405162461bcd60e51b815260206004820152601960248201527f6d61726b657420636f6e646974696f6e73206e6f74206d65740000000000000060448201526064015b60405180910390fd5b610d8e83611bf0565b610dee5760405162461bcd60e51b815260206004820152602b60248201527f6e6f7420656e6f7567682076616c696461746f7273206861766520766f74656460448201526a20746f207265736f6c766560a81b6064820152608401610d7c565b6000838152600660209081526040808320548352600590915290819020549051630ae161cd60e21b8152600481018590526001600160a01b0390911690632b85873490602401600060405180830381600087803b158015610e4e57600080fd5b505af1158015610e62573d6000803e3d6000fd5b50505050505050565b60008054604051632f8899f360e01b8152600481018490526001600160a01b0390911690632f8899f390602401610ad9565b60095460405163eb44fdd360e01b81526004810183905260009182918291829182916001600160a01b03169063eb44fdd390602401600060405180830381865afa158015610eef573d6000803e3d6000fd5b505050506040513d6000823e601f3d908101601f19168201604052610f1791908101906154ce565b90506000610f2487611f1d565b90506000610f3188611ec3565b6001600160a01b0316639ec4d40e896040518263ffffffff1660e01b8152600401610f5e91815260200190565b600060405180830381865afa158015610f7b573d6000803e3d6000fd5b505050506040513d6000823e601f3d908101601f19168201604052610fa391908101906155ff565b825197509050611038610fb589611ec3565b6001600160a01b03166301e1d1146040518163ffffffff1660e01b8152600401602060405180830381865afa158015610ff2573d6000803e3d6000fd5b505050506040513d601f19601f8201168201806040525081019061101691906153bc565b61102190600161573a565b83516020850151611032919061574d565b9061446b565b9550806101a00151604001519450806101a0015160800151935080602001516112445781516000908190156111d25773__$7f722a1af7b4060aab6915c87e2e2208cb$__63018b03518560000151600088600001516001600160a01b0316636e2f7ad36040518163ffffffff1660e01b8152600401602060405180830381865afa1580156110ca573d6000803e3d6000fd5b505050506040513d601f19601f820116820180604052508101906110ee91906153bc565b89600001516001600160a01b0316634df7e3d06040518163ffffffff1660e01b8152600401602060405180830381865afa158015611130573d6000803e3d6000fd5b505050506040513d601f19601f8201168201806040525081019061115491906153bc565b6040516001600160e01b031960e087901b16815260048101949094526024840192909252604483015260648201526001608482015260a4016040805180830381865af41580156111a8573d6000803e3d6000fd5b505050506040513d601f19601f820116820180604052508101906111cc9190615760565b90925090505b835160c08401516000916111e59161574d565b8385608001516111f5919061574d565b6111ff919061574d565b9050600085602001511161121457600061123c565b845160c085015161123c919061122b90600161573a565b611235919061574d565b829061446b565b975090955050505b5050509193509193565b6000805460405163037bc93b60e41b8152600481018490526001600160a01b03909116906337bc93b090602401610ad9565b600054604051630e2e918560e21b81526001600160a01b03909116906338ba4614906112b29085908590600401615784565b600060405180830381600087803b1580156112cc57600080fd5b505af11580156112e0573d6000803e3d6000fd5b505050505050565b6009546001600160a01b031633148061130b5750600d546001600160a01b031633145b8061132057506008546001600160a01b031633145b61133c5760405162461bcd60e51b8152600401610d7c9061579d565b600a80546001600160a01b0319166001600160a01b0392909216919091179055565b600054604051633ec8dc3b60e01b8152600481018390526060916001600160a01b031690633ec8dc3b90602401600060405180830381865afa1580156113a8573d6000803e3d6000fd5b505050506040513d6000823e601f3d908101601f19168201604052610aa491908101906157bf565b60095460405163661f1cf560e01b81526004810184905260009182916001600160a01b039091169063661f1cf590602401602060405180830381865afa15801561141e573d6000803e3d6000fd5b505050506040513d601f19601f8201168201806040525081019061144291906153bc565b9050600061144f85611ec3565b6001600160a01b0316639ec4d40e866040518263ffffffff1660e01b815260040161147c91815260200190565b600060405180830381865afa158015611499573d6000803e3d6000fd5b505050506040513d6000823e601f3d908101601f191682016040526114c191908101906155ff565b60c0015190506114fc82826114de6729a2241af62c000083614480565b6114e8919061573a565b6114f2919061574d565b6110328387614480565b95945050505050565b6009546001600160a01b03163314806115285750600d546001600160a01b031633145b8061153d57506008546001600160a01b031633145b6115595760405162461bcd60e51b8152600401610d7c9061579d565b600080546001600160a01b0319166001600160a01b0392909216919091179055565b6009546001600160a01b031633148061159e5750600d546001600160a01b031633145b806115b357506008546001600160a01b031633145b6115cf5760405162461bcd60e51b8152600401610d7c9061579d565b600b80546001600160a01b0319166001600160a01b0392909216919091179055565b6007602052816000526040600020818154811061160d57600080fd5b90600052602060002001600091509150505481565b8061162d8133610c75565b8061164257506008546001600160a01b031633145b6116775760405162461bcd60e51b8152600401610d7c906020808252600490820152630855985b60e21b604082015260600190565b600082815260066020908152604080832054835260059091529081902054905163d746d3ef60e01b8152600481018490526001600160a01b039091169063d746d3ef90602401600060405180830381600087803b1580156116d757600080fd5b505af11580156116eb573d6000803e3d6000fd5b505050506116f882614495565b600954604051634cb4408760e01b8152600481018490526001600160a01b0390911690634cb4408790602401600060405180830381600087803b15801561173e57600080fd5b505af1158015611752573d6000803e3d6000fd5b50506040518492507f38274fdcd6150638fa33375a76a55bc5b507aa04639aef21fcf7a1bf0b9c095d9150600090a25050565b6009546001600160a01b03163314806117a85750600d546001600160a01b031633145b806117bd57506008546001600160a01b031633145b6117d95760405162461bcd60e51b8152600401610d7c9061579d565b600e80546001600160a01b0319166001600160a01b0383811691821790925560095460405163280032e960e11b815260048101929092529091169063500065d290602401600060405180830381600087803b15801561183757600080fd5b505af115801561184b573d6000803e3d6000fd5b5050600c5460405163280032e960e11b81526001600160a01b038581166004830152909116925063500065d29150602401600060405180830381600087803b15801561189657600080fd5b505af11580156118aa573d6000803e3d6000fd5b5050600d5460405163280032e960e11b81526001600160a01b038581166004830152909116925063500065d291506024015b600060405180830381600087803b1580156118f657600080fd5b505af115801561190a573d6000803e3d6000fd5b5050505050565b6009546001600160a01b03163314806119345750600d546001600160a01b031633145b8061194957506008546001600160a01b031633145b6119655760405162461bcd60e51b8152600401610d7c9061579d565b6009546001600160a01b03166119a35760405162461bcd60e51b8152602060048201526003602482015262306d6d60e81b6044820152606401610d7c565b600c80546001600160a01b0319166001600160a01b038381169182179092556009546040516315aa0dfd60e21b81526004810192909252909116906356a837f4906024016118dc565b806119f78133610c75565b80611a0c57506008546001600160a01b031633145b611a415760405162461bcd60e51b8152600401610d7c906020808252600490820152630855985b60e21b604082015260600190565b6000828152600660209081526040808320548352600590915280822054905163709a664160e11b8152600481018590528291829182916001600160a01b03169063e134cc82906024016080604051808303816000875af1158015611aa9573d6000803e3d6000fd5b505050506040513d601f19601f82011682018060405250810190611acd9190615858565b9350935093509350611ae2868585858561454d565b60008054878252600160208190526040928390200154915163665293b360e11b8152600481018990526024810192909252604482018490526001600160a01b03169063cca5276690606401600060405180830381600087803b158015611b4757600080fd5b505af1158015611b5b573d6000803e3d6000fd5b50505050611b6886614495565b60408051851515815260208101859052908101839052811515606082015286907f77220ccc88401eef4453630e1f9b709ab45bd7912e6599a260abd10a84ac3ed2906080015b60405180910390a2505050505050565b60008054604051632015e62b60e21b8152600481018490526001600160a01b039091169063805798ac90602401610ad9565b600080546040516320786c1f60e21b8152600481018490526001600160a01b03909116906381e1b07c90602401610a63565b6009546000906001600160a01b0316331480611c485750600d546001600160a01b031633145b80611c5d57506008546001600160a01b031633145b611c795760405162461bcd60e51b8152600401610d7c9061579d565b600054604051634187150160e11b8152600481018590526001600160a01b0384811660248301529091169063830e2a02906044016020604051808303816000875af1158015611ccc573d6000803e3d6000fd5b505050506040513d601f19601f82011682018060405250810190610c6e91906153bc565b600080546040516343af243f60e11b8152600481018490526001600160a01b039091169063875e487e90602401610ad9565b600054604051636172cd6760e01b8152600481018390523360248201526001600160a01b0390911690636172cd67906044016118dc565b6009546001600160a01b0316331480611d7c5750600d546001600160a01b031633145b80611d9157506008546001600160a01b031633145b611dad5760405162461bcd60e51b8152600401610d7c9061579d565b600054604051638f5709a560e01b8152600481018490526001600160a01b03838116602483015290911690638f5709a5906044016112b2565b60095460405163054d50b360e21b8152600481018390526000916001600160a01b03169063153542cc90602401602060405180830381865afa158015611e30573d6000803e3d6000fd5b505050506040513d601f19601f82011682018060405250810190611e5491906158a4565b6001600160a01b03166318160ddd6040518163ffffffff1660e01b8152600401602060405180830381865afa158015610af6573d6000803e3d6000fd5b6000805460405163937b6feb60e01b8152600481018490526001600160a01b039091169063937b6feb90602401610ad9565b600090815260066020908152604080832054835260059091529020546001600160a01b031690565b6000805460405163a40c63f760e01b8152600481018490526001600160a01b039091169063a40c63f790602401610ad9565b611f4160405180606001604052806000815260200160008152602001600081525090565b506000908152600160208181526040928390208351606081018552815481529281015491830191909152600201549181019190915290565b60005460405163f23566b560e01b8152600481018390523360248201526001600160a01b039091169063f23566b5906044016118dc565b60008181526007602090815260409182902080548351818402810184019094528084526060939283018282801561200657602002820191906000526020600020905b815481526020019060010190808311611ff2575b50505050509050919050565b6008546001600160a01b031633146120555760405162461bcd60e51b815260206004820152600660248201526510b7bbb732b960d11b6044820152606401610d7c565b61205e816120b6565b6120aa5760405162461bcd60e51b815260206004820152601860248201527f6d61726b657420636f6e646974696f6e206e6f74206d657400000000000000006044820152606401610d7c565b6120b3816129b2565b50565b60095460405163b1283e7760e01b81526004810183905260009182916001600160a01b039091169063b1283e7790602401600060405180830381865afa158015612104573d6000803e3d6000fd5b505050506040513d6000823e601f3d908101601f1916820160405261212c91908101906158c1565b965050505050505080156122315761214383611ec3565b6001600160a01b0316639ec4d40e846040518263ffffffff1660e01b815260040161217091815260200190565b600060405180830381865afa15801561218d573d6000803e3d6000fd5b505050506040513d6000823e601f3d908101601f191682016040526121b591908101906155ff565b6101a001515160095460405163661f1cf560e01b8152600481018690526001600160a01b039091169063661f1cf590602401602060405180830381865afa158015612204573d6000803e3d6000fd5b505050506040513d601f19601f8201168201806040525081019061222891906153bc565b10159392505050565b600061223c84611ec3565b6001600160a01b0316639ec4d40e856040518263ffffffff1660e01b815260040161226991815260200190565b600060405180830381865afa158015612286573d6000803e3d6000fd5b505050506040513d6000823e601f3d908101601f191682016040526122ae91908101906155ff565b60c00151604080518082018252600f81526e36b0b935b2ba31b7b73234ba34b7b760891b6020820152600954915163661f1cf560e01b8152600481018890529293506123ca9290916001600160a01b03169063661f1cf590602401602060405180830381865afa158015612326573d6000803e3d6000fd5b505050506040513d601f19601f8201168201806040525081019061234a91906153bc565b60095460405163c6ceb96b60e01b8152600481018990526123c5916001600160a01b03169063c6ceb96b9060240161010060405180830381865afa158015612396573d6000803e3d6000fd5b505050506040513d601f19601f820116820180604052508101906123ba9190615960565b604001518590614480565b61484d565b60095460405163c6ceb96b60e01b815260048101869052612445916001600160a01b03169063c6ceb96b9060240161010060405180830381865afa158015612416573d6000803e3d6000fd5b505050506040513d601f19601f8201168201806040525081019061243a9190615960565b604001518290614480565b60095460405163661f1cf560e01b8152600481018790526001600160a01b039091169063661f1cf590602401602060405180830381865afa15801561248e573d6000803e3d6000fd5b505050506040513d601f19601f820116820180604052508101906124b291906153bc565b1015949350505050565b6000818152600660209081526040808320548352600590915290819020549051630ae161cd60e21b8152600481018390526001600160a01b0390911690632b85873490602401600060405180830381600087803b15801561251c57600080fd5b505af1158015612530573d6000803e3d6000fd5b5050506000828152600660209081526040808320548352600590915280822054905163709a664160e11b8152600481018590529192508291829182916001600160a01b039091169063e134cc82906024016080604051808303816000875af11580156125a0573d6000803e3d6000fd5b505050506040513d601f19601f820116820180604052508101906125c49190615858565b93509350935093506125d9858585858561454d565b60008054868252600160208190526040928390200154915163665293b360e11b8152600481018890526024810192909252604482018490526001600160a01b03169063cca5276690606401600060405180830381600087803b15801561263e57600080fd5b505af1158015612652573d6000803e3d6000fd5b5050505061265f85614495565b60408051851515815260208101859052908101839052811515606082015285907f77220ccc88401eef4453630e1f9b709ab45bd7912e6599a260abd10a84ac3ed29060800160405180910390a25050505050565b60008060008060006007600087815260200190815260200160002080548060200260200160405190810160405280929190818152602001828054801561271857602002820191906000526020600020905b815481526020019060010190808311612704575b5050505050905060005b815181101561281e57600080612750848481518110612743576127436159ef565b6020026020010151610e9d565b50909350915061276290508282614480565b61276c908861573a565b60095485519198506001600160a01b03169063661f1cf590869086908110612796576127966159ef565b60200260200101516040518263ffffffff1660e01b81526004016127bc91815260200190565b602060405180830381865afa1580156127d9573d6000803e3d6000fd5b505050506040513d601f19601f820116820180604052508101906127fd91906153bc565b612807908961573a565b97505050808061281690615a05565b915050612722565b506000868152600560209081526040918290205482516336190e4560e11b815292516001600160a01b0390911692670c7d713b49da00009283928592636c321c8a9260048083019391928290030181865afa158015612881573d6000803e3d6000fd5b505050506040513d601f19601f820116820180604052508101906128a591906153bc565b116129325761292b86612925846001600160a01b0316636c321c8a6040518163ffffffff1660e01b8152600401602060405180830381865afa1580156128ef573d6000803e3d6000fd5b505050506040513d601f19601f8201168201806040525081019061291391906153bc565b61291e90600161573a565b849061446b565b90614480565b9450612936565b8594505b60405163ef8b30f760e01b8152670de0b6b3a764000060048201526001600160a01b0383169063ef8b30f790602401602060405180830381865afa158015612982573d6000803e3d6000fd5b505050506040513d601f19601f820116820180604052508101906129a691906153bc565b93505050509193509193565b6000546001600160a01b03163314806129d557506008546001600160a01b031633145b612a0e5760405162461bcd60e51b815260206004820152600a60248201526910bb30b634b230ba37b960b11b6044820152606401610d7c565b6000818152600660209081526040808320548352600590915280822054600954915163068bcd8d60e01b8152600481018590526001600160a01b039182169392919091169063068bcd8d90602401602060405180830381865afa158015612a79573d6000803e3d6000fd5b505050506040513d601f19601f82011682018060405250810190612a9d91906158a4565b600954604051634bee760b60e11b8152600481018690529192506001600160a01b0316906397dcec1690602401602060405180830381865afa158015612ae7573d6000803e3d6000fd5b505050506040513d601f19601f82011682018060405250810190612b0b91906153bc565b600314612b4d5760405162461bcd60e51b815260206004820152601060248201526f10b6b0b935b2ba21b7b73234ba34b7b760811b6044820152606401610d7c565b60405163238f0e7560e11b8152600481018490526001600160a01b0383169063471e1cea90602401602060405180830381865afa158015612b92573d6000803e3d6000fd5b505050506040513d601f19601f82011682018060405250810190612bb6919061539f565b612bf95760405162461bcd60e51b815260206004820152601460248201527310b4b739ba393ab6b2b73a21b7b73234ba34b7b760611b6044820152606401610d7c565b60095460405163cabe2ae160e01b8152600481018590526001600160a01b039091169063cabe2ae190602401600060405180830381600087803b158015612c3f57600080fd5b505af1158015612c53573d6000803e3d6000fd5b505060095460405163b1283e7760e01b815260048101879052600093506001600160a01b03909116915063b1283e7790602401600060405180830381865afa158015612ca3573d6000803e3d6000fd5b505050506040513d6000823e601f3d908101601f19168201604052612ccb91908101906158c1565b60095460405163661f1cf560e01b8152600481018d9052919850600097506001600160a01b0316955063661f1cf594506024019250612d08915050565b602060405180830381865afa158015612d25573d6000803e3d6000fd5b505050506040513d601f19601f82011682018060405250810190612d4991906153bc565b604051634b7e8e2160e11b8152306004820152602481018290529091506001600160a01b038416906396fd1c4290604401600060405180830381600087803b158015612d9457600080fd5b505af1158015612da8573d6000803e3d6000fd5b50506040516376da9e9f60e11b815260048101889052600092506001600160a01b038716915063edb53d3e90602401602060405180830381865afa158015612df4573d6000803e3d6000fd5b505050506040513d601f19601f82011682018060405250810190612e1891906158a4565b9050846001600160a01b031663c5d664c66040518163ffffffff1660e01b8152600401602060405180830381865afa158015612e58573d6000803e3d6000fd5b505050506040513d601f19601f82011682018060405250810190612e7c91906158a4565b60405163095ea7b360e01b81526001600160a01b03838116600483015260248201859052919091169063095ea7b3906044016020604051808303816000875af1158015612ecd573d6000803e3d6000fd5b505050506040513d601f19601f82011682018060405250810190612ef1919061539f565b5082156130fd5760095460405163054d50b360e21b8152600481018890526130439188916001600160a01b039091169063153542cc90602401602060405180830381865afa158015612f47573d6000803e3d6000fd5b505050506040513d601f19601f82011682018060405250810190612f6b91906158a4565b6001600160a01b03166318160ddd6040518163ffffffff1660e01b8152600401602060405180830381865afa158015612fa8573d6000803e3d6000fd5b505050506040513d601f19601f82011682018060405250810190612fcc91906153bc565b604051634f626a0760e11b8152600481018a90526001600160a01b03891690639ec4d40e90602401600060405180830381865afa158015613011573d6000803e3d6000fd5b505050506040513d6000823e601f3d908101601f1916820160405261303991908101906155ff565b6101a00151614899565b604051636e553f6560e01b8152600481018390526001600160a01b03868116602483015260009190831690636e553f65906044016020604051808303816000875af1158015613096573d6000803e3d6000fd5b505050506040513d601f19601f820116820180604052508101906130ba91906153bc565b116130f85760405162461bcd60e51b815260206004820152600e60248201526d11115413d4d25517d1905253115160921b6044820152606401610d7c565b61325e565b6040516303d972f160e21b8152600481018790526001600160a01b03861690630f65cbc490602401602060405180830381865afa158015613142573d6000803e3d6000fd5b505050506040513d601f19601f8201168201806040525081019061316691906153bc565b60000361317c57613177868561494e565b613185565b61318586614b99565b846001600160a01b031663c5d664c66040518163ffffffff1660e01b8152600401602060405180830381865afa1580156131c3573d6000803e3d6000fd5b505050506040513d601f19601f820116820180604052508101906131e791906158a4565b60405163a9059cbb60e01b81526001600160a01b03838116600483015260248201859052919091169063a9059cbb906044016020604051808303816000875af1158015613238573d6000803e3d6000fd5b505050506040513d601f19601f8201168201806040525081019061325c919061539f565b505b6000868152600160208190526040918290208481559151624e1afd60e81b81526004810189905260248101859052908201546044820152600290910154606482015283151560848201526001600160a01b03861690634e1afd009060a401600060405180830381600087803b1580156132d657600080fd5b505af11580156132ea573d6000803e3d6000fd5b50505050836001600160a01b0316638d01450f6040518163ffffffff1660e01b8152600401600060405180830381600087803b15801561332957600080fd5b505af115801561333d573d6000803e3d6000fd5b5050506000878152600160205260409081902090518892507fa5a0c282064b5581aa97f2fdef075816b806dd6394a5eaaf1831ec95a1f79d5791611bae91615a1e565b600080546040516317c2ad2760e21b815260048101849052336024820152829182916001600160a01b0390911690635f0ab49c9060440160408051808303816000875af11580156133d5573d6000803e3d6000fd5b505050506040513d601f19601f820116820180604052508101906133f99190615760565b60095460405163334b11d360e11b81526004810188905260248101849052604481018390523360648201529294509092506001600160a01b03169063669623a690608401600060405180830381600087803b15801561345757600080fd5b505af115801561346b573d6000803e3d6000fd5b5050505061347884610a35565b156134e557613486846129b2565b60095460405163cabe2ae160e01b8152600481018690526001600160a01b039091169063cabe2ae190602401600060405180830381600087803b1580156134cc57600080fd5b505af11580156134e0573d6000803e3d6000fd5b505050505b5092915050565b60008054604051633519918760e21b8152600481018490526001600160a01b039091169063d466461c90602401610ad9565b60008054604051633597b25960e21b8152600481018490526001600160a01b039091169063d65ec96490602401610ad9565b6009546001600160a01b03163314806135735750600d546001600160a01b031633145b8061358857506008546001600160a01b031633145b6135a45760405162461bcd60e51b8152600401610d7c9061579d565b6001600160a01b0381166135b757600080fd5b600980546001600160a01b0319166001600160a01b0392909216919091179055565b6009546001600160a01b03163314806135fc5750600d546001600160a01b031633145b8061361157506008546001600160a01b031633145b61362d5760405162461bcd60e51b8152600401610d7c9061579d565b61363682611ec3565b604051633c16f3ed60e21b8152600481018390523360248201526001600160a01b03919091169063f05bcfb4906044016112b2565b600a5460405160009182916001600160a01b0390911690631fe84c5b908c9030906136a4908e908e908e908e908d908d90602001615a3f565b604051602081830303815290604052896040518563ffffffff1660e01b81526004016136d39493929190615b06565b60408051808303816000875af11580156136f1573d6000803e3d6000fd5b505050506040513d601f19601f820116820180604052508101906137159190615b43565b6000818152600560205260409081902080546001600160a01b0319166001600160a01b0385169081179091559051929450909250907f7ecb7591c061739d6ccd6a6299e0adf7d3447c390b9321530e0a400f7c65d1b7906137839084908e908e908e908e908e908e90615b71565b60405180910390a250505050505050505050565b600c54604051637453c01360e11b81526001600160a01b03848116600483015260248201849052600092169063e8a7802690604401610c2d565b6001600160a01b0383166138135760405162461bcd60e51b815260206004820152600960248201526830b2323932b9b9982960b91b6044820152606401610d7c565b6101408201516001600160a01b031661385a5760405162461bcd60e51b815260206004820152600960248201526861646472657373304960b81b6044820152606401610d7c565b6000818152600560205260409020546001600160a01b03166138aa5760405162461bcd60e51b815260206004820152600960248201526830b2323932b9b9982b60b91b6044820152606401610d7c565b600081815260056020908152604080832054600954825163764bc84160e11b815292516001600160a01b039283169594919092169263ec97908292600480830193928290030181865afa158015613905573d6000803e3d6000fd5b505050506040513d601f19601f8201168201806040525081019061392991906153bc565b60008181526006602090815260408083208790558683526007825280832080546001818101835591855283852001859055815180830183526101408a01516001600160a01b0390811682528b8116828601908152878752600390955294839020905181549086166001600160a01b031991821617825593519101805491851691909316179091556009548151637572cb1f60e01b81529151939450821692634e042a5992861691637572cb1f916004808301926101009291908290030181865afa1580156139fb573d6000803e3d6000fd5b505050506040513d601f19601f82011682018060405250810190613a1f9190615960565b846001600160a01b0316636c321c8a6040518163ffffffff1660e01b8152600401602060405180830381865afa158015613a5d573d6000803e3d6000fd5b505050506040513d601f19601f82011682018060405250810190613a8191906153bc565b846040518463ffffffff1660e01b8152600401613aa093929190615bbe565b600060405180830381600087803b158015613aba57600080fd5b505af1158015613ace573d6000803e3d6000fd5b5050600b5460008681526005602090815260408083205481516362eb326360e11b8152915193965086955085946001600160a01b039081169463981f513694919092169263c5d664c692600480830193928290030181865afa158015613b38573d6000803e3d6000fd5b505050506040513d601f19601f82011682018060405250810190613b5c91906158a4565b60095460405160e084901b6001600160e01b03191681526001600160a01b039283166004820152911660248201526044016060604051808303816000875af1158015613bac573d6000803e3d6000fd5b505050506040513d601f19601f82011682018060405250810190613bd09190615be0565b925092509250866020015115613e9657670de0b6b3a7640000876101a001516020015111158015613c0f57506101a08701516080810151602090910151105b613c475760405162461bcd60e51b8152602060048201526009602482015268282924a1a29022a92960b91b6044820152606401610d7c565b6000876101a001516040015111613c8d5760405162461bcd60e51b815260206004820152600a6024820152692922aa2aa9271022a92960b11b6044820152606401610d7c565b6101a08701805142606090910152518051602082015160809092015160095460405163c6ceb96b60e01b8152600481018990526001600160a01b03868116956334327d8b95949093909291169063c6ceb96b9060240161010060405180830381865afa158015613d01573d6000803e3d6000fd5b505050506040513d601f19601f82011682018060405250810190613d259190615960565b602001516040516001600160e01b031960e087901b16815260048101949094526024840192909252604483015260648201526084016020604051808303816000875af1158015613d79573d6000803e3d6000fd5b505050506040513d601f19601f82011682018060405250810190613d9d91906153bc565b6101a088015160c0015260095461012088015160405163080ec90d60e21b81526001600160a01b039092169163203b243491613de6918891869189918991600190600401615c2d565b600060405180830381600087803b158015613e0057600080fd5b505af1158015613e14573d6000803e3d6000fd5b50506000546101a08a01515160208b0151604051639c84342360e01b8152600481018a90526024810192909252151560448201526001600160a01b039091169250639c8434239150606401600060405180830381600087803b158015613e7957600080fd5b505af1158015613e8d573d6000803e3d6000fd5b50505050614083565b60095460405163c6ceb96b60e01b8152600481018690526000916001600160a01b03169063c6ceb96b9060240161010060405180830381865afa158015613ee1573d6000803e3d6000fd5b505050506040513d601f19601f82011682018060405250810190613f059190615960565b60c089015160e08a015160208301516040808501516080860151915163ac4bc1cb60e01b8152600481019590955260248501939093526044840191909152606483019190915260848201529091506001600160a01b0383169063ac4bc1cb9060a401600060405180830381600087803b158015613f8157600080fd5b505af1158015613f95573d6000803e3d6000fd5b50506009546101208b015160405163080ec90d60e21b81526001600160a01b03909216935063203b24349250613fd891899187918a918a91600090600401615c2d565b600060405180830381600087803b158015613ff257600080fd5b505af1158015614006573d6000803e3d6000fd5b505060005460c08b015160208c0151604051639c84342360e01b8152600481018b90526024810192909252151560448201526001600160a01b039091169250639c8434239150606401600060405180830381600087803b15801561406957600080fd5b505af115801561407d573d6000803e3d6000fd5b50505050505b600e546101a08801516080015160405163b384254b60e01b81526001600160a01b039092169163b384254b916140c59188919060009081908e90600401615dbf565b600060405180830381600087803b1580156140df57600080fd5b505af11580156140f3573d6000803e3d6000fd5b5050505060a087018490526040516398d796e760e01b81526001600160a01b038616906398d796e79061412a908a90600401615dec565b600060405180830381600087803b15801561414457600080fd5b505af1158015614158573d6000803e3d6000fd5b505050600087815260056020526040908190205490516001600160a01b038b811693509091169086907fc276e8dd3cf2547c0646ef7093b7ef8fb4edc8fde6df7574f8757ca3336e940f906141b4908690899089908f90615dff565b60405180910390a45050506001600160a01b03909416600090815260046020526040902093909355505050565b600080546040516375ea6e2360e11b8152600481018490526001600160a01b039091169063ebd4dc4690602401610ad9565b6009546001600160a01b03163314806142365750600d546001600160a01b031633145b8061424b57506008546001600160a01b031633145b6142675760405162461bcd60e51b8152600401610d7c9061579d565b6000818152600660209081526040808320548352600590915290819020549051633c16f3ed60e21b8152600481018590526001600160a01b0384811660248301529091169063f05bcfb490604401600060405180830381600087803b1580156142cf57600080fd5b505af11580156142e3573d6000803e3d6000fd5b5050604080518681526001600160a01b03861660208201528493507f23eee7127e8ffafe0ff607129c8dc9492da94a3ee89d9690587399ac0e4e644f92500160405180910390a2505050565b6009546001600160a01b03163314806143525750600d546001600160a01b031633145b8061436757506008546001600160a01b031633145b6143835760405162461bcd60e51b8152600401610d7c9061579d565b600d80546001600160a01b0319166001600160a01b03838116918217909255600954604051631e60984f60e31b815260048101929092529091169063f304c278906024016118dc565b6008546001600160a01b0316331461440e5760405162461bcd60e51b8152602060048201526005602482015264042c2eae8d60db1b6044820152606401610d7c565b6001600160a01b0381811660008181526002602052604090819020805460ff19166001179055600c549051630622fd1760e01b81526004810192909252670de0b6b3a7640000602483015290911690630622fd17906044016118dc565b6000610c6e83670de0b6b3a764000084614c64565b6000610c6e8383670de0b6b3a7640000614c64565b60095460405163068bcd8d60e01b8152600481018390526001600160a01b039091169063068bcd8d90602401602060405180830381865afa1580156144de573d6000803e3d6000fd5b505050506040513d601f19601f8201168201806040525081019061450291906158a4565b6001600160a01b03166396fd1c4261451983611ec3565b6040516001600160e01b031960e084901b1681526001600160a01b03909116600482015260001960248201526044016118dc565b831561456157821561456157614561615e3d565b60095460405163054d50b360e21b8152600481018790526000916001600160a01b03169063153542cc90602401602060405180830381865afa1580156145ab573d6000803e3d6000fd5b505050506040513d601f19601f820116820180604052508101906145cf91906158a4565b6001600160a01b03166318160ddd6040518163ffffffff1660e01b8152600401602060405180830381865afa15801561460c573d6000803e3d6000fd5b505050506040513d601f19601f8201168201806040525081019061463091906153bc565b90506000808511614642576000614710565b60095460405163920f4e5560e01b8152600481018990526001600160a01b039091169063920f4e5590602401602060405180830381865afa15801561468b573d6000803e3d6000fd5b505050506040513d601f19601f820116820180604052508101906146af91906158a4565b6001600160a01b03166318160ddd6040518163ffffffff1660e01b8152600401602060405180830381865afa1580156146ec573d6000803e3d6000fd5b505050506040513d601f19601f8201168201806040525081019061471091906153bc565b905060008380156147215750600086115b156147375761473088876113d0565b90506147cf565b6147656040518060400160405280600b81526020016a07570646174696e672072760ac1b815250878761484d565b866147905761477e614777838561573a565b879061446b565b61473090670de0b6b3a764000061573a565b61479a858461446b565b670de0b6b3a7640000116147b0575060006147cf565b6147ba858461446b565b6147cc90670de0b6b3a764000061574d565b90505b6009546040516361fa5af560e01b8152600481018a9052881515602482015285156044820152606481018390526001600160a01b03909116906361fa5af590608401600060405180830381600087803b15801561482b57600080fd5b505af115801561483f573d6000803e3d6000fd5b505050505050505050505050565b61489483838360405160240161486593929190615e53565b60408051601f198184030181529190526020810180516001600160e01b031663969cdd0360e01b179052614c82565b505050565b60008160a00151116148dc5760405162461bcd60e51b815260206004820152600c60248201526b18102622ab2fa320a1aa27a960a11b6044820152606401610d7c565b60405180606001604052806000815260200161491883608001516129258560a00151670de0b6b3a7640000614911919061573a565b8790614480565b81526000602091820181905294855260018082526040958690208351815591830151908201559301516002909301929092555050565b600082815260066020908152604080832054835260059091528082205490516318353be960e21b81526004810185905282916001600160a01b0316906360d4efa4906024016040805180830381865afa1580156149af573d6000803e3d6000fd5b505050506040513d601f19601f820116820180604052508101906149d39190615760565b60095460405163661f1cf560e01b815260048101889052929450909250600091614adb91614ad5916001600160a01b039091169063661f1cf590602401602060405180830381865afa158015614a2d573d6000803e3d6000fd5b505050506040513d601f19601f82011682018060405250810190614a5191906153bc565b60095460405163c6ceb96b60e01b8152600481018a9052670de0b6b3a7640000916001600160a01b03169063c6ceb96b9060240161010060405180830381865afa158015614aa3573d6000803e3d6000fd5b505050506040513d601f19601f82011682018060405250810190614ac79190615960565b60c00151612925919061573a565b84614ca3565b90506000614b51856001600160a01b03166314e2b929846040518263ffffffff1660e01b8152600401614b1091815260200190565b602060405180830381865afa158015614b2d573d6000803e3d6000fd5b505050506040513d601f19601f82011682018060405250810190614ad591906153bc565b60408051606081018252600080825260208083019687528284019485529981526001998a90529190912090518155925196830196909655509351600290940193909355505050565b600081815260066020908152604080832054835260059091528082205490516318353be960e21b81526004810184905282916001600160a01b0316906360d4efa4906024016040805180830381865afa158015614bfa573d6000803e3d6000fd5b505050506040513d601f19601f82011682018060405250810190614c1e9190615760565b6040805160608101825260008082526020808301958652828401948552978152600197889052919091209051815591519482019490945592516002909301929092555050565b6000826000190484118302158202614c7b57600080fd5b5091020490565b80516a636f6e736f6c652e6c6f67602083016000808483855afa5050505050565b600081831115614cb35781610c6e565b5090919050565b600060208284031215614ccc57600080fd5b5035919050565b6001600160a01b03811681146120b357600080fd5b8035614cf381614cd3565b919050565b600060208284031215614d0a57600080fd5b8135610c6e81614cd3565b80151581146120b357600080fd5b8035614cf381614d15565b60008060408385031215614d4157600080fd5b823591506020830135614d5381614d15565b809150509250929050565b60008060408385031215614d7157600080fd5b823591506020830135614d5381614cd3565b634e487b7160e01b600052604160045260246000fd5b60405161010081016001600160401b0381118282101715614dbc57614dbc614d83565b60405290565b60405160e081016001600160401b0381118282101715614dbc57614dbc614d83565b6040516101c081016001600160401b0381118282101715614dbc57614dbc614d83565b604051601f8201601f191681016001600160401b0381118282101715614e2f57614e2f614d83565b604052919050565b60006001600160401b03821115614e5057614e50614d83565b5060051b60200190565b60008060408385031215614e6d57600080fd5b823591506020808401356001600160401b03811115614e8b57600080fd5b8401601f81018613614e9c57600080fd5b8035614eaf614eaa82614e37565b614e07565b81815260059190911b82018301908381019088831115614ece57600080fd5b928401925b82841015614eec57833582529284019290840190614ed3565b80955050505050509250929050565b6020808252825182820181905260009190848201906040850190845b81811015614f3c5783516001600160a01b031683529284019291840191600101614f17565b50909695505050505050565b60008060408385031215614f5b57600080fd5b50508035926020909101359150565b600081518084526020808501945080840160005b83811015614f9a57815187529582019590820190600101614f7e565b509495945050505050565b602081526000610c6e6020830184614f6a565b60008083601f840112614fca57600080fd5b5081356001600160401b03811115614fe157600080fd5b602083019150836020828501011115614ff957600080fd5b9250929050565b600080600080600080600080888a036101c081121561501e57600080fd5b893561502981614cd3565b985060208a013561503981614d15565b975060408a0135965060608a0135955060808a01359450610100609f19820181131561506457600080fd5b61506c614d99565b915060a08b0135825260c08b0135602083015260e08b01356040830152808b01356060830152506101208a013560808201526101408a013560a08201526101608a013560c08201526101808a013560e0820152809350506101a08901356001600160401b038111156150dd57600080fd5b6150e98b828c01614fb8565b999c989b5096995094979396929594505050565b6000806040838503121561511057600080fd5b823561511b81614cd3565b946020939093013593505050565b60006001600160401b0382111561514257615142614d83565b50601f01601f191660200190565b600082601f83011261516157600080fd5b813561516f614eaa82615129565b81815284602083860101111561518457600080fd5b816020850160208301376000918101602001919091529392505050565b600681106120b357600080fd5b8035614cf3816151a1565b600060e082840312156151cb57600080fd5b6151d3614dc2565b9050813581526020820135602082015260408201356040820152606082013560608201526080820135608082015260a082013560a082015260c082013560c082015292915050565b60008060006060848603121561523057600080fd5b833561523b81614cd3565b925060208401356001600160401b038082111561525757600080fd5b90850190610280828803121561526c57600080fd5b615274614de4565b8235815261528460208401614d23565b602082015261529560408401614d23565b6040820152606083013560608201526080830135608082015260a083013560a082015260c083013560c082015260e083013560e082015261010080840135818301525061012080840135838111156152ec57600080fd5b6152f88a828701615150565b828401525050610140915061530e828401614ce8565b8282015261016091506153228284016151ae565b82820152610180915081830135828201526101a09150615344888385016151b9565b82820152809450505050604084013590509250925092565b60008060006060848603121561537157600080fd5b83359250602084013561538381614cd3565b929592945050506040919091013590565b8051614cf381614d15565b6000602082840312156153b157600080fd5b8151610c6e81614d15565b6000602082840312156153ce57600080fd5b5051919050565b60008060008060008060c087890312156153ee57600080fd5b86516153f981614d15565b602088015190965061540a81614d15565b604088015190955061541b81614d15565b606088015190945061542c81614d15565b608088015190935061543d81614d15565b8092505060a087015190509295509295509295565b8051614cf381614cd3565b60005b83811015615478578181015183820152602001615460565b50506000910152565b600082601f83011261549257600080fd5b81516154a0614eaa82615129565b8181528460208386010111156154b557600080fd5b6154c682602083016020870161545d565b949350505050565b6000602082840312156154e057600080fd5b81516001600160401b03808211156154f757600080fd5b9083019060e0828603121561550b57600080fd5b615513614dc2565b61551c83615452565b815261552a60208401615452565b602082015261553b60408401615452565b604082015260608301518281111561555257600080fd5b61555e87828601615481565b6060830152506080830151608082015260a083015160a082015261558460c08401615394565b60c082015295945050505050565b8051614cf3816151a1565b600060e082840312156155af57600080fd5b6155b7614dc2565b9050815181526020820151602082015260408201516040820152606082015160608201526080820151608082015260a082015160a082015260c082015160c082015292915050565b60006020828403121561561157600080fd5b81516001600160401b038082111561562857600080fd5b90830190610280828603121561563d57600080fd5b615645614de4565b8251815261565560208401615394565b602082015261566660408401615394565b6040820152606083015160608201526080830151608082015260a083015160a082015260c083015160c082015260e083015160e082015261010080840151818301525061012080840151838111156156bd57600080fd5b6156c988828701615481565b82840152505061014091506156df828401615452565b8282015261016091506156f3828401615592565b82820152610180915081830151828201526101a091506157158683850161559d565b91810191909152949350505050565b634e487b7160e01b600052601160045260246000fd5b80820180821115610aa457610aa4615724565b81810381811115610aa457610aa4615724565b6000806040838503121561577357600080fd5b505080516020909101519092909150565b8281526040602082015260006154c66040830184614f6a565b60208082526008908201526710b6b0b730b3b2b960c11b604082015260600190565b600060208083850312156157d257600080fd5b82516001600160401b038111156157e857600080fd5b8301601f810185136157f957600080fd5b8051615807614eaa82614e37565b81815260059190911b8201830190838101908783111561582657600080fd5b928401925b8284101561584d57835161583e81614cd3565b8252928401929084019061582b565b979650505050505050565b6000806000806080858703121561586e57600080fd5b845161587981614d15565b809450506020850151925060408501519150606085015161589981614d15565b939692955090935050565b6000602082840312156158b657600080fd5b8151610c6e81614cd3565b600080600080600080600060e0888a0312156158dc57600080fd5b87516158e781614cd3565b60208901519097506158f881614cd3565b604089015190965061590981614cd3565b60608901519095506001600160401b0381111561592557600080fd5b6159318a828b01615481565b9450506080880151925060a0880151915060c088015161595081614d15565b8091505092959891949750929550565b600061010080838503121561597457600080fd5b604051908101906001600160401b038211818310171561599657615996614d83565b81604052835181526020840151602082015260408401516040820152606084015160608201526080840151608082015260a084015160a082015260c084015160c082015260e084015160e0820152809250505092915050565b634e487b7160e01b600052603260045260246000fd5b600060018201615a1757615a17615724565b5060010190565b81548152600182015460208201526002820154604082015260608101610aa4565b861515815285602082015284604082015283606082015260a060808201528160a0820152818360c0830137600081830160c090810191909152601f909201601f1916010195945050505050565b60008151808452615aa481602086016020860161545d565b601f01601f19169290920160200192915050565b805182526020810151602083015260408101516040830152606081015160608301526080810151608083015260a081015160a083015260c081015160c083015260e081015160e08301525050565b6001600160a01b0385811682528416602082015261016060408201819052600090615b3383820186615a8c565b9150506114fc6060830184615ab8565b60008060408385031215615b5657600080fd5b8251615b6181614cd3565b6020939093015192949293505050565b8781526001600160a01b03871660208201528515156040820152606081018590526080810184905260a081018390526101c08101615bb260c0830184615ab8565b98975050505050505050565b6101408101615bcd8286615ab8565b6101008201939093526101200152919050565b600080600060608486031215615bf557600080fd5b8351615c0081614cd3565b6020850151909350615c1181614cd3565b6040850151909250615c2281614cd3565b809150509250925092565b8681526001600160a01b03868116602083015285811660408301528416606082015260c060808201819052600090615c6790830185615a8c565b905082151560a0830152979650505050505050565b60068110615c9a57634e487b7160e01b600052602160045260246000fd5b9052565b6000610280825184526020830151615cba602086018215159052565b506040830151615cce604086018215159052565b50606083015160608501526080830151608085015260a083015160a085015260c083015160c085015260e083015160e0850152610100808401518186015250610120808401518282870152615d2583870182615a8c565b9250505061014080840151615d44828701826001600160a01b03169052565b505061016080840151615d5982870182615c7c565b505061018083810151908501526101a08084015180518287015260208101516101c087015260408101516101e08701526060810151610200870152608081015161022087015260a081015161024087015260c08101516102608701525090949350505050565b858152846020820152836040820152821515606082015260a06080820152600061584d60a0830184615c9e565b602081526000610c6e6020830184615c9e565b6001600160a01b038581168252848116602083015283166040820152608060608201819052600090615e3390830184615c9e565b9695505050505050565b634e487b7160e01b600052600160045260246000fd5b606081526000615e666060830186615a8c565b6020830194909452506040015291905056fea2646970667358221220a1f652090250672e583faaf89fb9d00f562c291a7fff6b3647043c17e8bbf52a64736f6c63430008110033",
    "linkReferences": {
      "contracts/bonds/GBC.sol": {
        "LinearCurve": [
          {
            "start": 4393,
            "length": 20
          }
        ]
      }
    }
  },
  "methodIdentifiers": {
    "Data()": "4b6e7d78",
    "ad_to_id(address)": "7789ec5a",
    "approvalCondition(uint256)": "05a1ce99",
    "approveMarket(uint256)": "cabe2ae1",
    "beforeResolve(uint256)": "2b858734",
    "calcIncompleteReturns(uint256,uint256)": "40297812",
    "createVault(address,bool,uint256,uint256,uint256,(uint256,uint256,uint256,uint256,uint256,uint256,uint256,uint256),string)": "e8858b4f",
    "deniedValidator(uint256,address)": "830e2a02",
    "denyMarket(uint256)": "4cb44087",
    "forceCloseInstrument(uint256,bool)": "0c33df18",
    "fulfillRandomWords(uint256,uint256[])": "38ba4614",
    "getApprovalData(uint256)": "ac1b6b01",
    "getFinalStake(uint256)": "937b6feb",
    "getInitialStake(uint256)": "875e487e",
    "getInstrumentSnapShot(uint256)": "37b4dd3a",
    "getMarketId(address)": "f25fcc9f",
    "getMarketIds(uint256)": "b1b7e1f2",
    "getNumApproved(uint256)": "805798ac",
    "getNumResolved(uint256)": "ebd4dc46",
    "getTotalStaked(uint256)": "2f8899f3",
    "getTotalSupply(uint256)": "92ab723e",
    "getTotalValidatorSales(uint256)": "37bc93b0",
    "getTraderScore(address)": "08ad90a5",
    "getValidatorCap(uint256)": "d466461c",
    "getValidatorPrice(uint256)": "a40c63f7",
    "getValidatorRequiredCollateral(uint256)": "d65ec964",
    "getVault(uint256)": "9403b634",
    "getVaultAd(uint256)": "c4abc650",
    "getVaultSnapShot(uint256)": "c8f559c0",
    "getVaultfromId(uint256)": "9fe1458b",
    "hasApproved(uint256,address)": "2358d5a8",
    "id_parent(uint256)": "8fbbc868",
    "initiateMarket(address,(bytes32,bool,bool,uint256,uint256,uint256,uint256,uint256,uint256,string,address,uint8,uint256,(uint256,uint256,uint256,uint256,uint256,uint256,uint256)),uint256)": "e8e3fbb7",
    "isReputable(address,uint256)": "e8a78026",
    "isValidator(uint256,address)": "23f2a73f",
    "isVerified(address)": "b9209e33",
    "leverageManager()": "81fd6c02",
    "marketCondition(uint256)": "b743939b",
    "marketIdToVaultId(uint256)": "ce93ec67",
    "marketId_to_vaultId(uint256)": "14f2b14c",
    "marketManager()": "41ed2c12",
    "market_data(uint256)": "8d4f16d7",
    "poolFactory()": "4219dc40",
    "pullLeverage(uint256,uint256)": "da0a697f",
    "redeemValidator(uint256,address)": "8f5709a5",
    "redeem_transfer(uint256,address,uint256)": "f0fd1d38",
    "reputationManager()": "6b868afb",
    "resolveCondition(uint256)": "81e1b07c",
    "resolveMarket(uint256)": "6399d03d",
    "setDataStore(address)": "500065d2",
    "setLeverageManager(address)": "f304c278",
    "setMarketManager(address)": "d82aff11",
    "setPoolFactory(address)": "473597a0",
    "setReputationManager(address)": "56a837f4",
    "setValidatorManager(address)": "45f34e92",
    "setVaultFactory(address)": "3ea7fbdb",
    "testApproveMarket(uint256)": "b37eedcd",
    "testResolveMarket(uint256)": "c3f956fa",
    "unlockValidatorStake(uint256)": "8dc3d9b4",
    "validatorApprove(uint256)": "d1227136",
    "validatorResolve(uint256)": "ad4e4e70",
    "vaultFactory()": "d8a06f73",
    "vault_to_marketIds(uint256,uint256)": "482c0aa8",
    "vaults(uint256)": "8c64ea4a",
    "verified(address)": "0db065f4",
    "verifyAddress(address)": "fcb2cafc",
    "viewValidators(uint256)": "3ec8dc3b"
  },
  "id": 16
}