{
  "abi": [
    {
      "inputs": [
        {
          "internalType": "address",
          "name": "_vault",
          "type": "address"
        },
        {
          "internalType": "address",
          "name": "_utilizer",
          "type": "address"
        },
        {
          "internalType": "address",
          "name": "_underlyingAsset",
          "type": "address"
        },
        {
          "internalType": "uint256",
          "name": "_strikePrice",
          "type": "uint256"
        },
        {
          "internalType": "uint256",
          "name": "_pricePerContract",
          "type": "uint256"
        },
        {
          "internalType": "uint256",
          "name": "_shortCollateral",
          "type": "uint256"
        },
        {
          "internalType": "uint256",
          "name": "_longCollateral",
          "type": "uint256"
        },
        {
          "internalType": "address",
          "name": "_cash",
          "type": "address"
        },
        {
          "internalType": "address",
          "name": "_oracle",
          "type": "address"
        },
        {
          "internalType": "uint256",
          "name": "duration",
          "type": "uint256"
        }
      ],
      "stateMutability": "nonpayable",
      "type": "constructor"
    },
    {
      "anonymous": false,
      "inputs": [
        {
          "indexed": true,
          "internalType": "address",
          "name": "to",
          "type": "address"
        },
        {
          "indexed": false,
          "internalType": "uint256",
          "name": "amount",
          "type": "uint256"
        }
      ],
      "name": "LiquidityTransfer",
      "type": "event"
    },
    {
      "anonymous": false,
      "inputs": [
        {
          "indexed": true,
          "internalType": "address",
          "name": "to",
          "type": "address"
        },
        {
          "indexed": false,
          "internalType": "uint256",
          "name": "amount",
          "type": "uint256"
        }
      ],
      "name": "LiquidityTransferFrom",
      "type": "event"
    },
    {
      "inputs": [],
      "name": "Utilizer",
      "outputs": [
        {
          "internalType": "address",
          "name": "",
          "type": "address"
        }
      ],
      "stateMutability": "view",
      "type": "function"
    },
    {
      "inputs": [
        {
          "internalType": "address",
          "name": "user",
          "type": "address"
        }
      ],
      "name": "balanceOfUnderlying",
      "outputs": [
        {
          "internalType": "uint256",
          "name": "",
          "type": "uint256"
        }
      ],
      "stateMutability": "view",
      "type": "function"
    },
    {
      "inputs": [],
      "name": "cash",
      "outputs": [
        {
          "internalType": "address",
          "name": "",
          "type": "address"
        }
      ],
      "stateMutability": "view",
      "type": "function"
    },
    {
      "inputs": [],
      "name": "claim",
      "outputs": [],
      "stateMutability": "nonpayable",
      "type": "function"
    },
    {
      "inputs": [],
      "name": "estimatedTotalAssets",
      "outputs": [
        {
          "internalType": "uint256",
          "name": "",
          "type": "uint256"
        }
      ],
      "stateMutability": "view",
      "type": "function"
    },
    {
      "inputs": [],
      "name": "getMaturityBalance",
      "outputs": [
        {
          "internalType": "uint256",
          "name": "",
          "type": "uint256"
        }
      ],
      "stateMutability": "view",
      "type": "function"
    },
    {
      "inputs": [],
      "name": "instrumentApprovalCondition",
      "outputs": [
        {
          "internalType": "bool",
          "name": "",
          "type": "bool"
        }
      ],
      "stateMutability": "view",
      "type": "function"
    },
    {
      "inputs": [
        {
          "internalType": "uint256",
          "name": "amount",
          "type": "uint256"
        }
      ],
      "name": "isLiquid",
      "outputs": [
        {
          "internalType": "bool",
          "name": "",
          "type": "bool"
        }
      ],
      "stateMutability": "view",
      "type": "function"
    },
    {
      "inputs": [],
      "name": "isLocked",
      "outputs": [
        {
          "internalType": "bool",
          "name": "",
          "type": "bool"
        }
      ],
      "stateMutability": "view",
      "type": "function"
    },
    {
      "inputs": [],
      "name": "liquidateAllPositions",
      "outputs": [
        {
          "internalType": "uint256",
          "name": "_amountFreed",
          "type": "uint256"
        }
      ],
      "stateMutability": "nonpayable",
      "type": "function"
    },
    {
      "inputs": [
        {
          "internalType": "uint256",
          "name": "_amountNeeded",
          "type": "uint256"
        }
      ],
      "name": "liquidatePosition",
      "outputs": [
        {
          "internalType": "uint256",
          "name": "_liquidatedAmount",
          "type": "uint256"
        },
        {
          "internalType": "uint256",
          "name": "_loss",
          "type": "uint256"
        }
      ],
      "stateMutability": "nonpayable",
      "type": "function"
    },
    {
      "inputs": [],
      "name": "longCollateral",
      "outputs": [
        {
          "internalType": "uint256",
          "name": "",
          "type": "uint256"
        }
      ],
      "stateMutability": "view",
      "type": "function"
    },
    {
      "inputs": [],
      "name": "maturityTime",
      "outputs": [
        {
          "internalType": "uint256",
          "name": "",
          "type": "uint256"
        }
      ],
      "stateMutability": "view",
      "type": "function"
    },
    {
      "inputs": [
        {
          "internalType": "uint256",
          "name": "principal",
          "type": "uint256"
        },
        {
          "internalType": "uint256",
          "name": "yield",
          "type": "uint256"
        }
      ],
      "name": "onMarketApproval",
      "outputs": [],
      "stateMutability": "nonpayable",
      "type": "function"
    },
    {
      "inputs": [],
      "name": "oracle",
      "outputs": [
        {
          "internalType": "address",
          "name": "",
          "type": "address"
        }
      ],
      "stateMutability": "view",
      "type": "function"
    },
    {
      "inputs": [],
      "name": "prepareWithdraw",
      "outputs": [
        {
          "internalType": "uint256",
          "name": "_profit",
          "type": "uint256"
        },
        {
          "internalType": "uint256",
          "name": "_loss",
          "type": "uint256"
        },
        {
          "internalType": "uint256",
          "name": "_debtPayment",
          "type": "uint256"
        }
      ],
      "stateMutability": "nonpayable",
      "type": "function"
    },
    {
      "inputs": [],
      "name": "pricePerContract",
      "outputs": [
        {
          "internalType": "uint256",
          "name": "",
          "type": "uint256"
        }
      ],
      "stateMutability": "view",
      "type": "function"
    },
    {
      "inputs": [],
      "name": "profit",
      "outputs": [
        {
          "internalType": "uint256",
          "name": "",
          "type": "uint256"
        }
      ],
      "stateMutability": "view",
      "type": "function"
    },
    {
      "inputs": [
        {
          "internalType": "uint256",
          "name": "amount",
          "type": "uint256"
        }
      ],
      "name": "pullRawFunds",
      "outputs": [],
      "stateMutability": "nonpayable",
      "type": "function"
    },
    {
      "inputs": [],
      "name": "queryPrice",
      "outputs": [
        {
          "internalType": "uint256",
          "name": "price",
          "type": "uint256"
        }
      ],
      "stateMutability": "view",
      "type": "function"
    },
    {
      "inputs": [],
      "name": "readyForWithdrawal",
      "outputs": [
        {
          "internalType": "bool",
          "name": "",
          "type": "bool"
        }
      ],
      "stateMutability": "view",
      "type": "function"
    },
    {
      "inputs": [
        {
          "internalType": "uint256",
          "name": "amount",
          "type": "uint256"
        }
      ],
      "name": "redeemUnderlying",
      "outputs": [
        {
          "internalType": "bool",
          "name": "",
          "type": "bool"
        }
      ],
      "stateMutability": "nonpayable",
      "type": "function"
    },
    {
      "inputs": [],
      "name": "setOracle",
      "outputs": [],
      "stateMutability": "nonpayable",
      "type": "function"
    },
    {
      "inputs": [
        {
          "internalType": "address",
          "name": "_Utilizer",
          "type": "address"
        }
      ],
      "name": "setUtilizer",
      "outputs": [],
      "stateMutability": "nonpayable",
      "type": "function"
    },
    {
      "inputs": [
        {
          "internalType": "address",
          "name": "newVault",
          "type": "address"
        }
      ],
      "name": "setVault",
      "outputs": [],
      "stateMutability": "nonpayable",
      "type": "function"
    },
    {
      "inputs": [],
      "name": "shortCollateral",
      "outputs": [
        {
          "internalType": "uint256",
          "name": "",
          "type": "uint256"
        }
      ],
      "stateMutability": "view",
      "type": "function"
    },
    {
      "inputs": [],
      "name": "store_internal_balance",
      "outputs": [],
      "stateMutability": "nonpayable",
      "type": "function"
    },
    {
      "inputs": [],
      "name": "strikePrice",
      "outputs": [
        {
          "internalType": "uint256",
          "name": "",
          "type": "uint256"
        }
      ],
      "stateMutability": "view",
      "type": "function"
    },
    {
      "inputs": [],
      "name": "testqueriedPrice",
      "outputs": [
        {
          "internalType": "uint256",
          "name": "",
          "type": "uint256"
        }
      ],
      "stateMutability": "view",
      "type": "function"
    },
    {
      "inputs": [],
      "name": "timeThreshold",
      "outputs": [
        {
          "internalType": "uint256",
          "name": "",
          "type": "uint256"
        }
      ],
      "stateMutability": "view",
      "type": "function"
    },
    {
      "inputs": [],
      "name": "underlying",
      "outputs": [
        {
          "internalType": "contract ERC20",
          "name": "",
          "type": "address"
        }
      ],
      "stateMutability": "view",
      "type": "function"
    },
    {
      "inputs": [],
      "name": "underlyingAsset",
      "outputs": [
        {
          "internalType": "address",
          "name": "",
          "type": "address"
        }
      ],
      "stateMutability": "view",
      "type": "function"
    },
    {
      "inputs": [],
      "name": "utilizer",
      "outputs": [
        {
          "internalType": "address",
          "name": "",
          "type": "address"
        }
      ],
      "stateMutability": "view",
      "type": "function"
    },
    {
      "inputs": [
        {
          "internalType": "uint256",
          "name": "",
          "type": "uint256"
        }
      ],
      "name": "validators",
      "outputs": [
        {
          "internalType": "address",
          "name": "",
          "type": "address"
        }
      ],
      "stateMutability": "view",
      "type": "function"
    },
    {
      "inputs": [],
      "name": "vault",
      "outputs": [
        {
          "internalType": "contract Vault",
          "name": "",
          "type": "address"
        }
      ],
      "stateMutability": "view",
      "type": "function"
    }
  ],
  "bytecode": {
    "object": "0x610180604052670de0b6b3a7640000600a553480156200001e57600080fd5b506040516200153f3803806200153f833981016040819052620000419162000298565b600180546001600160a01b0319166001600160a01b038c16908117909155604080516362eb326360e11b815290518c928c92909163c5d664c6916004808201926020929091908290030181865afa158015620000a1573d6000803e3d6000fd5b505050506040513d601f19601f82011682018060405250810190620000c791906200034b565b600080546001600160a01b0319166001600160a01b0392831690811790915560405163095ea7b360e01b8152918416600483015260001960248301529063095ea7b3906044016020604051808303816000875af11580156200012d573d6000803e3d6000fd5b505050506040513d601f19601f8201168201806040525081019062000153919062000372565b50600480546001600160a01b0319166001600160a01b0392909216919091179055506200018d85876200023f602090811b62000e4d17901c565b8414620001d45760405162461bcd60e51b8152602060048201526011602482015270696e636f72726563742073657474696e6760781b604482015260640160405180910390fd5b6001600160a01b03898116608052600054811660a05260c088905260e087905261010086905261012085905283811661014052600780546001600160a01b0319169184169190911790556200022a814262000396565b6101605250620003b898505050505050505050565b6000620002568383670de0b6b3a76400006200025f565b90505b92915050565b8282028115158415858304851417166200027857600080fd5b0492915050565b6001600160a01b03811681146200029557600080fd5b50565b6000806000806000806000806000806101408b8d031215620002b957600080fd5b8a51620002c6816200027f565b60208c0151909a50620002d9816200027f565b60408c0151909950620002ec816200027f565b8098505060608b0151965060808b0151955060a08b0151945060c08b0151935060e08b01516200031c816200027f565b6101008c015190935062000330816200027f565b809250506101208b015190509295989b9194979a5092959850565b6000602082840312156200035e57600080fd5b81516200036b816200027f565b9392505050565b6000602082840312156200038557600080fd5b815180151581146200036b57600080fd5b808201808211156200025957634e487b7160e01b600052601160045260246000fd5b60805160a05160c05160e051610100516101205161014051610160516111056200043a600039600081816102c2015281816107500152610c4e015260006103d90152600081816104b50152610b24015260006103aa0152600061046701526000818161040f0152610440015260006103550152600061048e01526111056000f3fe608060405234801561001057600080fd5b50600436106102115760003560e01c806383e754a011610125578063c576ce01116100ad578063d832f7911161007c578063d832f79114610502578063e0186b8d14610515578063efbb5cb0146102e4578063f3aa68d31461051e578063fbfa77cf1461052657600080fd5b8063c576ce0114610462578063c9ac433214610489578063cb29bb9a146104b0578063cdddd4e5146104d757600080fd5b8063961be391116100f4578063961be391146103d4578063a4e2d634146103fb578063b0667cf81461040d578063bdf0f25314610433578063c52987cf1461043b57600080fd5b806383e754a01461038a578063852a12e314610392578063870dcaeb146103a557806387479487146103cc57600080fd5b806350bb4beb116101a857806366d16cc31161017757806366d16cc3146103215780636817031b1461032a5780636f307dc31461033d5780637158da7c146103505780637dc0d1d01461037757600080fd5b806350bb4beb146102e4578063537d9409146102eb57806357b259961461030e5780635b89c4891461029057600080fd5b8063416288dd116101e4578063416288dd1461027e57806349dcf4ed146102925780634e71d92d146102b55780634e8bfdaa146102bd57600080fd5b80631104aafd14610216578063350896fe1461022d57806335aa2e44146102585780633af9e6691461026b575b600080fd5b6002545b6040519081526020015b60405180910390f35b600454610240906001600160a01b031681565b6040516001600160a01b039091168152602001610224565b610240610266366004610f44565b610539565b61021a610279366004610f72565b610563565b61029061028c366004610f8f565b5050565b005b61029a610664565b60408051938452602084019290925290820152606001610224565b610290610707565b61021a7f000000000000000000000000000000000000000000000000000000000000000081565b600061021a565b6102fe6102f9366004610f44565b6108af565b6040519015158152602001610224565b61029061031c366004610f72565b6108f6565b61021a60085481565b610290610338366004610f72565b610a0a565b600054610240906001600160a01b031681565b6102407f000000000000000000000000000000000000000000000000000000000000000081565b600754610240906001600160a01b031681565b6102fe610b0b565b6102fe6103a0366004610f44565b610b9f565b61021a7f000000000000000000000000000000000000000000000000000000000000000081565b61021a600a81565b6102407f000000000000000000000000000000000000000000000000000000000000000081565b600154600160a01b900460ff166102fe565b7f000000000000000000000000000000000000000000000000000000000000000061021a565b6102fe610c45565b61021a7f000000000000000000000000000000000000000000000000000000000000000081565b61021a7f000000000000000000000000000000000000000000000000000000000000000081565b6102407f000000000000000000000000000000000000000000000000000000000000000081565b61021a7f000000000000000000000000000000000000000000000000000000000000000081565b6104ed6104e5366004610f44565b600080915091565b60408051928352602083019190915201610224565b610290610510366004610f44565b610c93565b61021a600a5481565b610290610d29565b600154610240906001600160a01b031681565b6005818154811061054957600080fd5b6000918252602090912001546001600160a01b0316905081565b6000306001600160a01b038316036105f6576003546000546040516370a0823160e01b81526001600160a01b038581166004830152909116906370a0823190602401602060405180830381865afa1580156105c2573d6000803e3d6000fd5b505050506040513d601f19601f820116820180604052508101906105e69190610fb1565b6105f09190610fe0565b92915050565b6000546040516370a0823160e01b81526001600160a01b038481166004830152909116906370a0823190602401602060405180830381865afa158015610640573d6000803e3d6000fd5b505050506040513d601f19601f820116820180604052508101906105f09190610fb1565b600154600090819081906001600160a01b0316331461069e5760405162461bcd60e51b815260040161069590610ff3565b60405180910390fd5b6106a6610c45565b6106ea5760405162461bcd60e51b81526020600482015260156024820152746e6f7420726561647920746f20776974686472617760581b6044820152606401610695565b6107026001805460ff60a01b1916600160a01b179055565b909192565b6004546001600160a01b0316331461074d5760405162461bcd60e51b815260206004820152600960248201526810aaba34b634bd32b960b91b6044820152606401610695565b427f0000000000000000000000000000000000000000000000000000000000000000106107aa5760405162461bcd60e51b815260206004820152600b60248201526a1b9bdd081b585d1d5c995960aa1b6044820152606401610695565b6107b2610e69565b600854156108ad5760005460085460405163a9059cbb60e01b815233600482015260248101919091526001600160a01b039091169063a9059cbb906044016020604051808303816000875af115801561080f573d6000803e3d6000fd5b505050506040513d601f19601f820116820180604052508101906108339190611021565b50600060088190556009805460ff191660019081179091555460405163109d3ea960e11b815230600482015260248101929092526001600160a01b03169063213a7d5290604401600060405180830381600087803b15801561089457600080fd5b505af11580156108a8573d6000803e3d6000fd5b505050505b565b60006108e4604051806040016040528060088152602001671a5cdb1a5c5d5a5960c21b8152506108de30610563565b84610eb8565b816108ee30610563565b101592915050565b600160009054906101000a90046001600160a01b03166001600160a01b0316638da5cb5b6040518163ffffffff1660e01b8152600401602060405180830381865afa158015610949573d6000803e3d6000fd5b505050506040513d601f19601f8201168201806040525081019061096d9190611043565b6001600160a01b0316336001600160a01b0316148061099b57503360009081526006602052604090205460ff165b6109d55760405162461bcd60e51b815260206004820152600b60248201526a08585d5d1a1bdc9a5e995960aa1b6044820152606401610695565b6001600160a01b0381166109e857600080fd5b600480546001600160a01b0319166001600160a01b0392909216919091179055565b600160009054906101000a90046001600160a01b03166001600160a01b0316638da5cb5b6040518163ffffffff1660e01b8152600401602060405180830381865afa158015610a5d573d6000803e3d6000fd5b505050506040513d601f19601f82011682018060405250810190610a819190611043565b6001600160a01b0316336001600160a01b03161480610aaf57503360009081526006602052604090205460ff165b610ae95760405162461bcd60e51b815260206004820152600b60248201526a08585d5d1a1bdc9a5e995960aa1b6044820152606401610695565b600180546001600160a01b0319166001600160a01b0392909216919091179055565b600080546040516370a0823160e01b81523060048201527f0000000000000000000000000000000000000000000000000000000000000000916001600160a01b0316906370a0823190602401602060405180830381865afa158015610b74573d6000803e3d6000fd5b505050506040513d601f19601f82011682018060405250810190610b989190610fb1565b1015905090565b6001546000906001600160a01b03163314610bcc5760405162461bcd60e51b815260040161069590610ff3565b60005460015460405163a9059cbb60e01b81526001600160a01b0391821660048201526024810185905291169063a9059cbb906044016020604051808303816000875af1158015610c21573d6000803e3d6000fd5b505050506040513d601f19601f820116820180604052508101906105f09190611021565b6000610c72600a7f0000000000000000000000000000000000000000000000000000000000000000611060565b4210158015610c815750600854155b80610c8e575060095460ff165b905090565b6000546040516323b872dd60e01b8152336004820152306024820152604481018390526001600160a01b03909116906323b872dd906064016020604051808303816000875af1158015610cea573d6000803e3d6000fd5b505050506040513d601f19601f82011682018060405250810190610d0e9190611021565b508060036000828254610d219190611060565b909155505050565b6001546001600160a01b03163314610d535760405162461bcd60e51b815260040161069590610ff3565b610d5c30610563565b60025560015460408051637e0b9fe360e11b815290516001600160a01b039092169163fc173fc6916004808201926020929091908290030181865afa158015610da9573d6000803e3d6000fd5b505050506040513d601f19601f82011682018060405250810190610dcd9190611021565b156108ad57600154600254604051634b674ead60e11b81526001600160a01b03909216916396ce9d5a91610e079160040190815260200190565b602060405180830381865afa158015610e24573d6000803e3d6000fd5b505050506040513d601f19601f82011682018060405250810190610e489190610fb1565b600255565b6000610e628383670de0b6b3a7640000610f04565b9392505050565b60085415610eae5760405162461bcd60e51b81526020600482015260126024820152711c1c9bd99a5d08185b1c9958591e481cd95d60721b6044820152606401610695565b6000600855565b50565b610eff838383604051602401610ed093929190611073565b60408051601f198184030181529190526020810180516001600160e01b031663969cdd0360e01b179052610f23565b505050565b828202811515841585830485141716610f1c57600080fd5b0492915050565b80516a636f6e736f6c652e6c6f67602083016000808483855afa5050505050565b600060208284031215610f5657600080fd5b5035919050565b6001600160a01b0381168114610eb557600080fd5b600060208284031215610f8457600080fd5b8135610e6281610f5d565b60008060408385031215610fa257600080fd5b50508035926020909101359150565b600060208284031215610fc357600080fd5b5051919050565b634e487b7160e01b600052601160045260246000fd5b818103818111156105f0576105f0610fca565b60208082526014908201527318d85b1b195c881b5d5cdd081899481d985d5b1d60621b604082015260600190565b60006020828403121561103357600080fd5b81518015158114610e6257600080fd5b60006020828403121561105557600080fd5b8151610e6281610f5d565b808201808211156105f0576105f0610fca565b606081526000845180606084015260005b818110156110a15760208188018101516080868401015201611084565b506000608082850101526080601f19601f83011684010191505083602083015282604083015294935050505056fea2646970667358221220968cfc4ac69cd4bb210cf1b427e36154bb3a3bc0a8f2da2ae23d9c19fedc9cd764736f6c63430008110033",
    "linkReferences": {}
  },
  "methodIdentifiers": {
    "Utilizer()": "350896fe",
    "balanceOfUnderlying(address)": "3af9e669",
    "cash()": "961be391",
    "claim()": "4e71d92d",
    "estimatedTotalAssets()": "efbb5cb0",
    "getMaturityBalance()": "1104aafd",
    "instrumentApprovalCondition()": "83e754a0",
    "isLiquid(uint256)": "537d9409",
    "isLocked()": "a4e2d634",
    "liquidateAllPositions()": "50bb4beb",
    "liquidatePosition(uint256)": "cdddd4e5",
    "longCollateral()": "cb29bb9a",
    "maturityTime()": "4e8bfdaa",
    "onMarketApproval(uint256,uint256)": "416288dd",
    "oracle()": "7dc0d1d0",
    "prepareWithdraw()": "49dcf4ed",
    "pricePerContract()": "c576ce01",
    "profit()": "66d16cc3",
    "pullRawFunds(uint256)": "d832f791",
    "queryPrice()": "b0667cf8",
    "readyForWithdrawal()": "bdf0f253",
    "redeemUnderlying(uint256)": "852a12e3",
    "setOracle()": "5b89c489",
    "setUtilizer(address)": "57b25996",
    "setVault(address)": "6817031b",
    "shortCollateral()": "870dcaeb",
    "store_internal_balance()": "f3aa68d3",
    "strikePrice()": "c52987cf",
    "testqueriedPrice()": "e0186b8d",
    "timeThreshold()": "87479487",
    "underlying()": "6f307dc3",
    "underlyingAsset()": "7158da7c",
    "utilizer()": "c9ac4332",
    "validators(uint256)": "35aa2e44",
    "vault()": "fbfa77cf"
  },
  "id": 24
}