{
  "abi": [
    {
      "inputs": [
        {
          "internalType": "address",
          "name": "_vault",
          "type": "address"
        },
        {
          "internalType": "address",
          "name": "_utilizer",
          "type": "address"
        },
        {
          "internalType": "uint256",
          "name": "_strikePrice",
          "type": "uint256"
        },
        {
          "internalType": "uint256",
          "name": "_pricePerContract",
          "type": "uint256"
        },
        {
          "internalType": "uint256",
          "name": "_shortCollateral",
          "type": "uint256"
        },
        {
          "internalType": "uint256",
          "name": "_longCollateral",
          "type": "uint256"
        },
        {
          "internalType": "address",
          "name": "_cash",
          "type": "address"
        },
        {
          "internalType": "uint256",
          "name": "duration",
          "type": "uint256"
        },
        {
          "internalType": "uint256",
          "name": "_tradeTime",
          "type": "uint256"
        }
      ],
      "stateMutability": "nonpayable",
      "type": "constructor"
    },
    {
      "anonymous": false,
      "inputs": [
        {
          "indexed": true,
          "internalType": "address",
          "name": "from",
          "type": "address"
        },
        {
          "indexed": true,
          "internalType": "address",
          "name": "to",
          "type": "address"
        },
        {
          "indexed": false,
          "internalType": "uint256",
          "name": "amount",
          "type": "uint256"
        }
      ],
      "name": "LiquidityTransfer",
      "type": "event"
    },
    {
      "inputs": [],
      "name": "Utilizer",
      "outputs": [
        {
          "internalType": "address",
          "name": "",
          "type": "address"
        }
      ],
      "stateMutability": "view",
      "type": "function"
    },
    {
      "inputs": [
        {
          "internalType": "address",
          "name": "user",
          "type": "address"
        }
      ],
      "name": "balanceOfUnderlying",
      "outputs": [
        {
          "internalType": "uint256",
          "name": "",
          "type": "uint256"
        }
      ],
      "stateMutability": "view",
      "type": "function"
    },
    {
      "inputs": [],
      "name": "cash",
      "outputs": [
        {
          "internalType": "address",
          "name": "",
          "type": "address"
        }
      ],
      "stateMutability": "view",
      "type": "function"
    },
    {
      "inputs": [],
      "name": "claim",
      "outputs": [],
      "stateMutability": "nonpayable",
      "type": "function"
    },
    {
      "inputs": [],
      "name": "deposit",
      "outputs": [],
      "stateMutability": "nonpayable",
      "type": "function"
    },
    {
      "inputs": [],
      "name": "estimatedTotalAssets",
      "outputs": [
        {
          "internalType": "uint256",
          "name": "",
          "type": "uint256"
        }
      ],
      "stateMutability": "view",
      "type": "function"
    },
    {
      "inputs": [],
      "name": "getMaturityBalance",
      "outputs": [
        {
          "internalType": "uint256",
          "name": "",
          "type": "uint256"
        }
      ],
      "stateMutability": "view",
      "type": "function"
    },
    {
      "inputs": [],
      "name": "instrumentApprovalCondition",
      "outputs": [
        {
          "internalType": "bool",
          "name": "",
          "type": "bool"
        }
      ],
      "stateMutability": "view",
      "type": "function"
    },
    {
      "inputs": [],
      "name": "instrumentStaticSnapshot",
      "outputs": [
        {
          "internalType": "uint256",
          "name": "_strikePrice",
          "type": "uint256"
        },
        {
          "internalType": "uint256",
          "name": "_pricePerContract",
          "type": "uint256"
        },
        {
          "internalType": "uint256",
          "name": "_shortCollateral",
          "type": "uint256"
        },
        {
          "internalType": "uint256",
          "name": "_longCollateral",
          "type": "uint256"
        },
        {
          "internalType": "uint256",
          "name": "_maturityTime",
          "type": "uint256"
        },
        {
          "internalType": "uint256",
          "name": "_tradeTime",
          "type": "uint256"
        },
        {
          "internalType": "address",
          "name": "_oracle",
          "type": "address"
        }
      ],
      "stateMutability": "view",
      "type": "function"
    },
    {
      "inputs": [
        {
          "internalType": "uint256",
          "name": "amount",
          "type": "uint256"
        }
      ],
      "name": "isLiquid",
      "outputs": [
        {
          "internalType": "bool",
          "name": "",
          "type": "bool"
        }
      ],
      "stateMutability": "view",
      "type": "function"
    },
    {
      "inputs": [],
      "name": "isLocked",
      "outputs": [
        {
          "internalType": "bool",
          "name": "",
          "type": "bool"
        }
      ],
      "stateMutability": "view",
      "type": "function"
    },
    {
      "inputs": [],
      "name": "liquidateAllPositions",
      "outputs": [
        {
          "internalType": "uint256",
          "name": "_amountFreed",
          "type": "uint256"
        }
      ],
      "stateMutability": "nonpayable",
      "type": "function"
    },
    {
      "inputs": [
        {
          "internalType": "uint256",
          "name": "_amountNeeded",
          "type": "uint256"
        }
      ],
      "name": "liquidatePosition",
      "outputs": [
        {
          "internalType": "uint256",
          "name": "_liquidatedAmount",
          "type": "uint256"
        },
        {
          "internalType": "uint256",
          "name": "_loss",
          "type": "uint256"
        }
      ],
      "stateMutability": "nonpayable",
      "type": "function"
    },
    {
      "inputs": [],
      "name": "longCollateral",
      "outputs": [
        {
          "internalType": "uint256",
          "name": "",
          "type": "uint256"
        }
      ],
      "stateMutability": "view",
      "type": "function"
    },
    {
      "inputs": [],
      "name": "maturityTime",
      "outputs": [
        {
          "internalType": "uint256",
          "name": "",
          "type": "uint256"
        }
      ],
      "stateMutability": "view",
      "type": "function"
    },
    {
      "inputs": [
        {
          "internalType": "uint256",
          "name": "principal",
          "type": "uint256"
        },
        {
          "internalType": "uint256",
          "name": "yield",
          "type": "uint256"
        }
      ],
      "name": "onMarketApproval",
      "outputs": [],
      "stateMutability": "nonpayable",
      "type": "function"
    },
    {
      "inputs": [],
      "name": "oracle",
      "outputs": [
        {
          "internalType": "address",
          "name": "",
          "type": "address"
        }
      ],
      "stateMutability": "view",
      "type": "function"
    },
    {
      "inputs": [],
      "name": "prepareWithdraw",
      "outputs": [
        {
          "internalType": "uint256",
          "name": "_profit",
          "type": "uint256"
        },
        {
          "internalType": "uint256",
          "name": "_loss",
          "type": "uint256"
        },
        {
          "internalType": "uint256",
          "name": "_debtPayment",
          "type": "uint256"
        }
      ],
      "stateMutability": "nonpayable",
      "type": "function"
    },
    {
      "inputs": [],
      "name": "pricePerContract",
      "outputs": [
        {
          "internalType": "uint256",
          "name": "",
          "type": "uint256"
        }
      ],
      "stateMutability": "view",
      "type": "function"
    },
    {
      "inputs": [],
      "name": "profit",
      "outputs": [
        {
          "internalType": "uint256",
          "name": "",
          "type": "uint256"
        }
      ],
      "stateMutability": "view",
      "type": "function"
    },
    {
      "inputs": [
        {
          "internalType": "uint256",
          "name": "amount",
          "type": "uint256"
        }
      ],
      "name": "pullRawFunds",
      "outputs": [],
      "stateMutability": "nonpayable",
      "type": "function"
    },
    {
      "inputs": [],
      "name": "queryPrice",
      "outputs": [
        {
          "internalType": "uint256",
          "name": "price",
          "type": "uint256"
        }
      ],
      "stateMutability": "view",
      "type": "function"
    },
    {
      "inputs": [],
      "name": "readyForWithdrawal",
      "outputs": [
        {
          "internalType": "bool",
          "name": "",
          "type": "bool"
        }
      ],
      "stateMutability": "view",
      "type": "function"
    },
    {
      "inputs": [
        {
          "internalType": "uint256",
          "name": "amount",
          "type": "uint256"
        }
      ],
      "name": "redeemUnderlying",
      "outputs": [
        {
          "internalType": "bool",
          "name": "",
          "type": "bool"
        }
      ],
      "stateMutability": "nonpayable",
      "type": "function"
    },
    {
      "inputs": [],
      "name": "returnCollateral",
      "outputs": [],
      "stateMutability": "nonpayable",
      "type": "function"
    },
    {
      "inputs": [
        {
          "internalType": "address",
          "name": "_oracle",
          "type": "address"
        }
      ],
      "name": "setOracle",
      "outputs": [],
      "stateMutability": "nonpayable",
      "type": "function"
    },
    {
      "inputs": [
        {
          "internalType": "address",
          "name": "_Utilizer",
          "type": "address"
        }
      ],
      "name": "setUtilizer",
      "outputs": [],
      "stateMutability": "nonpayable",
      "type": "function"
    },
    {
      "inputs": [
        {
          "internalType": "address",
          "name": "newVault",
          "type": "address"
        }
      ],
      "name": "setVault",
      "outputs": [],
      "stateMutability": "nonpayable",
      "type": "function"
    },
    {
      "inputs": [],
      "name": "shortCollateral",
      "outputs": [
        {
          "internalType": "uint256",
          "name": "",
          "type": "uint256"
        }
      ],
      "stateMutability": "view",
      "type": "function"
    },
    {
      "inputs": [],
      "name": "store_internal_balance",
      "outputs": [],
      "stateMutability": "nonpayable",
      "type": "function"
    },
    {
      "inputs": [],
      "name": "strikePrice",
      "outputs": [
        {
          "internalType": "uint256",
          "name": "",
          "type": "uint256"
        }
      ],
      "stateMutability": "view",
      "type": "function"
    },
    {
      "inputs": [],
      "name": "testqueriedPrice",
      "outputs": [
        {
          "internalType": "uint256",
          "name": "",
          "type": "uint256"
        }
      ],
      "stateMutability": "view",
      "type": "function"
    },
    {
      "inputs": [],
      "name": "timeThreshold",
      "outputs": [
        {
          "internalType": "uint256",
          "name": "",
          "type": "uint256"
        }
      ],
      "stateMutability": "view",
      "type": "function"
    },
    {
      "inputs": [],
      "name": "tradeTime",
      "outputs": [
        {
          "internalType": "uint256",
          "name": "",
          "type": "uint256"
        }
      ],
      "stateMutability": "view",
      "type": "function"
    },
    {
      "inputs": [],
      "name": "underlying",
      "outputs": [
        {
          "internalType": "contract ERC20",
          "name": "",
          "type": "address"
        }
      ],
      "stateMutability": "view",
      "type": "function"
    },
    {
      "inputs": [],
      "name": "utilizer",
      "outputs": [
        {
          "internalType": "address",
          "name": "",
          "type": "address"
        }
      ],
      "stateMutability": "view",
      "type": "function"
    },
    {
      "inputs": [
        {
          "internalType": "uint256",
          "name": "",
          "type": "uint256"
        }
      ],
      "name": "validators",
      "outputs": [
        {
          "internalType": "address",
          "name": "",
          "type": "address"
        }
      ],
      "stateMutability": "view",
      "type": "function"
    },
    {
      "inputs": [],
      "name": "vault",
      "outputs": [
        {
          "internalType": "contract Vault",
          "name": "",
          "type": "address"
        }
      ],
      "stateMutability": "view",
      "type": "function"
    }
  ],
  "bytecode": {
    "object": "0x610180604052670de0b6b3a7640000600a553480156200001e57600080fd5b5060405162001aca38038062001aca833981016040819052620000419162000286565b600180546001600160a01b0319166001600160a01b038b16908117909155604080516362eb326360e11b815290518b928b92909163c5d664c6916004808201926020929091908290030181865afa158015620000a1573d6000803e3d6000fd5b505050506040513d601f19601f82011682018060405250810190620000c7919062000316565b600080546001600160a01b0319166001600160a01b0392831690811790915560405163095ea7b360e01b8152918416600483015260001960248301529063095ea7b3906044016020604051808303816000875af11580156200012d573d6000803e3d6000fd5b505050506040513d601f19601f820116820180604052508101906200015391906200033d565b50600480546001600160a01b0319166001600160a01b0392909216919091179055506200018d85876200022d602090811b620011d917901c565b8414620001d45760405162461bcd60e51b8152602060048201526011602482015270696e636f72726563742073657474696e6760781b604482015260640160405180910390fd5b6001600160a01b0380891660805260a088905260c087905260e086905261010085905283166101205262000209814262000361565b6101605262000219824262000361565b610140525062000383975050505050505050565b6000620002448383670de0b6b3a76400006200024d565b90505b92915050565b8282028115158415858304851417166200026657600080fd5b0492915050565b6001600160a01b03811681146200028357600080fd5b50565b60008060008060008060008060006101208a8c031215620002a657600080fd5b8951620002b3816200026d565b60208b0151909950620002c6816200026d565b8098505060408a0151965060608a0151955060808a0151945060a08a0151935060c08a0151620002f6816200026d565b8093505060e08a015191506101008a015190509295985092959850929598565b6000602082840312156200032957600080fd5b815162000336816200026d565b9392505050565b6000602082840312156200035057600080fd5b815180151581146200033657600080fd5b808201808211156200024757634e487b7160e01b600052601160045260246000fd5b60805160a05160c05160e051610100516101205161014051610160516116866200044460003960008181610314015281816104f001526107df0152600081816102ee015281816103ed015281816109a20152610f85015260006105170152600081816102c8015281816105f30152818161085c01528181610e5b0152610ffb0152600081816102a001526104c101526000818161027a01526105a50152600081816102570152818161054d015261057e015260006105cc01526116866000f3fe608060405234801561001057600080fd5b50600436106102325760003560e01c8063852a12e311610130578063c576ce01116100b8578063d832f7911161007c578063d832f79114610648578063e0186b8d1461065b578063efbb5cb01461040f578063f3aa68d314610664578063fbfa77cf1461066c57600080fd5b8063c576ce01146105a0578063c9ac4332146105c7578063cb29bb9a146105ee578063cdddd4e514610615578063d0e30db01461064057600080fd5b8063961be391116100ff578063961be39114610512578063a4e2d63414610539578063b0667cf81461054b578063bdf0f25314610571578063c52987cf1461057957600080fd5b8063852a12e3146104a9578063870dcaeb146104bc57806387479487146104e35780638eac2066146104eb57600080fd5b80634e8bfdaa116101be5780636817031b116101825780636817031b146104555780636f307dc3146104685780637adbf9731461047b5780637dc0d1d01461048e57806383e754a0146104a157600080fd5b80634e8bfdaa146103e857806350bb4beb1461040f578063537d94091461041657806357b259961461043957806366d16cc31461044c57600080fd5b80633af9e669116102055780633af9e6691461038e578063416288dd146103a157806344ed456f146103b557806349dcf4ed146103bd5780634e71d92d146103e057600080fd5b80631104aafd1461023757806329bb64c81461024e578063350896fe1461035057806335aa2e441461037b575b600080fd5b6002545b6040519081526020015b60405180910390f35b600754604080517f000000000000000000000000000000000000000000000000000000000000000081527f000000000000000000000000000000000000000000000000000000000000000060208201527f0000000000000000000000000000000000000000000000000000000000000000918101919091527f000000000000000000000000000000000000000000000000000000000000000060608201527f000000000000000000000000000000000000000000000000000000000000000060808201527f000000000000000000000000000000000000000000000000000000000000000060a08201526001600160a01b0390911660c082015260e001610245565b600454610363906001600160a01b031681565b6040516001600160a01b039091168152602001610245565b6103636103893660046114a2565b61067f565b61023b61039c3660046114d0565b6106a9565b6103b36103af3660046114ed565b5050565b005b6103b36107aa565b6103c56108db565b60408051938452602084019290925290820152606001610245565b6103b3610975565b61023b7f000000000000000000000000000000000000000000000000000000000000000081565b600061023b565b6104296104243660046114a2565b610b01565b6040519015158152602001610245565b6103b36104473660046114d0565b610b48565b61023b60085481565b6103b36104633660046114d0565b610c5c565b600054610363906001600160a01b031681565b6103b36104893660046114d0565b610d5d565b600754610363906001600160a01b031681565b610429610e42565b6104296104b73660046114a2565b610ed6565b61023b7f000000000000000000000000000000000000000000000000000000000000000081565b61023b600a81565b61023b7f000000000000000000000000000000000000000000000000000000000000000081565b6103637f000000000000000000000000000000000000000000000000000000000000000081565b600154600160a01b900460ff16610429565b7f000000000000000000000000000000000000000000000000000000000000000061023b565b610429610f7c565b61023b7f000000000000000000000000000000000000000000000000000000000000000081565b61023b7f000000000000000000000000000000000000000000000000000000000000000081565b6103637f000000000000000000000000000000000000000000000000000000000000000081565b61023b7f000000000000000000000000000000000000000000000000000000000000000081565b61062b6106233660046114a2565b600080915091565b60408051928352602083019190915201610245565b6103b3610fca565b6103b36106563660046114a2565b61101f565b61023b600a5481565b6103b36110b5565b600154610363906001600160a01b031681565b6005818154811061068f57600080fd5b6000918252602090912001546001600160a01b0316905081565b6000306001600160a01b0383160361073c576003546000546040516370a0823160e01b81526001600160a01b038581166004830152909116906370a0823190602401602060405180830381865afa158015610708573d6000803e3d6000fd5b505050506040513d601f19601f8201168201806040525081019061072c919061150f565b610736919061153e565b92915050565b6000546040516370a0823160e01b81526001600160a01b038481166004830152909116906370a0823190602401602060405180830381865afa158015610786573d6000803e3d6000fd5b505050506040513d601f19601f82011682018060405250810190610736919061150f565b6004546001600160a01b031633146107dd5760405162461bcd60e51b81526004016107d490611551565b60405180910390fd5b7f00000000000000000000000000000000000000000000000000000000000000004211156108445760405162461bcd60e51b81526020600482015260146024820152731c995919595b481dda5b991bddc81c185cdcd95960621b60448201526064016107d4565b60005460405163a9059cbb60e01b81523360048201527f000000000000000000000000000000000000000000000000000000000000000060248201526001600160a01b039091169063a9059cbb906044016020604051808303816000875af11580156108b4573d6000803e3d6000fd5b505050506040513d601f19601f820116820180604052508101906108d89190611574565b50565b600154600090819081906001600160a01b0316331461090c5760405162461bcd60e51b81526004016107d490611596565b610914610f7c565b6109585760405162461bcd60e51b81526020600482015260156024820152746e6f7420726561647920746f20776974686472617760581b60448201526064016107d4565b6109706001805460ff60a01b1916600160a01b179055565b909192565b6004546001600160a01b0316331461099f5760405162461bcd60e51b81526004016107d490611551565b427f0000000000000000000000000000000000000000000000000000000000000000106109fc5760405162461bcd60e51b815260206004820152600b60248201526a1b9bdd081b585d1d5c995960aa1b60448201526064016107d4565b610a046111f5565b60085415610aff5760005460085460405163a9059cbb60e01b815233600482015260248101919091526001600160a01b039091169063a9059cbb906044016020604051808303816000875af1158015610a61573d6000803e3d6000fd5b505050506040513d601f19601f82011682018060405250810190610a859190611574565b50600060088190556009805460ff191660019081179091555460405163109d3ea960e11b815230600482015260248101929092526001600160a01b03169063213a7d5290604401600060405180830381600087803b158015610ae657600080fd5b505af1158015610afa573d6000803e3d6000fd5b505050505b565b6000610b36604051806040016040528060088152602001671a5cdb1a5c5d5a5960c21b815250610b30306106a9565b84611241565b81610b40306106a9565b101592915050565b600160009054906101000a90046001600160a01b03166001600160a01b0316638da5cb5b6040518163ffffffff1660e01b8152600401602060405180830381865afa158015610b9b573d6000803e3d6000fd5b505050506040513d601f19601f82011682018060405250810190610bbf91906115c4565b6001600160a01b0316336001600160a01b03161480610bed57503360009081526006602052604090205460ff165b610c275760405162461bcd60e51b815260206004820152600b60248201526a08585d5d1a1bdc9a5e995960aa1b60448201526064016107d4565b6001600160a01b038116610c3a57600080fd5b600480546001600160a01b0319166001600160a01b0392909216919091179055565b600160009054906101000a90046001600160a01b03166001600160a01b0316638da5cb5b6040518163ffffffff1660e01b8152600401602060405180830381865afa158015610caf573d6000803e3d6000fd5b505050506040513d601f19601f82011682018060405250810190610cd391906115c4565b6001600160a01b0316336001600160a01b03161480610d0157503360009081526006602052604090205460ff165b610d3b5760405162461bcd60e51b815260206004820152600b60248201526a08585d5d1a1bdc9a5e995960aa1b60448201526064016107d4565b600180546001600160a01b0319166001600160a01b0392909216919091179055565b600160009054906101000a90046001600160a01b03166001600160a01b0316638da5cb5b6040518163ffffffff1660e01b8152600401602060405180830381865afa158015610db0573d6000803e3d6000fd5b505050506040513d601f19601f82011682018060405250810190610dd491906115c4565b6001600160a01b0316336001600160a01b031614610e205760405162461bcd60e51b81526020600482015260096024820152683737ba1037bbb732b960b91b60448201526064016107d4565b600780546001600160a01b0319166001600160a01b0392909216919091179055565b600080546040516370a0823160e01b81523060048201527f0000000000000000000000000000000000000000000000000000000000000000916001600160a01b0316906370a0823190602401602060405180830381865afa158015610eab573d6000803e3d6000fd5b505050506040513d601f19601f82011682018060405250810190610ecf919061150f565b1015905090565b6001546000906001600160a01b03163314610f035760405162461bcd60e51b81526004016107d490611596565b60005460015460405163a9059cbb60e01b81526001600160a01b0391821660048201526024810185905291169063a9059cbb906044016020604051808303816000875af1158015610f58573d6000803e3d6000fd5b505050506040513d601f19601f820116820180604052508101906107369190611574565b6000610fa9600a7f00000000000000000000000000000000000000000000000000000000000000006115e1565b4210158015610fb85750600854155b80610fc5575060095460ff165b905090565b6004546001600160a01b03163314610ff45760405162461bcd60e51b81526004016107d490611551565b610aff33307f000000000000000000000000000000000000000000000000000000000000000061128d565b6000546040516323b872dd60e01b8152336004820152306024820152604481018390526001600160a01b03909116906323b872dd906064016020604051808303816000875af1158015611076573d6000803e3d6000fd5b505050506040513d601f19601f8201168201806040525081019061109a9190611574565b5080600360008282546110ad91906115e1565b909155505050565b6001546001600160a01b031633146110df5760405162461bcd60e51b81526004016107d490611596565b6110e8306106a9565b60025560015460408051637e0b9fe360e11b815290516001600160a01b039092169163fc173fc6916004808201926020929091908290030181865afa158015611135573d6000803e3d6000fd5b505050506040513d601f19601f820116820180604052508101906111599190611574565b15610aff57600154600254604051634b674ead60e11b81526001600160a01b03909216916396ce9d5a916111939160040190815260200190565b602060405180830381865afa1580156111b0573d6000803e3d6000fd5b505050506040513d601f19601f820116820180604052508101906111d4919061150f565b600255565b60006111ee8383670de0b6b3a7640000611462565b9392505050565b6008541561123a5760405162461bcd60e51b81526020600482015260126024820152711c1c9bd99a5d08185b1c9958591e481cd95d60721b60448201526064016107d4565b6000600855565b611288838383604051602401611259939291906115f4565b60408051601f198184030181529190526020810180516001600160e01b031663969cdd0360e01b179052611481565b505050565b600154600160a01b900460ff16156112a457600080fd5b600160009054906101000a90046001600160a01b03166001600160a01b031663fc173fc66040518163ffffffff1660e01b8152600401602060405180830381865afa1580156112f7573d6000803e3d6000fd5b505050506040513d601f19601f8201168201806040525081019061131b9190611574565b156113905760015460405163098b6def60e11b8152600481018390526001600160a01b0390911690631316dbde90602401602060405180830381865afa158015611369573d6000803e3d6000fd5b505050506040513d601f19601f8201168201806040525081019061138d919061150f565b90505b6000546040516323b872dd60e01b81526001600160a01b038581166004830152848116602483015260448201849052909116906323b872dd906064016020604051808303816000875af11580156113eb573d6000803e3d6000fd5b505050506040513d601f19601f8201168201806040525081019061140f9190611574565b50816001600160a01b0316836001600160a01b03167fb694ac7b1acb87c2bd80288c8e244829d9291406c57928137d913bd13664c9dd8360405161145591815260200190565b60405180910390a3505050565b82820281151584158583048514171661147a57600080fd5b0492915050565b80516a636f6e736f6c652e6c6f67602083016000808483855afa5050505050565b6000602082840312156114b457600080fd5b5035919050565b6001600160a01b03811681146108d857600080fd5b6000602082840312156114e257600080fd5b81356111ee816114bb565b6000806040838503121561150057600080fd5b50508035926020909101359150565b60006020828403121561152157600080fd5b5051919050565b634e487b7160e01b600052601160045260246000fd5b8181038181111561073657610736611528565b60208082526009908201526810aaba34b634bd32b960b91b604082015260600190565b60006020828403121561158657600080fd5b815180151581146111ee57600080fd5b60208082526014908201527318d85b1b195c881b5d5cdd081899481d985d5b1d60621b604082015260600190565b6000602082840312156115d657600080fd5b81516111ee816114bb565b8082018082111561073657610736611528565b606081526000845180606084015260005b818110156116225760208188018101516080868401015201611605565b506000608082850101526080601f19601f83011684010191505083602083015282604083015294935050505056fea2646970667358221220c0dee837e863013d22c56fe9e3c6544ab25fbdd04dd926f2669690e332f6f75864736f6c63430008110033",
    "linkReferences": {}
  },
  "methodIdentifiers": {
    "Utilizer()": "350896fe",
    "balanceOfUnderlying(address)": "3af9e669",
    "cash()": "961be391",
    "claim()": "4e71d92d",
    "deposit()": "d0e30db0",
    "estimatedTotalAssets()": "efbb5cb0",
    "getMaturityBalance()": "1104aafd",
    "instrumentApprovalCondition()": "83e754a0",
    "instrumentStaticSnapshot()": "29bb64c8",
    "isLiquid(uint256)": "537d9409",
    "isLocked()": "a4e2d634",
    "liquidateAllPositions()": "50bb4beb",
    "liquidatePosition(uint256)": "cdddd4e5",
    "longCollateral()": "cb29bb9a",
    "maturityTime()": "4e8bfdaa",
    "onMarketApproval(uint256,uint256)": "416288dd",
    "oracle()": "7dc0d1d0",
    "prepareWithdraw()": "49dcf4ed",
    "pricePerContract()": "c576ce01",
    "profit()": "66d16cc3",
    "pullRawFunds(uint256)": "d832f791",
    "queryPrice()": "b0667cf8",
    "readyForWithdrawal()": "bdf0f253",
    "redeemUnderlying(uint256)": "852a12e3",
    "returnCollateral()": "44ed456f",
    "setOracle(address)": "7adbf973",
    "setUtilizer(address)": "57b25996",
    "setVault(address)": "6817031b",
    "shortCollateral()": "870dcaeb",
    "store_internal_balance()": "f3aa68d3",
    "strikePrice()": "c52987cf",
    "testqueriedPrice()": "e0186b8d",
    "timeThreshold()": "87479487",
    "tradeTime()": "8eac2066",
    "underlying()": "6f307dc3",
    "utilizer()": "c9ac4332",
    "validators(uint256)": "35aa2e44",
    "vault()": "fbfa77cf"
  },
  "id": 24
}