{
  "abi": [
    {
      "inputs": [
        {
          "internalType": "address",
          "name": "_vault",
          "type": "address"
        },
        {
          "internalType": "address",
          "name": "_utilizer",
          "type": "address"
        },
        {
          "internalType": "address",
          "name": "_underlyingAsset",
          "type": "address"
        },
        {
          "internalType": "uint256",
          "name": "_strikePrice",
          "type": "uint256"
        },
        {
          "internalType": "uint256",
          "name": "_pricePerContract",
          "type": "uint256"
        },
        {
          "internalType": "uint256",
          "name": "_shortCollateral",
          "type": "uint256"
        },
        {
          "internalType": "uint256",
          "name": "_longCollateral",
          "type": "uint256"
        },
        {
          "internalType": "address",
          "name": "_cash",
          "type": "address"
        },
        {
          "internalType": "address",
          "name": "_oracle",
          "type": "address"
        },
        {
          "internalType": "uint256",
          "name": "duration",
          "type": "uint256"
        },
        {
          "internalType": "uint256",
          "name": "_tradeTime",
          "type": "uint256"
        }
      ],
      "stateMutability": "nonpayable",
      "type": "constructor"
    },
    {
      "anonymous": false,
      "inputs": [
        {
          "indexed": true,
          "internalType": "address",
          "name": "to",
          "type": "address"
        },
        {
          "indexed": false,
          "internalType": "uint256",
          "name": "amount",
          "type": "uint256"
        }
      ],
      "name": "LiquidityTransfer",
      "type": "event"
    },
    {
      "anonymous": false,
      "inputs": [
        {
          "indexed": true,
          "internalType": "address",
          "name": "to",
          "type": "address"
        },
        {
          "indexed": false,
          "internalType": "uint256",
          "name": "amount",
          "type": "uint256"
        }
      ],
      "name": "LiquidityTransferFrom",
      "type": "event"
    },
    {
      "inputs": [],
      "name": "Utilizer",
      "outputs": [
        {
          "internalType": "address",
          "name": "",
          "type": "address"
        }
      ],
      "stateMutability": "view",
      "type": "function"
    },
    {
      "inputs": [
        {
          "internalType": "address",
          "name": "user",
          "type": "address"
        }
      ],
      "name": "balanceOfUnderlying",
      "outputs": [
        {
          "internalType": "uint256",
          "name": "",
          "type": "uint256"
        }
      ],
      "stateMutability": "view",
      "type": "function"
    },
    {
      "inputs": [],
      "name": "cash",
      "outputs": [
        {
          "internalType": "address",
          "name": "",
          "type": "address"
        }
      ],
      "stateMutability": "view",
      "type": "function"
    },
    {
      "inputs": [],
      "name": "claim",
      "outputs": [],
      "stateMutability": "nonpayable",
      "type": "function"
    },
    {
      "inputs": [],
      "name": "estimatedTotalAssets",
      "outputs": [
        {
          "internalType": "uint256",
          "name": "",
          "type": "uint256"
        }
      ],
      "stateMutability": "view",
      "type": "function"
    },
    {
      "inputs": [],
      "name": "getMaturityBalance",
      "outputs": [
        {
          "internalType": "uint256",
          "name": "",
          "type": "uint256"
        }
      ],
      "stateMutability": "view",
      "type": "function"
    },
    {
      "inputs": [],
      "name": "instrumentApprovalCondition",
      "outputs": [
        {
          "internalType": "bool",
          "name": "",
          "type": "bool"
        }
      ],
      "stateMutability": "view",
      "type": "function"
    },
    {
      "inputs": [
        {
          "internalType": "uint256",
          "name": "amount",
          "type": "uint256"
        }
      ],
      "name": "isLiquid",
      "outputs": [
        {
          "internalType": "bool",
          "name": "",
          "type": "bool"
        }
      ],
      "stateMutability": "view",
      "type": "function"
    },
    {
      "inputs": [],
      "name": "isLocked",
      "outputs": [
        {
          "internalType": "bool",
          "name": "",
          "type": "bool"
        }
      ],
      "stateMutability": "view",
      "type": "function"
    },
    {
      "inputs": [],
      "name": "liquidateAllPositions",
      "outputs": [
        {
          "internalType": "uint256",
          "name": "_amountFreed",
          "type": "uint256"
        }
      ],
      "stateMutability": "nonpayable",
      "type": "function"
    },
    {
      "inputs": [
        {
          "internalType": "uint256",
          "name": "_amountNeeded",
          "type": "uint256"
        }
      ],
      "name": "liquidatePosition",
      "outputs": [
        {
          "internalType": "uint256",
          "name": "_liquidatedAmount",
          "type": "uint256"
        },
        {
          "internalType": "uint256",
          "name": "_loss",
          "type": "uint256"
        }
      ],
      "stateMutability": "nonpayable",
      "type": "function"
    },
    {
      "inputs": [],
      "name": "longCollateral",
      "outputs": [
        {
          "internalType": "uint256",
          "name": "",
          "type": "uint256"
        }
      ],
      "stateMutability": "view",
      "type": "function"
    },
    {
      "inputs": [],
      "name": "maturityTime",
      "outputs": [
        {
          "internalType": "uint256",
          "name": "",
          "type": "uint256"
        }
      ],
      "stateMutability": "view",
      "type": "function"
    },
    {
      "inputs": [
        {
          "internalType": "uint256",
          "name": "principal",
          "type": "uint256"
        },
        {
          "internalType": "uint256",
          "name": "yield",
          "type": "uint256"
        }
      ],
      "name": "onMarketApproval",
      "outputs": [],
      "stateMutability": "nonpayable",
      "type": "function"
    },
    {
      "inputs": [],
      "name": "oracle",
      "outputs": [
        {
          "internalType": "address",
          "name": "",
          "type": "address"
        }
      ],
      "stateMutability": "view",
      "type": "function"
    },
    {
      "inputs": [],
      "name": "prepareWithdraw",
      "outputs": [
        {
          "internalType": "uint256",
          "name": "_profit",
          "type": "uint256"
        },
        {
          "internalType": "uint256",
          "name": "_loss",
          "type": "uint256"
        },
        {
          "internalType": "uint256",
          "name": "_debtPayment",
          "type": "uint256"
        }
      ],
      "stateMutability": "nonpayable",
      "type": "function"
    },
    {
      "inputs": [],
      "name": "pricePerContract",
      "outputs": [
        {
          "internalType": "uint256",
          "name": "",
          "type": "uint256"
        }
      ],
      "stateMutability": "view",
      "type": "function"
    },
    {
      "inputs": [],
      "name": "profit",
      "outputs": [
        {
          "internalType": "uint256",
          "name": "",
          "type": "uint256"
        }
      ],
      "stateMutability": "view",
      "type": "function"
    },
    {
      "inputs": [
        {
          "internalType": "uint256",
          "name": "amount",
          "type": "uint256"
        }
      ],
      "name": "pullRawFunds",
      "outputs": [],
      "stateMutability": "nonpayable",
      "type": "function"
    },
    {
      "inputs": [],
      "name": "queryPrice",
      "outputs": [
        {
          "internalType": "uint256",
          "name": "price",
          "type": "uint256"
        }
      ],
      "stateMutability": "view",
      "type": "function"
    },
    {
      "inputs": [],
      "name": "readyForWithdrawal",
      "outputs": [
        {
          "internalType": "bool",
          "name": "",
          "type": "bool"
        }
      ],
      "stateMutability": "view",
      "type": "function"
    },
    {
      "inputs": [
        {
          "internalType": "uint256",
          "name": "amount",
          "type": "uint256"
        }
      ],
      "name": "redeemUnderlying",
      "outputs": [
        {
          "internalType": "bool",
          "name": "",
          "type": "bool"
        }
      ],
      "stateMutability": "nonpayable",
      "type": "function"
    },
    {
      "inputs": [],
      "name": "setOracle",
      "outputs": [],
      "stateMutability": "nonpayable",
      "type": "function"
    },
    {
      "inputs": [
        {
          "internalType": "address",
          "name": "_Utilizer",
          "type": "address"
        }
      ],
      "name": "setUtilizer",
      "outputs": [],
      "stateMutability": "nonpayable",
      "type": "function"
    },
    {
      "inputs": [
        {
          "internalType": "address",
          "name": "newVault",
          "type": "address"
        }
      ],
      "name": "setVault",
      "outputs": [],
      "stateMutability": "nonpayable",
      "type": "function"
    },
    {
      "inputs": [],
      "name": "shortCollateral",
      "outputs": [
        {
          "internalType": "uint256",
          "name": "",
          "type": "uint256"
        }
      ],
      "stateMutability": "view",
      "type": "function"
    },
    {
      "inputs": [],
      "name": "store_internal_balance",
      "outputs": [],
      "stateMutability": "nonpayable",
      "type": "function"
    },
    {
      "inputs": [],
      "name": "strikePrice",
      "outputs": [
        {
          "internalType": "uint256",
          "name": "",
          "type": "uint256"
        }
      ],
      "stateMutability": "view",
      "type": "function"
    },
    {
      "inputs": [],
      "name": "testqueriedPrice",
      "outputs": [
        {
          "internalType": "uint256",
          "name": "",
          "type": "uint256"
        }
      ],
      "stateMutability": "view",
      "type": "function"
    },
    {
      "inputs": [],
      "name": "timeThreshold",
      "outputs": [
        {
          "internalType": "uint256",
          "name": "",
          "type": "uint256"
        }
      ],
      "stateMutability": "view",
      "type": "function"
    },
    {
      "inputs": [],
      "name": "tradeTime",
      "outputs": [
        {
          "internalType": "uint256",
          "name": "",
          "type": "uint256"
        }
      ],
      "stateMutability": "view",
      "type": "function"
    },
    {
      "inputs": [],
      "name": "underlying",
      "outputs": [
        {
          "internalType": "contract ERC20",
          "name": "",
          "type": "address"
        }
      ],
      "stateMutability": "view",
      "type": "function"
    },
    {
      "inputs": [],
      "name": "underlyingAsset",
      "outputs": [
        {
          "internalType": "address",
          "name": "",
          "type": "address"
        }
      ],
      "stateMutability": "view",
      "type": "function"
    },
    {
      "inputs": [],
      "name": "utilizer",
      "outputs": [
        {
          "internalType": "address",
          "name": "",
          "type": "address"
        }
      ],
      "stateMutability": "view",
      "type": "function"
    },
    {
      "inputs": [
        {
          "internalType": "uint256",
          "name": "",
          "type": "uint256"
        }
      ],
      "name": "validators",
      "outputs": [
        {
          "internalType": "address",
          "name": "",
          "type": "address"
        }
      ],
      "stateMutability": "view",
      "type": "function"
    },
    {
      "inputs": [],
      "name": "vault",
      "outputs": [
        {
          "internalType": "contract Vault",
          "name": "",
          "type": "address"
        }
      ],
      "stateMutability": "view",
      "type": "function"
    }
  ],
  "bytecode": {
    "object": "0x6101a0604052670de0b6b3a7640000600a553480156200001e57600080fd5b506040516200158e3803806200158e83398101604081905262000041916200029f565b600180546001600160a01b0319166001600160a01b038d16908117909155604080516362eb326360e11b815290518d928d92909163c5d664c6916004808201926020929091908290030181865afa158015620000a1573d6000803e3d6000fd5b505050506040513d601f19601f82011682018060405250810190620000c791906200035d565b600080546001600160a01b0319166001600160a01b0392831690811790915560405163095ea7b360e01b8152918416600483015260001960248301529063095ea7b3906044016020604051808303816000875af11580156200012d573d6000803e3d6000fd5b505050506040513d601f19601f8201168201806040525081019062000153919062000384565b50600480546001600160a01b0319166001600160a01b0392909216919091179055506200018d858862000246602090811b62000e7f17901c565b8614620001d45760405162461bcd60e51b8152602060048201526011602482015270696e636f72726563742073657474696e6760781b604482015260640160405180910390fd5b6001600160a01b038a8116608052600054811660a05260c089905260e088905261010087905261012086905284811661014052600780546001600160a01b031916918516919091179055610180819052620002308242620003a8565b6101605250620003ca9950505050505050505050565b60006200025d83670de0b6b3a76400008462000266565b90505b92915050565b8282028115158415858304851417166200027f57600080fd5b0492915050565b6001600160a01b03811681146200029c57600080fd5b50565b60008060008060008060008060008060006101608c8e031215620002c257600080fd5b8b51620002cf8162000286565b60208d0151909b50620002e28162000286565b60408d0151909a50620002f58162000286565b8099505060608c0151975060808c0151965060a08c0151955060c08c0151945060e08c0151620003258162000286565b6101008d0151909450620003398162000286565b809350506101208c015191506101408c015190509295989b509295989b9093969950565b6000602082840312156200037057600080fd5b81516200037d8162000286565b9392505050565b6000602082840312156200039757600080fd5b815180151581146200037d57600080fd5b808201808211156200026057634e487b7160e01b600052601160045260246000fd5b60805160a05160c05160e05161010051610120516101405161016051610180516111376200045760003960006103e40152600081816102cd015281816107820152610c800152600061040b0152600081816104e70152610b56015260006103b501526000610499015260008181610441015261047201526000610360015260006104c001526111376000f3fe608060405234801561001057600080fd5b506004361061021c5760003560e01c8063852a12e311610125578063c576ce01116100ad578063d832f7911161007c578063d832f79114610534578063e0186b8d14610547578063efbb5cb0146102ef578063f3aa68d314610550578063fbfa77cf1461055857600080fd5b8063c576ce0114610494578063c9ac4332146104bb578063cb29bb9a146104e2578063cdddd4e51461050957600080fd5b8063961be391116100f4578063961be39114610406578063a4e2d6341461042d578063b0667cf81461043f578063bdf0f25314610465578063c52987cf1461046d57600080fd5b8063852a12e31461039d578063870dcaeb146103b057806387479487146103d75780638eac2066146103df57600080fd5b8063537d9409116101a85780636817031b116101775780636817031b146103355780636f307dc3146103485780637158da7c1461035b5780637dc0d1d01461038257806383e754a01461039557600080fd5b8063537d9409146102f657806357b25996146103195780635b89c4891461029b57806366d16cc31461032c57600080fd5b8063416288dd116101ef578063416288dd1461028957806349dcf4ed1461029d5780634e71d92d146102c05780634e8bfdaa146102c857806350bb4beb146102ef57600080fd5b80631104aafd14610221578063350896fe1461023857806335aa2e44146102635780633af9e66914610276575b600080fd5b6002545b6040519081526020015b60405180910390f35b60045461024b906001600160a01b031681565b6040516001600160a01b03909116815260200161022f565b61024b610271366004610f76565b61056b565b610225610284366004610fa4565b610595565b61029b610297366004610fc1565b5050565b005b6102a5610696565b6040805193845260208401929092529082015260600161022f565b61029b610739565b6102257f000000000000000000000000000000000000000000000000000000000000000081565b6000610225565b610309610304366004610f76565b6108e1565b604051901515815260200161022f565b61029b610327366004610fa4565b610928565b61022560085481565b61029b610343366004610fa4565b610a3c565b60005461024b906001600160a01b031681565b61024b7f000000000000000000000000000000000000000000000000000000000000000081565b60075461024b906001600160a01b031681565b610309610b3d565b6103096103ab366004610f76565b610bd1565b6102257f000000000000000000000000000000000000000000000000000000000000000081565b610225600a81565b6102257f000000000000000000000000000000000000000000000000000000000000000081565b61024b7f000000000000000000000000000000000000000000000000000000000000000081565b600154600160a01b900460ff16610309565b7f0000000000000000000000000000000000000000000000000000000000000000610225565b610309610c77565b6102257f000000000000000000000000000000000000000000000000000000000000000081565b6102257f000000000000000000000000000000000000000000000000000000000000000081565b61024b7f000000000000000000000000000000000000000000000000000000000000000081565b6102257f000000000000000000000000000000000000000000000000000000000000000081565b61051f610517366004610f76565b600080915091565b6040805192835260208301919091520161022f565b61029b610542366004610f76565b610cc5565b610225600a5481565b61029b610d5b565b60015461024b906001600160a01b031681565b6005818154811061057b57600080fd5b6000918252602090912001546001600160a01b0316905081565b6000306001600160a01b03831603610628576003546000546040516370a0823160e01b81526001600160a01b038581166004830152909116906370a0823190602401602060405180830381865afa1580156105f4573d6000803e3d6000fd5b505050506040513d601f19601f820116820180604052508101906106189190610fe3565b6106229190611012565b92915050565b6000546040516370a0823160e01b81526001600160a01b038481166004830152909116906370a0823190602401602060405180830381865afa158015610672573d6000803e3d6000fd5b505050506040513d601f19601f820116820180604052508101906106229190610fe3565b600154600090819081906001600160a01b031633146106d05760405162461bcd60e51b81526004016106c790611025565b60405180910390fd5b6106d8610c77565b61071c5760405162461bcd60e51b81526020600482015260156024820152746e6f7420726561647920746f20776974686472617760581b60448201526064016106c7565b6107346001805460ff60a01b1916600160a01b179055565b909192565b6004546001600160a01b0316331461077f5760405162461bcd60e51b815260206004820152600960248201526810aaba34b634bd32b960b91b60448201526064016106c7565b427f0000000000000000000000000000000000000000000000000000000000000000106107dc5760405162461bcd60e51b815260206004820152600b60248201526a1b9bdd081b585d1d5c995960aa1b60448201526064016106c7565b6107e4610e9b565b600854156108df5760005460085460405163a9059cbb60e01b815233600482015260248101919091526001600160a01b039091169063a9059cbb906044016020604051808303816000875af1158015610841573d6000803e3d6000fd5b505050506040513d601f19601f820116820180604052508101906108659190611053565b50600060088190556009805460ff191660019081179091555460405163109d3ea960e11b815230600482015260248101929092526001600160a01b03169063213a7d5290604401600060405180830381600087803b1580156108c657600080fd5b505af11580156108da573d6000803e3d6000fd5b505050505b565b6000610916604051806040016040528060088152602001671a5cdb1a5c5d5a5960c21b81525061091030610595565b84610eea565b8161092030610595565b101592915050565b600160009054906101000a90046001600160a01b03166001600160a01b0316638da5cb5b6040518163ffffffff1660e01b8152600401602060405180830381865afa15801561097b573d6000803e3d6000fd5b505050506040513d601f19601f8201168201806040525081019061099f9190611075565b6001600160a01b0316336001600160a01b031614806109cd57503360009081526006602052604090205460ff165b610a075760405162461bcd60e51b815260206004820152600b60248201526a08585d5d1a1bdc9a5e995960aa1b60448201526064016106c7565b6001600160a01b038116610a1a57600080fd5b600480546001600160a01b0319166001600160a01b0392909216919091179055565b600160009054906101000a90046001600160a01b03166001600160a01b0316638da5cb5b6040518163ffffffff1660e01b8152600401602060405180830381865afa158015610a8f573d6000803e3d6000fd5b505050506040513d601f19601f82011682018060405250810190610ab39190611075565b6001600160a01b0316336001600160a01b03161480610ae157503360009081526006602052604090205460ff165b610b1b5760405162461bcd60e51b815260206004820152600b60248201526a08585d5d1a1bdc9a5e995960aa1b60448201526064016106c7565b600180546001600160a01b0319166001600160a01b0392909216919091179055565b600080546040516370a0823160e01b81523060048201527f0000000000000000000000000000000000000000000000000000000000000000916001600160a01b0316906370a0823190602401602060405180830381865afa158015610ba6573d6000803e3d6000fd5b505050506040513d601f19601f82011682018060405250810190610bca9190610fe3565b1015905090565b6001546000906001600160a01b03163314610bfe5760405162461bcd60e51b81526004016106c790611025565b60005460015460405163a9059cbb60e01b81526001600160a01b0391821660048201526024810185905291169063a9059cbb906044016020604051808303816000875af1158015610c53573d6000803e3d6000fd5b505050506040513d601f19601f820116820180604052508101906106229190611053565b6000610ca4600a7f0000000000000000000000000000000000000000000000000000000000000000611092565b4210158015610cb35750600854155b80610cc0575060095460ff165b905090565b6000546040516323b872dd60e01b8152336004820152306024820152604481018390526001600160a01b03909116906323b872dd906064016020604051808303816000875af1158015610d1c573d6000803e3d6000fd5b505050506040513d601f19601f82011682018060405250810190610d409190611053565b508060036000828254610d539190611092565b909155505050565b6001546001600160a01b03163314610d855760405162461bcd60e51b81526004016106c790611025565b610d8e30610595565b60025560015460408051637e0b9fe360e11b815290516001600160a01b039092169163fc173fc6916004808201926020929091908290030181865afa158015610ddb573d6000803e3d6000fd5b505050506040513d601f19601f82011682018060405250810190610dff9190611053565b156108df57600154600254604051634b674ead60e11b81526001600160a01b03909216916396ce9d5a91610e399160040190815260200190565b602060405180830381865afa158015610e56573d6000803e3d6000fd5b505050506040513d601f19601f82011682018060405250810190610e7a9190610fe3565b600255565b6000610e9483670de0b6b3a764000084610f36565b9392505050565b60085415610ee05760405162461bcd60e51b81526020600482015260126024820152711c1c9bd99a5d08185b1c9958591e481cd95d60721b60448201526064016106c7565b6000600855565b50565b610f31838383604051602401610f02939291906110a5565b60408051601f198184030181529190526020810180516001600160e01b031663969cdd0360e01b179052610f55565b505050565b828202811515841585830485141716610f4e57600080fd5b0492915050565b80516a636f6e736f6c652e6c6f67602083016000808483855afa5050505050565b600060208284031215610f8857600080fd5b5035919050565b6001600160a01b0381168114610ee757600080fd5b600060208284031215610fb657600080fd5b8135610e9481610f8f565b60008060408385031215610fd457600080fd5b50508035926020909101359150565b600060208284031215610ff557600080fd5b5051919050565b634e487b7160e01b600052601160045260246000fd5b8181038181111561062257610622610ffc565b60208082526014908201527318d85b1b195c881b5d5cdd081899481d985d5b1d60621b604082015260600190565b60006020828403121561106557600080fd5b81518015158114610e9457600080fd5b60006020828403121561108757600080fd5b8151610e9481610f8f565b8082018082111561062257610622610ffc565b606081526000845180606084015260005b818110156110d357602081880181015160808684010152016110b6565b506000608082850101526080601f19601f83011684010191505083602083015282604083015294935050505056fea264697066735822122006795eb2eeafa4548893f3610198bae7f49aa84d52eb3f773283ddd9ca2d90ae64736f6c63430008110033",
    "linkReferences": {}
  },
  "methodIdentifiers": {
    "Utilizer()": "350896fe",
    "balanceOfUnderlying(address)": "3af9e669",
    "cash()": "961be391",
    "claim()": "4e71d92d",
    "estimatedTotalAssets()": "efbb5cb0",
    "getMaturityBalance()": "1104aafd",
    "instrumentApprovalCondition()": "83e754a0",
    "isLiquid(uint256)": "537d9409",
    "isLocked()": "a4e2d634",
    "liquidateAllPositions()": "50bb4beb",
    "liquidatePosition(uint256)": "cdddd4e5",
    "longCollateral()": "cb29bb9a",
    "maturityTime()": "4e8bfdaa",
    "onMarketApproval(uint256,uint256)": "416288dd",
    "oracle()": "7dc0d1d0",
    "prepareWithdraw()": "49dcf4ed",
    "pricePerContract()": "c576ce01",
    "profit()": "66d16cc3",
    "pullRawFunds(uint256)": "d832f791",
    "queryPrice()": "b0667cf8",
    "readyForWithdrawal()": "bdf0f253",
    "redeemUnderlying(uint256)": "852a12e3",
    "setOracle()": "5b89c489",
    "setUtilizer(address)": "57b25996",
    "setVault(address)": "6817031b",
    "shortCollateral()": "870dcaeb",
    "store_internal_balance()": "f3aa68d3",
    "strikePrice()": "c52987cf",
    "testqueriedPrice()": "e0186b8d",
    "timeThreshold()": "87479487",
    "tradeTime()": "8eac2066",
    "underlying()": "6f307dc3",
    "underlyingAsset()": "7158da7c",
    "utilizer()": "c9ac4332",
    "validators(uint256)": "35aa2e44",
    "vault()": "fbfa77cf"
  },
  "id": 24
}