{
  "abi": [
    {
      "inputs": [
        {
          "internalType": "address",
          "name": "_vault",
          "type": "address"
        },
        {
          "internalType": "address",
          "name": "_utilizer",
          "type": "address"
        },
        {
          "internalType": "uint256",
          "name": "_strikePrice",
          "type": "uint256"
        },
        {
          "internalType": "uint256",
          "name": "_pricePerContract",
          "type": "uint256"
        },
        {
          "internalType": "uint256",
          "name": "_shortCollateral",
          "type": "uint256"
        },
        {
          "internalType": "uint256",
          "name": "_longCollateral",
          "type": "uint256"
        },
        {
          "internalType": "address",
          "name": "_cash",
          "type": "address"
        },
        {
          "internalType": "uint256",
          "name": "duration",
          "type": "uint256"
        },
        {
          "internalType": "uint256",
          "name": "_tradeTime",
          "type": "uint256"
        }
      ],
      "stateMutability": "nonpayable",
      "type": "constructor"
    },
    {
      "anonymous": false,
      "inputs": [
        {
          "indexed": true,
          "internalType": "address",
          "name": "from",
          "type": "address"
        },
        {
          "indexed": true,
          "internalType": "address",
          "name": "to",
          "type": "address"
        },
        {
          "indexed": false,
          "internalType": "uint256",
          "name": "amount",
          "type": "uint256"
        }
      ],
      "name": "LiquidityTransfer",
      "type": "event"
    },
    {
      "inputs": [],
      "name": "Utilizer",
      "outputs": [
        {
          "internalType": "address",
          "name": "",
          "type": "address"
        }
      ],
      "stateMutability": "view",
      "type": "function"
    },
    {
      "inputs": [
        {
          "internalType": "address",
          "name": "user",
          "type": "address"
        }
      ],
      "name": "balanceOfUnderlying",
      "outputs": [
        {
          "internalType": "uint256",
          "name": "",
          "type": "uint256"
        }
      ],
      "stateMutability": "view",
      "type": "function"
    },
    {
      "inputs": [],
      "name": "cash",
      "outputs": [
        {
          "internalType": "address",
          "name": "",
          "type": "address"
        }
      ],
      "stateMutability": "view",
      "type": "function"
    },
    {
      "inputs": [],
      "name": "claim",
      "outputs": [],
      "stateMutability": "nonpayable",
      "type": "function"
    },
    {
      "inputs": [],
      "name": "deposit",
      "outputs": [],
      "stateMutability": "nonpayable",
      "type": "function"
    },
    {
      "inputs": [],
      "name": "estimatedTotalAssets",
      "outputs": [
        {
          "internalType": "uint256",
          "name": "",
          "type": "uint256"
        }
      ],
      "stateMutability": "view",
      "type": "function"
    },
    {
      "inputs": [],
      "name": "getMaturityBalance",
      "outputs": [
        {
          "internalType": "uint256",
          "name": "",
          "type": "uint256"
        }
      ],
      "stateMutability": "view",
      "type": "function"
    },
    {
      "inputs": [],
      "name": "instrumentApprovalCondition",
      "outputs": [
        {
          "internalType": "bool",
          "name": "",
          "type": "bool"
        }
      ],
      "stateMutability": "view",
      "type": "function"
    },
    {
      "inputs": [],
      "name": "instrumentStaticSnapshot",
      "outputs": [
        {
          "internalType": "uint256",
          "name": "_strikePrice",
          "type": "uint256"
        },
        {
          "internalType": "uint256",
          "name": "_pricePerContract",
          "type": "uint256"
        },
        {
          "internalType": "uint256",
          "name": "_shortCollateral",
          "type": "uint256"
        },
        {
          "internalType": "uint256",
          "name": "_longCollateral",
          "type": "uint256"
        },
        {
          "internalType": "uint256",
          "name": "_maturityTime",
          "type": "uint256"
        },
        {
          "internalType": "uint256",
          "name": "_tradeTime",
          "type": "uint256"
        },
        {
          "internalType": "address",
          "name": "_oracle",
          "type": "address"
        }
      ],
      "stateMutability": "view",
      "type": "function"
    },
    {
      "inputs": [
        {
          "internalType": "uint256",
          "name": "amount",
          "type": "uint256"
        }
      ],
      "name": "isLiquid",
      "outputs": [
        {
          "internalType": "bool",
          "name": "",
          "type": "bool"
        }
      ],
      "stateMutability": "view",
      "type": "function"
    },
    {
      "inputs": [],
      "name": "isLocked",
      "outputs": [
        {
          "internalType": "bool",
          "name": "",
          "type": "bool"
        }
      ],
      "stateMutability": "view",
      "type": "function"
    },
    {
      "inputs": [],
      "name": "liquidateAllPositions",
      "outputs": [
        {
          "internalType": "uint256",
          "name": "_amountFreed",
          "type": "uint256"
        }
      ],
      "stateMutability": "nonpayable",
      "type": "function"
    },
    {
      "inputs": [
        {
          "internalType": "uint256",
          "name": "_amountNeeded",
          "type": "uint256"
        }
      ],
      "name": "liquidatePosition",
      "outputs": [
        {
          "internalType": "uint256",
          "name": "_liquidatedAmount",
          "type": "uint256"
        },
        {
          "internalType": "uint256",
          "name": "_loss",
          "type": "uint256"
        }
      ],
      "stateMutability": "nonpayable",
      "type": "function"
    },
    {
      "inputs": [],
      "name": "longCollateral",
      "outputs": [
        {
          "internalType": "uint256",
          "name": "",
          "type": "uint256"
        }
      ],
      "stateMutability": "view",
      "type": "function"
    },
    {
      "inputs": [],
      "name": "maturityTime",
      "outputs": [
        {
          "internalType": "uint256",
          "name": "",
          "type": "uint256"
        }
      ],
      "stateMutability": "view",
      "type": "function"
    },
    {
      "inputs": [
        {
          "internalType": "uint256",
          "name": "principal",
          "type": "uint256"
        },
        {
          "internalType": "uint256",
          "name": "yield",
          "type": "uint256"
        }
      ],
      "name": "onMarketApproval",
      "outputs": [],
      "stateMutability": "nonpayable",
      "type": "function"
    },
    {
      "inputs": [],
      "name": "oracle",
      "outputs": [
        {
          "internalType": "address",
          "name": "",
          "type": "address"
        }
      ],
      "stateMutability": "view",
      "type": "function"
    },
    {
      "inputs": [],
      "name": "prepareWithdraw",
      "outputs": [
        {
          "internalType": "uint256",
          "name": "_profit",
          "type": "uint256"
        },
        {
          "internalType": "uint256",
          "name": "_loss",
          "type": "uint256"
        },
        {
          "internalType": "uint256",
          "name": "_debtPayment",
          "type": "uint256"
        }
      ],
      "stateMutability": "nonpayable",
      "type": "function"
    },
    {
      "inputs": [],
      "name": "pricePerContract",
      "outputs": [
        {
          "internalType": "uint256",
          "name": "",
          "type": "uint256"
        }
      ],
      "stateMutability": "view",
      "type": "function"
    },
    {
      "inputs": [],
      "name": "profit",
      "outputs": [
        {
          "internalType": "uint256",
          "name": "",
          "type": "uint256"
        }
      ],
      "stateMutability": "view",
      "type": "function"
    },
    {
      "inputs": [
        {
          "internalType": "uint256",
          "name": "amount",
          "type": "uint256"
        }
      ],
      "name": "pullRawFunds",
      "outputs": [],
      "stateMutability": "nonpayable",
      "type": "function"
    },
    {
      "inputs": [],
      "name": "queryPrice",
      "outputs": [
        {
          "internalType": "uint256",
          "name": "price",
          "type": "uint256"
        }
      ],
      "stateMutability": "view",
      "type": "function"
    },
    {
      "inputs": [],
      "name": "readyForWithdrawal",
      "outputs": [
        {
          "internalType": "bool",
          "name": "",
          "type": "bool"
        }
      ],
      "stateMutability": "view",
      "type": "function"
    },
    {
      "inputs": [
        {
          "internalType": "uint256",
          "name": "amount",
          "type": "uint256"
        }
      ],
      "name": "redeemUnderlying",
      "outputs": [
        {
          "internalType": "bool",
          "name": "",
          "type": "bool"
        }
      ],
      "stateMutability": "nonpayable",
      "type": "function"
    },
    {
      "inputs": [],
      "name": "returnCollateral",
      "outputs": [],
      "stateMutability": "nonpayable",
      "type": "function"
    },
    {
      "inputs": [
        {
          "internalType": "address",
          "name": "_oracle",
          "type": "address"
        }
      ],
      "name": "setOracle",
      "outputs": [],
      "stateMutability": "nonpayable",
      "type": "function"
    },
    {
      "inputs": [
        {
          "internalType": "address",
          "name": "_Utilizer",
          "type": "address"
        }
      ],
      "name": "setUtilizer",
      "outputs": [],
      "stateMutability": "nonpayable",
      "type": "function"
    },
    {
      "inputs": [
        {
          "internalType": "address",
          "name": "newVault",
          "type": "address"
        }
      ],
      "name": "setVault",
      "outputs": [],
      "stateMutability": "nonpayable",
      "type": "function"
    },
    {
      "inputs": [],
      "name": "shortCollateral",
      "outputs": [
        {
          "internalType": "uint256",
          "name": "",
          "type": "uint256"
        }
      ],
      "stateMutability": "view",
      "type": "function"
    },
    {
      "inputs": [],
      "name": "store_internal_balance",
      "outputs": [],
      "stateMutability": "nonpayable",
      "type": "function"
    },
    {
      "inputs": [],
      "name": "strikePrice",
      "outputs": [
        {
          "internalType": "uint256",
          "name": "",
          "type": "uint256"
        }
      ],
      "stateMutability": "view",
      "type": "function"
    },
    {
      "inputs": [],
      "name": "testqueriedPrice",
      "outputs": [
        {
          "internalType": "uint256",
          "name": "",
          "type": "uint256"
        }
      ],
      "stateMutability": "view",
      "type": "function"
    },
    {
      "inputs": [],
      "name": "timeThreshold",
      "outputs": [
        {
          "internalType": "uint256",
          "name": "",
          "type": "uint256"
        }
      ],
      "stateMutability": "view",
      "type": "function"
    },
    {
      "inputs": [],
      "name": "tradeTime",
      "outputs": [
        {
          "internalType": "uint256",
          "name": "",
          "type": "uint256"
        }
      ],
      "stateMutability": "view",
      "type": "function"
    },
    {
      "inputs": [],
      "name": "underlying",
      "outputs": [
        {
          "internalType": "contract ERC20",
          "name": "",
          "type": "address"
        }
      ],
      "stateMutability": "view",
      "type": "function"
    },
    {
      "inputs": [],
      "name": "underlyingAsset",
      "outputs": [
        {
          "internalType": "address",
          "name": "",
          "type": "address"
        }
      ],
      "stateMutability": "view",
      "type": "function"
    },
    {
      "inputs": [],
      "name": "utilizer",
      "outputs": [
        {
          "internalType": "address",
          "name": "",
          "type": "address"
        }
      ],
      "stateMutability": "view",
      "type": "function"
    },
    {
      "inputs": [
        {
          "internalType": "uint256",
          "name": "",
          "type": "uint256"
        }
      ],
      "name": "validators",
      "outputs": [
        {
          "internalType": "address",
          "name": "",
          "type": "address"
        }
      ],
      "stateMutability": "view",
      "type": "function"
    },
    {
      "inputs": [],
      "name": "vault",
      "outputs": [
        {
          "internalType": "contract Vault",
          "name": "",
          "type": "address"
        }
      ],
      "stateMutability": "view",
      "type": "function"
    }
  ],
  "bytecode": {
    "object": "0x610180604052670de0b6b3a7640000600b553480156200001e57600080fd5b5060405162001b5c38038062001b5c8339810160408190526200004191620002a7565b600180546001600160a01b0319166001600160a01b038b16908117909155604080516362eb326360e11b815290518b928b92909163c5d664c6916004808201926020929091908290030181865afa158015620000a1573d6000803e3d6000fd5b505050506040513d601f19601f82011682018060405250810190620000c7919062000337565b600080546001600160a01b0319166001600160a01b0392831690811790915560405163095ea7b360e01b8152918416600483015260001960248301529063095ea7b3906044016020604051808303816000875af11580156200012d573d6000803e3d6000fd5b505050506040513d601f19601f820116820180604052508101906200015391906200035e565b50600480546001600160a01b0319166001600160a01b0392909216919091179055506200018d85876200024e602090811b6200118a17901c565b8414620001d45760405162461bcd60e51b8152602060048201526011602482015270696e636f72726563742073657474696e6760781b604482015260640160405180910390fd5b6001600160a01b038089166080526000541660a05260c087905260e08690526101008590526101208490526200020b814262000382565b610160526200021b824262000382565b610140525050600780546001600160a01b0319166001600160a01b039290921691909117905550620003a4945050505050565b6000620002658383670de0b6b3a76400006200026e565b90505b92915050565b8282028115158415858304851417166200028757600080fd5b0492915050565b6001600160a01b0381168114620002a457600080fd5b50565b60008060008060008060008060006101208a8c031215620002c757600080fd5b8951620002d4816200028e565b60208b0151909950620002e7816200028e565b8098505060408a0151965060608a0151955060808a0151945060a08a0151935060c08a015162000317816200028e565b8093505060e08a015191506101008a015190509295985092959850929598565b6000602082840312156200034a57600080fd5b815162000357816200028e565b9392505050565b6000602082840312156200037157600080fd5b815180151581146200035757600080fd5b808201808211156200026857634e487b7160e01b600052601160045260246000fd5b60805160a05160c05160e051610100516101205161014051610160516116f7620004656000396000818161031f0152818161052201526107fd0152600081816102f9015281816103f8015281816109550152610f370152600081816102d3015281816106110152818161086801528181610e0d0152610fac0152600081816102ab01526104f301526000818161028501526105c30152600081816102620152818161056b015261059c0152600061048b015260006105ea01526116f76000f3fe608060405234801561001057600080fd5b506004361061023d5760003560e01c806383e754a01161013b578063c576ce01116100b8578063d832f7911161007c578063d832f79114610666578063e0186b8d14610679578063efbb5cb01461041a578063f3aa68d314610682578063fbfa77cf1461068a57600080fd5b8063c576ce01146105be578063c9ac4332146105e5578063cb29bb9a1461060c578063cdddd4e514610633578063d0e30db01461065e57600080fd5b8063961be391116100ff578063961be39114610544578063a4e2d63414610557578063b0667cf814610569578063bdf0f2531461058f578063c52987cf1461059757600080fd5b806383e754a0146104d3578063852a12e3146104db578063870dcaeb146104ee57806387479487146105155780638eac20661461051d57600080fd5b80634e8bfdaa116101c95780636817031b1161018d5780636817031b146104605780636f307dc3146104735780637158da7c146104865780637adbf973146104ad5780637dc0d1d0146104c057600080fd5b80634e8bfdaa146103f357806350bb4beb1461041a578063537d94091461042157806357b259961461044457806366d16cc31461045757600080fd5b80633af9e669116102105780633af9e66914610399578063416288dd146103ac57806344ed456f146103c057806349dcf4ed146103c85780634e71d92d146103eb57600080fd5b80631104aafd1461024257806329bb64c814610259578063350896fe1461035b57806335aa2e4414610386575b600080fd5b6002545b6040519081526020015b60405180910390f35b600854604080517f000000000000000000000000000000000000000000000000000000000000000081527f000000000000000000000000000000000000000000000000000000000000000060208201527f0000000000000000000000000000000000000000000000000000000000000000918101919091527f000000000000000000000000000000000000000000000000000000000000000060608201527f000000000000000000000000000000000000000000000000000000000000000060808201527f000000000000000000000000000000000000000000000000000000000000000060a08201526001600160a01b0390911660c082015260e001610250565b60045461036e906001600160a01b031681565b6040516001600160a01b039091168152602001610250565b61036e610394366004611513565b61069d565b6102466103a7366004611541565b6106c7565b6103be6103ba36600461155e565b5050565b005b6103be6107c8565b6103d061088e565b60408051938452602084019290925290820152606001610250565b6103be610928565b6102467f000000000000000000000000000000000000000000000000000000000000000081565b6000610246565b61043461042f366004611513565b610ab3565b6040519015158152602001610250565b6103be610452366004611541565b610afa565b61024660095481565b6103be61046e366004611541565b610c0e565b60005461036e906001600160a01b031681565b61036e7f000000000000000000000000000000000000000000000000000000000000000081565b6103be6104bb366004611541565b610d0f565b60085461036e906001600160a01b031681565b610434610df4565b6104346104e9366004611513565b610e88565b6102467f000000000000000000000000000000000000000000000000000000000000000081565b610246600a81565b6102467f000000000000000000000000000000000000000000000000000000000000000081565b60075461036e906001600160a01b031681565b600154600160a01b900460ff16610434565b7f0000000000000000000000000000000000000000000000000000000000000000610246565b610434610f2e565b6102467f000000000000000000000000000000000000000000000000000000000000000081565b6102467f000000000000000000000000000000000000000000000000000000000000000081565b61036e7f000000000000000000000000000000000000000000000000000000000000000081565b6102467f000000000000000000000000000000000000000000000000000000000000000081565b610649610641366004611513565b600080915091565b60408051928352602083019190915201610250565b6103be610f7c565b6103be610674366004611513565b610fd0565b610246600b5481565b6103be611066565b60015461036e906001600160a01b031681565b600581815481106106ad57600080fd5b6000918252602090912001546001600160a01b0316905081565b6000306001600160a01b0383160361075a576003546000546040516370a0823160e01b81526001600160a01b038581166004830152909116906370a0823190602401602060405180830381865afa158015610726573d6000803e3d6000fd5b505050506040513d601f19601f8201168201806040525081019061074a9190611580565b61075491906115af565b92915050565b6000546040516370a0823160e01b81526001600160a01b038481166004830152909116906370a0823190602401602060405180830381865afa1580156107a4573d6000803e3d6000fd5b505050506040513d601f19601f820116820180604052508101906107549190611580565b6004546001600160a01b031633146107fb5760405162461bcd60e51b81526004016107f2906115c2565b60405180910390fd5b7f00000000000000000000000000000000000000000000000000000000000000004211156108625760405162461bcd60e51b81526020600482015260146024820152731c995919595b481dda5b991bddc81c185cdcd95960621b60448201526064016107f2565b61088c337f00000000000000000000000000000000000000000000000000000000000000006111a6565b565b600154600090819081906001600160a01b031633146108bf5760405162461bcd60e51b81526004016107f2906115e5565b6108c7610f2e565b61090b5760405162461bcd60e51b81526020600482015260156024820152746e6f7420726561647920746f20776974686472617760581b60448201526064016107f2565b6109236001805460ff60a01b1916600160a01b179055565b909192565b6004546001600160a01b031633146109525760405162461bcd60e51b81526004016107f2906115c2565b427f0000000000000000000000000000000000000000000000000000000000000000106109af5760405162461bcd60e51b815260206004820152600b60248201526a1b9bdd081b585d1d5c995960aa1b60448201526064016107f2565b6109b7611366565b6009541561088c5760005460095460405163a9059cbb60e01b815233600482015260248101919091526001600160a01b039091169063a9059cbb906044016020604051808303816000875af1158015610a14573d6000803e3d6000fd5b505050506040513d601f19601f82011682018060405250810190610a389190611613565b5060006009819055600a805460ff191660019081179091555460405163109d3ea960e11b815230600482015260248101929092526001600160a01b03169063213a7d5290604401600060405180830381600087803b158015610a9957600080fd5b505af1158015610aad573d6000803e3d6000fd5b50505050565b6000610ae8604051806040016040528060088152602001671a5cdb1a5c5d5a5960c21b815250610ae2306106c7565b846113b5565b81610af2306106c7565b101592915050565b600160009054906101000a90046001600160a01b03166001600160a01b0316638da5cb5b6040518163ffffffff1660e01b8152600401602060405180830381865afa158015610b4d573d6000803e3d6000fd5b505050506040513d601f19601f82011682018060405250810190610b719190611635565b6001600160a01b0316336001600160a01b03161480610b9f57503360009081526006602052604090205460ff165b610bd95760405162461bcd60e51b815260206004820152600b60248201526a08585d5d1a1bdc9a5e995960aa1b60448201526064016107f2565b6001600160a01b038116610bec57600080fd5b600480546001600160a01b0319166001600160a01b0392909216919091179055565b600160009054906101000a90046001600160a01b03166001600160a01b0316638da5cb5b6040518163ffffffff1660e01b8152600401602060405180830381865afa158015610c61573d6000803e3d6000fd5b505050506040513d601f19601f82011682018060405250810190610c859190611635565b6001600160a01b0316336001600160a01b03161480610cb357503360009081526006602052604090205460ff165b610ced5760405162461bcd60e51b815260206004820152600b60248201526a08585d5d1a1bdc9a5e995960aa1b60448201526064016107f2565b600180546001600160a01b0319166001600160a01b0392909216919091179055565b600160009054906101000a90046001600160a01b03166001600160a01b0316638da5cb5b6040518163ffffffff1660e01b8152600401602060405180830381865afa158015610d62573d6000803e3d6000fd5b505050506040513d601f19601f82011682018060405250810190610d869190611635565b6001600160a01b0316336001600160a01b031614610dd25760405162461bcd60e51b81526020600482015260096024820152683737ba1037bbb732b960b91b60448201526064016107f2565b600880546001600160a01b0319166001600160a01b0392909216919091179055565b600080546040516370a0823160e01b81523060048201527f0000000000000000000000000000000000000000000000000000000000000000916001600160a01b0316906370a0823190602401602060405180830381865afa158015610e5d573d6000803e3d6000fd5b505050506040513d601f19601f82011682018060405250810190610e819190611580565b1015905090565b6001546000906001600160a01b03163314610eb55760405162461bcd60e51b81526004016107f2906115e5565b60005460015460405163a9059cbb60e01b81526001600160a01b0391821660048201526024810185905291169063a9059cbb906044016020604051808303816000875af1158015610f0a573d6000803e3d6000fd5b505050506040513d601f19601f820116820180604052508101906107549190611613565b6000610f5b600a7f0000000000000000000000000000000000000000000000000000000000000000611652565b4210158015610f6a5750600954155b80610f775750600a5460ff165b905090565b6004546001600160a01b03163314610fa65760405162461bcd60e51b81526004016107f2906115c2565b61088c337f0000000000000000000000000000000000000000000000000000000000000000611401565b6000546040516323b872dd60e01b8152336004820152306024820152604481018390526001600160a01b03909116906323b872dd906064016020604051808303816000875af1158015611027573d6000803e3d6000fd5b505050506040513d601f19601f8201168201806040525081019061104b9190611613565b50806003600082825461105e9190611652565b909155505050565b6001546001600160a01b031633146110905760405162461bcd60e51b81526004016107f2906115e5565b611099306106c7565b60025560015460408051637e0b9fe360e11b815290516001600160a01b039092169163fc173fc6916004808201926020929091908290030181865afa1580156110e6573d6000803e3d6000fd5b505050506040513d601f19601f8201168201806040525081019061110a9190611613565b1561088c57600154600254604051634b674ead60e11b81526001600160a01b03909216916396ce9d5a916111449160040190815260200190565b602060405180830381865afa158015611161573d6000803e3d6000fd5b505050506040513d601f19601f820116820180604052508101906111859190611580565b600255565b600061119f8383670de0b6b3a76400006114d3565b9392505050565b600154600160a01b900460ff16156111bd57600080fd5b600160009054906101000a90046001600160a01b03166001600160a01b031663fc173fc66040518163ffffffff1660e01b8152600401602060405180830381865afa158015611210573d6000803e3d6000fd5b505050506040513d601f19601f820116820180604052508101906112349190611613565b156112a95760015460405163098b6def60e11b8152600481018390526001600160a01b0390911690631316dbde90602401602060405180830381865afa158015611282573d6000803e3d6000fd5b505050506040513d601f19601f820116820180604052508101906112a69190611580565b90505b60005460405163a9059cbb60e01b81526001600160a01b038481166004830152602482018490529091169063a9059cbb906044016020604051808303816000875af11580156112fc573d6000803e3d6000fd5b505050506040513d601f19601f820116820180604052508101906113209190611613565b506040518181526001600160a01b0383169030907fb694ac7b1acb87c2bd80288c8e244829d9291406c57928137d913bd13664c9dd906020015b60405180910390a35050565b600954156113ab5760405162461bcd60e51b81526020600482015260126024820152711c1c9bd99a5d08185b1c9958591e481cd95d60721b60448201526064016107f2565b6000600955565b50565b6113fc8383836040516024016113cd93929190611665565b60408051601f198184030181529190526020810180516001600160e01b031663969cdd0360e01b1790526114f2565b505050565b600154600160a01b900460ff161561141857600080fd5b6000546040516323b872dd60e01b81526001600160a01b03848116600483015230602483015260448201849052909116906323b872dd906064016020604051808303816000875af1158015611471573d6000803e3d6000fd5b505050506040513d601f19601f820116820180604052508101906114959190611613565b5060405181815230906001600160a01b038416907fb694ac7b1acb87c2bd80288c8e244829d9291406c57928137d913bd13664c9dd9060200161135a565b8282028115158415858304851417166114eb57600080fd5b0492915050565b80516a636f6e736f6c652e6c6f67602083016000808483855afa5050505050565b60006020828403121561152557600080fd5b5035919050565b6001600160a01b03811681146113b257600080fd5b60006020828403121561155357600080fd5b813561119f8161152c565b6000806040838503121561157157600080fd5b50508035926020909101359150565b60006020828403121561159257600080fd5b5051919050565b634e487b7160e01b600052601160045260246000fd5b8181038181111561075457610754611599565b60208082526009908201526810aaba34b634bd32b960b91b604082015260600190565b60208082526014908201527318d85b1b195c881b5d5cdd081899481d985d5b1d60621b604082015260600190565b60006020828403121561162557600080fd5b8151801515811461119f57600080fd5b60006020828403121561164757600080fd5b815161119f8161152c565b8082018082111561075457610754611599565b606081526000845180606084015260005b818110156116935760208188018101516080868401015201611676565b506000608082850101526080601f19601f83011684010191505083602083015282604083015294935050505056fea2646970667358221220b4132f9213e116e98ad2c5d28fffa8e48d04f901c02ecf25a4c0fdb172cb3da364736f6c63430008110033",
    "linkReferences": {}
  },
  "methodIdentifiers": {
    "Utilizer()": "350896fe",
    "balanceOfUnderlying(address)": "3af9e669",
    "cash()": "961be391",
    "claim()": "4e71d92d",
    "deposit()": "d0e30db0",
    "estimatedTotalAssets()": "efbb5cb0",
    "getMaturityBalance()": "1104aafd",
    "instrumentApprovalCondition()": "83e754a0",
    "instrumentStaticSnapshot()": "29bb64c8",
    "isLiquid(uint256)": "537d9409",
    "isLocked()": "a4e2d634",
    "liquidateAllPositions()": "50bb4beb",
    "liquidatePosition(uint256)": "cdddd4e5",
    "longCollateral()": "cb29bb9a",
    "maturityTime()": "4e8bfdaa",
    "onMarketApproval(uint256,uint256)": "416288dd",
    "oracle()": "7dc0d1d0",
    "prepareWithdraw()": "49dcf4ed",
    "pricePerContract()": "c576ce01",
    "profit()": "66d16cc3",
    "pullRawFunds(uint256)": "d832f791",
    "queryPrice()": "b0667cf8",
    "readyForWithdrawal()": "bdf0f253",
    "redeemUnderlying(uint256)": "852a12e3",
    "returnCollateral()": "44ed456f",
    "setOracle(address)": "7adbf973",
    "setUtilizer(address)": "57b25996",
    "setVault(address)": "6817031b",
    "shortCollateral()": "870dcaeb",
    "store_internal_balance()": "f3aa68d3",
    "strikePrice()": "c52987cf",
    "testqueriedPrice()": "e0186b8d",
    "timeThreshold()": "87479487",
    "tradeTime()": "8eac2066",
    "underlying()": "6f307dc3",
    "underlyingAsset()": "7158da7c",
    "utilizer()": "c9ac4332",
    "validators(uint256)": "35aa2e44",
    "vault()": "fbfa77cf"
  },
  "id": 24
}