{
  "abi": [
    {
      "inputs": [
        {
          "internalType": "address",
          "name": "vault",
          "type": "address"
        },
        {
          "internalType": "address",
          "name": "_borrower",
          "type": "address"
        },
        {
          "internalType": "uint256",
          "name": "_principal",
          "type": "uint256"
        },
        {
          "internalType": "uint256",
          "name": "_notionalInterest",
          "type": "uint256"
        },
        {
          "internalType": "uint256",
          "name": "_duration",
          "type": "uint256"
        },
        {
          "internalType": "uint256",
          "name": "_faceValue",
          "type": "uint256"
        },
        {
          "internalType": "address",
          "name": "_collateral",
          "type": "address"
        },
        {
          "internalType": "address",
          "name": "_oracle",
          "type": "address"
        },
        {
          "internalType": "uint256",
          "name": "_collateral_balance",
          "type": "uint256"
        },
        {
          "internalType": "uint256",
          "name": "_collateral_type",
          "type": "uint256"
        }
      ],
      "stateMutability": "nonpayable",
      "type": "constructor"
    },
    {
      "anonymous": false,
      "inputs": [
        {
          "indexed": false,
          "internalType": "uint256",
          "name": "amount",
          "type": "uint256"
        }
      ],
      "name": "DepositCollateral",
      "type": "event"
    },
    {
      "anonymous": false,
      "inputs": [
        {
          "indexed": false,
          "internalType": "uint256",
          "name": "amount",
          "type": "uint256"
        }
      ],
      "name": "Drawdown",
      "type": "event"
    },
    {
      "anonymous": false,
      "inputs": [
        {
          "indexed": true,
          "internalType": "address",
          "name": "from",
          "type": "address"
        },
        {
          "indexed": true,
          "internalType": "address",
          "name": "to",
          "type": "address"
        },
        {
          "indexed": false,
          "internalType": "uint256",
          "name": "amount",
          "type": "uint256"
        }
      ],
      "name": "LiquidityTransfer",
      "type": "event"
    },
    {
      "anonymous": false,
      "inputs": [
        {
          "indexed": false,
          "internalType": "uint256",
          "name": "amount",
          "type": "uint256"
        }
      ],
      "name": "Repay",
      "type": "event"
    },
    {
      "inputs": [],
      "name": "Utilizer",
      "outputs": [
        {
          "internalType": "address",
          "name": "",
          "type": "address"
        }
      ],
      "stateMutability": "view",
      "type": "function"
    },
    {
      "inputs": [],
      "name": "accumulated_interest",
      "outputs": [
        {
          "internalType": "uint256",
          "name": "",
          "type": "uint256"
        }
      ],
      "stateMutability": "view",
      "type": "function"
    },
    {
      "inputs": [
        {
          "internalType": "uint256",
          "name": "supply",
          "type": "uint256"
        }
      ],
      "name": "assetOracle",
      "outputs": [
        {
          "internalType": "uint256",
          "name": "",
          "type": "uint256"
        }
      ],
      "stateMutability": "view",
      "type": "function"
    },
    {
      "inputs": [
        {
          "internalType": "address",
          "name": "user",
          "type": "address"
        }
      ],
      "name": "balanceOfUnderlying",
      "outputs": [
        {
          "internalType": "uint256",
          "name": "",
          "type": "uint256"
        }
      ],
      "stateMutability": "view",
      "type": "function"
    },
    {
      "inputs": [],
      "name": "beginGracePeriod",
      "outputs": [],
      "stateMutability": "nonpayable",
      "type": "function"
    },
    {
      "inputs": [],
      "name": "borrower",
      "outputs": [
        {
          "internalType": "address",
          "name": "",
          "type": "address"
        }
      ],
      "stateMutability": "view",
      "type": "function"
    },
    {
      "inputs": [],
      "name": "collateral",
      "outputs": [
        {
          "internalType": "address",
          "name": "",
          "type": "address"
        }
      ],
      "stateMutability": "view",
      "type": "function"
    },
    {
      "inputs": [],
      "name": "collateral_balance",
      "outputs": [
        {
          "internalType": "uint256",
          "name": "",
          "type": "uint256"
        }
      ],
      "stateMutability": "view",
      "type": "function"
    },
    {
      "inputs": [],
      "name": "collateral_type",
      "outputs": [
        {
          "internalType": "enum CreditLine.CollateralType",
          "name": "",
          "type": "uint8"
        }
      ],
      "stateMutability": "view",
      "type": "function"
    },
    {
      "inputs": [],
      "name": "declareDefault",
      "outputs": [],
      "stateMutability": "nonpayable",
      "type": "function"
    },
    {
      "inputs": [
        {
          "internalType": "uint256",
          "name": "amount",
          "type": "uint256"
        }
      ],
      "name": "depositCollateral",
      "outputs": [],
      "stateMutability": "nonpayable",
      "type": "function"
    },
    {
      "inputs": [],
      "name": "drawdown",
      "outputs": [],
      "stateMutability": "nonpayable",
      "type": "function"
    },
    {
      "inputs": [],
      "name": "estimatedTotalAssets",
      "outputs": [
        {
          "internalType": "uint256",
          "name": "",
          "type": "uint256"
        }
      ],
      "stateMutability": "view",
      "type": "function"
    },
    {
      "inputs": [],
      "name": "getApprovedBorrowConditions",
      "outputs": [
        {
          "internalType": "uint256",
          "name": "",
          "type": "uint256"
        },
        {
          "internalType": "uint256",
          "name": "",
          "type": "uint256"
        }
      ],
      "stateMutability": "view",
      "type": "function"
    },
    {
      "inputs": [],
      "name": "getCollateralRatio",
      "outputs": [
        {
          "internalType": "uint256",
          "name": "",
          "type": "uint256"
        }
      ],
      "stateMutability": "view",
      "type": "function"
    },
    {
      "inputs": [],
      "name": "getCurrentLoanStatus",
      "outputs": [
        {
          "internalType": "uint256",
          "name": "",
          "type": "uint256"
        }
      ],
      "stateMutability": "view",
      "type": "function"
    },
    {
      "inputs": [],
      "name": "getMaturityBalance",
      "outputs": [
        {
          "internalType": "uint256",
          "name": "",
          "type": "uint256"
        }
      ],
      "stateMutability": "view",
      "type": "function"
    },
    {
      "inputs": [],
      "name": "getProxy",
      "outputs": [
        {
          "internalType": "address",
          "name": "",
          "type": "address"
        }
      ],
      "stateMutability": "view",
      "type": "function"
    },
    {
      "inputs": [],
      "name": "getRemainingOwed",
      "outputs": [
        {
          "internalType": "uint256",
          "name": "",
          "type": "uint256"
        },
        {
          "internalType": "uint256",
          "name": "",
          "type": "uint256"
        }
      ],
      "stateMutability": "view",
      "type": "function"
    },
    {
      "inputs": [],
      "name": "instrumentApprovalCondition",
      "outputs": [
        {
          "internalType": "bool",
          "name": "",
          "type": "bool"
        }
      ],
      "stateMutability": "view",
      "type": "function"
    },
    {
      "inputs": [],
      "name": "interestOwed",
      "outputs": [
        {
          "internalType": "uint256",
          "name": "",
          "type": "uint256"
        }
      ],
      "stateMutability": "view",
      "type": "function"
    },
    {
      "inputs": [],
      "name": "interestRepayed",
      "outputs": [
        {
          "internalType": "uint256",
          "name": "",
          "type": "uint256"
        }
      ],
      "stateMutability": "view",
      "type": "function"
    },
    {
      "inputs": [],
      "name": "interestToRepay",
      "outputs": [
        {
          "internalType": "uint256",
          "name": "",
          "type": "uint256"
        }
      ],
      "stateMutability": "view",
      "type": "function"
    },
    {
      "inputs": [
        {
          "internalType": "uint256",
          "name": "amount",
          "type": "uint256"
        }
      ],
      "name": "isLiquid",
      "outputs": [
        {
          "internalType": "bool",
          "name": "",
          "type": "bool"
        }
      ],
      "stateMutability": "view",
      "type": "function"
    },
    {
      "inputs": [
        {
          "internalType": "address",
          "name": "collateral",
          "type": "address"
        }
      ],
      "name": "isLiquidatable",
      "outputs": [
        {
          "internalType": "bool",
          "name": "",
          "type": "bool"
        }
      ],
      "stateMutability": "view",
      "type": "function"
    },
    {
      "inputs": [],
      "name": "isLocked",
      "outputs": [
        {
          "internalType": "bool",
          "name": "",
          "type": "bool"
        }
      ],
      "stateMutability": "view",
      "type": "function"
    },
    {
      "inputs": [],
      "name": "liquidateAllPositions",
      "outputs": [
        {
          "internalType": "uint256",
          "name": "_amountFreed",
          "type": "uint256"
        }
      ],
      "stateMutability": "nonpayable",
      "type": "function"
    },
    {
      "inputs": [
        {
          "internalType": "address",
          "name": "buyer",
          "type": "address"
        }
      ],
      "name": "liquidateOwnership",
      "outputs": [],
      "stateMutability": "nonpayable",
      "type": "function"
    },
    {
      "inputs": [
        {
          "internalType": "uint256",
          "name": "_amountNeeded",
          "type": "uint256"
        }
      ],
      "name": "liquidatePosition",
      "outputs": [
        {
          "internalType": "uint256",
          "name": "_liquidatedAmount",
          "type": "uint256"
        },
        {
          "internalType": "uint256",
          "name": "_loss",
          "type": "uint256"
        }
      ],
      "stateMutability": "nonpayable",
      "type": "function"
    },
    {
      "inputs": [],
      "name": "loanStatus",
      "outputs": [
        {
          "internalType": "enum CreditLine.LoanStatus",
          "name": "",
          "type": "uint8"
        }
      ],
      "stateMutability": "view",
      "type": "function"
    },
    {
      "inputs": [],
      "name": "onDefault",
      "outputs": [],
      "stateMutability": "nonpayable",
      "type": "function"
    },
    {
      "inputs": [
        {
          "internalType": "uint256",
          "name": "max_principal",
          "type": "uint256"
        },
        {
          "internalType": "uint256",
          "name": "quoted_yield",
          "type": "uint256"
        }
      ],
      "name": "onMarketApproval",
      "outputs": [],
      "stateMutability": "nonpayable",
      "type": "function"
    },
    {
      "inputs": [],
      "name": "onMaturity",
      "outputs": [],
      "stateMutability": "nonpayable",
      "type": "function"
    },
    {
      "inputs": [],
      "name": "oracle",
      "outputs": [
        {
          "internalType": "address",
          "name": "",
          "type": "address"
        }
      ],
      "stateMutability": "view",
      "type": "function"
    },
    {
      "inputs": [],
      "name": "prepareWithdraw",
      "outputs": [
        {
          "internalType": "uint256",
          "name": "_profit",
          "type": "uint256"
        },
        {
          "internalType": "uint256",
          "name": "_loss",
          "type": "uint256"
        },
        {
          "internalType": "uint256",
          "name": "_debtPayment",
          "type": "uint256"
        }
      ],
      "stateMutability": "nonpayable",
      "type": "function"
    },
    {
      "inputs": [],
      "name": "principalOwed",
      "outputs": [
        {
          "internalType": "uint256",
          "name": "",
          "type": "uint256"
        }
      ],
      "stateMutability": "view",
      "type": "function"
    },
    {
      "inputs": [],
      "name": "principalRepayed",
      "outputs": [
        {
          "internalType": "uint256",
          "name": "",
          "type": "uint256"
        }
      ],
      "stateMutability": "view",
      "type": "function"
    },
    {
      "inputs": [
        {
          "internalType": "uint256",
          "name": "amount",
          "type": "uint256"
        },
        {
          "internalType": "address",
          "name": "to",
          "type": "address"
        }
      ],
      "name": "pushCollateralToVault",
      "outputs": [],
      "stateMutability": "nonpayable",
      "type": "function"
    },
    {
      "inputs": [],
      "name": "readyForWithdrawal",
      "outputs": [
        {
          "internalType": "bool",
          "name": "",
          "type": "bool"
        }
      ],
      "stateMutability": "view",
      "type": "function"
    },
    {
      "inputs": [
        {
          "internalType": "uint256",
          "name": "amount",
          "type": "uint256"
        }
      ],
      "name": "redeemUnderlying",
      "outputs": [
        {
          "internalType": "bool",
          "name": "",
          "type": "bool"
        }
      ],
      "stateMutability": "nonpayable",
      "type": "function"
    },
    {
      "inputs": [
        {
          "internalType": "uint256",
          "name": "_repay_amount",
          "type": "uint256"
        }
      ],
      "name": "repay",
      "outputs": [],
      "stateMutability": "nonpayable",
      "type": "function"
    },
    {
      "inputs": [],
      "name": "setGracePeriod",
      "outputs": [],
      "stateMutability": "nonpayable",
      "type": "function"
    },
    {
      "inputs": [
        {
          "internalType": "address",
          "name": "_Utilizer",
          "type": "address"
        }
      ],
      "name": "setUtilizer",
      "outputs": [],
      "stateMutability": "nonpayable",
      "type": "function"
    },
    {
      "inputs": [
        {
          "internalType": "address",
          "name": "newVault",
          "type": "address"
        }
      ],
      "name": "setVault",
      "outputs": [],
      "stateMutability": "nonpayable",
      "type": "function"
    },
    {
      "inputs": [],
      "name": "store_internal_balance",
      "outputs": [],
      "stateMutability": "nonpayable",
      "type": "function"
    },
    {
      "inputs": [],
      "name": "totalOwed",
      "outputs": [
        {
          "internalType": "uint256",
          "name": "",
          "type": "uint256"
        }
      ],
      "stateMutability": "view",
      "type": "function"
    },
    {
      "inputs": [],
      "name": "underlying",
      "outputs": [
        {
          "internalType": "contract ERC20",
          "name": "",
          "type": "address"
        }
      ],
      "stateMutability": "view",
      "type": "function"
    },
    {
      "inputs": [
        {
          "internalType": "uint256",
          "name": "",
          "type": "uint256"
        }
      ],
      "name": "validators",
      "outputs": [
        {
          "internalType": "address",
          "name": "",
          "type": "address"
        }
      ],
      "stateMutability": "view",
      "type": "function"
    },
    {
      "inputs": [],
      "name": "vault",
      "outputs": [
        {
          "internalType": "contract Vault",
          "name": "",
          "type": "address"
        }
      ],
      "stateMutability": "view",
      "type": "function"
    }
  ],
  "bytecode": {
    "object": "0x60a06040523480156200001157600080fd5b5060405162002e7d38038062002e7d833981016040819052620000349162000284565b600180546001600160a01b0319166001600160a01b038c16908117909155604080516362eb326360e11b815290518c928c92909163c5d664c6916004808201926020929091908290030181865afa15801562000094573d6000803e3d6000fd5b505050506040513d601f19601f82011682018060405250810190620000ba91906200032b565b600080546001600160a01b0319166001600160a01b0392831690811790915560405163095ea7b360e01b8152918416600483015260001960248301529063095ea7b3906044016020604051808303816000875af115801562000120573d6000803e3d6000fd5b505050506040513d601f19601f8201168201806040525081019062000146919062000352565b50600480546001600160a01b03199081166001600160a01b03938416179091558b821660805260078b905560088a9055600a899055600988905560128054821688841617905560138054909116918616919091179055506014829055806003811115620001b757620001b762000376565b6015805460ff19166001836003811115620001d657620001d662000376565b0217905550601a805460ff1916905560405130908a90620001f7906200025d565b6001600160a01b03928316815291166020820152604001604051809103906000f0801580156200022b573d6000803e3d6000fd5b50601d80546001600160a01b0319166001600160a01b0392909216919091179055506200038c98505050505050505050565b6109ab80620024d283390190565b6001600160a01b03811681146200028157600080fd5b50565b6000806000806000806000806000806101408b8d031215620002a557600080fd5b8a51620002b2816200026b565b60208c0151909a50620002c5816200026b565b8099505060408b0151975060608b0151965060808b0151955060a08b0151945060c08b0151620002f5816200026b565b60e08c015190945062000308816200026b565b809350506101008b015191506101208b015190509295989b9194979a5092959850565b6000602082840312156200033e57600080fd5b81516200034b816200026b565b9392505050565b6000602082840312156200036557600080fd5b815180151581146200034b57600080fd5b634e487b7160e01b600052602160045260246000fd5b608051612123620003af600039600081816104a3015261156d01526121236000f3fe608060405234801561001057600080fd5b50600436106102bb5760003560e01c8063767c305311610182578063bdf0f253116100e9578063dbe57fe8116100a2578063e91145dc1161007c578063e91145dc14610591578063efbb5cb014610408578063f3aa68d31461059a578063fbfa77cf146105a257600080fd5b8063dbe57fe814610577578063e77ef21f14610580578063e7fa9f7d1461058857600080fd5b8063bdf0f2531461052b578063ca0565f514610533578063cd377c5314610408578063cdddd4e51461053b578063d8dfeb4514610551578063db37546d1461056457600080fd5b80638a7a2d831161013b5780638a7a2d83146104e8578063933a9ce8146104f0578063a4e2d63414610501578063aeae11aa14610508578063b93a02f314610510578063bad4a01f1461051857600080fd5b8063767c3053146104085780637dc0d1d01461048b5780637df1f1b91461049e57806383e754a0146104c5578063852a12e3146104cd578063857f37cf146104e057600080fd5b80633af9e6691161022657806357b25996116101df57806357b259961461042257806367a5d095146104355780636817031b146104435780636f307dc3146104565780636febd543146104695780637003dc661461047157600080fd5b80633af9e669146103bf578063416288dd146103d2578063424cfe721461033557806349dcf4ed146103e557806350bb4beb14610408578063537d94091461040f57600080fd5b80631935011411610278578063193501141461035357806321856b361461035c5780633467cd7f14610365578063350896fe1461036e57806335aa2e4414610399578063371fd8e6146103ac57600080fd5b8063042e02cf146102c0578063074ca966146102e957806310d6f857146103035780631104aafd1461031a57806315c98ece14610322578063187526d914610337575b600080fd5b6102d46102ce366004611e82565b50600090565b60405190151581526020015b60405180910390f35b601a546102f69060ff1681565b6040516102e09190611eb5565b61030c60145481565b6040519081526020016102e0565b60025461030c565b610335610330366004611e82565b6105b5565b005b600d54600e545b604080519283526020830191909152016102e0565b61030c600d5481565b61030c600e5481565b61030c60105481565b600454610381906001600160a01b031681565b6040516001600160a01b0390911681526020016102e0565b6103816103a7366004611ecf565b6106e2565b6103356103ba366004611ecf565b61070c565b61030c6103cd366004611e82565b6108b3565b6103356103e0366004611ee8565b6109b4565b6103ed610a14565b604080519384526020840192909252908201526060016102e0565b600061030c565b6102d461041d366004611ecf565b610aae565b610335610430366004611e82565b610af5565b61030c6102ce366004611ecf565b610335610451366004611e82565b610beb565b600054610381906001600160a01b031681565b610335610cce565b60155461047e9060ff1681565b6040516102e09190611f0a565b601354610381906001600160a01b031681565b6103817f000000000000000000000000000000000000000000000000000000000000000081565b6102d4610e56565b6102d46104db366004611ecf565b610feb565b610335611091565b6103356110f5565b601d546001600160a01b0316610381565b60016102d4565b61030c6111ed565b61033e611243565b610335610526366004611ecf565b6112ce565b6102d46113bf565b610335611428565b61033e610549366004611ecf565b600080915091565b601254610381906001600160a01b031681565b610335610572366004611f1e565b611636565b61030c600f5481565b610335611796565b61030c600c5481565b61030c60115481565b61033561193f565b600154610381906001600160a01b031681565b600160009054906101000a90046001600160a01b03166001600160a01b0316638da5cb5b6040518163ffffffff1660e01b8152600401602060405180830381865afa158015610608573d6000803e3d6000fd5b505050506040513d601f19601f8201168201806040525081019061062c9190611f4e565b6001600160a01b0316336001600160a01b0316148061065a57503360009081526006602052604090205460ff165b61067f5760405162461bcd60e51b815260040161067690611f6b565b60405180910390fd5b601d5460405163157a618f60e11b81526001600160a01b03838116600483015290911690632af4c31e906024015b600060405180830381600087803b1580156106c757600080fd5b505af11580156106db573d6000803e3d6000fd5b5050505050565b600581815481106106f257600080fd5b6000918252602090912001546001600160a01b0316905081565b6004546001600160a01b031633146107365760405162461bcd60e51b815260040161067690611f90565b6001546040516396d6487960e01b81523060048201526001600160a01b03909116906396d6487990602401602060405180830381865afa15801561077e573d6000803e3d6000fd5b505050506040513d601f19601f820116820180604052508101906107a29190611fb3565b6107dd5760405162461bcd60e51b815260206004820152600c60248201526b139bdd08185c1c1c9bdd995960a21b6044820152606401610676565b60006107e76111ed565b9050600082828110610816576107fd8385611feb565b6108079083611ffe565b6000600f559150829050610824565b6108208184611feb565b600f555b61082e8282611977565b15610864574360195561083f611a56565b1561085657601a805460ff19166004179055610864565b601a805460ff191660051790555b61086c611a93565b601b5561087a333086611aa7565b6040518481527fa6ffc78a660e4971a47a0f916a0abae483804e6f42c9292ed06aa64f8fe462309060200160405180910390a150505050565b6000306001600160a01b03831603610946576003546000546040516370a0823160e01b81526001600160a01b038581166004830152909116906370a0823190602401602060405180830381865afa158015610912573d6000803e3d6000fd5b505050506040513d601f19601f820116820180604052508101906109369190612011565b6109409190611feb565b92915050565b6000546040516370a0823160e01b81526001600160a01b038481166004830152909116906370a0823190602401602060405180830381865afa158015610990573d6000803e3d6000fd5b505050506040513d601f19601f820116820180604052508101906109409190612011565b6001546001600160a01b031633146109de5760405162461bcd60e51b81526004016106769061202a565b60078290556008819055600a54610a00906109f99084611b90565b8290611bac565b600b555050601a805460ff19166001179055565b600154600090819081906001600160a01b03163314610a455760405162461bcd60e51b81526004016106769061202a565b610a4d6113bf565b610a915760405162461bcd60e51b81526020600482015260156024820152746e6f7420726561647920746f20776974686472617760581b6044820152606401610676565b610aa96001805460ff60a01b1916600160a01b179055565b909192565b6000610ae3604051806040016040528060088152602001671a5cdb1a5c5d5a5960c21b815250610add306108b3565b84611bc1565b81610aed306108b3565b101592915050565b600160009054906101000a90046001600160a01b03166001600160a01b0316638da5cb5b6040518163ffffffff1660e01b8152600401602060405180830381865afa158015610b48573d6000803e3d6000fd5b505050506040513d601f19601f82011682018060405250810190610b6c9190611f4e565b6001600160a01b0316336001600160a01b03161480610b9a57503360009081526006602052604090205460ff165b610bb65760405162461bcd60e51b815260040161067690611f6b565b6001600160a01b038116610bc957600080fd5b600480546001600160a01b0319166001600160a01b0392909216919091179055565b600160009054906101000a90046001600160a01b03166001600160a01b0316638da5cb5b6040518163ffffffff1660e01b8152600401602060405180830381865afa158015610c3e573d6000803e3d6000fd5b505050506040513d601f19601f82011682018060405250810190610c629190611f4e565b6001600160a01b0316336001600160a01b03161480610c9057503360009081526006602052604090205460ff165b610cac5760405162461bcd60e51b815260040161067690611f6b565b600180546001600160a01b0319166001600160a01b0392909216919091179055565b600160009054906101000a90046001600160a01b03166001600160a01b0316638da5cb5b6040518163ffffffff1660e01b8152600401602060405180830381865afa158015610d21573d6000803e3d6000fd5b505050506040513d601f19601f82011682018060405250810190610d459190611f4e565b6001600160a01b0316336001600160a01b03161480610d7357503360009081526006602052604090205460ff165b610d8f5760405162461bcd60e51b815260040161067690611f6b565b6007601a5460ff166007811115610da857610da8611e9f565b14610db257600080fd5b6000546007546001600160a01b03909116906323b872dd9033903090610dda90600290612058565b6040516001600160e01b031960e086901b1681526001600160a01b03938416600482015292909116602483015260448201526064015b6020604051808303816000875af1158015610e2f573d6000803e3d6000fd5b505050506040513d601f19601f82011682018060405250810190610e539190611fb3565b50565b60008060155460ff166003811115610e7057610e70611e9f565b1480610e925750600160155460ff166003811115610e9057610e90611e9f565b145b15610f11576014546012546040516370a0823160e01b81523060048201526001600160a01b03909116906370a0823190602401602060405180830381865afa158015610ee2573d6000803e3d6000fd5b505050506040513d601f19601f82011682018060405250810190610f069190612011565b10610f115750600090565b600260155460ff166003811115610f2a57610f2a611e9f565b148015610fab5750601d60009054906101000a90046001600160a01b03166001600160a01b031663524d81d36040518163ffffffff1660e01b8152600401602060405180830381865afa158015610f85573d6000803e3d6000fd5b505050506040513d601f19601f82011682018060405250810190610fa99190612011565b155b15610fe55760405162461bcd60e51b815260206004820152600a602482015269027bbb732b939b434b8160b51b6044820152606401610676565b50600190565b6001546000906001600160a01b031633146110185760405162461bcd60e51b81526004016106769061202a565b60005460015460405163a9059cbb60e01b81526001600160a01b0391821660048201526024810185905291169063a9059cbb906044016020604051808303816000875af115801561106d573d6000803e3d6000fd5b505050506040513d601f19601f820116820180604052508101906109409190611fb3565b6000600d541180156110a557506000600e54115b6110da5760405162461bcd60e51b81526020600482015260066024820152651c995c185a5960d21b6044820152606401610676565b42601c55601a80546006919060ff19166001835b0217905550565b600160009054906101000a90046001600160a01b03166001600160a01b0316638da5cb5b6040518163ffffffff1660e01b8152600401602060405180830381865afa158015611148573d6000803e3d6000fd5b505050506040513d601f19601f8201168201806040525081019061116c9190611f4e565b6001600160a01b0316336001600160a01b0316148061119a57503360009081526006602052604090205460ff165b6111b65760405162461bcd60e51b815260040161067690611f6b565b6006601a5460ff1660078111156111cf576111cf611e9f565b146111d957600080fd5b601a80546007919060ff19166001836110ee565b60008061120d601b546111fe611a93565b6112089190611feb565b611c08565b9050600f5461123361122c600d54600b54611b9090919063ffffffff16565b8390611b90565b61123d9190611ffe565b91505090565b6001546040516396d6487960e01b815230600482015260009182916001600160a01b03909116906396d6487990602401602060405180830381865afa158015611290573d6000803e3d6000fd5b505050506040513d601f19601f820116820180604052508101906112b49190611fb3565b156112c55750506007546008549091565b50600091829150565b6004546001600160a01b031633146112f85760405162461bcd60e51b815260040161067690611f90565b6012546001600160a01b031661130d57600080fd5b6012546040516323b872dd60e01b8152336004820152306024820152604481018390526001600160a01b03909116906323b872dd906064016020604051808303816000875af1158015611364573d6000803e3d6000fd5b505050506040513d601f19601f820116820180604052508101906113889190611fb3565b506040518181527faf109966ac3222213230f1317e7851e5a7d44b53f924cb801aa2e80705cefc869060200160405180910390a150565b60006005601a5460ff1660078111156113da576113da611e9f565b14806113fc57506007601a5460ff1660078111156113fa576113fa611e9f565b145b8061141d57506004601a5460ff16600781111561141b5761141b611e9f565b145b15610fe55750600190565b6004546001600160a01b031633146114525760405162461bcd60e51b815260040161067690611f90565b6004601a5460ff16600781111561146b5761146b611e9f565b148061148d57506005601a5460ff16600781111561148b5761148b611e9f565b145b6114c75760405162461bcd60e51b815260206004820152600b60248201526a139bdd081b585d1d5c995960aa1b6044820152606401610676565b60195443116115065760405162461bcd60e51b815260206004820152600b60248201526a109b1bd8dac8195c5d585b60aa1b6044820152606401610676565b600060155460ff16600381111561151f5761151f611e9f565b14806115415750600160155460ff16600381111561153f5761153f611e9f565b145b156115535761154e611c2b565b6115d3565b601d5460405163157a618f60e11b81526001600160a01b037f00000000000000000000000000000000000000000000000000000000000000008116600483015290911690632af4c31e90602401600060405180830381600087803b1580156115ba57600080fd5b505af11580156115ce573d6000803e3d6000fd5b505050505b60006004601a5460ff1660078111156115ee576115ee611e9f565b146115fa5760006115fd565b60015b60015460405163109d3ea960e11b815230600482015282151560248201529192506001600160a01b03169063213a7d52906044016106ad565b600160009054906101000a90046001600160a01b03166001600160a01b0316638da5cb5b6040518163ffffffff1660e01b8152600401602060405180830381865afa158015611689573d6000803e3d6000fd5b505050506040513d601f19601f820116820180604052508101906116ad9190611f4e565b6001600160a01b0316336001600160a01b031614806116db57503360009081526006602052604090205460ff165b6116f75760405162461bcd60e51b815260040161067690611f6b565b6007601a5460ff16600781111561171057611710611e9f565b1461171a57600080fd5b60125460405163a9059cbb60e01b81526001600160a01b038381166004830152602482018590529091169063a9059cbb906044016020604051808303816000875af115801561176d573d6000803e3d6000fd5b505050506040513d601f19601f820116820180604052508101906117919190611fb3565b505050565b6004546001600160a01b031633146117c05760405162461bcd60e51b815260040161067690611f90565b6001546040516396d6487960e01b81523060048201526001600160a01b03909116906396d6487990602401602060405180830381865afa158015611808573d6000803e3d6000fd5b505050506040513d601f19601f8201168201806040525081019061182c9190611fb3565b6118675760405162461bcd60e51b815260206004820152600c60248201526b139bdd08185c1c1c9bdd995960a21b6044820152606401610676565b6001601a5460ff16600781111561188057611880611e9f565b146118c05760405162461bcd60e51b815260206004820152601060248201526f105b1c9958591e48189bdc9c9bddd95960821b6044820152606401610676565b601a805460ff19166002179055426016819055601b556008546007546118e69190611ffe565b600c55600754600d819055600854600e55611902903390611cdf565b7febf485edb8aa02238294ff7cda84b77f5afafa105e34f3bbf866534b7b5bd40e60075460405161193591815260200190565b60405180910390a1565b6001546001600160a01b031633146119695760405162461bcd60e51b81526004016106769061202a565b611972306108b3565b600255565b600061198e6119868385611ffe565b600c54611db2565b600c600082825461199f9190611feb565b925050819055506119b283600d54611db2565b600d60008282546119c39190611feb565b925050819055506119d682600e54611db2565b600e60008282546119e79190611feb565b925050819055508260106000828254611a009190611ffe565b925050819055508160116000828254611a199190611ffe565b90915550508215611a2c57611a2c611dc8565b6000600d546000148015611a405750600e54155b611a4b576000611a4e565b60015b949350505050565b600080670de0b6b3a7640000601154601054611a729190611ffe565b611a7c9190611ffe565b600854600754611a8c9190611ffe565b1192915050565b6000611aa24262f099c0611ffe565b905090565b600154600160a01b900460ff1615611abe57600080fd5b6000546040516323b872dd60e01b81526001600160a01b038581166004830152848116602483015260448201849052909116906323b872dd906064016020604051808303816000875af1158015611b19573d6000803e3d6000fd5b505050506040513d601f19601f82011682018060405250810190611b3d9190611fb3565b50816001600160a01b0316836001600160a01b03167fb694ac7b1acb87c2bd80288c8e244829d9291406c57928137d913bd13664c9dd83604051611b8391815260200190565b60405180910390a3505050565b6000611ba58383670de0b6b3a7640000611e1d565b9392505050565b6000611ba583670de0b6b3a764000084611e1d565b611791838383604051602401611bd99392919061207a565b60408051601f198184030181529190526020810180516001600160e01b031663969cdd0360e01b179052611e3c565b60006301e13380611c2183670de0b6b3a76400006120d6565b6109409190612058565b6005601a5460ff166007811115611c4457611c44611e9f565b1480611c6657506004601a5460ff166007811115611c6457611c64611e9f565b145b611ca45760405162461bcd60e51b815260206004820152600f60248201526e2637b0b71039ba30ba3ab99032b93960891b6044820152606401610676565b60125460145460405163a9059cbb60e01b815233600482015260248101919091526001600160a01b039091169063a9059cbb90604401610e10565b600154600160a01b900460ff1615611cf657600080fd5b60005460405163a9059cbb60e01b81526001600160a01b038481166004830152602482018490529091169063a9059cbb906044016020604051808303816000875af1158015611d49573d6000803e3d6000fd5b505050506040513d601f19601f82011682018060405250810190611d6d9190611fb3565b506040518181526001600160a01b0383169030907fb694ac7b1acb87c2bd80288c8e244829d9291406c57928137d913bd13664c9dd9060200160405180910390a35050565b6000818310611dc15781611ba5565b5090919050565b6000611dd2611a93565b611ddd600a54611e5d565b601654611dea9190611ffe565b611df49190611feb565b9050611e17611e0e600d54611e0884611c08565b90611b90565b600b5490611b90565b600e5550565b828202811515841585830485141716611e3557600080fd5b0492915050565b80516a636f6e736f6c652e6c6f67602083016000808483855afa5050505050565b60006109406301e1338083611b90565b6001600160a01b0381168114610e5357600080fd5b600060208284031215611e9457600080fd5b8135611ba581611e6d565b634e487b7160e01b600052602160045260246000fd5b6020810160088310611ec957611ec9611e9f565b91905290565b600060208284031215611ee157600080fd5b5035919050565b60008060408385031215611efb57600080fd5b50508035926020909101359150565b6020810160048310611ec957611ec9611e9f565b60008060408385031215611f3157600080fd5b823591506020830135611f4381611e6d565b809150509250929050565b600060208284031215611f6057600080fd5b8151611ba581611e6d565b6020808252600b908201526a08585d5d1a1bdc9a5e995960aa1b604082015260600190565b60208082526009908201526810aaba34b634bd32b960b91b604082015260600190565b600060208284031215611fc557600080fd5b81518015158114611ba557600080fd5b634e487b7160e01b600052601160045260246000fd5b8181038181111561094057610940611fd5565b8082018082111561094057610940611fd5565b60006020828403121561202357600080fd5b5051919050565b60208082526014908201527318d85b1b195c881b5d5cdd081899481d985d5b1d60621b604082015260600190565b60008261207557634e487b7160e01b600052601260045260246000fd5b500490565b606081526000845180606084015260005b818110156120a8576020818801810151608086840101520161208b565b506000608082850101526080601f19601f830116840101915050836020830152826040830152949350505050565b808202811582820484141761094057610940611fd556fea264697066735822122081acc5bb9386c638a3793facb87b0f1ed589bfea29b772edf99bb6ec6005cfd064736f6c63430008110033608060405234801561001057600080fd5b506040516109ab3803806109ab83398101604081905261002f9161007c565b600080546001600160a01b039384166001600160a01b031991821617909155600180549290931691161790556100af565b80516001600160a01b038116811461007757600080fd5b919050565b6000806040838503121561008f57600080fd5b61009883610060565b91506100a660208401610060565b90509250929050565b6108ed806100be6000396000f3fe608060405234801561001057600080fd5b50600436106100935760003560e01c8063524d81d311610066578063524d81d31461018c578063893d20e81461019d57806399f3c79b146101c2578063bade64b1146101fe578063d4f804cf1461021157600080fd5b806301a3f256146100985780630eaad4891461012e5780632af4c31e146101665780633ac47fff14610179575b600080fd5b61012c6100a63660046106bd565b6002805460018082019092557f405787fa12a823e0f2b7631cc41b3ba8828b3321ca811111fa75cd3aa3bb5ace0180546001600160a01b0319166001600160a01b039490941693841790556000928352600460209081526040808520805460ff191690931790925560039052909120805463ffffffff191660e09290921c919091179055565b005b61015161013c366004610701565b60046020526000908152604090205460ff1681565b60405190151581526020015b60405180910390f35b61012c610174366004610701565b610224565b61012c61018736600461076c565b610291565b60025460405190815260200161015d565b6000546001600160a01b03165b6040516001600160a01b03909116815260200161015d565b6101e56101d0366004610701565b60036020526000908152604090205460e01b81565b6040516001600160e01b0319909116815260200161015d565b6101aa61020c3660046107ea565b610512565b61012c61021f366004610803565b61053c565b6000546001600160a01b0316331461026f5760405162461bcd60e51b81526020600482015260096024820152682737ba1037bbb732b960b91b60448201526064015b60405180910390fd5b600080546001600160a01b0319166001600160a01b0392909216919091179055565b6000546001600160a01b031633146102a857600080fd5b6001600160a01b03851660009081526004602052604090205460ff166102cd57600080fd5b6001600160a01b03841630146102fe576001600160a01b0385166000908152600460205260409020805460ff191690555b80156103dc576001600160a01b038581166000818152600360205260408082205490519388166024850152909260e09190911b9060440160408051601f198184030181529181526020820180516001600160e01b03166001600160e01b03199094169390931790925290516103739190610856565b6000604051808303816000865af19150503d80600081146103b0576040519150601f19603f3d011682016040523d82523d6000602084013e6103b5565b606091505b50509050806103d65760405162461bcd60e51b815260040161026690610885565b5061050b565b6001600160a01b038516600090815260036020908152604091829020548251601f860183900483028101830190935284835260e01b6001600160e01b0319169161044091869086908190840183828082843760009201919091525061068692505050565b6001600160e01b0319160361048a5760405162461bcd60e51b815260206004820152601060248201526f199d5b98c81b9bdd08185b1b1bddd95960821b6044820152606401610266565b6000856001600160a01b031684846040516104a69291906108a7565b6000604051808303816000865af19150503d80600081146104e3576040519150601f19603f3d011682016040523d82523d6000602084013e6104e8565b606091505b50509050806105095760405162461bcd60e51b815260040161026690610885565b505b5050505050565b6002818154811061052257600080fd5b6000918252602090912001546001600160a01b0316905081565b6001546001600160a01b0316331461055357600080fd5b6001600160a01b038316600090815260036020908152604091829020548251601f850183900483028101830190935283835260e01b6001600160e01b031916916105b791859085908190840183828082843760009201919091525061068692505050565b6001600160e01b031916036106015760405162461bcd60e51b815260206004820152601060248201526f199d5b98c81b9bdd08185b1b1bddd95960821b6044820152606401610266565b6000836001600160a01b0316838360405161061d9291906108a7565b6000604051808303816000865af19150503d806000811461065a576040519150601f19603f3d011682016040523d82523d6000602084013e61065f565b606091505b50509050806106805760405162461bcd60e51b815260040161026690610885565b50505050565b6000815160000361069957506000919050565b506004015190565b80356001600160a01b03811681146106b857600080fd5b919050565b600080604083850312156106d057600080fd5b6106d9836106a1565b915060208301356001600160e01b0319811681146106f657600080fd5b809150509250929050565b60006020828403121561071357600080fd5b61071c826106a1565b9392505050565b60008083601f84011261073557600080fd5b50813567ffffffffffffffff81111561074d57600080fd5b60208301915083602082850101111561076557600080fd5b9250929050565b60008060008060006080868803121561078457600080fd5b61078d866106a1565b945061079b602087016106a1565b9350604086013567ffffffffffffffff8111156107b757600080fd5b6107c388828901610723565b909450925050606086013580151581146107dc57600080fd5b809150509295509295909350565b6000602082840312156107fc57600080fd5b5035919050565b60008060006040848603121561081857600080fd5b610821846106a1565b9250602084013567ffffffffffffffff81111561083d57600080fd5b61084986828701610723565b9497909650939450505050565b6000825160005b81811015610877576020818601810151858301520161085d565b506000920191825250919050565b602080825260089082015267217375636365737360c01b604082015260600190565b818382376000910190815291905056fea2646970667358221220e8da56c325f43242dc4967cb771c8edd42654e9a33d2690c062474a2bf01160a64736f6c63430008110033",
    "linkReferences": {}
  },
  "methodIdentifiers": {
    "Utilizer()": "350896fe",
    "accumulated_interest()": "dbe57fe8",
    "assetOracle(uint256)": "67a5d095",
    "balanceOfUnderlying(address)": "3af9e669",
    "beginGracePeriod()": "857f37cf",
    "borrower()": "7df1f1b9",
    "collateral()": "d8dfeb45",
    "collateral_balance()": "10d6f857",
    "collateral_type()": "7003dc66",
    "declareDefault()": "8a7a2d83",
    "depositCollateral(uint256)": "bad4a01f",
    "drawdown()": "e77ef21f",
    "estimatedTotalAssets()": "efbb5cb0",
    "getApprovedBorrowConditions()": "b93a02f3",
    "getCollateralRatio()": "cd377c53",
    "getCurrentLoanStatus()": "767c3053",
    "getMaturityBalance()": "1104aafd",
    "getProxy()": "933a9ce8",
    "getRemainingOwed()": "187526d9",
    "instrumentApprovalCondition()": "83e754a0",
    "interestOwed()": "21856b36",
    "interestRepayed()": "e91145dc",
    "interestToRepay()": "aeae11aa",
    "isLiquid(uint256)": "537d9409",
    "isLiquidatable(address)": "042e02cf",
    "isLocked()": "a4e2d634",
    "liquidateAllPositions()": "50bb4beb",
    "liquidateOwnership(address)": "15c98ece",
    "liquidatePosition(uint256)": "cdddd4e5",
    "loanStatus()": "074ca966",
    "onDefault()": "6febd543",
    "onMarketApproval(uint256,uint256)": "416288dd",
    "onMaturity()": "ca0565f5",
    "oracle()": "7dc0d1d0",
    "prepareWithdraw()": "49dcf4ed",
    "principalOwed()": "19350114",
    "principalRepayed()": "3467cd7f",
    "pushCollateralToVault(uint256,address)": "db37546d",
    "readyForWithdrawal()": "bdf0f253",
    "redeemUnderlying(uint256)": "852a12e3",
    "repay(uint256)": "371fd8e6",
    "setGracePeriod()": "424cfe72",
    "setUtilizer(address)": "57b25996",
    "setVault(address)": "6817031b",
    "store_internal_balance()": "f3aa68d3",
    "totalOwed()": "e7fa9f7d",
    "underlying()": "6f307dc3",
    "validators(uint256)": "35aa2e44",
    "vault()": "fbfa77cf"
  },
  "id": 33
}