{
  "abi": [
    {
      "inputs": [
        {
          "internalType": "address",
          "name": "vault",
          "type": "address"
        },
        {
          "internalType": "address",
          "name": "_borrower",
          "type": "address"
        },
        {
          "internalType": "uint256",
          "name": "_principal",
          "type": "uint256"
        },
        {
          "internalType": "uint256",
          "name": "_notionalInterest",
          "type": "uint256"
        },
        {
          "internalType": "uint256",
          "name": "_duration",
          "type": "uint256"
        },
        {
          "internalType": "uint256",
          "name": "_faceValue",
          "type": "uint256"
        },
        {
          "internalType": "address",
          "name": "_collateral",
          "type": "address"
        },
        {
          "internalType": "address",
          "name": "_oracle",
          "type": "address"
        },
        {
          "internalType": "uint256",
          "name": "_collateral_balance",
          "type": "uint256"
        },
        {
          "internalType": "uint256",
          "name": "_collateral_type",
          "type": "uint256"
        }
      ],
      "stateMutability": "nonpayable",
      "type": "constructor"
    },
    {
      "anonymous": false,
      "inputs": [
        {
          "indexed": false,
          "internalType": "uint256",
          "name": "amount",
          "type": "uint256"
        }
      ],
      "name": "DepositCollateral",
      "type": "event"
    },
    {
      "anonymous": false,
      "inputs": [
        {
          "indexed": false,
          "internalType": "uint256",
          "name": "amount",
          "type": "uint256"
        }
      ],
      "name": "Drawdown",
      "type": "event"
    },
    {
      "anonymous": false,
      "inputs": [
        {
          "indexed": true,
          "internalType": "address",
          "name": "from",
          "type": "address"
        },
        {
          "indexed": true,
          "internalType": "address",
          "name": "to",
          "type": "address"
        },
        {
          "indexed": false,
          "internalType": "uint256",
          "name": "amount",
          "type": "uint256"
        }
      ],
      "name": "LiquidityTransfer",
      "type": "event"
    },
    {
      "anonymous": false,
      "inputs": [
        {
          "indexed": false,
          "internalType": "uint256",
          "name": "amount",
          "type": "uint256"
        }
      ],
      "name": "Repay",
      "type": "event"
    },
    {
      "inputs": [],
      "name": "Utilizer",
      "outputs": [
        {
          "internalType": "address",
          "name": "",
          "type": "address"
        }
      ],
      "stateMutability": "view",
      "type": "function"
    },
    {
      "inputs": [],
      "name": "accumulated_interest",
      "outputs": [
        {
          "internalType": "uint256",
          "name": "",
          "type": "uint256"
        }
      ],
      "stateMutability": "view",
      "type": "function"
    },
    {
      "inputs": [
        {
          "internalType": "address",
          "name": "user",
          "type": "address"
        }
      ],
      "name": "balanceOfUnderlying",
      "outputs": [
        {
          "internalType": "uint256",
          "name": "",
          "type": "uint256"
        }
      ],
      "stateMutability": "view",
      "type": "function"
    },
    {
      "inputs": [],
      "name": "beginGracePeriod",
      "outputs": [],
      "stateMutability": "nonpayable",
      "type": "function"
    },
    {
      "inputs": [],
      "name": "borrower",
      "outputs": [
        {
          "internalType": "address",
          "name": "",
          "type": "address"
        }
      ],
      "stateMutability": "view",
      "type": "function"
    },
    {
      "inputs": [],
      "name": "collateral",
      "outputs": [
        {
          "internalType": "address",
          "name": "",
          "type": "address"
        }
      ],
      "stateMutability": "view",
      "type": "function"
    },
    {
      "inputs": [],
      "name": "collateral_balance",
      "outputs": [
        {
          "internalType": "uint256",
          "name": "",
          "type": "uint256"
        }
      ],
      "stateMutability": "view",
      "type": "function"
    },
    {
      "inputs": [],
      "name": "collateral_type",
      "outputs": [
        {
          "internalType": "enum CreditLine.CollateralType",
          "name": "",
          "type": "uint8"
        }
      ],
      "stateMutability": "view",
      "type": "function"
    },
    {
      "inputs": [],
      "name": "declareDefault",
      "outputs": [],
      "stateMutability": "nonpayable",
      "type": "function"
    },
    {
      "inputs": [
        {
          "internalType": "uint256",
          "name": "amount",
          "type": "uint256"
        }
      ],
      "name": "depositCollateral",
      "outputs": [],
      "stateMutability": "nonpayable",
      "type": "function"
    },
    {
      "inputs": [],
      "name": "drawdown",
      "outputs": [],
      "stateMutability": "nonpayable",
      "type": "function"
    },
    {
      "inputs": [],
      "name": "estimatedTotalAssets",
      "outputs": [
        {
          "internalType": "uint256",
          "name": "",
          "type": "uint256"
        }
      ],
      "stateMutability": "view",
      "type": "function"
    },
    {
      "inputs": [],
      "name": "getApprovedBorrowConditions",
      "outputs": [
        {
          "internalType": "uint256",
          "name": "",
          "type": "uint256"
        },
        {
          "internalType": "uint256",
          "name": "",
          "type": "uint256"
        }
      ],
      "stateMutability": "view",
      "type": "function"
    },
    {
      "inputs": [],
      "name": "getCollateralRatio",
      "outputs": [
        {
          "internalType": "uint256",
          "name": "",
          "type": "uint256"
        }
      ],
      "stateMutability": "view",
      "type": "function"
    },
    {
      "inputs": [],
      "name": "getCurrentLoanStatus",
      "outputs": [
        {
          "internalType": "uint256",
          "name": "",
          "type": "uint256"
        }
      ],
      "stateMutability": "view",
      "type": "function"
    },
    {
      "inputs": [],
      "name": "getMaturityBalance",
      "outputs": [
        {
          "internalType": "uint256",
          "name": "",
          "type": "uint256"
        }
      ],
      "stateMutability": "view",
      "type": "function"
    },
    {
      "inputs": [],
      "name": "getProxy",
      "outputs": [
        {
          "internalType": "address",
          "name": "",
          "type": "address"
        }
      ],
      "stateMutability": "view",
      "type": "function"
    },
    {
      "inputs": [],
      "name": "getRemainingOwed",
      "outputs": [
        {
          "internalType": "uint256",
          "name": "",
          "type": "uint256"
        },
        {
          "internalType": "uint256",
          "name": "",
          "type": "uint256"
        }
      ],
      "stateMutability": "view",
      "type": "function"
    },
    {
      "inputs": [],
      "name": "instrumentApprovalCondition",
      "outputs": [
        {
          "internalType": "bool",
          "name": "",
          "type": "bool"
        }
      ],
      "stateMutability": "view",
      "type": "function"
    },
    {
      "inputs": [],
      "name": "interestOwed",
      "outputs": [
        {
          "internalType": "uint256",
          "name": "",
          "type": "uint256"
        }
      ],
      "stateMutability": "view",
      "type": "function"
    },
    {
      "inputs": [],
      "name": "interestRepayed",
      "outputs": [
        {
          "internalType": "uint256",
          "name": "",
          "type": "uint256"
        }
      ],
      "stateMutability": "view",
      "type": "function"
    },
    {
      "inputs": [],
      "name": "interestToRepay",
      "outputs": [
        {
          "internalType": "uint256",
          "name": "",
          "type": "uint256"
        }
      ],
      "stateMutability": "view",
      "type": "function"
    },
    {
      "inputs": [
        {
          "internalType": "uint256",
          "name": "amount",
          "type": "uint256"
        }
      ],
      "name": "isLiquid",
      "outputs": [
        {
          "internalType": "bool",
          "name": "",
          "type": "bool"
        }
      ],
      "stateMutability": "view",
      "type": "function"
    },
    {
      "inputs": [
        {
          "internalType": "address",
          "name": "collateral",
          "type": "address"
        }
      ],
      "name": "isLiquidatable",
      "outputs": [
        {
          "internalType": "bool",
          "name": "",
          "type": "bool"
        }
      ],
      "stateMutability": "view",
      "type": "function"
    },
    {
      "inputs": [],
      "name": "isLocked",
      "outputs": [
        {
          "internalType": "bool",
          "name": "",
          "type": "bool"
        }
      ],
      "stateMutability": "view",
      "type": "function"
    },
    {
      "inputs": [],
      "name": "liquidateAllPositions",
      "outputs": [
        {
          "internalType": "uint256",
          "name": "_amountFreed",
          "type": "uint256"
        }
      ],
      "stateMutability": "nonpayable",
      "type": "function"
    },
    {
      "inputs": [
        {
          "internalType": "address",
          "name": "buyer",
          "type": "address"
        }
      ],
      "name": "liquidateOwnership",
      "outputs": [],
      "stateMutability": "nonpayable",
      "type": "function"
    },
    {
      "inputs": [
        {
          "internalType": "uint256",
          "name": "_amountNeeded",
          "type": "uint256"
        }
      ],
      "name": "liquidatePosition",
      "outputs": [
        {
          "internalType": "uint256",
          "name": "_liquidatedAmount",
          "type": "uint256"
        },
        {
          "internalType": "uint256",
          "name": "_loss",
          "type": "uint256"
        }
      ],
      "stateMutability": "nonpayable",
      "type": "function"
    },
    {
      "inputs": [],
      "name": "loanStatus",
      "outputs": [
        {
          "internalType": "enum CreditLine.LoanStatus",
          "name": "",
          "type": "uint8"
        }
      ],
      "stateMutability": "view",
      "type": "function"
    },
    {
      "inputs": [],
      "name": "onDefault",
      "outputs": [],
      "stateMutability": "nonpayable",
      "type": "function"
    },
    {
      "inputs": [
        {
          "internalType": "uint256",
          "name": "max_principal",
          "type": "uint256"
        },
        {
          "internalType": "uint256",
          "name": "quoted_yield",
          "type": "uint256"
        }
      ],
      "name": "onMarketApproval",
      "outputs": [],
      "stateMutability": "nonpayable",
      "type": "function"
    },
    {
      "inputs": [],
      "name": "onMaturity",
      "outputs": [],
      "stateMutability": "nonpayable",
      "type": "function"
    },
    {
      "inputs": [],
      "name": "oracle",
      "outputs": [
        {
          "internalType": "address",
          "name": "",
          "type": "address"
        }
      ],
      "stateMutability": "view",
      "type": "function"
    },
    {
      "inputs": [],
      "name": "prepareWithdraw",
      "outputs": [
        {
          "internalType": "uint256",
          "name": "_profit",
          "type": "uint256"
        },
        {
          "internalType": "uint256",
          "name": "_loss",
          "type": "uint256"
        },
        {
          "internalType": "uint256",
          "name": "_debtPayment",
          "type": "uint256"
        }
      ],
      "stateMutability": "nonpayable",
      "type": "function"
    },
    {
      "inputs": [],
      "name": "principalOwed",
      "outputs": [
        {
          "internalType": "uint256",
          "name": "",
          "type": "uint256"
        }
      ],
      "stateMutability": "view",
      "type": "function"
    },
    {
      "inputs": [],
      "name": "principalRepayed",
      "outputs": [
        {
          "internalType": "uint256",
          "name": "",
          "type": "uint256"
        }
      ],
      "stateMutability": "view",
      "type": "function"
    },
    {
      "inputs": [
        {
          "internalType": "uint256",
          "name": "amount",
          "type": "uint256"
        }
      ],
      "name": "pullRawFunds",
      "outputs": [],
      "stateMutability": "nonpayable",
      "type": "function"
    },
    {
      "inputs": [
        {
          "internalType": "uint256",
          "name": "amount",
          "type": "uint256"
        },
        {
          "internalType": "address",
          "name": "to",
          "type": "address"
        }
      ],
      "name": "pushCollateralToVault",
      "outputs": [],
      "stateMutability": "nonpayable",
      "type": "function"
    },
    {
      "inputs": [],
      "name": "readyForWithdrawal",
      "outputs": [
        {
          "internalType": "bool",
          "name": "",
          "type": "bool"
        }
      ],
      "stateMutability": "view",
      "type": "function"
    },
    {
      "inputs": [
        {
          "internalType": "uint256",
          "name": "amount",
          "type": "uint256"
        }
      ],
      "name": "redeemUnderlying",
      "outputs": [
        {
          "internalType": "bool",
          "name": "",
          "type": "bool"
        }
      ],
      "stateMutability": "nonpayable",
      "type": "function"
    },
    {
      "inputs": [
        {
          "internalType": "uint256",
          "name": "_repay_amount",
          "type": "uint256"
        }
      ],
      "name": "repay",
      "outputs": [],
      "stateMutability": "nonpayable",
      "type": "function"
    },
    {
      "inputs": [],
      "name": "setGracePeriod",
      "outputs": [],
      "stateMutability": "nonpayable",
      "type": "function"
    },
    {
      "inputs": [
        {
          "internalType": "address",
          "name": "_Utilizer",
          "type": "address"
        }
      ],
      "name": "setUtilizer",
      "outputs": [],
      "stateMutability": "nonpayable",
      "type": "function"
    },
    {
      "inputs": [
        {
          "internalType": "address",
          "name": "newVault",
          "type": "address"
        }
      ],
      "name": "setVault",
      "outputs": [],
      "stateMutability": "nonpayable",
      "type": "function"
    },
    {
      "inputs": [],
      "name": "store_internal_balance",
      "outputs": [],
      "stateMutability": "nonpayable",
      "type": "function"
    },
    {
      "inputs": [],
      "name": "totalOwed",
      "outputs": [
        {
          "internalType": "uint256",
          "name": "",
          "type": "uint256"
        }
      ],
      "stateMutability": "view",
      "type": "function"
    },
    {
      "inputs": [],
      "name": "underlying",
      "outputs": [
        {
          "internalType": "contract ERC20",
          "name": "",
          "type": "address"
        }
      ],
      "stateMutability": "view",
      "type": "function"
    },
    {
      "inputs": [
        {
          "internalType": "uint256",
          "name": "",
          "type": "uint256"
        }
      ],
      "name": "validators",
      "outputs": [
        {
          "internalType": "address",
          "name": "",
          "type": "address"
        }
      ],
      "stateMutability": "view",
      "type": "function"
    },
    {
      "inputs": [],
      "name": "vault",
      "outputs": [
        {
          "internalType": "contract Vault",
          "name": "",
          "type": "address"
        }
      ],
      "stateMutability": "view",
      "type": "function"
    }
  ],
  "bytecode": {
    "object": "0x60a06040523480156200001157600080fd5b5060405162002fe638038062002fe68339810160408190526200003491620002dc565b600180546001600160a01b0319166001600160a01b038c16908117909155604080516362eb326360e11b815290518c928c92909163c5d664c6916004808201926020929091908290030181865afa15801562000094573d6000803e3d6000fd5b505050506040513d601f19601f82011682018060405250810190620000ba919062000383565b600080546001600160a01b0319166001600160a01b0392831690811790915560405163095ea7b360e01b8152918416600483015260001960248301529063095ea7b3906044016020604051808303816000875af115801562000120573d6000803e3d6000fd5b505050506040513d601f19601f82011682018060405250810190620001469190620003aa565b50600480546001600160a01b0319166001600160a01b039283161790558a16608052506200017d88670de0b6b3a7640000620003ce565b6007556200019487670de0b6b3a7640000620003ce565b600855600a869055620001b085670de0b6b3a7640000620003ce565b600955601280546001600160a01b038087166001600160a01b0319928316179092556013805492861692909116919091179055620001f782670de0b6b3a7640000620003ce565b6014558060038111156200020f576200020f620003fa565b6015805460ff191660018360038111156200022e576200022e620003fa565b0217905550601a805460ff1916905560405130908a906200024f90620002b5565b6001600160a01b03928316815291166020820152604001604051809103906000f08015801562000283573d6000803e3d6000fd5b50601d80546001600160a01b0319166001600160a01b0392909216919091179055506200041098505050505050505050565b6109ab806200263b83390190565b6001600160a01b0381168114620002d957600080fd5b50565b6000806000806000806000806000806101408b8d031215620002fd57600080fd5b8a516200030a81620002c3565b60208c0151909a506200031d81620002c3565b8099505060408b0151975060608b0151965060808b0151955060a08b0151945060c08b01516200034d81620002c3565b60e08c01519094506200036081620002c3565b809350506101008b015191506101208b015190509295989b9194979a5092959850565b6000602082840312156200039657600080fd5b8151620003a381620002c3565b9392505050565b600060208284031215620003bd57600080fd5b81518015158114620003a357600080fd5b8082028115828204841417620003f457634e487b7160e01b600052601160045260246000fd5b92915050565b634e487b7160e01b600052602160045260246000fd5b608051612208620004336000396000818161049501526115a401526122086000f3fe608060405234801561001057600080fd5b50600436106102bb5760003560e01c80637dc0d1d011610182578063ca0565f5116100e9578063dbe57fe8116100a2578063e91145dc1161007c578063e91145dc146105a1578063efbb5cb014610408578063f3aa68d3146105aa578063fbfa77cf146105b257600080fd5b8063dbe57fe814610587578063e77ef21f14610590578063e7fa9f7d1461059857600080fd5b8063ca0565f514610530578063cd377c5314610408578063cdddd4e514610538578063d832f7911461054e578063d8dfeb4514610561578063db37546d1461057457600080fd5b8063933a9ce81161013b578063933a9ce8146104e2578063a4e2d634146104f3578063aeae11aa14610505578063b93a02f31461050d578063bad4a01f14610515578063bdf0f2531461052857600080fd5b80637dc0d1d01461047d5780637df1f1b91461049057806383e754a0146104b7578063852a12e3146104bf578063857f37cf146104d25780638a7a2d83146104da57600080fd5b80633af9e6691161022657806357b25996116101df57806357b25996146104225780636817031b146104355780636f307dc3146104485780636febd5431461045b5780637003dc6614610463578063767c30531461040857600080fd5b80633af9e669146103bf578063416288dd146103d2578063424cfe721461033557806349dcf4ed146103e557806350bb4beb14610408578063537d94091461040f57600080fd5b80631935011411610278578063193501141461035357806321856b361461035c5780633467cd7f14610365578063350896fe1461036e57806335aa2e4414610399578063371fd8e6146103ac57600080fd5b8063042e02cf146102c0578063074ca966146102e957806310d6f857146103035780631104aafd1461031a57806315c98ece14610322578063187526d914610337575b600080fd5b6102d46102ce366004611f43565b50600090565b60405190151581526020015b60405180910390f35b601a546102f69060ff1681565b6040516102e09190611f76565b61030c60145481565b6040519081526020016102e0565b60025461030c565b610335610330366004611f43565b6105c5565b005b600d54600e545b604080519283526020830191909152016102e0565b61030c600d5481565b61030c600e5481565b61030c60105481565b600454610381906001600160a01b031681565b6040516001600160a01b0390911681526020016102e0565b6103816103a7366004611f90565b6106f2565b6103356103ba366004611f90565b61071c565b61030c6103cd366004611f43565b6108c3565b6103356103e0366004611fa9565b6109c4565b6103ed610a24565b604080519384526020840192909252908201526060016102e0565b600061030c565b6102d461041d366004611f90565b610abe565b610335610430366004611f43565b610b05565b610335610443366004611f43565b610bfb565b600054610381906001600160a01b031681565b610335610cde565b6015546104709060ff1681565b6040516102e09190611fcb565b601354610381906001600160a01b031681565b6103817f000000000000000000000000000000000000000000000000000000000000000081565b6102d4610e4e565b6102d46104cd366004611f90565b611026565b6103356110cc565b610335611130565b601d546001600160a01b0316610381565b600154600160a01b900460ff166102d4565b61030c611228565b61033e61127e565b610335610523366004611f90565b611309565b6102d46113f6565b61033561145f565b61033e610546366004611f90565b600080915091565b61033561055c366004611f90565b61166d565b601254610381906001600160a01b031681565b610335610582366004611fdf565b6116ff565b61030c600f5481565b61033561185f565b61030c600c5481565b61030c60115481565b610335611a08565b600154610381906001600160a01b031681565b600160009054906101000a90046001600160a01b03166001600160a01b0316638da5cb5b6040518163ffffffff1660e01b8152600401602060405180830381865afa158015610618573d6000803e3d6000fd5b505050506040513d601f19601f8201168201806040525081019061063c919061200f565b6001600160a01b0316336001600160a01b0316148061066a57503360009081526006602052604090205460ff165b61068f5760405162461bcd60e51b81526004016106869061202c565b60405180910390fd5b601d5460405163157a618f60e11b81526001600160a01b03838116600483015290911690632af4c31e906024015b600060405180830381600087803b1580156106d757600080fd5b505af11580156106eb573d6000803e3d6000fd5b5050505050565b6005818154811061070257600080fd5b6000918252602090912001546001600160a01b0316905081565b6004546001600160a01b031633146107465760405162461bcd60e51b815260040161068690612051565b6001546040516396d6487960e01b81523060048201526001600160a01b03909116906396d6487990602401602060405180830381865afa15801561078e573d6000803e3d6000fd5b505050506040513d601f19601f820116820180604052508101906107b29190612074565b6107ed5760405162461bcd60e51b815260206004820152600c60248201526b139bdd08185c1c1c9bdd995960a21b6044820152606401610686565b60006107f7611228565b90506000828281106108265761080d83856120ac565b61081790836120bf565b6000600f559150829050610834565b61083081846120ac565b600f555b61083e8282611a40565b15610874574360195561084f611b1f565b1561086657601a805460ff19166004179055610874565b601a805460ff191660051790555b61087c611b5c565b601b5561088a333086611b70565b6040518481527fa6ffc78a660e4971a47a0f916a0abae483804e6f42c9292ed06aa64f8fe462309060200160405180910390a150505050565b6000306001600160a01b03831603610956576003546000546040516370a0823160e01b81526001600160a01b038581166004830152909116906370a0823190602401602060405180830381865afa158015610922573d6000803e3d6000fd5b505050506040513d601f19601f8201168201806040525081019061094691906120d2565b61095091906120ac565b92915050565b6000546040516370a0823160e01b81526001600160a01b038481166004830152909116906370a0823190602401602060405180830381865afa1580156109a0573d6000803e3d6000fd5b505050506040513d601f19601f8201168201806040525081019061095091906120d2565b6001546001600160a01b031633146109ee5760405162461bcd60e51b8152600401610686906120eb565b60078290556008819055600a54610a1090610a099084611c51565b8290611c6d565b600b555050601a805460ff19166001179055565b600154600090819081906001600160a01b03163314610a555760405162461bcd60e51b8152600401610686906120eb565b610a5d6113f6565b610aa15760405162461bcd60e51b81526020600482015260156024820152746e6f7420726561647920746f20776974686472617760581b6044820152606401610686565b610ab96001805460ff60a01b1916600160a01b179055565b909192565b6000610af3604051806040016040528060088152602001671a5cdb1a5c5d5a5960c21b815250610aed306108c3565b84611c82565b81610afd306108c3565b101592915050565b600160009054906101000a90046001600160a01b03166001600160a01b0316638da5cb5b6040518163ffffffff1660e01b8152600401602060405180830381865afa158015610b58573d6000803e3d6000fd5b505050506040513d601f19601f82011682018060405250810190610b7c919061200f565b6001600160a01b0316336001600160a01b03161480610baa57503360009081526006602052604090205460ff165b610bc65760405162461bcd60e51b81526004016106869061202c565b6001600160a01b038116610bd957600080fd5b600480546001600160a01b0319166001600160a01b0392909216919091179055565b600160009054906101000a90046001600160a01b03166001600160a01b0316638da5cb5b6040518163ffffffff1660e01b8152600401602060405180830381865afa158015610c4e573d6000803e3d6000fd5b505050506040513d601f19601f82011682018060405250810190610c72919061200f565b6001600160a01b0316336001600160a01b03161480610ca057503360009081526006602052604090205460ff165b610cbc5760405162461bcd60e51b81526004016106869061202c565b600180546001600160a01b0319166001600160a01b0392909216919091179055565b600160009054906101000a90046001600160a01b03166001600160a01b0316638da5cb5b6040518163ffffffff1660e01b8152600401602060405180830381865afa158015610d31573d6000803e3d6000fd5b505050506040513d601f19601f82011682018060405250810190610d55919061200f565b6001600160a01b0316336001600160a01b03161480610d8357503360009081526006602052604090205460ff165b610d9f5760405162461bcd60e51b81526004016106869061202c565b6007601a5460ff166007811115610db857610db8611f60565b14610dc257600080fd5b6000546007546001600160a01b03909116906323b872dd9033903090610dea90600290612119565b6040518463ffffffff1660e01b8152600401610e089392919061213b565b6020604051808303816000875af1158015610e27573d6000803e3d6000fd5b505050506040513d601f19601f82011682018060405250810190610e4b9190612074565b50565b60008060155460ff166003811115610e6857610e68611f60565b1480610e8a5750600160155460ff166003811115610e8857610e88611f60565b145b15610f4c576014546012546040516370a0823160e01b81523060048201526001600160a01b03909116906370a0823190602401602060405180830381865afa158015610eda573d6000803e3d6000fd5b505050506040513d601f19601f82011682018060405250810190610efe91906120d2565b1015610f4c5760405162461bcd60e51b815260206004820152601760248201527f496e73756666696369656e7420636f6c6c61746572616c0000000000000000006044820152606401610686565b600260155460ff166003811115610f6557610f65611f60565b148015610fe65750601d60009054906101000a90046001600160a01b03166001600160a01b031663524d81d36040518163ffffffff1660e01b8152600401602060405180830381865afa158015610fc0573d6000803e3d6000fd5b505050506040513d601f19601f82011682018060405250810190610fe491906120d2565b155b156110205760405162461bcd60e51b815260206004820152600a602482015269027bbb732b939b434b8160b51b6044820152606401610686565b50600190565b6001546000906001600160a01b031633146110535760405162461bcd60e51b8152600401610686906120eb565b60005460015460405163a9059cbb60e01b81526001600160a01b0391821660048201526024810185905291169063a9059cbb906044016020604051808303816000875af11580156110a8573d6000803e3d6000fd5b505050506040513d601f19601f820116820180604052508101906109509190612074565b6000600d541180156110e057506000600e54115b6111155760405162461bcd60e51b81526020600482015260066024820152651c995c185a5960d21b6044820152606401610686565b42601c55601a80546006919060ff19166001835b0217905550565b600160009054906101000a90046001600160a01b03166001600160a01b0316638da5cb5b6040518163ffffffff1660e01b8152600401602060405180830381865afa158015611183573d6000803e3d6000fd5b505050506040513d601f19601f820116820180604052508101906111a7919061200f565b6001600160a01b0316336001600160a01b031614806111d557503360009081526006602052604090205460ff165b6111f15760405162461bcd60e51b81526004016106869061202c565b6006601a5460ff16600781111561120a5761120a611f60565b1461121457600080fd5b601a80546007919060ff1916600183611129565b600080611248601b54611239611b5c565b61124391906120ac565b611cc9565b9050600f5461126e611267600d54600b54611c5190919063ffffffff16565b8390611c51565b61127891906120bf565b91505090565b6001546040516396d6487960e01b815230600482015260009182916001600160a01b03909116906396d6487990602401602060405180830381865afa1580156112cb573d6000803e3d6000fd5b505050506040513d601f19601f820116820180604052508101906112ef9190612074565b156113005750506007546008549091565b50600091829150565b6004546001600160a01b031633146113335760405162461bcd60e51b815260040161068690612051565b6012546001600160a01b031661134857600080fd5b6012546040516323b872dd60e01b81526001600160a01b03909116906323b872dd9061137c9033903090869060040161213b565b6020604051808303816000875af115801561139b573d6000803e3d6000fd5b505050506040513d601f19601f820116820180604052508101906113bf9190612074565b506040518181527faf109966ac3222213230f1317e7851e5a7d44b53f924cb801aa2e80705cefc869060200160405180910390a150565b60006005601a5460ff16600781111561141157611411611f60565b148061143357506007601a5460ff16600781111561143157611431611f60565b145b8061145457506004601a5460ff16600781111561145257611452611f60565b145b156110205750600190565b6004546001600160a01b031633146114895760405162461bcd60e51b815260040161068690612051565b6004601a5460ff1660078111156114a2576114a2611f60565b14806114c457506005601a5460ff1660078111156114c2576114c2611f60565b145b6114fe5760405162461bcd60e51b815260206004820152600b60248201526a139bdd081b585d1d5c995960aa1b6044820152606401610686565b601954431161153d5760405162461bcd60e51b815260206004820152600b60248201526a109b1bd8dac8195c5d585b60aa1b6044820152606401610686565b600060155460ff16600381111561155657611556611f60565b14806115785750600160155460ff16600381111561157657611576611f60565b145b1561158a57611585611cec565b61160a565b601d5460405163157a618f60e11b81526001600160a01b037f00000000000000000000000000000000000000000000000000000000000000008116600483015290911690632af4c31e90602401600060405180830381600087803b1580156115f157600080fd5b505af1158015611605573d6000803e3d6000fd5b505050505b60006004601a5460ff16600781111561162557611625611f60565b14611631576000611634565b60015b60015460405163109d3ea960e11b815230600482015282151560248201529192506001600160a01b03169063213a7d52906044016106bd565b6000546040516323b872dd60e01b81526001600160a01b03909116906323b872dd906116a19033903090869060040161213b565b6020604051808303816000875af11580156116c0573d6000803e3d6000fd5b505050506040513d601f19601f820116820180604052508101906116e49190612074565b5080600360008282546116f791906120bf565b909155505050565b600160009054906101000a90046001600160a01b03166001600160a01b0316638da5cb5b6040518163ffffffff1660e01b8152600401602060405180830381865afa158015611752573d6000803e3d6000fd5b505050506040513d601f19601f82011682018060405250810190611776919061200f565b6001600160a01b0316336001600160a01b031614806117a457503360009081526006602052604090205460ff165b6117c05760405162461bcd60e51b81526004016106869061202c565b6007601a5460ff1660078111156117d9576117d9611f60565b146117e357600080fd5b60125460405163a9059cbb60e01b81526001600160a01b038381166004830152602482018590529091169063a9059cbb906044016020604051808303816000875af1158015611836573d6000803e3d6000fd5b505050506040513d601f19601f8201168201806040525081019061185a9190612074565b505050565b6004546001600160a01b031633146118895760405162461bcd60e51b815260040161068690612051565b6001546040516396d6487960e01b81523060048201526001600160a01b03909116906396d6487990602401602060405180830381865afa1580156118d1573d6000803e3d6000fd5b505050506040513d601f19601f820116820180604052508101906118f59190612074565b6119305760405162461bcd60e51b815260206004820152600c60248201526b139bdd08185c1c1c9bdd995960a21b6044820152606401610686565b6001601a5460ff16600781111561194957611949611f60565b146119895760405162461bcd60e51b815260206004820152601060248201526f105b1c9958591e48189bdc9c9bddd95960821b6044820152606401610686565b601a805460ff19166002179055426016819055601b556008546007546119af91906120bf565b600c55600754600d819055600854600e556119cb903390611da0565b7febf485edb8aa02238294ff7cda84b77f5afafa105e34f3bbf866534b7b5bd40e6007546040516119fe91815260200190565b60405180910390a1565b6001546001600160a01b03163314611a325760405162461bcd60e51b8152600401610686906120eb565b611a3b306108c3565b600255565b6000611a57611a4f83856120bf565b600c54611e73565b600c6000828254611a6891906120ac565b92505081905550611a7b83600d54611e73565b600d6000828254611a8c91906120ac565b92505081905550611a9f82600e54611e73565b600e6000828254611ab091906120ac565b925050819055508260106000828254611ac991906120bf565b925050819055508160116000828254611ae291906120bf565b90915550508215611af557611af5611e89565b6000600d546000148015611b095750600e54155b611b14576000611b17565b60015b949350505050565b600080670de0b6b3a7640000601154601054611b3b91906120bf565b611b4591906120bf565b600854600754611b5591906120bf565b1192915050565b6000611b6b4262f099c06120bf565b905090565b600154600160a01b900460ff1615611b8757600080fd5b6000546040516323b872dd60e01b81526001600160a01b03909116906323b872dd90611bbb9086908690869060040161213b565b6020604051808303816000875af1158015611bda573d6000803e3d6000fd5b505050506040513d601f19601f82011682018060405250810190611bfe9190612074565b50816001600160a01b0316836001600160a01b03167fb694ac7b1acb87c2bd80288c8e244829d9291406c57928137d913bd13664c9dd83604051611c4491815260200190565b60405180910390a3505050565b6000611c668383670de0b6b3a7640000611ede565b9392505050565b6000611c6683670de0b6b3a764000084611ede565b61185a838383604051602401611c9a9392919061215f565b60408051601f198184030181529190526020810180516001600160e01b031663969cdd0360e01b179052611efd565b60006301e13380611ce283670de0b6b3a76400006121bb565b6109509190612119565b6005601a5460ff166007811115611d0557611d05611f60565b1480611d2757506004601a5460ff166007811115611d2557611d25611f60565b145b611d655760405162461bcd60e51b815260206004820152600f60248201526e2637b0b71039ba30ba3ab99032b93960891b6044820152606401610686565b60125460145460405163a9059cbb60e01b815233600482015260248101919091526001600160a01b039091169063a9059cbb90604401610e08565b600154600160a01b900460ff1615611db757600080fd5b60005460405163a9059cbb60e01b81526001600160a01b038481166004830152602482018490529091169063a9059cbb906044016020604051808303816000875af1158015611e0a573d6000803e3d6000fd5b505050506040513d601f19601f82011682018060405250810190611e2e9190612074565b506040518181526001600160a01b0383169030907fb694ac7b1acb87c2bd80288c8e244829d9291406c57928137d913bd13664c9dd9060200160405180910390a35050565b6000818310611e825781611c66565b5090919050565b6000611e93611b5c565b611e9e600a54611f1e565b601654611eab91906120bf565b611eb591906120ac565b9050611ed8611ecf600d54611ec984611cc9565b90611c51565b600b5490611c51565b600e5550565b828202811515841585830485141716611ef657600080fd5b0492915050565b80516a636f6e736f6c652e6c6f67602083016000808483855afa5050505050565b60006109506301e1338083611c51565b6001600160a01b0381168114610e4b57600080fd5b600060208284031215611f5557600080fd5b8135611c6681611f2e565b634e487b7160e01b600052602160045260246000fd5b6020810160088310611f8a57611f8a611f60565b91905290565b600060208284031215611fa257600080fd5b5035919050565b60008060408385031215611fbc57600080fd5b50508035926020909101359150565b6020810160048310611f8a57611f8a611f60565b60008060408385031215611ff257600080fd5b82359150602083013561200481611f2e565b809150509250929050565b60006020828403121561202157600080fd5b8151611c6681611f2e565b6020808252600b908201526a08585d5d1a1bdc9a5e995960aa1b604082015260600190565b60208082526009908201526810aaba34b634bd32b960b91b604082015260600190565b60006020828403121561208657600080fd5b81518015158114611c6657600080fd5b634e487b7160e01b600052601160045260246000fd5b8181038181111561095057610950612096565b8082018082111561095057610950612096565b6000602082840312156120e457600080fd5b5051919050565b60208082526014908201527318d85b1b195c881b5d5cdd081899481d985d5b1d60621b604082015260600190565b60008261213657634e487b7160e01b600052601260045260246000fd5b500490565b6001600160a01b039384168152919092166020820152604081019190915260600190565b606081526000845180606084015260005b8181101561218d5760208188018101516080868401015201612170565b506000608082850101526080601f19601f830116840101915050836020830152826040830152949350505050565b80820281158282048414176109505761095061209656fea2646970667358221220424ff44264debf404f5534cf5318e6206ff2f5b4b651567069b72b3f370731c564736f6c63430008110033608060405234801561001057600080fd5b506040516109ab3803806109ab83398101604081905261002f9161007c565b600080546001600160a01b039384166001600160a01b031991821617909155600180549290931691161790556100af565b80516001600160a01b038116811461007757600080fd5b919050565b6000806040838503121561008f57600080fd5b61009883610060565b91506100a660208401610060565b90509250929050565b6108ed806100be6000396000f3fe608060405234801561001057600080fd5b50600436106100935760003560e01c8063524d81d311610066578063524d81d31461018c578063893d20e81461019d57806399f3c79b146101c2578063bade64b1146101fe578063d4f804cf1461021157600080fd5b806301a3f256146100985780630eaad4891461012e5780632af4c31e146101665780633ac47fff14610179575b600080fd5b61012c6100a63660046106bd565b6002805460018082019092557f405787fa12a823e0f2b7631cc41b3ba8828b3321ca811111fa75cd3aa3bb5ace0180546001600160a01b0319166001600160a01b039490941693841790556000928352600460209081526040808520805460ff191690931790925560039052909120805463ffffffff191660e09290921c919091179055565b005b61015161013c366004610701565b60046020526000908152604090205460ff1681565b60405190151581526020015b60405180910390f35b61012c610174366004610701565b610224565b61012c61018736600461076c565b610291565b60025460405190815260200161015d565b6000546001600160a01b03165b6040516001600160a01b03909116815260200161015d565b6101e56101d0366004610701565b60036020526000908152604090205460e01b81565b6040516001600160e01b0319909116815260200161015d565b6101aa61020c3660046107ea565b610512565b61012c61021f366004610803565b61053c565b6000546001600160a01b0316331461026f5760405162461bcd60e51b81526020600482015260096024820152682737ba1037bbb732b960b91b60448201526064015b60405180910390fd5b600080546001600160a01b0319166001600160a01b0392909216919091179055565b6000546001600160a01b031633146102a857600080fd5b6001600160a01b03851660009081526004602052604090205460ff166102cd57600080fd5b6001600160a01b03841630146102fe576001600160a01b0385166000908152600460205260409020805460ff191690555b80156103dc576001600160a01b038581166000818152600360205260408082205490519388166024850152909260e09190911b9060440160408051601f198184030181529181526020820180516001600160e01b03166001600160e01b03199094169390931790925290516103739190610856565b6000604051808303816000865af19150503d80600081146103b0576040519150601f19603f3d011682016040523d82523d6000602084013e6103b5565b606091505b50509050806103d65760405162461bcd60e51b815260040161026690610885565b5061050b565b6001600160a01b038516600090815260036020908152604091829020548251601f860183900483028101830190935284835260e01b6001600160e01b0319169161044091869086908190840183828082843760009201919091525061068692505050565b6001600160e01b0319160361048a5760405162461bcd60e51b815260206004820152601060248201526f199d5b98c81b9bdd08185b1b1bddd95960821b6044820152606401610266565b6000856001600160a01b031684846040516104a69291906108a7565b6000604051808303816000865af19150503d80600081146104e3576040519150601f19603f3d011682016040523d82523d6000602084013e6104e8565b606091505b50509050806105095760405162461bcd60e51b815260040161026690610885565b505b5050505050565b6002818154811061052257600080fd5b6000918252602090912001546001600160a01b0316905081565b6001546001600160a01b0316331461055357600080fd5b6001600160a01b038316600090815260036020908152604091829020548251601f850183900483028101830190935283835260e01b6001600160e01b031916916105b791859085908190840183828082843760009201919091525061068692505050565b6001600160e01b031916036106015760405162461bcd60e51b815260206004820152601060248201526f199d5b98c81b9bdd08185b1b1bddd95960821b6044820152606401610266565b6000836001600160a01b0316838360405161061d9291906108a7565b6000604051808303816000865af19150503d806000811461065a576040519150601f19603f3d011682016040523d82523d6000602084013e61065f565b606091505b50509050806106805760405162461bcd60e51b815260040161026690610885565b50505050565b6000815160000361069957506000919050565b506004015190565b80356001600160a01b03811681146106b857600080fd5b919050565b600080604083850312156106d057600080fd5b6106d9836106a1565b915060208301356001600160e01b0319811681146106f657600080fd5b809150509250929050565b60006020828403121561071357600080fd5b61071c826106a1565b9392505050565b60008083601f84011261073557600080fd5b50813567ffffffffffffffff81111561074d57600080fd5b60208301915083602082850101111561076557600080fd5b9250929050565b60008060008060006080868803121561078457600080fd5b61078d866106a1565b945061079b602087016106a1565b9350604086013567ffffffffffffffff8111156107b757600080fd5b6107c388828901610723565b909450925050606086013580151581146107dc57600080fd5b809150509295509295909350565b6000602082840312156107fc57600080fd5b5035919050565b60008060006040848603121561081857600080fd5b610821846106a1565b9250602084013567ffffffffffffffff81111561083d57600080fd5b61084986828701610723565b9497909650939450505050565b6000825160005b81811015610877576020818601810151858301520161085d565b506000920191825250919050565b602080825260089082015267217375636365737360c01b604082015260600190565b818382376000910190815291905056fea26469706673582212207d3492f72ce8afc1ebd44bfaf7e4e6af094553e4cb78bf43fe70d17488e244aa64736f6c63430008110033",
    "linkReferences": {}
  },
  "methodIdentifiers": {
    "Utilizer()": "350896fe",
    "accumulated_interest()": "dbe57fe8",
    "balanceOfUnderlying(address)": "3af9e669",
    "beginGracePeriod()": "857f37cf",
    "borrower()": "7df1f1b9",
    "collateral()": "d8dfeb45",
    "collateral_balance()": "10d6f857",
    "collateral_type()": "7003dc66",
    "declareDefault()": "8a7a2d83",
    "depositCollateral(uint256)": "bad4a01f",
    "drawdown()": "e77ef21f",
    "estimatedTotalAssets()": "efbb5cb0",
    "getApprovedBorrowConditions()": "b93a02f3",
    "getCollateralRatio()": "cd377c53",
    "getCurrentLoanStatus()": "767c3053",
    "getMaturityBalance()": "1104aafd",
    "getProxy()": "933a9ce8",
    "getRemainingOwed()": "187526d9",
    "instrumentApprovalCondition()": "83e754a0",
    "interestOwed()": "21856b36",
    "interestRepayed()": "e91145dc",
    "interestToRepay()": "aeae11aa",
    "isLiquid(uint256)": "537d9409",
    "isLiquidatable(address)": "042e02cf",
    "isLocked()": "a4e2d634",
    "liquidateAllPositions()": "50bb4beb",
    "liquidateOwnership(address)": "15c98ece",
    "liquidatePosition(uint256)": "cdddd4e5",
    "loanStatus()": "074ca966",
    "onDefault()": "6febd543",
    "onMarketApproval(uint256,uint256)": "416288dd",
    "onMaturity()": "ca0565f5",
    "oracle()": "7dc0d1d0",
    "prepareWithdraw()": "49dcf4ed",
    "principalOwed()": "19350114",
    "principalRepayed()": "3467cd7f",
    "pullRawFunds(uint256)": "d832f791",
    "pushCollateralToVault(uint256,address)": "db37546d",
    "readyForWithdrawal()": "bdf0f253",
    "redeemUnderlying(uint256)": "852a12e3",
    "repay(uint256)": "371fd8e6",
    "setGracePeriod()": "424cfe72",
    "setUtilizer(address)": "57b25996",
    "setVault(address)": "6817031b",
    "store_internal_balance()": "f3aa68d3",
    "totalOwed()": "e7fa9f7d",
    "underlying()": "6f307dc3",
    "validators(uint256)": "35aa2e44",
    "vault()": "fbfa77cf"
  },
  "id": 29
}