{
  "abi": [
    {
      "inputs": [
        {
          "internalType": "address",
          "name": "vault",
          "type": "address"
        },
        {
          "internalType": "address",
          "name": "_borrower",
          "type": "address"
        },
        {
          "internalType": "uint256",
          "name": "_principal",
          "type": "uint256"
        },
        {
          "internalType": "uint256",
          "name": "_notionalInterest",
          "type": "uint256"
        },
        {
          "internalType": "uint256",
          "name": "_duration",
          "type": "uint256"
        },
        {
          "internalType": "uint256",
          "name": "_faceValue",
          "type": "uint256"
        },
        {
          "internalType": "address",
          "name": "_collateral",
          "type": "address"
        },
        {
          "internalType": "address",
          "name": "_oracle",
          "type": "address"
        },
        {
          "internalType": "uint256",
          "name": "_collateral_balance",
          "type": "uint256"
        },
        {
          "internalType": "uint256",
          "name": "_collateral_type",
          "type": "uint256"
        }
      ],
      "stateMutability": "nonpayable",
      "type": "constructor"
    },
    {
      "inputs": [],
      "name": "Utilizer",
      "outputs": [
        {
          "internalType": "address",
          "name": "",
          "type": "address"
        }
      ],
      "stateMutability": "view",
      "type": "function"
    },
    {
      "inputs": [
        {
          "internalType": "address",
          "name": "user",
          "type": "address"
        }
      ],
      "name": "balanceOfUnderlying",
      "outputs": [
        {
          "internalType": "uint256",
          "name": "",
          "type": "uint256"
        }
      ],
      "stateMutability": "view",
      "type": "function"
    },
    {
      "inputs": [],
      "name": "beginGracePeriod",
      "outputs": [],
      "stateMutability": "nonpayable",
      "type": "function"
    },
    {
      "inputs": [],
      "name": "borrower",
      "outputs": [
        {
          "internalType": "address",
          "name": "",
          "type": "address"
        }
      ],
      "stateMutability": "view",
      "type": "function"
    },
    {
      "inputs": [],
      "name": "collateral",
      "outputs": [
        {
          "internalType": "address",
          "name": "",
          "type": "address"
        }
      ],
      "stateMutability": "view",
      "type": "function"
    },
    {
      "inputs": [],
      "name": "collateral_balance",
      "outputs": [
        {
          "internalType": "uint256",
          "name": "",
          "type": "uint256"
        }
      ],
      "stateMutability": "view",
      "type": "function"
    },
    {
      "inputs": [],
      "name": "collateral_type",
      "outputs": [
        {
          "internalType": "enum CreditLine.CollateralType",
          "name": "",
          "type": "uint8"
        }
      ],
      "stateMutability": "view",
      "type": "function"
    },
    {
      "inputs": [],
      "name": "declareDefault",
      "outputs": [],
      "stateMutability": "nonpayable",
      "type": "function"
    },
    {
      "inputs": [
        {
          "internalType": "uint256",
          "name": "amount",
          "type": "uint256"
        }
      ],
      "name": "depositCollateral",
      "outputs": [],
      "stateMutability": "nonpayable",
      "type": "function"
    },
    {
      "inputs": [],
      "name": "drawdown",
      "outputs": [],
      "stateMutability": "nonpayable",
      "type": "function"
    },
    {
      "inputs": [],
      "name": "estimatedTotalAssets",
      "outputs": [
        {
          "internalType": "uint256",
          "name": "",
          "type": "uint256"
        }
      ],
      "stateMutability": "view",
      "type": "function"
    },
    {
      "inputs": [],
      "name": "getApprovedBorrowConditions",
      "outputs": [
        {
          "internalType": "uint256",
          "name": "",
          "type": "uint256"
        },
        {
          "internalType": "uint256",
          "name": "",
          "type": "uint256"
        }
      ],
      "stateMutability": "view",
      "type": "function"
    },
    {
      "inputs": [],
      "name": "getCollateralRatio",
      "outputs": [
        {
          "internalType": "uint256",
          "name": "",
          "type": "uint256"
        }
      ],
      "stateMutability": "view",
      "type": "function"
    },
    {
      "inputs": [],
      "name": "getCurrentLoanStatus",
      "outputs": [
        {
          "internalType": "uint256",
          "name": "",
          "type": "uint256"
        }
      ],
      "stateMutability": "view",
      "type": "function"
    },
    {
      "inputs": [],
      "name": "getMaturityBalance",
      "outputs": [
        {
          "internalType": "uint256",
          "name": "",
          "type": "uint256"
        }
      ],
      "stateMutability": "view",
      "type": "function"
    },
    {
      "inputs": [],
      "name": "getProxy",
      "outputs": [
        {
          "internalType": "address",
          "name": "",
          "type": "address"
        }
      ],
      "stateMutability": "view",
      "type": "function"
    },
    {
      "inputs": [],
      "name": "getRemainingOwed",
      "outputs": [
        {
          "internalType": "uint256",
          "name": "",
          "type": "uint256"
        },
        {
          "internalType": "uint256",
          "name": "",
          "type": "uint256"
        }
      ],
      "stateMutability": "view",
      "type": "function"
    },
    {
      "inputs": [],
      "name": "instrumentApprovalCondition",
      "outputs": [
        {
          "internalType": "bool",
          "name": "",
          "type": "bool"
        }
      ],
      "stateMutability": "view",
      "type": "function"
    },
    {
      "inputs": [],
      "name": "interestToRepay",
      "outputs": [
        {
          "internalType": "uint256",
          "name": "",
          "type": "uint256"
        }
      ],
      "stateMutability": "view",
      "type": "function"
    },
    {
      "inputs": [
        {
          "internalType": "uint256",
          "name": "amount",
          "type": "uint256"
        }
      ],
      "name": "isLiquid",
      "outputs": [
        {
          "internalType": "bool",
          "name": "",
          "type": "bool"
        }
      ],
      "stateMutability": "view",
      "type": "function"
    },
    {
      "inputs": [
        {
          "internalType": "address",
          "name": "collateral",
          "type": "address"
        }
      ],
      "name": "isLiquidatable",
      "outputs": [
        {
          "internalType": "bool",
          "name": "",
          "type": "bool"
        }
      ],
      "stateMutability": "view",
      "type": "function"
    },
    {
      "inputs": [],
      "name": "isLocked",
      "outputs": [
        {
          "internalType": "bool",
          "name": "",
          "type": "bool"
        }
      ],
      "stateMutability": "view",
      "type": "function"
    },
    {
      "inputs": [],
      "name": "liquidateAllPositions",
      "outputs": [
        {
          "internalType": "uint256",
          "name": "_amountFreed",
          "type": "uint256"
        }
      ],
      "stateMutability": "nonpayable",
      "type": "function"
    },
    {
      "inputs": [
        {
          "internalType": "address",
          "name": "buyer",
          "type": "address"
        }
      ],
      "name": "liquidateOwnership",
      "outputs": [],
      "stateMutability": "nonpayable",
      "type": "function"
    },
    {
      "inputs": [
        {
          "internalType": "uint256",
          "name": "_amountNeeded",
          "type": "uint256"
        }
      ],
      "name": "liquidatePosition",
      "outputs": [
        {
          "internalType": "uint256",
          "name": "_liquidatedAmount",
          "type": "uint256"
        },
        {
          "internalType": "uint256",
          "name": "_loss",
          "type": "uint256"
        }
      ],
      "stateMutability": "nonpayable",
      "type": "function"
    },
    {
      "inputs": [],
      "name": "loanStatus",
      "outputs": [
        {
          "internalType": "enum CreditLine.LoanStatus",
          "name": "",
          "type": "uint8"
        }
      ],
      "stateMutability": "view",
      "type": "function"
    },
    {
      "inputs": [],
      "name": "onDefault",
      "outputs": [],
      "stateMutability": "nonpayable",
      "type": "function"
    },
    {
      "inputs": [
        {
          "internalType": "uint256",
          "name": "max_principal",
          "type": "uint256"
        },
        {
          "internalType": "uint256",
          "name": "quoted_yield",
          "type": "uint256"
        }
      ],
      "name": "onMarketApproval",
      "outputs": [],
      "stateMutability": "nonpayable",
      "type": "function"
    },
    {
      "inputs": [],
      "name": "onMaturity",
      "outputs": [],
      "stateMutability": "nonpayable",
      "type": "function"
    },
    {
      "inputs": [],
      "name": "oracle",
      "outputs": [
        {
          "internalType": "address",
          "name": "",
          "type": "address"
        }
      ],
      "stateMutability": "view",
      "type": "function"
    },
    {
      "inputs": [],
      "name": "prepareWithdraw",
      "outputs": [
        {
          "internalType": "uint256",
          "name": "_profit",
          "type": "uint256"
        },
        {
          "internalType": "uint256",
          "name": "_loss",
          "type": "uint256"
        },
        {
          "internalType": "uint256",
          "name": "_debtPayment",
          "type": "uint256"
        }
      ],
      "stateMutability": "nonpayable",
      "type": "function"
    },
    {
      "inputs": [
        {
          "internalType": "uint256",
          "name": "amount",
          "type": "uint256"
        }
      ],
      "name": "pullRawFunds",
      "outputs": [],
      "stateMutability": "nonpayable",
      "type": "function"
    },
    {
      "inputs": [
        {
          "internalType": "uint256",
          "name": "amount",
          "type": "uint256"
        },
        {
          "internalType": "address",
          "name": "to",
          "type": "address"
        }
      ],
      "name": "pushCollateralToVault",
      "outputs": [],
      "stateMutability": "nonpayable",
      "type": "function"
    },
    {
      "inputs": [],
      "name": "readyForWithdrawal",
      "outputs": [
        {
          "internalType": "bool",
          "name": "",
          "type": "bool"
        }
      ],
      "stateMutability": "view",
      "type": "function"
    },
    {
      "inputs": [
        {
          "internalType": "uint256",
          "name": "amount",
          "type": "uint256"
        }
      ],
      "name": "redeemUnderlying",
      "outputs": [
        {
          "internalType": "bool",
          "name": "",
          "type": "bool"
        }
      ],
      "stateMutability": "nonpayable",
      "type": "function"
    },
    {
      "inputs": [
        {
          "internalType": "uint256",
          "name": "_repay_amount",
          "type": "uint256"
        }
      ],
      "name": "repay",
      "outputs": [],
      "stateMutability": "nonpayable",
      "type": "function"
    },
    {
      "inputs": [],
      "name": "setGracePeriod",
      "outputs": [],
      "stateMutability": "nonpayable",
      "type": "function"
    },
    {
      "inputs": [
        {
          "internalType": "address",
          "name": "_Utilizer",
          "type": "address"
        }
      ],
      "name": "setUtilizer",
      "outputs": [],
      "stateMutability": "nonpayable",
      "type": "function"
    },
    {
      "inputs": [
        {
          "internalType": "address",
          "name": "newVault",
          "type": "address"
        }
      ],
      "name": "setVault",
      "outputs": [],
      "stateMutability": "nonpayable",
      "type": "function"
    },
    {
      "inputs": [],
      "name": "store_internal_balance",
      "outputs": [],
      "stateMutability": "nonpayable",
      "type": "function"
    },
    {
      "inputs": [],
      "name": "underlying",
      "outputs": [
        {
          "internalType": "contract ERC20",
          "name": "",
          "type": "address"
        }
      ],
      "stateMutability": "view",
      "type": "function"
    },
    {
      "inputs": [
        {
          "internalType": "uint256",
          "name": "",
          "type": "uint256"
        }
      ],
      "name": "validators",
      "outputs": [
        {
          "internalType": "address",
          "name": "",
          "type": "address"
        }
      ],
      "stateMutability": "view",
      "type": "function"
    },
    {
      "inputs": [],
      "name": "vault",
      "outputs": [
        {
          "internalType": "contract Vault",
          "name": "",
          "type": "address"
        }
      ],
      "stateMutability": "view",
      "type": "function"
    }
  ],
  "bytecode": {
    "object": "0x60a06040523480156200001157600080fd5b5060405162002fb538038062002fb58339810160408190526200003491620002dc565b600180546001600160a01b0319166001600160a01b038c16908117909155604080516362eb326360e11b815290518c928c92909163c5d664c6916004808201926020929091908290030181865afa15801562000094573d6000803e3d6000fd5b505050506040513d601f19601f82011682018060405250810190620000ba919062000383565b600080546001600160a01b0319166001600160a01b0392831690811790915560405163095ea7b360e01b8152918416600483015260001960248301529063095ea7b3906044016020604051808303816000875af115801562000120573d6000803e3d6000fd5b505050506040513d601f19601f82011682018060405250810190620001469190620003aa565b50600480546001600160a01b0319166001600160a01b039283161790558a16608052506200017d88670de0b6b3a7640000620003ce565b6007556200019487670de0b6b3a7640000620003ce565b600855600a869055620001b085670de0b6b3a7640000620003ce565b600955601280546001600160a01b038087166001600160a01b0319928316179092556013805492861692909116919091179055620001f782670de0b6b3a7640000620003ce565b6014558060038111156200020f576200020f620003fa565b6015805460ff191660018360038111156200022e576200022e620003fa565b0217905550601a805460ff1916905560405130908a906200024f90620002b5565b6001600160a01b03928316815291166020820152604001604051809103906000f08015801562000283573d6000803e3d6000fd5b50601d80546001600160a01b0319166001600160a01b0392909216919091179055506200041098505050505050505050565b6109ab806200260a83390190565b6001600160a01b0381168114620002d957600080fd5b50565b6000806000806000806000806000806101408b8d031215620002fd57600080fd5b8a516200030a81620002c3565b60208c0151909a506200031d81620002c3565b8099505060408b0151975060608b0151965060808b0151955060a08b0151945060c08b01516200034d81620002c3565b60e08c01519094506200036081620002c3565b809350506101008b015191506101208b015190509295989b9194979a5092959850565b6000602082840312156200039657600080fd5b8151620003a381620002c3565b9392505050565b600060208284031215620003bd57600080fd5b81518015158114620003a357600080fd5b8082028115828204841417620003f457634e487b7160e01b600052601160045260246000fd5b92915050565b634e487b7160e01b600052602160045260246000fd5b6080516121d76200043360003960008181610428015261148501526121d76000f3fe608060405234801561001057600080fd5b50600436106102695760003560e01c80637dc0d1d011610151578063bdf0f253116100c3578063d8dfeb4511610087578063d8dfeb45146104f4578063db37546d14610507578063e77ef21f1461051a578063efbb5cb01461039b578063f3aa68d314610522578063fbfa77cf1461052a57600080fd5b8063bdf0f253146104bb578063ca0565f5146104c3578063cd377c531461039b578063cdddd4e5146104cb578063d832f791146104e157600080fd5b80638a7a2d83116101155780638a7a2d831461046d578063933a9ce814610475578063a4e2d63414610486578063aeae11aa14610498578063b93a02f3146104a0578063bad4a01f146104a857600080fd5b80637dc0d1d0146104105780637df1f1b91461042357806383e754a01461044a578063852a12e314610452578063857f37cf1461046557600080fd5b8063416288dd116101ea57806357b25996116101ae57806357b25996146103b55780636817031b146103c85780636f307dc3146103db5780636febd543146103ee5780637003dc66146103f6578063767c30531461039b57600080fd5b8063416288dd14610365578063424cfe72146102e357806349dcf4ed1461037857806350bb4beb1461039b578063537d9409146103a257600080fd5b8063187526d911610231578063187526d9146102e5578063350896fe1461030157806335aa2e441461032c578063371fd8e61461033f5780633af9e6691461035257600080fd5b8063042e02cf1461026e578063074ca9661461029757806310d6f857146102b15780631104aafd146102c857806315c98ece146102d0575b600080fd5b61028261027c366004611f6e565b50600090565b60405190151581526020015b60405180910390f35b601a546102a49060ff1681565b60405161028e9190611fa1565b6102ba60145481565b60405190815260200161028e565b6002546102ba565b6102e36102de366004611f6e565b61053d565b005b600d54600e545b6040805192835260208301919091520161028e565b600454610314906001600160a01b031681565b6040516001600160a01b03909116815260200161028e565b61031461033a366004611fbb565b61066a565b6102e361034d366004611fbb565b610694565b6102ba610360366004611f6e565b610808565b6102e3610373366004611fd4565b610909565b61038061096b565b6040805193845260208401929092529082015260600161028e565b60006102ba565b6102826103b0366004611fbb565b610a05565b6102e36103c3366004611f6e565b610a19565b6102e36103d6366004611f6e565b610b0f565b600054610314906001600160a01b031681565b6102e3610bf2565b6015546104039060ff1681565b60405161028e9190611ff6565b601354610314906001600160a01b031681565b6103147f000000000000000000000000000000000000000000000000000000000000000081565b610282610d62565b610282610460366004611fbb565b610f3a565b6102e3610fe0565b6102e3611044565b601d546001600160a01b0316610314565b600154600160a01b900460ff16610282565b6102ba61113c565b6102ec611192565b6102e36104b6366004611fbb565b61121d565b6102826112d7565b6102e3611340565b6102ec6104d9366004611fbb565b600080915091565b6102e36104ef366004611fbb565b61154e565b601254610314906001600160a01b031681565b6102e361051536600461200a565b6115e0565b6102e3611741565b6102e36118ad565b600154610314906001600160a01b031681565b600160009054906101000a90046001600160a01b03166001600160a01b0316638da5cb5b6040518163ffffffff1660e01b8152600401602060405180830381865afa158015610590573d6000803e3d6000fd5b505050506040513d601f19601f820116820180604052508101906105b4919061203a565b6001600160a01b0316336001600160a01b031614806105e257503360009081526006602052604090205460ff165b6106075760405162461bcd60e51b81526004016105fe90612057565b60405180910390fd5b601d5460405163157a618f60e11b81526001600160a01b03838116600483015290911690632af4c31e906024015b600060405180830381600087803b15801561064f57600080fd5b505af1158015610663573d6000803e3d6000fd5b5050505050565b6005818154811061067a57600080fd5b6000918252602090912001546001600160a01b0316905081565b6004546001600160a01b031633146106be5760405162461bcd60e51b81526004016105fe9061207c565b6001546040516396d6487960e01b81523060048201526001600160a01b03909116906396d6487990602401602060405180830381865afa158015610706573d6000803e3d6000fd5b505050506040513d601f19601f8201168201806040525081019061072a919061209f565b6107655760405162461bcd60e51b815260206004820152600c60248201526b139bdd08185c1c1c9bdd995960a21b60448201526064016105fe565b600061076f61113c565b905060008282811061079e5761078583856120d7565b61078f90836120ea565b6000600f5591508290506107ac565b6107a881846120d7565b600f555b6107b682826119d1565b156107ec57436019556107c7611ab0565b156107de57601a805460ff191660041790556107ec565b601a805460ff191660051790555b6107f4611aed565b601b55610802333086611b01565b50505050565b6000306001600160a01b0383160361089b576003546000546040516370a0823160e01b81526001600160a01b038581166004830152909116906370a0823190602401602060405180830381865afa158015610867573d6000803e3d6000fd5b505050506040513d601f19601f8201168201806040525081019061088b91906120fd565b61089591906120d7565b92915050565b6000546040516370a0823160e01b81526001600160a01b038481166004830152909116906370a0823190602401602060405180830381865afa1580156108e5573d6000803e3d6000fd5b505050506040513d601f19601f8201168201806040525081019061089591906120fd565b6001546001600160a01b031633146109335760405162461bcd60e51b81526004016105fe90612116565b60078290556008819055600a546109559061094e9084611c7b565b8290611c97565b600b555050601a805460ff19166001179055565b565b600154600090819081906001600160a01b0316331461099c5760405162461bcd60e51b81526004016105fe90612116565b6109a46112d7565b6109e85760405162461bcd60e51b81526020600482015260156024820152746e6f7420726561647920746f20776974686472617760581b60448201526064016105fe565b610a006001805460ff60a01b1916600160a01b179055565b909192565b600081610a1130610808565b101592915050565b600160009054906101000a90046001600160a01b03166001600160a01b0316638da5cb5b6040518163ffffffff1660e01b8152600401602060405180830381865afa158015610a6c573d6000803e3d6000fd5b505050506040513d601f19601f82011682018060405250810190610a90919061203a565b6001600160a01b0316336001600160a01b03161480610abe57503360009081526006602052604090205460ff165b610ada5760405162461bcd60e51b81526004016105fe90612057565b6001600160a01b038116610aed57600080fd5b600480546001600160a01b0319166001600160a01b0392909216919091179055565b600160009054906101000a90046001600160a01b03166001600160a01b0316638da5cb5b6040518163ffffffff1660e01b8152600401602060405180830381865afa158015610b62573d6000803e3d6000fd5b505050506040513d601f19601f82011682018060405250810190610b86919061203a565b6001600160a01b0316336001600160a01b03161480610bb457503360009081526006602052604090205460ff165b610bd05760405162461bcd60e51b81526004016105fe90612057565b600180546001600160a01b0319166001600160a01b0392909216919091179055565b600160009054906101000a90046001600160a01b03166001600160a01b0316638da5cb5b6040518163ffffffff1660e01b8152600401602060405180830381865afa158015610c45573d6000803e3d6000fd5b505050506040513d601f19601f82011682018060405250810190610c69919061203a565b6001600160a01b0316336001600160a01b03161480610c9757503360009081526006602052604090205460ff165b610cb35760405162461bcd60e51b81526004016105fe90612057565b6007601a5460ff166007811115610ccc57610ccc611f8b565b14610cd657600080fd5b6000546007546001600160a01b03909116906323b872dd9033903090610cfe90600290612144565b6040518463ffffffff1660e01b8152600401610d1c93929190612166565b6020604051808303816000875af1158015610d3b573d6000803e3d6000fd5b505050506040513d601f19601f82011682018060405250810190610d5f919061209f565b50565b60008060155460ff166003811115610d7c57610d7c611f8b565b1480610d9e5750600160155460ff166003811115610d9c57610d9c611f8b565b145b15610e60576014546012546040516370a0823160e01b81523060048201526001600160a01b03909116906370a0823190602401602060405180830381865afa158015610dee573d6000803e3d6000fd5b505050506040513d601f19601f82011682018060405250810190610e1291906120fd565b1015610e605760405162461bcd60e51b815260206004820152601760248201527f496e73756666696369656e7420636f6c6c61746572616c00000000000000000060448201526064016105fe565b600260155460ff166003811115610e7957610e79611f8b565b148015610efa5750601d60009054906101000a90046001600160a01b03166001600160a01b031663524d81d36040518163ffffffff1660e01b8152600401602060405180830381865afa158015610ed4573d6000803e3d6000fd5b505050506040513d601f19601f82011682018060405250810190610ef891906120fd565b155b15610f345760405162461bcd60e51b815260206004820152600a602482015269027bbb732b939b434b8160b51b60448201526064016105fe565b50600190565b6001546000906001600160a01b03163314610f675760405162461bcd60e51b81526004016105fe90612116565b60005460015460405163a9059cbb60e01b81526001600160a01b0391821660048201526024810185905291169063a9059cbb906044016020604051808303816000875af1158015610fbc573d6000803e3d6000fd5b505050506040513d601f19601f82011682018060405250810190610895919061209f565b6000600d54118015610ff457506000600e54115b6110295760405162461bcd60e51b81526020600482015260066024820152651c995c185a5960d21b60448201526064016105fe565b42601c55601a80546006919060ff19166001835b0217905550565b600160009054906101000a90046001600160a01b03166001600160a01b0316638da5cb5b6040518163ffffffff1660e01b8152600401602060405180830381865afa158015611097573d6000803e3d6000fd5b505050506040513d601f19601f820116820180604052508101906110bb919061203a565b6001600160a01b0316336001600160a01b031614806110e957503360009081526006602052604090205460ff165b6111055760405162461bcd60e51b81526004016105fe90612057565b6006601a5460ff16600781111561111e5761111e611f8b565b1461112857600080fd5b601a80546007919060ff191660018361103d565b60008061115c601b5461114d611aed565b61115791906120d7565b611cac565b9050600f5461118261117b600d54600b54611c7b90919063ffffffff16565b8390611c7b565b61118c91906120ea565b91505090565b6001546040516396d6487960e01b815230600482015260009182916001600160a01b03909116906396d6487990602401602060405180830381865afa1580156111df573d6000803e3d6000fd5b505050506040513d601f19601f82011682018060405250810190611203919061209f565b156112145750506007546008549091565b50600091829150565b6004546001600160a01b031633146112475760405162461bcd60e51b81526004016105fe9061207c565b6012546001600160a01b031661125c57600080fd5b6012546040516323b872dd60e01b81526001600160a01b03909116906323b872dd9061129090339030908690600401612166565b6020604051808303816000875af11580156112af573d6000803e3d6000fd5b505050506040513d601f19601f820116820180604052508101906112d3919061209f565b5050565b60006005601a5460ff1660078111156112f2576112f2611f8b565b148061131457506007601a5460ff16600781111561131257611312611f8b565b145b8061133557506004601a5460ff16600781111561133357611333611f8b565b145b15610f345750600190565b6004546001600160a01b0316331461136a5760405162461bcd60e51b81526004016105fe9061207c565b6004601a5460ff16600781111561138357611383611f8b565b14806113a557506005601a5460ff1660078111156113a3576113a3611f8b565b145b6113df5760405162461bcd60e51b815260206004820152600b60248201526a139bdd081b585d1d5c995960aa1b60448201526064016105fe565b601954431161141e5760405162461bcd60e51b815260206004820152600b60248201526a109b1bd8dac8195c5d585b60aa1b60448201526064016105fe565b600060155460ff16600381111561143757611437611f8b565b14806114595750600160155460ff16600381111561145757611457611f8b565b145b1561146b57611466611ccf565b6114eb565b601d5460405163157a618f60e11b81526001600160a01b037f00000000000000000000000000000000000000000000000000000000000000008116600483015290911690632af4c31e90602401600060405180830381600087803b1580156114d257600080fd5b505af11580156114e6573d6000803e3d6000fd5b505050505b60006004601a5460ff16600781111561150657611506611f8b565b14611512576000611515565b60015b60015460405163109d3ea960e11b815230600482015282151560248201529192506001600160a01b03169063213a7d5290604401610635565b6000546040516323b872dd60e01b81526001600160a01b03909116906323b872dd9061158290339030908690600401612166565b6020604051808303816000875af11580156115a1573d6000803e3d6000fd5b505050506040513d601f19601f820116820180604052508101906115c5919061209f565b5080600360008282546115d891906120ea565b909155505050565b600160009054906101000a90046001600160a01b03166001600160a01b0316638da5cb5b6040518163ffffffff1660e01b8152600401602060405180830381865afa158015611633573d6000803e3d6000fd5b505050506040513d601f19601f82011682018060405250810190611657919061203a565b6001600160a01b0316336001600160a01b0316148061168557503360009081526006602052604090205460ff165b6116a15760405162461bcd60e51b81526004016105fe90612057565b6007601a5460ff1660078111156116ba576116ba611f8b565b146116c457600080fd5b60125460405163a9059cbb60e01b81526001600160a01b038381166004830152602482018590529091169063a9059cbb906044015b6020604051808303816000875af1158015611718573d6000803e3d6000fd5b505050506040513d601f19601f8201168201806040525081019061173c919061209f565b505050565b6004546001600160a01b0316331461176b5760405162461bcd60e51b81526004016105fe9061207c565b6001546040516396d6487960e01b81523060048201526001600160a01b03909116906396d6487990602401602060405180830381865afa1580156117b3573d6000803e3d6000fd5b505050506040513d601f19601f820116820180604052508101906117d7919061209f565b6118125760405162461bcd60e51b815260206004820152600c60248201526b139bdd08185c1c1c9bdd995960a21b60448201526064016105fe565b6001601a5460ff16600781111561182b5761182b611f8b565b1461186b5760405162461bcd60e51b815260206004820152601060248201526f105b1c9958591e48189bdc9c9bddd95960821b60448201526064016105fe565b601a805460ff19166002179055426016819055601b5560085460075461189191906120ea565b600c55600754600d819055600854600e55610969903390611d83565b6001546001600160a01b031633146118d75760405162461bcd60e51b81526004016105fe90612116565b6118e030610808565b60025560015460408051637e0b9fe360e11b815290516001600160a01b039092169163fc173fc6916004808201926020929091908290030181865afa15801561192d573d6000803e3d6000fd5b505050506040513d601f19601f82011682018060405250810190611951919061209f565b1561096957600154600254604051634b674ead60e11b81526001600160a01b03909216916396ce9d5a9161198b9160040190815260200190565b602060405180830381865afa1580156119a8573d6000803e3d6000fd5b505050506040513d601f19601f820116820180604052508101906119cc91906120fd565b600255565b60006119e86119e083856120ea565b600c54611ebf565b600c60008282546119f991906120d7565b92505081905550611a0c83600d54611ebf565b600d6000828254611a1d91906120d7565b92505081905550611a3082600e54611ebf565b600e6000828254611a4191906120d7565b925050819055508260106000828254611a5a91906120ea565b925050819055508160116000828254611a7391906120ea565b90915550508215611a8657611a86611ed5565b6000600d546000148015611a9a5750600e54155b611aa5576000611aa8565b60015b949350505050565b600080670de0b6b3a7640000601154601054611acc91906120ea565b611ad691906120ea565b600854600754611ae691906120ea565b1192915050565b6000611afc4262f099c06120ea565b905090565b600154600160a01b900460ff1615611b1857600080fd5b600160009054906101000a90046001600160a01b03166001600160a01b031663fc173fc66040518163ffffffff1660e01b8152600401602060405180830381865afa158015611b6b573d6000803e3d6000fd5b505050506040513d601f19601f82011682018060405250810190611b8f919061209f565b15611c045760015460405163098b6def60e11b8152600481018390526001600160a01b0390911690631316dbde90602401602060405180830381865afa158015611bdd573d6000803e3d6000fd5b505050506040513d601f19601f82011682018060405250810190611c0191906120fd565b90505b6000546040516323b872dd60e01b81526001600160a01b03909116906323b872dd90611c3890869086908690600401612166565b6020604051808303816000875af1158015611c57573d6000803e3d6000fd5b505050506040513d601f19601f82011682018060405250810190610802919061209f565b6000611c908383670de0b6b3a7640000611f2a565b9392505050565b6000611c9083670de0b6b3a764000084611f2a565b60006301e13380611cc583670de0b6b3a764000061218a565b6108959190612144565b6005601a5460ff166007811115611ce857611ce8611f8b565b1480611d0a57506004601a5460ff166007811115611d0857611d08611f8b565b145b611d485760405162461bcd60e51b815260206004820152600f60248201526e2637b0b71039ba30ba3ab99032b93960891b60448201526064016105fe565b60125460145460405163a9059cbb60e01b815233600482015260248101919091526001600160a01b039091169063a9059cbb90604401610d1c565b600154600160a01b900460ff1615611d9a57600080fd5b600160009054906101000a90046001600160a01b03166001600160a01b031663fc173fc66040518163ffffffff1660e01b8152600401602060405180830381865afa158015611ded573d6000803e3d6000fd5b505050506040513d601f19601f82011682018060405250810190611e11919061209f565b15611e865760015460405163098b6def60e11b8152600481018390526001600160a01b0390911690631316dbde90602401602060405180830381865afa158015611e5f573d6000803e3d6000fd5b505050506040513d601f19601f82011682018060405250810190611e8391906120fd565b90505b60005460405163a9059cbb60e01b81526001600160a01b038481166004830152602482018490529091169063a9059cbb906044016116f9565b6000818310611ece5781611c90565b5090919050565b6000611edf611aed565b611eea600a54611f49565b601654611ef791906120ea565b611f0191906120d7565b9050611f24611f1b600d54611f1584611cac565b90611c7b565b600b5490611c7b565b600e5550565b828202811515841585830485141716611f4257600080fd5b0492915050565b60006108956301e1338083611c7b565b6001600160a01b0381168114610d5f57600080fd5b600060208284031215611f8057600080fd5b8135611c9081611f59565b634e487b7160e01b600052602160045260246000fd5b6020810160088310611fb557611fb5611f8b565b91905290565b600060208284031215611fcd57600080fd5b5035919050565b60008060408385031215611fe757600080fd5b50508035926020909101359150565b6020810160048310611fb557611fb5611f8b565b6000806040838503121561201d57600080fd5b82359150602083013561202f81611f59565b809150509250929050565b60006020828403121561204c57600080fd5b8151611c9081611f59565b6020808252600b908201526a08585d5d1a1bdc9a5e995960aa1b604082015260600190565b60208082526009908201526810aaba34b634bd32b960b91b604082015260600190565b6000602082840312156120b157600080fd5b81518015158114611c9057600080fd5b634e487b7160e01b600052601160045260246000fd5b81810381811115610895576108956120c1565b80820180821115610895576108956120c1565b60006020828403121561210f57600080fd5b5051919050565b60208082526014908201527318d85b1b195c881b5d5cdd081899481d985d5b1d60621b604082015260600190565b60008261216157634e487b7160e01b600052601260045260246000fd5b500490565b6001600160a01b039384168152919092166020820152604081019190915260600190565b8082028115828204841417610895576108956120c156fea26469706673582212206ddf036f129ca3af4eabcf0ef06a303321a656d7664b25ab919fa7d986ccfa5664736f6c63430008110033608060405234801561001057600080fd5b506040516109ab3803806109ab83398101604081905261002f9161007c565b600080546001600160a01b039384166001600160a01b031991821617909155600180549290931691161790556100af565b80516001600160a01b038116811461007757600080fd5b919050565b6000806040838503121561008f57600080fd5b61009883610060565b91506100a660208401610060565b90509250929050565b6108ed806100be6000396000f3fe608060405234801561001057600080fd5b50600436106100935760003560e01c8063524d81d311610066578063524d81d31461018c578063893d20e81461019d57806399f3c79b146101c2578063bade64b1146101fe578063d4f804cf1461021157600080fd5b806301a3f256146100985780630eaad4891461012e5780632af4c31e146101665780633ac47fff14610179575b600080fd5b61012c6100a63660046106bd565b6002805460018082019092557f405787fa12a823e0f2b7631cc41b3ba8828b3321ca811111fa75cd3aa3bb5ace0180546001600160a01b0319166001600160a01b039490941693841790556000928352600460209081526040808520805460ff191690931790925560039052909120805463ffffffff191660e09290921c919091179055565b005b61015161013c366004610701565b60046020526000908152604090205460ff1681565b60405190151581526020015b60405180910390f35b61012c610174366004610701565b610224565b61012c61018736600461076c565b610291565b60025460405190815260200161015d565b6000546001600160a01b03165b6040516001600160a01b03909116815260200161015d565b6101e56101d0366004610701565b60036020526000908152604090205460e01b81565b6040516001600160e01b0319909116815260200161015d565b6101aa61020c3660046107ea565b610512565b61012c61021f366004610803565b61053c565b6000546001600160a01b0316331461026f5760405162461bcd60e51b81526020600482015260096024820152682737ba1037bbb732b960b91b60448201526064015b60405180910390fd5b600080546001600160a01b0319166001600160a01b0392909216919091179055565b6000546001600160a01b031633146102a857600080fd5b6001600160a01b03851660009081526004602052604090205460ff166102cd57600080fd5b6001600160a01b03841630146102fe576001600160a01b0385166000908152600460205260409020805460ff191690555b80156103dc576001600160a01b038581166000818152600360205260408082205490519388166024850152909260e09190911b9060440160408051601f198184030181529181526020820180516001600160e01b03166001600160e01b03199094169390931790925290516103739190610856565b6000604051808303816000865af19150503d80600081146103b0576040519150601f19603f3d011682016040523d82523d6000602084013e6103b5565b606091505b50509050806103d65760405162461bcd60e51b815260040161026690610885565b5061050b565b6001600160a01b038516600090815260036020908152604091829020548251601f860183900483028101830190935284835260e01b6001600160e01b0319169161044091869086908190840183828082843760009201919091525061068692505050565b6001600160e01b0319160361048a5760405162461bcd60e51b815260206004820152601060248201526f199d5b98c81b9bdd08185b1b1bddd95960821b6044820152606401610266565b6000856001600160a01b031684846040516104a69291906108a7565b6000604051808303816000865af19150503d80600081146104e3576040519150601f19603f3d011682016040523d82523d6000602084013e6104e8565b606091505b50509050806105095760405162461bcd60e51b815260040161026690610885565b505b5050505050565b6002818154811061052257600080fd5b6000918252602090912001546001600160a01b0316905081565b6001546001600160a01b0316331461055357600080fd5b6001600160a01b038316600090815260036020908152604091829020548251601f850183900483028101830190935283835260e01b6001600160e01b031916916105b791859085908190840183828082843760009201919091525061068692505050565b6001600160e01b031916036106015760405162461bcd60e51b815260206004820152601060248201526f199d5b98c81b9bdd08185b1b1bddd95960821b6044820152606401610266565b6000836001600160a01b0316838360405161061d9291906108a7565b6000604051808303816000865af19150503d806000811461065a576040519150601f19603f3d011682016040523d82523d6000602084013e61065f565b606091505b50509050806106805760405162461bcd60e51b815260040161026690610885565b50505050565b6000815160000361069957506000919050565b506004015190565b80356001600160a01b03811681146106b857600080fd5b919050565b600080604083850312156106d057600080fd5b6106d9836106a1565b915060208301356001600160e01b0319811681146106f657600080fd5b809150509250929050565b60006020828403121561071357600080fd5b61071c826106a1565b9392505050565b60008083601f84011261073557600080fd5b50813567ffffffffffffffff81111561074d57600080fd5b60208301915083602082850101111561076557600080fd5b9250929050565b60008060008060006080868803121561078457600080fd5b61078d866106a1565b945061079b602087016106a1565b9350604086013567ffffffffffffffff8111156107b757600080fd5b6107c388828901610723565b909450925050606086013580151581146107dc57600080fd5b809150509295509295909350565b6000602082840312156107fc57600080fd5b5035919050565b60008060006040848603121561081857600080fd5b610821846106a1565b9250602084013567ffffffffffffffff81111561083d57600080fd5b61084986828701610723565b9497909650939450505050565b6000825160005b81811015610877576020818601810151858301520161085d565b506000920191825250919050565b602080825260089082015267217375636365737360c01b604082015260600190565b818382376000910190815291905056fea26469706673582212200606a06376e204bb46e504c3b3f52685c513fa51e28039873a575f06041f374664736f6c63430008110033",
    "linkReferences": {}
  },
  "methodIdentifiers": {
    "Utilizer()": "350896fe",
    "balanceOfUnderlying(address)": "3af9e669",
    "beginGracePeriod()": "857f37cf",
    "borrower()": "7df1f1b9",
    "collateral()": "d8dfeb45",
    "collateral_balance()": "10d6f857",
    "collateral_type()": "7003dc66",
    "declareDefault()": "8a7a2d83",
    "depositCollateral(uint256)": "bad4a01f",
    "drawdown()": "e77ef21f",
    "estimatedTotalAssets()": "efbb5cb0",
    "getApprovedBorrowConditions()": "b93a02f3",
    "getCollateralRatio()": "cd377c53",
    "getCurrentLoanStatus()": "767c3053",
    "getMaturityBalance()": "1104aafd",
    "getProxy()": "933a9ce8",
    "getRemainingOwed()": "187526d9",
    "instrumentApprovalCondition()": "83e754a0",
    "interestToRepay()": "aeae11aa",
    "isLiquid(uint256)": "537d9409",
    "isLiquidatable(address)": "042e02cf",
    "isLocked()": "a4e2d634",
    "liquidateAllPositions()": "50bb4beb",
    "liquidateOwnership(address)": "15c98ece",
    "liquidatePosition(uint256)": "cdddd4e5",
    "loanStatus()": "074ca966",
    "onDefault()": "6febd543",
    "onMarketApproval(uint256,uint256)": "416288dd",
    "onMaturity()": "ca0565f5",
    "oracle()": "7dc0d1d0",
    "prepareWithdraw()": "49dcf4ed",
    "pullRawFunds(uint256)": "d832f791",
    "pushCollateralToVault(uint256,address)": "db37546d",
    "readyForWithdrawal()": "bdf0f253",
    "redeemUnderlying(uint256)": "852a12e3",
    "repay(uint256)": "371fd8e6",
    "setGracePeriod()": "424cfe72",
    "setUtilizer(address)": "57b25996",
    "setVault(address)": "6817031b",
    "store_internal_balance()": "f3aa68d3",
    "underlying()": "6f307dc3",
    "validators(uint256)": "35aa2e44",
    "vault()": "fbfa77cf"
  },
  "id": 24
}