{
  "abi": [
    {
      "inputs": [
        {
          "internalType": "address",
          "name": "vault",
          "type": "address"
        },
        {
          "internalType": "address",
          "name": "_borrower",
          "type": "address"
        },
        {
          "internalType": "uint256",
          "name": "_principal",
          "type": "uint256"
        },
        {
          "internalType": "uint256",
          "name": "_notionalInterest",
          "type": "uint256"
        },
        {
          "internalType": "uint256",
          "name": "_duration",
          "type": "uint256"
        },
        {
          "internalType": "uint256",
          "name": "_faceValue",
          "type": "uint256"
        },
        {
          "internalType": "address",
          "name": "_collateral",
          "type": "address"
        },
        {
          "internalType": "address",
          "name": "_oracle",
          "type": "address"
        },
        {
          "internalType": "uint256",
          "name": "_collateral_balance",
          "type": "uint256"
        },
        {
          "internalType": "uint256",
          "name": "_collateral_type",
          "type": "uint256"
        }
      ],
      "stateMutability": "nonpayable",
      "type": "constructor"
    },
    {
      "inputs": [],
      "name": "Utilizer",
      "outputs": [
        {
          "internalType": "address",
          "name": "",
          "type": "address"
        }
      ],
      "stateMutability": "view",
      "type": "function"
    },
    {
      "inputs": [
        {
          "internalType": "address",
          "name": "user",
          "type": "address"
        }
      ],
      "name": "balanceOfUnderlying",
      "outputs": [
        {
          "internalType": "uint256",
          "name": "",
          "type": "uint256"
        }
      ],
      "stateMutability": "view",
      "type": "function"
    },
    {
      "inputs": [],
      "name": "beginGracePeriod",
      "outputs": [],
      "stateMutability": "nonpayable",
      "type": "function"
    },
    {
      "inputs": [],
      "name": "borrower",
      "outputs": [
        {
          "internalType": "address",
          "name": "",
          "type": "address"
        }
      ],
      "stateMutability": "view",
      "type": "function"
    },
    {
      "inputs": [],
      "name": "collateral",
      "outputs": [
        {
          "internalType": "address",
          "name": "",
          "type": "address"
        }
      ],
      "stateMutability": "view",
      "type": "function"
    },
    {
      "inputs": [],
      "name": "collateral_balance",
      "outputs": [
        {
          "internalType": "uint256",
          "name": "",
          "type": "uint256"
        }
      ],
      "stateMutability": "view",
      "type": "function"
    },
    {
      "inputs": [],
      "name": "collateral_type",
      "outputs": [
        {
          "internalType": "enum CreditLine.CollateralType",
          "name": "",
          "type": "uint8"
        }
      ],
      "stateMutability": "view",
      "type": "function"
    },
    {
      "inputs": [],
      "name": "declareDefault",
      "outputs": [],
      "stateMutability": "nonpayable",
      "type": "function"
    },
    {
      "inputs": [
        {
          "internalType": "uint256",
          "name": "amount",
          "type": "uint256"
        }
      ],
      "name": "depositCollateral",
      "outputs": [],
      "stateMutability": "nonpayable",
      "type": "function"
    },
    {
      "inputs": [],
      "name": "drawdown",
      "outputs": [],
      "stateMutability": "nonpayable",
      "type": "function"
    },
    {
      "inputs": [],
      "name": "estimatedTotalAssets",
      "outputs": [
        {
          "internalType": "uint256",
          "name": "",
          "type": "uint256"
        }
      ],
      "stateMutability": "view",
      "type": "function"
    },
    {
      "inputs": [],
      "name": "getApprovedBorrowConditions",
      "outputs": [
        {
          "internalType": "uint256",
          "name": "",
          "type": "uint256"
        },
        {
          "internalType": "uint256",
          "name": "",
          "type": "uint256"
        }
      ],
      "stateMutability": "view",
      "type": "function"
    },
    {
      "inputs": [],
      "name": "getCollateralRatio",
      "outputs": [
        {
          "internalType": "uint256",
          "name": "",
          "type": "uint256"
        }
      ],
      "stateMutability": "view",
      "type": "function"
    },
    {
      "inputs": [],
      "name": "getCurrentLoanStatus",
      "outputs": [
        {
          "internalType": "uint256",
          "name": "",
          "type": "uint256"
        }
      ],
      "stateMutability": "view",
      "type": "function"
    },
    {
      "inputs": [],
      "name": "getMaturityBalance",
      "outputs": [
        {
          "internalType": "uint256",
          "name": "",
          "type": "uint256"
        }
      ],
      "stateMutability": "view",
      "type": "function"
    },
    {
      "inputs": [],
      "name": "getProxy",
      "outputs": [
        {
          "internalType": "address",
          "name": "",
          "type": "address"
        }
      ],
      "stateMutability": "view",
      "type": "function"
    },
    {
      "inputs": [],
      "name": "getRemainingOwed",
      "outputs": [
        {
          "internalType": "uint256",
          "name": "",
          "type": "uint256"
        },
        {
          "internalType": "uint256",
          "name": "",
          "type": "uint256"
        }
      ],
      "stateMutability": "view",
      "type": "function"
    },
    {
      "inputs": [],
      "name": "instrumentApprovalCondition",
      "outputs": [
        {
          "internalType": "bool",
          "name": "",
          "type": "bool"
        }
      ],
      "stateMutability": "view",
      "type": "function"
    },
    {
      "inputs": [],
      "name": "interestToRepay",
      "outputs": [
        {
          "internalType": "uint256",
          "name": "",
          "type": "uint256"
        }
      ],
      "stateMutability": "view",
      "type": "function"
    },
    {
      "inputs": [
        {
          "internalType": "uint256",
          "name": "amount",
          "type": "uint256"
        }
      ],
      "name": "isLiquid",
      "outputs": [
        {
          "internalType": "bool",
          "name": "",
          "type": "bool"
        }
      ],
      "stateMutability": "view",
      "type": "function"
    },
    {
      "inputs": [
        {
          "internalType": "address",
          "name": "collateral",
          "type": "address"
        }
      ],
      "name": "isLiquidatable",
      "outputs": [
        {
          "internalType": "bool",
          "name": "",
          "type": "bool"
        }
      ],
      "stateMutability": "view",
      "type": "function"
    },
    {
      "inputs": [],
      "name": "isLocked",
      "outputs": [
        {
          "internalType": "bool",
          "name": "",
          "type": "bool"
        }
      ],
      "stateMutability": "view",
      "type": "function"
    },
    {
      "inputs": [],
      "name": "liquidateAllPositions",
      "outputs": [
        {
          "internalType": "uint256",
          "name": "_amountFreed",
          "type": "uint256"
        }
      ],
      "stateMutability": "nonpayable",
      "type": "function"
    },
    {
      "inputs": [
        {
          "internalType": "address",
          "name": "buyer",
          "type": "address"
        }
      ],
      "name": "liquidateOwnership",
      "outputs": [],
      "stateMutability": "nonpayable",
      "type": "function"
    },
    {
      "inputs": [
        {
          "internalType": "uint256",
          "name": "_amountNeeded",
          "type": "uint256"
        }
      ],
      "name": "liquidatePosition",
      "outputs": [
        {
          "internalType": "uint256",
          "name": "_liquidatedAmount",
          "type": "uint256"
        },
        {
          "internalType": "uint256",
          "name": "_loss",
          "type": "uint256"
        }
      ],
      "stateMutability": "nonpayable",
      "type": "function"
    },
    {
      "inputs": [],
      "name": "loanStatus",
      "outputs": [
        {
          "internalType": "enum CreditLine.LoanStatus",
          "name": "",
          "type": "uint8"
        }
      ],
      "stateMutability": "view",
      "type": "function"
    },
    {
      "inputs": [],
      "name": "onDefault",
      "outputs": [],
      "stateMutability": "nonpayable",
      "type": "function"
    },
    {
      "inputs": [
        {
          "internalType": "uint256",
          "name": "max_principal",
          "type": "uint256"
        },
        {
          "internalType": "uint256",
          "name": "quoted_yield",
          "type": "uint256"
        }
      ],
      "name": "onMarketApproval",
      "outputs": [],
      "stateMutability": "nonpayable",
      "type": "function"
    },
    {
      "inputs": [],
      "name": "onMaturity",
      "outputs": [],
      "stateMutability": "nonpayable",
      "type": "function"
    },
    {
      "inputs": [],
      "name": "oracle",
      "outputs": [
        {
          "internalType": "address",
          "name": "",
          "type": "address"
        }
      ],
      "stateMutability": "view",
      "type": "function"
    },
    {
      "inputs": [],
      "name": "prepareWithdraw",
      "outputs": [
        {
          "internalType": "uint256",
          "name": "_profit",
          "type": "uint256"
        },
        {
          "internalType": "uint256",
          "name": "_loss",
          "type": "uint256"
        },
        {
          "internalType": "uint256",
          "name": "_debtPayment",
          "type": "uint256"
        }
      ],
      "stateMutability": "nonpayable",
      "type": "function"
    },
    {
      "inputs": [
        {
          "internalType": "uint256",
          "name": "amount",
          "type": "uint256"
        },
        {
          "internalType": "address",
          "name": "to",
          "type": "address"
        }
      ],
      "name": "pushCollateralToVault",
      "outputs": [],
      "stateMutability": "nonpayable",
      "type": "function"
    },
    {
      "inputs": [],
      "name": "readyForWithdrawal",
      "outputs": [
        {
          "internalType": "bool",
          "name": "",
          "type": "bool"
        }
      ],
      "stateMutability": "view",
      "type": "function"
    },
    {
      "inputs": [
        {
          "internalType": "uint256",
          "name": "amount",
          "type": "uint256"
        }
      ],
      "name": "redeemUnderlying",
      "outputs": [
        {
          "internalType": "bool",
          "name": "",
          "type": "bool"
        }
      ],
      "stateMutability": "nonpayable",
      "type": "function"
    },
    {
      "inputs": [
        {
          "internalType": "uint256",
          "name": "_repay_amount",
          "type": "uint256"
        }
      ],
      "name": "repay",
      "outputs": [],
      "stateMutability": "nonpayable",
      "type": "function"
    },
    {
      "inputs": [],
      "name": "setGracePeriod",
      "outputs": [],
      "stateMutability": "nonpayable",
      "type": "function"
    },
    {
      "inputs": [
        {
          "internalType": "address",
          "name": "_Utilizer",
          "type": "address"
        }
      ],
      "name": "setUtilizer",
      "outputs": [],
      "stateMutability": "nonpayable",
      "type": "function"
    },
    {
      "inputs": [],
      "name": "store_internal_balance",
      "outputs": [],
      "stateMutability": "nonpayable",
      "type": "function"
    },
    {
      "inputs": [],
      "name": "underlying",
      "outputs": [
        {
          "internalType": "contract ERC20",
          "name": "",
          "type": "address"
        }
      ],
      "stateMutability": "view",
      "type": "function"
    },
    {
      "inputs": [
        {
          "internalType": "uint256",
          "name": "",
          "type": "uint256"
        }
      ],
      "name": "validators",
      "outputs": [
        {
          "internalType": "address",
          "name": "",
          "type": "address"
        }
      ],
      "stateMutability": "view",
      "type": "function"
    },
    {
      "inputs": [],
      "name": "vault",
      "outputs": [
        {
          "internalType": "contract Vault",
          "name": "",
          "type": "address"
        }
      ],
      "stateMutability": "view",
      "type": "function"
    }
  ],
  "bytecode": {
    "object": "0x60a06040523480156200001157600080fd5b5060405162002cdb38038062002cdb833981016040819052620000349162000284565b600180546001600160a01b0319166001600160a01b038c16908117909155604080516362eb326360e11b815290518c928c92909163c5d664c6916004808201926020929091908290030181865afa15801562000094573d6000803e3d6000fd5b505050506040513d601f19601f82011682018060405250810190620000ba91906200032b565b600080546001600160a01b0319166001600160a01b0392831690811790915560405163095ea7b360e01b8152918416600483015260001960248301529063095ea7b3906044016020604051808303816000875af115801562000120573d6000803e3d6000fd5b505050506040513d601f19601f8201168201806040525081019062000146919062000352565b50600380546001600160a01b03199081166001600160a01b03938416179091558b821660805260068b905560078a90556009899055600888905560118054821688841617905560128054909116918616919091179055506013829055806002811115620001b757620001b762000376565b6014805460ff19166001836002811115620001d657620001d662000376565b02179055506019805460ff1916905560405130908a90620001f7906200025d565b6001600160a01b03928316815291166020820152604001604051809103906000f0801580156200022b573d6000803e3d6000fd5b50601c80546001600160a01b0319166001600160a01b0392909216919091179055506200038c98505050505050505050565b6109ab806200233083390190565b6001600160a01b03811681146200028157600080fd5b50565b6000806000806000806000806000806101408b8d031215620002a557600080fd5b8a51620002b2816200026b565b60208c0151909a50620002c5816200026b565b8099505060408b0151975060608b0151965060808b0151955060a08b0151945060c08b0151620002f5816200026b565b60e08c015190945062000308816200026b565b809350506101008b015191506101208b015190509295989b9194979a5092959850565b6000602082840312156200033e57600080fd5b81516200034b816200026b565b9392505050565b6000602082840312156200036557600080fd5b815180151581146200034b57600080fd5b634e487b7160e01b600052602160045260246000fd5b608051611f81620003af600039600081816103fa01526112dd0152611f816000f3fe608060405234801561001057600080fd5b50600436106102535760003560e01c80637dc0d1d011610146578063bad4a01f116100c3578063d8dfeb4511610087578063d8dfeb45146104b3578063db37546d146104c6578063e77ef21f146104d9578063efbb5cb014610385578063f3aa68d3146104e1578063fbfa77cf146104e957600080fd5b8063bad4a01f1461047a578063bdf0f2531461048d578063ca0565f514610495578063cd377c5314610385578063cdddd4e51461049d57600080fd5b80638a7a2d831161010a5780638a7a2d831461043f578063933a9ce814610447578063a4e2d63414610458578063aeae11aa1461046a578063b93a02f31461047257600080fd5b80637dc0d1d0146103e25780637df1f1b9146103f557806383e754a01461041c578063852a12e314610424578063857f37cf1461043757600080fd5b8063416288dd116101d457806357b259961161019857806357b259961461039a5780636f307dc3146103ad5780636febd543146103c05780637003dc66146103c8578063767c30531461038557600080fd5b8063416288dd1461034f578063424cfe72146102cd57806349dcf4ed1461036257806350bb4beb14610385578063537d94091461038c57600080fd5b8063187526d91161021b578063187526d9146102cf578063350896fe146102eb57806335aa2e4414610316578063371fd8e6146103295780633af9e6691461033c57600080fd5b8063042e02cf14610258578063074ca9661461028157806310d6f8571461029b5780631104aafd146102b257806315c98ece146102ba575b600080fd5b61026c610266366004611d3c565b50600090565b60405190151581526020015b60405180910390f35b60195461028e9060ff1681565b6040516102789190611d6f565b6102a460135481565b604051908152602001610278565b6002546102a4565b6102cd6102c8366004611d3c565b6104fc565b005b600c54600d545b60408051928352602083019190915201610278565b6003546102fe906001600160a01b031681565b6040516001600160a01b039091168152602001610278565b6102fe610324366004611d89565b610629565b6102cd610337366004611d89565b610653565b6102a461034a366004611d3c565b6107c7565b6102cd61035d366004611da2565b61083c565b61036a61089e565b60408051938452602084019290925290820152606001610278565b60006102a4565b61026c610266366004611d89565b6102cd6103a8366004611d3c565b610938565b6000546102fe906001600160a01b031681565b6102cd610a2e565b6014546103d59060ff1681565b6040516102789190611dc4565b6012546102fe906001600160a01b031681565b6102fe7f000000000000000000000000000000000000000000000000000000000000000081565b61026c610bb6565b61026c610432366004611d89565b610d8e565b6102cd610e34565b6102cd610e98565b601c546001600160a01b03166102fe565b600154600160a01b900460ff1661026c565b6102a4610f90565b6102d6610fe6565b6102cd610488366004611d89565b611071565b61026c61112f565b6102cd611198565b6102d66104ab366004611d89565b600080915091565b6011546102fe906001600160a01b031681565b6102cd6104d4366004611dd8565b6113a6565b6102cd611507565b6102cd611673565b6001546102fe906001600160a01b031681565b600160009054906101000a90046001600160a01b03166001600160a01b0316638da5cb5b6040518163ffffffff1660e01b8152600401602060405180830381865afa15801561054f573d6000803e3d6000fd5b505050506040513d601f19601f820116820180604052508101906105739190611e08565b6001600160a01b0316336001600160a01b031614806105a157503360009081526005602052604090205460ff165b6105c65760405162461bcd60e51b81526004016105bd90611e25565b60405180910390fd5b601c5460405163157a618f60e11b81526001600160a01b03838116600483015290911690632af4c31e906024015b600060405180830381600087803b15801561060e57600080fd5b505af1158015610622573d6000803e3d6000fd5b5050505050565b6004818154811061063957600080fd5b6000918252602090912001546001600160a01b0316905081565b6003546001600160a01b0316331461067d5760405162461bcd60e51b81526004016105bd90611e4a565b6001546040516396d6487960e01b81523060048201526001600160a01b03909116906396d6487990602401602060405180830381865afa1580156106c5573d6000803e3d6000fd5b505050506040513d601f19601f820116820180604052508101906106e99190611e6d565b6107245760405162461bcd60e51b815260206004820152600c60248201526b139bdd08185c1c1c9bdd995960a21b60448201526064016105bd565b600061072e610f90565b905060008282811061075d576107448385611ea5565b61074e9083611eb8565b6000600e55915082905061076b565b6107678184611ea5565b600e555b6107758282611797565b156107ab5743601855610786611876565b1561079d576019805460ff191660041790556107ab565b6019805460ff191660051790555b6107b36118b3565b601a556107c13330866118c7565b50505050565b600080546040516370a0823160e01b81526001600160a01b038481166004830152909116906370a0823190602401602060405180830381865afa158015610812573d6000803e3d6000fd5b505050506040513d601f19601f820116820180604052508101906108369190611ecb565b92915050565b6001546001600160a01b031633146108665760405162461bcd60e51b81526004016105bd90611ee4565b60068290556007819055600954610888906108819084611a49565b8290611a65565b600a5550506019805460ff19166001179055565b565b600154600090819081906001600160a01b031633146108cf5760405162461bcd60e51b81526004016105bd90611ee4565b6108d761112f565b61091b5760405162461bcd60e51b81526020600482015260156024820152746e6f7420726561647920746f20776974686472617760581b60448201526064016105bd565b6109336001805460ff60a01b1916600160a01b179055565b909192565b600160009054906101000a90046001600160a01b03166001600160a01b0316638da5cb5b6040518163ffffffff1660e01b8152600401602060405180830381865afa15801561098b573d6000803e3d6000fd5b505050506040513d601f19601f820116820180604052508101906109af9190611e08565b6001600160a01b0316336001600160a01b031614806109dd57503360009081526005602052604090205460ff165b6109f95760405162461bcd60e51b81526004016105bd90611e25565b6001600160a01b038116610a0c57600080fd5b600380546001600160a01b0319166001600160a01b0392909216919091179055565b600160009054906101000a90046001600160a01b03166001600160a01b0316638da5cb5b6040518163ffffffff1660e01b8152600401602060405180830381865afa158015610a81573d6000803e3d6000fd5b505050506040513d601f19601f82011682018060405250810190610aa59190611e08565b6001600160a01b0316336001600160a01b03161480610ad357503360009081526005602052604090205460ff165b610aef5760405162461bcd60e51b81526004016105bd90611e25565b600760195460ff166007811115610b0857610b08611d59565b14610b1257600080fd5b6000546006546001600160a01b03909116906323b872dd9033903090610b3a90600290611f12565b6040516001600160e01b031960e086901b1681526001600160a01b03938416600482015292909116602483015260448201526064015b6020604051808303816000875af1158015610b8f573d6000803e3d6000fd5b505050506040513d601f19601f82011682018060405250810190610bb39190611e6d565b50565b60008060145460ff166002811115610bd057610bd0611d59565b1480610bf25750600160145460ff166002811115610bf057610bf0611d59565b145b15610cb4576013546011546040516370a0823160e01b81523060048201526001600160a01b03909116906370a0823190602401602060405180830381865afa158015610c42573d6000803e3d6000fd5b505050506040513d601f19601f82011682018060405250810190610c669190611ecb565b1015610cb45760405162461bcd60e51b815260206004820152601760248201527f496e73756666696369656e7420636f6c6c61746572616c00000000000000000060448201526064016105bd565b600260145460ff166002811115610ccd57610ccd611d59565b148015610d4e5750601c60009054906101000a90046001600160a01b03166001600160a01b031663524d81d36040518163ffffffff1660e01b8152600401602060405180830381865afa158015610d28573d6000803e3d6000fd5b505050506040513d601f19601f82011682018060405250810190610d4c9190611ecb565b155b15610d885760405162461bcd60e51b815260206004820152600a602482015269027bbb732b939b434b8160b51b60448201526064016105bd565b50600190565b6001546000906001600160a01b03163314610dbb5760405162461bcd60e51b81526004016105bd90611ee4565b60005460015460405163a9059cbb60e01b81526001600160a01b0391821660048201526024810185905291169063a9059cbb906044016020604051808303816000875af1158015610e10573d6000803e3d6000fd5b505050506040513d601f19601f820116820180604052508101906108369190611e6d565b6000600c54118015610e4857506000600d54115b610e7d5760405162461bcd60e51b81526020600482015260066024820152651c995c185a5960d21b60448201526064016105bd565b42601b55601980546006919060ff19166001835b0217905550565b600160009054906101000a90046001600160a01b03166001600160a01b0316638da5cb5b6040518163ffffffff1660e01b8152600401602060405180830381865afa158015610eeb573d6000803e3d6000fd5b505050506040513d601f19601f82011682018060405250810190610f0f9190611e08565b6001600160a01b0316336001600160a01b03161480610f3d57503360009081526005602052604090205460ff165b610f595760405162461bcd60e51b81526004016105bd90611e25565b600660195460ff166007811115610f7257610f72611d59565b14610f7c57600080fd5b601980546007919060ff1916600183610e91565b600080610fb0601a54610fa16118b3565b610fab9190611ea5565b611a7a565b9050600e54610fd6610fcf600c54600a54611a4990919063ffffffff16565b8390611a49565b610fe09190611eb8565b91505090565b6001546040516396d6487960e01b815230600482015260009182916001600160a01b03909116906396d6487990602401602060405180830381865afa158015611033573d6000803e3d6000fd5b505050506040513d601f19601f820116820180604052508101906110579190611e6d565b156110685750506006546007549091565b50600091829150565b6003546001600160a01b0316331461109b5760405162461bcd60e51b81526004016105bd90611e4a565b6011546001600160a01b03166110b057600080fd5b6011546040516323b872dd60e01b8152336004820152306024820152604481018390526001600160a01b03909116906323b872dd906064016020604051808303816000875af1158015611107573d6000803e3d6000fd5b505050506040513d601f19601f8201168201806040525081019061112b9190611e6d565b5050565b6000600560195460ff16600781111561114a5761114a611d59565b148061116c5750600760195460ff16600781111561116a5761116a611d59565b145b8061118d5750600460195460ff16600781111561118b5761118b611d59565b145b15610d885750600190565b6003546001600160a01b031633146111c25760405162461bcd60e51b81526004016105bd90611e4a565b600460195460ff1660078111156111db576111db611d59565b14806111fd5750600560195460ff1660078111156111fb576111fb611d59565b145b6112375760405162461bcd60e51b815260206004820152600b60248201526a139bdd081b585d1d5c995960aa1b60448201526064016105bd565b60185443116112765760405162461bcd60e51b815260206004820152600b60248201526a109b1bd8dac8195c5d585b60aa1b60448201526064016105bd565b600060145460ff16600281111561128f5761128f611d59565b14806112b15750600160145460ff1660028111156112af576112af611d59565b145b156112c3576112be611a9d565b611343565b601c5460405163157a618f60e11b81526001600160a01b037f00000000000000000000000000000000000000000000000000000000000000008116600483015290911690632af4c31e90602401600060405180830381600087803b15801561132a57600080fd5b505af115801561133e573d6000803e3d6000fd5b505050505b6000600460195460ff16600781111561135e5761135e611d59565b1461136a57600061136d565b60015b60015460405163109d3ea960e11b815230600482015282151560248201529192506001600160a01b03169063213a7d52906044016105f4565b600160009054906101000a90046001600160a01b03166001600160a01b0316638da5cb5b6040518163ffffffff1660e01b8152600401602060405180830381865afa1580156113f9573d6000803e3d6000fd5b505050506040513d601f19601f8201168201806040525081019061141d9190611e08565b6001600160a01b0316336001600160a01b0316148061144b57503360009081526005602052604090205460ff165b6114675760405162461bcd60e51b81526004016105bd90611e25565b600760195460ff16600781111561148057611480611d59565b1461148a57600080fd5b60115460405163a9059cbb60e01b81526001600160a01b038381166004830152602482018590529091169063a9059cbb906044015b6020604051808303816000875af11580156114de573d6000803e3d6000fd5b505050506040513d601f19601f820116820180604052508101906115029190611e6d565b505050565b6003546001600160a01b031633146115315760405162461bcd60e51b81526004016105bd90611e4a565b6001546040516396d6487960e01b81523060048201526001600160a01b03909116906396d6487990602401602060405180830381865afa158015611579573d6000803e3d6000fd5b505050506040513d601f19601f8201168201806040525081019061159d9190611e6d565b6115d85760405162461bcd60e51b815260206004820152600c60248201526b139bdd08185c1c1c9bdd995960a21b60448201526064016105bd565b600160195460ff1660078111156115f1576115f1611d59565b146116315760405162461bcd60e51b815260206004820152601060248201526f105b1c9958591e48189bdc9c9bddd95960821b60448201526064016105bd565b6019805460ff19166002179055426015819055601a556007546006546116579190611eb8565b600b55600654600c819055600754600d5561089c903390611b51565b6001546001600160a01b0316331461169d5760405162461bcd60e51b81526004016105bd90611ee4565b6116a6306107c7565b60025560015460408051637e0b9fe360e11b815290516001600160a01b039092169163fc173fc6916004808201926020929091908290030181865afa1580156116f3573d6000803e3d6000fd5b505050506040513d601f19601f820116820180604052508101906117179190611e6d565b1561089c57600154600254604051634b674ead60e11b81526001600160a01b03909216916396ce9d5a916117519160040190815260200190565b602060405180830381865afa15801561176e573d6000803e3d6000fd5b505050506040513d601f19601f820116820180604052508101906117929190611ecb565b600255565b60006117ae6117a68385611eb8565b600b54611c8d565b600b60008282546117bf9190611ea5565b925050819055506117d283600c54611c8d565b600c60008282546117e39190611ea5565b925050819055506117f682600d54611c8d565b600d60008282546118079190611ea5565b9250508190555082600f60008282546118209190611eb8565b9250508190555081601060008282546118399190611eb8565b9091555050821561184c5761184c611ca3565b6000600c5460001480156118605750600d54155b61186b57600061186e565b60015b949350505050565b600080670de0b6b3a7640000601054600f546118929190611eb8565b61189c9190611eb8565b6007546006546118ac9190611eb8565b1192915050565b60006118c24262f099c0611eb8565b905090565b600154600160a01b900460ff16156118de57600080fd5b600160009054906101000a90046001600160a01b03166001600160a01b031663fc173fc66040518163ffffffff1660e01b8152600401602060405180830381865afa158015611931573d6000803e3d6000fd5b505050506040513d601f19601f820116820180604052508101906119559190611e6d565b156119ca5760015460405163098b6def60e11b8152600481018390526001600160a01b0390911690631316dbde90602401602060405180830381865afa1580156119a3573d6000803e3d6000fd5b505050506040513d601f19601f820116820180604052508101906119c79190611ecb565b90505b6000546040516323b872dd60e01b81526001600160a01b038581166004830152848116602483015260448201849052909116906323b872dd906064016020604051808303816000875af1158015611a25573d6000803e3d6000fd5b505050506040513d601f19601f820116820180604052508101906107c19190611e6d565b6000611a5e8383670de0b6b3a7640000611cf8565b9392505050565b6000611a5e83670de0b6b3a764000084611cf8565b60006301e13380611a9383670de0b6b3a7640000611f34565b6108369190611f12565b600560195460ff166007811115611ab657611ab6611d59565b1480611ad85750600460195460ff166007811115611ad657611ad6611d59565b145b611b165760405162461bcd60e51b815260206004820152600f60248201526e2637b0b71039ba30ba3ab99032b93960891b60448201526064016105bd565b60115460135460405163a9059cbb60e01b815233600482015260248101919091526001600160a01b039091169063a9059cbb90604401610b70565b600154600160a01b900460ff1615611b6857600080fd5b600160009054906101000a90046001600160a01b03166001600160a01b031663fc173fc66040518163ffffffff1660e01b8152600401602060405180830381865afa158015611bbb573d6000803e3d6000fd5b505050506040513d601f19601f82011682018060405250810190611bdf9190611e6d565b15611c545760015460405163098b6def60e11b8152600481018390526001600160a01b0390911690631316dbde90602401602060405180830381865afa158015611c2d573d6000803e3d6000fd5b505050506040513d601f19601f82011682018060405250810190611c519190611ecb565b90505b60005460405163a9059cbb60e01b81526001600160a01b038481166004830152602482018490529091169063a9059cbb906044016114bf565b6000818310611c9c5781611a5e565b5090919050565b6000611cad6118b3565b611cb8600954611d17565b601554611cc59190611eb8565b611ccf9190611ea5565b9050611cf2611ce9600c54611ce384611a7a565b90611a49565b600a5490611a49565b600d5550565b828202811515841585830485141716611d1057600080fd5b0492915050565b60006108366301e1338083611a49565b6001600160a01b0381168114610bb357600080fd5b600060208284031215611d4e57600080fd5b8135611a5e81611d27565b634e487b7160e01b600052602160045260246000fd5b6020810160088310611d8357611d83611d59565b91905290565b600060208284031215611d9b57600080fd5b5035919050565b60008060408385031215611db557600080fd5b50508035926020909101359150565b6020810160038310611d8357611d83611d59565b60008060408385031215611deb57600080fd5b823591506020830135611dfd81611d27565b809150509250929050565b600060208284031215611e1a57600080fd5b8151611a5e81611d27565b6020808252600b908201526a08585d5d1a1bdc9a5e995960aa1b604082015260600190565b60208082526009908201526810aaba34b634bd32b960b91b604082015260600190565b600060208284031215611e7f57600080fd5b81518015158114611a5e57600080fd5b634e487b7160e01b600052601160045260246000fd5b8181038181111561083657610836611e8f565b8082018082111561083657610836611e8f565b600060208284031215611edd57600080fd5b5051919050565b60208082526014908201527318d85b1b195c881b5d5cdd081899481d985d5b1d60621b604082015260600190565b600082611f2f57634e487b7160e01b600052601260045260246000fd5b500490565b808202811582820484141761083657610836611e8f56fea26469706673582212207d08a22447e41d2d4cbcb969edcee63e006b1f77fdc6aee76b8dcbb32766858064736f6c63430008110033608060405234801561001057600080fd5b506040516109ab3803806109ab83398101604081905261002f9161007c565b600080546001600160a01b039384166001600160a01b031991821617909155600180549290931691161790556100af565b80516001600160a01b038116811461007757600080fd5b919050565b6000806040838503121561008f57600080fd5b61009883610060565b91506100a660208401610060565b90509250929050565b6108ed806100be6000396000f3fe608060405234801561001057600080fd5b50600436106100935760003560e01c8063524d81d311610066578063524d81d31461018c578063893d20e81461019d57806399f3c79b146101c2578063bade64b1146101fe578063d4f804cf1461021157600080fd5b806301a3f256146100985780630eaad4891461012e5780632af4c31e146101665780633ac47fff14610179575b600080fd5b61012c6100a63660046106bd565b6002805460018082019092557f405787fa12a823e0f2b7631cc41b3ba8828b3321ca811111fa75cd3aa3bb5ace0180546001600160a01b0319166001600160a01b039490941693841790556000928352600460209081526040808520805460ff191690931790925560039052909120805463ffffffff191660e09290921c919091179055565b005b61015161013c366004610701565b60046020526000908152604090205460ff1681565b60405190151581526020015b60405180910390f35b61012c610174366004610701565b610224565b61012c61018736600461076c565b610291565b60025460405190815260200161015d565b6000546001600160a01b03165b6040516001600160a01b03909116815260200161015d565b6101e56101d0366004610701565b60036020526000908152604090205460e01b81565b6040516001600160e01b0319909116815260200161015d565b6101aa61020c3660046107ea565b610512565b61012c61021f366004610803565b61053c565b6000546001600160a01b0316331461026f5760405162461bcd60e51b81526020600482015260096024820152682737ba1037bbb732b960b91b60448201526064015b60405180910390fd5b600080546001600160a01b0319166001600160a01b0392909216919091179055565b6000546001600160a01b031633146102a857600080fd5b6001600160a01b03851660009081526004602052604090205460ff166102cd57600080fd5b6001600160a01b03841630146102fe576001600160a01b0385166000908152600460205260409020805460ff191690555b80156103dc576001600160a01b038581166000818152600360205260408082205490519388166024850152909260e09190911b9060440160408051601f198184030181529181526020820180516001600160e01b03166001600160e01b03199094169390931790925290516103739190610856565b6000604051808303816000865af19150503d80600081146103b0576040519150601f19603f3d011682016040523d82523d6000602084013e6103b5565b606091505b50509050806103d65760405162461bcd60e51b815260040161026690610885565b5061050b565b6001600160a01b038516600090815260036020908152604091829020548251601f860183900483028101830190935284835260e01b6001600160e01b0319169161044091869086908190840183828082843760009201919091525061068692505050565b6001600160e01b0319160361048a5760405162461bcd60e51b815260206004820152601060248201526f199d5b98c81b9bdd08185b1b1bddd95960821b6044820152606401610266565b6000856001600160a01b031684846040516104a69291906108a7565b6000604051808303816000865af19150503d80600081146104e3576040519150601f19603f3d011682016040523d82523d6000602084013e6104e8565b606091505b50509050806105095760405162461bcd60e51b815260040161026690610885565b505b5050505050565b6002818154811061052257600080fd5b6000918252602090912001546001600160a01b0316905081565b6001546001600160a01b0316331461055357600080fd5b6001600160a01b038316600090815260036020908152604091829020548251601f850183900483028101830190935283835260e01b6001600160e01b031916916105b791859085908190840183828082843760009201919091525061068692505050565b6001600160e01b031916036106015760405162461bcd60e51b815260206004820152601060248201526f199d5b98c81b9bdd08185b1b1bddd95960821b6044820152606401610266565b6000836001600160a01b0316838360405161061d9291906108a7565b6000604051808303816000865af19150503d806000811461065a576040519150601f19603f3d011682016040523d82523d6000602084013e61065f565b606091505b50509050806106805760405162461bcd60e51b815260040161026690610885565b50505050565b6000815160000361069957506000919050565b506004015190565b80356001600160a01b03811681146106b857600080fd5b919050565b600080604083850312156106d057600080fd5b6106d9836106a1565b915060208301356001600160e01b0319811681146106f657600080fd5b809150509250929050565b60006020828403121561071357600080fd5b61071c826106a1565b9392505050565b60008083601f84011261073557600080fd5b50813567ffffffffffffffff81111561074d57600080fd5b60208301915083602082850101111561076557600080fd5b9250929050565b60008060008060006080868803121561078457600080fd5b61078d866106a1565b945061079b602087016106a1565b9350604086013567ffffffffffffffff8111156107b757600080fd5b6107c388828901610723565b909450925050606086013580151581146107dc57600080fd5b809150509295509295909350565b6000602082840312156107fc57600080fd5b5035919050565b60008060006040848603121561081857600080fd5b610821846106a1565b9250602084013567ffffffffffffffff81111561083d57600080fd5b61084986828701610723565b9497909650939450505050565b6000825160005b81811015610877576020818601810151858301520161085d565b506000920191825250919050565b602080825260089082015267217375636365737360c01b604082015260600190565b818382376000910190815291905056fea2646970667358221220a6fefcf5c89c48b5325633df4e8e0b891471ef30f1bb74dd9e32567e628eb57064736f6c63430008110033",
    "linkReferences": {}
  },
  "methodIdentifiers": {
    "Utilizer()": "350896fe",
    "balanceOfUnderlying(address)": "3af9e669",
    "beginGracePeriod()": "857f37cf",
    "borrower()": "7df1f1b9",
    "collateral()": "d8dfeb45",
    "collateral_balance()": "10d6f857",
    "collateral_type()": "7003dc66",
    "declareDefault()": "8a7a2d83",
    "depositCollateral(uint256)": "bad4a01f",
    "drawdown()": "e77ef21f",
    "estimatedTotalAssets()": "efbb5cb0",
    "getApprovedBorrowConditions()": "b93a02f3",
    "getCollateralRatio()": "cd377c53",
    "getCurrentLoanStatus()": "767c3053",
    "getMaturityBalance()": "1104aafd",
    "getProxy()": "933a9ce8",
    "getRemainingOwed()": "187526d9",
    "instrumentApprovalCondition()": "83e754a0",
    "interestToRepay()": "aeae11aa",
    "isLiquid(uint256)": "537d9409",
    "isLiquidatable(address)": "042e02cf",
    "isLocked()": "a4e2d634",
    "liquidateAllPositions()": "50bb4beb",
    "liquidateOwnership(address)": "15c98ece",
    "liquidatePosition(uint256)": "cdddd4e5",
    "loanStatus()": "074ca966",
    "onDefault()": "6febd543",
    "onMarketApproval(uint256,uint256)": "416288dd",
    "onMaturity()": "ca0565f5",
    "oracle()": "7dc0d1d0",
    "prepareWithdraw()": "49dcf4ed",
    "pushCollateralToVault(uint256,address)": "db37546d",
    "readyForWithdrawal()": "bdf0f253",
    "redeemUnderlying(uint256)": "852a12e3",
    "repay(uint256)": "371fd8e6",
    "setGracePeriod()": "424cfe72",
    "setUtilizer(address)": "57b25996",
    "store_internal_balance()": "f3aa68d3",
    "underlying()": "6f307dc3",
    "validators(uint256)": "35aa2e44",
    "vault()": "fbfa77cf"
  },
  "id": 15
}