{
  "abi": [
    {
      "inputs": [
        {
          "internalType": "address",
          "name": "vault",
          "type": "address"
        },
        {
          "internalType": "address",
          "name": "_borrower",
          "type": "address"
        },
        {
          "internalType": "uint256",
          "name": "_principal",
          "type": "uint256"
        },
        {
          "internalType": "uint256",
          "name": "_notionalInterest",
          "type": "uint256"
        },
        {
          "internalType": "uint256",
          "name": "_duration",
          "type": "uint256"
        },
        {
          "internalType": "uint256",
          "name": "_faceValue",
          "type": "uint256"
        },
        {
          "internalType": "address",
          "name": "_collateral",
          "type": "address"
        },
        {
          "internalType": "address",
          "name": "_oracle",
          "type": "address"
        },
        {
          "internalType": "uint256",
          "name": "_collateral_balance",
          "type": "uint256"
        },
        {
          "internalType": "uint256",
          "name": "_collateral_type",
          "type": "uint256"
        }
      ],
      "stateMutability": "nonpayable",
      "type": "constructor"
    },
    {
      "inputs": [],
      "name": "Utilizer",
      "outputs": [
        {
          "internalType": "address",
          "name": "",
          "type": "address"
        }
      ],
      "stateMutability": "view",
      "type": "function"
    },
    {
      "inputs": [
        {
          "internalType": "address",
          "name": "user",
          "type": "address"
        }
      ],
      "name": "balanceOfUnderlying",
      "outputs": [
        {
          "internalType": "uint256",
          "name": "",
          "type": "uint256"
        }
      ],
      "stateMutability": "view",
      "type": "function"
    },
    {
      "inputs": [],
      "name": "beginGracePeriod",
      "outputs": [],
      "stateMutability": "nonpayable",
      "type": "function"
    },
    {
      "inputs": [],
      "name": "borrower",
      "outputs": [
        {
          "internalType": "address",
          "name": "",
          "type": "address"
        }
      ],
      "stateMutability": "view",
      "type": "function"
    },
    {
      "inputs": [],
      "name": "collateral",
      "outputs": [
        {
          "internalType": "address",
          "name": "",
          "type": "address"
        }
      ],
      "stateMutability": "view",
      "type": "function"
    },
    {
      "inputs": [],
      "name": "collateral_balance",
      "outputs": [
        {
          "internalType": "uint256",
          "name": "",
          "type": "uint256"
        }
      ],
      "stateMutability": "view",
      "type": "function"
    },
    {
      "inputs": [],
      "name": "collateral_type",
      "outputs": [
        {
          "internalType": "enum CreditLine.CollateralType",
          "name": "",
          "type": "uint8"
        }
      ],
      "stateMutability": "view",
      "type": "function"
    },
    {
      "inputs": [],
      "name": "declareDefault",
      "outputs": [],
      "stateMutability": "nonpayable",
      "type": "function"
    },
    {
      "inputs": [
        {
          "internalType": "uint256",
          "name": "amount",
          "type": "uint256"
        }
      ],
      "name": "depositCollateral",
      "outputs": [],
      "stateMutability": "nonpayable",
      "type": "function"
    },
    {
      "inputs": [],
      "name": "drawdown",
      "outputs": [],
      "stateMutability": "nonpayable",
      "type": "function"
    },
    {
      "inputs": [],
      "name": "estimatedTotalAssets",
      "outputs": [
        {
          "internalType": "uint256",
          "name": "",
          "type": "uint256"
        }
      ],
      "stateMutability": "view",
      "type": "function"
    },
    {
      "inputs": [],
      "name": "getApprovedBorrowConditions",
      "outputs": [
        {
          "internalType": "uint256",
          "name": "",
          "type": "uint256"
        },
        {
          "internalType": "uint256",
          "name": "",
          "type": "uint256"
        }
      ],
      "stateMutability": "view",
      "type": "function"
    },
    {
      "inputs": [],
      "name": "getCollateralRatio",
      "outputs": [
        {
          "internalType": "uint256",
          "name": "",
          "type": "uint256"
        }
      ],
      "stateMutability": "view",
      "type": "function"
    },
    {
      "inputs": [],
      "name": "getCurrentLoanStatus",
      "outputs": [
        {
          "internalType": "uint256",
          "name": "",
          "type": "uint256"
        }
      ],
      "stateMutability": "view",
      "type": "function"
    },
    {
      "inputs": [],
      "name": "getMaturityBalance",
      "outputs": [
        {
          "internalType": "uint256",
          "name": "",
          "type": "uint256"
        }
      ],
      "stateMutability": "view",
      "type": "function"
    },
    {
      "inputs": [],
      "name": "getProxy",
      "outputs": [
        {
          "internalType": "address",
          "name": "",
          "type": "address"
        }
      ],
      "stateMutability": "view",
      "type": "function"
    },
    {
      "inputs": [],
      "name": "getRemainingOwed",
      "outputs": [
        {
          "internalType": "uint256",
          "name": "",
          "type": "uint256"
        },
        {
          "internalType": "uint256",
          "name": "",
          "type": "uint256"
        }
      ],
      "stateMutability": "view",
      "type": "function"
    },
    {
      "inputs": [],
      "name": "instrumentApprovalCondition",
      "outputs": [
        {
          "internalType": "bool",
          "name": "",
          "type": "bool"
        }
      ],
      "stateMutability": "view",
      "type": "function"
    },
    {
      "inputs": [],
      "name": "interestToRepay",
      "outputs": [
        {
          "internalType": "uint256",
          "name": "",
          "type": "uint256"
        }
      ],
      "stateMutability": "view",
      "type": "function"
    },
    {
      "inputs": [
        {
          "internalType": "uint256",
          "name": "amount",
          "type": "uint256"
        }
      ],
      "name": "isLiquid",
      "outputs": [
        {
          "internalType": "bool",
          "name": "",
          "type": "bool"
        }
      ],
      "stateMutability": "view",
      "type": "function"
    },
    {
      "inputs": [
        {
          "internalType": "address",
          "name": "collateral",
          "type": "address"
        }
      ],
      "name": "isLiquidatable",
      "outputs": [
        {
          "internalType": "bool",
          "name": "",
          "type": "bool"
        }
      ],
      "stateMutability": "view",
      "type": "function"
    },
    {
      "inputs": [],
      "name": "isLocked",
      "outputs": [
        {
          "internalType": "bool",
          "name": "",
          "type": "bool"
        }
      ],
      "stateMutability": "view",
      "type": "function"
    },
    {
      "inputs": [],
      "name": "liquidateAllPositions",
      "outputs": [
        {
          "internalType": "uint256",
          "name": "_amountFreed",
          "type": "uint256"
        }
      ],
      "stateMutability": "nonpayable",
      "type": "function"
    },
    {
      "inputs": [
        {
          "internalType": "address",
          "name": "buyer",
          "type": "address"
        }
      ],
      "name": "liquidateOwnership",
      "outputs": [],
      "stateMutability": "nonpayable",
      "type": "function"
    },
    {
      "inputs": [
        {
          "internalType": "uint256",
          "name": "_amountNeeded",
          "type": "uint256"
        }
      ],
      "name": "liquidatePosition",
      "outputs": [
        {
          "internalType": "uint256",
          "name": "_liquidatedAmount",
          "type": "uint256"
        },
        {
          "internalType": "uint256",
          "name": "_loss",
          "type": "uint256"
        }
      ],
      "stateMutability": "nonpayable",
      "type": "function"
    },
    {
      "inputs": [],
      "name": "loanStatus",
      "outputs": [
        {
          "internalType": "enum CreditLine.LoanStatus",
          "name": "",
          "type": "uint8"
        }
      ],
      "stateMutability": "view",
      "type": "function"
    },
    {
      "inputs": [],
      "name": "onDefault",
      "outputs": [],
      "stateMutability": "nonpayable",
      "type": "function"
    },
    {
      "inputs": [
        {
          "internalType": "uint256",
          "name": "max_principal",
          "type": "uint256"
        },
        {
          "internalType": "uint256",
          "name": "quoted_yield",
          "type": "uint256"
        }
      ],
      "name": "onMarketApproval",
      "outputs": [],
      "stateMutability": "nonpayable",
      "type": "function"
    },
    {
      "inputs": [],
      "name": "onMaturity",
      "outputs": [],
      "stateMutability": "nonpayable",
      "type": "function"
    },
    {
      "inputs": [],
      "name": "oracle",
      "outputs": [
        {
          "internalType": "address",
          "name": "",
          "type": "address"
        }
      ],
      "stateMutability": "view",
      "type": "function"
    },
    {
      "inputs": [],
      "name": "prepareWithdraw",
      "outputs": [
        {
          "internalType": "uint256",
          "name": "_profit",
          "type": "uint256"
        },
        {
          "internalType": "uint256",
          "name": "_loss",
          "type": "uint256"
        },
        {
          "internalType": "uint256",
          "name": "_debtPayment",
          "type": "uint256"
        }
      ],
      "stateMutability": "nonpayable",
      "type": "function"
    },
    {
      "inputs": [
        {
          "internalType": "uint256",
          "name": "amount",
          "type": "uint256"
        }
      ],
      "name": "pullRawFunds",
      "outputs": [],
      "stateMutability": "nonpayable",
      "type": "function"
    },
    {
      "inputs": [
        {
          "internalType": "uint256",
          "name": "amount",
          "type": "uint256"
        },
        {
          "internalType": "address",
          "name": "to",
          "type": "address"
        }
      ],
      "name": "pushCollateralToVault",
      "outputs": [],
      "stateMutability": "nonpayable",
      "type": "function"
    },
    {
      "inputs": [],
      "name": "readyForWithdrawal",
      "outputs": [
        {
          "internalType": "bool",
          "name": "",
          "type": "bool"
        }
      ],
      "stateMutability": "view",
      "type": "function"
    },
    {
      "inputs": [
        {
          "internalType": "uint256",
          "name": "amount",
          "type": "uint256"
        }
      ],
      "name": "redeemUnderlying",
      "outputs": [
        {
          "internalType": "bool",
          "name": "",
          "type": "bool"
        }
      ],
      "stateMutability": "nonpayable",
      "type": "function"
    },
    {
      "inputs": [
        {
          "internalType": "uint256",
          "name": "_repay_amount",
          "type": "uint256"
        }
      ],
      "name": "repay",
      "outputs": [],
      "stateMutability": "nonpayable",
      "type": "function"
    },
    {
      "inputs": [],
      "name": "setGracePeriod",
      "outputs": [],
      "stateMutability": "nonpayable",
      "type": "function"
    },
    {
      "inputs": [
        {
          "internalType": "address",
          "name": "_Utilizer",
          "type": "address"
        }
      ],
      "name": "setUtilizer",
      "outputs": [],
      "stateMutability": "nonpayable",
      "type": "function"
    },
    {
      "inputs": [],
      "name": "store_internal_balance",
      "outputs": [],
      "stateMutability": "nonpayable",
      "type": "function"
    },
    {
      "inputs": [],
      "name": "underlying",
      "outputs": [
        {
          "internalType": "contract ERC20",
          "name": "",
          "type": "address"
        }
      ],
      "stateMutability": "view",
      "type": "function"
    },
    {
      "inputs": [
        {
          "internalType": "uint256",
          "name": "",
          "type": "uint256"
        }
      ],
      "name": "validators",
      "outputs": [
        {
          "internalType": "address",
          "name": "",
          "type": "address"
        }
      ],
      "stateMutability": "view",
      "type": "function"
    },
    {
      "inputs": [],
      "name": "vault",
      "outputs": [
        {
          "internalType": "contract Vault",
          "name": "",
          "type": "address"
        }
      ],
      "stateMutability": "view",
      "type": "function"
    }
  ],
  "bytecode": {
    "object": "0x60a06040523480156200001157600080fd5b5060405162002eb438038062002eb48339810160408190526200003491620002dc565b600180546001600160a01b0319166001600160a01b038c16908117909155604080516362eb326360e11b815290518c928c92909163c5d664c6916004808201926020929091908290030181865afa15801562000094573d6000803e3d6000fd5b505050506040513d601f19601f82011682018060405250810190620000ba919062000383565b600080546001600160a01b0319166001600160a01b0392831690811790915560405163095ea7b360e01b8152918416600483015260001960248301529063095ea7b3906044016020604051808303816000875af115801562000120573d6000803e3d6000fd5b505050506040513d601f19601f82011682018060405250810190620001469190620003aa565b50600480546001600160a01b0319166001600160a01b039283161790558a16608052506200017d88670de0b6b3a7640000620003ce565b6007556200019487670de0b6b3a7640000620003ce565b600855600a869055620001b085670de0b6b3a7640000620003ce565b600955601280546001600160a01b038087166001600160a01b0319928316179092556013805492861692909116919091179055620001f782670de0b6b3a7640000620003ce565b6014558060038111156200020f576200020f620003fa565b6015805460ff191660018360038111156200022e576200022e620003fa565b0217905550601a805460ff1916905560405130908a906200024f90620002b5565b6001600160a01b03928316815291166020820152604001604051809103906000f08015801562000283573d6000803e3d6000fd5b50601d80546001600160a01b0319166001600160a01b0392909216919091179055506200041098505050505050505050565b6109ab806200250983390190565b6001600160a01b0381168114620002d957600080fd5b50565b6000806000806000806000806000806101408b8d031215620002fd57600080fd5b8a516200030a81620002c3565b60208c0151909a506200031d81620002c3565b8099505060408b0151975060608b0151965060808b0151955060a08b0151945060c08b01516200034d81620002c3565b60e08c01519094506200036081620002c3565b809350506101008b015191506101208b015190509295989b9194979a5092959850565b6000602082840312156200039657600080fd5b8151620003a381620002c3565b9392505050565b600060208284031215620003bd57600080fd5b81518015158114620003a357600080fd5b8082028115828204841417620003f457634e487b7160e01b600052601160045260246000fd5b92915050565b634e487b7160e01b600052602160045260246000fd5b6080516120d6620004336000396000818161040a015261138401526120d66000f3fe608060405234801561001057600080fd5b506004361061025e5760003560e01c80637df1f1b911610146578063bdf0f253116100c3578063d8dfeb4511610087578063d8dfeb45146104d6578063db37546d146104e9578063e77ef21f146104fc578063efbb5cb014610390578063f3aa68d314610504578063fbfa77cf1461050c57600080fd5b8063bdf0f2531461049d578063ca0565f5146104a5578063cd377c5314610390578063cdddd4e5146104ad578063d832f791146104c357600080fd5b8063933a9ce81161010a578063933a9ce814610457578063a4e2d63414610468578063aeae11aa1461047a578063b93a02f314610482578063bad4a01f1461048a57600080fd5b80637df1f1b91461040557806383e754a01461042c578063852a12e314610434578063857f37cf146104475780638a7a2d831461044f57600080fd5b8063416288dd116101df57806357b25996116101a357806357b25996146103aa5780636f307dc3146103bd5780636febd543146103d05780637003dc66146103d8578063767c3053146103905780637dc0d1d0146103f257600080fd5b8063416288dd1461035a578063424cfe72146102d857806349dcf4ed1461036d57806350bb4beb14610390578063537d94091461039757600080fd5b8063187526d911610226578063187526d9146102da578063350896fe146102f657806335aa2e4414610321578063371fd8e6146103345780633af9e6691461034757600080fd5b8063042e02cf14610263578063074ca9661461028c57806310d6f857146102a65780631104aafd146102bd57806315c98ece146102c5575b600080fd5b610277610271366004611e6d565b50600090565b60405190151581526020015b60405180910390f35b601a546102999060ff1681565b6040516102839190611ea0565b6102af60145481565b604051908152602001610283565b6002546102af565b6102d86102d3366004611e6d565b61051f565b005b600d54600e545b60408051928352602083019190915201610283565b600454610309906001600160a01b031681565b6040516001600160a01b039091168152602001610283565b61030961032f366004611eba565b61064c565b6102d8610342366004611eba565b610676565b6102af610355366004611e6d565b6107ea565b6102d8610368366004611ed3565b6108eb565b61037561094d565b60408051938452602084019290925290820152606001610283565b60006102af565b6102776103a5366004611eba565b6109e7565b6102d86103b8366004611e6d565b6109fb565b600054610309906001600160a01b031681565b6102d8610af1565b6015546103e59060ff1681565b6040516102839190611ef5565b601354610309906001600160a01b031681565b6103097f000000000000000000000000000000000000000000000000000000000000000081565b610277610c61565b610277610442366004611eba565b610e39565b6102d8610edf565b6102d8610f43565b601d546001600160a01b0316610309565b600154600160a01b900460ff16610277565b6102af61103b565b6102e1611091565b6102d8610498366004611eba565b61111c565b6102776111d6565b6102d861123f565b6102e16104bb366004611eba565b600080915091565b6102d86104d1366004611eba565b61144d565b601254610309906001600160a01b031681565b6102d86104f7366004611f09565b6114df565b6102d8611640565b6102d86117ac565b600154610309906001600160a01b031681565b600160009054906101000a90046001600160a01b03166001600160a01b0316638da5cb5b6040518163ffffffff1660e01b8152600401602060405180830381865afa158015610572573d6000803e3d6000fd5b505050506040513d601f19601f820116820180604052508101906105969190611f39565b6001600160a01b0316336001600160a01b031614806105c457503360009081526006602052604090205460ff165b6105e95760405162461bcd60e51b81526004016105e090611f56565b60405180910390fd5b601d5460405163157a618f60e11b81526001600160a01b03838116600483015290911690632af4c31e906024015b600060405180830381600087803b15801561063157600080fd5b505af1158015610645573d6000803e3d6000fd5b5050505050565b6005818154811061065c57600080fd5b6000918252602090912001546001600160a01b0316905081565b6004546001600160a01b031633146106a05760405162461bcd60e51b81526004016105e090611f7b565b6001546040516396d6487960e01b81523060048201526001600160a01b03909116906396d6487990602401602060405180830381865afa1580156106e8573d6000803e3d6000fd5b505050506040513d601f19601f8201168201806040525081019061070c9190611f9e565b6107475760405162461bcd60e51b815260206004820152600c60248201526b139bdd08185c1c1c9bdd995960a21b60448201526064016105e0565b600061075161103b565b9050600082828110610780576107678385611fd6565b6107719083611fe9565b6000600f55915082905061078e565b61078a8184611fd6565b600f555b61079882826118d0565b156107ce57436019556107a96119af565b156107c057601a805460ff191660041790556107ce565b601a805460ff191660051790555b6107d66119ec565b601b556107e4333086611a00565b50505050565b6000306001600160a01b0383160361087d576003546000546040516370a0823160e01b81526001600160a01b038581166004830152909116906370a0823190602401602060405180830381865afa158015610849573d6000803e3d6000fd5b505050506040513d601f19601f8201168201806040525081019061086d9190611ffc565b6108779190611fd6565b92915050565b6000546040516370a0823160e01b81526001600160a01b038481166004830152909116906370a0823190602401602060405180830381865afa1580156108c7573d6000803e3d6000fd5b505050506040513d601f19601f820116820180604052508101906108779190611ffc565b6001546001600160a01b031633146109155760405162461bcd60e51b81526004016105e090612015565b60078290556008819055600a54610937906109309084611b7a565b8290611b96565b600b555050601a805460ff19166001179055565b565b600154600090819081906001600160a01b0316331461097e5760405162461bcd60e51b81526004016105e090612015565b6109866111d6565b6109ca5760405162461bcd60e51b81526020600482015260156024820152746e6f7420726561647920746f20776974686472617760581b60448201526064016105e0565b6109e26001805460ff60a01b1916600160a01b179055565b909192565b6000816109f3306107ea565b101592915050565b600160009054906101000a90046001600160a01b03166001600160a01b0316638da5cb5b6040518163ffffffff1660e01b8152600401602060405180830381865afa158015610a4e573d6000803e3d6000fd5b505050506040513d601f19601f82011682018060405250810190610a729190611f39565b6001600160a01b0316336001600160a01b03161480610aa057503360009081526006602052604090205460ff165b610abc5760405162461bcd60e51b81526004016105e090611f56565b6001600160a01b038116610acf57600080fd5b600480546001600160a01b0319166001600160a01b0392909216919091179055565b600160009054906101000a90046001600160a01b03166001600160a01b0316638da5cb5b6040518163ffffffff1660e01b8152600401602060405180830381865afa158015610b44573d6000803e3d6000fd5b505050506040513d601f19601f82011682018060405250810190610b689190611f39565b6001600160a01b0316336001600160a01b03161480610b9657503360009081526006602052604090205460ff165b610bb25760405162461bcd60e51b81526004016105e090611f56565b6007601a5460ff166007811115610bcb57610bcb611e8a565b14610bd557600080fd5b6000546007546001600160a01b03909116906323b872dd9033903090610bfd90600290612043565b6040518463ffffffff1660e01b8152600401610c1b93929190612065565b6020604051808303816000875af1158015610c3a573d6000803e3d6000fd5b505050506040513d601f19601f82011682018060405250810190610c5e9190611f9e565b50565b60008060155460ff166003811115610c7b57610c7b611e8a565b1480610c9d5750600160155460ff166003811115610c9b57610c9b611e8a565b145b15610d5f576014546012546040516370a0823160e01b81523060048201526001600160a01b03909116906370a0823190602401602060405180830381865afa158015610ced573d6000803e3d6000fd5b505050506040513d601f19601f82011682018060405250810190610d119190611ffc565b1015610d5f5760405162461bcd60e51b815260206004820152601760248201527f496e73756666696369656e7420636f6c6c61746572616c00000000000000000060448201526064016105e0565b600260155460ff166003811115610d7857610d78611e8a565b148015610df95750601d60009054906101000a90046001600160a01b03166001600160a01b031663524d81d36040518163ffffffff1660e01b8152600401602060405180830381865afa158015610dd3573d6000803e3d6000fd5b505050506040513d601f19601f82011682018060405250810190610df79190611ffc565b155b15610e335760405162461bcd60e51b815260206004820152600a602482015269027bbb732b939b434b8160b51b60448201526064016105e0565b50600190565b6001546000906001600160a01b03163314610e665760405162461bcd60e51b81526004016105e090612015565b60005460015460405163a9059cbb60e01b81526001600160a01b0391821660048201526024810185905291169063a9059cbb906044016020604051808303816000875af1158015610ebb573d6000803e3d6000fd5b505050506040513d601f19601f820116820180604052508101906108779190611f9e565b6000600d54118015610ef357506000600e54115b610f285760405162461bcd60e51b81526020600482015260066024820152651c995c185a5960d21b60448201526064016105e0565b42601c55601a80546006919060ff19166001835b0217905550565b600160009054906101000a90046001600160a01b03166001600160a01b0316638da5cb5b6040518163ffffffff1660e01b8152600401602060405180830381865afa158015610f96573d6000803e3d6000fd5b505050506040513d601f19601f82011682018060405250810190610fba9190611f39565b6001600160a01b0316336001600160a01b03161480610fe857503360009081526006602052604090205460ff165b6110045760405162461bcd60e51b81526004016105e090611f56565b6006601a5460ff16600781111561101d5761101d611e8a565b1461102757600080fd5b601a80546007919060ff1916600183610f3c565b60008061105b601b5461104c6119ec565b6110569190611fd6565b611bab565b9050600f5461108161107a600d54600b54611b7a90919063ffffffff16565b8390611b7a565b61108b9190611fe9565b91505090565b6001546040516396d6487960e01b815230600482015260009182916001600160a01b03909116906396d6487990602401602060405180830381865afa1580156110de573d6000803e3d6000fd5b505050506040513d601f19601f820116820180604052508101906111029190611f9e565b156111135750506007546008549091565b50600091829150565b6004546001600160a01b031633146111465760405162461bcd60e51b81526004016105e090611f7b565b6012546001600160a01b031661115b57600080fd5b6012546040516323b872dd60e01b81526001600160a01b03909116906323b872dd9061118f90339030908690600401612065565b6020604051808303816000875af11580156111ae573d6000803e3d6000fd5b505050506040513d601f19601f820116820180604052508101906111d29190611f9e565b5050565b60006005601a5460ff1660078111156111f1576111f1611e8a565b148061121357506007601a5460ff16600781111561121157611211611e8a565b145b8061123457506004601a5460ff16600781111561123257611232611e8a565b145b15610e335750600190565b6004546001600160a01b031633146112695760405162461bcd60e51b81526004016105e090611f7b565b6004601a5460ff16600781111561128257611282611e8a565b14806112a457506005601a5460ff1660078111156112a2576112a2611e8a565b145b6112de5760405162461bcd60e51b815260206004820152600b60248201526a139bdd081b585d1d5c995960aa1b60448201526064016105e0565b601954431161131d5760405162461bcd60e51b815260206004820152600b60248201526a109b1bd8dac8195c5d585b60aa1b60448201526064016105e0565b600060155460ff16600381111561133657611336611e8a565b14806113585750600160155460ff16600381111561135657611356611e8a565b145b1561136a57611365611bce565b6113ea565b601d5460405163157a618f60e11b81526001600160a01b037f00000000000000000000000000000000000000000000000000000000000000008116600483015290911690632af4c31e90602401600060405180830381600087803b1580156113d157600080fd5b505af11580156113e5573d6000803e3d6000fd5b505050505b60006004601a5460ff16600781111561140557611405611e8a565b14611411576000611414565b60015b60015460405163109d3ea960e11b815230600482015282151560248201529192506001600160a01b03169063213a7d5290604401610617565b6000546040516323b872dd60e01b81526001600160a01b03909116906323b872dd9061148190339030908690600401612065565b6020604051808303816000875af11580156114a0573d6000803e3d6000fd5b505050506040513d601f19601f820116820180604052508101906114c49190611f9e565b5080600360008282546114d79190611fe9565b909155505050565b600160009054906101000a90046001600160a01b03166001600160a01b0316638da5cb5b6040518163ffffffff1660e01b8152600401602060405180830381865afa158015611532573d6000803e3d6000fd5b505050506040513d601f19601f820116820180604052508101906115569190611f39565b6001600160a01b0316336001600160a01b0316148061158457503360009081526006602052604090205460ff165b6115a05760405162461bcd60e51b81526004016105e090611f56565b6007601a5460ff1660078111156115b9576115b9611e8a565b146115c357600080fd5b60125460405163a9059cbb60e01b81526001600160a01b038381166004830152602482018590529091169063a9059cbb906044015b6020604051808303816000875af1158015611617573d6000803e3d6000fd5b505050506040513d601f19601f8201168201806040525081019061163b9190611f9e565b505050565b6004546001600160a01b0316331461166a5760405162461bcd60e51b81526004016105e090611f7b565b6001546040516396d6487960e01b81523060048201526001600160a01b03909116906396d6487990602401602060405180830381865afa1580156116b2573d6000803e3d6000fd5b505050506040513d601f19601f820116820180604052508101906116d69190611f9e565b6117115760405162461bcd60e51b815260206004820152600c60248201526b139bdd08185c1c1c9bdd995960a21b60448201526064016105e0565b6001601a5460ff16600781111561172a5761172a611e8a565b1461176a5760405162461bcd60e51b815260206004820152601060248201526f105b1c9958591e48189bdc9c9bddd95960821b60448201526064016105e0565b601a805460ff19166002179055426016819055601b556008546007546117909190611fe9565b600c55600754600d819055600854600e5561094b903390611c82565b6001546001600160a01b031633146117d65760405162461bcd60e51b81526004016105e090612015565b6117df306107ea565b60025560015460408051637e0b9fe360e11b815290516001600160a01b039092169163fc173fc6916004808201926020929091908290030181865afa15801561182c573d6000803e3d6000fd5b505050506040513d601f19601f820116820180604052508101906118509190611f9e565b1561094b57600154600254604051634b674ead60e11b81526001600160a01b03909216916396ce9d5a9161188a9160040190815260200190565b602060405180830381865afa1580156118a7573d6000803e3d6000fd5b505050506040513d601f19601f820116820180604052508101906118cb9190611ffc565b600255565b60006118e76118df8385611fe9565b600c54611dbe565b600c60008282546118f89190611fd6565b9250508190555061190b83600d54611dbe565b600d600082825461191c9190611fd6565b9250508190555061192f82600e54611dbe565b600e60008282546119409190611fd6565b9250508190555082601060008282546119599190611fe9565b9250508190555081601160008282546119729190611fe9565b9091555050821561198557611985611dd4565b6000600d5460001480156119995750600e54155b6119a45760006119a7565b60015b949350505050565b600080670de0b6b3a76400006011546010546119cb9190611fe9565b6119d59190611fe9565b6008546007546119e59190611fe9565b1192915050565b60006119fb4262f099c0611fe9565b905090565b600154600160a01b900460ff1615611a1757600080fd5b600160009054906101000a90046001600160a01b03166001600160a01b031663fc173fc66040518163ffffffff1660e01b8152600401602060405180830381865afa158015611a6a573d6000803e3d6000fd5b505050506040513d601f19601f82011682018060405250810190611a8e9190611f9e565b15611b035760015460405163098b6def60e11b8152600481018390526001600160a01b0390911690631316dbde90602401602060405180830381865afa158015611adc573d6000803e3d6000fd5b505050506040513d601f19601f82011682018060405250810190611b009190611ffc565b90505b6000546040516323b872dd60e01b81526001600160a01b03909116906323b872dd90611b3790869086908690600401612065565b6020604051808303816000875af1158015611b56573d6000803e3d6000fd5b505050506040513d601f19601f820116820180604052508101906107e49190611f9e565b6000611b8f8383670de0b6b3a7640000611e29565b9392505050565b6000611b8f83670de0b6b3a764000084611e29565b60006301e13380611bc483670de0b6b3a7640000612089565b6108779190612043565b6005601a5460ff166007811115611be757611be7611e8a565b1480611c0957506004601a5460ff166007811115611c0757611c07611e8a565b145b611c475760405162461bcd60e51b815260206004820152600f60248201526e2637b0b71039ba30ba3ab99032b93960891b60448201526064016105e0565b60125460145460405163a9059cbb60e01b815233600482015260248101919091526001600160a01b039091169063a9059cbb90604401610c1b565b600154600160a01b900460ff1615611c9957600080fd5b600160009054906101000a90046001600160a01b03166001600160a01b031663fc173fc66040518163ffffffff1660e01b8152600401602060405180830381865afa158015611cec573d6000803e3d6000fd5b505050506040513d601f19601f82011682018060405250810190611d109190611f9e565b15611d855760015460405163098b6def60e11b8152600481018390526001600160a01b0390911690631316dbde90602401602060405180830381865afa158015611d5e573d6000803e3d6000fd5b505050506040513d601f19601f82011682018060405250810190611d829190611ffc565b90505b60005460405163a9059cbb60e01b81526001600160a01b038481166004830152602482018490529091169063a9059cbb906044016115f8565b6000818310611dcd5781611b8f565b5090919050565b6000611dde6119ec565b611de9600a54611e48565b601654611df69190611fe9565b611e009190611fd6565b9050611e23611e1a600d54611e1484611bab565b90611b7a565b600b5490611b7a565b600e5550565b828202811515841585830485141716611e4157600080fd5b0492915050565b60006108776301e1338083611b7a565b6001600160a01b0381168114610c5e57600080fd5b600060208284031215611e7f57600080fd5b8135611b8f81611e58565b634e487b7160e01b600052602160045260246000fd5b6020810160088310611eb457611eb4611e8a565b91905290565b600060208284031215611ecc57600080fd5b5035919050565b60008060408385031215611ee657600080fd5b50508035926020909101359150565b6020810160048310611eb457611eb4611e8a565b60008060408385031215611f1c57600080fd5b823591506020830135611f2e81611e58565b809150509250929050565b600060208284031215611f4b57600080fd5b8151611b8f81611e58565b6020808252600b908201526a08585d5d1a1bdc9a5e995960aa1b604082015260600190565b60208082526009908201526810aaba34b634bd32b960b91b604082015260600190565b600060208284031215611fb057600080fd5b81518015158114611b8f57600080fd5b634e487b7160e01b600052601160045260246000fd5b8181038181111561087757610877611fc0565b8082018082111561087757610877611fc0565b60006020828403121561200e57600080fd5b5051919050565b60208082526014908201527318d85b1b195c881b5d5cdd081899481d985d5b1d60621b604082015260600190565b60008261206057634e487b7160e01b600052601260045260246000fd5b500490565b6001600160a01b039384168152919092166020820152604081019190915260600190565b808202811582820484141761087757610877611fc056fea2646970667358221220fbd81063da1e1dd9cba653eb8cc8b8f0820cf7c95c6e5f56f4979a72c7dde5b164736f6c63430008110033608060405234801561001057600080fd5b506040516109ab3803806109ab83398101604081905261002f9161007c565b600080546001600160a01b039384166001600160a01b031991821617909155600180549290931691161790556100af565b80516001600160a01b038116811461007757600080fd5b919050565b6000806040838503121561008f57600080fd5b61009883610060565b91506100a660208401610060565b90509250929050565b6108ed806100be6000396000f3fe608060405234801561001057600080fd5b50600436106100935760003560e01c8063524d81d311610066578063524d81d31461018c578063893d20e81461019d57806399f3c79b146101c2578063bade64b1146101fe578063d4f804cf1461021157600080fd5b806301a3f256146100985780630eaad4891461012e5780632af4c31e146101665780633ac47fff14610179575b600080fd5b61012c6100a63660046106bd565b6002805460018082019092557f405787fa12a823e0f2b7631cc41b3ba8828b3321ca811111fa75cd3aa3bb5ace0180546001600160a01b0319166001600160a01b039490941693841790556000928352600460209081526040808520805460ff191690931790925560039052909120805463ffffffff191660e09290921c919091179055565b005b61015161013c366004610701565b60046020526000908152604090205460ff1681565b60405190151581526020015b60405180910390f35b61012c610174366004610701565b610224565b61012c61018736600461076c565b610291565b60025460405190815260200161015d565b6000546001600160a01b03165b6040516001600160a01b03909116815260200161015d565b6101e56101d0366004610701565b60036020526000908152604090205460e01b81565b6040516001600160e01b0319909116815260200161015d565b6101aa61020c3660046107ea565b610512565b61012c61021f366004610803565b61053c565b6000546001600160a01b0316331461026f5760405162461bcd60e51b81526020600482015260096024820152682737ba1037bbb732b960b91b60448201526064015b60405180910390fd5b600080546001600160a01b0319166001600160a01b0392909216919091179055565b6000546001600160a01b031633146102a857600080fd5b6001600160a01b03851660009081526004602052604090205460ff166102cd57600080fd5b6001600160a01b03841630146102fe576001600160a01b0385166000908152600460205260409020805460ff191690555b80156103dc576001600160a01b038581166000818152600360205260408082205490519388166024850152909260e09190911b9060440160408051601f198184030181529181526020820180516001600160e01b03166001600160e01b03199094169390931790925290516103739190610856565b6000604051808303816000865af19150503d80600081146103b0576040519150601f19603f3d011682016040523d82523d6000602084013e6103b5565b606091505b50509050806103d65760405162461bcd60e51b815260040161026690610885565b5061050b565b6001600160a01b038516600090815260036020908152604091829020548251601f860183900483028101830190935284835260e01b6001600160e01b0319169161044091869086908190840183828082843760009201919091525061068692505050565b6001600160e01b0319160361048a5760405162461bcd60e51b815260206004820152601060248201526f199d5b98c81b9bdd08185b1b1bddd95960821b6044820152606401610266565b6000856001600160a01b031684846040516104a69291906108a7565b6000604051808303816000865af19150503d80600081146104e3576040519150601f19603f3d011682016040523d82523d6000602084013e6104e8565b606091505b50509050806105095760405162461bcd60e51b815260040161026690610885565b505b5050505050565b6002818154811061052257600080fd5b6000918252602090912001546001600160a01b0316905081565b6001546001600160a01b0316331461055357600080fd5b6001600160a01b038316600090815260036020908152604091829020548251601f850183900483028101830190935283835260e01b6001600160e01b031916916105b791859085908190840183828082843760009201919091525061068692505050565b6001600160e01b031916036106015760405162461bcd60e51b815260206004820152601060248201526f199d5b98c81b9bdd08185b1b1bddd95960821b6044820152606401610266565b6000836001600160a01b0316838360405161061d9291906108a7565b6000604051808303816000865af19150503d806000811461065a576040519150601f19603f3d011682016040523d82523d6000602084013e61065f565b606091505b50509050806106805760405162461bcd60e51b815260040161026690610885565b50505050565b6000815160000361069957506000919050565b506004015190565b80356001600160a01b03811681146106b857600080fd5b919050565b600080604083850312156106d057600080fd5b6106d9836106a1565b915060208301356001600160e01b0319811681146106f657600080fd5b809150509250929050565b60006020828403121561071357600080fd5b61071c826106a1565b9392505050565b60008083601f84011261073557600080fd5b50813567ffffffffffffffff81111561074d57600080fd5b60208301915083602082850101111561076557600080fd5b9250929050565b60008060008060006080868803121561078457600080fd5b61078d866106a1565b945061079b602087016106a1565b9350604086013567ffffffffffffffff8111156107b757600080fd5b6107c388828901610723565b909450925050606086013580151581146107dc57600080fd5b809150509295509295909350565b6000602082840312156107fc57600080fd5b5035919050565b60008060006040848603121561081857600080fd5b610821846106a1565b9250602084013567ffffffffffffffff81111561083d57600080fd5b61084986828701610723565b9497909650939450505050565b6000825160005b81811015610877576020818601810151858301520161085d565b506000920191825250919050565b602080825260089082015267217375636365737360c01b604082015260600190565b818382376000910190815291905056fea264697066735822122012881412e6de64c3bd3f6d28f6de86070395ba0e525c8603207f277f47ea3b0b64736f6c63430008110033",
    "linkReferences": {}
  },
  "methodIdentifiers": {
    "Utilizer()": "350896fe",
    "balanceOfUnderlying(address)": "3af9e669",
    "beginGracePeriod()": "857f37cf",
    "borrower()": "7df1f1b9",
    "collateral()": "d8dfeb45",
    "collateral_balance()": "10d6f857",
    "collateral_type()": "7003dc66",
    "declareDefault()": "8a7a2d83",
    "depositCollateral(uint256)": "bad4a01f",
    "drawdown()": "e77ef21f",
    "estimatedTotalAssets()": "efbb5cb0",
    "getApprovedBorrowConditions()": "b93a02f3",
    "getCollateralRatio()": "cd377c53",
    "getCurrentLoanStatus()": "767c3053",
    "getMaturityBalance()": "1104aafd",
    "getProxy()": "933a9ce8",
    "getRemainingOwed()": "187526d9",
    "instrumentApprovalCondition()": "83e754a0",
    "interestToRepay()": "aeae11aa",
    "isLiquid(uint256)": "537d9409",
    "isLiquidatable(address)": "042e02cf",
    "isLocked()": "a4e2d634",
    "liquidateAllPositions()": "50bb4beb",
    "liquidateOwnership(address)": "15c98ece",
    "liquidatePosition(uint256)": "cdddd4e5",
    "loanStatus()": "074ca966",
    "onDefault()": "6febd543",
    "onMarketApproval(uint256,uint256)": "416288dd",
    "onMaturity()": "ca0565f5",
    "oracle()": "7dc0d1d0",
    "prepareWithdraw()": "49dcf4ed",
    "pullRawFunds(uint256)": "d832f791",
    "pushCollateralToVault(uint256,address)": "db37546d",
    "readyForWithdrawal()": "bdf0f253",
    "redeemUnderlying(uint256)": "852a12e3",
    "repay(uint256)": "371fd8e6",
    "setGracePeriod()": "424cfe72",
    "setUtilizer(address)": "57b25996",
    "store_internal_balance()": "f3aa68d3",
    "underlying()": "6f307dc3",
    "validators(uint256)": "35aa2e44",
    "vault()": "fbfa77cf"
  },
  "id": 25
}