{
  "abi": [
    {
      "inputs": [
        {
          "internalType": "contract Controller",
          "name": "_controller",
          "type": "address"
        },
        {
          "internalType": "contract MarketManager",
          "name": "_marketManager",
          "type": "address"
        },
        {
          "internalType": "uint256",
          "name": "vaultId",
          "type": "uint256"
        }
      ],
      "name": "fetchInitial",
      "outputs": [
        {
          "components": [
            {
              "internalType": "string",
              "name": "name",
              "type": "string"
            },
            {
              "internalType": "string",
              "name": "symbol",
              "type": "string"
            },
            {
              "internalType": "uint256",
              "name": "vaultId",
              "type": "uint256"
            },
            {
              "internalType": "uint256[]",
              "name": "marketIds",
              "type": "uint256[]"
            },
            {
              "components": [
                {
                  "internalType": "uint256",
                  "name": "N",
                  "type": "uint256"
                },
                {
                  "internalType": "uint256",
                  "name": "sigma",
                  "type": "uint256"
                },
                {
                  "internalType": "uint256",
                  "name": "alpha",
                  "type": "uint256"
                },
                {
                  "internalType": "uint256",
                  "name": "omega",
                  "type": "uint256"
                },
                {
                  "internalType": "uint256",
                  "name": "delta",
                  "type": "uint256"
                },
                {
                  "internalType": "uint256",
                  "name": "r",
                  "type": "uint256"
                },
                {
                  "internalType": "uint256",
                  "name": "s",
                  "type": "uint256"
                },
                {
                  "internalType": "uint256",
                  "name": "steak",
                  "type": "uint256"
                }
              ],
              "internalType": "struct MarketParameters",
              "name": "default_params",
              "type": "tuple"
            },
            {
              "internalType": "bool",
              "name": "onlyVerified",
              "type": "bool"
            },
            {
              "internalType": "uint256",
              "name": "r",
              "type": "uint256"
            },
            {
              "internalType": "uint256",
              "name": "asset_limit",
              "type": "uint256"
            },
            {
              "internalType": "uint256",
              "name": "total_asset_limit",
              "type": "uint256"
            },
            {
              "components": [
                {
                  "internalType": "address",
                  "name": "addr",
                  "type": "address"
                },
                {
                  "internalType": "string",
                  "name": "symbol",
                  "type": "string"
                },
                {
                  "internalType": "uint256",
                  "name": "decimals",
                  "type": "uint256"
                },
                {
                  "internalType": "string",
                  "name": "name",
                  "type": "string"
                }
              ],
              "internalType": "struct Fetcher.AssetBundle",
              "name": "want",
              "type": "tuple"
            },
            {
              "internalType": "uint256",
              "name": "totalShares",
              "type": "uint256"
            },
            {
              "internalType": "uint256",
              "name": "totalAssets",
              "type": "uint256"
            },
            {
              "internalType": "address",
              "name": "vault_address",
              "type": "address"
            },
            {
              "internalType": "uint256",
              "name": "exchangeRate",
              "type": "uint256"
            },
            {
              "internalType": "uint256",
              "name": "utilizationRate",
              "type": "uint256"
            },
            {
              "internalType": "uint256",
              "name": "totalEstimatedAPR",
              "type": "uint256"
            },
            {
              "internalType": "uint256",
              "name": "goalAPR",
              "type": "uint256"
            },
            {
              "internalType": "uint256",
              "name": "totalProtection",
              "type": "uint256"
            },
            {
              "internalType": "uint256",
              "name": "totalInstrumentHoldings",
              "type": "uint256"
            }
          ],
          "internalType": "struct Fetcher.VaultBundle",
          "name": "vaultBundle",
          "type": "tuple"
        },
        {
          "components": [
            {
              "internalType": "uint256",
              "name": "marketId",
              "type": "uint256"
            },
            {
              "internalType": "uint256",
              "name": "vaultId",
              "type": "uint256"
            },
            {
              "internalType": "uint256",
              "name": "creationTimestamp",
              "type": "uint256"
            },
            {
              "internalType": "uint256",
              "name": "resolutionTimestamp",
              "type": "uint256"
            },
            {
              "internalType": "bool",
              "name": "marketConditionMet",
              "type": "bool"
            },
            {
              "internalType": "uint256",
              "name": "approvedPrincipal",
              "type": "uint256"
            },
            {
              "internalType": "uint256",
              "name": "approvedYield",
              "type": "uint256"
            },
            {
              "internalType": "uint256",
              "name": "managerStake",
              "type": "uint256"
            },
            {
              "internalType": "uint256",
              "name": "totalCollateral",
              "type": "uint256"
            },
            {
              "internalType": "uint256",
              "name": "redemptionPrice",
              "type": "uint256"
            },
            {
              "internalType": "address",
              "name": "bondPool",
              "type": "address"
            },
            {
              "internalType": "address",
              "name": "longZCB",
              "type": "address"
            },
            {
              "internalType": "uint256",
              "name": "longZCBSupply",
              "type": "uint256"
            },
            {
              "internalType": "address",
              "name": "shortZCB",
              "type": "address"
            },
            {
              "internalType": "uint256",
              "name": "shortZCBSupply",
              "type": "uint256"
            },
            {
              "internalType": "uint256",
              "name": "longZCBPrice",
              "type": "uint256"
            },
            {
              "internalType": "uint256",
              "name": "a_initial",
              "type": "uint256"
            },
            {
              "internalType": "uint256",
              "name": "b_initial",
              "type": "uint256"
            },
            {
              "internalType": "uint256",
              "name": "b",
              "type": "uint256"
            },
            {
              "internalType": "uint256",
              "name": "discountCap",
              "type": "uint256"
            },
            {
              "internalType": "uint256",
              "name": "discountedReserves",
              "type": "uint256"
            },
            {
              "components": [
                {
                  "internalType": "uint256",
                  "name": "N",
                  "type": "uint256"
                },
                {
                  "internalType": "uint256",
                  "name": "sigma",
                  "type": "uint256"
                },
                {
                  "internalType": "uint256",
                  "name": "alpha",
                  "type": "uint256"
                },
                {
                  "internalType": "uint256",
                  "name": "omega",
                  "type": "uint256"
                },
                {
                  "internalType": "uint256",
                  "name": "delta",
                  "type": "uint256"
                },
                {
                  "internalType": "uint256",
                  "name": "r",
                  "type": "uint256"
                },
                {
                  "internalType": "uint256",
                  "name": "s",
                  "type": "uint256"
                },
                {
                  "internalType": "uint256",
                  "name": "steak",
                  "type": "uint256"
                }
              ],
              "internalType": "struct MarketParameters",
              "name": "parameters",
              "type": "tuple"
            },
            {
              "components": [
                {
                  "internalType": "bool",
                  "name": "duringAssessment",
                  "type": "bool"
                },
                {
                  "internalType": "bool",
                  "name": "onlyReputable",
                  "type": "bool"
                },
                {
                  "internalType": "bool",
                  "name": "resolved",
                  "type": "bool"
                },
                {
                  "internalType": "bool",
                  "name": "alive",
                  "type": "bool"
                },
                {
                  "internalType": "bool",
                  "name": "atLoss",
                  "type": "bool"
                },
                {
                  "internalType": "uint256",
                  "name": "base_budget",
                  "type": "uint256"
                }
              ],
              "internalType": "struct MarketPhaseData",
              "name": "phase",
              "type": "tuple"
            },
            {
              "components": [
                {
                  "internalType": "address[]",
                  "name": "validators",
                  "type": "address[]"
                },
                {
                  "internalType": "uint256",
                  "name": "val_cap",
                  "type": "uint256"
                },
                {
                  "internalType": "uint256",
                  "name": "avg_price",
                  "type": "uint256"
                },
                {
                  "internalType": "uint256",
                  "name": "totalSales",
                  "type": "uint256"
                },
                {
                  "internalType": "uint256",
                  "name": "totalStaked",
                  "type": "uint256"
                },
                {
                  "internalType": "uint256",
                  "name": "numApproved",
                  "type": "uint256"
                },
                {
                  "internalType": "uint256",
                  "name": "initialStake",
                  "type": "uint256"
                },
                {
                  "internalType": "uint256",
                  "name": "finalStake",
                  "type": "uint256"
                },
                {
                  "internalType": "uint256",
                  "name": "numResolved",
                  "type": "uint256"
                }
              ],
              "internalType": "struct Fetcher.ValidatorBundle",
              "name": "validatorData",
              "type": "tuple"
            }
          ],
          "internalType": "struct Fetcher.MarketBundle[]",
          "name": "marketBundle",
          "type": "tuple[]"
        },
        {
          "components": [
            {
              "internalType": "uint256",
              "name": "marketId",
              "type": "uint256"
            },
            {
              "internalType": "uint256",
              "name": "vaultId",
              "type": "uint256"
            },
            {
              "internalType": "address",
              "name": "utilizer",
              "type": "address"
            },
            {
              "internalType": "bool",
              "name": "trusted",
              "type": "bool"
            },
            {
              "internalType": "bool",
              "name": "isPool",
              "type": "bool"
            },
            {
              "internalType": "uint256",
              "name": "balance",
              "type": "uint256"
            },
            {
              "internalType": "uint256",
              "name": "faceValue",
              "type": "uint256"
            },
            {
              "internalType": "uint256",
              "name": "principal",
              "type": "uint256"
            },
            {
              "internalType": "uint256",
              "name": "expectedYield",
              "type": "uint256"
            },
            {
              "internalType": "uint256",
              "name": "duration",
              "type": "uint256"
            },
            {
              "internalType": "string",
              "name": "description",
              "type": "string"
            },
            {
              "internalType": "address",
              "name": "instrument_address",
              "type": "address"
            },
            {
              "internalType": "enum InstrumentType",
              "name": "instrument_type",
              "type": "uint8"
            },
            {
              "internalType": "uint256",
              "name": "maturityDate",
              "type": "uint256"
            },
            {
              "internalType": "bytes32",
              "name": "name",
              "type": "bytes32"
            },
            {
              "internalType": "uint256",
              "name": "seniorAPR",
              "type": "uint256"
            },
            {
              "internalType": "uint256",
              "name": "exposurePercentage",
              "type": "uint256"
            },
            {
              "internalType": "uint256",
              "name": "managers_stake",
              "type": "uint256"
            },
            {
              "internalType": "uint256",
              "name": "approvalPrice",
              "type": "uint256"
            },
            {
              "components": [
                {
                  "internalType": "uint256",
                  "name": "saleAmount",
                  "type": "uint256"
                },
                {
                  "internalType": "uint256",
                  "name": "initPrice",
                  "type": "uint256"
                },
                {
                  "internalType": "uint256",
                  "name": "promisedReturn",
                  "type": "uint256"
                },
                {
                  "internalType": "uint256",
                  "name": "inceptionTime",
                  "type": "uint256"
                },
                {
                  "internalType": "uint256",
                  "name": "inceptionPrice",
                  "type": "uint256"
                },
                {
                  "internalType": "uint256",
                  "name": "leverageFactor",
                  "type": "uint256"
                },
                {
                  "internalType": "uint256",
                  "name": "managementFee",
                  "type": "uint256"
                },
                {
                  "internalType": "uint256",
                  "name": "pju",
                  "type": "uint256"
                },
                {
                  "internalType": "uint256",
                  "name": "psu",
                  "type": "uint256"
                },
                {
                  "internalType": "uint128",
                  "name": "totalBorrowedAssets",
                  "type": "uint128"
                },
                {
                  "internalType": "uint128",
                  "name": "totalSuppliedAssets",
                  "type": "uint128"
                },
                {
                  "internalType": "uint256",
                  "name": "totalAvailableAssets",
                  "type": "uint256"
                },
                {
                  "internalType": "uint256",
                  "name": "ratePerSec",
                  "type": "uint256"
                },
                {
                  "internalType": "uint256",
                  "name": "lastUpdate",
                  "type": "uint256"
                },
                {
                  "internalType": "uint256",
                  "name": "utilizationRate",
                  "type": "uint256"
                },
                {
                  "internalType": "address",
                  "name": "rateContract",
                  "type": "address"
                },
                {
                  "internalType": "string",
                  "name": "rateName",
                  "type": "string"
                },
                {
                  "internalType": "uint256",
                  "name": "exchangeRate",
                  "type": "uint256"
                },
                {
                  "components": [
                    {
                      "internalType": "address",
                      "name": "tokenAddress",
                      "type": "address"
                    },
                    {
                      "internalType": "uint256",
                      "name": "tokenId",
                      "type": "uint256"
                    },
                    {
                      "internalType": "uint256",
                      "name": "decimals",
                      "type": "uint256"
                    },
                    {
                      "internalType": "uint256",
                      "name": "maxAmount",
                      "type": "uint256"
                    },
                    {
                      "internalType": "uint256",
                      "name": "borrowAmount",
                      "type": "uint256"
                    },
                    {
                      "internalType": "uint256",
                      "name": "totalCollateral",
                      "type": "uint256"
                    },
                    {
                      "internalType": "string",
                      "name": "symbol",
                      "type": "string"
                    },
                    {
                      "internalType": "string",
                      "name": "name",
                      "type": "string"
                    },
                    {
                      "internalType": "bool",
                      "name": "isERC20",
                      "type": "bool"
                    },
                    {
                      "internalType": "address",
                      "name": "owner",
                      "type": "address"
                    }
                  ],
                  "internalType": "struct Fetcher.CollateralBundle[]",
                  "name": "collaterals",
                  "type": "tuple[]"
                }
              ],
              "internalType": "struct Fetcher.PoolBundle",
              "name": "poolData",
              "type": "tuple"
            },
            {
              "components": [
                {
                  "internalType": "uint256",
                  "name": "strikePrice",
                  "type": "uint256"
                },
                {
                  "internalType": "uint256",
                  "name": "pricePerContract",
                  "type": "uint256"
                },
                {
                  "internalType": "uint256",
                  "name": "shortCollateral",
                  "type": "uint256"
                },
                {
                  "internalType": "uint256",
                  "name": "longCollateral",
                  "type": "uint256"
                },
                {
                  "internalType": "uint256",
                  "name": "maturityDate",
                  "type": "uint256"
                },
                {
                  "internalType": "uint256",
                  "name": "tradeTime",
                  "type": "uint256"
                },
                {
                  "internalType": "address",
                  "name": "oracle",
                  "type": "address"
                },
                {
                  "internalType": "bool",
                  "name": "approvalStatus",
                  "type": "bool"
                }
              ],
              "internalType": "struct Fetcher.OptionsBundle",
              "name": "optionsData",
              "type": "tuple"
            },
            {
              "components": [
                {
                  "internalType": "address",
                  "name": "collateral",
                  "type": "address"
                },
                {
                  "internalType": "address",
                  "name": "oracle",
                  "type": "address"
                },
                {
                  "internalType": "uint256",
                  "name": "collateralBalance",
                  "type": "uint256"
                },
                {
                  "internalType": "uint256",
                  "name": "principalRepayed",
                  "type": "uint256"
                },
                {
                  "internalType": "uint256",
                  "name": "interestRepayed",
                  "type": "uint256"
                },
                {
                  "internalType": "uint256",
                  "name": "totalOwed",
                  "type": "uint256"
                },
                {
                  "internalType": "enum CreditLine.CollateralType",
                  "name": "collateralType",
                  "type": "uint8"
                },
                {
                  "internalType": "enum CreditLine.LoanStatus",
                  "name": "loanStatus",
                  "type": "uint8"
                }
              ],
              "internalType": "struct Fetcher.CreditlineBundle",
              "name": "creditlineData",
              "type": "tuple"
            }
          ],
          "internalType": "struct Fetcher.InstrumentBundle[]",
          "name": "instrumentBundle",
          "type": "tuple[]"
        },
        {
          "internalType": "uint256",
          "name": "timestamp",
          "type": "uint256"
        }
      ],
      "stateMutability": "view",
      "type": "function"
    }
  ],
  "bytecode": {
    "object": "0x608060405234801561001057600080fd5b5061492d806100206000396000f3fe608060405234801561001057600080fd5b506004361061002b5760003560e01c8063f8ac4e2c14610030575b600080fd5b61004361003e3660046134c8565b61005c565b6040516100539493929190613d19565b60405180910390f35b610064612f97565b604051634632752560e11b815260048101839052606090819042906000906001600160a01b03891690638c64ea4a90602401602060405180830381865afa1580156100b3573d6000803e3d6000fd5b505050506040513d601f19601f820116820180604052508101906100d79190613ea5565b90506001600160a01b03811661015f576100ef61098a565b6040805160008082526020820190925290610120565b61010d61306c565b8152602001906001900390816101055790505b506040805160008082526020820190925290610152565b61013f613177565b8152602001906001900390816101375790505b5094509450945050610981565b806001600160a01b03166306fdde036040518163ffffffff1660e01b8152600401600060405180830381865afa15801561019d573d6000803e3d6000fd5b505050506040513d6000823e601f3d908101601f191682016040526101c59190810190613fe7565b8560000181905250806001600160a01b03166395d89b416040518163ffffffff1660e01b8152600401600060405180830381865afa15801561020b573d6000803e3d6000fd5b505050506040513d6000823e601f3d908101601f191682016040526102339190810190613fe7565b60208601526040808601879052516358dbf0f960e11b8152600481018790526001600160a01b0389169063b1b7e1f290602401600060405180830381865afa158015610283573d6000803e3d6000fd5b505050506040513d6000823e601f3d908101601f191682016040526102ab919081019061403e565b8560600181905250806001600160a01b0316637572cb1f6040518163ffffffff1660e01b815260040161010060405180830381865afa1580156102f2573d6000803e3d6000fd5b505050506040513d601f19601f8201168201806040525081019061031691906140d3565b8560800181905250806001600160a01b031663f7d070de6040518163ffffffff1660e01b8152600401602060405180830381865afa15801561035c573d6000803e3d6000fd5b505050506040513d601f19601f820116820180604052508101906103809190614177565b8560a00190151590811515815250506103f9816001600160a01b03166338d52e0f6040518163ffffffff1660e01b8152600401602060405180830381865afa1580156103d0573d6000803e3d6000fd5b505050506040513d601f19601f820116820180604052508101906103f49190613ea5565b610ad9565b856101200181905250806001600160a01b0316636c8ae38c6040518163ffffffff1660e01b8152600401602060405180830381865afa158015610440573d6000803e3d6000fd5b505050506040513d601f19601f82011682018060405250810190610464919061419d565b8560c0018181525050806001600160a01b0316635f260bb86040518163ffffffff1660e01b8152600401602060405180830381865afa1580156104ab573d6000803e3d6000fd5b505050506040513d601f19601f820116820180604052508101906104cf919061419d565b8560e0018181525050806001600160a01b031663c83baf4e6040518163ffffffff1660e01b8152600401602060405180830381865afa158015610516573d6000803e3d6000fd5b505050506040513d601f19601f8201168201806040525081019061053a919061419d565b85610100018181525050806001600160a01b03166318160ddd6040518163ffffffff1660e01b8152600401602060405180830381865afa158015610582573d6000803e3d6000fd5b505050506040513d601f19601f820116820180604052508101906105a6919061419d565b85610140018181525050806001600160a01b03166301e1d1146040518163ffffffff1660e01b8152600401602060405180830381865afa1580156105ee573d6000803e3d6000fd5b505050506040513d601f19601f82011682018060405250810190610612919061419d565b6101608601526001600160a01b0381166101808601819052604080516336190e4560e11b81529051636c321c8a916004808201926020929091908290030181865afa158015610665573d6000803e3d6000fd5b505050506040513d601f19601f82011682018060405250810190610689919061419d565b856101c0018181525050806001600160a01b031663ca2989f46040518163ffffffff1660e01b8152600401602060405180830381865afa1580156106d1573d6000803e3d6000fd5b505050506040513d601f19601f820116820180604052508101906106f5919061419d565b610240860152604051630323d56760e61b8152600481018790526000908190819081906001600160a01b038d169063c8f559c090602401608060405180830381865afa158015610749573d6000803e3d6000fd5b505050506040513d601f19601f8201168201806040525081019061076d91906141b6565b6102208d018490526101e08d018390526102008d018290526101a08d0181905260608d0151519397509195509350915060000361081957604080516000808252602082019092528a916107d6565b6107c361306c565b8152602001906001900390816107bb5790505b506040805160008082526020820190925290610808565b6107f5613177565b8152602001906001900390816107ed5790505b509850985098505050505050610981565b8860600151516001600160401b0381111561083657610836613ec9565b60405190808252806020026020018201604052801561086f57816020015b61085c61306c565b8152602001906001900390816108545790505b5097508860600151516001600160401b0381111561088f5761088f613ec9565b6040519080825280602002602001820160405280156108c857816020015b6108b5613177565b8152602001906001900390816108ad5790505b50965060005b89606001515181101561097a576109048a6060015182815181106108f4576108f46141ec565b60200260200101518c8f8f610c63565b898281518110610916576109166141ec565b602002602001018190525061094a8a60600151828151811061093a5761093a6141ec565b60200260200101518c8f8f611373565b88828151811061095c5761095c6141ec565b6020026020010181905250808061097290614218565b9150506108ce565b5050505050505b93509350935093565b610992612f97565b6040805161028081018252600061026082018181528252825160208082018552828252808401919091528284018290528351828152908101909352909160608301915081526020016040518061010001604052806000815260200160008152602001600081526020016000815260200160008152602001600081526020016000815260200160008152508152602001600015158152602001600081526020016000815260200160008152602001604051806080016040528060006001600160a01b0316815260200160405180602001604052806000815250815260200160008152602001604051806020016040528060008152508152508152602001600081526020016000815260200160006001600160a01b0316815260200160008152602001600081526020016000815260200160008152602001600081526020016000815250905090565b610b0d604051806080016040528060006001600160a01b031681526020016060815260200160008152602001606081525090565b6001600160a01b038216808252604080516395d89b4160e01b815290516395d89b41916004808201926000929091908290030181865afa158015610b55573d6000803e3d6000fd5b505050506040513d6000823e601f3d908101601f19168201604052610b7d9190810190613fe7565b8160200181905250816001600160a01b031663313ce5676040518163ffffffff1660e01b8152600401602060405180830381865afa158015610bc3573d6000803e3d6000fd5b505050506040513d601f19601f82011682018060405250810190610be79190614231565b60ff16816040018181525050816001600160a01b03166306fdde036040518163ffffffff1660e01b8152600401600060405180830381865afa158015610c31573d6000803e3d6000fd5b505050506040513d6000823e601f3d908101601f19168201604052610c599190810190613fe7565b6060820152919050565b610c6b61306c565b8481526020810184905260405163eb44fdd360e01b8152600481018690526000906001600160a01b0384169063eb44fdd390602401600060405180830381865afa158015610cbd573d6000803e3d6000fd5b505050506040513d6000823e601f3d908101601f19168201604052610ce59190810190614254565b608081015160408481019190915260a082015160608501525163b743939b60e01b8152600481018890529091506001600160a01b0385169063b743939b90602401602060405180830381865afa158015610d43573d6000803e3d6000fd5b505050506040513d601f19601f82011682018060405250810190610d679190614177565b1515608083015260405163ac1b6b0160e01b8152600481018790526000906001600160a01b0386169063ac1b6b0190602401606060405180830381865afa158015610db6573d6000803e3d6000fd5b505050506040513d601f19601f82011682018060405250810190610dda9190614318565b602081015160a085015260408082015160c0860152815160e08601525163661f1cf560e01b8152600481018990529091506001600160a01b0385169063661f1cf590602401602060405180830381865afa158015610e3c573d6000803e3d6000fd5b505050506040513d601f19601f82011682018060405250810190610e60919061419d565b610100840152604051633e4de2e760e11b8152600481018890526001600160a01b03851690637c9bc5ce90602401602060405180830381865afa158015610eab573d6000803e3d6000fd5b505050506040513d601f19601f82011682018060405250810190610ecf919061419d565b61012084015260405163265d466f60e11b8152600481018890526001600160a01b03851690634cba8cde9060240160c060405180830381865afa158015610f1a573d6000803e3d6000fd5b505050506040513d601f19601f82011682018060405250810190610f3e9190614373565b6102c084015260405163c6ceb96b60e01b8152600481018890526001600160a01b0385169063c6ceb96b9060240161010060405180830381865afa158015610f8a573d6000803e3d6000fd5b505050506040513d601f19601f82011682018060405250810190610fae91906140d3565b6102a084015281516001600160a01b0390811661014085015260208084015182166101608601526040808501805184166101a08801525181516318160ddd60e01b815291519316926318160ddd926004808401939192918290030181865afa15801561101e573d6000803e3d6000fd5b505050506040513d601f19601f82011682018060405250810190611042919061419d565b836101c001818152505081602001516001600160a01b03166318160ddd6040518163ffffffff1660e01b8152600401602060405180830381865afa15801561108e573d6000803e3d6000fd5b505050506040513d601f19601f820116820180604052508101906110b2919061419d565b8361018001818152505081600001516001600160a01b03166311e715d66040518163ffffffff1660e01b8152600401602060405180830381865afa1580156110fe573d6000803e3d6000fd5b505050506040513d601f19601f82011682018060405250810190611122919061419d565b836101e001818152505081600001516001600160a01b0316636e2f7ad36040518163ffffffff1660e01b8152600401602060405180830381865afa15801561116e573d6000803e3d6000fd5b505050506040513d601f19601f82011682018060405250810190611192919061419d565b8361020001818152505081600001516001600160a01b031663558bdb296040518163ffffffff1660e01b8152600401602060405180830381865afa1580156111de573d6000803e3d6000fd5b505050506040513d601f19601f82011682018060405250810190611202919061419d565b8361022001818152505081600001516001600160a01b0316634df7e3d06040518163ffffffff1660e01b8152600401602060405180830381865afa15801561124e573d6000803e3d6000fd5b505050506040513d601f19601f82011682018060405250810190611272919061419d565b8361024001818152505081600001516001600160a01b0316637063b06c6040518163ffffffff1660e01b8152600401602060405180830381865afa1580156112be573d6000803e3d6000fd5b505050506040513d601f19601f820116820180604052508101906112e2919061419d565b8361026001818152505081600001516001600160a01b0316631816eb136040518163ffffffff1660e01b8152600401602060405180830381865afa15801561132e573d6000803e3d6000fd5b505050506040513d601f19601f82011682018060405250810190611352919061419d565b61028084015261136287866117cb565b6102e0840152509095945050505050565b61137b613177565b604051634632752560e11b8152600481018590526000906001600160a01b03851690638c64ea4a90602401602060405180830381865afa1580156113c3573d6000803e3d6000fd5b505050506040513d601f19601f820116820180604052508101906113e79190613ea5565b604051638d4f16d760e01b8152600481018890529091506000906001600160a01b03861690638d4f16d7906024016040805180830381865afa158015611431573d6000803e3d6000fd5b505050506040513d601f19601f82011682018060405250810190611455919061440d565b604051634f626a0760e11b8152600481018a9052909250600091506001600160a01b03841690639ec4d40e90602401600060405180830381865afa1580156114a1573d6000803e3d6000fd5b505050506040513d6000823e601f3d908101601f191682016040526114c991908101906144b8565b9050600080600080896001600160a01b03166337b4dd3a8d6040518263ffffffff1660e01b81526004016114ff91815260200190565b608060405180830381865afa15801561151c573d6000803e3d6000fd5b505050506040513d601f19601f8201168201806040525081019061154091906141b6565b93509350935093508388610220018181525050828861020001818152505081886101e001818152505080886102400181815250508b8860000181815250508a88602001818152505084602001518860800190151590811515815250508460400151886060019015159081151581525050866001600160a01b03166338d52e0f6040518163ffffffff1660e01b8152600401602060405180830381865afa1580156115ee573d6000803e3d6000fd5b505050506040513d601f19601f820116820180604052508101906116129190613ea5565b6101408601516040516370a0823160e01b81526001600160a01b0391821660048201529116906370a0823190602401602060405180830381865afa15801561165e573d6000803e3d6000fd5b505050506040513d601f19601f82011682018060405250810190611682919061419d565b60a089015260c085015160e0808a0191909152850151610100808a0191909152850151610120808a019190915285015161014089015261016085015161018089019060058111156116d5576116d5613897565b908160058111156116e8576116e8613897565b9052506101808501516101a08901526101408501516001600160a01b039081166101608a01528616604089015284516101c08901526002856101600151600581111561173657611736613897565b03611752576117478c8c8c8c611bbb565b6102608901526117bc565b6001856101600151600581111561176b5761176b613897565b036117895761177e8861016001516125e0565b6102808901526117bc565b600085610160015160058111156117a2576117a2613897565b036117bc576117b5886101600151612962565b6102a08901525b50505050505050949350505050565b6117d3613254565b60405163a40c63f760e01b8152600481018490526001600160a01b0383169063a40c63f790602401602060405180830381865afa158015611818573d6000803e3d6000fd5b505050506040513d601f19601f8201168201806040525081019061183c919061419d565b60408281019190915251633ec8dc3b60e01b8152600481018490526001600160a01b03831690633ec8dc3b90602401600060405180830381865afa158015611888573d6000803e3d6000fd5b505050506040513d6000823e601f3d908101601f191682016040526118b091908101906145dd565b815260405163037bc93b60e41b8152600481018490526001600160a01b038316906337bc93b090602401602060405180830381865afa1580156118f7573d6000803e3d6000fd5b505050506040513d601f19601f8201168201806040525081019061191b919061419d565b6060820152604051632f8899f360e01b8152600481018490526001600160a01b03831690632f8899f390602401602060405180830381865afa158015611965573d6000803e3d6000fd5b505050506040513d601f19601f82011682018060405250810190611989919061419d565b6080820152604051632015e62b60e21b8152600481018490526001600160a01b0383169063805798ac90602401602060405180830381865afa1580156119d3573d6000803e3d6000fd5b505050506040513d601f19601f820116820180604052508101906119f7919061419d565b60a08201526040516343af243f60e11b8152600481018490526001600160a01b0383169063875e487e90602401602060405180830381865afa158015611a41573d6000803e3d6000fd5b505050506040513d601f19601f82011682018060405250810190611a65919061419d565b60c082015260405163937b6feb60e01b8152600481018490526001600160a01b0383169063937b6feb90602401602060405180830381865afa158015611aaf573d6000803e3d6000fd5b505050506040513d601f19601f82011682018060405250810190611ad3919061419d565b60e08201526040516375ea6e2360e11b8152600481018490526001600160a01b0383169063ebd4dc4690602401602060405180830381865afa158015611b1d573d6000803e3d6000fd5b505050506040513d601f19601f82011682018060405250810190611b41919061419d565b610100820152604051633519918760e21b8152600481018490526001600160a01b0383169063d466461c90602401602060405180830381865afa158015611b8c573d6000803e3d6000fd5b505050506040513d601f19601f82011682018060405250810190611bb0919061419d565b602082015292915050565b611bc36132a0565b604051634632752560e11b8152600481018590526000906001600160a01b03851690638c64ea4a90602401602060405180830381865afa158015611c0b573d6000803e3d6000fd5b505050506040513d601f19601f82011682018060405250810190611c2f9190613ea5565b6040516350c6e6cf60e01b8152600481018890529091506000906001600160a01b038316906350c6e6cf90602401602060405180830381865afa158015611c7a573d6000803e3d6000fd5b505050506040513d601f19601f82011682018060405250810190611c9e9190613ea5565b604051634f626a0760e11b8152600481018990529091506000906001600160a01b03841690639ec4d40e90602401600060405180830381865afa158015611ce9573d6000803e3d6000fd5b505050506040513d6000823e601f3d908101601f19168201604052611d1191908101906144b8565b6101a081018051518652805160209081015190870152805160409081015181880152815160609081015190880152815160809081015190880152815160a09081015190880152905160c0908101519087015251630ca13e4560e41b8152600481018a905290915060009081906001600160a01b0386169063ca13e45090602401606060405180830381865afa158015611dae573d6000803e3d6000fd5b505050506040513d601f19601f82011682018060405250810190611dd2919061466b565b50915091508186610100018181525050808660e00181815250506000846001600160a01b0316638354cc596040518163ffffffff1660e01b8152600401600060405180830381865afa158015611e2c573d6000803e3d6000fd5b505050506040513d6000823e601f3d908101601f19168201604052611e549190810190614699565b8051909150806001600160401b03811115611e7157611e71613ec9565b604051908082528060200260200182016040528015611eaa57816020015b611e9761334d565b815260200190600190039081611e8f5790505b5061024089015260005b818110156121e2576000806000808a6001600160a01b031663d3160c0f8c6001600160a01b0316635fdb07f68a8981518110611ef257611ef26141ec565b6020026020010151600001518b8a81518110611f1057611f106141ec565b6020026020010151602001516040518363ffffffff1660e01b8152600401611f4d9291906001600160a01b03929092168252602082015260400190565b602060405180830381865afa158015611f6a573d6000803e3d6000fd5b505050506040513d601f19601f82011682018060405250810190611f8e919061419d565b6040518263ffffffff1660e01b8152600401611fac91815260200190565b61010060405180830381865afa158015611fca573d6000803e3d6000fd5b505050506040513d601f19601f82011682018060405250810190611fee919061474c565b50505050935093509350935061204287868151811061200f5761200f6141ec565b60200260200101516000015188878151811061202d5761202d6141ec565b60200260200101516020015185858589612d2a565b8d61024001518681518110612059576120596141ec565b60200260200101819052508a6001600160a01b03166332ae4f408c6001600160a01b0316635fdb07f68a8981518110612094576120946141ec565b6020026020010151600001518b8a815181106120b2576120b26141ec565b6020026020010151602001516040518363ffffffff1660e01b81526004016120ef9291906001600160a01b03929092168252602082015260400190565b602060405180830381865afa15801561210c573d6000803e3d6000fd5b505050506040513d601f19601f82011682018060405250810190612130919061419d565b6040518263ffffffff1660e01b815260040161214e91815260200190565b602060405180830381865afa15801561216b573d6000803e3d6000fd5b505050506040513d601f19601f8201168201806040525081019061218f9190613ea5565b8d610240015186815181106121a6576121a66141ec565b602002602001015161012001906001600160a01b031690816001600160a01b0316815250505050505080806121da90614218565b915050611eb4565b50600080876001600160a01b03166395d14ca86040518163ffffffff1660e01b8152600401606060405180830381865afa158015612224573d6000803e3d6000fd5b505050506040513d601f19601f8201168201806040525081019061224891906147c9565b6001600160401b038082166101808f015282166101a08e01526040805163020a17bd60e61b81528151939650919450600093506001600160a01b038c1692638285ef409260048082019392918290030181865afa1580156122ad573d6000803e3d6000fd5b505050506040513d601f19601f820116820180604052508101906122d19190614823565b5090506000896001600160a01b031663f9557ccb6040518163ffffffff1660e01b81526004016040805180830381865afa158015612313573d6000803e3d6000fd5b505050506040513d601f19601f820116820180604052508101906123379190614823565b5090506001600160801b0381161561236b578061235c83670de0b6b3a7640000614856565b6123669190614881565b61236e565b60005b6001600160801b03168c6101c0018181525050896001600160a01b031663eee242196040518163ffffffff1660e01b8152600401602060405180830381865afa1580156123bf573d6000803e3d6000fd5b505050506040513d601f19601f820116820180604052508101906123e39190613ea5565b8c6101e001906001600160a01b031690816001600160a01b031681525050896001600160a01b031663eee242196040518163ffffffff1660e01b8152600401602060405180830381865afa15801561243f573d6000803e3d6000fd5b505050506040513d601f19601f820116820180604052508101906124639190613ea5565b6001600160a01b03166306fdde036040518163ffffffff1660e01b8152600401600060405180830381865afa1580156124a0573d6000803e3d6000fd5b505050506040513d6000823e601f3d908101601f191682016040526124c89190810190613fe7565b6102008d015260405163b3d7f6b960e01b8152670de0b6b3a764000060048201526001600160a01b038b169063b3d7f6b990602401602060405180830381865afa15801561251a573d6000803e3d6000fd5b505050506040513d601f19601f8201168201806040525081019061253e919061419d565b6102208d01526001600160801b038083166101208e015281166101408d015260408051631d09b9e960e21b815290516001600160a01b038c1691637426e7a49160048083019260209291908290030181865afa1580156125a2573d6000803e3d6000fd5b505050506040513d601f19601f820116820180604052508101906125c6919061419d565b6101608d015250999e9d5050505050505050505050505050565b6125e86133b4565b60008290506000816001600160a01b031663c52987cf6040518163ffffffff1660e01b8152600401602060405180830381865afa15801561262d573d6000803e3d6000fd5b505050506040513d601f19601f82011682018060405250810190612651919061419d565b90506000826001600160a01b031663c576ce016040518163ffffffff1660e01b8152600401602060405180830381865afa158015612693573d6000803e3d6000fd5b505050506040513d601f19601f820116820180604052508101906126b7919061419d565b90506000836001600160a01b031663870dcaeb6040518163ffffffff1660e01b8152600401602060405180830381865afa1580156126f9573d6000803e3d6000fd5b505050506040513d601f19601f8201168201806040525081019061271d919061419d565b90506000846001600160a01b031663cb29bb9a6040518163ffffffff1660e01b8152600401602060405180830381865afa15801561275f573d6000803e3d6000fd5b505050506040513d601f19601f82011682018060405250810190612783919061419d565b90506000856001600160a01b0316634e8bfdaa6040518163ffffffff1660e01b8152600401602060405180830381865afa1580156127c5573d6000803e3d6000fd5b505050506040513d601f19601f820116820180604052508101906127e9919061419d565b90506000866001600160a01b0316638eac20666040518163ffffffff1660e01b8152600401602060405180830381865afa15801561282b573d6000803e3d6000fd5b505050506040513d601f19601f8201168201806040525081019061284f919061419d565b90506000876001600160a01b0316637dc0d1d06040518163ffffffff1660e01b8152600401602060405180830381865afa158015612891573d6000803e3d6000fd5b505050506040513d601f19601f820116820180604052508101906128b59190613ea5565b878a526020808b018890526040808c0188905260608c0187905260808c0186905260a08c018590526001600160a01b0380841660c08e0152815163041f3aa560e51b815291519394508b16926383e754a0926004808401939192918290030181865afa158015612929573d6000803e3d6000fd5b505050506040513d601f19601f8201168201806040525081019061294d9190614177565b151560e08a0152509698975050505050505050565b61296a613404565b6000829050806001600160a01b031663d8dfeb456040518163ffffffff1660e01b8152600401602060405180830381865afa1580156129ad573d6000803e3d6000fd5b505050506040513d601f19601f820116820180604052508101906129d19190613ea5565b6001600160a01b039081168352604080516310d6f85760e01b81529051918316916310d6f857916004808201926020929091908290030181865afa158015612a1d573d6000803e3d6000fd5b505050506040513d601f19601f82011682018060405250810190612a41919061419d565b826040018181525050806001600160a01b0316637003dc666040518163ffffffff1660e01b8152600401602060405180830381865afa158015612a88573d6000803e3d6000fd5b505050506040513d601f19601f82011682018060405250810190612aac91906148b5565b8260c001906003811115612ac257612ac2613897565b90816003811115612ad557612ad5613897565b81525050806001600160a01b0316637dc0d1d06040518163ffffffff1660e01b8152600401602060405180830381865afa158015612b17573d6000803e3d6000fd5b505050506040513d601f19601f82011682018060405250810190612b3b9190613ea5565b82602001906001600160a01b031690816001600160a01b031681525050806001600160a01b031663074ca9666040518163ffffffff1660e01b8152600401602060405180830381865afa158015612b96573d6000803e3d6000fd5b505050506040513d601f19601f82011682018060405250810190612bba91906148d6565b8260e001906007811115612bd057612bd0613897565b90816007811115612be357612be3613897565b81525050806001600160a01b0316633467cd7f6040518163ffffffff1660e01b8152600401602060405180830381865afa158015612c25573d6000803e3d6000fd5b505050506040513d601f19601f82011682018060405250810190612c49919061419d565b826060018181525050806001600160a01b031663e7fa9f7d6040518163ffffffff1660e01b8152600401602060405180830381865afa158015612c90573d6000803e3d6000fd5b505050506040513d601f19601f82011682018060405250810190612cb4919061419d565b8260a0018181525050806001600160a01b031663e91145dc6040518163ffffffff1660e01b8152600401602060405180830381865afa158015612cfb573d6000803e3d6000fd5b505050506040513d601f19601f82011682018060405250810190612d1f919061419d565b608083015250919050565b612d3261334d565b6001600160a01b03871681526020810186905260608101859052608081018490528215801561010083015260a08201839052612eb357866001600160a01b03166306fdde036040518163ffffffff1660e01b8152600401600060405180830381865afa158015612da6573d6000803e3d6000fd5b505050506040513d6000823e601f3d908101601f19168201604052612dce9190810190613fe7565b8160e00181905250866001600160a01b03166395d89b416040518163ffffffff1660e01b8152600401600060405180830381865afa158015612e14573d6000803e3d6000fd5b505050506040513d6000823e601f3d908101601f19168201604052612e3c9190810190613fe7565b8160c00181905250866001600160a01b031663313ce5676040518163ffffffff1660e01b8152600401602060405180830381865afa158015612e82573d6000803e3d6000fd5b505050506040513d601f19601f82011682018060405250810190612ea69190614231565b60ff166040820152612f8d565b866001600160a01b03166306fdde036040518163ffffffff1660e01b8152600401600060405180830381865afa158015612ef1573d6000803e3d6000fd5b505050506040513d6000823e601f3d908101601f19168201604052612f199190810190613fe7565b8160e00181905250866001600160a01b03166395d89b416040518163ffffffff1660e01b8152600401600060405180830381865afa158015612f5f573d6000803e3d6000fd5b505050506040513d6000823e601f3d908101601f19168201604052612f879190810190613fe7565b60c08201525b9695505050505050565b60405180610260016040528060608152602001606081526020016000815260200160608152602001612fc761346b565b815260200160001515815260200160008152602001600081526020016000815260200161301e604051806080016040528060006001600160a01b031681526020016060815260200160008152602001606081525090565b8152602001600081526020016000815260200160006001600160a01b031681526020016000815260200160008152602001600081526020016000815260200160008152602001600081525090565b60405180610300016040528060008152602001600081526020016000815260200160008152602001600015158152602001600081526020016000815260200160008152602001600081526020016000815260200160006001600160a01b0316815260200160006001600160a01b031681526020016000815260200160006001600160a01b031681526020016000815260200160008152602001600081526020016000815260200160008152602001600081526020016000815260200161313061346b565b81526040805160c08101825260008082526020828101829052928201819052606082018190526080820181905260a08201529101908152602001613172613254565b905290565b604051806102c00160405280600081526020016000815260200160006001600160a01b0316815260200160001515815260200160001515815260200160008152602001600081526020016000815260200160008152602001600081526020016060815260200160006001600160a01b031681526020016000600581111561320057613200613897565b815260200160008152602001600080191681526020016000815260200160008152602001600081526020016000815260200161323a6132a0565b81526020016132476133b4565b8152602001613172613404565b6040518061012001604052806060815260200160008152602001600081526020016000815260200160008152602001600081526020016000815260200160008152602001600081525090565b60405180610260016040528060008152602001600081526020016000815260200160008152602001600081526020016000815260200160008152602001600081526020016000815260200160006001600160801b0316815260200160006001600160801b031681526020016000815260200160008152602001600081526020016000815260200160006001600160a01b031681526020016060815260200160008152602001606081525090565b60405180610140016040528060006001600160a01b031681526020016000815260200160008152602001600081526020016000815260200160008152602001606081526020016060815260200160001515815260200160006001600160a01b031681525090565b60405180610100016040528060008152602001600081526020016000815260200160008152602001600081526020016000815260200160006001600160a01b031681526020016000151581525090565b60405180610100016040528060006001600160a01b0316815260200160006001600160a01b03168152602001600081526020016000815260200160008152602001600081526020016000600381111561345f5761345f613897565b81526020016000905290565b60405180610100016040528060008152602001600081526020016000815260200160008152602001600081526020016000815260200160008152602001600081525090565b6001600160a01b03811681146134c557600080fd5b50565b6000806000606084860312156134dd57600080fd5b83356134e8816134b0565b925060208401356134f8816134b0565b929592945050506040919091013590565b60005b8381101561352457818101518382015260200161350c565b50506000910152565b60008151808452613545816020860160208601613509565b601f01601f19169290920160200192915050565b600081518084526020808501945080840160005b838110156135895781518752958201959082019060010161356d565b509495945050505050565b805182526020810151602083015260408101516040830152606081015160608301526080810151608083015260a081015160a083015260c081015160c083015260e081015160e08301525050565b60018060a01b0381511682526000602082015160806020850152613609608085018261352d565b9050604083015160408501526060830151848203606086015261362c828261352d565b95945050505050565b80516101208084528151908401819052600091610140850191602091820190845b8181101561367b5782516001600160a01b031685529383019391830191600101613656565b50505080840151818601525060408301516040850152606083015160608501526080830151608085015260a083015160a085015260c083015160c085015260e083015160e08501526101008084015181860152508091505092915050565b600081518084526020808501808196508360051b8101915082860160005b8581101561388a5782840389528151805185528581015186860152604080820151908601526060808201519086015260808082015115159086015260a0808201519086015260c0808201519086015260e0808201519086015261010080820151908601526101208082015190860152610140808201516001600160a01b03908116918701919091526101608083015182169087015261018080830151908701526101a080830151909116908601526101c080820151908601526101e08082015190860152610200808201519086015261022080820151908601526102408082015190860152610260808201519086015261028080820151908601526102a080820151610480919061380a82890182613594565b50506102c0820151805115156103a0880152602081015115156103c0880152604081015115156103e0880152606081015115156104008801526080810151151561042088015260a001516104408701526102e09091015161046086018290529061387681870183613635565b9a87019a95505050908401906001016136f7565b5091979650505050505050565b634e487b7160e01b600052602160045260246000fd5b600681106138bd576138bd613897565b9052565b600081518084526020808501808196508360051b8101915082860160005b8581101561388a578284038952815180516001600160a01b03168552610140818701518688015260408083015190870152606080830151908701526080808301519087015260a0808301519087015260c0808301518188018390526139468389018261352d565b9250505060e08083015187830382890152613961838261352d565b92505050610100808301516139798289018215159052565b5050610120918201516001600160a01b0316959091019490945297840197908401906001016138df565b6000610260825184526020830151602085015260408301516040850152606083015160608501526080830151608085015260a083015160a085015260c083015160c085015260e083015160e085015261010080840151818601525061012080840151613a19828701826001600160801b03169052565b5050610140838101516001600160801b031690850152610160808401519085015261018080840151908501526101a080840151908501526101c080840151908501526101e0808401516001600160a01b03169085015261020080840151818601839052613a888387018261352d565b925050506102208084015181860152506102408084015185830382870152612f8d83826138c1565b600881106138bd576138bd613897565b60018060a01b038082511683528060208301511660208401525060408101516040830152606081015160608301526080810151608083015260a081015160a083015260c081015160048110613b1757613b17613897565b8060c08401525060e0810151613b3060e0840182613ab0565b505050565b600081518084526020808501808196508360051b8101915082860160005b8581101561388a5782840389528151610480815186528682015187870152604080830151613b8b828901826001600160a01b03169052565b505060608281015115159087015260808083015115159087015260a0808301519087015260c0808301519087015260e080830151908701526101008083015190870152610120808301519087015261014080830151818801839052613bf28389018261352d565b9250505061016080830151613c11828901826001600160a01b03169052565b505061018080830151613c26828901826138ad565b50506101a082810151908701526101c080830151908701526101e080830151908701526102008083015190870152610220808301519087015261024080830151908701526102608083015187830382890152613c8283826139a3565b6102808581015180518b83015260208101516102a08c015260408101516102c08c015260608101516102e08c015260808101516103008c015260a08101516103208c015260c08101516001600160a01b03166103408c015260e081015115156103608c01529194509250905050506102a08201519150613d06610380870183613ac0565b9986019994505090840190600101613b53565b6080815260008551610340806080850152613d386103c085018361352d565b91506020880151607f19808685030160a0870152613d56848361352d565b935060408a015160c087015260608a01519150808685030160e0870152613d7d8483613559565b935060808a01519150610100613d9581880184613594565b60a08b01519250610200613dac8189018515159052565b60c08c0151935061022084818a015260e08d0151945061024085818b0152838e01516102608b01526101208e01519550848a8903016102808b0152613df188876135e2565b97506101408e01516102a08b01526101608e01516102c08b01526101808e01519550613e296102e08b01876001600160a01b03169052565b6101a08e01516103008b01526101c08e01516103208b01526101e08e0151968a0196909652908c01516103608901528b01516103808801525050508701516103a08401528281036020840152613e7f81876136d9565b90508281036040840152613e938186613b35565b91505082606083015295945050505050565b600060208284031215613eb757600080fd5b8151613ec2816134b0565b9392505050565b634e487b7160e01b600052604160045260246000fd5b60405160e081016001600160401b0381118282101715613f0157613f01613ec9565b60405290565b6040516101c081016001600160401b0381118282101715613f0157613f01613ec9565b604080519081016001600160401b0381118282101715613f0157613f01613ec9565b604051601f8201601f191681016001600160401b0381118282101715613f7457613f74613ec9565b604052919050565b600082601f830112613f8d57600080fd5b81516001600160401b03811115613fa657613fa6613ec9565b613fb9601f8201601f1916602001613f4c565b818152846020838601011115613fce57600080fd5b613fdf826020830160208701613509565b949350505050565b600060208284031215613ff957600080fd5b81516001600160401b0381111561400f57600080fd5b613fdf84828501613f7c565b60006001600160401b0382111561403457614034613ec9565b5060051b60200190565b6000602080838503121561405157600080fd5b82516001600160401b0381111561406757600080fd5b8301601f8101851361407857600080fd5b805161408b6140868261401b565b613f4c565b81815260059190911b820183019083810190878311156140aa57600080fd5b928401925b828410156140c8578351825292840192908401906140af565b979650505050505050565b60006101008083850312156140e757600080fd5b604051908101906001600160401b038211818310171561410957614109613ec9565b81604052835181526020840151602082015260408401516040820152606084015160608201526080840151608082015260a084015160a082015260c084015160c082015260e084015160e0820152809250505092915050565b8051801515811461417257600080fd5b919050565b60006020828403121561418957600080fd5b613ec282614162565b8051614172816134b0565b6000602082840312156141af57600080fd5b5051919050565b600080600080608085870312156141cc57600080fd5b505082516020840151604085015160609095015191969095509092509050565b634e487b7160e01b600052603260045260246000fd5b634e487b7160e01b600052601160045260246000fd5b60006001820161422a5761422a614202565b5060010190565b60006020828403121561424357600080fd5b815160ff81168114613ec257600080fd5b60006020828403121561426657600080fd5b81516001600160401b038082111561427d57600080fd5b9083019060e0828603121561429157600080fd5b614299613edf565b6142a283614192565b81526142b060208401614192565b60208201526142c160408401614192565b60408201526060830151828111156142d857600080fd5b6142e487828601613f7c565b6060830152506080830151608082015260a083015160a082015261430a60c08401614162565b60c082015295945050505050565b60006060828403121561432a57600080fd5b604051606081018181106001600160401b038211171561434c5761434c613ec9565b80604052508251815260208301516020820152604083015160408201528091505092915050565b600060c0828403121561438557600080fd5b60405160c081018181106001600160401b03821117156143a7576143a7613ec9565b6040526143b383614162565b81526143c160208401614162565b60208201526143d260408401614162565b60408201526143e360608401614162565b60608201526143f460808401614162565b608082015260a083015160a08201528091505092915050565b6000806040838503121561442057600080fd5b825161442b816134b0565b602084015190925061443c816134b0565b809150509250929050565b80516006811061417257600080fd5b600060e0828403121561446857600080fd5b614470613edf565b9050815181526020820151602082015260408201516040820152606082015160608201526080820151608082015260a082015160a082015260c082015160c082015292915050565b6000602082840312156144ca57600080fd5b81516001600160401b03808211156144e157600080fd5b9083019061028082860312156144f657600080fd5b6144fe613f07565b8251815261450e60208401614162565b602082015261451f60408401614162565b6040820152606083015160608201526080830151608082015260a083015160a082015260c083015160c082015260e083015160e0820152610100808401518183015250610120808401518381111561457657600080fd5b61458288828701613f7c565b8284015250506101409150614598828401614192565b8282015261016091506145ac828401614447565b82820152610180915081830151828201526101a091506145ce86838501614456565b91810191909152949350505050565b600060208083850312156145f057600080fd5b82516001600160401b0381111561460657600080fd5b8301601f8101851361461757600080fd5b80516146256140868261401b565b81815260059190911b8201830190838101908783111561464457600080fd5b928401925b828410156140c857835161465c816134b0565b82529284019290840190614649565b60008060006060848603121561468057600080fd5b8351925060208401519150604084015190509250925092565b600060208083850312156146ac57600080fd5b82516001600160401b038111156146c257600080fd5b8301601f810185136146d357600080fd5b80516146e16140868261401b565b81815260069190911b8201830190838101908783111561470057600080fd5b928401925b828410156140c8576040848903121561471e5760008081fd5b614726613f2a565b8451614731816134b0565b81528486015186820152825260409093019290840190614705565b600080600080600080600080610100898b03121561476957600080fd5b88519750602089015196506040890151955061478760608a01614162565b94506080890151935060a0890151925060c0890151915060e089015190509295985092959890939650565b80516001600160401b038116811461417257600080fd5b6000806000606084860312156147de57600080fd5b6147e7846147b2565b92506147f5602085016147b2565b9150614803604085016147b2565b90509250925092565b80516001600160801b038116811461417257600080fd5b6000806040838503121561483657600080fd5b61483f8361480c565b915061484d6020840161480c565b90509250929050565b6001600160801b0381811683821602808216919082811461487957614879614202565b505092915050565b60006001600160801b03808416806148a957634e487b7160e01b600052601260045260246000fd5b92169190910492915050565b6000602082840312156148c757600080fd5b815160048110613ec257600080fd5b6000602082840312156148e857600080fd5b815160088110613ec257600080fdfea2646970667358221220d50f1e3eddbf9ddca96b682ffff55230328c2b7a6432f4727c9d7d200b09c72964736f6c63430008110033",
    "linkReferences": {}
  },
  "methodIdentifiers": {
    "fetchInitial(address,address,uint256)": "f8ac4e2c"
  },
  "id": 25
}