{
  "_format": "hh-sol-artifact-1",
  "contractName": "LeverageManager",
  "sourceName": "contracts/protocol/leveragemanager.sol",
  "abi": [
    {
      "inputs": [
        {
          "internalType": "address",
          "name": "controller_ad",
          "type": "address"
        },
        {
          "internalType": "address",
          "name": "marketManager_ad",
          "type": "address"
        },
        {
          "internalType": "address",
          "name": "reputationManager_ad",
          "type": "address"
        }
      ],
      "stateMutability": "nonpayable",
      "type": "constructor"
    },
    {
      "anonymous": false,
      "inputs": [
        {
          "indexed": true,
          "internalType": "address",
          "name": "owner",
          "type": "address"
        },
        {
          "indexed": true,
          "internalType": "address",
          "name": "approved",
          "type": "address"
        },
        {
          "indexed": true,
          "internalType": "uint256",
          "name": "tokenId",
          "type": "uint256"
        }
      ],
      "name": "Approval",
      "type": "event"
    },
    {
      "anonymous": false,
      "inputs": [
        {
          "indexed": true,
          "internalType": "address",
          "name": "owner",
          "type": "address"
        },
        {
          "indexed": true,
          "internalType": "address",
          "name": "operator",
          "type": "address"
        },
        {
          "indexed": false,
          "internalType": "bool",
          "name": "approved",
          "type": "bool"
        }
      ],
      "name": "ApprovalForAll",
      "type": "event"
    },
    {
      "anonymous": false,
      "inputs": [
        {
          "indexed": true,
          "internalType": "address",
          "name": "from",
          "type": "address"
        },
        {
          "indexed": true,
          "internalType": "address",
          "name": "to",
          "type": "address"
        },
        {
          "indexed": true,
          "internalType": "uint256",
          "name": "tokenId",
          "type": "uint256"
        }
      ],
      "name": "Transfer",
      "type": "event"
    },
    {
      "inputs": [],
      "name": "Data",
      "outputs": [
        {
          "internalType": "contract StorageHandler",
          "name": "",
          "type": "address"
        }
      ],
      "stateMutability": "view",
      "type": "function"
    },
    {
      "inputs": [
        {
          "internalType": "uint256",
          "name": "vaultId",
          "type": "uint256"
        },
        {
          "internalType": "address",
          "name": "pool",
          "type": "address"
        }
      ],
      "name": "addLeveragePool",
      "outputs": [],
      "stateMutability": "nonpayable",
      "type": "function"
    },
    {
      "inputs": [
        {
          "internalType": "address",
          "name": "to",
          "type": "address"
        },
        {
          "internalType": "uint256",
          "name": "tokenId",
          "type": "uint256"
        }
      ],
      "name": "approve",
      "outputs": [],
      "stateMutability": "nonpayable",
      "type": "function"
    },
    {
      "inputs": [
        {
          "internalType": "address",
          "name": "owner",
          "type": "address"
        }
      ],
      "name": "balanceOf",
      "outputs": [
        {
          "internalType": "uint256",
          "name": "",
          "type": "uint256"
        }
      ],
      "stateMutability": "view",
      "type": "function"
    },
    {
      "inputs": [
        {
          "internalType": "uint256",
          "name": "_marketId",
          "type": "uint256"
        },
        {
          "internalType": "uint256",
          "name": "_amountIn",
          "type": "uint256"
        },
        {
          "internalType": "uint256",
          "name": "_priceLimit",
          "type": "uint256"
        },
        {
          "internalType": "uint256",
          "name": "_leverage",
          "type": "uint256"
        }
      ],
      "name": "buyBondLevered",
      "outputs": [
        {
          "internalType": "uint256",
          "name": "amountIn",
          "type": "uint256"
        },
        {
          "internalType": "uint256",
          "name": "amountOut",
          "type": "uint256"
        }
      ],
      "stateMutability": "nonpayable",
      "type": "function"
    },
    {
      "inputs": [],
      "name": "deletePosition",
      "outputs": [],
      "stateMutability": "nonpayable",
      "type": "function"
    },
    {
      "inputs": [
        {
          "internalType": "uint256",
          "name": "tokenId",
          "type": "uint256"
        }
      ],
      "name": "getApproved",
      "outputs": [
        {
          "internalType": "address",
          "name": "",
          "type": "address"
        }
      ],
      "stateMutability": "view",
      "type": "function"
    },
    {
      "inputs": [
        {
          "internalType": "address",
          "name": "manager",
          "type": "address"
        }
      ],
      "name": "getMaxLeverage",
      "outputs": [
        {
          "internalType": "uint256",
          "name": "",
          "type": "uint256"
        }
      ],
      "stateMutability": "view",
      "type": "function"
    },
    {
      "inputs": [
        {
          "internalType": "uint256",
          "name": "marketId",
          "type": "uint256"
        },
        {
          "internalType": "address",
          "name": "trader",
          "type": "address"
        }
      ],
      "name": "getPosition",
      "outputs": [
        {
          "components": [
            {
              "internalType": "uint256",
              "name": "debt",
              "type": "uint256"
            },
            {
              "internalType": "uint256",
              "name": "amount",
              "type": "uint256"
            }
          ],
          "internalType": "struct LeverageManager.LeveredBond",
          "name": "",
          "type": "tuple"
        }
      ],
      "stateMutability": "view",
      "type": "function"
    },
    {
      "inputs": [
        {
          "internalType": "uint256",
          "name": "tokenId",
          "type": "uint256"
        }
      ],
      "name": "getPosition",
      "outputs": [
        {
          "components": [
            {
              "internalType": "address",
              "name": "vaultAd",
              "type": "address"
            },
            {
              "internalType": "uint256",
              "name": "totalShares",
              "type": "uint256"
            },
            {
              "internalType": "uint256",
              "name": "suppliedCapital",
              "type": "uint256"
            },
            {
              "internalType": "uint256",
              "name": "borrowedCapital",
              "type": "uint256"
            },
            {
              "internalType": "uint256",
              "name": "borrowTimeStamp",
              "type": "uint256"
            },
            {
              "internalType": "uint256",
              "name": "endStateBalance",
              "type": "uint256"
            }
          ],
          "internalType": "struct LeverageManager.Position",
          "name": "position",
          "type": "tuple"
        }
      ],
      "stateMutability": "view",
      "type": "function"
    },
    {
      "inputs": [
        {
          "internalType": "address",
          "name": "_owner",
          "type": "address"
        }
      ],
      "name": "getPositions",
      "outputs": [
        {
          "components": [
            {
              "internalType": "address",
              "name": "vaultAd",
              "type": "address"
            },
            {
              "internalType": "uint256",
              "name": "totalShares",
              "type": "uint256"
            },
            {
              "internalType": "uint256",
              "name": "suppliedCapital",
              "type": "uint256"
            },
            {
              "internalType": "uint256",
              "name": "borrowedCapital",
              "type": "uint256"
            },
            {
              "internalType": "uint256",
              "name": "borrowTimeStamp",
              "type": "uint256"
            },
            {
              "internalType": "uint256",
              "name": "endStateBalance",
              "type": "uint256"
            }
          ],
          "internalType": "struct LeverageManager.Position[]",
          "name": "",
          "type": "tuple[]"
        }
      ],
      "stateMutability": "view",
      "type": "function"
    },
    {
      "inputs": [
        {
          "internalType": "address",
          "name": "_owner",
          "type": "address"
        }
      ],
      "name": "getTokenIds",
      "outputs": [
        {
          "internalType": "uint256[]",
          "name": "",
          "type": "uint256[]"
        }
      ],
      "stateMutability": "view",
      "type": "function"
    },
    {
      "inputs": [
        {
          "internalType": "address",
          "name": "owner",
          "type": "address"
        },
        {
          "internalType": "address",
          "name": "operator",
          "type": "address"
        }
      ],
      "name": "isApprovedForAll",
      "outputs": [
        {
          "internalType": "bool",
          "name": "",
          "type": "bool"
        }
      ],
      "stateMutability": "view",
      "type": "function"
    },
    {
      "inputs": [
        {
          "internalType": "uint256",
          "name": "_marketId",
          "type": "uint256"
        },
        {
          "internalType": "uint256",
          "name": "_amountIn",
          "type": "uint256"
        },
        {
          "internalType": "uint256",
          "name": "_leverage",
          "type": "uint256"
        }
      ],
      "name": "issuePerpBondLevered",
      "outputs": [
        {
          "internalType": "uint256",
          "name": "issueQTY",
          "type": "uint256"
        }
      ],
      "stateMutability": "nonpayable",
      "type": "function"
    },
    {
      "inputs": [
        {
          "internalType": "uint256",
          "name": "",
          "type": "uint256"
        },
        {
          "internalType": "address",
          "name": "",
          "type": "address"
        }
      ],
      "name": "leveragePosition",
      "outputs": [
        {
          "internalType": "uint256",
          "name": "debt",
          "type": "uint256"
        },
        {
          "internalType": "uint256",
          "name": "amount",
          "type": "uint256"
        }
      ],
      "stateMutability": "view",
      "type": "function"
    },
    {
      "inputs": [],
      "name": "mintLev",
      "outputs": [],
      "stateMutability": "nonpayable",
      "type": "function"
    },
    {
      "inputs": [
        {
          "internalType": "uint256",
          "name": "vaultId",
          "type": "uint256"
        },
        {
          "internalType": "uint256",
          "name": "suppliedCapital",
          "type": "uint256"
        },
        {
          "internalType": "uint256",
          "name": "leverageFactor",
          "type": "uint256"
        }
      ],
      "name": "mintWithLeverage",
      "outputs": [
        {
          "internalType": "uint256",
          "name": "tokenId",
          "type": "uint256"
        },
        {
          "components": [
            {
              "internalType": "address",
              "name": "vaultAd",
              "type": "address"
            },
            {
              "internalType": "uint256",
              "name": "totalShares",
              "type": "uint256"
            },
            {
              "internalType": "uint256",
              "name": "suppliedCapital",
              "type": "uint256"
            },
            {
              "internalType": "uint256",
              "name": "borrowedCapital",
              "type": "uint256"
            },
            {
              "internalType": "uint256",
              "name": "borrowTimeStamp",
              "type": "uint256"
            },
            {
              "internalType": "uint256",
              "name": "endStateBalance",
              "type": "uint256"
            }
          ],
          "internalType": "struct LeverageManager.Position",
          "name": "newPosition",
          "type": "tuple"
        }
      ],
      "stateMutability": "nonpayable",
      "type": "function"
    },
    {
      "inputs": [],
      "name": "name",
      "outputs": [
        {
          "internalType": "string",
          "name": "",
          "type": "string"
        }
      ],
      "stateMutability": "view",
      "type": "function"
    },
    {
      "inputs": [
        {
          "internalType": "uint256",
          "name": "tokenId",
          "type": "uint256"
        }
      ],
      "name": "ownerOf",
      "outputs": [
        {
          "internalType": "address",
          "name": "",
          "type": "address"
        }
      ],
      "stateMutability": "view",
      "type": "function"
    },
    {
      "inputs": [
        {
          "internalType": "uint256",
          "name": "",
          "type": "uint256"
        }
      ],
      "name": "positions",
      "outputs": [
        {
          "internalType": "address",
          "name": "vaultAd",
          "type": "address"
        },
        {
          "internalType": "uint256",
          "name": "totalShares",
          "type": "uint256"
        },
        {
          "internalType": "uint256",
          "name": "suppliedCapital",
          "type": "uint256"
        },
        {
          "internalType": "uint256",
          "name": "borrowedCapital",
          "type": "uint256"
        },
        {
          "internalType": "uint256",
          "name": "borrowTimeStamp",
          "type": "uint256"
        },
        {
          "internalType": "uint256",
          "name": "endStateBalance",
          "type": "uint256"
        }
      ],
      "stateMutability": "view",
      "type": "function"
    },
    {
      "inputs": [
        {
          "internalType": "uint256",
          "name": "marketId",
          "type": "uint256"
        }
      ],
      "name": "redeemDeniedLeveredBond",
      "outputs": [
        {
          "internalType": "uint256",
          "name": "collateral_amount",
          "type": "uint256"
        }
      ],
      "stateMutability": "nonpayable",
      "type": "function"
    },
    {
      "inputs": [
        {
          "internalType": "uint256",
          "name": "marketId",
          "type": "uint256"
        }
      ],
      "name": "redeemLeveredBond",
      "outputs": [],
      "stateMutability": "nonpayable",
      "type": "function"
    },
    {
      "inputs": [
        {
          "internalType": "uint256",
          "name": "marketId",
          "type": "uint256"
        },
        {
          "internalType": "uint256",
          "name": "redeemAmount",
          "type": "uint256"
        }
      ],
      "name": "redeemLeveredPerpLongZCB",
      "outputs": [
        {
          "internalType": "uint256",
          "name": "collateral_redeem_amount",
          "type": "uint256"
        },
        {
          "internalType": "uint256",
          "name": "postRepayLeftOver",
          "type": "uint256"
        },
        {
          "internalType": "uint256",
          "name": "paidDebt",
          "type": "uint256"
        }
      ],
      "stateMutability": "nonpayable",
      "type": "function"
    },
    {
      "inputs": [],
      "name": "rewindFull",
      "outputs": [],
      "stateMutability": "nonpayable",
      "type": "function"
    },
    {
      "inputs": [
        {
          "internalType": "uint256",
          "name": "vaultId",
          "type": "uint256"
        },
        {
          "internalType": "uint256",
          "name": "tokenId",
          "type": "uint256"
        },
        {
          "internalType": "uint256",
          "name": "withdrawAmount",
          "type": "uint256"
        }
      ],
      "name": "rewindPartialLeverage",
      "outputs": [],
      "stateMutability": "nonpayable",
      "type": "function"
    },
    {
      "inputs": [
        {
          "internalType": "address",
          "name": "from",
          "type": "address"
        },
        {
          "internalType": "address",
          "name": "to",
          "type": "address"
        },
        {
          "internalType": "uint256",
          "name": "tokenId",
          "type": "uint256"
        }
      ],
      "name": "safeTransferFrom",
      "outputs": [],
      "stateMutability": "nonpayable",
      "type": "function"
    },
    {
      "inputs": [
        {
          "internalType": "address",
          "name": "from",
          "type": "address"
        },
        {
          "internalType": "address",
          "name": "to",
          "type": "address"
        },
        {
          "internalType": "uint256",
          "name": "tokenId",
          "type": "uint256"
        },
        {
          "internalType": "bytes",
          "name": "data",
          "type": "bytes"
        }
      ],
      "name": "safeTransferFrom",
      "outputs": [],
      "stateMutability": "nonpayable",
      "type": "function"
    },
    {
      "inputs": [
        {
          "internalType": "address",
          "name": "operator",
          "type": "address"
        },
        {
          "internalType": "bool",
          "name": "approved",
          "type": "bool"
        }
      ],
      "name": "setApprovalForAll",
      "outputs": [],
      "stateMutability": "nonpayable",
      "type": "function"
    },
    {
      "inputs": [
        {
          "internalType": "address",
          "name": "dataStore",
          "type": "address"
        }
      ],
      "name": "setDataStore",
      "outputs": [],
      "stateMutability": "nonpayable",
      "type": "function"
    },
    {
      "inputs": [
        {
          "internalType": "bytes4",
          "name": "interfaceId",
          "type": "bytes4"
        }
      ],
      "name": "supportsInterface",
      "outputs": [
        {
          "internalType": "bool",
          "name": "",
          "type": "bool"
        }
      ],
      "stateMutability": "view",
      "type": "function"
    },
    {
      "inputs": [],
      "name": "symbol",
      "outputs": [
        {
          "internalType": "string",
          "name": "",
          "type": "string"
        }
      ],
      "stateMutability": "view",
      "type": "function"
    },
    {
      "inputs": [
        {
          "internalType": "uint256",
          "name": "index",
          "type": "uint256"
        }
      ],
      "name": "tokenByIndex",
      "outputs": [
        {
          "internalType": "uint256",
          "name": "",
          "type": "uint256"
        }
      ],
      "stateMutability": "view",
      "type": "function"
    },
    {
      "inputs": [
        {
          "internalType": "address",
          "name": "owner",
          "type": "address"
        },
        {
          "internalType": "uint256",
          "name": "index",
          "type": "uint256"
        }
      ],
      "name": "tokenOfOwnerByIndex",
      "outputs": [
        {
          "internalType": "uint256",
          "name": "",
          "type": "uint256"
        }
      ],
      "stateMutability": "view",
      "type": "function"
    },
    {
      "inputs": [
        {
          "internalType": "uint256",
          "name": "id",
          "type": "uint256"
        }
      ],
      "name": "tokenURI",
      "outputs": [
        {
          "internalType": "string",
          "name": "",
          "type": "string"
        }
      ],
      "stateMutability": "view",
      "type": "function"
    },
    {
      "inputs": [],
      "name": "totalSupply",
      "outputs": [
        {
          "internalType": "uint256",
          "name": "",
          "type": "uint256"
        }
      ],
      "stateMutability": "view",
      "type": "function"
    },
    {
      "inputs": [
        {
          "internalType": "uint256",
          "name": "amount",
          "type": "uint256"
        },
        {
          "internalType": "bytes",
          "name": "data",
          "type": "bytes"
        }
      ],
      "name": "tradeCallBack",
      "outputs": [],
      "stateMutability": "nonpayable",
      "type": "function"
    },
    {
      "inputs": [
        {
          "internalType": "address",
          "name": "from",
          "type": "address"
        },
        {
          "internalType": "address",
          "name": "to",
          "type": "address"
        },
        {
          "internalType": "uint256",
          "name": "tokenId",
          "type": "uint256"
        }
      ],
      "name": "transferFrom",
      "outputs": [],
      "stateMutability": "nonpayable",
      "type": "function"
    },
    {
      "inputs": [],
      "name": "viewPNL",
      "outputs": [],
      "stateMutability": "nonpayable",
      "type": "function"
    }
  ],
  "bytecode": "0x60806040527601000000000000000000000000000000000000000000016012553480156200002c57600080fd5b506040516200492e3803806200492e8339810160408190526200004f9162000111565b604051806040016040528060078152602001662920a6a690363b60c91b815250604051806040016040528060068152602001652930b6b6a62b60d11b81525081600090816200009f919062000200565b506001620000ae828262000200565b5050600a80546001600160a01b039586166001600160a01b031991821617909155600b80549486169482169490941790935550600c8054919093169116179055620002cc565b80516001600160a01b03811681146200010c57600080fd5b919050565b6000806000606084860312156200012757600080fd5b6200013284620000f4565b92506200014260208501620000f4565b91506200015260408501620000f4565b90509250925092565b634e487b7160e01b600052604160045260246000fd5b600181811c908216806200018657607f821691505b602082108103620001a757634e487b7160e01b600052602260045260246000fd5b50919050565b601f821115620001fb57600081815260208120601f850160051c81016020861015620001d65750805b601f850160051c820191505b81811015620001f757828155600101620001e2565b5050505b505050565b81516001600160401b038111156200021c576200021c6200015b565b62000234816200022d845462000171565b84620001ad565b602080601f8311600181146200026c5760008415620002535750858301515b600019600386901b1c1916600185901b178555620001f7565b600085815260208120601f198616915b828110156200029d578886015182559484019460019091019084016200027c565b5085821015620002bc5787850151600019600388901b60f8161c191681555b5050505050600190811b01905550565b61465280620002dc6000396000f3fe608060405234801561001057600080fd5b50600436106102325760003560e01c8063794799c011610130578063d29f541d116100b8578063e5edbab41161007c578063e5edbab4146105f7578063e985e9c514610625578063eb02c30114610661578063f0a85644146102b2578063f7cf78d71461068157600080fd5b8063d29f541d14610515578063d36287f41461058a578063d3e612ce146105d1578063da520d3e146105e4578063db615985146102b257600080fd5b8063a22cb465116100ff578063a22cb465146104a8578063b88d4fde146104bb578063bdce3867146104ce578063c87b56dd146104e1578063d004b036146104f557600080fd5b8063794799c0146103e0578063808d856b1461040157806395d89b411461041c57806399fbab881461042457600080fd5b806342842e0e116101be5780635560c021116101825780635560c021146102b25780635da6f9211461036b5780636352211e146103a757806370a08231146103ba578063765cd23a146103cd57600080fd5b806342842e0e1461031f5780634b6e7d78146103325780634f6ccce714610345578063500065d21461035857806352e59b23146102b257600080fd5b806318160ddd1161020557806318160ddd146102b457806323b872dd146102c65780632f745c59146102d957806334a8ee14146102ec5780633eeb530e146102ff57600080fd5b806301ffc9a71461023757806306fdde031461025f578063081812fc14610274578063095ea7b31461029f575b600080fd5b61024a610245366004613cb1565b610694565b60405190151581526020015b60405180910390f35b6102676106bf565b6040516102569190613d1e565b610287610282366004613d31565b610751565b6040516001600160a01b039091168152602001610256565b6102b26102ad366004613d5f565b610778565b005b6008545b604051908152602001610256565b6102b26102d4366004613d8b565b610892565b6102b86102e7366004613d5f565b6108c3565b6102b26102fa366004613dcc565b610959565b61031261030d366004613df8565b611054565b6040516102569190613e55565b6102b261032d366004613d8b565b61117e565b600d54610287906001600160a01b031681565b6102b8610353366004613d31565b611199565b6102b2610366366004613df8565b61122c565b6102b2610379366004613ea3565b60009182526011602052604090912080546001600160a01b0319166001600160a01b03909216919091179055565b6102876103b5366004613d31565b611296565b6102b86103c8366004613df8565b6112f6565b6102b26103db366004613d31565b61137c565b6103f36103ee366004613dcc565b6117b5565b604051610256929190613ed3565b6102b861040f366004613df8565b50674563918244f4000090565b610267611e9c565b610471610432366004613d31565b6010602052600090815260409020805460018201546002830154600384015460048501546005909501546001600160a01b039094169492939192909186565b604080516001600160a01b0390971687526020870195909552938501929092526060840152608083015260a082015260c001610256565b6102b26104b6366004613ef5565b611eab565b6102b26104c9366004613fbb565b611eba565b6102b86104dc366004613d31565b611ef2565b6102676104ef366004613d31565b50606090565b610508610503366004613df8565b612164565b604051610256919061406a565b61056f610523366004613ea3565b60408051808201825260008082526020918201819052938452600e81528184206001600160a01b0393909316845291825291829020825180840190935280548352600101549082015290565b60408051825181526020928301519281019290925201610256565b6105bc610598366004613ea3565b600e6020908152600092835260408084209091529082529020805460019091015482565b60408051928352602083019190915201610256565b6102b86105df366004613dcc565b612208565b6102b26105f23660046140a2565b61260f565b61060a61060536600461411e565b612702565b60408051938452602084019290925290820152606001610256565b61024a610633366004614140565b6001600160a01b03918216600090815260056020908152604080832093909416825291909152205460ff1690565b61067461066f366004613d31565b612a82565b604051610256919061416e565b6105bc61068f36600461417c565b612aec565b60006001600160e01b0319821663780e9d6360e01b14806106b957506106b982612efc565b92915050565b6060600080546106ce906141ae565b80601f01602080910402602001604051908101604052809291908181526020018280546106fa906141ae565b80156107475780601f1061071c57610100808354040283529160200191610747565b820191906000526020600020905b81548152906001019060200180831161072a57829003601f168201915b5050505050905090565b600061075c82612f4c565b506000908152600460205260409020546001600160a01b031690565b600061078382611296565b9050806001600160a01b0316836001600160a01b0316036107f55760405162461bcd60e51b815260206004820152602160248201527f4552433732313a20617070726f76616c20746f2063757272656e74206f776e656044820152603960f91b60648201526084015b60405180910390fd5b336001600160a01b038216148061081157506108118133610633565b6108835760405162461bcd60e51b815260206004820152603d60248201527f4552433732313a20617070726f76652063616c6c6572206973206e6f7420746f60448201527f6b656e206f776e6572206f7220617070726f76656420666f7220616c6c00000060648201526084016107ec565b61088d8383612fae565b505050565b61089c338261301c565b6108b85760405162461bcd60e51b81526004016107ec906141e8565b61088d83838361309b565b60006108ce836112f6565b82106109305760405162461bcd60e51b815260206004820152602b60248201527f455243373231456e756d657261626c653a206f776e657220696e646578206f7560448201526a74206f6620626f756e647360a81b60648201526084016107ec565b506001600160a01b03919091166000908152600660209081526040808320938352929052205490565b61098b6040518060a0016040528060008152602001600081526020016000815260200160008152602001600081525090565b600083815260106020908152604091829020825160c08101845281546001600160a01b03168152600182015492810183905260028201549381019390935260038101546060840152600481015460808401526005015460a0830152831115610a2c5760405162461bcd60e51b81526020600482015260146024820152733630b933b2b9103a3430b7103837b9b4ba34b7b760611b60448201526064016107ec565b600a54604051634632752560e11b8152600481018790526000916001600160a01b031690638c64ea4a90602401602060405180830381865afa158015610a76573d6000803e3d6000fd5b505050506040513d601f19601f82011682018060405250810190610a9a9190614235565b90506000816001600160a01b031663c5d664c66040518163ffffffff1660e01b8152600401602060405180830381865afa158015610adc573d6000803e3d6000fd5b505050506040513d601f19601f82011682018060405250810190610b009190614235565b6000888152601160205260409081902054905163b3d7f6b960e01b8152600481018890529192506001600160a01b03908116918184169163095ea7b391849187169063b3d7f6b990602401602060405180830381865afa158015610b68573d6000803e3d6000fd5b505050506040513d601f19601f82011682018060405250810190610b8c9190614262565b6040516001600160e01b031960e085901b1681526001600160a01b03909216600483015260248201526044016020604051808303816000875af1158015610bd7573d6000803e3d6000fd5b505050506040513d601f19601f82011682018060405250810190610bfb9190614286565b50602085018690525b602085015115610f7d57610c208460a00151866020015161320c565b60808601819052604051635d043b2960e11b81526004810191909152306024820181905260448201526001600160a01b0384169063ba087652906064016020604051808303816000875af1158015610c7c573d6000803e3d6000fd5b505050506040513d601f19601f82011682018060405250810190610ca09190614262565b808652604051631fd0956760e01b815260048101919091523060248201526001600160a01b03821690631fd09567906044016020604051808303816000875af1158015610cf1573d6000803e3d6000fd5b505050506040513d601f19601f82011682018060405250810190610d159190614262565b50604051636e9c33bd60e11b81526001600160a01b0384811660048301526000602483015230604483015282169063dd38677a906064016020604051808303816000875af1158015610d6b573d6000803e3d6000fd5b505050506040513d601f19601f82011682018060405250810190610d8f9190614262565b856040018181525050610dc2604051806040016040528060098152602001685f5f5f4e45575f5f5f60b81b815250613225565b610df56040518060400160405280600d81526020016c1dda5d1a191c985dc81b19599d609a1b8152508660200151613268565b610e376040518060400160405280600f81526020016e72656465656d65642073686172657360881b815250610e328660a00151886020015161320c565b613268565b610e6d6040518060400160405280601081526020016f1c995919595b59590bdc995c185e595960821b8152508660000151613268565b610e9a604051806040016040528060078152602001661c995b5bdd995960ca1b8152508660400151613268565b846080015185602001818151610eb091906142b9565b9052508451606086018051610ec69083906142cc565b905250602085015160a08501511015610ee3578460400151610f06565b846040015185602001518560a00151610efc91906142b9565b610f0691906142cc565b60a08501526040805180820190915260128152711d1bdd185b105cdcd95d14995d1d5c9b995960721b60208201526060860151610f439190613268565b610f786040518060400160405280600f81526020016e656e64537461746542616c616e636560881b8152508560a00151613268565b610c04565b8584602001818151610f8f91906142b9565b9052506060808601519085015110610fbf57846060015184606001818151610fb791906142b9565b905250610feb565b60006060808601829052860151610fd691906142b9565b84604001818151610fe791906142b9565b9052505b505050600093845260106020908152604094859020825181546001600160a01b0319166001600160a01b03909116178155908201516001820155938101516002850155606081015160038501556080810151600485015560a00151600590930192909255505050565b6060600061106183612164565b90506000815167ffffffffffffffff81111561107f5761107f613f23565b6040519080825280602002602001820160405280156110b857816020015b6110a5613c5c565b81526020019060019003908161109d5790505b50905060005b825181101561117657601060008483815181106110dd576110dd6142df565b6020908102919091018101518252818101929092526040908101600020815160c08101835281546001600160a01b0316815260018201549381019390935260028101549183019190915260038101546060830152600481015460808301526005015460a08201528251839083908110611158576111586142df565b6020026020010181905250808061116e906142f5565b9150506110be565b509392505050565b61088d83838360405180602001604052806000815250611eba565b60006111a460085490565b82106112075760405162461bcd60e51b815260206004820152602c60248201527f455243373231456e756d657261626c653a20676c6f62616c20696e646578206f60448201526b7574206f6620626f756e647360a01b60648201526084016107ec565b6008828154811061121a5761121a6142df565b90600052602060002001549050919050565b600a546001600160a01b031633146112745760405162461bcd60e51b815260206004820152600b60248201526a10b1b7b73a3937b63632b960a91b60448201526064016107ec565b600d80546001600160a01b0319166001600160a01b0392909216919091179055565b6000818152600260205260408120546001600160a01b0316806106b95760405162461bcd60e51b8152602060048201526018602482015277115490cdcc8c4e881a5b9d985b1a59081d1bdad95b88125160421b60448201526064016107ec565b60006001600160a01b0382166113605760405162461bcd60e51b815260206004820152602960248201527f4552433732313a2061646472657373207a65726f206973206e6f7420612076616044820152683634b21037bbb732b960b91b60648201526084016107ec565b506001600160a01b031660009081526003602052604090205490565b600b546040516353ac55f560e01b8152600481018390526001600160a01b03909116906353ac55f590602401602060405180830381865afa1580156113c5573d6000803e3d6000fd5b505050506040513d601f19601f820116820180604052508101906113e99190614286565b6114215760405162461bcd60e51b8152602060048201526009602482015268085c995cdbdb1d995960ba1b60448201526064016107ec565b6000818152600f6020908152604080832033845290915290205460ff16156114765760405162461bcd60e51b815260206004820152600860248201526714995919595b595960c21b60448201526064016107ec565b6000818152600f6020908152604080832033808552925291829020805460ff19166001179055600a5491516323f2a73f60e01b81526004810184905260248101919091526001600160a01b03909116906323f2a73f90604401602060405180830381865afa1580156114ec573d6000803e3d6000fd5b505050506040513d601f19601f820116820180604052508101906115109190614286565b1561157a57600a54604051638f5709a560e01b8152600481018390523360248201526001600160a01b0390911690638f5709a590604401600060405180830381600087803b15801561156157600080fd5b505af1158015611575573d6000803e3d6000fd5b505050505b6000818152600e60209081526040808320338452825291829020825180840190935280548352600101549082018190526115e15760405162461bcd60e51b81526020600482015260086024820152670c08105b5bdd5b9d60c21b60448201526064016107ec565b600b54604051633e4de2e760e11b8152600481018490526000916001600160a01b031690637c9bc5ce90602401602060405180830381865afa15801561162b573d6000803e3d6000fd5b505050506040513d601f19601f8201168201806040525081019061164f9190614262565b9050600061166a8360200151836132ad90919063ffffffff16565b90506000836000015182101561168157600061168d565b835161168d90836142b9565b600a546040516323f2a73f60e01b8152600481018890523360248201529192506001600160a01b0316906323f2a73f90604401602060405180830381865afa1580156116dd573d6000803e3d6000fd5b505050506040513d601f19601f820116820180604052508101906117019190614286565b50600b546020850151604051637a54f4dd60e11b8152600481018890523060248201526044810191909152336064820152608481018390526001600160a01b039091169063f4a9e9ba9060a401600060405180830381600087803b15801561176857600080fd5b505af115801561177c573d6000803e3d6000fd5b505060006020808801828152828952988252600e8152604080832033845290915290209551865550509351600190930192909255505050565b60006117bf613c5c565b61183060405180610160016040528060006001600160a01b0316815260200160006001600160a01b0316815260200160008152602001600081526020016000151581526020016000815260200160008152602001600081526020016000815260200160008152602001600081525090565b600a54604051634632752560e11b8152600481018890526001600160a01b0390911690638c64ea4a90602401602060405180830381865afa158015611879573d6000803e3d6000fd5b505050506040513d601f19601f8201168201806040525081019061189d9190614235565b6001600160a01b0316808252604080516362eb326360e11b815290516000929163c5d664c69160048083019260209291908290030181865afa1580156118e7573d6000803e3d6000fd5b505050506040513d601f19601f8201168201806040525081019061190b9190614235565b6040516323b872dd60e01b8152336004820152306024820152604481018890529091506001600160a01b038216906323b872dd906064016020604051808303816000875af1158015611961573d6000803e3d6000fd5b505050506040513d601f19601f820116820180604052508101906119859190614286565b5081516001600160a01b0382169063095ea7b3906119b56119ae89670de0b6b3a76400006142cc565b8a906132ad565b6040516001600160e01b031960e085901b1681526001600160a01b03909216600483015260248201526044016020604051808303816000875af1158015611a00573d6000803e3d6000fd5b505050506040513d601f19601f82011682018060405250810190611a249190614286565b50600087815260116020908152604091829020546001600160a01b03168482018190528251631d09b9e960e21b815292519092637426e7a49260048083019391928290030181865afa158015611a7e573d6000803e3d6000fd5b505050506040513d601f19601f82011682018060405250810190611aa29190614262565b6101008301819052600003611aea5760405162461bcd60e51b815260206004820152600e60248201526d4e6f7420456e6f756768204c697160901b60448201526064016107ec565b60208201518251604051632fed83fb60e11b81526001600160a01b0391821660048201526000602482015291169063d3160c0f908290635fdb07f690604401602060405180830381865afa158015611b46573d6000803e3d6000fd5b505050506040513d601f19601f82011682018060405250810190611b6a9190614262565b6040518263ffffffff1660e01b8152600401611b8891815260200190565b608060405180830381865afa158015611ba5573d6000803e3d6000fd5b505050506040513d601f19601f82011682018060405250810190611bc9919061430e565b5061014085015250508151604051636e553f6560e01b8152600481018890523060248201526001600160a01b0390911690636e553f65906044016020604051808303816000875af1158015611c22573d6000803e3d6000fd5b505050506040513d601f19601f82011682018060405250810190611c469190614262565b60a0830152611c5586866132ad565b60408301525b8160a001518260c001818151611c7191906142cc565b9052506040805180820190915260098152685f5f5f4e45575f5f5f60b81b6020820152611c9d90613225565b611cd4604051806040016040528060118152602001701d1bdd185b109bdc9c9bddd05b5bdd5b9d607a1b8152508360e00151613268565b611d0d60405180604001604052806013815260200172189bdc9c9bddd959105b5bdd5b9d081319599d606a1b8152508360400151613268565b611d278783610100015184604001518560a00151866132c2565b8161012001518260e001818151611d3e91906142cc565b905250610120820151604083015110611d705781610120015182604001818151611d6891906142b9565b905250611d78565b600060408301525b60408201511580611d8a575081608001515b15611c5b578160a001518260c001818151611da591906142cc565b90525060128054611dfc9133916001600160b01b0316906000611dc78361434f565b91906101000a8154816001600160b01b0302191690836001600160b01b031602179055506001600160b01b0316955085613515565b506040805160c0808201835283516001600160a01b039081168352908401516020808401918252838501998a5260e086015160608501908152426080860190815260a09788015197860197885260008a8152601090935295909120845181546001600160a01b0319169416939093178355905160018301559751600282015596516003880155905160048701559051600590950194909455509391925050565b6060600180546106ce906141ae565b611eb63383836136ae565b5050565b611ec4338361301c565b611ee05760405162461bcd60e51b81526004016107ec906141e8565b611eec8484848461377c565b50505050565b6000818152600e6020908152604080832033845282528083208151808301909252805482526001015491810182905290611f545760405162461bcd60e51b815260206004820152600360248201526222a92960e91b60448201526064016107ec565b6000838152600e6020908152604080832033808552925280832060010192909255600a5491516323f2a73f60e01b81526004810186905260248101919091526001600160a01b03909116906323f2a73f90604401602060405180830381865afa158015611fc5573d6000803e3d6000fd5b505050506040513d601f19601f82011682018060405250810190611fe99190614286565b1561206a57600a54604051634187150160e11b8152600481018590523360248201526001600160a01b039091169063830e2a02906044016020604051808303816000875af115801561203f573d6000803e3d6000fd5b505050506040513d601f19601f820116820180604052508101906120639190614262565b91506120e0565b600b5460405163214b398760e01b8152600481018590523360248201526001600160a01b039091169063214b398790604401602060405180830381865afa1580156120b9573d6000803e3d6000fd5b505050506040513d601f19601f820116820180604052508101906120dd9190614262565b91505b600b546020820151604051637a54f4dd60e11b8152600481018690523060248201526044810191909152336064820152608481018490526001600160a01b039091169063f4a9e9ba9060a401600060405180830381600087803b15801561214657600080fd5b505af115801561215a573d6000803e3d6000fd5b5050505050919050565b60606000612171836112f6565b67ffffffffffffffff81111561218957612189613f23565b6040519080825280602002602001820160405280156121b2578160200160208202803683370190505b50905060005b6121c1846112f6565b811015612201576121d284826108c3565b8282815181106121e4576121e46142df565b6020908102919091010152806121f9816142f5565b9150506121b8565b5092915050565b6000674563918244f40000821115801561222a5750670de0b6b3a76400008210155b6122625760405162461bcd60e51b8152602060048201526009602482015268216c6576657261676560b81b60448201526064016107ec565b600b546040516387a2882760e01b815233600482015260248101859052604481018690526001600160a01b03909116906387a288279060640160006040518083038186803b1580156122b357600080fd5b505afa1580156122c7573d6000803e3d6000fd5b5050600b5460405163eb44fdd360e01b815260048101889052600093506001600160a01b03909116915063eb44fdd390602401600060405180830381865afa158015612317573d6000803e3d6000fd5b505050506040513d6000823e601f3d908101601f1916820160405261233f91908101906143c2565b9050600081600001516001600160a01b03166390f817026040518163ffffffff1660e01b8152600401602060405180830381865afa158015612385573d6000803e3d6000fd5b505050506040513d601f19601f820116820180604052508101906123a99190614235565b905060006123b786866137af565b600b5460405163cd9f08a160e01b81526001600160a01b0385811660048301523360248301523060448301526064820184905292935091169063cd9f08a190608401600060405180830381600087803b15801561241357600080fd5b505af1158015612427573d6000803e3d6000fd5b5050600a546001600160a01b0316915063da0a697f905088612449848a6142b9565b6040516001600160e01b031960e085901b16815260048101929092526024820152604401600060405180830381600087803b15801561248757600080fd5b505af115801561249b573d6000803e3d6000fd5b5050600b5460405163095ea7b360e01b81526001600160a01b039182166004820152602481018a9052908516925063095ea7b391506044016020604051808303816000875af11580156124f2573d6000803e3d6000fd5b505050506040513d601f19601f820116820180604052508101906125169190614286565b50600b5460405163014fe7a560e11b815260048101899052602481018890523060448201523360648201526001600160a01b039091169063029fcf4a906084016020604051808303816000875af1158015612575573d6000803e3d6000fd5b505050506040513d601f19601f820116820180604052508101906125999190614262565b93506125a581876142b9565b6000888152600e60209081526040808320338452909152812080549091906125ce9084906142cc565b90915550506000878152600e60209081526040808320338452909152812060010180548692906125ff9084906142cc565b9091555093979650505050505050565b336001600160a01b03166390f817026040518163ffffffff1660e01b8152600401602060405180830381865afa15801561264d573d6000803e3d6000fd5b505050506040513d601f19601f820116820180604052508101906126719190614235565b6001600160a01b03166323b872dd61268b83850185613df8565b6040516001600160e01b031960e084901b1681526001600160a01b039091166004820152336024820152604481018690526064016020604051808303816000875af11580156126de573d6000803e3d6000fd5b505050506040513d601f19601f82011682018060405250810190611eec9190614286565b60008060006127496040518060c00160405280600081526020016000815260200160008152602001600081526020016000815260200160006001600160a01b031681525090565b600a54604051632500ed8d60e21b8152600481018890526001600160a01b0390911690639403b63490602401602060405180830381865afa158015612792573d6000803e3d6000fd5b505050506040513d601f19601f820116820180604052508101906127b69190614235565b6001600160a01b031660a08201526000868152600e60209081526040808320338452825291829020825180840190935280548352600101549082018190528611156128305760405162461bcd60e51b815260206004820152600a60248201526920b6b7bab73a1022a92960b11b60448201526064016107ec565b600b5460405163061427c560e01b815260048101899052602481018890523060448201523360648201526001600160a01b039091169063061427c59060840160408051808303816000875af115801561288d573d6000803e3d6000fd5b505050506040513d601f19601f820116820180604052508101906128b19190614487565b50809550508160a001516001600160a01b031663c5d664c66040518163ffffffff1660e01b8152600401602060405180830381865afa1580156128f8573d6000803e3d6000fd5b505050506040513d601f19601f8201168201806040525081019061291c9190614235565b60a083015160405163a9059cbb60e01b81526001600160a01b0391821660048201526024810188905291169063a9059cbb906044016020604051808303816000875af1158015612970573d6000803e3d6000fd5b505050506040513d601f19601f820116820180604052508101906129949190614286565b5080518510156129bb5784925084816000018181516129b391906142b9565b9052506129c4565b80516000825292505b60208101805187900390528051600003612a4f576129e283866142b9565b600a54604051631e1fa3a760e31b815260048101839052336024820152604481018a90529195506001600160a01b03169063f0fd1d3890606401600060405180830381600087803b158015612a3657600080fd5b505af1158015612a4a573d6000803e3d6000fd5b505050505b6000968752600e60209081526040808920338a528252909720815181559601516001909601959095559194909350909150565b612a8a613c5c565b50600090815260106020908152604091829020825160c08101845281546001600160a01b03168152600182015492810192909252600281015492820192909252600382015460608201526004820154608082015260059091015460a082015290565b600c546000908190600160a01b900460ff1615612b395760405162461bcd60e51b815260206004820152600b60248201526a4552525f5245454e54525960a81b60448201526064016107ec565b600c805460ff60a01b1916600160a01b179055612b5b674563918244f4000090565b8311158015612b725750670de0b6b3a76400008310155b612baa5760405162461bcd60e51b8152602060048201526009602482015268216c6576657261676560b81b60448201526064016107ec565b600b5460405163eb44fdd360e01b8152600481018890526000916001600160a01b03169063eb44fdd390602401600060405180830381865afa158015612bf4573d6000803e3d6000fd5b505050506040513d6000823e601f3d908101601f19168201604052612c1c91908101906143c2565b9050600081600001516001600160a01b03166390f817026040518163ffffffff1660e01b8152600401602060405180830381865afa158015612c62573d6000803e3d6000fd5b505050506040513d601f19601f82011682018060405250810190612c869190614235565b90506000612c9488876137af565b600b5460405163cd9f08a160e01b81526001600160a01b0385811660048301523360248301523060448301526064820184905292935091169063cd9f08a190608401600060405180830381600087803b158015612cf057600080fd5b505af1158015612d04573d6000803e3d6000fd5b5050600a546001600160a01b0316915063da0a697f90508a612d26848c6142b9565b6040516001600160e01b031960e085901b16815260048101929092526024820152604401600060405180830381600087803b158015612d6457600080fd5b505af1158015612d78573d6000803e3d6000fd5b5050600b5460405163095ea7b360e01b81526001600160a01b039182166004820152602481018c905260609350908516915063095ea7b3906044016020604051808303816000875af1158015612dd2573d6000803e3d6000fd5b505050506040513d601f19601f82011682018060405250810190612df69190614286565b50600b54604051625c2ac360e01b81526001600160a01b0390911690625c2ac390612e2f908d908d908d908790309033906004016144ab565b60408051808303816000875af1158015612e4d573d6000803e3d6000fd5b505050506040513d601f19601f82011682018060405250810190612e719190614487565b9096509450612e80828a6142b9565b60008b8152600e6020908152604080832033845290915281208054909190612ea99084906142cc565b909155505060008a8152600e6020908152604080832033845290915281206001018054879290612eda9084906142cc565b9091555050600c805460ff60a01b191690555093989297509195505050505050565b60006001600160e01b031982166380ac58cd60e01b1480612f2d57506001600160e01b03198216635b5e139f60e01b145b806106b957506301ffc9a760e01b6001600160e01b03198316146106b9565b6000818152600260205260409020546001600160a01b0316612fab5760405162461bcd60e51b8152602060048201526018602482015277115490cdcc8c4e881a5b9d985b1a59081d1bdad95b88125160421b60448201526064016107ec565b50565b600081815260046020526040902080546001600160a01b0319166001600160a01b0384169081179091558190612fe382611296565b6001600160a01b03167f8c5be1e5ebec7d5bd14f71427d1e84f3dd0314c0f7b2291e5b200ac8c7c3b92560405160405180910390a45050565b60008061302883611296565b9050806001600160a01b0316846001600160a01b0316148061306f57506001600160a01b0380821660009081526005602090815260408083209388168352929052205460ff165b806130935750836001600160a01b031661308884610751565b6001600160a01b0316145b949350505050565b826001600160a01b03166130ae82611296565b6001600160a01b0316146130d45760405162461bcd60e51b81526004016107ec906144f3565b6001600160a01b0382166131365760405162461bcd60e51b8152602060048201526024808201527f4552433732313a207472616e7366657220746f20746865207a65726f206164646044820152637265737360e01b60648201526084016107ec565b61314383838360016137c4565b826001600160a01b031661315682611296565b6001600160a01b03161461317c5760405162461bcd60e51b81526004016107ec906144f3565b600081815260046020908152604080832080546001600160a01b03199081169091556001600160a01b0387811680865260038552838620805460001901905590871680865283862080546001019055868652600290945282852080549092168417909155905184937fddf252ad1be2c89b69c2b068fc378daa952ba7f163c4a11628f55a4df523b3ef91a4505050565b60008183111561321c578161321e565b825b9392505050565b612fab816040516024016132399190613d1e565b60408051601f198184030181529190526020810180516001600160e01b031663104c13eb60e21b179052613904565b611eb6828260405160240161327e929190614538565b60408051601f198184030181529190526020810180516001600160e01b03166309710a9d60e41b179052613904565b600061321e8383670de0b6b3a7640000613925565b60006132e5846132e0858561014001516132ad90919063ffffffff16565b61320c565b90506132f1818661320c565b6101208301819052811160808301528151602083015160405163095ea7b360e01b81526001600160a01b0391821660048201526024810186905291169063095ea7b3906044016020604051808303816000875af1158015613356573d6000803e3d6000fd5b505050506040513d601f19601f8201168201806040525081019061337a9190614286565b506020820151610120830151835160405163b2b93fe360e01b815260048101929092526001600160a01b0390811660248301526000604483015260648201869052306084830152600160a48301529091169063b2b93fe39060c4016020604051808303816000875af11580156133f4573d6000803e3d6000fd5b505050506040513d601f19601f820116820180604052508101906134189190614262565b50613450604051806040016040528060158152602001741b995dc818dbdb1b185d195c985b08185b5bdd5b9d605a1b81525084613268565b61348a604051806040016040528060138152602001721b585e109bdc9c9bddd8589b19505b5bdd5b9d606a1b815250836101200151613268565b8151610120830151604051636e553f6560e01b815260048101919091523060248201526001600160a01b0390911690636e553f65906044016020604051808303816000875af11580156134e1573d6000803e3d6000fd5b505050506040513d601f19601f820116820180604052508101906135059190614262565b60a0909201919091525050505050565b6001600160a01b03821661356b5760405162461bcd60e51b815260206004820181905260248201527f4552433732313a206d696e7420746f20746865207a65726f206164647265737360448201526064016107ec565b6000818152600260205260409020546001600160a01b0316156135d05760405162461bcd60e51b815260206004820152601c60248201527f4552433732313a20746f6b656e20616c7265616479206d696e7465640000000060448201526064016107ec565b6135de6000838360016137c4565b6000818152600260205260409020546001600160a01b0316156136435760405162461bcd60e51b815260206004820152601c60248201527f4552433732313a20746f6b656e20616c7265616479206d696e7465640000000060448201526064016107ec565b6001600160a01b038216600081815260036020908152604080832080546001019055848352600290915280822080546001600160a01b0319168417905551839291907fddf252ad1be2c89b69c2b068fc378daa952ba7f163c4a11628f55a4df523b3ef908290a45050565b816001600160a01b0316836001600160a01b03160361370f5760405162461bcd60e51b815260206004820152601960248201527f4552433732313a20617070726f766520746f2063616c6c65720000000000000060448201526064016107ec565b6001600160a01b03838116600081815260056020908152604080832094871680845294825291829020805460ff191686151590811790915591519182527f17307eab39ab6107e8899845ad3d59bd9653f200f220920489ca2b5937696c31910160405180910390a3505050565b61378784848461309b565b61379384848484613943565b611eec5760405162461bcd60e51b81526004016107ec9061455a565b600061321e83670de0b6b3a764000084613925565b6137d084848484613a44565b600181111561383f5760405162461bcd60e51b815260206004820152603560248201527f455243373231456e756d657261626c653a20636f6e7365637574697665207472604482015274185b9cd9995c9cc81b9bdd081cdd5c1c1bdc9d1959605a1b60648201526084016107ec565b816001600160a01b03851661389b5761389681600880546000838152600960205260408120829055600182018355919091527ff3f7a9fe364faab93b216da50a3214154f22a0a2b415b23a84c8169e8b636ee30155565b6138be565b836001600160a01b0316856001600160a01b0316146138be576138be8582613acc565b6001600160a01b0384166138da576138d581613b69565b6138fd565b846001600160a01b0316846001600160a01b0316146138fd576138fd8482613c18565b5050505050565b80516a636f6e736f6c652e6c6f67602083016000808483855afa5050505050565b600082600019048411830215820261393c57600080fd5b5091020490565b60006001600160a01b0384163b15613a3957604051630a85bd0160e11b81526001600160a01b0385169063150b7a02906139879033908990889088906004016145ac565b6020604051808303816000875af19250505080156139c2575060408051601f3d908101601f191682019092526139bf918101906145e9565b60015b613a1f573d8080156139f0576040519150601f19603f3d011682016040523d82523d6000602084013e6139f5565b606091505b508051600003613a175760405162461bcd60e51b81526004016107ec9061455a565b805181602001fd5b6001600160e01b031916630a85bd0160e11b149050613093565b506001949350505050565b6001811115611eec576001600160a01b03841615613a8a576001600160a01b03841660009081526003602052604081208054839290613a849084906142b9565b90915550505b6001600160a01b03831615611eec576001600160a01b03831660009081526003602052604081208054839290613ac19084906142cc565b909155505050505050565b60006001613ad9846112f6565b613ae391906142b9565b600083815260076020526040902054909150808214613b36576001600160a01b03841660009081526006602090815260408083208584528252808320548484528184208190558352600790915290208190555b5060009182526007602090815260408084208490556001600160a01b039094168352600681528383209183525290812055565b600854600090613b7b906001906142b9565b60008381526009602052604081205460088054939450909284908110613ba357613ba36142df565b906000526020600020015490508060088381548110613bc457613bc46142df565b6000918252602080832090910192909255828152600990915260408082208490558582528120556008805480613bfc57613bfc614606565b6001900381819060005260206000200160009055905550505050565b6000613c23836112f6565b6001600160a01b039093166000908152600660209081526040808320868452825280832085905593825260079052919091209190915550565b6040518060c0016040528060006001600160a01b0316815260200160008152602001600081526020016000815260200160008152602001600081525090565b6001600160e01b031981168114612fab57600080fd5b600060208284031215613cc357600080fd5b813561321e81613c9b565b60005b83811015613ce9578181015183820152602001613cd1565b50506000910152565b60008151808452613d0a816020860160208601613cce565b601f01601f19169290920160200192915050565b60208152600061321e6020830184613cf2565b600060208284031215613d4357600080fd5b5035919050565b6001600160a01b0381168114612fab57600080fd5b60008060408385031215613d7257600080fd5b8235613d7d81613d4a565b946020939093013593505050565b600080600060608486031215613da057600080fd5b8335613dab81613d4a565b92506020840135613dbb81613d4a565b929592945050506040919091013590565b600080600060608486031215613de157600080fd5b505081359360208301359350604090920135919050565b600060208284031215613e0a57600080fd5b813561321e81613d4a565b80516001600160a01b031682526020808201519083015260408082015190830152606080820151908301526080808201519083015260a090810151910152565b6020808252825182820181905260009190848201906040850190845b81811015613e9757613e84838551613e15565b9284019260c09290920191600101613e71565b50909695505050505050565b60008060408385031215613eb657600080fd5b823591506020830135613ec881613d4a565b809150509250929050565b82815260e0810161321e6020830184613e15565b8015158114612fab57600080fd5b60008060408385031215613f0857600080fd5b8235613f1381613d4a565b91506020830135613ec881613ee7565b634e487b7160e01b600052604160045260246000fd5b60405160e0810167ffffffffffffffff81118282101715613f5c57613f5c613f23565b60405290565b604051601f8201601f1916810167ffffffffffffffff81118282101715613f8b57613f8b613f23565b604052919050565b600067ffffffffffffffff821115613fad57613fad613f23565b50601f01601f191660200190565b60008060008060808587031215613fd157600080fd5b8435613fdc81613d4a565b93506020850135613fec81613d4a565b925060408501359150606085013567ffffffffffffffff81111561400f57600080fd5b8501601f8101871361402057600080fd5b803561403361402e82613f93565b613f62565b81815288602083850101111561404857600080fd5b8160208401602083013760006020838301015280935050505092959194509250565b6020808252825182820181905260009190848201906040850190845b81811015613e9757835183529284019291840191600101614086565b6000806000604084860312156140b757600080fd5b83359250602084013567ffffffffffffffff808211156140d657600080fd5b818601915086601f8301126140ea57600080fd5b8135818111156140f957600080fd5b87602082850101111561410b57600080fd5b6020830194508093505050509250925092565b6000806040838503121561413157600080fd5b50508035926020909101359150565b6000806040838503121561415357600080fd5b823561415e81613d4a565b91506020830135613ec881613d4a565b60c081016106b98284613e15565b6000806000806080858703121561419257600080fd5b5050823594602084013594506040840135936060013592509050565b600181811c908216806141c257607f821691505b6020821081036141e257634e487b7160e01b600052602260045260246000fd5b50919050565b6020808252602d908201527f4552433732313a2063616c6c6572206973206e6f7420746f6b656e206f776e6560408201526c1c881bdc88185c1c1c9bdd9959609a1b606082015260800190565b60006020828403121561424757600080fd5b815161321e81613d4a565b805161425d81613d4a565b919050565b60006020828403121561427457600080fd5b5051919050565b805161425d81613ee7565b60006020828403121561429857600080fd5b815161321e81613ee7565b634e487b7160e01b600052601160045260246000fd5b818103818111156106b9576106b96142a3565b808201808211156106b9576106b96142a3565b634e487b7160e01b600052603260045260246000fd5b600060018201614307576143076142a3565b5060010190565b6000806000806080858703121561432457600080fd5b845193506020850151925060408501519150606085015161434481613ee7565b939692955090935050565b60006001600160b01b038281166002600160b01b03198101614373576143736142a3565b6001019392505050565b600082601f83011261438e57600080fd5b815161439c61402e82613f93565b8181528460208386010111156143b157600080fd5b613093826020830160208701613cce565b6000602082840312156143d457600080fd5b815167ffffffffffffffff808211156143ec57600080fd5b9083019060e0828603121561440057600080fd5b614408613f39565b61441183614252565b815261441f60208401614252565b602082015261443060408401614252565b604082015260608301518281111561444757600080fd5b6144538782860161437d565b6060830152506080830151608082015260a083015160a082015261447960c0840161427b565b60c082015295945050505050565b6000806040838503121561449a57600080fd5b505080516020909101519092909150565b86815285602082015284604082015260c0606082015260006144d060c0830186613cf2565b6001600160a01b0394851660808401529290931660a09091015295945050505050565b60208082526025908201527f4552433732313a207472616e736665722066726f6d20696e636f72726563742060408201526437bbb732b960d91b606082015260800190565b60408152600061454b6040830185613cf2565b90508260208301529392505050565b60208082526032908201527f4552433732313a207472616e7366657220746f206e6f6e20455243373231526560408201527131b2b4bb32b91034b6b83632b6b2b73a32b960711b606082015260800190565b6001600160a01b03858116825284166020820152604081018390526080606082018190526000906145df90830184613cf2565b9695505050505050565b6000602082840312156145fb57600080fd5b815161321e81613c9b565b634e487b7160e01b600052603160045260246000fdfea264697066735822122005e7c4eae45888bb1ed34742e7072397dd1dc52d1869a9e7da8e7e8b84ae5c0764736f6c63430008100033",
  "linkReferences": {},
  "deployedLinkReferences": {}
}