{
  "abi": [
    {
      "inputs": [
        {
          "internalType": "address",
          "name": "controller_ad",
          "type": "address"
        },
        {
          "internalType": "address",
          "name": "marketManager_ad",
          "type": "address"
        },
        {
          "internalType": "address",
          "name": "reputationManager_ad",
          "type": "address"
        }
      ],
      "stateMutability": "nonpayable",
      "type": "constructor"
    },
    {
      "anonymous": false,
      "inputs": [
        {
          "indexed": true,
          "internalType": "address",
          "name": "owner",
          "type": "address"
        },
        {
          "indexed": true,
          "internalType": "address",
          "name": "approved",
          "type": "address"
        },
        {
          "indexed": true,
          "internalType": "uint256",
          "name": "tokenId",
          "type": "uint256"
        }
      ],
      "name": "Approval",
      "type": "event"
    },
    {
      "anonymous": false,
      "inputs": [
        {
          "indexed": true,
          "internalType": "address",
          "name": "owner",
          "type": "address"
        },
        {
          "indexed": true,
          "internalType": "address",
          "name": "operator",
          "type": "address"
        },
        {
          "indexed": false,
          "internalType": "bool",
          "name": "approved",
          "type": "bool"
        }
      ],
      "name": "ApprovalForAll",
      "type": "event"
    },
    {
      "anonymous": false,
      "inputs": [
        {
          "indexed": true,
          "internalType": "address",
          "name": "from",
          "type": "address"
        },
        {
          "indexed": true,
          "internalType": "address",
          "name": "to",
          "type": "address"
        },
        {
          "indexed": true,
          "internalType": "uint256",
          "name": "tokenId",
          "type": "uint256"
        }
      ],
      "name": "Transfer",
      "type": "event"
    },
    {
      "inputs": [],
      "name": "Data",
      "outputs": [
        {
          "internalType": "contract StorageHandler",
          "name": "",
          "type": "address"
        }
      ],
      "stateMutability": "view",
      "type": "function"
    },
    {
      "inputs": [
        {
          "internalType": "uint256",
          "name": "vaultId",
          "type": "uint256"
        },
        {
          "internalType": "address",
          "name": "pool",
          "type": "address"
        }
      ],
      "name": "addLeveragePool",
      "outputs": [],
      "stateMutability": "nonpayable",
      "type": "function"
    },
    {
      "inputs": [
        {
          "internalType": "address",
          "name": "to",
          "type": "address"
        },
        {
          "internalType": "uint256",
          "name": "tokenId",
          "type": "uint256"
        }
      ],
      "name": "approve",
      "outputs": [],
      "stateMutability": "nonpayable",
      "type": "function"
    },
    {
      "inputs": [
        {
          "internalType": "address",
          "name": "owner",
          "type": "address"
        }
      ],
      "name": "balanceOf",
      "outputs": [
        {
          "internalType": "uint256",
          "name": "",
          "type": "uint256"
        }
      ],
      "stateMutability": "view",
      "type": "function"
    },
    {
      "inputs": [
        {
          "internalType": "uint256",
          "name": "_marketId",
          "type": "uint256"
        },
        {
          "internalType": "uint256",
          "name": "_amountIn",
          "type": "uint256"
        },
        {
          "internalType": "uint256",
          "name": "_priceLimit",
          "type": "uint256"
        },
        {
          "internalType": "uint256",
          "name": "_leverage",
          "type": "uint256"
        }
      ],
      "name": "buyBondLevered",
      "outputs": [
        {
          "internalType": "uint256",
          "name": "amountIn",
          "type": "uint256"
        },
        {
          "internalType": "uint256",
          "name": "amountOut",
          "type": "uint256"
        }
      ],
      "stateMutability": "nonpayable",
      "type": "function"
    },
    {
      "inputs": [],
      "name": "deletePosition",
      "outputs": [],
      "stateMutability": "nonpayable",
      "type": "function"
    },
    {
      "inputs": [
        {
          "internalType": "uint256",
          "name": "tokenId",
          "type": "uint256"
        }
      ],
      "name": "getApproved",
      "outputs": [
        {
          "internalType": "address",
          "name": "",
          "type": "address"
        }
      ],
      "stateMutability": "view",
      "type": "function"
    },
    {
      "inputs": [
        {
          "internalType": "address",
          "name": "manager",
          "type": "address"
        }
      ],
      "name": "getMaxLeverage",
      "outputs": [
        {
          "internalType": "uint256",
          "name": "",
          "type": "uint256"
        }
      ],
      "stateMutability": "view",
      "type": "function"
    },
    {
      "inputs": [
        {
          "internalType": "uint256",
          "name": "marketId",
          "type": "uint256"
        },
        {
          "internalType": "address",
          "name": "trader",
          "type": "address"
        }
      ],
      "name": "getPosition",
      "outputs": [
        {
          "components": [
            {
              "internalType": "uint256",
              "name": "debt",
              "type": "uint256"
            },
            {
              "internalType": "uint256",
              "name": "amount",
              "type": "uint256"
            }
          ],
          "internalType": "struct LeverageManager.LeveredBond",
          "name": "",
          "type": "tuple"
        }
      ],
      "stateMutability": "view",
      "type": "function"
    },
    {
      "inputs": [
        {
          "internalType": "uint256",
          "name": "tokenId",
          "type": "uint256"
        }
      ],
      "name": "getPosition",
      "outputs": [
        {
          "components": [
            {
              "internalType": "address",
              "name": "vaultAd",
              "type": "address"
            },
            {
              "internalType": "uint256",
              "name": "totalShares",
              "type": "uint256"
            },
            {
              "internalType": "uint256",
              "name": "suppliedCapital",
              "type": "uint256"
            },
            {
              "internalType": "uint256",
              "name": "borrowedCapital",
              "type": "uint256"
            },
            {
              "internalType": "uint256",
              "name": "borrowTimeStamp",
              "type": "uint256"
            },
            {
              "internalType": "uint256",
              "name": "endStateBalance",
              "type": "uint256"
            }
          ],
          "internalType": "struct LeverageManager.Position",
          "name": "position",
          "type": "tuple"
        }
      ],
      "stateMutability": "view",
      "type": "function"
    },
    {
      "inputs": [
        {
          "internalType": "address",
          "name": "_owner",
          "type": "address"
        }
      ],
      "name": "getPositions",
      "outputs": [
        {
          "components": [
            {
              "internalType": "address",
              "name": "vaultAd",
              "type": "address"
            },
            {
              "internalType": "uint256",
              "name": "totalShares",
              "type": "uint256"
            },
            {
              "internalType": "uint256",
              "name": "suppliedCapital",
              "type": "uint256"
            },
            {
              "internalType": "uint256",
              "name": "borrowedCapital",
              "type": "uint256"
            },
            {
              "internalType": "uint256",
              "name": "borrowTimeStamp",
              "type": "uint256"
            },
            {
              "internalType": "uint256",
              "name": "endStateBalance",
              "type": "uint256"
            }
          ],
          "internalType": "struct LeverageManager.Position[]",
          "name": "",
          "type": "tuple[]"
        }
      ],
      "stateMutability": "view",
      "type": "function"
    },
    {
      "inputs": [
        {
          "internalType": "address",
          "name": "_owner",
          "type": "address"
        }
      ],
      "name": "getTokenIds",
      "outputs": [
        {
          "internalType": "uint256[]",
          "name": "",
          "type": "uint256[]"
        }
      ],
      "stateMutability": "view",
      "type": "function"
    },
    {
      "inputs": [
        {
          "internalType": "address",
          "name": "owner",
          "type": "address"
        },
        {
          "internalType": "address",
          "name": "operator",
          "type": "address"
        }
      ],
      "name": "isApprovedForAll",
      "outputs": [
        {
          "internalType": "bool",
          "name": "",
          "type": "bool"
        }
      ],
      "stateMutability": "view",
      "type": "function"
    },
    {
      "inputs": [
        {
          "internalType": "uint256",
          "name": "_marketId",
          "type": "uint256"
        },
        {
          "internalType": "uint256",
          "name": "_amountIn",
          "type": "uint256"
        },
        {
          "internalType": "uint256",
          "name": "_leverage",
          "type": "uint256"
        }
      ],
      "name": "issuePerpBondLevered",
      "outputs": [
        {
          "internalType": "uint256",
          "name": "issueQTY",
          "type": "uint256"
        }
      ],
      "stateMutability": "nonpayable",
      "type": "function"
    },
    {
      "inputs": [
        {
          "internalType": "uint256",
          "name": "",
          "type": "uint256"
        },
        {
          "internalType": "address",
          "name": "",
          "type": "address"
        }
      ],
      "name": "leveragePosition",
      "outputs": [
        {
          "internalType": "uint256",
          "name": "debt",
          "type": "uint256"
        },
        {
          "internalType": "uint256",
          "name": "amount",
          "type": "uint256"
        }
      ],
      "stateMutability": "view",
      "type": "function"
    },
    {
      "inputs": [],
      "name": "mintLev",
      "outputs": [],
      "stateMutability": "nonpayable",
      "type": "function"
    },
    {
      "inputs": [
        {
          "internalType": "uint256",
          "name": "vaultId",
          "type": "uint256"
        },
        {
          "internalType": "uint256",
          "name": "suppliedCapital",
          "type": "uint256"
        },
        {
          "internalType": "uint256",
          "name": "leverageFactor",
          "type": "uint256"
        }
      ],
      "name": "mintWithLeverage",
      "outputs": [
        {
          "internalType": "uint256",
          "name": "tokenId",
          "type": "uint256"
        },
        {
          "components": [
            {
              "internalType": "address",
              "name": "vaultAd",
              "type": "address"
            },
            {
              "internalType": "uint256",
              "name": "totalShares",
              "type": "uint256"
            },
            {
              "internalType": "uint256",
              "name": "suppliedCapital",
              "type": "uint256"
            },
            {
              "internalType": "uint256",
              "name": "borrowedCapital",
              "type": "uint256"
            },
            {
              "internalType": "uint256",
              "name": "borrowTimeStamp",
              "type": "uint256"
            },
            {
              "internalType": "uint256",
              "name": "endStateBalance",
              "type": "uint256"
            }
          ],
          "internalType": "struct LeverageManager.Position",
          "name": "newPosition",
          "type": "tuple"
        }
      ],
      "stateMutability": "nonpayable",
      "type": "function"
    },
    {
      "inputs": [],
      "name": "name",
      "outputs": [
        {
          "internalType": "string",
          "name": "",
          "type": "string"
        }
      ],
      "stateMutability": "view",
      "type": "function"
    },
    {
      "inputs": [
        {
          "internalType": "uint256",
          "name": "tokenId",
          "type": "uint256"
        }
      ],
      "name": "ownerOf",
      "outputs": [
        {
          "internalType": "address",
          "name": "",
          "type": "address"
        }
      ],
      "stateMutability": "view",
      "type": "function"
    },
    {
      "inputs": [
        {
          "internalType": "uint256",
          "name": "",
          "type": "uint256"
        }
      ],
      "name": "positions",
      "outputs": [
        {
          "internalType": "address",
          "name": "vaultAd",
          "type": "address"
        },
        {
          "internalType": "uint256",
          "name": "totalShares",
          "type": "uint256"
        },
        {
          "internalType": "uint256",
          "name": "suppliedCapital",
          "type": "uint256"
        },
        {
          "internalType": "uint256",
          "name": "borrowedCapital",
          "type": "uint256"
        },
        {
          "internalType": "uint256",
          "name": "borrowTimeStamp",
          "type": "uint256"
        },
        {
          "internalType": "uint256",
          "name": "endStateBalance",
          "type": "uint256"
        }
      ],
      "stateMutability": "view",
      "type": "function"
    },
    {
      "inputs": [
        {
          "internalType": "uint256",
          "name": "marketId",
          "type": "uint256"
        }
      ],
      "name": "redeemDeniedLeveredBond",
      "outputs": [
        {
          "internalType": "uint256",
          "name": "collateral_amount",
          "type": "uint256"
        }
      ],
      "stateMutability": "nonpayable",
      "type": "function"
    },
    {
      "inputs": [
        {
          "internalType": "uint256",
          "name": "marketId",
          "type": "uint256"
        }
      ],
      "name": "redeemLeveredBond",
      "outputs": [],
      "stateMutability": "nonpayable",
      "type": "function"
    },
    {
      "inputs": [
        {
          "internalType": "uint256",
          "name": "marketId",
          "type": "uint256"
        },
        {
          "internalType": "uint256",
          "name": "redeemAmount",
          "type": "uint256"
        }
      ],
      "name": "redeemLeveredPerpLongZCB",
      "outputs": [
        {
          "internalType": "uint256",
          "name": "collateral_redeem_amount",
          "type": "uint256"
        },
        {
          "internalType": "uint256",
          "name": "postRepayLeftOver",
          "type": "uint256"
        },
        {
          "internalType": "uint256",
          "name": "paidDebt",
          "type": "uint256"
        }
      ],
      "stateMutability": "nonpayable",
      "type": "function"
    },
    {
      "inputs": [],
      "name": "rewindFull",
      "outputs": [],
      "stateMutability": "nonpayable",
      "type": "function"
    },
    {
      "inputs": [
        {
          "internalType": "uint256",
          "name": "vaultId",
          "type": "uint256"
        },
        {
          "internalType": "uint256",
          "name": "tokenId",
          "type": "uint256"
        },
        {
          "internalType": "uint256",
          "name": "withdrawAmount",
          "type": "uint256"
        }
      ],
      "name": "rewindPartialLeverage",
      "outputs": [],
      "stateMutability": "nonpayable",
      "type": "function"
    },
    {
      "inputs": [
        {
          "internalType": "address",
          "name": "from",
          "type": "address"
        },
        {
          "internalType": "address",
          "name": "to",
          "type": "address"
        },
        {
          "internalType": "uint256",
          "name": "tokenId",
          "type": "uint256"
        }
      ],
      "name": "safeTransferFrom",
      "outputs": [],
      "stateMutability": "nonpayable",
      "type": "function"
    },
    {
      "inputs": [
        {
          "internalType": "address",
          "name": "from",
          "type": "address"
        },
        {
          "internalType": "address",
          "name": "to",
          "type": "address"
        },
        {
          "internalType": "uint256",
          "name": "tokenId",
          "type": "uint256"
        },
        {
          "internalType": "bytes",
          "name": "data",
          "type": "bytes"
        }
      ],
      "name": "safeTransferFrom",
      "outputs": [],
      "stateMutability": "nonpayable",
      "type": "function"
    },
    {
      "inputs": [
        {
          "internalType": "address",
          "name": "operator",
          "type": "address"
        },
        {
          "internalType": "bool",
          "name": "approved",
          "type": "bool"
        }
      ],
      "name": "setApprovalForAll",
      "outputs": [],
      "stateMutability": "nonpayable",
      "type": "function"
    },
    {
      "inputs": [
        {
          "internalType": "address",
          "name": "dataStore",
          "type": "address"
        }
      ],
      "name": "setDataStore",
      "outputs": [],
      "stateMutability": "nonpayable",
      "type": "function"
    },
    {
      "inputs": [
        {
          "internalType": "bytes4",
          "name": "interfaceId",
          "type": "bytes4"
        }
      ],
      "name": "supportsInterface",
      "outputs": [
        {
          "internalType": "bool",
          "name": "",
          "type": "bool"
        }
      ],
      "stateMutability": "view",
      "type": "function"
    },
    {
      "inputs": [],
      "name": "symbol",
      "outputs": [
        {
          "internalType": "string",
          "name": "",
          "type": "string"
        }
      ],
      "stateMutability": "view",
      "type": "function"
    },
    {
      "inputs": [
        {
          "internalType": "uint256",
          "name": "index",
          "type": "uint256"
        }
      ],
      "name": "tokenByIndex",
      "outputs": [
        {
          "internalType": "uint256",
          "name": "",
          "type": "uint256"
        }
      ],
      "stateMutability": "view",
      "type": "function"
    },
    {
      "inputs": [
        {
          "internalType": "address",
          "name": "owner",
          "type": "address"
        },
        {
          "internalType": "uint256",
          "name": "index",
          "type": "uint256"
        }
      ],
      "name": "tokenOfOwnerByIndex",
      "outputs": [
        {
          "internalType": "uint256",
          "name": "",
          "type": "uint256"
        }
      ],
      "stateMutability": "view",
      "type": "function"
    },
    {
      "inputs": [
        {
          "internalType": "uint256",
          "name": "id",
          "type": "uint256"
        }
      ],
      "name": "tokenURI",
      "outputs": [
        {
          "internalType": "string",
          "name": "",
          "type": "string"
        }
      ],
      "stateMutability": "view",
      "type": "function"
    },
    {
      "inputs": [],
      "name": "totalSupply",
      "outputs": [
        {
          "internalType": "uint256",
          "name": "",
          "type": "uint256"
        }
      ],
      "stateMutability": "view",
      "type": "function"
    },
    {
      "inputs": [
        {
          "internalType": "uint256",
          "name": "amount",
          "type": "uint256"
        },
        {
          "internalType": "bytes",
          "name": "data",
          "type": "bytes"
        }
      ],
      "name": "tradeCallBack",
      "outputs": [],
      "stateMutability": "nonpayable",
      "type": "function"
    },
    {
      "inputs": [
        {
          "internalType": "address",
          "name": "from",
          "type": "address"
        },
        {
          "internalType": "address",
          "name": "to",
          "type": "address"
        },
        {
          "internalType": "uint256",
          "name": "tokenId",
          "type": "uint256"
        }
      ],
      "name": "transferFrom",
      "outputs": [],
      "stateMutability": "nonpayable",
      "type": "function"
    },
    {
      "inputs": [],
      "name": "viewPNL",
      "outputs": [],
      "stateMutability": "nonpayable",
      "type": "function"
    }
  ],
  "bytecode": {
    "object": "0x60806040527601000000000000000000000000000000000000000000016012553480156200002c57600080fd5b5060405162004968380380620049688339810160408190526200004f9162000111565b604051806040016040528060078152602001662920a6a690363b60c91b815250604051806040016040528060068152602001652930b6b6a62b60d11b81525081600090816200009f919062000200565b506001620000ae828262000200565b5050600a80546001600160a01b039586166001600160a01b031991821617909155600b80549486169482169490941790935550600c8054919093169116179055620002cc565b80516001600160a01b03811681146200010c57600080fd5b919050565b6000806000606084860312156200012757600080fd5b6200013284620000f4565b92506200014260208501620000f4565b91506200015260408501620000f4565b90509250925092565b634e487b7160e01b600052604160045260246000fd5b600181811c908216806200018657607f821691505b602082108103620001a757634e487b7160e01b600052602260045260246000fd5b50919050565b601f821115620001fb57600081815260208120601f850160051c81016020861015620001d65750805b601f850160051c820191505b81811015620001f757828155600101620001e2565b5050505b505050565b81516001600160401b038111156200021c576200021c6200015b565b62000234816200022d845462000171565b84620001ad565b602080601f8311600181146200026c5760008415620002535750858301515b600019600386901b1c1916600185901b178555620001f7565b600085815260208120601f198616915b828110156200029d578886015182559484019460019091019084016200027c565b5085821015620002bc5787850151600019600388901b60f8161c191681555b5050505050600190811b01905550565b61468c80620002dc6000396000f3fe608060405234801561001057600080fd5b50600436106102325760003560e01c8063794799c011610130578063d29f541d116100b8578063e5edbab41161007c578063e5edbab4146105f7578063e985e9c514610625578063eb02c30114610661578063f0a85644146102b2578063f7cf78d71461068157600080fd5b8063d29f541d14610515578063d36287f41461058a578063d3e612ce146105d1578063da520d3e146105e4578063db615985146102b257600080fd5b8063a22cb465116100ff578063a22cb465146104a8578063b88d4fde146104bb578063bdce3867146104ce578063c87b56dd146104e1578063d004b036146104f557600080fd5b8063794799c0146103e0578063808d856b1461040157806395d89b411461041c57806399fbab881461042457600080fd5b806342842e0e116101be5780635560c021116101825780635560c021146102b25780635da6f9211461036b5780636352211e146103a757806370a08231146103ba578063765cd23a146103cd57600080fd5b806342842e0e1461031f5780634b6e7d78146103325780634f6ccce714610345578063500065d21461035857806352e59b23146102b257600080fd5b806318160ddd1161020557806318160ddd146102b457806323b872dd146102c65780632f745c59146102d957806334a8ee14146102ec5780633eeb530e146102ff57600080fd5b806301ffc9a71461023757806306fdde031461025f578063081812fc14610274578063095ea7b31461029f575b600080fd5b61024a610245366004613ca0565b610694565b60405190151581526020015b60405180910390f35b6102676106bf565b6040516102569190613d0d565b610287610282366004613d20565b610751565b6040516001600160a01b039091168152602001610256565b6102b26102ad366004613d4e565b610778565b005b6008545b604051908152602001610256565b6102b26102d4366004613d7a565b610892565b6102b86102e7366004613d4e565b6108c3565b6102b26102fa366004613dbb565b610959565b61031261030d366004613de7565b611054565b6040516102569190613e44565b6102b261032d366004613d7a565b61117e565b600d54610287906001600160a01b031681565b6102b8610353366004613d20565b611199565b6102b2610366366004613de7565b61122c565b6102b2610379366004613e92565b60009182526011602052604090912080546001600160a01b0319166001600160a01b03909216919091179055565b6102876103b5366004613d20565b611296565b6102b86103c8366004613de7565b6112f6565b6102b26103db366004613d20565b61137c565b6103f36103ee366004613dbb565b6117b5565b604051610256929190613ec2565b6102b861040f366004613de7565b50674563918244f4000090565b610267611e9d565b610471610432366004613d20565b6010602052600090815260409020805460018201546002830154600384015460048501546005909501546001600160a01b039094169492939192909186565b604080516001600160a01b0390971687526020870195909552938501929092526060840152608083015260a082015260c001610256565b6102b26104b6366004613ee4565b611eac565b6102b26104c9366004613faa565b611ebb565b6102b86104dc366004613d20565b611ef3565b6102676104ef366004613d20565b50606090565b610508610503366004613de7565b612165565b6040516102569190614059565b61056f610523366004613e92565b60408051808201825260008082526020918201819052938452600e81528184206001600160a01b0393909316845291825291829020825180840190935280548352600101549082015290565b60408051825181526020928301519281019290925201610256565b6105bc610598366004613e92565b600e6020908152600092835260408084209091529082529020805460019091015482565b60408051928352602083019190915201610256565b6102b86105df366004613dbb565b612209565b6102b26105f2366004614091565b612611565b61060a61060536600461410d565b6126f0565b60408051938452602084019290925290820152606001610256565b61024a61063336600461412f565b6001600160a01b03918216600090815260056020908152604080832093909416825291909152205460ff1690565b61067461066f366004613d20565b612a70565b604051610256919061415d565b6105bc61068f36600461416b565b612ada565b60006001600160e01b0319821663780e9d6360e01b14806106b957506106b982612eeb565b92915050565b6060600080546106ce9061419d565b80601f01602080910402602001604051908101604052809291908181526020018280546106fa9061419d565b80156107475780601f1061071c57610100808354040283529160200191610747565b820191906000526020600020905b81548152906001019060200180831161072a57829003601f168201915b5050505050905090565b600061075c82612f3b565b506000908152600460205260409020546001600160a01b031690565b600061078382611296565b9050806001600160a01b0316836001600160a01b0316036107f55760405162461bcd60e51b815260206004820152602160248201527f4552433732313a20617070726f76616c20746f2063757272656e74206f776e656044820152603960f91b60648201526084015b60405180910390fd5b336001600160a01b038216148061081157506108118133610633565b6108835760405162461bcd60e51b815260206004820152603d60248201527f4552433732313a20617070726f76652063616c6c6572206973206e6f7420746f60448201527f6b656e206f776e6572206f7220617070726f76656420666f7220616c6c00000060648201526084016107ec565b61088d8383612f9d565b505050565b61089c338261300b565b6108b85760405162461bcd60e51b81526004016107ec906141d7565b61088d83838361308a565b60006108ce836112f6565b82106109305760405162461bcd60e51b815260206004820152602b60248201527f455243373231456e756d657261626c653a206f776e657220696e646578206f7560448201526a74206f6620626f756e647360a81b60648201526084016107ec565b506001600160a01b03919091166000908152600660209081526040808320938352929052205490565b61098b6040518060a0016040528060008152602001600081526020016000815260200160008152602001600081525090565b600083815260106020908152604091829020825160c08101845281546001600160a01b03168152600182015492810183905260028201549381019390935260038101546060840152600481015460808401526005015460a0830152831115610a2c5760405162461bcd60e51b81526020600482015260146024820152733630b933b2b9103a3430b7103837b9b4ba34b7b760611b60448201526064016107ec565b600a54604051634632752560e11b8152600481018790526000916001600160a01b031690638c64ea4a90602401602060405180830381865afa158015610a76573d6000803e3d6000fd5b505050506040513d601f19601f82011682018060405250810190610a9a9190614224565b90506000816001600160a01b031663c5d664c66040518163ffffffff1660e01b8152600401602060405180830381865afa158015610adc573d6000803e3d6000fd5b505050506040513d601f19601f82011682018060405250810190610b009190614224565b6000888152601160205260409081902054905163b3d7f6b960e01b8152600481018890529192506001600160a01b03908116918184169163095ea7b391849187169063b3d7f6b990602401602060405180830381865afa158015610b68573d6000803e3d6000fd5b505050506040513d601f19601f82011682018060405250810190610b8c9190614251565b6040516001600160e01b031960e085901b1681526001600160a01b03909216600483015260248201526044016020604051808303816000875af1158015610bd7573d6000803e3d6000fd5b505050506040513d601f19601f82011682018060405250810190610bfb9190614275565b50602085018690525b602085015115610f7d57610c208460a0015186602001516131fb565b60808601819052604051635d043b2960e11b81526004810191909152306024820181905260448201526001600160a01b0384169063ba087652906064016020604051808303816000875af1158015610c7c573d6000803e3d6000fd5b505050506040513d601f19601f82011682018060405250810190610ca09190614251565b808652604051631fd0956760e01b815260048101919091523060248201526001600160a01b03821690631fd09567906044016020604051808303816000875af1158015610cf1573d6000803e3d6000fd5b505050506040513d601f19601f82011682018060405250810190610d159190614251565b50604051636e9c33bd60e11b81526001600160a01b0384811660048301526000602483015230604483015282169063dd38677a906064016020604051808303816000875af1158015610d6b573d6000803e3d6000fd5b505050506040513d601f19601f82011682018060405250810190610d8f9190614251565b856040018181525050610dc2604051806040016040528060098152602001685f5f5f4e45575f5f5f60b81b815250613214565b610df56040518060400160405280600d81526020016c1dda5d1a191c985dc81b19599d609a1b8152508660200151613257565b610e376040518060400160405280600f81526020016e72656465656d65642073686172657360881b815250610e328660a0015188602001516131fb565b613257565b610e6d6040518060400160405280601081526020016f1c995919595b59590bdc995c185e595960821b8152508660000151613257565b610e9a604051806040016040528060078152602001661c995b5bdd995960ca1b8152508660400151613257565b846080015185602001818151610eb091906142a8565b9052508451606086018051610ec69083906142bb565b905250602085015160a08501511015610ee3578460400151610f06565b846040015185602001518560a00151610efc91906142a8565b610f0691906142bb565b60a08501526040805180820190915260128152711d1bdd185b105cdcd95d14995d1d5c9b995960721b60208201526060860151610f439190613257565b610f786040518060400160405280600f81526020016e656e64537461746542616c616e636560881b8152508560a00151613257565b610c04565b8584602001818151610f8f91906142a8565b9052506060808601519085015110610fbf57846060015184606001818151610fb791906142a8565b905250610feb565b60006060808601829052860151610fd691906142a8565b84604001818151610fe791906142a8565b9052505b505050600093845260106020908152604094859020825181546001600160a01b0319166001600160a01b03909116178155908201516001820155938101516002850155606081015160038501556080810151600485015560a00151600590930192909255505050565b6060600061106183612165565b90506000815167ffffffffffffffff81111561107f5761107f613f12565b6040519080825280602002602001820160405280156110b857816020015b6110a5613c4b565b81526020019060019003908161109d5790505b50905060005b825181101561117657601060008483815181106110dd576110dd6142ce565b6020908102919091018101518252818101929092526040908101600020815160c08101835281546001600160a01b0316815260018201549381019390935260028101549183019190915260038101546060830152600481015460808301526005015460a08201528251839083908110611158576111586142ce565b6020026020010181905250808061116e906142e4565b9150506110be565b509392505050565b61088d83838360405180602001604052806000815250611ebb565b60006111a460085490565b82106112075760405162461bcd60e51b815260206004820152602c60248201527f455243373231456e756d657261626c653a20676c6f62616c20696e646578206f60448201526b7574206f6620626f756e647360a01b60648201526084016107ec565b6008828154811061121a5761121a6142ce565b90600052602060002001549050919050565b600a546001600160a01b031633146112745760405162461bcd60e51b815260206004820152600b60248201526a10b1b7b73a3937b63632b960a91b60448201526064016107ec565b600d80546001600160a01b0319166001600160a01b0392909216919091179055565b6000818152600260205260408120546001600160a01b0316806106b95760405162461bcd60e51b8152602060048201526018602482015277115490cdcc8c4e881a5b9d985b1a59081d1bdad95b88125160421b60448201526064016107ec565b60006001600160a01b0382166113605760405162461bcd60e51b815260206004820152602960248201527f4552433732313a2061646472657373207a65726f206973206e6f7420612076616044820152683634b21037bbb732b960b91b60648201526084016107ec565b506001600160a01b031660009081526003602052604090205490565b600b546040516353ac55f560e01b8152600481018390526001600160a01b03909116906353ac55f590602401602060405180830381865afa1580156113c5573d6000803e3d6000fd5b505050506040513d601f19601f820116820180604052508101906113e99190614275565b6114215760405162461bcd60e51b8152602060048201526009602482015268085c995cdbdb1d995960ba1b60448201526064016107ec565b6000818152600f6020908152604080832033845290915290205460ff16156114765760405162461bcd60e51b815260206004820152600860248201526714995919595b595960c21b60448201526064016107ec565b6000818152600f6020908152604080832033808552925291829020805460ff19166001179055600a5491516323f2a73f60e01b81526004810184905260248101919091526001600160a01b03909116906323f2a73f90604401602060405180830381865afa1580156114ec573d6000803e3d6000fd5b505050506040513d601f19601f820116820180604052508101906115109190614275565b1561157a57600a54604051638f5709a560e01b8152600481018390523360248201526001600160a01b0390911690638f5709a590604401600060405180830381600087803b15801561156157600080fd5b505af1158015611575573d6000803e3d6000fd5b505050505b6000818152600e60209081526040808320338452825291829020825180840190935280548352600101549082018190526115e15760405162461bcd60e51b81526020600482015260086024820152670c08105b5bdd5b9d60c21b60448201526064016107ec565b600b54604051633e4de2e760e11b8152600481018490526000916001600160a01b031690637c9bc5ce90602401602060405180830381865afa15801561162b573d6000803e3d6000fd5b505050506040513d601f19601f8201168201806040525081019061164f9190614251565b9050600061166a83602001518361329c90919063ffffffff16565b90506000836000015182101561168157600061168d565b835161168d90836142a8565b600a546040516323f2a73f60e01b8152600481018890523360248201529192506001600160a01b0316906323f2a73f90604401602060405180830381865afa1580156116dd573d6000803e3d6000fd5b505050506040513d601f19601f820116820180604052508101906117019190614275565b50600b546020850151604051637a54f4dd60e11b8152600481018890523060248201526044810191909152336064820152608481018390526001600160a01b039091169063f4a9e9ba9060a401600060405180830381600087803b15801561176857600080fd5b505af115801561177c573d6000803e3d6000fd5b505060006020808801828152828952988252600e8152604080832033845290915290209551865550509351600190930192909255505050565b60006117bf613c4b565b61183060405180610160016040528060006001600160a01b0316815260200160006001600160a01b0316815260200160008152602001600081526020016000151581526020016000815260200160008152602001600081526020016000815260200160008152602001600081525090565b600a54604051634632752560e11b8152600481018890526001600160a01b0390911690638c64ea4a90602401602060405180830381865afa158015611879573d6000803e3d6000fd5b505050506040513d601f19601f8201168201806040525081019061189d9190614224565b6001600160a01b0316808252604080516362eb326360e11b815290516000929163c5d664c69160048083019260209291908290030181865afa1580156118e7573d6000803e3d6000fd5b505050506040513d601f19601f8201168201806040525081019061190b9190614224565b6040516323b872dd60e01b81529091506001600160a01b038216906323b872dd9061193e90339030908b906004016142fd565b6020604051808303816000875af115801561195d573d6000803e3d6000fd5b505050506040513d601f19601f820116820180604052508101906119819190614275565b5081516001600160a01b0382169063095ea7b3906119b16119aa89670de0b6b3a76400006142bb565b8a9061329c565b6040516001600160e01b031960e085901b1681526001600160a01b03909216600483015260248201526044016020604051808303816000875af11580156119fc573d6000803e3d6000fd5b505050506040513d601f19601f82011682018060405250810190611a209190614275565b50600087815260116020908152604091829020546001600160a01b03168482018190528251631d09b9e960e21b815292519092637426e7a49260048083019391928290030181865afa158015611a7a573d6000803e3d6000fd5b505050506040513d601f19601f82011682018060405250810190611a9e9190614251565b6101008301819052600003611ae65760405162461bcd60e51b815260206004820152600e60248201526d4e6f7420456e6f756768204c697160901b60448201526064016107ec565b60208201518251604051632fed83fb60e11b81526001600160a01b0391821660048201526000602482015291169063d3160c0f908290635fdb07f690604401602060405180830381865afa158015611b42573d6000803e3d6000fd5b505050506040513d601f19601f82011682018060405250810190611b669190614251565b6040518263ffffffff1660e01b8152600401611b8491815260200190565b61010060405180830381865afa158015611ba2573d6000803e3d6000fd5b505050506040513d601f19601f82011682018060405250810190611bc69190614321565b505050505061014085015250508151604051636e553f6560e01b8152600481018890523060248201526001600160a01b0390911690636e553f65906044016020604051808303816000875af1158015611c23573d6000803e3d6000fd5b505050506040513d601f19601f82011682018060405250810190611c479190614251565b60a0830152611c56868661329c565b60408301525b8160a001518260c001818151611c7291906142bb565b9052506040805180820190915260098152685f5f5f4e45575f5f5f60b81b6020820152611c9e90613214565b611cd5604051806040016040528060118152602001701d1bdd185b109bdc9c9bddd05b5bdd5b9d607a1b8152508360e00151613257565b611d0e60405180604001604052806013815260200172189bdc9c9bddd959105b5bdd5b9d081319599d606a1b8152508360400151613257565b611d288783610100015184604001518560a00151866132b1565b8161012001518260e001818151611d3f91906142bb565b905250610120820151604083015110611d715781610120015182604001818151611d6991906142a8565b905250611d79565b600060408301525b60408201511580611d8b575081608001515b15611c5c578160a001518260c001818151611da691906142bb565b90525060128054611dfd9133916001600160b01b0316906000611dc883614389565b91906101000a8154816001600160b01b0302191690836001600160b01b031602179055506001600160b01b0316955085613504565b506040805160c0808201835283516001600160a01b039081168352908401516020808401918252838501998a5260e086015160608501908152426080860190815260a09788015197860197885260008a8152601090935295909120845181546001600160a01b0319169416939093178355905160018301559751600282015596516003880155905160048701559051600590950194909455509391925050565b6060600180546106ce9061419d565b611eb733838361369d565b5050565b611ec5338361300b565b611ee15760405162461bcd60e51b81526004016107ec906141d7565b611eed8484848461376b565b50505050565b6000818152600e6020908152604080832033845282528083208151808301909252805482526001015491810182905290611f555760405162461bcd60e51b815260206004820152600360248201526222a92960e91b60448201526064016107ec565b6000838152600e6020908152604080832033808552925280832060010192909255600a5491516323f2a73f60e01b81526004810186905260248101919091526001600160a01b03909116906323f2a73f90604401602060405180830381865afa158015611fc6573d6000803e3d6000fd5b505050506040513d601f19601f82011682018060405250810190611fea9190614275565b1561206b57600a54604051634187150160e11b8152600481018590523360248201526001600160a01b039091169063830e2a02906044016020604051808303816000875af1158015612040573d6000803e3d6000fd5b505050506040513d601f19601f820116820180604052508101906120649190614251565b91506120e1565b600b5460405163214b398760e01b8152600481018590523360248201526001600160a01b039091169063214b398790604401602060405180830381865afa1580156120ba573d6000803e3d6000fd5b505050506040513d601f19601f820116820180604052508101906120de9190614251565b91505b600b546020820151604051637a54f4dd60e11b8152600481018690523060248201526044810191909152336064820152608481018490526001600160a01b039091169063f4a9e9ba9060a401600060405180830381600087803b15801561214757600080fd5b505af115801561215b573d6000803e3d6000fd5b5050505050919050565b60606000612172836112f6565b67ffffffffffffffff81111561218a5761218a613f12565b6040519080825280602002602001820160405280156121b3578160200160208202803683370190505b50905060005b6121c2846112f6565b811015612202576121d384826108c3565b8282815181106121e5576121e56142ce565b6020908102919091010152806121fa816142e4565b9150506121b9565b5092915050565b6000674563918244f40000821115801561222b5750670de0b6b3a76400008210155b6122635760405162461bcd60e51b8152602060048201526009602482015268216c6576657261676560b81b60448201526064016107ec565b600b546040516387a2882760e01b815233600482015260248101859052604481018690526001600160a01b03909116906387a288279060640160006040518083038186803b1580156122b457600080fd5b505afa1580156122c8573d6000803e3d6000fd5b5050600b5460405163eb44fdd360e01b815260048101889052600093506001600160a01b03909116915063eb44fdd390602401600060405180830381865afa158015612318573d6000803e3d6000fd5b505050506040513d6000823e601f3d908101601f1916820160405261234091908101906143fc565b9050600081600001516001600160a01b03166390f817026040518163ffffffff1660e01b8152600401602060405180830381865afa158015612386573d6000803e3d6000fd5b505050506040513d601f19601f820116820180604052508101906123aa9190614224565b905060006123b8868661379e565b6040516323b872dd60e01b81529091506001600160a01b038316906323b872dd906123eb903390309086906004016142fd565b6020604051808303816000875af115801561240a573d6000803e3d6000fd5b505050506040513d601f19601f8201168201806040525081019061242e9190614275565b50600a546001600160a01b031663da0a697f8861244b848a6142a8565b6040516001600160e01b031960e085901b16815260048101929092526024820152604401600060405180830381600087803b15801561248957600080fd5b505af115801561249d573d6000803e3d6000fd5b5050600b5460405163095ea7b360e01b81526001600160a01b039182166004820152602481018a9052908516925063095ea7b391506044016020604051808303816000875af11580156124f4573d6000803e3d6000fd5b505050506040513d601f19601f820116820180604052508101906125189190614275565b50600b5460405163014fe7a560e11b815260048101899052602481018890523060448201523360648201526001600160a01b039091169063029fcf4a906084016020604051808303816000875af1158015612577573d6000803e3d6000fd5b505050506040513d601f19601f8201168201806040525081019061259b9190614251565b93506125a781876142a8565b6000888152600e60209081526040808320338452909152812080549091906125d09084906142bb565b90915550506000878152600e60209081526040808320338452909152812060010180548692906126019084906142bb565b9091555093979650505050505050565b336001600160a01b03166390f817026040518163ffffffff1660e01b8152600401602060405180830381865afa15801561264f573d6000803e3d6000fd5b505050506040513d601f19601f820116820180604052508101906126739190614224565b6001600160a01b03166323b872dd61268d83850185613de7565b33866040518463ffffffff1660e01b81526004016126ad939291906142fd565b6020604051808303816000875af11580156126cc573d6000803e3d6000fd5b505050506040513d601f19601f82011682018060405250810190611eed9190614275565b60008060006127376040518060c00160405280600081526020016000815260200160008152602001600081526020016000815260200160006001600160a01b031681525090565b600a54604051632500ed8d60e21b8152600481018890526001600160a01b0390911690639403b63490602401602060405180830381865afa158015612780573d6000803e3d6000fd5b505050506040513d601f19601f820116820180604052508101906127a49190614224565b6001600160a01b031660a08201526000868152600e602090815260408083203384528252918290208251808401909352805483526001015490820181905286111561281e5760405162461bcd60e51b815260206004820152600a60248201526920b6b7bab73a1022a92960b11b60448201526064016107ec565b600b5460405163061427c560e01b815260048101899052602481018890523060448201523360648201526001600160a01b039091169063061427c59060840160408051808303816000875af115801561287b573d6000803e3d6000fd5b505050506040513d601f19601f8201168201806040525081019061289f91906144c1565b50809550508160a001516001600160a01b031663c5d664c66040518163ffffffff1660e01b8152600401602060405180830381865afa1580156128e6573d6000803e3d6000fd5b505050506040513d601f19601f8201168201806040525081019061290a9190614224565b60a083015160405163a9059cbb60e01b81526001600160a01b0391821660048201526024810188905291169063a9059cbb906044016020604051808303816000875af115801561295e573d6000803e3d6000fd5b505050506040513d601f19601f820116820180604052508101906129829190614275565b5080518510156129a95784925084816000018181516129a191906142a8565b9052506129b2565b80516000825292505b60208101805187900390528051600003612a3d576129d083866142a8565b600a54604051631e1fa3a760e31b815260048101839052336024820152604481018a90529195506001600160a01b03169063f0fd1d3890606401600060405180830381600087803b158015612a2457600080fd5b505af1158015612a38573d6000803e3d6000fd5b505050505b6000968752600e60209081526040808920338a528252909720815181559601516001909601959095559194909350909150565b612a78613c4b565b50600090815260106020908152604091829020825160c08101845281546001600160a01b03168152600182015492810192909252600281015492820192909252600382015460608201526004820154608082015260059091015460a082015290565b600c546000908190600160a01b900460ff1615612b275760405162461bcd60e51b815260206004820152600b60248201526a4552525f5245454e54525960a81b60448201526064016107ec565b600c805460ff60a01b1916600160a01b179055612b49674563918244f4000090565b8311158015612b605750670de0b6b3a76400008310155b612b985760405162461bcd60e51b8152602060048201526009602482015268216c6576657261676560b81b60448201526064016107ec565b600b5460405163eb44fdd360e01b8152600481018890526000916001600160a01b03169063eb44fdd390602401600060405180830381865afa158015612be2573d6000803e3d6000fd5b505050506040513d6000823e601f3d908101601f19168201604052612c0a91908101906143fc565b9050600081600001516001600160a01b03166390f817026040518163ffffffff1660e01b8152600401602060405180830381865afa158015612c50573d6000803e3d6000fd5b505050506040513d601f19601f82011682018060405250810190612c749190614224565b90506000612c82888761379e565b6040516323b872dd60e01b81529091506001600160a01b038316906323b872dd90612cb5903390309086906004016142fd565b6020604051808303816000875af1158015612cd4573d6000803e3d6000fd5b505050506040513d601f19601f82011682018060405250810190612cf89190614275565b50600a546001600160a01b031663da0a697f8a612d15848c6142a8565b6040516001600160e01b031960e085901b16815260048101929092526024820152604401600060405180830381600087803b158015612d5357600080fd5b505af1158015612d67573d6000803e3d6000fd5b5050600b5460405163095ea7b360e01b81526001600160a01b039182166004820152602481018c905260609350908516915063095ea7b3906044016020604051808303816000875af1158015612dc1573d6000803e3d6000fd5b505050506040513d601f19601f82011682018060405250810190612de59190614275565b50600b54604051625c2ac360e01b81526001600160a01b0390911690625c2ac390612e1e908d908d908d908790309033906004016144e5565b60408051808303816000875af1158015612e3c573d6000803e3d6000fd5b505050506040513d601f19601f82011682018060405250810190612e6091906144c1565b9096509450612e6f828a6142a8565b60008b8152600e6020908152604080832033845290915281208054909190612e989084906142bb565b909155505060008a8152600e6020908152604080832033845290915281206001018054879290612ec99084906142bb565b9091555050600c805460ff60a01b191690555093989297509195505050505050565b60006001600160e01b031982166380ac58cd60e01b1480612f1c57506001600160e01b03198216635b5e139f60e01b145b806106b957506301ffc9a760e01b6001600160e01b03198316146106b9565b6000818152600260205260409020546001600160a01b0316612f9a5760405162461bcd60e51b8152602060048201526018602482015277115490cdcc8c4e881a5b9d985b1a59081d1bdad95b88125160421b60448201526064016107ec565b50565b600081815260046020526040902080546001600160a01b0319166001600160a01b0384169081179091558190612fd282611296565b6001600160a01b03167f8c5be1e5ebec7d5bd14f71427d1e84f3dd0314c0f7b2291e5b200ac8c7c3b92560405160405180910390a45050565b60008061301783611296565b9050806001600160a01b0316846001600160a01b0316148061305e57506001600160a01b0380821660009081526005602090815260408083209388168352929052205460ff165b806130825750836001600160a01b031661307784610751565b6001600160a01b0316145b949350505050565b826001600160a01b031661309d82611296565b6001600160a01b0316146130c35760405162461bcd60e51b81526004016107ec9061452d565b6001600160a01b0382166131255760405162461bcd60e51b8152602060048201526024808201527f4552433732313a207472616e7366657220746f20746865207a65726f206164646044820152637265737360e01b60648201526084016107ec565b61313283838360016137b3565b826001600160a01b031661314582611296565b6001600160a01b03161461316b5760405162461bcd60e51b81526004016107ec9061452d565b600081815260046020908152604080832080546001600160a01b03199081169091556001600160a01b0387811680865260038552838620805460001901905590871680865283862080546001019055868652600290945282852080549092168417909155905184937fddf252ad1be2c89b69c2b068fc378daa952ba7f163c4a11628f55a4df523b3ef91a4505050565b60008183111561320b578161320d565b825b9392505050565b612f9a816040516024016132289190613d0d565b60408051601f198184030181529190526020810180516001600160e01b031663104c13eb60e21b1790526138f3565b611eb7828260405160240161326d929190614572565b60408051601f198184030181529190526020810180516001600160e01b03166309710a9d60e41b1790526138f3565b600061320d8383670de0b6b3a7640000613914565b60006132d4846132cf8585610140015161329c90919063ffffffff16565b6131fb565b90506132e081866131fb565b6101208301819052811160808301528151602083015160405163095ea7b360e01b81526001600160a01b0391821660048201526024810186905291169063095ea7b3906044016020604051808303816000875af1158015613345573d6000803e3d6000fd5b505050506040513d601f19601f820116820180604052508101906133699190614275565b506020820151610120830151835160405163b2b93fe360e01b815260048101929092526001600160a01b0390811660248301526000604483015260648201869052306084830152600160a48301529091169063b2b93fe39060c4016020604051808303816000875af11580156133e3573d6000803e3d6000fd5b505050506040513d601f19601f820116820180604052508101906134079190614251565b5061343f604051806040016040528060158152602001741b995dc818dbdb1b185d195c985b08185b5bdd5b9d605a1b81525084613257565b613479604051806040016040528060138152602001721b585e109bdc9c9bddd8589b19505b5bdd5b9d606a1b815250836101200151613257565b8151610120830151604051636e553f6560e01b815260048101919091523060248201526001600160a01b0390911690636e553f65906044016020604051808303816000875af11580156134d0573d6000803e3d6000fd5b505050506040513d601f19601f820116820180604052508101906134f49190614251565b60a0909201919091525050505050565b6001600160a01b03821661355a5760405162461bcd60e51b815260206004820181905260248201527f4552433732313a206d696e7420746f20746865207a65726f206164647265737360448201526064016107ec565b6000818152600260205260409020546001600160a01b0316156135bf5760405162461bcd60e51b815260206004820152601c60248201527f4552433732313a20746f6b656e20616c7265616479206d696e7465640000000060448201526064016107ec565b6135cd6000838360016137b3565b6000818152600260205260409020546001600160a01b0316156136325760405162461bcd60e51b815260206004820152601c60248201527f4552433732313a20746f6b656e20616c7265616479206d696e7465640000000060448201526064016107ec565b6001600160a01b038216600081815260036020908152604080832080546001019055848352600290915280822080546001600160a01b0319168417905551839291907fddf252ad1be2c89b69c2b068fc378daa952ba7f163c4a11628f55a4df523b3ef908290a45050565b816001600160a01b0316836001600160a01b0316036136fe5760405162461bcd60e51b815260206004820152601960248201527f4552433732313a20617070726f766520746f2063616c6c65720000000000000060448201526064016107ec565b6001600160a01b03838116600081815260056020908152604080832094871680845294825291829020805460ff191686151590811790915591519182527f17307eab39ab6107e8899845ad3d59bd9653f200f220920489ca2b5937696c31910160405180910390a3505050565b61377684848461308a565b61378284848484613932565b611eed5760405162461bcd60e51b81526004016107ec90614594565b600061320d83670de0b6b3a764000084613914565b6137bf84848484613a33565b600181111561382e5760405162461bcd60e51b815260206004820152603560248201527f455243373231456e756d657261626c653a20636f6e7365637574697665207472604482015274185b9cd9995c9cc81b9bdd081cdd5c1c1bdc9d1959605a1b60648201526084016107ec565b816001600160a01b03851661388a5761388581600880546000838152600960205260408120829055600182018355919091527ff3f7a9fe364faab93b216da50a3214154f22a0a2b415b23a84c8169e8b636ee30155565b6138ad565b836001600160a01b0316856001600160a01b0316146138ad576138ad8582613abb565b6001600160a01b0384166138c9576138c481613b58565b6138ec565b846001600160a01b0316846001600160a01b0316146138ec576138ec8482613c07565b5050505050565b80516a636f6e736f6c652e6c6f67602083016000808483855afa5050505050565b600082600019048411830215820261392b57600080fd5b5091020490565b60006001600160a01b0384163b15613a2857604051630a85bd0160e11b81526001600160a01b0385169063150b7a02906139769033908990889088906004016145e6565b6020604051808303816000875af19250505080156139b1575060408051601f3d908101601f191682019092526139ae91810190614623565b60015b613a0e573d8080156139df576040519150601f19603f3d011682016040523d82523d6000602084013e6139e4565b606091505b508051600003613a065760405162461bcd60e51b81526004016107ec90614594565b805181602001fd5b6001600160e01b031916630a85bd0160e11b149050613082565b506001949350505050565b6001811115611eed576001600160a01b03841615613a79576001600160a01b03841660009081526003602052604081208054839290613a739084906142a8565b90915550505b6001600160a01b03831615611eed576001600160a01b03831660009081526003602052604081208054839290613ab09084906142bb565b909155505050505050565b60006001613ac8846112f6565b613ad291906142a8565b600083815260076020526040902054909150808214613b25576001600160a01b03841660009081526006602090815260408083208584528252808320548484528184208190558352600790915290208190555b5060009182526007602090815260408084208490556001600160a01b039094168352600681528383209183525290812055565b600854600090613b6a906001906142a8565b60008381526009602052604081205460088054939450909284908110613b9257613b926142ce565b906000526020600020015490508060088381548110613bb357613bb36142ce565b6000918252602080832090910192909255828152600990915260408082208490558582528120556008805480613beb57613beb614640565b6001900381819060005260206000200160009055905550505050565b6000613c12836112f6565b6001600160a01b039093166000908152600660209081526040808320868452825280832085905593825260079052919091209190915550565b6040518060c0016040528060006001600160a01b0316815260200160008152602001600081526020016000815260200160008152602001600081525090565b6001600160e01b031981168114612f9a57600080fd5b600060208284031215613cb257600080fd5b813561320d81613c8a565b60005b83811015613cd8578181015183820152602001613cc0565b50506000910152565b60008151808452613cf9816020860160208601613cbd565b601f01601f19169290920160200192915050565b60208152600061320d6020830184613ce1565b600060208284031215613d3257600080fd5b5035919050565b6001600160a01b0381168114612f9a57600080fd5b60008060408385031215613d6157600080fd5b8235613d6c81613d39565b946020939093013593505050565b600080600060608486031215613d8f57600080fd5b8335613d9a81613d39565b92506020840135613daa81613d39565b929592945050506040919091013590565b600080600060608486031215613dd057600080fd5b505081359360208301359350604090920135919050565b600060208284031215613df957600080fd5b813561320d81613d39565b80516001600160a01b031682526020808201519083015260408082015190830152606080820151908301526080808201519083015260a090810151910152565b6020808252825182820181905260009190848201906040850190845b81811015613e8657613e73838551613e04565b9284019260c09290920191600101613e60565b50909695505050505050565b60008060408385031215613ea557600080fd5b823591506020830135613eb781613d39565b809150509250929050565b82815260e0810161320d6020830184613e04565b8015158114612f9a57600080fd5b60008060408385031215613ef757600080fd5b8235613f0281613d39565b91506020830135613eb781613ed6565b634e487b7160e01b600052604160045260246000fd5b60405160e0810167ffffffffffffffff81118282101715613f4b57613f4b613f12565b60405290565b604051601f8201601f1916810167ffffffffffffffff81118282101715613f7a57613f7a613f12565b604052919050565b600067ffffffffffffffff821115613f9c57613f9c613f12565b50601f01601f191660200190565b60008060008060808587031215613fc057600080fd5b8435613fcb81613d39565b93506020850135613fdb81613d39565b925060408501359150606085013567ffffffffffffffff811115613ffe57600080fd5b8501601f8101871361400f57600080fd5b803561402261401d82613f82565b613f51565b81815288602083850101111561403757600080fd5b8160208401602083013760006020838301015280935050505092959194509250565b6020808252825182820181905260009190848201906040850190845b81811015613e8657835183529284019291840191600101614075565b6000806000604084860312156140a657600080fd5b83359250602084013567ffffffffffffffff808211156140c557600080fd5b818601915086601f8301126140d957600080fd5b8135818111156140e857600080fd5b8760208285010111156140fa57600080fd5b6020830194508093505050509250925092565b6000806040838503121561412057600080fd5b50508035926020909101359150565b6000806040838503121561414257600080fd5b823561414d81613d39565b91506020830135613eb781613d39565b60c081016106b98284613e04565b6000806000806080858703121561418157600080fd5b5050823594602084013594506040840135936060013592509050565b600181811c908216806141b157607f821691505b6020821081036141d157634e487b7160e01b600052602260045260246000fd5b50919050565b6020808252602d908201527f4552433732313a2063616c6c6572206973206e6f7420746f6b656e206f776e6560408201526c1c881bdc88185c1c1c9bdd9959609a1b606082015260800190565b60006020828403121561423657600080fd5b815161320d81613d39565b805161424c81613d39565b919050565b60006020828403121561426357600080fd5b5051919050565b805161424c81613ed6565b60006020828403121561428757600080fd5b815161320d81613ed6565b634e487b7160e01b600052601160045260246000fd5b818103818111156106b9576106b9614292565b808201808211156106b9576106b9614292565b634e487b7160e01b600052603260045260246000fd5b6000600182016142f6576142f6614292565b5060010190565b6001600160a01b039384168152919092166020820152604081019190915260600190565b600080600080600080600080610100898b03121561433e57600080fd5b885197506020890151965060408901519550606089015161435e81613ed6565b60808a015160a08b015160c08c015160e0909c01519a9d999c50979a91999098919650945092505050565b60006001600160b01b038281166002600160b01b031981016143ad576143ad614292565b6001019392505050565b600082601f8301126143c857600080fd5b81516143d661401d82613f82565b8181528460208386010111156143eb57600080fd5b613082826020830160208701613cbd565b60006020828403121561440e57600080fd5b815167ffffffffffffffff8082111561442657600080fd5b9083019060e0828603121561443a57600080fd5b614442613f28565b61444b83614241565b815261445960208401614241565b602082015261446a60408401614241565b604082015260608301518281111561448157600080fd5b61448d878286016143b7565b6060830152506080830151608082015260a083015160a08201526144b360c0840161426a565b60c082015295945050505050565b600080604083850312156144d457600080fd5b505080516020909101519092909150565b86815285602082015284604082015260c06060820152600061450a60c0830186613ce1565b6001600160a01b0394851660808401529290931660a09091015295945050505050565b60208082526025908201527f4552433732313a207472616e736665722066726f6d20696e636f72726563742060408201526437bbb732b960d91b606082015260800190565b6040815260006145856040830185613ce1565b90508260208301529392505050565b60208082526032908201527f4552433732313a207472616e7366657220746f206e6f6e20455243373231526560408201527131b2b4bb32b91034b6b83632b6b2b73a32b960711b606082015260800190565b6001600160a01b038581168252841660208201526040810183905260806060820181905260009061461990830184613ce1565b9695505050505050565b60006020828403121561463557600080fd5b815161320d81613c8a565b634e487b7160e01b600052603160045260246000fdfea26469706673582212200980e8d4f63595f16f358fa6c206a1730eac6b724b54abbfe59952a5cabdab7664736f6c63430008110033",
    "linkReferences": {}
  },
  "methodIdentifiers": {
    "Data()": "4b6e7d78",
    "addLeveragePool(uint256,address)": "5da6f921",
    "approve(address,uint256)": "095ea7b3",
    "balanceOf(address)": "70a08231",
    "buyBondLevered(uint256,uint256,uint256,uint256)": "f7cf78d7",
    "deletePosition()": "52e59b23",
    "getApproved(uint256)": "081812fc",
    "getMaxLeverage(address)": "808d856b",
    "getPosition(uint256)": "eb02c301",
    "getPosition(uint256,address)": "d29f541d",
    "getPositions(address)": "3eeb530e",
    "getTokenIds(address)": "d004b036",
    "isApprovedForAll(address,address)": "e985e9c5",
    "issuePerpBondLevered(uint256,uint256,uint256)": "d3e612ce",
    "leveragePosition(uint256,address)": "d36287f4",
    "mintLev()": "5560c021",
    "mintWithLeverage(uint256,uint256,uint256)": "794799c0",
    "name()": "06fdde03",
    "ownerOf(uint256)": "6352211e",
    "positions(uint256)": "99fbab88",
    "redeemDeniedLeveredBond(uint256)": "bdce3867",
    "redeemLeveredBond(uint256)": "765cd23a",
    "redeemLeveredPerpLongZCB(uint256,uint256)": "e5edbab4",
    "rewindFull()": "db615985",
    "rewindPartialLeverage(uint256,uint256,uint256)": "34a8ee14",
    "safeTransferFrom(address,address,uint256)": "42842e0e",
    "safeTransferFrom(address,address,uint256,bytes)": "b88d4fde",
    "setApprovalForAll(address,bool)": "a22cb465",
    "setDataStore(address)": "500065d2",
    "supportsInterface(bytes4)": "01ffc9a7",
    "symbol()": "95d89b41",
    "tokenByIndex(uint256)": "4f6ccce7",
    "tokenOfOwnerByIndex(address,uint256)": "2f745c59",
    "tokenURI(uint256)": "c87b56dd",
    "totalSupply()": "18160ddd",
    "tradeCallBack(uint256,bytes)": "da520d3e",
    "transferFrom(address,address,uint256)": "23b872dd",
    "viewPNL()": "f0a85644"
  },
  "id": 18
}