{
  "_format": "hh-sol-artifact-1",
  "contractName": "LeverageModule",
  "sourceName": "contracts/protocol/LeverageModule.sol",
  "abi": [
    {
      "inputs": [
        {
          "internalType": "address",
          "name": "controller_ad",
          "type": "address"
        }
      ],
      "stateMutability": "nonpayable",
      "type": "constructor"
    },
    {
      "anonymous": false,
      "inputs": [
        {
          "indexed": true,
          "internalType": "address",
          "name": "owner",
          "type": "address"
        },
        {
          "indexed": true,
          "internalType": "address",
          "name": "approved",
          "type": "address"
        },
        {
          "indexed": true,
          "internalType": "uint256",
          "name": "tokenId",
          "type": "uint256"
        }
      ],
      "name": "Approval",
      "type": "event"
    },
    {
      "anonymous": false,
      "inputs": [
        {
          "indexed": true,
          "internalType": "address",
          "name": "owner",
          "type": "address"
        },
        {
          "indexed": true,
          "internalType": "address",
          "name": "operator",
          "type": "address"
        },
        {
          "indexed": false,
          "internalType": "bool",
          "name": "approved",
          "type": "bool"
        }
      ],
      "name": "ApprovalForAll",
      "type": "event"
    },
    {
      "anonymous": false,
      "inputs": [
        {
          "indexed": true,
          "internalType": "address",
          "name": "from",
          "type": "address"
        },
        {
          "indexed": true,
          "internalType": "address",
          "name": "to",
          "type": "address"
        },
        {
          "indexed": true,
          "internalType": "uint256",
          "name": "tokenId",
          "type": "uint256"
        }
      ],
      "name": "Transfer",
      "type": "event"
    },
    {
      "inputs": [
        {
          "internalType": "uint256",
          "name": "vaultId",
          "type": "uint256"
        },
        {
          "internalType": "address",
          "name": "pool",
          "type": "address"
        }
      ],
      "name": "addLeveragePool",
      "outputs": [],
      "stateMutability": "nonpayable",
      "type": "function"
    },
    {
      "inputs": [
        {
          "internalType": "address",
          "name": "to",
          "type": "address"
        },
        {
          "internalType": "uint256",
          "name": "tokenId",
          "type": "uint256"
        }
      ],
      "name": "approve",
      "outputs": [],
      "stateMutability": "nonpayable",
      "type": "function"
    },
    {
      "inputs": [
        {
          "internalType": "address",
          "name": "owner",
          "type": "address"
        }
      ],
      "name": "balanceOf",
      "outputs": [
        {
          "internalType": "uint256",
          "name": "",
          "type": "uint256"
        }
      ],
      "stateMutability": "view",
      "type": "function"
    },
    {
      "inputs": [],
      "name": "deletePosition",
      "outputs": [],
      "stateMutability": "nonpayable",
      "type": "function"
    },
    {
      "inputs": [
        {
          "internalType": "uint256",
          "name": "tokenId",
          "type": "uint256"
        }
      ],
      "name": "getApproved",
      "outputs": [
        {
          "internalType": "address",
          "name": "",
          "type": "address"
        }
      ],
      "stateMutability": "view",
      "type": "function"
    },
    {
      "inputs": [
        {
          "internalType": "uint256",
          "name": "tokenId",
          "type": "uint256"
        }
      ],
      "name": "getPosition",
      "outputs": [
        {
          "components": [
            {
              "internalType": "address",
              "name": "vaultAd",
              "type": "address"
            },
            {
              "internalType": "uint256",
              "name": "totalShares",
              "type": "uint256"
            },
            {
              "internalType": "uint256",
              "name": "suppliedCapital",
              "type": "uint256"
            },
            {
              "internalType": "uint256",
              "name": "borrowedCapital",
              "type": "uint256"
            },
            {
              "internalType": "uint256",
              "name": "borrowTimeStamp",
              "type": "uint256"
            },
            {
              "internalType": "uint256",
              "name": "endStateBalance",
              "type": "uint256"
            }
          ],
          "internalType": "struct LeverageModule.Position",
          "name": "position",
          "type": "tuple"
        }
      ],
      "stateMutability": "view",
      "type": "function"
    },
    {
      "inputs": [
        {
          "internalType": "address",
          "name": "_owner",
          "type": "address"
        }
      ],
      "name": "getTokenIds",
      "outputs": [
        {
          "internalType": "uint256[]",
          "name": "",
          "type": "uint256[]"
        }
      ],
      "stateMutability": "view",
      "type": "function"
    },
    {
      "inputs": [
        {
          "internalType": "address",
          "name": "owner",
          "type": "address"
        },
        {
          "internalType": "address",
          "name": "operator",
          "type": "address"
        }
      ],
      "name": "isApprovedForAll",
      "outputs": [
        {
          "internalType": "bool",
          "name": "",
          "type": "bool"
        }
      ],
      "stateMutability": "view",
      "type": "function"
    },
    {
      "inputs": [
        {
          "internalType": "uint256",
          "name": "vaultId",
          "type": "uint256"
        },
        {
          "internalType": "uint256",
          "name": "suppliedCapital",
          "type": "uint256"
        },
        {
          "internalType": "uint256",
          "name": "leverageFactor",
          "type": "uint256"
        }
      ],
      "name": "mintWithLeverage",
      "outputs": [
        {
          "internalType": "uint256",
          "name": "tokenId",
          "type": "uint256"
        },
        {
          "components": [
            {
              "internalType": "address",
              "name": "vaultAd",
              "type": "address"
            },
            {
              "internalType": "uint256",
              "name": "totalShares",
              "type": "uint256"
            },
            {
              "internalType": "uint256",
              "name": "suppliedCapital",
              "type": "uint256"
            },
            {
              "internalType": "uint256",
              "name": "borrowedCapital",
              "type": "uint256"
            },
            {
              "internalType": "uint256",
              "name": "borrowTimeStamp",
              "type": "uint256"
            },
            {
              "internalType": "uint256",
              "name": "endStateBalance",
              "type": "uint256"
            }
          ],
          "internalType": "struct LeverageModule.Position",
          "name": "newPosition",
          "type": "tuple"
        }
      ],
      "stateMutability": "nonpayable",
      "type": "function"
    },
    {
      "inputs": [],
      "name": "name",
      "outputs": [
        {
          "internalType": "string",
          "name": "",
          "type": "string"
        }
      ],
      "stateMutability": "view",
      "type": "function"
    },
    {
      "inputs": [
        {
          "internalType": "uint256",
          "name": "tokenId",
          "type": "uint256"
        }
      ],
      "name": "ownerOf",
      "outputs": [
        {
          "internalType": "address",
          "name": "",
          "type": "address"
        }
      ],
      "stateMutability": "view",
      "type": "function"
    },
    {
      "inputs": [
        {
          "internalType": "uint256",
          "name": "",
          "type": "uint256"
        }
      ],
      "name": "positions",
      "outputs": [
        {
          "internalType": "address",
          "name": "vaultAd",
          "type": "address"
        },
        {
          "internalType": "uint256",
          "name": "totalShares",
          "type": "uint256"
        },
        {
          "internalType": "uint256",
          "name": "suppliedCapital",
          "type": "uint256"
        },
        {
          "internalType": "uint256",
          "name": "borrowedCapital",
          "type": "uint256"
        },
        {
          "internalType": "uint256",
          "name": "borrowTimeStamp",
          "type": "uint256"
        },
        {
          "internalType": "uint256",
          "name": "endStateBalance",
          "type": "uint256"
        }
      ],
      "stateMutability": "view",
      "type": "function"
    },
    {
      "inputs": [],
      "name": "rewindFull",
      "outputs": [],
      "stateMutability": "nonpayable",
      "type": "function"
    },
    {
      "inputs": [
        {
          "internalType": "uint256",
          "name": "vaultId",
          "type": "uint256"
        },
        {
          "internalType": "uint256",
          "name": "tokenId",
          "type": "uint256"
        },
        {
          "internalType": "uint256",
          "name": "withdrawAmount",
          "type": "uint256"
        }
      ],
      "name": "rewindPartialLeverage",
      "outputs": [],
      "stateMutability": "nonpayable",
      "type": "function"
    },
    {
      "inputs": [
        {
          "internalType": "address",
          "name": "from",
          "type": "address"
        },
        {
          "internalType": "address",
          "name": "to",
          "type": "address"
        },
        {
          "internalType": "uint256",
          "name": "tokenId",
          "type": "uint256"
        }
      ],
      "name": "safeTransferFrom",
      "outputs": [],
      "stateMutability": "nonpayable",
      "type": "function"
    },
    {
      "inputs": [
        {
          "internalType": "address",
          "name": "from",
          "type": "address"
        },
        {
          "internalType": "address",
          "name": "to",
          "type": "address"
        },
        {
          "internalType": "uint256",
          "name": "tokenId",
          "type": "uint256"
        },
        {
          "internalType": "bytes",
          "name": "data",
          "type": "bytes"
        }
      ],
      "name": "safeTransferFrom",
      "outputs": [],
      "stateMutability": "nonpayable",
      "type": "function"
    },
    {
      "inputs": [
        {
          "internalType": "address",
          "name": "operator",
          "type": "address"
        },
        {
          "internalType": "bool",
          "name": "approved",
          "type": "bool"
        }
      ],
      "name": "setApprovalForAll",
      "outputs": [],
      "stateMutability": "nonpayable",
      "type": "function"
    },
    {
      "inputs": [
        {
          "internalType": "bytes4",
          "name": "interfaceId",
          "type": "bytes4"
        }
      ],
      "name": "supportsInterface",
      "outputs": [
        {
          "internalType": "bool",
          "name": "",
          "type": "bool"
        }
      ],
      "stateMutability": "view",
      "type": "function"
    },
    {
      "inputs": [],
      "name": "symbol",
      "outputs": [
        {
          "internalType": "string",
          "name": "",
          "type": "string"
        }
      ],
      "stateMutability": "view",
      "type": "function"
    },
    {
      "inputs": [
        {
          "internalType": "uint256",
          "name": "index",
          "type": "uint256"
        }
      ],
      "name": "tokenByIndex",
      "outputs": [
        {
          "internalType": "uint256",
          "name": "",
          "type": "uint256"
        }
      ],
      "stateMutability": "view",
      "type": "function"
    },
    {
      "inputs": [
        {
          "internalType": "address",
          "name": "owner",
          "type": "address"
        },
        {
          "internalType": "uint256",
          "name": "index",
          "type": "uint256"
        }
      ],
      "name": "tokenOfOwnerByIndex",
      "outputs": [
        {
          "internalType": "uint256",
          "name": "",
          "type": "uint256"
        }
      ],
      "stateMutability": "view",
      "type": "function"
    },
    {
      "inputs": [
        {
          "internalType": "uint256",
          "name": "id",
          "type": "uint256"
        }
      ],
      "name": "tokenURI",
      "outputs": [
        {
          "internalType": "string",
          "name": "",
          "type": "string"
        }
      ],
      "stateMutability": "view",
      "type": "function"
    },
    {
      "inputs": [],
      "name": "totalSupply",
      "outputs": [
        {
          "internalType": "uint256",
          "name": "",
          "type": "uint256"
        }
      ],
      "stateMutability": "view",
      "type": "function"
    },
    {
      "inputs": [
        {
          "internalType": "address",
          "name": "from",
          "type": "address"
        },
        {
          "internalType": "address",
          "name": "to",
          "type": "address"
        },
        {
          "internalType": "uint256",
          "name": "tokenId",
          "type": "uint256"
        }
      ],
      "name": "transferFrom",
      "outputs": [],
      "stateMutability": "nonpayable",
      "type": "function"
    },
    {
      "inputs": [],
      "name": "viewPNL",
      "outputs": [],
      "stateMutability": "nonpayable",
      "type": "function"
    }
  ],
  "bytecode": "0x6080604052760100000000000000000000000000000000000000000001600d553480156200002c57600080fd5b5060405162002e2a38038062002e2a8339810160408190526200004f91620000d8565b604051806040016040528060078152602001662920a6a690363b60c91b815250604051806040016040528060068152602001652930b6b6a62b60d11b81525081600090816200009f9190620001af565b506001620000ae8282620001af565b5050600a80546001600160a01b0319166001600160a01b039390931692909217909155506200027b565b600060208284031215620000eb57600080fd5b81516001600160a01b03811681146200010357600080fd5b9392505050565b634e487b7160e01b600052604160045260246000fd5b600181811c908216806200013557607f821691505b6020821081036200015657634e487b7160e01b600052602260045260246000fd5b50919050565b601f821115620001aa57600081815260208120601f850160051c81016020861015620001855750805b601f850160051c820191505b81811015620001a65782815560010162000191565b5050505b505050565b81516001600160401b03811115620001cb57620001cb6200010a565b620001e381620001dc845462000120565b846200015c565b602080601f8311600181146200021b5760008415620002025750858301515b600019600386901b1c1916600185901b178555620001a6565b600085815260208120601f198616915b828110156200024c578886015182559484019460019091019084016200022b565b50858210156200026b5787850151600019600388901b60f8161c191681555b5050505050600190811b01905550565b612b9f806200028b6000396000f3fe608060405234801561001057600080fd5b50600436106101735760003560e01c80636352211e116100de578063b88d4fde11610097578063db61598511610071578063db615985146101f3578063e985e9c5146103cf578063eb02c3011461040b578063f0a85644146101f357600080fd5b8063b88d4fde14610388578063c87b56dd1461039b578063d004b036146103af57600080fd5b80636352211e146102a257806370a08231146102b5578063794799c0146102c857806395d89b41146102e957806399fbab88146102f1578063a22cb4651461037557600080fd5b80632f745c59116101305780632f745c591461021a57806334a8ee141461022d57806342842e0e146102405780634f6ccce71461025357806352e59b23146101f35780635da6f9211461026657600080fd5b806301ffc9a71461017857806306fdde03146101a0578063081812fc146101b5578063095ea7b3146101e057806318160ddd146101f557806323b872dd14610207575b600080fd5b61018b6101863660046124fc565b61042b565b60405190151581526020015b60405180910390f35b6101a8610456565b604051610197919061255f565b6101c86101c3366004612572565b6104e8565b6040516001600160a01b039091168152602001610197565b6101f36101ee3660046125a0565b61050f565b005b6008545b604051908152602001610197565b6101f36102153660046125cc565b610629565b6101f96102283660046125a0565b61065a565b6101f361023b36600461260d565b6106f0565b6101f361024e3660046125cc565b610deb565b6101f9610261366004612572565b610e06565b6101f3610274366004612639565b6000918252600c602052604090912080546001600160a01b0319166001600160a01b03909216919091179055565b6101c86102b0366004612572565b610e99565b6101f96102c3366004612669565b610ef9565b6102db6102d636600461260d565b610f7f565b6040516101979291906126c6565b6101a86115ff565b61033e6102ff366004612572565b600b602052600090815260409020805460018201546002830154600384015460048501546005909501546001600160a01b039094169492939192909186565b604080516001600160a01b0390971687526020870195909552938501929092526060840152608083015260a082015260c001610197565b6101f36103833660046126e8565b61160e565b6101f361039636600461272c565b61161d565b6101a86103a9366004612572565b50606090565b6103c26103bd366004612669565b611655565b604051610197919061280c565b61018b6103dd366004612850565b6001600160a01b03918216600090815260056020908152604080832093909416825291909152205460ff1690565b61041e610419366004612572565b6116f9565b604051610197919061287e565b60006001600160e01b0319821663780e9d6360e01b1480610450575061045082611763565b92915050565b6060600080546104659061288c565b80601f01602080910402602001604051908101604052809291908181526020018280546104919061288c565b80156104de5780601f106104b3576101008083540402835291602001916104de565b820191906000526020600020905b8154815290600101906020018083116104c157829003601f168201915b5050505050905090565b60006104f3826117b3565b506000908152600460205260409020546001600160a01b031690565b600061051a82610e99565b9050806001600160a01b0316836001600160a01b03160361058c5760405162461bcd60e51b815260206004820152602160248201527f4552433732313a20617070726f76616c20746f2063757272656e74206f776e656044820152603960f91b60648201526084015b60405180910390fd5b336001600160a01b03821614806105a857506105a881336103dd565b61061a5760405162461bcd60e51b815260206004820152603d60248201527f4552433732313a20617070726f76652063616c6c6572206973206e6f7420746f60448201527f6b656e206f776e6572206f7220617070726f76656420666f7220616c6c0000006064820152608401610583565b6106248383611815565b505050565b6106333382611883565b61064f5760405162461bcd60e51b8152600401610583906128c6565b610624838383611902565b600061066583610ef9565b82106106c75760405162461bcd60e51b815260206004820152602b60248201527f455243373231456e756d657261626c653a206f776e657220696e646578206f7560448201526a74206f6620626f756e647360a81b6064820152608401610583565b506001600160a01b03919091166000908152600660209081526040808320938352929052205490565b6107226040518060a0016040528060008152602001600081526020016000815260200160008152602001600081525090565b6000838152600b6020908152604091829020825160c08101845281546001600160a01b03168152600182015492810183905260028201549381019390935260038101546060840152600481015460808401526005015460a08301528311156107c35760405162461bcd60e51b81526020600482015260146024820152733630b933b2b9103a3430b7103837b9b4ba34b7b760611b6044820152606401610583565b600a54604051634632752560e11b8152600481018790526000916001600160a01b031690638c64ea4a90602401602060405180830381865afa15801561080d573d6000803e3d6000fd5b505050506040513d601f19601f820116820180604052508101906108319190612913565b90506000816001600160a01b031663c5d664c66040518163ffffffff1660e01b8152600401602060405180830381865afa158015610873573d6000803e3d6000fd5b505050506040513d601f19601f820116820180604052508101906108979190612913565b6000888152600c60205260409081902054905163b3d7f6b960e01b8152600481018890529192506001600160a01b03908116918184169163095ea7b391849187169063b3d7f6b990602401602060405180830381865afa1580156108ff573d6000803e3d6000fd5b505050506040513d601f19601f820116820180604052508101906109239190612930565b6040516001600160e01b031960e085901b1681526001600160a01b03909216600483015260248201526044016020604051808303816000875af115801561096e573d6000803e3d6000fd5b505050506040513d601f19601f820116820180604052508101906109929190612949565b50602085018690525b602085015115610d14576109b78460a001518660200151611a73565b60808601819052604051635d043b2960e11b81526004810191909152306024820181905260448201526001600160a01b0384169063ba087652906064016020604051808303816000875af1158015610a13573d6000803e3d6000fd5b505050506040513d601f19601f82011682018060405250810190610a379190612930565b808652604051631fd0956760e01b815260048101919091523060248201526001600160a01b03821690631fd09567906044016020604051808303816000875af1158015610a88573d6000803e3d6000fd5b505050506040513d601f19601f82011682018060405250810190610aac9190612930565b50604051636e9c33bd60e11b81526001600160a01b0384811660048301526000602483015230604483015282169063dd38677a906064016020604051808303816000875af1158015610b02573d6000803e3d6000fd5b505050506040513d601f19601f82011682018060405250810190610b269190612930565b856040018181525050610b59604051806040016040528060098152602001685f5f5f4e45575f5f5f60b81b815250611a8c565b610b8c6040518060400160405280600d81526020016c1dda5d1a191c985dc81b19599d609a1b8152508660200151611acf565b610bce6040518060400160405280600f81526020016e72656465656d65642073686172657360881b815250610bc98660a001518860200151611a73565b611acf565b610c046040518060400160405280601081526020016f1c995919595b59590bdc995c185e595960821b8152508660000151611acf565b610c31604051806040016040528060078152602001661c995b5bdd995960ca1b8152508660400151611acf565b846080015185602001818151610c47919061297c565b9052508451606086018051610c5d90839061298f565b905250602085015160a08501511015610c7a578460400151610c9d565b846040015185602001518560a00151610c93919061297c565b610c9d919061298f565b60a08501526040805180820190915260128152711d1bdd185b105cdcd95d14995d1d5c9b995960721b60208201526060860151610cda9190611acf565b610d0f6040518060400160405280600f81526020016e656e64537461746542616c616e636560881b8152508560a00151611acf565b61099b565b8584602001818151610d26919061297c565b9052506060808601519085015110610d5657846060015184606001818151610d4e919061297c565b905250610d82565b60006060808601829052860151610d6d919061297c565b84604001818151610d7e919061297c565b9052505b5050506000938452600b6020908152604094859020825181546001600160a01b0319166001600160a01b03909116178155908201516001820155938101516002850155606081015160038501556080810151600485015560a00151600590930192909255505050565b6106248383836040518060200160405280600081525061161d565b6000610e1160085490565b8210610e745760405162461bcd60e51b815260206004820152602c60248201527f455243373231456e756d657261626c653a20676c6f62616c20696e646578206f60448201526b7574206f6620626f756e647360a01b6064820152608401610583565b60088281548110610e8757610e876129a2565b90600052602060002001549050919050565b6000818152600260205260408120546001600160a01b0316806104505760405162461bcd60e51b8152602060048201526018602482015277115490cdcc8c4e881a5b9d985b1a59081d1bdad95b88125160421b6044820152606401610583565b60006001600160a01b038216610f635760405162461bcd60e51b815260206004820152602960248201527f4552433732313a2061646472657373207a65726f206973206e6f7420612076616044820152683634b21037bbb732b960b91b6064820152608401610583565b506001600160a01b031660009081526003602052604090205490565b6000610f896124a7565b610ffa60405180610160016040528060006001600160a01b0316815260200160006001600160a01b0316815260200160008152602001600081526020016000151581526020016000815260200160008152602001600081526020016000815260200160008152602001600081525090565b600a54604051634632752560e11b8152600481018890526001600160a01b0390911690638c64ea4a90602401602060405180830381865afa158015611043573d6000803e3d6000fd5b505050506040513d601f19601f820116820180604052508101906110679190612913565b6001600160a01b0316808252604080516362eb326360e11b815290516000929163c5d664c69160048083019260209291908290030181865afa1580156110b1573d6000803e3d6000fd5b505050506040513d601f19601f820116820180604052508101906110d59190612913565b6040516323b872dd60e01b8152336004820152306024820152604481018890529091506001600160a01b038216906323b872dd906064016020604051808303816000875af115801561112b573d6000803e3d6000fd5b505050506040513d601f19601f8201168201806040525081019061114f9190612949565b5081516001600160a01b0382169063095ea7b39061117f61117889670de0b6b3a764000061298f565b8a90611b14565b6040516001600160e01b031960e085901b1681526001600160a01b03909216600483015260248201526044016020604051808303816000875af11580156111ca573d6000803e3d6000fd5b505050506040513d601f19601f820116820180604052508101906111ee9190612949565b506000878152600c6020908152604091829020546001600160a01b03168482018190528251631d09b9e960e21b815292519092637426e7a49260048083019391928290030181865afa158015611248573d6000803e3d6000fd5b505050506040513d601f19601f8201168201806040525081019061126c9190612930565b61010083018190526000036112b45760405162461bcd60e51b815260206004820152600e60248201526d4e6f7420456e6f756768204c697160901b6044820152606401610583565b602082015182516040516324627b4760e21b81526001600160a01b03918216600482015260006024820152911690639189ed1c90604401608060405180830381865afa158015611308573d6000803e3d6000fd5b505050506040513d601f19601f8201168201806040525081019061132c91906129b8565b5061014085015250508151604051636e553f6560e01b8152600481018890523060248201526001600160a01b0390911690636e553f65906044016020604051808303816000875af1158015611385573d6000803e3d6000fd5b505050506040513d601f19601f820116820180604052508101906113a99190612930565b60a08301526113b88686611b14565b60408301525b8160a001518260c0018181516113d4919061298f565b9052506040805180820190915260098152685f5f5f4e45575f5f5f60b81b602082015261140090611a8c565b611437604051806040016040528060118152602001701d1bdd185b109bdc9c9bddd05b5bdd5b9d607a1b8152508360e00151611acf565b61147060405180604001604052806013815260200172189bdc9c9bddd959105b5bdd5b9d081319599d606a1b8152508360400151611acf565b61148a8783610100015184604001518560a0015186611b29565b8161012001518260e0018181516114a1919061298f565b9052506101208201516040830151106114d357816101200151826040018181516114cb919061297c565b9052506114db565b600060408301525b604082015115806114ed575081608001515b156113be578160a001518260c001818151611508919061298f565b905250600d805461155f9133916001600160b01b031690600061152a836129f9565b91906101000a8154816001600160b01b0302191690836001600160b01b031602179055506001600160b01b0316955085611d75565b506040805160c0808201835283516001600160a01b039081168352908401516020808401918252838501998a5260e086015160608501908152426080860190815260a09788015197860197885260008a8152600b90935295909120845181546001600160a01b0319169416939093178355905160018301559751600282015596516003880155905160048701559051600590950194909455509391925050565b6060600180546104659061288c565b611619338383611f0e565b5050565b6116273383611883565b6116435760405162461bcd60e51b8152600401610583906128c6565b61164f84848484611fdc565b50505050565b6060600061166283610ef9565b67ffffffffffffffff81111561167a5761167a612716565b6040519080825280602002602001820160405280156116a3578160200160208202803683370190505b50905060005b6116b284610ef9565b8110156116f2576116c3848261065a565b8282815181106116d5576116d56129a2565b6020908102919091010152806116ea81612a27565b9150506116a9565b5092915050565b6117016124a7565b506000908152600b6020908152604091829020825160c08101845281546001600160a01b03168152600182015492810192909252600281015492820192909252600382015460608201526004820154608082015260059091015460a082015290565b60006001600160e01b031982166380ac58cd60e01b148061179457506001600160e01b03198216635b5e139f60e01b145b8061045057506301ffc9a760e01b6001600160e01b0319831614610450565b6000818152600260205260409020546001600160a01b03166118125760405162461bcd60e51b8152602060048201526018602482015277115490cdcc8c4e881a5b9d985b1a59081d1bdad95b88125160421b6044820152606401610583565b50565b600081815260046020526040902080546001600160a01b0319166001600160a01b038416908117909155819061184a82610e99565b6001600160a01b03167f8c5be1e5ebec7d5bd14f71427d1e84f3dd0314c0f7b2291e5b200ac8c7c3b92560405160405180910390a45050565b60008061188f83610e99565b9050806001600160a01b0316846001600160a01b031614806118d657506001600160a01b0380821660009081526005602090815260408083209388168352929052205460ff165b806118fa5750836001600160a01b03166118ef846104e8565b6001600160a01b0316145b949350505050565b826001600160a01b031661191582610e99565b6001600160a01b03161461193b5760405162461bcd60e51b815260040161058390612a40565b6001600160a01b03821661199d5760405162461bcd60e51b8152602060048201526024808201527f4552433732313a207472616e7366657220746f20746865207a65726f206164646044820152637265737360e01b6064820152608401610583565b6119aa838383600161200f565b826001600160a01b03166119bd82610e99565b6001600160a01b0316146119e35760405162461bcd60e51b815260040161058390612a40565b600081815260046020908152604080832080546001600160a01b03199081169091556001600160a01b0387811680865260038552838620805460001901905590871680865283862080546001019055868652600290945282852080549092168417909155905184937fddf252ad1be2c89b69c2b068fc378daa952ba7f163c4a11628f55a4df523b3ef91a4505050565b600081831115611a835781611a85565b825b9392505050565b61181281604051602401611aa0919061255f565b60408051601f198184030181529190526020810180516001600160e01b031663104c13eb60e21b17905261214f565b6116198282604051602401611ae5929190612a85565b60408051601f198184030181529190526020810180516001600160e01b03166309710a9d60e41b17905261214f565b6000611a858383670de0b6b3a7640000612170565b6000611b4c84611b4785856101400151611b1490919063ffffffff16565b611a73565b9050611b588186611a73565b6101208301819052811160808301528151602083015160405163095ea7b360e01b81526001600160a01b0391821660048201526024810186905291169063095ea7b3906044016020604051808303816000875af1158015611bbd573d6000803e3d6000fd5b505050506040513d601f19601f82011682018060405250810190611be19190612949565b5060208201516101208301518351604051631c5ef1ab60e01b815260048101929092526001600160a01b039081166024830152600060448301526064820186905230608483015290911690631c5ef1ab9060a4016020604051808303816000875af1158015611c54573d6000803e3d6000fd5b505050506040513d601f19601f82011682018060405250810190611c789190612930565b50611cb0604051806040016040528060158152602001741b995dc818dbdb1b185d195c985b08185b5bdd5b9d605a1b81525084611acf565b611cea604051806040016040528060138152602001721b585e109bdc9c9bddd8589b19505b5bdd5b9d606a1b815250836101200151611acf565b8151610120830151604051636e553f6560e01b815260048101919091523060248201526001600160a01b0390911690636e553f65906044016020604051808303816000875af1158015611d41573d6000803e3d6000fd5b505050506040513d601f19601f82011682018060405250810190611d659190612930565b60a0909201919091525050505050565b6001600160a01b038216611dcb5760405162461bcd60e51b815260206004820181905260248201527f4552433732313a206d696e7420746f20746865207a65726f20616464726573736044820152606401610583565b6000818152600260205260409020546001600160a01b031615611e305760405162461bcd60e51b815260206004820152601c60248201527f4552433732313a20746f6b656e20616c7265616479206d696e746564000000006044820152606401610583565b611e3e60008383600161200f565b6000818152600260205260409020546001600160a01b031615611ea35760405162461bcd60e51b815260206004820152601c60248201527f4552433732313a20746f6b656e20616c7265616479206d696e746564000000006044820152606401610583565b6001600160a01b038216600081815260036020908152604080832080546001019055848352600290915280822080546001600160a01b0319168417905551839291907fddf252ad1be2c89b69c2b068fc378daa952ba7f163c4a11628f55a4df523b3ef908290a45050565b816001600160a01b0316836001600160a01b031603611f6f5760405162461bcd60e51b815260206004820152601960248201527f4552433732313a20617070726f766520746f2063616c6c6572000000000000006044820152606401610583565b6001600160a01b03838116600081815260056020908152604080832094871680845294825291829020805460ff191686151590811790915591519182527f17307eab39ab6107e8899845ad3d59bd9653f200f220920489ca2b5937696c31910160405180910390a3505050565b611fe7848484611902565b611ff38484848461218e565b61164f5760405162461bcd60e51b815260040161058390612aa7565b61201b8484848461228f565b600181111561208a5760405162461bcd60e51b815260206004820152603560248201527f455243373231456e756d657261626c653a20636f6e7365637574697665207472604482015274185b9cd9995c9cc81b9bdd081cdd5c1c1bdc9d1959605a1b6064820152608401610583565b816001600160a01b0385166120e6576120e181600880546000838152600960205260408120829055600182018355919091527ff3f7a9fe364faab93b216da50a3214154f22a0a2b415b23a84c8169e8b636ee30155565b612109565b836001600160a01b0316856001600160a01b031614612109576121098582612317565b6001600160a01b03841661212557612120816123b4565b612148565b846001600160a01b0316846001600160a01b031614612148576121488482612463565b5050505050565b80516a636f6e736f6c652e6c6f67602083016000808483855afa5050505050565b600082600019048411830215820261218757600080fd5b5091020490565b60006001600160a01b0384163b1561228457604051630a85bd0160e11b81526001600160a01b0385169063150b7a02906121d2903390899088908890600401612af9565b6020604051808303816000875af192505050801561220d575060408051601f3d908101601f1916820190925261220a91810190612b36565b60015b61226a573d80801561223b576040519150601f19603f3d011682016040523d82523d6000602084013e612240565b606091505b5080516000036122625760405162461bcd60e51b815260040161058390612aa7565b805181602001fd5b6001600160e01b031916630a85bd0160e11b1490506118fa565b506001949350505050565b600181111561164f576001600160a01b038416156122d5576001600160a01b038416600090815260036020526040812080548392906122cf90849061297c565b90915550505b6001600160a01b0383161561164f576001600160a01b0383166000908152600360205260408120805483929061230c90849061298f565b909155505050505050565b6000600161232484610ef9565b61232e919061297c565b600083815260076020526040902054909150808214612381576001600160a01b03841660009081526006602090815260408083208584528252808320548484528184208190558352600790915290208190555b5060009182526007602090815260408084208490556001600160a01b039094168352600681528383209183525290812055565b6008546000906123c69060019061297c565b600083815260096020526040812054600880549394509092849081106123ee576123ee6129a2565b90600052602060002001549050806008838154811061240f5761240f6129a2565b600091825260208083209091019290925582815260099091526040808220849055858252812055600880548061244757612447612b53565b6001900381819060005260206000200160009055905550505050565b600061246e83610ef9565b6001600160a01b039093166000908152600660209081526040808320868452825280832085905593825260079052919091209190915550565b6040518060c0016040528060006001600160a01b0316815260200160008152602001600081526020016000815260200160008152602001600081525090565b6001600160e01b03198116811461181257600080fd5b60006020828403121561250e57600080fd5b8135611a85816124e6565b6000815180845260005b8181101561253f57602081850181015186830182015201612523565b506000602082860101526020601f19601f83011685010191505092915050565b602081526000611a856020830184612519565b60006020828403121561258457600080fd5b5035919050565b6001600160a01b038116811461181257600080fd5b600080604083850312156125b357600080fd5b82356125be8161258b565b946020939093013593505050565b6000806000606084860312156125e157600080fd5b83356125ec8161258b565b925060208401356125fc8161258b565b929592945050506040919091013590565b60008060006060848603121561262257600080fd5b505081359360208301359350604090920135919050565b6000806040838503121561264c57600080fd5b82359150602083013561265e8161258b565b809150509250929050565b60006020828403121561267b57600080fd5b8135611a858161258b565b80516001600160a01b031682526020808201519083015260408082015190830152606080820151908301526080808201519083015260a090810151910152565b82815260e08101611a856020830184612686565b801515811461181257600080fd5b600080604083850312156126fb57600080fd5b82356127068161258b565b9150602083013561265e816126da565b634e487b7160e01b600052604160045260246000fd5b6000806000806080858703121561274257600080fd5b843561274d8161258b565b9350602085013561275d8161258b565b925060408501359150606085013567ffffffffffffffff8082111561278157600080fd5b818701915087601f83011261279557600080fd5b8135818111156127a7576127a7612716565b604051601f8201601f19908116603f011681019083821181831017156127cf576127cf612716565b816040528281528a60208487010111156127e857600080fd5b82602086016020830137600060208483010152809550505050505092959194509250565b6020808252825182820181905260009190848201906040850190845b8181101561284457835183529284019291840191600101612828565b50909695505050505050565b6000806040838503121561286357600080fd5b823561286e8161258b565b9150602083013561265e8161258b565b60c081016104508284612686565b600181811c908216806128a057607f821691505b6020821081036128c057634e487b7160e01b600052602260045260246000fd5b50919050565b6020808252602d908201527f4552433732313a2063616c6c6572206973206e6f7420746f6b656e206f776e6560408201526c1c881bdc88185c1c1c9bdd9959609a1b606082015260800190565b60006020828403121561292557600080fd5b8151611a858161258b565b60006020828403121561294257600080fd5b5051919050565b60006020828403121561295b57600080fd5b8151611a85816126da565b634e487b7160e01b600052601160045260246000fd5b8181038181111561045057610450612966565b8082018082111561045057610450612966565b634e487b7160e01b600052603260045260246000fd5b600080600080608085870312156129ce57600080fd5b84519350602085015192506040850151915060608501516129ee816126da565b939692955090935050565b60006001600160b01b038281166002600160b01b03198101612a1d57612a1d612966565b6001019392505050565b600060018201612a3957612a39612966565b5060010190565b60208082526025908201527f4552433732313a207472616e736665722066726f6d20696e636f72726563742060408201526437bbb732b960d91b606082015260800190565b604081526000612a986040830185612519565b90508260208301529392505050565b60208082526032908201527f4552433732313a207472616e7366657220746f206e6f6e20455243373231526560408201527131b2b4bb32b91034b6b83632b6b2b73a32b960711b606082015260800190565b6001600160a01b0385811682528416602082015260408101839052608060608201819052600090612b2c90830184612519565b9695505050505050565b600060208284031215612b4857600080fd5b8151611a85816124e6565b634e487b7160e01b600052603160045260246000fdfea2646970667358221220d18eb352106669010cbc1a3a48b3a462704f60d7ccefe8f808cd84c0ae5eb88f64736f6c63430008100033",
  "linkReferences": {},
  "deployedLinkReferences": {}
}