{
  "abi": [
    {
      "inputs": [
        {
          "internalType": "address",
          "name": "_creator_address",
          "type": "address"
        },
        {
          "internalType": "address",
          "name": "_controllerAddress",
          "type": "address"
        },
        {
          "internalType": "address",
          "name": "_vrfCoordinator",
          "type": "address"
        },
        {
          "internalType": "bytes32",
          "name": "_keyHash",
          "type": "bytes32"
        },
        {
          "internalType": "uint64",
          "name": "_subscriptionId",
          "type": "uint64"
        }
      ],
      "stateMutability": "nonpayable",
      "type": "constructor"
    },
    {
      "inputs": [
        {
          "internalType": "uint256",
          "name": "marketId",
          "type": "uint256"
        }
      ],
      "name": "approveMarket",
      "outputs": [],
      "stateMutability": "nonpayable",
      "type": "function"
    },
    {
      "inputs": [
        {
          "internalType": "uint256",
          "name": "",
          "type": "uint256"
        },
        {
          "internalType": "address",
          "name": "",
          "type": "address"
        }
      ],
      "name": "assessment_probs",
      "outputs": [
        {
          "internalType": "uint256",
          "name": "",
          "type": "uint256"
        }
      ],
      "stateMutability": "view",
      "type": "function"
    },
    {
      "inputs": [
        {
          "internalType": "uint256",
          "name": "_marketId",
          "type": "uint256"
        },
        {
          "internalType": "int256",
          "name": "_amountIn",
          "type": "int256"
        },
        {
          "internalType": "uint256",
          "name": "_priceLimit",
          "type": "uint256"
        },
        {
          "internalType": "bytes",
          "name": "_tradeRequestData",
          "type": "bytes"
        }
      ],
      "name": "buyBond",
      "outputs": [
        {
          "internalType": "uint256",
          "name": "amountIn",
          "type": "uint256"
        },
        {
          "internalType": "uint256",
          "name": "amountOut",
          "type": "uint256"
        }
      ],
      "stateMutability": "nonpayable",
      "type": "function"
    },
    {
      "inputs": [
        {
          "internalType": "uint256",
          "name": "_marketId",
          "type": "uint256"
        },
        {
          "internalType": "uint256",
          "name": "_amountIn",
          "type": "uint256"
        },
        {
          "internalType": "uint256",
          "name": "_priceLimit",
          "type": "uint256"
        },
        {
          "internalType": "uint256",
          "name": "_leverage",
          "type": "uint256"
        }
      ],
      "name": "buyBondLevered",
      "outputs": [
        {
          "internalType": "uint256",
          "name": "amountIn",
          "type": "uint256"
        },
        {
          "internalType": "uint256",
          "name": "amountOut",
          "type": "uint256"
        }
      ],
      "stateMutability": "nonpayable",
      "type": "function"
    },
    {
      "inputs": [
        {
          "internalType": "uint256",
          "name": "marketId",
          "type": "uint256"
        },
        {
          "internalType": "uint16",
          "name": "point",
          "type": "uint16"
        },
        {
          "internalType": "uint256",
          "name": "funnel",
          "type": "uint256"
        }
      ],
      "name": "claimFunnel",
      "outputs": [
        {
          "internalType": "uint256",
          "name": "claimedAmount",
          "type": "uint256"
        }
      ],
      "stateMutability": "nonpayable",
      "type": "function"
    },
    {
      "inputs": [
        {
          "internalType": "uint256",
          "name": "_marketId",
          "type": "uint256"
        },
        {
          "internalType": "uint256",
          "name": "_amountIn",
          "type": "uint256"
        },
        {
          "internalType": "uint256",
          "name": "_priceLimit",
          "type": "uint256"
        },
        {
          "internalType": "bytes",
          "name": "_tradeRequestData",
          "type": "bytes"
        }
      ],
      "name": "coverBondShort",
      "outputs": [
        {
          "internalType": "uint256",
          "name": "amountIn",
          "type": "uint256"
        },
        {
          "internalType": "uint256",
          "name": "amountOut",
          "type": "uint256"
        }
      ],
      "stateMutability": "nonpayable",
      "type": "function"
    },
    {
      "inputs": [
        {
          "internalType": "uint256",
          "name": "marketId",
          "type": "uint256"
        },
        {
          "internalType": "bool",
          "name": "atLoss",
          "type": "bool"
        },
        {
          "internalType": "bool",
          "name": "resolve",
          "type": "bool"
        },
        {
          "internalType": "uint256",
          "name": "rp",
          "type": "uint256"
        }
      ],
      "name": "deactivateMarket",
      "outputs": [],
      "stateMutability": "nonpayable",
      "type": "function"
    },
    {
      "inputs": [
        {
          "internalType": "uint256",
          "name": "marketId",
          "type": "uint256"
        }
      ],
      "name": "denyMarket",
      "outputs": [],
      "stateMutability": "nonpayable",
      "type": "function"
    },
    {
      "inputs": [
        {
          "internalType": "uint256",
          "name": "marketId",
          "type": "uint256"
        }
      ],
      "name": "getCurrentMarketPhase",
      "outputs": [
        {
          "internalType": "uint256",
          "name": "",
          "type": "uint256"
        }
      ],
      "stateMutability": "view",
      "type": "function"
    },
    {
      "inputs": [
        {
          "internalType": "uint256",
          "name": "_id",
          "type": "uint256"
        }
      ],
      "name": "getMarket",
      "outputs": [
        {
          "components": [
            {
              "internalType": "contract SyntheticZCBPool",
              "name": "bondPool",
              "type": "address"
            },
            {
              "internalType": "contract ERC20",
              "name": "longZCB",
              "type": "address"
            },
            {
              "internalType": "contract ERC20",
              "name": "shortZCB",
              "type": "address"
            },
            {
              "internalType": "string",
              "name": "description",
              "type": "string"
            },
            {
              "internalType": "uint256",
              "name": "creationTimestamp",
              "type": "uint256"
            },
            {
              "internalType": "uint256",
              "name": "resolutionTimestamp",
              "type": "uint256"
            },
            {
              "internalType": "bool",
              "name": "isPool",
              "type": "bool"
            }
          ],
          "internalType": "struct MarketManager.CoreMarketData",
          "name": "",
          "type": "tuple"
        }
      ],
      "stateMutability": "view",
      "type": "function"
    },
    {
      "inputs": [
        {
          "internalType": "address",
          "name": "manager",
          "type": "address"
        }
      ],
      "name": "getMaxLeverage",
      "outputs": [
        {
          "internalType": "uint256",
          "name": "",
          "type": "uint256"
        }
      ],
      "stateMutability": "view",
      "type": "function"
    },
    {
      "inputs": [
        {
          "internalType": "uint256",
          "name": "marketId",
          "type": "uint256"
        }
      ],
      "name": "getParameters",
      "outputs": [
        {
          "components": [
            {
              "internalType": "uint256",
              "name": "N",
              "type": "uint256"
            },
            {
              "internalType": "uint256",
              "name": "sigma",
              "type": "uint256"
            },
            {
              "internalType": "uint256",
              "name": "alpha",
              "type": "uint256"
            },
            {
              "internalType": "uint256",
              "name": "omega",
              "type": "uint256"
            },
            {
              "internalType": "uint256",
              "name": "delta",
              "type": "uint256"
            },
            {
              "internalType": "uint256",
              "name": "r",
              "type": "uint256"
            },
            {
              "internalType": "uint256",
              "name": "s",
              "type": "uint256"
            },
            {
              "internalType": "uint256",
              "name": "steak",
              "type": "uint256"
            }
          ],
          "internalType": "struct MarketManager.MarketParameters",
          "name": "",
          "type": "tuple"
        }
      ],
      "stateMutability": "view",
      "type": "function"
    },
    {
      "inputs": [
        {
          "internalType": "uint256",
          "name": "marketId",
          "type": "uint256"
        }
      ],
      "name": "getPhaseData",
      "outputs": [
        {
          "components": [
            {
              "internalType": "bool",
              "name": "duringAssessment",
              "type": "bool"
            },
            {
              "internalType": "bool",
              "name": "onlyReputable",
              "type": "bool"
            },
            {
              "internalType": "bool",
              "name": "resolved",
              "type": "bool"
            },
            {
              "internalType": "bool",
              "name": "alive",
              "type": "bool"
            },
            {
              "internalType": "bool",
              "name": "atLoss",
              "type": "bool"
            },
            {
              "internalType": "uint256",
              "name": "base_budget",
              "type": "uint256"
            }
          ],
          "internalType": "struct MarketManager.MarketPhaseData",
          "name": "",
          "type": "tuple"
        }
      ],
      "stateMutability": "view",
      "type": "function"
    },
    {
      "inputs": [
        {
          "internalType": "uint256",
          "name": "marketId",
          "type": "uint256"
        }
      ],
      "name": "getPool",
      "outputs": [
        {
          "internalType": "contract SyntheticZCBPool",
          "name": "",
          "type": "address"
        }
      ],
      "stateMutability": "view",
      "type": "function"
    },
    {
      "inputs": [
        {
          "internalType": "uint256",
          "name": "marketId",
          "type": "uint256"
        }
      ],
      "name": "getShortZCB",
      "outputs": [
        {
          "internalType": "contract ERC20",
          "name": "",
          "type": "address"
        }
      ],
      "stateMutability": "view",
      "type": "function"
    },
    {
      "inputs": [
        {
          "internalType": "uint256",
          "name": "marketId",
          "type": "uint256"
        },
        {
          "internalType": "address",
          "name": "trader",
          "type": "address"
        }
      ],
      "name": "getTraderBudget",
      "outputs": [
        {
          "internalType": "uint256",
          "name": "",
          "type": "uint256"
        }
      ],
      "stateMutability": "view",
      "type": "function"
    },
    {
      "inputs": [
        {
          "internalType": "uint256",
          "name": "marketId",
          "type": "uint256"
        }
      ],
      "name": "getZCB",
      "outputs": [
        {
          "internalType": "contract ERC20",
          "name": "",
          "type": "address"
        }
      ],
      "stateMutability": "view",
      "type": "function"
    },
    {
      "inputs": [
        {
          "internalType": "uint256",
          "name": "marketId",
          "type": "uint256"
        }
      ],
      "name": "isMarketApproved",
      "outputs": [
        {
          "internalType": "bool",
          "name": "",
          "type": "bool"
        }
      ],
      "stateMutability": "view",
      "type": "function"
    },
    {
      "inputs": [
        {
          "internalType": "uint256",
          "name": "_marketId",
          "type": "uint256"
        },
        {
          "internalType": "uint256",
          "name": "_amountIn",
          "type": "uint256"
        }
      ],
      "name": "issuePoolBond",
      "outputs": [
        {
          "internalType": "uint256",
          "name": "issueQTY",
          "type": "uint256"
        }
      ],
      "stateMutability": "nonpayable",
      "type": "function"
    },
    {
      "inputs": [
        {
          "internalType": "uint256",
          "name": "",
          "type": "uint256"
        },
        {
          "internalType": "address",
          "name": "",
          "type": "address"
        }
      ],
      "name": "leveragePosition",
      "outputs": [
        {
          "internalType": "uint128",
          "name": "debt",
          "type": "uint128"
        },
        {
          "internalType": "uint128",
          "name": "amount",
          "type": "uint128"
        }
      ],
      "stateMutability": "view",
      "type": "function"
    },
    {
      "inputs": [
        {
          "internalType": "uint256",
          "name": "",
          "type": "uint256"
        }
      ],
      "name": "loggedCollaterals",
      "outputs": [
        {
          "internalType": "uint256",
          "name": "",
          "type": "uint256"
        }
      ],
      "stateMutability": "view",
      "type": "function"
    },
    {
      "inputs": [
        {
          "internalType": "uint256",
          "name": "",
          "type": "uint256"
        },
        {
          "internalType": "address",
          "name": "",
          "type": "address"
        }
      ],
      "name": "longTrades",
      "outputs": [
        {
          "internalType": "uint256",
          "name": "",
          "type": "uint256"
        }
      ],
      "stateMutability": "view",
      "type": "function"
    },
    {
      "inputs": [],
      "name": "makeEmptyMarketData",
      "outputs": [
        {
          "components": [
            {
              "internalType": "contract SyntheticZCBPool",
              "name": "bondPool",
              "type": "address"
            },
            {
              "internalType": "contract ERC20",
              "name": "longZCB",
              "type": "address"
            },
            {
              "internalType": "contract ERC20",
              "name": "shortZCB",
              "type": "address"
            },
            {
              "internalType": "string",
              "name": "description",
              "type": "string"
            },
            {
              "internalType": "uint256",
              "name": "creationTimestamp",
              "type": "uint256"
            },
            {
              "internalType": "uint256",
              "name": "resolutionTimestamp",
              "type": "uint256"
            },
            {
              "internalType": "bool",
              "name": "isPool",
              "type": "bool"
            }
          ],
          "internalType": "struct MarketManager.CoreMarketData",
          "name": "",
          "type": "tuple"
        }
      ],
      "stateMutability": "pure",
      "type": "function"
    },
    {
      "inputs": [],
      "name": "marketCount",
      "outputs": [
        {
          "internalType": "uint256",
          "name": "",
          "type": "uint256"
        }
      ],
      "stateMutability": "view",
      "type": "function"
    },
    {
      "inputs": [
        {
          "internalType": "uint256",
          "name": "",
          "type": "uint256"
        }
      ],
      "name": "markets",
      "outputs": [
        {
          "internalType": "contract SyntheticZCBPool",
          "name": "bondPool",
          "type": "address"
        },
        {
          "internalType": "contract ERC20",
          "name": "longZCB",
          "type": "address"
        },
        {
          "internalType": "contract ERC20",
          "name": "shortZCB",
          "type": "address"
        },
        {
          "internalType": "string",
          "name": "description",
          "type": "string"
        },
        {
          "internalType": "uint256",
          "name": "creationTimestamp",
          "type": "uint256"
        },
        {
          "internalType": "uint256",
          "name": "resolutionTimestamp",
          "type": "uint256"
        },
        {
          "internalType": "bool",
          "name": "isPool",
          "type": "bool"
        }
      ],
      "stateMutability": "view",
      "type": "function"
    },
    {
      "inputs": [
        {
          "internalType": "uint256",
          "name": "marketId",
          "type": "uint256"
        },
        {
          "internalType": "contract SyntheticZCBPool",
          "name": "bondPool",
          "type": "address"
        },
        {
          "internalType": "address",
          "name": "_longZCB",
          "type": "address"
        },
        {
          "internalType": "address",
          "name": "_shortZCB",
          "type": "address"
        },
        {
          "internalType": "string",
          "name": "_description",
          "type": "string"
        },
        {
          "internalType": "bool",
          "name": "isPool",
          "type": "bool"
        }
      ],
      "name": "newMarket",
      "outputs": [],
      "stateMutability": "nonpayable",
      "type": "function"
    },
    {
      "inputs": [],
      "name": "owner",
      "outputs": [
        {
          "internalType": "address",
          "name": "",
          "type": "address"
        }
      ],
      "stateMutability": "view",
      "type": "function"
    },
    {
      "inputs": [
        {
          "internalType": "uint256",
          "name": "",
          "type": "uint256"
        }
      ],
      "name": "parameters",
      "outputs": [
        {
          "internalType": "uint256",
          "name": "N",
          "type": "uint256"
        },
        {
          "internalType": "uint256",
          "name": "sigma",
          "type": "uint256"
        },
        {
          "internalType": "uint256",
          "name": "alpha",
          "type": "uint256"
        },
        {
          "internalType": "uint256",
          "name": "omega",
          "type": "uint256"
        },
        {
          "internalType": "uint256",
          "name": "delta",
          "type": "uint256"
        },
        {
          "internalType": "uint256",
          "name": "r",
          "type": "uint256"
        },
        {
          "internalType": "uint256",
          "name": "s",
          "type": "uint256"
        },
        {
          "internalType": "uint256",
          "name": "steak",
          "type": "uint256"
        }
      ],
      "stateMutability": "view",
      "type": "function"
    },
    {
      "inputs": [],
      "name": "queuedRepThreshold",
      "outputs": [
        {
          "internalType": "uint8",
          "name": "",
          "type": "uint8"
        }
      ],
      "stateMutability": "view",
      "type": "function"
    },
    {
      "inputs": [
        {
          "internalType": "address",
          "name": "",
          "type": "address"
        }
      ],
      "name": "queuedRepUpdates",
      "outputs": [
        {
          "internalType": "uint8",
          "name": "",
          "type": "uint8"
        }
      ],
      "stateMutability": "view",
      "type": "function"
    },
    {
      "inputs": [
        {
          "internalType": "uint256",
          "name": "marketId",
          "type": "uint256"
        }
      ],
      "name": "redeem",
      "outputs": [
        {
          "internalType": "uint256",
          "name": "collateral_redeem_amount",
          "type": "uint256"
        }
      ],
      "stateMutability": "nonpayable",
      "type": "function"
    },
    {
      "inputs": [
        {
          "internalType": "uint256",
          "name": "marketId",
          "type": "uint256"
        }
      ],
      "name": "redeemDeniedLeveredBond",
      "outputs": [
        {
          "internalType": "uint256",
          "name": "collateral_amount",
          "type": "uint256"
        }
      ],
      "stateMutability": "nonpayable",
      "type": "function"
    },
    {
      "inputs": [
        {
          "internalType": "uint256",
          "name": "marketId",
          "type": "uint256"
        },
        {
          "internalType": "bool",
          "name": "isLong",
          "type": "bool"
        }
      ],
      "name": "redeemDeniedMarket",
      "outputs": [],
      "stateMutability": "nonpayable",
      "type": "function"
    },
    {
      "inputs": [
        {
          "internalType": "uint256",
          "name": "marketId",
          "type": "uint256"
        }
      ],
      "name": "redeemLeveredBond",
      "outputs": [],
      "stateMutability": "nonpayable",
      "type": "function"
    },
    {
      "inputs": [
        {
          "internalType": "uint256",
          "name": "marketId",
          "type": "uint256"
        },
        {
          "internalType": "uint256",
          "name": "redeemAmount",
          "type": "uint256"
        }
      ],
      "name": "redeemPoolLongZCB",
      "outputs": [
        {
          "internalType": "uint256",
          "name": "collateral_redeem_amount",
          "type": "uint256"
        },
        {
          "internalType": "uint256",
          "name": "seniorAmount",
          "type": "uint256"
        }
      ],
      "stateMutability": "nonpayable",
      "type": "function"
    },
    {
      "inputs": [
        {
          "internalType": "uint256",
          "name": "marketId",
          "type": "uint256"
        }
      ],
      "name": "redeemShortZCB",
      "outputs": [
        {
          "internalType": "uint256",
          "name": "collateral_redeem_amount",
          "type": "uint256"
        }
      ],
      "stateMutability": "nonpayable",
      "type": "function"
    },
    {
      "inputs": [
        {
          "internalType": "uint256",
          "name": "",
          "type": "uint256"
        }
      ],
      "name": "redemption_prices",
      "outputs": [
        {
          "internalType": "uint256",
          "name": "",
          "type": "uint256"
        }
      ],
      "stateMutability": "view",
      "type": "function"
    },
    {
      "inputs": [
        {
          "internalType": "uint256",
          "name": "",
          "type": "uint256"
        }
      ],
      "name": "restriction_data",
      "outputs": [
        {
          "internalType": "bool",
          "name": "duringAssessment",
          "type": "bool"
        },
        {
          "internalType": "bool",
          "name": "onlyReputable",
          "type": "bool"
        },
        {
          "internalType": "bool",
          "name": "resolved",
          "type": "bool"
        },
        {
          "internalType": "bool",
          "name": "alive",
          "type": "bool"
        },
        {
          "internalType": "bool",
          "name": "atLoss",
          "type": "bool"
        },
        {
          "internalType": "uint256",
          "name": "base_budget",
          "type": "uint256"
        }
      ],
      "stateMutability": "view",
      "type": "function"
    },
    {
      "inputs": [
        {
          "internalType": "uint256",
          "name": "_marketId",
          "type": "uint256"
        },
        {
          "internalType": "uint256",
          "name": "_amountIn",
          "type": "uint256"
        },
        {
          "internalType": "uint256",
          "name": "_priceLimit",
          "type": "uint256"
        },
        {
          "internalType": "bytes",
          "name": "_tradeRequestData",
          "type": "bytes"
        }
      ],
      "name": "sellBond",
      "outputs": [
        {
          "internalType": "uint256",
          "name": "amountIn",
          "type": "uint256"
        },
        {
          "internalType": "uint256",
          "name": "amountOut",
          "type": "uint256"
        }
      ],
      "stateMutability": "nonpayable",
      "type": "function"
    },
    {
      "inputs": [
        {
          "internalType": "uint256",
          "name": "marketId",
          "type": "uint256"
        },
        {
          "internalType": "bool",
          "name": "duringAssessment",
          "type": "bool"
        },
        {
          "internalType": "bool",
          "name": "_onlyReputable",
          "type": "bool"
        },
        {
          "internalType": "uint256",
          "name": "base_budget",
          "type": "uint256"
        }
      ],
      "name": "setMarketPhase",
      "outputs": [],
      "stateMutability": "nonpayable",
      "type": "function"
    },
    {
      "inputs": [
        {
          "internalType": "uint256",
          "name": "marketId",
          "type": "uint256"
        },
        {
          "internalType": "uint256",
          "name": "_N",
          "type": "uint256"
        }
      ],
      "name": "setN",
      "outputs": [],
      "stateMutability": "nonpayable",
      "type": "function"
    },
    {
      "inputs": [
        {
          "components": [
            {
              "internalType": "uint256",
              "name": "N",
              "type": "uint256"
            },
            {
              "internalType": "uint256",
              "name": "sigma",
              "type": "uint256"
            },
            {
              "internalType": "uint256",
              "name": "alpha",
              "type": "uint256"
            },
            {
              "internalType": "uint256",
              "name": "omega",
              "type": "uint256"
            },
            {
              "internalType": "uint256",
              "name": "delta",
              "type": "uint256"
            },
            {
              "internalType": "uint256",
              "name": "r",
              "type": "uint256"
            },
            {
              "internalType": "uint256",
              "name": "s",
              "type": "uint256"
            },
            {
              "internalType": "uint256",
              "name": "steak",
              "type": "uint256"
            }
          ],
          "internalType": "struct MarketManager.MarketParameters",
          "name": "param",
          "type": "tuple"
        },
        {
          "internalType": "uint256",
          "name": "utilizationRate",
          "type": "uint256"
        },
        {
          "internalType": "uint256",
          "name": "marketId",
          "type": "uint256"
        }
      ],
      "name": "setParameters",
      "outputs": [],
      "stateMutability": "nonpayable",
      "type": "function"
    },
    {
      "inputs": [
        {
          "internalType": "uint256",
          "name": "marketId",
          "type": "uint256"
        },
        {
          "internalType": "bool",
          "name": "_onlyReputable",
          "type": "bool"
        }
      ],
      "name": "setReputationPhase",
      "outputs": [],
      "stateMutability": "nonpayable",
      "type": "function"
    },
    {
      "inputs": [
        {
          "internalType": "uint256",
          "name": "_marketId",
          "type": "uint256"
        },
        {
          "internalType": "uint256",
          "name": "_amountIn",
          "type": "uint256"
        },
        {
          "internalType": "uint256",
          "name": "_priceLimit",
          "type": "uint256"
        },
        {
          "internalType": "bytes",
          "name": "_tradeRequestData",
          "type": "bytes"
        }
      ],
      "name": "shortBond",
      "outputs": [
        {
          "internalType": "uint256",
          "name": "amountIn",
          "type": "uint256"
        },
        {
          "internalType": "uint256",
          "name": "amountOut",
          "type": "uint256"
        }
      ],
      "stateMutability": "nonpayable",
      "type": "function"
    },
    {
      "inputs": [
        {
          "internalType": "uint256",
          "name": "",
          "type": "uint256"
        },
        {
          "internalType": "address",
          "name": "",
          "type": "address"
        }
      ],
      "name": "shortTrades",
      "outputs": [
        {
          "internalType": "uint256",
          "name": "",
          "type": "uint256"
        }
      ],
      "stateMutability": "view",
      "type": "function"
    },
    {
      "inputs": [
        {
          "internalType": "uint256",
          "name": "amount",
          "type": "uint256"
        },
        {
          "internalType": "bytes",
          "name": "data",
          "type": "bytes"
        }
      ],
      "name": "tradeCallBack",
      "outputs": [],
      "stateMutability": "nonpayable",
      "type": "function"
    },
    {
      "inputs": [
        {
          "internalType": "uint256",
          "name": "marketId",
          "type": "uint256"
        },
        {
          "internalType": "uint256",
          "name": "collateral_required",
          "type": "uint256"
        },
        {
          "internalType": "uint256",
          "name": "zcb_for_sale",
          "type": "uint256"
        },
        {
          "internalType": "address",
          "name": "validator",
          "type": "address"
        }
      ],
      "name": "validatorApprove",
      "outputs": [],
      "stateMutability": "nonpayable",
      "type": "function"
    }
  ],
  "bytecode": {
    "object": "0x60806040523480156200001157600080fd5b506040516200630c3803806200630c8339810160408190526200003491620001e5565b60008054610100600160a81b0319166101006001600160a01b038716021790556001620000fc6040805160e0810182526000808252602082018190529181018290526060808201526080810182905260a0810182905260c08101919091526040518060e0016040528060006001600160a01b0316815260200160006001600160a01b0316815260200160006001600160a01b03168152602001604051806020016040528060008152508152602001600081526020016000815260200160001515815250905090565b8154600180820184556000938452602093849020835160079093020180546001600160a01b03199081166001600160a01b0394851617825594840151918101805486169284169290921790915560408301516002820180549095169216919091179092556060810151909190600382019062000179908262000301565b506080820151600482015560a0820151600582015560c0909101516006909101805491151560ff199092169190911790555050600280546001600160a01b0319163317905550620003cd915050565b80516001600160a01b0381168114620001e057600080fd5b919050565b600080600080600060a08688031215620001fe57600080fd5b6200020986620001c8565b94506200021960208701620001c8565b93506200022960408701620001c8565b6060870151608088015191945092506001600160401b03811681146200024e57600080fd5b809150509295509295909350565b634e487b7160e01b600052604160045260246000fd5b600181811c908216806200028757607f821691505b602082108103620002a857634e487b7160e01b600052602260045260246000fd5b50919050565b601f821115620002fc57600081815260208120601f850160051c81016020861015620002d75750805b601f850160051c820191505b81811015620002f857828155600101620002e3565b5050505b505050565b81516001600160401b038111156200031d576200031d6200025c565b62000335816200032e845462000272565b84620002ae565b602080601f8311600181146200036d5760008415620003545750858301515b600019600386901b1c1916600185901b178555620002f8565b600085815260208120601f198616915b828110156200039e578886015182559484019460019091019084016200037d565b5085821015620003bd5787850151600019600388901b60f8161c191681555b5050505050600190811b01905550565b615f2f80620003dd6000396000f3fe608060405234801561001057600080fd5b50600436106102955760003560e01c8063808d856b11610167578063b900a0ed116100ce578063da520d3e11610087578063da520d3e1461091a578063db006a751461092d578063eb44fdd314610940578063ec97908214610953578063f162796a1461095b578063f7cf78d71461096e57600080fd5b8063b900a0ed146107eb578063bdce38671461080e578063c6ceb96b14610821578063cabe2ae114610895578063d36287f4146108a8578063d57259531461090757600080fd5b8063920f4e5511610120578063920f4e551461073e57806397dcec16146107515780639ec3341614610764578063a1070adc14610787578063a72be9a1146107b2578063b1283e77146107c557600080fd5b8063808d856b1461063c578063839ee8f61461064f578063897ca1741461066457806389e304ac1461068f5780638a6cac3d146106a25780638da5cb5b1461072b57600080fd5b80634e042a591161020b578063669623a6116101c4578063669623a6146105bd57806371bd6a09146105d0578063727b887f146105e357806373124349146105f6578063765cd23a146106095780637c9bc5ce1461061c57600080fd5b80634e042a591461053e57806351ba652214610551578063555f8d2d1461056457806361fa5af51461057757806363f960d81461058a578063661f1cf51461059d57600080fd5b80632a4a9dd11161025d5780632a4a9dd1146103535780633db969f4146103df57806341741c06146103f257806346b6a3871461040c5780634cb440871461041f5780634cba8cde1461043257600080fd5b806303cc40eb1461029a578063068bcd8d146102c7578063153542cc146102f2578063203b243414610305578063214b39871461031a575b600080fd5b6102ad6102a83660046152f3565b610981565b604080519283526020830191909152015b60405180910390f35b6102da6102d5366004615354565b610c05565b6040516001600160a01b0390911681526020016102be565b6102da610300366004615354565b610c3a565b610318610313366004615393565b610c72565b005b61034561032836600461542c565b600a60209081526000928352604080842090915290825290205481565b6040519081526020016102be565b6103a4610361366004615354565b6008602052600090815260409020805460018201546002830154600384015460048501546005860154600687015460079097015495969495939492939192909188565b604080519889526020890197909752958701949094526060860192909252608085015260a084015260c083015260e0820152610100016102be565b6102ad6103ed3660046152f3565b610e20565b6103fa600381565b60405160ff90911681526020016102be565b6102ad61041a3660046152f3565b610f7d565b61031861042d366004615354565b61126e565b6104e8610440366004615354565b6040805160c081018252600080825260208201819052918101829052606081018290526080810182905260a081019190915250600090815260076020908152604091829020825160c081018452815460ff8082161515835261010082048116151594830194909452620100008104841615159482019490945263010000008404831615156060820152640100000000909304909116151560808301526001015460a082015290565b6040516102be9190600060c08201905082511515825260208301511515602083015260408301511515604083015260608301511515606083015260808301511515608083015260a083015160a083015292915050565b61031861054c3660046154c0565b611328565b6102ad61055f3660046152f3565b611408565b610318610572366004615555565b611a66565b610318610585366004615577565b611ac6565b6103186105983660046155bf565b611b6a565b6103456105ab366004615354565b600c6020526000908152604090205481565b6103186105cb3660046155e4565b6120f6565b6102ad6105de366004615555565b6122a9565b6103456105f1366004615354565b61271d565b610345610604366004615555565b612a1d565b610318610617366004615354565b612fa0565b61034561062a366004615354565b60036020526000908152604090205481565b61034561064a366004615625565b613474565b61065761350c565b6040516102be9190615692565b61034561067236600461542c565b600b60209081526000928352604080842090915290825290205481565b61031861069d3660046155bf565b6135ae565b6106f46106b0366004615354565b6007602052600090815260409020805460019091015460ff808316926101008104821692620100008204831692630100000083048116926401000000009004169086565b60408051961515875294151560208701529215159385019390935215156060840152901515608083015260a082015260c0016102be565b6002546102da906001600160a01b031681565b6102da61074c366004615354565b613623565b61034561075f366004615354565b61365b565b610777610772366004615354565b6138ae565b60405190151581526020016102be565b61034561079536600461542c565b600660209081526000928352604080842090915290825290205481565b6103456107c0366004615719565b6138e5565b6107d86107d3366004615354565b613907565b6040516102be979695949392919061574e565b6103fa6107f9366004615625565b600d6020526000908152604090205460ff1681565b61034561081c366004615354565b6139f3565b61083461082f366004615354565b613d18565b6040516102be9190600061010082019050825182526020830151602083015260408301516040830152606083015160608301526080830151608083015260a083015160a083015260c083015160c083015260e083015160e083015292915050565b6103186108a3366004615354565b613dce565b6108e76108b636600461542c565b600e6020908152600092835260408084209091529082529020546001600160801b0380821691600160801b90041682565b604080516001600160801b039384168152929091166020830152016102be565b61034561091536600461542c565b613e34565b6103186109283660046157a3565b613ef5565b61034561093b366004615354565b613fda565b61065761094e366004615354565b6144bb565b600154610345565b610318610969366004615577565b614621565b6102ad61097c3660046157ef565b6146b6565b60008054819060ff16156109b05760405162461bcd60e51b81526004016109a790615821565b60405180910390fd5b6000805460ff1916600190811782558054899081106109d1576109d1615846565b60009182526020808320600792830201548b84529190526040909120546001600160a01b03909116915060ff1615610ab4576001600160a01b03811663556769ba6000610a1d8a615872565b604080513360208201528b91015b6040516020818303038152906040526040518563ffffffff1660e01b8152600401610a59949392919061588e565b60408051808303816000875af1158015610a77573d6000803e3d6000fd5b505050506040513d601f19601f82011682018060405250810190610a9b91906158bf565b93509150610aaf8833848660016000614d28565b610bee565b600080610ac3868801886158e3565b915091508015610b6e576001600160a01b03831663556769ba6000610ae78c615872565b604080513360208201528d91015b6040516020818303038152906040526040518563ffffffff1660e01b8152600401610b23949392919061588e565b60408051808303816000875af1158015610b41573d6000803e3d6000fd5b505050506040513d601f19601f82011682018060405250810190610b6591906158bf565b95509350610beb565b600080846001600160a01b031663e7ca189a858d6000336040518563ffffffff1660e01b8152600401610ba4949392919061590f565b60408051808303816000875af1158015610bc2573d6000803e3d6000fd5b505050506040513d601f19601f82011682018060405250810190610be6919061593b565b505050505b50505b506000805460ff1916905590969095509350505050565b600060018281548110610c1a57610c1a615846565b60009182526020909120600790910201546001600160a01b031692915050565b600060018281548110610c4f57610c4f615846565b60009182526020909120600160079092020101546001600160a01b031692915050565b60005461010090046001600160a01b0316331480610c9a57506002546001600160a01b031633145b80610ca457503330145b610cc05760405162461bcd60e51b81526004016109a79061596c565b600042905060016040518060e00160405280896001600160a01b03168152602001886001600160a01b03168152602001876001600160a01b0316815260200186868080601f01602080910402602001604051908101604052809392919081815260200183838082843760009201829052509385525050506020808301869052604080840183905287151560609485015285546001818101885596845292829020855160079094020180546001600160a01b039485166001600160a01b0319918216178255928601519681018054978516978416979097179096558401516002860180549190931691161790558101519091906003820190610dc19082615a11565b506080820151600482015560a0820151600582015560c0909101516006909101805460ff19169115159190911790556000610e06670de0b6b3a76400006103e8615ad1565b9050610e158960018084614621565b505050505050505050565b60008054819060ff1615610e465760405162461bcd60e51b81526004016109a790615821565b6000805460ff19166001179055610e5e338789614ed2565b610e975760405162461bcd60e51b815260206004820152600a60248201526914995cdd1c9a58dd195960b21b60448201526064016109a7565b600060018881548110610eac57610eac615846565b60009182526020808320600792830201548b84529190526040909120546001600160a01b03909116915060ff1615610f0657604080513360208201526001600160a01b0383169163244d59cb916000918b918b9101610a2b565b600080610f15868801886158e3565b915091508015610f4757604080513360208201526001600160a01b0385169163244d59cb916000918d918d9101610af5565b600080846001600160a01b03166368087cc3858d6000336040518563ffffffff1660e01b8152600401610ba4949392919061590f565b60008054819060ff1615610fa35760405162461bcd60e51b81526004016109a790615821565b6000805460ff191660011781558781526007602052604090205462010000900460ff1615610fe35760405162461bcd60e51b81526004016109a790615ae8565b610fee338789614ed2565b6110275760405162461bcd60e51b815260206004820152600a60248201526914995cdd1c9a58dd195960b21b60448201526064016109a7565b60006001888154811061103c5761103c615846565b60009182526020808320600792830201548b84529190526040909120546001600160a01b03909116915060ff16156111135760408051336020808301919091528251808303909101815281830192839052632ab3b4dd60e11b9092526001600160a01b0383169163556769ba916110bc916001918c918c9160440161588e565b60408051808303816000875af11580156110da573d6000803e3d6000fd5b505050506040513d601f19601f820116820180604052508101906110fe91906158bf565b9093509150610aaf8833856000806001614d28565b6000546040516308a8333f60e01b8152600481018a90526101009091046001600160a01b0316906308a8333f90602401602060405180830381865afa158015611160573d6000803e3d6000fd5b505050506040513d601f19601f820116820180604052508101906111849190615b0b565b50600080611194868801886158e3565b9150915080156112385760408051336020808301919091528251808303909101815281830192839052632ab3b4dd60e11b9092526001600160a01b0385169163556769ba916111ec916001918e918e9160440161588e565b60408051808303816000875af115801561120a573d6000803e3d6000fd5b505050506040513d601f19601f8201168201806040525081019061122e91906158bf565b9095509350610beb565b600080846001600160a01b031663e7ca189a858d6001336040518563ffffffff1660e01b8152600401610ba4949392919061590f565b60005461010090046001600160a01b031633148061129657506002546001600160a01b031633145b806112a057503330145b6112bc5760405162461bcd60e51b81526004016109a79061596c565b60008181526007602052604090205460ff166113085760405162461bcd60e51b815260206004820152600b60248201526a08585cdcd95cdcdb595b9d60aa1b60448201526064016109a7565b6000908152600760205260409020805463ffff0000191662010000179055565b60005461010090046001600160a01b031633148061135057506002546001600160a01b031633145b8061135a57503330145b6113765760405162461bcd60e51b81526004016109a79061596c565b60008181526008602090815260409182902085518155908501516001820155908401516002820155606084015160038201556080840151600482015560a0840151600582015560c0840151600682015560e08401516007909101556113f16113e683670de0b6b3a7640000615b24565b60c085015190614f17565b600091825260086020526040909120600601555050565b60008054819060ff161561142e5760405162461bcd60e51b81526004016109a790615821565b6000805460ff191660011781558781526007602052604090205462010000900460ff161561146e5760405162461bcd60e51b81526004016109a790615ae8565b611479338789614f33565b60006001888154811061148e5761148e615846565b60009182526020918290206040805160e081018252600790930290910180546001600160a01b03908116845260018201548116948401949094526002810154909316908201526003820180549192916060840191906114ec90615991565b80601f016020809104026020016040519081016040528092919081815260200182805461151890615991565b80156115655780601f1061153a57610100808354040283529160200191611565565b820191906000526020600020905b81548152906001019060200180831161154857829003601f168201915b50505091835250506004820154602080830191909152600583015460408084019190915260069093015460ff9081161515606090930192909252835160008d81526007909252929020549293509091161561191b576040805133602080830191909152825180830390910181528183019283905263244d59cb60e01b9092526001600160a01b0383169163244d59cb91611608916001918d918d9160440161588e565b60408051808303816000875af1158015611626573d6000803e3d6000fd5b505050506040513d601f19601f8201168201806040525081019061164a91906158bf565b909450925061165f8933866000600180614d28565b600080548a8252600e60209081526040808420338552909152909120546101009091046001600160a01b03169063dda10bca90600160801b90046001600160801b03166116ab8c610c3a565b6040516370a0823160e01b81523360048201526001600160a01b0391909116906370a0823190602401602060405180830381865afa1580156116f1573d6000803e3d6000fd5b505050506040513d601f19601f820116820180604052508101906117159190615b0b565b61171f9190615b37565b60008c8152600a602090815260408083203380855292529091205490611746908e90613e34565b6040516001600160e01b031960e086901b168152600481019390935260248301919091526044820152606401602060405180830381865afa15801561178f573d6000803e3d6000fd5b505050506040513d601f19601f820116820180604052508101906117b39190615b0b565b60008a81526006602090815260408083203384528252808320939093558b8252600790522054610100900460ff1615611916576000898152600c60205260408082205491549051632500ed8d60e21b8152600481018c90526118f69161010090046001600160a01b031690639403b63490602401602060405180830381865afa158015611844573d6000803e3d6000fd5b505050506040513d601f19601f820116820180604052508101906118689190615b4a565b6001600160a01b0316639ec4d40e8c6040518263ffffffff1660e01b815260040161189591815260200190565b600060405180830381865afa1580156118b2573d6000803e3d6000fd5b505050506040513d6000823e601f3d908101601f191682016040526118da9190810190615c8e565b60c0015160008c81526008602052604090206003015490614f17565b81106119145760008a8152600760205260409020805461ff00191690555b505b611a4e565b60008061192a878901896158e3565b9150915080156119ce576040805133602080830191909152825180830390910181528183019283905263244d59cb60e01b9092526001600160a01b0385169163244d59cb91611982916001918f918f9160440161588e565b60408051808303816000875af11580156119a0573d6000803e3d6000fd5b505050506040513d601f19601f820116820180604052508101906119c491906158bf565b9096509450611a4b565b600080846001600160a01b03166368087cc3858e6001336040518563ffffffff1660e01b8152600401611a04949392919061590f565b60408051808303816000875af1158015611a22573d6000803e3d6000fd5b505050506040513d601f19601f82011682018060405250810190611a46919061593b565b505050505b50505b50506000805460ff1916905590969095509350505050565b60005461010090046001600160a01b0316331480611a8e57506002546001600160a01b031633145b80611a9857503330145b611ab45760405162461bcd60e51b81526004016109a79061596c565b60009182526008602052604090912055565b60005461010090046001600160a01b0316331480611aee57506002546001600160a01b031633145b80611af857503330145b611b145760405162461bcd60e51b81526004016109a79061596c565b6000938452600760209081526040808620805463ff000000199615156401000000000264ff000000001996151562010000029690961664ff00ff0000199091161794909417949094169092556003909152912055565b60005460ff1615611b8d5760405162461bcd60e51b81526004016109a790615821565b6000805460ff19166001178155828152600760205260409020546301000000900460ff1615611bfe5760405162461bcd60e51b815260206004820152601e60248201527f4d61726b6574205374696c6c20447572696e67204173736573736d656e74000060448201526064016109a7565b60008281526007602052604090205460ff16611c5c5760405162461bcd60e51b815260206004820152601860248201527f4d61726b657420686173206265656e20617070726f766564000000000000000060448201526064016109a7565b600060018381548110611c7157611c71615846565b600091825260208220600790910201546001600160a01b031691508083611dab5760018581548110611ca557611ca5615846565b60009182526020909120600790910201600201546040516370a0823160e01b81523360048201526001600160a01b03909116906370a0823190602401602060405180830381865afa158015611cfe573d6000803e3d6000fd5b505050506040513d601f19601f82011682018060405250810190611d229190615b0b565b90506000858152600b60209081526040808320338085529252808320805490849055905163c93ac3ed60e01b81529094506001600160a01b0386169263c93ac3ed92611d749290918691600401615db4565b600060405180830381600087803b158015611d8e57600080fd5b505af1158015611da2573d6000803e3d6000fd5b5050505061207b565b60018581548110611dbe57611dbe615846565b60009182526020909120600790910201600101546040516370a0823160e01b81523360048201526001600160a01b03909116906370a0823190602401602060405180830381865afa158015611e17573d6000803e3d6000fd5b505050506040513d601f19601f82011682018060405250810190611e3b9190615b0b565b90506000546040516323f2a73f60e01b8152600481018790523360248201526101009091046001600160a01b0316906323f2a73f90604401602060405180830381865afa158015611e90573d6000803e3d6000fd5b505050506040513d601f19601f82011682018060405250810190611eb49190615dd7565b8015611f32575060005460405163046b1ab560e31b8152600481018790523360248201526101009091046001600160a01b031690632358d5a890604401602060405180830381865afa158015611f0e573d6000803e3d6000fd5b505050506040513d601f19601f82011682018060405250810190611f329190615dd7565b15611fb757600054604051634187150160e11b8152600481018790523360248201526101009091046001600160a01b03169063830e2a02906044016020604051808303816000875af1158015611f8c573d6000803e3d6000fd5b505050506040513d601f19601f82011682018060405250810190611fb09190615b0b565b9150611fd8565b6000858152600a602090815260408083203384529091528120805491905591505b60405163c93ac3ed60e01b81526001600160a01b0384169063c93ac3ed906120099033908590600190600401615db4565b600060405180830381600087803b15801561202357600080fd5b505af1158015612037573d6000803e3d6000fd5b5050336000908152600d602052604090205460ff1615915061207b905057336000908152600d60205260409020805460ff19811660ff918216600019019091161790555b600054604051631e1fa3a760e31b81526101009091046001600160a01b03169063f0fd1d38906120b390859033908a90600401615df4565b600060405180830381600087803b1580156120cd57600080fd5b505af11580156120e1573d6000803e3d6000fd5b50506000805460ff1916905550505050505050565b60005461010090046001600160a01b031633148061211e57506002546001600160a01b031633145b8061212857503330145b6121445760405162461bcd60e51b81526004016109a79061596c565b6000848152600c602052604081208054859290612162908490615b37565b909155506000905061217385610c05565b9050806001600160a01b03166390f817026040518163ffffffff1660e01b8152600401602060405180830381865afa1580156121b3573d6000803e3d6000fd5b505050506040513d601f19601f820116820180604052508101906121d79190615b4a565b6001600160a01b03166323b872dd8383876040518463ffffffff1660e01b815260040161220693929190615e13565b6020604051808303816000875af1158015612225573d6000803e3d6000fd5b505050506040513d601f19601f820116820180604052508101906122499190615dd7565b5060405163681504cd60e01b81526001600160a01b0383811660048301526024820185905282169063681504cd906044015b600060405180830381600087803b15801561229557600080fd5b505af1158015610e15573d6000803e3d6000fd5b60008054819060ff16156122cf5760405162461bcd60e51b81526004016109a790615821565b60008054600160ff1990911617808255604051632500ed8d60e21b8152600481018790526101009091046001600160a01b031690639403b63490602401602060405180830381865afa158015612329573d6000803e3d6000fd5b505050506040513d601f19601f8201168201806040525081019061234d9190615b4a565b905060006001868154811061236457612364615846565b60009182526020918290206040805160e081018252600790930290910180546001600160a01b03908116845260018201548116948401949094526002810154909316908201526003820180549192916060840191906123c290615991565b80601f01602080910402602001604051908101604052809291908181526020018280546123ee90615991565b801561243b5780601f106124105761010080835404028352916020019161243b565b820191906000526020600020905b81548152906001019060200180831161241e57829003601f168201915b5050509183525050600482015460208201526005820154604082015260069091015460ff16151560609091015260c08101519091506124a45760405162461bcd60e51b8152602060048201526005602482015264085c1bdbdb60da1b60448201526064016109a7565b60208101516040516370a0823160e01b815233600482015286916001600160a01b0316906370a0823190602401602060405180830381865afa1580156124ee573d6000803e3d6000fd5b505050506040513d601f19601f820116820180604052508101906125129190615b0b565b116125525760405162461bcd60e51b815260206004820152601060248201526f1a5b9cdd59999a58da595b9d0818985b60821b60448201526064016109a7565b6000806000846001600160a01b031663ca13e4508a6040518263ffffffff1660e01b815260040161258591815260200190565b606060405180830381865afa1580156125a2573d6000803e3d6000fd5b505050506040513d601f19601f820116820180604052508101906125c69190615e37565b919450925090506125d78289614f17565b96506125ed836125e78a84614f17565b90614f17565b6040516372661f3b60e11b8152600481018b905260248101899052336044820152606481018290529096506001600160a01b0386169063e4cc3e7690608401600060405180830381600087803b15801561264657600080fd5b505af115801561265a573d6000803e3d6000fd5b5050336000908152600d602052604090205460ff1615915061269e905057336000908152600d60205260409020805460ff19811660ff918216600019019091161790555b835160405163c93ac3ed60e01b81526001600160a01b039091169063c93ac3ed906126d29033908c90600190600401615db4565b600060405180830381600087803b1580156126ec57600080fd5b505af1158015612700573d6000803e3d6000fd5b50506000805460ff19169055509699959850949650505050505050565b6000805460ff16156127415760405162461bcd60e51b81526004016109a790615821565b6000805460ff19166001178155828152600760205260409020546301000000900460ff161561279b5760405162461bcd60e51b815260206004820152600660248201526541637469766560d01b60448201526064016109a7565b60008281526007602052604090205462010000900460ff166127cf5760405162461bcd60e51b81526004016109a790615ae8565b600082815260096020908152604080832033845290915290205460ff16156128095760405162461bcd60e51b81526004016109a790615e65565b60008281526009602090815260408083203384529091528120805460ff1916600190811790915580548490811061284257612842615846565b60009182526020822060079091020154600180546001600160a01b039092169350908590811061287457612874615846565b60009182526020909120600790910201600201546040516370a0823160e01b81523360048201526001600160a01b03909116906370a0823190602401602060405180830381865afa1580156128cd573d6000803e3d6000fd5b505050506040513d601f19601f820116820180604052508101906128f19190615b0b565b600085815260036020526040812054919250670de0b6b3a764000082101561292a5761292582670de0b6b3a7640000615b24565b61292d565b60005b90506129398184614f17565b60405163c93ac3ed60e01b81529095506001600160a01b0385169063c93ac3ed9061296d9033908790600090600401615db4565b600060405180830381600087803b15801561298757600080fd5b505af115801561299b573d6000803e3d6000fd5b5050600054604051631e1fa3a760e31b81526101009091046001600160a01b0316925063f0fd1d3891506129d790889033908b90600401615df4565b600060405180830381600087803b1580156129f157600080fd5b505af1158015612a05573d6000803e3d6000fd5b50506000805460ff1916905550949695505050505050565b6000805460ff1615612a415760405162461bcd60e51b81526004016109a790615821565b6000805460ff191660011781558381526007602052604090205460ff1615612a9a5760405162461bcd60e51b815260206004820152600c60248201526b141c9948105c1c1c9bdd985b60a21b60448201526064016109a7565b612aa5338385615077565b60008054604051632500ed8d60e21b8152600481018690526101009091046001600160a01b031690639403b63490602401602060405180830381865afa158015612af3573d6000803e3d6000fd5b505050506040513d601f19601f82011682018060405250810190612b179190615b4a565b9050600060018581548110612b2e57612b2e615846565b6000918252602091829020600790910201546040805163487c0b8160e11b815290516001600160a01b03909216926390f81702926004808401938290030181865afa158015612b81573d6000803e3d6000fd5b505050506040513d601f19601f82011682018060405250810190612ba59190615b4a565b90506000806000846001600160a01b031663ca13e450896040518263ffffffff1660e01b8152600401612bda91815260200190565b606060405180830381865afa158015612bf7573d6000803e3d6000fd5b505050506040513d601f19601f82011682018060405250810190612c1b9190615e37565b925092509250836001600160a01b03166323b872dd33308a6040518463ffffffff1660e01b8152600401612c5193929190615e13565b6020604051808303816000875af1158015612c70573d6000803e3d6000fd5b505050506040513d601f19601f82011682018060405250810190612c949190615dd7565b506040516350c6e6cf60e01b8152600481018990526001600160a01b038086169163095ea7b3918816906350c6e6cf90602401602060405180830381865afa158015612ce4573d6000803e3d6000fd5b505050506040513d601f19601f82011682018060405250810190612d089190615b4a565b6040516001600160e01b031960e084901b1681526001600160a01b039091166004820152602481018a90526044016020604051808303816000875af1158015612d55573d6000803e3d6000fd5b505050506040513d601f19601f82011682018060405250810190612d799190615dd7565b506040516350c6e6cf60e01b8152600481018990526001600160a01b038616906350c6e6cf90602401602060405180830381865afa158015612dbf573d6000803e3d6000fd5b505050506040513d601f19601f82011682018060405250810190612de39190615b4a565b6001600160a01b031663d832f791886040518263ffffffff1660e01b8152600401612e1091815260200190565b600060405180830381600087803b158015612e2a57600080fd5b505af1158015612e3e573d6000803e3d6000fd5b50505050612e55828861516990919063ffffffff16565b955060018881548110612e6a57612e6a615846565b600091825260209091206007909102015460405163681504cd60e01b8152336004820152602481018890526001600160a01b039091169063681504cd90604401600060405180830381600087803b158015612ec457600080fd5b505af1158015612ed8573d6000803e3d6000fd5b5050506001600160a01b038616905063ab0c79d089612efb866125e78b87614f17565b6040516001600160e01b031960e085901b16815260048101929092526024820152604401600060405180830381600087803b158015612f3957600080fd5b505af1158015612f4d573d6000803e3d6000fd5b505060408051808201909152600a815269686f77206d7563683f3f60b01b6020820152612f8a92509050612f85856125e78a86614f17565b61517e565b50506000805460ff191690555091949350505050565b6000818152600760205260409020546301000000900460ff1615612fd65760405162461bcd60e51b81526004016109a790615e87565b60008181526007602052604090205462010000900460ff1661300a5760405162461bcd60e51b81526004016109a790615ae8565b600081815260096020908152604080832033845290915290205460ff16156130445760405162461bcd60e51b81526004016109a790615e65565b6000818152600960209081526040808320338085529252808320805460ff19166001179055915491516323f2a73f60e01b81526101009092046001600160a01b0316916323f2a73f916130ae918591906004019182526001600160a01b0316602082015260400190565b602060405180830381865afa1580156130cb573d6000803e3d6000fd5b505050506040513d601f19601f820116820180604052508101906130ef9190615dd7565b1561315d57600054604051638f5709a560e01b8152600481018390523360248201526101009091046001600160a01b031690638f5709a590604401600060405180830381600087803b15801561314457600080fd5b505af1158015613158573d6000803e3d6000fd5b505050505b6000818152600e602090815260408083203384528252918290208251808401909352546001600160801b038082168452600160801b909104169082018190526131ce5760405162461bcd60e51b815260206004820152600360248201526222a92960e91b60448201526064016109a7565b6000828152600360209081526040822054908301519091906131fa9083906001600160801b0316614f17565b9050600083600001516001600160801b031682101561321a57600061322f565b835161322f906001600160801b031683615b24565b6000546040516323f2a73f60e01b81526004810188905233602482015291925061010090046001600160a01b0316906323f2a73f90604401602060405180830381865afa158015613284573d6000803e3d6000fd5b505050506040513d601f19601f820116820180604052508101906132a89190615dd7565b61333c576000670de0b6b3a76400008410156132c55760006132c8565b60015b60005460405163494ef44760e01b815260048101899052336024820152821515604482015291925061010090046001600160a01b03169063494ef44790606401600060405180830381600087803b15801561332257600080fd5b505af1158015613336573d6000803e3d6000fd5b50505050505b336000908152600d602052604090205460ff161561337a57336000908152600d60205260409020805460ff19811660ff918216600019019091161790555b6000858152600e60209081526040808320338452909152902080546001600160801b0316905560018054869081106133b4576133b4615846565b600091825260209182902060079190910201549085015160405163c93ac3ed60e01b81523060048201526001600160801b039091166024820152600160448201526001600160a01b039091169063c93ac3ed90606401600060405180830381600087803b15801561342457600080fd5b505af1158015613438573d6000803e3d6000fd5b5050600054604051631e1fa3a760e31b81526101009091046001600160a01b0316925063f0fd1d38915061227b90849033908a90600401615df4565b600080546040516308ad90a560e01b81526001600160a01b03848116600483015261350692670de0b6b3a764000092610100909104909116906308ad90a590602401602060405180830381865afa1580156134d3573d6000803e3d6000fd5b505050506040513d601f19601f820116820180604052508101906134f79190615b0b565b6135019190615ad1565b6151c7565b92915050565b6040805160e0810182526000808252602082018190529181018290526060808201526080810182905260a0810182905260c08101919091526040518060e0016040528060006001600160a01b0316815260200160006001600160a01b0316815260200160006001600160a01b03168152602001604051806020016040528060008152508152602001600081526020016000815260200160001515815250905090565b60005461010090046001600160a01b03163314806135d657506002546001600160a01b031633145b806135e057503330145b6135fc5760405162461bcd60e51b81526004016109a79061596c565b60009182526007602052604090912080549115156101000261ff0019909216919091179055565b60006001828154811061363857613638615846565b60009182526020909120600260079092020101546001600160a01b031692915050565b600081815260076020526040812054610100900460ff16156137295760005460405163b743939b60e01b8152600481018490526101009091046001600160a01b03169063b743939b90602401602060405180830381865afa1580156136c4573d6000803e3d6000fd5b505050506040513d601f19601f820116820180604052508101906136e89190615dd7565b1580156136fb57506136f9826138ae565b155b8015613715575060008281526007602052604090205460ff165b61372157613721615ea8565b506001919050565b60008281526007602052604090205460ff16801561375b5750600082815260076020526040902054610100900460ff16155b156137fc57613769826138ae565b1561377657613776615ea8565b60005460405163b743939b60e01b8152600481018490526101009091046001600160a01b03169063b743939b90602401602060405180830381865afa1580156137c3573d6000803e3d6000fd5b505050506040513d601f19601f820116820180604052508101906137e79190615dd7565b156137f457506003919050565b506002919050565b613805826138ae565b156138a95760008281526007602052604090205460ff16158015613895575060005460405163b743939b60e01b8152600481018490526101009091046001600160a01b03169063b743939b90602401602060405180830381865afa158015613871573d6000803e3d6000fd5b505050506040513d601f19601f820116820180604052508101906138959190615dd7565b6138a1576138a1615ea8565b506004919050565b919050565b60008181526007602052604081205460ff161580156135065750506000908152600760205260409020546301000000900460ff1690565b600080600185815481106138fb576138fb615846565b50600052509392505050565b6001818154811061391757600080fd5b600091825260209091206007909102018054600182015460028301546003840180546001600160a01b0394851696509284169493909116929161395990615991565b80601f016020809104026020016040519081016040528092919081815260200182805461398590615991565b80156139d25780601f106139a7576101008083540402835291602001916139d2565b820191906000526020600020905b8154815290600101906020018083116139b557829003601f168201915b50505050600483015460058401546006909401549293909290915060ff1687565b6000818152600e6020908152604080832033845282528083208151808301909252546001600160801b038082168352600160801b9091041691810182905290613a645760405162461bcd60e51b815260206004820152600360248201526222a92960e91b60448201526064016109a7565b6000838152600e6020908152604080832033808552925280832080546001600160801b03169055915491516323f2a73f60e01b81526101009092046001600160a01b0316916323f2a73f91613ad0918791906004019182526001600160a01b0316602082015260400190565b602060405180830381865afa158015613aed573d6000803e3d6000fd5b505050506040513d601f19601f82011682018060405250810190613b119190615dd7565b15613b9657600054604051634187150160e11b8152600481018590523360248201526101009091046001600160a01b03169063830e2a02906044016020604051808303816000875af1158015613b6b573d6000803e3d6000fd5b505050506040513d601f19601f82011682018060405250810190613b8f9190615b0b565b9150613bb7565b6000838152600a602090815260408083203384529091528120805491905591505b60018381548110613bca57613bca615846565b600091825260209182902060079190910201549082015160405163c93ac3ed60e01b81523060048201526001600160801b039091166024820152600160448201526001600160a01b039091169063c93ac3ed90606401600060405180830381600087803b158015613c3a57600080fd5b505af1158015613c4e573d6000803e3d6000fd5b5050336000908152600d602052604090205460ff16159150613c92905057336000908152600d60205260409020805460ff19811660ff918216600019019091161790555b60005481516101009091046001600160a01b03169063f0fd1d3890613cc0906001600160801b031685615b24565b33866040518463ffffffff1660e01b8152600401613ce093929190615df4565b600060405180830381600087803b158015613cfa57600080fd5b505af1158015613d0e573d6000803e3d6000fd5b5050505050919050565b613d6060405180610100016040528060008152602001600081526020016000815260200160008152602001600081526020016000815260200160008152602001600081525090565b50600090815260086020908152604091829020825161010081018452815481526001820154928101929092526002810154928201929092526003820154606082015260048201546080820152600582015460a0820152600682015460c082015260079091015460e082015290565b60005461010090046001600160a01b0316331480613df657506002546001600160a01b031633145b80613e0057503330145b613e1c5760405162461bcd60e51b81526004016109a79061596c565b6000908152600760205260409020805460ff19169055565b600080546040516308ad90a560e01b81526001600160a01b0384811660048301528392610100900416906308ad90a590602401602060405180830381865afa158015613e84573d6000803e3d6000fd5b505050506040513d601f19601f82011682018060405250810190613ea89190615b0b565b905080600003613ebc576000915050613506565b613ed1613501670de0b6b3a764000083615ad1565b600085815260076020526040902060010154613eed9190615b37565b949350505050565b336001600160a01b03166390f817026040518163ffffffff1660e01b8152600401602060405180830381865afa158015613f33573d6000803e3d6000fd5b505050506040513d601f19601f82011682018060405250810190613f579190615b4a565b6001600160a01b03166323b872dd613f7183850185615625565b33866040518463ffffffff1660e01b8152600401613f9193929190615e13565b6020604051808303816000875af1158015613fb0573d6000803e3d6000fd5b505050506040513d601f19601f82011682018060405250810190613fd49190615dd7565b50505050565b6000805460ff1615613ffe5760405162461bcd60e51b81526004016109a790615821565b6000805460ff19166001178155828152600760205260409020546301000000900460ff161561403f5760405162461bcd60e51b81526004016109a790615e87565b60008281526007602052604090205462010000900460ff166140735760405162461bcd60e51b81526004016109a790615ae8565b600082815260096020908152604080832033845290915290205460ff16156140ad5760405162461bcd60e51b81526004016109a790615e65565b60008281526009602090815260408083203384529091528120805460ff191660019081179091558054849081106140e6576140e6615846565b600091825260208220600791909102015490546040516323f2a73f60e01b8152600481018690523360248201526001600160a01b039283169350610100909104909116906323f2a73f90604401602060405180830381865afa158015614150573d6000803e3d6000fd5b505050506040513d601f19601f820116820180604052508101906141749190615dd7565b156141e257600054604051638f5709a560e01b8152600481018590523360248201526101009091046001600160a01b031690638f5709a590604401600060405180830381600087803b1580156141c957600080fd5b505af11580156141dd573d6000803e3d6000fd5b505050505b6000600184815481106141f7576141f7615846565b60009182526020909120600790910201600101546040516370a0823160e01b81523360048201526001600160a01b03909116906370a0823190602401602060405180830381865afa158015614250573d6000803e3d6000fd5b505050506040513d601f19601f820116820180604052508101906142749190615b0b565b6000858152600360205260409020549091506142908183614f17565b6000546040516323f2a73f60e01b81526004810188905233602482015291955061010090046001600160a01b0316906323f2a73f90604401602060405180830381865afa1580156142e5573d6000803e3d6000fd5b505050506040513d601f19601f820116820180604052508101906143099190615dd7565b61439d576000670de0b6b3a7640000821015614326576000614329565b60015b60005460405163494ef44760e01b815260048101899052336024820152821515604482015291925061010090046001600160a01b03169063494ef44790606401600060405180830381600087803b15801561438357600080fd5b505af1158015614397573d6000803e3d6000fd5b50505050505b336000908152600d602052604090205460ff16156143db57336000908152600d60205260409020805460ff19811660ff918216600019019091161790555b60405163c93ac3ed60e01b81526001600160a01b0384169063c93ac3ed9061440c9033908690600190600401615db4565b600060405180830381600087803b15801561442657600080fd5b505af115801561443a573d6000803e3d6000fd5b5050600054604051631e1fa3a760e31b81526101009091046001600160a01b0316925063f0fd1d38915061447690879033908a90600401615df4565b600060405180830381600087803b15801561449057600080fd5b505af11580156144a4573d6000803e3d6000fd5b50506000805460ff19169055509395945050505050565b6040805160e0810182526000808252602082018190529181018290526060808201526080810182905260a0810182905260c081019190915260015482106145045761350661350c565b6001828154811061451757614517615846565b60009182526020918290206040805160e081018252600790930290910180546001600160a01b039081168452600182015481169484019490945260028101549093169082015260038201805491929160608401919061457590615991565b80601f01602080910402602001604051908101604052809291908181526020018280546145a190615991565b80156145ee5780601f106145c3576101008083540402835291602001916145ee565b820191906000526020600020905b8154815290600101906020018083116145d157829003601f168201915b5050509183525050600482015460208201526005820154604082015260069091015460ff16151560609091015292915050565b60005461010090046001600160a01b031633148061464957506002546001600160a01b031633145b8061465357503330145b61466f5760405162461bcd60e51b81526004016109a79061596c565b6000938452600760205260409093208054600182019490945563ff0000001992151560ff19921515610100029290921661ffff199094169390931717166301000000179055565b60008054819060ff16156146dc5760405162461bcd60e51b81526004016109a790615821565b6000805460ff191660011781558681526007602052604090205460ff166147305760405162461bcd60e51b8152602060048201526008602482015267283430b9b2a2a92960c11b60448201526064016109a7565b60008681526007602052604090205462010000900460ff16156147655760405162461bcd60e51b81526004016109a790615ae8565b61476e33613474565b83111580156147855750670de0b6b3a76400008310155b6147bd5760405162461bcd60e51b8152602060048201526009602482015268216c6576657261676560b81b60448201526064016109a7565b6147c8338688614f33565b6000600187815481106147dd576147dd615846565b600091825260208220600790910201546001600160a01b031691506148028786615169565b9050816001600160a01b03166390f817026040518163ffffffff1660e01b8152600401602060405180830381865afa158015614842573d6000803e3d6000fd5b505050506040513d601f19601f820116820180604052508101906148669190615b4a565b6001600160a01b03166323b872dd3330846040518463ffffffff1660e01b815260040161489593929190615e13565b6020604051808303816000875af11580156148b4573d6000803e3d6000fd5b505050506040513d601f19601f820116820180604052508101906148d89190615dd7565b5060005461010090046001600160a01b031663da0a697f896148fa848b615b24565b6040516001600160e01b031960e085901b16815260048101929092526024820152604401600060405180830381600087803b15801561493857600080fd5b505af115801561494c573d6000803e3d6000fd5b50505050816001600160a01b03166390f817026040518163ffffffff1660e01b8152600401602060405180830381865afa15801561498e573d6000803e3d6000fd5b505050506040513d601f19601f820116820180604052508101906149b29190615b4a565b60405163095ea7b360e01b8152306004820152602481018990526001600160a01b03919091169063095ea7b3906044016020604051808303816000875af1158015614a01573d6000803e3d6000fd5b505050506040513d601f19601f82011682018060405250810190614a259190615dd7565b506040805130602080830191909152825180830390910181528183019283905263244d59cb60e01b9092526001600160a01b0384169163244d59cb91614a74916001918c918c9160440161588e565b60408051808303816000875af1158015614a92573d6000803e3d6000fd5b505050506040513d601f19601f82011682018060405250810190614ab691906158bf565b9094509250614acb8833896000600180614d28565b60005461010090046001600160a01b031663dda10bca8486614aed8c33613e34565b6040516001600160e01b031960e086901b168152600481019390935260248301919091526044820152606401602060405180830381865afa158015614b36573d6000803e3d6000fd5b505050506040513d601f19601f82011682018060405250810190614b5a9190615b0b565b60008981526006602090815260408083203384528252808320939093558a8252600790522054610100900460ff1615614cbd576000888152600c60205260408082205491549051632500ed8d60e21b8152600481018b9052614c9d9161010090046001600160a01b031690639403b63490602401602060405180830381865afa158015614beb573d6000803e3d6000fd5b505050506040513d601f19601f82011682018060405250810190614c0f9190615b4a565b6001600160a01b0316639ec4d40e8b6040518263ffffffff1660e01b8152600401614c3c91815260200190565b600060405180830381865afa158015614c59573d6000803e3d6000fd5b505050506040513d6000823e601f3d908101601f19168201604052614c819190810190615c8e565b60c0015160008b81526008602052604090206003015490614f17565b8110614cbb576000898152600760205260409020805461ff00191690555b505b60405180604001604052808289614cd49190615b24565b6001600160801b03908116825285811660209283015260009a8b52600e82526040808c20338d5283528b20835193909201518116600160801b0292169190911790555050855460ff19169095559492505050565b8015614e37578115614dd7576000868152600a602090815260408083206001600160a01b038916845290915281208054869290614d66908490615b37565b90915550506000868152600c602052604081208054869290614d89908490615b37565b90915550506001600160a01b0385166000908152600d60205260408120805460019290614dba90849060ff16615ebe565b92506101000a81548160ff021916908360ff160217905550614eca565b6000868152600a602090815260408083206001600160a01b038916845290915281208054869290614e09908490615b24565b90915550506000868152600c602052604081208054869290614e2c908490615b24565b90915550614eca9050565b8115614e6f576000868152600b602090815260408083206001600160a01b038916845290915281208054859290614e09908490615b37565b6000868152600b602090815260408083206001600160a01b038916845290915281208054859290614ea1908490615b24565b90915550506000868152600c602052604081208054869290614ec4908490615b37565b90915550505b505050505050565b6000818152600760205260408120546301000000900460ff16614f075760405162461bcd60e51b81526004016109a790615e87565b5060005250506007602052600190565b6000614f2c8383670de0b6b3a764000061526b565b9392505050565b6000818152600760205260409020546301000000900460ff16614f685760405162461bcd60e51b81526004016109a790615e87565b60008181526007602052604081205460ff808216926101009092041690841315614f9d578115614f9d57614f9d858585615077565b801561507057600080548482526008602052604091829020600501549151637453c01360e11b81526001600160a01b03888116600483015260248201939093526101009091049091169063e8a7802690604401602060405180830381865afa15801561500d573d6000803e3d6000fd5b505050506040513d601f19601f820116820180604052508101906150319190615dd7565b6150705760405162461bcd60e51b815260206004820152601060248201526f0696e73756666696369656e74207265760841b60448201526064016109a7565b5050505050565b816150828285613e34565b116150b85760405162461bcd60e51b8152602060048201526006602482015265189d5919d95d60d21b60448201526064016109a7565b6000546040516308ad90a560e01b81526001600160a01b038581166004830152610100909204909116906308ad90a590602401602060405180830381865afa158015615108573d6000803e3d6000fd5b505050506040513d601f19601f8201168201806040525081019061512c9190615b0b565b6000036151645760405162461bcd60e51b81526004016109a7906020808252600490820152630217265760e41b604082015260600190565b505050565b6000614f2c83670de0b6b3a76400008461526b565b6151c38282604051602401615194929190615ed7565b60408051601f198184030181529190526020810180516001600160e01b03166309710a9d60e41b179052615289565b5050565b60b581600160881b81106151e05760409190911b9060801c5b690100000000000000000081106151fc5760209190911b9060401c5b6501000000000081106152145760109190911b9060201c5b6301000000811061522a5760089190911b9060101c5b62010000010260121c80820401600190811c80830401811c80830401811c80830401811c80830401811c80830401811c80830401901c908190048111900390565b600082600019048411830215820261528257600080fd5b5091020490565b80516a636f6e736f6c652e6c6f67602083016000808483855afa5050505050565b60008083601f8401126152bc57600080fd5b50813567ffffffffffffffff8111156152d457600080fd5b6020830191508360208285010111156152ec57600080fd5b9250929050565b60008060008060006080868803121561530b57600080fd5b853594506020860135935060408601359250606086013567ffffffffffffffff81111561533757600080fd5b615343888289016152aa565b969995985093965092949392505050565b60006020828403121561536657600080fd5b5035919050565b6001600160a01b038116811461538257600080fd5b50565b801515811461538257600080fd5b600080600080600080600060c0888a0312156153ae57600080fd5b8735965060208801356153c08161536d565b955060408801356153d08161536d565b945060608801356153e08161536d565b9350608088013567ffffffffffffffff8111156153fc57600080fd5b6154088a828b016152aa565b90945092505060a088013561541c81615385565b8091505092959891949750929550565b6000806040838503121561543f57600080fd5b8235915060208301356154518161536d565b809150509250929050565b634e487b7160e01b600052604160045260246000fd5b604051610100810167ffffffffffffffff811182821017156154965761549661545c565b60405290565b6040516101c0810167ffffffffffffffff811182821017156154965761549661545c565b60008060008385036101408112156154d757600080fd5b610100808212156154e757600080fd5b6154ef615472565b9150853582526020860135602083015260408601356040830152606086013560608301526080860135608083015260a086013560a083015260c086013560c083015260e086013560e0830152819450808601359350505061012084013590509250925092565b6000806040838503121561556857600080fd5b50508035926020909101359150565b6000806000806080858703121561558d57600080fd5b84359350602085013561559f81615385565b925060408501356155af81615385565b9396929550929360600135925050565b600080604083850312156155d257600080fd5b82359150602083013561545181615385565b600080600080608085870312156155fa57600080fd5b843593506020850135925060408501359150606085013561561a8161536d565b939692955090935050565b60006020828403121561563757600080fd5b8135614f2c8161536d565b60005b8381101561565d578181015183820152602001615645565b50506000910152565b6000815180845261567e816020860160208601615642565b601f01601f19169290920160200192915050565b60208152600060018060a01b0380845116602084015280602085015116604084015280604085015116606084015250606083015160e060808401526156db610100840182615666565b9050608084015160a084015260a084015160c084015260c0840151151560e08401528091505092915050565b803561ffff811681146138a957600080fd5b60008060006060848603121561572e57600080fd5b8335925061573e60208501615707565b9150604084013590509250925092565b6001600160a01b03888116825287811660208301528616604082015260e06060820181905260009061578290830187615666565b60808301959095525060a0810192909252151560c090910152949350505050565b6000806000604084860312156157b857600080fd5b83359250602084013567ffffffffffffffff8111156157d657600080fd5b6157e2868287016152aa565b9497909650939450505050565b6000806000806080858703121561580557600080fd5b5050823594602084013594506040840135936060013592509050565b6020808252600b908201526a4552525f5245454e54525960a81b604082015260600190565b634e487b7160e01b600052603260045260246000fd5b634e487b7160e01b600052601160045260246000fd5b6000600160ff1b82016158875761588761585c565b5060000390565b84151581528360208201528260408201526080606082015260006158b56080830184615666565b9695505050505050565b600080604083850312156158d257600080fd5b505080516020909101519092909150565b600080604083850312156158f657600080fd5b6158ff83615707565b9150602083013561545181615385565b61ffff9490941684526020840192909252151560408301526001600160a01b0316606082015260800190565b6000806040838503121561594e57600080fd5b8251915060208301516001600160801b038116811461545157600080fd5b6020808252600b908201526a10b1b7b73a3937b63632b960a91b604082015260600190565b600181811c908216806159a557607f821691505b6020821081036159c557634e487b7160e01b600052602260045260246000fd5b50919050565b601f82111561516457600081815260208120601f850160051c810160208610156159f25750805b601f850160051c820191505b81811015614eca578281556001016159fe565b815167ffffffffffffffff811115615a2b57615a2b61545c565b615a3f81615a398454615991565b846159cb565b602080601f831160018114615a745760008415615a5c5750858301515b600019600386901b1c1916600185901b178555614eca565b600085815260208120601f198616915b82811015615aa357888601518255948401946001909101908401615a84565b5085821015615ac15787850151600019600388901b60f8161c191681555b5050505050600190811b01905550565b80820281158282048414176135065761350661585c565b602080825260099082015268085c995cdbdb1d995960ba1b604082015260600190565b600060208284031215615b1d57600080fd5b5051919050565b818103818111156135065761350661585c565b808201808211156135065761350661585c565b600060208284031215615b5c57600080fd5b8151614f2c8161536d565b80516138a981615385565b600082601f830112615b8357600080fd5b815167ffffffffffffffff80821115615b9e57615b9e61545c565b604051601f8301601f19908116603f01168101908282118183101715615bc657615bc661545c565b81604052838152866020858801011115615bdf57600080fd5b6158b5846020830160208901615642565b80516138a98161536d565b8051600481106138a957600080fd5b600060e08284031215615c1c57600080fd5b60405160e0810181811067ffffffffffffffff82111715615c3f57615c3f61545c565b8060405250809150825181526020830151602082015260408301516040820152606083015160608201526080830151608082015260a083015160a082015260c083015160c08201525092915050565b600060208284031215615ca057600080fd5b815167ffffffffffffffff80821115615cb857600080fd5b908301906102808286031215615ccd57600080fd5b615cd561549c565b82518152615ce560208401615b67565b6020820152615cf660408401615b67565b6040820152606083015160608201526080830151608082015260a083015160a082015260c083015160c082015260e083015160e08201526101008084015181830152506101208084015183811115615d4d57600080fd5b615d5988828701615b72565b8284015250506101409150615d6f828401615bf0565b828201526101609150615d83828401615bfb565b82820152610180915081830151828201526101a09150615da586838501615c0a565b91810191909152949350505050565b6001600160a01b0393909316835260208301919091521515604082015260600190565b600060208284031215615de957600080fd5b8151614f2c81615385565b9283526001600160a01b03919091166020830152604082015260600190565b6001600160a01b039384168152919092166020820152604081019190915260600190565b600080600060608486031215615e4c57600080fd5b8351925060208401519150604084015190509250925092565b60208082526008908201526714995919595b595960c21b604082015260600190565b6020808252600790820152662141637469766560c81b604082015260600190565b634e487b7160e01b600052600160045260246000fd5b60ff81811683821601908111156135065761350661585c565b604081526000615eea6040830185615666565b9050826020830152939250505056fea2646970667358221220db41ac581a9737bd42dea48b183b92b01247b6826f6dbac4cc5c42b41ee7abc564736f6c63430008110033",
    "linkReferences": {}
  },
  "methodIdentifiers": {
    "approveMarket(uint256)": "cabe2ae1",
    "assessment_probs(uint256,address)": "a1070adc",
    "buyBond(uint256,int256,uint256,bytes)": "51ba6522",
    "buyBondLevered(uint256,uint256,uint256,uint256)": "f7cf78d7",
    "claimFunnel(uint256,uint16,uint256)": "a72be9a1",
    "coverBondShort(uint256,uint256,uint256,bytes)": "03cc40eb",
    "deactivateMarket(uint256,bool,bool,uint256)": "61fa5af5",
    "denyMarket(uint256)": "4cb44087",
    "getCurrentMarketPhase(uint256)": "97dcec16",
    "getMarket(uint256)": "eb44fdd3",
    "getMaxLeverage(address)": "808d856b",
    "getParameters(uint256)": "c6ceb96b",
    "getPhaseData(uint256)": "4cba8cde",
    "getPool(uint256)": "068bcd8d",
    "getShortZCB(uint256)": "920f4e55",
    "getTraderBudget(uint256,address)": "d5725953",
    "getZCB(uint256)": "153542cc",
    "isMarketApproved(uint256)": "9ec33416",
    "issuePoolBond(uint256,uint256)": "73124349",
    "leveragePosition(uint256,address)": "d36287f4",
    "loggedCollaterals(uint256)": "661f1cf5",
    "longTrades(uint256,address)": "214b3987",
    "makeEmptyMarketData()": "839ee8f6",
    "marketCount()": "ec979082",
    "markets(uint256)": "b1283e77",
    "newMarket(uint256,address,address,address,string,bool)": "203b2434",
    "owner()": "8da5cb5b",
    "parameters(uint256)": "2a4a9dd1",
    "queuedRepThreshold()": "41741c06",
    "queuedRepUpdates(address)": "b900a0ed",
    "redeem(uint256)": "db006a75",
    "redeemDeniedLeveredBond(uint256)": "bdce3867",
    "redeemDeniedMarket(uint256,bool)": "63f960d8",
    "redeemLeveredBond(uint256)": "765cd23a",
    "redeemPoolLongZCB(uint256,uint256)": "71bd6a09",
    "redeemShortZCB(uint256)": "727b887f",
    "redemption_prices(uint256)": "7c9bc5ce",
    "restriction_data(uint256)": "8a6cac3d",
    "sellBond(uint256,uint256,uint256,bytes)": "46b6a387",
    "setMarketPhase(uint256,bool,bool,uint256)": "f162796a",
    "setN(uint256,uint256)": "555f8d2d",
    "setParameters((uint256,uint256,uint256,uint256,uint256,uint256,uint256,uint256),uint256,uint256)": "4e042a59",
    "setReputationPhase(uint256,bool)": "89e304ac",
    "shortBond(uint256,uint256,uint256,bytes)": "3db969f4",
    "shortTrades(uint256,address)": "897ca174",
    "tradeCallBack(uint256,bytes)": "da520d3e",
    "validatorApprove(uint256,uint256,uint256,address)": "669623a6"
  },
  "id": 16
}