{
  "abi": [
    {
      "inputs": [
        {
          "internalType": "address",
          "name": "_creator_address",
          "type": "address"
        },
        {
          "internalType": "address",
          "name": "_controllerAddress",
          "type": "address"
        },
        {
          "internalType": "address",
          "name": "_vrfCoordinator",
          "type": "address"
        },
        {
          "internalType": "bytes32",
          "name": "_keyHash",
          "type": "bytes32"
        },
        {
          "internalType": "uint64",
          "name": "_subscriptionId",
          "type": "uint64"
        }
      ],
      "stateMutability": "nonpayable",
      "type": "constructor"
    },
    {
      "anonymous": false,
      "inputs": [
        {
          "indexed": true,
          "internalType": "uint256",
          "name": "marketId",
          "type": "uint256"
        },
        {
          "indexed": true,
          "internalType": "address",
          "name": "trader",
          "type": "address"
        },
        {
          "indexed": false,
          "internalType": "uint256",
          "name": "amountIn",
          "type": "uint256"
        },
        {
          "indexed": false,
          "internalType": "uint256",
          "name": "amountOut",
          "type": "uint256"
        }
      ],
      "name": "BondBuy",
      "type": "event"
    },
    {
      "anonymous": false,
      "inputs": [
        {
          "indexed": true,
          "internalType": "uint256",
          "name": "marketId",
          "type": "uint256"
        },
        {
          "indexed": true,
          "internalType": "address",
          "name": "trader",
          "type": "address"
        },
        {
          "indexed": false,
          "internalType": "uint256",
          "name": "amountMint",
          "type": "uint256"
        },
        {
          "indexed": false,
          "internalType": "uint256",
          "name": "amountIn",
          "type": "uint256"
        }
      ],
      "name": "BondShort",
      "type": "event"
    },
    {
      "anonymous": false,
      "inputs": [
        {
          "indexed": true,
          "internalType": "uint256",
          "name": "marketId",
          "type": "uint256"
        },
        {
          "indexed": false,
          "internalType": "bool",
          "name": "atLoss",
          "type": "bool"
        },
        {
          "indexed": false,
          "internalType": "bool",
          "name": "resolve",
          "type": "bool"
        },
        {
          "indexed": false,
          "internalType": "uint256",
          "name": "rp",
          "type": "uint256"
        }
      ],
      "name": "DeactivatedMarket",
      "type": "event"
    },
    {
      "anonymous": false,
      "inputs": [
        {
          "indexed": true,
          "internalType": "uint256",
          "name": "marketId",
          "type": "uint256"
        }
      ],
      "name": "MarketApproved",
      "type": "event"
    },
    {
      "anonymous": false,
      "inputs": [
        {
          "indexed": true,
          "internalType": "uint256",
          "name": "marketId",
          "type": "uint256"
        }
      ],
      "name": "MarketDenied",
      "type": "event"
    },
    {
      "anonymous": false,
      "inputs": [
        {
          "indexed": true,
          "internalType": "uint256",
          "name": "marketId",
          "type": "uint256"
        },
        {
          "components": [
            {
              "internalType": "uint256",
              "name": "N",
              "type": "uint256"
            },
            {
              "internalType": "uint256",
              "name": "sigma",
              "type": "uint256"
            },
            {
              "internalType": "uint256",
              "name": "alpha",
              "type": "uint256"
            },
            {
              "internalType": "uint256",
              "name": "omega",
              "type": "uint256"
            },
            {
              "internalType": "uint256",
              "name": "delta",
              "type": "uint256"
            },
            {
              "internalType": "uint256",
              "name": "r",
              "type": "uint256"
            },
            {
              "internalType": "uint256",
              "name": "s",
              "type": "uint256"
            },
            {
              "internalType": "uint256",
              "name": "steak",
              "type": "uint256"
            }
          ],
          "indexed": false,
          "internalType": "struct MarketParameters",
          "name": "params",
          "type": "tuple"
        }
      ],
      "name": "MarketParametersSet",
      "type": "event"
    },
    {
      "anonymous": false,
      "inputs": [
        {
          "indexed": true,
          "internalType": "uint256",
          "name": "marketId",
          "type": "uint256"
        },
        {
          "components": [
            {
              "internalType": "bool",
              "name": "duringAssessment",
              "type": "bool"
            },
            {
              "internalType": "bool",
              "name": "onlyReputable",
              "type": "bool"
            },
            {
              "internalType": "bool",
              "name": "resolved",
              "type": "bool"
            },
            {
              "internalType": "bool",
              "name": "alive",
              "type": "bool"
            },
            {
              "internalType": "bool",
              "name": "atLoss",
              "type": "bool"
            },
            {
              "internalType": "uint256",
              "name": "base_budget",
              "type": "uint256"
            }
          ],
          "indexed": false,
          "internalType": "struct MarketPhaseData",
          "name": "data",
          "type": "tuple"
        }
      ],
      "name": "MarketPhaseSet",
      "type": "event"
    },
    {
      "anonymous": false,
      "inputs": [
        {
          "indexed": false,
          "internalType": "uint256",
          "name": "marketId",
          "type": "uint256"
        },
        {
          "indexed": false,
          "internalType": "address",
          "name": "trader",
          "type": "address"
        },
        {
          "indexed": false,
          "internalType": "bool",
          "name": "isLong",
          "type": "bool"
        }
      ],
      "name": "RedeemDenied",
      "type": "event"
    },
    {
      "anonymous": false,
      "inputs": [
        {
          "indexed": true,
          "internalType": "uint256",
          "name": "marketId",
          "type": "uint256"
        },
        {
          "indexed": false,
          "internalType": "address",
          "name": "trader",
          "type": "address"
        },
        {
          "indexed": false,
          "internalType": "uint256",
          "name": "totalCollateral",
          "type": "uint256"
        },
        {
          "indexed": false,
          "internalType": "bool",
          "name": "isLong",
          "type": "bool"
        },
        {
          "indexed": false,
          "internalType": "uint256",
          "name": "shortCollateral",
          "type": "uint256"
        },
        {
          "indexed": false,
          "internalType": "uint256",
          "name": "collateral",
          "type": "uint256"
        },
        {
          "indexed": false,
          "internalType": "bool",
          "name": "isBuy",
          "type": "bool"
        }
      ],
      "name": "TraderUpdate",
      "type": "event"
    },
    {
      "inputs": [],
      "name": "Data",
      "outputs": [
        {
          "internalType": "contract StorageHandler",
          "name": "",
          "type": "address"
        }
      ],
      "stateMutability": "view",
      "type": "function"
    },
    {
      "inputs": [
        {
          "internalType": "address",
          "name": "trader",
          "type": "address"
        },
        {
          "internalType": "int256",
          "name": "amount",
          "type": "int256"
        },
        {
          "internalType": "uint256",
          "name": "marketId",
          "type": "uint256"
        },
        {
          "internalType": "uint256",
          "name": "budget",
          "type": "uint256"
        }
      ],
      "name": "_canBuy",
      "outputs": [],
      "stateMutability": "view",
      "type": "function"
    },
    {
      "inputs": [
        {
          "internalType": "address",
          "name": "trader",
          "type": "address"
        },
        {
          "internalType": "int256",
          "name": "amount",
          "type": "int256"
        },
        {
          "internalType": "uint256",
          "name": "marketId",
          "type": "uint256"
        },
        {
          "internalType": "uint256",
          "name": "budget",
          "type": "uint256"
        }
      ],
      "name": "_canIssue",
      "outputs": [],
      "stateMutability": "view",
      "type": "function"
    },
    {
      "inputs": [
        {
          "internalType": "address",
          "name": "trader",
          "type": "address"
        },
        {
          "internalType": "uint256",
          "name": "amount",
          "type": "uint256"
        },
        {
          "internalType": "uint256",
          "name": "marketId",
          "type": "uint256"
        }
      ],
      "name": "_canSell",
      "outputs": [
        {
          "internalType": "bool",
          "name": "",
          "type": "bool"
        }
      ],
      "stateMutability": "view",
      "type": "function"
    },
    {
      "inputs": [
        {
          "internalType": "uint256",
          "name": "marketId",
          "type": "uint256"
        }
      ],
      "name": "approveMarket",
      "outputs": [],
      "stateMutability": "nonpayable",
      "type": "function"
    },
    {
      "inputs": [
        {
          "internalType": "uint256",
          "name": "marketId",
          "type": "uint256"
        },
        {
          "internalType": "address",
          "name": "burnWho",
          "type": "address"
        },
        {
          "internalType": "uint256",
          "name": "burnAmount",
          "type": "uint256"
        },
        {
          "internalType": "address",
          "name": "sendWho",
          "type": "address"
        },
        {
          "internalType": "uint256",
          "name": "sendAmount",
          "type": "uint256"
        }
      ],
      "name": "burnAndTransfer",
      "outputs": [],
      "stateMutability": "nonpayable",
      "type": "function"
    },
    {
      "inputs": [
        {
          "internalType": "uint256",
          "name": "_marketId",
          "type": "uint256"
        },
        {
          "internalType": "int256",
          "name": "_amountIn",
          "type": "int256"
        },
        {
          "internalType": "uint256",
          "name": "_priceLimit",
          "type": "uint256"
        },
        {
          "internalType": "bytes",
          "name": "_tradeRequestData",
          "type": "bytes"
        }
      ],
      "name": "buyBond",
      "outputs": [
        {
          "internalType": "uint256",
          "name": "amountIn",
          "type": "uint256"
        },
        {
          "internalType": "uint256",
          "name": "amountOut",
          "type": "uint256"
        }
      ],
      "stateMutability": "nonpayable",
      "type": "function"
    },
    {
      "inputs": [
        {
          "internalType": "uint256",
          "name": "_marketId",
          "type": "uint256"
        },
        {
          "internalType": "int256",
          "name": "_amountIn",
          "type": "int256"
        },
        {
          "internalType": "uint256",
          "name": "_priceLimit",
          "type": "uint256"
        },
        {
          "internalType": "bytes",
          "name": "_tradeRequestData",
          "type": "bytes"
        },
        {
          "internalType": "address",
          "name": "caller",
          "type": "address"
        },
        {
          "internalType": "address",
          "name": "trader",
          "type": "address"
        }
      ],
      "name": "buylongZCB",
      "outputs": [
        {
          "internalType": "uint256",
          "name": "amountIn",
          "type": "uint256"
        },
        {
          "internalType": "uint256",
          "name": "amountOut",
          "type": "uint256"
        }
      ],
      "stateMutability": "nonpayable",
      "type": "function"
    },
    {
      "inputs": [
        {
          "internalType": "uint256",
          "name": "marketId",
          "type": "uint256"
        },
        {
          "internalType": "uint16",
          "name": "point",
          "type": "uint16"
        },
        {
          "internalType": "uint256",
          "name": "funnel",
          "type": "uint256"
        }
      ],
      "name": "claimFunnel",
      "outputs": [
        {
          "internalType": "uint256",
          "name": "claimedAmount",
          "type": "uint256"
        }
      ],
      "stateMutability": "nonpayable",
      "type": "function"
    },
    {
      "inputs": [
        {
          "internalType": "uint256",
          "name": "marketId",
          "type": "uint256"
        },
        {
          "internalType": "bool",
          "name": "atLoss",
          "type": "bool"
        },
        {
          "internalType": "bool",
          "name": "resolve",
          "type": "bool"
        },
        {
          "internalType": "uint256",
          "name": "rp",
          "type": "uint256"
        }
      ],
      "name": "deactivateMarket",
      "outputs": [],
      "stateMutability": "nonpayable",
      "type": "function"
    },
    {
      "inputs": [
        {
          "internalType": "uint256",
          "name": "marketId",
          "type": "uint256"
        }
      ],
      "name": "denyMarket",
      "outputs": [],
      "stateMutability": "nonpayable",
      "type": "function"
    },
    {
      "inputs": [
        {
          "internalType": "uint256",
          "name": "marketId",
          "type": "uint256"
        }
      ],
      "name": "getCurrentMarketPhase",
      "outputs": [
        {
          "internalType": "uint256",
          "name": "",
          "type": "uint256"
        }
      ],
      "stateMutability": "view",
      "type": "function"
    },
    {
      "inputs": [
        {
          "internalType": "uint256",
          "name": "_id",
          "type": "uint256"
        }
      ],
      "name": "getMarket",
      "outputs": [
        {
          "components": [
            {
              "internalType": "contract SyntheticZCBPool",
              "name": "bondPool",
              "type": "address"
            },
            {
              "internalType": "contract ERC20",
              "name": "longZCB",
              "type": "address"
            },
            {
              "internalType": "contract ERC20",
              "name": "shortZCB",
              "type": "address"
            },
            {
              "internalType": "string",
              "name": "description",
              "type": "string"
            },
            {
              "internalType": "uint256",
              "name": "creationTimestamp",
              "type": "uint256"
            },
            {
              "internalType": "uint256",
              "name": "resolutionTimestamp",
              "type": "uint256"
            },
            {
              "internalType": "bool",
              "name": "isPool",
              "type": "bool"
            }
          ],
          "internalType": "struct CoreMarketData",
          "name": "",
          "type": "tuple"
        }
      ],
      "stateMutability": "view",
      "type": "function"
    },
    {
      "inputs": [
        {
          "internalType": "uint256",
          "name": "marketId",
          "type": "uint256"
        }
      ],
      "name": "getParameters",
      "outputs": [
        {
          "components": [
            {
              "internalType": "uint256",
              "name": "N",
              "type": "uint256"
            },
            {
              "internalType": "uint256",
              "name": "sigma",
              "type": "uint256"
            },
            {
              "internalType": "uint256",
              "name": "alpha",
              "type": "uint256"
            },
            {
              "internalType": "uint256",
              "name": "omega",
              "type": "uint256"
            },
            {
              "internalType": "uint256",
              "name": "delta",
              "type": "uint256"
            },
            {
              "internalType": "uint256",
              "name": "r",
              "type": "uint256"
            },
            {
              "internalType": "uint256",
              "name": "s",
              "type": "uint256"
            },
            {
              "internalType": "uint256",
              "name": "steak",
              "type": "uint256"
            }
          ],
          "internalType": "struct MarketParameters",
          "name": "",
          "type": "tuple"
        }
      ],
      "stateMutability": "view",
      "type": "function"
    },
    {
      "inputs": [
        {
          "internalType": "uint256",
          "name": "marketId",
          "type": "uint256"
        }
      ],
      "name": "getPhaseData",
      "outputs": [
        {
          "components": [
            {
              "internalType": "bool",
              "name": "duringAssessment",
              "type": "bool"
            },
            {
              "internalType": "bool",
              "name": "onlyReputable",
              "type": "bool"
            },
            {
              "internalType": "bool",
              "name": "resolved",
              "type": "bool"
            },
            {
              "internalType": "bool",
              "name": "alive",
              "type": "bool"
            },
            {
              "internalType": "bool",
              "name": "atLoss",
              "type": "bool"
            },
            {
              "internalType": "uint256",
              "name": "base_budget",
              "type": "uint256"
            }
          ],
          "internalType": "struct MarketPhaseData",
          "name": "",
          "type": "tuple"
        }
      ],
      "stateMutability": "view",
      "type": "function"
    },
    {
      "inputs": [
        {
          "internalType": "uint256",
          "name": "marketId",
          "type": "uint256"
        }
      ],
      "name": "getPool",
      "outputs": [
        {
          "internalType": "contract SyntheticZCBPool",
          "name": "",
          "type": "address"
        }
      ],
      "stateMutability": "view",
      "type": "function"
    },
    {
      "inputs": [
        {
          "internalType": "uint256",
          "name": "marketId",
          "type": "uint256"
        }
      ],
      "name": "getShortZCB",
      "outputs": [
        {
          "internalType": "contract ERC20",
          "name": "",
          "type": "address"
        }
      ],
      "stateMutability": "view",
      "type": "function"
    },
    {
      "inputs": [
        {
          "internalType": "uint256",
          "name": "marketId",
          "type": "uint256"
        },
        {
          "internalType": "address",
          "name": "trader",
          "type": "address"
        }
      ],
      "name": "getTraderBudget",
      "outputs": [
        {
          "internalType": "uint256",
          "name": "",
          "type": "uint256"
        }
      ],
      "stateMutability": "view",
      "type": "function"
    },
    {
      "inputs": [
        {
          "internalType": "uint256",
          "name": "marketId",
          "type": "uint256"
        }
      ],
      "name": "getZCB",
      "outputs": [
        {
          "internalType": "contract ERC20",
          "name": "",
          "type": "address"
        }
      ],
      "stateMutability": "view",
      "type": "function"
    },
    {
      "inputs": [
        {
          "internalType": "uint256",
          "name": "marketId",
          "type": "uint256"
        }
      ],
      "name": "isMarketApproved",
      "outputs": [
        {
          "internalType": "bool",
          "name": "",
          "type": "bool"
        }
      ],
      "stateMutability": "view",
      "type": "function"
    },
    {
      "inputs": [
        {
          "internalType": "uint256",
          "name": "marketId",
          "type": "uint256"
        }
      ],
      "name": "isMarketResolved",
      "outputs": [
        {
          "internalType": "bool",
          "name": "",
          "type": "bool"
        }
      ],
      "stateMutability": "view",
      "type": "function"
    },
    {
      "inputs": [
        {
          "internalType": "uint256",
          "name": "_marketId",
          "type": "uint256"
        },
        {
          "internalType": "uint256",
          "name": "_amountIn",
          "type": "uint256"
        },
        {
          "internalType": "address",
          "name": "_caller",
          "type": "address"
        },
        {
          "internalType": "address",
          "name": "trader",
          "type": "address"
        }
      ],
      "name": "issueBond",
      "outputs": [
        {
          "internalType": "uint256",
          "name": "issueQTY",
          "type": "uint256"
        }
      ],
      "stateMutability": "nonpayable",
      "type": "function"
    },
    {
      "inputs": [
        {
          "internalType": "uint256",
          "name": "_marketId",
          "type": "uint256"
        },
        {
          "internalType": "uint256",
          "name": "_amountIn",
          "type": "uint256"
        }
      ],
      "name": "issuePoolBond",
      "outputs": [
        {
          "internalType": "uint256",
          "name": "issueQTY",
          "type": "uint256"
        }
      ],
      "stateMutability": "nonpayable",
      "type": "function"
    },
    {
      "inputs": [
        {
          "internalType": "uint256",
          "name": "",
          "type": "uint256"
        }
      ],
      "name": "loggedCollaterals",
      "outputs": [
        {
          "internalType": "uint256",
          "name": "",
          "type": "uint256"
        }
      ],
      "stateMutability": "view",
      "type": "function"
    },
    {
      "inputs": [
        {
          "internalType": "uint256",
          "name": "",
          "type": "uint256"
        },
        {
          "internalType": "address",
          "name": "",
          "type": "address"
        }
      ],
      "name": "longTrades",
      "outputs": [
        {
          "internalType": "uint256",
          "name": "",
          "type": "uint256"
        }
      ],
      "stateMutability": "view",
      "type": "function"
    },
    {
      "inputs": [],
      "name": "makeEmptyMarketData",
      "outputs": [
        {
          "components": [
            {
              "internalType": "contract SyntheticZCBPool",
              "name": "bondPool",
              "type": "address"
            },
            {
              "internalType": "contract ERC20",
              "name": "longZCB",
              "type": "address"
            },
            {
              "internalType": "contract ERC20",
              "name": "shortZCB",
              "type": "address"
            },
            {
              "internalType": "string",
              "name": "description",
              "type": "string"
            },
            {
              "internalType": "uint256",
              "name": "creationTimestamp",
              "type": "uint256"
            },
            {
              "internalType": "uint256",
              "name": "resolutionTimestamp",
              "type": "uint256"
            },
            {
              "internalType": "bool",
              "name": "isPool",
              "type": "bool"
            }
          ],
          "internalType": "struct CoreMarketData",
          "name": "",
          "type": "tuple"
        }
      ],
      "stateMutability": "pure",
      "type": "function"
    },
    {
      "inputs": [],
      "name": "marketCount",
      "outputs": [
        {
          "internalType": "uint256",
          "name": "",
          "type": "uint256"
        }
      ],
      "stateMutability": "view",
      "type": "function"
    },
    {
      "inputs": [
        {
          "internalType": "uint256",
          "name": "",
          "type": "uint256"
        }
      ],
      "name": "markets",
      "outputs": [
        {
          "internalType": "contract SyntheticZCBPool",
          "name": "bondPool",
          "type": "address"
        },
        {
          "internalType": "contract ERC20",
          "name": "longZCB",
          "type": "address"
        },
        {
          "internalType": "contract ERC20",
          "name": "shortZCB",
          "type": "address"
        },
        {
          "internalType": "string",
          "name": "description",
          "type": "string"
        },
        {
          "internalType": "uint256",
          "name": "creationTimestamp",
          "type": "uint256"
        },
        {
          "internalType": "uint256",
          "name": "resolutionTimestamp",
          "type": "uint256"
        },
        {
          "internalType": "bool",
          "name": "isPool",
          "type": "bool"
        }
      ],
      "stateMutability": "view",
      "type": "function"
    },
    {
      "inputs": [
        {
          "internalType": "uint256",
          "name": "marketId",
          "type": "uint256"
        },
        {
          "internalType": "contract SyntheticZCBPool",
          "name": "bondPool",
          "type": "address"
        },
        {
          "internalType": "address",
          "name": "_longZCB",
          "type": "address"
        },
        {
          "internalType": "address",
          "name": "_shortZCB",
          "type": "address"
        },
        {
          "internalType": "string",
          "name": "_description",
          "type": "string"
        },
        {
          "internalType": "bool",
          "name": "isPool",
          "type": "bool"
        }
      ],
      "name": "newMarket",
      "outputs": [],
      "stateMutability": "nonpayable",
      "type": "function"
    },
    {
      "inputs": [],
      "name": "owner",
      "outputs": [
        {
          "internalType": "address",
          "name": "",
          "type": "address"
        }
      ],
      "stateMutability": "view",
      "type": "function"
    },
    {
      "inputs": [
        {
          "internalType": "uint256",
          "name": "",
          "type": "uint256"
        }
      ],
      "name": "parameters",
      "outputs": [
        {
          "internalType": "uint256",
          "name": "N",
          "type": "uint256"
        },
        {
          "internalType": "uint256",
          "name": "sigma",
          "type": "uint256"
        },
        {
          "internalType": "uint256",
          "name": "alpha",
          "type": "uint256"
        },
        {
          "internalType": "uint256",
          "name": "omega",
          "type": "uint256"
        },
        {
          "internalType": "uint256",
          "name": "delta",
          "type": "uint256"
        },
        {
          "internalType": "uint256",
          "name": "r",
          "type": "uint256"
        },
        {
          "internalType": "uint256",
          "name": "s",
          "type": "uint256"
        },
        {
          "internalType": "uint256",
          "name": "steak",
          "type": "uint256"
        }
      ],
      "stateMutability": "view",
      "type": "function"
    },
    {
      "inputs": [],
      "name": "queuedRepThreshold",
      "outputs": [
        {
          "internalType": "uint8",
          "name": "",
          "type": "uint8"
        }
      ],
      "stateMutability": "view",
      "type": "function"
    },
    {
      "inputs": [
        {
          "internalType": "address",
          "name": "",
          "type": "address"
        }
      ],
      "name": "queuedRepUpdates",
      "outputs": [
        {
          "internalType": "uint8",
          "name": "",
          "type": "uint8"
        }
      ],
      "stateMutability": "view",
      "type": "function"
    },
    {
      "inputs": [
        {
          "internalType": "uint256",
          "name": "marketId",
          "type": "uint256"
        }
      ],
      "name": "redeem",
      "outputs": [
        {
          "internalType": "uint256",
          "name": "collateral_redeem_amount",
          "type": "uint256"
        }
      ],
      "stateMutability": "nonpayable",
      "type": "function"
    },
    {
      "inputs": [
        {
          "internalType": "uint256",
          "name": "marketId",
          "type": "uint256"
        },
        {
          "internalType": "bool",
          "name": "isLong",
          "type": "bool"
        }
      ],
      "name": "redeemDeniedMarket",
      "outputs": [],
      "stateMutability": "nonpayable",
      "type": "function"
    },
    {
      "inputs": [
        {
          "internalType": "uint256",
          "name": "marketId",
          "type": "uint256"
        },
        {
          "internalType": "uint256",
          "name": "redeemAmount",
          "type": "uint256"
        },
        {
          "internalType": "address",
          "name": "caller",
          "type": "address"
        },
        {
          "internalType": "address",
          "name": "trader",
          "type": "address"
        }
      ],
      "name": "redeemPerpLongZCB",
      "outputs": [
        {
          "internalType": "uint256",
          "name": "collateral_redeem_amount",
          "type": "uint256"
        },
        {
          "internalType": "uint256",
          "name": "seniorAmount",
          "type": "uint256"
        }
      ],
      "stateMutability": "nonpayable",
      "type": "function"
    },
    {
      "inputs": [
        {
          "internalType": "uint256",
          "name": "marketId",
          "type": "uint256"
        },
        {
          "internalType": "uint256",
          "name": "redeemAmount",
          "type": "uint256"
        }
      ],
      "name": "redeemPerpShortZCB",
      "outputs": [
        {
          "internalType": "uint256",
          "name": "collateral_redeem_amount",
          "type": "uint256"
        },
        {
          "internalType": "uint256",
          "name": "seniorAmount",
          "type": "uint256"
        },
        {
          "internalType": "uint256",
          "name": "juniorAmount",
          "type": "uint256"
        }
      ],
      "stateMutability": "nonpayable",
      "type": "function"
    },
    {
      "inputs": [
        {
          "internalType": "uint256",
          "name": "marketId",
          "type": "uint256"
        },
        {
          "internalType": "uint256",
          "name": "redeemAmount",
          "type": "uint256"
        }
      ],
      "name": "redeemPoolLongZCB",
      "outputs": [
        {
          "internalType": "uint256",
          "name": "collateral_redeem_amount",
          "type": "uint256"
        },
        {
          "internalType": "uint256",
          "name": "seniorAmount",
          "type": "uint256"
        }
      ],
      "stateMutability": "nonpayable",
      "type": "function"
    },
    {
      "inputs": [
        {
          "internalType": "uint256",
          "name": "marketId",
          "type": "uint256"
        }
      ],
      "name": "redeemShortZCB",
      "outputs": [
        {
          "internalType": "uint256",
          "name": "collateral_redeem_amount",
          "type": "uint256"
        }
      ],
      "stateMutability": "nonpayable",
      "type": "function"
    },
    {
      "inputs": [
        {
          "internalType": "uint256",
          "name": "",
          "type": "uint256"
        }
      ],
      "name": "redemption_prices",
      "outputs": [
        {
          "internalType": "uint256",
          "name": "",
          "type": "uint256"
        }
      ],
      "stateMutability": "view",
      "type": "function"
    },
    {
      "inputs": [
        {
          "internalType": "uint256",
          "name": "",
          "type": "uint256"
        }
      ],
      "name": "restriction_data",
      "outputs": [
        {
          "internalType": "bool",
          "name": "duringAssessment",
          "type": "bool"
        },
        {
          "internalType": "bool",
          "name": "onlyReputable",
          "type": "bool"
        },
        {
          "internalType": "bool",
          "name": "resolved",
          "type": "bool"
        },
        {
          "internalType": "bool",
          "name": "alive",
          "type": "bool"
        },
        {
          "internalType": "bool",
          "name": "atLoss",
          "type": "bool"
        },
        {
          "internalType": "uint256",
          "name": "base_budget",
          "type": "uint256"
        }
      ],
      "stateMutability": "view",
      "type": "function"
    },
    {
      "inputs": [
        {
          "internalType": "address",
          "name": "dataStore",
          "type": "address"
        }
      ],
      "name": "setDataStore",
      "outputs": [],
      "stateMutability": "nonpayable",
      "type": "function"
    },
    {
      "inputs": [
        {
          "internalType": "address",
          "name": "_leverageManager",
          "type": "address"
        }
      ],
      "name": "setLeverageManager",
      "outputs": [],
      "stateMutability": "nonpayable",
      "type": "function"
    },
    {
      "inputs": [
        {
          "components": [
            {
              "internalType": "uint256",
              "name": "N",
              "type": "uint256"
            },
            {
              "internalType": "uint256",
              "name": "sigma",
              "type": "uint256"
            },
            {
              "internalType": "uint256",
              "name": "alpha",
              "type": "uint256"
            },
            {
              "internalType": "uint256",
              "name": "omega",
              "type": "uint256"
            },
            {
              "internalType": "uint256",
              "name": "delta",
              "type": "uint256"
            },
            {
              "internalType": "uint256",
              "name": "r",
              "type": "uint256"
            },
            {
              "internalType": "uint256",
              "name": "s",
              "type": "uint256"
            },
            {
              "internalType": "uint256",
              "name": "steak",
              "type": "uint256"
            }
          ],
          "internalType": "struct MarketParameters",
          "name": "param",
          "type": "tuple"
        },
        {
          "internalType": "uint256",
          "name": "utilizationRate",
          "type": "uint256"
        },
        {
          "internalType": "uint256",
          "name": "marketId",
          "type": "uint256"
        }
      ],
      "name": "setParameters",
      "outputs": [],
      "stateMutability": "nonpayable",
      "type": "function"
    },
    {
      "inputs": [
        {
          "internalType": "address",
          "name": "_reputationManager",
          "type": "address"
        }
      ],
      "name": "setReputationManager",
      "outputs": [],
      "stateMutability": "nonpayable",
      "type": "function"
    },
    {
      "inputs": [
        {
          "internalType": "uint256",
          "name": "_marketId",
          "type": "uint256"
        },
        {
          "internalType": "uint256",
          "name": "_amountIn",
          "type": "uint256"
        },
        {
          "internalType": "uint256",
          "name": "_priceLimit",
          "type": "uint256"
        },
        {
          "internalType": "bytes",
          "name": "_tradeRequestData",
          "type": "bytes"
        }
      ],
      "name": "shortBond",
      "outputs": [
        {
          "internalType": "uint256",
          "name": "amountIn",
          "type": "uint256"
        },
        {
          "internalType": "uint256",
          "name": "amountOut",
          "type": "uint256"
        }
      ],
      "stateMutability": "nonpayable",
      "type": "function"
    },
    {
      "inputs": [
        {
          "internalType": "uint256",
          "name": "",
          "type": "uint256"
        },
        {
          "internalType": "address",
          "name": "",
          "type": "address"
        }
      ],
      "name": "shortTrades",
      "outputs": [
        {
          "internalType": "uint256",
          "name": "",
          "type": "uint256"
        }
      ],
      "stateMutability": "view",
      "type": "function"
    },
    {
      "inputs": [
        {
          "internalType": "uint256",
          "name": "amount",
          "type": "uint256"
        },
        {
          "internalType": "bytes",
          "name": "data",
          "type": "bytes"
        }
      ],
      "name": "tradeCallBack",
      "outputs": [],
      "stateMutability": "nonpayable",
      "type": "function"
    },
    {
      "inputs": [
        {
          "internalType": "address",
          "name": "token",
          "type": "address"
        },
        {
          "internalType": "address",
          "name": "trader",
          "type": "address"
        },
        {
          "internalType": "address",
          "name": "to",
          "type": "address"
        },
        {
          "internalType": "uint256",
          "name": "amount",
          "type": "uint256"
        }
      ],
      "name": "transferTraderCap",
      "outputs": [],
      "stateMutability": "nonpayable",
      "type": "function"
    },
    {
      "inputs": [
        {
          "internalType": "uint256",
          "name": "marketId",
          "type": "uint256"
        },
        {
          "internalType": "uint256",
          "name": "collateral_required",
          "type": "uint256"
        },
        {
          "internalType": "uint256",
          "name": "zcb_for_sale",
          "type": "uint256"
        },
        {
          "internalType": "address",
          "name": "validator",
          "type": "address"
        }
      ],
      "name": "validatorApprove",
      "outputs": [],
      "stateMutability": "nonpayable",
      "type": "function"
    }
  ],
  "bytecode": {
    "object": "0x60806040523480156200001157600080fd5b5060405162005d5538038062005d558339810160408190526200003491620001e5565b60008054610100600160a81b0319166101006001600160a01b038716021790556002620000fc6040805160e0810182526000808252602082018190529181018290526060808201526080810182905260a0810182905260c08101919091526040518060e0016040528060006001600160a01b0316815260200160006001600160a01b0316815260200160006001600160a01b03168152602001604051806020016040528060008152508152602001600081526020016000815260200160001515815250905090565b8154600180820184556000938452602093849020835160079093020180546001600160a01b03199081166001600160a01b0394851617825594840151918101805486169284169290921790915560408301516002820180549095169216919091179092556060810151909190600382019062000179908262000301565b506080820151600482015560a0820151600582015560c0909101516006909101805491151560ff199092169190911790555050600380546001600160a01b0319163317905550620003cd915050565b80516001600160a01b0381168114620001e057600080fd5b919050565b600080600080600060a08688031215620001fe57600080fd5b6200020986620001c8565b94506200021960208701620001c8565b93506200022960408701620001c8565b6060870151608088015191945092506001600160401b03811681146200024e57600080fd5b809150509295509295909350565b634e487b7160e01b600052604160045260246000fd5b600181811c908216806200028757607f821691505b602082108103620002a857634e487b7160e01b600052602260045260246000fd5b50919050565b601f821115620002fc57600081815260208120601f850160051c81016020861015620002d75750805b601f850160051c820191505b81811015620002f857828155600101620002e3565b5050505b505050565b81516001600160401b038111156200031d576200031d6200025c565b62000335816200032e845462000272565b84620002ae565b602080601f8311600181146200036d5760008415620003545750858301515b600019600386901b1c1916600185901b178555620002f8565b600085815260208120601f198616915b828110156200039e578886015182559484019460019091019084016200037d565b5085821015620003bd5787850151600019600388901b60f8161c191681555b5050505050600190811b01905550565b61597880620003dd6000396000f3fe608060405234801561001057600080fd5b50600436106102d55760003560e01c8063727b887f11610182578063b900a0ed116100e9578063da520d3e116100a2578063ec9790821161007c578063ec97908214610921578063f304c27814610929578063f4a9e9ba1461093c578063f62f14b01461094f57600080fd5b8063da520d3e146108e8578063db006a75146108fb578063eb44fdd31461090e57600080fd5b8063b900a0ed14610859578063c6ceb96b1461087c578063cabe2ae11461089c578063cd9f08a1146108af578063d5725953146108c2578063d70a9f50146108d557600080fd5b80638da5cb5b1161013b5780638da5cb5b146107d4578063920f4e55146107e757806397dcec16146107fa5780639ec334161461080d578063a72be9a114610820578063b1283e771461083357600080fd5b8063727b887f146106c557806373124349146106d85780637c9bc5ce146106eb578063839ee8f61461070b578063897ca174146107205780638a6cac3d1461074b57600080fd5b80634cb440871161024157806356a837f4116101fa57806363f960d8116101d457806363f960d81461066c578063661f1cf51461067f578063669623a61461069f57806371bd6a09146106b257600080fd5b806356a837f4146106185780635e96eedc1461062b57806361fa5af51461065957600080fd5b80634cb440871461049d5780634cba8cde146104b05780634e042a59146105bc578063500065d2146105cf57806351ba6522146105e257806353ac55f5146105f557600080fd5b8063203b243411610293578063203b24341461038e578063214b3987146103a15780632a4a9dd1146103cc5780633db969f41461045d57806341741c06146104705780634b6e7d781461048a57600080fd5b80625c2ac3146102da578063029fcf4a14610307578063061427c514610328578063068bcd8d1461033b578063153542cc146103665780631ed281e414610379575b600080fd5b6102ed6102e8366004614afe565b610962565b604080519283526020830191909152015b60405180910390f35b61031a610315366004614b84565b61104b565b6040519081526020016102fe565b6102ed610336366004614b84565b6115e8565b61034e610349366004614bce565b611a51565b6040516001600160a01b0390911681526020016102fe565b61034e610374366004614bce565b611a86565b61038c610387366004614be7565b611abe565b005b61038c61039c366004614c30565b611c04565b61031a6103af366004614cb8565b600860209081526000928352604080842090915290825290205481565b6104226103da366004614bce565b60066020528060005260406000206000915090508060000154908060010154908060020154908060030154908060040154908060050154908060060154908060070154905088565b604080519889526020890197909752958701949094526060860192909252608085015260a084015260c083015260e0820152610100016102fe565b6102ed61046b366004614ce8565b611db2565b610478600381565b60405160ff90911681526020016102fe565b600b5461034e906001600160a01b031681565b61038c6104ab366004614bce565b611f4b565b6105666104be366004614bce565b6040805160c081018252600080825260208201819052918101829052606081018290526080810182905260a081019190915250600090815260056020908152604091829020825160c081018452815460ff8082161515835261010082048116151594830194909452620100008104841615159482019490945263010000008404831615156060820152640100000000909304909116151560808301526001015460a082015290565b6040516102fe9190600060c08201905082511515825260208301511515602083015260408301511515604083015260608301511515606083015260808301511515608083015260a083015160a083015292915050565b61038c6105ca366004614dda565b612032565b61038c6105dd366004614e6f565b61221d565b6102ed6105f0366004614ce8565b61228d565b610608610603366004614bce565b61234e565b60405190151581526020016102fe565b61038c610626366004614e6f565b61238e565b61063e610639366004614e8c565b6123fe565b604080519384526020840192909252908201526060016102fe565b61038c610667366004614eae565b61286c565b61038c61067a366004614ef6565b612957565b61031a61068d366004614bce565b600a6020526000908152604090205481565b61038c6106ad366004614f1b565b612f67565b6102ed6106c0366004614e8c565b61311a565b61031a6106d3366004614bce565b6131d7565b61031a6106e6366004614e8c565b61356d565b61031a6106f9366004614bce565b60046020526000908152604090205481565b610713613671565b6040516102fe9190614fa1565b61031a61072e366004614cb8565b600960209081526000928352604080842090915290825290205481565b61079d610759366004614bce565b6005602052600090815260409020805460019091015460ff808316926101008104821692620100008204831692630100000083048116926401000000009004169086565b60408051961515875294151560208701529215159385019390935215156060840152901515608083015260a082015260c0016102fe565b60035461034e906001600160a01b031681565b61034e6107f5366004614bce565b613713565b61031a610808366004614bce565b61374b565b61060861081b366004614bce565b613847565b61031a61082e366004615016565b61387e565b610846610841366004614bce565b6138a0565b6040516102fe9796959493929190615055565b610478610867366004614e6f565b600d6020526000908152604090205460ff1681565b61088f61088a366004614bce565b61398c565b6040516102fe91906150aa565b61038c6108aa366004614bce565b613a41565b61038c6108bd366004615103565b613acf565b61031a6108d0366004614cb8565b613b92565b61038c6108e3366004614be7565b613c55565b61038c6108f6366004615144565b613d3f565b61031a610909366004614bce565b613e1e565b61071361091c366004614bce565b61431f565b60025461031a565b61038c610937366004614e6f565b614485565b61038c61094a36600461518f565b6144f5565b61060861095d3660046151e1565b6145fe565b60008054819060ff16156109915760405162461bcd60e51b815260040161098890615216565b60405180910390fd5b6000805460ff19166001179055333014806109b65750600c546001600160a01b031633145b6109d25760405162461bcd60e51b81526004016109889061523b565b6109da6149f0565b60008a815260056020908152604091829020825160c081018452815460ff808216151583526101008204811615159483019490945262010000810484161515948201948552630100000081048416151560608301526401000000009004909216151560808301526001015460a08201526101208301525115610a8d5760405162461bcd60e51b815260206004820152600c60248201526b1b9bdd081c995cdbdb1d995960a21b6044820152606401610988565b61012081015151610ad25760405162461bcd60e51b815260206004820152600f60248201526e1bdb9b1e48185cdcd95cdcdb595b9d608a1b6044820152606401610988565b610adc8a85613b92565b60208201819052610af29085908b908d90611abe565b600060028b81548110610b0757610b07615262565b60009182526020918290206040805160e081018252600790930290910180546001600160a01b0390811684526001820154811694840194909452600281015490931690820152600382018054919291606084019190610b6590615278565b80601f0160208091040260200160405190810160405280929190818152602001828054610b9190615278565b8015610bde5780601f10610bb357610100808354040283529160200191610bde565b820191906000526020600020905b815481529060010190602001808311610bc157829003601f168201915b5050505050815260200160048201548152602001600582015481526020016006820160009054906101000a900460ff1615151515815250509050600081600001519050806001600160a01b031663244d59cb60018d8d8b604051602001610c5491906001600160a01b0391909116815260200190565b6040516020818303038152906040526040518563ffffffff1660e01b8152600401610c8294939291906152b2565b60408051808303816000875af1158015610ca0573d6000803e3d6000fd5b505050506040513d601f19601f82011682018060405250810190610cc491906152e3565b8095508196505050806001600160a01b031663b09ad8a06040518163ffffffff1660e01b8152600401602060405180830381865afa158015610d0a573d6000803e3d6000fd5b505050506040513d601f19601f82011682018060405250810190610d2e9190615307565b80845215801590610da05750806001600160a01b03166311e715d66040518163ffffffff1660e01b8152600401602060405180830381865afa158015610d78573d6000803e3d6000fd5b505050506040513d601f19601f82011682018060405250810190610d9c9190615307565b8351105b15610ddc5760405162461bcd60e51b815260206004820152600c60248201526b195e18d9595908189bdd5b9960a21b6044820152606401610988565b610dec8c8787600060018061463d565b610df68c87613b92565b836020018181525050600160009054906101000a90046001600160a01b03166001600160a01b0316632e1a65d3878e878988602001518860c001516040518763ffffffff1660e01b8152600401610e82969594939291906001600160a01b039690961686526020860194909452604085019290925260608401526080830152151560a082015260c00190565b600060405180830381600087803b158015610e9c57600080fd5b505af1158015610eb0573d6000803e3d6000fd5b50505050826101200151602001511561103057600054604051632500ed8d60e21b8152600481018e9052610fc59161010090046001600160a01b031690639403b63490602401602060405180830381865afa158015610f13573d6000803e3d6000fd5b505050506040513d601f19601f82011682018060405250810190610f379190615320565b6001600160a01b0316639ec4d40e8e6040518263ffffffff1660e01b8152600401610f6491815260200190565b600060405180830381865afa158015610f81573d6000803e3d6000fd5b505050506040513d6000823e601f3d908101601f19168201604052610fa99190810190615448565b60c0015160008e81526006602052604090206003015490614858565b604080850182905260008e8152600a6020522054106110305760008c81526005602052604090819020805461ff001916815590518d917f638289bd0053d37020d3cfacc73bb398f0d6702821a30abdcaed824bb4a8ebb991611027919061556d565b60405180910390a25b50506000805460ff1916905550909890975095505050505050565b60006110556149f0565b3330148061106d5750600c546001600160a01b031633145b6110895760405162461bcd60e51b81526004016109889061523b565b6110998386886108e38a88613b92565b600054604051632500ed8d60e21b8152600481018890526101009091046001600160a01b031690639403b63490602401602060405180830381865afa1580156110e6573d6000803e3d6000fd5b505050506040513d601f19601f8201168201806040525081019061110a9190615320565b6001600160a01b031660c0820152600280548790811061112c5761112c615262565b6000918252602091829020600790910201546040805163c55dae6360e01b815290516001600160a01b039092169263c55dae63926004808401938290030181865afa15801561117f573d6000803e3d6000fd5b505050506040513d601f19601f820116820180604052508101906111a39190615320565b6001600160a01b0390811660e083015260c08201516040516350c6e6cf60e01b8152600481018990529116906350c6e6cf90602401602060405180830381865afa1580156111f5573d6000803e3d6000fd5b505050506040513d601f19601f820116820180604052508101906112199190615320565b6001600160a01b03908116610100830152600b5460405163713091a760e01b81526004810189905291169063713091a790602401606060405180830381865afa15801561126a573d6000803e3d6000fd5b505050506040513d601f19601f8201168201806040525081019061128e91906155c8565b60a08401526060830152608082015260e08101516040516323b872dd60e01b81526001600160a01b03909116906323b872dd906112d390879030908a906004016155f6565b6020604051808303816000875af11580156112f2573d6000803e3d6000fd5b505050506040513d601f19601f82011682018060405250810190611316919061561a565b5060e081015161010082015160405163095ea7b360e01b81526001600160a01b0391821660048201526024810188905291169063095ea7b3906044016020604051808303816000875af1158015611371573d6000803e3d6000fd5b505050506040513d601f19601f82011682018060405250810190611395919061561a565b5061010081015160c0820151604051636e553f6560e01b8152600481018890526001600160a01b039182166024820152911690636e553f65906044016020604051808303816000875af11580156113f0573d6000803e3d6000fd5b505050506040513d601f19601f820116820180604052508101906114149190615307565b506060810151611425908690614874565b91506002868154811061143a5761143a615262565b600091825260209091206007909102015460405163681504cd60e01b81526001600160a01b038681166004830152602482018590529091169063681504cd90604401600060405180830381600087803b15801561149657600080fd5b505af11580156114aa573d6000803e3d6000fd5b505050508060c001516001600160a01b03166334928ace876114e784608001516114e18660a001518861485890919063ffffffff16565b90614858565b6040516001600160e01b031960e085901b1681526004810192909252602482015260016044820152606401600060405180830381600087803b15801561152c57600080fd5b505af1158015611540573d6000803e3d6000fd5b50506001546001600160a01b03169150632e1a65d39050848885896115658385613b92565b6040516001600160e01b031960e088901b1681526001600160a01b0390951660048601526024850193909352604484019190915260648301526084820152600160a482015260c401600060405180830381600087803b1580156115c757600080fd5b505af11580156115db573d6000803e3d6000fd5b5050505050949350505050565b600080333014806116035750600c546001600160a01b031633145b61161f5760405162461bcd60e51b81526004016109889061523b565b60008054604051632500ed8d60e21b8152600481018990526101009091046001600160a01b031690639403b63490602401602060405180830381865afa15801561166d573d6000803e3d6000fd5b505050506040513d601f19601f820116820180604052508101906116919190615320565b90506000600288815481106116a8576116a8615262565b60009182526020918290206040805160e081018252600790930290910180546001600160a01b039081168452600182015481169484019490945260028101549093169082015260038201805491929160608401919061170690615278565b80601f016020809104026020016040519081016040528092919081815260200182805461173290615278565b801561177f5780601f106117545761010080835404028352916020019161177f565b820191906000526020600020905b81548152906001019060200180831161176257829003601f168201915b5050509183525050600482015460208201526005820154604082015260069091015460ff16151560609091015290506117b66149f0565b8160c001516117ef5760405162461bcd60e51b8152602060048201526005602482015264085c1bdbdb60da1b6044820152606401610988565b600b5460405163713091a760e01b8152600481018b90526001600160a01b039091169063713091a790602401606060405180830381865afa158015611838573d6000803e3d6000fd5b505050506040513d601f19601f8201168201806040525081019061185c91906155c8565b60a084015260608301819052608083019190915261187a9089614858565b945061189b81608001516114e18360a001518b61485890919063ffffffff16565b6040516372661f3b60e11b8152600481018b9052602481018790526001600160a01b038981166044830152606482018390529195509084169063e4cc3e7690608401600060405180830381600087803b1580156118f757600080fd5b505af115801561190b573d6000803e3d6000fd5b505050506001600160a01b0386166000908152600d602052604090205460ff161561195f576001600160a01b0386166000908152600d60205260409020805460ff19811660ff918216600019019091161790555b815160405163c93ac3ed60e01b81526001600160a01b039091169063c93ac3ed90611993908a908c90600190600401615637565b600060405180830381600087803b1580156119ad57600080fd5b505af11580156119c1573d6000803e3d6000fd5b50506001546060840151604051639bf7927d60e01b81526001600160a01b038b81166004830152602482018f9052604482019290925260006064820152608481018d905291169250639bf7927d915060a401600060405180830381600087803b158015611a2d57600080fd5b505af1158015611a41573d6000803e3d6000fd5b5050505050505094509492505050565b600060028281548110611a6657611a66615262565b60009182526020909120600790910201546001600160a01b031692915050565b600060028281548110611a9b57611a9b615262565b60009182526020909120600160079092020101546001600160a01b031692915050565b6000828152600560205260409020546301000000900460ff16611af35760405162461bcd60e51b81526004016109889061565a565b60008281526005602052604081205460ff808216926101009092041690851315611b29578115611b2957611b2986868686613c55565b8015611bfc57600080548582526006602052604091829020600501549151637453c01360e11b81526001600160a01b03898116600483015260248201939093526101009091049091169063e8a7802690604401602060405180830381865afa158015611b99573d6000803e3d6000fd5b505050506040513d601f19601f82011682018060405250810190611bbd919061561a565b611bfc5760405162461bcd60e51b815260206004820152601060248201526f0696e73756666696369656e74207265760841b6044820152606401610988565b505050505050565b60005461010090046001600160a01b0316331480611c2c57506003546001600160a01b031633145b80611c3657503330145b611c525760405162461bcd60e51b81526004016109889061567b565b600042905060026040518060e00160405280896001600160a01b03168152602001886001600160a01b03168152602001876001600160a01b0316815260200186868080601f01602080910402602001604051908101604052809392919081815260200183838082843760009201829052509385525050506020808301869052604080840183905287151560609485015285546001818101885596845292829020855160079094020180546001600160a01b039485166001600160a01b0319918216178255928601519681018054978516978416979097179096558401516002860180549190931691161790558101519091906003820190611d5390826156eb565b506080820151600482015560a0820151600582015560c0909101516006909101805460ff19169115159190911790556000611d98670de0b6b3a76400006103e86157c0565b9050611da78960018084614889565b505050505050505050565b60008054819060ff1615611dd85760405162461bcd60e51b815260040161098890615216565b6000805460ff191660011781558781526005602052604090205460ff16611e335760405162461bcd60e51b815260206004820152600f60248201526e1bdb9b1e48185cdcd95cdcdb595b9d608a1b6044820152606401610988565b60028781548110611e4657611e46615262565b6000918252602080832060079290920290910154604080513381850152815180820390940184528082019182905263244d59cb60e01b9091526001600160a01b039091169263244d59cb92611ea1928b918b916044016152b2565b60408051808303816000875af1158015611ebf573d6000803e3d6000fd5b505050506040513d601f19601f82011682018060405250810190611ee391906152e3565b9092509050611ef8873384806001600061463d565b6040805187815260208101849052339189917f782cca10baf40bf6beb549293299a3fa435d90efec30e82c3fecd21b69e7a40f910160405180910390a36000805460ff1916905590969095509350505050565b60005461010090046001600160a01b0316331480611f7357506003546001600160a01b031633145b80611f7d57503330145b611f995760405162461bcd60e51b81526004016109889061567b565b60008181526005602052604090205460ff16611fe55760405162461bcd60e51b815260206004820152600b60248201526a08585cdcd95cdcdb595b9d60aa1b6044820152606401610988565b600081815260056020526040808220805463ffff00001916620100001781559051909183917f38274fdcd6150638fa33375a76a55bc5b507aa04639aef21fcf7a1bf0b9c095d9190a25050565b60005461010090046001600160a01b031633148061205a57506003546001600160a01b031633145b8061206457503330145b6120805760405162461bcd60e51b81526004016109889061567b565b600160009054906101000a90046001600160a01b03166001600160a01b03166357b613606040518163ffffffff1660e01b8152600401600060405180830381865afa1580156120d3573d6000803e3d6000fd5b505050506040513d6000823e601f3d908101601f191682016040526120fb91908101906157d7565b518351111561214c5760405162461bcd60e51b815260206004820152601860248201527f6e6f7420656e6f756768207261746564207472616465727300000000000000006044820152606401610988565b60008181526006602081815260409283902086518155908601516001820155918501516002830155606085015160038301556080850151600483015560a0850151600583015560c08501519082015560e08401516007909101556121c66121bb83670de0b6b3a7640000615888565b60c085015190614858565b6006600083815260200190815260200160002060060181905550807fc6be93ca0e8d44d5b418bde056f5e013750978c7573c74a4db7dd18754660c148460405161221091906150aa565b60405180910390a2505050565b60005461010090046001600160a01b031633148061224557506003546001600160a01b031633145b8061224f57503330145b61226b5760405162461bcd60e51b81526004016109889061567b565b600b80546001600160a01b0319166001600160a01b0392909216919091179055565b604051625c2ac360e01b815260009081903090625c2ac3906122bf908a908a908a908a908a903390819060040161589b565b60408051808303816000875af11580156122dd573d6000803e3d6000fd5b505050506040513d601f19601f8201168201806040525081019061230191906152e3565b6040805183815260208101839052929450909250339189917fd6ee91448c6836b63f1abdfff873fbd5c83e4b0e10260d5646be82e2148cd49b910160405180910390a39550959350505050565b6000818152600560205260408120546301000000900460ff16158015612388575060008281526005602052604090205462010000900460ff165b92915050565b60005461010090046001600160a01b03163314806123b657506003546001600160a01b031633145b806123c057503330145b6123dc5760405162461bcd60e51b81526004016109889061567b565b600180546001600160a01b0319166001600160a01b0392909216919091179055565b600080600061240b6149f0565b600054604051632500ed8d60e21b8152600481018890526101009091046001600160a01b031690639403b63490602401602060405180830381865afa158015612458573d6000803e3d6000fd5b505050506040513d601f19601f8201168201806040525081019061247c9190615320565b6001600160a01b031660c08201526002805460009190889081106124a2576124a2615262565b60009182526020918290206040805160e081018252600790930290910180546001600160a01b039081168452600182015481169484019490945260028101549093169082015260038201805491929160608401919061250090615278565b80601f016020809104026020016040519081016040528092919081815260200182805461252c90615278565b80156125795780601f1061254e57610100808354040283529160200191612579565b820191906000526020600020905b81548152906001019060200180831161255c57829003601f168201915b5050509183525050600482015460208201526005820154604082015260069091015460ff16151560609091015260c08101519091506125e25760405162461bcd60e51b8152602060048201526005602482015264085c1bdbdb60da1b6044820152606401610988565b600b5460405163713091a760e01b8152600481018990526001600160a01b039091169063713091a790602401606060405180830381865afa15801561262b573d6000803e3d6000fd5b505050506040513d601f19601f8201168201806040525081019061264f91906155c8565b60a0850152606084018190526080840191909152600b5460405163de2b19e160e01b8152600481018a90526126e292899290916001600160a01b039091169063de2b19e190602401602060405180830381865afa1580156126b4573d6000803e3d6000fd5b505050506040513d601f19601f820116820180604052508101906126d89190615307565b6114e19190615888565b60608301519095506126f49087614858565b925061271582608001516114e18460a001518961485890919063ffffffff16565b60c08301519094506001600160a01b03166334928ace8861273687876158f7565b6040516001600160e01b031960e085901b1681526004810192909252602482015260016044820152606401600060405180830381600087803b15801561277b57600080fd5b505af115801561278f573d6000803e3d6000fd5b5050825160405163c93ac3ed60e01b81526001600160a01b03909116925063c93ac3ed91506127c79033908a90600090600401615637565b600060405180830381600087803b1580156127e157600080fd5b505af11580156127f5573d6000803e3d6000fd5b5050600054604051631e1fa3a760e31b81526101009091046001600160a01b0316925063f0fd1d38915061283190889033908c9060040161590a565b600060405180830381600087803b15801561284b57600080fd5b505af115801561285f573d6000803e3d6000fd5b5050505050509250925092565b60005461010090046001600160a01b031633148061289457506003546001600160a01b031633145b8061289e57503330145b6128ba5760405162461bcd60e51b81526004016109889061567b565b6000848152600560209081526040808320805464ff00ff000019166201000087151590810264ff000000001916919091176401000000008915159081029190911763ff0000001916909255600484529382902085905581519081529182019290925290810182905284907fd06c6eb2c866c530dc5ab4b6479bdfd8db2d514363444eb65154e19c864563df9060600160405180910390a250505050565b60005460ff161561297a5760405162461bcd60e51b815260040161098890615216565b6000805460ff19166001178155828152600560205260409020546301000000900460ff16156129eb5760405162461bcd60e51b815260206004820152601e60248201527f4d61726b6574205374696c6c20447572696e67204173736573736d656e7400006044820152606401610988565b60008281526005602052604090205460ff16612a495760405162461bcd60e51b815260206004820152601860248201527f4d61726b657420686173206265656e20617070726f76656400000000000000006044820152606401610988565b600060028381548110612a5e57612a5e615262565b600091825260208220600790910201546001600160a01b031691508083612bdd5760028581548110612a9257612a92615262565b60009182526020909120600790910201600201546040516370a0823160e01b81523360048201526001600160a01b03909116906370a0823190602401602060405180830381865afa158015612aeb573d6000803e3d6000fd5b505050506040513d601f19601f82011682018060405250810190612b0f9190615307565b905060008581526009602090815260408083203380855290835281842080549085905582518a815293840191909152908201929092529092507f06c254f742aaf3565852bdb3bb0ac74a536ece577c01929d15a74bc398702d7c9060600160405180910390a160405163c93ac3ed60e01b81526001600160a01b0384169063c93ac3ed90612ba69033908590600090600401615637565b600060405180830381600087803b158015612bc057600080fd5b505af1158015612bd4573d6000803e3d6000fd5b50505050612eec565b60028581548110612bf057612bf0615262565b60009182526020909120600790910201600101546040516370a0823160e01b81523360048201526001600160a01b03909116906370a0823190602401602060405180830381865afa158015612c49573d6000803e3d6000fd5b505050506040513d601f19601f82011682018060405250810190612c6d9190615307565b90506000546040516323f2a73f60e01b8152600481018790523360248201526101009091046001600160a01b0316906323f2a73f90604401602060405180830381865afa158015612cc2573d6000803e3d6000fd5b505050506040513d601f19601f82011682018060405250810190612ce6919061561a565b8015612d64575060005460405163046b1ab560e31b8152600481018790523360248201526101009091046001600160a01b031690632358d5a890604401602060405180830381865afa158015612d40573d6000803e3d6000fd5b505050506040513d601f19601f82011682018060405250810190612d64919061561a565b15612de957600054604051634187150160e11b8152600481018790523360248201526101009091046001600160a01b03169063830e2a02906044016020604051808303816000875af1158015612dbe573d6000803e3d6000fd5b505050506040513d601f19601f82011682018060405250810190612de29190615307565b9150612e49565b60008581526008602090815260408083203380855290835281842080549490558151898152928301526001908201529092507f06c254f742aaf3565852bdb3bb0ac74a536ece577c01929d15a74bc398702d7c9060600160405180910390a15b60405163c93ac3ed60e01b81526001600160a01b0384169063c93ac3ed90612e7a9033908590600190600401615637565b600060405180830381600087803b158015612e9457600080fd5b505af1158015612ea8573d6000803e3d6000fd5b5050336000908152600d602052604090205460ff16159150612eec905057336000908152600d60205260409020805460ff19811660ff918216600019019091161790555b600054604051631e1fa3a760e31b81526101009091046001600160a01b03169063f0fd1d3890612f2490859033908a9060040161590a565b600060405180830381600087803b158015612f3e57600080fd5b505af1158015612f52573d6000803e3d6000fd5b50506000805460ff1916905550505050505050565b60005461010090046001600160a01b0316331480612f8f57506003546001600160a01b031633145b80612f9957503330145b612fb55760405162461bcd60e51b81526004016109889061567b565b6000848152600a602052604081208054859290612fd39084906158f7565b9091555060009050612fe485611a51565b9050806001600160a01b031663c55dae636040518163ffffffff1660e01b8152600401602060405180830381865afa158015613024573d6000803e3d6000fd5b505050506040513d601f19601f820116820180604052508101906130489190615320565b6001600160a01b03166323b872dd8383876040518463ffffffff1660e01b8152600401613077939291906155f6565b6020604051808303816000875af1158015613096573d6000803e3d6000fd5b505050506040513d601f19601f820116820180604052508101906130ba919061561a565b5060405163681504cd60e01b81526001600160a01b0383811660048301526024820185905282169063681504cd906044015b600060405180830381600087803b15801561310657600080fd5b505af1158015611da7573d6000803e3d6000fd5b60008054819060ff16156131405760405162461bcd60e51b815260040161098890615216565b6000805460ff1916600117905560405163061427c560e01b8152600481018590526024810184905233604482018190526064820152309063061427c59060840160408051808303816000875af115801561319e573d6000803e3d6000fd5b505050506040513d601f19601f820116820180604052508101906131c291906152e3565b6000805460ff19169055909590945092505050565b6000805460ff16156131fb5760405162461bcd60e51b815260040161098890615216565b6000805460ff19166001178155828152600560205260409020546301000000900460ff16156132555760405162461bcd60e51b815260206004820152600660248201526541637469766560d01b6044820152606401610988565b60008281526005602052604090205462010000900460ff166132a55760405162461bcd60e51b8152602060048201526009602482015268085c995cdbdb1d995960ba1b6044820152606401610988565b600082815260076020908152604080832033845290915290205460ff16156132fa5760405162461bcd60e51b815260206004820152600860248201526714995919595b595960c21b6044820152606401610988565b6002828154811061330d5761330d615262565b600091825260209091206006600790920201015460ff161561335a5760405162461bcd60e51b8152600401610988906020808252600490820152631c1bdbdb60e21b604082015260600190565b60008281526007602090815260408083203384529091528120805460ff19166001179055600280548490811061339257613392615262565b60009182526020822060079091020154600280546001600160a01b03909216935090859081106133c4576133c4615262565b60009182526020909120600790910201600201546040516370a0823160e01b81523360048201526001600160a01b03909116906370a0823190602401602060405180830381865afa15801561341d573d6000803e3d6000fd5b505050506040513d601f19601f820116820180604052508101906134419190615307565b600085815260046020526040812054919250670de0b6b3a764000082101561347a5761347582670de0b6b3a7640000615888565b61347d565b60005b90506134898184614858565b60405163c93ac3ed60e01b81529095506001600160a01b0385169063c93ac3ed906134bd9033908790600090600401615637565b600060405180830381600087803b1580156134d757600080fd5b505af11580156134eb573d6000803e3d6000fd5b5050600054604051631e1fa3a760e31b81526101009091046001600160a01b0316925063f0fd1d38915061352790889033908b9060040161590a565b600060405180830381600087803b15801561354157600080fd5b505af1158015613555573d6000803e3d6000fd5b50506000805460ff1916905550949695505050505050565b6000805460ff16156135915760405162461bcd60e51b815260040161098890615216565b6000805460ff191660011781558381526005602052604090205460ff16156135ea5760405162461bcd60e51b815260206004820152600c60248201526b141c9948105c1c1c9bdd985b60a21b6044820152606401610988565b60405163014fe7a560e11b8152600481018490526024810183905233604482018190526064820152309063029fcf4a906084016020604051808303816000875af115801561363c573d6000803e3d6000fd5b505050506040513d601f19601f820116820180604052508101906136609190615307565b6000805460ff191690559392505050565b6040805160e0810182526000808252602082018190529181018290526060808201526080810182905260a0810182905260c08101919091526040518060e0016040528060006001600160a01b0316815260200160006001600160a01b0316815260200160006001600160a01b03168152602001604051806020016040528060008152508152602001600081526020016000815260200160001515815250905090565b60006002828154811061372857613728615262565b60009182526020909120600260079092020101546001600160a01b031692915050565b600081815260056020526040812054610100900460ff161561376f57506001919050565b60008281526005602052604090205460ff1680156137a15750600082815260056020526040902054610100900460ff16155b1561382c5760005460405163b743939b60e01b8152600481018490526101009091046001600160a01b03169063b743939b90602401602060405180830381865afa1580156137f3573d6000803e3d6000fd5b505050506040513d601f19601f82011682018060405250810190613817919061561a565b1561382457506003919050565b506002919050565b61383582613847565b1561384257506004919050565b919050565b60008181526005602052604081205460ff161580156123885750506000908152600560205260409020546301000000900460ff1690565b6000806002858154811061389457613894615262565b50600052509392505050565b600281815481106138b057600080fd5b600091825260209091206007909102018054600182015460028301546003840180546001600160a01b039485169650928416949390911692916138f290615278565b80601f016020809104026020016040519081016040528092919081815260200182805461391e90615278565b801561396b5780601f106139405761010080835404028352916020019161396b565b820191906000526020600020905b81548152906001019060200180831161394e57829003601f168201915b50505050600483015460058401546006909401549293909290915060ff1687565b6139d460405180610100016040528060008152602001600081526020016000815260200160008152602001600081526020016000815260200160008152602001600081525090565b50600090815260066020818152604092839020835161010081018552815481526001820154928101929092526002810154938201939093526003830154606082015260048301546080820152600583015460a08201529082015460c082015260079091015460e082015290565b60005461010090046001600160a01b0316331480613a6957506003546001600160a01b031633145b80613a7357503330145b613a8f5760405162461bcd60e51b81526004016109889061567b565b600081815260056020526040808220805460ff191690555182917fd92bb9e130abbedd10c99eb70af2c4bf2d534f985df768e29fd28e1593e9d20291a250565b600c546001600160a01b03163314613b185760405162461bcd60e51b815260206004820152600c60248201526b1d5b985d5d1a1bdc9a5e995960a21b6044820152606401610988565b6040516323b872dd60e01b81526001600160a01b038516906323b872dd90613b48908690869086906004016155f6565b6020604051808303816000875af1158015613b67573d6000803e3d6000fd5b505050506040513d601f19601f82011682018060405250810190613b8b919061561a565b5050505050565b6001546040516344c7439360e01b81526001600160a01b03838116600483015260009283929116906344c7439390602401602060405180830381865afa158015613be0573d6000803e3d6000fd5b505050506040513d601f19601f82011682018060405250810190613c049190615307565b905080600003613c18576000915050612388565b613c4d613c35613c30670de0b6b3a7640000846157c0565b614908565b60008681526005602052604090206001015490614858565b949350505050565b828111613c8d5760405162461bcd60e51b8152602060048201526006602482015265189d5919d95d60d21b6044820152606401610988565b6000546040516308ad90a560e01b81526001600160a01b038681166004830152610100909204909116906308ad90a590602401602060405180830381865afa158015613cdd573d6000803e3d6000fd5b505050506040513d601f19601f82011682018060405250810190613d019190615307565b600003613d395760405162461bcd60e51b8152600401610988906020808252600490820152630217265760e41b604082015260600190565b50505050565b336001600160a01b031663c55dae636040518163ffffffff1660e01b8152600401602060405180830381865afa158015613d7d573d6000803e3d6000fd5b505050506040513d601f19601f82011682018060405250810190613da19190615320565b6001600160a01b03166323b872dd613dbb83850185614e6f565b33866040518463ffffffff1660e01b8152600401613ddb939291906155f6565b6020604051808303816000875af1158015613dfa573d6000803e3d6000fd5b505050506040513d601f19601f82011682018060405250810190613d39919061561a565b6000805460ff1615613e425760405162461bcd60e51b815260040161098890615216565b6000805460ff19166001178155828152600560205260409020546301000000900460ff1615613e835760405162461bcd60e51b81526004016109889061565a565b60008281526005602052604090205462010000900460ff16613ed35760405162461bcd60e51b8152602060048201526009602482015268085c995cdbdb1d995960ba1b6044820152606401610988565b600082815260076020908152604080832033845290915290205460ff1615613f285760405162461bcd60e51b815260206004820152600860248201526714995919595b595960c21b6044820152606401610988565b60008281526007602090815260408083203384529091528120805460ff191660011790556002805484908110613f6057613f60615262565b600091825260208220600791909102015490546040516323f2a73f60e01b8152600481018690523360248201526001600160a01b039283169350610100909104909116906323f2a73f90604401602060405180830381865afa158015613fca573d6000803e3d6000fd5b505050506040513d601f19601f82011682018060405250810190613fee919061561a565b1561405c57600054604051638f5709a560e01b8152600481018590523360248201526101009091046001600160a01b031690638f5709a590604401600060405180830381600087803b15801561404357600080fd5b505af1158015614057573d6000803e3d6000fd5b505050505b60006002848154811061407157614071615262565b60009182526020909120600790910201600101546040516370a0823160e01b81523360048201526001600160a01b03909116906370a0823190602401602060405180830381865afa1580156140ca573d6000803e3d6000fd5b505050506040513d601f19601f820116820180604052508101906140ee9190615307565b60008581526004602052604090205490915061410a8183614858565b6000546040516323f2a73f60e01b81526004810188905233602482015291955061010090046001600160a01b0316906323f2a73f90604401602060405180830381865afa15801561415f573d6000803e3d6000fd5b505050506040513d601f19601f82011682018060405250810190614183919061561a565b61420157600154604051639bf7927d60e01b8152336004820152602481018790526044810183905260006064820152608481018490526001600160a01b0390911690639bf7927d9060a401600060405180830381600087803b1580156141e857600080fd5b505af11580156141fc573d6000803e3d6000fd5b505050505b336000908152600d602052604090205460ff161561423f57336000908152600d60205260409020805460ff19811660ff918216600019019091161790555b60405163c93ac3ed60e01b81526001600160a01b0384169063c93ac3ed906142709033908690600190600401615637565b600060405180830381600087803b15801561428a57600080fd5b505af115801561429e573d6000803e3d6000fd5b5050600054604051631e1fa3a760e31b81526101009091046001600160a01b0316925063f0fd1d3891506142da90879033908a9060040161590a565b600060405180830381600087803b1580156142f457600080fd5b505af1158015614308573d6000803e3d6000fd5b50506000805460ff19169055509395945050505050565b6040805160e0810182526000808252602082018190529181018290526060808201526080810182905260a0810182905260c0810191909152600254821061436857612388613671565b6002828154811061437b5761437b615262565b60009182526020918290206040805160e081018252600790930290910180546001600160a01b03908116845260018201548116948401949094526002810154909316908201526003820180549192916060840191906143d990615278565b80601f016020809104026020016040519081016040528092919081815260200182805461440590615278565b80156144525780601f1061442757610100808354040283529160200191614452565b820191906000526020600020905b81548152906001019060200180831161443557829003601f168201915b5050509183525050600482015460208201526005820154604082015260069091015460ff16151560609091015292915050565b60005461010090046001600160a01b03163314806144ad57506003546001600160a01b031633145b806144b757503330145b6144d35760405162461bcd60e51b81526004016109889061567b565b600c80546001600160a01b0319166001600160a01b0392909216919091179055565b600c546001600160a01b0316331461453e5760405162461bcd60e51b815260206004820152600c60248201526b1d5b985d5d1a1bdc9a5e995960a21b6044820152606401610988565b6002858154811061455157614551615262565b600091825260209091206007909102015460405163c93ac3ed60e01b81526001600160a01b039091169063c93ac3ed906145949087908790600190600401615637565b600060405180830381600087803b1580156145ae57600080fd5b505af11580156145c2573d6000803e3d6000fd5b5050600054604051631e1fa3a760e31b81526101009091046001600160a01b0316925063f0fd1d3891506130ec90849086908a9060040161590a565b6000818152600560205260408120546301000000900460ff166146335760405162461bcd60e51b81526004016109889061565a565b5060019392505050565b801561474c5781156146ec5760008681526008602090815260408083206001600160a01b03891684529091528120805486929061467b9084906158f7565b90915550506000868152600a60205260408120805486929061469e9084906158f7565b90915550506001600160a01b0385166000908152600d602052604081208054600192906146cf90849060ff16615929565b92506101000a81548160ff021916908360ff1602179055506147df565b60008681526008602090815260408083206001600160a01b03891684529091528120805486929061471e908490615888565b90915550506000868152600a602052604081208054869290614741908490615888565b909155506147df9050565b81156147845760008681526009602090815260408083206001600160a01b03891684529091528120805485929061471e9084906158f7565b60008681526009602090815260408083206001600160a01b0389168452909152812080548592906147b6908490615888565b90915550506000868152600a6020526040812080548692906147d99084906158f7565b90915550505b6000868152600a60209081526040918290205482516001600160a01b03891681529182015282151581830152606081018590526080810186905283151560a0820152905187917f2a3e504716a4de15b9aaa06bf29d1bab0ee1cda896f4b0b854cdc7c04d3751cd919081900360c00190a2505050505050565b600061486d8383670de0b6b3a76400006149ac565b9392505050565b600061486d83670de0b6b3a7640000846149ca565b60008481526005602052604090819020805460018201849055630100000061ffff199091166101008615150260ff1916178615151763ff0000001916178155905185907f638289bd0053d37020d3cfacc73bb398f0d6702821a30abdcaed824bb4a8ebb9906148f990849061556d565b60405180910390a25050505050565b60b581600160881b81106149215760409190911b9060801c5b6901000000000000000000811061493d5760209190911b9060401c5b6501000000000081106149555760109190911b9060201c5b6301000000811061496b5760089190911b9060101c5b62010000010260121c80820401600190811c80830401811c80830401811c80830401811c80830401811c80830401811c80830401901c908190048111900390565b60008260001904841183021582026149c357600080fd5b5091020490565b60008260001904841183021582026149e157600080fd5b50910281810615159190040190565b60405180610140016040528060008152602001600081526020016000815260200160008152602001600081526020016000815260200160006001600160a01b0316815260200160006001600160a01b0316815260200160006001600160a01b03168152602001614a996040518060c00160405280600015158152602001600015158152602001600015158152602001600015158152602001600015158152602001600081525090565b905290565b60008083601f840112614ab057600080fd5b5081356001600160401b03811115614ac757600080fd5b602083019150836020828501011115614adf57600080fd5b9250929050565b6001600160a01b0381168114614afb57600080fd5b50565b600080600080600080600060c0888a031215614b1957600080fd5b87359650602088013595506040880135945060608801356001600160401b03811115614b4457600080fd5b614b508a828b01614a9e565b9095509350506080880135614b6481614ae6565b915060a0880135614b7481614ae6565b8091505092959891949750929550565b60008060008060808587031215614b9a57600080fd5b84359350602085013592506040850135614bb381614ae6565b91506060850135614bc381614ae6565b939692955090935050565b600060208284031215614be057600080fd5b5035919050565b60008060008060808587031215614bfd57600080fd5b8435614c0881614ae6565b966020860135965060408601359560600135945092505050565b8015158114614afb57600080fd5b600080600080600080600060c0888a031215614c4b57600080fd5b873596506020880135614c5d81614ae6565b95506040880135614c6d81614ae6565b94506060880135614c7d81614ae6565b935060808801356001600160401b03811115614c9857600080fd5b614ca48a828b01614a9e565b90945092505060a0880135614b7481614c22565b60008060408385031215614ccb57600080fd5b823591506020830135614cdd81614ae6565b809150509250929050565b600080600080600060808688031215614d0057600080fd5b85359450602086013593506040860135925060608601356001600160401b03811115614d2b57600080fd5b614d3788828901614a9e565b969995985093965092949392505050565b634e487b7160e01b600052604160045260246000fd5b60405161010081016001600160401b0381118282101715614d8157614d81614d48565b60405290565b6040516101c081016001600160401b0381118282101715614d8157614d81614d48565b604051601f8201601f191681016001600160401b0381118282101715614dd257614dd2614d48565b604052919050565b6000806000838503610140811215614df157600080fd5b61010080821215614e0157600080fd5b614e09614d5e565b9150853582526020860135602083015260408601356040830152606086013560608301526080860135608083015260a086013560a083015260c086013560c083015260e086013560e0830152819450808601359350505061012084013590509250925092565b600060208284031215614e8157600080fd5b813561486d81614ae6565b60008060408385031215614e9f57600080fd5b50508035926020909101359150565b60008060008060808587031215614ec457600080fd5b843593506020850135614ed681614c22565b92506040850135614ee681614c22565b9396929550929360600135925050565b60008060408385031215614f0957600080fd5b823591506020830135614cdd81614c22565b60008060008060808587031215614f3157600080fd5b8435935060208501359250604085013591506060850135614bc381614ae6565b60005b83811015614f6c578181015183820152602001614f54565b50506000910152565b60008151808452614f8d816020860160208601614f51565b601f01601f19169290920160200192915050565b60208152600060018060a01b0380845116602084015280602085015116604084015280604085015116606084015250606083015160e06080840152614fea610100840182614f75565b9050608084015160a084015260a084015160c084015260c0840151151560e08401528091505092915050565b60008060006060848603121561502b57600080fd5b83359250602084013561ffff8116811461504457600080fd5b929592945050506040919091013590565b6001600160a01b03888116825287811660208301528616604082015260e06060820181905260009061508990830187614f75565b60808301959095525060a0810192909252151560c090910152949350505050565b600061010082019050825182526020830151602083015260408301516040830152606083015160608301526080830151608083015260a083015160a083015260c083015160c083015260e083015160e083015292915050565b6000806000806080858703121561511957600080fd5b843561512481614ae6565b9350602085013561513481614ae6565b92506040850135614ee681614ae6565b60008060006040848603121561515957600080fd5b8335925060208401356001600160401b0381111561517657600080fd5b61518286828701614a9e565b9497909650939450505050565b600080600080600060a086880312156151a757600080fd5b8535945060208601356151b981614ae6565b93506040860135925060608601356151d081614ae6565b949793965091946080013592915050565b6000806000606084860312156151f657600080fd5b833561520181614ae6565b95602085013595506040909401359392505050565b6020808252600b908201526a4552525f5245454e54525960a81b604082015260600190565b6020808252600d908201526c696e76616c696420656e74727960981b604082015260600190565b634e487b7160e01b600052603260045260246000fd5b600181811c9082168061528c57607f821691505b6020821081036152ac57634e487b7160e01b600052602260045260246000fd5b50919050565b84151581528360208201528260408201526080606082015260006152d96080830184614f75565b9695505050505050565b600080604083850312156152f657600080fd5b505080516020909101519092909150565b60006020828403121561531957600080fd5b5051919050565b60006020828403121561533257600080fd5b815161486d81614ae6565b805161384281614c22565b600082601f83011261535957600080fd5b81516001600160401b0381111561537257615372614d48565b615385601f8201601f1916602001614daa565b81815284602083860101111561539a57600080fd5b613c4d826020830160208701614f51565b805161384281614ae6565b80516006811061384257600080fd5b600060e082840312156153d757600080fd5b60405160e081018181106001600160401b03821117156153f9576153f9614d48565b8060405250809150825181526020830151602082015260408301516040820152606083015160608201526080830151608082015260a083015160a082015260c083015160c08201525092915050565b60006020828403121561545a57600080fd5b81516001600160401b038082111561547157600080fd5b90830190610280828603121561548657600080fd5b61548e614d87565b8251815261549e6020840161533d565b60208201526154af6040840161533d565b6040820152606083015160608201526080830151608082015260a083015160a082015260c083015160c082015260e083015160e0820152610100808401518183015250610120808401518381111561550657600080fd5b61551288828701615348565b82840152505061014091506155288284016153ab565b82820152610160915061553c8284016153b6565b82820152610180915081830151828201526101a0915061555e868385016153c5565b91810191909152949350505050565b600060c082019050825460ff81161515835260ff8160081c161515602084015260ff8160101c161515604084015260ff8160181c161515606084015260ff8160201c161515608084015250600183015460a083015292915050565b6000806000606084860312156155dd57600080fd5b8351925060208401519150604084015190509250925092565b6001600160a01b039384168152919092166020820152604081019190915260600190565b60006020828403121561562c57600080fd5b815161486d81614c22565b6001600160a01b0393909316835260208301919091521515604082015260600190565b6020808252600790820152662141637469766560c81b604082015260600190565b6020808252600b908201526a10b1b7b73a3937b63632b960a91b604082015260600190565b601f8211156156e657600081815260208120601f850160051c810160208610156156c75750805b601f850160051c820191505b81811015611bfc578281556001016156d3565b505050565b81516001600160401b0381111561570457615704614d48565b615718816157128454615278565b846156a0565b602080601f83116001811461574d57600084156157355750858301515b600019600386901b1c1916600185901b178555611bfc565b600085815260208120601f198616915b8281101561577c5788860151825594840194600190910190840161575d565b508582101561579a5787850151600019600388901b60f8161c191681555b5050505050600190811b01905550565b634e487b7160e01b600052601160045260246000fd5b8082028115828204841417612388576123886157aa565b600060208083850312156157ea57600080fd5b82516001600160401b038082111561580157600080fd5b818501915085601f83011261581557600080fd5b81518181111561582757615827614d48565b8060051b9150615838848301614daa565b818152918301840191848101908884111561585257600080fd5b938501935b8385101561587c578451925061586c83614ae6565b8282529385019390850190615857565b98975050505050505050565b81810381811115612388576123886157aa565b87815286602082015285604082015260c060608201528360c0820152838560e0830137600060e08583018101919091526001600160a01b0393841660808301529190921660a0830152601f909201601f19160101949350505050565b80820180821115612388576123886157aa565b9283526001600160a01b03919091166020830152604082015260600190565b60ff8181168382160190811115612388576123886157aa56fea264697066735822122011e8e9fbb9d88c462c5e05e960d02ef6a71d4ebc374d65d3200e10f4b6cb296264736f6c63430008110033",
    "linkReferences": {}
  },
  "methodIdentifiers": {
    "Data()": "4b6e7d78",
    "_canBuy(address,int256,uint256,uint256)": "1ed281e4",
    "_canIssue(address,int256,uint256,uint256)": "d70a9f50",
    "_canSell(address,uint256,uint256)": "f62f14b0",
    "approveMarket(uint256)": "cabe2ae1",
    "burnAndTransfer(uint256,address,uint256,address,uint256)": "f4a9e9ba",
    "buyBond(uint256,int256,uint256,bytes)": "51ba6522",
    "buylongZCB(uint256,int256,uint256,bytes,address,address)": "005c2ac3",
    "claimFunnel(uint256,uint16,uint256)": "a72be9a1",
    "deactivateMarket(uint256,bool,bool,uint256)": "61fa5af5",
    "denyMarket(uint256)": "4cb44087",
    "getCurrentMarketPhase(uint256)": "97dcec16",
    "getMarket(uint256)": "eb44fdd3",
    "getParameters(uint256)": "c6ceb96b",
    "getPhaseData(uint256)": "4cba8cde",
    "getPool(uint256)": "068bcd8d",
    "getShortZCB(uint256)": "920f4e55",
    "getTraderBudget(uint256,address)": "d5725953",
    "getZCB(uint256)": "153542cc",
    "isMarketApproved(uint256)": "9ec33416",
    "isMarketResolved(uint256)": "53ac55f5",
    "issueBond(uint256,uint256,address,address)": "029fcf4a",
    "issuePoolBond(uint256,uint256)": "73124349",
    "loggedCollaterals(uint256)": "661f1cf5",
    "longTrades(uint256,address)": "214b3987",
    "makeEmptyMarketData()": "839ee8f6",
    "marketCount()": "ec979082",
    "markets(uint256)": "b1283e77",
    "newMarket(uint256,address,address,address,string,bool)": "203b2434",
    "owner()": "8da5cb5b",
    "parameters(uint256)": "2a4a9dd1",
    "queuedRepThreshold()": "41741c06",
    "queuedRepUpdates(address)": "b900a0ed",
    "redeem(uint256)": "db006a75",
    "redeemDeniedMarket(uint256,bool)": "63f960d8",
    "redeemPerpLongZCB(uint256,uint256,address,address)": "061427c5",
    "redeemPerpShortZCB(uint256,uint256)": "5e96eedc",
    "redeemPoolLongZCB(uint256,uint256)": "71bd6a09",
    "redeemShortZCB(uint256)": "727b887f",
    "redemption_prices(uint256)": "7c9bc5ce",
    "restriction_data(uint256)": "8a6cac3d",
    "setDataStore(address)": "500065d2",
    "setLeverageManager(address)": "f304c278",
    "setParameters((uint256,uint256,uint256,uint256,uint256,uint256,uint256,uint256),uint256,uint256)": "4e042a59",
    "setReputationManager(address)": "56a837f4",
    "shortBond(uint256,uint256,uint256,bytes)": "3db969f4",
    "shortTrades(uint256,address)": "897ca174",
    "tradeCallBack(uint256,bytes)": "da520d3e",
    "transferTraderCap(address,address,address,uint256)": "cd9f08a1",
    "validatorApprove(uint256,uint256,uint256,address)": "669623a6"
  },
  "id": 21
}