{
  "abi": [
    {
      "inputs": [
        {
          "internalType": "address",
          "name": "_creator_address",
          "type": "address"
        },
        {
          "internalType": "address",
          "name": "_controllerAddress",
          "type": "address"
        },
        {
          "internalType": "address",
          "name": "_vrfCoordinator",
          "type": "address"
        },
        {
          "internalType": "bytes32",
          "name": "_keyHash",
          "type": "bytes32"
        },
        {
          "internalType": "uint64",
          "name": "_subscriptionId",
          "type": "uint64"
        }
      ],
      "stateMutability": "nonpayable",
      "type": "constructor"
    },
    {
      "anonymous": false,
      "inputs": [
        {
          "indexed": true,
          "internalType": "uint256",
          "name": "marketId",
          "type": "uint256"
        },
        {
          "indexed": true,
          "internalType": "address",
          "name": "trader",
          "type": "address"
        },
        {
          "indexed": false,
          "internalType": "uint256",
          "name": "amountIn",
          "type": "uint256"
        },
        {
          "indexed": false,
          "internalType": "uint256",
          "name": "amountOut",
          "type": "uint256"
        }
      ],
      "name": "BondBuy",
      "type": "event"
    },
    {
      "anonymous": false,
      "inputs": [
        {
          "indexed": true,
          "internalType": "uint256",
          "name": "marketId",
          "type": "uint256"
        },
        {
          "indexed": false,
          "internalType": "bool",
          "name": "atLoss",
          "type": "bool"
        },
        {
          "indexed": false,
          "internalType": "bool",
          "name": "resolve",
          "type": "bool"
        },
        {
          "indexed": false,
          "internalType": "uint256",
          "name": "rp",
          "type": "uint256"
        }
      ],
      "name": "DeactivatedMarket",
      "type": "event"
    },
    {
      "anonymous": false,
      "inputs": [
        {
          "indexed": true,
          "internalType": "uint256",
          "name": "marketId",
          "type": "uint256"
        }
      ],
      "name": "MarketApproved",
      "type": "event"
    },
    {
      "anonymous": false,
      "inputs": [
        {
          "indexed": false,
          "internalType": "uint256",
          "name": "marketId",
          "type": "uint256"
        },
        {
          "indexed": false,
          "internalType": "uint256",
          "name": "totalCollateral",
          "type": "uint256"
        }
      ],
      "name": "MarketCollateralUpdate",
      "type": "event"
    },
    {
      "anonymous": false,
      "inputs": [
        {
          "indexed": true,
          "internalType": "uint256",
          "name": "marketId",
          "type": "uint256"
        }
      ],
      "name": "MarketDenied",
      "type": "event"
    },
    {
      "anonymous": false,
      "inputs": [
        {
          "indexed": true,
          "internalType": "uint256",
          "name": "marketId",
          "type": "uint256"
        },
        {
          "components": [
            {
              "internalType": "uint256",
              "name": "N",
              "type": "uint256"
            },
            {
              "internalType": "uint256",
              "name": "sigma",
              "type": "uint256"
            },
            {
              "internalType": "uint256",
              "name": "alpha",
              "type": "uint256"
            },
            {
              "internalType": "uint256",
              "name": "omega",
              "type": "uint256"
            },
            {
              "internalType": "uint256",
              "name": "delta",
              "type": "uint256"
            },
            {
              "internalType": "uint256",
              "name": "r",
              "type": "uint256"
            },
            {
              "internalType": "uint256",
              "name": "s",
              "type": "uint256"
            },
            {
              "internalType": "uint256",
              "name": "steak",
              "type": "uint256"
            }
          ],
          "indexed": false,
          "internalType": "struct MarketParameters",
          "name": "params",
          "type": "tuple"
        }
      ],
      "name": "MarketParametersSet",
      "type": "event"
    },
    {
      "anonymous": false,
      "inputs": [
        {
          "indexed": true,
          "internalType": "uint256",
          "name": "marketId",
          "type": "uint256"
        },
        {
          "components": [
            {
              "internalType": "bool",
              "name": "duringAssessment",
              "type": "bool"
            },
            {
              "internalType": "bool",
              "name": "onlyReputable",
              "type": "bool"
            },
            {
              "internalType": "bool",
              "name": "resolved",
              "type": "bool"
            },
            {
              "internalType": "bool",
              "name": "alive",
              "type": "bool"
            },
            {
              "internalType": "bool",
              "name": "atLoss",
              "type": "bool"
            },
            {
              "internalType": "uint256",
              "name": "base_budget",
              "type": "uint256"
            }
          ],
          "indexed": false,
          "internalType": "struct MarketPhaseData",
          "name": "data",
          "type": "tuple"
        }
      ],
      "name": "MarketPhaseSet",
      "type": "event"
    },
    {
      "anonymous": false,
      "inputs": [
        {
          "indexed": false,
          "internalType": "uint256",
          "name": "marketId",
          "type": "uint256"
        },
        {
          "indexed": false,
          "internalType": "address",
          "name": "trader",
          "type": "address"
        },
        {
          "indexed": false,
          "internalType": "bool",
          "name": "isLong",
          "type": "bool"
        }
      ],
      "name": "RedeemDenied",
      "type": "event"
    },
    {
      "anonymous": false,
      "inputs": [
        {
          "indexed": false,
          "internalType": "uint256",
          "name": "marketId",
          "type": "uint256"
        },
        {
          "indexed": false,
          "internalType": "address",
          "name": "manager",
          "type": "address"
        },
        {
          "indexed": false,
          "internalType": "uint256",
          "name": "totalCollateral",
          "type": "uint256"
        },
        {
          "indexed": false,
          "internalType": "bool",
          "name": "isLong",
          "type": "bool"
        }
      ],
      "name": "TraderCollateralUpdate",
      "type": "event"
    },
    {
      "inputs": [],
      "name": "Data",
      "outputs": [
        {
          "internalType": "contract StorageHandler",
          "name": "",
          "type": "address"
        }
      ],
      "stateMutability": "view",
      "type": "function"
    },
    {
      "inputs": [
        {
          "internalType": "address",
          "name": "trader",
          "type": "address"
        },
        {
          "internalType": "int256",
          "name": "amount",
          "type": "int256"
        },
        {
          "internalType": "uint256",
          "name": "marketId",
          "type": "uint256"
        }
      ],
      "name": "_canBuy",
      "outputs": [],
      "stateMutability": "view",
      "type": "function"
    },
    {
      "inputs": [
        {
          "internalType": "address",
          "name": "trader",
          "type": "address"
        },
        {
          "internalType": "int256",
          "name": "amount",
          "type": "int256"
        },
        {
          "internalType": "uint256",
          "name": "marketId",
          "type": "uint256"
        }
      ],
      "name": "_canIssue",
      "outputs": [],
      "stateMutability": "view",
      "type": "function"
    },
    {
      "inputs": [
        {
          "internalType": "address",
          "name": "trader",
          "type": "address"
        },
        {
          "internalType": "uint256",
          "name": "amount",
          "type": "uint256"
        },
        {
          "internalType": "uint256",
          "name": "marketId",
          "type": "uint256"
        }
      ],
      "name": "_canSell",
      "outputs": [
        {
          "internalType": "bool",
          "name": "",
          "type": "bool"
        }
      ],
      "stateMutability": "view",
      "type": "function"
    },
    {
      "inputs": [
        {
          "internalType": "uint256",
          "name": "marketId",
          "type": "uint256"
        }
      ],
      "name": "approveMarket",
      "outputs": [],
      "stateMutability": "nonpayable",
      "type": "function"
    },
    {
      "inputs": [
        {
          "internalType": "uint256",
          "name": "marketId",
          "type": "uint256"
        },
        {
          "internalType": "address",
          "name": "burnWho",
          "type": "address"
        },
        {
          "internalType": "uint256",
          "name": "burnAmount",
          "type": "uint256"
        },
        {
          "internalType": "address",
          "name": "sendWho",
          "type": "address"
        },
        {
          "internalType": "uint256",
          "name": "sendAmount",
          "type": "uint256"
        }
      ],
      "name": "burnAndTransfer",
      "outputs": [],
      "stateMutability": "nonpayable",
      "type": "function"
    },
    {
      "inputs": [
        {
          "internalType": "uint256",
          "name": "_marketId",
          "type": "uint256"
        },
        {
          "internalType": "int256",
          "name": "_amountIn",
          "type": "int256"
        },
        {
          "internalType": "uint256",
          "name": "_priceLimit",
          "type": "uint256"
        },
        {
          "internalType": "bytes",
          "name": "_tradeRequestData",
          "type": "bytes"
        }
      ],
      "name": "buyBond",
      "outputs": [
        {
          "internalType": "uint256",
          "name": "amountIn",
          "type": "uint256"
        },
        {
          "internalType": "uint256",
          "name": "amountOut",
          "type": "uint256"
        }
      ],
      "stateMutability": "nonpayable",
      "type": "function"
    },
    {
      "inputs": [
        {
          "internalType": "uint256",
          "name": "_marketId",
          "type": "uint256"
        },
        {
          "internalType": "int256",
          "name": "_amountIn",
          "type": "int256"
        },
        {
          "internalType": "uint256",
          "name": "_priceLimit",
          "type": "uint256"
        },
        {
          "internalType": "bytes",
          "name": "_tradeRequestData",
          "type": "bytes"
        },
        {
          "internalType": "address",
          "name": "caller",
          "type": "address"
        },
        {
          "internalType": "address",
          "name": "trader",
          "type": "address"
        }
      ],
      "name": "buylongZCB",
      "outputs": [
        {
          "internalType": "uint256",
          "name": "amountIn",
          "type": "uint256"
        },
        {
          "internalType": "uint256",
          "name": "amountOut",
          "type": "uint256"
        }
      ],
      "stateMutability": "nonpayable",
      "type": "function"
    },
    {
      "inputs": [
        {
          "internalType": "uint256",
          "name": "marketId",
          "type": "uint256"
        },
        {
          "internalType": "uint16",
          "name": "point",
          "type": "uint16"
        },
        {
          "internalType": "uint256",
          "name": "funnel",
          "type": "uint256"
        }
      ],
      "name": "claimFunnel",
      "outputs": [
        {
          "internalType": "uint256",
          "name": "claimedAmount",
          "type": "uint256"
        }
      ],
      "stateMutability": "nonpayable",
      "type": "function"
    },
    {
      "inputs": [
        {
          "internalType": "uint256",
          "name": "marketId",
          "type": "uint256"
        },
        {
          "internalType": "bool",
          "name": "atLoss",
          "type": "bool"
        },
        {
          "internalType": "bool",
          "name": "resolve",
          "type": "bool"
        },
        {
          "internalType": "uint256",
          "name": "rp",
          "type": "uint256"
        }
      ],
      "name": "deactivateMarket",
      "outputs": [],
      "stateMutability": "nonpayable",
      "type": "function"
    },
    {
      "inputs": [
        {
          "internalType": "uint256",
          "name": "marketId",
          "type": "uint256"
        }
      ],
      "name": "denyMarket",
      "outputs": [],
      "stateMutability": "nonpayable",
      "type": "function"
    },
    {
      "inputs": [
        {
          "internalType": "uint256",
          "name": "marketId",
          "type": "uint256"
        }
      ],
      "name": "getCurrentMarketPhase",
      "outputs": [
        {
          "internalType": "uint256",
          "name": "",
          "type": "uint256"
        }
      ],
      "stateMutability": "view",
      "type": "function"
    },
    {
      "inputs": [
        {
          "internalType": "uint256",
          "name": "_id",
          "type": "uint256"
        }
      ],
      "name": "getMarket",
      "outputs": [
        {
          "components": [
            {
              "internalType": "contract SyntheticZCBPool",
              "name": "bondPool",
              "type": "address"
            },
            {
              "internalType": "contract ERC20",
              "name": "longZCB",
              "type": "address"
            },
            {
              "internalType": "contract ERC20",
              "name": "shortZCB",
              "type": "address"
            },
            {
              "internalType": "string",
              "name": "description",
              "type": "string"
            },
            {
              "internalType": "uint256",
              "name": "creationTimestamp",
              "type": "uint256"
            },
            {
              "internalType": "uint256",
              "name": "resolutionTimestamp",
              "type": "uint256"
            },
            {
              "internalType": "bool",
              "name": "isPool",
              "type": "bool"
            }
          ],
          "internalType": "struct CoreMarketData",
          "name": "",
          "type": "tuple"
        }
      ],
      "stateMutability": "view",
      "type": "function"
    },
    {
      "inputs": [
        {
          "internalType": "uint256",
          "name": "marketId",
          "type": "uint256"
        }
      ],
      "name": "getParameters",
      "outputs": [
        {
          "components": [
            {
              "internalType": "uint256",
              "name": "N",
              "type": "uint256"
            },
            {
              "internalType": "uint256",
              "name": "sigma",
              "type": "uint256"
            },
            {
              "internalType": "uint256",
              "name": "alpha",
              "type": "uint256"
            },
            {
              "internalType": "uint256",
              "name": "omega",
              "type": "uint256"
            },
            {
              "internalType": "uint256",
              "name": "delta",
              "type": "uint256"
            },
            {
              "internalType": "uint256",
              "name": "r",
              "type": "uint256"
            },
            {
              "internalType": "uint256",
              "name": "s",
              "type": "uint256"
            },
            {
              "internalType": "uint256",
              "name": "steak",
              "type": "uint256"
            }
          ],
          "internalType": "struct MarketParameters",
          "name": "",
          "type": "tuple"
        }
      ],
      "stateMutability": "view",
      "type": "function"
    },
    {
      "inputs": [
        {
          "internalType": "uint256",
          "name": "marketId",
          "type": "uint256"
        }
      ],
      "name": "getPhaseData",
      "outputs": [
        {
          "components": [
            {
              "internalType": "bool",
              "name": "duringAssessment",
              "type": "bool"
            },
            {
              "internalType": "bool",
              "name": "onlyReputable",
              "type": "bool"
            },
            {
              "internalType": "bool",
              "name": "resolved",
              "type": "bool"
            },
            {
              "internalType": "bool",
              "name": "alive",
              "type": "bool"
            },
            {
              "internalType": "bool",
              "name": "atLoss",
              "type": "bool"
            },
            {
              "internalType": "uint256",
              "name": "base_budget",
              "type": "uint256"
            }
          ],
          "internalType": "struct MarketPhaseData",
          "name": "",
          "type": "tuple"
        }
      ],
      "stateMutability": "view",
      "type": "function"
    },
    {
      "inputs": [
        {
          "internalType": "uint256",
          "name": "marketId",
          "type": "uint256"
        }
      ],
      "name": "getPool",
      "outputs": [
        {
          "internalType": "contract SyntheticZCBPool",
          "name": "",
          "type": "address"
        }
      ],
      "stateMutability": "view",
      "type": "function"
    },
    {
      "inputs": [
        {
          "internalType": "uint256",
          "name": "marketId",
          "type": "uint256"
        }
      ],
      "name": "getShortZCB",
      "outputs": [
        {
          "internalType": "contract ERC20",
          "name": "",
          "type": "address"
        }
      ],
      "stateMutability": "view",
      "type": "function"
    },
    {
      "inputs": [
        {
          "internalType": "uint256",
          "name": "marketId",
          "type": "uint256"
        },
        {
          "internalType": "address",
          "name": "trader",
          "type": "address"
        }
      ],
      "name": "getTraderBudget",
      "outputs": [
        {
          "internalType": "uint256",
          "name": "",
          "type": "uint256"
        }
      ],
      "stateMutability": "view",
      "type": "function"
    },
    {
      "inputs": [
        {
          "internalType": "uint256",
          "name": "marketId",
          "type": "uint256"
        }
      ],
      "name": "getZCB",
      "outputs": [
        {
          "internalType": "contract ERC20",
          "name": "",
          "type": "address"
        }
      ],
      "stateMutability": "view",
      "type": "function"
    },
    {
      "inputs": [
        {
          "internalType": "uint256",
          "name": "marketId",
          "type": "uint256"
        }
      ],
      "name": "isMarketApproved",
      "outputs": [
        {
          "internalType": "bool",
          "name": "",
          "type": "bool"
        }
      ],
      "stateMutability": "view",
      "type": "function"
    },
    {
      "inputs": [
        {
          "internalType": "uint256",
          "name": "marketId",
          "type": "uint256"
        }
      ],
      "name": "isMarketResolved",
      "outputs": [
        {
          "internalType": "bool",
          "name": "",
          "type": "bool"
        }
      ],
      "stateMutability": "view",
      "type": "function"
    },
    {
      "inputs": [
        {
          "internalType": "uint256",
          "name": "_marketId",
          "type": "uint256"
        },
        {
          "internalType": "uint256",
          "name": "_amountIn",
          "type": "uint256"
        },
        {
          "internalType": "address",
          "name": "_caller",
          "type": "address"
        },
        {
          "internalType": "address",
          "name": "trader",
          "type": "address"
        }
      ],
      "name": "issueBond",
      "outputs": [
        {
          "internalType": "uint256",
          "name": "issueQTY",
          "type": "uint256"
        }
      ],
      "stateMutability": "nonpayable",
      "type": "function"
    },
    {
      "inputs": [
        {
          "internalType": "uint256",
          "name": "_marketId",
          "type": "uint256"
        },
        {
          "internalType": "uint256",
          "name": "_amountIn",
          "type": "uint256"
        }
      ],
      "name": "issuePoolBond",
      "outputs": [
        {
          "internalType": "uint256",
          "name": "issueQTY",
          "type": "uint256"
        }
      ],
      "stateMutability": "nonpayable",
      "type": "function"
    },
    {
      "inputs": [
        {
          "internalType": "uint256",
          "name": "",
          "type": "uint256"
        }
      ],
      "name": "loggedCollaterals",
      "outputs": [
        {
          "internalType": "uint256",
          "name": "",
          "type": "uint256"
        }
      ],
      "stateMutability": "view",
      "type": "function"
    },
    {
      "inputs": [
        {
          "internalType": "uint256",
          "name": "",
          "type": "uint256"
        },
        {
          "internalType": "address",
          "name": "",
          "type": "address"
        }
      ],
      "name": "longTrades",
      "outputs": [
        {
          "internalType": "uint256",
          "name": "",
          "type": "uint256"
        }
      ],
      "stateMutability": "view",
      "type": "function"
    },
    {
      "inputs": [],
      "name": "makeEmptyMarketData",
      "outputs": [
        {
          "components": [
            {
              "internalType": "contract SyntheticZCBPool",
              "name": "bondPool",
              "type": "address"
            },
            {
              "internalType": "contract ERC20",
              "name": "longZCB",
              "type": "address"
            },
            {
              "internalType": "contract ERC20",
              "name": "shortZCB",
              "type": "address"
            },
            {
              "internalType": "string",
              "name": "description",
              "type": "string"
            },
            {
              "internalType": "uint256",
              "name": "creationTimestamp",
              "type": "uint256"
            },
            {
              "internalType": "uint256",
              "name": "resolutionTimestamp",
              "type": "uint256"
            },
            {
              "internalType": "bool",
              "name": "isPool",
              "type": "bool"
            }
          ],
          "internalType": "struct CoreMarketData",
          "name": "",
          "type": "tuple"
        }
      ],
      "stateMutability": "pure",
      "type": "function"
    },
    {
      "inputs": [],
      "name": "marketCount",
      "outputs": [
        {
          "internalType": "uint256",
          "name": "",
          "type": "uint256"
        }
      ],
      "stateMutability": "view",
      "type": "function"
    },
    {
      "inputs": [
        {
          "internalType": "uint256",
          "name": "",
          "type": "uint256"
        }
      ],
      "name": "markets",
      "outputs": [
        {
          "internalType": "contract SyntheticZCBPool",
          "name": "bondPool",
          "type": "address"
        },
        {
          "internalType": "contract ERC20",
          "name": "longZCB",
          "type": "address"
        },
        {
          "internalType": "contract ERC20",
          "name": "shortZCB",
          "type": "address"
        },
        {
          "internalType": "string",
          "name": "description",
          "type": "string"
        },
        {
          "internalType": "uint256",
          "name": "creationTimestamp",
          "type": "uint256"
        },
        {
          "internalType": "uint256",
          "name": "resolutionTimestamp",
          "type": "uint256"
        },
        {
          "internalType": "bool",
          "name": "isPool",
          "type": "bool"
        }
      ],
      "stateMutability": "view",
      "type": "function"
    },
    {
      "inputs": [
        {
          "internalType": "uint256",
          "name": "marketId",
          "type": "uint256"
        },
        {
          "internalType": "contract SyntheticZCBPool",
          "name": "bondPool",
          "type": "address"
        },
        {
          "internalType": "address",
          "name": "_longZCB",
          "type": "address"
        },
        {
          "internalType": "address",
          "name": "_shortZCB",
          "type": "address"
        },
        {
          "internalType": "string",
          "name": "_description",
          "type": "string"
        },
        {
          "internalType": "bool",
          "name": "isPool",
          "type": "bool"
        }
      ],
      "name": "newMarket",
      "outputs": [],
      "stateMutability": "nonpayable",
      "type": "function"
    },
    {
      "inputs": [],
      "name": "owner",
      "outputs": [
        {
          "internalType": "address",
          "name": "",
          "type": "address"
        }
      ],
      "stateMutability": "view",
      "type": "function"
    },
    {
      "inputs": [
        {
          "internalType": "uint256",
          "name": "",
          "type": "uint256"
        }
      ],
      "name": "parameters",
      "outputs": [
        {
          "internalType": "uint256",
          "name": "N",
          "type": "uint256"
        },
        {
          "internalType": "uint256",
          "name": "sigma",
          "type": "uint256"
        },
        {
          "internalType": "uint256",
          "name": "alpha",
          "type": "uint256"
        },
        {
          "internalType": "uint256",
          "name": "omega",
          "type": "uint256"
        },
        {
          "internalType": "uint256",
          "name": "delta",
          "type": "uint256"
        },
        {
          "internalType": "uint256",
          "name": "r",
          "type": "uint256"
        },
        {
          "internalType": "uint256",
          "name": "s",
          "type": "uint256"
        },
        {
          "internalType": "uint256",
          "name": "steak",
          "type": "uint256"
        }
      ],
      "stateMutability": "view",
      "type": "function"
    },
    {
      "inputs": [],
      "name": "queuedRepThreshold",
      "outputs": [
        {
          "internalType": "uint8",
          "name": "",
          "type": "uint8"
        }
      ],
      "stateMutability": "view",
      "type": "function"
    },
    {
      "inputs": [
        {
          "internalType": "address",
          "name": "",
          "type": "address"
        }
      ],
      "name": "queuedRepUpdates",
      "outputs": [
        {
          "internalType": "uint8",
          "name": "",
          "type": "uint8"
        }
      ],
      "stateMutability": "view",
      "type": "function"
    },
    {
      "inputs": [
        {
          "internalType": "uint256",
          "name": "marketId",
          "type": "uint256"
        }
      ],
      "name": "redeem",
      "outputs": [
        {
          "internalType": "uint256",
          "name": "collateral_redeem_amount",
          "type": "uint256"
        }
      ],
      "stateMutability": "nonpayable",
      "type": "function"
    },
    {
      "inputs": [
        {
          "internalType": "uint256",
          "name": "marketId",
          "type": "uint256"
        },
        {
          "internalType": "bool",
          "name": "isLong",
          "type": "bool"
        }
      ],
      "name": "redeemDeniedMarket",
      "outputs": [],
      "stateMutability": "nonpayable",
      "type": "function"
    },
    {
      "inputs": [
        {
          "internalType": "uint256",
          "name": "marketId",
          "type": "uint256"
        },
        {
          "internalType": "uint256",
          "name": "redeemAmount",
          "type": "uint256"
        },
        {
          "internalType": "address",
          "name": "caller",
          "type": "address"
        },
        {
          "internalType": "address",
          "name": "trader",
          "type": "address"
        }
      ],
      "name": "redeemPerpLongZCB",
      "outputs": [
        {
          "internalType": "uint256",
          "name": "collateral_redeem_amount",
          "type": "uint256"
        },
        {
          "internalType": "uint256",
          "name": "seniorAmount",
          "type": "uint256"
        }
      ],
      "stateMutability": "nonpayable",
      "type": "function"
    },
    {
      "inputs": [
        {
          "internalType": "uint256",
          "name": "marketId",
          "type": "uint256"
        },
        {
          "internalType": "uint256",
          "name": "redeemAmount",
          "type": "uint256"
        }
      ],
      "name": "redeemPoolLongZCB",
      "outputs": [
        {
          "internalType": "uint256",
          "name": "collateral_redeem_amount",
          "type": "uint256"
        },
        {
          "internalType": "uint256",
          "name": "seniorAmount",
          "type": "uint256"
        }
      ],
      "stateMutability": "nonpayable",
      "type": "function"
    },
    {
      "inputs": [
        {
          "internalType": "uint256",
          "name": "marketId",
          "type": "uint256"
        }
      ],
      "name": "redeemShortZCB",
      "outputs": [
        {
          "internalType": "uint256",
          "name": "collateral_redeem_amount",
          "type": "uint256"
        }
      ],
      "stateMutability": "nonpayable",
      "type": "function"
    },
    {
      "inputs": [
        {
          "internalType": "uint256",
          "name": "",
          "type": "uint256"
        }
      ],
      "name": "redemption_prices",
      "outputs": [
        {
          "internalType": "uint256",
          "name": "",
          "type": "uint256"
        }
      ],
      "stateMutability": "view",
      "type": "function"
    },
    {
      "inputs": [
        {
          "internalType": "uint256",
          "name": "",
          "type": "uint256"
        }
      ],
      "name": "restriction_data",
      "outputs": [
        {
          "internalType": "bool",
          "name": "duringAssessment",
          "type": "bool"
        },
        {
          "internalType": "bool",
          "name": "onlyReputable",
          "type": "bool"
        },
        {
          "internalType": "bool",
          "name": "resolved",
          "type": "bool"
        },
        {
          "internalType": "bool",
          "name": "alive",
          "type": "bool"
        },
        {
          "internalType": "bool",
          "name": "atLoss",
          "type": "bool"
        },
        {
          "internalType": "uint256",
          "name": "base_budget",
          "type": "uint256"
        }
      ],
      "stateMutability": "view",
      "type": "function"
    },
    {
      "inputs": [
        {
          "internalType": "address",
          "name": "dataStore",
          "type": "address"
        }
      ],
      "name": "setDataStore",
      "outputs": [],
      "stateMutability": "nonpayable",
      "type": "function"
    },
    {
      "inputs": [
        {
          "internalType": "address",
          "name": "_leverageManager",
          "type": "address"
        }
      ],
      "name": "setLeverageManager",
      "outputs": [],
      "stateMutability": "nonpayable",
      "type": "function"
    },
    {
      "inputs": [
        {
          "components": [
            {
              "internalType": "uint256",
              "name": "N",
              "type": "uint256"
            },
            {
              "internalType": "uint256",
              "name": "sigma",
              "type": "uint256"
            },
            {
              "internalType": "uint256",
              "name": "alpha",
              "type": "uint256"
            },
            {
              "internalType": "uint256",
              "name": "omega",
              "type": "uint256"
            },
            {
              "internalType": "uint256",
              "name": "delta",
              "type": "uint256"
            },
            {
              "internalType": "uint256",
              "name": "r",
              "type": "uint256"
            },
            {
              "internalType": "uint256",
              "name": "s",
              "type": "uint256"
            },
            {
              "internalType": "uint256",
              "name": "steak",
              "type": "uint256"
            }
          ],
          "internalType": "struct MarketParameters",
          "name": "param",
          "type": "tuple"
        },
        {
          "internalType": "uint256",
          "name": "utilizationRate",
          "type": "uint256"
        },
        {
          "internalType": "uint256",
          "name": "marketId",
          "type": "uint256"
        }
      ],
      "name": "setParameters",
      "outputs": [],
      "stateMutability": "nonpayable",
      "type": "function"
    },
    {
      "inputs": [
        {
          "internalType": "address",
          "name": "_reputationManager",
          "type": "address"
        }
      ],
      "name": "setReputationManager",
      "outputs": [],
      "stateMutability": "nonpayable",
      "type": "function"
    },
    {
      "inputs": [
        {
          "internalType": "uint256",
          "name": "_marketId",
          "type": "uint256"
        },
        {
          "internalType": "uint256",
          "name": "_amountIn",
          "type": "uint256"
        },
        {
          "internalType": "uint256",
          "name": "_priceLimit",
          "type": "uint256"
        },
        {
          "internalType": "bytes",
          "name": "_tradeRequestData",
          "type": "bytes"
        }
      ],
      "name": "shortBond",
      "outputs": [
        {
          "internalType": "uint256",
          "name": "amountIn",
          "type": "uint256"
        },
        {
          "internalType": "uint256",
          "name": "amountOut",
          "type": "uint256"
        }
      ],
      "stateMutability": "nonpayable",
      "type": "function"
    },
    {
      "inputs": [
        {
          "internalType": "uint256",
          "name": "",
          "type": "uint256"
        },
        {
          "internalType": "address",
          "name": "",
          "type": "address"
        }
      ],
      "name": "shortTrades",
      "outputs": [
        {
          "internalType": "uint256",
          "name": "",
          "type": "uint256"
        }
      ],
      "stateMutability": "view",
      "type": "function"
    },
    {
      "inputs": [
        {
          "internalType": "uint256",
          "name": "amount",
          "type": "uint256"
        },
        {
          "internalType": "bytes",
          "name": "data",
          "type": "bytes"
        }
      ],
      "name": "tradeCallBack",
      "outputs": [],
      "stateMutability": "nonpayable",
      "type": "function"
    },
    {
      "inputs": [
        {
          "internalType": "uint256",
          "name": "marketId",
          "type": "uint256"
        },
        {
          "internalType": "uint256",
          "name": "collateral_required",
          "type": "uint256"
        },
        {
          "internalType": "uint256",
          "name": "zcb_for_sale",
          "type": "uint256"
        },
        {
          "internalType": "address",
          "name": "validator",
          "type": "address"
        }
      ],
      "name": "validatorApprove",
      "outputs": [],
      "stateMutability": "nonpayable",
      "type": "function"
    }
  ],
  "bytecode": {
    "object": "0x60806040523480156200001157600080fd5b50604051620057b5380380620057b58339810160408190526200003491620001e5565b60008054610100600160a81b0319166101006001600160a01b038716021790556002620000fc6040805160e0810182526000808252602082018190529181018290526060808201526080810182905260a0810182905260c08101919091526040518060e0016040528060006001600160a01b0316815260200160006001600160a01b0316815260200160006001600160a01b03168152602001604051806020016040528060008152508152602001600081526020016000815260200160001515815250905090565b8154600180820184556000938452602093849020835160079093020180546001600160a01b03199081166001600160a01b0394851617825594840151918101805486169284169290921790915560408301516002820180549095169216919091179092556060810151909190600382019062000179908262000301565b506080820151600482015560a0820151600582015560c0909101516006909101805491151560ff199092169190911790555050600380546001600160a01b0319163317905550620003cd915050565b80516001600160a01b0381168114620001e057600080fd5b919050565b600080600080600060a08688031215620001fe57600080fd5b6200020986620001c8565b94506200021960208701620001c8565b93506200022960408701620001c8565b6060870151608088015191945092506001600160401b03811681146200024e57600080fd5b809150509295509295909350565b634e487b7160e01b600052604160045260246000fd5b600181811c908216806200028757607f821691505b602082108103620002a857634e487b7160e01b600052602260045260246000fd5b50919050565b601f821115620002fc57600081815260208120601f850160051c81016020861015620002d75750805b601f850160051c820191505b81811015620002f857828155600101620002e3565b5050505b505050565b81516001600160401b038111156200031d576200031d6200025c565b62000335816200032e845462000272565b84620002ae565b602080601f8311600181146200036d5760008415620003545750858301515b600019600386901b1c1916600185901b178555620002f8565b600085815260208120601f198616915b828110156200039e578886015182559484019460019091019084016200037d565b5085821015620003bd5787850151600019600388901b60f8161c191681555b5050505050600190811b01905550565b6153d880620003dd6000396000f3fe608060405234801561001057600080fd5b506004361061029f5760003560e01c8063727b887f11610167578063b1283e77116100ce578063db006a7511610087578063db006a7514610884578063eb44fdd314610897578063ec979082146108aa578063f304c278146108b2578063f4a9e9ba146108c5578063f62f14b0146108d857600080fd5b8063b1283e77146107e2578063b900a0ed14610808578063c6ceb96b1461082b578063cabe2ae11461084b578063d57259531461085e578063da520d3e1461087157600080fd5b80638a6cac3d116101205780638a6cac3d146106fa5780638da5cb5b14610783578063920f4e551461079657806397dcec16146107a95780639ec33416146107bc578063a72be9a1146107cf57600080fd5b8063727b887f1461066157806373124349146106745780637c9bc5ce14610687578063839ee8f6146106a757806387a28827146106bc578063897ca174146106cf57600080fd5b80634cba8cde1161020b57806361fa5af5116101c457806361fa5af5146105e257806363f960d8146105f5578063661f1cf514610608578063669623a6146106285780636abbdc891461063b57806371bd6a091461064e57600080fd5b80634cba8cde146104675780634e042a5914610573578063500065d21461058657806351ba65221461059957806353ac55f5146105ac57806356a837f4146105cf57600080fd5b8063214b39871161025d578063214b3987146103585780632a4a9dd1146103835780633db969f41461041457806341741c06146104275780634b6e7d78146104415780634cb440871461045457600080fd5b80625c2ac3146102a4578063029fcf4a146102d1578063061427c5146102f2578063068bcd8d14610305578063153542cc14610330578063203b243414610343575b600080fd5b6102b76102b236600461461a565b6108eb565b604080519283526020830191909152015b60405180910390f35b6102e46102df3660046146a0565b610fbf565b6040519081526020016102c8565b6102b76103003660046146a0565b61155f565b6103186103133660046146ea565b6119d3565b6040516001600160a01b0390911681526020016102c8565b61031861033e3660046146ea565b611a08565b610356610351366004614711565b611a40565b005b6102e4610366366004614799565b600860209081526000928352604080842090915290825290205481565b6103d96103913660046146ea565b60066020528060005260406000206000915090508060000154908060010154908060020154908060030154908060040154908060050154908060060154908060070154905088565b604080519889526020890197909752958701949094526060860192909252608085015260a084015260c083015260e0820152610100016102c8565b6102b76104223660046147c9565b611bee565b61042f600381565b60405160ff90911681526020016102c8565b600b54610318906001600160a01b031681565b6103566104623660046146ea565b611dbb565b61051d6104753660046146ea565b6040805160c081018252600080825260208201819052918101829052606081018290526080810182905260a081019190915250600090815260056020908152604091829020825160c081018452815460ff8082161515835261010082048116151594830194909452620100008104841615159482019490945263010000008404831615156060820152640100000000909304909116151560808301526001015460a082015290565b6040516102c89190600060c08201905082511515825260208301511515602083015260408301511515604083015260608301511515606083015260808301511515608083015260a083015160a083015292915050565b6103566105813660046148bb565b611ea2565b610356610594366004614950565b61208d565b6102b76105a73660046147c9565b6120fd565b6105bf6105ba3660046146ea565b6121be565b60405190151581526020016102c8565b6103566105dd366004614950565b6121fe565b6103566105f036600461496d565b61226e565b6103566106033660046149b5565b612359565b6102e46106163660046146ea565b600a6020526000908152604090205481565b6103566106363660046149da565b61296e565b610356610649366004614a10565b612b2c565b6102b761065c366004614a45565b612c70565b6102e461066f3660046146ea565b612d2d565b6102e4610682366004614a45565b6130c8565b6102e46106953660046146ea565b60046020526000908152604090205481565b6106af6131d7565b6040516102c89190614ab7565b6103566106ca366004614a10565b613279565b6102e46106dd366004614799565b600960209081526000928352604080842090915290825290205481565b61074c6107083660046146ea565b6005602052600090815260409020805460019091015460ff808316926101008104821692620100008204831692630100000083048116926401000000009004169086565b60408051961515875294151560208701529215159385019390935215156060840152901515608083015260a082015260c0016102c8565b600354610318906001600160a01b031681565b6103186107a43660046146ea565b61336b565b6102e46107b73660046146ea565b6133a3565b6105bf6107ca3660046146ea565b61349f565b6102e46107dd366004614b2c565b6134d6565b6107f56107f03660046146ea565b6134f8565b6040516102c89796959493929190614b6b565b61042f610816366004614950565b600d6020526000908152604090205460ff1681565b61083e6108393660046146ea565b6135e4565b6040516102c89190614bc0565b6103566108593660046146ea565b613699565b6102e461086c366004614799565b613727565b61035661087f366004614c19565b6137eb565b6102e46108923660046146ea565b6138e4565b6106af6108a53660046146ea565b613dea565b6002546102e4565b6103566108c0366004614950565b613f50565b6103566108d3366004614c64565b613fc0565b6105bf6108e6366004614a10565b6140d7565b60008054819060ff161561091a5760405162461bcd60e51b815260040161091190614cb6565b60405180910390fd5b6000805460ff191660011790553330148061093f5750600c546001600160a01b031633145b61095b5760405162461bcd60e51b815260040161091190614cdb565b61096361450c565b60008a815260056020908152604091829020825160c081018452815460ff808216151583526101008204811615159483019490945262010000810484161515948201948552630100000081048416151560608301526401000000009004909216151560808301526001015460a08201526101208301525115610a165760405162461bcd60e51b815260206004820152600c60248201526b1b9bdd081c995cdbdb1d995960a21b6044820152606401610911565b61012081015151610a5b5760405162461bcd60e51b815260206004820152600f60248201526e1bdb9b1e48185cdcd95cdcdb595b9d608a1b6044820152606401610911565b610a66848a8c612b2c565b600060028b81548110610a7b57610a7b614d02565b60009182526020918290206040805160e081018252600790930290910180546001600160a01b0390811684526001820154811694840194909452600281015490931690820152600382018054919291606084019190610ad990614d18565b80601f0160208091040260200160405190810160405280929190818152602001828054610b0590614d18565b8015610b525780601f10610b2757610100808354040283529160200191610b52565b820191906000526020600020905b815481529060010190602001808311610b3557829003601f168201915b5050505050815260200160048201548152602001600582015481526020016006820160009054906101000a900460ff1615151515815250509050600081600001519050806001600160a01b031663244d59cb60018d8d8b604051602001610bc891906001600160a01b0391909116815260200190565b6040516020818303038152906040526040518563ffffffff1660e01b8152600401610bf69493929190614d52565b60408051808303816000875af1158015610c14573d6000803e3d6000fd5b505050506040513d601f19601f82011682018060405250810190610c389190614d83565b8095508196505050806001600160a01b031663b09ad8a06040518163ffffffff1660e01b8152600401602060405180830381865afa158015610c7e573d6000803e3d6000fd5b505050506040513d601f19601f82011682018060405250810190610ca29190614da7565b80845215801590610d145750806001600160a01b03166311e715d66040518163ffffffff1660e01b8152600401602060405180830381865afa158015610cec573d6000803e3d6000fd5b505050506040513d601f19601f82011682018060405250810190610d109190614da7565b8351105b15610d505760405162461bcd60e51b815260206004820152600c60248201526b195e18d9595908189bdd5b9960a21b6044820152606401610911565b610d608c87876000600180614116565b610d6a8c87613727565b836020018181525050600160009054906101000a90046001600160a01b03166001600160a01b0316632e1a65d3878e878988602001518860c001516040518763ffffffff1660e01b8152600401610df6969594939291906001600160a01b039690961686526020860194909452604085019290925260608401526080830152151560a082015260c00190565b600060405180830381600087803b158015610e1057600080fd5b505af1158015610e24573d6000803e3d6000fd5b505050508261012001516020015115610fa457600054604051632500ed8d60e21b8152600481018e9052610f399161010090046001600160a01b031690639403b63490602401602060405180830381865afa158015610e87573d6000803e3d6000fd5b505050506040513d601f19601f82011682018060405250810190610eab9190614dc0565b6001600160a01b0316639ec4d40e8e6040518263ffffffff1660e01b8152600401610ed891815260200190565b600060405180830381865afa158015610ef5573d6000803e3d6000fd5b505050506040513d6000823e601f3d908101601f19168201604052610f1d9190810190614ee8565b60c0015160008e81526006602052604090206003015490614374565b604080850182905260008e8152600a602052205410610fa45760008c81526005602052604090819020805461ff001916815590518d917f638289bd0053d37020d3cfacc73bb398f0d6702821a30abdcaed824bb4a8ebb991610f9b919061500d565b60405180910390a25b50506000805460ff1916905550909890975095505050505050565b6000610fc961450c565b33301480610fe15750600c546001600160a01b031633145b610ffd5760405162461bcd60e51b815260040161091190614cdb565b600054604051632500ed8d60e21b8152600481018890526101009091046001600160a01b031690639403b63490602401602060405180830381865afa15801561104a573d6000803e3d6000fd5b505050506040513d601f19601f8201168201806040525081019061106e9190614dc0565b6001600160a01b031660c0820152600280548790811061109057611090614d02565b6000918252602091829020600790910201546040805163487c0b8160e11b815290516001600160a01b03909216926390f81702926004808401938290030181865afa1580156110e3573d6000803e3d6000fd5b505050506040513d601f19601f820116820180604052508101906111079190614dc0565b6001600160a01b0390811660e083015260c08201516040516350c6e6cf60e01b8152600481018990529116906350c6e6cf90602401602060405180830381865afa158015611159573d6000803e3d6000fd5b505050506040513d601f19601f8201168201806040525081019061117d9190614dc0565b6001600160a01b0390811661010083015260c0820151604051630ca13e4560e41b81526004810189905291169063ca13e45090602401606060405180830381865afa1580156111d0573d6000803e3d6000fd5b505050506040513d601f19601f820116820180604052508101906111f49190615068565b60a08401526060830152608082015260e08101516040516323b872dd60e01b81526001600160a01b03868116600483015230602483015260448201889052909116906323b872dd906064016020604051808303816000875af115801561125e573d6000803e3d6000fd5b505050506040513d601f19601f820116820180604052508101906112829190615096565b5060e081015161010082015160405163095ea7b360e01b81526001600160a01b0391821660048201526024810188905291169063095ea7b3906044016020604051808303816000875af11580156112dd573d6000803e3d6000fd5b505050506040513d601f19601f820116820180604052508101906113019190615096565b5061010081015160c0820151604051636e553f6560e01b8152600481018890526001600160a01b039182166024820152911690636e553f65906044016020604051808303816000875af115801561135c573d6000803e3d6000fd5b505050506040513d601f19601f820116820180604052508101906113809190614da7565b506060810151611391908690614390565b9150600286815481106113a6576113a6614d02565b600091825260209091206007909102015460405163681504cd60e01b81526001600160a01b038681166004830152602482018590529091169063681504cd90604401600060405180830381600087803b15801561140257600080fd5b505af1158015611416573d6000803e3d6000fd5b505050508060c001516001600160a01b03166334928ace8761145e84608001516114588660a00151670de0b6b3a764000061145191906150c9565b8890614374565b90614374565b6040516001600160e01b031960e085901b1681526004810192909252602482015260016044820152606401600060405180830381600087803b1580156114a357600080fd5b505af11580156114b7573d6000803e3d6000fd5b50506001546001600160a01b03169150632e1a65d39050848885896114dc8385613727565b6040516001600160e01b031960e088901b1681526001600160a01b0390951660048601526024850193909352604484019190915260648301526084820152600160a482015260c401600060405180830381600087803b15801561153e57600080fd5b505af1158015611552573d6000803e3d6000fd5b5050505050949350505050565b6000803330148061157a5750600c546001600160a01b031633145b6115965760405162461bcd60e51b815260040161091190614cdb565b60008054604051632500ed8d60e21b8152600481018990526101009091046001600160a01b031690639403b63490602401602060405180830381865afa1580156115e4573d6000803e3d6000fd5b505050506040513d601f19601f820116820180604052508101906116089190614dc0565b905060006002888154811061161f5761161f614d02565b60009182526020918290206040805160e081018252600790930290910180546001600160a01b039081168452600182015481169484019490945260028101549093169082015260038201805491929160608401919061167d90614d18565b80601f01602080910402602001604051908101604052809291908181526020018280546116a990614d18565b80156116f65780601f106116cb576101008083540402835291602001916116f6565b820191906000526020600020905b8154815290600101906020018083116116d957829003601f168201915b5050509183525050600482015460208201526005820154604082015260069091015460ff16151560609091015260c081015190915061175f5760405162461bcd60e51b8152602060048201526005602482015264085c1bdbdb60da1b6044820152606401610911565b6000806000846001600160a01b031663ca13e4508c6040518263ffffffff1660e01b815260040161179291815260200190565b606060405180830381865afa1580156117af573d6000803e3d6000fd5b505050506040513d601f19601f820116820180604052508101906117d39190615068565b919450925090506117e4828b614374565b96506117f4836114588c84614374565b6040516372661f3b60e11b8152600481018d9052602481018990526001600160a01b038b81166044830152606482018390529197509086169063e4cc3e7690608401600060405180830381600087803b15801561185057600080fd5b505af1158015611864573d6000803e3d6000fd5b505050506001600160a01b0388166000908152600d602052604090205460ff16156118b8576001600160a01b0388166000908152600d60205260409020805460ff19811660ff918216600019019091161790555b835160405163c93ac3ed60e01b81526001600160a01b039091169063c93ac3ed906118ec908c908e906001906004016150dc565b600060405180830381600087803b15801561190657600080fd5b505af115801561191a573d6000803e3d6000fd5b50505050600160009054906101000a90046001600160a01b03166001600160a01b0316639bf7927d898d8560008f6040518663ffffffff1660e01b81526004016119939594939291906001600160a01b039590951685526020850193909352604084019190915215156060830152608082015260a00190565b600060405180830381600087803b1580156119ad57600080fd5b505af11580156119c1573d6000803e3d6000fd5b50505050505050505094509492505050565b6000600282815481106119e8576119e8614d02565b60009182526020909120600790910201546001600160a01b031692915050565b600060028281548110611a1d57611a1d614d02565b60009182526020909120600160079092020101546001600160a01b031692915050565b60005461010090046001600160a01b0316331480611a6857506003546001600160a01b031633145b80611a7257503330145b611a8e5760405162461bcd60e51b8152600401610911906150ff565b600042905060026040518060e00160405280896001600160a01b03168152602001886001600160a01b03168152602001876001600160a01b0316815260200186868080601f01602080910402602001604051908101604052809392919081815260200183838082843760009201829052509385525050506020808301869052604080840183905287151560609485015285546001818101885596845292829020855160079094020180546001600160a01b039485166001600160a01b0319918216178255928601519681018054978516978416979097179096558401516002860180549190931691161790558101519091906003820190611b8f9082615172565b506080820151600482015560a0820151600582015560c0909101516006909101805460ff19169115159190911790556000611bd4670de0b6b3a76400006103e8615231565b9050611be389600180846143a5565b505050505050505050565b60008054819060ff1615611c145760405162461bcd60e51b815260040161091190614cb6565b6000805460ff191660011790556002805488908110611c3557611c35614d02565b600091825260209091206006600790920201015460ff1615611c915760405162461bcd60e51b81526020600482015260156024820152741bdb9b1e48199a5e1959081a5b9cdd1c9d5b595b9d605a1b6044820152606401610911565b60008781526005602052604090205460ff16611ce15760405162461bcd60e51b815260206004820152600f60248201526e1bdb9b1e48185cdcd95cdcdb595b9d608a1b6044820152606401610911565b60028781548110611cf457611cf4614d02565b6000918252602080832060079290920290910154604080513381850152815180820390940184528082019182905263244d59cb60e01b9091526001600160a01b039091169263244d59cb92611d4f928b918b91604401614d52565b60408051808303816000875af1158015611d6d573d6000803e3d6000fd5b505050506040513d601f19601f82011682018060405250810190611d919190614d83565b92509050611da58733838560016000614116565b6000805460ff1916905590969095509350505050565b60005461010090046001600160a01b0316331480611de357506003546001600160a01b031633145b80611ded57503330145b611e095760405162461bcd60e51b8152600401610911906150ff565b60008181526005602052604090205460ff16611e555760405162461bcd60e51b815260206004820152600b60248201526a08585cdcd95cdcdb595b9d60aa1b6044820152606401610911565b600081815260056020526040808220805463ffff00001916620100001781559051909183917f38274fdcd6150638fa33375a76a55bc5b507aa04639aef21fcf7a1bf0b9c095d9190a25050565b60005461010090046001600160a01b0316331480611eca57506003546001600160a01b031633145b80611ed457503330145b611ef05760405162461bcd60e51b8152600401610911906150ff565b600160009054906101000a90046001600160a01b03166001600160a01b03166357b613606040518163ffffffff1660e01b8152600401600060405180830381865afa158015611f43573d6000803e3d6000fd5b505050506040513d6000823e601f3d908101601f19168201604052611f6b9190810190615248565b5183511115611fbc5760405162461bcd60e51b815260206004820152601860248201527f6e6f7420656e6f756768207261746564207472616465727300000000000000006044820152606401610911565b60008181526006602081815260409283902086518155908601516001820155918501516002830155606085015160038301556080850151600483015560a0850151600583015560c08501519082015560e084015160079091015561203661202b83670de0b6b3a76400006152f9565b60c085015190614374565b6006600083815260200190815260200160002060060181905550807fc6be93ca0e8d44d5b418bde056f5e013750978c7573c74a4db7dd18754660c14846040516120809190614bc0565b60405180910390a2505050565b60005461010090046001600160a01b03163314806120b557506003546001600160a01b031633145b806120bf57503330145b6120db5760405162461bcd60e51b8152600401610911906150ff565b600b80546001600160a01b0319166001600160a01b0392909216919091179055565b604051625c2ac360e01b815260009081903090625c2ac39061212f908a908a908a908a908a903390819060040161530c565b60408051808303816000875af115801561214d573d6000803e3d6000fd5b505050506040513d601f19601f820116820180604052508101906121719190614d83565b6040805183815260208101839052929450909250339189917fd6ee91448c6836b63f1abdfff873fbd5c83e4b0e10260d5646be82e2148cd49b910160405180910390a39550959350505050565b6000818152600560205260408120546301000000900460ff161580156121f8575060008281526005602052604090205462010000900460ff165b92915050565b60005461010090046001600160a01b031633148061222657506003546001600160a01b031633145b8061223057503330145b61224c5760405162461bcd60e51b8152600401610911906150ff565b600180546001600160a01b0319166001600160a01b0392909216919091179055565b60005461010090046001600160a01b031633148061229657506003546001600160a01b031633145b806122a057503330145b6122bc5760405162461bcd60e51b8152600401610911906150ff565b6000848152600560209081526040808320805464ff00ff000019166201000087151590810264ff000000001916919091176401000000008915159081029190911763ff0000001916909255600484529382902085905581519081529182019290925290810182905284907fd06c6eb2c866c530dc5ab4b6479bdfd8db2d514363444eb65154e19c864563df9060600160405180910390a250505050565b60005460ff161561237c5760405162461bcd60e51b815260040161091190614cb6565b6000805460ff19166001178155828152600560205260409020546301000000900460ff16156123ed5760405162461bcd60e51b815260206004820152601e60248201527f4d61726b6574205374696c6c20447572696e67204173736573736d656e7400006044820152606401610911565b60008281526005602052604090205460ff1661244b5760405162461bcd60e51b815260206004820152601860248201527f4d61726b657420686173206265656e20617070726f76656400000000000000006044820152606401610911565b60006002838154811061246057612460614d02565b600091825260208220600790910201546001600160a01b0316915080836125df576002858154811061249457612494614d02565b60009182526020909120600790910201600201546040516370a0823160e01b81523360048201526001600160a01b03909116906370a0823190602401602060405180830381865afa1580156124ed573d6000803e3d6000fd5b505050506040513d601f19601f820116820180604052508101906125119190614da7565b905060008581526009602090815260408083203380855290835281842080549085905582518a815293840191909152908201929092529092507f06c254f742aaf3565852bdb3bb0ac74a536ece577c01929d15a74bc398702d7c9060600160405180910390a160405163c93ac3ed60e01b81526001600160a01b0384169063c93ac3ed906125a890339085906000906004016150dc565b600060405180830381600087803b1580156125c257600080fd5b505af11580156125d6573d6000803e3d6000fd5b505050506128ee565b600285815481106125f2576125f2614d02565b60009182526020909120600790910201600101546040516370a0823160e01b81523360048201526001600160a01b03909116906370a0823190602401602060405180830381865afa15801561264b573d6000803e3d6000fd5b505050506040513d601f19601f8201168201806040525081019061266f9190614da7565b90506000546040516323f2a73f60e01b8152600481018790523360248201526101009091046001600160a01b0316906323f2a73f90604401602060405180830381865afa1580156126c4573d6000803e3d6000fd5b505050506040513d601f19601f820116820180604052508101906126e89190615096565b8015612766575060005460405163046b1ab560e31b8152600481018790523360248201526101009091046001600160a01b031690632358d5a890604401602060405180830381865afa158015612742573d6000803e3d6000fd5b505050506040513d601f19601f820116820180604052508101906127669190615096565b156127eb57600054604051634187150160e11b8152600481018790523360248201526101009091046001600160a01b03169063830e2a02906044016020604051808303816000875af11580156127c0573d6000803e3d6000fd5b505050506040513d601f19601f820116820180604052508101906127e49190614da7565b915061284b565b60008581526008602090815260408083203380855290835281842080549490558151898152928301526001908201529092507f06c254f742aaf3565852bdb3bb0ac74a536ece577c01929d15a74bc398702d7c9060600160405180910390a15b60405163c93ac3ed60e01b81526001600160a01b0384169063c93ac3ed9061287c90339085906001906004016150dc565b600060405180830381600087803b15801561289657600080fd5b505af11580156128aa573d6000803e3d6000fd5b5050336000908152600d602052604090205460ff161591506128ee905057336000908152600d60205260409020805460ff19811660ff918216600019019091161790555b600054604051631e1fa3a760e31b815260048101849052336024820152604481018790526101009091046001600160a01b03169063f0fd1d3890606401600060405180830381600087803b15801561294557600080fd5b505af1158015612959573d6000803e3d6000fd5b50506000805460ff1916905550505050505050565b60005461010090046001600160a01b031633148061299657506003546001600160a01b031633145b806129a057503330145b6129bc5760405162461bcd60e51b8152600401610911906150ff565b6000848152600a6020526040812080548592906129da9084906150c9565b90915550600090506129eb856119d3565b9050806001600160a01b03166390f817026040518163ffffffff1660e01b8152600401602060405180830381865afa158015612a2b573d6000803e3d6000fd5b505050506040513d601f19601f82011682018060405250810190612a4f9190614dc0565b6040516323b872dd60e01b81526001600160a01b03848116600483015283811660248301526044820187905291909116906323b872dd906064016020604051808303816000875af1158015612aa8573d6000803e3d6000fd5b505050506040513d601f19601f82011682018060405250810190612acc9190615096565b5060405163681504cd60e01b81526001600160a01b0383811660048301526024820185905282169063681504cd906044015b600060405180830381600087803b158015612b1857600080fd5b505af1158015611be3573d6000803e3d6000fd5b6000818152600560205260409020546301000000900460ff16612b615760405162461bcd60e51b815260040161091190615368565b60008181526005602052604081205460ff808216926101009092041690841315612b96578115612b9657612b96858585613279565b8015612c6957600080548482526006602052604091829020600501549151637453c01360e11b81526001600160a01b03888116600483015260248201939093526101009091049091169063e8a7802690604401602060405180830381865afa158015612c06573d6000803e3d6000fd5b505050506040513d601f19601f82011682018060405250810190612c2a9190615096565b612c695760405162461bcd60e51b815260206004820152601060248201526f0696e73756666696369656e74207265760841b6044820152606401610911565b5050505050565b60008054819060ff1615612c965760405162461bcd60e51b815260040161091190614cb6565b6000805460ff1916600117905560405163061427c560e01b8152600481018590526024810184905233604482018190526064820152309063061427c59060840160408051808303816000875af1158015612cf4573d6000803e3d6000fd5b505050506040513d601f19601f82011682018060405250810190612d189190614d83565b6000805460ff19169055909590945092505050565b6000805460ff1615612d515760405162461bcd60e51b815260040161091190614cb6565b6000805460ff19166001178155828152600560205260409020546301000000900460ff1615612dab5760405162461bcd60e51b815260206004820152600660248201526541637469766560d01b6044820152606401610911565b60008281526005602052604090205462010000900460ff16612dfb5760405162461bcd60e51b8152602060048201526009602482015268085c995cdbdb1d995960ba1b6044820152606401610911565b600082815260076020908152604080832033845290915290205460ff1615612e505760405162461bcd60e51b815260206004820152600860248201526714995919595b595960c21b6044820152606401610911565b60028281548110612e6357612e63614d02565b600091825260209091206006600790920201015460ff1615612eb05760405162461bcd60e51b8152600401610911906020808252600490820152631c1bdbdb60e21b604082015260600190565b60008281526007602090815260408083203384529091528120805460ff191660011790556002805484908110612ee857612ee8614d02565b60009182526020822060079091020154600280546001600160a01b0390921693509085908110612f1a57612f1a614d02565b60009182526020909120600790910201600201546040516370a0823160e01b81523360048201526001600160a01b03909116906370a0823190602401602060405180830381865afa158015612f73573d6000803e3d6000fd5b505050506040513d601f19601f82011682018060405250810190612f979190614da7565b600085815260046020526040812054919250670de0b6b3a7640000821015612fd057612fcb82670de0b6b3a76400006152f9565b612fd3565b60005b9050612fdf8184614374565b60405163c93ac3ed60e01b81529095506001600160a01b0385169063c93ac3ed9061301390339087906000906004016150dc565b600060405180830381600087803b15801561302d57600080fd5b505af1158015613041573d6000803e3d6000fd5b5050600054604051631e1fa3a760e31b815260048101899052336024820152604481018a90526101009091046001600160a01b0316925063f0fd1d389150606401600060405180830381600087803b15801561309c57600080fd5b505af11580156130b0573d6000803e3d6000fd5b50506000805460ff1916905550949695505050505050565b6000805460ff16156130ec5760405162461bcd60e51b815260040161091190614cb6565b6000805460ff191660011781558381526005602052604090205460ff16156131455760405162461bcd60e51b815260206004820152600c60248201526b141c9948105c1c1c9bdd985b60a21b6044820152606401610911565b613150338385613279565b60405163014fe7a560e11b8152600481018490526024810183905233604482018190526064820152309063029fcf4a906084016020604051808303816000875af11580156131a2573d6000803e3d6000fd5b505050506040513d601f19601f820116820180604052508101906131c69190614da7565b6000805460ff191690559392505050565b6040805160e0810182526000808252602082018190529181018290526060808201526080810182905260a0810182905260c08101919091526040518060e0016040528060006001600160a01b0316815260200160006001600160a01b0316815260200160006001600160a01b03168152602001604051806020016040528060008152508152602001600081526020016000815260200160001515815250905090565b816132848285613727565b116132ba5760405162461bcd60e51b8152602060048201526006602482015265189d5919d95d60d21b6044820152606401610911565b6000546040516308ad90a560e01b81526001600160a01b038581166004830152610100909204909116906308ad90a590602401602060405180830381865afa15801561330a573d6000803e3d6000fd5b505050506040513d601f19601f8201168201806040525081019061332e9190614da7565b6000036133665760405162461bcd60e51b8152600401610911906020808252600490820152630217265760e41b604082015260600190565b505050565b60006002828154811061338057613380614d02565b60009182526020909120600260079092020101546001600160a01b031692915050565b600081815260056020526040812054610100900460ff16156133c757506001919050565b60008281526005602052604090205460ff1680156133f95750600082815260056020526040902054610100900460ff16155b156134845760005460405163b743939b60e01b8152600481018490526101009091046001600160a01b03169063b743939b90602401602060405180830381865afa15801561344b573d6000803e3d6000fd5b505050506040513d601f19601f8201168201806040525081019061346f9190615096565b1561347c57506003919050565b506002919050565b61348d8261349f565b1561349a57506004919050565b919050565b60008181526005602052604081205460ff161580156121f85750506000908152600560205260409020546301000000900460ff1690565b600080600285815481106134ec576134ec614d02565b50600052509392505050565b6002818154811061350857600080fd5b600091825260209091206007909102018054600182015460028301546003840180546001600160a01b0394851696509284169493909116929161354a90614d18565b80601f016020809104026020016040519081016040528092919081815260200182805461357690614d18565b80156135c35780601f10613598576101008083540402835291602001916135c3565b820191906000526020600020905b8154815290600101906020018083116135a657829003601f168201915b50505050600483015460058401546006909401549293909290915060ff1687565b61362c60405180610100016040528060008152602001600081526020016000815260200160008152602001600081526020016000815260200160008152602001600081525090565b50600090815260066020818152604092839020835161010081018552815481526001820154928101929092526002810154938201939093526003830154606082015260048301546080820152600583015460a08201529082015460c082015260079091015460e082015290565b60005461010090046001600160a01b03163314806136c157506003546001600160a01b031633145b806136cb57503330145b6136e75760405162461bcd60e51b8152600401610911906150ff565b600081815260056020526040808220805460ff191690555182917fd92bb9e130abbedd10c99eb70af2c4bf2d534f985df768e29fd28e1593e9d20291a250565b6001546040516344c7439360e01b81526001600160a01b03838116600483015260009283929116906344c7439390602401602060405180830381865afa158015613775573d6000803e3d6000fd5b505050506040513d601f19601f820116820180604052508101906137999190614da7565b9050806000036137ad5760009150506121f8565b6137c76137c2670de0b6b3a764000083615231565b614424565b6000858152600560205260409020600101546137e391906150c9565b949350505050565b336001600160a01b03166390f817026040518163ffffffff1660e01b8152600401602060405180830381865afa158015613829573d6000803e3d6000fd5b505050506040513d601f19601f8201168201806040525081019061384d9190614dc0565b6001600160a01b03166323b872dd61386783850185614950565b6040516001600160e01b031960e084901b1681526001600160a01b039091166004820152336024820152604481018690526064016020604051808303816000875af11580156138ba573d6000803e3d6000fd5b505050506040513d601f19601f820116820180604052508101906138de9190615096565b50505050565b6000805460ff16156139085760405162461bcd60e51b815260040161091190614cb6565b6000805460ff19166001178155828152600560205260409020546301000000900460ff16156139495760405162461bcd60e51b815260040161091190615368565b60008281526005602052604090205462010000900460ff166139995760405162461bcd60e51b8152602060048201526009602482015268085c995cdbdb1d995960ba1b6044820152606401610911565b600082815260076020908152604080832033845290915290205460ff16156139ee5760405162461bcd60e51b815260206004820152600860248201526714995919595b595960c21b6044820152606401610911565b60008281526007602090815260408083203384529091528120805460ff191660011790556002805484908110613a2657613a26614d02565b600091825260208220600791909102015490546040516323f2a73f60e01b8152600481018690523360248201526001600160a01b039283169350610100909104909116906323f2a73f90604401602060405180830381865afa158015613a90573d6000803e3d6000fd5b505050506040513d601f19601f82011682018060405250810190613ab49190615096565b15613b2257600054604051638f5709a560e01b8152600481018590523360248201526101009091046001600160a01b031690638f5709a590604401600060405180830381600087803b158015613b0957600080fd5b505af1158015613b1d573d6000803e3d6000fd5b505050505b600060028481548110613b3757613b37614d02565b60009182526020909120600790910201600101546040516370a0823160e01b81523360048201526001600160a01b03909116906370a0823190602401602060405180830381865afa158015613b90573d6000803e3d6000fd5b505050506040513d601f19601f82011682018060405250810190613bb49190614da7565b600085815260046020526040902054909150613bd08183614374565b6000546040516323f2a73f60e01b81526004810188905233602482015291955061010090046001600160a01b0316906323f2a73f90604401602060405180830381865afa158015613c25573d6000803e3d6000fd5b505050506040513d601f19601f82011682018060405250810190613c499190615096565b613cc757600154604051639bf7927d60e01b8152336004820152602481018790526044810183905260006064820152608481018490526001600160a01b0390911690639bf7927d9060a401600060405180830381600087803b158015613cae57600080fd5b505af1158015613cc2573d6000803e3d6000fd5b505050505b336000908152600d602052604090205460ff1615613d0557336000908152600d60205260409020805460ff19811660ff918216600019019091161790555b60405163c93ac3ed60e01b81526001600160a01b0384169063c93ac3ed90613d3690339086906001906004016150dc565b600060405180830381600087803b158015613d5057600080fd5b505af1158015613d64573d6000803e3d6000fd5b5050600054604051631e1fa3a760e31b815260048101889052336024820152604481018990526101009091046001600160a01b0316925063f0fd1d389150606401600060405180830381600087803b158015613dbf57600080fd5b505af1158015613dd3573d6000803e3d6000fd5b50506000805460ff19169055509395945050505050565b6040805160e0810182526000808252602082018190529181018290526060808201526080810182905260a0810182905260c08101919091526002548210613e33576121f86131d7565b60028281548110613e4657613e46614d02565b60009182526020918290206040805160e081018252600790930290910180546001600160a01b0390811684526001820154811694840194909452600281015490931690820152600382018054919291606084019190613ea490614d18565b80601f0160208091040260200160405190810160405280929190818152602001828054613ed090614d18565b8015613f1d5780601f10613ef257610100808354040283529160200191613f1d565b820191906000526020600020905b815481529060010190602001808311613f0057829003601f168201915b5050509183525050600482015460208201526005820154604082015260069091015460ff16151560609091015292915050565b60005461010090046001600160a01b0316331480613f7857506003546001600160a01b031633145b80613f8257503330145b613f9e5760405162461bcd60e51b8152600401610911906150ff565b600c80546001600160a01b0319166001600160a01b0392909216919091179055565b600c546001600160a01b031633146140095760405162461bcd60e51b815260206004820152600c60248201526b1d5b985d5d1a1bdc9a5e995960a21b6044820152606401610911565b6002858154811061401c5761401c614d02565b600091825260209091206007909102015460405163c93ac3ed60e01b81526001600160a01b039091169063c93ac3ed9061405f90879087906001906004016150dc565b600060405180830381600087803b15801561407957600080fd5b505af115801561408d573d6000803e3d6000fd5b5050600054604051631e1fa3a760e31b8152600481018590526001600160a01b038681166024830152604482018a9052610100909204909116925063f0fd1d389150606401612afe565b6000818152600560205260408120546301000000900460ff1661410c5760405162461bcd60e51b815260040161091190615368565b5060019392505050565b80156142255781156141c55760008681526008602090815260408083206001600160a01b0389168452909152812080548692906141549084906150c9565b90915550506000868152600a6020526040812080548692906141779084906150c9565b90915550506001600160a01b0385166000908152600d602052604081208054600192906141a890849060ff16615389565b92506101000a81548160ff021916908360ff1602179055506142b8565b60008681526008602090815260408083206001600160a01b0389168452909152812080548692906141f79084906152f9565b90915550506000868152600a60205260408120805486929061421a9084906152f9565b909155506142b89050565b811561425d5760008681526009602090815260408083206001600160a01b0389168452909152812080548592906141f79084906150c9565b60008681526009602090815260408083206001600160a01b03891684529091528120805485929061428f9084906152f9565b90915550506000868152600a6020526040812080548692906142b29084906150c9565b90915550505b60008681526009602090815260408083206001600160a01b038916808552908352928190205481518a81529283019390935281019190915281151560608201527f32076afaca7402bc10b9630807a4dfae8705ce717003379b3a9b9fded61cfcd99060800160405180910390a16000868152600a6020908152604091829020548251898152918201527fd73e4190e6ad8eb7c343adb20a0c47ea50245809803b3ed7ad4104fdb07c23a8910160405180910390a1505050505050565b60006143898383670de0b6b3a76400006144c8565b9392505050565b600061438983670de0b6b3a7640000846144e6565b60008481526005602052604090819020805460018201849055630100000061ffff199091166101008615150260ff1916178615151763ff0000001916178155905185907f638289bd0053d37020d3cfacc73bb398f0d6702821a30abdcaed824bb4a8ebb99061441590849061500d565b60405180910390a25050505050565b60b581600160881b811061443d5760409190911b9060801c5b690100000000000000000081106144595760209190911b9060401c5b6501000000000081106144715760109190911b9060201c5b630100000081106144875760089190911b9060101c5b62010000010260121c80820401600190811c80830401811c80830401811c80830401811c80830401811c80830401811c80830401901c908190048111900390565b60008260001904841183021582026144df57600080fd5b5091020490565b60008260001904841183021582026144fd57600080fd5b50910281810615159190040190565b60405180610140016040528060008152602001600081526020016000815260200160008152602001600081526020016000815260200160006001600160a01b0316815260200160006001600160a01b0316815260200160006001600160a01b031681526020016145b56040518060c00160405280600015158152602001600015158152602001600015158152602001600015158152602001600015158152602001600081525090565b905290565b60008083601f8401126145cc57600080fd5b5081356001600160401b038111156145e357600080fd5b6020830191508360208285010111156145fb57600080fd5b9250929050565b6001600160a01b038116811461461757600080fd5b50565b600080600080600080600060c0888a03121561463557600080fd5b87359650602088013595506040880135945060608801356001600160401b0381111561466057600080fd5b61466c8a828b016145ba565b909550935050608088013561468081614602565b915060a088013561469081614602565b8091505092959891949750929550565b600080600080608085870312156146b657600080fd5b843593506020850135925060408501356146cf81614602565b915060608501356146df81614602565b939692955090935050565b6000602082840312156146fc57600080fd5b5035919050565b801515811461461757600080fd5b600080600080600080600060c0888a03121561472c57600080fd5b87359650602088013561473e81614602565b9550604088013561474e81614602565b9450606088013561475e81614602565b935060808801356001600160401b0381111561477957600080fd5b6147858a828b016145ba565b90945092505060a088013561469081614703565b600080604083850312156147ac57600080fd5b8235915060208301356147be81614602565b809150509250929050565b6000806000806000608086880312156147e157600080fd5b85359450602086013593506040860135925060608601356001600160401b0381111561480c57600080fd5b614818888289016145ba565b969995985093965092949392505050565b634e487b7160e01b600052604160045260246000fd5b60405161010081016001600160401b038111828210171561486257614862614829565b60405290565b6040516101c081016001600160401b038111828210171561486257614862614829565b604051601f8201601f191681016001600160401b03811182821017156148b3576148b3614829565b604052919050565b60008060008385036101408112156148d257600080fd5b610100808212156148e257600080fd5b6148ea61483f565b9150853582526020860135602083015260408601356040830152606086013560608301526080860135608083015260a086013560a083015260c086013560c083015260e086013560e0830152819450808601359350505061012084013590509250925092565b60006020828403121561496257600080fd5b813561438981614602565b6000806000806080858703121561498357600080fd5b84359350602085013561499581614703565b925060408501356149a581614703565b9396929550929360600135925050565b600080604083850312156149c857600080fd5b8235915060208301356147be81614703565b600080600080608085870312156149f057600080fd5b84359350602085013592506040850135915060608501356146df81614602565b600080600060608486031215614a2557600080fd5b8335614a3081614602565b95602085013595506040909401359392505050565b60008060408385031215614a5857600080fd5b50508035926020909101359150565b60005b83811015614a82578181015183820152602001614a6a565b50506000910152565b60008151808452614aa3816020860160208601614a67565b601f01601f19169290920160200192915050565b60208152600060018060a01b0380845116602084015280602085015116604084015280604085015116606084015250606083015160e06080840152614b00610100840182614a8b565b9050608084015160a084015260a084015160c084015260c0840151151560e08401528091505092915050565b600080600060608486031215614b4157600080fd5b83359250602084013561ffff81168114614b5a57600080fd5b929592945050506040919091013590565b6001600160a01b03888116825287811660208301528616604082015260e060608201819052600090614b9f90830187614a8b565b60808301959095525060a0810192909252151560c090910152949350505050565b600061010082019050825182526020830151602083015260408301516040830152606083015160608301526080830151608083015260a083015160a083015260c083015160c083015260e083015160e083015292915050565b600080600060408486031215614c2e57600080fd5b8335925060208401356001600160401b03811115614c4b57600080fd5b614c57868287016145ba565b9497909650939450505050565b600080600080600060a08688031215614c7c57600080fd5b853594506020860135614c8e81614602565b9350604086013592506060860135614ca581614602565b949793965091946080013592915050565b6020808252600b908201526a4552525f5245454e54525960a81b604082015260600190565b6020808252600d908201526c696e76616c696420656e74727960981b604082015260600190565b634e487b7160e01b600052603260045260246000fd5b600181811c90821680614d2c57607f821691505b602082108103614d4c57634e487b7160e01b600052602260045260246000fd5b50919050565b8415158152836020820152826040820152608060608201526000614d796080830184614a8b565b9695505050505050565b60008060408385031215614d9657600080fd5b505080516020909101519092909150565b600060208284031215614db957600080fd5b5051919050565b600060208284031215614dd257600080fd5b815161438981614602565b805161349a81614703565b600082601f830112614df957600080fd5b81516001600160401b03811115614e1257614e12614829565b614e25601f8201601f191660200161488b565b818152846020838601011115614e3a57600080fd5b6137e3826020830160208701614a67565b805161349a81614602565b80516006811061349a57600080fd5b600060e08284031215614e7757600080fd5b60405160e081018181106001600160401b0382111715614e9957614e99614829565b8060405250809150825181526020830151602082015260408301516040820152606083015160608201526080830151608082015260a083015160a082015260c083015160c08201525092915050565b600060208284031215614efa57600080fd5b81516001600160401b0380821115614f1157600080fd5b908301906102808286031215614f2657600080fd5b614f2e614868565b82518152614f3e60208401614ddd565b6020820152614f4f60408401614ddd565b6040820152606083015160608201526080830151608082015260a083015160a082015260c083015160c082015260e083015160e08201526101008084015181830152506101208084015183811115614fa657600080fd5b614fb288828701614de8565b8284015250506101409150614fc8828401614e4b565b828201526101609150614fdc828401614e56565b82820152610180915081830151828201526101a09150614ffe86838501614e65565b91810191909152949350505050565b600060c082019050825460ff81161515835260ff8160081c161515602084015260ff8160101c161515604084015260ff8160181c161515606084015260ff8160201c161515608084015250600183015460a083015292915050565b60008060006060848603121561507d57600080fd5b8351925060208401519150604084015190509250925092565b6000602082840312156150a857600080fd5b815161438981614703565b634e487b7160e01b600052601160045260246000fd5b808201808211156121f8576121f86150b3565b6001600160a01b0393909316835260208301919091521515604082015260600190565b6020808252600b908201526a10b1b7b73a3937b63632b960a91b604082015260600190565b601f82111561336657600081815260208120601f850160051c8101602086101561514b5750805b601f850160051c820191505b8181101561516a57828155600101615157565b505050505050565b81516001600160401b0381111561518b5761518b614829565b61519f816151998454614d18565b84615124565b602080601f8311600181146151d457600084156151bc5750858301515b600019600386901b1c1916600185901b17855561516a565b600085815260208120601f198616915b82811015615203578886015182559484019460019091019084016151e4565b50858210156152215787850151600019600388901b60f8161c191681555b5050505050600190811b01905550565b80820281158282048414176121f8576121f86150b3565b6000602080838503121561525b57600080fd5b82516001600160401b038082111561527257600080fd5b818501915085601f83011261528657600080fd5b81518181111561529857615298614829565b8060051b91506152a984830161488b565b81815291830184019184810190888411156152c357600080fd5b938501935b838510156152ed57845192506152dd83614602565b82825293850193908501906152c8565b98975050505050505050565b818103818111156121f8576121f86150b3565b87815286602082015285604082015260c060608201528360c0820152838560e0830137600060e08583018101919091526001600160a01b0393841660808301529190921660a0830152601f909201601f19160101949350505050565b6020808252600790820152662141637469766560c81b604082015260600190565b60ff81811683821601908111156121f8576121f86150b356fea264697066735822122093ce248e2d744a00bd627f389d31083af6fa69a0f14270eff0c04a08d837b75e64736f6c63430008110033",
    "linkReferences": {}
  },
  "methodIdentifiers": {
    "Data()": "4b6e7d78",
    "_canBuy(address,int256,uint256)": "6abbdc89",
    "_canIssue(address,int256,uint256)": "87a28827",
    "_canSell(address,uint256,uint256)": "f62f14b0",
    "approveMarket(uint256)": "cabe2ae1",
    "burnAndTransfer(uint256,address,uint256,address,uint256)": "f4a9e9ba",
    "buyBond(uint256,int256,uint256,bytes)": "51ba6522",
    "buylongZCB(uint256,int256,uint256,bytes,address,address)": "005c2ac3",
    "claimFunnel(uint256,uint16,uint256)": "a72be9a1",
    "deactivateMarket(uint256,bool,bool,uint256)": "61fa5af5",
    "denyMarket(uint256)": "4cb44087",
    "getCurrentMarketPhase(uint256)": "97dcec16",
    "getMarket(uint256)": "eb44fdd3",
    "getParameters(uint256)": "c6ceb96b",
    "getPhaseData(uint256)": "4cba8cde",
    "getPool(uint256)": "068bcd8d",
    "getShortZCB(uint256)": "920f4e55",
    "getTraderBudget(uint256,address)": "d5725953",
    "getZCB(uint256)": "153542cc",
    "isMarketApproved(uint256)": "9ec33416",
    "isMarketResolved(uint256)": "53ac55f5",
    "issueBond(uint256,uint256,address,address)": "029fcf4a",
    "issuePoolBond(uint256,uint256)": "73124349",
    "loggedCollaterals(uint256)": "661f1cf5",
    "longTrades(uint256,address)": "214b3987",
    "makeEmptyMarketData()": "839ee8f6",
    "marketCount()": "ec979082",
    "markets(uint256)": "b1283e77",
    "newMarket(uint256,address,address,address,string,bool)": "203b2434",
    "owner()": "8da5cb5b",
    "parameters(uint256)": "2a4a9dd1",
    "queuedRepThreshold()": "41741c06",
    "queuedRepUpdates(address)": "b900a0ed",
    "redeem(uint256)": "db006a75",
    "redeemDeniedMarket(uint256,bool)": "63f960d8",
    "redeemPerpLongZCB(uint256,uint256,address,address)": "061427c5",
    "redeemPoolLongZCB(uint256,uint256)": "71bd6a09",
    "redeemShortZCB(uint256)": "727b887f",
    "redemption_prices(uint256)": "7c9bc5ce",
    "restriction_data(uint256)": "8a6cac3d",
    "setDataStore(address)": "500065d2",
    "setLeverageManager(address)": "f304c278",
    "setParameters((uint256,uint256,uint256,uint256,uint256,uint256,uint256,uint256),uint256,uint256)": "4e042a59",
    "setReputationManager(address)": "56a837f4",
    "shortBond(uint256,uint256,uint256,bytes)": "3db969f4",
    "shortTrades(uint256,address)": "897ca174",
    "tradeCallBack(uint256,bytes)": "da520d3e",
    "validatorApprove(uint256,uint256,uint256,address)": "669623a6"
  },
  "id": 19
}