{
  "abi": [
    {
      "inputs": [
        {
          "internalType": "address",
          "name": "_controller",
          "type": "address"
        }
      ],
      "stateMutability": "nonpayable",
      "type": "constructor"
    },
    {
      "anonymous": false,
      "inputs": [
        {
          "indexed": true,
          "internalType": "uint256",
          "name": "marketId",
          "type": "uint256"
        },
        {
          "indexed": true,
          "internalType": "uint256",
          "name": "price",
          "type": "uint256"
        },
        {
          "components": [
            {
              "internalType": "bool",
              "name": "isLong",
              "type": "bool"
            },
            {
              "internalType": "uint256",
              "name": "price",
              "type": "uint256"
            },
            {
              "internalType": "uint256",
              "name": "amount",
              "type": "uint256"
            },
            {
              "internalType": "uint256",
              "name": "orderId",
              "type": "uint256"
            },
            {
              "internalType": "address",
              "name": "owner",
              "type": "address"
            }
          ],
          "indexed": false,
          "internalType": "struct Order",
          "name": "order",
          "type": "tuple"
        },
        {
          "indexed": false,
          "internalType": "uint256",
          "name": "amount",
          "type": "uint256"
        }
      ],
      "name": "OrderFilled",
      "type": "event"
    },
    {
      "anonymous": false,
      "inputs": [
        {
          "indexed": true,
          "internalType": "uint256",
          "name": "marketId",
          "type": "uint256"
        },
        {
          "indexed": true,
          "internalType": "uint256",
          "name": "price",
          "type": "uint256"
        },
        {
          "indexed": false,
          "internalType": "address",
          "name": "owner",
          "type": "address"
        },
        {
          "components": [
            {
              "internalType": "bool",
              "name": "isLong",
              "type": "bool"
            },
            {
              "internalType": "uint256",
              "name": "price",
              "type": "uint256"
            },
            {
              "internalType": "uint256",
              "name": "amount",
              "type": "uint256"
            },
            {
              "internalType": "uint256",
              "name": "orderId",
              "type": "uint256"
            },
            {
              "internalType": "address",
              "name": "owner",
              "type": "address"
            }
          ],
          "indexed": false,
          "internalType": "struct Order",
          "name": "order",
          "type": "tuple"
        }
      ],
      "name": "OrderSubmitted",
      "type": "event"
    },
    {
      "inputs": [],
      "name": "Data",
      "outputs": [
        {
          "internalType": "contract StorageHandler",
          "name": "",
          "type": "address"
        }
      ],
      "stateMutability": "view",
      "type": "function"
    },
    {
      "inputs": [],
      "name": "MAXPRICE",
      "outputs": [
        {
          "internalType": "uint256",
          "name": "",
          "type": "uint256"
        }
      ],
      "stateMutability": "view",
      "type": "function"
    },
    {
      "inputs": [],
      "name": "PRECISION",
      "outputs": [
        {
          "internalType": "uint256",
          "name": "",
          "type": "uint256"
        }
      ],
      "stateMutability": "view",
      "type": "function"
    },
    {
      "inputs": [
        {
          "internalType": "uint256",
          "name": "marketId",
          "type": "uint256"
        },
        {
          "internalType": "uint256",
          "name": "orderId",
          "type": "uint256"
        }
      ],
      "name": "fillCompleteSingleOrderMint",
      "outputs": [],
      "stateMutability": "nonpayable",
      "type": "function"
    },
    {
      "inputs": [
        {
          "internalType": "uint256",
          "name": "marketId",
          "type": "uint256"
        },
        {
          "internalType": "uint256",
          "name": "price",
          "type": "uint256"
        },
        {
          "internalType": "uint256",
          "name": "fillAmount",
          "type": "uint256"
        },
        {
          "internalType": "bool",
          "name": "fillLong",
          "type": "bool"
        }
      ],
      "name": "fillMultipleOrders",
      "outputs": [],
      "stateMutability": "nonpayable",
      "type": "function"
    },
    {
      "inputs": [
        {
          "internalType": "uint256",
          "name": "point",
          "type": "uint256"
        }
      ],
      "name": "pointToPrice",
      "outputs": [
        {
          "internalType": "uint256",
          "name": "",
          "type": "uint256"
        }
      ],
      "stateMutability": "pure",
      "type": "function"
    },
    {
      "inputs": [
        {
          "internalType": "uint256",
          "name": "price",
          "type": "uint256"
        }
      ],
      "name": "priceToPoint",
      "outputs": [
        {
          "internalType": "uint256",
          "name": "",
          "type": "uint256"
        }
      ],
      "stateMutability": "pure",
      "type": "function"
    },
    {
      "inputs": [
        {
          "internalType": "uint256",
          "name": "marketId",
          "type": "uint256"
        },
        {
          "internalType": "uint256",
          "name": "orderId",
          "type": "uint256"
        },
        {
          "internalType": "uint256",
          "name": "amount",
          "type": "uint256"
        }
      ],
      "name": "removeOrder",
      "outputs": [],
      "stateMutability": "nonpayable",
      "type": "function"
    },
    {
      "inputs": [
        {
          "internalType": "address",
          "name": "dataStore",
          "type": "address"
        }
      ],
      "name": "setDataStore",
      "outputs": [],
      "stateMutability": "nonpayable",
      "type": "function"
    },
    {
      "inputs": [
        {
          "internalType": "uint256",
          "name": "marketId",
          "type": "uint256"
        },
        {
          "internalType": "uint256",
          "name": "amount",
          "type": "uint256"
        },
        {
          "internalType": "bool",
          "name": "isLong",
          "type": "bool"
        },
        {
          "internalType": "uint256",
          "name": "price",
          "type": "uint256"
        }
      ],
      "name": "submitOrder",
      "outputs": [
        {
          "internalType": "uint256",
          "name": "",
          "type": "uint256"
        }
      ],
      "stateMutability": "nonpayable",
      "type": "function"
    },
    {
      "inputs": [
        {
          "internalType": "uint256",
          "name": "price",
          "type": "uint256"
        },
        {
          "internalType": "bool",
          "name": "isLong",
          "type": "bool"
        }
      ],
      "name": "viewOpenOrdersByPrice",
      "outputs": [
        {
          "internalType": "uint256[]",
          "name": "",
          "type": "uint256[]"
        }
      ],
      "stateMutability": "view",
      "type": "function"
    }
  ],
  "bytecode": {
    "object": "0x6080604052670de0b6b3a764000060015534801561001c57600080fd5b5060405161137238038061137283398101604081905261003b91610069565b600380546001600160a01b039092166001600160a01b03199283161790556004805490911633179055610099565b60006020828403121561007b57600080fd5b81516001600160a01b038116811461009257600080fd5b9392505050565b6112ca806100a86000396000f3fe608060405234801561001057600080fd5b50600436106100a95760003560e01c8063500065d211610071578063500065d21461013057806353d567ce146101435780636e1f71b414610156578063721cf57b14610176578063aaf5eb6814610189578063f266b77c1461019857600080fd5b806310f033db146100ae5780631ccd7f23146100c357806323015caf146100d65780632353b18e146100f25780634b6e7d7814610105575b600080fd5b6100c16100bc366004610dc6565b6101ab565b005b6100c16100d1366004610e07565b61038b565b6100df60015481565b6040519081526020015b60405180910390f35b6100df610100366004610e33565b610520565b600254610118906001600160a01b031681565b6040516001600160a01b0390911681526020016100e9565b6100c161013e366004610e61565b61054c565b6100df610151366004610e7e565b6105b7565b610169610164366004610ebd565b6108b7565b6040516100e99190610eed565b6100df610184366004610e33565b61095a565b6100df670de0b6b3a764000081565b6100c16101a6366004610f31565b61096d565b6101e86040518060a0016040528060001515815260200160008152602001600081526020016000815260200160006001600160a01b031681525090565b6000600560006101f78761095a565b60408051602081019290925286151560f81b9082015260410160405160208183030381529060405280519060200120815260200190815260200160002080548060200260200160405190810160405280929190818152602001828054801561027e57602002820191906000526020600020905b81548152602001906001019080831161026a575b505050505090506102aa604051806040016040528060028152602001611a5960f21b81525082516109d7565b60005b815181101561038257600660008383815181106102cc576102cc610f53565b6020908102919091018101518252818101929092526040908101600020815160a081018352815460ff1615158152600182015493810193909352600281015491830182905260038101546060840152600401546001600160a01b0316608083015290935061034790889085906103429089610a1c565b610a35565b82604001518511610359576000610368565b60408301516103689086610f7f565b94508415610382578061037a81610f92565b9150506102ad565b50505050505050565b600082815260066020908152604091829020825160a081018452815460ff1615158152600182015492810192909252600281015492820192909252600382015460608201526004909101546001600160a01b03166080820181905233146104295760405162461bcd60e51b815260206004820152600d60248201526c3737ba1039bab136b4ba3a32b960991b60448201526064015b60405180910390fd5b806040015182111561047d5760405162461bcd60e51b815260206004820152601960248201527f696e73756666696369656e74206f7264657220616d6f756e74000000000000006044820152606401610420565b600083815260066020908152604090912060020180548490039055600354908201516001600160a01b039091169063f0fd1d38906104bc908590610d4c565b6040516001600160e01b031960e084901b168152600481019190915233602482015260448101879052606401600060405180830381600087803b15801561050257600080fd5b505af1158015610516573d6000803e3d6000fd5b5050505050505050565b6000670de0b6b3a764000061053c83662386f26fc10000610d61565b6105469190610fab565b92915050565b6003546001600160a01b031633146105955760405162461bcd60e51b815260206004820152600c60248201526b1d5b985d5d1a1bdc9a5e995960a21b6044820152606401610420565b600280546001600160a01b0319166001600160a01b0392909216919091179055565b60025460405163eb44fdd360e01b81526004810186905260009182916001600160a01b039091169063eb44fdd390602401600060405180830381865afa158015610605573d6000803e3d6000fd5b505050506040513d6000823e601f3d908101601f1916820160405261062d91908101906110d3565b6040805160a081018252861515815260208101869052908101879052600080546060830152336080830152919250908561067e57610679856001546106729190610f7f565b8890610d4c565b610688565b6106888786610d4c565b905082600001516001600160a01b031663c55dae636040518163ffffffff1660e01b8152600401602060405180830381865afa1580156106cc573d6000803e3d6000fd5b505050506040513d601f19601f820116820180604052508101906106f09190611198565b6003546001600160a01b03918216916323b872dd913391166107128b8a610d4c565b6040516001600160e01b031960e086901b1681526001600160a01b03938416600482015292909116602483015260448201526064016020604051808303816000875af1158015610766573d6000803e3d6000fd5b505050506040513d601f19601f8201168201806040525081019061078a91906111b5565b506000805481526006602090815260408083208551815460ff19169015151781559185015160018301558401516002820155606084015160038201556080840151600490910180546001600160a01b0319166001600160a01b039092169190911790556005906107f98761095a565b60408051602081019290925289151560f81b9082015260410160408051601f198184030181529181528151602092830120835282820193909352910160009081208154815460018101835591835292822001919091558054908061085c83610f92565b919050555084887f55f4feafb1aecb90ad650c2b76ca646d4fee297b6233f9130477aaff795f8016338560405161089492919061120a565b60405180910390a360016000546108ab9190610f7f565b98975050505050505050565b6060600560006108c68561095a565b60408051602081019290925285151560f81b9082015260410160405160208183030381529060405280519060200120815260200190815260200160002080548060200260200160405190810160405280929190818152602001828054801561094d57602002820191906000526020600020905b815481526020019060010190808311610939575b5050505050905092915050565b6000610546662386f26fc1000083611227565b6000818152600660208181526040808420815160a081018352815460ff16151581526001820154818501526002820154928101839052600382015460608201526004909101546001600160a01b03166080820152938590529190526109d3918491610a35565b5050565b6109d382826040516024016109ed92919061123e565b60408051601f198184030181529190526020810180516001600160e01b03166309710a9d60e41b179052610d76565b600081831115610a2c5781610a2e565b825b9392505050565b60025460405163eb44fdd360e01b8152600481018590526000916001600160a01b03169063eb44fdd390602401600060405180830381865afa158015610a7f573d6000803e3d6000fd5b505050506040513d6000823e601f3d908101601f19168201604052610aa791908101906110d3565b90508183604001511015610af35760405162461bcd60e51b81526020600482015260136024820152726e6f7420656e6f7567682066696c6c206c697160681b6044820152606401610420565b6000610b118460200151600154610b0a9190610f7f565b8490610d4c565b905081600001516001600160a01b031663c55dae636040518163ffffffff1660e01b8152600401602060405180830381865afa158015610b55573d6000803e3d6000fd5b505050506040513d601f19601f82011682018060405250810190610b799190611198565b6003546040516323b872dd60e01b81523360048201526001600160a01b039182166024820152604481018490529116906323b872dd906064016020604051808303816000875af1158015610bd1573d6000803e3d6000fd5b505050506040513d601f19601f82011682018060405250810190610bf591906111b5565b50815160808501518551604051631af9727760e21b81526001600160a01b039283166004820152602481018790529015156044820152911690636be5c9dc90606401600060405180830381600087803b158015610c5157600080fd5b505af1158015610c65573d6000803e3d6000fd5b505083518651604051631af9727760e21b815233600482015260248101889052901560448201526001600160a01b039091169250636be5c9dc9150606401600060405180830381600087803b158015610cbd57600080fd5b505af1158015610cd1573d6000803e3d6000fd5b505050508260066000866060015181526020019081526020016000206002016000828254610cff9190610f7f565b925050819055508360200151857f23357e02bece0f6319b2d4b29935a6f69bf91bdda2ba3143c7d1f9bc0740b3b98686604051610d3d929190611279565b60405180910390a35050505050565b6000610a2e8383670de0b6b3a7640000610d97565b6000610a2e83670de0b6b3a764000084610d97565b80516a636f6e736f6c652e6c6f67602083016000808483855afa5050505050565b6000826000190484118302158202610dae57600080fd5b5091020490565b8015158114610dc357600080fd5b50565b60008060008060808587031215610ddc57600080fd5b8435935060208501359250604085013591506060850135610dfc81610db5565b939692955090935050565b600080600060608486031215610e1c57600080fd5b505081359360208301359350604090920135919050565b600060208284031215610e4557600080fd5b5035919050565b6001600160a01b0381168114610dc357600080fd5b600060208284031215610e7357600080fd5b8135610a2e81610e4c565b60008060008060808587031215610e9457600080fd5b84359350602085013592506040850135610ead81610db5565b9396929550929360600135925050565b60008060408385031215610ed057600080fd5b823591506020830135610ee281610db5565b809150509250929050565b6020808252825182820181905260009190848201906040850190845b81811015610f2557835183529284019291840191600101610f09565b50909695505050505050565b60008060408385031215610f4457600080fd5b50508035926020909101359150565b634e487b7160e01b600052603260045260246000fd5b634e487b7160e01b600052601160045260246000fd5b8181038181111561054657610546610f69565b600060018201610fa457610fa4610f69565b5060010190565b600082610fc857634e487b7160e01b600052601260045260246000fd5b500490565b634e487b7160e01b600052604160045260246000fd5b60405160e0810167ffffffffffffffff8111828210171561100657611006610fcd565b60405290565b805161101781610e4c565b919050565b60005b8381101561103757818101518382015260200161101f565b50506000910152565b600082601f83011261105157600080fd5b815167ffffffffffffffff8082111561106c5761106c610fcd565b604051601f8301601f19908116603f0116810190828211818310171561109457611094610fcd565b816040528381528660208588010111156110ad57600080fd5b6110be84602083016020890161101c565b9695505050505050565b805161101781610db5565b6000602082840312156110e557600080fd5b815167ffffffffffffffff808211156110fd57600080fd5b9083019060e0828603121561111157600080fd5b611119610fe3565b6111228361100c565b81526111306020840161100c565b60208201526111416040840161100c565b604082015260608301518281111561115857600080fd5b61116487828601611040565b6060830152506080830151608082015260a083015160a082015261118a60c084016110c8565b60c082015295945050505050565b6000602082840312156111aa57600080fd5b8151610a2e81610e4c565b6000602082840312156111c757600080fd5b8151610a2e81610db5565b8051151582526020808201519083015260408082015190830152606080820151908301526080908101516001600160a01b0316910152565b6001600160a01b038316815260c08101610a2e60208301846111d2565b808202811582820484141761054657610546610f69565b604081526000835180604084015261125d81606085016020880161101c565b602083019390935250601f91909101601f191601606001919050565b60c0810161128782856111d2565b8260a0830152939250505056fea26469706673582212205196c49b174438b9a2bdbcd0bab958462cac946c4016a1aff36fde4b9511f53f64736f6c63430008110033",
    "linkReferences": {}
  },
  "methodIdentifiers": {
    "Data()": "4b6e7d78",
    "MAXPRICE()": "23015caf",
    "PRECISION()": "aaf5eb68",
    "fillCompleteSingleOrderMint(uint256,uint256)": "f266b77c",
    "fillMultipleOrders(uint256,uint256,uint256,bool)": "10f033db",
    "pointToPrice(uint256)": "721cf57b",
    "priceToPoint(uint256)": "2353b18e",
    "removeOrder(uint256,uint256,uint256)": "1ccd7f23",
    "setDataStore(address)": "500065d2",
    "submitOrder(uint256,uint256,bool,uint256)": "53d567ce",
    "viewOpenOrdersByPrice(uint256,bool)": "6e1f71b4"
  },
  "id": 21
}