{
  "abi": [
    {
      "inputs": [
        {
          "internalType": "address",
          "name": "_vault",
          "type": "address"
        },
        {
          "internalType": "address",
          "name": "_controller",
          "type": "address"
        },
        {
          "internalType": "address",
          "name": "_utilizer",
          "type": "address"
        },
        {
          "internalType": "address",
          "name": "_asset",
          "type": "address"
        },
        {
          "internalType": "string",
          "name": "_name",
          "type": "string"
        },
        {
          "internalType": "string",
          "name": "_symbol",
          "type": "string"
        },
        {
          "internalType": "address",
          "name": "_rateCalculator",
          "type": "address"
        },
        {
          "internalType": "bytes",
          "name": "_rateInitCallData",
          "type": "bytes"
        }
      ],
      "stateMutability": "nonpayable",
      "type": "constructor"
    },
    {
      "inputs": [],
      "name": "PRBMathSD59x18__DivInputTooSmall",
      "type": "error"
    },
    {
      "inputs": [
        {
          "internalType": "SD59x18",
          "name": "x",
          "type": "int256"
        },
        {
          "internalType": "SD59x18",
          "name": "y",
          "type": "int256"
        }
      ],
      "name": "PRBMathSD59x18__DivOverflow",
      "type": "error"
    },
    {
      "inputs": [],
      "name": "PRBMathSD59x18__MulInputTooSmall",
      "type": "error"
    },
    {
      "inputs": [
        {
          "internalType": "SD59x18",
          "name": "x",
          "type": "int256"
        },
        {
          "internalType": "SD59x18",
          "name": "y",
          "type": "int256"
        }
      ],
      "name": "PRBMathSD59x18__MulOverflow",
      "type": "error"
    },
    {
      "inputs": [
        {
          "internalType": "int256",
          "name": "x",
          "type": "int256"
        }
      ],
      "name": "PRBMathSD59x18__ToSD59x18Overflow",
      "type": "error"
    },
    {
      "inputs": [
        {
          "internalType": "int256",
          "name": "x",
          "type": "int256"
        }
      ],
      "name": "PRBMathSD59x18__ToSD59x18Underflow",
      "type": "error"
    },
    {
      "inputs": [
        {
          "internalType": "uint256",
          "name": "x",
          "type": "uint256"
        },
        {
          "internalType": "uint256",
          "name": "y",
          "type": "uint256"
        }
      ],
      "name": "PRBMath__MulDiv18Overflow",
      "type": "error"
    },
    {
      "inputs": [
        {
          "internalType": "uint256",
          "name": "x",
          "type": "uint256"
        },
        {
          "internalType": "uint256",
          "name": "y",
          "type": "uint256"
        },
        {
          "internalType": "uint256",
          "name": "denominator",
          "type": "uint256"
        }
      ],
      "name": "PRBMath__MulDivOverflow",
      "type": "error"
    },
    {
      "anonymous": false,
      "inputs": [
        {
          "indexed": true,
          "internalType": "address",
          "name": "borrower",
          "type": "address"
        },
        {
          "indexed": false,
          "internalType": "address",
          "name": "collateral",
          "type": "address"
        },
        {
          "indexed": false,
          "internalType": "uint256",
          "name": "tokenId",
          "type": "uint256"
        },
        {
          "indexed": false,
          "internalType": "uint256",
          "name": "amount",
          "type": "uint256"
        }
      ],
      "name": "AddCollateral",
      "type": "event"
    },
    {
      "anonymous": false,
      "inputs": [
        {
          "indexed": true,
          "internalType": "address",
          "name": "owner",
          "type": "address"
        },
        {
          "indexed": true,
          "internalType": "address",
          "name": "spender",
          "type": "address"
        },
        {
          "indexed": false,
          "internalType": "uint256",
          "name": "amount",
          "type": "uint256"
        }
      ],
      "name": "Approval",
      "type": "event"
    },
    {
      "anonymous": false,
      "inputs": [
        {
          "indexed": true,
          "internalType": "uint256",
          "name": "id",
          "type": "uint256"
        },
        {
          "indexed": true,
          "internalType": "address",
          "name": "borrower",
          "type": "address"
        },
        {
          "indexed": true,
          "internalType": "address",
          "name": "collateral",
          "type": "address"
        },
        {
          "indexed": false,
          "internalType": "uint256",
          "name": "tokenId",
          "type": "uint256"
        }
      ],
      "name": "AuctionClosed",
      "type": "event"
    },
    {
      "anonymous": false,
      "inputs": [
        {
          "indexed": true,
          "internalType": "uint256",
          "name": "id",
          "type": "uint256"
        },
        {
          "indexed": true,
          "internalType": "address",
          "name": "borrower",
          "type": "address"
        },
        {
          "indexed": true,
          "internalType": "address",
          "name": "collateral",
          "type": "address"
        },
        {
          "indexed": false,
          "internalType": "uint256",
          "name": "tokenId",
          "type": "uint256"
        }
      ],
      "name": "AuctionCreated",
      "type": "event"
    },
    {
      "anonymous": false,
      "inputs": [
        {
          "indexed": true,
          "internalType": "address",
          "name": "_borrower",
          "type": "address"
        },
        {
          "indexed": false,
          "internalType": "uint256",
          "name": "_amount",
          "type": "uint256"
        },
        {
          "indexed": false,
          "internalType": "uint256",
          "name": "_shares",
          "type": "uint256"
        }
      ],
      "name": "Borrow",
      "type": "event"
    },
    {
      "anonymous": false,
      "inputs": [
        {
          "indexed": true,
          "internalType": "uint256",
          "name": "id",
          "type": "uint256"
        },
        {
          "indexed": true,
          "internalType": "address",
          "name": "buyer",
          "type": "address"
        },
        {
          "indexed": true,
          "internalType": "address",
          "name": "collateral",
          "type": "address"
        },
        {
          "indexed": false,
          "internalType": "uint256",
          "name": "tokenId",
          "type": "uint256"
        },
        {
          "indexed": false,
          "internalType": "uint256",
          "name": "amount",
          "type": "uint256"
        }
      ],
      "name": "CollateralPurchased",
      "type": "event"
    },
    {
      "anonymous": false,
      "inputs": [
        {
          "indexed": true,
          "internalType": "address",
          "name": "caller",
          "type": "address"
        },
        {
          "indexed": true,
          "internalType": "address",
          "name": "owner",
          "type": "address"
        },
        {
          "indexed": false,
          "internalType": "uint256",
          "name": "assets",
          "type": "uint256"
        },
        {
          "indexed": false,
          "internalType": "uint256",
          "name": "shares",
          "type": "uint256"
        }
      ],
      "name": "Deposit",
      "type": "event"
    },
    {
      "anonymous": false,
      "inputs": [
        {
          "indexed": true,
          "internalType": "uint256",
          "name": "timestamp",
          "type": "uint256"
        },
        {
          "indexed": false,
          "internalType": "uint256",
          "name": "interestEarned",
          "type": "uint256"
        },
        {
          "indexed": false,
          "internalType": "uint256",
          "name": "feesAmount",
          "type": "uint256"
        },
        {
          "indexed": false,
          "internalType": "uint256",
          "name": "feesShare",
          "type": "uint256"
        },
        {
          "indexed": false,
          "internalType": "uint64",
          "name": "newRate",
          "type": "uint64"
        }
      ],
      "name": "InterestAdded",
      "type": "event"
    },
    {
      "anonymous": false,
      "inputs": [
        {
          "indexed": false,
          "internalType": "address",
          "name": "account",
          "type": "address"
        }
      ],
      "name": "Paused",
      "type": "event"
    },
    {
      "anonymous": false,
      "inputs": [
        {
          "indexed": true,
          "internalType": "address",
          "name": "borrower",
          "type": "address"
        },
        {
          "indexed": false,
          "internalType": "address",
          "name": "collateral",
          "type": "address"
        },
        {
          "indexed": false,
          "internalType": "uint256",
          "name": "tokenId",
          "type": "uint256"
        },
        {
          "indexed": false,
          "internalType": "uint256",
          "name": "amount",
          "type": "uint256"
        }
      ],
      "name": "RemoveCollateral",
      "type": "event"
    },
    {
      "anonymous": false,
      "inputs": [
        {
          "indexed": true,
          "internalType": "address",
          "name": "borrower",
          "type": "address"
        },
        {
          "indexed": false,
          "internalType": "uint256",
          "name": "amount",
          "type": "uint256"
        },
        {
          "indexed": false,
          "internalType": "uint256",
          "name": "shares",
          "type": "uint256"
        }
      ],
      "name": "Repay",
      "type": "event"
    },
    {
      "anonymous": false,
      "inputs": [
        {
          "indexed": true,
          "internalType": "address",
          "name": "from",
          "type": "address"
        },
        {
          "indexed": true,
          "internalType": "address",
          "name": "to",
          "type": "address"
        },
        {
          "indexed": false,
          "internalType": "uint256",
          "name": "amount",
          "type": "uint256"
        }
      ],
      "name": "Transfer",
      "type": "event"
    },
    {
      "anonymous": false,
      "inputs": [
        {
          "indexed": false,
          "internalType": "address",
          "name": "account",
          "type": "address"
        }
      ],
      "name": "Unpaused",
      "type": "event"
    },
    {
      "anonymous": false,
      "inputs": [
        {
          "indexed": true,
          "internalType": "address",
          "name": "caller",
          "type": "address"
        },
        {
          "indexed": true,
          "internalType": "address",
          "name": "receiver",
          "type": "address"
        },
        {
          "indexed": true,
          "internalType": "address",
          "name": "owner",
          "type": "address"
        },
        {
          "indexed": false,
          "internalType": "uint256",
          "name": "assets",
          "type": "uint256"
        },
        {
          "indexed": false,
          "internalType": "uint256",
          "name": "shares",
          "type": "uint256"
        }
      ],
      "name": "Withdraw",
      "type": "event"
    },
    {
      "inputs": [],
      "name": "DOMAIN_SEPARATOR",
      "outputs": [
        {
          "internalType": "bytes32",
          "name": "",
          "type": "bytes32"
        }
      ],
      "stateMutability": "view",
      "type": "function"
    },
    {
      "inputs": [],
      "name": "Utilizer",
      "outputs": [
        {
          "internalType": "address",
          "name": "",
          "type": "address"
        }
      ],
      "stateMutability": "view",
      "type": "function"
    },
    {
      "inputs": [
        {
          "internalType": "address",
          "name": "_borrower",
          "type": "address"
        }
      ],
      "name": "_canBorrow",
      "outputs": [
        {
          "internalType": "bool",
          "name": "",
          "type": "bool"
        }
      ],
      "stateMutability": "view",
      "type": "function"
    },
    {
      "inputs": [
        {
          "internalType": "address",
          "name": "_borrower",
          "type": "address"
        }
      ],
      "name": "_isLiquidatable",
      "outputs": [
        {
          "internalType": "bool",
          "name": "",
          "type": "bool"
        },
        {
          "internalType": "int256",
          "name": "accountLiq",
          "type": "int256"
        }
      ],
      "stateMutability": "view",
      "type": "function"
    },
    {
      "inputs": [
        {
          "internalType": "address",
          "name": "_collateral",
          "type": "address"
        },
        {
          "internalType": "uint256",
          "name": "_tokenId",
          "type": "uint256"
        },
        {
          "internalType": "uint256",
          "name": "_maxAmount",
          "type": "uint256"
        },
        {
          "internalType": "uint256",
          "name": "_maxBorrowAmount",
          "type": "uint256"
        },
        {
          "internalType": "bool",
          "name": "_isERC20",
          "type": "bool"
        }
      ],
      "name": "addAcceptedCollateral",
      "outputs": [],
      "stateMutability": "nonpayable",
      "type": "function"
    },
    {
      "inputs": [
        {
          "internalType": "address",
          "name": "_collateral",
          "type": "address"
        },
        {
          "internalType": "uint256",
          "name": "_tokenId",
          "type": "uint256"
        },
        {
          "internalType": "uint256",
          "name": "_collateralAmount",
          "type": "uint256"
        },
        {
          "internalType": "address",
          "name": "_borrower",
          "type": "address"
        }
      ],
      "name": "addCollateral",
      "outputs": [],
      "stateMutability": "nonpayable",
      "type": "function"
    },
    {
      "inputs": [],
      "name": "addInterest",
      "outputs": [
        {
          "internalType": "uint256",
          "name": "_interestEarned",
          "type": "uint256"
        },
        {
          "internalType": "uint256",
          "name": "_feesAmount",
          "type": "uint256"
        },
        {
          "internalType": "uint256",
          "name": "_feesShare",
          "type": "uint256"
        },
        {
          "internalType": "uint64",
          "name": "_newRate",
          "type": "uint64"
        }
      ],
      "stateMutability": "nonpayable",
      "type": "function"
    },
    {
      "inputs": [
        {
          "internalType": "address",
          "name": "",
          "type": "address"
        },
        {
          "internalType": "address",
          "name": "",
          "type": "address"
        }
      ],
      "name": "allowance",
      "outputs": [
        {
          "internalType": "uint256",
          "name": "",
          "type": "uint256"
        }
      ],
      "stateMutability": "view",
      "type": "function"
    },
    {
      "inputs": [
        {
          "internalType": "address",
          "name": "spender",
          "type": "address"
        },
        {
          "internalType": "uint256",
          "name": "amount",
          "type": "uint256"
        }
      ],
      "name": "approve",
      "outputs": [
        {
          "internalType": "bool",
          "name": "",
          "type": "bool"
        }
      ],
      "stateMutability": "nonpayable",
      "type": "function"
    },
    {
      "inputs": [
        {
          "internalType": "address",
          "name": "",
          "type": "address"
        },
        {
          "internalType": "uint256",
          "name": "",
          "type": "uint256"
        }
      ],
      "name": "approvedCollateral",
      "outputs": [
        {
          "internalType": "bool",
          "name": "",
          "type": "bool"
        }
      ],
      "stateMutability": "view",
      "type": "function"
    },
    {
      "inputs": [],
      "name": "asset",
      "outputs": [
        {
          "internalType": "contract ERC20",
          "name": "",
          "type": "address"
        }
      ],
      "stateMutability": "view",
      "type": "function"
    },
    {
      "inputs": [
        {
          "internalType": "uint256",
          "name": "",
          "type": "uint256"
        }
      ],
      "name": "auctions",
      "outputs": [
        {
          "internalType": "address",
          "name": "borrower",
          "type": "address"
        },
        {
          "internalType": "address",
          "name": "collateral",
          "type": "address"
        },
        {
          "internalType": "uint256",
          "name": "tokenId",
          "type": "uint256"
        },
        {
          "internalType": "SD59x18",
          "name": "initialPrice",
          "type": "int256"
        },
        {
          "internalType": "SD59x18",
          "name": "minimumPrice",
          "type": "int256"
        },
        {
          "internalType": "SD59x18",
          "name": "decayConstant",
          "type": "int256"
        },
        {
          "internalType": "SD59x18",
          "name": "startTime",
          "type": "int256"
        },
        {
          "internalType": "bool",
          "name": "alive",
          "type": "bool"
        }
      ],
      "stateMutability": "view",
      "type": "function"
    },
    {
      "inputs": [
        {
          "internalType": "address",
          "name": "",
          "type": "address"
        }
      ],
      "name": "balanceOf",
      "outputs": [
        {
          "internalType": "uint256",
          "name": "",
          "type": "uint256"
        }
      ],
      "stateMutability": "view",
      "type": "function"
    },
    {
      "inputs": [
        {
          "internalType": "address",
          "name": "user",
          "type": "address"
        }
      ],
      "name": "balanceOfUnderlying",
      "outputs": [
        {
          "internalType": "uint256",
          "name": "",
          "type": "uint256"
        }
      ],
      "stateMutability": "view",
      "type": "function"
    },
    {
      "inputs": [
        {
          "internalType": "uint256",
          "name": "_borrowAmount",
          "type": "uint256"
        },
        {
          "internalType": "address",
          "name": "_collateral",
          "type": "address"
        },
        {
          "internalType": "uint256",
          "name": "_tokenId",
          "type": "uint256"
        },
        {
          "internalType": "uint256",
          "name": "_collateralAmount",
          "type": "uint256"
        },
        {
          "internalType": "address",
          "name": "_reciever",
          "type": "address"
        }
      ],
      "name": "borrow",
      "outputs": [
        {
          "internalType": "uint256",
          "name": "_shares",
          "type": "uint256"
        }
      ],
      "stateMutability": "nonpayable",
      "type": "function"
    },
    {
      "inputs": [
        {
          "internalType": "uint256",
          "name": "_borrowAmount",
          "type": "uint256"
        }
      ],
      "name": "borrowLiquidityAvailable",
      "outputs": [
        {
          "internalType": "bool",
          "name": "",
          "type": "bool"
        }
      ],
      "stateMutability": "view",
      "type": "function"
    },
    {
      "inputs": [
        {
          "internalType": "address",
          "name": "_borrower",
          "type": "address"
        }
      ],
      "name": "closeAuction",
      "outputs": [],
      "stateMutability": "nonpayable",
      "type": "function"
    },
    {
      "inputs": [
        {
          "internalType": "address",
          "name": "",
          "type": "address"
        },
        {
          "internalType": "uint256",
          "name": "",
          "type": "uint256"
        }
      ],
      "name": "collateralData",
      "outputs": [
        {
          "internalType": "uint256",
          "name": "totalCollateral",
          "type": "uint256"
        },
        {
          "internalType": "uint256",
          "name": "maxAmount",
          "type": "uint256"
        },
        {
          "internalType": "uint256",
          "name": "maxBorrowAmount",
          "type": "uint256"
        },
        {
          "internalType": "bool",
          "name": "isERC20",
          "type": "bool"
        }
      ],
      "stateMutability": "view",
      "type": "function"
    },
    {
      "inputs": [
        {
          "internalType": "uint256",
          "name": "shares",
          "type": "uint256"
        }
      ],
      "name": "convertToAssets",
      "outputs": [
        {
          "internalType": "uint256",
          "name": "",
          "type": "uint256"
        }
      ],
      "stateMutability": "view",
      "type": "function"
    },
    {
      "inputs": [
        {
          "internalType": "uint256",
          "name": "assets",
          "type": "uint256"
        }
      ],
      "name": "convertToShares",
      "outputs": [
        {
          "internalType": "uint256",
          "name": "",
          "type": "uint256"
        }
      ],
      "stateMutability": "view",
      "type": "function"
    },
    {
      "inputs": [],
      "name": "currentRateInfo",
      "outputs": [
        {
          "internalType": "uint64",
          "name": "lastBlock",
          "type": "uint64"
        },
        {
          "internalType": "uint64",
          "name": "lastTimestamp",
          "type": "uint64"
        },
        {
          "internalType": "uint64",
          "name": "ratePerSec",
          "type": "uint64"
        }
      ],
      "stateMutability": "view",
      "type": "function"
    },
    {
      "inputs": [],
      "name": "decimals",
      "outputs": [
        {
          "internalType": "uint8",
          "name": "",
          "type": "uint8"
        }
      ],
      "stateMutability": "view",
      "type": "function"
    },
    {
      "inputs": [
        {
          "internalType": "uint256",
          "name": "assets",
          "type": "uint256"
        },
        {
          "internalType": "address",
          "name": "receiver",
          "type": "address"
        }
      ],
      "name": "deposit",
      "outputs": [
        {
          "internalType": "uint256",
          "name": "shares",
          "type": "uint256"
        }
      ],
      "stateMutability": "nonpayable",
      "type": "function"
    },
    {
      "inputs": [],
      "name": "estimatedTotalAssets",
      "outputs": [
        {
          "internalType": "uint256",
          "name": "",
          "type": "uint256"
        }
      ],
      "stateMutability": "view",
      "type": "function"
    },
    {
      "inputs": [],
      "name": "getAcceptedCollaterals",
      "outputs": [
        {
          "components": [
            {
              "internalType": "address",
              "name": "tokenAddress",
              "type": "address"
            },
            {
              "internalType": "uint256",
              "name": "tokenId",
              "type": "uint256"
            }
          ],
          "internalType": "struct PoolInstrument.CollateralLabel[]",
          "name": "",
          "type": "tuple[]"
        }
      ],
      "stateMutability": "view",
      "type": "function"
    },
    {
      "inputs": [],
      "name": "getMaturityBalance",
      "outputs": [
        {
          "internalType": "uint256",
          "name": "",
          "type": "uint256"
        }
      ],
      "stateMutability": "view",
      "type": "function"
    },
    {
      "inputs": [
        {
          "internalType": "address",
          "name": "_borrower",
          "type": "address"
        }
      ],
      "name": "getMaxBorrow",
      "outputs": [
        {
          "internalType": "uint256",
          "name": "_maxBorrowableAmount",
          "type": "uint256"
        }
      ],
      "stateMutability": "view",
      "type": "function"
    },
    {
      "inputs": [
        {
          "internalType": "address",
          "name": "_address",
          "type": "address"
        }
      ],
      "name": "getUserSnapshot",
      "outputs": [
        {
          "internalType": "uint256",
          "name": "_userAssetShares",
          "type": "uint256"
        },
        {
          "internalType": "uint256",
          "name": "_userAssetAmount",
          "type": "uint256"
        },
        {
          "internalType": "uint256",
          "name": "_userBorrowShares",
          "type": "uint256"
        },
        {
          "internalType": "uint256",
          "name": "_userBorrowAmount",
          "type": "uint256"
        },
        {
          "internalType": "int256",
          "name": "_userAccountLiquidity",
          "type": "int256"
        }
      ],
      "stateMutability": "view",
      "type": "function"
    },
    {
      "inputs": [],
      "name": "initialize",
      "outputs": [],
      "stateMutability": "nonpayable",
      "type": "function"
    },
    {
      "inputs": [],
      "name": "instrumentApprovalCondition",
      "outputs": [
        {
          "internalType": "bool",
          "name": "",
          "type": "bool"
        }
      ],
      "stateMutability": "view",
      "type": "function"
    },
    {
      "inputs": [
        {
          "internalType": "uint256",
          "name": "amount",
          "type": "uint256"
        }
      ],
      "name": "isLiquid",
      "outputs": [
        {
          "internalType": "bool",
          "name": "",
          "type": "bool"
        }
      ],
      "stateMutability": "view",
      "type": "function"
    },
    {
      "inputs": [],
      "name": "isLocked",
      "outputs": [
        {
          "internalType": "bool",
          "name": "",
          "type": "bool"
        }
      ],
      "stateMutability": "view",
      "type": "function"
    },
    {
      "inputs": [
        {
          "internalType": "address",
          "name": "_borrower",
          "type": "address"
        }
      ],
      "name": "liquidate",
      "outputs": [
        {
          "components": [
            {
              "internalType": "address",
              "name": "tokenAddress",
              "type": "address"
            },
            {
              "internalType": "uint256",
              "name": "tokenId",
              "type": "uint256"
            }
          ],
          "internalType": "struct PoolInstrument.CollateralLabel",
          "name": "_collateral",
          "type": "tuple"
        },
        {
          "internalType": "uint256",
          "name": "_auctionId",
          "type": "uint256"
        }
      ],
      "stateMutability": "nonpayable",
      "type": "function"
    },
    {
      "inputs": [],
      "name": "liquidateAllPositions",
      "outputs": [
        {
          "internalType": "uint256",
          "name": "_amountFreed",
          "type": "uint256"
        }
      ],
      "stateMutability": "nonpayable",
      "type": "function"
    },
    {
      "inputs": [
        {
          "internalType": "uint256",
          "name": "_amountNeeded",
          "type": "uint256"
        }
      ],
      "name": "liquidatePosition",
      "outputs": [
        {
          "internalType": "uint256",
          "name": "_liquidatedAmount",
          "type": "uint256"
        },
        {
          "internalType": "uint256",
          "name": "_loss",
          "type": "uint256"
        }
      ],
      "stateMutability": "nonpayable",
      "type": "function"
    },
    {
      "inputs": [
        {
          "internalType": "address",
          "name": "",
          "type": "address"
        }
      ],
      "name": "maxDeposit",
      "outputs": [
        {
          "internalType": "uint256",
          "name": "",
          "type": "uint256"
        }
      ],
      "stateMutability": "view",
      "type": "function"
    },
    {
      "inputs": [
        {
          "internalType": "address",
          "name": "",
          "type": "address"
        }
      ],
      "name": "maxMint",
      "outputs": [
        {
          "internalType": "uint256",
          "name": "",
          "type": "uint256"
        }
      ],
      "stateMutability": "view",
      "type": "function"
    },
    {
      "inputs": [
        {
          "internalType": "address",
          "name": "owner",
          "type": "address"
        }
      ],
      "name": "maxRedeem",
      "outputs": [
        {
          "internalType": "uint256",
          "name": "",
          "type": "uint256"
        }
      ],
      "stateMutability": "view",
      "type": "function"
    },
    {
      "inputs": [
        {
          "internalType": "address",
          "name": "owner",
          "type": "address"
        }
      ],
      "name": "maxWithdraw",
      "outputs": [
        {
          "internalType": "uint256",
          "name": "",
          "type": "uint256"
        }
      ],
      "stateMutability": "view",
      "type": "function"
    },
    {
      "inputs": [
        {
          "internalType": "uint256",
          "name": "shares",
          "type": "uint256"
        },
        {
          "internalType": "address",
          "name": "receiver",
          "type": "address"
        }
      ],
      "name": "mint",
      "outputs": [
        {
          "internalType": "uint256",
          "name": "assets",
          "type": "uint256"
        }
      ],
      "stateMutability": "nonpayable",
      "type": "function"
    },
    {
      "inputs": [],
      "name": "name",
      "outputs": [
        {
          "internalType": "string",
          "name": "",
          "type": "string"
        }
      ],
      "stateMutability": "view",
      "type": "function"
    },
    {
      "inputs": [
        {
          "internalType": "address",
          "name": "",
          "type": "address"
        }
      ],
      "name": "nonces",
      "outputs": [
        {
          "internalType": "uint256",
          "name": "",
          "type": "uint256"
        }
      ],
      "stateMutability": "view",
      "type": "function"
    },
    {
      "inputs": [],
      "name": "numAuctions",
      "outputs": [
        {
          "internalType": "uint256",
          "name": "",
          "type": "uint256"
        }
      ],
      "stateMutability": "view",
      "type": "function"
    },
    {
      "inputs": [
        {
          "internalType": "address",
          "name": "",
          "type": "address"
        },
        {
          "internalType": "address",
          "name": "",
          "type": "address"
        },
        {
          "internalType": "uint256",
          "name": "",
          "type": "uint256"
        },
        {
          "internalType": "bytes",
          "name": "",
          "type": "bytes"
        }
      ],
      "name": "onERC721Received",
      "outputs": [
        {
          "internalType": "bytes4",
          "name": "",
          "type": "bytes4"
        }
      ],
      "stateMutability": "nonpayable",
      "type": "function"
    },
    {
      "inputs": [
        {
          "internalType": "uint256",
          "name": "principal",
          "type": "uint256"
        },
        {
          "internalType": "uint256",
          "name": "yield",
          "type": "uint256"
        }
      ],
      "name": "onMarketApproval",
      "outputs": [],
      "stateMutability": "nonpayable",
      "type": "function"
    },
    {
      "inputs": [],
      "name": "paused",
      "outputs": [
        {
          "internalType": "bool",
          "name": "",
          "type": "bool"
        }
      ],
      "stateMutability": "view",
      "type": "function"
    },
    {
      "inputs": [
        {
          "internalType": "address",
          "name": "owner",
          "type": "address"
        },
        {
          "internalType": "address",
          "name": "spender",
          "type": "address"
        },
        {
          "internalType": "uint256",
          "name": "value",
          "type": "uint256"
        },
        {
          "internalType": "uint256",
          "name": "deadline",
          "type": "uint256"
        },
        {
          "internalType": "uint8",
          "name": "v",
          "type": "uint8"
        },
        {
          "internalType": "bytes32",
          "name": "r",
          "type": "bytes32"
        },
        {
          "internalType": "bytes32",
          "name": "s",
          "type": "bytes32"
        }
      ],
      "name": "permit",
      "outputs": [],
      "stateMutability": "nonpayable",
      "type": "function"
    },
    {
      "inputs": [],
      "name": "prepareWithdraw",
      "outputs": [
        {
          "internalType": "uint256",
          "name": "_profit",
          "type": "uint256"
        },
        {
          "internalType": "uint256",
          "name": "_loss",
          "type": "uint256"
        },
        {
          "internalType": "uint256",
          "name": "_debtPayment",
          "type": "uint256"
        }
      ],
      "stateMutability": "nonpayable",
      "type": "function"
    },
    {
      "inputs": [
        {
          "internalType": "uint256",
          "name": "assets",
          "type": "uint256"
        }
      ],
      "name": "previewDeposit",
      "outputs": [
        {
          "internalType": "uint256",
          "name": "",
          "type": "uint256"
        }
      ],
      "stateMutability": "view",
      "type": "function"
    },
    {
      "inputs": [
        {
          "internalType": "uint256",
          "name": "shares",
          "type": "uint256"
        }
      ],
      "name": "previewMint",
      "outputs": [
        {
          "internalType": "uint256",
          "name": "",
          "type": "uint256"
        }
      ],
      "stateMutability": "view",
      "type": "function"
    },
    {
      "inputs": [
        {
          "internalType": "uint256",
          "name": "shares",
          "type": "uint256"
        }
      ],
      "name": "previewRedeem",
      "outputs": [
        {
          "internalType": "uint256",
          "name": "",
          "type": "uint256"
        }
      ],
      "stateMutability": "view",
      "type": "function"
    },
    {
      "inputs": [
        {
          "internalType": "uint256",
          "name": "assets",
          "type": "uint256"
        }
      ],
      "name": "previewWithdraw",
      "outputs": [
        {
          "internalType": "uint256",
          "name": "",
          "type": "uint256"
        }
      ],
      "stateMutability": "view",
      "type": "function"
    },
    {
      "inputs": [
        {
          "internalType": "uint256",
          "name": "amount",
          "type": "uint256"
        }
      ],
      "name": "pullRawFunds",
      "outputs": [],
      "stateMutability": "nonpayable",
      "type": "function"
    },
    {
      "inputs": [
        {
          "internalType": "uint256",
          "name": "_id",
          "type": "uint256"
        },
        {
          "internalType": "uint256",
          "name": "_amount",
          "type": "uint256"
        }
      ],
      "name": "purchaseERC20Collateral",
      "outputs": [
        {
          "internalType": "uint256",
          "name": "_totalCost",
          "type": "uint256"
        }
      ],
      "stateMutability": "nonpayable",
      "type": "function"
    },
    {
      "inputs": [
        {
          "internalType": "uint256",
          "name": "_id",
          "type": "uint256"
        }
      ],
      "name": "purchaseERC721Collateral",
      "outputs": [
        {
          "internalType": "uint256",
          "name": "_totalCost",
          "type": "uint256"
        }
      ],
      "stateMutability": "nonpayable",
      "type": "function"
    },
    {
      "inputs": [
        {
          "internalType": "uint256",
          "name": "_id",
          "type": "uint256"
        },
        {
          "internalType": "uint256",
          "name": "_numTokens",
          "type": "uint256"
        }
      ],
      "name": "purchasePriceERC20",
      "outputs": [
        {
          "internalType": "uint256",
          "name": "totalCost",
          "type": "uint256"
        }
      ],
      "stateMutability": "view",
      "type": "function"
    },
    {
      "inputs": [
        {
          "internalType": "uint256",
          "name": "_id",
          "type": "uint256"
        }
      ],
      "name": "purchasePriceERC721",
      "outputs": [
        {
          "internalType": "uint256",
          "name": "totalCost",
          "type": "uint256"
        }
      ],
      "stateMutability": "view",
      "type": "function"
    },
    {
      "inputs": [],
      "name": "rateContract",
      "outputs": [
        {
          "internalType": "contract IRateCalculator",
          "name": "",
          "type": "address"
        }
      ],
      "stateMutability": "view",
      "type": "function"
    },
    {
      "inputs": [],
      "name": "rateInitCallData",
      "outputs": [
        {
          "internalType": "bytes",
          "name": "",
          "type": "bytes"
        }
      ],
      "stateMutability": "view",
      "type": "function"
    },
    {
      "inputs": [],
      "name": "readyForWithdrawal",
      "outputs": [
        {
          "internalType": "bool",
          "name": "",
          "type": "bool"
        }
      ],
      "stateMutability": "view",
      "type": "function"
    },
    {
      "inputs": [
        {
          "internalType": "uint256",
          "name": "shares",
          "type": "uint256"
        },
        {
          "internalType": "address",
          "name": "receiver",
          "type": "address"
        },
        {
          "internalType": "address",
          "name": "owner",
          "type": "address"
        }
      ],
      "name": "redeem",
      "outputs": [
        {
          "internalType": "uint256",
          "name": "assets",
          "type": "uint256"
        }
      ],
      "stateMutability": "nonpayable",
      "type": "function"
    },
    {
      "inputs": [
        {
          "internalType": "uint256",
          "name": "amount",
          "type": "uint256"
        }
      ],
      "name": "redeemUnderlying",
      "outputs": [
        {
          "internalType": "bool",
          "name": "",
          "type": "bool"
        }
      ],
      "stateMutability": "nonpayable",
      "type": "function"
    },
    {
      "inputs": [
        {
          "internalType": "address",
          "name": "_collateral",
          "type": "address"
        },
        {
          "internalType": "uint256",
          "name": "_tokenId",
          "type": "uint256"
        },
        {
          "internalType": "address",
          "name": "_receiver",
          "type": "address"
        }
      ],
      "name": "removeAvailableCollateral",
      "outputs": [
        {
          "internalType": "uint256",
          "name": "removeable",
          "type": "uint256"
        }
      ],
      "stateMutability": "nonpayable",
      "type": "function"
    },
    {
      "inputs": [
        {
          "internalType": "address",
          "name": "_collateral",
          "type": "address"
        },
        {
          "internalType": "uint256",
          "name": "_tokenId",
          "type": "uint256"
        },
        {
          "internalType": "uint256",
          "name": "_collateralAmount",
          "type": "uint256"
        },
        {
          "internalType": "address",
          "name": "_receiver",
          "type": "address"
        }
      ],
      "name": "removeCollateral",
      "outputs": [],
      "stateMutability": "nonpayable",
      "type": "function"
    },
    {
      "inputs": [
        {
          "internalType": "address",
          "name": "_borrower",
          "type": "address"
        },
        {
          "internalType": "uint256",
          "name": "tokenId",
          "type": "uint256"
        },
        {
          "internalType": "address",
          "name": "collateral",
          "type": "address"
        }
      ],
      "name": "removeableCollateral",
      "outputs": [
        {
          "internalType": "uint256",
          "name": "",
          "type": "uint256"
        }
      ],
      "stateMutability": "view",
      "type": "function"
    },
    {
      "inputs": [
        {
          "internalType": "uint256",
          "name": "_shares",
          "type": "uint256"
        },
        {
          "internalType": "address",
          "name": "_borrower",
          "type": "address"
        }
      ],
      "name": "repay",
      "outputs": [
        {
          "internalType": "uint256",
          "name": "_amountToRepay",
          "type": "uint256"
        }
      ],
      "stateMutability": "nonpayable",
      "type": "function"
    },
    {
      "inputs": [
        {
          "internalType": "uint256",
          "name": "_amount",
          "type": "uint256"
        },
        {
          "internalType": "address",
          "name": "_borrower",
          "type": "address"
        }
      ],
      "name": "repayWithAmount",
      "outputs": [
        {
          "internalType": "uint256",
          "name": "_sharesToRepay",
          "type": "uint256"
        }
      ],
      "stateMutability": "nonpayable",
      "type": "function"
    },
    {
      "inputs": [
        {
          "internalType": "address",
          "name": "_Utilizer",
          "type": "address"
        }
      ],
      "name": "setUtilizer",
      "outputs": [],
      "stateMutability": "nonpayable",
      "type": "function"
    },
    {
      "inputs": [],
      "name": "store_internal_balance",
      "outputs": [],
      "stateMutability": "nonpayable",
      "type": "function"
    },
    {
      "inputs": [],
      "name": "symbol",
      "outputs": [
        {
          "internalType": "string",
          "name": "",
          "type": "string"
        }
      ],
      "stateMutability": "view",
      "type": "function"
    },
    {
      "inputs": [
        {
          "internalType": "uint256",
          "name": "_shares",
          "type": "uint256"
        },
        {
          "internalType": "bool",
          "name": "_roundUp",
          "type": "bool"
        }
      ],
      "name": "toAssetAmount",
      "outputs": [
        {
          "internalType": "uint256",
          "name": "",
          "type": "uint256"
        }
      ],
      "stateMutability": "view",
      "type": "function"
    },
    {
      "inputs": [
        {
          "internalType": "uint256",
          "name": "_amount",
          "type": "uint256"
        },
        {
          "internalType": "bool",
          "name": "_roundUp",
          "type": "bool"
        }
      ],
      "name": "toAssetShares",
      "outputs": [
        {
          "internalType": "uint256",
          "name": "",
          "type": "uint256"
        }
      ],
      "stateMutability": "view",
      "type": "function"
    },
    {
      "inputs": [
        {
          "internalType": "uint256",
          "name": "_shares",
          "type": "uint256"
        },
        {
          "internalType": "bool",
          "name": "_roundUp",
          "type": "bool"
        }
      ],
      "name": "toBorrowAmount",
      "outputs": [
        {
          "internalType": "uint256",
          "name": "",
          "type": "uint256"
        }
      ],
      "stateMutability": "view",
      "type": "function"
    },
    {
      "inputs": [
        {
          "internalType": "uint256",
          "name": "_amount",
          "type": "uint256"
        },
        {
          "internalType": "bool",
          "name": "_roundUp",
          "type": "bool"
        }
      ],
      "name": "toBorrowShares",
      "outputs": [
        {
          "internalType": "uint256",
          "name": "",
          "type": "uint256"
        }
      ],
      "stateMutability": "view",
      "type": "function"
    },
    {
      "inputs": [],
      "name": "totalAsset",
      "outputs": [
        {
          "internalType": "uint128",
          "name": "amount",
          "type": "uint128"
        },
        {
          "internalType": "uint128",
          "name": "shares",
          "type": "uint128"
        }
      ],
      "stateMutability": "view",
      "type": "function"
    },
    {
      "inputs": [],
      "name": "totalAssetAvailable",
      "outputs": [
        {
          "internalType": "uint256",
          "name": "",
          "type": "uint256"
        }
      ],
      "stateMutability": "view",
      "type": "function"
    },
    {
      "inputs": [],
      "name": "totalAssets",
      "outputs": [
        {
          "internalType": "uint256",
          "name": "",
          "type": "uint256"
        }
      ],
      "stateMutability": "view",
      "type": "function"
    },
    {
      "inputs": [],
      "name": "totalBorrow",
      "outputs": [
        {
          "internalType": "uint128",
          "name": "amount",
          "type": "uint128"
        },
        {
          "internalType": "uint128",
          "name": "shares",
          "type": "uint128"
        }
      ],
      "stateMutability": "view",
      "type": "function"
    },
    {
      "inputs": [],
      "name": "totalSupply",
      "outputs": [
        {
          "internalType": "uint256",
          "name": "",
          "type": "uint256"
        }
      ],
      "stateMutability": "view",
      "type": "function"
    },
    {
      "inputs": [
        {
          "internalType": "address",
          "name": "to",
          "type": "address"
        },
        {
          "internalType": "uint256",
          "name": "amount",
          "type": "uint256"
        }
      ],
      "name": "transfer",
      "outputs": [
        {
          "internalType": "bool",
          "name": "",
          "type": "bool"
        }
      ],
      "stateMutability": "nonpayable",
      "type": "function"
    },
    {
      "inputs": [
        {
          "internalType": "address",
          "name": "from",
          "type": "address"
        },
        {
          "internalType": "address",
          "name": "to",
          "type": "address"
        },
        {
          "internalType": "uint256",
          "name": "amount",
          "type": "uint256"
        }
      ],
      "name": "transferFrom",
      "outputs": [
        {
          "internalType": "bool",
          "name": "",
          "type": "bool"
        }
      ],
      "stateMutability": "nonpayable",
      "type": "function"
    },
    {
      "inputs": [],
      "name": "underlying",
      "outputs": [
        {
          "internalType": "contract ERC20",
          "name": "",
          "type": "address"
        }
      ],
      "stateMutability": "view",
      "type": "function"
    },
    {
      "inputs": [
        {
          "internalType": "address",
          "name": "",
          "type": "address"
        }
      ],
      "name": "userAuctionId",
      "outputs": [
        {
          "internalType": "uint256",
          "name": "",
          "type": "uint256"
        }
      ],
      "stateMutability": "view",
      "type": "function"
    },
    {
      "inputs": [
        {
          "internalType": "address",
          "name": "",
          "type": "address"
        }
      ],
      "name": "userBorrowShares",
      "outputs": [
        {
          "internalType": "uint256",
          "name": "",
          "type": "uint256"
        }
      ],
      "stateMutability": "view",
      "type": "function"
    },
    {
      "inputs": [
        {
          "internalType": "address",
          "name": "",
          "type": "address"
        },
        {
          "internalType": "address",
          "name": "",
          "type": "address"
        }
      ],
      "name": "userCollateralERC20",
      "outputs": [
        {
          "internalType": "uint256",
          "name": "",
          "type": "uint256"
        }
      ],
      "stateMutability": "view",
      "type": "function"
    },
    {
      "inputs": [
        {
          "internalType": "address",
          "name": "",
          "type": "address"
        },
        {
          "internalType": "uint256",
          "name": "",
          "type": "uint256"
        }
      ],
      "name": "userCollateralNFTs",
      "outputs": [
        {
          "internalType": "address",
          "name": "",
          "type": "address"
        }
      ],
      "stateMutability": "view",
      "type": "function"
    },
    {
      "inputs": [
        {
          "internalType": "uint256",
          "name": "",
          "type": "uint256"
        }
      ],
      "name": "validators",
      "outputs": [
        {
          "internalType": "address",
          "name": "",
          "type": "address"
        }
      ],
      "stateMutability": "view",
      "type": "function"
    },
    {
      "inputs": [],
      "name": "vault",
      "outputs": [
        {
          "internalType": "contract Vault",
          "name": "",
          "type": "address"
        }
      ],
      "stateMutability": "view",
      "type": "function"
    },
    {
      "inputs": [
        {
          "internalType": "uint256",
          "name": "assets",
          "type": "uint256"
        },
        {
          "internalType": "address",
          "name": "receiver",
          "type": "address"
        },
        {
          "internalType": "address",
          "name": "owner",
          "type": "address"
        }
      ],
      "name": "withdraw",
      "outputs": [
        {
          "internalType": "uint256",
          "name": "shares",
          "type": "uint256"
        }
      ],
      "stateMutability": "nonpayable",
      "type": "function"
    }
  ],
  "bytecode": {
    "object": "0x6101006040526001600d553480156200001757600080fd5b506040516200675e3803806200675e8339810160408190526200003a916200044f565b87868686868181846001600160a01b031663313ce5676040518163ffffffff1660e01b8152600401602060405180830381865afa15801562000080573d6000803e3d6000fd5b505050506040513d601f19601f82011682018060405250810190620000a691906200053f565b6000620000b48482620005fa565b506001620000c38382620005fa565b5060ff81166080524660a052620000d9620002bb565b60c052505050506001600160a01b0391821660e05250600780546001600160a01b0319169184169182179055604080516362eb326360e11b8152905163c5d664c6916004808201926020929091908290030181865afa15801562000141573d6000803e3d6000fd5b505050506040513d601f19601f82011682018060405250810190620001679190620006c6565b600680546001600160a01b0319166001600160a01b0392831690811790915560405163095ea7b360e01b8152918416600483015260001960248301529063095ea7b3906044016020604051808303816000875af1158015620001cd573d6000803e3d6000fd5b505050506040513d601f19601f82011682018060405250810190620001f39190620006e6565b50600a80546001600160a01b03199081166001600160a01b0393841617909155600e805460ff19169055601d805482168b84161790556019805490911691851691909117905550601a620002488282620005fa565b5060195460405163453f31d560e01b81526001600160a01b039091169063453f31d5906200027b9084906004016200070a565b60006040518083038186803b1580156200029457600080fd5b505afa158015620002a9573d6000803e3d6000fd5b505050505050505050505050620007bd565b60007f8b73c3c69bb8fe3d512ecc4cf759cc79239f7b179b0ffacaa9a75d522b39400f6000604051620002ef91906200073f565b6040805191829003822060208301939093528101919091527fc89efdaa54c0f20c7adf612882df0950f5a951637e0307cdcb4c672f298b8bc660608201524660808201523060a082015260c00160405160208183030381529060405280519060200120905090565b6001600160a01b03811681146200036d57600080fd5b50565b80516200037d8162000357565b919050565b634e487b7160e01b600052604160045260246000fd5b60005b83811015620003b55781810151838201526020016200039b565b50506000910152565b600082601f830112620003d057600080fd5b81516001600160401b0380821115620003ed57620003ed62000382565b604051601f8301601f19908116603f0116810190828211818310171562000418576200041862000382565b816040528381528660208588010111156200043257600080fd5b6200044584602083016020890162000398565b9695505050505050565b600080600080600080600080610100898b0312156200046d57600080fd5b620004788962000370565b97506200048860208a0162000370565b96506200049860408a0162000370565b9550620004a860608a0162000370565b60808a01519095506001600160401b0380821115620004c657600080fd5b620004d48c838d01620003be565b955060a08b0151915080821115620004eb57600080fd5b620004f98c838d01620003be565b94506200050960c08c0162000370565b935060e08b01519150808211156200052057600080fd5b506200052f8b828c01620003be565b9150509295985092959890939650565b6000602082840312156200055257600080fd5b815160ff811681146200056457600080fd5b9392505050565b600181811c908216806200058057607f821691505b602082108103620005a157634e487b7160e01b600052602260045260246000fd5b50919050565b601f821115620005f557600081815260208120601f850160051c81016020861015620005d05750805b601f850160051c820191505b81811015620005f157828155600101620005dc565b5050505b505050565b81516001600160401b0381111562000616576200061662000382565b6200062e816200062784546200056b565b84620005a7565b602080601f8311600181146200066657600084156200064d5750858301515b600019600386901b1c1916600185901b178555620005f1565b600085815260208120601f198616915b82811015620006975788860151825594840194600190910190840162000676565b5085821015620006b65787850151600019600388901b60f8161c191681555b5050505050600190811b01905550565b600060208284031215620006d957600080fd5b8151620005648162000357565b600060208284031215620006f957600080fd5b815180151581146200056457600080fd5b60208152600082518060208401526200072b81604085016020870162000398565b601f01601f19169190910160400192915050565b60008083546200074f816200056b565b600182811680156200076a57600181146200078057620007b1565b60ff1984168752821515830287019450620007b1565b8760005260208060002060005b85811015620007a85781548a8201529084019082016200078d565b50505082870194505b50929695505050505050565b60805160a05160c05160e051615f3d620008216000396000818161076a015281816121ec015281816126390152818161299f01528181612bb201528181613ea601526142a00152600061173e01526000611709015260006106c10152615f3d6000f3fe608060405234801561001057600080fd5b50600436106104e35760003560e01c80636f307dc31161028e578063b68d0a0911610167578063d7da6302116100d9578063ef8b30f711610092578063ef8b30f714610553578063efbb5cb01461086a578063f3aa68d314610dab578063f9557ccb14610db3578063fbfa77cf14610dd1578063fd1c317a14610de457600080fd5b8063d7da630214610cfe578063d832f79114610d1e578063d905777e14610d31578063dd38677a14610d5a578063dd62ed3e14610d6d578063eee2421914610d9857600080fd5b8063c69fe53e1161012b578063c69fe53e14610c7f578063c6e6f59214610c92578063c7be978614610ca5578063cdddd4e514610cad578063ce96cb7714610cd8578063d505accf14610ceb57600080fd5b8063b68d0a0914610c1e578063ba08765214610c59578063bdf0f25314610ac0578063c270a54414610c6c578063c63d75b61461079f57600080fd5b80639189ed1c1161020057806395ee69ac116101c457806395ee69ac14610bc0578063a4e2d63414610bd3578063a9059cbb14610be5578063acb7081514610bf8578063b3d7f6b914610837578063b460af9414610c0b57600080fd5b80639189ed1c14610ada57806394bf804d14610b3f57806394e301e014610b5257806395d14ca814610b6557806395d89b4114610bb857600080fd5b80638285ef40116102525780638285ef4014610a26578063832ba99e14610a645780638354cc5914610a77578063838e9ae314610a8c57806383e754a014610ac0578063852a12e314610ac757600080fd5b80636f307dc3146109cb57806370a08231146109de5780637426e7a4146109fe5780637ecebe0014610a065780638129fc1c146107d957600080fd5b806338d52e0f116103c057806350bb4beb116103325780635c113acc116102f65780635c113acc146109535780635c975abb1461095c578063601b4aed146109675780636578dcfe14610992578063670c6222146109a55780636e553f65146109b857600080fd5b806350bb4beb1461086a578063537d94091461087157806356968f9714610884578063571a26a01461089757806357b259961461094057600080fd5b806346c114171161038457806346c11417146107db57806349dcf4ed146107ee5780634b34e566146108115780634be085d9146108245780634cdad506146108375780634fd422df1461084a57600080fd5b806338d52e0f146107655780633af9e6691461078c578063402d267d1461079f578063404ffa7a146107b4578063416288dd146107c757600080fd5b80631c9e9621116104595780632f8655681161041d5780632f86556814610680578063313ce567146106bc578063350896fe146106f557806335aa2e44146107205780633644e5151461073357806338094ae71461073b57600080fd5b80631c9e9621146106215780631f17b2c4146106345780631fd09567146106475780632134b55f1461065a57806323b872dd1461066d57600080fd5b80630d09365c116104ab5780630d09365c1461056657806310b181b4146105975780631104aafd146105c5578063150b7a02146105cd57806318160ddd146106055780631c5ef1ab1461060e57600080fd5b806301e1d114146104e857806306fdde031461050857806307a2d13a1461051d578063095ea7b3146105305780630a28a47714610553575b600080fd5b6010546001600160801b03165b6040519081526020015b60405180910390f35b610510610df7565b6040516104ff9190615565565b6104f561052b366004615578565b610e85565b61054361053e3660046155a6565b610ec1565b60405190151581526020016104ff565b6104f5610561366004615578565b610f2d565b61056e610f38565b604080519485526020850193909352918301526001600160401b031660608201526080016104ff565b6105436105a53660046155a6565b601260209081526000928352604080842090915290825290205460ff1681565b6008546104f5565b6105ec6105db3660046155d2565b630a85bd0160e11b95945050505050565b6040516001600160e01b031990911681526020016104ff565b6104f560025481565b6104f561061c366004615670565b610f89565b6104f561062f366004615578565b6110ae565b6105436106423660046156c6565b6111cf565b6104f56106553660046156e3565b61126e565b6104f5610668366004615713565b6112f6565b61054361067b366004615735565b6114d1565b61069361068e3660046156c6565b6115b3565b6040805183516001600160a01b03168152602093840151938101939093528201526060016104ff565b6106e37f000000000000000000000000000000000000000000000000000000000000000081565b60405160ff90911681526020016104ff565b600a54610708906001600160a01b031681565b6040516001600160a01b0390911681526020016104ff565b61070861072e366004615578565b6116db565b6104f5611705565b61074e6107493660046156c6565b611760565b6040805192151583526020830191909152016104ff565b6107087f000000000000000000000000000000000000000000000000000000000000000081565b6104f561079a3660046156c6565b611a1a565b6104f56107ad3660046156c6565b5060001990565b6104f56107c2366004615784565b611b15565b6107d96107d5366004615713565b5050565b005b6107d96107e93660046157a9565b611b4b565b6107f6611c07565b604080519384526020840192909252908201526060016104ff565b6107d961081f3660046156c6565b611c55565b6107d96108323660046157f3565b611ce3565b6104f5610845366004615578565b611f24565b6104f56108583660046156c6565b60156020526000908152604090205481565b60006104f5565b61054361087f366004615578565b611f2f565b6104f5610892366004615784565b611f43565b6108f86108a5366004615578565b601760205260009081526040902080546001820154600283015460038401546004850154600586015460068701546007909701546001600160a01b03968716979590961695939492939192909160ff1688565b604080516001600160a01b03998a168152989097166020890152958701949094526060860192909252608085015260a084015260c0830152151560e0820152610100016104ff565b6107d961094e3660046156c6565b611f79565b6104f560185481565b600e5460ff16610543565b6104f561097536600461583b565b601360209081526000928352604080842090915290825290205481565b6105436109a0366004615578565b61208d565b6107d96109b33660046157a9565b612100565b6104f56109c63660046156e3565b612194565b600654610708906001600160a01b031681565b6104f56109ec3660046156c6565b60036020526000908152604090205481565b6104f561226e565b6104f5610a143660046156c6565b60056020526000908152604090205481565b600f54610a44906001600160801b0380821691600160801b90041682565b604080516001600160801b039384168152929091166020830152016104ff565b6104f5610a72366004615713565b6122c3565b610a7f612504565b6040516104ff9190615869565b610708610a9a3660046155a6565b60146020908152600092835260408084209091529082529020546001600160a01b031681565b6001610543565b610543610ad5366004615578565b612579565b610b1d610ae83660046155a6565b601160209081526000928352604080842090915290825290208054600182015460028301546003909301549192909160ff1684565b60408051948552602085019390935291830152151560608201526080016104ff565b6104f5610b4d3660046156e3565b61261f565b6104f5610b60366004615784565b6126bb565b601b54610b8e906001600160401b0380821691600160401b8104821691600160801b9091041683565b604080516001600160401b03948516815292841660208401529216918101919091526060016104ff565b6105106126f1565b6104f5610bce3660046158c9565b6126fe565b600754600160a01b900460ff16610543565b610543610bf33660046155a6565b6127aa565b6104f5610c063660046156e3565b612810565b6104f5610c1936600461590b565b6128b8565b610c31610c2c3660046156c6565b6129c6565b604080519586526020860194909452928401919091526060830152608082015260a0016104ff565b6104f5610c6736600461590b565b612a8d565b6104f5610c7a366004615784565b612bd9565b6104f5610c8d366004615578565b612c0f565b6104f5610ca0366004615578565b612ea1565b610510612ed7565b610cc3610cbb366004615578565b600080915091565b604080519283526020830191909152016104ff565b6104f5610ce63660046156c6565b612ee4565b6107d9610cf9366004615951565b612f06565b6104f5610d0c3660046156c6565b60166020526000908152604090205481565b6107d9610d2c366004615578565b61314a565b6104f5610d3f3660046156c6565b6001600160a01b031660009081526003602052604090205490565b6104f5610d683660046158c9565b6131e0565b6104f5610d7b36600461583b565b600460209081526000928352604080842090915290825290205481565b601954610708906001600160a01b031681565b6107d96132ac565b601054610a44906001600160801b0380821691600160801b90041682565b600754610708906001600160a01b031681565b6104f5610df23660046156c6565b6133d0565b60008054610e04906159c2565b80601f0160208091040260200160405190810160405280929190818152602001828054610e30906159c2565b8015610e7d5780601f10610e5257610100808354040283529160200191610e7d565b820191906000526020600020905b815481529060010190602001808311610e6057829003601f168201915b505050505081565b604080518082019091526010546001600160801b038082168352600160801b909104166020820152600090610ebb9083836135d6565b92915050565b3360008181526004602090815260408083206001600160a01b038716808552925280832085905551919290917f8c5be1e5ebec7d5bd14f71427d1e84f3dd0314c0f7b2291e5b200ac8c7c3b92590610f1c9086815260200190565b60405180910390a350600192915050565b6000610ebb82612ea1565b600080600080600d54600114610f695760405162461bcd60e51b8152600401610f60906159f6565b60405180910390fd5b6002600d55610f7661366a565b6001600d55929791965094509092509050565b600033600d54600114610fae5760405162461bcd60e51b8152600401610f60906159f6565b6002600d55610fbb613ae1565b610fc361366a565b505050506001600160a01b03861615801590610fe957506000841180610fe95750600085115b15611066576001600160a01b038616600090815260126020908152604080832088845290915290205460ff166110595760405162461bcd60e51b81526020600482015260156024820152741d5b985c1c1c9bdd99590818dbdb1b185d195c985b605a1b6044820152606401610f60565b6110663387863389613b27565b61107861107288613cdd565b84613cf3565b6001600d559150611088816111cf565b6110a45760405162461bcd60e51b8152600401610f6090615a1a565b5095945050505050565b600081815260176020908152604080832081516101008101835281546001600160a01b039081168252600183015416938101939093526002810154918301919091526003810154606083015260048101546080830152600581015460a0830152600681015460c08301526007015460ff16151560e0820181905261116b5760405162461bcd60e51b815260206004820152601460248201527361756374696f6e206973206e6f7420616c69766560601b6044820152606401610f60565b60006111926111878360c0015161118142613ede565b90613f65565b60a084015190613f77565b60808301519091506111a49082614044565b8260600151136111b85781608001516111c7565b60608201516111c79082613f65565b949350505050565b6000806111db836133d0565b6001600160a01b038416600090815260156020526040812054919250036112055750600192915050565b806000036112165750600092915050565b6001600160a01b0383166000908152601560209081526040808320548151808301909252600f546001600160801b038082168452600160801b9091041692820192909252611266929091906135d6565b111592915050565b6000600d546001146112925760405162461bcd60e51b8152600401610f60906159f6565b6002600d5560408051808201909152600f546001600160801b038082168352600160801b9091041660208201526112cb81856001614053565b91506112ea816112da86613cdd565b6112e385613cdd565b33876140c8565b506001600d5592915050565b600082815260176020908152604080832081516101008101835281546001600160a01b039081168252600183015416938101939093526002810154918301919091526003810154606083015260048101546080830152600581015460a0830152600681015460c08301526007015460ff16151560e082018190526113b35760405162461bcd60e51b815260206004820152601460248201527361756374696f6e206973206e6f7420616c69766560601b6044820152606401610f60565b600081602001516001600160a01b031663313ce5676040518163ffffffff1660e01b8152600401602060405180830381865afa1580156113f7573d6000803e3d6000fd5b505050506040513d601f19601f8201168201806040525081019061141b9190615a49565b60ff169050600061144a611430836012615a7c565b61143b90600a615b73565b6114459087615b7f565b6142d8565b9050600061147b846060015161147561146a8760c0015161118142613ede565b60a088015190613f77565b90613f77565b9050600061149682866080015161404490919063ffffffff16565b8560600151136114aa5784608001516114b9565b60608501516114b99083613f65565b90506114c58184613f77565b98975050505050505050565b6001600160a01b0383166000908152600460209081526040808320338452909152812054600019811461152d576115088382615a7c565b6001600160a01b03861660009081526004602090815260408083203384529091529020555b6001600160a01b03851660009081526003602052604081208054859290611555908490615a7c565b90915550506001600160a01b0380851660008181526003602052604090819020805487019055519091871690600080516020615ee88339815191529061159e9087815260200190565b60405180910390a360019150505b9392505050565b60408051808201909152600080825260208201526000600d546001146115eb5760405162461bcd60e51b8152600401610f60906159f6565b6002600d556115f861366a565b5050505060008061160885611760565b91509150816116595760405162461bcd60e51b815260206004820152601c60248201527f626f72726f776572206973206e6f74206c6971756964617461626c65000000006044820152606401610f60565b6001600160a01b038516600090815260166020526040902054156116b85760405162461bcd60e51b815260206004820152601660248201527561756374696f6e20616c72656164792065786973747360501b6044820152606401610f60565b6116ca856116c583615b96565b6142e0565b6001600d5590969095509350505050565b600b81815481106116eb57600080fd5b6000918252602090912001546001600160a01b0316905081565b60007f0000000000000000000000000000000000000000000000000000000000000000461461173b5761173661493f565b905090565b507f000000000000000000000000000000000000000000000000000000000000000090565b6000806000805b601c54811015611961576000601c828154811061178657611786615bb2565b60009182526020808320604080518082018252600294850290920180546001600160a01b03168084526001918201548486019081529087526011855282872090518752845294819020815160808101835281548152958101549386019390935292820154928401929092526003015460ff1615801560608401819052919350611835575081516001600160a01b039081166000908152601360209081526040808320938b168352929052205415155b1561190657600082600001516001600160a01b031663313ce5676040518163ffffffff1660e01b8152600401602060405180830381865afa15801561187e573d6000803e3d6000fd5b505050506040513d601f19601f820116820180604052508101906118a29190615a49565b60ff1690506118b281600a615b73565b60208084015185516001600160a01b039081166000908152601384526040808220928e16825291909352909120546118ea9190615b7f565b6118f49190615bde565b6118fe9086615bf2565b94505061194c565b81516001600160a01b03908116600090815260146020908152604080832082870151845290915290205481891691160361194c5760208101516119499085615bf2565b93505b5050808061195990615c05565b915050611767565b506001600160a01b0384166000908152601560209081526040808320548151808301909252600f546001600160801b038082168452600160801b90910416928201929092526119b2929091906135d6565b6001600160a01b0385166000908152601560209081526040808320548151808301909252600f546001600160801b038082168452600160801b909104169282019290925292841092611a06929091906135d6565b611a109083615c1e565b9250925050915091565b6000306001600160a01b03831603611aa7576009546006546040516370a0823160e01b81526001600160a01b038581166004830152909116906370a0823190602401602060405180830381865afa158015611a79573d6000803e3d6000fd5b505050506040513d601f19601f82011682018060405250810190611a9d9190615c45565b610ebb9190615a7c565b6006546040516370a0823160e01b81526001600160a01b038481166004830152909116906370a0823190602401602060405180830381865afa158015611af1573d6000803e3d6000fd5b505050506040513d601f19601f82011682018060405250810190610ebb9190615c45565b604080518082019091526010546001600160801b038082168352600160801b9091041660208201526000906115ac9084846135d6565b600d54600114611b6d5760405162461bcd60e51b8152600401610f60906159f6565b6002600d556001600160a01b038416600090815260126020908152604080832086845290915290205433908590859060ff16611bbb5760405162461bcd60e51b8152600401610f6090615c5e565b611bc361366a565b50505050611bd487868833886149d9565b5050611bdf816111cf565b611bfb5760405162461bcd60e51b8152600401610f6090615a1a565b50506001600d55505050565b600754600090819081906001600160a01b03163314611c385760405162461bcd60e51b8152600401610f6090615c95565b611c506007805460ff60a01b1916600160a01b179055565b909192565b6001600160a01b0380821660009081526016602090815260408083205480845260179092528220549092611c899116611760565b50905081600003611cd05760405162461bcd60e51b81526020600482015260116024820152706e6f2061756374696f6e2065786973747360781b6044820152606401610f60565b80611cde57611cde82614d02565b505050565b601d546001600160a01b03163314611d2f5760405162461bcd60e51b815260206004820152600f60248201526e37b7363c9031b7b73a3937b63632b960891b6044820152606401610f60565b6001600160a01b038516600090815260126020908152604080832087845290915290205460ff1615611da35760405162461bcd60e51b815260206004820152601b60248201527f636f6c6c61746572616c20616c726561647920617070726f76656400000000006044820152606401610f60565b818311611e095760405162461bcd60e51b815260206004820152602e60248201527f6d6178416d6f756e74206d7573742062652067726561746572207468616e206d60448201526d185e109bdc9c9bddd05b5bdd5b9d60921b6064820152608401610f60565b6001600160a01b03948516600081815260126020908152604080832088845282528083208054600160ff199182168117909255825180840184528681528085018b8152601c8054808601825590885291517f0e4562a10381dec21b205ed72637e6b1b523bdd0e4d4d50af5cd23dd4500a211600293840290810180546001600160a01b03191692909f1691909117909d55517f0e4562a10381dec21b205ed72637e6b1b523bdd0e4d4d50af5cd23dd4500a212909c019b909b558251608081018452858152808501998a52808401988952961515606088019081529585526011845282852099855298909252909120925183559351938201939093559051938101939093555160039092018054909116911515919091179055565b6000610ebb82610e85565b600081611f3b30611a1a565b101592915050565b604080518082019091526010546001600160801b038082168352600160801b9091041660208201526000906115ac908484614053565b600760009054906101000a90046001600160a01b03166001600160a01b0316638da5cb5b6040518163ffffffff1660e01b8152600401602060405180830381865afa158015611fcc573d6000803e3d6000fd5b505050506040513d601f19601f82011682018060405250810190611ff09190615cc3565b6001600160a01b0316336001600160a01b0316148061201e5750336000908152600c602052604090205460ff165b6120585760405162461bcd60e51b815260206004820152600b60248201526a08585d5d1a1bdc9a5e995960aa1b6044820152606401610f60565b6001600160a01b03811661206b57600080fd5b600a80546001600160a01b0319166001600160a01b0392909216919091179055565b604080518082018252600f546001600160801b038082168352600160801b9182900481166020808501919091528451808601909552601054808316865292909204169083015260009182906120e29083614dd7565b9050838110156120f6575060009392505050565b5060019392505050565b6001600160a01b03841660009081526012602090815260408083208684529091529020548490849060ff166121475760405162461bcd60e51b8152600401610f6090615c5e565b600d546001146121695760405162461bcd60e51b8152600401610f60906159f6565b6002600d5561217661366a565b505050506121873387868689613b27565b50506001600d5550505050565b600061219f83610f2d565b9050806000036121df5760405162461bcd60e51b815260206004820152600b60248201526a5a45524f5f53484152455360a81b6044820152606401610f60565b6122146001600160a01b037f000000000000000000000000000000000000000000000000000000000000000016333086614df7565b61221e8282614e7a565b60408051848152602081018390526001600160a01b0384169133917fdcbc1c05240f31ff3ad067ef1ee35ce4997762752e3a095284754544f4c709d7910160405180910390a3610ebb8382614ed4565b6040805180820182526010546001600160801b038082168352600160801b9182900481166020808501919091528451808601909552600f5480831686529290920416908301526000916117369190614dd7565b565b600082815260176020908152604080832081516101008101835281546001600160a01b039081168083526001840154909116948201949094526002820154928101929092526003810154606083015260048101546080830152600581015460a0830152600681015460c08301526007015460ff16151560e082015290829061234a90611760565b509050806123945761235b85614d02565b60405162461bcd60e51b815260206004820152600e60248201526d185d58dd1a5bdb8818db1bdcd95960921b6044820152606401610f60565b61239e85856112f6565b92506123cd6040518060400160405280600b81526020016a03a37ba30b621b7b9ba1d160ad1b81525084614fac565b60408051808201909152600f546001600160801b038082168352600160801b90910416602082015261241f8161240286613cdd565b61241661241185896000614053565b613cdd565b865133906140c8565b61243883602001518685604001518660000151336149d9565b825161244390611760565b509150816124545761245486614d02565b6020808401516001600160a01b039081166000908152601383526040808220875190931682529190925281205490036124fb5782516001600160a01b031660009081526016602090815260408083208390558883526017909152812080546001600160a01b031990811682556001820180549091169055600281018290556003810182905560048101829055600581018290556006810191909155600701805460ff191690555b50505092915050565b6060601c805480602002602001604051908101604052809291908181526020016000905b82821015612570576000848152602090819020604080518082019091526002850290910180546001600160a01b03168252600190810154828401529083529092019101612528565b50505050905090565b6007546000906001600160a01b031633146125a65760405162461bcd60e51b8152600401610f6090615c95565b60065460075460405163a9059cbb60e01b81526001600160a01b0391821660048201526024810185905291169063a9059cbb906044016020604051808303816000875af11580156125fb573d6000803e3d6000fd5b505050506040513d601f19601f82011682018060405250810190610ebb9190615ce0565b600061262a83611f24565b90506126616001600160a01b037f000000000000000000000000000000000000000000000000000000000000000016333084614df7565b61266b8284614e7a565b60408051828152602081018590526001600160a01b0384169133917fdcbc1c05240f31ff3ad067ef1ee35ce4997762752e3a095284754544f4c709d7910160405180910390a3610ebb8184614ed4565b60408051808201909152600f546001600160801b038082168352600160801b9091041660208201526000906115ac9084846135d6565b60018054610e04906159c2565b60008061270a856133d0565b6001600160a01b038085166000908152601160209081526040808320898452825280832060020154938a1683526015825291829020548251808401909352600f546001600160801b038082168552600160801b90910416918301919091529293509091829161277a9160016135d6565b6127849084615a7c565b61279690670de0b6b3a7640000615b7f565b6127a09190615bde565b9695505050505050565b336000908152600360205260408120805483919083906127cb908490615a7c565b90915550506001600160a01b03831660008181526003602052604090819020805485019055513390600080516020615ee883398151915290610f1c9086815260200190565b6000600d546001146128345760405162461bcd60e51b8152600401610f60906159f6565b6002600d5560408051808201909152600f546001600160801b038082168352600160801b90910416602082015261286d818560016135d6565b91506128a260405180604001604052806011815260200170030b6b7bab73a103a37903932b830bc9d1607d1b81525083614fac565b6112ea816128af84613cdd565b6112e387613cdd565b60006128c384610f2d565b9050336001600160a01b03831614612933576001600160a01b038216600090815260046020908152604080832033845290915290205460001981146129315761290c8282615a7c565b6001600160a01b03841660009081526004602090815260408083203384529091529020555b505b61293d8482614ff1565b6129478282615162565b60408051858152602081018390526001600160a01b03808516929086169133917ffbde797d201c681b91056529119e0b02407c7bb96a4a2c75c01fc9667232c8db910160405180910390a46115ac6001600160a01b037f00000000000000000000000000000000000000000000000000000000000000001684866151c4565b6001600160a01b03811660009081526003602090815260408083205481518083019092526010546001600160801b038082168452600160801b9091041692820192909252909190819081908190612a1e9086836135d6565b6001600160a01b0387166000908152601560209081526040808320548151808301909252600f546001600160801b038082168452600160801b90910416928201929092529296509450612a73919085906135d6565b9150612a7e86611760565b90508091505091939590929450565b6000336001600160a01b03831614612afd576001600160a01b03821660009081526004602090815260408083203384529091529020546000198114612afb57612ad68582615a7c565b6001600160a01b03841660009081526004602090815260408083203384529091529020555b505b612b0684611f24565b905080600003612b465760405162461bcd60e51b815260206004820152600b60248201526a5a45524f5f41535345545360a81b6044820152606401610f60565b612b508185614ff1565b612b5a8285615162565b60408051828152602081018690526001600160a01b03808516929086169133917ffbde797d201c681b91056529119e0b02407c7bb96a4a2c75c01fc9667232c8db910160405180910390a46115ac6001600160a01b037f00000000000000000000000000000000000000000000000000000000000000001684836151c4565b60408051808201909152600f546001600160801b038082168352600160801b9091041660208201526000906115ac908484614053565b600081815260176020908152604080832081516101008101835281546001600160a01b039081168083526001840154909116948201949094526002820154928101929092526003810154606083015260048101546080830152600581015460a0830152600681015460c08301526007015460ff16151560e0820152908290612c9690611760565b50905080612d7c57600060e08301818152858252601760209081526040808420865181546001600160a01b03199081166001600160a01b039283169081178455858a0151600185018054909316931692909217905582880151600283015560608801516003830155608088015160048084019190915560a0890151600584015560c0890151600684015594516007909201805460ff19169215159290921790915584526016825280842093909355915162461bcd60e51b815290810191909152600e60248201526d185d58dd1a5bdb8818db1bdcd95960921b6044820152606401610f60565b612d85846110ae565b60408051808201909152600f546001600160801b038082168352600160801b909104166020820152909350612dbd8161240286613cdd565b612dd78360200151600085604001518660000151336149d9565b8251612de290611760565b50915081612df357612df385614d02565b6020808401516001600160a01b039081166000908152601483526040808220818801518352909352919091205416612e995782516001600160a01b031660009081526016602090815260408083208390558783526017909152812080546001600160a01b031990811682556001820180549091169055600281018290556003810182905560048101829055600581018290556006810191909155600701805460ff191690555b505050919050565b604080518082019091526010546001600160801b038082168352600160801b909104166020820152600090610ebb908383614053565b601a8054610e04906159c2565b6001600160a01b038116600090815260036020526040812054610ebb90610e85565b42841015612f565760405162461bcd60e51b815260206004820152601760248201527f5045524d49545f444541444c494e455f455850495245440000000000000000006044820152606401610f60565b60006001612f62611705565b6001600160a01b038a811660008181526005602090815260409182902080546001810190915582517f6e71edae12b1b97f4d1f60370fef10105fa2faae0126114a169c64845d6126c98184015280840194909452938d166060840152608083018c905260a083019390935260c08083018b90528151808403909101815260e08301909152805192019190912061190160f01b6101008301526101028201929092526101228101919091526101420160408051601f198184030181528282528051602091820120600084529083018083525260ff871690820152606081018590526080810184905260a0016020604051602081039080840390855afa15801561306e573d6000803e3d6000fd5b5050604051601f1901519150506001600160a01b038116158015906130a45750876001600160a01b0316816001600160a01b0316145b6130e15760405162461bcd60e51b815260206004820152600e60248201526d24a72b20a624a22fa9a4a3a722a960911b6044820152606401610f60565b6001600160a01b0390811660009081526004602090815260408083208a8516808552908352928190208990555188815291928a16917f8c5be1e5ebec7d5bd14f71427d1e84f3dd0314c0f7b2291e5b200ac8c7c3b925910160405180910390a350505050505050565b6006546040516323b872dd60e01b8152336004820152306024820152604481018390526001600160a01b03909116906323b872dd906064016020604051808303816000875af11580156131a1573d6000803e3d6000fd5b505050506040513d601f19601f820116820180604052508101906131c59190615ce0565b5080600960008282546131d89190615bf2565b909155505050565b6000600d546001146132045760405162461bcd60e51b8152600401610f60906159f6565b6002600d556001600160a01b038416600090815260126020908152604080832086845290915290205433908590859060ff166132525760405162461bcd60e51b8152600401610f6090615c5e565b61325a61366a565b505050506132693387896126fe565b935061327887858833896149d9565b5050613283816111cf565b61329f5760405162461bcd60e51b8152600401610f6090615a1a565b506001600d559392505050565b6007546001600160a01b031633146132d65760405162461bcd60e51b8152600401610f6090615c95565b6132df30611a1a565b60085560075460408051637e0b9fe360e11b815290516001600160a01b039092169163fc173fc6916004808201926020929091908290030181865afa15801561332c573d6000803e3d6000fd5b505050506040513d601f19601f820116820180604052508101906133509190615ce0565b156122c157600754600854604051634b674ead60e11b81526001600160a01b03909216916396ce9d5a9161338a9160040190815260200190565b602060405180830381865afa1580156133a7573d6000803e3d6000fd5b505050506040513d601f19601f820116820180604052508101906133cb9190615c45565b600855565b6000805b601c548110156135d0576000601c82815481106133f3576133f3615bb2565b60009182526020808320604080518082018252600294850290920180546001600160a01b03168084526001918201548486019081529087526011855282872090518752845294819020815160808101835281548152958101549386019390935292820154928401929092526003015460ff16158015606084018190529193506134a2575081516001600160a01b0390811660009081526013602090815260408083209389168352929052205415155b1561357557600082600001516001600160a01b031663313ce5676040518163ffffffff1660e01b8152600401602060405180830381865afa1580156134eb573d6000803e3d6000fd5b505050506040513d601f19601f8201168201806040525081019061350f9190615a49565b60ff16905061351f81600a615b73565b60408084015185516001600160a01b03908116600090815260136020908152848220928c1682529190915291909120546135599190615b7f565b6135639190615bde565b61356d9086615bf2565b9450506135bb565b81516001600160a01b0390811660009081526014602090815260408083208287015184529091529020548187169116036135bb5760408101516135b89085615bf2565b93505b505080806135c890615c05565b9150506133d4565b50919050565b600083602001516001600160801b03166000036135f45750816115ac565b602084015184516001600160801b0391821691613612911685615b7f565b61361c9190615bde565b905081801561365a57508284600001516001600160801b031685602001516001600160801b03168361364e9190615b7f565b6136589190615bde565b105b156115ac576111c7816001615bf2565b60408051606081018252601b546001600160401b038082168352600160401b8204811660208401819052600160801b9092041692820192909252600091829182918291904290036136c057604001519050613adb565b6040805180820182526010546001600160801b038082168352600160801b91829004811660208085019190915284518086018652600f548084168252939093049091168282018190528451808601909552601785527f746f74616c20626f72726f776572207368617265733a20000000000000000000918501919091529192909161374b9190614fac565b60208101516001600160801b031615806137675750600e5460ff165b156137df57600e5460ff166137815763096ba6c460408401525b6001600160401b0342811660208501819052438216808652601b80546040880151909416600160801b0267ffffffffffffffff60801b19600160401b9094026001600160801b03199095169092179390931791909116179055613a52565b600083602001516001600160401b0316426137fa9190615a7c565b835183519192506000916001600160801b039182169161381e9116620186a0615b7f565b6138289190615bde565b905060008560400151838388600001516001600160401b03164361384c9190615a7c565b604080516001600160401b0390951660208601528401929092526060830152608082015260a00160408051601f1981840301815290829052601954631b54c1a360e01b83529092506001600160a01b031690631b54c1a3906138b5908490601a90600401615cfd565b602060405180830381865afa1580156138d2573d6000803e3d6000fd5b505050506040513d601f19601f820116820180604052508101906138f69190615d98565b6001600160401b038082166040890181905242821660208a01524390911688528551919850670de0b6b3a764000091613938906001600160801b031686615b7f565b6139429190615b7f565b61394c9190615bde565b8451909a506001600160801b03906139669082168c615bf2565b11158015613989575084516001600160801b03906139869082168c615bf2565b11155b156139ca5789846000018181516139a09190615dc1565b6001600160801b031690525084518a9086906139bd908390615dc1565b6001600160801b03169052505b505082516020808501516001600160801b03928316600160801b9184168202176010558651601b80548985015160408b01516001600160401b039485166001600160801b031990931692909217600160401b918516919091021767ffffffffffffffff60801b1916921683029190911790558451918501519183169190921690910217600f55505b613a856040518060400160405280601181526020017002fb4b73a32b932b9ba22b0b93732b21d1607d1b81525088614fac565b60408051888152602081018890529081018690526001600160401b038516606082015242907fb3f1ab1acc425f7672dd56d1f8912f1e1b18909cd52aef680190f13adb38a9659060800160405180910390a25050505b90919293565b600e5460ff16156122c15760405162461bcd60e51b815260206004820152601060248201526f14185d5cd8589b194e881c185d5cd95960821b6044820152606401610f60565b6001600160a01b03808516600090815260116020908152604080832085845290915290206003015460ff169086163014613c85578015613bf0576001600160a01b03808616600090815260136020908152604080832093871683529290529081208054869290613b98908490615bf2565b90915550506001600160a01b038516600090815260116020908152604080832083805290915281208054869290613bd0908490615bf2565b90915550613beb90506001600160a01b038616873087614df7565b613c85565b6001600160a01b0385811660008181526014602090815260408083208784529091529081902080546001600160a01b03191687851617905551632142170760e11b8152918816600483015230602483015260448201849052906342842e0e90606401600060405180830381600087803b158015613c6c57600080fd5b505af1158015613c80573d6000803e3d6000fd5b505050505b604080516001600160a01b03878116825260208201859052918101869052908416907f33a089d94f9a0b7d0fe21e69b40d7dbe1965be652c7382cc778d46963db8c49b906060015b60405180910390a2505050505050565b6000600160801b8210613cef57600080fd5b5090565b604080518082018252600f546001600160801b038082168352600160801b918290048116602080850191909152845180860190955260105480831686529290920416908301526000918290613d489083614dd7565b9050846001600160801b0316811015613daf5760405162461bcd60e51b815260206004820152602360248201527f696e73756666696369656e7420636f6e74726163742061737365742062616c616044820152626e636560e81b6064820152608401610f60565b613dc4826001600160801b0387166001614053565b92508482600001818151613dd89190615dc1565b6001600160801b0316905250602082018051849190613df8908390615dc1565b6001600160801b0390811690915283516020808601518316600160801b029190921617600f553360009081526015909152604081208054869350909190613e40908490615bf2565b9091555050604080516001600160801b03871681526020810185905233917fe1979fe4c35e0cef342fef5668e2c8e7a7e9f5d5d1ca8fee0ac6c427fa4153af910160405180910390a26001600160a01b0384163014613ed657613ed66001600160a01b037f000000000000000000000000000000000000000000000000000000000000000016856001600160801b0388166151c4565b505092915050565b6000613ef6670de0b6b3a7640000600160ff1b615de1565b821215613f1957604051634a78131f60e01b815260048101839052602401610f60565b613f32670de0b6b3a76400006001600160ff1b03615de1565b821315613f5557604051632f36878760e01b815260048101839052602401610f60565b670de0b6b3a76400008202610ebb565b60006115ac613f748385615c1e565b90565b60008282600160ff1b821480613f905750600160ff1b81145b15613fae57604051630d01a11b60e21b815260040160405180910390fd5b60008060008412613fbf5783613fc4565b836000035b915060008312613fd45782613fd9565b826000035b90506000613fe78383615242565b90506001600160ff1b0381111561401b5760405163cdaa009160e01b81526004810189905260248101889052604401610f60565b60001985851813614037816140335782600003613f74565b8290565b9998505050505050505050565b60006115ac613f748385615e0f565b82516000906001600160801b0316810361406e5750816115ac565b835160208501516001600160801b039182169161408c911685615b7f565b6140969190615bde565b905081801561365a57508284602001516001600160801b031685600001516001600160801b03168361364e9190615b7f565b6140fc6040518060400160405280600981526020016802fb9b430b932b99d160bd1b815250846001600160801b0316614fac565b6141376040518060400160405280601081526020016f02fb0b6b7bab73a2a37a932b830bc9d160851b815250856001600160801b0316614fac565b61419b6040518060400160405280601d81526020017f75736572426f72726f775368617265735b5f626f72726f7765725d3a2000000081525060156000846001600160a01b03166001600160a01b0316815260200190815260200160002054614fac565b83856000018181516141ad9190615e2f565b6001600160801b03169052506020850180518491906141cd908390615e2f565b6001600160801b039081169091526001600160a01b03831660009081526015602052604081208054928716935091614206908490615a7c565b9091555050845160208601516001600160801b03908116600160801b02911617600f556040516001600160a01b038216907f77c6871227e5d2dec8dadd5354f78453203e22e669cd0ec4c19d9a8c5edb31d09061427b90879087906001600160801b0392831681529116602082015260400190565b60405180910390a26001600160a01b03821630146142d1576142d16001600160a01b037f00000000000000000000000000000000000000000000000000000000000000001683306001600160801b038816614df7565b5050505050565b600081610ebb565b6040805180820190915260008082526020820152600080601c805480602002602001604051908101604052809291908181526020016000905b82821015614361576000848152602090819020604080518082019091526002850290910180546001600160a01b03168252600190810154828401529083529092019101614319565b5050505090506000805b82518110156144b457600083828151811061438857614388615bb2565b60209081029190910181015180516001600160a01b031660009081526011835260408082208385015183528452908190208151608081018352815481526001820154948101949094526002810154918401919091526003015460ff1615801560608401529092506144545760208082015183516001600160a01b039081166000908152601384526040808220928e16825291909352822054670de0b6b3a76400009161443391615b7f565b61443d9190615bde565b90508481111561444e578094508297505b5061449f565b81516001600160a01b039081166000908152601460209081526040808320828701518452909152902054818b1691160361449f57838160200151111561449f57806020015193508196505b505080806144ac90615c05565b91505061436b565b5083516001600160a01b031660009081526011602090815260408083208288015184528252808320815160808101835281548152600180830154948201949094526002820154928101929092526003015460ff161515606082015260185490929161451f9190615bf2565b9050600082606001511561461257600087600001516001600160a01b031663313ce5676040518163ffffffff1660e01b8152600401602060405180830381865afa158015614571573d6000803e3d6000fd5b505050506040513d601f19601f820116820180604052508101906145959190615a49565b60ff16905061460a6145a8826012615a7c565b6145b390600a615b73565b601360008b600001516001600160a01b03166001600160a01b0316815260200190815260200160002060008d6001600160a01b03166001600160a01b03168152602001908152602001600020546114459190615b7f565b91505061461f565b61461c6001613ede565b90505b61464d6040518060400160405280600c81526020016b030b1b1b7bab73a2634b89d160a51b81525089614fac565b614656816152f6565b6146876040518060400160405280600b81526020016a036b0bc20b6b7bab73a1d160ad1b8152508460200151614fac565b61469483602001516152f6565b60006146bf6146a685602001516142d8565b6146b9846146b38d6142d8565b9061533e565b90614044565b6040805180820182526008815267039b430b932b99d160c51b6020808301919091528251808401909352600f546001600160801b038082168552600160801b909104169083015291925061471f919061471a90846001614053565b614fac565b60408051808201909152600e81526d03a37ba30b61739b430b932b99d160951b6020820152600f546147619190600160801b90046001600160801b0316614fac565b60408051808201909152600e81526d03a37ba30b61730b6b7bab73a1d160951b6020820152600f5461479c91906001600160801b0316614fac565b60006147be6147ad62015180613ede565b6146b367016345785d8a00006142d8565b905060006147d66147cf6004613ede565b849061533e565b90506040518061010001604052808d6001600160a01b031681526020018b600001516001600160a01b031681526020018b60200151815260200184815260200182815260200183815260200161482b42613ede565b815260016020918201819052600088815260178352604090819020845181546001600160a01b03199081166001600160a01b039283161783559486015182850180549096169116179093558301516002830155606083015160038301556080830151600483015560a0830151600583015560c0830151600683015560e0909201516007909101805460ff19169115159190911790556018546148cc91615bf2565b6018556001600160a01b038c81166000818152601660209081526040918290208990558d518e8201519251928352989c508c989093169288917f8777bed2a899ba8843de663a1f6ed1c48d071cc8bde08e2488b59c00c1993f76910160405180910390a450505050505050509250929050565b60007f8b73c3c69bb8fe3d512ecc4cf759cc79239f7b179b0ffacaa9a75d522b39400f60006040516149719190615e4f565b6040805191829003822060208301939093528101919091527fc89efdaa54c0f20c7adf612882df0950f5a951637e0307cdcb4c672f298b8bc660608201524660808201523060a082015260c00160405160208183030381529060405280519060200120905090565b6001600160a01b03808616600090815260116020908152604080832087845290915290206003015460ff169082163014614cb6578015614bbb57614a516040518060400160405280601981526020017f72656d6f76696e6720657263323020636f6c6c61746572616c000000000000008152506153eb565b604080518082018252601581527403ab9b2b921b7b63630ba32b930b632b93199181d1605d1b6020808301919091526001600160a01b03808a16600090815260138352848120918816815291529190912054614aad9190614fac565b614ae160405180604001604052806012815260200171031b7b63630ba32b930b620b6b7bab73a1d160751b81525086614fac565b604080518082018252600781526603a37ba30b61d160cd1b6020808301919091526001600160a01b0389166000908152601182528381208180529091529190912054614b2d9190614fac565b6001600160a01b03808716600090815260136020908152604080832093871683529290529081208054879290614b64908490615a7c565b90915550506001600160a01b038616600090815260116020908152604080832083805290915281208054879290614b9c908490615a7c565b90915550614bb690506001600160a01b03871683876151c4565b614cb6565b6001600160a01b038681166000908152601460209081526040808320888452909152902054811690841614614c255760405162461bcd60e51b815260206004820152601060248201526f1b9bdd081bdddb995c881bd9881b999d60821b6044820152606401610f60565b6001600160a01b0386811660008181526014602090815260408083208984529091529081902080546001600160a01b031916905551632142170760e11b8152306004820152918416602483015260448201869052906342842e0e90606401600060405180830381600087803b158015614c9d57600080fd5b505af1158015614cb1573d6000803e3d6000fd5b505050505b604080516001600160a01b03888116825260208201879052918101879052908416907f37c4d2e6036e28a1f1ed3eed26620e1e370df577673d4eb2decef5d3ea44a94990606001613ccd565b6000818152601760209081526040918290208054600182015460029092015493519384526001600160a01b0390811693911691839185917f7787e67b4b8529b1aa2c1a59dbf0f0e766d63860956b86f33f5d870088235501910160405180910390a46001600160a01b031660009081526016602090815260408083208390559282526017905290812080546001600160a01b031990811682556001820180549091169055600281018290556003810182905560048101829055600581018290556006810191909155600701805460ff19169055565b80518251600091614de791615e2f565b6001600160801b03169392505050565b60006040516323b872dd60e01b81528460048201528360248201528260448201526020600060648360008a5af13d15601f3d11600160005114161716915050806142d15760405162461bcd60e51b81526020600482015260146024820152731514905394d1915497d19493d357d1905253115160621b6044820152606401610f60565b8060026000828254614e8c9190615bf2565b90915550506001600160a01b038216600081815260036020908152604080832080548601905551848152600080516020615ee883398151915291015b60405180910390a35050565b6007546001600160a01b03163314614f1a5760405162461bcd60e51b8152602060048201526009602482015268139bdd0815985d5b1d60ba1b6044820152606401610f60565b604080518082019091526010546001600160801b038082168352600160801b909104166020820152614f4b83613cdd565b81518290614f5a908390615dc1565b6001600160801b0316905250614f6f82613cdd565b81602001818151614f809190615dc1565b6001600160801b0390811690915282516020909301518116600160801b02921691909117601055505050565b6107d58282604051602401614fc2929190615ec5565b60408051601f198184030181529190526020810180516001600160e01b03166309710a9d60e41b17905261542a565b6007546001600160a01b031633146150375760405162461bcd60e51b8152602060048201526009602482015268139bdd0815985d5b1d60ba1b6044820152606401610f60565b6040805180820182526010546001600160801b038082168352600160801b9182900481166020808501919091528451808601909552600f54808316865292909204169083015260009161508a9190614dd7565b9050828110156150cf5760405162461bcd60e51b815260206004820152601060248201526f1b9bdd08195b9bdd59da08185cdcd95d60821b6044820152606401610f60565b604080518082019091526010546001600160801b038082168352600160801b90910416602082015261510084613cdd565b8151829061510f908390615e2f565b6001600160801b031690525061512483613cdd565b816020018181516151359190615e2f565b6001600160801b0390811690915282516020909301518116600160801b0292169190911760105550505050565b6001600160a01b0382166000908152600360205260408120805483929061518a908490615a7c565b90915550506002805482900390556040518181526000906001600160a01b03841690600080516020615ee883398151915290602001614ec8565b600060405163a9059cbb60e01b8152836004820152826024820152602060006044836000895af13d15601f3d116001600051141617169150508061523c5760405162461bcd60e51b815260206004820152600f60248201526e1514905394d1915497d19052531151608a1b6044820152606401610f60565b50505050565b60008080600019848609848602925082811083820303915050670de0b6b3a7640000811061528d5760405163090638d560e41b81526004810186905260248101859052604401610f60565b6000670de0b6b3a76400008587099050816000036152b9575050670de0b6b3a764000090049050610ebb565b620400008184030492109003600160ee1b02177faccb18165bd6fe31ae1cf318dc5b51eee0e1ba569b88cd74c1773b91fac1066902905092915050565b61533b8160405160240161530c91815260200190565b60408051601f198184030181529190526020810180516001600160e01b0316634e0c1d1d60e01b17905261542a565b50565b60008282600160ff1b8214806153575750600160ff1b81145b156153755760405163b3c754a360e01b815260040160405180910390fd5b60008060008412615386578361538b565b836000035b91506000831261539b57826153a0565b826000035b905060006153b783670de0b6b3a76400008461544b565b90506001600160ff1b0381111561401b5760405163fdd8c1d760e01b81526004810189905260248101889052604401610f60565b61533b816040516024016153ff9190615565565b60408051601f198184030181529190526020810180516001600160e01b031663104c13eb60e21b1790525b80516a636f6e736f6c652e6c6f67602083016000808483855afa5050505050565b60008080600019858709858702925082811083820303915050806000036154855783828161547b5761547b615bc8565b04925050506115ac565b8381106154b6576040516307639aaf60e41b8152600481018790526024810186905260448101859052606401610f60565b60008486880960026001871981018816978890046003810283188082028403028082028403028082028403028082028403028082028403029081029092039091026000889003889004909101858311909403939093029303949094049190911702949350505050565b6000815180845260005b8181101561554557602081850181015186830182015201615529565b506000602082860101526020601f19601f83011685010191505092915050565b6020815260006115ac602083018461551f565b60006020828403121561558a57600080fd5b5035919050565b6001600160a01b038116811461533b57600080fd5b600080604083850312156155b957600080fd5b82356155c481615591565b946020939093013593505050565b6000806000806000608086880312156155ea57600080fd5b85356155f581615591565b9450602086013561560581615591565b93506040860135925060608601356001600160401b038082111561562857600080fd5b818801915088601f83011261563c57600080fd5b81358181111561564b57600080fd5b89602082850101111561565d57600080fd5b9699959850939650602001949392505050565b600080600080600060a0868803121561568857600080fd5b85359450602086013561569a81615591565b9350604086013592506060860135915060808601356156b881615591565b809150509295509295909350565b6000602082840312156156d857600080fd5b81356115ac81615591565b600080604083850312156156f657600080fd5b82359150602083013561570881615591565b809150509250929050565b6000806040838503121561572657600080fd5b50508035926020909101359150565b60008060006060848603121561574a57600080fd5b833561575581615591565b9250602084013561576581615591565b929592945050506040919091013590565b801515811461533b57600080fd5b6000806040838503121561579757600080fd5b82359150602083013561570881615776565b600080600080608085870312156157bf57600080fd5b84356157ca81615591565b9350602085013592506040850135915060608501356157e881615591565b939692955090935050565b600080600080600060a0868803121561580b57600080fd5b853561581681615591565b945060208601359350604086013592506060860135915060808601356156b881615776565b6000806040838503121561584e57600080fd5b823561585981615591565b9150602083013561570881615591565b602080825282518282018190526000919060409081850190868401855b828110156158bc576158ac84835180516001600160a01b03168252602090810151910152565b9284019290850190600101615886565b5091979650505050505050565b6000806000606084860312156158de57600080fd5b83356158e981615591565b925060208401359150604084013561590081615591565b809150509250925092565b60008060006060848603121561592057600080fd5b83359250602084013561593281615591565b9150604084013561590081615591565b60ff8116811461533b57600080fd5b600080600080600080600060e0888a03121561596c57600080fd5b873561597781615591565b9650602088013561598781615591565b9550604088013594506060880135935060808801356159a581615942565b9699959850939692959460a0840135945060c09093013592915050565b600181811c908216806159d657607f821691505b6020821081036135d057634e487b7160e01b600052602260045260246000fd5b6020808252600a90820152695245454e5452414e435960b01b604082015260600190565b602080825260159082015274189bdc9c9bddd95c881a5cc81a5b9cdbdb1d995b9d605a1b604082015260600190565b600060208284031215615a5b57600080fd5b81516115ac81615942565b634e487b7160e01b600052601160045260246000fd5b81810381811115610ebb57610ebb615a66565b600181815b80851115615aca578160001904821115615ab057615ab0615a66565b80851615615abd57918102915b93841c9390800290615a94565b509250929050565b600082615ae157506001610ebb565b81615aee57506000610ebb565b8160018114615b045760028114615b0e57615b2a565b6001915050610ebb565b60ff841115615b1f57615b1f615a66565b50506001821b610ebb565b5060208310610133831016604e8410600b8410161715615b4d575081810a610ebb565b615b578383615a8f565b8060001904821115615b6b57615b6b615a66565b029392505050565b60006115ac8383615ad2565b8082028115828204841417610ebb57610ebb615a66565b6000600160ff1b8201615bab57615bab615a66565b5060000390565b634e487b7160e01b600052603260045260246000fd5b634e487b7160e01b600052601260045260246000fd5b600082615bed57615bed615bc8565b500490565b80820180821115610ebb57610ebb615a66565b600060018201615c1757615c17615a66565b5060010190565b8181036000831280158383131683831282161715615c3e57615c3e615a66565b5092915050565b600060208284031215615c5757600080fd5b5051919050565b60208082526017908201527f636f6c6c61746572616c206e6f7420617070726f766564000000000000000000604082015260600190565b60208082526014908201527318d85b1b195c881b5d5cdd081899481d985d5b1d60621b604082015260600190565b600060208284031215615cd557600080fd5b81516115ac81615591565b600060208284031215615cf257600080fd5b81516115ac81615776565b604081526000615d10604083018561551f565b60208382038185015260008554615d26816159c2565b80855260018281168015615d415760018114615d5b57615d89565b60ff1984168787015282151560051b870186019450615d89565b896000528560002060005b84811015615d81578154898201890152908301908701615d66565b880187019550505b50929998505050505050505050565b600060208284031215615daa57600080fd5b81516001600160401b03811681146115ac57600080fd5b6001600160801b03818116838216019080821115615c3e57615c3e615a66565b600082615df057615df0615bc8565b600160ff1b821460001984141615615e0a57615e0a615a66565b500590565b8082018281126000831280158216821582161715613ed657613ed6615a66565b6001600160801b03828116828216039080821115615c3e57615c3e615a66565b6000808354615e5d816159c2565b60018281168015615e755760018114615e8a57615eb9565b60ff1984168752821515830287019450615eb9565b8760005260208060002060005b85811015615eb05781548a820152908401908201615e97565b50505082870194505b50929695505050505050565b604081526000615ed8604083018561551f565b9050826020830152939250505056feddf252ad1be2c89b69c2b068fc378daa952ba7f163c4a11628f55a4df523b3efa2646970667358221220fa1907b9bf4028bd8d4b5316d5f440dc84299ade1f0436cf2658c9fa36cb98a764736f6c63430008110033",
    "linkReferences": {}
  },
  "methodIdentifiers": {
    "DOMAIN_SEPARATOR()": "3644e515",
    "Utilizer()": "350896fe",
    "_canBorrow(address)": "1f17b2c4",
    "_isLiquidatable(address)": "38094ae7",
    "addAcceptedCollateral(address,uint256,uint256,uint256,bool)": "4be085d9",
    "addCollateral(address,uint256,uint256,address)": "670c6222",
    "addInterest()": "0d09365c",
    "allowance(address,address)": "dd62ed3e",
    "approve(address,uint256)": "095ea7b3",
    "approvedCollateral(address,uint256)": "10b181b4",
    "asset()": "38d52e0f",
    "auctions(uint256)": "571a26a0",
    "balanceOf(address)": "70a08231",
    "balanceOfUnderlying(address)": "3af9e669",
    "borrow(uint256,address,uint256,uint256,address)": "1c5ef1ab",
    "borrowLiquidityAvailable(uint256)": "6578dcfe",
    "closeAuction(address)": "4b34e566",
    "collateralData(address,uint256)": "9189ed1c",
    "convertToAssets(uint256)": "07a2d13a",
    "convertToShares(uint256)": "c6e6f592",
    "currentRateInfo()": "95d14ca8",
    "decimals()": "313ce567",
    "deposit(uint256,address)": "6e553f65",
    "estimatedTotalAssets()": "efbb5cb0",
    "getAcceptedCollaterals()": "8354cc59",
    "getMaturityBalance()": "1104aafd",
    "getMaxBorrow(address)": "fd1c317a",
    "getUserSnapshot(address)": "b68d0a09",
    "initialize()": "8129fc1c",
    "instrumentApprovalCondition()": "83e754a0",
    "isLiquid(uint256)": "537d9409",
    "isLocked()": "a4e2d634",
    "liquidate(address)": "2f865568",
    "liquidateAllPositions()": "50bb4beb",
    "liquidatePosition(uint256)": "cdddd4e5",
    "maxDeposit(address)": "402d267d",
    "maxMint(address)": "c63d75b6",
    "maxRedeem(address)": "d905777e",
    "maxWithdraw(address)": "ce96cb77",
    "mint(uint256,address)": "94bf804d",
    "name()": "06fdde03",
    "nonces(address)": "7ecebe00",
    "numAuctions()": "5c113acc",
    "onERC721Received(address,address,uint256,bytes)": "150b7a02",
    "onMarketApproval(uint256,uint256)": "416288dd",
    "paused()": "5c975abb",
    "permit(address,address,uint256,uint256,uint8,bytes32,bytes32)": "d505accf",
    "prepareWithdraw()": "49dcf4ed",
    "previewDeposit(uint256)": "ef8b30f7",
    "previewMint(uint256)": "b3d7f6b9",
    "previewRedeem(uint256)": "4cdad506",
    "previewWithdraw(uint256)": "0a28a477",
    "pullRawFunds(uint256)": "d832f791",
    "purchaseERC20Collateral(uint256,uint256)": "832ba99e",
    "purchaseERC721Collateral(uint256)": "c69fe53e",
    "purchasePriceERC20(uint256,uint256)": "2134b55f",
    "purchasePriceERC721(uint256)": "1c9e9621",
    "rateContract()": "eee24219",
    "rateInitCallData()": "c7be9786",
    "readyForWithdrawal()": "bdf0f253",
    "redeem(uint256,address,address)": "ba087652",
    "redeemUnderlying(uint256)": "852a12e3",
    "removeAvailableCollateral(address,uint256,address)": "dd38677a",
    "removeCollateral(address,uint256,uint256,address)": "46c11417",
    "removeableCollateral(address,uint256,address)": "95ee69ac",
    "repay(uint256,address)": "acb70815",
    "repayWithAmount(uint256,address)": "1fd09567",
    "setUtilizer(address)": "57b25996",
    "store_internal_balance()": "f3aa68d3",
    "symbol()": "95d89b41",
    "toAssetAmount(uint256,bool)": "404ffa7a",
    "toAssetShares(uint256,bool)": "56968f97",
    "toBorrowAmount(uint256,bool)": "94e301e0",
    "toBorrowShares(uint256,bool)": "c270a544",
    "totalAsset()": "f9557ccb",
    "totalAssetAvailable()": "7426e7a4",
    "totalAssets()": "01e1d114",
    "totalBorrow()": "8285ef40",
    "totalSupply()": "18160ddd",
    "transfer(address,uint256)": "a9059cbb",
    "transferFrom(address,address,uint256)": "23b872dd",
    "underlying()": "6f307dc3",
    "userAuctionId(address)": "d7da6302",
    "userBorrowShares(address)": "4fd422df",
    "userCollateralERC20(address,address)": "601b4aed",
    "userCollateralNFTs(address,uint256)": "838e9ae3",
    "validators(uint256)": "35aa2e44",
    "vault()": "fbfa77cf",
    "withdraw(uint256,address,address)": "b460af94"
  },
  "id": 12
}