{
  "abi": [
    {
      "inputs": [
        {
          "internalType": "address",
          "name": "_vault",
          "type": "address"
        },
        {
          "internalType": "address",
          "name": "_utilizer",
          "type": "address"
        },
        {
          "internalType": "address",
          "name": "_asset",
          "type": "address"
        },
        {
          "internalType": "string",
          "name": "_name",
          "type": "string"
        },
        {
          "internalType": "string",
          "name": "_symbol",
          "type": "string"
        },
        {
          "internalType": "address",
          "name": "_rateCalculator",
          "type": "address"
        },
        {
          "internalType": "bytes",
          "name": "_rateInitCallData",
          "type": "bytes"
        }
      ],
      "stateMutability": "nonpayable",
      "type": "constructor"
    },
    {
      "inputs": [],
      "name": "PRBMathSD59x18__DivInputTooSmall",
      "type": "error"
    },
    {
      "inputs": [
        {
          "internalType": "SD59x18",
          "name": "x",
          "type": "int256"
        },
        {
          "internalType": "SD59x18",
          "name": "y",
          "type": "int256"
        }
      ],
      "name": "PRBMathSD59x18__DivOverflow",
      "type": "error"
    },
    {
      "inputs": [],
      "name": "PRBMathSD59x18__MulInputTooSmall",
      "type": "error"
    },
    {
      "inputs": [
        {
          "internalType": "SD59x18",
          "name": "x",
          "type": "int256"
        },
        {
          "internalType": "SD59x18",
          "name": "y",
          "type": "int256"
        }
      ],
      "name": "PRBMathSD59x18__MulOverflow",
      "type": "error"
    },
    {
      "inputs": [
        {
          "internalType": "int256",
          "name": "x",
          "type": "int256"
        }
      ],
      "name": "PRBMathSD59x18__ToSD59x18Overflow",
      "type": "error"
    },
    {
      "inputs": [
        {
          "internalType": "int256",
          "name": "x",
          "type": "int256"
        }
      ],
      "name": "PRBMathSD59x18__ToSD59x18Underflow",
      "type": "error"
    },
    {
      "inputs": [
        {
          "internalType": "uint256",
          "name": "x",
          "type": "uint256"
        },
        {
          "internalType": "uint256",
          "name": "y",
          "type": "uint256"
        }
      ],
      "name": "PRBMath__MulDiv18Overflow",
      "type": "error"
    },
    {
      "inputs": [
        {
          "internalType": "uint256",
          "name": "x",
          "type": "uint256"
        },
        {
          "internalType": "uint256",
          "name": "y",
          "type": "uint256"
        },
        {
          "internalType": "uint256",
          "name": "denominator",
          "type": "uint256"
        }
      ],
      "name": "PRBMath__MulDivOverflow",
      "type": "error"
    },
    {
      "anonymous": false,
      "inputs": [
        {
          "indexed": true,
          "internalType": "address",
          "name": "borrower",
          "type": "address"
        },
        {
          "indexed": false,
          "internalType": "address",
          "name": "collateral",
          "type": "address"
        },
        {
          "indexed": false,
          "internalType": "uint256",
          "name": "tokenId",
          "type": "uint256"
        },
        {
          "indexed": false,
          "internalType": "uint256",
          "name": "amount",
          "type": "uint256"
        }
      ],
      "name": "AddCollateral",
      "type": "event"
    },
    {
      "anonymous": false,
      "inputs": [
        {
          "indexed": true,
          "internalType": "address",
          "name": "owner",
          "type": "address"
        },
        {
          "indexed": true,
          "internalType": "address",
          "name": "spender",
          "type": "address"
        },
        {
          "indexed": false,
          "internalType": "uint256",
          "name": "amount",
          "type": "uint256"
        }
      ],
      "name": "Approval",
      "type": "event"
    },
    {
      "anonymous": false,
      "inputs": [
        {
          "indexed": true,
          "internalType": "uint256",
          "name": "id",
          "type": "uint256"
        },
        {
          "indexed": true,
          "internalType": "address",
          "name": "borrower",
          "type": "address"
        },
        {
          "indexed": true,
          "internalType": "address",
          "name": "collateral",
          "type": "address"
        },
        {
          "indexed": false,
          "internalType": "uint256",
          "name": "tokenId",
          "type": "uint256"
        }
      ],
      "name": "AuctionClosed",
      "type": "event"
    },
    {
      "anonymous": false,
      "inputs": [
        {
          "indexed": true,
          "internalType": "uint256",
          "name": "id",
          "type": "uint256"
        },
        {
          "indexed": true,
          "internalType": "address",
          "name": "borrower",
          "type": "address"
        },
        {
          "indexed": true,
          "internalType": "address",
          "name": "collateral",
          "type": "address"
        },
        {
          "indexed": false,
          "internalType": "uint256",
          "name": "tokenId",
          "type": "uint256"
        }
      ],
      "name": "AuctionCreated",
      "type": "event"
    },
    {
      "anonymous": false,
      "inputs": [
        {
          "indexed": true,
          "internalType": "address",
          "name": "_borrower",
          "type": "address"
        },
        {
          "indexed": false,
          "internalType": "uint256",
          "name": "_amount",
          "type": "uint256"
        },
        {
          "indexed": false,
          "internalType": "uint256",
          "name": "_shares",
          "type": "uint256"
        }
      ],
      "name": "Borrow",
      "type": "event"
    },
    {
      "anonymous": false,
      "inputs": [
        {
          "indexed": true,
          "internalType": "uint256",
          "name": "id",
          "type": "uint256"
        },
        {
          "indexed": true,
          "internalType": "address",
          "name": "buyer",
          "type": "address"
        },
        {
          "indexed": true,
          "internalType": "address",
          "name": "collateral",
          "type": "address"
        },
        {
          "indexed": false,
          "internalType": "uint256",
          "name": "tokenId",
          "type": "uint256"
        },
        {
          "indexed": false,
          "internalType": "uint256",
          "name": "amount",
          "type": "uint256"
        }
      ],
      "name": "CollateralPurchased",
      "type": "event"
    },
    {
      "anonymous": false,
      "inputs": [
        {
          "indexed": true,
          "internalType": "address",
          "name": "caller",
          "type": "address"
        },
        {
          "indexed": true,
          "internalType": "address",
          "name": "owner",
          "type": "address"
        },
        {
          "indexed": false,
          "internalType": "uint256",
          "name": "assets",
          "type": "uint256"
        },
        {
          "indexed": false,
          "internalType": "uint256",
          "name": "shares",
          "type": "uint256"
        }
      ],
      "name": "Deposit",
      "type": "event"
    },
    {
      "anonymous": false,
      "inputs": [
        {
          "indexed": true,
          "internalType": "uint256",
          "name": "timestamp",
          "type": "uint256"
        },
        {
          "indexed": false,
          "internalType": "uint256",
          "name": "interestEarned",
          "type": "uint256"
        },
        {
          "indexed": false,
          "internalType": "uint256",
          "name": "feesAmount",
          "type": "uint256"
        },
        {
          "indexed": false,
          "internalType": "uint256",
          "name": "feesShare",
          "type": "uint256"
        },
        {
          "indexed": false,
          "internalType": "uint64",
          "name": "newRate",
          "type": "uint64"
        }
      ],
      "name": "InterestAdded",
      "type": "event"
    },
    {
      "anonymous": false,
      "inputs": [
        {
          "indexed": false,
          "internalType": "address",
          "name": "account",
          "type": "address"
        }
      ],
      "name": "Paused",
      "type": "event"
    },
    {
      "anonymous": false,
      "inputs": [
        {
          "indexed": true,
          "internalType": "address",
          "name": "borrower",
          "type": "address"
        },
        {
          "indexed": false,
          "internalType": "address",
          "name": "collateral",
          "type": "address"
        },
        {
          "indexed": false,
          "internalType": "uint256",
          "name": "tokenId",
          "type": "uint256"
        },
        {
          "indexed": false,
          "internalType": "uint256",
          "name": "amount",
          "type": "uint256"
        }
      ],
      "name": "RemoveCollateral",
      "type": "event"
    },
    {
      "anonymous": false,
      "inputs": [
        {
          "indexed": true,
          "internalType": "address",
          "name": "borrower",
          "type": "address"
        },
        {
          "indexed": false,
          "internalType": "uint256",
          "name": "amount",
          "type": "uint256"
        },
        {
          "indexed": false,
          "internalType": "uint256",
          "name": "shares",
          "type": "uint256"
        }
      ],
      "name": "Repay",
      "type": "event"
    },
    {
      "anonymous": false,
      "inputs": [
        {
          "indexed": true,
          "internalType": "address",
          "name": "from",
          "type": "address"
        },
        {
          "indexed": true,
          "internalType": "address",
          "name": "to",
          "type": "address"
        },
        {
          "indexed": false,
          "internalType": "uint256",
          "name": "amount",
          "type": "uint256"
        }
      ],
      "name": "Transfer",
      "type": "event"
    },
    {
      "anonymous": false,
      "inputs": [
        {
          "indexed": false,
          "internalType": "address",
          "name": "account",
          "type": "address"
        }
      ],
      "name": "Unpaused",
      "type": "event"
    },
    {
      "anonymous": false,
      "inputs": [
        {
          "indexed": true,
          "internalType": "address",
          "name": "caller",
          "type": "address"
        },
        {
          "indexed": true,
          "internalType": "address",
          "name": "receiver",
          "type": "address"
        },
        {
          "indexed": true,
          "internalType": "address",
          "name": "owner",
          "type": "address"
        },
        {
          "indexed": false,
          "internalType": "uint256",
          "name": "assets",
          "type": "uint256"
        },
        {
          "indexed": false,
          "internalType": "uint256",
          "name": "shares",
          "type": "uint256"
        }
      ],
      "name": "Withdraw",
      "type": "event"
    },
    {
      "inputs": [],
      "name": "DOMAIN_SEPARATOR",
      "outputs": [
        {
          "internalType": "bytes32",
          "name": "",
          "type": "bytes32"
        }
      ],
      "stateMutability": "view",
      "type": "function"
    },
    {
      "inputs": [],
      "name": "Utilizer",
      "outputs": [
        {
          "internalType": "address",
          "name": "",
          "type": "address"
        }
      ],
      "stateMutability": "view",
      "type": "function"
    },
    {
      "inputs": [
        {
          "internalType": "address",
          "name": "_borrower",
          "type": "address"
        }
      ],
      "name": "_canBorrow",
      "outputs": [
        {
          "internalType": "bool",
          "name": "",
          "type": "bool"
        }
      ],
      "stateMutability": "view",
      "type": "function"
    },
    {
      "inputs": [
        {
          "internalType": "address",
          "name": "_borrower",
          "type": "address"
        }
      ],
      "name": "_isLiquidatable",
      "outputs": [
        {
          "internalType": "bool",
          "name": "",
          "type": "bool"
        },
        {
          "internalType": "int256",
          "name": "accountLiq",
          "type": "int256"
        }
      ],
      "stateMutability": "view",
      "type": "function"
    },
    {
      "inputs": [
        {
          "internalType": "address",
          "name": "_tokenAddress",
          "type": "address"
        },
        {
          "internalType": "uint256",
          "name": "_tokenId",
          "type": "uint256"
        },
        {
          "internalType": "uint256",
          "name": "_maxAmount",
          "type": "uint256"
        },
        {
          "internalType": "uint256",
          "name": "_maxBorrowAmount",
          "type": "uint256"
        }
      ],
      "name": "addAcceptedCollateral",
      "outputs": [],
      "stateMutability": "nonpayable",
      "type": "function"
    },
    {
      "inputs": [
        {
          "internalType": "address",
          "name": "_collateral",
          "type": "address"
        },
        {
          "internalType": "uint256",
          "name": "_tokenId",
          "type": "uint256"
        },
        {
          "internalType": "uint256",
          "name": "_collateralAmount",
          "type": "uint256"
        },
        {
          "internalType": "address",
          "name": "_borrower",
          "type": "address"
        }
      ],
      "name": "addCollateral",
      "outputs": [],
      "stateMutability": "nonpayable",
      "type": "function"
    },
    {
      "inputs": [],
      "name": "addInterest",
      "outputs": [
        {
          "internalType": "uint256",
          "name": "_interestEarned",
          "type": "uint256"
        },
        {
          "internalType": "uint256",
          "name": "_feesAmount",
          "type": "uint256"
        },
        {
          "internalType": "uint256",
          "name": "_feesShare",
          "type": "uint256"
        },
        {
          "internalType": "uint64",
          "name": "_newRate",
          "type": "uint64"
        }
      ],
      "stateMutability": "nonpayable",
      "type": "function"
    },
    {
      "inputs": [
        {
          "internalType": "address",
          "name": "",
          "type": "address"
        },
        {
          "internalType": "address",
          "name": "",
          "type": "address"
        }
      ],
      "name": "allowance",
      "outputs": [
        {
          "internalType": "uint256",
          "name": "",
          "type": "uint256"
        }
      ],
      "stateMutability": "view",
      "type": "function"
    },
    {
      "inputs": [
        {
          "internalType": "address",
          "name": "spender",
          "type": "address"
        },
        {
          "internalType": "uint256",
          "name": "amount",
          "type": "uint256"
        }
      ],
      "name": "approve",
      "outputs": [
        {
          "internalType": "bool",
          "name": "",
          "type": "bool"
        }
      ],
      "stateMutability": "nonpayable",
      "type": "function"
    },
    {
      "inputs": [
        {
          "internalType": "address",
          "name": "",
          "type": "address"
        },
        {
          "internalType": "uint256",
          "name": "",
          "type": "uint256"
        }
      ],
      "name": "approvedCollateral",
      "outputs": [
        {
          "internalType": "bool",
          "name": "",
          "type": "bool"
        }
      ],
      "stateMutability": "view",
      "type": "function"
    },
    {
      "inputs": [],
      "name": "asset",
      "outputs": [
        {
          "internalType": "contract ERC20",
          "name": "",
          "type": "address"
        }
      ],
      "stateMutability": "view",
      "type": "function"
    },
    {
      "inputs": [
        {
          "internalType": "uint256",
          "name": "",
          "type": "uint256"
        }
      ],
      "name": "auctions",
      "outputs": [
        {
          "internalType": "address",
          "name": "borrower",
          "type": "address"
        },
        {
          "internalType": "address",
          "name": "collateral",
          "type": "address"
        },
        {
          "internalType": "uint256",
          "name": "tokenId",
          "type": "uint256"
        },
        {
          "internalType": "SD59x18",
          "name": "initialPrice",
          "type": "int256"
        },
        {
          "internalType": "SD59x18",
          "name": "minimumPrice",
          "type": "int256"
        },
        {
          "internalType": "SD59x18",
          "name": "decayConstant",
          "type": "int256"
        },
        {
          "internalType": "SD59x18",
          "name": "startTime",
          "type": "int256"
        },
        {
          "internalType": "bool",
          "name": "alive",
          "type": "bool"
        }
      ],
      "stateMutability": "view",
      "type": "function"
    },
    {
      "inputs": [
        {
          "internalType": "address",
          "name": "",
          "type": "address"
        }
      ],
      "name": "balanceOf",
      "outputs": [
        {
          "internalType": "uint256",
          "name": "",
          "type": "uint256"
        }
      ],
      "stateMutability": "view",
      "type": "function"
    },
    {
      "inputs": [
        {
          "internalType": "address",
          "name": "user",
          "type": "address"
        }
      ],
      "name": "balanceOfUnderlying",
      "outputs": [
        {
          "internalType": "uint256",
          "name": "",
          "type": "uint256"
        }
      ],
      "stateMutability": "view",
      "type": "function"
    },
    {
      "inputs": [
        {
          "internalType": "uint256",
          "name": "_borrowAmount",
          "type": "uint256"
        },
        {
          "internalType": "address",
          "name": "_collateral",
          "type": "address"
        },
        {
          "internalType": "uint256",
          "name": "_tokenId",
          "type": "uint256"
        },
        {
          "internalType": "uint256",
          "name": "_collateralAmount",
          "type": "uint256"
        },
        {
          "internalType": "address",
          "name": "_reciever",
          "type": "address"
        }
      ],
      "name": "borrow",
      "outputs": [
        {
          "internalType": "uint256",
          "name": "_shares",
          "type": "uint256"
        }
      ],
      "stateMutability": "nonpayable",
      "type": "function"
    },
    {
      "inputs": [
        {
          "internalType": "address",
          "name": "_borrower",
          "type": "address"
        }
      ],
      "name": "closeAuction",
      "outputs": [],
      "stateMutability": "nonpayable",
      "type": "function"
    },
    {
      "inputs": [
        {
          "internalType": "address",
          "name": "",
          "type": "address"
        },
        {
          "internalType": "uint256",
          "name": "",
          "type": "uint256"
        }
      ],
      "name": "collateralData",
      "outputs": [
        {
          "internalType": "uint256",
          "name": "totalCollateral",
          "type": "uint256"
        },
        {
          "internalType": "uint256",
          "name": "maxAmount",
          "type": "uint256"
        },
        {
          "internalType": "uint256",
          "name": "maxBorrowAmount",
          "type": "uint256"
        },
        {
          "internalType": "bool",
          "name": "isERC20",
          "type": "bool"
        }
      ],
      "stateMutability": "view",
      "type": "function"
    },
    {
      "inputs": [
        {
          "internalType": "uint256",
          "name": "shares",
          "type": "uint256"
        }
      ],
      "name": "convertToAssets",
      "outputs": [
        {
          "internalType": "uint256",
          "name": "",
          "type": "uint256"
        }
      ],
      "stateMutability": "view",
      "type": "function"
    },
    {
      "inputs": [
        {
          "internalType": "uint256",
          "name": "assets",
          "type": "uint256"
        }
      ],
      "name": "convertToShares",
      "outputs": [
        {
          "internalType": "uint256",
          "name": "",
          "type": "uint256"
        }
      ],
      "stateMutability": "view",
      "type": "function"
    },
    {
      "inputs": [],
      "name": "currentRateInfo",
      "outputs": [
        {
          "internalType": "uint64",
          "name": "lastBlock",
          "type": "uint64"
        },
        {
          "internalType": "uint64",
          "name": "lastTimestamp",
          "type": "uint64"
        },
        {
          "internalType": "uint64",
          "name": "ratePerSec",
          "type": "uint64"
        }
      ],
      "stateMutability": "view",
      "type": "function"
    },
    {
      "inputs": [],
      "name": "decimals",
      "outputs": [
        {
          "internalType": "uint8",
          "name": "",
          "type": "uint8"
        }
      ],
      "stateMutability": "view",
      "type": "function"
    },
    {
      "inputs": [
        {
          "internalType": "uint256",
          "name": "assets",
          "type": "uint256"
        },
        {
          "internalType": "address",
          "name": "receiver",
          "type": "address"
        }
      ],
      "name": "deposit",
      "outputs": [
        {
          "internalType": "uint256",
          "name": "shares",
          "type": "uint256"
        }
      ],
      "stateMutability": "nonpayable",
      "type": "function"
    },
    {
      "inputs": [],
      "name": "estimatedTotalAssets",
      "outputs": [
        {
          "internalType": "uint256",
          "name": "",
          "type": "uint256"
        }
      ],
      "stateMutability": "view",
      "type": "function"
    },
    {
      "inputs": [],
      "name": "getMaturityBalance",
      "outputs": [
        {
          "internalType": "uint256",
          "name": "",
          "type": "uint256"
        }
      ],
      "stateMutability": "view",
      "type": "function"
    },
    {
      "inputs": [
        {
          "internalType": "address",
          "name": "_address",
          "type": "address"
        }
      ],
      "name": "getUserSnapshot",
      "outputs": [
        {
          "internalType": "uint256",
          "name": "_userAssetShares",
          "type": "uint256"
        },
        {
          "internalType": "uint256",
          "name": "_userBorrowShares",
          "type": "uint256"
        },
        {
          "internalType": "int256",
          "name": "_userAccountLiquidity",
          "type": "int256"
        }
      ],
      "stateMutability": "view",
      "type": "function"
    },
    {
      "inputs": [],
      "name": "initialize",
      "outputs": [],
      "stateMutability": "nonpayable",
      "type": "function"
    },
    {
      "inputs": [],
      "name": "instrumentApprovalCondition",
      "outputs": [
        {
          "internalType": "bool",
          "name": "",
          "type": "bool"
        }
      ],
      "stateMutability": "view",
      "type": "function"
    },
    {
      "inputs": [
        {
          "internalType": "uint256",
          "name": "amount",
          "type": "uint256"
        }
      ],
      "name": "isLiquid",
      "outputs": [
        {
          "internalType": "bool",
          "name": "",
          "type": "bool"
        }
      ],
      "stateMutability": "view",
      "type": "function"
    },
    {
      "inputs": [],
      "name": "isLocked",
      "outputs": [
        {
          "internalType": "bool",
          "name": "",
          "type": "bool"
        }
      ],
      "stateMutability": "view",
      "type": "function"
    },
    {
      "inputs": [
        {
          "internalType": "address",
          "name": "_borrower",
          "type": "address"
        }
      ],
      "name": "liquidate",
      "outputs": [
        {
          "components": [
            {
              "internalType": "address",
              "name": "tokenAddress",
              "type": "address"
            },
            {
              "internalType": "uint256",
              "name": "tokenId",
              "type": "uint256"
            }
          ],
          "internalType": "struct PoolInstrument.CollateralLabel",
          "name": "_collateral",
          "type": "tuple"
        },
        {
          "internalType": "uint256",
          "name": "_auctionId",
          "type": "uint256"
        }
      ],
      "stateMutability": "nonpayable",
      "type": "function"
    },
    {
      "inputs": [],
      "name": "liquidateAllPositions",
      "outputs": [
        {
          "internalType": "uint256",
          "name": "_amountFreed",
          "type": "uint256"
        }
      ],
      "stateMutability": "nonpayable",
      "type": "function"
    },
    {
      "inputs": [
        {
          "internalType": "uint256",
          "name": "_amountNeeded",
          "type": "uint256"
        }
      ],
      "name": "liquidatePosition",
      "outputs": [
        {
          "internalType": "uint256",
          "name": "_liquidatedAmount",
          "type": "uint256"
        },
        {
          "internalType": "uint256",
          "name": "_loss",
          "type": "uint256"
        }
      ],
      "stateMutability": "nonpayable",
      "type": "function"
    },
    {
      "inputs": [
        {
          "internalType": "address",
          "name": "",
          "type": "address"
        }
      ],
      "name": "maxDeposit",
      "outputs": [
        {
          "internalType": "uint256",
          "name": "",
          "type": "uint256"
        }
      ],
      "stateMutability": "view",
      "type": "function"
    },
    {
      "inputs": [
        {
          "internalType": "address",
          "name": "",
          "type": "address"
        }
      ],
      "name": "maxMint",
      "outputs": [
        {
          "internalType": "uint256",
          "name": "",
          "type": "uint256"
        }
      ],
      "stateMutability": "view",
      "type": "function"
    },
    {
      "inputs": [
        {
          "internalType": "address",
          "name": "owner",
          "type": "address"
        }
      ],
      "name": "maxRedeem",
      "outputs": [
        {
          "internalType": "uint256",
          "name": "",
          "type": "uint256"
        }
      ],
      "stateMutability": "view",
      "type": "function"
    },
    {
      "inputs": [
        {
          "internalType": "address",
          "name": "owner",
          "type": "address"
        }
      ],
      "name": "maxWithdraw",
      "outputs": [
        {
          "internalType": "uint256",
          "name": "",
          "type": "uint256"
        }
      ],
      "stateMutability": "view",
      "type": "function"
    },
    {
      "inputs": [
        {
          "internalType": "uint256",
          "name": "shares",
          "type": "uint256"
        },
        {
          "internalType": "address",
          "name": "receiver",
          "type": "address"
        }
      ],
      "name": "mint",
      "outputs": [
        {
          "internalType": "uint256",
          "name": "assets",
          "type": "uint256"
        }
      ],
      "stateMutability": "nonpayable",
      "type": "function"
    },
    {
      "inputs": [],
      "name": "name",
      "outputs": [
        {
          "internalType": "string",
          "name": "",
          "type": "string"
        }
      ],
      "stateMutability": "view",
      "type": "function"
    },
    {
      "inputs": [
        {
          "internalType": "address",
          "name": "",
          "type": "address"
        }
      ],
      "name": "nonces",
      "outputs": [
        {
          "internalType": "uint256",
          "name": "",
          "type": "uint256"
        }
      ],
      "stateMutability": "view",
      "type": "function"
    },
    {
      "inputs": [],
      "name": "numAuctions",
      "outputs": [
        {
          "internalType": "uint256",
          "name": "",
          "type": "uint256"
        }
      ],
      "stateMutability": "view",
      "type": "function"
    },
    {
      "inputs": [
        {
          "internalType": "address",
          "name": "",
          "type": "address"
        },
        {
          "internalType": "address",
          "name": "",
          "type": "address"
        },
        {
          "internalType": "uint256",
          "name": "",
          "type": "uint256"
        },
        {
          "internalType": "bytes",
          "name": "",
          "type": "bytes"
        }
      ],
      "name": "onERC721Received",
      "outputs": [
        {
          "internalType": "bytes4",
          "name": "",
          "type": "bytes4"
        }
      ],
      "stateMutability": "nonpayable",
      "type": "function"
    },
    {
      "inputs": [
        {
          "internalType": "uint256",
          "name": "principal",
          "type": "uint256"
        },
        {
          "internalType": "uint256",
          "name": "yield",
          "type": "uint256"
        }
      ],
      "name": "onMarketApproval",
      "outputs": [],
      "stateMutability": "nonpayable",
      "type": "function"
    },
    {
      "inputs": [],
      "name": "paused",
      "outputs": [
        {
          "internalType": "bool",
          "name": "",
          "type": "bool"
        }
      ],
      "stateMutability": "view",
      "type": "function"
    },
    {
      "inputs": [
        {
          "internalType": "address",
          "name": "owner",
          "type": "address"
        },
        {
          "internalType": "address",
          "name": "spender",
          "type": "address"
        },
        {
          "internalType": "uint256",
          "name": "value",
          "type": "uint256"
        },
        {
          "internalType": "uint256",
          "name": "deadline",
          "type": "uint256"
        },
        {
          "internalType": "uint8",
          "name": "v",
          "type": "uint8"
        },
        {
          "internalType": "bytes32",
          "name": "r",
          "type": "bytes32"
        },
        {
          "internalType": "bytes32",
          "name": "s",
          "type": "bytes32"
        }
      ],
      "name": "permit",
      "outputs": [],
      "stateMutability": "nonpayable",
      "type": "function"
    },
    {
      "inputs": [],
      "name": "prepareWithdraw",
      "outputs": [
        {
          "internalType": "uint256",
          "name": "_profit",
          "type": "uint256"
        },
        {
          "internalType": "uint256",
          "name": "_loss",
          "type": "uint256"
        },
        {
          "internalType": "uint256",
          "name": "_debtPayment",
          "type": "uint256"
        }
      ],
      "stateMutability": "nonpayable",
      "type": "function"
    },
    {
      "inputs": [
        {
          "internalType": "uint256",
          "name": "assets",
          "type": "uint256"
        }
      ],
      "name": "previewDeposit",
      "outputs": [
        {
          "internalType": "uint256",
          "name": "",
          "type": "uint256"
        }
      ],
      "stateMutability": "view",
      "type": "function"
    },
    {
      "inputs": [
        {
          "internalType": "uint256",
          "name": "shares",
          "type": "uint256"
        }
      ],
      "name": "previewMint",
      "outputs": [
        {
          "internalType": "uint256",
          "name": "",
          "type": "uint256"
        }
      ],
      "stateMutability": "view",
      "type": "function"
    },
    {
      "inputs": [
        {
          "internalType": "uint256",
          "name": "shares",
          "type": "uint256"
        }
      ],
      "name": "previewRedeem",
      "outputs": [
        {
          "internalType": "uint256",
          "name": "",
          "type": "uint256"
        }
      ],
      "stateMutability": "view",
      "type": "function"
    },
    {
      "inputs": [
        {
          "internalType": "uint256",
          "name": "assets",
          "type": "uint256"
        }
      ],
      "name": "previewWithdraw",
      "outputs": [
        {
          "internalType": "uint256",
          "name": "",
          "type": "uint256"
        }
      ],
      "stateMutability": "view",
      "type": "function"
    },
    {
      "inputs": [
        {
          "internalType": "uint256",
          "name": "amount",
          "type": "uint256"
        }
      ],
      "name": "pullRawFunds",
      "outputs": [],
      "stateMutability": "nonpayable",
      "type": "function"
    },
    {
      "inputs": [
        {
          "internalType": "uint256",
          "name": "_id",
          "type": "uint256"
        },
        {
          "internalType": "uint256",
          "name": "_amount",
          "type": "uint256"
        }
      ],
      "name": "purchaseERC20Collateral",
      "outputs": [
        {
          "internalType": "uint256",
          "name": "_totalCost",
          "type": "uint256"
        }
      ],
      "stateMutability": "nonpayable",
      "type": "function"
    },
    {
      "inputs": [
        {
          "internalType": "uint256",
          "name": "_id",
          "type": "uint256"
        }
      ],
      "name": "purchaseERC721Collateral",
      "outputs": [
        {
          "internalType": "uint256",
          "name": "_totalCost",
          "type": "uint256"
        }
      ],
      "stateMutability": "nonpayable",
      "type": "function"
    },
    {
      "inputs": [
        {
          "internalType": "uint256",
          "name": "_id",
          "type": "uint256"
        },
        {
          "internalType": "uint256",
          "name": "_numTokens",
          "type": "uint256"
        }
      ],
      "name": "purchasePriceERC20",
      "outputs": [
        {
          "internalType": "uint256",
          "name": "totalCost",
          "type": "uint256"
        }
      ],
      "stateMutability": "view",
      "type": "function"
    },
    {
      "inputs": [
        {
          "internalType": "uint256",
          "name": "_id",
          "type": "uint256"
        }
      ],
      "name": "purchasePriceERC721",
      "outputs": [
        {
          "internalType": "uint256",
          "name": "totalCost",
          "type": "uint256"
        }
      ],
      "stateMutability": "view",
      "type": "function"
    },
    {
      "inputs": [],
      "name": "rateContract",
      "outputs": [
        {
          "internalType": "contract IRateCalculator",
          "name": "",
          "type": "address"
        }
      ],
      "stateMutability": "view",
      "type": "function"
    },
    {
      "inputs": [],
      "name": "rateInitCallData",
      "outputs": [
        {
          "internalType": "bytes",
          "name": "",
          "type": "bytes"
        }
      ],
      "stateMutability": "view",
      "type": "function"
    },
    {
      "inputs": [],
      "name": "readyForWithdrawal",
      "outputs": [
        {
          "internalType": "bool",
          "name": "",
          "type": "bool"
        }
      ],
      "stateMutability": "view",
      "type": "function"
    },
    {
      "inputs": [
        {
          "internalType": "uint256",
          "name": "shares",
          "type": "uint256"
        },
        {
          "internalType": "address",
          "name": "receiver",
          "type": "address"
        },
        {
          "internalType": "address",
          "name": "owner",
          "type": "address"
        }
      ],
      "name": "redeem",
      "outputs": [
        {
          "internalType": "uint256",
          "name": "assets",
          "type": "uint256"
        }
      ],
      "stateMutability": "nonpayable",
      "type": "function"
    },
    {
      "inputs": [
        {
          "internalType": "uint256",
          "name": "amount",
          "type": "uint256"
        }
      ],
      "name": "redeemUnderlying",
      "outputs": [
        {
          "internalType": "bool",
          "name": "",
          "type": "bool"
        }
      ],
      "stateMutability": "nonpayable",
      "type": "function"
    },
    {
      "inputs": [
        {
          "internalType": "address",
          "name": "_collateral",
          "type": "address"
        },
        {
          "internalType": "uint256",
          "name": "_tokenId",
          "type": "uint256"
        },
        {
          "internalType": "uint256",
          "name": "_collateralAmount",
          "type": "uint256"
        },
        {
          "internalType": "address",
          "name": "_receiver",
          "type": "address"
        }
      ],
      "name": "removeCollateral",
      "outputs": [],
      "stateMutability": "nonpayable",
      "type": "function"
    },
    {
      "inputs": [
        {
          "internalType": "uint256",
          "name": "_shares",
          "type": "uint256"
        },
        {
          "internalType": "address",
          "name": "_borrower",
          "type": "address"
        }
      ],
      "name": "repay",
      "outputs": [
        {
          "internalType": "uint256",
          "name": "_amountToRepay",
          "type": "uint256"
        }
      ],
      "stateMutability": "nonpayable",
      "type": "function"
    },
    {
      "inputs": [
        {
          "internalType": "address",
          "name": "_Utilizer",
          "type": "address"
        }
      ],
      "name": "setUtilizer",
      "outputs": [],
      "stateMutability": "nonpayable",
      "type": "function"
    },
    {
      "inputs": [],
      "name": "store_internal_balance",
      "outputs": [],
      "stateMutability": "nonpayable",
      "type": "function"
    },
    {
      "inputs": [],
      "name": "symbol",
      "outputs": [
        {
          "internalType": "string",
          "name": "",
          "type": "string"
        }
      ],
      "stateMutability": "view",
      "type": "function"
    },
    {
      "inputs": [
        {
          "internalType": "uint256",
          "name": "_shares",
          "type": "uint256"
        },
        {
          "internalType": "bool",
          "name": "_roundUp",
          "type": "bool"
        }
      ],
      "name": "toAssetAmount",
      "outputs": [
        {
          "internalType": "uint256",
          "name": "",
          "type": "uint256"
        }
      ],
      "stateMutability": "view",
      "type": "function"
    },
    {
      "inputs": [
        {
          "internalType": "uint256",
          "name": "_amount",
          "type": "uint256"
        },
        {
          "internalType": "bool",
          "name": "_roundUp",
          "type": "bool"
        }
      ],
      "name": "toAssetShares",
      "outputs": [
        {
          "internalType": "uint256",
          "name": "",
          "type": "uint256"
        }
      ],
      "stateMutability": "view",
      "type": "function"
    },
    {
      "inputs": [
        {
          "internalType": "uint256",
          "name": "_shares",
          "type": "uint256"
        },
        {
          "internalType": "bool",
          "name": "_roundUp",
          "type": "bool"
        }
      ],
      "name": "toBorrowAmount",
      "outputs": [
        {
          "internalType": "uint256",
          "name": "",
          "type": "uint256"
        }
      ],
      "stateMutability": "view",
      "type": "function"
    },
    {
      "inputs": [
        {
          "internalType": "uint256",
          "name": "_amount",
          "type": "uint256"
        },
        {
          "internalType": "bool",
          "name": "_roundUp",
          "type": "bool"
        }
      ],
      "name": "toBorrowShares",
      "outputs": [
        {
          "internalType": "uint256",
          "name": "",
          "type": "uint256"
        }
      ],
      "stateMutability": "view",
      "type": "function"
    },
    {
      "inputs": [],
      "name": "totalAsset",
      "outputs": [
        {
          "internalType": "uint128",
          "name": "amount",
          "type": "uint128"
        },
        {
          "internalType": "uint128",
          "name": "shares",
          "type": "uint128"
        }
      ],
      "stateMutability": "view",
      "type": "function"
    },
    {
      "inputs": [],
      "name": "totalAssets",
      "outputs": [
        {
          "internalType": "uint256",
          "name": "",
          "type": "uint256"
        }
      ],
      "stateMutability": "view",
      "type": "function"
    },
    {
      "inputs": [],
      "name": "totalBorrow",
      "outputs": [
        {
          "internalType": "uint128",
          "name": "amount",
          "type": "uint128"
        },
        {
          "internalType": "uint128",
          "name": "shares",
          "type": "uint128"
        }
      ],
      "stateMutability": "view",
      "type": "function"
    },
    {
      "inputs": [],
      "name": "totalSupply",
      "outputs": [
        {
          "internalType": "uint256",
          "name": "",
          "type": "uint256"
        }
      ],
      "stateMutability": "view",
      "type": "function"
    },
    {
      "inputs": [
        {
          "internalType": "address",
          "name": "to",
          "type": "address"
        },
        {
          "internalType": "uint256",
          "name": "amount",
          "type": "uint256"
        }
      ],
      "name": "transfer",
      "outputs": [
        {
          "internalType": "bool",
          "name": "",
          "type": "bool"
        }
      ],
      "stateMutability": "nonpayable",
      "type": "function"
    },
    {
      "inputs": [
        {
          "internalType": "address",
          "name": "from",
          "type": "address"
        },
        {
          "internalType": "address",
          "name": "to",
          "type": "address"
        },
        {
          "internalType": "uint256",
          "name": "amount",
          "type": "uint256"
        }
      ],
      "name": "transferFrom",
      "outputs": [
        {
          "internalType": "bool",
          "name": "",
          "type": "bool"
        }
      ],
      "stateMutability": "nonpayable",
      "type": "function"
    },
    {
      "inputs": [],
      "name": "underlying",
      "outputs": [
        {
          "internalType": "contract ERC20",
          "name": "",
          "type": "address"
        }
      ],
      "stateMutability": "view",
      "type": "function"
    },
    {
      "inputs": [
        {
          "internalType": "address",
          "name": "",
          "type": "address"
        }
      ],
      "name": "userAuctionId",
      "outputs": [
        {
          "internalType": "uint256",
          "name": "",
          "type": "uint256"
        }
      ],
      "stateMutability": "view",
      "type": "function"
    },
    {
      "inputs": [
        {
          "internalType": "address",
          "name": "",
          "type": "address"
        }
      ],
      "name": "userBorrowShares",
      "outputs": [
        {
          "internalType": "uint256",
          "name": "",
          "type": "uint256"
        }
      ],
      "stateMutability": "view",
      "type": "function"
    },
    {
      "inputs": [
        {
          "internalType": "address",
          "name": "",
          "type": "address"
        },
        {
          "internalType": "address",
          "name": "",
          "type": "address"
        }
      ],
      "name": "userCollateralERC20",
      "outputs": [
        {
          "internalType": "uint256",
          "name": "",
          "type": "uint256"
        }
      ],
      "stateMutability": "view",
      "type": "function"
    },
    {
      "inputs": [
        {
          "internalType": "address",
          "name": "",
          "type": "address"
        },
        {
          "internalType": "uint256",
          "name": "",
          "type": "uint256"
        }
      ],
      "name": "userCollateralNFTs",
      "outputs": [
        {
          "internalType": "address",
          "name": "",
          "type": "address"
        }
      ],
      "stateMutability": "view",
      "type": "function"
    },
    {
      "inputs": [
        {
          "internalType": "uint256",
          "name": "",
          "type": "uint256"
        }
      ],
      "name": "validators",
      "outputs": [
        {
          "internalType": "address",
          "name": "",
          "type": "address"
        }
      ],
      "stateMutability": "view",
      "type": "function"
    },
    {
      "inputs": [],
      "name": "vault",
      "outputs": [
        {
          "internalType": "contract Vault",
          "name": "",
          "type": "address"
        }
      ],
      "stateMutability": "view",
      "type": "function"
    },
    {
      "inputs": [
        {
          "internalType": "uint256",
          "name": "assets",
          "type": "uint256"
        },
        {
          "internalType": "address",
          "name": "receiver",
          "type": "address"
        },
        {
          "internalType": "address",
          "name": "owner",
          "type": "address"
        }
      ],
      "name": "withdraw",
      "outputs": [
        {
          "internalType": "uint256",
          "name": "shares",
          "type": "uint256"
        }
      ],
      "stateMutability": "nonpayable",
      "type": "function"
    }
  ],
  "bytecode": {
    "object": "0x6101006040526001600d553480156200001757600080fd5b50604051620061e9380380620061e98339810160408190526200003a9162000442565b86868686868181846001600160a01b031663313ce5676040518163ffffffff1660e01b8152600401602060405180830381865afa15801562000080573d6000803e3d6000fd5b505050506040513d601f19601f82011682018060405250810190620000a6919062000524565b6000620000b48482620005df565b506001620000c38382620005df565b5060ff81166080524660a052620000d9620002ae565b60c052505050506001600160a01b0391821660e05250600780546001600160a01b0319169184169182179055604080516362eb326360e11b8152905163c5d664c6916004808201926020929091908290030181865afa15801562000141573d6000803e3d6000fd5b505050506040513d601f19601f82011682018060405250810190620001679190620006ab565b600680546001600160a01b0319166001600160a01b0392831690811790915560405163095ea7b360e01b8152918416600483015260001960248301529063095ea7b3906044016020604051808303816000875af1158015620001cd573d6000803e3d6000fd5b505050506040513d601f19601f82011682018060405250810190620001f39190620006cb565b50600a80546001600160a01b03199081166001600160a01b0393841617909155600e805460ff191690556019805490911691851691909117905550601a6200023c8282620005df565b5060195460405163453f31d560e01b81526001600160a01b039091169063453f31d5906200026f908490600401620006ef565b60006040518083038186803b1580156200028857600080fd5b505afa1580156200029d573d6000803e3d6000fd5b5050505050505050505050620007a2565b60007f8b73c3c69bb8fe3d512ecc4cf759cc79239f7b179b0ffacaa9a75d522b39400f6000604051620002e2919062000724565b6040805191829003822060208301939093528101919091527fc89efdaa54c0f20c7adf612882df0950f5a951637e0307cdcb4c672f298b8bc660608201524660808201523060a082015260c00160405160208183030381529060405280519060200120905090565b6001600160a01b03811681146200036057600080fd5b50565b805162000370816200034a565b919050565b634e487b7160e01b600052604160045260246000fd5b60005b83811015620003a85781810151838201526020016200038e565b50506000910152565b600082601f830112620003c357600080fd5b81516001600160401b0380821115620003e057620003e062000375565b604051601f8301601f19908116603f011681019082821181831017156200040b576200040b62000375565b816040528381528660208588010111156200042557600080fd5b620004388460208301602089016200038b565b9695505050505050565b600080600080600080600060e0888a0312156200045e57600080fd5b87516200046b816200034a565b60208901519097506200047e816200034a565b95506200048e6040890162000363565b60608901519095506001600160401b0380821115620004ac57600080fd5b620004ba8b838c01620003b1565b955060808a0151915080821115620004d157600080fd5b620004df8b838c01620003b1565b9450620004ef60a08b0162000363565b935060c08a01519150808211156200050657600080fd5b50620005158a828b01620003b1565b91505092959891949750929550565b6000602082840312156200053757600080fd5b815160ff811681146200054957600080fd5b9392505050565b600181811c908216806200056557607f821691505b6020821081036200058657634e487b7160e01b600052602260045260246000fd5b50919050565b601f821115620005da57600081815260208120601f850160051c81016020861015620005b55750805b601f850160051c820191505b81811015620005d657828155600101620005c1565b5050505b505050565b81516001600160401b03811115620005fb57620005fb62000375565b62000613816200060c845462000550565b846200058c565b602080601f8311600181146200064b5760008415620006325750858301515b600019600386901b1c1916600185901b178555620005d6565b600085815260208120601f198616915b828110156200067c578886015182559484019460019091019084016200065b565b50858210156200069b5787850151600019600388901b60f8161c191681555b5050505050600190811b01905550565b600060208284031215620006be57600080fd5b815162000549816200034a565b600060208284031215620006de57600080fd5b815180151581146200054957600080fd5b6020815260008251806020840152620007108160408501602087016200038b565b601f01601f19169190910160400192915050565b6000808354620007348162000550565b600182811680156200074f5760018114620007655762000796565b60ff198416875282151583028701945062000796565b8760005260208060002060005b858110156200078d5781548a82015290840190820162000772565b50505082870194505b50929695505050505050565b60805160a05160c05160e0516159e3620008066000396000818161070a015281816121050152818161263c0152818161290901528181612a8d01528181613aaf0152614b750152600061188f0152600061185a0152600061066101526159e36000f3fe608060405234801561001057600080fd5b50600436106104965760003560e01c80636f307dc311610262578063b68d0a0911610151578063d505accf116100ce578063eee2421911610092578063eee2421914610cba578063ef8b30f714610506578063efbb5cb0146107f7578063f3aa68d314610ccd578063f9557ccb14610cd5578063fbfa77cf14610cf357600080fd5b8063d505accf14610c20578063d7da630214610c33578063d832f79114610c53578063d905777e14610c66578063dd62ed3e14610c8f57600080fd5b8063c69fe53e11610115578063c69fe53e14610bb4578063c6e6f59214610bc7578063c7be978614610bda578063cdddd4e514610be2578063ce96cb7714610c0d57600080fd5b8063b68d0a0914610b7b578063ba08765214610b8e578063bdf0f25314610a1d578063c270a54414610ba1578063c63d75b61461073f57600080fd5b806392698f0f116101df578063a4e2d634116101a3578063a4e2d63414610b30578063a9059cbb14610b42578063acb7081514610b55578063b3d7f6b9146107c4578063b460af9414610b6857600080fd5b806392698f0f14610a9c57806394bf804d14610aaf57806394e301e014610ac257806395d14ca814610ad557806395d89b4114610b2857600080fd5b8063832ba99e11610226578063832ba99e146109d6578063838e9ae3146109e957806383e754a014610a1d578063852a12e314610a245780639189ed1c14610a3757600080fd5b80636f307dc31461094557806370a08231146109585780637ecebe00146109785780638129fc1c146107795780638285ef401461099857600080fd5b806338094ae7116103895780634fd422df1161030657806357b25996116102ca57806357b25996146108cd5780635c113acc146108e05780635c975abb146108e9578063601b4aed146108f4578063670c62221461091f5780636e553f651461093257600080fd5b80634fd422df146107d757806350bb4beb146107f7578063537d9409146107fe57806356968f9714610811578063571a26a01461082457600080fd5b8063416288dd1161034d578063416288dd1461076757806346c114171461077b57806349dcf4ed1461078e5780634b34e566146107b15780634cdad506146107c457600080fd5b806338094ae7146106db57806338d52e0f146107055780633af9e6691461072c578063402d267d1461073f578063404ffa7a1461075457600080fd5b80631c5ef1ab116104175780632f865568116103db5780632f86556814610620578063313ce5671461065c578063350896fe1461069557806335aa2e44146106c05780633644e515146106d357600080fd5b80631c5ef1ab146105c15780631c9e9621146105d45780631f17b2c4146105e75780632134b55f146105fa57806323b872dd1461060d57600080fd5b80630d09365c1161045e5780630d09365c1461051957806310b181b41461054a5780631104aafd14610578578063150b7a021461058057806318160ddd146105b857600080fd5b806301e1d1141461049b57806306fdde03146104bb57806307a2d13a146104d0578063095ea7b3146104e35780630a28a47714610506575b600080fd5b6010546001600160801b03165b6040519081526020015b60405180910390f35b6104c3610d06565b6040516104b2919061510f565b6104a86104de366004615122565b610d94565b6104f66104f1366004615150565b610dd0565b60405190151581526020016104b2565b6104a8610514366004615122565b610e3c565b610521610e47565b604080519485526020850193909352918301526001600160401b031660608201526080016104b2565b6104f6610558366004615150565b601260209081526000928352604080842090915290825290205460ff1681565b6008546104a8565b61059f61058e36600461517c565b630a85bd0160e11b95945050505050565b6040516001600160e01b031990911681526020016104b2565b6104a860025481565b6104a86105cf36600461521a565b610e98565b6104a86105e2366004615122565b610fe5565b6104f66105f5366004615270565b611106565b6104a861060836600461528d565b611447565b6104f661061b3660046152af565b611622565b61063361062e366004615270565b611704565b6040805183516001600160a01b03168152602093840151938101939093528201526060016104b2565b6106837f000000000000000000000000000000000000000000000000000000000000000081565b60405160ff90911681526020016104b2565b600a546106a8906001600160a01b031681565b6040516001600160a01b0390911681526020016104b2565b6106a86106ce366004615122565b61182c565b6104a8611856565b6106ee6106e9366004615270565b6118b1565b6040805192151583526020830191909152016104b2565b6106a87f000000000000000000000000000000000000000000000000000000000000000081565b6104a861073a366004615270565b611b6b565b6104a861074d366004615270565b5060001990565b6104a86107623660046152fe565b611c66565b61077961077536600461528d565b5050565b005b61077961078936600461532e565b611c9c565b610796611daa565b604080519384526020840192909252908201526060016104b2565b6107796107bf366004615270565b611df8565b6104a86107d2366004615122565b611e86565b6104a86107e5366004615270565b60156020526000908152604090205481565b60006104a8565b6104f661080c366004615122565b611e91565b6104a861081f3660046152fe565b611ea5565b610885610832366004615122565b601760205260009081526040902080546001820154600283015460038401546004850154600586015460068701546007909701546001600160a01b03968716979590961695939492939192909160ff1688565b604080516001600160a01b03998a168152989097166020890152958701949094526060860192909252608085015260a084015260c0830152151560e0820152610100016104b2565b6107796108db366004615270565b611edb565b6104a860185481565b600e5460ff166104f6565b6104a8610902366004615378565b601360209081526000928352604080842090915290825290205481565b61077961092d36600461532e565b611fef565b6104a86109403660046153a6565b6120ad565b6006546106a8906001600160a01b031681565b6104a8610966366004615270565b60036020526000908152604090205481565b6104a8610986366004615270565b60056020526000908152604090205481565b600f546109b6906001600160801b0380821691600160801b90041682565b604080516001600160801b039384168152929091166020830152016104b2565b6104a86109e436600461528d565b612189565b6106a86109f7366004615150565b60146020908152600092835260408084209091529082529020546001600160a01b031681565b60016104f6565b6104f6610a32366004615122565b6123ca565b610a7a610a45366004615150565b601160209081526000928352604080842090915290825290208054600182015460028301546003909301549192909160ff1684565b60408051948552602085019390935291830152151560608201526080016104b2565b610779610aaa3660046153cb565b612470565b6104a8610abd3660046153a6565b612622565b6104a8610ad03660046152fe565b6126be565b601b54610afe906001600160401b0380821691600160401b8104821691600160801b9091041683565b604080516001600160401b03948516815292841660208401529216918101919091526060016104b2565b6104c36126f4565b600754600160a01b900460ff166104f6565b6104f6610b50366004615150565b612701565b6104a8610b633660046153a6565b612767565b6104a8610b76366004615406565b612822565b610796610b89366004615270565b612930565b6104a8610b9c366004615406565b612968565b6104a8610baf3660046152fe565b612ab4565b6104a8610bc2366004615122565b612aea565b6104a8610bd5366004615122565b612d7c565b6104c3612db2565b610bf8610bf0366004615122565b600080915091565b604080519283526020830191909152016104b2565b6104a8610c1b366004615270565b612dbf565b610779610c2e366004615457565b612de1565b6104a8610c41366004615270565b60166020526000908152604090205481565b610779610c61366004615122565b613025565b6104a8610c74366004615270565b6001600160a01b031660009081526003602052604090205490565b6104a8610c9d366004615378565b600460209081526000928352604080842090915290825290205481565b6019546106a8906001600160a01b031681565b6107796130bb565b6010546109b6906001600160801b0380821691600160801b90041682565b6007546106a8906001600160a01b031681565b60008054610d13906154c8565b80601f0160208091040260200160405190810160405280929190818152602001828054610d3f906154c8565b8015610d8c5780601f10610d6157610100808354040283529160200191610d8c565b820191906000526020600020905b815481529060010190602001808311610d6f57829003601f168201915b505050505081565b604080518082019091526010546001600160801b038082168352600160801b909104166020820152600090610dca9083836131df565b92915050565b3360008181526004602090815260408083206001600160a01b038716808552925280832085905551919290917f8c5be1e5ebec7d5bd14f71427d1e84f3dd0314c0f7b2291e5b200ac8c7c3b92590610e2b9086815260200190565b60405180910390a350600192915050565b6000610dca82612d7c565b600080600080600d54600114610e785760405162461bcd60e51b8152600401610e6f90615502565b60405180910390fd5b6002600d55610e85613273565b6001600d55929791965094509092509050565b600033600d54600114610ebd5760405162461bcd60e51b8152600401610e6f90615502565b6002600d55610eca6136ea565b610ed2613273565b505050506001600160a01b03861615801590610ef857506000841180610ef85750600085115b15610f75576001600160a01b038616600090815260126020908152604080832088845290915290205460ff16610f685760405162461bcd60e51b81526020600482015260156024820152741d5b985c1c1c9bdd99590818dbdb1b185d195c985b605a1b6044820152606401610e6f565b610f753387863389613730565b610f87610f81886138e6565b846138fc565b6001600d559150610f9781611106565b610fdb5760405162461bcd60e51b8152602060048201526015602482015274189bdc9c9bddd95c881a5cc81a5b9cdbdb1d995b9d605a1b6044820152606401610e6f565b5095945050505050565b600081815260176020908152604080832081516101008101835281546001600160a01b039081168252600183015416938101939093526002810154918301919091526003810154606083015260048101546080830152600581015460a0830152600681015460c08301526007015460ff16151560e082018190526110a25760405162461bcd60e51b815260206004820152601460248201527361756374696f6e206973206e6f7420616c69766560601b6044820152606401610e6f565b60006110c96110be8360c001516110b842613ae7565b90613b6e565b60a084015190613b80565b60808301519091506110db9082613c4d565b8260600151136110ef5781608001516110fe565b60608201516110fe9082613b6e565b949350505050565b60008060005b601c54811015611308576000601c828154811061112b5761112b615526565b60009182526020808320604080518082018252600294850290920180546001600160a01b03168084526001918201548486019081529087526011855282872090518752845294819020815160808101835281548152958101549386019390935292820154928401929092526003015460ff16158015606084018190529193506111da575081516001600160a01b039081166000908152601360209081526040808320938a168352929052205415155b156112ad57600082600001516001600160a01b031663313ce5676040518163ffffffff1660e01b8152600401602060405180830381865afa158015611223573d6000803e3d6000fd5b505050506040513d601f19601f82011682018060405250810190611247919061553c565b60ff16905061125781600a615653565b60408084015185516001600160a01b03908116600090815260136020908152848220928d168252919091529190912054611291919061565f565b61129b919061568c565b6112a590866156a0565b9450506112f3565b81516001600160a01b0390811660009081526014602090815260408083208287015184529091529020548188169116036112f35760408101516112f090856156a0565b93505b50508080611300906156b3565b91505061110c565b5061133e604051806040016040528060138152602001721b585e109bdc9c9bddd8589b19505b5bdd5b9d606a1b81525082613c5c565b604080518082018252600b81526a03ab9b2b9103232b13a1d160ad1b6020808301919091526001600160a01b038616600090815260158252838120548451808601909552600f546001600160801b038082168752600160801b90910416928501929092526113b6936113b19290916131df565b613c5c565b6001600160a01b03831660009081526015602052604081205490036113de5750600192915050565b806000036113ef5750600092915050565b6001600160a01b0383166000908152601560209081526040808320548151808301909252600f546001600160801b038082168452600160801b909104169282019290925261143f929091906131df565b111592915050565b600082815260176020908152604080832081516101008101835281546001600160a01b039081168252600183015416938101939093526002810154918301919091526003810154606083015260048101546080830152600581015460a0830152600681015460c08301526007015460ff16151560e082018190526115045760405162461bcd60e51b815260206004820152601460248201527361756374696f6e206973206e6f7420616c69766560601b6044820152606401610e6f565b600081602001516001600160a01b031663313ce5676040518163ffffffff1660e01b8152600401602060405180830381865afa158015611548573d6000803e3d6000fd5b505050506040513d601f19601f8201168201806040525081019061156c919061553c565b60ff169050600061159b6115818360126156cc565b61158c90600a615653565b611596908761565f565b613ca1565b905060006115cc84606001516115c66115bb8760c001516110b842613ae7565b60a088015190613b80565b90613b80565b905060006115e7828660800151613c4d90919063ffffffff16565b8560600151136115fb57846080015161160a565b606085015161160a9083613b6e565b90506116168184613b80565b98975050505050505050565b6001600160a01b0383166000908152600460209081526040808320338452909152812054600019811461167e5761165983826156cc565b6001600160a01b03861660009081526004602090815260408083203384529091529020555b6001600160a01b038516600090815260036020526040812080548592906116a69084906156cc565b90915550506001600160a01b038085166000818152600360205260409081902080548701905551909187169060008051602061598e833981519152906116ef9087815260200190565b60405180910390a360019150505b9392505050565b60408051808201909152600080825260208201526000600d5460011461173c5760405162461bcd60e51b8152600401610e6f90615502565b6002600d55611749613273565b50505050600080611759856118b1565b91509150816117aa5760405162461bcd60e51b815260206004820152601c60248201527f626f72726f776572206973206e6f74206c6971756964617461626c65000000006044820152606401610e6f565b6001600160a01b038516600090815260166020526040902054156118095760405162461bcd60e51b815260206004820152601660248201527561756374696f6e20616c72656164792065786973747360501b6044820152606401610e6f565b61181b85611816836156df565b613ca9565b6001600d5590969095509350505050565b600b818154811061183c57600080fd5b6000918252602090912001546001600160a01b0316905081565b60007f0000000000000000000000000000000000000000000000000000000000000000461461188c57611887614303565b905090565b507f000000000000000000000000000000000000000000000000000000000000000090565b6000806000805b601c54811015611ab2576000601c82815481106118d7576118d7615526565b60009182526020808320604080518082018252600294850290920180546001600160a01b03168084526001918201548486019081529087526011855282872090518752845294819020815160808101835281548152958101549386019390935292820154928401929092526003015460ff1615801560608401819052919350611986575081516001600160a01b039081166000908152601360209081526040808320938b168352929052205415155b15611a5757600082600001516001600160a01b031663313ce5676040518163ffffffff1660e01b8152600401602060405180830381865afa1580156119cf573d6000803e3d6000fd5b505050506040513d601f19601f820116820180604052508101906119f3919061553c565b60ff169050611a0381600a615653565b60208084015185516001600160a01b039081166000908152601384526040808220928e1682529190935290912054611a3b919061565f565b611a45919061568c565b611a4f90866156a0565b945050611a9d565b81516001600160a01b039081166000908152601460209081526040808320828701518452909152902054818916911603611a9d576020810151611a9a90856156a0565b93505b50508080611aaa906156b3565b9150506118b8565b506001600160a01b0384166000908152601560209081526040808320548151808301909252600f546001600160801b038082168452600160801b9091041692820192909252611b03929091906131df565b6001600160a01b0385166000908152601560209081526040808320548151808301909252600f546001600160801b038082168452600160801b909104169282019290925292841092611b57929091906131df565b611b6190836156fb565b9250925050915091565b6000306001600160a01b03831603611bf8576009546006546040516370a0823160e01b81526001600160a01b038581166004830152909116906370a0823190602401602060405180830381865afa158015611bca573d6000803e3d6000fd5b505050506040513d601f19601f82011682018060405250810190611bee9190615722565b610dca91906156cc565b6006546040516370a0823160e01b81526001600160a01b038481166004830152909116906370a0823190602401602060405180830381865afa158015611c42573d6000803e3d6000fd5b505050506040513d601f19601f82011682018060405250810190610dca9190615722565b604080518082019091526010546001600160801b038082168352600160801b9091041660208201526000906116fd9084846131df565b600d54600114611cbe5760405162461bcd60e51b8152600401610e6f90615502565b6002600d556001600160a01b038416600090815260126020908152604080832086845290915290205433908590859060ff16611d365760405162461bcd60e51b815260206004820152601760248201527618dbdb1b185d195c985b081b9bdd08185c1c1c9bdd9959604a1b6044820152606401610e6f565b611d3e613273565b50505050611d4f878688338861439d565b5050611d5a81611106565b611d9e5760405162461bcd60e51b8152602060048201526015602482015274189bdc9c9bddd95c881a5cc81a5b9cdbdb1d995b9d605a1b6044820152606401610e6f565b50506001600d55505050565b600754600090819081906001600160a01b03163314611ddb5760405162461bcd60e51b8152600401610e6f9061573b565b611df36007805460ff60a01b1916600160a01b179055565b909192565b6001600160a01b0380821660009081526016602090815260408083205480845260179092528220549092611e2c91166118b1565b50905081600003611e735760405162461bcd60e51b81526020600482015260116024820152706e6f2061756374696f6e2065786973747360781b6044820152606401610e6f565b80611e8157611e81826146c6565b505050565b6000610dca82610d94565b600081611e9d30611b6b565b101592915050565b604080518082019091526010546001600160801b038082168352600160801b9091041660208201526000906116fd90848461479b565b600760009054906101000a90046001600160a01b03166001600160a01b0316638da5cb5b6040518163ffffffff1660e01b8152600401602060405180830381865afa158015611f2e573d6000803e3d6000fd5b505050506040513d601f19601f82011682018060405250810190611f529190615769565b6001600160a01b0316336001600160a01b03161480611f805750336000908152600c602052604090205460ff165b611fba5760405162461bcd60e51b815260206004820152600b60248201526a08585d5d1a1bdc9a5e995960aa1b6044820152606401610e6f565b6001600160a01b038116611fcd57600080fd5b600a80546001600160a01b0319166001600160a01b0392909216919091179055565b6001600160a01b03841660009081526012602090815260408083208684529091529020548490849060ff166120605760405162461bcd60e51b815260206004820152601760248201527618dbdb1b185d195c985b081b9bdd08185c1c1c9bdd9959604a1b6044820152606401610e6f565b600d546001146120825760405162461bcd60e51b8152600401610e6f90615502565b6002600d5561208f613273565b505050506120a03387868689613730565b50506001600d5550505050565b60006120b883610e3c565b9050806000036120f85760405162461bcd60e51b815260206004820152600b60248201526a5a45524f5f53484152455360a81b6044820152606401610e6f565b61212d6001600160a01b037f000000000000000000000000000000000000000000000000000000000000000016333086614810565b612137828261489a565b60408051848152602081018390526001600160a01b0384169133917fdcbc1c05240f31ff3ad067ef1ee35ce4997762752e3a095284754544f4c709d7910160405180910390a3610dca83826148f4565b565b600082815260176020908152604080832081516101008101835281546001600160a01b039081168083526001840154909116948201949094526002820154928101929092526003810154606083015260048101546080830152600581015460a0830152600681015460c08301526007015460ff16151560e0820152908290612210906118b1565b5090508061225a57612221856146c6565b60405162461bcd60e51b815260206004820152600e60248201526d185d58dd1a5bdb8818db1bdcd95960921b6044820152606401610e6f565b6122648585611447565b92506122936040518060400160405280600b81526020016a03a37ba30b621b7b9ba1d160ad1b81525084613c5c565b60408051808201909152600f546001600160801b038082168352600160801b9091041660208201526122e5816122c8866138e6565b6122dc6122d78589600061479b565b6138e6565b8651339061499d565b6122fe836020015186856040015186600001513361439d565b8251612309906118b1565b5091508161231a5761231a866146c6565b6020808401516001600160a01b039081166000908152601383526040808220875190931682529190925281205490036123c15782516001600160a01b031660009081526016602090815260408083208390558883526017909152812080546001600160a01b031990811682556001820180549091169055600281018290556003810182905560048101829055600581018290556006810191909155600701805460ff191690555b50505092915050565b6007546000906001600160a01b031633146123f75760405162461bcd60e51b8152600401610e6f9061573b565b60065460075460405163a9059cbb60e01b81526001600160a01b0391821660048201526024810185905291169063a9059cbb906044016020604051808303816000875af115801561244c573d6000803e3d6000fd5b505050506040513d601f19601f82011682018060405250810190610dca9190615786565b6007546001600160a01b0316331461249a5760405162461bcd60e51b8152600401610e6f9061573b565b6001600160a01b038416600090815260126020908152604080832086845290915290205460ff161561250e5760405162461bcd60e51b815260206004820152601b60248201527f636f6c6c61746572616c20616c726561647920617070726f76656400000000006044820152606401610e6f565b6001600160a01b03938416600081815260126020908152604080832087845282528083208054600160ff199182168117909255825180840184528681528085018a8152601c8054808601825590885291517f0e4562a10381dec21b205ed72637e6b1b523bdd0e4d4d50af5cd23dd4500a211600293840290810180546001600160a01b03191692909e1691909117909c55517f0e4562a10381dec21b205ed72637e6b1b523bdd0e4d4d50af5cd23dd4500a212909b019a909a5582516080810184528581528085019889528084019788528915606082019081529686526011855283862099865298909352922095518655935190850155905193830193909355915160039091018054909216901515179055565b600061262d83611e86565b90506126646001600160a01b037f000000000000000000000000000000000000000000000000000000000000000016333084614810565b61266e828461489a565b60408051828152602081018590526001600160a01b0384169133917fdcbc1c05240f31ff3ad067ef1ee35ce4997762752e3a095284754544f4c709d7910160405180910390a3610dca81846148f4565b60408051808201909152600f546001600160801b038082168352600160801b9091041660208201526000906116fd9084846131df565b60018054610d13906154c8565b336000908152600360205260408120805483919083906127229084906156cc565b90915550506001600160a01b0383166000818152600360205260409081902080548501905551339060008051602061598e83398151915290610e2b9086815260200190565b6000600d5460011461278b5760405162461bcd60e51b8152600401610e6f90615502565b6002600d5560408051808201909152600f546001600160801b038082168352600160801b9091041660208201526127c4818560016131df565b91506127f960405180604001604052806011815260200170030b6b7bab73a103a37903932b830bc9d1607d1b81525083613c5c565b61281681612806846138e6565b61280f876138e6565b338761499d565b506001600d5592915050565b600061282d84610e3c565b9050336001600160a01b0383161461289d576001600160a01b0382166000908152600460209081526040808320338452909152902054600019811461289b5761287682826156cc565b6001600160a01b03841660009081526004602090815260408083203384529091529020555b505b6128a78482614ba6565b6128b18282614ce8565b60408051858152602081018390526001600160a01b03808516929086169133917ffbde797d201c681b91056529119e0b02407c7bb96a4a2c75c01fc9667232c8db910160405180910390a46116fd6001600160a01b037f0000000000000000000000000000000000000000000000000000000000000000168486614d4a565b6001600160a01b0381166000908152600360209081526040808320546015909252822054909161295f846118b1565b93959294505050565b6000336001600160a01b038316146129d8576001600160a01b038216600090815260046020908152604080832033845290915290205460001981146129d6576129b185826156cc565b6001600160a01b03841660009081526004602090815260408083203384529091529020555b505b6129e184611e86565b905080600003612a215760405162461bcd60e51b815260206004820152600b60248201526a5a45524f5f41535345545360a81b6044820152606401610e6f565b612a2b8185614ba6565b612a358285614ce8565b60408051828152602081018690526001600160a01b03808516929086169133917ffbde797d201c681b91056529119e0b02407c7bb96a4a2c75c01fc9667232c8db910160405180910390a46116fd6001600160a01b037f0000000000000000000000000000000000000000000000000000000000000000168483614d4a565b60408051808201909152600f546001600160801b038082168352600160801b9091041660208201526000906116fd90848461479b565b600081815260176020908152604080832081516101008101835281546001600160a01b039081168083526001840154909116948201949094526002820154928101929092526003810154606083015260048101546080830152600581015460a0830152600681015460c08301526007015460ff16151560e0820152908290612b71906118b1565b50905080612c5757600060e08301818152858252601760209081526040808420865181546001600160a01b03199081166001600160a01b039283169081178455858a0151600185018054909316931692909217905582880151600283015560608801516003830155608088015160048084019190915560a0890151600584015560c0890151600684015594516007909201805460ff19169215159290921790915584526016825280842093909355915162461bcd60e51b815290810191909152600e60248201526d185d58dd1a5bdb8818db1bdcd95960921b6044820152606401610e6f565b612c6084610fe5565b60408051808201909152600f546001600160801b038082168352600160801b909104166020820152909350612c98816122c8866138e6565b612cb283602001516000856040015186600001513361439d565b8251612cbd906118b1565b50915081612cce57612cce856146c6565b6020808401516001600160a01b039081166000908152601483526040808220818801518352909352919091205416612d745782516001600160a01b031660009081526016602090815260408083208390558783526017909152812080546001600160a01b031990811682556001820180549091169055600281018290556003810182905560048101829055600581018290556006810191909155600701805460ff191690555b505050919050565b604080518082019091526010546001600160801b038082168352600160801b909104166020820152600090610dca90838361479b565b601a8054610d13906154c8565b6001600160a01b038116600090815260036020526040812054610dca90610d94565b42841015612e315760405162461bcd60e51b815260206004820152601760248201527f5045524d49545f444541444c494e455f455850495245440000000000000000006044820152606401610e6f565b60006001612e3d611856565b6001600160a01b038a811660008181526005602090815260409182902080546001810190915582517f6e71edae12b1b97f4d1f60370fef10105fa2faae0126114a169c64845d6126c98184015280840194909452938d166060840152608083018c905260a083019390935260c08083018b90528151808403909101815260e08301909152805192019190912061190160f01b6101008301526101028201929092526101228101919091526101420160408051601f198184030181528282528051602091820120600084529083018083525260ff871690820152606081018590526080810184905260a0016020604051602081039080840390855afa158015612f49573d6000803e3d6000fd5b5050604051601f1901519150506001600160a01b03811615801590612f7f5750876001600160a01b0316816001600160a01b0316145b612fbc5760405162461bcd60e51b815260206004820152600e60248201526d24a72b20a624a22fa9a4a3a722a960911b6044820152606401610e6f565b6001600160a01b0390811660009081526004602090815260408083208a8516808552908352928190208990555188815291928a16917f8c5be1e5ebec7d5bd14f71427d1e84f3dd0314c0f7b2291e5b200ac8c7c3b925910160405180910390a350505050505050565b6006546040516323b872dd60e01b8152336004820152306024820152604481018390526001600160a01b03909116906323b872dd906064016020604051808303816000875af115801561307c573d6000803e3d6000fd5b505050506040513d601f19601f820116820180604052508101906130a09190615786565b5080600960008282546130b391906156a0565b909155505050565b6007546001600160a01b031633146130e55760405162461bcd60e51b8152600401610e6f9061573b565b6130ee30611b6b565b60085560075460408051637e0b9fe360e11b815290516001600160a01b039092169163fc173fc6916004808201926020929091908290030181865afa15801561313b573d6000803e3d6000fd5b505050506040513d601f19601f8201168201806040525081019061315f9190615786565b1561218757600754600854604051634b674ead60e11b81526001600160a01b03909216916396ce9d5a916131999160040190815260200190565b602060405180830381865afa1580156131b6573d6000803e3d6000fd5b505050506040513d601f19601f820116820180604052508101906131da9190615722565b600855565b600083602001516001600160801b03166000036131fd5750816116fd565b602084015184516001600160801b039182169161321b91168561565f565b613225919061568c565b905081801561326357508284600001516001600160801b031685602001516001600160801b031683613257919061565f565b613261919061568c565b105b156116fd576110fe8160016156a0565b60408051606081018252601b546001600160401b038082168352600160401b8204811660208401819052600160801b9092041692820192909252600091829182918291904290036132c9576040015190506136e4565b6040805180820182526010546001600160801b038082168352600160801b91829004811660208085019190915284518086018652600f548084168252939093049091168282018190528451808601909552601785527f746f74616c20626f72726f776572207368617265733a2000000000000000000091850191909152919290916133549190613c5c565b60208101516001600160801b031615806133705750600e5460ff165b156133e857600e5460ff1661338a5763096ba6c460408401525b6001600160401b0342811660208501819052438216808652601b80546040880151909416600160801b0267ffffffffffffffff60801b19600160401b9094026001600160801b0319909516909217939093179190911617905561365b565b600083602001516001600160401b03164261340391906156cc565b835183519192506000916001600160801b03918216916134279116620186a061565f565b613431919061568c565b905060008560400151838388600001516001600160401b03164361345591906156cc565b604080516001600160401b0390951660208601528401929092526060830152608082015260a00160408051601f1981840301815290829052601954631b54c1a360e01b83529092506001600160a01b031690631b54c1a3906134be908490601a906004016157a3565b602060405180830381865afa1580156134db573d6000803e3d6000fd5b505050506040513d601f19601f820116820180604052508101906134ff919061583e565b6001600160401b038082166040890181905242821660208a01524390911688528551919850670de0b6b3a764000091613541906001600160801b03168661565f565b61354b919061565f565b613555919061568c565b8451909a506001600160801b039061356f9082168c6156a0565b11158015613592575084516001600160801b039061358f9082168c6156a0565b11155b156135d35789846000018181516135a99190615867565b6001600160801b031690525084518a9086906135c6908390615867565b6001600160801b03169052505b505082516020808501516001600160801b03928316600160801b9184168202176010558651601b80548985015160408b01516001600160401b039485166001600160801b031990931692909217600160401b918516919091021767ffffffffffffffff60801b1916921683029190911790558451918501519183169190921690910217600f55505b61368e6040518060400160405280601181526020017002fb4b73a32b932b9ba22b0b93732b21d1607d1b81525088613c5c565b60408051888152602081018890529081018690526001600160401b038516606082015242907fb3f1ab1acc425f7672dd56d1f8912f1e1b18909cd52aef680190f13adb38a9659060800160405180910390a25050505b90919293565b600e5460ff16156121875760405162461bcd60e51b815260206004820152601060248201526f14185d5cd8589b194e881c185d5cd95960821b6044820152606401610e6f565b6001600160a01b03808516600090815260116020908152604080832085845290915290206003015460ff16908616301461388e5780156137f9576001600160a01b038086166000908152601360209081526040808320938716835292905290812080548692906137a19084906156a0565b90915550506001600160a01b0385166000908152601160209081526040808320838052909152812080548692906137d99084906156a0565b909155506137f490506001600160a01b038616873087614810565b61388e565b6001600160a01b0385811660008181526014602090815260408083208784529091529081902080546001600160a01b03191687851617905551632142170760e11b8152918816600483015230602483015260448201849052906342842e0e90606401600060405180830381600087803b15801561387557600080fd5b505af1158015613889573d6000803e3d6000fd5b505050505b604080516001600160a01b03878116825260208201859052918101869052908416907f33a089d94f9a0b7d0fe21e69b40d7dbe1965be652c7382cc778d46963db8c49b906060015b60405180910390a2505050505050565b6000600160801b82106138f857600080fd5b5090565b604080518082018252600f546001600160801b038082168352600160801b9182900481166020808501919091528451808601909552601054808316865292909204169083015260009182906139519083614dc8565b9050846001600160801b03168110156139b85760405162461bcd60e51b815260206004820152602360248201527f696e73756666696369656e7420636f6e74726163742061737365742062616c616044820152626e636560e81b6064820152608401610e6f565b6139cd826001600160801b038716600161479b565b925084826000018181516139e19190615867565b6001600160801b0316905250602082018051849190613a01908390615867565b6001600160801b0390811690915283516020808601518316600160801b029190921617600f553360009081526015909152604081208054869350909190613a499084906156a0565b9091555050604080516001600160801b03871681526020810185905233917fe1979fe4c35e0cef342fef5668e2c8e7a7e9f5d5d1ca8fee0ac6c427fa4153af910160405180910390a26001600160a01b0384163014613adf57613adf6001600160a01b037f000000000000000000000000000000000000000000000000000000000000000016856001600160801b038816614d4a565b505092915050565b6000613aff670de0b6b3a7640000600160ff1b615887565b821215613b2257604051634a78131f60e01b815260048101839052602401610e6f565b613b3b670de0b6b3a76400006001600160ff1b03615887565b821315613b5e57604051632f36878760e01b815260048101839052602401610e6f565b670de0b6b3a76400008202610dca565b60006116fd613b7d83856156fb565b90565b60008282600160ff1b821480613b995750600160ff1b81145b15613bb757604051630d01a11b60e21b815260040160405180910390fd5b60008060008412613bc85783613bcd565b836000035b915060008312613bdd5782613be2565b826000035b90506000613bf08383614de8565b90506001600160ff1b03811115613c245760405163cdaa009160e01b81526004810189905260248101889052604401610e6f565b60001985851813613c4081613c3c5782600003613b7d565b8290565b9998505050505050505050565b60006116fd613b7d83856158b5565b6107758282604051602401613c729291906158d5565b60408051601f198184030181529190526020810180516001600160e01b03166309710a9d60e41b179052614e9c565b600081610dca565b6040805180820190915260008082526020820152600080601c805480602002602001604051908101604052809291908181526020016000905b82821015613d2a576000848152602090819020604080518082019091526002850290910180546001600160a01b03168252600190810154828401529083529092019101613ce2565b5050505090506000805b8251811015613e7d576000838281518110613d5157613d51615526565b60209081029190910181015180516001600160a01b031660009081526011835260408082208385015183528452908190208151608081018352815481526001820154948101949094526002810154918401919091526003015460ff161580156060840152909250613e1d5760208082015183516001600160a01b039081166000908152601384526040808220928e16825291909352822054670de0b6b3a764000091613dfc9161565f565b613e06919061568c565b905084811115613e17578094508297505b50613e68565b81516001600160a01b039081166000908152601460209081526040808320828701518452909152902054818b16911603613e68578381602001511115613e6857806020015193508196505b50508080613e75906156b3565b915050613d34565b5083516001600160a01b031660009081526011602090815260408083208288015184528252808320815160808101835281548152600180830154948201949094526002820154928101929092526003015460ff1615156060820152601854909291613ee891906156a0565b90506000826060015115613fdb57600087600001516001600160a01b031663313ce5676040518163ffffffff1660e01b8152600401602060405180830381865afa158015613f3a573d6000803e3d6000fd5b505050506040513d601f19601f82011682018060405250810190613f5e919061553c565b60ff169050613fd3613f718260126156cc565b613f7c90600a615653565b601360008b600001516001600160a01b03166001600160a01b0316815260200190815260200160002060008d6001600160a01b03166001600160a01b0316815260200190815260200160002054611596919061565f565b915050613fe8565b613fe56001613ae7565b90505b6140166040518060400160405280600c81526020016b030b1b1b7bab73a2634b89d160a51b81525089613c5c565b61401f81614ebd565b6140506040518060400160405280600b81526020016a036b0bc20b6b7bab73a1d160ad1b8152508460200151613c5c565b61405d8360200151614ebd565b600061408861406f8560200151613ca1565b6140828461407c8d613ca1565b90614f05565b90613c4d565b6040805180820182526008815267039b430b932b99d160c51b6020808301919091528251808401909352600f546001600160801b038082168552600160801b90910416908301529192506140e391906113b19084600161479b565b60408051808201909152600e81526d03a37ba30b61739b430b932b99d160951b6020820152600f546141259190600160801b90046001600160801b0316613c5c565b60408051808201909152600e81526d03a37ba30b61730b6b7bab73a1d160951b6020820152600f5461416091906001600160801b0316613c5c565b600061418261417162015180613ae7565b61407c67016345785d8a0000613ca1565b9050600061419a6141936004613ae7565b8490614f05565b90506040518061010001604052808d6001600160a01b031681526020018b600001516001600160a01b031681526020018b6020015181526020018481526020018281526020018381526020016141ef42613ae7565b815260016020918201819052600088815260178352604090819020845181546001600160a01b03199081166001600160a01b039283161783559486015182850180549096169116179093558301516002830155606083015160038301556080830151600483015560a0830151600583015560c0830151600683015560e0909201516007909101805460ff1916911515919091179055601854614290916156a0565b6018556001600160a01b038c81166000818152601660209081526040918290208990558d518e8201519251928352989c508c989093169288917f8777bed2a899ba8843de663a1f6ed1c48d071cc8bde08e2488b59c00c1993f76910160405180910390a450505050505050509250929050565b60007f8b73c3c69bb8fe3d512ecc4cf759cc79239f7b179b0ffacaa9a75d522b39400f600060405161433591906158f7565b6040805191829003822060208301939093528101919091527fc89efdaa54c0f20c7adf612882df0950f5a951637e0307cdcb4c672f298b8bc660608201524660808201523060a082015260c00160405160208183030381529060405280519060200120905090565b6001600160a01b03808616600090815260116020908152604080832087845290915290206003015460ff16908216301461467a57801561457f576144156040518060400160405280601981526020017f72656d6f76696e6720657263323020636f6c6c61746572616c00000000000000815250614fb2565b604080518082018252601581527403ab9b2b921b7b63630ba32b930b632b93199181d1605d1b6020808301919091526001600160a01b03808a166000908152601383528481209188168152915291909120546144719190613c5c565b6144a560405180604001604052806012815260200171031b7b63630ba32b930b620b6b7bab73a1d160751b81525086613c5c565b604080518082018252600781526603a37ba30b61d160cd1b6020808301919091526001600160a01b03891660009081526011825283812081805290915291909120546144f19190613c5c565b6001600160a01b038087166000908152601360209081526040808320938716835292905290812080548792906145289084906156cc565b90915550506001600160a01b0386166000908152601160209081526040808320838052909152812080548792906145609084906156cc565b9091555061457a90506001600160a01b0387168387614d4a565b61467a565b6001600160a01b0386811660009081526014602090815260408083208884529091529020548116908416146145e95760405162461bcd60e51b815260206004820152601060248201526f1b9bdd081bdddb995c881bd9881b999d60821b6044820152606401610e6f565b6001600160a01b0386811660008181526014602090815260408083208984529091529081902080546001600160a01b031916905551632142170760e11b8152306004820152918416602483015260448201869052906342842e0e90606401600060405180830381600087803b15801561466157600080fd5b505af1158015614675573d6000803e3d6000fd5b505050505b604080516001600160a01b03888116825260208201879052918101879052908416907f37c4d2e6036e28a1f1ed3eed26620e1e370df577673d4eb2decef5d3ea44a949906060016138d6565b6000818152601760209081526040918290208054600182015460029092015493519384526001600160a01b0390811693911691839185917f7787e67b4b8529b1aa2c1a59dbf0f0e766d63860956b86f33f5d870088235501910160405180910390a46001600160a01b031660009081526016602090815260408083208390559282526017905290812080546001600160a01b031990811682556001820180549091169055600281018290556003810182905560048101829055600581018290556006810191909155600701805460ff19169055565b82516000906001600160801b031681036147b65750816116fd565b835160208501516001600160801b03918216916147d491168561565f565b6147de919061568c565b905081801561326357508284602001516001600160801b031685600001516001600160801b031683613257919061565f565b60006040516323b872dd60e01b81528460048201528360248201528260448201526020600060648360008a5af13d15601f3d11600160005114161716915050806148935760405162461bcd60e51b81526020600482015260146024820152731514905394d1915497d19493d357d1905253115160621b6044820152606401610e6f565b5050505050565b80600260008282546148ac91906156a0565b90915550506001600160a01b03821660008181526003602090815260408083208054860190555184815260008051602061598e83398151915291015b60405180910390a35050565b6007546001600160a01b0316331461490b57600080fd5b604080518082019091526010546001600160801b038082168352600160801b90910416602082015261493c836138e6565b8151829061494b908390615867565b6001600160801b0316905250614960826138e6565b816020018181516149719190615867565b6001600160801b0390811690915282516020909301518116600160801b02921691909117601055505050565b6149d16040518060400160405280600981526020016802fb9b430b932b99d160bd1b815250846001600160801b0316613c5c565b614a0c6040518060400160405280601081526020016f02fb0b6b7bab73a2a37a932b830bc9d160851b815250856001600160801b0316613c5c565b614a706040518060400160405280601d81526020017f75736572426f72726f775368617265735b5f626f72726f7765725d3a2000000081525060156000846001600160a01b03166001600160a01b0316815260200190815260200160002054613c5c565b8385600001818151614a82919061596d565b6001600160801b0316905250602085018051849190614aa290839061596d565b6001600160801b039081169091526001600160a01b03831660009081526015602052604081208054928716935091614adb9084906156cc565b9091555050845160208601516001600160801b03908116600160801b02911617600f556040516001600160a01b038216907f77c6871227e5d2dec8dadd5354f78453203e22e669cd0ec4c19d9a8c5edb31d090614b5090879087906001600160801b0392831681529116602082015260400190565b60405180910390a26001600160a01b0382163014614893576148936001600160a01b037f00000000000000000000000000000000000000000000000000000000000000001683306001600160801b038816614810565b6007546001600160a01b03163314614bbd57600080fd5b6040805180820182526010546001600160801b038082168352600160801b9182900481166020808501919091528451808601909552600f548083168652929092041690830152600091614c109190614dc8565b905082811015614c555760405162461bcd60e51b815260206004820152601060248201526f1b9bdd08195b9bdd59da08185cdcd95d60821b6044820152606401610e6f565b604080518082019091526010546001600160801b038082168352600160801b909104166020820152614c86846138e6565b81518290614c9590839061596d565b6001600160801b0316905250614caa836138e6565b81602001818151614cbb919061596d565b6001600160801b0390811690915282516020909301518116600160801b0292169190911760105550505050565b6001600160a01b03821660009081526003602052604081208054839290614d109084906156cc565b90915550506002805482900390556040518181526000906001600160a01b0384169060008051602061598e833981519152906020016148e8565b600060405163a9059cbb60e01b8152836004820152826024820152602060006044836000895af13d15601f3d1160016000511416171691505080614dc25760405162461bcd60e51b815260206004820152600f60248201526e1514905394d1915497d19052531151608a1b6044820152606401610e6f565b50505050565b80518251600091614dd89161596d565b6001600160801b03169392505050565b60008080600019848609848602925082811083820303915050670de0b6b3a76400008110614e335760405163090638d560e41b81526004810186905260248101859052604401610e6f565b6000670de0b6b3a7640000858709905081600003614e5f575050670de0b6b3a764000090049050610dca565b620400008184030492109003600160ee1b02177faccb18165bd6fe31ae1cf318dc5b51eee0e1ba569b88cd74c1773b91fac1066902905092915050565b80516a636f6e736f6c652e6c6f67602083016000808483855afa5050505050565b614f0281604051602401614ed391815260200190565b60408051601f198184030181529190526020810180516001600160e01b0316634e0c1d1d60e01b179052614e9c565b50565b60008282600160ff1b821480614f1e5750600160ff1b81145b15614f3c5760405163b3c754a360e01b815260040160405180910390fd5b60008060008412614f4d5783614f52565b836000035b915060008312614f625782614f67565b826000035b90506000614f7e83670de0b6b3a764000084614ff5565b90506001600160ff1b03811115613c245760405163fdd8c1d760e01b81526004810189905260248101889052604401610e6f565b614f0281604051602401614fc6919061510f565b60408051601f198184030181529190526020810180516001600160e01b031663104c13eb60e21b179052614e9c565b600080806000198587098587029250828110838203039150508060000361502f5783828161502557615025615676565b04925050506116fd565b838110615060576040516307639aaf60e41b8152600481018790526024810186905260448101859052606401610e6f565b60008486880960026001871981018816978890046003810283188082028403028082028403028082028403028082028403028082028403029081029092039091026000889003889004909101858311909403939093029303949094049190911702949350505050565b6000815180845260005b818110156150ef576020818501810151868301820152016150d3565b506000602082860101526020601f19601f83011685010191505092915050565b6020815260006116fd60208301846150c9565b60006020828403121561513457600080fd5b5035919050565b6001600160a01b0381168114614f0257600080fd5b6000806040838503121561516357600080fd5b823561516e8161513b565b946020939093013593505050565b60008060008060006080868803121561519457600080fd5b853561519f8161513b565b945060208601356151af8161513b565b93506040860135925060608601356001600160401b03808211156151d257600080fd5b818801915088601f8301126151e657600080fd5b8135818111156151f557600080fd5b89602082850101111561520757600080fd5b9699959850939650602001949392505050565b600080600080600060a0868803121561523257600080fd5b8535945060208601356152448161513b565b9350604086013592506060860135915060808601356152628161513b565b809150509295509295909350565b60006020828403121561528257600080fd5b81356116fd8161513b565b600080604083850312156152a057600080fd5b50508035926020909101359150565b6000806000606084860312156152c457600080fd5b83356152cf8161513b565b925060208401356152df8161513b565b929592945050506040919091013590565b8015158114614f0257600080fd5b6000806040838503121561531157600080fd5b823591506020830135615323816152f0565b809150509250929050565b6000806000806080858703121561534457600080fd5b843561534f8161513b565b93506020850135925060408501359150606085013561536d8161513b565b939692955090935050565b6000806040838503121561538b57600080fd5b82356153968161513b565b915060208301356153238161513b565b600080604083850312156153b957600080fd5b8235915060208301356153238161513b565b600080600080608085870312156153e157600080fd5b84356153ec8161513b565b966020860135965060408601359560600135945092505050565b60008060006060848603121561541b57600080fd5b83359250602084013561542d8161513b565b9150604084013561543d8161513b565b809150509250925092565b60ff81168114614f0257600080fd5b600080600080600080600060e0888a03121561547257600080fd5b873561547d8161513b565b9650602088013561548d8161513b565b9550604088013594506060880135935060808801356154ab81615448565b9699959850939692959460a0840135945060c09093013592915050565b600181811c908216806154dc57607f821691505b6020821081036154fc57634e487b7160e01b600052602260045260246000fd5b50919050565b6020808252600a90820152695245454e5452414e435960b01b604082015260600190565b634e487b7160e01b600052603260045260246000fd5b60006020828403121561554e57600080fd5b81516116fd81615448565b634e487b7160e01b600052601160045260246000fd5b600181815b808511156155aa57816000190482111561559057615590615559565b8085161561559d57918102915b93841c9390800290615574565b509250929050565b6000826155c157506001610dca565b816155ce57506000610dca565b81600181146155e457600281146155ee5761560a565b6001915050610dca565b60ff8411156155ff576155ff615559565b50506001821b610dca565b5060208310610133831016604e8410600b841016171561562d575081810a610dca565b615637838361556f565b806000190482111561564b5761564b615559565b029392505050565b60006116fd83836155b2565b8082028115828204841417610dca57610dca615559565b634e487b7160e01b600052601260045260246000fd5b60008261569b5761569b615676565b500490565b80820180821115610dca57610dca615559565b6000600182016156c5576156c5615559565b5060010190565b81810381811115610dca57610dca615559565b6000600160ff1b82016156f4576156f4615559565b5060000390565b818103600083128015838313168383128216171561571b5761571b615559565b5092915050565b60006020828403121561573457600080fd5b5051919050565b60208082526014908201527318d85b1b195c881b5d5cdd081899481d985d5b1d60621b604082015260600190565b60006020828403121561577b57600080fd5b81516116fd8161513b565b60006020828403121561579857600080fd5b81516116fd816152f0565b6040815260006157b660408301856150c9565b602083820381850152600085546157cc816154c8565b808552600182811680156157e757600181146158015761582f565b60ff1984168787015282151560051b87018601945061582f565b896000528560002060005b8481101561582757815489820189015290830190870161580c565b880187019550505b50929998505050505050505050565b60006020828403121561585057600080fd5b81516001600160401b03811681146116fd57600080fd5b6001600160801b0381811683821601908082111561571b5761571b615559565b60008261589657615896615676565b600160ff1b8214600019841416156158b0576158b0615559565b500590565b8082018281126000831280158216821582161715613adf57613adf615559565b6040815260006158e860408301856150c9565b90508260208301529392505050565b6000808354615905816154c8565b6001828116801561591d576001811461593257615961565b60ff1984168752821515830287019450615961565b8760005260208060002060005b858110156159585781548a82015290840190820161593f565b50505082870194505b50929695505050505050565b6001600160801b0382811682821603908082111561571b5761571b61555956feddf252ad1be2c89b69c2b068fc378daa952ba7f163c4a11628f55a4df523b3efa26469706673582212204426a571039fd608afcb694f7dc4ba685c2ec570375f442059a9e7736a4d30fa64736f6c63430008110033",
    "linkReferences": {}
  },
  "methodIdentifiers": {
    "DOMAIN_SEPARATOR()": "3644e515",
    "Utilizer()": "350896fe",
    "_canBorrow(address)": "1f17b2c4",
    "_isLiquidatable(address)": "38094ae7",
    "addAcceptedCollateral(address,uint256,uint256,uint256)": "92698f0f",
    "addCollateral(address,uint256,uint256,address)": "670c6222",
    "addInterest()": "0d09365c",
    "allowance(address,address)": "dd62ed3e",
    "approve(address,uint256)": "095ea7b3",
    "approvedCollateral(address,uint256)": "10b181b4",
    "asset()": "38d52e0f",
    "auctions(uint256)": "571a26a0",
    "balanceOf(address)": "70a08231",
    "balanceOfUnderlying(address)": "3af9e669",
    "borrow(uint256,address,uint256,uint256,address)": "1c5ef1ab",
    "closeAuction(address)": "4b34e566",
    "collateralData(address,uint256)": "9189ed1c",
    "convertToAssets(uint256)": "07a2d13a",
    "convertToShares(uint256)": "c6e6f592",
    "currentRateInfo()": "95d14ca8",
    "decimals()": "313ce567",
    "deposit(uint256,address)": "6e553f65",
    "estimatedTotalAssets()": "efbb5cb0",
    "getMaturityBalance()": "1104aafd",
    "getUserSnapshot(address)": "b68d0a09",
    "initialize()": "8129fc1c",
    "instrumentApprovalCondition()": "83e754a0",
    "isLiquid(uint256)": "537d9409",
    "isLocked()": "a4e2d634",
    "liquidate(address)": "2f865568",
    "liquidateAllPositions()": "50bb4beb",
    "liquidatePosition(uint256)": "cdddd4e5",
    "maxDeposit(address)": "402d267d",
    "maxMint(address)": "c63d75b6",
    "maxRedeem(address)": "d905777e",
    "maxWithdraw(address)": "ce96cb77",
    "mint(uint256,address)": "94bf804d",
    "name()": "06fdde03",
    "nonces(address)": "7ecebe00",
    "numAuctions()": "5c113acc",
    "onERC721Received(address,address,uint256,bytes)": "150b7a02",
    "onMarketApproval(uint256,uint256)": "416288dd",
    "paused()": "5c975abb",
    "permit(address,address,uint256,uint256,uint8,bytes32,bytes32)": "d505accf",
    "prepareWithdraw()": "49dcf4ed",
    "previewDeposit(uint256)": "ef8b30f7",
    "previewMint(uint256)": "b3d7f6b9",
    "previewRedeem(uint256)": "4cdad506",
    "previewWithdraw(uint256)": "0a28a477",
    "pullRawFunds(uint256)": "d832f791",
    "purchaseERC20Collateral(uint256,uint256)": "832ba99e",
    "purchaseERC721Collateral(uint256)": "c69fe53e",
    "purchasePriceERC20(uint256,uint256)": "2134b55f",
    "purchasePriceERC721(uint256)": "1c9e9621",
    "rateContract()": "eee24219",
    "rateInitCallData()": "c7be9786",
    "readyForWithdrawal()": "bdf0f253",
    "redeem(uint256,address,address)": "ba087652",
    "redeemUnderlying(uint256)": "852a12e3",
    "removeCollateral(address,uint256,uint256,address)": "46c11417",
    "repay(uint256,address)": "acb70815",
    "setUtilizer(address)": "57b25996",
    "store_internal_balance()": "f3aa68d3",
    "symbol()": "95d89b41",
    "toAssetAmount(uint256,bool)": "404ffa7a",
    "toAssetShares(uint256,bool)": "56968f97",
    "toBorrowAmount(uint256,bool)": "94e301e0",
    "toBorrowShares(uint256,bool)": "c270a544",
    "totalAsset()": "f9557ccb",
    "totalAssets()": "01e1d114",
    "totalBorrow()": "8285ef40",
    "totalSupply()": "18160ddd",
    "transfer(address,uint256)": "a9059cbb",
    "transferFrom(address,address,uint256)": "23b872dd",
    "underlying()": "6f307dc3",
    "userAuctionId(address)": "d7da6302",
    "userBorrowShares(address)": "4fd422df",
    "userCollateralERC20(address,address)": "601b4aed",
    "userCollateralNFTs(address,uint256)": "838e9ae3",
    "validators(uint256)": "35aa2e44",
    "vault()": "fbfa77cf",
    "withdraw(uint256,address,address)": "b460af94"
  },
  "id": 12
}