{
  "abi": [
    {
      "inputs": [
        {
          "internalType": "address",
          "name": "_vault",
          "type": "address"
        },
        {
          "internalType": "address",
          "name": "_reputationManager",
          "type": "address"
        },
        {
          "internalType": "uint256",
          "name": "_r",
          "type": "uint256"
        },
        {
          "internalType": "address",
          "name": "_utilizer",
          "type": "address"
        },
        {
          "internalType": "string",
          "name": "_name",
          "type": "string"
        },
        {
          "internalType": "string",
          "name": "_symbol",
          "type": "string"
        },
        {
          "internalType": "address",
          "name": "_rateCalculator",
          "type": "address"
        },
        {
          "internalType": "bytes",
          "name": "_rateInitCallData",
          "type": "bytes"
        },
        {
          "components": [
            {
              "internalType": "address",
              "name": "tokenAddress",
              "type": "address"
            },
            {
              "internalType": "uint256",
              "name": "tokenId",
              "type": "uint256"
            }
          ],
          "internalType": "struct PoolInstrument.CollateralLabel[]",
          "name": "_collaterals",
          "type": "tuple[]"
        },
        {
          "components": [
            {
              "internalType": "uint256",
              "name": "totalCollateral",
              "type": "uint256"
            },
            {
              "internalType": "uint256",
              "name": "maxAmount",
              "type": "uint256"
            },
            {
              "internalType": "uint256",
              "name": "maxBorrowAmount",
              "type": "uint256"
            },
            {
              "internalType": "bool",
              "name": "isERC20",
              "type": "bool"
            },
            {
              "internalType": "uint256",
              "name": "tau",
              "type": "uint256"
            },
            {
              "internalType": "uint256",
              "name": "cusp",
              "type": "uint256"
            },
            {
              "internalType": "uint256",
              "name": "tail",
              "type": "uint256"
            },
            {
              "internalType": "uint256",
              "name": "buf",
              "type": "uint256"
            }
          ],
          "internalType": "struct PoolInstrument.Config[]",
          "name": "_collateralData",
          "type": "tuple[]"
        }
      ],
      "stateMutability": "nonpayable",
      "type": "constructor"
    },
    {
      "anonymous": false,
      "inputs": [
        {
          "indexed": true,
          "internalType": "address",
          "name": "borrower",
          "type": "address"
        },
        {
          "indexed": false,
          "internalType": "address",
          "name": "collateral",
          "type": "address"
        },
        {
          "indexed": false,
          "internalType": "uint256",
          "name": "tokenId",
          "type": "uint256"
        },
        {
          "indexed": false,
          "internalType": "uint256",
          "name": "amount",
          "type": "uint256"
        }
      ],
      "name": "AddCollateral",
      "type": "event"
    },
    {
      "anonymous": false,
      "inputs": [
        {
          "indexed": true,
          "internalType": "address",
          "name": "owner",
          "type": "address"
        },
        {
          "indexed": true,
          "internalType": "address",
          "name": "spender",
          "type": "address"
        },
        {
          "indexed": false,
          "internalType": "uint256",
          "name": "amount",
          "type": "uint256"
        }
      ],
      "name": "Approval",
      "type": "event"
    },
    {
      "anonymous": false,
      "inputs": [
        {
          "indexed": true,
          "internalType": "uint256",
          "name": "id",
          "type": "uint256"
        },
        {
          "indexed": true,
          "internalType": "address",
          "name": "borrower",
          "type": "address"
        },
        {
          "indexed": true,
          "internalType": "address",
          "name": "collateral",
          "type": "address"
        },
        {
          "indexed": false,
          "internalType": "uint256",
          "name": "tokenId",
          "type": "uint256"
        }
      ],
      "name": "AuctionClosed",
      "type": "event"
    },
    {
      "anonymous": false,
      "inputs": [
        {
          "indexed": true,
          "internalType": "bytes32",
          "name": "id",
          "type": "bytes32"
        },
        {
          "indexed": true,
          "internalType": "address",
          "name": "borrower",
          "type": "address"
        },
        {
          "indexed": true,
          "internalType": "address",
          "name": "collateral",
          "type": "address"
        },
        {
          "indexed": false,
          "internalType": "uint256",
          "name": "tokenId",
          "type": "uint256"
        }
      ],
      "name": "AuctionCreated",
      "type": "event"
    },
    {
      "anonymous": false,
      "inputs": [
        {
          "indexed": true,
          "internalType": "address",
          "name": "_borrower",
          "type": "address"
        },
        {
          "indexed": false,
          "internalType": "uint256",
          "name": "_amount",
          "type": "uint256"
        },
        {
          "indexed": false,
          "internalType": "uint256",
          "name": "_shares",
          "type": "uint256"
        }
      ],
      "name": "Borrow",
      "type": "event"
    },
    {
      "anonymous": false,
      "inputs": [
        {
          "indexed": true,
          "internalType": "uint256",
          "name": "id",
          "type": "uint256"
        },
        {
          "indexed": true,
          "internalType": "address",
          "name": "buyer",
          "type": "address"
        },
        {
          "indexed": true,
          "internalType": "address",
          "name": "collateral",
          "type": "address"
        },
        {
          "indexed": false,
          "internalType": "uint256",
          "name": "tokenId",
          "type": "uint256"
        },
        {
          "indexed": false,
          "internalType": "uint256",
          "name": "amount",
          "type": "uint256"
        }
      ],
      "name": "CollateralPurchased",
      "type": "event"
    },
    {
      "anonymous": false,
      "inputs": [
        {
          "indexed": true,
          "internalType": "address",
          "name": "caller",
          "type": "address"
        },
        {
          "indexed": true,
          "internalType": "address",
          "name": "owner",
          "type": "address"
        },
        {
          "indexed": false,
          "internalType": "uint256",
          "name": "assets",
          "type": "uint256"
        },
        {
          "indexed": false,
          "internalType": "uint256",
          "name": "shares",
          "type": "uint256"
        }
      ],
      "name": "Deposit",
      "type": "event"
    },
    {
      "anonymous": false,
      "inputs": [
        {
          "indexed": true,
          "internalType": "uint256",
          "name": "timestamp",
          "type": "uint256"
        },
        {
          "indexed": false,
          "internalType": "uint256",
          "name": "interestEarned",
          "type": "uint256"
        },
        {
          "indexed": false,
          "internalType": "uint256",
          "name": "feesAmount",
          "type": "uint256"
        },
        {
          "indexed": false,
          "internalType": "uint256",
          "name": "feesShare",
          "type": "uint256"
        },
        {
          "indexed": false,
          "internalType": "uint64",
          "name": "newRate",
          "type": "uint64"
        }
      ],
      "name": "InterestAdded",
      "type": "event"
    },
    {
      "anonymous": false,
      "inputs": [
        {
          "indexed": true,
          "internalType": "address",
          "name": "from",
          "type": "address"
        },
        {
          "indexed": true,
          "internalType": "address",
          "name": "to",
          "type": "address"
        },
        {
          "indexed": false,
          "internalType": "uint256",
          "name": "amount",
          "type": "uint256"
        }
      ],
      "name": "LiquidityTransfer",
      "type": "event"
    },
    {
      "anonymous": false,
      "inputs": [
        {
          "indexed": false,
          "internalType": "address",
          "name": "account",
          "type": "address"
        }
      ],
      "name": "Paused",
      "type": "event"
    },
    {
      "anonymous": false,
      "inputs": [
        {
          "indexed": true,
          "internalType": "address",
          "name": "borrower",
          "type": "address"
        },
        {
          "indexed": false,
          "internalType": "address",
          "name": "collateral",
          "type": "address"
        },
        {
          "indexed": false,
          "internalType": "uint256",
          "name": "tokenId",
          "type": "uint256"
        },
        {
          "indexed": false,
          "internalType": "uint256",
          "name": "amount",
          "type": "uint256"
        }
      ],
      "name": "RemoveCollateral",
      "type": "event"
    },
    {
      "anonymous": false,
      "inputs": [
        {
          "indexed": true,
          "internalType": "address",
          "name": "borrower",
          "type": "address"
        },
        {
          "indexed": false,
          "internalType": "uint256",
          "name": "amount",
          "type": "uint256"
        },
        {
          "indexed": false,
          "internalType": "uint256",
          "name": "shares",
          "type": "uint256"
        }
      ],
      "name": "Repay",
      "type": "event"
    },
    {
      "anonymous": false,
      "inputs": [
        {
          "indexed": true,
          "internalType": "address",
          "name": "from",
          "type": "address"
        },
        {
          "indexed": true,
          "internalType": "address",
          "name": "to",
          "type": "address"
        },
        {
          "indexed": false,
          "internalType": "uint256",
          "name": "amount",
          "type": "uint256"
        }
      ],
      "name": "Transfer",
      "type": "event"
    },
    {
      "anonymous": false,
      "inputs": [
        {
          "indexed": false,
          "internalType": "address",
          "name": "account",
          "type": "address"
        }
      ],
      "name": "Unpaused",
      "type": "event"
    },
    {
      "anonymous": false,
      "inputs": [
        {
          "indexed": true,
          "internalType": "address",
          "name": "caller",
          "type": "address"
        },
        {
          "indexed": true,
          "internalType": "address",
          "name": "receiver",
          "type": "address"
        },
        {
          "indexed": true,
          "internalType": "address",
          "name": "owner",
          "type": "address"
        },
        {
          "indexed": false,
          "internalType": "uint256",
          "name": "assets",
          "type": "uint256"
        },
        {
          "indexed": false,
          "internalType": "uint256",
          "name": "shares",
          "type": "uint256"
        }
      ],
      "name": "Withdraw",
      "type": "event"
    },
    {
      "inputs": [],
      "name": "DOMAIN_SEPARATOR",
      "outputs": [
        {
          "internalType": "bytes32",
          "name": "",
          "type": "bytes32"
        }
      ],
      "stateMutability": "view",
      "type": "function"
    },
    {
      "inputs": [],
      "name": "Utilizer",
      "outputs": [
        {
          "internalType": "address",
          "name": "",
          "type": "address"
        }
      ],
      "stateMutability": "view",
      "type": "function"
    },
    {
      "inputs": [
        {
          "internalType": "address",
          "name": "_borrower",
          "type": "address"
        }
      ],
      "name": "_canBorrow",
      "outputs": [
        {
          "internalType": "bool",
          "name": "",
          "type": "bool"
        }
      ],
      "stateMutability": "view",
      "type": "function"
    },
    {
      "inputs": [
        {
          "internalType": "address",
          "name": "_borrower",
          "type": "address"
        }
      ],
      "name": "_isLiquidatable",
      "outputs": [
        {
          "internalType": "bool",
          "name": "",
          "type": "bool"
        },
        {
          "internalType": "int256",
          "name": "accountLiq",
          "type": "int256"
        }
      ],
      "stateMutability": "view",
      "type": "function"
    },
    {
      "inputs": [
        {
          "internalType": "uint256",
          "name": "",
          "type": "uint256"
        }
      ],
      "name": "activeAuctionIds",
      "outputs": [
        {
          "internalType": "bytes32",
          "name": "",
          "type": "bytes32"
        }
      ],
      "stateMutability": "view",
      "type": "function"
    },
    {
      "inputs": [
        {
          "internalType": "address",
          "name": "_collateral",
          "type": "address"
        },
        {
          "internalType": "uint256",
          "name": "_tokenId",
          "type": "uint256"
        },
        {
          "components": [
            {
              "internalType": "uint256",
              "name": "totalCollateral",
              "type": "uint256"
            },
            {
              "internalType": "uint256",
              "name": "maxAmount",
              "type": "uint256"
            },
            {
              "internalType": "uint256",
              "name": "maxBorrowAmount",
              "type": "uint256"
            },
            {
              "internalType": "bool",
              "name": "isERC20",
              "type": "bool"
            },
            {
              "internalType": "uint256",
              "name": "tau",
              "type": "uint256"
            },
            {
              "internalType": "uint256",
              "name": "cusp",
              "type": "uint256"
            },
            {
              "internalType": "uint256",
              "name": "tail",
              "type": "uint256"
            },
            {
              "internalType": "uint256",
              "name": "buf",
              "type": "uint256"
            }
          ],
          "internalType": "struct PoolInstrument.Config",
          "name": "_config",
          "type": "tuple"
        }
      ],
      "name": "addAcceptedCollateral",
      "outputs": [],
      "stateMutability": "nonpayable",
      "type": "function"
    },
    {
      "inputs": [
        {
          "internalType": "address",
          "name": "_collateral",
          "type": "address"
        },
        {
          "internalType": "uint256",
          "name": "_tokenId",
          "type": "uint256"
        },
        {
          "internalType": "uint256",
          "name": "_collateralAmount",
          "type": "uint256"
        },
        {
          "internalType": "address",
          "name": "_borrower",
          "type": "address"
        },
        {
          "internalType": "bool",
          "name": "_enable",
          "type": "bool"
        }
      ],
      "name": "addCollateral",
      "outputs": [],
      "stateMutability": "nonpayable",
      "type": "function"
    },
    {
      "inputs": [],
      "name": "addInterest",
      "outputs": [
        {
          "internalType": "uint256",
          "name": "_interestEarned",
          "type": "uint256"
        },
        {
          "internalType": "uint256",
          "name": "_feesAmount",
          "type": "uint256"
        },
        {
          "internalType": "uint256",
          "name": "_feesShare",
          "type": "uint256"
        },
        {
          "internalType": "uint64",
          "name": "_newRate",
          "type": "uint64"
        }
      ],
      "stateMutability": "nonpayable",
      "type": "function"
    },
    {
      "inputs": [
        {
          "internalType": "address",
          "name": "",
          "type": "address"
        },
        {
          "internalType": "address",
          "name": "",
          "type": "address"
        }
      ],
      "name": "allowance",
      "outputs": [
        {
          "internalType": "uint256",
          "name": "",
          "type": "uint256"
        }
      ],
      "stateMutability": "view",
      "type": "function"
    },
    {
      "inputs": [
        {
          "internalType": "address",
          "name": "spender",
          "type": "address"
        },
        {
          "internalType": "uint256",
          "name": "amount",
          "type": "uint256"
        }
      ],
      "name": "approve",
      "outputs": [
        {
          "internalType": "bool",
          "name": "",
          "type": "bool"
        }
      ],
      "stateMutability": "nonpayable",
      "type": "function"
    },
    {
      "inputs": [
        {
          "internalType": "bytes32",
          "name": "",
          "type": "bytes32"
        }
      ],
      "name": "approvedCollateral",
      "outputs": [
        {
          "internalType": "bool",
          "name": "",
          "type": "bool"
        }
      ],
      "stateMutability": "view",
      "type": "function"
    },
    {
      "inputs": [],
      "name": "asset",
      "outputs": [
        {
          "internalType": "contract ERC20",
          "name": "",
          "type": "address"
        }
      ],
      "stateMutability": "view",
      "type": "function"
    },
    {
      "inputs": [
        {
          "internalType": "bytes32",
          "name": "",
          "type": "bytes32"
        }
      ],
      "name": "auctions",
      "outputs": [
        {
          "internalType": "address",
          "name": "borrower",
          "type": "address"
        },
        {
          "internalType": "address",
          "name": "collateral",
          "type": "address"
        },
        {
          "internalType": "uint256",
          "name": "tokenId",
          "type": "uint256"
        },
        {
          "internalType": "uint256",
          "name": "creationTimestamp",
          "type": "uint256"
        },
        {
          "internalType": "bool",
          "name": "alive",
          "type": "bool"
        }
      ],
      "stateMutability": "view",
      "type": "function"
    },
    {
      "inputs": [
        {
          "internalType": "address",
          "name": "",
          "type": "address"
        }
      ],
      "name": "balanceOf",
      "outputs": [
        {
          "internalType": "uint256",
          "name": "",
          "type": "uint256"
        }
      ],
      "stateMutability": "view",
      "type": "function"
    },
    {
      "inputs": [
        {
          "internalType": "address",
          "name": "user",
          "type": "address"
        }
      ],
      "name": "balanceOfUnderlying",
      "outputs": [
        {
          "internalType": "uint256",
          "name": "",
          "type": "uint256"
        }
      ],
      "stateMutability": "view",
      "type": "function"
    },
    {
      "inputs": [
        {
          "internalType": "uint256",
          "name": "_borrowAmount",
          "type": "uint256"
        },
        {
          "internalType": "address",
          "name": "_collateral",
          "type": "address"
        },
        {
          "internalType": "uint256",
          "name": "_tokenId",
          "type": "uint256"
        },
        {
          "internalType": "uint256",
          "name": "_collateralAmount",
          "type": "uint256"
        },
        {
          "internalType": "address",
          "name": "_reciever",
          "type": "address"
        },
        {
          "internalType": "bool",
          "name": "_enable",
          "type": "bool"
        }
      ],
      "name": "borrow",
      "outputs": [
        {
          "internalType": "uint256",
          "name": "_shares",
          "type": "uint256"
        }
      ],
      "stateMutability": "nonpayable",
      "type": "function"
    },
    {
      "inputs": [
        {
          "internalType": "uint256",
          "name": "_borrowAmount",
          "type": "uint256"
        }
      ],
      "name": "borrowLiquidityAvailable",
      "outputs": [
        {
          "internalType": "bool",
          "name": "",
          "type": "bool"
        }
      ],
      "stateMutability": "view",
      "type": "function"
    },
    {
      "inputs": [
        {
          "internalType": "bytes32",
          "name": "",
          "type": "bytes32"
        }
      ],
      "name": "collateralConfigs",
      "outputs": [
        {
          "internalType": "uint256",
          "name": "totalCollateral",
          "type": "uint256"
        },
        {
          "internalType": "uint256",
          "name": "maxAmount",
          "type": "uint256"
        },
        {
          "internalType": "uint256",
          "name": "maxBorrowAmount",
          "type": "uint256"
        },
        {
          "internalType": "bool",
          "name": "isERC20",
          "type": "bool"
        },
        {
          "internalType": "uint256",
          "name": "tau",
          "type": "uint256"
        },
        {
          "internalType": "uint256",
          "name": "cusp",
          "type": "uint256"
        },
        {
          "internalType": "uint256",
          "name": "tail",
          "type": "uint256"
        },
        {
          "internalType": "uint256",
          "name": "buf",
          "type": "uint256"
        }
      ],
      "stateMutability": "view",
      "type": "function"
    },
    {
      "inputs": [
        {
          "internalType": "address",
          "name": "_borrower",
          "type": "address"
        },
        {
          "internalType": "address",
          "name": "_collateral",
          "type": "address"
        },
        {
          "internalType": "uint256",
          "name": "_tokenId",
          "type": "uint256"
        }
      ],
      "name": "computeAuctionId",
      "outputs": [
        {
          "internalType": "bytes32",
          "name": "",
          "type": "bytes32"
        }
      ],
      "stateMutability": "pure",
      "type": "function"
    },
    {
      "inputs": [
        {
          "internalType": "address",
          "name": "_addr",
          "type": "address"
        },
        {
          "internalType": "uint256",
          "name": "_tokenId",
          "type": "uint256"
        }
      ],
      "name": "computeId",
      "outputs": [
        {
          "internalType": "bytes32",
          "name": "",
          "type": "bytes32"
        }
      ],
      "stateMutability": "pure",
      "type": "function"
    },
    {
      "inputs": [
        {
          "internalType": "uint256",
          "name": "shares",
          "type": "uint256"
        }
      ],
      "name": "convertToAssets",
      "outputs": [
        {
          "internalType": "uint256",
          "name": "",
          "type": "uint256"
        }
      ],
      "stateMutability": "view",
      "type": "function"
    },
    {
      "inputs": [
        {
          "internalType": "uint256",
          "name": "assets",
          "type": "uint256"
        }
      ],
      "name": "convertToShares",
      "outputs": [
        {
          "internalType": "uint256",
          "name": "",
          "type": "uint256"
        }
      ],
      "stateMutability": "view",
      "type": "function"
    },
    {
      "inputs": [],
      "name": "currentRateInfo",
      "outputs": [
        {
          "internalType": "uint64",
          "name": "lastBlock",
          "type": "uint64"
        },
        {
          "internalType": "uint64",
          "name": "lastTimestamp",
          "type": "uint64"
        },
        {
          "internalType": "uint64",
          "name": "ratePerSec",
          "type": "uint64"
        }
      ],
      "stateMutability": "view",
      "type": "function"
    },
    {
      "inputs": [],
      "name": "decimals",
      "outputs": [
        {
          "internalType": "uint8",
          "name": "",
          "type": "uint8"
        }
      ],
      "stateMutability": "view",
      "type": "function"
    },
    {
      "inputs": [
        {
          "internalType": "uint256",
          "name": "assets",
          "type": "uint256"
        },
        {
          "internalType": "address",
          "name": "receiver",
          "type": "address"
        }
      ],
      "name": "deposit",
      "outputs": [
        {
          "internalType": "uint256",
          "name": "shares",
          "type": "uint256"
        }
      ],
      "stateMutability": "nonpayable",
      "type": "function"
    },
    {
      "inputs": [
        {
          "internalType": "address",
          "name": "_collateral",
          "type": "address"
        },
        {
          "internalType": "uint256",
          "name": "_tokenId",
          "type": "uint256"
        }
      ],
      "name": "disableCollateral",
      "outputs": [],
      "stateMutability": "nonpayable",
      "type": "function"
    },
    {
      "inputs": [
        {
          "internalType": "address",
          "name": "_collateral",
          "type": "address"
        },
        {
          "internalType": "uint256",
          "name": "_tokenId",
          "type": "uint256"
        }
      ],
      "name": "enableCollateral",
      "outputs": [],
      "stateMutability": "nonpayable",
      "type": "function"
    },
    {
      "inputs": [
        {
          "internalType": "address",
          "name": "",
          "type": "address"
        },
        {
          "internalType": "bytes32",
          "name": "",
          "type": "bytes32"
        }
      ],
      "name": "enabledCollateral",
      "outputs": [
        {
          "internalType": "bool",
          "name": "",
          "type": "bool"
        }
      ],
      "stateMutability": "view",
      "type": "function"
    },
    {
      "inputs": [],
      "name": "estimatedTotalAssets",
      "outputs": [
        {
          "internalType": "uint256",
          "name": "",
          "type": "uint256"
        }
      ],
      "stateMutability": "view",
      "type": "function"
    },
    {
      "inputs": [],
      "name": "getAcceptedCollaterals",
      "outputs": [
        {
          "components": [
            {
              "internalType": "address",
              "name": "tokenAddress",
              "type": "address"
            },
            {
              "internalType": "uint256",
              "name": "tokenId",
              "type": "uint256"
            }
          ],
          "internalType": "struct PoolInstrument.CollateralLabel[]",
          "name": "",
          "type": "tuple[]"
        }
      ],
      "stateMutability": "view",
      "type": "function"
    },
    {
      "inputs": [],
      "name": "getMaturityBalance",
      "outputs": [
        {
          "internalType": "uint256",
          "name": "",
          "type": "uint256"
        }
      ],
      "stateMutability": "view",
      "type": "function"
    },
    {
      "inputs": [
        {
          "internalType": "address",
          "name": "_borrower",
          "type": "address"
        }
      ],
      "name": "getMaxBorrow",
      "outputs": [
        {
          "internalType": "uint256",
          "name": "_maxBorrowableAmount",
          "type": "uint256"
        }
      ],
      "stateMutability": "view",
      "type": "function"
    },
    {
      "inputs": [
        {
          "internalType": "address",
          "name": "_address",
          "type": "address"
        }
      ],
      "name": "getUserSnapshot",
      "outputs": [
        {
          "internalType": "uint256",
          "name": "_userAssetShares",
          "type": "uint256"
        },
        {
          "internalType": "uint256",
          "name": "_userAssetAmount",
          "type": "uint256"
        },
        {
          "internalType": "uint256",
          "name": "_userBorrowShares",
          "type": "uint256"
        },
        {
          "internalType": "uint256",
          "name": "_userBorrowAmount",
          "type": "uint256"
        },
        {
          "internalType": "int256",
          "name": "_userAccountLiquidity",
          "type": "int256"
        },
        {
          "components": [
            {
              "internalType": "address",
              "name": "tokenAddress",
              "type": "address"
            },
            {
              "internalType": "uint256",
              "name": "tokenId",
              "type": "uint256"
            }
          ],
          "internalType": "struct PoolInstrument.CollateralLabel[]",
          "name": "_userCollaterals",
          "type": "tuple[]"
        }
      ],
      "stateMutability": "view",
      "type": "function"
    },
    {
      "inputs": [],
      "name": "instrumentApprovalCondition",
      "outputs": [
        {
          "internalType": "bool",
          "name": "",
          "type": "bool"
        }
      ],
      "stateMutability": "view",
      "type": "function"
    },
    {
      "inputs": [
        {
          "internalType": "uint256",
          "name": "amount",
          "type": "uint256"
        }
      ],
      "name": "isLiquid",
      "outputs": [
        {
          "internalType": "bool",
          "name": "",
          "type": "bool"
        }
      ],
      "stateMutability": "view",
      "type": "function"
    },
    {
      "inputs": [],
      "name": "isLocked",
      "outputs": [
        {
          "internalType": "bool",
          "name": "",
          "type": "bool"
        }
      ],
      "stateMutability": "view",
      "type": "function"
    },
    {
      "inputs": [
        {
          "internalType": "address",
          "name": "holder",
          "type": "address"
        },
        {
          "internalType": "uint256",
          "name": "amount",
          "type": "uint256"
        }
      ],
      "name": "isWithdrawAble",
      "outputs": [
        {
          "internalType": "bool",
          "name": "",
          "type": "bool"
        }
      ],
      "stateMutability": "view",
      "type": "function"
    },
    {
      "inputs": [],
      "name": "liquidateAllPositions",
      "outputs": [
        {
          "internalType": "uint256",
          "name": "_amountFreed",
          "type": "uint256"
        }
      ],
      "stateMutability": "nonpayable",
      "type": "function"
    },
    {
      "inputs": [
        {
          "internalType": "uint256",
          "name": "_amountNeeded",
          "type": "uint256"
        }
      ],
      "name": "liquidatePosition",
      "outputs": [
        {
          "internalType": "uint256",
          "name": "_liquidatedAmount",
          "type": "uint256"
        },
        {
          "internalType": "uint256",
          "name": "_loss",
          "type": "uint256"
        }
      ],
      "stateMutability": "nonpayable",
      "type": "function"
    },
    {
      "inputs": [
        {
          "internalType": "address",
          "name": "",
          "type": "address"
        }
      ],
      "name": "maxDeposit",
      "outputs": [
        {
          "internalType": "uint256",
          "name": "",
          "type": "uint256"
        }
      ],
      "stateMutability": "view",
      "type": "function"
    },
    {
      "inputs": [
        {
          "internalType": "address",
          "name": "",
          "type": "address"
        }
      ],
      "name": "maxMint",
      "outputs": [
        {
          "internalType": "uint256",
          "name": "",
          "type": "uint256"
        }
      ],
      "stateMutability": "view",
      "type": "function"
    },
    {
      "inputs": [
        {
          "internalType": "address",
          "name": "owner",
          "type": "address"
        }
      ],
      "name": "maxRedeem",
      "outputs": [
        {
          "internalType": "uint256",
          "name": "",
          "type": "uint256"
        }
      ],
      "stateMutability": "view",
      "type": "function"
    },
    {
      "inputs": [
        {
          "internalType": "address",
          "name": "owner",
          "type": "address"
        }
      ],
      "name": "maxWithdraw",
      "outputs": [
        {
          "internalType": "uint256",
          "name": "",
          "type": "uint256"
        }
      ],
      "stateMutability": "view",
      "type": "function"
    },
    {
      "inputs": [
        {
          "internalType": "uint256",
          "name": "shares",
          "type": "uint256"
        },
        {
          "internalType": "address",
          "name": "receiver",
          "type": "address"
        }
      ],
      "name": "mint",
      "outputs": [
        {
          "internalType": "uint256",
          "name": "assets",
          "type": "uint256"
        }
      ],
      "stateMutability": "nonpayable",
      "type": "function"
    },
    {
      "inputs": [],
      "name": "name",
      "outputs": [
        {
          "internalType": "string",
          "name": "",
          "type": "string"
        }
      ],
      "stateMutability": "view",
      "type": "function"
    },
    {
      "inputs": [
        {
          "internalType": "address",
          "name": "",
          "type": "address"
        }
      ],
      "name": "nonces",
      "outputs": [
        {
          "internalType": "uint256",
          "name": "",
          "type": "uint256"
        }
      ],
      "stateMutability": "view",
      "type": "function"
    },
    {
      "inputs": [
        {
          "internalType": "address",
          "name": "",
          "type": "address"
        },
        {
          "internalType": "address",
          "name": "",
          "type": "address"
        },
        {
          "internalType": "uint256",
          "name": "",
          "type": "uint256"
        },
        {
          "internalType": "bytes",
          "name": "",
          "type": "bytes"
        }
      ],
      "name": "onERC721Received",
      "outputs": [
        {
          "internalType": "bytes4",
          "name": "",
          "type": "bytes4"
        }
      ],
      "stateMutability": "nonpayable",
      "type": "function"
    },
    {
      "inputs": [
        {
          "internalType": "uint256",
          "name": "principal",
          "type": "uint256"
        },
        {
          "internalType": "uint256",
          "name": "yield",
          "type": "uint256"
        }
      ],
      "name": "onMarketApproval",
      "outputs": [],
      "stateMutability": "nonpayable",
      "type": "function"
    },
    {
      "inputs": [],
      "name": "paused",
      "outputs": [
        {
          "internalType": "bool",
          "name": "",
          "type": "bool"
        }
      ],
      "stateMutability": "view",
      "type": "function"
    },
    {
      "inputs": [
        {
          "internalType": "address",
          "name": "owner",
          "type": "address"
        },
        {
          "internalType": "address",
          "name": "spender",
          "type": "address"
        },
        {
          "internalType": "uint256",
          "name": "value",
          "type": "uint256"
        },
        {
          "internalType": "uint256",
          "name": "deadline",
          "type": "uint256"
        },
        {
          "internalType": "uint8",
          "name": "v",
          "type": "uint8"
        },
        {
          "internalType": "bytes32",
          "name": "r",
          "type": "bytes32"
        },
        {
          "internalType": "bytes32",
          "name": "s",
          "type": "bytes32"
        }
      ],
      "name": "permit",
      "outputs": [],
      "stateMutability": "nonpayable",
      "type": "function"
    },
    {
      "inputs": [],
      "name": "prepareWithdraw",
      "outputs": [
        {
          "internalType": "uint256",
          "name": "_profit",
          "type": "uint256"
        },
        {
          "internalType": "uint256",
          "name": "_loss",
          "type": "uint256"
        },
        {
          "internalType": "uint256",
          "name": "_debtPayment",
          "type": "uint256"
        }
      ],
      "stateMutability": "nonpayable",
      "type": "function"
    },
    {
      "inputs": [
        {
          "internalType": "uint256",
          "name": "assets",
          "type": "uint256"
        }
      ],
      "name": "previewDeposit",
      "outputs": [
        {
          "internalType": "uint256",
          "name": "",
          "type": "uint256"
        }
      ],
      "stateMutability": "view",
      "type": "function"
    },
    {
      "inputs": [
        {
          "internalType": "uint256",
          "name": "shares",
          "type": "uint256"
        }
      ],
      "name": "previewMint",
      "outputs": [
        {
          "internalType": "uint256",
          "name": "",
          "type": "uint256"
        }
      ],
      "stateMutability": "view",
      "type": "function"
    },
    {
      "inputs": [
        {
          "internalType": "uint256",
          "name": "shares",
          "type": "uint256"
        }
      ],
      "name": "previewRedeem",
      "outputs": [
        {
          "internalType": "uint256",
          "name": "",
          "type": "uint256"
        }
      ],
      "stateMutability": "view",
      "type": "function"
    },
    {
      "inputs": [
        {
          "internalType": "uint256",
          "name": "assets",
          "type": "uint256"
        }
      ],
      "name": "previewWithdraw",
      "outputs": [
        {
          "internalType": "uint256",
          "name": "",
          "type": "uint256"
        }
      ],
      "stateMutability": "view",
      "type": "function"
    },
    {
      "inputs": [
        {
          "internalType": "uint256",
          "name": "amount",
          "type": "uint256"
        }
      ],
      "name": "pullRawFunds",
      "outputs": [],
      "stateMutability": "nonpayable",
      "type": "function"
    },
    {
      "inputs": [
        {
          "internalType": "address",
          "name": "_borrower",
          "type": "address"
        },
        {
          "components": [
            {
              "internalType": "address",
              "name": "tokenAddress",
              "type": "address"
            },
            {
              "internalType": "uint256",
              "name": "tokenId",
              "type": "uint256"
            }
          ],
          "internalType": "struct PoolInstrument.CollateralLabel",
          "name": "_label",
          "type": "tuple"
        },
        {
          "internalType": "uint256",
          "name": "_amount",
          "type": "uint256"
        }
      ],
      "name": "purchaseERC20",
      "outputs": [
        {
          "internalType": "uint128",
          "name": "_totalCost",
          "type": "uint128"
        }
      ],
      "stateMutability": "nonpayable",
      "type": "function"
    },
    {
      "inputs": [
        {
          "internalType": "address",
          "name": "_borrower",
          "type": "address"
        },
        {
          "components": [
            {
              "internalType": "address",
              "name": "tokenAddress",
              "type": "address"
            },
            {
              "internalType": "uint256",
              "name": "tokenId",
              "type": "uint256"
            }
          ],
          "internalType": "struct PoolInstrument.CollateralLabel",
          "name": "_label",
          "type": "tuple"
        }
      ],
      "name": "purchaseERC721",
      "outputs": [
        {
          "internalType": "bool",
          "name": "",
          "type": "bool"
        }
      ],
      "stateMutability": "nonpayable",
      "type": "function"
    },
    {
      "inputs": [
        {
          "internalType": "address",
          "name": "_borrower",
          "type": "address"
        },
        {
          "internalType": "address",
          "name": "_collateral",
          "type": "address"
        },
        {
          "internalType": "uint256",
          "name": "_tokenId",
          "type": "uint256"
        }
      ],
      "name": "purchasePrice",
      "outputs": [
        {
          "internalType": "uint256",
          "name": "currentPrice",
          "type": "uint256"
        }
      ],
      "stateMutability": "view",
      "type": "function"
    },
    {
      "inputs": [],
      "name": "r",
      "outputs": [
        {
          "internalType": "uint256",
          "name": "",
          "type": "uint256"
        }
      ],
      "stateMutability": "view",
      "type": "function"
    },
    {
      "inputs": [],
      "name": "rateContract",
      "outputs": [
        {
          "internalType": "contract IRateCalculator",
          "name": "",
          "type": "address"
        }
      ],
      "stateMutability": "view",
      "type": "function"
    },
    {
      "inputs": [],
      "name": "rateInitCallData",
      "outputs": [
        {
          "internalType": "bytes",
          "name": "",
          "type": "bytes"
        }
      ],
      "stateMutability": "view",
      "type": "function"
    },
    {
      "inputs": [],
      "name": "readyForWithdrawal",
      "outputs": [
        {
          "internalType": "bool",
          "name": "",
          "type": "bool"
        }
      ],
      "stateMutability": "view",
      "type": "function"
    },
    {
      "inputs": [
        {
          "internalType": "uint256",
          "name": "shares",
          "type": "uint256"
        },
        {
          "internalType": "address",
          "name": "receiver",
          "type": "address"
        },
        {
          "internalType": "address",
          "name": "owner",
          "type": "address"
        }
      ],
      "name": "redeem",
      "outputs": [
        {
          "internalType": "uint256",
          "name": "assets",
          "type": "uint256"
        }
      ],
      "stateMutability": "nonpayable",
      "type": "function"
    },
    {
      "inputs": [
        {
          "internalType": "uint256",
          "name": "amount",
          "type": "uint256"
        }
      ],
      "name": "redeemUnderlying",
      "outputs": [
        {
          "internalType": "bool",
          "name": "",
          "type": "bool"
        }
      ],
      "stateMutability": "nonpayable",
      "type": "function"
    },
    {
      "inputs": [
        {
          "internalType": "address",
          "name": "_collateral",
          "type": "address"
        },
        {
          "internalType": "uint256",
          "name": "_tokenId",
          "type": "uint256"
        },
        {
          "internalType": "address",
          "name": "_receiver",
          "type": "address"
        }
      ],
      "name": "removeAvailableCollateral",
      "outputs": [
        {
          "internalType": "uint256",
          "name": "removeable",
          "type": "uint256"
        }
      ],
      "stateMutability": "nonpayable",
      "type": "function"
    },
    {
      "inputs": [
        {
          "internalType": "address",
          "name": "_collateral",
          "type": "address"
        },
        {
          "internalType": "uint256",
          "name": "_tokenId",
          "type": "uint256"
        },
        {
          "internalType": "uint256",
          "name": "_collateralAmount",
          "type": "uint256"
        },
        {
          "internalType": "address",
          "name": "_receiver",
          "type": "address"
        },
        {
          "internalType": "bool",
          "name": "_disable",
          "type": "bool"
        }
      ],
      "name": "removeCollateral",
      "outputs": [],
      "stateMutability": "nonpayable",
      "type": "function"
    },
    {
      "inputs": [
        {
          "internalType": "address",
          "name": "_borrower",
          "type": "address"
        },
        {
          "internalType": "uint256",
          "name": "tokenId",
          "type": "uint256"
        },
        {
          "internalType": "address",
          "name": "collateral",
          "type": "address"
        }
      ],
      "name": "removeableCollateral",
      "outputs": [
        {
          "internalType": "uint256",
          "name": "",
          "type": "uint256"
        }
      ],
      "stateMutability": "view",
      "type": "function"
    },
    {
      "inputs": [
        {
          "internalType": "uint256",
          "name": "_shares",
          "type": "uint256"
        },
        {
          "internalType": "address",
          "name": "_borrower",
          "type": "address"
        }
      ],
      "name": "repay",
      "outputs": [
        {
          "internalType": "uint256",
          "name": "_amountToRepay",
          "type": "uint256"
        }
      ],
      "stateMutability": "nonpayable",
      "type": "function"
    },
    {
      "inputs": [
        {
          "internalType": "uint256",
          "name": "_amount",
          "type": "uint256"
        },
        {
          "internalType": "address",
          "name": "_borrower",
          "type": "address"
        }
      ],
      "name": "repayWithAmount",
      "outputs": [
        {
          "internalType": "uint256",
          "name": "_sharesToRepay",
          "type": "uint256"
        }
      ],
      "stateMutability": "nonpayable",
      "type": "function"
    },
    {
      "inputs": [
        {
          "internalType": "address",
          "name": "_Utilizer",
          "type": "address"
        }
      ],
      "name": "setUtilizer",
      "outputs": [],
      "stateMutability": "nonpayable",
      "type": "function"
    },
    {
      "inputs": [
        {
          "internalType": "address",
          "name": "newVault",
          "type": "address"
        }
      ],
      "name": "setVault",
      "outputs": [],
      "stateMutability": "nonpayable",
      "type": "function"
    },
    {
      "inputs": [],
      "name": "store_internal_balance",
      "outputs": [],
      "stateMutability": "nonpayable",
      "type": "function"
    },
    {
      "inputs": [],
      "name": "symbol",
      "outputs": [
        {
          "internalType": "string",
          "name": "",
          "type": "string"
        }
      ],
      "stateMutability": "view",
      "type": "function"
    },
    {
      "inputs": [
        {
          "internalType": "uint256",
          "name": "_shares",
          "type": "uint256"
        },
        {
          "internalType": "bool",
          "name": "_roundUp",
          "type": "bool"
        }
      ],
      "name": "toAssetAmount",
      "outputs": [
        {
          "internalType": "uint256",
          "name": "",
          "type": "uint256"
        }
      ],
      "stateMutability": "view",
      "type": "function"
    },
    {
      "inputs": [
        {
          "internalType": "uint256",
          "name": "_amount",
          "type": "uint256"
        },
        {
          "internalType": "bool",
          "name": "_roundUp",
          "type": "bool"
        }
      ],
      "name": "toAssetShares",
      "outputs": [
        {
          "internalType": "uint256",
          "name": "",
          "type": "uint256"
        }
      ],
      "stateMutability": "view",
      "type": "function"
    },
    {
      "inputs": [
        {
          "internalType": "uint256",
          "name": "_shares",
          "type": "uint256"
        },
        {
          "internalType": "bool",
          "name": "_roundUp",
          "type": "bool"
        }
      ],
      "name": "toBorrowAmount",
      "outputs": [
        {
          "internalType": "uint256",
          "name": "",
          "type": "uint256"
        }
      ],
      "stateMutability": "view",
      "type": "function"
    },
    {
      "inputs": [
        {
          "internalType": "uint256",
          "name": "_amount",
          "type": "uint256"
        },
        {
          "internalType": "bool",
          "name": "_roundUp",
          "type": "bool"
        }
      ],
      "name": "toBorrowShares",
      "outputs": [
        {
          "internalType": "uint256",
          "name": "",
          "type": "uint256"
        }
      ],
      "stateMutability": "view",
      "type": "function"
    },
    {
      "inputs": [],
      "name": "totalAsset",
      "outputs": [
        {
          "internalType": "uint128",
          "name": "amount",
          "type": "uint128"
        },
        {
          "internalType": "uint128",
          "name": "shares",
          "type": "uint128"
        }
      ],
      "stateMutability": "view",
      "type": "function"
    },
    {
      "inputs": [],
      "name": "totalAssetAvailable",
      "outputs": [
        {
          "internalType": "uint256",
          "name": "",
          "type": "uint256"
        }
      ],
      "stateMutability": "view",
      "type": "function"
    },
    {
      "inputs": [],
      "name": "totalAssets",
      "outputs": [
        {
          "internalType": "uint256",
          "name": "",
          "type": "uint256"
        }
      ],
      "stateMutability": "view",
      "type": "function"
    },
    {
      "inputs": [],
      "name": "totalBorrow",
      "outputs": [
        {
          "internalType": "uint128",
          "name": "amount",
          "type": "uint128"
        },
        {
          "internalType": "uint128",
          "name": "shares",
          "type": "uint128"
        }
      ],
      "stateMutability": "view",
      "type": "function"
    },
    {
      "inputs": [],
      "name": "totalSupply",
      "outputs": [
        {
          "internalType": "uint256",
          "name": "",
          "type": "uint256"
        }
      ],
      "stateMutability": "view",
      "type": "function"
    },
    {
      "inputs": [
        {
          "internalType": "address",
          "name": "to",
          "type": "address"
        },
        {
          "internalType": "uint256",
          "name": "amount",
          "type": "uint256"
        }
      ],
      "name": "transfer",
      "outputs": [
        {
          "internalType": "bool",
          "name": "",
          "type": "bool"
        }
      ],
      "stateMutability": "nonpayable",
      "type": "function"
    },
    {
      "inputs": [
        {
          "internalType": "address",
          "name": "from",
          "type": "address"
        },
        {
          "internalType": "address",
          "name": "to",
          "type": "address"
        },
        {
          "internalType": "uint256",
          "name": "amount",
          "type": "uint256"
        }
      ],
      "name": "transferFrom",
      "outputs": [
        {
          "internalType": "bool",
          "name": "",
          "type": "bool"
        }
      ],
      "stateMutability": "nonpayable",
      "type": "function"
    },
    {
      "inputs": [
        {
          "internalType": "address",
          "name": "_borrower",
          "type": "address"
        },
        {
          "internalType": "address",
          "name": "_collateral",
          "type": "address"
        },
        {
          "internalType": "uint256",
          "name": "_tokenId",
          "type": "uint256"
        }
      ],
      "name": "triggerAuction",
      "outputs": [
        {
          "internalType": "bytes32",
          "name": "_auctionId",
          "type": "bytes32"
        }
      ],
      "stateMutability": "nonpayable",
      "type": "function"
    },
    {
      "inputs": [],
      "name": "underlying",
      "outputs": [
        {
          "internalType": "contract ERC20",
          "name": "",
          "type": "address"
        }
      ],
      "stateMutability": "view",
      "type": "function"
    },
    {
      "inputs": [
        {
          "components": [
            {
              "internalType": "address",
              "name": "tokenAddress",
              "type": "address"
            },
            {
              "internalType": "uint256",
              "name": "tokenId",
              "type": "uint256"
            }
          ],
          "internalType": "struct PoolInstrument.CollateralLabel",
          "name": "_label",
          "type": "tuple"
        },
        {
          "components": [
            {
              "internalType": "uint256",
              "name": "totalCollateral",
              "type": "uint256"
            },
            {
              "internalType": "uint256",
              "name": "maxAmount",
              "type": "uint256"
            },
            {
              "internalType": "uint256",
              "name": "maxBorrowAmount",
              "type": "uint256"
            },
            {
              "internalType": "bool",
              "name": "isERC20",
              "type": "bool"
            },
            {
              "internalType": "uint256",
              "name": "tau",
              "type": "uint256"
            },
            {
              "internalType": "uint256",
              "name": "cusp",
              "type": "uint256"
            },
            {
              "internalType": "uint256",
              "name": "tail",
              "type": "uint256"
            },
            {
              "internalType": "uint256",
              "name": "buf",
              "type": "uint256"
            }
          ],
          "internalType": "struct PoolInstrument.Config",
          "name": "_config",
          "type": "tuple"
        }
      ],
      "name": "updateConfig",
      "outputs": [],
      "stateMutability": "nonpayable",
      "type": "function"
    },
    {
      "inputs": [
        {
          "internalType": "address",
          "name": "",
          "type": "address"
        },
        {
          "internalType": "uint256",
          "name": "",
          "type": "uint256"
        }
      ],
      "name": "userAuctionIds",
      "outputs": [
        {
          "internalType": "bytes32",
          "name": "",
          "type": "bytes32"
        }
      ],
      "stateMutability": "view",
      "type": "function"
    },
    {
      "inputs": [
        {
          "internalType": "address",
          "name": "",
          "type": "address"
        }
      ],
      "name": "userBorrowShares",
      "outputs": [
        {
          "internalType": "uint256",
          "name": "",
          "type": "uint256"
        }
      ],
      "stateMutability": "view",
      "type": "function"
    },
    {
      "inputs": [
        {
          "internalType": "address",
          "name": "",
          "type": "address"
        },
        {
          "internalType": "uint256",
          "name": "",
          "type": "uint256"
        }
      ],
      "name": "userCollateral",
      "outputs": [
        {
          "internalType": "address",
          "name": "tokenAddress",
          "type": "address"
        },
        {
          "internalType": "uint256",
          "name": "tokenId",
          "type": "uint256"
        }
      ],
      "stateMutability": "view",
      "type": "function"
    },
    {
      "inputs": [
        {
          "internalType": "bytes32",
          "name": "",
          "type": "bytes32"
        },
        {
          "internalType": "address",
          "name": "",
          "type": "address"
        }
      ],
      "name": "userERC20s",
      "outputs": [
        {
          "internalType": "uint256",
          "name": "",
          "type": "uint256"
        }
      ],
      "stateMutability": "view",
      "type": "function"
    },
    {
      "inputs": [
        {
          "internalType": "bytes32",
          "name": "",
          "type": "bytes32"
        }
      ],
      "name": "userERC721s",
      "outputs": [
        {
          "internalType": "address",
          "name": "",
          "type": "address"
        }
      ],
      "stateMutability": "view",
      "type": "function"
    },
    {
      "inputs": [
        {
          "internalType": "uint256",
          "name": "",
          "type": "uint256"
        }
      ],
      "name": "validators",
      "outputs": [
        {
          "internalType": "address",
          "name": "",
          "type": "address"
        }
      ],
      "stateMutability": "view",
      "type": "function"
    },
    {
      "inputs": [],
      "name": "vault",
      "outputs": [
        {
          "internalType": "contract Vault",
          "name": "",
          "type": "address"
        }
      ],
      "stateMutability": "view",
      "type": "function"
    },
    {
      "inputs": [
        {
          "internalType": "uint256",
          "name": "assets",
          "type": "uint256"
        },
        {
          "internalType": "address",
          "name": "receiver",
          "type": "address"
        },
        {
          "internalType": "address",
          "name": "owner",
          "type": "address"
        }
      ],
      "name": "withdraw",
      "outputs": [
        {
          "internalType": "uint256",
          "name": "shares",
          "type": "uint256"
        }
      ],
      "stateMutability": "nonpayable",
      "type": "function"
    }
  ],
  "bytecode": {
    "object": "0x6101006040526001600d553480156200001757600080fd5b5060405162006de438038062006de48339810160408190526200003a91620009e9565b89878b6001600160a01b031663c5d664c66040518163ffffffff1660e01b8152600401602060405180830381865afa1580156200007b573d6000803e3d6000fd5b505050506040513d601f19601f82011682018060405250810190620000a1919062000b21565b88888181846001600160a01b031663313ce5676040518163ffffffff1660e01b8152600401602060405180830381865afa158015620000e4573d6000803e3d6000fd5b505050506040513d601f19601f820116820180604052508101906200010a919062000b48565b600062000118848262000bfc565b50600162000127838262000bfc565b5060ff81166080524660a0526200013d620003c7565b60c052505050506001600160a01b0391821660e05250600780546001600160a01b0319169184169182179055604080516362eb326360e11b8152905163c5d664c6916004808201926020929091908290030181865afa158015620001a5573d6000803e3d6000fd5b505050506040513d601f19601f82011682018060405250810190620001cb919062000b21565b600680546001600160a01b0319166001600160a01b0392831690811790915560405163095ea7b360e01b8152918416600483015260001960248301529063095ea7b3906044016020604051808303816000875af115801562000231573d6000803e3d6000fd5b505050506040513d601f19601f8201168201806040525081019062000257919062000cc8565b50600a80546001600160a01b03199081166001600160a01b0393841617909155600e805460ff1916905560188054909116918716919091179055506019620002a0848262000bfc565b5060185460405163453f31d560e01b81526001600160a01b039091169063453f31d590620002d390869060040162000ce6565b60006040518083038186803b158015620002ec57600080fd5b505afa15801562000301573d6000803e3d6000fd5b5050601c80546001600160a01b0319166001600160a01b038d161790555050601d88905560005b8251811015620003b657620003a18382815181106200034b576200034b62000d1b565b6020026020010151600001518483815181106200036c576200036c62000d1b565b6020026020010151602001518484815181106200038d576200038d62000d1b565b60200260200101516200046360201b60201c565b80620003ad8162000d31565b91505062000328565b505050505050505050505062000dd7565b60007f8b73c3c69bb8fe3d512ecc4cf759cc79239f7b179b0ffacaa9a75d522b39400f6000604051620003fb919062000d59565b6040805191829003822060208301939093528101919091527fc89efdaa54c0f20c7adf612882df0950f5a951637e0307cdcb4c672f298b8bc660608201524660808201523060a082015260c00160405160208183030381529060405280519060200120905090565b604080516001600160601b0319606086901b1660208083019190915260348083018690528351808403909101815260549092018352815191810191909120600081815260129092529190205460ff1615620004f85760405162461bcd60e51b815260206004820152601060248201526f185b1c9958591e48185c1c1c9bdd995960821b60448201526064015b60405180910390fd5b8160200151826040015110620005655760405162461bcd60e51b815260206004820152602b60248201527f6d6178426f72726f77416d6f756e74206d757374206265206c6573732074686160448201526a1b881b585e105b5bdd5b9d60aa1b6064820152608401620004ef565b816060015115620005c0578215620005c05760405162461bcd60e51b815260206004820152601b60248201527f746f6b656e4964206d757374206265203020666f7220455243323000000000006044820152606401620004ef565b6000808352818152601160209081526040808320855181558286015160018083019190915582870151600280840191909155606088015160038401805491151560ff199283161790556080890151600485015560a0890151600585015560c0890151600685015560e090980151600790930192909255825180840184526001600160a01b03998a168152808501988952601b80548084018255908752905192027f3ad8aa4f87544323a9d1e5dd902f40c356527a7955687113db5f9a85ad579dc18101805493909a166001600160a01b03199093169290921790985595517f3ad8aa4f87544323a9d1e5dd902f40c356527a7955687113db5f9a85ad579dc29096019590955591815260129091529190912080549091169091179055565b6001600160a01b0381168114620006f457600080fd5b50565b80516200070481620006de565b919050565b634e487b7160e01b600052604160045260246000fd5b604080519081016001600160401b038111828210171562000744576200074462000709565b60405290565b60405161010081016001600160401b038111828210171562000744576200074462000709565b604051601f8201601f191681016001600160401b03811182821017156200079b576200079b62000709565b604052919050565b60005b83811015620007c0578181015183820152602001620007a6565b50506000910152565b600082601f830112620007db57600080fd5b81516001600160401b03811115620007f757620007f762000709565b6200080c601f8201601f191660200162000770565b8181528460208386010111156200082257600080fd5b62000835826020830160208701620007a3565b949350505050565b60006001600160401b0382111562000859576200085962000709565b5060051b60200190565b600082601f8301126200087557600080fd5b815160206200088e62000888836200083d565b62000770565b82815260069290921b84018101918181019086841115620008ae57600080fd5b8286015b84811015620008fd5760408189031215620008cd5760008081fd5b620008d76200071f565b8151620008e481620006de565b81528185015185820152835291830191604001620008b2565b509695505050505050565b805180151581146200070457600080fd5b600082601f8301126200092b57600080fd5b815160206200093e62000888836200083d565b82815260089290921b840181019181810190868411156200095e57600080fd5b8286015b84811015620008fd5761010081890312156200097e5760008081fd5b620009886200074a565b815181528482015185820152604080830151908201526060620009ad81840162000908565b908201526080828101519082015260a0808301519082015260c0808301519082015260e080830151908201528352918301916101000162000962565b6000806000806000806000806000806101408b8d03121562000a0a57600080fd5b62000a158b620006f7565b995062000a2560208c01620006f7565b985060408b0151975062000a3c60608c01620006f7565b60808c01519097506001600160401b038082111562000a5a57600080fd5b62000a688e838f01620007c9565b975060a08d015191508082111562000a7f57600080fd5b62000a8d8e838f01620007c9565b965062000a9d60c08e01620006f7565b955060e08d015191508082111562000ab457600080fd5b62000ac28e838f01620007c9565b94506101008d015191508082111562000ada57600080fd5b62000ae88e838f0162000863565b93506101208d015191508082111562000b0057600080fd5b5062000b0f8d828e0162000919565b9150509295989b9194979a5092959850565b60006020828403121562000b3457600080fd5b815162000b4181620006de565b9392505050565b60006020828403121562000b5b57600080fd5b815160ff8116811462000b4157600080fd5b600181811c9082168062000b8257607f821691505b60208210810362000ba357634e487b7160e01b600052602260045260246000fd5b50919050565b601f82111562000bf757600081815260208120601f850160051c8101602086101562000bd25750805b601f850160051c820191505b8181101562000bf35782815560010162000bde565b5050505b505050565b81516001600160401b0381111562000c185762000c1862000709565b62000c308162000c29845462000b6d565b8462000ba9565b602080601f83116001811462000c68576000841562000c4f5750858301515b600019600386901b1c1916600185901b17855562000bf3565b600085815260208120601f198616915b8281101562000c995788860151825594840194600190910190840162000c78565b508582101562000cb85787850151600019600388901b60f8161c191681555b5050505050600190811b01905550565b60006020828403121562000cdb57600080fd5b62000b418262000908565b602081526000825180602084015262000d07816040850160208701620007a3565b601f01601f19169190910160400192915050565b634e487b7160e01b600052603260045260246000fd5b60006001820162000d5257634e487b7160e01b600052601160045260246000fd5b5060010190565b600080835462000d698162000b6d565b6001828116801562000d84576001811462000d9a5762000dcb565b60ff198416875282151583028701945062000dcb565b8760005260208060002060005b8581101562000dc25781548a82015290840190820162000da7565b50505082870194505b50929695505050505050565b60805160a05160c05160e051615fa962000e3b600039600081816107f7015281816120ac0152818161267001528181612b0c01528181612da2015281816145530152614e2e0152600061147f0152600061144a015260006107250152615fa96000f3fe608060405234801561001057600080fd5b50600436106105305760003560e01c80637f479cb7116102af578063c7be978611610172578063d905777e116100d9578063efbb5cb011610092578063efbb5cb0146108be578063f3aa68d314610e70578063f9557ccb14610e78578063fbfa77cf14610e96578063fd1c317a14610ea9578063fd1e8c8514610ebc57600080fd5b8063d905777e14610de3578063dd38677a14610e0c578063dd62ed3e14610e1f578063e33f636514610e4a578063eee2421914610e5d578063ef8b30f7146105b357600080fd5b8063d3160c0f1161012b578063d3160c0f14610cf4578063d505accf14610d84578063d67b5d7a14610d97578063d6c01dfc14610daa578063d832f79114610dbd578063d8c26a3e14610dd057600080fd5b8063c7be978614610c56578063cb0fe39414610c5e578063cc77a47714610c71578063cd8886ee14610ca3578063cdddd4e514610cb6578063ce96cb7714610ce157600080fd5b8063a4e2d63411610216578063b68d0a09116101cf578063b68d0a0914610bf8578063ba08765214610c1d578063bdf0f25314610ac1578063c270a54414610c30578063c63d75b61461082c578063c6e6f59214610c4357600080fd5b8063a4e2d63414610b9a578063a9059cbb14610bac578063acb7081514610bbf578063b2b93fe314610bd2578063b3d7f6b91461088b578063b460af9414610be557600080fd5b8063852a12e311610268578063852a12e314610af357806394bf804d14610b0657806394e301e014610b1957806395d14ca814610b2c57806395d89b4114610b7f57806395ee69ac14610b8757600080fd5b80637f479cb714610a3857806381859b5a14610a5b5780638285ef4014610a6e5780638354cc5914610aac57806383e754a014610ac15780638418634f14610ac857600080fd5b8063402d267d116103f75780635fdb07f61161035e5780636f307dc3116103175780636f307dc314610984578063705f363d1461099757806370a08231146109c55780637426e7a4146109e557806379846203146109ed5780637ecebe0014610a1857600080fd5b80635fdb07f61461091c57806362e9e6691461092f5780636578dcfe146109425780636817031b146109555780636c8ae38c146109685780636e553f651461097157600080fd5b806350bb4beb116103b057806350bb4beb146108be578063537d9409146108c557806356968f97146108d857806357b25996146108eb5780635b50fbf3146108fe5780635c975abb1461091157600080fd5b8063402d267d1461082c578063404ffa7a14610841578063416288dd1461085457806349dcf4ed146108685780634cdad5061461088b5780634fd422df1461089e57600080fd5b80631f17b2c41161049b578063350896fe11610454578063350896fe1461079a57806335aa2e44146107ad5780633644e515146107c057806338094ae7146107c857806338d52e0f146107f25780633af9e6691461081957600080fd5b80631f17b2c4146106d45780631fd09567146106e757806323b872dd146106fa5780632c6ea90d1461070d578063313ce5671461072057806332ae4f401461075957600080fd5b80630d09365c116104ed5780630d09365c146105c65780631104aafd146105f7578063150b7a02146105ff57806318160ddd146106375780631e018348146106405780631edbc5be1461065357600080fd5b806301e1d1141461053557806306fdde031461055557806307715f201461056a57806307a2d13a1461057d578063095ea7b3146105905780630a28a477146105b3575b600080fd5b6010546001600160801b03165b6040519081526020015b60405180910390f35b61055d610ecf565b60405161054c9190615332565b61054261057836600461535d565b610f5d565b61054261058b36600461539e565b610f8f565b6105a361059e3660046153b7565b610fcb565b604051901515815260200161054c565b6105426105c136600461539e565b611037565b6105ce611042565b604080519485526020850193909352918301526001600160401b0316606082015260800161054c565b600854610542565b61061e61060d3660046153e3565b630a85bd0160e11b95945050505050565b6040516001600160e01b0319909116815260200161054c565b61054260025481565b61054261064e36600461535d565b611093565b61069f61066136600461539e565b601e60205260009081526040902080546001820154600283015460038401546004909401546001600160a01b03938416949390921692909160ff1685565b604080516001600160a01b0396871681529590941660208601529284019190915260608301521515608082015260a00161054c565b6105a36106e2366004615481565b6111f2565b6105426106f536600461549e565b611291565b6105a361070836600461535d565b611319565b61054261071b36600461539e565b6113fb565b6107477f000000000000000000000000000000000000000000000000000000000000000081565b60405160ff909116815260200161054c565b61078261076736600461539e565b6014602052600090815260409020546001600160a01b031681565b6040516001600160a01b03909116815260200161054c565b600a54610782906001600160a01b031681565b6107826107bb36600461539e565b61141c565b610542611446565b6107db6107d6366004615481565b6114a1565b60408051921515835260208301919091520161054c565b6107827f000000000000000000000000000000000000000000000000000000000000000081565b610542610827366004615481565b6117fb565b61054261083a366004615481565b5060001990565b61054261084f3660046154dc565b6118f6565b610866610862366004615501565b5050565b005b61087061192c565b6040805193845260208401929092529082015260600161054c565b61054261089936600461539e565b61197a565b6105426108ac366004615481565b60156020526000908152604090205481565b6000610542565b6105a36108d336600461539e565b611985565b6105426108e63660046154dc565b6119cc565b6108666108f9366004615481565b611a02565b61086661090c3660046153b7565b611b16565b600e5460ff166105a3565b61054261092a3660046153b7565b611e47565b61054261093d36600461535d565b611e8e565b6105a361095036600461539e565b611ee0565b610866610963366004615481565b611f53565b610542601d5481565b61054261097f36600461549e565b612054565b600654610782906001600160a01b031681565b6105a36109a53660046153b7565b601660209081526000928352604080842090915290825290205460ff1681565b6105426109d3366004615481565b60036020526000908152604090205481565b61054261212e565b610a006109fb366004615589565b612181565b6040516001600160801b03909116815260200161054c565b610542610a26366004615481565b60056020526000908152604090205481565b6105a3610a4636600461539e565b60126020526000908152604090205460ff1681565b610866610a693660046155c8565b61249d565b600f54610a8c906001600160801b0380821691600160801b90041682565b604080516001600160801b0393841681529290911660208301520161054c565b610ab461253b565b60405161054c9190615676565b60016105a3565b610542610ad636600461549e565b601360209081526000928352604080842090915290825290205481565b6105a3610b0136600461539e565b6125b0565b610542610b1436600461549e565b612656565b610542610b273660046154dc565b6126f2565b601a54610b55906001600160401b0380821691600160401b8104821691600160801b9091041683565b604080516001600160401b039485168152928416602084015292169181019190915260600161054c565b61055d612728565b610542610b95366004615689565b612735565b600754600160a01b900460ff166105a3565b6105a3610bba3660046153b7565b6127e5565b610542610bcd36600461549e565b61284b565b610542610be03660046156cb565b6128f3565b610542610bf3366004615732565b612a25565b610c0b610c06366004615481565b612b33565b60405161054c96959493929190615769565b610542610c2b366004615732565b612c7d565b610542610c3e3660046154dc565b612dc9565b610542610c5136600461539e565b612dff565b61055d612e35565b610866610c6c3660046157bf565b612e42565b610c84610c7f3660046153b7565b612f93565b604080516001600160a01b03909316835260208301919091520161054c565b6105a3610cb13660046153b7565b612fd9565b610ccc610cc436600461539e565b600080915091565b6040805192835260208301919091520161054c565b610542610cef366004615481565b613018565b610d49610d0236600461539e565b6011602052600090815260409020805460018201546002830154600384015460048501546005860154600687015460079097015495969495939460ff909316939192909188565b604080519889526020890197909752958701949094529115156060860152608085015260a084015260c083015260e08201526101000161054c565b610866610d9236600461580b565b61303a565b610866610da53660046155c8565b61327e565b610542610db83660046153b7565b613343565b610866610dcb36600461539e565b613374565b6105a3610dde36600461587c565b61340a565b610542610df1366004615481565b6001600160a01b031660009081526003602052604090205490565b610542610e1a366004615689565b61369c565b610542610e2d3660046158a9565b600460209081526000928352604080842090915290825290205481565b610866610e583660046158d7565b613760565b601854610782906001600160a01b031681565b610866613842565b601054610a8c906001600160801b0380821691600160801b90041682565b600754610782906001600160a01b031681565b610542610eb7366004615481565b61387a565b610866610eca3660046153b7565b613aec565b60008054610edc90615917565b80601f0160208091040260200160405190810160405280929190818152602001828054610f0890615917565b8015610f555780601f10610f2a57610100808354040283529160200191610f55565b820191906000526020600020905b815481529060010190602001808311610f3857829003601f168201915b505050505081565b600080610f6b858585611e8e565b90506000610f798585611e47565b9050610f858282613bed565b9695505050505050565b604080518082019091526010546001600160801b038082168352600160801b909104166020820152600090610fc5908383613d4c565b92915050565b3360008181526004602090815260408083206001600160a01b038716808552925280832085905551919290917f8c5be1e5ebec7d5bd14f71427d1e84f3dd0314c0f7b2291e5b200ac8c7c3b925906110269086815260200190565b60405180910390a350600192915050565b6000610fc582612dff565b600080600080600d546001146110735760405162461bcd60e51b815260040161106a9061594b565b60405180910390fd5b6002600d55611080613de8565b6001600d55929791965094509092509050565b60008282601260006110a58484611e47565b815260208101919091526040016000205460ff166110d55760405162461bcd60e51b815260040161106a9061596f565b600d546001146110f75760405162461bcd60e51b815260040161106a9061594b565b6002600d55611104613de8565b505050506000611113876114a1565b509050806111635760405162461bcd60e51b815260206004820152601c60248201527f626f72726f776572206973206e6f74206c6971756964617461626c6500000000604482015260640161106a565b601e6000611172898989611e8e565b815260208101919091526040016000206004015460ff16156111cf5760405162461bcd60e51b815260206004820152601660248201527561756374696f6e20616c72656164792065786973747360501b604482015260640161106a565b80156111e3576111e08787876141de565b93505b50506001600d55509392505050565b6000806111fe8361387a565b6001600160a01b038416600090815260156020526040812054919250036112285750600192915050565b806000036112395750600092915050565b6001600160a01b0383166000908152601560209081526040808320548151808301909252600f546001600160801b038082168452600160801b909104169282019290925261128992909190613d4c565b111592915050565b6000600d546001146112b55760405162461bcd60e51b815260040161106a9061594b565b6002600d5560408051808201909152600f546001600160801b038082168352600160801b9091041660208201526112ee818560016142f0565b915061130d816112fd86614365565b61130685614365565b338761437b565b506001600d5592915050565b6001600160a01b038316600090815260046020908152604080832033845290915281205460001981146113755761135083826159bc565b6001600160a01b03861660009081526004602090815260408083203384529091529020555b6001600160a01b0385166000908152600360205260408120805485929061139d9084906159bc565b90915550506001600160a01b0380851660008181526003602052604090819020805487019055519091871690600080516020615f54833981519152906113e69087815260200190565b60405180910390a360019150505b9392505050565b6020818154811061140b57600080fd5b600091825260209091200154905081565b600b818154811061142c57600080fd5b6000918252602090912001546001600160a01b0316905081565b60007f0000000000000000000000000000000000000000000000000000000000000000461461147c57611477614584565b905090565b507f000000000000000000000000000000000000000000000000000000000000000090565b60008060008060176000866001600160a01b03166001600160a01b03168152602001908152602001600020805480602002602001604051908101604052809291908181526020016000905b82821015611534576000848152602090819020604080518082019091526002850290910180546001600160a01b031682526001908101548284015290835290920191016114ec565b50505050905060005b815181101561174157600082828151811061155a5761155a6159cf565b60200260200101519050600061157882600001518360200151611e47565b60008181526011602090815260409182902082516101008101845281548152600182015492810192909252600281015492820192909252600382015460ff161580156060830181905260048401546080840152600584015460a0840152600684015460c084015260079093015460e083015292935091611619575060008281526013602090815260408083206001600160a01b038d16845290915290205415155b156116f857600083600001516001600160a01b031663313ce5676040518163ffffffff1660e01b8152600401602060405180830381865afa158015611662573d6000803e3d6000fd5b505050506040513d601f19601f8201168201806040525081019061168691906159e5565b60ff16905061169681600a615ae6565b82602001516013600086815260200190815260200160002060008d6001600160a01b03166001600160a01b03168152602001908152602001600020546116dc9190615af2565b6116e69190615b09565b6116f09088615b2b565b96505061172b565b6000828152601460205260409020546001600160a01b03808b1691160361172b5760208101516117289087615b2b565b95505b505050808061173990615b3e565b91505061153d565b506001600160a01b0385166000908152601560209081526040808320548151808301909252600f546001600160801b038082168452600160801b909104169282019290925261179292909190613d4c565b6001600160a01b0386166000908152601560209081526040808320548151808301909252600f546001600160801b038082168452600160801b9091041692820192909252928510926117e692909190613d4c565b6117f09084615b57565b935093505050915091565b6000306001600160a01b03831603611888576009546006546040516370a0823160e01b81526001600160a01b038581166004830152909116906370a0823190602401602060405180830381865afa15801561185a573d6000803e3d6000fd5b505050506040513d601f19601f8201168201806040525081019061187e9190615b7e565b610fc591906159bc565b6006546040516370a0823160e01b81526001600160a01b038481166004830152909116906370a0823190602401602060405180830381865afa1580156118d2573d6000803e3d6000fd5b505050506040513d601f19601f82011682018060405250810190610fc59190615b7e565b604080518082019091526010546001600160801b038082168352600160801b9091041660208201526000906113f4908484613d4c565b600754600090819081906001600160a01b0316331461195d5760405162461bcd60e51b815260040161106a90615b97565b6119756007805460ff60a01b1916600160a01b179055565b909192565b6000610fc582610f8f565b60006119ba604051806040016040528060088152602001671a5cdb1a5c5d5a5960c21b8152506119b4306117fb565b8461461e565b816119c4306117fb565b101592915050565b604080518082019091526010546001600160801b038082168352600160801b9091041660208201526000906113f49084846142f0565b600760009054906101000a90046001600160a01b03166001600160a01b0316638da5cb5b6040518163ffffffff1660e01b8152600401602060405180830381865afa158015611a55573d6000803e3d6000fd5b505050506040513d601f19601f82011682018060405250810190611a799190615bc5565b6001600160a01b0316336001600160a01b03161480611aa75750336000908152600c602052604090205460ff165b611ae15760405162461bcd60e51b815260206004820152600b60248201526a08585d5d1a1bdc9a5e995960aa1b604482015260640161106a565b6001600160a01b038116611af457600080fd5b600a80546001600160a01b0319166001600160a01b0392909216919091179055565b818160126000611b268484611e47565b815260208101919091526040016000205460ff16611b565760405162461bcd60e51b815260040161106a9061596f565b6000611b628585611e47565b33600090815260166020908152604080832084845290915290205490915060ff16611b8d5750611e41565b60008181526013602090815260408083203384529091529020541580611bca57506000818152601460205260409020546001600160a01b03163314155b611c2e5760405162461bcd60e51b815260206004820152602f60248201527f6d7573742072656d6f766520616c6c2072656d61696e696e6720636f6c6c617460448201526e6572616c20746f2064697361626c6560881b606482015260840161106a565b33600090815260176020908152604080832080548251818502810185019093528083529192909190849084015b82821015611ca3576000848152602090819020604080518082019091526002850290910180546001600160a01b03168252600190810154828401529083529092019101611c5b565b50505050905060005b8151811015611e1d57866001600160a01b0316828281518110611cd157611cd16159cf565b6020026020010151600001516001600160a01b0316148015611d0f575085828281518110611d0157611d016159cf565b602002602001015160200151145b15611e0b573360009081526017602052604090208054611d31906001906159bc565b81548110611d4157611d416159cf565b906000526020600020906002020160176000336001600160a01b03166001600160a01b031681526020019081526020016000208281548110611d8557611d856159cf565b60009182526020808320845460029093020180546001600160a01b0319166001600160a01b039093169290921782556001938401549390910192909255338152601790915260409020805480611ddd57611ddd615be2565b60008281526020812060026000199093019283020180546001600160a01b0319168155600101559055611e1d565b80611e1581615b3e565b915050611cac565b505033600090815260166020908152604080832093835292905220805460ff191690555b50505050565b6040516bffffffffffffffffffffffff19606084901b1660208201526034810182905260009060540160405160208183030381529060405280519060200120905092915050565b6040516bffffffffffffffffffffffff19606085811b8216602084015284901b166034820152604881018290526000906068016040516020818303038152906040528051906020012090509392505050565b604080518082018252600f546001600160801b038082168352600160801b918290048116602080850191909152845180860190955260105480831686529290920416908301526000918290611f359083614665565b905083811015611f49575060009392505050565b5060019392505050565b600760009054906101000a90046001600160a01b03166001600160a01b0316638da5cb5b6040518163ffffffff1660e01b8152600401602060405180830381865afa158015611fa6573d6000803e3d6000fd5b505050506040513d601f19601f82011682018060405250810190611fca9190615bc5565b6001600160a01b0316336001600160a01b03161480611ff85750336000908152600c602052604090205460ff165b6120325760405162461bcd60e51b815260206004820152600b60248201526a08585d5d1a1bdc9a5e995960aa1b604482015260640161106a565b600780546001600160a01b0319166001600160a01b0392909216919091179055565b600061205f83611037565b90508060000361209f5760405162461bcd60e51b815260206004820152600b60248201526a5a45524f5f53484152455360a81b604482015260640161106a565b6120d46001600160a01b037f000000000000000000000000000000000000000000000000000000000000000016333086614685565b6120de8282614708565b60408051848152602081018390526001600160a01b0384169133917fdcbc1c05240f31ff3ad067ef1ee35ce4997762752e3a095284754544f4c709d7910160405180910390a3610fc58382614762565b6040805180820182526010546001600160801b038082168352600160801b9182900481166020808501919091528451808601909552600f5480831686529290920416908301526000916114779190614665565b600061218b613de8565b5050505060006121a48585600001518660200151611e8e565b905060006121ba85600001518660200151611e47565b6000838152601e60209081526040808320815160a0808201845282546001600160a01b039081168352600180850154909116838701526002808501548487015260038086015460608087019190915260049687015460ff90811615156080808901919091528c8c5260118b529a899020895161010081018b5281548152958101549a86019a909a5292890154978401979097528701541615159481018590529285015495830195909552600584015494820194909452600683015460c082015260079092015460e083015292935090916122d05760405162461bcd60e51b81526020600482015260176024820152760636f6c6c61746572616c206973206e6f7420455243323604c1b604482015260640161106a565b81608001516122f15760405162461bcd60e51b815260040161106a90615bf8565b60006122fc896114a1565b5090508061231b5761230d856147f4565b6000955050505050506113f4565b60006123278686613bed565b90508260800151846060015161233d9190615b2b565b421180612371575061236e6123638460e00151856020015161486790919063ffffffff16565b60a085015190614867565b81105b156123975750505060009283525050601e602052604081204260039091015590506113f4565b88600001516001600160a01b031663313ce5676040518163ffffffff1660e01b8152600401602060405180830381865afa1580156123d9573d6000803e3d6000fd5b505050506040513d601f19601f820116820180604052508101906123fd91906159e5565b61240890600a615c26565b612412828a615af2565b61241c9190615b09565b604080518082018252600f546001600160801b03808216808452600160801b909204811660208085018290528551808701909652928552918401919091529299509161247a9183918b9161247391831660006142f0565b338f61437b565b61248f8a600001518a8c602001518e3361487c565b505050505050509392505050565b8484601260006124ad8484611e47565b815260208101919091526040016000205460ff166124dd5760405162461bcd60e51b815260040161106a9061596f565b600d546001146124ff5760405162461bcd60e51b815260040161106a9061594b565b6002600d5561250c613de8565b505050508215612520576125208787613aec565b61252d338887878a614a64565b50506001600d555050505050565b6060601b805480602002602001604051908101604052809291908181526020016000905b828210156125a7576000848152602090819020604080518082019091526002850290910180546001600160a01b0316825260019081015482840152908352909201910161255f565b50505050905090565b6007546000906001600160a01b031633146125dd5760405162461bcd60e51b815260040161106a90615b97565b60065460075460405163a9059cbb60e01b81526001600160a01b0391821660048201526024810185905291169063a9059cbb906044016020604051808303816000875af1158015612632573d6000803e3d6000fd5b505050506040513d601f19601f82011682018060405250810190610fc59190615c35565b60006126618361197a565b90506126986001600160a01b037f000000000000000000000000000000000000000000000000000000000000000016333084614685565b6126a28284614708565b60408051828152602081018590526001600160a01b0384169133917fdcbc1c05240f31ff3ad067ef1ee35ce4997762752e3a095284754544f4c709d7910160405180910390a3610fc58184614762565b60408051808201909152600f546001600160801b038082168352600160801b9091041660208201526000906113f4908484613d4c565b60018054610edc90615917565b6000806127418561387a565b9050600061274f8486611e47565b6000818152601160209081526040808320600201546001600160a01b038b1684526015835292819020548151808301909252600f546001600160801b038082168452600160801b9091041692820192909252929350909182916127b491906001613d4c565b6127be90856159bc565b6127d090670de0b6b3a7640000615af2565b6127da9190615b09565b979650505050505050565b336000908152600360205260408120805483919083906128069084906159bc565b90915550506001600160a01b03831660008181526003602052604090819020805485019055513390600080516020615f54833981519152906110269086815260200190565b6000600d5460011461286f5760405162461bcd60e51b815260040161106a9061594b565b6002600d5560408051808201909152600f546001600160801b038082168352600160801b9091041660208201526128a881856001613d4c565b91506128dd60405180604001604052806011815260200170030b6b7bab73a103a37903932b830bc9d1607d1b81525083614bee565b61130d816128ea84614365565b61130687614365565b600033600d546001146129185760405162461bcd60e51b815260040161106a9061594b565b6002600d55612925614c33565b61292d613de8565b505050506001600160a01b03871615801590612953575060008511806129535750600086115b156129dc5760006129648888611e47565b60008181526012602052604090205490915060ff166129bd5760405162461bcd60e51b81526020600482015260156024820152741d5b985c1c1c9bdd99590818dbdb1b185d195c985b605a1b604482015260640161106a565b83156129cd576129cd8888613aec565b6129da338988338b614a64565b505b6129ee6129e889614365565b85614c7b565b6001600d5591506129fe816111f2565b612a1a5760405162461bcd60e51b815260040161106a90615c52565b509695505050505050565b6000612a3084611037565b9050336001600160a01b03831614612aa0576001600160a01b03821660009081526004602090815260408083203384529091529020546000198114612a9e57612a7982826159bc565b6001600160a01b03841660009081526004602090815260408083203384529091529020555b505b612aaa8482614e66565b612ab48282614f91565b60408051858152602081018390526001600160a01b03808516929086169133917ffbde797d201c681b91056529119e0b02407c7bb96a4a2c75c01fc9667232c8db910160405180910390a46113f46001600160a01b037f0000000000000000000000000000000000000000000000000000000000000000168486614ff3565b6001600160a01b03811660009081526003602090815260408083205481518083019092526010546001600160801b038082168452600160801b9091041692820192909252909190819081908190606090612b8e908784613d4c565b6001600160a01b0388166000908152601560209081526040808320548151808301909252600f546001600160801b038082168452600160801b90910416928201929092529297509550612be391908690613d4c565b9250612bee876114a1565b6001600160a01b0389166000908152601760209081526040808320805482518185028101850190935280835294975090945092919084015b82821015612c6e576000848152602090819020604080518082019091526002850290910180546001600160a01b03168252600190810154828401529083529092019101612c26565b50505050905091939550919395565b6000336001600160a01b03831614612ced576001600160a01b03821660009081526004602090815260408083203384529091529020546000198114612ceb57612cc685826159bc565b6001600160a01b03841660009081526004602090815260408083203384529091529020555b505b612cf68461197a565b905080600003612d365760405162461bcd60e51b815260206004820152600b60248201526a5a45524f5f41535345545360a81b604482015260640161106a565b612d408185614e66565b612d4a8285614f91565b60408051828152602081018690526001600160a01b03808516929086169133917ffbde797d201c681b91056529119e0b02407c7bb96a4a2c75c01fc9667232c8db910160405180910390a46113f46001600160a01b037f0000000000000000000000000000000000000000000000000000000000000000168483614ff3565b60408051808201909152600f546001600160801b038082168352600160801b9091041660208201526000906113f49084846142f0565b604080518082019091526010546001600160801b038082168352600160801b909104166020820152600090610fc59083836142f0565b60198054610edc90615917565b600760009054906101000a90046001600160a01b03166001600160a01b0316638da5cb5b6040518163ffffffff1660e01b8152600401602060405180830381865afa158015612e95573d6000803e3d6000fd5b505050506040513d601f19601f82011682018060405250810190612eb99190615bc5565b6001600160a01b0316336001600160a01b031614612f065760405162461bcd60e51b815260206004820152600a60248201526937b7363c9037bbb732b960b11b604482015260640161106a565b6000612f22612f186020850185615481565b8460200135611e47565b60008181526012602052604090205490915060ff16612f725760405162461bcd60e51b815260206004820152600c60248201526b1b9bdd08185c1c1c9bdd995960a21b604482015260640161106a565b60008181526011602052604090208290612f8c8282615c81565b5050505050565b60176020528160005260406000208181548110612faf57600080fd5b6000918252602090912060029091020180546001909101546001600160a01b039091169250905082565b6001600160a01b0382166000908152600360205260408120548290612ffd9061197a565b101580156113f457508161300f61212e565b10159392505050565b6001600160a01b038116600090815260036020526040812054610fc590610f8f565b4284101561308a5760405162461bcd60e51b815260206004820152601760248201527f5045524d49545f444541444c494e455f45585049524544000000000000000000604482015260640161106a565b60006001613096611446565b6001600160a01b038a811660008181526005602090815260409182902080546001810190915582517f6e71edae12b1b97f4d1f60370fef10105fa2faae0126114a169c64845d6126c98184015280840194909452938d166060840152608083018c905260a083019390935260c08083018b90528151808403909101815260e08301909152805192019190912061190160f01b6101008301526101028201929092526101228101919091526101420160408051601f198184030181528282528051602091820120600084529083018083525260ff871690820152606081018590526080810184905260a0016020604051602081039080840390855afa1580156131a2573d6000803e3d6000fd5b5050604051601f1901519150506001600160a01b038116158015906131d85750876001600160a01b0316816001600160a01b0316145b6132155760405162461bcd60e51b815260206004820152600e60248201526d24a72b20a624a22fa9a4a3a722a960911b604482015260640161106a565b6001600160a01b0390811660009081526004602090815260408083208a8516808552908352928190208990555188815291928a16917f8c5be1e5ebec7d5bd14f71427d1e84f3dd0314c0f7b2291e5b200ac8c7c3b925910160405180910390a350505050505050565b600d546001146132a05760405162461bcd60e51b815260040161106a9061594b565b6002600d55338585601260006132b68484611e47565b815260208101919091526040016000205460ff166132e65760405162461bcd60e51b815260040161106a9061596f565b6132ee613de8565b505050508315613302576133028888611b16565b61330f888789338961487c565b505061331a816111f2565b6133365760405162461bcd60e51b815260040161106a90615c52565b50506001600d5550505050565b601f602052816000526040600020818154811061335f57600080fd5b90600052602060002001600091509150505481565b6006546040516323b872dd60e01b8152336004820152306024820152604481018390526001600160a01b03909116906323b872dd906064016020604051808303816000875af11580156133cb573d6000803e3d6000fd5b505050506040513d601f19601f820116820180604052508101906133ef9190615c35565b5080600960008282546134029190615b2b565b909155505050565b6000613414613de8565b50505050600061342d8484600001518560200151611e8e565b9050600061344384600001518560200151611e47565b6000838152601e60209081526040808320815160a0808201845282546001600160a01b039081168352600180850154909116838701526002808501548487015260038086015460608087019190915260049687015460ff90811615156080808901919091528c8c5260118b529a899020895161010081018b5281548152958101549a86019a909a5292890154978401979097528701541615159481018590529285015495830195909552600584015494820194909452600683015460c082015260079092015460e083015292935090916135595760405162461bcd60e51b81526020600482015260176024820152760636f6c6c61746572616c206973206e6f7420455243323604c1b604482015260640161106a565b816080015161357a5760405162461bcd60e51b815260040161106a90615bf8565b6000613585886114a1565b509050806135a457613596856147f4565b600095505050505050610fc5565b60006135b08686613bed565b9050826080015184606001516135c69190615b2b565b4211806135f857506135ec6123638460e00151856020015161486790919063ffffffff16565b816001600160801b0316105b1561361e5750505060009283525050601e60205260408120426003909101559050610fc5565b604080518082018252600f546001600160801b03808216808452600160801b909204811660208085018290528551808701909652928552918401919091526136779284916136709190831660006142f0565b338d61437b565b61368d886000015160018a602001518c3361487c565b50600198975050505050505050565b6000600d546001146136c05760405162461bcd60e51b815260040161106a9061594b565b6002600d55338484601260006136d68484611e47565b815260208101919091526040016000205460ff166137065760405162461bcd60e51b815260040161106a9061596f565b61370e613de8565b5050505061371d338789612735565b935061372c878588338961487c565b5050613737816111f2565b6137535760405162461bcd60e51b815260040161106a90615c52565b506001600d559392505050565b600760009054906101000a90046001600160a01b03166001600160a01b0316638da5cb5b6040518163ffffffff1660e01b8152600401602060405180830381865afa1580156137b3573d6000803e3d6000fd5b505050506040513d601f19601f820116820180604052508101906137d79190615bc5565b6001600160a01b0316336001600160a01b0316146138245760405162461bcd60e51b815260206004820152600a60248201526937b7363c9037bbb732b960b11b604482015260640161106a565b61383d838361383836859003850185615ce9565b61506b565b505050565b6007546001600160a01b0316331461386c5760405162461bcd60e51b815260040161106a90615b97565b613875306117fb565b600855565b33600090815260176020908152604080832080548251818502810185019093528083528493849084015b828210156138ec576000848152602090819020604080518082019091526002850290910180546001600160a01b031682526001908101548284015290835290920191016138a4565b50505050905060005b8151811015613ae5576000828281518110613912576139126159cf565b60200260200101519050600061393082600001518360200151611e47565b60008181526011602090815260409182902082516101008101845281548152600182015492810192909252600281015492820192909252600382015460ff161580156060830181905260048401546080840152600584015460a0840152600684015460c084015260079093015460e0830152929350916139d1575060008281526013602090815260408083206001600160a01b038b16845290915290205415155b15613a9c57600083600001516001600160a01b031663313ce5676040518163ffffffff1660e01b8152600401602060405180830381865afa158015613a1a573d6000803e3d6000fd5b505050506040513d601f19601f82011682018060405250810190613a3e91906159e5565b60ff169050613a4e81600a615ae6565b6040808401516000868152601360209081528382206001600160a01b038e16835290529190912054613a809190615af2565b613a8a9190615b09565b613a949088615b2b565b965050613acf565b6000828152601460205260409020546001600160a01b03808916911603613acf576040810151613acc9087615b2b565b95505b5050508080613add90615b3e565b9150506138f5565b5050919050565b818160126000613afc8484611e47565b815260208101919091526040016000205460ff16613b2c5760405162461bcd60e51b815260040161106a9061596f565b6000613b388585611e47565b33600090815260166020908152604080832084845290915290205490915060ff1615613b645750611e41565b336000818152601660209081526040808320948352938152838220805460ff191660019081179091559282526017815283822084518086019095526001600160a01b0389811686528583018981528254808701845592855292909320945160029091029094018054949092166001600160a01b0319909416939093178155915191015550505050565b6000828152601e60209081526040808320815160a0808201845282546001600160a01b039081168352600180850154909116838701526002808501548487015260038086015460608087019190915260049687015460ff908116151560808089019182528d8d5260118c528a8d208b5161010081018d5281548152978101549c88019c909c52948b015499860199909952918901549091161515908301529386015493810193909352600585015490830152600684015460c083015260079093015460e08201529051613cd25760405162461bcd60e51b815260040161106a90615bf8565b6000613cef82602001518360e0015161486790919063ffffffff16565b90506000836060015142613d0391906159bc565b90508260800151811115613d1a5760009450613d42565b80836080015183613d2b9190615b09565b613d359190615af2565b613d3f90836159bc565b94505b5050505092915050565b600083602001516001600160801b0316600003613d6a5750816113f4565b602084015184516001600160801b0391821691613d88911685615af2565b613d929190615b09565b9050818015613dd057508284600001516001600160801b031685602001516001600160801b031683613dc49190615af2565b613dce9190615b09565b105b156113f457613de0816001615b2b565b949350505050565b60408051606081018252601a546001600160401b038082168352600160401b8204811660208401819052600160801b909204169282019290925260009182918291829190429003613e3e576040015190506141d8565b6040805180820182526010546001600160801b038082168352600160801b9182900481166020808501919091528451808601909552600f54808316865292909204169083018190529091901580613e975750600e5460ff165b15613f0f57600e5460ff16613eb15763096ba6c460408401525b6001600160401b0342811660208501819052438216808652601a80546040880151909416600160801b0267ffffffffffffffff60801b19600160401b9094026001600160801b03199095169092179390931791909116179055614182565b600083602001516001600160401b031642613f2a91906159bc565b835183519192506000916001600160801b0391821691613f4e9116620186a0615af2565b613f589190615b09565b905060008560400151838388600001516001600160401b031643613f7c91906159bc565b604080516001600160401b0390951660208601528401929092526060830152608082015260a00160408051601f1981840301815290829052601854631b54c1a360e01b83529092506001600160a01b031690631b54c1a390613fe5908490601990600401615d92565b602060405180830381865afa158015614002573d6000803e3d6000fd5b505050506040513d601f19601f820116820180604052508101906140269190615e2d565b6001600160401b038082166040890181905242821660208a01524390911688528551919850670de0b6b3a764000091614068906001600160801b031686615af2565b6140729190615af2565b61407c9190615b09565b8451909a506001600160801b03906140969082168c615b2b565b111580156140b9575084516001600160801b03906140b69082168c615b2b565b11155b156140fa5789846000018181516140d09190615e56565b6001600160801b031690525084518a9086906140ed908390615e56565b6001600160801b03169052505b505082516020808501516001600160801b03928316600160801b9184168202176010558651601a80548985015160408b01516001600160401b039485166001600160801b031990931692909217600160401b918516919091021767ffffffffffffffff60801b1916921683029190911790558451918501519183169190921690910217600f55505b60408051888152602081018890529081018690526001600160401b038516606082015242907fb3f1ab1acc425f7672dd56d1f8912f1e1b18909cd52aef680190f13adb38a9659060800160405180910390a25050505b90919293565b60006141eb848484611e8e565b6040805160a0810182526001600160a01b0387811680835287821660208085018281528587018a8152426060880190815260016080890181815260008c8152601e87528b81209a518b54908b166001600160a01b0319918216178c5595518b8401805491909b169616959095179098559151600289015551600388015594516004909601805496151560ff199097169690961790955580549384018155938490527fc97bfaf2f8ee708c303a06d134f5ecd8389ae0432af62dc132a24118292866bb90920185905592518681529394509284917ff9ecc7821c8894ed853ed09edf7db26369f04552762bd75b56ada7f36778b7fe910160405180910390a49392505050565b82516000906001600160801b0316810361430b5750816113f4565b835160208501516001600160801b0391821691614329911685615af2565b6143339190615b09565b9050818015613dd057508284602001516001600160801b031685600001516001600160801b031683613dc49190615af2565b6000600160801b821061437757600080fd5b5090565b6143af6040518060400160405280600981526020016802fb9b430b932b99d160bd1b815250846001600160801b0316614bee565b6143ea6040518060400160405280601081526020016f02fb0b6b7bab73a2a37a932b830bc9d160851b815250856001600160801b0316614bee565b61444e6040518060400160405280601d81526020017f75736572426f72726f775368617265735b5f626f72726f7765725d3a2000000081525060156000846001600160a01b03166001600160a01b0316815260200190815260200160002054614bee565b83856000018181516144609190615e76565b6001600160801b0316905250602085018051849190614480908390615e76565b6001600160801b039081169091526001600160a01b038316600090815260156020526040812080549287169350916144b99084906159bc565b9091555050845160208601516001600160801b03908116600160801b02911617600f556040516001600160a01b038216907f77c6871227e5d2dec8dadd5354f78453203e22e669cd0ec4c19d9a8c5edb31d09061452e90879087906001600160801b0392831681529116602082015260400190565b60405180910390a26001600160a01b0382163014612f8c57612f8c6001600160a01b037f00000000000000000000000000000000000000000000000000000000000000001683306001600160801b038816614685565b60007f8b73c3c69bb8fe3d512ecc4cf759cc79239f7b179b0ffacaa9a75d522b39400f60006040516145b69190615e96565b6040805191829003822060208301939093528101919091527fc89efdaa54c0f20c7adf612882df0950f5a951637e0307cdcb4c672f298b8bc660608201524660808201523060a082015260c00160405160208183030381529060405280519060200120905090565b61383d83838360405160240161463693929190615f0c565b60408051601f198184030181529190526020810180516001600160e01b031663969cdd0360e01b1790526152ad565b8051825160009161467591615e76565b6001600160801b03169392505050565b60006040516323b872dd60e01b81528460048201528360248201528260448201526020600060648360008a5af13d15601f3d1160016000511416171691505080612f8c5760405162461bcd60e51b81526020600482015260146024820152731514905394d1915497d19493d357d1905253115160621b604482015260640161106a565b806002600082825461471a9190615b2b565b90915550506001600160a01b038216600081815260036020908152604080832080548601905551848152600080516020615f5483398151915291015b60405180910390a35050565b604080518082019091526010546001600160801b038082168352600160801b90910416602082015261479383614365565b815182906147a2908390615e56565b6001600160801b03169052506147b782614365565b816020018181516147c89190615e56565b6001600160801b0390811690915282516020909301518116600160801b02921691909117601055505050565b6000818152601e602052604090206004015460ff1661484c5760405162461bcd60e51b8152602060048201526014602482015273185d58dd1a5bdb88185b1c9958591e481919585960621b604482015260640161106a565b6000908152601e60205260409020600401805460ff19169055565b60006113f48383670de0b6b3a76400006152ce565b60006148888685611e47565b60008181526011602052604090206003015490915060ff166001600160a01b0383163014614a0b57801561492a5760008281526013602090815260408083206001600160a01b0388168452909152812080548892906148e89084906159bc565b90915550506000828152601160205260408120805488929061490b9084906159bc565b9091555061492590506001600160a01b0388168488614ff3565b614a0b565b6000828152601460205260409020546001600160a01b038581169116146149865760405162461bcd60e51b815260206004820152601060248201526f1b9bdd081bdddb995c881bd9881b999d60821b604482015260640161106a565b6000828152601460205260409081902080546001600160a01b031916905551632142170760e11b81523060048201526001600160a01b038481166024830152604482018790528816906342842e0e90606401600060405180830381600087803b1580156149f257600080fd5b505af1158015614a06573d6000803e3d6000fd5b505050505b604080516001600160a01b03898116825260208201889052918101889052908516907f37c4d2e6036e28a1f1ed3eed26620e1e370df577673d4eb2decef5d3ea44a949906060015b60405180910390a250505050505050565b6000614a708583611e47565b60008181526011602052604090206003015490915060ff166001600160a01b0387163014614ba2578015614b135760008281526013602090815260408083206001600160a01b038816845290915281208054879290614ad0908490615b2b565b909155505060008281526011602052604081208054879290614af3908490615b2b565b90915550614b0e90506001600160a01b038716883088614685565b614ba2565b6000828152601460205260409081902080546001600160a01b0319166001600160a01b03878116919091179091559051632142170760e11b8152888216600482015230602482015260448101859052908716906342842e0e90606401600060405180830381600087803b158015614b8957600080fd5b505af1158015614b9d573d6000803e3d6000fd5b505050505b604080516001600160a01b03888116825260208201869052918101879052908516907f33a089d94f9a0b7d0fe21e69b40d7dbe1965be652c7382cc778d46963db8c49b90606001614a53565b6108628282604051602401614c04929190615f31565b60408051601f198184030181529190526020810180516001600160e01b03166309710a9d60e41b1790526152ad565b600e5460ff1615614c795760405162461bcd60e51b815260206004820152601060248201526f14185d5cd8589b194e881c185d5cd95960821b604482015260640161106a565b565b604080518082018252600f546001600160801b038082168352600160801b918290048116602080850191909152845180860190955260105480831686529290920416908301526000918290614cd09083614665565b9050846001600160801b0316811015614d375760405162461bcd60e51b815260206004820152602360248201527f696e73756666696369656e7420636f6e74726163742061737365742062616c616044820152626e636560e81b606482015260840161106a565b614d4c826001600160801b03871660016142f0565b92508482600001818151614d609190615e56565b6001600160801b0316905250602082018051849190614d80908390615e56565b6001600160801b0390811690915283516020808601518316600160801b029190921617600f553360009081526015909152604081208054869350909190614dc8908490615b2b565b9091555050604080516001600160801b03871681526020810185905233917fe1979fe4c35e0cef342fef5668e2c8e7a7e9f5d5d1ca8fee0ac6c427fa4153af910160405180910390a26001600160a01b0384163014614e5e57614e5e6001600160a01b037f000000000000000000000000000000000000000000000000000000000000000016856001600160801b038816614ff3565b505092915050565b6040805180820182526010546001600160801b038082168352600160801b9182900481166020808501919091528451808601909552600f548083168652929092041690830152600091614eb99190614665565b905082811015614efe5760405162461bcd60e51b815260206004820152601060248201526f1b9bdd08195b9bdd59da08185cdcd95d60821b604482015260640161106a565b604080518082019091526010546001600160801b038082168352600160801b909104166020820152614f2f84614365565b81518290614f3e908390615e76565b6001600160801b0316905250614f5383614365565b81602001818151614f649190615e76565b6001600160801b0390811690915282516020909301518116600160801b0292169190911760105550505050565b6001600160a01b03821660009081526003602052604081208054839290614fb99084906159bc565b90915550506002805482900390556040518181526000906001600160a01b03841690600080516020615f5483398151915290602001614756565b600060405163a9059cbb60e01b8152836004820152826024820152602060006044836000895af13d15601f3d1160016000511416171691505080611e415760405162461bcd60e51b815260206004820152600f60248201526e1514905394d1915497d19052531151608a1b604482015260640161106a565b60006150778484611e47565b60008181526012602052604090205490915060ff16156150cc5760405162461bcd60e51b815260206004820152601060248201526f185b1c9958591e48185c1c1c9bdd995960821b604482015260640161106a565b81602001518260400151106151375760405162461bcd60e51b815260206004820152602b60248201527f6d6178426f72726f77416d6f756e74206d757374206265206c6573732074686160448201526a1b881b585e105b5bdd5b9d60aa1b606482015260840161106a565b81606001511561518f57821561518f5760405162461bcd60e51b815260206004820152601b60248201527f746f6b656e4964206d757374206265203020666f722045524332300000000000604482015260640161106a565b6000808352818152601160209081526040808320855181558286015160018083019190915582870151600280840191909155606088015160038401805491151560ff199283161790556080890151600485015560a0890151600585015560c0890151600685015560e090980151600790930192909255825180840184526001600160a01b03998a168152808501988952601b80548084018255908752905192027f3ad8aa4f87544323a9d1e5dd902f40c356527a7955687113db5f9a85ad579dc18101805493909a166001600160a01b03199093169290921790985595517f3ad8aa4f87544323a9d1e5dd902f40c356527a7955687113db5f9a85ad579dc29096019590955591815260129091529190912080549091169091179055565b80516a636f6e736f6c652e6c6f67602083016000808483855afa5050505050565b60008260001904841183021582026152e557600080fd5b5091020490565b6000815180845260005b81811015615312576020818501810151868301820152016152f6565b506000602082860101526020601f19601f83011685010191505092915050565b6020815260006113f460208301846152ec565b6001600160a01b038116811461535a57600080fd5b50565b60008060006060848603121561537257600080fd5b833561537d81615345565b9250602084013561538d81615345565b929592945050506040919091013590565b6000602082840312156153b057600080fd5b5035919050565b600080604083850312156153ca57600080fd5b82356153d581615345565b946020939093013593505050565b6000806000806000608086880312156153fb57600080fd5b853561540681615345565b9450602086013561541681615345565b93506040860135925060608601356001600160401b038082111561543957600080fd5b818801915088601f83011261544d57600080fd5b81358181111561545c57600080fd5b89602082850101111561546e57600080fd5b9699959850939650602001949392505050565b60006020828403121561549357600080fd5b81356113f481615345565b600080604083850312156154b157600080fd5b8235915060208301356154c381615345565b809150509250929050565b801515811461535a57600080fd5b600080604083850312156154ef57600080fd5b8235915060208301356154c3816154ce565b6000806040838503121561551457600080fd5b50508035926020909101359150565b60006040828403121561553557600080fd5b604051604081018181106001600160401b038211171561556557634e487b7160e01b600052604160045260246000fd5b604052905080823561557681615345565b8152602092830135920191909152919050565b60008060006080848603121561559e57600080fd5b83356155a981615345565b92506155b88560208601615523565b9150606084013590509250925092565b600080600080600060a086880312156155e057600080fd5b85356155eb81615345565b94506020860135935060408601359250606086013561560981615345565b91506080860135615619816154ce565b809150509295509295909350565b600081518084526020808501945080840160005b8381101561566b57815180516001600160a01b03168852830151838801526040909601959082019060010161563b565b509495945050505050565b6020815260006113f46020830184615627565b60008060006060848603121561569e57600080fd5b83356156a981615345565b92506020840135915060408401356156c081615345565b809150509250925092565b60008060008060008060c087890312156156e457600080fd5b8635955060208701356156f681615345565b94506040870135935060608701359250608087013561571481615345565b915060a0870135615724816154ce565b809150509295509295509295565b60008060006060848603121561574757600080fd5b83359250602084013561575981615345565b915060408401356156c081615345565b86815285602082015284604082015283606082015282608082015260c060a0820152600061579a60c0830184615627565b98975050505050505050565b600061010082840312156157b957600080fd5b50919050565b6000808284036101408112156157d457600080fd5b60408112156157e257600080fd5b508291506157f384604085016157a6565b90509250929050565b60ff8116811461535a57600080fd5b600080600080600080600060e0888a03121561582657600080fd5b873561583181615345565b9650602088013561584181615345565b95506040880135945060608801359350608088013561585f816157fc565b9699959850939692959460a0840135945060c09093013592915050565b6000806060838503121561588f57600080fd5b823561589a81615345565b91506157f38460208501615523565b600080604083850312156158bc57600080fd5b82356158c781615345565b915060208301356154c381615345565b600080600061014084860312156158ed57600080fd5b83356158f881615345565b92506020840135915061590e85604086016157a6565b90509250925092565b600181811c9082168061592b57607f821691505b6020821081036157b957634e487b7160e01b600052602260045260246000fd5b6020808252600a90820152695245454e5452414e435960b01b604082015260600190565b60208082526017908201527f636f6c6c61746572616c206e6f7420617070726f766564000000000000000000604082015260600190565b634e487b7160e01b600052601160045260246000fd5b81810381811115610fc557610fc56159a6565b634e487b7160e01b600052603260045260246000fd5b6000602082840312156159f757600080fd5b81516113f4816157fc565b600181815b80851115615a3d578160001904821115615a2357615a236159a6565b80851615615a3057918102915b93841c9390800290615a07565b509250929050565b600082615a5457506001610fc5565b81615a6157506000610fc5565b8160018114615a775760028114615a8157615a9d565b6001915050610fc5565b60ff841115615a9257615a926159a6565b50506001821b610fc5565b5060208310610133831016604e8410600b8410161715615ac0575081810a610fc5565b615aca8383615a02565b8060001904821115615ade57615ade6159a6565b029392505050565b60006113f48383615a45565b8082028115828204841417610fc557610fc56159a6565b600082615b2657634e487b7160e01b600052601260045260246000fd5b500490565b80820180821115610fc557610fc56159a6565b600060018201615b5057615b506159a6565b5060010190565b8181036000831280158383131683831282161715615b7757615b776159a6565b5092915050565b600060208284031215615b9057600080fd5b5051919050565b60208082526014908201527318d85b1b195c881b5d5cdd081899481d985d5b1d60621b604082015260600190565b600060208284031215615bd757600080fd5b81516113f481615345565b634e487b7160e01b600052603160045260246000fd5b60208082526014908201527361756374696f6e206973206e6f7420616c69766560601b604082015260600190565b60006113f460ff841683615a45565b600060208284031215615c4757600080fd5b81516113f4816154ce565b602080825260159082015274189bdc9c9bddd95c881a5cc81a5b9cdbdb1d995b9d605a1b604082015260600190565b813581556020820135600182015560408201356002820155600381016060830135615cab816154ce565b815490151560ff1660ff19919091161790556080820135600482015560a0820135600582015560c0820135600682015560e090910135600790910155565b6000610100808385031215615cfd57600080fd5b604051908101906001600160401b0382118183101715615d2d57634e487b7160e01b600052604160045260246000fd5b8160405283358152602084013560208201526040840135604082015260608401359150615d59826154ce565b8160608201526080840135608082015260a084013560a082015260c084013560c082015260e084013560e0820152809250505092915050565b604081526000615da560408301856152ec565b60208382038185015260008554615dbb81615917565b80855260018281168015615dd65760018114615df057615e1e565b60ff1984168787015282151560051b870186019450615e1e565b896000528560002060005b84811015615e16578154898201890152908301908701615dfb565b880187019550505b50929998505050505050505050565b600060208284031215615e3f57600080fd5b81516001600160401b03811681146113f457600080fd5b6001600160801b03818116838216019080821115615b7757615b776159a6565b6001600160801b03828116828216039080821115615b7757615b776159a6565b6000808354615ea481615917565b60018281168015615ebc5760018114615ed157615f00565b60ff1984168752821515830287019450615f00565b8760005260208060002060005b85811015615ef75781548a820152908401908201615ede565b50505082870194505b50929695505050505050565b606081526000615f1f60608301866152ec565b60208301949094525060400152919050565b604081526000615f4460408301856152ec565b9050826020830152939250505056feddf252ad1be2c89b69c2b068fc378daa952ba7f163c4a11628f55a4df523b3efa26469706673582212200cc413a111253791961b584edb0da17db49acaa675d16ac98fbc62141abbcdef64736f6c63430008110033",
    "linkReferences": {}
  },
  "methodIdentifiers": {
    "DOMAIN_SEPARATOR()": "3644e515",
    "Utilizer()": "350896fe",
    "_canBorrow(address)": "1f17b2c4",
    "_isLiquidatable(address)": "38094ae7",
    "activeAuctionIds(uint256)": "2c6ea90d",
    "addAcceptedCollateral(address,uint256,(uint256,uint256,uint256,bool,uint256,uint256,uint256,uint256))": "e33f6365",
    "addCollateral(address,uint256,uint256,address,bool)": "81859b5a",
    "addInterest()": "0d09365c",
    "allowance(address,address)": "dd62ed3e",
    "approve(address,uint256)": "095ea7b3",
    "approvedCollateral(bytes32)": "7f479cb7",
    "asset()": "38d52e0f",
    "auctions(bytes32)": "1edbc5be",
    "balanceOf(address)": "70a08231",
    "balanceOfUnderlying(address)": "3af9e669",
    "borrow(uint256,address,uint256,uint256,address,bool)": "b2b93fe3",
    "borrowLiquidityAvailable(uint256)": "6578dcfe",
    "collateralConfigs(bytes32)": "d3160c0f",
    "computeAuctionId(address,address,uint256)": "62e9e669",
    "computeId(address,uint256)": "5fdb07f6",
    "convertToAssets(uint256)": "07a2d13a",
    "convertToShares(uint256)": "c6e6f592",
    "currentRateInfo()": "95d14ca8",
    "decimals()": "313ce567",
    "deposit(uint256,address)": "6e553f65",
    "disableCollateral(address,uint256)": "5b50fbf3",
    "enableCollateral(address,uint256)": "fd1e8c85",
    "enabledCollateral(address,bytes32)": "705f363d",
    "estimatedTotalAssets()": "efbb5cb0",
    "getAcceptedCollaterals()": "8354cc59",
    "getMaturityBalance()": "1104aafd",
    "getMaxBorrow(address)": "fd1c317a",
    "getUserSnapshot(address)": "b68d0a09",
    "instrumentApprovalCondition()": "83e754a0",
    "isLiquid(uint256)": "537d9409",
    "isLocked()": "a4e2d634",
    "isWithdrawAble(address,uint256)": "cd8886ee",
    "liquidateAllPositions()": "50bb4beb",
    "liquidatePosition(uint256)": "cdddd4e5",
    "maxDeposit(address)": "402d267d",
    "maxMint(address)": "c63d75b6",
    "maxRedeem(address)": "d905777e",
    "maxWithdraw(address)": "ce96cb77",
    "mint(uint256,address)": "94bf804d",
    "name()": "06fdde03",
    "nonces(address)": "7ecebe00",
    "onERC721Received(address,address,uint256,bytes)": "150b7a02",
    "onMarketApproval(uint256,uint256)": "416288dd",
    "paused()": "5c975abb",
    "permit(address,address,uint256,uint256,uint8,bytes32,bytes32)": "d505accf",
    "prepareWithdraw()": "49dcf4ed",
    "previewDeposit(uint256)": "ef8b30f7",
    "previewMint(uint256)": "b3d7f6b9",
    "previewRedeem(uint256)": "4cdad506",
    "previewWithdraw(uint256)": "0a28a477",
    "pullRawFunds(uint256)": "d832f791",
    "purchaseERC20(address,(address,uint256),uint256)": "79846203",
    "purchaseERC721(address,(address,uint256))": "d8c26a3e",
    "purchasePrice(address,address,uint256)": "07715f20",
    "r()": "6c8ae38c",
    "rateContract()": "eee24219",
    "rateInitCallData()": "c7be9786",
    "readyForWithdrawal()": "bdf0f253",
    "redeem(uint256,address,address)": "ba087652",
    "redeemUnderlying(uint256)": "852a12e3",
    "removeAvailableCollateral(address,uint256,address)": "dd38677a",
    "removeCollateral(address,uint256,uint256,address,bool)": "d67b5d7a",
    "removeableCollateral(address,uint256,address)": "95ee69ac",
    "repay(uint256,address)": "acb70815",
    "repayWithAmount(uint256,address)": "1fd09567",
    "setUtilizer(address)": "57b25996",
    "setVault(address)": "6817031b",
    "store_internal_balance()": "f3aa68d3",
    "symbol()": "95d89b41",
    "toAssetAmount(uint256,bool)": "404ffa7a",
    "toAssetShares(uint256,bool)": "56968f97",
    "toBorrowAmount(uint256,bool)": "94e301e0",
    "toBorrowShares(uint256,bool)": "c270a544",
    "totalAsset()": "f9557ccb",
    "totalAssetAvailable()": "7426e7a4",
    "totalAssets()": "01e1d114",
    "totalBorrow()": "8285ef40",
    "totalSupply()": "18160ddd",
    "transfer(address,uint256)": "a9059cbb",
    "transferFrom(address,address,uint256)": "23b872dd",
    "triggerAuction(address,address,uint256)": "1e018348",
    "underlying()": "6f307dc3",
    "updateConfig((address,uint256),(uint256,uint256,uint256,bool,uint256,uint256,uint256,uint256))": "cb0fe394",
    "userAuctionIds(address,uint256)": "d6c01dfc",
    "userBorrowShares(address)": "4fd422df",
    "userCollateral(address,uint256)": "cc77a477",
    "userERC20s(bytes32,address)": "8418634f",
    "userERC721s(bytes32)": "32ae4f40",
    "validators(uint256)": "35aa2e44",
    "vault()": "fbfa77cf",
    "withdraw(uint256,address,address)": "b460af94"
  },
  "id": 14
}