{
  "abi": [
    {
      "inputs": [
        {
          "internalType": "address",
          "name": "_vault",
          "type": "address"
        },
        {
          "internalType": "address",
          "name": "_controller",
          "type": "address"
        },
        {
          "internalType": "address",
          "name": "_utilizer",
          "type": "address"
        },
        {
          "internalType": "address",
          "name": "_asset",
          "type": "address"
        },
        {
          "internalType": "string",
          "name": "_name",
          "type": "string"
        },
        {
          "internalType": "string",
          "name": "_symbol",
          "type": "string"
        },
        {
          "internalType": "address",
          "name": "_rateCalculator",
          "type": "address"
        },
        {
          "internalType": "bytes",
          "name": "_rateInitCallData",
          "type": "bytes"
        },
        {
          "components": [
            {
              "internalType": "address",
              "name": "tokenAddress",
              "type": "address"
            },
            {
              "internalType": "uint256",
              "name": "tokenId",
              "type": "uint256"
            }
          ],
          "internalType": "struct PoolInstrument.CollateralLabel[]",
          "name": "_collaterals",
          "type": "tuple[]"
        },
        {
          "components": [
            {
              "internalType": "uint256",
              "name": "totalCollateral",
              "type": "uint256"
            },
            {
              "internalType": "uint256",
              "name": "maxAmount",
              "type": "uint256"
            },
            {
              "internalType": "uint256",
              "name": "maxBorrowAmount",
              "type": "uint256"
            },
            {
              "internalType": "bool",
              "name": "isERC20",
              "type": "bool"
            }
          ],
          "internalType": "struct PoolInstrument.Collateral[]",
          "name": "_collateralDatas",
          "type": "tuple[]"
        }
      ],
      "stateMutability": "nonpayable",
      "type": "constructor"
    },
    {
      "anonymous": false,
      "inputs": [
        {
          "indexed": true,
          "internalType": "address",
          "name": "borrower",
          "type": "address"
        },
        {
          "indexed": false,
          "internalType": "address",
          "name": "collateral",
          "type": "address"
        },
        {
          "indexed": false,
          "internalType": "uint256",
          "name": "tokenId",
          "type": "uint256"
        },
        {
          "indexed": false,
          "internalType": "uint256",
          "name": "amount",
          "type": "uint256"
        }
      ],
      "name": "AddCollateral",
      "type": "event"
    },
    {
      "anonymous": false,
      "inputs": [
        {
          "indexed": true,
          "internalType": "address",
          "name": "owner",
          "type": "address"
        },
        {
          "indexed": true,
          "internalType": "address",
          "name": "spender",
          "type": "address"
        },
        {
          "indexed": false,
          "internalType": "uint256",
          "name": "amount",
          "type": "uint256"
        }
      ],
      "name": "Approval",
      "type": "event"
    },
    {
      "anonymous": false,
      "inputs": [
        {
          "indexed": true,
          "internalType": "uint256",
          "name": "id",
          "type": "uint256"
        },
        {
          "indexed": true,
          "internalType": "address",
          "name": "borrower",
          "type": "address"
        },
        {
          "indexed": true,
          "internalType": "address",
          "name": "collateral",
          "type": "address"
        },
        {
          "indexed": false,
          "internalType": "uint256",
          "name": "tokenId",
          "type": "uint256"
        }
      ],
      "name": "AuctionClosed",
      "type": "event"
    },
    {
      "anonymous": false,
      "inputs": [
        {
          "indexed": true,
          "internalType": "uint256",
          "name": "id",
          "type": "uint256"
        },
        {
          "indexed": true,
          "internalType": "address",
          "name": "borrower",
          "type": "address"
        },
        {
          "indexed": true,
          "internalType": "address",
          "name": "collateral",
          "type": "address"
        },
        {
          "indexed": false,
          "internalType": "uint256",
          "name": "tokenId",
          "type": "uint256"
        }
      ],
      "name": "AuctionCreated",
      "type": "event"
    },
    {
      "anonymous": false,
      "inputs": [
        {
          "indexed": true,
          "internalType": "address",
          "name": "_borrower",
          "type": "address"
        },
        {
          "indexed": false,
          "internalType": "uint256",
          "name": "_amount",
          "type": "uint256"
        },
        {
          "indexed": false,
          "internalType": "uint256",
          "name": "_shares",
          "type": "uint256"
        }
      ],
      "name": "Borrow",
      "type": "event"
    },
    {
      "anonymous": false,
      "inputs": [
        {
          "indexed": true,
          "internalType": "uint256",
          "name": "id",
          "type": "uint256"
        },
        {
          "indexed": true,
          "internalType": "address",
          "name": "buyer",
          "type": "address"
        },
        {
          "indexed": true,
          "internalType": "address",
          "name": "collateral",
          "type": "address"
        },
        {
          "indexed": false,
          "internalType": "uint256",
          "name": "tokenId",
          "type": "uint256"
        },
        {
          "indexed": false,
          "internalType": "uint256",
          "name": "amount",
          "type": "uint256"
        }
      ],
      "name": "CollateralPurchased",
      "type": "event"
    },
    {
      "anonymous": false,
      "inputs": [
        {
          "indexed": true,
          "internalType": "address",
          "name": "caller",
          "type": "address"
        },
        {
          "indexed": true,
          "internalType": "address",
          "name": "owner",
          "type": "address"
        },
        {
          "indexed": false,
          "internalType": "uint256",
          "name": "assets",
          "type": "uint256"
        },
        {
          "indexed": false,
          "internalType": "uint256",
          "name": "shares",
          "type": "uint256"
        }
      ],
      "name": "Deposit",
      "type": "event"
    },
    {
      "anonymous": false,
      "inputs": [
        {
          "indexed": true,
          "internalType": "uint256",
          "name": "timestamp",
          "type": "uint256"
        },
        {
          "indexed": false,
          "internalType": "uint256",
          "name": "interestEarned",
          "type": "uint256"
        },
        {
          "indexed": false,
          "internalType": "uint256",
          "name": "feesAmount",
          "type": "uint256"
        },
        {
          "indexed": false,
          "internalType": "uint256",
          "name": "feesShare",
          "type": "uint256"
        },
        {
          "indexed": false,
          "internalType": "uint64",
          "name": "newRate",
          "type": "uint64"
        }
      ],
      "name": "InterestAdded",
      "type": "event"
    },
    {
      "anonymous": false,
      "inputs": [
        {
          "indexed": true,
          "internalType": "address",
          "name": "to",
          "type": "address"
        },
        {
          "indexed": false,
          "internalType": "uint256",
          "name": "amount",
          "type": "uint256"
        }
      ],
      "name": "LiquidityTransfer",
      "type": "event"
    },
    {
      "anonymous": false,
      "inputs": [
        {
          "indexed": true,
          "internalType": "address",
          "name": "to",
          "type": "address"
        },
        {
          "indexed": false,
          "internalType": "uint256",
          "name": "amount",
          "type": "uint256"
        }
      ],
      "name": "LiquidityTransferFrom",
      "type": "event"
    },
    {
      "anonymous": false,
      "inputs": [
        {
          "indexed": false,
          "internalType": "address",
          "name": "collateral",
          "type": "address"
        },
        {
          "indexed": false,
          "internalType": "uint256",
          "name": "tokenId",
          "type": "uint256"
        },
        {
          "indexed": false,
          "internalType": "uint256",
          "name": "maxAmount",
          "type": "uint256"
        },
        {
          "indexed": false,
          "internalType": "uint256",
          "name": "maxBorrowAmount",
          "type": "uint256"
        },
        {
          "indexed": false,
          "internalType": "bool",
          "name": "isERC20",
          "type": "bool"
        }
      ],
      "name": "NewCollateralAdded",
      "type": "event"
    },
    {
      "anonymous": false,
      "inputs": [
        {
          "indexed": false,
          "internalType": "address",
          "name": "account",
          "type": "address"
        }
      ],
      "name": "Paused",
      "type": "event"
    },
    {
      "anonymous": false,
      "inputs": [
        {
          "indexed": true,
          "internalType": "address",
          "name": "borrower",
          "type": "address"
        },
        {
          "indexed": false,
          "internalType": "address",
          "name": "collateral",
          "type": "address"
        },
        {
          "indexed": false,
          "internalType": "uint256",
          "name": "tokenId",
          "type": "uint256"
        },
        {
          "indexed": false,
          "internalType": "uint256",
          "name": "amount",
          "type": "uint256"
        }
      ],
      "name": "RemoveCollateral",
      "type": "event"
    },
    {
      "anonymous": false,
      "inputs": [
        {
          "indexed": true,
          "internalType": "address",
          "name": "borrower",
          "type": "address"
        },
        {
          "indexed": false,
          "internalType": "uint256",
          "name": "amount",
          "type": "uint256"
        },
        {
          "indexed": false,
          "internalType": "uint256",
          "name": "shares",
          "type": "uint256"
        }
      ],
      "name": "Repay",
      "type": "event"
    },
    {
      "anonymous": false,
      "inputs": [
        {
          "indexed": true,
          "internalType": "address",
          "name": "from",
          "type": "address"
        },
        {
          "indexed": true,
          "internalType": "address",
          "name": "to",
          "type": "address"
        },
        {
          "indexed": false,
          "internalType": "uint256",
          "name": "amount",
          "type": "uint256"
        }
      ],
      "name": "Transfer",
      "type": "event"
    },
    {
      "anonymous": false,
      "inputs": [
        {
          "indexed": false,
          "internalType": "address",
          "name": "account",
          "type": "address"
        }
      ],
      "name": "Unpaused",
      "type": "event"
    },
    {
      "anonymous": false,
      "inputs": [
        {
          "indexed": true,
          "internalType": "address",
          "name": "caller",
          "type": "address"
        },
        {
          "indexed": true,
          "internalType": "address",
          "name": "receiver",
          "type": "address"
        },
        {
          "indexed": true,
          "internalType": "address",
          "name": "owner",
          "type": "address"
        },
        {
          "indexed": false,
          "internalType": "uint256",
          "name": "assets",
          "type": "uint256"
        },
        {
          "indexed": false,
          "internalType": "uint256",
          "name": "shares",
          "type": "uint256"
        }
      ],
      "name": "Withdraw",
      "type": "event"
    },
    {
      "inputs": [],
      "name": "DOMAIN_SEPARATOR",
      "outputs": [
        {
          "internalType": "bytes32",
          "name": "",
          "type": "bytes32"
        }
      ],
      "stateMutability": "view",
      "type": "function"
    },
    {
      "inputs": [],
      "name": "Utilizer",
      "outputs": [
        {
          "internalType": "address",
          "name": "",
          "type": "address"
        }
      ],
      "stateMutability": "view",
      "type": "function"
    },
    {
      "inputs": [
        {
          "internalType": "address",
          "name": "_borrower",
          "type": "address"
        }
      ],
      "name": "_canBorrow",
      "outputs": [
        {
          "internalType": "bool",
          "name": "",
          "type": "bool"
        }
      ],
      "stateMutability": "view",
      "type": "function"
    },
    {
      "inputs": [
        {
          "internalType": "address",
          "name": "_borrower",
          "type": "address"
        }
      ],
      "name": "_isLiquidatable",
      "outputs": [
        {
          "internalType": "bool",
          "name": "",
          "type": "bool"
        },
        {
          "internalType": "int256",
          "name": "accountLiq",
          "type": "int256"
        }
      ],
      "stateMutability": "view",
      "type": "function"
    },
    {
      "inputs": [
        {
          "internalType": "address",
          "name": "_collateral",
          "type": "address"
        },
        {
          "internalType": "uint256",
          "name": "_tokenId",
          "type": "uint256"
        },
        {
          "internalType": "uint256",
          "name": "_maxAmount",
          "type": "uint256"
        },
        {
          "internalType": "uint256",
          "name": "_maxBorrowAmount",
          "type": "uint256"
        },
        {
          "internalType": "bool",
          "name": "_isERC20",
          "type": "bool"
        }
      ],
      "name": "addAcceptedCollateral",
      "outputs": [],
      "stateMutability": "nonpayable",
      "type": "function"
    },
    {
      "inputs": [
        {
          "internalType": "address",
          "name": "_collateral",
          "type": "address"
        },
        {
          "internalType": "uint256",
          "name": "_tokenId",
          "type": "uint256"
        },
        {
          "internalType": "uint256",
          "name": "_collateralAmount",
          "type": "uint256"
        },
        {
          "internalType": "address",
          "name": "_borrower",
          "type": "address"
        }
      ],
      "name": "addCollateral",
      "outputs": [],
      "stateMutability": "nonpayable",
      "type": "function"
    },
    {
      "inputs": [],
      "name": "addInterest",
      "outputs": [
        {
          "internalType": "uint256",
          "name": "_interestEarned",
          "type": "uint256"
        },
        {
          "internalType": "uint256",
          "name": "_feesAmount",
          "type": "uint256"
        },
        {
          "internalType": "uint256",
          "name": "_feesShare",
          "type": "uint256"
        },
        {
          "internalType": "uint64",
          "name": "_newRate",
          "type": "uint64"
        }
      ],
      "stateMutability": "nonpayable",
      "type": "function"
    },
    {
      "inputs": [
        {
          "internalType": "address",
          "name": "",
          "type": "address"
        },
        {
          "internalType": "address",
          "name": "",
          "type": "address"
        }
      ],
      "name": "allowance",
      "outputs": [
        {
          "internalType": "uint256",
          "name": "",
          "type": "uint256"
        }
      ],
      "stateMutability": "view",
      "type": "function"
    },
    {
      "inputs": [
        {
          "internalType": "address",
          "name": "spender",
          "type": "address"
        },
        {
          "internalType": "uint256",
          "name": "amount",
          "type": "uint256"
        }
      ],
      "name": "approve",
      "outputs": [
        {
          "internalType": "bool",
          "name": "",
          "type": "bool"
        }
      ],
      "stateMutability": "nonpayable",
      "type": "function"
    },
    {
      "inputs": [
        {
          "internalType": "address",
          "name": "",
          "type": "address"
        },
        {
          "internalType": "uint256",
          "name": "",
          "type": "uint256"
        }
      ],
      "name": "approvedCollateral",
      "outputs": [
        {
          "internalType": "bool",
          "name": "",
          "type": "bool"
        }
      ],
      "stateMutability": "view",
      "type": "function"
    },
    {
      "inputs": [],
      "name": "asset",
      "outputs": [
        {
          "internalType": "contract ERC20",
          "name": "",
          "type": "address"
        }
      ],
      "stateMutability": "view",
      "type": "function"
    },
    {
      "inputs": [
        {
          "internalType": "address",
          "name": "",
          "type": "address"
        }
      ],
      "name": "balanceOf",
      "outputs": [
        {
          "internalType": "uint256",
          "name": "",
          "type": "uint256"
        }
      ],
      "stateMutability": "view",
      "type": "function"
    },
    {
      "inputs": [
        {
          "internalType": "address",
          "name": "user",
          "type": "address"
        }
      ],
      "name": "balanceOfUnderlying",
      "outputs": [
        {
          "internalType": "uint256",
          "name": "",
          "type": "uint256"
        }
      ],
      "stateMutability": "view",
      "type": "function"
    },
    {
      "inputs": [
        {
          "internalType": "uint256",
          "name": "_borrowAmount",
          "type": "uint256"
        },
        {
          "internalType": "address",
          "name": "_collateral",
          "type": "address"
        },
        {
          "internalType": "uint256",
          "name": "_tokenId",
          "type": "uint256"
        },
        {
          "internalType": "uint256",
          "name": "_collateralAmount",
          "type": "uint256"
        },
        {
          "internalType": "address",
          "name": "_reciever",
          "type": "address"
        }
      ],
      "name": "borrow",
      "outputs": [
        {
          "internalType": "uint256",
          "name": "_shares",
          "type": "uint256"
        }
      ],
      "stateMutability": "nonpayable",
      "type": "function"
    },
    {
      "inputs": [
        {
          "internalType": "uint256",
          "name": "_borrowAmount",
          "type": "uint256"
        }
      ],
      "name": "borrowLiquidityAvailable",
      "outputs": [
        {
          "internalType": "bool",
          "name": "",
          "type": "bool"
        }
      ],
      "stateMutability": "view",
      "type": "function"
    },
    {
      "inputs": [
        {
          "internalType": "address",
          "name": "",
          "type": "address"
        },
        {
          "internalType": "uint256",
          "name": "",
          "type": "uint256"
        }
      ],
      "name": "collateralData",
      "outputs": [
        {
          "internalType": "uint256",
          "name": "totalCollateral",
          "type": "uint256"
        },
        {
          "internalType": "uint256",
          "name": "maxAmount",
          "type": "uint256"
        },
        {
          "internalType": "uint256",
          "name": "maxBorrowAmount",
          "type": "uint256"
        },
        {
          "internalType": "bool",
          "name": "isERC20",
          "type": "bool"
        }
      ],
      "stateMutability": "view",
      "type": "function"
    },
    {
      "inputs": [
        {
          "internalType": "uint256",
          "name": "shares",
          "type": "uint256"
        }
      ],
      "name": "convertToAssets",
      "outputs": [
        {
          "internalType": "uint256",
          "name": "",
          "type": "uint256"
        }
      ],
      "stateMutability": "view",
      "type": "function"
    },
    {
      "inputs": [
        {
          "internalType": "uint256",
          "name": "assets",
          "type": "uint256"
        }
      ],
      "name": "convertToShares",
      "outputs": [
        {
          "internalType": "uint256",
          "name": "",
          "type": "uint256"
        }
      ],
      "stateMutability": "view",
      "type": "function"
    },
    {
      "inputs": [],
      "name": "currentRateInfo",
      "outputs": [
        {
          "internalType": "uint64",
          "name": "lastBlock",
          "type": "uint64"
        },
        {
          "internalType": "uint64",
          "name": "lastTimestamp",
          "type": "uint64"
        },
        {
          "internalType": "uint64",
          "name": "ratePerSec",
          "type": "uint64"
        }
      ],
      "stateMutability": "view",
      "type": "function"
    },
    {
      "inputs": [],
      "name": "decimals",
      "outputs": [
        {
          "internalType": "uint8",
          "name": "",
          "type": "uint8"
        }
      ],
      "stateMutability": "view",
      "type": "function"
    },
    {
      "inputs": [
        {
          "internalType": "uint256",
          "name": "assets",
          "type": "uint256"
        },
        {
          "internalType": "address",
          "name": "receiver",
          "type": "address"
        }
      ],
      "name": "deposit",
      "outputs": [
        {
          "internalType": "uint256",
          "name": "shares",
          "type": "uint256"
        }
      ],
      "stateMutability": "nonpayable",
      "type": "function"
    },
    {
      "inputs": [],
      "name": "estimatedTotalAssets",
      "outputs": [
        {
          "internalType": "uint256",
          "name": "",
          "type": "uint256"
        }
      ],
      "stateMutability": "view",
      "type": "function"
    },
    {
      "inputs": [],
      "name": "getAcceptedCollaterals",
      "outputs": [
        {
          "components": [
            {
              "internalType": "address",
              "name": "tokenAddress",
              "type": "address"
            },
            {
              "internalType": "uint256",
              "name": "tokenId",
              "type": "uint256"
            }
          ],
          "internalType": "struct PoolInstrument.CollateralLabel[]",
          "name": "",
          "type": "tuple[]"
        }
      ],
      "stateMutability": "view",
      "type": "function"
    },
    {
      "inputs": [],
      "name": "getMaturityBalance",
      "outputs": [
        {
          "internalType": "uint256",
          "name": "",
          "type": "uint256"
        }
      ],
      "stateMutability": "view",
      "type": "function"
    },
    {
      "inputs": [
        {
          "internalType": "address",
          "name": "_borrower",
          "type": "address"
        }
      ],
      "name": "getMaxBorrow",
      "outputs": [
        {
          "internalType": "uint256",
          "name": "_maxBorrowableAmount",
          "type": "uint256"
        }
      ],
      "stateMutability": "view",
      "type": "function"
    },
    {
      "inputs": [
        {
          "internalType": "address",
          "name": "_address",
          "type": "address"
        }
      ],
      "name": "getUserSnapshot",
      "outputs": [
        {
          "internalType": "uint256",
          "name": "_userAssetShares",
          "type": "uint256"
        },
        {
          "internalType": "uint256",
          "name": "_userAssetAmount",
          "type": "uint256"
        },
        {
          "internalType": "uint256",
          "name": "_userBorrowShares",
          "type": "uint256"
        },
        {
          "internalType": "uint256",
          "name": "_userBorrowAmount",
          "type": "uint256"
        },
        {
          "internalType": "int256",
          "name": "_userAccountLiquidity",
          "type": "int256"
        }
      ],
      "stateMutability": "view",
      "type": "function"
    },
    {
      "inputs": [],
      "name": "instrumentApprovalCondition",
      "outputs": [
        {
          "internalType": "bool",
          "name": "",
          "type": "bool"
        }
      ],
      "stateMutability": "view",
      "type": "function"
    },
    {
      "inputs": [
        {
          "internalType": "uint256",
          "name": "amount",
          "type": "uint256"
        }
      ],
      "name": "isLiquid",
      "outputs": [
        {
          "internalType": "bool",
          "name": "",
          "type": "bool"
        }
      ],
      "stateMutability": "view",
      "type": "function"
    },
    {
      "inputs": [],
      "name": "isLocked",
      "outputs": [
        {
          "internalType": "bool",
          "name": "",
          "type": "bool"
        }
      ],
      "stateMutability": "view",
      "type": "function"
    },
    {
      "inputs": [
        {
          "internalType": "address",
          "name": "holder",
          "type": "address"
        },
        {
          "internalType": "uint256",
          "name": "amount",
          "type": "uint256"
        }
      ],
      "name": "isWithdrawAble",
      "outputs": [
        {
          "internalType": "bool",
          "name": "",
          "type": "bool"
        }
      ],
      "stateMutability": "view",
      "type": "function"
    },
    {
      "inputs": [
        {
          "internalType": "address",
          "name": "_borrower",
          "type": "address"
        }
      ],
      "name": "liquidate",
      "outputs": [
        {
          "components": [
            {
              "internalType": "address",
              "name": "tokenAddress",
              "type": "address"
            },
            {
              "internalType": "uint256",
              "name": "tokenId",
              "type": "uint256"
            }
          ],
          "internalType": "struct PoolInstrument.CollateralLabel",
          "name": "_collateral",
          "type": "tuple"
        },
        {
          "internalType": "uint256",
          "name": "_auctionId",
          "type": "uint256"
        }
      ],
      "stateMutability": "nonpayable",
      "type": "function"
    },
    {
      "inputs": [],
      "name": "liquidateAllPositions",
      "outputs": [
        {
          "internalType": "uint256",
          "name": "_amountFreed",
          "type": "uint256"
        }
      ],
      "stateMutability": "nonpayable",
      "type": "function"
    },
    {
      "inputs": [
        {
          "internalType": "uint256",
          "name": "_amountNeeded",
          "type": "uint256"
        }
      ],
      "name": "liquidatePosition",
      "outputs": [
        {
          "internalType": "uint256",
          "name": "_liquidatedAmount",
          "type": "uint256"
        },
        {
          "internalType": "uint256",
          "name": "_loss",
          "type": "uint256"
        }
      ],
      "stateMutability": "nonpayable",
      "type": "function"
    },
    {
      "inputs": [
        {
          "internalType": "address",
          "name": "",
          "type": "address"
        }
      ],
      "name": "maxDeposit",
      "outputs": [
        {
          "internalType": "uint256",
          "name": "",
          "type": "uint256"
        }
      ],
      "stateMutability": "view",
      "type": "function"
    },
    {
      "inputs": [
        {
          "internalType": "address",
          "name": "",
          "type": "address"
        }
      ],
      "name": "maxMint",
      "outputs": [
        {
          "internalType": "uint256",
          "name": "",
          "type": "uint256"
        }
      ],
      "stateMutability": "view",
      "type": "function"
    },
    {
      "inputs": [
        {
          "internalType": "address",
          "name": "owner",
          "type": "address"
        }
      ],
      "name": "maxRedeem",
      "outputs": [
        {
          "internalType": "uint256",
          "name": "",
          "type": "uint256"
        }
      ],
      "stateMutability": "view",
      "type": "function"
    },
    {
      "inputs": [
        {
          "internalType": "address",
          "name": "owner",
          "type": "address"
        }
      ],
      "name": "maxWithdraw",
      "outputs": [
        {
          "internalType": "uint256",
          "name": "",
          "type": "uint256"
        }
      ],
      "stateMutability": "view",
      "type": "function"
    },
    {
      "inputs": [
        {
          "internalType": "uint256",
          "name": "shares",
          "type": "uint256"
        },
        {
          "internalType": "address",
          "name": "receiver",
          "type": "address"
        }
      ],
      "name": "mint",
      "outputs": [
        {
          "internalType": "uint256",
          "name": "assets",
          "type": "uint256"
        }
      ],
      "stateMutability": "nonpayable",
      "type": "function"
    },
    {
      "inputs": [],
      "name": "name",
      "outputs": [
        {
          "internalType": "string",
          "name": "",
          "type": "string"
        }
      ],
      "stateMutability": "view",
      "type": "function"
    },
    {
      "inputs": [
        {
          "internalType": "address",
          "name": "",
          "type": "address"
        }
      ],
      "name": "nonces",
      "outputs": [
        {
          "internalType": "uint256",
          "name": "",
          "type": "uint256"
        }
      ],
      "stateMutability": "view",
      "type": "function"
    },
    {
      "inputs": [],
      "name": "numAuctions",
      "outputs": [
        {
          "internalType": "uint256",
          "name": "",
          "type": "uint256"
        }
      ],
      "stateMutability": "view",
      "type": "function"
    },
    {
      "inputs": [
        {
          "internalType": "address",
          "name": "",
          "type": "address"
        },
        {
          "internalType": "address",
          "name": "",
          "type": "address"
        },
        {
          "internalType": "uint256",
          "name": "",
          "type": "uint256"
        },
        {
          "internalType": "bytes",
          "name": "",
          "type": "bytes"
        }
      ],
      "name": "onERC721Received",
      "outputs": [
        {
          "internalType": "bytes4",
          "name": "",
          "type": "bytes4"
        }
      ],
      "stateMutability": "nonpayable",
      "type": "function"
    },
    {
      "inputs": [
        {
          "internalType": "uint256",
          "name": "principal",
          "type": "uint256"
        },
        {
          "internalType": "uint256",
          "name": "yield",
          "type": "uint256"
        }
      ],
      "name": "onMarketApproval",
      "outputs": [],
      "stateMutability": "nonpayable",
      "type": "function"
    },
    {
      "inputs": [],
      "name": "paused",
      "outputs": [
        {
          "internalType": "bool",
          "name": "",
          "type": "bool"
        }
      ],
      "stateMutability": "view",
      "type": "function"
    },
    {
      "inputs": [
        {
          "internalType": "address",
          "name": "owner",
          "type": "address"
        },
        {
          "internalType": "address",
          "name": "spender",
          "type": "address"
        },
        {
          "internalType": "uint256",
          "name": "value",
          "type": "uint256"
        },
        {
          "internalType": "uint256",
          "name": "deadline",
          "type": "uint256"
        },
        {
          "internalType": "uint8",
          "name": "v",
          "type": "uint8"
        },
        {
          "internalType": "bytes32",
          "name": "r",
          "type": "bytes32"
        },
        {
          "internalType": "bytes32",
          "name": "s",
          "type": "bytes32"
        }
      ],
      "name": "permit",
      "outputs": [],
      "stateMutability": "nonpayable",
      "type": "function"
    },
    {
      "inputs": [],
      "name": "prepareWithdraw",
      "outputs": [
        {
          "internalType": "uint256",
          "name": "_profit",
          "type": "uint256"
        },
        {
          "internalType": "uint256",
          "name": "_loss",
          "type": "uint256"
        },
        {
          "internalType": "uint256",
          "name": "_debtPayment",
          "type": "uint256"
        }
      ],
      "stateMutability": "nonpayable",
      "type": "function"
    },
    {
      "inputs": [
        {
          "internalType": "uint256",
          "name": "assets",
          "type": "uint256"
        }
      ],
      "name": "previewDeposit",
      "outputs": [
        {
          "internalType": "uint256",
          "name": "",
          "type": "uint256"
        }
      ],
      "stateMutability": "view",
      "type": "function"
    },
    {
      "inputs": [
        {
          "internalType": "uint256",
          "name": "shares",
          "type": "uint256"
        }
      ],
      "name": "previewMint",
      "outputs": [
        {
          "internalType": "uint256",
          "name": "",
          "type": "uint256"
        }
      ],
      "stateMutability": "view",
      "type": "function"
    },
    {
      "inputs": [
        {
          "internalType": "uint256",
          "name": "shares",
          "type": "uint256"
        }
      ],
      "name": "previewRedeem",
      "outputs": [
        {
          "internalType": "uint256",
          "name": "",
          "type": "uint256"
        }
      ],
      "stateMutability": "view",
      "type": "function"
    },
    {
      "inputs": [
        {
          "internalType": "uint256",
          "name": "assets",
          "type": "uint256"
        }
      ],
      "name": "previewWithdraw",
      "outputs": [
        {
          "internalType": "uint256",
          "name": "",
          "type": "uint256"
        }
      ],
      "stateMutability": "view",
      "type": "function"
    },
    {
      "inputs": [
        {
          "internalType": "uint256",
          "name": "amount",
          "type": "uint256"
        }
      ],
      "name": "pullRawFunds",
      "outputs": [],
      "stateMutability": "nonpayable",
      "type": "function"
    },
    {
      "inputs": [],
      "name": "rateContract",
      "outputs": [
        {
          "internalType": "contract IRateCalculator",
          "name": "",
          "type": "address"
        }
      ],
      "stateMutability": "view",
      "type": "function"
    },
    {
      "inputs": [],
      "name": "rateInitCallData",
      "outputs": [
        {
          "internalType": "bytes",
          "name": "",
          "type": "bytes"
        }
      ],
      "stateMutability": "view",
      "type": "function"
    },
    {
      "inputs": [],
      "name": "readyForWithdrawal",
      "outputs": [
        {
          "internalType": "bool",
          "name": "",
          "type": "bool"
        }
      ],
      "stateMutability": "view",
      "type": "function"
    },
    {
      "inputs": [
        {
          "internalType": "uint256",
          "name": "shares",
          "type": "uint256"
        },
        {
          "internalType": "address",
          "name": "receiver",
          "type": "address"
        },
        {
          "internalType": "address",
          "name": "owner",
          "type": "address"
        }
      ],
      "name": "redeem",
      "outputs": [
        {
          "internalType": "uint256",
          "name": "assets",
          "type": "uint256"
        }
      ],
      "stateMutability": "nonpayable",
      "type": "function"
    },
    {
      "inputs": [
        {
          "internalType": "uint256",
          "name": "amount",
          "type": "uint256"
        }
      ],
      "name": "redeemUnderlying",
      "outputs": [
        {
          "internalType": "bool",
          "name": "",
          "type": "bool"
        }
      ],
      "stateMutability": "nonpayable",
      "type": "function"
    },
    {
      "inputs": [
        {
          "internalType": "address",
          "name": "_collateral",
          "type": "address"
        },
        {
          "internalType": "uint256",
          "name": "_tokenId",
          "type": "uint256"
        },
        {
          "internalType": "address",
          "name": "_receiver",
          "type": "address"
        }
      ],
      "name": "removeAvailableCollateral",
      "outputs": [
        {
          "internalType": "uint256",
          "name": "removeable",
          "type": "uint256"
        }
      ],
      "stateMutability": "nonpayable",
      "type": "function"
    },
    {
      "inputs": [
        {
          "internalType": "address",
          "name": "_collateral",
          "type": "address"
        },
        {
          "internalType": "uint256",
          "name": "_tokenId",
          "type": "uint256"
        },
        {
          "internalType": "uint256",
          "name": "_collateralAmount",
          "type": "uint256"
        },
        {
          "internalType": "address",
          "name": "_receiver",
          "type": "address"
        }
      ],
      "name": "removeCollateral",
      "outputs": [],
      "stateMutability": "nonpayable",
      "type": "function"
    },
    {
      "inputs": [
        {
          "internalType": "address",
          "name": "_borrower",
          "type": "address"
        },
        {
          "internalType": "uint256",
          "name": "tokenId",
          "type": "uint256"
        },
        {
          "internalType": "address",
          "name": "collateral",
          "type": "address"
        }
      ],
      "name": "removeableCollateral",
      "outputs": [
        {
          "internalType": "uint256",
          "name": "",
          "type": "uint256"
        }
      ],
      "stateMutability": "view",
      "type": "function"
    },
    {
      "inputs": [
        {
          "internalType": "uint256",
          "name": "_shares",
          "type": "uint256"
        },
        {
          "internalType": "address",
          "name": "_borrower",
          "type": "address"
        }
      ],
      "name": "repay",
      "outputs": [
        {
          "internalType": "uint256",
          "name": "_amountToRepay",
          "type": "uint256"
        }
      ],
      "stateMutability": "nonpayable",
      "type": "function"
    },
    {
      "inputs": [
        {
          "internalType": "uint256",
          "name": "_amount",
          "type": "uint256"
        },
        {
          "internalType": "address",
          "name": "_borrower",
          "type": "address"
        }
      ],
      "name": "repayWithAmount",
      "outputs": [
        {
          "internalType": "uint256",
          "name": "_sharesToRepay",
          "type": "uint256"
        }
      ],
      "stateMutability": "nonpayable",
      "type": "function"
    },
    {
      "inputs": [
        {
          "internalType": "address",
          "name": "_Utilizer",
          "type": "address"
        }
      ],
      "name": "setUtilizer",
      "outputs": [],
      "stateMutability": "nonpayable",
      "type": "function"
    },
    {
      "inputs": [
        {
          "internalType": "address",
          "name": "newVault",
          "type": "address"
        }
      ],
      "name": "setVault",
      "outputs": [],
      "stateMutability": "nonpayable",
      "type": "function"
    },
    {
      "inputs": [],
      "name": "store_internal_balance",
      "outputs": [],
      "stateMutability": "nonpayable",
      "type": "function"
    },
    {
      "inputs": [],
      "name": "symbol",
      "outputs": [
        {
          "internalType": "string",
          "name": "",
          "type": "string"
        }
      ],
      "stateMutability": "view",
      "type": "function"
    },
    {
      "inputs": [
        {
          "internalType": "uint256",
          "name": "_shares",
          "type": "uint256"
        },
        {
          "internalType": "bool",
          "name": "_roundUp",
          "type": "bool"
        }
      ],
      "name": "toAssetAmount",
      "outputs": [
        {
          "internalType": "uint256",
          "name": "",
          "type": "uint256"
        }
      ],
      "stateMutability": "view",
      "type": "function"
    },
    {
      "inputs": [
        {
          "internalType": "uint256",
          "name": "_amount",
          "type": "uint256"
        },
        {
          "internalType": "bool",
          "name": "_roundUp",
          "type": "bool"
        }
      ],
      "name": "toAssetShares",
      "outputs": [
        {
          "internalType": "uint256",
          "name": "",
          "type": "uint256"
        }
      ],
      "stateMutability": "view",
      "type": "function"
    },
    {
      "inputs": [
        {
          "internalType": "uint256",
          "name": "_shares",
          "type": "uint256"
        },
        {
          "internalType": "bool",
          "name": "_roundUp",
          "type": "bool"
        }
      ],
      "name": "toBorrowAmount",
      "outputs": [
        {
          "internalType": "uint256",
          "name": "",
          "type": "uint256"
        }
      ],
      "stateMutability": "view",
      "type": "function"
    },
    {
      "inputs": [
        {
          "internalType": "uint256",
          "name": "_amount",
          "type": "uint256"
        },
        {
          "internalType": "bool",
          "name": "_roundUp",
          "type": "bool"
        }
      ],
      "name": "toBorrowShares",
      "outputs": [
        {
          "internalType": "uint256",
          "name": "",
          "type": "uint256"
        }
      ],
      "stateMutability": "view",
      "type": "function"
    },
    {
      "inputs": [],
      "name": "totalAsset",
      "outputs": [
        {
          "internalType": "uint128",
          "name": "amount",
          "type": "uint128"
        },
        {
          "internalType": "uint128",
          "name": "shares",
          "type": "uint128"
        }
      ],
      "stateMutability": "view",
      "type": "function"
    },
    {
      "inputs": [],
      "name": "totalAssetAvailable",
      "outputs": [
        {
          "internalType": "uint256",
          "name": "",
          "type": "uint256"
        }
      ],
      "stateMutability": "view",
      "type": "function"
    },
    {
      "inputs": [],
      "name": "totalAssets",
      "outputs": [
        {
          "internalType": "uint256",
          "name": "",
          "type": "uint256"
        }
      ],
      "stateMutability": "view",
      "type": "function"
    },
    {
      "inputs": [],
      "name": "totalBorrow",
      "outputs": [
        {
          "internalType": "uint128",
          "name": "amount",
          "type": "uint128"
        },
        {
          "internalType": "uint128",
          "name": "shares",
          "type": "uint128"
        }
      ],
      "stateMutability": "view",
      "type": "function"
    },
    {
      "inputs": [],
      "name": "totalSupply",
      "outputs": [
        {
          "internalType": "uint256",
          "name": "",
          "type": "uint256"
        }
      ],
      "stateMutability": "view",
      "type": "function"
    },
    {
      "inputs": [
        {
          "internalType": "address",
          "name": "to",
          "type": "address"
        },
        {
          "internalType": "uint256",
          "name": "amount",
          "type": "uint256"
        }
      ],
      "name": "transfer",
      "outputs": [
        {
          "internalType": "bool",
          "name": "",
          "type": "bool"
        }
      ],
      "stateMutability": "nonpayable",
      "type": "function"
    },
    {
      "inputs": [
        {
          "internalType": "address",
          "name": "from",
          "type": "address"
        },
        {
          "internalType": "address",
          "name": "to",
          "type": "address"
        },
        {
          "internalType": "uint256",
          "name": "amount",
          "type": "uint256"
        }
      ],
      "name": "transferFrom",
      "outputs": [
        {
          "internalType": "bool",
          "name": "",
          "type": "bool"
        }
      ],
      "stateMutability": "nonpayable",
      "type": "function"
    },
    {
      "inputs": [],
      "name": "underlying",
      "outputs": [
        {
          "internalType": "contract ERC20",
          "name": "",
          "type": "address"
        }
      ],
      "stateMutability": "view",
      "type": "function"
    },
    {
      "inputs": [
        {
          "internalType": "address",
          "name": "",
          "type": "address"
        }
      ],
      "name": "userAuctionId",
      "outputs": [
        {
          "internalType": "uint256",
          "name": "",
          "type": "uint256"
        }
      ],
      "stateMutability": "view",
      "type": "function"
    },
    {
      "inputs": [
        {
          "internalType": "address",
          "name": "",
          "type": "address"
        }
      ],
      "name": "userBorrowShares",
      "outputs": [
        {
          "internalType": "uint256",
          "name": "",
          "type": "uint256"
        }
      ],
      "stateMutability": "view",
      "type": "function"
    },
    {
      "inputs": [
        {
          "internalType": "address",
          "name": "",
          "type": "address"
        },
        {
          "internalType": "address",
          "name": "",
          "type": "address"
        }
      ],
      "name": "userCollateralERC20",
      "outputs": [
        {
          "internalType": "uint256",
          "name": "",
          "type": "uint256"
        }
      ],
      "stateMutability": "view",
      "type": "function"
    },
    {
      "inputs": [
        {
          "internalType": "address",
          "name": "",
          "type": "address"
        },
        {
          "internalType": "uint256",
          "name": "",
          "type": "uint256"
        }
      ],
      "name": "userCollateralNFTs",
      "outputs": [
        {
          "internalType": "address",
          "name": "",
          "type": "address"
        }
      ],
      "stateMutability": "view",
      "type": "function"
    },
    {
      "inputs": [
        {
          "internalType": "uint256",
          "name": "",
          "type": "uint256"
        }
      ],
      "name": "validators",
      "outputs": [
        {
          "internalType": "address",
          "name": "",
          "type": "address"
        }
      ],
      "stateMutability": "view",
      "type": "function"
    },
    {
      "inputs": [],
      "name": "vault",
      "outputs": [
        {
          "internalType": "contract Vault",
          "name": "",
          "type": "address"
        }
      ],
      "stateMutability": "view",
      "type": "function"
    },
    {
      "inputs": [
        {
          "internalType": "uint256",
          "name": "assets",
          "type": "uint256"
        },
        {
          "internalType": "address",
          "name": "receiver",
          "type": "address"
        },
        {
          "internalType": "address",
          "name": "owner",
          "type": "address"
        }
      ],
      "name": "withdraw",
      "outputs": [
        {
          "internalType": "uint256",
          "name": "shares",
          "type": "uint256"
        }
      ],
      "stateMutability": "nonpayable",
      "type": "function"
    }
  ],
  "bytecode": {
    "object": "0x6101006040526001600d553480156200001757600080fd5b50604051620057f1380380620057f18339810160408190526200003a9162000796565b89888888888181846001600160a01b031663313ce5676040518163ffffffff1660e01b8152600401602060405180830381865afa15801562000080573d6000803e3d6000fd5b505050506040513d601f19601f82011682018060405250810190620000a69190620008d7565b6000620000b4848262000992565b506001620000c3838262000992565b5060ff81166080524660a052620000d96200041a565b60c052505050506001600160a01b0391821660e05250600780546001600160a01b0319169184169182179055604080516362eb326360e11b8152905163c5d664c6916004808201926020929091908290030181865afa15801562000141573d6000803e3d6000fd5b505050506040513d601f19601f8201168201806040525081019062000167919062000a5e565b600680546001600160a01b0319166001600160a01b0392831690811790915560405163095ea7b360e01b8152918416600483015260001960248301529063095ea7b3906044016020604051808303816000875af1158015620001cd573d6000803e3d6000fd5b505050506040513d601f19601f82011682018060405250810190620001f3919062000a7e565b50600a80546001600160a01b03199081166001600160a01b0393841617909155600e805460ff19169055601c805482168d84161790556018805490911691871691909117905550601962000248848262000992565b5060185460405163453f31d560e01b81526001600160a01b039091169063453f31d5906200027b90869060040162000a9c565b60006040518083038186803b1580156200029457600080fd5b505afa158015620002a9573d6000803e3d6000fd5b5050505060005b82518110156200040957601b838281518110620002d157620002d162000ad1565b6020908102919091018101518254600180820185556000948552838520835160029093020180546001600160a01b0319166001600160a01b039093169290921782559190920151910155825183908390811062000332576200033262000ad1565b602002602001015190506000816000018181525050806011600086858151811062000361576200036162000ad1565b6020026020010151600001516001600160a01b03166001600160a01b031681526020019081526020016000206000868581518110620003a457620003a462000ad1565b60209081029190910181015181015182528181019290925260409081016000208351815591830151600183015582015160028201556060909101516003909101805460ff19169115159190911790555080620004008162000ae7565b915050620002b0565b505050505050505050505062000b8d565b60007f8b73c3c69bb8fe3d512ecc4cf759cc79239f7b179b0ffacaa9a75d522b39400f60006040516200044e919062000b0f565b6040805191829003822060208301939093528101919091527fc89efdaa54c0f20c7adf612882df0950f5a951637e0307cdcb4c672f298b8bc660608201524660808201523060a082015260c00160405160208183030381529060405280519060200120905090565b6001600160a01b0381168114620004cc57600080fd5b50565b8051620004dc81620004b6565b919050565b634e487b7160e01b600052604160045260246000fd5b604080519081016001600160401b03811182821017156200051c576200051c620004e1565b60405290565b604051608081016001600160401b03811182821017156200051c576200051c620004e1565b604051601f8201601f191681016001600160401b0381118282101715620005725762000572620004e1565b604052919050565b60005b83811015620005975781810151838201526020016200057d565b50506000910152565b600082601f830112620005b257600080fd5b81516001600160401b03811115620005ce57620005ce620004e1565b620005e3601f8201601f191660200162000547565b818152846020838601011115620005f957600080fd5b6200060c8260208301602087016200057a565b949350505050565b60006001600160401b03821115620006305762000630620004e1565b5060051b60200190565b600082601f8301126200064c57600080fd5b81516020620006656200065f8362000614565b62000547565b82815260069290921b840181019181810190868411156200068557600080fd5b8286015b84811015620006d45760408189031215620006a45760008081fd5b620006ae620004f7565b8151620006bb81620004b6565b8152818501518582015283529183019160400162000689565b509695505050505050565b80518015158114620004dc57600080fd5b600082601f8301126200070257600080fd5b81516020620007156200065f8362000614565b82815260079290921b840181019181810190868411156200073557600080fd5b8286015b84811015620006d45760808189031215620007545760008081fd5b6200075e62000522565b81518152848201518582015260408083015190820152606062000783818401620006df565b9082015283529183019160800162000739565b6000806000806000806000806000806101408b8d031215620007b757600080fd5b620007c28b620004cf565b9950620007d260208c01620004cf565b9850620007e260408c01620004cf565b9750620007f260608c01620004cf565b60808c01519097506001600160401b03808211156200081057600080fd5b6200081e8e838f01620005a0565b975060a08d01519150808211156200083557600080fd5b620008438e838f01620005a0565b96506200085360c08e01620004cf565b955060e08d01519150808211156200086a57600080fd5b620008788e838f01620005a0565b94506101008d01519150808211156200089057600080fd5b6200089e8e838f016200063a565b93506101208d0151915080821115620008b657600080fd5b50620008c58d828e01620006f0565b9150509295989b9194979a5092959850565b600060208284031215620008ea57600080fd5b815160ff81168114620008fc57600080fd5b9392505050565b600181811c908216806200091857607f821691505b6020821081036200093957634e487b7160e01b600052602260045260246000fd5b50919050565b601f8211156200098d57600081815260208120601f850160051c81016020861015620009685750805b601f850160051c820191505b81811015620009895782815560010162000974565b5050505b505050565b81516001600160401b03811115620009ae57620009ae620004e1565b620009c681620009bf845462000903565b846200093f565b602080601f831160018114620009fe5760008415620009e55750858301515b600019600386901b1c1916600185901b17855562000989565b600085815260208120601f198616915b8281101562000a2f5788860151825594840194600190910190840162000a0e565b508582101562000a4e5787850151600019600388901b60f8161c191681555b5050505050600190811b01905550565b60006020828403121562000a7157600080fd5b8151620008fc81620004b6565b60006020828403121562000a9157600080fd5b620008fc82620006df565b602081526000825180602084015262000abd8160408501602087016200057a565b601f01601f19169190910160400192915050565b634e487b7160e01b600052603260045260246000fd5b60006001820162000b0857634e487b7160e01b600052601160045260246000fd5b5060010190565b600080835462000b1f8162000903565b6001828116801562000b3a576001811462000b505762000b81565b60ff198416875282151583028701945062000b81565b8760005260208060002060005b8581101562000b785781548a82015290840190820162000b5d565b50505082870194505b50929695505050505050565b60805160a05160c05160e051614c0062000bf16000396000818161070d01528181611e4601528181612050015281816123b6015281816125c90152818161367301526138f801526000611314015260006112df015260006106640152614c006000f3fe608060405234801561001057600080fd5b50600436106104ac5760003560e01c806370a082311161026d578063bdf0f25311610151578063d832f791116100ce578063ef8b30f711610092578063ef8b30f71461051c578063efbb5cb0146107fa578063f3aa68d314610c92578063f9557ccb14610c9a578063fbfa77cf14610cb8578063fd1c317a14610ccb57600080fd5b8063d832f79114610c05578063d905777e14610c18578063dd38677a14610c41578063dd62ed3e14610c54578063eee2421914610c7f57600080fd5b8063cd8886ee11610115578063cd8886ee14610b81578063cdddd4e514610b94578063ce96cb7714610bbf578063d505accf14610bd2578063d7da630214610be557600080fd5b8063bdf0f253146109a7578063c270a54414610b53578063c63d75b614610742578063c6e6f59214610b66578063c7be978614610b7957600080fd5b806394e301e0116101ea578063a9059cbb116101ae578063a9059cbb14610acc578063acb7081514610adf578063b3d7f6b9146107c7578063b460af9414610af2578063b68d0a0914610b05578063ba08765214610b4057600080fd5b806394e301e014610a3957806395d14ca814610a4c57806395d89b4114610a9f57806395ee69ac14610aa7578063a4e2d63414610aba57600080fd5b8063838e9ae311610231578063838e9ae31461097357806383e754a0146109a7578063852a12e3146109ae5780639189ed1c146109c157806394bf804d14610a2657600080fd5b806370a08231146108d85780637426e7a4146108f85780637ecebe00146109005780638285ef40146109205780638354cc591461095e57600080fd5b80633af9e66911610394578063537d940911610311578063601b4aed116102d5578063601b4aed1461084e5780636578dcfe14610879578063670c62221461088c5780636817031b1461089f5780636e553f65146108b25780636f307dc3146108c557600080fd5b8063537d94091461080157806356968f971461081457806357b25996146108275780635c113acc1461083a5780635c975abb1461084357600080fd5b806349dcf4ed1161035857806349dcf4ed146107915780634be085d9146107b45780634cdad506146107c75780634fd422df146107da57806350bb4beb146107fa57600080fd5b80633af9e6691461072f578063402d267d14610742578063404ffa7a14610757578063416288dd1461076a57806346c114171461077e57600080fd5b80631c5ef1ab1161042d578063313ce567116103f1578063313ce5671461065f578063350896fe1461069857806335aa2e44146106c35780633644e515146106d657806338094ae7146106de57806338d52e0f1461070857600080fd5b80631c5ef1ab146105d75780631f17b2c4146105ea5780631fd09567146105fd57806323b872dd146106105780632f8655681461062357600080fd5b80630d09365c116104745780630d09365c1461052f57806310b181b4146105605780631104aafd1461058e578063150b7a021461059657806318160ddd146105ce57600080fd5b806301e1d114146104b157806306fdde03146104d157806307a2d13a146104e6578063095ea7b3146104f95780630a28a4771461051c575b600080fd5b6010546001600160801b03165b6040519081526020015b60405180910390f35b6104d9610cde565b6040516104c89190614250565b6104be6104f4366004614263565b610d6c565b61050c610507366004614291565b610da8565b60405190151581526020016104c8565b6104be61052a366004614263565b610e14565b610537610e1f565b604080519485526020850193909352918301526001600160401b031660608201526080016104c8565b61050c61056e366004614291565b601260209081526000928352604080842090915290825290205460ff1681565b6008546104be565b6105b56105a43660046142bd565b630a85bd0160e11b95945050505050565b6040516001600160e01b031990911681526020016104c8565b6104be60025481565b6104be6105e536600461435b565b610e70565b61050c6105f83660046143b1565b610f95565b6104be61060b3660046143ce565b611034565b61050c61061e3660046143fe565b6110bc565b6106366106313660046143b1565b61119e565b6040805183516001600160a01b03168152602093840151938101939093528201526060016104c8565b6106867f000000000000000000000000000000000000000000000000000000000000000081565b60405160ff90911681526020016104c8565b600a546106ab906001600160a01b031681565b6040516001600160a01b0390911681526020016104c8565b6106ab6106d1366004614263565b6112b1565b6104be6112db565b6106f16106ec3660046143b1565b611336565b6040805192151583526020830191909152016104c8565b6106ab7f000000000000000000000000000000000000000000000000000000000000000081565b6104be61073d3660046143b1565b6115f0565b6104be6107503660046143b1565b5060001990565b6104be61076536600461444d565b6116eb565b61077c610778366004614472565b5050565b005b61077c61078c366004614494565b611721565b6107996117dd565b604080519384526020840192909252908201526060016104c8565b61077c6107c23660046144de565b61182b565b6104be6107d5366004614263565b611a86565b6104be6107e83660046143b1565b60156020526000908152604090205481565b60006104be565b61050c61080f366004614263565b611a91565b6104be61082236600461444d565b611ad8565b61077c6108353660046143b1565b611b0e565b6104be60175481565b600e5460ff1661050c565b6104be61085c366004614526565b601360209081526000928352604080842090915290825290205481565b61050c610887366004614263565b611c04565b61077c61089a366004614494565b611c77565b61077c6108ad3660046143b1565b611d0b565b6104be6108c03660046143ce565b611dee565b6006546106ab906001600160a01b031681565b6104be6108e63660046143b1565b60036020526000908152604090205481565b6104be611ec8565b6104be61090e3660046143b1565b60056020526000908152604090205481565b600f5461093e906001600160801b0380821691600160801b90041682565b604080516001600160801b039384168152929091166020830152016104c8565b610966611f1b565b6040516104c89190614554565b6106ab610981366004614291565b60146020908152600092835260408084209091529082529020546001600160a01b031681565b600161050c565b61050c6109bc366004614263565b611f90565b610a046109cf366004614291565b601160209081526000928352604080842090915290825290208054600182015460028301546003909301549192909160ff1684565b60408051948552602085019390935291830152151560608201526080016104c8565b6104be610a343660046143ce565b612036565b6104be610a4736600461444d565b6120d2565b601a54610a75906001600160401b0380821691600160401b8104821691600160801b9091041683565b604080516001600160401b03948516815292841660208401529216918101919091526060016104c8565b6104d9612108565b6104be610ab53660046145b4565b612115565b600754600160a01b900460ff1661050c565b61050c610ada366004614291565b6121c1565b6104be610aed3660046143ce565b612227565b6104be610b003660046145f6565b6122cf565b610b18610b133660046143b1565b6123dd565b604080519586526020860194909452928401919091526060830152608082015260a0016104c8565b6104be610b4e3660046145f6565b6124a4565b6104be610b6136600461444d565b6125f0565b6104be610b74366004614263565b612626565b6104d961265c565b61050c610b8f366004614291565b612669565b610baa610ba2366004614263565b600080915091565b604080519283526020830191909152016104c8565b6104be610bcd3660046143b1565b6126a8565b61077c610be036600461463c565b6126ca565b6104be610bf33660046143b1565b60166020526000908152604090205481565b61077c610c13366004614263565b61290e565b6104be610c263660046143b1565b6001600160a01b031660009081526003602052604090205490565b6104be610c4f3660046145b4565b6129a4565b6104be610c62366004614526565b600460209081526000928352604080842090915290825290205481565b6018546106ab906001600160a01b031681565b61077c612a70565b60105461093e906001600160801b0380821691600160801b90041682565b6007546106ab906001600160a01b031681565b6104be610cd93660046143b1565b612b95565b60008054610ceb906146ad565b80601f0160208091040260200160405190810160405280929190818152602001828054610d17906146ad565b8015610d645780601f10610d3957610100808354040283529160200191610d64565b820191906000526020600020905b815481529060010190602001808311610d4757829003601f168201915b505050505081565b604080518082019091526010546001600160801b038082168352600160801b909104166020820152600090610da2908383612d9b565b92915050565b3360008181526004602090815260408083206001600160a01b038716808552925280832085905551919290917f8c5be1e5ebec7d5bd14f71427d1e84f3dd0314c0f7b2291e5b200ac8c7c3b92590610e039086815260200190565b60405180910390a350600192915050565b6000610da282612626565b600080600080600d54600114610e505760405162461bcd60e51b8152600401610e47906146e1565b60405180910390fd5b6002600d55610e5d612e37565b6001600d55929791965094509092509050565b600033600d54600114610e955760405162461bcd60e51b8152600401610e47906146e1565b6002600d55610ea26132ae565b610eaa612e37565b505050506001600160a01b03861615801590610ed057506000841180610ed05750600085115b15610f4d576001600160a01b038616600090815260126020908152604080832088845290915290205460ff16610f405760405162461bcd60e51b81526020600482015260156024820152741d5b985c1c1c9bdd99590818dbdb1b185d195c985b605a1b6044820152606401610e47565b610f4d33878633896132f4565b610f5f610f59886134aa565b846134c0565b6001600d559150610f6f81610f95565b610f8b5760405162461bcd60e51b8152600401610e4790614705565b5095945050505050565b600080610fa183612b95565b6001600160a01b03841660009081526015602052604081205491925003610fcb5750600192915050565b80600003610fdc5750600092915050565b6001600160a01b0383166000908152601560209081526040808320548151808301909252600f546001600160801b038082168452600160801b909104169282019290925261102c92909190612d9b565b111592915050565b6000600d546001146110585760405162461bcd60e51b8152600401610e47906146e1565b6002600d5560408051808201909152600f546001600160801b038082168352600160801b909104166020820152611091818560016136ab565b91506110b0816110a0866134aa565b6110a9856134aa565b3387613720565b506001600d5592915050565b6001600160a01b03831660009081526004602090815260408083203384529091528120546000198114611118576110f3838261474a565b6001600160a01b03861660009081526004602090815260408083203384529091529020555b6001600160a01b0385166000908152600360205260408120805485929061114090849061474a565b90915550506001600160a01b0380851660008181526003602052604090819020805487019055519091871690600080516020614bab833981519152906111899087815260200190565b60405180910390a360019150505b9392505050565b60408051808201909152600080825260208201526000600d546001146111d65760405162461bcd60e51b8152600401610e47906146e1565b6002600d556111e3612e37565b505050506000806111f385611336565b91509150816112445760405162461bcd60e51b815260206004820152601c60248201527f626f72726f776572206973206e6f74206c6971756964617461626c65000000006044820152606401610e47565b6001600160a01b038516600090815260166020526040902054156112a35760405162461bcd60e51b815260206004820152601660248201527561756374696f6e20616c72656164792065786973747360501b6044820152606401610e47565b50506001600d559092909150565b600b81815481106112c157600080fd5b6000918252602090912001546001600160a01b0316905081565b60007f000000000000000000000000000000000000000000000000000000000000000046146113115761130c613929565b905090565b507f000000000000000000000000000000000000000000000000000000000000000090565b6000806000805b601b54811015611537576000601b828154811061135c5761135c61475d565b60009182526020808320604080518082018252600294850290920180546001600160a01b03168084526001918201548486019081529087526011855282872090518752845294819020815160808101835281548152958101549386019390935292820154928401929092526003015460ff161580156060840181905291935061140b575081516001600160a01b039081166000908152601360209081526040808320938b168352929052205415155b156114dc57600082600001516001600160a01b031663313ce5676040518163ffffffff1660e01b8152600401602060405180830381865afa158015611454573d6000803e3d6000fd5b505050506040513d601f19601f820116820180604052508101906114789190614773565b60ff16905061148881600a614874565b60208084015185516001600160a01b039081166000908152601384526040808220928e16825291909352909120546114c09190614880565b6114ca9190614897565b6114d490866148b9565b945050611522565b81516001600160a01b03908116600090815260146020908152604080832082870151845290915290205481891691160361152257602081015161151f90856148b9565b93505b5050808061152f906148cc565b91505061133d565b506001600160a01b0384166000908152601560209081526040808320548151808301909252600f546001600160801b038082168452600160801b909104169282019290925261158892909190612d9b565b6001600160a01b0385166000908152601560209081526040808320548151808301909252600f546001600160801b038082168452600160801b9091041692820192909252928410926115dc92909190612d9b565b6115e690836148e5565b9250925050915091565b6000306001600160a01b0383160361167d576009546006546040516370a0823160e01b81526001600160a01b038581166004830152909116906370a0823190602401602060405180830381865afa15801561164f573d6000803e3d6000fd5b505050506040513d601f19601f82011682018060405250810190611673919061490c565b610da2919061474a565b6006546040516370a0823160e01b81526001600160a01b038481166004830152909116906370a0823190602401602060405180830381865afa1580156116c7573d6000803e3d6000fd5b505050506040513d601f19601f82011682018060405250810190610da2919061490c565b604080518082019091526010546001600160801b038082168352600160801b909104166020820152600090611197908484612d9b565b600d546001146117435760405162461bcd60e51b8152600401610e47906146e1565b6002600d556001600160a01b038416600090815260126020908152604080832086845290915290205433908590859060ff166117915760405162461bcd60e51b8152600401610e4790614925565b611799612e37565b505050506117aa87868833886139c3565b50506117b581610f95565b6117d15760405162461bcd60e51b8152600401610e4790614705565b50506001600d55505050565b600754600090819081906001600160a01b0316331461180e5760405162461bcd60e51b8152600401610e479061495c565b6118266007805460ff60a01b1916600160a01b179055565b909192565b601c546001600160a01b031633148061184e57506007546001600160a01b031633145b61186a5760405162461bcd60e51b8152600401610e479061498a565b6001600160a01b038516600090815260126020908152604080832087845290915290205460ff16611a7f578183116118fb5760405162461bcd60e51b815260206004820152602e60248201527f6d6178416d6f756e74206d7573742062652067726561746572207468616e206d60448201526d185e109bdc9c9bddd05b5bdd5b9d60921b6064820152608401610e47565b6001600160a01b0380861660008181526012602090815260408083208984528252808320805460ff199081166001908117909255825180840184528681528085018c8152601b80548086018255908852915160029283027f3ad8aa4f87544323a9d1e5dd902f40c356527a7955687113db5f9a85ad579dc18101805492909b166001600160a01b031990921691909117909955517f3ad8aa4f87544323a9d1e5dd902f40c356527a7955687113db5f9a85ad579dc29098019790975582516080810184528581528085018b81528185018b81528a151560608401908152988852601187528588208e8952909652958490209051815594519185019190915591519483019490945591516003909101805491151591909216179055517fd1fdb567cb88f0aa0ea77e4ee416e7098c8fe3cf1a23195fddd4a1fb137b1f3090611a7690879087908790879087906001600160a01b039590951685526020850193909352604084019190915260608301521515608082015260a00190565b60405180910390a15b5050505050565b6000610da282610d6c565b6000611ac6604051806040016040528060088152602001671a5cdb1a5c5d5a5960c21b815250611ac0306115f0565b84613cec565b81611ad0306115f0565b101592915050565b604080518082019091526010546001600160801b038082168352600160801b9091041660208201526000906111979084846136ab565b600760009054906101000a90046001600160a01b03166001600160a01b0316638da5cb5b6040518163ffffffff1660e01b8152600401602060405180830381865afa158015611b61573d6000803e3d6000fd5b505050506040513d601f19601f82011682018060405250810190611b8591906149af565b6001600160a01b0316336001600160a01b03161480611bb35750336000908152600c602052604090205460ff165b611bcf5760405162461bcd60e51b8152600401610e479061498a565b6001600160a01b038116611be257600080fd5b600a80546001600160a01b0319166001600160a01b0392909216919091179055565b604080518082018252600f546001600160801b038082168352600160801b918290048116602080850191909152845180860190955260105480831686529290920416908301526000918290611c599083613d38565b905083811015611c6d575060009392505050565b5060019392505050565b6001600160a01b03841660009081526012602090815260408083208684529091529020548490849060ff16611cbe5760405162461bcd60e51b8152600401610e4790614925565b600d54600114611ce05760405162461bcd60e51b8152600401610e47906146e1565b6002600d55611ced612e37565b50505050611cfe33878686896132f4565b50506001600d5550505050565b600760009054906101000a90046001600160a01b03166001600160a01b0316638da5cb5b6040518163ffffffff1660e01b8152600401602060405180830381865afa158015611d5e573d6000803e3d6000fd5b505050506040513d601f19601f82011682018060405250810190611d8291906149af565b6001600160a01b0316336001600160a01b03161480611db05750336000908152600c602052604090205460ff165b611dcc5760405162461bcd60e51b8152600401610e479061498a565b600780546001600160a01b0319166001600160a01b0392909216919091179055565b6000611df983610e14565b905080600003611e395760405162461bcd60e51b815260206004820152600b60248201526a5a45524f5f53484152455360a81b6044820152606401610e47565b611e6e6001600160a01b037f000000000000000000000000000000000000000000000000000000000000000016333086613d58565b611e788282613ddb565b60408051848152602081018390526001600160a01b0384169133917fdcbc1c05240f31ff3ad067ef1ee35ce4997762752e3a095284754544f4c709d7910160405180910390a3610da28382613e35565b6040805180820182526010546001600160801b038082168352600160801b9182900481166020808501919091528451808601909552600f54808316865292909204169083015260009161130c9190613d38565b6060601b805480602002602001604051908101604052809291908181526020016000905b82821015611f87576000848152602090819020604080518082019091526002850290910180546001600160a01b03168252600190810154828401529083529092019101611f3f565b50505050905090565b6007546000906001600160a01b03163314611fbd5760405162461bcd60e51b8152600401610e479061495c565b60065460075460405163a9059cbb60e01b81526001600160a01b0391821660048201526024810185905291169063a9059cbb906044016020604051808303816000875af1158015612012573d6000803e3d6000fd5b505050506040513d601f19601f82011682018060405250810190610da291906149cc565b600061204183611a86565b90506120786001600160a01b037f000000000000000000000000000000000000000000000000000000000000000016333084613d58565b6120828284613ddb565b60408051828152602081018590526001600160a01b0384169133917fdcbc1c05240f31ff3ad067ef1ee35ce4997762752e3a095284754544f4c709d7910160405180910390a3610da28184613e35565b60408051808201909152600f546001600160801b038082168352600160801b909104166020820152600090611197908484612d9b565b60018054610ceb906146ad565b60008061212185612b95565b6001600160a01b038085166000908152601160209081526040808320898452825280832060020154938a1683526015825291829020548251808401909352600f546001600160801b038082168552600160801b909104169183019190915292935090918291612191916001612d9b565b61219b908461474a565b6121ad90670de0b6b3a7640000614880565b6121b79190614897565b9695505050505050565b336000908152600360205260408120805483919083906121e290849061474a565b90915550506001600160a01b03831660008181526003602052604090819020805485019055513390600080516020614bab83398151915290610e039086815260200190565b6000600d5460011461224b5760405162461bcd60e51b8152600401610e47906146e1565b6002600d5560408051808201909152600f546001600160801b038082168352600160801b90910416602082015261228481856001612d9b565b91506122b960405180604001604052806011815260200170030b6b7bab73a103a37903932b830bc9d1607d1b81525083613f0d565b6110b0816122c6846134aa565b6110a9876134aa565b60006122da84610e14565b9050336001600160a01b0383161461234a576001600160a01b0382166000908152600460209081526040808320338452909152902054600019811461234857612323828261474a565b6001600160a01b03841660009081526004602090815260408083203384529091529020555b505b6123548482613f52565b61235e82826140c3565b60408051858152602081018390526001600160a01b03808516929086169133917ffbde797d201c681b91056529119e0b02407c7bb96a4a2c75c01fc9667232c8db910160405180910390a46111976001600160a01b037f0000000000000000000000000000000000000000000000000000000000000000168486614125565b6001600160a01b03811660009081526003602090815260408083205481518083019092526010546001600160801b038082168452600160801b9091041692820192909252909190819081908190612435908683612d9b565b6001600160a01b0387166000908152601560209081526040808320548151808301909252600f546001600160801b038082168452600160801b9091041692820192909252929650945061248a91908590612d9b565b915061249586611336565b90508091505091939590929450565b6000336001600160a01b03831614612514576001600160a01b03821660009081526004602090815260408083203384529091529020546000198114612512576124ed858261474a565b6001600160a01b03841660009081526004602090815260408083203384529091529020555b505b61251d84611a86565b90508060000361255d5760405162461bcd60e51b815260206004820152600b60248201526a5a45524f5f41535345545360a81b6044820152606401610e47565b6125678185613f52565b61257182856140c3565b60408051828152602081018690526001600160a01b03808516929086169133917ffbde797d201c681b91056529119e0b02407c7bb96a4a2c75c01fc9667232c8db910160405180910390a46111976001600160a01b037f0000000000000000000000000000000000000000000000000000000000000000168483614125565b60408051808201909152600f546001600160801b038082168352600160801b9091041660208201526000906111979084846136ab565b604080518082019091526010546001600160801b038082168352600160801b909104166020820152600090610da29083836136ab565b60198054610ceb906146ad565b6001600160a01b038216600090815260036020526040812054829061268d90611a86565b1015801561119757508161269f611ec8565b10159392505050565b6001600160a01b038116600090815260036020526040812054610da290610d6c565b4284101561271a5760405162461bcd60e51b815260206004820152601760248201527f5045524d49545f444541444c494e455f455850495245440000000000000000006044820152606401610e47565b600060016127266112db565b6001600160a01b038a811660008181526005602090815260409182902080546001810190915582517f6e71edae12b1b97f4d1f60370fef10105fa2faae0126114a169c64845d6126c98184015280840194909452938d166060840152608083018c905260a083019390935260c08083018b90528151808403909101815260e08301909152805192019190912061190160f01b6101008301526101028201929092526101228101919091526101420160408051601f198184030181528282528051602091820120600084529083018083525260ff871690820152606081018590526080810184905260a0016020604051602081039080840390855afa158015612832573d6000803e3d6000fd5b5050604051601f1901519150506001600160a01b038116158015906128685750876001600160a01b0316816001600160a01b0316145b6128a55760405162461bcd60e51b815260206004820152600e60248201526d24a72b20a624a22fa9a4a3a722a960911b6044820152606401610e47565b6001600160a01b0390811660009081526004602090815260408083208a8516808552908352928190208990555188815291928a16917f8c5be1e5ebec7d5bd14f71427d1e84f3dd0314c0f7b2291e5b200ac8c7c3b925910160405180910390a350505050505050565b6006546040516323b872dd60e01b8152336004820152306024820152604481018390526001600160a01b03909116906323b872dd906064016020604051808303816000875af1158015612965573d6000803e3d6000fd5b505050506040513d601f19601f8201168201806040525081019061298991906149cc565b50806009600082825461299c91906148b9565b909155505050565b6000600d546001146129c85760405162461bcd60e51b8152600401610e47906146e1565b6002600d556001600160a01b038416600090815260126020908152604080832086845290915290205433908590859060ff16612a165760405162461bcd60e51b8152600401610e4790614925565b612a1e612e37565b50505050612a2d338789612115565b9350612a3c87858833896139c3565b5050612a4781610f95565b612a635760405162461bcd60e51b8152600401610e4790614705565b506001600d559392505050565b6007546001600160a01b03163314612a9a5760405162461bcd60e51b8152600401610e479061495c565b612aa3306115f0565b60085560075460408051637e0b9fe360e11b815290516001600160a01b039092169163fc173fc6916004808201926020929091908290030181865afa158015612af0573d6000803e3d6000fd5b505050506040513d601f19601f82011682018060405250810190612b1491906149cc565b15612b9357600754600854604051634b674ead60e11b81526001600160a01b03909216916396ce9d5a91612b4e9160040190815260200190565b602060405180830381865afa158015612b6b573d6000803e3d6000fd5b505050506040513d601f19601f82011682018060405250810190612b8f919061490c565b6008555b565b6000805b601b54811015612d95576000601b8281548110612bb857612bb861475d565b60009182526020808320604080518082018252600294850290920180546001600160a01b03168084526001918201548486019081529087526011855282872090518752845294819020815160808101835281548152958101549386019390935292820154928401929092526003015460ff1615801560608401819052919350612c67575081516001600160a01b0390811660009081526013602090815260408083209389168352929052205415155b15612d3a57600082600001516001600160a01b031663313ce5676040518163ffffffff1660e01b8152600401602060405180830381865afa158015612cb0573d6000803e3d6000fd5b505050506040513d601f19601f82011682018060405250810190612cd49190614773565b60ff169050612ce481600a614874565b60408084015185516001600160a01b03908116600090815260136020908152848220928c168252919091529190912054612d1e9190614880565b612d289190614897565b612d3290866148b9565b945050612d80565b81516001600160a01b039081166000908152601460209081526040808320828701518452909152902054818716911603612d80576040810151612d7d90856148b9565b93505b50508080612d8d906148cc565b915050612b99565b50919050565b600083602001516001600160801b0316600003612db9575081611197565b602084015184516001600160801b0391821691612dd7911685614880565b612de19190614897565b9050818015612e1f57508284600001516001600160801b031685602001516001600160801b031683612e139190614880565b612e1d9190614897565b105b1561119757612e2f8160016148b9565b949350505050565b60408051606081018252601a546001600160401b038082168352600160401b8204811660208401819052600160801b909204169282019290925260009182918291829190429003612e8d576040015190506132a8565b6040805180820182526010546001600160801b038082168352600160801b91829004811660208085019190915284518086018652600f548084168252939093049091168282018190528451808601909552601785527f746f74616c20626f72726f776572207368617265733a200000000000000000009185019190915291929091612f189190613f0d565b60208101516001600160801b03161580612f345750600e5460ff165b15612fac57600e5460ff16612f4e5763096ba6c460408401525b6001600160401b0342811660208501819052438216808652601a80546040880151909416600160801b0267ffffffffffffffff60801b19600160401b9094026001600160801b0319909516909217939093179190911617905561321f565b600083602001516001600160401b031642612fc7919061474a565b835183519192506000916001600160801b0391821691612feb9116620186a0614880565b612ff59190614897565b905060008560400151838388600001516001600160401b031643613019919061474a565b604080516001600160401b0390951660208601528401929092526060830152608082015260a00160408051601f1981840301815290829052601854631b54c1a360e01b83529092506001600160a01b031690631b54c1a3906130829084906019906004016149e9565b602060405180830381865afa15801561309f573d6000803e3d6000fd5b505050506040513d601f19601f820116820180604052508101906130c39190614a84565b6001600160401b038082166040890181905242821660208a01524390911688528551919850670de0b6b3a764000091613105906001600160801b031686614880565b61310f9190614880565b6131199190614897565b8451909a506001600160801b03906131339082168c6148b9565b11158015613156575084516001600160801b03906131539082168c6148b9565b11155b1561319757898460000181815161316d9190614aad565b6001600160801b031690525084518a90869061318a908390614aad565b6001600160801b03169052505b505082516020808501516001600160801b03928316600160801b9184168202176010558651601a80548985015160408b01516001600160401b039485166001600160801b031990931692909217600160401b918516919091021767ffffffffffffffff60801b1916921683029190911790558451918501519183169190921690910217600f55505b6132526040518060400160405280601181526020017002fb4b73a32b932b9ba22b0b93732b21d1607d1b81525088613f0d565b60408051888152602081018890529081018690526001600160401b038516606082015242907fb3f1ab1acc425f7672dd56d1f8912f1e1b18909cd52aef680190f13adb38a9659060800160405180910390a25050505b90919293565b600e5460ff1615612b935760405162461bcd60e51b815260206004820152601060248201526f14185d5cd8589b194e881c185d5cd95960821b6044820152606401610e47565b6001600160a01b03808516600090815260116020908152604080832085845290915290206003015460ff1690861630146134525780156133bd576001600160a01b038086166000908152601360209081526040808320938716835292905290812080548692906133659084906148b9565b90915550506001600160a01b03851660009081526011602090815260408083208380529091528120805486929061339d9084906148b9565b909155506133b890506001600160a01b038616873087613d58565b613452565b6001600160a01b0385811660008181526014602090815260408083208784529091529081902080546001600160a01b03191687851617905551632142170760e11b8152918816600483015230602483015260448201849052906342842e0e90606401600060405180830381600087803b15801561343957600080fd5b505af115801561344d573d6000803e3d6000fd5b505050505b604080516001600160a01b03878116825260208201859052918101869052908416907f33a089d94f9a0b7d0fe21e69b40d7dbe1965be652c7382cc778d46963db8c49b906060015b60405180910390a2505050505050565b6000600160801b82106134bc57600080fd5b5090565b604080518082018252600f546001600160801b038082168352600160801b9182900481166020808501919091528451808601909552601054808316865292909204169083015260009182906135159083613d38565b9050846001600160801b031681101561357c5760405162461bcd60e51b815260206004820152602360248201527f696e73756666696369656e7420636f6e74726163742061737365742062616c616044820152626e636560e81b6064820152608401610e47565b613591826001600160801b03871660016136ab565b925084826000018181516135a59190614aad565b6001600160801b03169052506020820180518491906135c5908390614aad565b6001600160801b0390811690915283516020808601518316600160801b029190921617600f55336000908152601590915260408120805486935090919061360d9084906148b9565b9091555050604080516001600160801b03871681526020810185905233917fe1979fe4c35e0cef342fef5668e2c8e7a7e9f5d5d1ca8fee0ac6c427fa4153af910160405180910390a26001600160a01b03841630146136a3576136a36001600160a01b037f000000000000000000000000000000000000000000000000000000000000000016856001600160801b038816614125565b505092915050565b82516000906001600160801b031681036136c6575081611197565b835160208501516001600160801b03918216916136e4911685614880565b6136ee9190614897565b9050818015612e1f57508284602001516001600160801b031685600001516001600160801b031683612e139190614880565b6137546040518060400160405280600981526020016802fb9b430b932b99d160bd1b815250846001600160801b0316613f0d565b61378f6040518060400160405280601081526020016f02fb0b6b7bab73a2a37a932b830bc9d160851b815250856001600160801b0316613f0d565b6137f36040518060400160405280601d81526020017f75736572426f72726f775368617265735b5f626f72726f7765725d3a2000000081525060156000846001600160a01b03166001600160a01b0316815260200190815260200160002054613f0d565b83856000018181516138059190614acd565b6001600160801b0316905250602085018051849190613825908390614acd565b6001600160801b039081169091526001600160a01b0383166000908152601560205260408120805492871693509161385e90849061474a565b9091555050845160208601516001600160801b03908116600160801b02911617600f556040516001600160a01b038216907f77c6871227e5d2dec8dadd5354f78453203e22e669cd0ec4c19d9a8c5edb31d0906138d390879087906001600160801b0392831681529116602082015260400190565b60405180910390a26001600160a01b0382163014611a7f57611a7f6001600160a01b037f00000000000000000000000000000000000000000000000000000000000000001683306001600160801b038816613d58565b60007f8b73c3c69bb8fe3d512ecc4cf759cc79239f7b179b0ffacaa9a75d522b39400f600060405161395b9190614aed565b6040805191829003822060208301939093528101919091527fc89efdaa54c0f20c7adf612882df0950f5a951637e0307cdcb4c672f298b8bc660608201524660808201523060a082015260c00160405160208183030381529060405280519060200120905090565b6001600160a01b03808616600090815260116020908152604080832087845290915290206003015460ff169082163014613ca0578015613ba557613a3b6040518060400160405280601981526020017f72656d6f76696e6720657263323020636f6c6c61746572616c000000000000008152506141a3565b604080518082018252601581527403ab9b2b921b7b63630ba32b930b632b93199181d1605d1b6020808301919091526001600160a01b03808a16600090815260138352848120918816815291529190912054613a979190613f0d565b613acb60405180604001604052806012815260200171031b7b63630ba32b930b620b6b7bab73a1d160751b81525086613f0d565b604080518082018252600781526603a37ba30b61d160cd1b6020808301919091526001600160a01b0389166000908152601182528381208180529091529190912054613b179190613f0d565b6001600160a01b03808716600090815260136020908152604080832093871683529290529081208054879290613b4e90849061474a565b90915550506001600160a01b038616600090815260116020908152604080832083805290915281208054879290613b8690849061474a565b90915550613ba090506001600160a01b0387168387614125565b613ca0565b6001600160a01b038681166000908152601460209081526040808320888452909152902054811690841614613c0f5760405162461bcd60e51b815260206004820152601060248201526f1b9bdd081bdddb995c881bd9881b999d60821b6044820152606401610e47565b6001600160a01b0386811660008181526014602090815260408083208984529091529081902080546001600160a01b031916905551632142170760e11b8152306004820152918416602483015260448201869052906342842e0e90606401600060405180830381600087803b158015613c8757600080fd5b505af1158015613c9b573d6000803e3d6000fd5b505050505b604080516001600160a01b03888116825260208201879052918101879052908416907f37c4d2e6036e28a1f1ed3eed26620e1e370df577673d4eb2decef5d3ea44a9499060600161349a565b613d33838383604051602401613d0493929190614b63565b60408051601f198184030181529190526020810180516001600160e01b031663969cdd0360e01b1790526141e9565b505050565b80518251600091613d4891614acd565b6001600160801b03169392505050565b60006040516323b872dd60e01b81528460048201528360248201528260448201526020600060648360008a5af13d15601f3d1160016000511416171691505080611a7f5760405162461bcd60e51b81526020600482015260146024820152731514905394d1915497d19493d357d1905253115160621b6044820152606401610e47565b8060026000828254613ded91906148b9565b90915550506001600160a01b038216600081815260036020908152604080832080548601905551848152600080516020614bab83398151915291015b60405180910390a35050565b6007546001600160a01b03163314613e7b5760405162461bcd60e51b8152602060048201526009602482015268139bdd0815985d5b1d60ba1b6044820152606401610e47565b604080518082019091526010546001600160801b038082168352600160801b909104166020820152613eac836134aa565b81518290613ebb908390614aad565b6001600160801b0316905250613ed0826134aa565b81602001818151613ee19190614aad565b6001600160801b0390811690915282516020909301518116600160801b02921691909117601055505050565b6107788282604051602401613f23929190614b88565b60408051601f198184030181529190526020810180516001600160e01b03166309710a9d60e41b1790526141e9565b6007546001600160a01b03163314613f985760405162461bcd60e51b8152602060048201526009602482015268139bdd0815985d5b1d60ba1b6044820152606401610e47565b6040805180820182526010546001600160801b038082168352600160801b9182900481166020808501919091528451808601909552600f548083168652929092041690830152600091613feb9190613d38565b9050828110156140305760405162461bcd60e51b815260206004820152601060248201526f1b9bdd08195b9bdd59da08185cdcd95d60821b6044820152606401610e47565b604080518082019091526010546001600160801b038082168352600160801b909104166020820152614061846134aa565b81518290614070908390614acd565b6001600160801b0316905250614085836134aa565b816020018181516140969190614acd565b6001600160801b0390811690915282516020909301518116600160801b0292169190911760105550505050565b6001600160a01b038216600090815260036020526040812080548392906140eb90849061474a565b90915550506002805482900390556040518181526000906001600160a01b03841690600080516020614bab83398151915290602001613e29565b600060405163a9059cbb60e01b8152836004820152826024820152602060006044836000895af13d15601f3d116001600051141617169150508061419d5760405162461bcd60e51b815260206004820152600f60248201526e1514905394d1915497d19052531151608a1b6044820152606401610e47565b50505050565b6141e6816040516024016141b79190614250565b60408051601f198184030181529190526020810180516001600160e01b031663104c13eb60e21b1790526141e9565b50565b80516a636f6e736f6c652e6c6f67602083016000808483855afa5050505050565b6000815180845260005b8181101561423057602081850181015186830182015201614214565b506000602082860101526020601f19601f83011685010191505092915050565b602081526000611197602083018461420a565b60006020828403121561427557600080fd5b5035919050565b6001600160a01b03811681146141e657600080fd5b600080604083850312156142a457600080fd5b82356142af8161427c565b946020939093013593505050565b6000806000806000608086880312156142d557600080fd5b85356142e08161427c565b945060208601356142f08161427c565b93506040860135925060608601356001600160401b038082111561431357600080fd5b818801915088601f83011261432757600080fd5b81358181111561433657600080fd5b89602082850101111561434857600080fd5b9699959850939650602001949392505050565b600080600080600060a0868803121561437357600080fd5b8535945060208601356143858161427c565b9350604086013592506060860135915060808601356143a38161427c565b809150509295509295909350565b6000602082840312156143c357600080fd5b81356111978161427c565b600080604083850312156143e157600080fd5b8235915060208301356143f38161427c565b809150509250929050565b60008060006060848603121561441357600080fd5b833561441e8161427c565b9250602084013561442e8161427c565b929592945050506040919091013590565b80151581146141e657600080fd5b6000806040838503121561446057600080fd5b8235915060208301356143f38161443f565b6000806040838503121561448557600080fd5b50508035926020909101359150565b600080600080608085870312156144aa57600080fd5b84356144b58161427c565b9350602085013592506040850135915060608501356144d38161427c565b939692955090935050565b600080600080600060a086880312156144f657600080fd5b85356145018161427c565b945060208601359350604086013592506060860135915060808601356143a38161443f565b6000806040838503121561453957600080fd5b82356145448161427c565b915060208301356143f38161427c565b602080825282518282018190526000919060409081850190868401855b828110156145a75761459784835180516001600160a01b03168252602090810151910152565b9284019290850190600101614571565b5091979650505050505050565b6000806000606084860312156145c957600080fd5b83356145d48161427c565b92506020840135915060408401356145eb8161427c565b809150509250925092565b60008060006060848603121561460b57600080fd5b83359250602084013561461d8161427c565b915060408401356145eb8161427c565b60ff811681146141e657600080fd5b600080600080600080600060e0888a03121561465757600080fd5b87356146628161427c565b965060208801356146728161427c565b9550604088013594506060880135935060808801356146908161462d565b9699959850939692959460a0840135945060c09093013592915050565b600181811c908216806146c157607f821691505b602082108103612d9557634e487b7160e01b600052602260045260246000fd5b6020808252600a90820152695245454e5452414e435960b01b604082015260600190565b602080825260159082015274189bdc9c9bddd95c881a5cc81a5b9cdbdb1d995b9d605a1b604082015260600190565b634e487b7160e01b600052601160045260246000fd5b81810381811115610da257610da2614734565b634e487b7160e01b600052603260045260246000fd5b60006020828403121561478557600080fd5b81516111978161462d565b600181815b808511156147cb5781600019048211156147b1576147b1614734565b808516156147be57918102915b93841c9390800290614795565b509250929050565b6000826147e257506001610da2565b816147ef57506000610da2565b8160018114614805576002811461480f5761482b565b6001915050610da2565b60ff84111561482057614820614734565b50506001821b610da2565b5060208310610133831016604e8410600b841016171561484e575081810a610da2565b6148588383614790565b806000190482111561486c5761486c614734565b029392505050565b600061119783836147d3565b8082028115828204841417610da257610da2614734565b6000826148b457634e487b7160e01b600052601260045260246000fd5b500490565b80820180821115610da257610da2614734565b6000600182016148de576148de614734565b5060010190565b818103600083128015838313168383128216171561490557614905614734565b5092915050565b60006020828403121561491e57600080fd5b5051919050565b60208082526017908201527f636f6c6c61746572616c206e6f7420617070726f766564000000000000000000604082015260600190565b60208082526014908201527318d85b1b195c881b5d5cdd081899481d985d5b1d60621b604082015260600190565b6020808252600b908201526a08585d5d1a1bdc9a5e995960aa1b604082015260600190565b6000602082840312156149c157600080fd5b81516111978161427c565b6000602082840312156149de57600080fd5b81516111978161443f565b6040815260006149fc604083018561420a565b60208382038185015260008554614a12816146ad565b80855260018281168015614a2d5760018114614a4757614a75565b60ff1984168787015282151560051b870186019450614a75565b896000528560002060005b84811015614a6d578154898201890152908301908701614a52565b880187019550505b50929998505050505050505050565b600060208284031215614a9657600080fd5b81516001600160401b038116811461119757600080fd5b6001600160801b0381811683821601908082111561490557614905614734565b6001600160801b0382811682821603908082111561490557614905614734565b6000808354614afb816146ad565b60018281168015614b135760018114614b2857614b57565b60ff1984168752821515830287019450614b57565b8760005260208060002060005b85811015614b4e5781548a820152908401908201614b35565b50505082870194505b50929695505050505050565b606081526000614b76606083018661420a565b60208301949094525060400152919050565b604081526000614b9b604083018561420a565b9050826020830152939250505056feddf252ad1be2c89b69c2b068fc378daa952ba7f163c4a11628f55a4df523b3efa26469706673582212209b44b72681c12f3304d0ccc802f22ad00e714541fff0ca91e07024ca870968fd64736f6c63430008110033",
    "linkReferences": {}
  },
  "methodIdentifiers": {
    "DOMAIN_SEPARATOR()": "3644e515",
    "Utilizer()": "350896fe",
    "_canBorrow(address)": "1f17b2c4",
    "_isLiquidatable(address)": "38094ae7",
    "addAcceptedCollateral(address,uint256,uint256,uint256,bool)": "4be085d9",
    "addCollateral(address,uint256,uint256,address)": "670c6222",
    "addInterest()": "0d09365c",
    "allowance(address,address)": "dd62ed3e",
    "approve(address,uint256)": "095ea7b3",
    "approvedCollateral(address,uint256)": "10b181b4",
    "asset()": "38d52e0f",
    "balanceOf(address)": "70a08231",
    "balanceOfUnderlying(address)": "3af9e669",
    "borrow(uint256,address,uint256,uint256,address)": "1c5ef1ab",
    "borrowLiquidityAvailable(uint256)": "6578dcfe",
    "collateralData(address,uint256)": "9189ed1c",
    "convertToAssets(uint256)": "07a2d13a",
    "convertToShares(uint256)": "c6e6f592",
    "currentRateInfo()": "95d14ca8",
    "decimals()": "313ce567",
    "deposit(uint256,address)": "6e553f65",
    "estimatedTotalAssets()": "efbb5cb0",
    "getAcceptedCollaterals()": "8354cc59",
    "getMaturityBalance()": "1104aafd",
    "getMaxBorrow(address)": "fd1c317a",
    "getUserSnapshot(address)": "b68d0a09",
    "instrumentApprovalCondition()": "83e754a0",
    "isLiquid(uint256)": "537d9409",
    "isLocked()": "a4e2d634",
    "isWithdrawAble(address,uint256)": "cd8886ee",
    "liquidate(address)": "2f865568",
    "liquidateAllPositions()": "50bb4beb",
    "liquidatePosition(uint256)": "cdddd4e5",
    "maxDeposit(address)": "402d267d",
    "maxMint(address)": "c63d75b6",
    "maxRedeem(address)": "d905777e",
    "maxWithdraw(address)": "ce96cb77",
    "mint(uint256,address)": "94bf804d",
    "name()": "06fdde03",
    "nonces(address)": "7ecebe00",
    "numAuctions()": "5c113acc",
    "onERC721Received(address,address,uint256,bytes)": "150b7a02",
    "onMarketApproval(uint256,uint256)": "416288dd",
    "paused()": "5c975abb",
    "permit(address,address,uint256,uint256,uint8,bytes32,bytes32)": "d505accf",
    "prepareWithdraw()": "49dcf4ed",
    "previewDeposit(uint256)": "ef8b30f7",
    "previewMint(uint256)": "b3d7f6b9",
    "previewRedeem(uint256)": "4cdad506",
    "previewWithdraw(uint256)": "0a28a477",
    "pullRawFunds(uint256)": "d832f791",
    "rateContract()": "eee24219",
    "rateInitCallData()": "c7be9786",
    "readyForWithdrawal()": "bdf0f253",
    "redeem(uint256,address,address)": "ba087652",
    "redeemUnderlying(uint256)": "852a12e3",
    "removeAvailableCollateral(address,uint256,address)": "dd38677a",
    "removeCollateral(address,uint256,uint256,address)": "46c11417",
    "removeableCollateral(address,uint256,address)": "95ee69ac",
    "repay(uint256,address)": "acb70815",
    "repayWithAmount(uint256,address)": "1fd09567",
    "setUtilizer(address)": "57b25996",
    "setVault(address)": "6817031b",
    "store_internal_balance()": "f3aa68d3",
    "symbol()": "95d89b41",
    "toAssetAmount(uint256,bool)": "404ffa7a",
    "toAssetShares(uint256,bool)": "56968f97",
    "toBorrowAmount(uint256,bool)": "94e301e0",
    "toBorrowShares(uint256,bool)": "c270a544",
    "totalAsset()": "f9557ccb",
    "totalAssetAvailable()": "7426e7a4",
    "totalAssets()": "01e1d114",
    "totalBorrow()": "8285ef40",
    "totalSupply()": "18160ddd",
    "transfer(address,uint256)": "a9059cbb",
    "transferFrom(address,address,uint256)": "23b872dd",
    "underlying()": "6f307dc3",
    "userAuctionId(address)": "d7da6302",
    "userBorrowShares(address)": "4fd422df",
    "userCollateralERC20(address,address)": "601b4aed",
    "userCollateralNFTs(address,uint256)": "838e9ae3",
    "validators(uint256)": "35aa2e44",
    "vault()": "fbfa77cf",
    "withdraw(uint256,address,address)": "b460af94"
  },
  "id": 11
}