{
  "abi": [
    {
      "inputs": [
        {
          "internalType": "address",
          "name": "_vault",
          "type": "address"
        },
        {
          "internalType": "address",
          "name": "_reputationManager",
          "type": "address"
        },
        {
          "internalType": "uint256",
          "name": "_r",
          "type": "uint256"
        },
        {
          "internalType": "address",
          "name": "_utilizer",
          "type": "address"
        },
        {
          "internalType": "string",
          "name": "_name",
          "type": "string"
        },
        {
          "internalType": "string",
          "name": "_symbol",
          "type": "string"
        },
        {
          "internalType": "address",
          "name": "_rateCalculator",
          "type": "address"
        },
        {
          "internalType": "bytes",
          "name": "_rateInitCallData",
          "type": "bytes"
        },
        {
          "components": [
            {
              "internalType": "address",
              "name": "tokenAddress",
              "type": "address"
            },
            {
              "internalType": "uint256",
              "name": "tokenId",
              "type": "uint256"
            }
          ],
          "internalType": "struct PoolInstrument.CollateralLabel[]",
          "name": "_collaterals",
          "type": "tuple[]"
        },
        {
          "components": [
            {
              "internalType": "uint256",
              "name": "totalCollateral",
              "type": "uint256"
            },
            {
              "internalType": "uint256",
              "name": "maxAmount",
              "type": "uint256"
            },
            {
              "internalType": "uint256",
              "name": "maxBorrowAmount",
              "type": "uint256"
            },
            {
              "internalType": "bool",
              "name": "isERC20",
              "type": "bool"
            },
            {
              "internalType": "uint256",
              "name": "tau",
              "type": "uint256"
            },
            {
              "internalType": "uint256",
              "name": "cusp",
              "type": "uint256"
            },
            {
              "internalType": "uint256",
              "name": "tail",
              "type": "uint256"
            },
            {
              "internalType": "uint256",
              "name": "buf",
              "type": "uint256"
            }
          ],
          "internalType": "struct PoolInstrument.Config[]",
          "name": "_collateralData",
          "type": "tuple[]"
        }
      ],
      "stateMutability": "nonpayable",
      "type": "constructor"
    },
    {
      "anonymous": false,
      "inputs": [
        {
          "indexed": true,
          "internalType": "address",
          "name": "borrower",
          "type": "address"
        },
        {
          "indexed": false,
          "internalType": "address",
          "name": "collateral",
          "type": "address"
        },
        {
          "indexed": false,
          "internalType": "uint256",
          "name": "tokenId",
          "type": "uint256"
        },
        {
          "indexed": false,
          "internalType": "uint256",
          "name": "amount",
          "type": "uint256"
        }
      ],
      "name": "AddCollateral",
      "type": "event"
    },
    {
      "anonymous": false,
      "inputs": [
        {
          "indexed": true,
          "internalType": "address",
          "name": "owner",
          "type": "address"
        },
        {
          "indexed": true,
          "internalType": "address",
          "name": "spender",
          "type": "address"
        },
        {
          "indexed": false,
          "internalType": "uint256",
          "name": "amount",
          "type": "uint256"
        }
      ],
      "name": "Approval",
      "type": "event"
    },
    {
      "anonymous": false,
      "inputs": [
        {
          "indexed": true,
          "internalType": "address",
          "name": "_borrower",
          "type": "address"
        },
        {
          "indexed": false,
          "internalType": "uint256",
          "name": "_amount",
          "type": "uint256"
        },
        {
          "indexed": false,
          "internalType": "uint256",
          "name": "_shares",
          "type": "uint256"
        }
      ],
      "name": "Borrow",
      "type": "event"
    },
    {
      "anonymous": false,
      "inputs": [
        {
          "indexed": true,
          "internalType": "address",
          "name": "caller",
          "type": "address"
        },
        {
          "indexed": true,
          "internalType": "address",
          "name": "owner",
          "type": "address"
        },
        {
          "indexed": false,
          "internalType": "uint256",
          "name": "assets",
          "type": "uint256"
        },
        {
          "indexed": false,
          "internalType": "uint256",
          "name": "shares",
          "type": "uint256"
        }
      ],
      "name": "Deposit",
      "type": "event"
    },
    {
      "anonymous": false,
      "inputs": [
        {
          "indexed": true,
          "internalType": "uint256",
          "name": "timestamp",
          "type": "uint256"
        },
        {
          "indexed": false,
          "internalType": "uint256",
          "name": "interestEarned",
          "type": "uint256"
        },
        {
          "indexed": false,
          "internalType": "uint256",
          "name": "feesAmount",
          "type": "uint256"
        },
        {
          "indexed": false,
          "internalType": "uint256",
          "name": "feesShare",
          "type": "uint256"
        },
        {
          "indexed": false,
          "internalType": "uint64",
          "name": "newRate",
          "type": "uint64"
        }
      ],
      "name": "InterestAdded",
      "type": "event"
    },
    {
      "anonymous": false,
      "inputs": [
        {
          "indexed": true,
          "internalType": "address",
          "name": "from",
          "type": "address"
        },
        {
          "indexed": true,
          "internalType": "address",
          "name": "to",
          "type": "address"
        },
        {
          "indexed": false,
          "internalType": "uint256",
          "name": "amount",
          "type": "uint256"
        }
      ],
      "name": "LiquidityTransfer",
      "type": "event"
    },
    {
      "anonymous": false,
      "inputs": [
        {
          "indexed": true,
          "internalType": "address",
          "name": "borrower",
          "type": "address"
        },
        {
          "indexed": false,
          "internalType": "address",
          "name": "collateral",
          "type": "address"
        },
        {
          "indexed": false,
          "internalType": "uint256",
          "name": "tokenId",
          "type": "uint256"
        },
        {
          "indexed": false,
          "internalType": "uint256",
          "name": "amount",
          "type": "uint256"
        }
      ],
      "name": "RemoveCollateral",
      "type": "event"
    },
    {
      "anonymous": false,
      "inputs": [
        {
          "indexed": true,
          "internalType": "address",
          "name": "borrower",
          "type": "address"
        },
        {
          "indexed": false,
          "internalType": "uint256",
          "name": "amount",
          "type": "uint256"
        },
        {
          "indexed": false,
          "internalType": "uint256",
          "name": "shares",
          "type": "uint256"
        }
      ],
      "name": "Repay",
      "type": "event"
    },
    {
      "anonymous": false,
      "inputs": [
        {
          "indexed": true,
          "internalType": "address",
          "name": "from",
          "type": "address"
        },
        {
          "indexed": true,
          "internalType": "address",
          "name": "to",
          "type": "address"
        },
        {
          "indexed": false,
          "internalType": "uint256",
          "name": "amount",
          "type": "uint256"
        }
      ],
      "name": "Transfer",
      "type": "event"
    },
    {
      "anonymous": false,
      "inputs": [
        {
          "indexed": true,
          "internalType": "address",
          "name": "caller",
          "type": "address"
        },
        {
          "indexed": true,
          "internalType": "address",
          "name": "receiver",
          "type": "address"
        },
        {
          "indexed": true,
          "internalType": "address",
          "name": "owner",
          "type": "address"
        },
        {
          "indexed": false,
          "internalType": "uint256",
          "name": "assets",
          "type": "uint256"
        },
        {
          "indexed": false,
          "internalType": "uint256",
          "name": "shares",
          "type": "uint256"
        }
      ],
      "name": "Withdraw",
      "type": "event"
    },
    {
      "inputs": [],
      "name": "DOMAIN_SEPARATOR",
      "outputs": [
        {
          "internalType": "bytes32",
          "name": "",
          "type": "bytes32"
        }
      ],
      "stateMutability": "view",
      "type": "function"
    },
    {
      "inputs": [],
      "name": "Utilizer",
      "outputs": [
        {
          "internalType": "address",
          "name": "",
          "type": "address"
        }
      ],
      "stateMutability": "view",
      "type": "function"
    },
    {
      "inputs": [
        {
          "internalType": "address",
          "name": "_borrower",
          "type": "address"
        }
      ],
      "name": "_canBorrow",
      "outputs": [
        {
          "internalType": "bool",
          "name": "",
          "type": "bool"
        }
      ],
      "stateMutability": "view",
      "type": "function"
    },
    {
      "inputs": [
        {
          "internalType": "address",
          "name": "_borrower",
          "type": "address"
        }
      ],
      "name": "_isLiquidatable",
      "outputs": [
        {
          "internalType": "bool",
          "name": "",
          "type": "bool"
        }
      ],
      "stateMutability": "view",
      "type": "function"
    },
    {
      "inputs": [
        {
          "internalType": "address",
          "name": "_borrower",
          "type": "address"
        }
      ],
      "name": "accountLiquidity",
      "outputs": [
        {
          "internalType": "int256",
          "name": "",
          "type": "int256"
        }
      ],
      "stateMutability": "view",
      "type": "function"
    },
    {
      "inputs": [
        {
          "internalType": "address",
          "name": "_collateral",
          "type": "address"
        },
        {
          "internalType": "uint256",
          "name": "_tokenId",
          "type": "uint256"
        },
        {
          "components": [
            {
              "internalType": "uint256",
              "name": "totalCollateral",
              "type": "uint256"
            },
            {
              "internalType": "uint256",
              "name": "maxAmount",
              "type": "uint256"
            },
            {
              "internalType": "uint256",
              "name": "maxBorrowAmount",
              "type": "uint256"
            },
            {
              "internalType": "bool",
              "name": "isERC20",
              "type": "bool"
            },
            {
              "internalType": "uint256",
              "name": "tau",
              "type": "uint256"
            },
            {
              "internalType": "uint256",
              "name": "cusp",
              "type": "uint256"
            },
            {
              "internalType": "uint256",
              "name": "tail",
              "type": "uint256"
            },
            {
              "internalType": "uint256",
              "name": "buf",
              "type": "uint256"
            }
          ],
          "internalType": "struct PoolInstrument.Config",
          "name": "_config",
          "type": "tuple"
        }
      ],
      "name": "addAcceptedCollateral",
      "outputs": [],
      "stateMutability": "nonpayable",
      "type": "function"
    },
    {
      "inputs": [
        {
          "internalType": "address",
          "name": "_collateral",
          "type": "address"
        },
        {
          "internalType": "uint256",
          "name": "_tokenId",
          "type": "uint256"
        },
        {
          "internalType": "uint256",
          "name": "_collateralAmount",
          "type": "uint256"
        },
        {
          "internalType": "address",
          "name": "_borrower",
          "type": "address"
        },
        {
          "internalType": "bool",
          "name": "_enable",
          "type": "bool"
        }
      ],
      "name": "addCollateral",
      "outputs": [],
      "stateMutability": "nonpayable",
      "type": "function"
    },
    {
      "inputs": [],
      "name": "addInterest",
      "outputs": [
        {
          "internalType": "uint256",
          "name": "_interestEarned",
          "type": "uint256"
        },
        {
          "internalType": "uint256",
          "name": "_feesAmount",
          "type": "uint256"
        },
        {
          "internalType": "uint256",
          "name": "_feesShare",
          "type": "uint256"
        },
        {
          "internalType": "uint64",
          "name": "_newRate",
          "type": "uint64"
        }
      ],
      "stateMutability": "nonpayable",
      "type": "function"
    },
    {
      "inputs": [
        {
          "internalType": "address",
          "name": "",
          "type": "address"
        },
        {
          "internalType": "address",
          "name": "",
          "type": "address"
        }
      ],
      "name": "allowance",
      "outputs": [
        {
          "internalType": "uint256",
          "name": "",
          "type": "uint256"
        }
      ],
      "stateMutability": "view",
      "type": "function"
    },
    {
      "inputs": [
        {
          "internalType": "address",
          "name": "spender",
          "type": "address"
        },
        {
          "internalType": "uint256",
          "name": "amount",
          "type": "uint256"
        }
      ],
      "name": "approve",
      "outputs": [
        {
          "internalType": "bool",
          "name": "",
          "type": "bool"
        }
      ],
      "stateMutability": "nonpayable",
      "type": "function"
    },
    {
      "inputs": [
        {
          "internalType": "bytes32",
          "name": "",
          "type": "bytes32"
        }
      ],
      "name": "approvedCollateral",
      "outputs": [
        {
          "internalType": "bool",
          "name": "",
          "type": "bool"
        }
      ],
      "stateMutability": "view",
      "type": "function"
    },
    {
      "inputs": [],
      "name": "asset",
      "outputs": [
        {
          "internalType": "contract ERC20",
          "name": "",
          "type": "address"
        }
      ],
      "stateMutability": "view",
      "type": "function"
    },
    {
      "inputs": [
        {
          "internalType": "uint256",
          "name": "totalSupply",
          "type": "uint256"
        }
      ],
      "name": "assetOracle",
      "outputs": [
        {
          "internalType": "uint256",
          "name": "",
          "type": "uint256"
        }
      ],
      "stateMutability": "view",
      "type": "function"
    },
    {
      "inputs": [
        {
          "internalType": "address",
          "name": "",
          "type": "address"
        }
      ],
      "name": "balanceOf",
      "outputs": [
        {
          "internalType": "uint256",
          "name": "",
          "type": "uint256"
        }
      ],
      "stateMutability": "view",
      "type": "function"
    },
    {
      "inputs": [
        {
          "internalType": "address",
          "name": "user",
          "type": "address"
        }
      ],
      "name": "balanceOfUnderlying",
      "outputs": [
        {
          "internalType": "uint256",
          "name": "",
          "type": "uint256"
        }
      ],
      "stateMutability": "view",
      "type": "function"
    },
    {
      "inputs": [
        {
          "internalType": "uint256",
          "name": "_borrowAmount",
          "type": "uint256"
        },
        {
          "internalType": "address",
          "name": "_collateral",
          "type": "address"
        },
        {
          "internalType": "uint256",
          "name": "_tokenId",
          "type": "uint256"
        },
        {
          "internalType": "uint256",
          "name": "_collateralAmount",
          "type": "uint256"
        },
        {
          "internalType": "address",
          "name": "_reciever",
          "type": "address"
        },
        {
          "internalType": "bool",
          "name": "_enable",
          "type": "bool"
        }
      ],
      "name": "borrow",
      "outputs": [
        {
          "internalType": "uint256",
          "name": "_shares",
          "type": "uint256"
        }
      ],
      "stateMutability": "nonpayable",
      "type": "function"
    },
    {
      "inputs": [
        {
          "internalType": "address",
          "name": "_borrower",
          "type": "address"
        },
        {
          "internalType": "address",
          "name": "_collateral",
          "type": "address"
        },
        {
          "internalType": "uint256",
          "name": "_tokenId",
          "type": "uint256"
        }
      ],
      "name": "checkAuction",
      "outputs": [
        {
          "internalType": "bool",
          "name": "reset",
          "type": "bool"
        },
        {
          "internalType": "bool",
          "name": "closed",
          "type": "bool"
        }
      ],
      "stateMutability": "nonpayable",
      "type": "function"
    },
    {
      "inputs": [
        {
          "internalType": "bytes32",
          "name": "",
          "type": "bytes32"
        }
      ],
      "name": "collateralConfigs",
      "outputs": [
        {
          "internalType": "uint256",
          "name": "totalCollateral",
          "type": "uint256"
        },
        {
          "internalType": "uint256",
          "name": "maxAmount",
          "type": "uint256"
        },
        {
          "internalType": "uint256",
          "name": "maxBorrowAmount",
          "type": "uint256"
        },
        {
          "internalType": "bool",
          "name": "isERC20",
          "type": "bool"
        },
        {
          "internalType": "uint256",
          "name": "tau",
          "type": "uint256"
        },
        {
          "internalType": "uint256",
          "name": "cusp",
          "type": "uint256"
        },
        {
          "internalType": "uint256",
          "name": "tail",
          "type": "uint256"
        },
        {
          "internalType": "uint256",
          "name": "buf",
          "type": "uint256"
        }
      ],
      "stateMutability": "view",
      "type": "function"
    },
    {
      "inputs": [
        {
          "internalType": "address",
          "name": "_addr",
          "type": "address"
        },
        {
          "internalType": "uint256",
          "name": "_tokenId",
          "type": "uint256"
        }
      ],
      "name": "computeId",
      "outputs": [
        {
          "internalType": "bytes32",
          "name": "",
          "type": "bytes32"
        }
      ],
      "stateMutability": "pure",
      "type": "function"
    },
    {
      "inputs": [
        {
          "internalType": "uint256",
          "name": "shares",
          "type": "uint256"
        }
      ],
      "name": "convertToAssets",
      "outputs": [
        {
          "internalType": "uint256",
          "name": "",
          "type": "uint256"
        }
      ],
      "stateMutability": "view",
      "type": "function"
    },
    {
      "inputs": [
        {
          "internalType": "uint256",
          "name": "assets",
          "type": "uint256"
        }
      ],
      "name": "convertToShares",
      "outputs": [
        {
          "internalType": "uint256",
          "name": "",
          "type": "uint256"
        }
      ],
      "stateMutability": "view",
      "type": "function"
    },
    {
      "inputs": [],
      "name": "currentRateInfo",
      "outputs": [
        {
          "internalType": "uint64",
          "name": "lastBlock",
          "type": "uint64"
        },
        {
          "internalType": "uint64",
          "name": "lastTimestamp",
          "type": "uint64"
        },
        {
          "internalType": "uint64",
          "name": "ratePerSec",
          "type": "uint64"
        }
      ],
      "stateMutability": "view",
      "type": "function"
    },
    {
      "inputs": [],
      "name": "decimals",
      "outputs": [
        {
          "internalType": "uint8",
          "name": "",
          "type": "uint8"
        }
      ],
      "stateMutability": "view",
      "type": "function"
    },
    {
      "inputs": [
        {
          "internalType": "uint256",
          "name": "assets",
          "type": "uint256"
        },
        {
          "internalType": "address",
          "name": "receiver",
          "type": "address"
        }
      ],
      "name": "deposit",
      "outputs": [
        {
          "internalType": "uint256",
          "name": "shares",
          "type": "uint256"
        }
      ],
      "stateMutability": "nonpayable",
      "type": "function"
    },
    {
      "inputs": [
        {
          "internalType": "address",
          "name": "_collateral",
          "type": "address"
        },
        {
          "internalType": "uint256",
          "name": "_tokenId",
          "type": "uint256"
        }
      ],
      "name": "disableCollateral",
      "outputs": [],
      "stateMutability": "nonpayable",
      "type": "function"
    },
    {
      "inputs": [
        {
          "internalType": "address",
          "name": "_collateral",
          "type": "address"
        },
        {
          "internalType": "uint256",
          "name": "_tokenId",
          "type": "uint256"
        }
      ],
      "name": "enableCollateral",
      "outputs": [],
      "stateMutability": "nonpayable",
      "type": "function"
    },
    {
      "inputs": [
        {
          "internalType": "address",
          "name": "",
          "type": "address"
        },
        {
          "internalType": "bytes32",
          "name": "",
          "type": "bytes32"
        }
      ],
      "name": "enabledCollateral",
      "outputs": [
        {
          "internalType": "bool",
          "name": "",
          "type": "bool"
        }
      ],
      "stateMutability": "view",
      "type": "function"
    },
    {
      "inputs": [],
      "name": "estimatedTotalAssets",
      "outputs": [
        {
          "internalType": "uint256",
          "name": "",
          "type": "uint256"
        }
      ],
      "stateMutability": "view",
      "type": "function"
    },
    {
      "inputs": [],
      "name": "getAcceptedCollaterals",
      "outputs": [
        {
          "components": [
            {
              "internalType": "address",
              "name": "tokenAddress",
              "type": "address"
            },
            {
              "internalType": "uint256",
              "name": "tokenId",
              "type": "uint256"
            }
          ],
          "internalType": "struct PoolInstrument.CollateralLabel[]",
          "name": "",
          "type": "tuple[]"
        }
      ],
      "stateMutability": "view",
      "type": "function"
    },
    {
      "inputs": [
        {
          "internalType": "bytes32",
          "name": "collateralId",
          "type": "bytes32"
        }
      ],
      "name": "getCollateralConfig",
      "outputs": [
        {
          "components": [
            {
              "internalType": "uint256",
              "name": "totalCollateral",
              "type": "uint256"
            },
            {
              "internalType": "uint256",
              "name": "maxAmount",
              "type": "uint256"
            },
            {
              "internalType": "uint256",
              "name": "maxBorrowAmount",
              "type": "uint256"
            },
            {
              "internalType": "bool",
              "name": "isERC20",
              "type": "bool"
            },
            {
              "internalType": "uint256",
              "name": "tau",
              "type": "uint256"
            },
            {
              "internalType": "uint256",
              "name": "cusp",
              "type": "uint256"
            },
            {
              "internalType": "uint256",
              "name": "tail",
              "type": "uint256"
            },
            {
              "internalType": "uint256",
              "name": "buf",
              "type": "uint256"
            }
          ],
          "internalType": "struct PoolInstrument.Config",
          "name": "",
          "type": "tuple"
        }
      ],
      "stateMutability": "view",
      "type": "function"
    },
    {
      "inputs": [],
      "name": "getMaturityBalance",
      "outputs": [
        {
          "internalType": "uint256",
          "name": "",
          "type": "uint256"
        }
      ],
      "stateMutability": "view",
      "type": "function"
    },
    {
      "inputs": [
        {
          "internalType": "address",
          "name": "_borrower",
          "type": "address"
        }
      ],
      "name": "getMaxBorrow",
      "outputs": [
        {
          "internalType": "uint256",
          "name": "_maxBorrowableAmount",
          "type": "uint256"
        }
      ],
      "stateMutability": "view",
      "type": "function"
    },
    {
      "inputs": [
        {
          "internalType": "address",
          "name": "_address",
          "type": "address"
        }
      ],
      "name": "getUserSnapshot",
      "outputs": [
        {
          "internalType": "uint256",
          "name": "_userAssetShares",
          "type": "uint256"
        },
        {
          "internalType": "uint256",
          "name": "_userAssetAmount",
          "type": "uint256"
        },
        {
          "internalType": "uint256",
          "name": "_userBorrowShares",
          "type": "uint256"
        },
        {
          "internalType": "uint256",
          "name": "_userBorrowAmount",
          "type": "uint256"
        },
        {
          "internalType": "int256",
          "name": "_userAccountLiquidity",
          "type": "int256"
        },
        {
          "components": [
            {
              "internalType": "address",
              "name": "tokenAddress",
              "type": "address"
            },
            {
              "internalType": "uint256",
              "name": "tokenId",
              "type": "uint256"
            }
          ],
          "internalType": "struct PoolInstrument.CollateralLabel[]",
          "name": "_userCollaterals",
          "type": "tuple[]"
        }
      ],
      "stateMutability": "view",
      "type": "function"
    },
    {
      "inputs": [],
      "name": "instrumentApprovalCondition",
      "outputs": [
        {
          "internalType": "bool",
          "name": "",
          "type": "bool"
        }
      ],
      "stateMutability": "view",
      "type": "function"
    },
    {
      "inputs": [
        {
          "internalType": "uint256",
          "name": "amount",
          "type": "uint256"
        }
      ],
      "name": "isLiquid",
      "outputs": [
        {
          "internalType": "bool",
          "name": "",
          "type": "bool"
        }
      ],
      "stateMutability": "view",
      "type": "function"
    },
    {
      "inputs": [],
      "name": "isLocked",
      "outputs": [
        {
          "internalType": "bool",
          "name": "",
          "type": "bool"
        }
      ],
      "stateMutability": "view",
      "type": "function"
    },
    {
      "inputs": [
        {
          "internalType": "address",
          "name": "holder",
          "type": "address"
        },
        {
          "internalType": "uint256",
          "name": "amount",
          "type": "uint256"
        }
      ],
      "name": "isWithdrawAble",
      "outputs": [
        {
          "internalType": "bool",
          "name": "",
          "type": "bool"
        }
      ],
      "stateMutability": "view",
      "type": "function"
    },
    {
      "inputs": [],
      "name": "liquidateAllPositions",
      "outputs": [
        {
          "internalType": "uint256",
          "name": "_amountFreed",
          "type": "uint256"
        }
      ],
      "stateMutability": "nonpayable",
      "type": "function"
    },
    {
      "inputs": [
        {
          "internalType": "uint256",
          "name": "_amountNeeded",
          "type": "uint256"
        }
      ],
      "name": "liquidatePosition",
      "outputs": [
        {
          "internalType": "uint256",
          "name": "_liquidatedAmount",
          "type": "uint256"
        },
        {
          "internalType": "uint256",
          "name": "_loss",
          "type": "uint256"
        }
      ],
      "stateMutability": "nonpayable",
      "type": "function"
    },
    {
      "inputs": [
        {
          "internalType": "address",
          "name": "",
          "type": "address"
        }
      ],
      "name": "maxDeposit",
      "outputs": [
        {
          "internalType": "uint256",
          "name": "",
          "type": "uint256"
        }
      ],
      "stateMutability": "view",
      "type": "function"
    },
    {
      "inputs": [
        {
          "internalType": "address",
          "name": "",
          "type": "address"
        }
      ],
      "name": "maxMint",
      "outputs": [
        {
          "internalType": "uint256",
          "name": "",
          "type": "uint256"
        }
      ],
      "stateMutability": "view",
      "type": "function"
    },
    {
      "inputs": [
        {
          "internalType": "address",
          "name": "owner",
          "type": "address"
        }
      ],
      "name": "maxRedeem",
      "outputs": [
        {
          "internalType": "uint256",
          "name": "",
          "type": "uint256"
        }
      ],
      "stateMutability": "view",
      "type": "function"
    },
    {
      "inputs": [
        {
          "internalType": "address",
          "name": "owner",
          "type": "address"
        }
      ],
      "name": "maxWithdraw",
      "outputs": [
        {
          "internalType": "uint256",
          "name": "",
          "type": "uint256"
        }
      ],
      "stateMutability": "view",
      "type": "function"
    },
    {
      "inputs": [
        {
          "internalType": "uint256",
          "name": "shares",
          "type": "uint256"
        },
        {
          "internalType": "address",
          "name": "receiver",
          "type": "address"
        }
      ],
      "name": "mint",
      "outputs": [
        {
          "internalType": "uint256",
          "name": "assets",
          "type": "uint256"
        }
      ],
      "stateMutability": "nonpayable",
      "type": "function"
    },
    {
      "inputs": [],
      "name": "name",
      "outputs": [
        {
          "internalType": "string",
          "name": "",
          "type": "string"
        }
      ],
      "stateMutability": "view",
      "type": "function"
    },
    {
      "inputs": [
        {
          "internalType": "address",
          "name": "",
          "type": "address"
        }
      ],
      "name": "nonces",
      "outputs": [
        {
          "internalType": "uint256",
          "name": "",
          "type": "uint256"
        }
      ],
      "stateMutability": "view",
      "type": "function"
    },
    {
      "inputs": [
        {
          "internalType": "address",
          "name": "",
          "type": "address"
        },
        {
          "internalType": "address",
          "name": "",
          "type": "address"
        },
        {
          "internalType": "uint256",
          "name": "",
          "type": "uint256"
        },
        {
          "internalType": "bytes",
          "name": "",
          "type": "bytes"
        }
      ],
      "name": "onERC721Received",
      "outputs": [
        {
          "internalType": "bytes4",
          "name": "",
          "type": "bytes4"
        }
      ],
      "stateMutability": "nonpayable",
      "type": "function"
    },
    {
      "inputs": [
        {
          "internalType": "uint256",
          "name": "principal",
          "type": "uint256"
        },
        {
          "internalType": "uint256",
          "name": "yield",
          "type": "uint256"
        }
      ],
      "name": "onMarketApproval",
      "outputs": [],
      "stateMutability": "nonpayable",
      "type": "function"
    },
    {
      "inputs": [
        {
          "internalType": "address",
          "name": "owner",
          "type": "address"
        },
        {
          "internalType": "address",
          "name": "spender",
          "type": "address"
        },
        {
          "internalType": "uint256",
          "name": "value",
          "type": "uint256"
        },
        {
          "internalType": "uint256",
          "name": "deadline",
          "type": "uint256"
        },
        {
          "internalType": "uint8",
          "name": "v",
          "type": "uint8"
        },
        {
          "internalType": "bytes32",
          "name": "r",
          "type": "bytes32"
        },
        {
          "internalType": "bytes32",
          "name": "s",
          "type": "bytes32"
        }
      ],
      "name": "permit",
      "outputs": [],
      "stateMutability": "nonpayable",
      "type": "function"
    },
    {
      "inputs": [],
      "name": "prepareWithdraw",
      "outputs": [
        {
          "internalType": "uint256",
          "name": "_profit",
          "type": "uint256"
        },
        {
          "internalType": "uint256",
          "name": "_loss",
          "type": "uint256"
        },
        {
          "internalType": "uint256",
          "name": "_debtPayment",
          "type": "uint256"
        }
      ],
      "stateMutability": "nonpayable",
      "type": "function"
    },
    {
      "inputs": [
        {
          "internalType": "uint256",
          "name": "assets",
          "type": "uint256"
        }
      ],
      "name": "previewDeposit",
      "outputs": [
        {
          "internalType": "uint256",
          "name": "",
          "type": "uint256"
        }
      ],
      "stateMutability": "view",
      "type": "function"
    },
    {
      "inputs": [
        {
          "internalType": "uint256",
          "name": "shares",
          "type": "uint256"
        }
      ],
      "name": "previewMint",
      "outputs": [
        {
          "internalType": "uint256",
          "name": "",
          "type": "uint256"
        }
      ],
      "stateMutability": "view",
      "type": "function"
    },
    {
      "inputs": [
        {
          "internalType": "uint256",
          "name": "shares",
          "type": "uint256"
        }
      ],
      "name": "previewRedeem",
      "outputs": [
        {
          "internalType": "uint256",
          "name": "",
          "type": "uint256"
        }
      ],
      "stateMutability": "view",
      "type": "function"
    },
    {
      "inputs": [
        {
          "internalType": "uint256",
          "name": "assets",
          "type": "uint256"
        }
      ],
      "name": "previewWithdraw",
      "outputs": [
        {
          "internalType": "uint256",
          "name": "",
          "type": "uint256"
        }
      ],
      "stateMutability": "view",
      "type": "function"
    },
    {
      "inputs": [
        {
          "internalType": "address",
          "name": "_borrower",
          "type": "address"
        },
        {
          "components": [
            {
              "internalType": "address",
              "name": "tokenAddress",
              "type": "address"
            },
            {
              "internalType": "uint256",
              "name": "tokenId",
              "type": "uint256"
            }
          ],
          "internalType": "struct PoolInstrument.CollateralLabel",
          "name": "_label",
          "type": "tuple"
        },
        {
          "internalType": "uint256",
          "name": "_amount",
          "type": "uint256"
        },
        {
          "internalType": "uint256",
          "name": "_deadline",
          "type": "uint256"
        }
      ],
      "name": "purchaseCollateral",
      "outputs": [
        {
          "internalType": "uint128",
          "name": "_totalCost",
          "type": "uint128"
        }
      ],
      "stateMutability": "nonpayable",
      "type": "function"
    },
    {
      "inputs": [],
      "name": "r",
      "outputs": [
        {
          "internalType": "uint256",
          "name": "",
          "type": "uint256"
        }
      ],
      "stateMutability": "view",
      "type": "function"
    },
    {
      "inputs": [],
      "name": "rateContract",
      "outputs": [
        {
          "internalType": "contract IRateCalculator",
          "name": "",
          "type": "address"
        }
      ],
      "stateMutability": "view",
      "type": "function"
    },
    {
      "inputs": [],
      "name": "rateInitCallData",
      "outputs": [
        {
          "internalType": "bytes",
          "name": "",
          "type": "bytes"
        }
      ],
      "stateMutability": "view",
      "type": "function"
    },
    {
      "inputs": [],
      "name": "readyForWithdrawal",
      "outputs": [
        {
          "internalType": "bool",
          "name": "",
          "type": "bool"
        }
      ],
      "stateMutability": "view",
      "type": "function"
    },
    {
      "inputs": [
        {
          "internalType": "uint256",
          "name": "shares",
          "type": "uint256"
        },
        {
          "internalType": "address",
          "name": "receiver",
          "type": "address"
        },
        {
          "internalType": "address",
          "name": "owner",
          "type": "address"
        }
      ],
      "name": "redeem",
      "outputs": [
        {
          "internalType": "uint256",
          "name": "assets",
          "type": "uint256"
        }
      ],
      "stateMutability": "nonpayable",
      "type": "function"
    },
    {
      "inputs": [
        {
          "internalType": "uint256",
          "name": "amount",
          "type": "uint256"
        }
      ],
      "name": "redeemUnderlying",
      "outputs": [
        {
          "internalType": "bool",
          "name": "",
          "type": "bool"
        }
      ],
      "stateMutability": "nonpayable",
      "type": "function"
    },
    {
      "inputs": [
        {
          "internalType": "address",
          "name": "_collateral",
          "type": "address"
        },
        {
          "internalType": "uint256",
          "name": "_tokenId",
          "type": "uint256"
        },
        {
          "internalType": "uint256",
          "name": "_collateralAmount",
          "type": "uint256"
        },
        {
          "internalType": "address",
          "name": "_receiver",
          "type": "address"
        },
        {
          "internalType": "bool",
          "name": "_disable",
          "type": "bool"
        }
      ],
      "name": "removeCollateral",
      "outputs": [],
      "stateMutability": "nonpayable",
      "type": "function"
    },
    {
      "inputs": [
        {
          "internalType": "uint256",
          "name": "_shares",
          "type": "uint256"
        },
        {
          "internalType": "address",
          "name": "_borrower",
          "type": "address"
        }
      ],
      "name": "repay",
      "outputs": [
        {
          "internalType": "uint256",
          "name": "_amountToRepay",
          "type": "uint256"
        }
      ],
      "stateMutability": "nonpayable",
      "type": "function"
    },
    {
      "inputs": [
        {
          "internalType": "address",
          "name": "_auctioneer",
          "type": "address"
        }
      ],
      "name": "setAuctioneer",
      "outputs": [],
      "stateMutability": "nonpayable",
      "type": "function"
    },
    {
      "inputs": [
        {
          "internalType": "address",
          "name": "_Utilizer",
          "type": "address"
        }
      ],
      "name": "setUtilizer",
      "outputs": [],
      "stateMutability": "nonpayable",
      "type": "function"
    },
    {
      "inputs": [
        {
          "internalType": "address",
          "name": "newVault",
          "type": "address"
        }
      ],
      "name": "setVault",
      "outputs": [],
      "stateMutability": "nonpayable",
      "type": "function"
    },
    {
      "inputs": [],
      "name": "store_internal_balance",
      "outputs": [],
      "stateMutability": "nonpayable",
      "type": "function"
    },
    {
      "inputs": [],
      "name": "symbol",
      "outputs": [
        {
          "internalType": "string",
          "name": "",
          "type": "string"
        }
      ],
      "stateMutability": "view",
      "type": "function"
    },
    {
      "inputs": [
        {
          "internalType": "uint256",
          "name": "_shares",
          "type": "uint256"
        },
        {
          "internalType": "bool",
          "name": "_roundUp",
          "type": "bool"
        }
      ],
      "name": "toAssetAmount",
      "outputs": [
        {
          "internalType": "uint256",
          "name": "",
          "type": "uint256"
        }
      ],
      "stateMutability": "view",
      "type": "function"
    },
    {
      "inputs": [
        {
          "internalType": "uint256",
          "name": "_amount",
          "type": "uint256"
        },
        {
          "internalType": "bool",
          "name": "_roundUp",
          "type": "bool"
        }
      ],
      "name": "toAssetShares",
      "outputs": [
        {
          "internalType": "uint256",
          "name": "",
          "type": "uint256"
        }
      ],
      "stateMutability": "view",
      "type": "function"
    },
    {
      "inputs": [
        {
          "internalType": "uint256",
          "name": "_shares",
          "type": "uint256"
        },
        {
          "internalType": "bool",
          "name": "_roundUp",
          "type": "bool"
        }
      ],
      "name": "toBorrowAmount",
      "outputs": [
        {
          "internalType": "uint256",
          "name": "",
          "type": "uint256"
        }
      ],
      "stateMutability": "view",
      "type": "function"
    },
    {
      "inputs": [
        {
          "internalType": "uint256",
          "name": "_amount",
          "type": "uint256"
        },
        {
          "internalType": "bool",
          "name": "_roundUp",
          "type": "bool"
        }
      ],
      "name": "toBorrowShares",
      "outputs": [
        {
          "internalType": "uint256",
          "name": "",
          "type": "uint256"
        }
      ],
      "stateMutability": "view",
      "type": "function"
    },
    {
      "inputs": [],
      "name": "totalAsset",
      "outputs": [
        {
          "internalType": "uint128",
          "name": "amount",
          "type": "uint128"
        },
        {
          "internalType": "uint128",
          "name": "shares",
          "type": "uint128"
        }
      ],
      "stateMutability": "view",
      "type": "function"
    },
    {
      "inputs": [],
      "name": "totalAssetAvailable",
      "outputs": [
        {
          "internalType": "uint256",
          "name": "",
          "type": "uint256"
        }
      ],
      "stateMutability": "view",
      "type": "function"
    },
    {
      "inputs": [],
      "name": "totalAssets",
      "outputs": [
        {
          "internalType": "uint256",
          "name": "",
          "type": "uint256"
        }
      ],
      "stateMutability": "view",
      "type": "function"
    },
    {
      "inputs": [],
      "name": "totalBorrow",
      "outputs": [
        {
          "internalType": "uint128",
          "name": "amount",
          "type": "uint128"
        },
        {
          "internalType": "uint128",
          "name": "shares",
          "type": "uint128"
        }
      ],
      "stateMutability": "view",
      "type": "function"
    },
    {
      "inputs": [],
      "name": "totalSupply",
      "outputs": [
        {
          "internalType": "uint256",
          "name": "",
          "type": "uint256"
        }
      ],
      "stateMutability": "view",
      "type": "function"
    },
    {
      "inputs": [
        {
          "internalType": "address",
          "name": "to",
          "type": "address"
        },
        {
          "internalType": "uint256",
          "name": "amount",
          "type": "uint256"
        }
      ],
      "name": "transfer",
      "outputs": [
        {
          "internalType": "bool",
          "name": "",
          "type": "bool"
        }
      ],
      "stateMutability": "nonpayable",
      "type": "function"
    },
    {
      "inputs": [
        {
          "internalType": "address",
          "name": "from",
          "type": "address"
        },
        {
          "internalType": "address",
          "name": "to",
          "type": "address"
        },
        {
          "internalType": "uint256",
          "name": "amount",
          "type": "uint256"
        }
      ],
      "name": "transferFrom",
      "outputs": [
        {
          "internalType": "bool",
          "name": "",
          "type": "bool"
        }
      ],
      "stateMutability": "nonpayable",
      "type": "function"
    },
    {
      "inputs": [
        {
          "internalType": "address",
          "name": "_borrower",
          "type": "address"
        },
        {
          "internalType": "address",
          "name": "_collateral",
          "type": "address"
        },
        {
          "internalType": "uint256",
          "name": "_tokenId",
          "type": "uint256"
        }
      ],
      "name": "triggerAuction",
      "outputs": [
        {
          "internalType": "bytes32",
          "name": "_auctionId",
          "type": "bytes32"
        }
      ],
      "stateMutability": "nonpayable",
      "type": "function"
    },
    {
      "inputs": [],
      "name": "underlying",
      "outputs": [
        {
          "internalType": "contract ERC20",
          "name": "",
          "type": "address"
        }
      ],
      "stateMutability": "view",
      "type": "function"
    },
    {
      "inputs": [
        {
          "components": [
            {
              "internalType": "address",
              "name": "tokenAddress",
              "type": "address"
            },
            {
              "internalType": "uint256",
              "name": "tokenId",
              "type": "uint256"
            }
          ],
          "internalType": "struct PoolInstrument.CollateralLabel",
          "name": "_label",
          "type": "tuple"
        },
        {
          "components": [
            {
              "internalType": "uint256",
              "name": "totalCollateral",
              "type": "uint256"
            },
            {
              "internalType": "uint256",
              "name": "maxAmount",
              "type": "uint256"
            },
            {
              "internalType": "uint256",
              "name": "maxBorrowAmount",
              "type": "uint256"
            },
            {
              "internalType": "bool",
              "name": "isERC20",
              "type": "bool"
            },
            {
              "internalType": "uint256",
              "name": "tau",
              "type": "uint256"
            },
            {
              "internalType": "uint256",
              "name": "cusp",
              "type": "uint256"
            },
            {
              "internalType": "uint256",
              "name": "tail",
              "type": "uint256"
            },
            {
              "internalType": "uint256",
              "name": "buf",
              "type": "uint256"
            }
          ],
          "internalType": "struct PoolInstrument.Config",
          "name": "_config",
          "type": "tuple"
        }
      ],
      "name": "updateConfig",
      "outputs": [],
      "stateMutability": "nonpayable",
      "type": "function"
    },
    {
      "inputs": [
        {
          "internalType": "address",
          "name": "",
          "type": "address"
        }
      ],
      "name": "userBorrowShares",
      "outputs": [
        {
          "internalType": "uint256",
          "name": "",
          "type": "uint256"
        }
      ],
      "stateMutability": "view",
      "type": "function"
    },
    {
      "inputs": [
        {
          "internalType": "address",
          "name": "",
          "type": "address"
        },
        {
          "internalType": "uint256",
          "name": "",
          "type": "uint256"
        }
      ],
      "name": "userCollateral",
      "outputs": [
        {
          "internalType": "address",
          "name": "tokenAddress",
          "type": "address"
        },
        {
          "internalType": "uint256",
          "name": "tokenId",
          "type": "uint256"
        }
      ],
      "stateMutability": "view",
      "type": "function"
    },
    {
      "inputs": [
        {
          "internalType": "bytes32",
          "name": "",
          "type": "bytes32"
        },
        {
          "internalType": "address",
          "name": "",
          "type": "address"
        }
      ],
      "name": "userERC20s",
      "outputs": [
        {
          "internalType": "uint256",
          "name": "",
          "type": "uint256"
        }
      ],
      "stateMutability": "view",
      "type": "function"
    },
    {
      "inputs": [
        {
          "internalType": "bytes32",
          "name": "",
          "type": "bytes32"
        }
      ],
      "name": "userERC721s",
      "outputs": [
        {
          "internalType": "address",
          "name": "",
          "type": "address"
        }
      ],
      "stateMutability": "view",
      "type": "function"
    },
    {
      "inputs": [
        {
          "internalType": "uint256",
          "name": "",
          "type": "uint256"
        }
      ],
      "name": "validators",
      "outputs": [
        {
          "internalType": "address",
          "name": "",
          "type": "address"
        }
      ],
      "stateMutability": "view",
      "type": "function"
    },
    {
      "inputs": [],
      "name": "vault",
      "outputs": [
        {
          "internalType": "contract Vault",
          "name": "",
          "type": "address"
        }
      ],
      "stateMutability": "view",
      "type": "function"
    },
    {
      "inputs": [
        {
          "internalType": "uint256",
          "name": "assets",
          "type": "uint256"
        },
        {
          "internalType": "address",
          "name": "receiver",
          "type": "address"
        },
        {
          "internalType": "address",
          "name": "owner",
          "type": "address"
        }
      ],
      "name": "withdraw",
      "outputs": [
        {
          "internalType": "uint256",
          "name": "shares",
          "type": "uint256"
        }
      ],
      "stateMutability": "nonpayable",
      "type": "function"
    }
  ],
  "bytecode": {
    "object": "0x6101006040526001600d553480156200001757600080fd5b5060405162006b3c38038062006b3c8339810160408190526200003a91620009df565b89878b6001600160a01b031663c5d664c66040518163ffffffff1660e01b8152600401602060405180830381865afa1580156200007b573d6000803e3d6000fd5b505050506040513d601f19601f82011682018060405250810190620000a1919062000b17565b88888181846001600160a01b031663313ce5676040518163ffffffff1660e01b8152600401602060405180830381865afa158015620000e4573d6000803e3d6000fd5b505050506040513d601f19601f820116820180604052508101906200010a919062000b3e565b600062000118848262000bf2565b50600162000127838262000bf2565b5060ff81166080524660a0526200013d620003bd565b60c052505050506001600160a01b0391821660e05250600780546001600160a01b0319169184169182179055604080516362eb326360e11b8152905163c5d664c6916004808201926020929091908290030181865afa158015620001a5573d6000803e3d6000fd5b505050506040513d601f19601f82011682018060405250810190620001cb919062000b17565b600680546001600160a01b0319166001600160a01b0392831690811790915560405163095ea7b360e01b8152918416600483015260001960248301529063095ea7b3906044016020604051808303816000875af115801562000231573d6000803e3d6000fd5b505050506040513d601f19601f8201168201806040525081019062000257919062000cbe565b50600a80546001600160a01b03199081166001600160a01b03938416179091556017805490911691871691909117905550601862000296848262000bf2565b5060175460405163453f31d560e01b81526001600160a01b039091169063453f31d590620002c990869060040162000cdc565b60006040518083038186803b158015620002e257600080fd5b505afa158015620002f7573d6000803e3d6000fd5b5050601b80546001600160a01b0319166001600160a01b038d161790555050601d88905560005b8251811015620003ac576200039783828151811062000341576200034162000d11565b60200260200101516000015184838151811062000362576200036262000d11565b60200260200101516020015184848151811062000383576200038362000d11565b60200260200101516200045960201b60201c565b80620003a38162000d27565b9150506200031e565b505050505050505050505062000dcd565b60007f8b73c3c69bb8fe3d512ecc4cf759cc79239f7b179b0ffacaa9a75d522b39400f6000604051620003f1919062000d4f565b6040805191829003822060208301939093528101919091527fc89efdaa54c0f20c7adf612882df0950f5a951637e0307cdcb4c672f298b8bc660608201524660808201523060a082015260c00160405160208183030381529060405280519060200120905090565b604080516001600160601b0319606086901b1660208083019190915260348083018690528351808403909101815260549092018352815191810191909120600081815260119092529190205460ff1615620004ee5760405162461bcd60e51b815260206004820152601060248201526f185b1c9958591e48185c1c1c9bdd995960821b60448201526064015b60405180910390fd5b81602001518260400151106200055b5760405162461bcd60e51b815260206004820152602b60248201527f6d6178426f72726f77416d6f756e74206d757374206265206c6573732074686160448201526a1b881b585e105b5bdd5b9d60aa1b6064820152608401620004e5565b816060015115620005b6578215620005b65760405162461bcd60e51b815260206004820152601b60248201527f746f6b656e4964206d757374206265203020666f7220455243323000000000006044820152606401620004e5565b6000808352818152601060209081526040808320855181558286015160018083019190915582870151600280840191909155606088015160038401805491151560ff199283161790556080890151600485015560a0890151600585015560c0890151600685015560e090980151600790930192909255825180840184526001600160a01b03998a168152808501988952601a80548084018255908752905192027f057c384a7d1c54f3a1b2e5e67b2617b8224fdfd1ea7234eea573a6ff665ff63e8101805493909a166001600160a01b03199093169290921790985595517f057c384a7d1c54f3a1b2e5e67b2617b8224fdfd1ea7234eea573a6ff665ff63f9096019590955591815260119091529190912080549091169091179055565b6001600160a01b0381168114620006ea57600080fd5b50565b8051620006fa81620006d4565b919050565b634e487b7160e01b600052604160045260246000fd5b604080519081016001600160401b03811182821017156200073a576200073a620006ff565b60405290565b60405161010081016001600160401b03811182821017156200073a576200073a620006ff565b604051601f8201601f191681016001600160401b0381118282101715620007915762000791620006ff565b604052919050565b60005b83811015620007b65781810151838201526020016200079c565b50506000910152565b600082601f830112620007d157600080fd5b81516001600160401b03811115620007ed57620007ed620006ff565b62000802601f8201601f191660200162000766565b8181528460208386010111156200081857600080fd5b6200082b82602083016020870162000799565b949350505050565b60006001600160401b038211156200084f576200084f620006ff565b5060051b60200190565b600082601f8301126200086b57600080fd5b81516020620008846200087e8362000833565b62000766565b82815260069290921b84018101918181019086841115620008a457600080fd5b8286015b84811015620008f35760408189031215620008c35760008081fd5b620008cd62000715565b8151620008da81620006d4565b81528185015185820152835291830191604001620008a8565b509695505050505050565b80518015158114620006fa57600080fd5b600082601f8301126200092157600080fd5b81516020620009346200087e8362000833565b82815260089290921b840181019181810190868411156200095457600080fd5b8286015b84811015620008f3576101008189031215620009745760008081fd5b6200097e62000740565b815181528482015185820152604080830151908201526060620009a3818401620008fe565b908201526080828101519082015260a0808301519082015260c0808301519082015260e080830151908201528352918301916101000162000958565b6000806000806000806000806000806101408b8d03121562000a0057600080fd5b62000a0b8b620006ed565b995062000a1b60208c01620006ed565b985060408b0151975062000a3260608c01620006ed565b60808c01519097506001600160401b038082111562000a5057600080fd5b62000a5e8e838f01620007bf565b975060a08d015191508082111562000a7557600080fd5b62000a838e838f01620007bf565b965062000a9360c08e01620006ed565b955060e08d015191508082111562000aaa57600080fd5b62000ab88e838f01620007bf565b94506101008d015191508082111562000ad057600080fd5b62000ade8e838f0162000859565b93506101208d015191508082111562000af657600080fd5b5062000b058d828e016200090f565b9150509295989b9194979a5092959850565b60006020828403121562000b2a57600080fd5b815162000b3781620006d4565b9392505050565b60006020828403121562000b5157600080fd5b815160ff8116811462000b3757600080fd5b600181811c9082168062000b7857607f821691505b60208210810362000b9957634e487b7160e01b600052602260045260246000fd5b50919050565b601f82111562000bed57600081815260208120601f850160051c8101602086101562000bc85750805b601f850160051c820191505b8181101562000be95782815560010162000bd4565b5050505b505050565b81516001600160401b0381111562000c0e5762000c0e620006ff565b62000c268162000c1f845462000b63565b8462000b9f565b602080601f83116001811462000c5e576000841562000c455750858301515b600019600386901b1c1916600185901b17855562000be9565b600085815260208120601f198616915b8281101562000c8f5788860151825594840194600190910190840162000c6e565b508582101562000cae5787850151600019600388901b60f8161c191681555b5050505050600190811b01905550565b60006020828403121562000cd157600080fd5b62000b3782620008fe565b602081526000825180602084015262000cfd81604085016020870162000799565b601f01601f19169190910160400192915050565b634e487b7160e01b600052603260045260246000fd5b60006001820162000d4857634e487b7160e01b600052601160045260246000fd5b5060010190565b600080835462000d5f8162000b63565b6001828116801562000d7a576001811462000d905762000dc1565b60ff198416875282151583028701945062000dc1565b8760005260208060002060005b8581101562000db85781548a82015290840190820162000d9d565b50505082870194505b50929695505050505050565b60805160a05160c05160e051615d0462000e38600039600081816106ed01528181611f8e0152818161252e0152818161291b01528181612bb10152818161376f0152818161468c01526149350152600061134a01526000611315015260006106320152615d046000f3fe608060405234801561001057600080fd5b50600436106104e25760003560e01c80637f479cb71161028e578063c63d75b611610167578063d905777e116100d9578063efbb5cb011610092578063efbb5cb0146107b2578063f3aa68d314610d88578063f9557ccb14610d90578063fbfa77cf14610dae578063fd1c317a14610dc1578063fd1e8c8514610dd457600080fd5b8063d905777e14610ce3578063dd62ed3e14610d0c578063e33f636514610d37578063ee54706b14610d4a578063eee2421914610d75578063ef8b30f71461056757600080fd5b8063cd8886ee1161012b578063cd8886ee14610bdc578063cdddd4e514610bef578063ce96cb7714610c1a578063d3160c0f14610c2d578063d505accf14610cbd578063d67b5d7a14610cd057600080fd5b8063c63d75b614610722578063c6e6f59214610b7c578063c7be978614610b8f578063cb0fe39414610b97578063cc77a47714610baa57600080fd5b806395d89b4111610200578063b3d7f6b9116101c4578063b3d7f6b91461077f578063b460af9414610b1e578063b68d0a0914610b31578063ba08765214610b56578063bdf0f25314610a1f578063c270a54414610b6957600080fd5b806395d89b4114610add578063a4e2d63414610a1f578063a9059cbb14610ae5578063acb7081514610af8578063b2b93fe314610b0b57600080fd5b806383e754a01161025257806383e754a014610a1f5780638418634f14610a26578063852a12e314610a5157806394bf804d14610a6457806394e301e014610a7757806395d14ca814610a8a57600080fd5b80637f479cb71461096c57806381859b5a1461098f5780638285ef40146109a25780638354cc59146109e0578063838f4437146109f557600080fd5b8063404ffa7a116103c05780635b50fbf3116103325780636e553f65116102f65780636e553f65146108d05780636f307dc3146108e3578063705f363d146108f657806370a08231146109245780637426e7a4146109445780637ecebe001461094c57600080fd5b80635b50fbf31461087b5780635fdb07f61461088e57806367a5d095146108a15780636817031b146108b45780636c8ae38c146108c757600080fd5b806350bb4beb1161038457806350bb4beb146107b2578063537d9409146107b957806356968f97146107cc57806357b25996146107df5780635a0f03c6146107f25780635b3c8ea71461080557600080fd5b8063404ffa7a14610737578063416288dd1461074a57806349dcf4ed1461075c5780634cdad5061461077f5780634fd422df1461079257600080fd5b80631f17b2c41161045957806335aa2e441161041d57806335aa2e44146106ba5780633644e515146106cd57806338094ae7146106d557806338d52e0f146106e85780633af9e6691461070f578063402d267d1461072257600080fd5b80631f17b2c41461060757806323b872dd1461061a578063313ce5671461062d57806332ae4f4014610666578063350896fe146106a757600080fd5b80630a28a477116104ab5780630a28a477146105675780630d09365c1461057a5780631104aafd146105ab578063150b7a02146105b357806318160ddd146105eb5780631e018348146105f457600080fd5b8062ede7e4146104e757806301e1d114146104fc57806306fdde031461051c57806307a2d13a14610531578063095ea7b314610544575b600080fd5b6104fa6104f5366004614fe0565b610de7565b005b600f546001600160801b03165b6040519081526020015b60405180910390f35b610524610ed2565b6040516105139190615043565b61050961053f366004615056565b610f60565b61055761055236600461506f565b610f9c565b6040519015158152602001610513565b610509610575366004615056565b611008565b610582611013565b604080519485526020850193909352918301526001600160401b03166060820152608001610513565b600854610509565b6105d26105c136600461509b565b630a85bd0160e11b95945050505050565b6040516001600160e01b03199091168152602001610513565b61050960025481565b610509610602366004615139565b61105b565b610557610615366004614fe0565b611166565b610557610628366004615139565b611205565b6106547f000000000000000000000000000000000000000000000000000000000000000081565b60405160ff9091168152602001610513565b61068f610674366004615056565b6013602052600090815260409020546001600160a01b031681565b6040516001600160a01b039091168152602001610513565b600a5461068f906001600160a01b031681565b61068f6106c8366004615056565b6112e7565b610509611311565b6105576106e3366004614fe0565b61136c565b61068f7f000000000000000000000000000000000000000000000000000000000000000081565b61050961071d366004614fe0565b61137f565b610509610730366004614fe0565b5060001990565b610509610745366004615188565b61147a565b6104fa6107583660046151b8565b5050565b6107646114b0565b60408051938452602084019290925290820152606001610513565b61050961078d366004615056565b6114fe565b6105096107a0366004614fe0565b60146020526000908152604090205481565b6000610509565b6105576107c7366004615056565b611509565b6105096107da366004615188565b611550565b6104fa6107ed366004614fe0565b611586565b610509610800366004614fe0565b61169a565b610818610813366004615056565b611977565b60405161051391906000610100820190508251825260208301516020830152604083015160408301526060830151151560608301526080830151608083015260a083015160a083015260c083015160c083015260e083015160e083015292915050565b6104fa61088936600461506f565b611a34565b61050961089c36600461506f565b611d93565b6105096108af366004615056565b611dda565b6104fa6108c2366004614fe0565b611e35565b610509601d5481565b6105096108de3660046151da565b611f36565b60065461068f906001600160a01b031681565b61055761090436600461506f565b601560209081526000928352604080842090915290825290205460ff1681565b610509610932366004614fe0565b60036020526000908152604090205481565b610509612010565b61050961095a366004614fe0565b60056020526000908152604090205481565b61055761097a366004615056565b60116020526000908152604090205460ff1681565b6104fa61099d3660046151ff565b612063565b600e546109c0906001600160801b0380821691600160801b90041682565b604080516001600160801b03938416815292909116602083015201610513565b6109e8612101565b60405161051391906152ad565b610a08610a03366004615139565b612176565b604080519215158352901515602083015201610513565b6001610557565b610509610a343660046151da565b601260209081526000928352604080842090915290825290205481565b610557610a5f366004615056565b61246e565b610509610a723660046151da565b612514565b610509610a85366004615188565b6125b0565b601954610ab3906001600160401b0380821691600160401b8104821691600160801b9091041683565b604080516001600160401b0394851681529284166020840152921691810191909152606001610513565b6105246125e6565b610557610af336600461506f565b6125f3565b610509610b063660046151da565b612659565b610509610b193660046152c0565b612714565b610509610b2c366004615327565b612834565b610b44610b3f366004614fe0565b612942565b60405161051396959493929190615369565b610509610b64366004615327565b612a8c565b610509610b77366004615188565b612bd8565b610509610b8a366004615056565b612c0e565b610524612c44565b6104fa610ba53660046153d1565b612c51565b610bbd610bb836600461506f565b612d7f565b604080516001600160a01b039093168352602083019190915201610513565b610557610bea36600461506f565b612dc5565b610c05610bfd366004615056565b600080915091565b60408051928352602083019190915201610513565b610509610c28366004614fe0565b612e04565b610c82610c3b366004615056565b6010602052600090815260409020805460018201546002830154600384015460048501546005860154600687015460079097015495969495939460ff909316939192909188565b604080519889526020890197909752958701949094529115156060860152608085015260a084015260c083015260e082015261010001610513565b6104fa610ccb366004615416565b612e26565b6104fa610cde3660046151ff565b61306a565b610509610cf1366004614fe0565b6001600160a01b031660009081526003602052604090205490565b610509610d1a366004615487565b600460209081526000928352604080842090915290825290205481565b6104fa610d453660046154b5565b61312f565b610d5d610d583660046154f5565b613211565b6040516001600160801b039091168152602001610513565b60175461068f906001600160a01b031681565b6104fa613884565b600f546109c0906001600160801b0380821691600160801b90041682565b60075461068f906001600160a01b031681565b610509610dcf366004614fe0565b6138bc565b6104fa610de236600461506f565b613b37565b600760009054906101000a90046001600160a01b03166001600160a01b0316638da5cb5b6040518163ffffffff1660e01b8152600401602060405180830381865afa158015610e3a573d6000803e3d6000fd5b505050506040513d601f19601f82011682018060405250810190610e5e919061553a565b6001600160a01b0316336001600160a01b031614610eb05760405162461bcd60e51b815260206004820152600a60248201526937b7363c9037bbb732b960b11b60448201526064015b60405180910390fd5b601c80546001600160a01b0319166001600160a01b0392909216919091179055565b60008054610edf90615557565b80601f0160208091040260200160405190810160405280929190818152602001828054610f0b90615557565b8015610f585780601f10610f2d57610100808354040283529160200191610f58565b820191906000526020600020905b815481529060010190602001808311610f3b57829003601f168201915b505050505081565b60408051808201909152600f546001600160801b038082168352600160801b909104166020820152600090610f96908383613c38565b92915050565b3360008181526004602090815260408083206001600160a01b038716808552925280832085905551919290917f8c5be1e5ebec7d5bd14f71427d1e84f3dd0314c0f7b2291e5b200ac8c7c3b92590610ff79086815260200190565b60405180910390a350600192915050565b6000610f9682612c0e565b600080600080600d5460011461103b5760405162461bcd60e51b8152600401610ea79061558b565b6002600d55611048613ccc565b6001600d55929791965094509092509050565b600082826011600061106d8484611d93565b815260208101919091526040016000205460ff1661109d5760405162461bcd60e51b8152600401610ea7906155af565b600d546001146110bf5760405162461bcd60e51b8152600401610ea79061558b565b6002600d556110cc613ccc565b505050506110d98661136c565b1561115857601c54604051630396f69360e01b81526001600160a01b0390911690630396f69390611112908990899089906004016155dd565b6020604051808303816000875af1158015611131573d6000803e3d6000fd5b505050506040513d601f19601f820116820180604052508101906111559190615601565b92505b50506001600d559392505050565b600080611172836138bc565b6001600160a01b0384166000908152601460205260408120549192500361119c5750600192915050565b806000036111ad5750600092915050565b6001600160a01b0383166000908152601460209081526040808320548151808301909252600e546001600160801b038082168452600160801b90910416928201929092526111fd92909190613c38565b111592915050565b6001600160a01b038316600090815260046020908152604080832033845290915281205460001981146112615761123c8382615630565b6001600160a01b03861660009081526004602090815260408083203384529091529020555b6001600160a01b03851660009081526003602052604081208054859290611289908490615630565b90915550506001600160a01b0380851660008181526003602052604090819020805487019055519091871690600080516020615caf833981519152906112d29087815260200190565b60405180910390a360019150505b9392505050565b600b81815481106112f757600080fd5b6000918252602090912001546001600160a01b0316905081565b60007f00000000000000000000000000000000000000000000000000000000000000004614611347576113426140a1565b905090565b507f000000000000000000000000000000000000000000000000000000000000000090565b6000806113788361169a565b1292915050565b6000306001600160a01b0383160361140c576009546006546040516370a0823160e01b81526001600160a01b038581166004830152909116906370a0823190602401602060405180830381865afa1580156113de573d6000803e3d6000fd5b505050506040513d601f19601f820116820180604052508101906114029190615601565b610f969190615630565b6006546040516370a0823160e01b81526001600160a01b038481166004830152909116906370a0823190602401602060405180830381865afa158015611456573d6000803e3d6000fd5b505050506040513d601f19601f82011682018060405250810190610f969190615601565b60408051808201909152600f546001600160801b038082168352600160801b9091041660208201526000906112e0908484613c38565b600754600090819081906001600160a01b031633146114e15760405162461bcd60e51b8152600401610ea790615643565b6114f96007805460ff60a01b1916600160a01b179055565b909192565b6000610f9682610f60565b600061153e604051806040016040528060088152602001671a5cdb1a5c5d5a5960c21b8152506115383061137f565b8461413b565b816115483061137f565b101592915050565b60408051808201909152600f546001600160801b038082168352600160801b9091041660208201526000906112e0908484614182565b600760009054906101000a90046001600160a01b03166001600160a01b0316638da5cb5b6040518163ffffffff1660e01b8152600401602060405180830381865afa1580156115d9573d6000803e3d6000fd5b505050506040513d601f19601f820116820180604052508101906115fd919061553a565b6001600160a01b0316336001600160a01b0316148061162b5750336000908152600c602052604090205460ff165b6116655760405162461bcd60e51b815260206004820152600b60248201526a08585d5d1a1bdc9a5e995960aa1b6044820152606401610ea7565b6001600160a01b03811661167857600080fd5b600a80546001600160a01b0319166001600160a01b0392909216919091179055565b6001600160a01b0381166000908152601660209081526040808320805482518185028101850190935280835284938493929190849084015b8282101561171a576000848152602090819020604080518082019091526002850290910180546001600160a01b031682526001908101548284015290835290920191016116d2565b50505050905060005b815181101561191357600082828151811061174057611740615671565b60200260200101519050600061175e82600001518360200151611d93565b60008181526010602090815260409182902082516101008101845281548152600182015492810192909252600281015492820192909252600382015460ff161580156060830181905260048401546080840152600584015460a0840152600684015460c084015260079093015460e0830152929350916117ff575060008281526012602090815260408083206001600160a01b038c16845290915290205415155b156118ca57600083600001516001600160a01b031663313ce5676040518163ffffffff1660e01b8152600401602060405180830381865afa158015611848573d6000803e3d6000fd5b505050506040513d601f19601f8201168201806040525081019061186c9190615687565b60ff16905061187c81600a615788565b60208084015160008681526012835260408082206001600160a01b038f16835290935291909120546118ae9190615794565b6118b891906157ab565b6118c290886157cd565b9650506118fd565b6000828152601360205260409020546001600160a01b03808a169116036118fd5760208101516118fa90876157cd565b95505b505050808061190b906157e0565b915050611723565b506001600160a01b038416600090815260146020908152604091829020548251808401909352600e546001600160801b038082168552600160801b909104169183019190915261196591906001613c38565b61196f90836157f9565b949350505050565b6119c1604051806101000160405280600081526020016000815260200160008152602001600015158152602001600081526020016000815260200160008152602001600081525090565b5060009081526010602090815260409182902082516101008101845281548152600182015492810192909252600281015492820192909252600382015460ff161515606082015260048201546080820152600582015460a0820152600682015460c082015260079091015460e082015290565b818160116000611a448484611d93565b815260208101919091526040016000205460ff16611a745760405162461bcd60e51b8152600401610ea7906155af565b336000611a818686611d93565b33600090815260156020908152604080832084845290915290205490915060ff16611aac5750611d60565b60008181526012602090815260408083203384529091529020541580611ae957506000818152601360205260409020546001600160a01b03163314155b611b4d5760405162461bcd60e51b815260206004820152602f60248201527f6d7573742072656d6f766520616c6c2072656d61696e696e6720636f6c6c617460448201526e6572616c20746f2064697361626c6560881b6064820152608401610ea7565b33600090815260166020908152604080832080548251818502810185019093528083529192909190849084015b82821015611bc2576000848152602090819020604080518082019091526002850290910180546001600160a01b03168252600190810154828401529083529092019101611b7a565b50505050905060005b8151811015611d3c57876001600160a01b0316828281518110611bf057611bf0615671565b6020026020010151600001516001600160a01b0316148015611c2e575086828281518110611c2057611c20615671565b602002602001015160200151145b15611d2a573360009081526016602052604090208054611c5090600190615630565b81548110611c6057611c60615671565b906000526020600020906002020160166000336001600160a01b03166001600160a01b031681526020019081526020016000208281548110611ca457611ca4615671565b60009182526020808320845460029093020180546001600160a01b0319166001600160a01b039093169290921782556001938401549390910192909255338152601690915260409020805480611cfc57611cfc615820565b60008281526020812060026000199093019283020180546001600160a01b0319168155600101559055611d3c565b80611d34816157e0565b915050611bcb565b505033600090815260156020908152604080832093835292905220805460ff191690555b6000611d6b8261136c565b90508015611d8b5760405162461bcd60e51b8152600401610ea790615836565b505050505050565b6040516bffffffffffffffffffffffff19606084901b1660208201526034810182905260009060540160405160208183030381529060405280519060200120905092915050565b6000611e1a6040518060400160405280600b81526020016a746f74616c537570706c7960a81b81525083611e15670de0b6b3a76400006114fe565b61413b565b610f96611e2e670de0b6b3a76400006114fe565b83906141f7565b600760009054906101000a90046001600160a01b03166001600160a01b0316638da5cb5b6040518163ffffffff1660e01b8152600401602060405180830381865afa158015611e88573d6000803e3d6000fd5b505050506040513d601f19601f82011682018060405250810190611eac919061553a565b6001600160a01b0316336001600160a01b03161480611eda5750336000908152600c602052604090205460ff165b611f145760405162461bcd60e51b815260206004820152600b60248201526a08585d5d1a1bdc9a5e995960aa1b6044820152606401610ea7565b600780546001600160a01b0319166001600160a01b0392909216919091179055565b6000611f4183611008565b905080600003611f815760405162461bcd60e51b815260206004820152600b60248201526a5a45524f5f53484152455360a81b6044820152606401610ea7565b611fb66001600160a01b037f00000000000000000000000000000000000000000000000000000000000000001633308661420c565b611fc0828261428f565b60408051848152602081018390526001600160a01b0384169133917fdcbc1c05240f31ff3ad067ef1ee35ce4997762752e3a095284754544f4c709d7910160405180910390a3610f9683826142e9565b604080518082018252600f546001600160801b038082168352600160801b9182900481166020808501919091528451808601909552600e548083168652929092041690830152600091611342919061437b565b8484601160006120738484611d93565b815260208101919091526040016000205460ff166120a35760405162461bcd60e51b8152600401610ea7906155af565b600d546001146120c55760405162461bcd60e51b8152600401610ea79061558b565b6002600d556120d2613ccc565b5050505082156120e6576120e68787613b37565b6120f3338887878a61439b565b50506001600d555050505050565b6060601a805480602002602001604051908101604052809291908181526020016000905b8282101561216d576000848152602090819020604080518082019091526002850290910180546001600160a01b03168252600190810154828401529083529092019101612125565b50505050905090565b6000808383601160006121898484611d93565b815260208101919091526040016000205460ff166121b95760405162461bcd60e51b8152600401610ea7906155af565b601c54604051638fdb045960e01b81526000916001600160a01b031690638fdb0459906121ee908b908b908b906004016155dd565b60a060405180830381865afa15801561220b573d6000803e3d6000fd5b505050506040513d601f19601f8201168201806040525081019061222f919061589e565b90506000601060006122418a8a611d93565b8152602080820192909252604090810160002081516101008101835281548152600182015493810193909352600281015491830191909152600381015460ff161515606083015260048101546080830152600581015460a0830152600681015460c08301526007015460e082015290506122ba8961136c565b61232c57601c5460405163254f7c0360e21b81526001600160a01b038b811660048301529091169063953df00c90602401600060405180830381600087803b15801561230557600080fd5b505af1158015612319573d6000803e3d6000fd5b5050505060006001955095505050612464565b8060800151826060015161234091906157cd565b4211806123e757506123716123668260e0015183602001516141f790919063ffffffff16565b60a0830151906141f7565b601c54604051623b8af960e51b81526001600160a01b03909116906307715f20906123a4908d908d908d906004016155dd565b602060405180830381865afa1580156123c1573d6000803e3d6000fd5b505050506040513d601f19601f820116820180604052508101906123e59190615601565b105b1561246157601c54604051636ebf865560e11b81526001600160a01b039091169063dd7f0caa90612420908c908c908c906004016155dd565b600060405180830381600087803b15801561243a57600080fd5b505af115801561244e573d6000803e3d6000fd5b5050505060016000955095505050612464565b50505b5050935093915050565b6007546000906001600160a01b0316331461249b5760405162461bcd60e51b8152600401610ea790615643565b60065460075460405163a9059cbb60e01b81526001600160a01b0391821660048201526024810185905291169063a9059cbb906044016020604051808303816000875af11580156124f0573d6000803e3d6000fd5b505050506040513d601f19601f82011682018060405250810190610f969190615925565b600061251f836114fe565b90506125566001600160a01b037f00000000000000000000000000000000000000000000000000000000000000001633308461420c565b612560828461428f565b60408051828152602081018590526001600160a01b0384169133917fdcbc1c05240f31ff3ad067ef1ee35ce4997762752e3a095284754544f4c709d7910160405180910390a3610f9681846142e9565b60408051808201909152600e546001600160801b038082168352600160801b9091041660208201526000906112e0908484613c38565b60018054610edf90615557565b33600090815260036020526040812080548391908390612614908490615630565b90915550506001600160a01b03831660008181526003602052604090819020805485019055513390600080516020615caf83398151915290610ff79086815260200190565b6000600d5460011461267d5760405162461bcd60e51b8152600401610ea79061558b565b6002600d5560408051808201909152600e546001600160801b038082168352600160801b9091041660208201526126b681856001613c38565b91506126eb60405180604001604052806011815260200170030b6b7bab73a103a37903932b830bc9d1607d1b8152508361452c565b612708816126f884614571565b61270187614571565b3387614587565b506001600d5592915050565b600033600d546001146127395760405162461bcd60e51b8152600401610ea79061558b565b6002600d55612746613ccc565b505050506001600160a01b0387161580159061276c5750600085118061276c5750600086115b156127eb57600061277d8888611d93565b60008181526011602052604090205490915060ff166127cc5760405162461bcd60e51b815260206004820152600b60248201526a085d5b985c1c1c9bdd995960aa1b6044820152606401610ea7565b83156127dc576127dc8888613b37565b6127e9338988338b61439b565b505b6127fd6127f789614571565b8561479b565b6001600d55915061280d81611166565b6128295760405162461bcd60e51b8152600401610ea790615836565b509695505050505050565b600061283f84611008565b9050336001600160a01b038316146128af576001600160a01b038216600090815260046020908152604080832033845290915290205460001981146128ad576128888282615630565b6001600160a01b03841660009081526004602090815260408083203384529091529020555b505b6128b9848261496d565b6128c38282614a98565b60408051858152602081018390526001600160a01b03808516929086169133917ffbde797d201c681b91056529119e0b02407c7bb96a4a2c75c01fc9667232c8db910160405180910390a46112e06001600160a01b037f0000000000000000000000000000000000000000000000000000000000000000168486614afa565b6001600160a01b0381166000908152600360209081526040808320548151808301909252600f546001600160801b038082168452600160801b909104169282019290925290919081908190819060609061299d908784613c38565b6001600160a01b0388166000908152601460209081526040808320548151808301909252600e546001600160801b038082168452600160801b909104169282019290925292975095506129f291908690613c38565b92506129fd8761169a565b6001600160a01b0388166000908152601660209081526040808320805482518185028101850190935280835294965090939092909184015b82821015612a7d576000848152602090819020604080518082019091526002850290910180546001600160a01b03168252600190810154828401529083529092019101612a35565b50505050905091939550919395565b6000336001600160a01b03831614612afc576001600160a01b03821660009081526004602090815260408083203384529091529020546000198114612afa57612ad58582615630565b6001600160a01b03841660009081526004602090815260408083203384529091529020555b505b612b05846114fe565b905080600003612b455760405162461bcd60e51b815260206004820152600b60248201526a5a45524f5f41535345545360a81b6044820152606401610ea7565b612b4f818561496d565b612b598285614a98565b60408051828152602081018690526001600160a01b03808516929086169133917ffbde797d201c681b91056529119e0b02407c7bb96a4a2c75c01fc9667232c8db910160405180910390a46112e06001600160a01b037f0000000000000000000000000000000000000000000000000000000000000000168483614afa565b60408051808201909152600e546001600160801b038082168352600160801b9091041660208201526000906112e0908484614182565b60408051808201909152600f546001600160801b038082168352600160801b909104166020820152600090610f96908383614182565b60188054610edf90615557565b600760009054906101000a90046001600160a01b03166001600160a01b0316638da5cb5b6040518163ffffffff1660e01b8152600401602060405180830381865afa158015612ca4573d6000803e3d6000fd5b505050506040513d601f19601f82011682018060405250810190612cc8919061553a565b6001600160a01b0316336001600160a01b031614612d115760405162461bcd60e51b815260206004820152600660248201526510b7bbb732b960d11b6044820152606401610ea7565b6000612d2d612d236020850185614fe0565b8460200135611d93565b60008181526011602052604090205490915060ff16612d5e5760405162461bcd60e51b8152600401610ea7906155af565b60008181526010602052604090208290612d788282615942565b5050505050565b60166020528160005260406000208181548110612d9b57600080fd5b6000918252602090912060029091020180546001909101546001600160a01b039091169250905082565b6001600160a01b0382166000908152600360205260408120548290612de9906114fe565b101580156112e0575081612dfb612010565b10159392505050565b6001600160a01b038116600090815260036020526040812054610f9690610f60565b42841015612e765760405162461bcd60e51b815260206004820152601760248201527f5045524d49545f444541444c494e455f455850495245440000000000000000006044820152606401610ea7565b60006001612e82611311565b6001600160a01b038a811660008181526005602090815260409182902080546001810190915582517f6e71edae12b1b97f4d1f60370fef10105fa2faae0126114a169c64845d6126c98184015280840194909452938d166060840152608083018c905260a083019390935260c08083018b90528151808403909101815260e08301909152805192019190912061190160f01b6101008301526101028201929092526101228101919091526101420160408051601f198184030181528282528051602091820120600084529083018083525260ff871690820152606081018590526080810184905260a0016020604051602081039080840390855afa158015612f8e573d6000803e3d6000fd5b5050604051601f1901519150506001600160a01b03811615801590612fc45750876001600160a01b0316816001600160a01b0316145b6130015760405162461bcd60e51b815260206004820152600e60248201526d24a72b20a624a22fa9a4a3a722a960911b6044820152606401610ea7565b6001600160a01b0390811660009081526004602090815260408083208a8516808552908352928190208990555188815291928a16917f8c5be1e5ebec7d5bd14f71427d1e84f3dd0314c0f7b2291e5b200ac8c7c3b925910160405180910390a350505050505050565b600d5460011461308c5760405162461bcd60e51b8152600401610ea79061558b565b6002600d55338585601160006130a28484611d93565b815260208101919091526040016000205460ff166130d25760405162461bcd60e51b8152600401610ea7906155af565b6130da613ccc565b5050505083156130ee576130ee8888611a34565b6130fb8887893389614b72565b505061310681611166565b6131225760405162461bcd60e51b8152600401610ea790615836565b50506001600d5550505050565b600760009054906101000a90046001600160a01b03166001600160a01b0316638da5cb5b6040518163ffffffff1660e01b8152600401602060405180830381865afa158015613182573d6000803e3d6000fd5b505050506040513d601f19601f820116820180604052508101906131a6919061553a565b6001600160a01b0316336001600160a01b0316146131f35760405162461bcd60e51b815260206004820152600a60248201526937b7363c9037bbb732b960b11b6044820152606401610ea7565b61320c8383613207368590038501856159aa565b614d47565b505050565b6000814211156132535760405162461bcd60e51b815260206004820152600d60248201526c7061737420646561646c696e6560981b6044820152606401610ea7565b61325b613ccc565b506000925061327e915061327490506020870187614fe0565b8660200135611d93565b60008181526010602090815260409182902082516101008101845281548152600182015481840152600282015493810193909352600381015460ff161515606084015260048101546080840152600581015460a0840152600681015460c08401526007015460e0830152601c5492935090916001600160a01b031690638fdb045990899061330e908a018a614fe0565b89602001356040518463ffffffff1660e01b8152600401613331939291906155dd565b60a060405180830381865afa15801561334e573d6000803e3d6000fd5b505050506040513d601f19601f82011682018060405250810190613372919061589e565b608001516133ab5760405162461bcd60e51b815260206004820152600660248201526521616c69766560d01b6044820152606401610ea7565b6000806133c9896133bf60208b018b614fe0565b8a60200135612176565b9150915081806133d65750805b156133e857600094505050505061196f565b601c546000906001600160a01b03166307715f208b61340a60208d018d614fe0565b8c602001356040518463ffffffff1660e01b815260040161342d939291906155dd565b602060405180830381865afa15801561344a573d6000803e3d6000fd5b505050506040513d601f19601f8201168201806040525081019061346e9190615601565b90508360600151156135e55761348760208a018a614fe0565b6001600160a01b031663313ce5676040518163ffffffff1660e01b8152600401602060405180830381865afa1580156134c4573d6000803e3d6000fd5b505050506040513d601f19601f820116820180604052508101906134e89190615687565b6134f390600a615a45565b6134fd828a615794565b61350791906157ab565b95506135426040518060400160405280600e81526020016d746f74616c20636f73743a20257360901b815250876001600160801b031661452c565b60008581526012602090815260408083206001600160a01b038e16845290915290205488036135e057601c546001600160a01b0316633f5a92768b61358a60208d018d614fe0565b8c602001356040518463ffffffff1660e01b81526004016135ad939291906155dd565b600060405180830381600087803b1580156135c757600080fd5b505af11580156135db573d6000803e3d6000fd5b505050505b6137fc565b601c5490955085906001600160a01b0316633f5a92768b61360960208d018d614fe0565b8c602001356040518463ffffffff1660e01b815260040161362c939291906155dd565b600060405180830381600087803b15801561364657600080fd5b505af115801561365a573d6000803e3d6000fd5b5050506001600160a01b038b166000908152601460209081526040808320548151808301909252600e546001600160801b038082168452600160801b90910416928201929092526136ac935091613c38565b866001600160801b031611156137fc576001600160a01b038a166000908152601460209081526040808320548151808301909252600e546001600160801b038082168452600160801b909104169282019290925261370a9183613c38565b61371d906001600160801b038916615630565b905061372881614571565b600f80546000906137439084906001600160801b0316615a54565b92506101000a8154816001600160801b0302191690836001600160801b031602179055506137a73330837f00000000000000000000000000000000000000000000000000000000000000006001600160a01b031661420c909392919063ffffffff16565b6001600160a01b038b16600090815260146020908152604091829020548251808401909352600e546001600160801b038082168552600160801b90910416918301919091526137f891906001613c38565b9650505b604080518082018252600e546001600160801b03808216808452600160801b9092048116602080850182905285518087019096529285529184019190915290916138599183918a91613852919083166000614182565b338f614587565b61387661386960208c018c614fe0565b8a8c602001358e33614b72565b505050505050949350505050565b6007546001600160a01b031633146138ae5760405162461bcd60e51b8152600401610ea790615643565b6138b73061137f565b600855565b6001600160a01b038116600090815260166020908152604080832080548251818502810185019093528083528493849084015b82821015613937576000848152602090819020604080518082019091526002850290910180546001600160a01b031682526001908101548284015290835290920191016138ef565b50505050905060005b8151811015613b3057600082828151811061395d5761395d615671565b60200260200101519050600061397b82600001518360200151611d93565b60008181526010602090815260409182902082516101008101845281548152600182015492810192909252600281015492820192909252600382015460ff161580156060830181905260048401546080840152600584015460a0840152600684015460c084015260079093015460e083015292935091613a1c575060008281526012602090815260408083206001600160a01b038b16845290915290205415155b15613ae757600083600001516001600160a01b031663313ce5676040518163ffffffff1660e01b8152600401602060405180830381865afa158015613a65573d6000803e3d6000fd5b505050506040513d601f19601f82011682018060405250810190613a899190615687565b60ff169050613a9981600a615788565b6040808401516000868152601260209081528382206001600160a01b038e16835290529190912054613acb9190615794565b613ad591906157ab565b613adf90886157cd565b965050613b1a565b6000828152601360205260409020546001600160a01b03808916911603613b1a576040810151613b1790876157cd565b95505b5050508080613b28906157e0565b915050613940565b5050919050565b818160116000613b478484611d93565b815260208101919091526040016000205460ff16613b775760405162461bcd60e51b8152600401610ea7906155af565b6000613b838585611d93565b33600090815260156020908152604080832084845290915290205490915060ff1615613baf5750613c32565b3360008181526015602090815260408083209483529381528382208054600160ff1990911681179091559282526016815283822084518086019095526001600160a01b03898116865285830189815282548087018455928552929093209451600290910290940180546001600160a01b0319169490921693909317815591519101555b50505050565b600083602001516001600160801b0316600003613c565750816112e0565b602084015184516001600160801b0391821691613c74911685615794565b613c7e91906157ab565b9050818015613cbc57508284600001516001600160801b031685602001516001600160801b031683613cb09190615794565b613cba91906157ab565b105b156112e05761196f8160016157cd565b604080516060810182526019546001600160401b038082168352600160401b8204811660208401819052600160801b909204169282019290925260009182918291829190429003613d225760400151905061409b565b604080518082018252600f546001600160801b038082168352600160801b9182900481166020808501919091528451808601909552600e5480831686529290920416908301819052909190600003613dd25763096ba6c460408401526001600160401b034281166020850181905243909116808552601980546001600160801b031916909117600160401b9092029190911767ffffffffffffffff60801b191663025ae9b160821b179055614045565b600083602001516001600160401b031642613ded9190615630565b835183519192506000916001600160801b0391821691613e119116620186a0615794565b613e1b91906157ab565b905060008560400151838388600001516001600160401b031643613e3f9190615630565b604080516001600160401b0390951660208601528401929092526060830152608082015260a00160408051601f1981840301815290829052601754631b54c1a360e01b83529092506001600160a01b031690631b54c1a390613ea8908490601890600401615a74565b602060405180830381865afa158015613ec5573d6000803e3d6000fd5b505050506040513d601f19601f82011682018060405250810190613ee99190615b0f565b6001600160401b038082166040890181905242821660208a01524390911688528551919850670de0b6b3a764000091613f2b906001600160801b031686615794565b613f359190615794565b613f3f91906157ab565b8451909a506001600160801b0390613f599082168c6157cd565b11158015613f7c575084516001600160801b0390613f799082168c6157cd565b11155b15613fbd578984600001818151613f939190615a54565b6001600160801b031690525084518a908690613fb0908390615a54565b6001600160801b03169052505b505082516020808501516001600160801b03928316600160801b918416820217600f558651601980548985015160408b01516001600160401b039485166001600160801b031990931692909217600160401b918516919091021767ffffffffffffffff60801b1916921683029190911790558451918501519183169190921690910217600e55505b60408051888152602081018890529081018690526001600160401b038516606082015242907fb3f1ab1acc425f7672dd56d1f8912f1e1b18909cd52aef680190f13adb38a9659060800160405180910390a25050505b90919293565b60007f8b73c3c69bb8fe3d512ecc4cf759cc79239f7b179b0ffacaa9a75d522b39400f60006040516140d39190615b38565b6040805191829003822060208301939093528101919091527fc89efdaa54c0f20c7adf612882df0950f5a951637e0307cdcb4c672f298b8bc660608201524660808201523060a082015260c00160405160208183030381529060405280519060200120905090565b61320c83838360405160240161415393929190615bae565b60408051601f198184030181529190526020810180516001600160e01b031663969cdd0360e01b179052614f89565b82516000906001600160801b0316810361419d5750816112e0565b835160208501516001600160801b03918216916141bb911685615794565b6141c591906157ab565b9050818015613cbc57508284602001516001600160801b031685600001516001600160801b031683613cb09190615794565b60006112e08383670de0b6b3a7640000614faa565b60006040516323b872dd60e01b81528460048201528360248201528260448201526020600060648360008a5af13d15601f3d1160016000511416171691505080612d785760405162461bcd60e51b81526020600482015260146024820152731514905394d1915497d19493d357d1905253115160621b6044820152606401610ea7565b80600260008282546142a191906157cd565b90915550506001600160a01b038216600081815260036020908152604080832080548601905551848152600080516020615caf83398151915291015b60405180910390a35050565b60408051808201909152600f546001600160801b038082168352600160801b90910416602082015261431a83614571565b81518290614329908390615a54565b6001600160801b031690525061433e82614571565b8160200181815161434f9190615a54565b6001600160801b0390811690915282516020909301518116600160801b02921691909117600f55505050565b8051825160009161438b91615bd3565b6001600160801b03169392505050565b60006143a78583611d93565b60008181526010602052604090206003015490915060ff166001600160a01b03871630146144d357801561444a5760008281526012602090815260408083206001600160a01b0388168452909152812080548792906144079084906157cd565b90915550506000828152601060205260408120805487929061442a9084906157cd565b9091555061444590506001600160a01b03871688308861420c565b6144d3565b6000828152601360205260409081902080546001600160a01b0319166001600160a01b03878116919091179091559051632142170760e11b8152908716906342842e0e906144a0908a90309088906004016155dd565b600060405180830381600087803b1580156144ba57600080fd5b505af11580156144ce573d6000803e3d6000fd5b505050505b604080516001600160a01b03888116825260208201869052918101879052908516907f33a089d94f9a0b7d0fe21e69b40d7dbe1965be652c7382cc778d46963db8c49b906060015b60405180910390a250505050505050565b6107588282604051602401614542929190615bf3565b60408051601f198184030181529190526020810180516001600160e01b03166309710a9d60e41b179052614f89565b6000600160801b821061458357600080fd5b5090565b83856000018181516145999190615bd3565b6001600160801b03169052506020850180518491906145b9908390615bd3565b6001600160801b039081169091526001600160a01b038316600090815260146020526040812080549287169350916145f2908490615630565b9091555050845160208601516001600160801b03908116600160801b02911617600e556040516001600160a01b038216907f77c6871227e5d2dec8dadd5354f78453203e22e669cd0ec4c19d9a8c5edb31d09061466790879087906001600160801b0392831681529116602082015260400190565b60405180910390a26001600160a01b03821630146146bd576146bd6001600160a01b037f00000000000000000000000000000000000000000000000000000000000000001683306001600160801b03881661420c565b601c5460405163470465bb60e11b81526001600160a01b03838116600483015290911690638e08cb7690602401600060405180830381865afa158015614707573d6000803e3d6000fd5b505050506040513d6000823e601f3d908101601f1916820160405261472f9190810190615c15565b5115612d7857601c5460405163254f7c0360e21b81526001600160a01b0383811660048301529091169063953df00c90602401600060405180830381600087803b15801561477c57600080fd5b505af1158015614790573d6000803e3d6000fd5b505050505050505050565b604080518082018252600e546001600160801b038082168352600160801b9182900481166020808501919091528451808601909552600f54808316865292909204169083015260009182906147f0908361437b565b9050846001600160801b031681101561483e5760405162461bcd60e51b815260206004820152601060248201526f21617373657473417661696c61626c6560801b6044820152606401610ea7565b614853826001600160801b0387166001614182565b925084826000018181516148679190615a54565b6001600160801b0316905250602082018051849190614887908390615a54565b6001600160801b0390811690915283516020808601518316600160801b029190921617600e5533600090815260149091526040812080548693509091906148cf9084906157cd565b9091555050604080516001600160801b03871681526020810185905233917fe1979fe4c35e0cef342fef5668e2c8e7a7e9f5d5d1ca8fee0ac6c427fa4153af910160405180910390a26001600160a01b0384163014614965576149656001600160a01b037f000000000000000000000000000000000000000000000000000000000000000016856001600160801b038816614afa565b505092915050565b604080518082018252600f546001600160801b038082168352600160801b9182900481166020808501919091528451808601909552600e5480831686529290920416908301526000916149c0919061437b565b905082811015614a055760405162461bcd60e51b815260206004820152601060248201526f1b9bdd08195b9bdd59da08185cdcd95d60821b6044820152606401610ea7565b60408051808201909152600f546001600160801b038082168352600160801b909104166020820152614a3684614571565b81518290614a45908390615bd3565b6001600160801b0316905250614a5a83614571565b81602001818151614a6b9190615bd3565b6001600160801b0390811690915282516020909301518116600160801b02921691909117600f5550505050565b6001600160a01b03821660009081526003602052604081208054839290614ac0908490615630565b90915550506002805482900390556040518181526000906001600160a01b03841690600080516020615caf833981519152906020016142dd565b600060405163a9059cbb60e01b8152836004820152826024820152602060006044836000895af13d15601f3d1160016000511416171691505080613c325760405162461bcd60e51b815260206004820152600f60248201526e1514905394d1915497d19052531151608a1b6044820152606401610ea7565b6000614b7e8685611d93565b60008181526010602052604090206003015490915060ff166001600160a01b0383163014614cfb578015614c205760008281526012602090815260408083206001600160a01b038816845290915281208054889290614bde908490615630565b909155505060008281526010602052604081208054889290614c01908490615630565b90915550614c1b90506001600160a01b0388168488614afa565b614cfb565b6000828152601360205260409020546001600160a01b03858116911614614c7c5760405162461bcd60e51b815260206004820152601060248201526f1b9bdd081bdddb995c881bd9881b999d60821b6044820152606401610ea7565b6000828152601360205260409081902080546001600160a01b031916905551632142170760e11b81526001600160a01b038816906342842e0e90614cc890309087908a906004016155dd565b600060405180830381600087803b158015614ce257600080fd5b505af1158015614cf6573d6000803e3d6000fd5b505050505b604080516001600160a01b03898116825260208201889052918101889052908516907f37c4d2e6036e28a1f1ed3eed26620e1e370df577673d4eb2decef5d3ea44a9499060600161451b565b6000614d538484611d93565b60008181526011602052604090205490915060ff1615614da85760405162461bcd60e51b815260206004820152601060248201526f185b1c9958591e48185c1c1c9bdd995960821b6044820152606401610ea7565b8160200151826040015110614e135760405162461bcd60e51b815260206004820152602b60248201527f6d6178426f72726f77416d6f756e74206d757374206265206c6573732074686160448201526a1b881b585e105b5bdd5b9d60aa1b6064820152608401610ea7565b816060015115614e6b578215614e6b5760405162461bcd60e51b815260206004820152601b60248201527f746f6b656e4964206d757374206265203020666f7220455243323000000000006044820152606401610ea7565b6000808352818152601060209081526040808320855181558286015160018083019190915582870151600280840191909155606088015160038401805491151560ff199283161790556080890151600485015560a0890151600585015560c0890151600685015560e090980151600790930192909255825180840184526001600160a01b03998a168152808501988952601a80548084018255908752905192027f057c384a7d1c54f3a1b2e5e67b2617b8224fdfd1ea7234eea573a6ff665ff63e8101805493909a166001600160a01b03199093169290921790985595517f057c384a7d1c54f3a1b2e5e67b2617b8224fdfd1ea7234eea573a6ff665ff63f9096019590955591815260119091529190912080549091169091179055565b80516a636f6e736f6c652e6c6f67602083016000808483855afa5050505050565b6000826000190484118302158202614fc157600080fd5b5091020490565b6001600160a01b0381168114614fdd57600080fd5b50565b600060208284031215614ff257600080fd5b81356112e081614fc8565b6000815180845260005b8181101561502357602081850181015186830182015201615007565b506000602082860101526020601f19601f83011685010191505092915050565b6020815260006112e06020830184614ffd565b60006020828403121561506857600080fd5b5035919050565b6000806040838503121561508257600080fd5b823561508d81614fc8565b946020939093013593505050565b6000806000806000608086880312156150b357600080fd5b85356150be81614fc8565b945060208601356150ce81614fc8565b93506040860135925060608601356001600160401b03808211156150f157600080fd5b818801915088601f83011261510557600080fd5b81358181111561511457600080fd5b89602082850101111561512657600080fd5b9699959850939650602001949392505050565b60008060006060848603121561514e57600080fd5b833561515981614fc8565b9250602084013561516981614fc8565b929592945050506040919091013590565b8015158114614fdd57600080fd5b6000806040838503121561519b57600080fd5b8235915060208301356151ad8161517a565b809150509250929050565b600080604083850312156151cb57600080fd5b50508035926020909101359150565b600080604083850312156151ed57600080fd5b8235915060208301356151ad81614fc8565b600080600080600060a0868803121561521757600080fd5b853561522281614fc8565b94506020860135935060408601359250606086013561524081614fc8565b915060808601356152508161517a565b809150509295509295909350565b600081518084526020808501945080840160005b838110156152a257815180516001600160a01b031688528301518388015260409096019590820190600101615272565b509495945050505050565b6020815260006112e0602083018461525e565b60008060008060008060c087890312156152d957600080fd5b8635955060208701356152eb81614fc8565b94506040870135935060608701359250608087013561530981614fc8565b915060a08701356153198161517a565b809150509295509295509295565b60008060006060848603121561533c57600080fd5b83359250602084013561534e81614fc8565b9150604084013561535e81614fc8565b809150509250925092565b86815285602082015284604082015283606082015282608082015260c060a0820152600061539a60c083018461525e565b98975050505050505050565b6000604082840312156153b857600080fd5b50919050565b600061010082840312156153b857600080fd5b60008061014083850312156153e557600080fd5b6153ef84846153a6565b91506153fe84604085016153be565b90509250929050565b60ff81168114614fdd57600080fd5b600080600080600080600060e0888a03121561543157600080fd5b873561543c81614fc8565b9650602088013561544c81614fc8565b95506040880135945060608801359350608088013561546a81615407565b9699959850939692959460a0840135945060c09093013592915050565b6000806040838503121561549a57600080fd5b82356154a581614fc8565b915060208301356151ad81614fc8565b600080600061014084860312156154cb57600080fd5b83356154d681614fc8565b9250602084013591506154ec85604086016153be565b90509250925092565b60008060008060a0858703121561550b57600080fd5b843561551681614fc8565b935061552586602087016153a6565b93969395505050506060820135916080013590565b60006020828403121561554c57600080fd5b81516112e081614fc8565b600181811c9082168061556b57607f821691505b6020821081036153b857634e487b7160e01b600052602260045260246000fd5b6020808252600a90820152695245454e5452414e435960b01b604082015260600190565b6020808252601490820152730858dbdb1b185d195c985b17d85c1c1c9bdd995960621b604082015260600190565b6001600160a01b039384168152919092166020820152604081019190915260600190565b60006020828403121561561357600080fd5b5051919050565b634e487b7160e01b600052601160045260246000fd5b81810381811115610f9657610f9661561a565b60208082526014908201527318d85b1b195c881b5d5cdd081899481d985d5b1d60621b604082015260600190565b634e487b7160e01b600052603260045260246000fd5b60006020828403121561569957600080fd5b81516112e081615407565b600181815b808511156156df5781600019048211156156c5576156c561561a565b808516156156d257918102915b93841c93908002906156a9565b509250929050565b6000826156f657506001610f96565b8161570357506000610f96565b816001811461571957600281146157235761573f565b6001915050610f96565b60ff8411156157345761573461561a565b50506001821b610f96565b5060208310610133831016604e8410600b8410161715615762575081810a610f96565b61576c83836156a4565b80600019048211156157805761578061561a565b029392505050565b60006112e083836156e7565b8082028115828204841417610f9657610f9661561a565b6000826157c857634e487b7160e01b600052601260045260246000fd5b500490565b80820180821115610f9657610f9661561a565b6000600182016157f2576157f261561a565b5060010190565b81810360008312801583831316838312821617156158195761581961561a565b5092915050565b634e487b7160e01b600052603160045260246000fd5b602080825260089082015267085cdbdb1d995b9d60c21b604082015260600190565b634e487b7160e01b600052604160045260246000fd5b604051601f8201601f191681016001600160401b038111828210171561589657615896615858565b604052919050565b600060a082840312156158b057600080fd5b60405160a081018181106001600160401b03821117156158d2576158d2615858565b60405282516158e081614fc8565b815260208301516158f081614fc8565b80602083015250604083015160408201526060830151606082015260808301516159198161517a565b60808201529392505050565b60006020828403121561593757600080fd5b81516112e08161517a565b81358155602082013560018201556040820135600282015560038101606083013561596c8161517a565b815490151560ff1660ff19919091161790556080820135600482015560a0820135600582015560c0820135600682015560e090910135600790910155565b60006101008083850312156159be57600080fd5b604051908101906001600160401b03821181831017156159e0576159e0615858565b8160405283358152602084013560208201526040840135604082015260608401359150615a0c8261517a565b8160608201526080840135608082015260a084013560a082015260c084013560c082015260e084013560e0820152809250505092915050565b60006112e060ff8416836156e7565b6001600160801b038181168382160190808211156158195761581961561a565b604081526000615a876040830185614ffd565b60208382038185015260008554615a9d81615557565b80855260018281168015615ab85760018114615ad257615b00565b60ff1984168787015282151560051b870186019450615b00565b896000528560002060005b84811015615af8578154898201890152908301908701615add565b880187019550505b50929998505050505050505050565b600060208284031215615b2157600080fd5b81516001600160401b03811681146112e057600080fd5b6000808354615b4681615557565b60018281168015615b5e5760018114615b7357615ba2565b60ff1984168752821515830287019450615ba2565b8760005260208060002060005b85811015615b995781548a820152908401908201615b80565b50505082870194505b50929695505050505050565b606081526000615bc16060830186614ffd565b60208301949094525060400152919050565b6001600160801b038281168282160390808211156158195761581961561a565b604081526000615c066040830185614ffd565b90508260208301529392505050565b60006020808385031215615c2857600080fd5b82516001600160401b0380821115615c3f57600080fd5b818501915085601f830112615c5357600080fd5b815181811115615c6557615c65615858565b8060051b9150615c7684830161586e565b8181529183018401918481019088841115615c9057600080fd5b938501935b8385101561539a57845182529385019390850190615c9556feddf252ad1be2c89b69c2b068fc378daa952ba7f163c4a11628f55a4df523b3efa2646970667358221220cc3fe561a91e54e6d54944f8980b2f950c3956ced7f4c2dfd10bf3dd7ef8b30e64736f6c63430008110033",
    "linkReferences": {}
  },
  "methodIdentifiers": {
    "DOMAIN_SEPARATOR()": "3644e515",
    "Utilizer()": "350896fe",
    "_canBorrow(address)": "1f17b2c4",
    "_isLiquidatable(address)": "38094ae7",
    "accountLiquidity(address)": "5a0f03c6",
    "addAcceptedCollateral(address,uint256,(uint256,uint256,uint256,bool,uint256,uint256,uint256,uint256))": "e33f6365",
    "addCollateral(address,uint256,uint256,address,bool)": "81859b5a",
    "addInterest()": "0d09365c",
    "allowance(address,address)": "dd62ed3e",
    "approve(address,uint256)": "095ea7b3",
    "approvedCollateral(bytes32)": "7f479cb7",
    "asset()": "38d52e0f",
    "assetOracle(uint256)": "67a5d095",
    "balanceOf(address)": "70a08231",
    "balanceOfUnderlying(address)": "3af9e669",
    "borrow(uint256,address,uint256,uint256,address,bool)": "b2b93fe3",
    "checkAuction(address,address,uint256)": "838f4437",
    "collateralConfigs(bytes32)": "d3160c0f",
    "computeId(address,uint256)": "5fdb07f6",
    "convertToAssets(uint256)": "07a2d13a",
    "convertToShares(uint256)": "c6e6f592",
    "currentRateInfo()": "95d14ca8",
    "decimals()": "313ce567",
    "deposit(uint256,address)": "6e553f65",
    "disableCollateral(address,uint256)": "5b50fbf3",
    "enableCollateral(address,uint256)": "fd1e8c85",
    "enabledCollateral(address,bytes32)": "705f363d",
    "estimatedTotalAssets()": "efbb5cb0",
    "getAcceptedCollaterals()": "8354cc59",
    "getCollateralConfig(bytes32)": "5b3c8ea7",
    "getMaturityBalance()": "1104aafd",
    "getMaxBorrow(address)": "fd1c317a",
    "getUserSnapshot(address)": "b68d0a09",
    "instrumentApprovalCondition()": "83e754a0",
    "isLiquid(uint256)": "537d9409",
    "isLocked()": "a4e2d634",
    "isWithdrawAble(address,uint256)": "cd8886ee",
    "liquidateAllPositions()": "50bb4beb",
    "liquidatePosition(uint256)": "cdddd4e5",
    "maxDeposit(address)": "402d267d",
    "maxMint(address)": "c63d75b6",
    "maxRedeem(address)": "d905777e",
    "maxWithdraw(address)": "ce96cb77",
    "mint(uint256,address)": "94bf804d",
    "name()": "06fdde03",
    "nonces(address)": "7ecebe00",
    "onERC721Received(address,address,uint256,bytes)": "150b7a02",
    "onMarketApproval(uint256,uint256)": "416288dd",
    "permit(address,address,uint256,uint256,uint8,bytes32,bytes32)": "d505accf",
    "prepareWithdraw()": "49dcf4ed",
    "previewDeposit(uint256)": "ef8b30f7",
    "previewMint(uint256)": "b3d7f6b9",
    "previewRedeem(uint256)": "4cdad506",
    "previewWithdraw(uint256)": "0a28a477",
    "purchaseCollateral(address,(address,uint256),uint256,uint256)": "ee54706b",
    "r()": "6c8ae38c",
    "rateContract()": "eee24219",
    "rateInitCallData()": "c7be9786",
    "readyForWithdrawal()": "bdf0f253",
    "redeem(uint256,address,address)": "ba087652",
    "redeemUnderlying(uint256)": "852a12e3",
    "removeCollateral(address,uint256,uint256,address,bool)": "d67b5d7a",
    "repay(uint256,address)": "acb70815",
    "setAuctioneer(address)": "00ede7e4",
    "setUtilizer(address)": "57b25996",
    "setVault(address)": "6817031b",
    "store_internal_balance()": "f3aa68d3",
    "symbol()": "95d89b41",
    "toAssetAmount(uint256,bool)": "404ffa7a",
    "toAssetShares(uint256,bool)": "56968f97",
    "toBorrowAmount(uint256,bool)": "94e301e0",
    "toBorrowShares(uint256,bool)": "c270a544",
    "totalAsset()": "f9557ccb",
    "totalAssetAvailable()": "7426e7a4",
    "totalAssets()": "01e1d114",
    "totalBorrow()": "8285ef40",
    "totalSupply()": "18160ddd",
    "transfer(address,uint256)": "a9059cbb",
    "transferFrom(address,address,uint256)": "23b872dd",
    "triggerAuction(address,address,uint256)": "1e018348",
    "underlying()": "6f307dc3",
    "updateConfig((address,uint256),(uint256,uint256,uint256,bool,uint256,uint256,uint256,uint256))": "cb0fe394",
    "userBorrowShares(address)": "4fd422df",
    "userCollateral(address,uint256)": "cc77a477",
    "userERC20s(bytes32,address)": "8418634f",
    "userERC721s(bytes32)": "32ae4f40",
    "validators(uint256)": "35aa2e44",
    "vault()": "fbfa77cf",
    "withdraw(uint256,address,address)": "b460af94"
  },
  "id": 15
}