{
  "abi": [
    {
      "inputs": [
        {
          "internalType": "address",
          "name": "_vault",
          "type": "address"
        },
        {
          "internalType": "address",
          "name": "_controller",
          "type": "address"
        },
        {
          "internalType": "address",
          "name": "_utilizer",
          "type": "address"
        },
        {
          "internalType": "address",
          "name": "_asset",
          "type": "address"
        },
        {
          "internalType": "string",
          "name": "_name",
          "type": "string"
        },
        {
          "internalType": "string",
          "name": "_symbol",
          "type": "string"
        },
        {
          "internalType": "address",
          "name": "_rateCalculator",
          "type": "address"
        },
        {
          "internalType": "bytes",
          "name": "_rateInitCallData",
          "type": "bytes"
        }
      ],
      "stateMutability": "nonpayable",
      "type": "constructor"
    },
    {
      "anonymous": false,
      "inputs": [
        {
          "indexed": true,
          "internalType": "address",
          "name": "borrower",
          "type": "address"
        },
        {
          "indexed": false,
          "internalType": "address",
          "name": "collateral",
          "type": "address"
        },
        {
          "indexed": false,
          "internalType": "uint256",
          "name": "tokenId",
          "type": "uint256"
        },
        {
          "indexed": false,
          "internalType": "uint256",
          "name": "amount",
          "type": "uint256"
        }
      ],
      "name": "AddCollateral",
      "type": "event"
    },
    {
      "anonymous": false,
      "inputs": [
        {
          "indexed": true,
          "internalType": "address",
          "name": "owner",
          "type": "address"
        },
        {
          "indexed": true,
          "internalType": "address",
          "name": "spender",
          "type": "address"
        },
        {
          "indexed": false,
          "internalType": "uint256",
          "name": "amount",
          "type": "uint256"
        }
      ],
      "name": "Approval",
      "type": "event"
    },
    {
      "anonymous": false,
      "inputs": [
        {
          "indexed": true,
          "internalType": "uint256",
          "name": "id",
          "type": "uint256"
        },
        {
          "indexed": true,
          "internalType": "address",
          "name": "borrower",
          "type": "address"
        },
        {
          "indexed": true,
          "internalType": "address",
          "name": "collateral",
          "type": "address"
        },
        {
          "indexed": false,
          "internalType": "uint256",
          "name": "tokenId",
          "type": "uint256"
        }
      ],
      "name": "AuctionClosed",
      "type": "event"
    },
    {
      "anonymous": false,
      "inputs": [
        {
          "indexed": true,
          "internalType": "uint256",
          "name": "id",
          "type": "uint256"
        },
        {
          "indexed": true,
          "internalType": "address",
          "name": "borrower",
          "type": "address"
        },
        {
          "indexed": true,
          "internalType": "address",
          "name": "collateral",
          "type": "address"
        },
        {
          "indexed": false,
          "internalType": "uint256",
          "name": "tokenId",
          "type": "uint256"
        }
      ],
      "name": "AuctionCreated",
      "type": "event"
    },
    {
      "anonymous": false,
      "inputs": [
        {
          "indexed": true,
          "internalType": "address",
          "name": "_borrower",
          "type": "address"
        },
        {
          "indexed": false,
          "internalType": "uint256",
          "name": "_amount",
          "type": "uint256"
        },
        {
          "indexed": false,
          "internalType": "uint256",
          "name": "_shares",
          "type": "uint256"
        }
      ],
      "name": "Borrow",
      "type": "event"
    },
    {
      "anonymous": false,
      "inputs": [
        {
          "indexed": true,
          "internalType": "uint256",
          "name": "id",
          "type": "uint256"
        },
        {
          "indexed": true,
          "internalType": "address",
          "name": "buyer",
          "type": "address"
        },
        {
          "indexed": true,
          "internalType": "address",
          "name": "collateral",
          "type": "address"
        },
        {
          "indexed": false,
          "internalType": "uint256",
          "name": "tokenId",
          "type": "uint256"
        },
        {
          "indexed": false,
          "internalType": "uint256",
          "name": "amount",
          "type": "uint256"
        }
      ],
      "name": "CollateralPurchased",
      "type": "event"
    },
    {
      "anonymous": false,
      "inputs": [
        {
          "indexed": true,
          "internalType": "address",
          "name": "caller",
          "type": "address"
        },
        {
          "indexed": true,
          "internalType": "address",
          "name": "owner",
          "type": "address"
        },
        {
          "indexed": false,
          "internalType": "uint256",
          "name": "assets",
          "type": "uint256"
        },
        {
          "indexed": false,
          "internalType": "uint256",
          "name": "shares",
          "type": "uint256"
        }
      ],
      "name": "Deposit",
      "type": "event"
    },
    {
      "anonymous": false,
      "inputs": [
        {
          "indexed": true,
          "internalType": "uint256",
          "name": "timestamp",
          "type": "uint256"
        },
        {
          "indexed": false,
          "internalType": "uint256",
          "name": "interestEarned",
          "type": "uint256"
        },
        {
          "indexed": false,
          "internalType": "uint256",
          "name": "feesAmount",
          "type": "uint256"
        },
        {
          "indexed": false,
          "internalType": "uint256",
          "name": "feesShare",
          "type": "uint256"
        },
        {
          "indexed": false,
          "internalType": "uint64",
          "name": "newRate",
          "type": "uint64"
        }
      ],
      "name": "InterestAdded",
      "type": "event"
    },
    {
      "anonymous": false,
      "inputs": [
        {
          "indexed": false,
          "internalType": "address",
          "name": "account",
          "type": "address"
        }
      ],
      "name": "Paused",
      "type": "event"
    },
    {
      "anonymous": false,
      "inputs": [
        {
          "indexed": true,
          "internalType": "address",
          "name": "borrower",
          "type": "address"
        },
        {
          "indexed": false,
          "internalType": "address",
          "name": "collateral",
          "type": "address"
        },
        {
          "indexed": false,
          "internalType": "uint256",
          "name": "tokenId",
          "type": "uint256"
        },
        {
          "indexed": false,
          "internalType": "uint256",
          "name": "amount",
          "type": "uint256"
        }
      ],
      "name": "RemoveCollateral",
      "type": "event"
    },
    {
      "anonymous": false,
      "inputs": [
        {
          "indexed": true,
          "internalType": "address",
          "name": "borrower",
          "type": "address"
        },
        {
          "indexed": false,
          "internalType": "uint256",
          "name": "amount",
          "type": "uint256"
        },
        {
          "indexed": false,
          "internalType": "uint256",
          "name": "shares",
          "type": "uint256"
        }
      ],
      "name": "Repay",
      "type": "event"
    },
    {
      "anonymous": false,
      "inputs": [
        {
          "indexed": true,
          "internalType": "address",
          "name": "from",
          "type": "address"
        },
        {
          "indexed": true,
          "internalType": "address",
          "name": "to",
          "type": "address"
        },
        {
          "indexed": false,
          "internalType": "uint256",
          "name": "amount",
          "type": "uint256"
        }
      ],
      "name": "Transfer",
      "type": "event"
    },
    {
      "anonymous": false,
      "inputs": [
        {
          "indexed": false,
          "internalType": "address",
          "name": "account",
          "type": "address"
        }
      ],
      "name": "Unpaused",
      "type": "event"
    },
    {
      "anonymous": false,
      "inputs": [
        {
          "indexed": true,
          "internalType": "address",
          "name": "caller",
          "type": "address"
        },
        {
          "indexed": true,
          "internalType": "address",
          "name": "receiver",
          "type": "address"
        },
        {
          "indexed": true,
          "internalType": "address",
          "name": "owner",
          "type": "address"
        },
        {
          "indexed": false,
          "internalType": "uint256",
          "name": "assets",
          "type": "uint256"
        },
        {
          "indexed": false,
          "internalType": "uint256",
          "name": "shares",
          "type": "uint256"
        }
      ],
      "name": "Withdraw",
      "type": "event"
    },
    {
      "inputs": [],
      "name": "DOMAIN_SEPARATOR",
      "outputs": [
        {
          "internalType": "bytes32",
          "name": "",
          "type": "bytes32"
        }
      ],
      "stateMutability": "view",
      "type": "function"
    },
    {
      "inputs": [],
      "name": "Utilizer",
      "outputs": [
        {
          "internalType": "address",
          "name": "",
          "type": "address"
        }
      ],
      "stateMutability": "view",
      "type": "function"
    },
    {
      "inputs": [
        {
          "internalType": "address",
          "name": "_borrower",
          "type": "address"
        }
      ],
      "name": "_canBorrow",
      "outputs": [
        {
          "internalType": "bool",
          "name": "",
          "type": "bool"
        }
      ],
      "stateMutability": "view",
      "type": "function"
    },
    {
      "inputs": [
        {
          "internalType": "address",
          "name": "_borrower",
          "type": "address"
        }
      ],
      "name": "_isLiquidatable",
      "outputs": [
        {
          "internalType": "bool",
          "name": "",
          "type": "bool"
        },
        {
          "internalType": "int256",
          "name": "accountLiq",
          "type": "int256"
        }
      ],
      "stateMutability": "view",
      "type": "function"
    },
    {
      "inputs": [
        {
          "internalType": "address",
          "name": "_collateral",
          "type": "address"
        },
        {
          "internalType": "uint256",
          "name": "_tokenId",
          "type": "uint256"
        },
        {
          "internalType": "uint256",
          "name": "_maxAmount",
          "type": "uint256"
        },
        {
          "internalType": "uint256",
          "name": "_maxBorrowAmount",
          "type": "uint256"
        },
        {
          "internalType": "bool",
          "name": "_isERC20",
          "type": "bool"
        }
      ],
      "name": "addAcceptedCollateral",
      "outputs": [],
      "stateMutability": "nonpayable",
      "type": "function"
    },
    {
      "inputs": [
        {
          "internalType": "address",
          "name": "_collateral",
          "type": "address"
        },
        {
          "internalType": "uint256",
          "name": "_tokenId",
          "type": "uint256"
        },
        {
          "internalType": "uint256",
          "name": "_collateralAmount",
          "type": "uint256"
        },
        {
          "internalType": "address",
          "name": "_borrower",
          "type": "address"
        }
      ],
      "name": "addCollateral",
      "outputs": [],
      "stateMutability": "nonpayable",
      "type": "function"
    },
    {
      "inputs": [],
      "name": "addInterest",
      "outputs": [
        {
          "internalType": "uint256",
          "name": "_interestEarned",
          "type": "uint256"
        },
        {
          "internalType": "uint256",
          "name": "_feesAmount",
          "type": "uint256"
        },
        {
          "internalType": "uint256",
          "name": "_feesShare",
          "type": "uint256"
        },
        {
          "internalType": "uint64",
          "name": "_newRate",
          "type": "uint64"
        }
      ],
      "stateMutability": "nonpayable",
      "type": "function"
    },
    {
      "inputs": [
        {
          "internalType": "address",
          "name": "",
          "type": "address"
        },
        {
          "internalType": "address",
          "name": "",
          "type": "address"
        }
      ],
      "name": "allowance",
      "outputs": [
        {
          "internalType": "uint256",
          "name": "",
          "type": "uint256"
        }
      ],
      "stateMutability": "view",
      "type": "function"
    },
    {
      "inputs": [
        {
          "internalType": "address",
          "name": "spender",
          "type": "address"
        },
        {
          "internalType": "uint256",
          "name": "amount",
          "type": "uint256"
        }
      ],
      "name": "approve",
      "outputs": [
        {
          "internalType": "bool",
          "name": "",
          "type": "bool"
        }
      ],
      "stateMutability": "nonpayable",
      "type": "function"
    },
    {
      "inputs": [
        {
          "internalType": "address",
          "name": "",
          "type": "address"
        },
        {
          "internalType": "uint256",
          "name": "",
          "type": "uint256"
        }
      ],
      "name": "approvedCollateral",
      "outputs": [
        {
          "internalType": "bool",
          "name": "",
          "type": "bool"
        }
      ],
      "stateMutability": "view",
      "type": "function"
    },
    {
      "inputs": [],
      "name": "asset",
      "outputs": [
        {
          "internalType": "contract ERC20",
          "name": "",
          "type": "address"
        }
      ],
      "stateMutability": "view",
      "type": "function"
    },
    {
      "inputs": [
        {
          "internalType": "address",
          "name": "",
          "type": "address"
        }
      ],
      "name": "balanceOf",
      "outputs": [
        {
          "internalType": "uint256",
          "name": "",
          "type": "uint256"
        }
      ],
      "stateMutability": "view",
      "type": "function"
    },
    {
      "inputs": [
        {
          "internalType": "address",
          "name": "user",
          "type": "address"
        }
      ],
      "name": "balanceOfUnderlying",
      "outputs": [
        {
          "internalType": "uint256",
          "name": "",
          "type": "uint256"
        }
      ],
      "stateMutability": "view",
      "type": "function"
    },
    {
      "inputs": [
        {
          "internalType": "uint256",
          "name": "_borrowAmount",
          "type": "uint256"
        },
        {
          "internalType": "address",
          "name": "_collateral",
          "type": "address"
        },
        {
          "internalType": "uint256",
          "name": "_tokenId",
          "type": "uint256"
        },
        {
          "internalType": "uint256",
          "name": "_collateralAmount",
          "type": "uint256"
        },
        {
          "internalType": "address",
          "name": "_reciever",
          "type": "address"
        }
      ],
      "name": "borrow",
      "outputs": [
        {
          "internalType": "uint256",
          "name": "_shares",
          "type": "uint256"
        }
      ],
      "stateMutability": "nonpayable",
      "type": "function"
    },
    {
      "inputs": [
        {
          "internalType": "uint256",
          "name": "_borrowAmount",
          "type": "uint256"
        }
      ],
      "name": "borrowLiquidityAvailable",
      "outputs": [
        {
          "internalType": "bool",
          "name": "",
          "type": "bool"
        }
      ],
      "stateMutability": "view",
      "type": "function"
    },
    {
      "inputs": [
        {
          "internalType": "address",
          "name": "",
          "type": "address"
        },
        {
          "internalType": "uint256",
          "name": "",
          "type": "uint256"
        }
      ],
      "name": "collateralData",
      "outputs": [
        {
          "internalType": "uint256",
          "name": "totalCollateral",
          "type": "uint256"
        },
        {
          "internalType": "uint256",
          "name": "maxAmount",
          "type": "uint256"
        },
        {
          "internalType": "uint256",
          "name": "maxBorrowAmount",
          "type": "uint256"
        },
        {
          "internalType": "bool",
          "name": "isERC20",
          "type": "bool"
        }
      ],
      "stateMutability": "view",
      "type": "function"
    },
    {
      "inputs": [
        {
          "internalType": "uint256",
          "name": "shares",
          "type": "uint256"
        }
      ],
      "name": "convertToAssets",
      "outputs": [
        {
          "internalType": "uint256",
          "name": "",
          "type": "uint256"
        }
      ],
      "stateMutability": "view",
      "type": "function"
    },
    {
      "inputs": [
        {
          "internalType": "uint256",
          "name": "assets",
          "type": "uint256"
        }
      ],
      "name": "convertToShares",
      "outputs": [
        {
          "internalType": "uint256",
          "name": "",
          "type": "uint256"
        }
      ],
      "stateMutability": "view",
      "type": "function"
    },
    {
      "inputs": [],
      "name": "currentRateInfo",
      "outputs": [
        {
          "internalType": "uint64",
          "name": "lastBlock",
          "type": "uint64"
        },
        {
          "internalType": "uint64",
          "name": "lastTimestamp",
          "type": "uint64"
        },
        {
          "internalType": "uint64",
          "name": "ratePerSec",
          "type": "uint64"
        }
      ],
      "stateMutability": "view",
      "type": "function"
    },
    {
      "inputs": [],
      "name": "decimals",
      "outputs": [
        {
          "internalType": "uint8",
          "name": "",
          "type": "uint8"
        }
      ],
      "stateMutability": "view",
      "type": "function"
    },
    {
      "inputs": [
        {
          "internalType": "uint256",
          "name": "assets",
          "type": "uint256"
        },
        {
          "internalType": "address",
          "name": "receiver",
          "type": "address"
        }
      ],
      "name": "deposit",
      "outputs": [
        {
          "internalType": "uint256",
          "name": "shares",
          "type": "uint256"
        }
      ],
      "stateMutability": "nonpayable",
      "type": "function"
    },
    {
      "inputs": [],
      "name": "estimatedTotalAssets",
      "outputs": [
        {
          "internalType": "uint256",
          "name": "",
          "type": "uint256"
        }
      ],
      "stateMutability": "view",
      "type": "function"
    },
    {
      "inputs": [],
      "name": "getAcceptedCollaterals",
      "outputs": [
        {
          "components": [
            {
              "internalType": "address",
              "name": "tokenAddress",
              "type": "address"
            },
            {
              "internalType": "uint256",
              "name": "tokenId",
              "type": "uint256"
            }
          ],
          "internalType": "struct PoolInstrument.CollateralLabel[]",
          "name": "",
          "type": "tuple[]"
        }
      ],
      "stateMutability": "view",
      "type": "function"
    },
    {
      "inputs": [],
      "name": "getMaturityBalance",
      "outputs": [
        {
          "internalType": "uint256",
          "name": "",
          "type": "uint256"
        }
      ],
      "stateMutability": "view",
      "type": "function"
    },
    {
      "inputs": [
        {
          "internalType": "address",
          "name": "_borrower",
          "type": "address"
        }
      ],
      "name": "getMaxBorrow",
      "outputs": [
        {
          "internalType": "uint256",
          "name": "_maxBorrowableAmount",
          "type": "uint256"
        }
      ],
      "stateMutability": "view",
      "type": "function"
    },
    {
      "inputs": [
        {
          "internalType": "address",
          "name": "_address",
          "type": "address"
        }
      ],
      "name": "getUserSnapshot",
      "outputs": [
        {
          "internalType": "uint256",
          "name": "_userAssetShares",
          "type": "uint256"
        },
        {
          "internalType": "uint256",
          "name": "_userAssetAmount",
          "type": "uint256"
        },
        {
          "internalType": "uint256",
          "name": "_userBorrowShares",
          "type": "uint256"
        },
        {
          "internalType": "uint256",
          "name": "_userBorrowAmount",
          "type": "uint256"
        },
        {
          "internalType": "int256",
          "name": "_userAccountLiquidity",
          "type": "int256"
        }
      ],
      "stateMutability": "view",
      "type": "function"
    },
    {
      "inputs": [],
      "name": "initialize",
      "outputs": [],
      "stateMutability": "nonpayable",
      "type": "function"
    },
    {
      "inputs": [],
      "name": "instrumentApprovalCondition",
      "outputs": [
        {
          "internalType": "bool",
          "name": "",
          "type": "bool"
        }
      ],
      "stateMutability": "view",
      "type": "function"
    },
    {
      "inputs": [
        {
          "internalType": "uint256",
          "name": "amount",
          "type": "uint256"
        }
      ],
      "name": "isLiquid",
      "outputs": [
        {
          "internalType": "bool",
          "name": "",
          "type": "bool"
        }
      ],
      "stateMutability": "view",
      "type": "function"
    },
    {
      "inputs": [],
      "name": "isLocked",
      "outputs": [
        {
          "internalType": "bool",
          "name": "",
          "type": "bool"
        }
      ],
      "stateMutability": "view",
      "type": "function"
    },
    {
      "inputs": [
        {
          "internalType": "address",
          "name": "_borrower",
          "type": "address"
        }
      ],
      "name": "liquidate",
      "outputs": [
        {
          "components": [
            {
              "internalType": "address",
              "name": "tokenAddress",
              "type": "address"
            },
            {
              "internalType": "uint256",
              "name": "tokenId",
              "type": "uint256"
            }
          ],
          "internalType": "struct PoolInstrument.CollateralLabel",
          "name": "_collateral",
          "type": "tuple"
        },
        {
          "internalType": "uint256",
          "name": "_auctionId",
          "type": "uint256"
        }
      ],
      "stateMutability": "nonpayable",
      "type": "function"
    },
    {
      "inputs": [],
      "name": "liquidateAllPositions",
      "outputs": [
        {
          "internalType": "uint256",
          "name": "_amountFreed",
          "type": "uint256"
        }
      ],
      "stateMutability": "nonpayable",
      "type": "function"
    },
    {
      "inputs": [
        {
          "internalType": "uint256",
          "name": "_amountNeeded",
          "type": "uint256"
        }
      ],
      "name": "liquidatePosition",
      "outputs": [
        {
          "internalType": "uint256",
          "name": "_liquidatedAmount",
          "type": "uint256"
        },
        {
          "internalType": "uint256",
          "name": "_loss",
          "type": "uint256"
        }
      ],
      "stateMutability": "nonpayable",
      "type": "function"
    },
    {
      "inputs": [
        {
          "internalType": "address",
          "name": "",
          "type": "address"
        }
      ],
      "name": "maxDeposit",
      "outputs": [
        {
          "internalType": "uint256",
          "name": "",
          "type": "uint256"
        }
      ],
      "stateMutability": "view",
      "type": "function"
    },
    {
      "inputs": [
        {
          "internalType": "address",
          "name": "",
          "type": "address"
        }
      ],
      "name": "maxMint",
      "outputs": [
        {
          "internalType": "uint256",
          "name": "",
          "type": "uint256"
        }
      ],
      "stateMutability": "view",
      "type": "function"
    },
    {
      "inputs": [
        {
          "internalType": "address",
          "name": "owner",
          "type": "address"
        }
      ],
      "name": "maxRedeem",
      "outputs": [
        {
          "internalType": "uint256",
          "name": "",
          "type": "uint256"
        }
      ],
      "stateMutability": "view",
      "type": "function"
    },
    {
      "inputs": [
        {
          "internalType": "address",
          "name": "owner",
          "type": "address"
        }
      ],
      "name": "maxWithdraw",
      "outputs": [
        {
          "internalType": "uint256",
          "name": "",
          "type": "uint256"
        }
      ],
      "stateMutability": "view",
      "type": "function"
    },
    {
      "inputs": [
        {
          "internalType": "uint256",
          "name": "shares",
          "type": "uint256"
        },
        {
          "internalType": "address",
          "name": "receiver",
          "type": "address"
        }
      ],
      "name": "mint",
      "outputs": [
        {
          "internalType": "uint256",
          "name": "assets",
          "type": "uint256"
        }
      ],
      "stateMutability": "nonpayable",
      "type": "function"
    },
    {
      "inputs": [],
      "name": "name",
      "outputs": [
        {
          "internalType": "string",
          "name": "",
          "type": "string"
        }
      ],
      "stateMutability": "view",
      "type": "function"
    },
    {
      "inputs": [
        {
          "internalType": "address",
          "name": "",
          "type": "address"
        }
      ],
      "name": "nonces",
      "outputs": [
        {
          "internalType": "uint256",
          "name": "",
          "type": "uint256"
        }
      ],
      "stateMutability": "view",
      "type": "function"
    },
    {
      "inputs": [],
      "name": "numAuctions",
      "outputs": [
        {
          "internalType": "uint256",
          "name": "",
          "type": "uint256"
        }
      ],
      "stateMutability": "view",
      "type": "function"
    },
    {
      "inputs": [
        {
          "internalType": "address",
          "name": "",
          "type": "address"
        },
        {
          "internalType": "address",
          "name": "",
          "type": "address"
        },
        {
          "internalType": "uint256",
          "name": "",
          "type": "uint256"
        },
        {
          "internalType": "bytes",
          "name": "",
          "type": "bytes"
        }
      ],
      "name": "onERC721Received",
      "outputs": [
        {
          "internalType": "bytes4",
          "name": "",
          "type": "bytes4"
        }
      ],
      "stateMutability": "nonpayable",
      "type": "function"
    },
    {
      "inputs": [
        {
          "internalType": "uint256",
          "name": "principal",
          "type": "uint256"
        },
        {
          "internalType": "uint256",
          "name": "yield",
          "type": "uint256"
        }
      ],
      "name": "onMarketApproval",
      "outputs": [],
      "stateMutability": "nonpayable",
      "type": "function"
    },
    {
      "inputs": [],
      "name": "paused",
      "outputs": [
        {
          "internalType": "bool",
          "name": "",
          "type": "bool"
        }
      ],
      "stateMutability": "view",
      "type": "function"
    },
    {
      "inputs": [
        {
          "internalType": "address",
          "name": "owner",
          "type": "address"
        },
        {
          "internalType": "address",
          "name": "spender",
          "type": "address"
        },
        {
          "internalType": "uint256",
          "name": "value",
          "type": "uint256"
        },
        {
          "internalType": "uint256",
          "name": "deadline",
          "type": "uint256"
        },
        {
          "internalType": "uint8",
          "name": "v",
          "type": "uint8"
        },
        {
          "internalType": "bytes32",
          "name": "r",
          "type": "bytes32"
        },
        {
          "internalType": "bytes32",
          "name": "s",
          "type": "bytes32"
        }
      ],
      "name": "permit",
      "outputs": [],
      "stateMutability": "nonpayable",
      "type": "function"
    },
    {
      "inputs": [],
      "name": "prepareWithdraw",
      "outputs": [
        {
          "internalType": "uint256",
          "name": "_profit",
          "type": "uint256"
        },
        {
          "internalType": "uint256",
          "name": "_loss",
          "type": "uint256"
        },
        {
          "internalType": "uint256",
          "name": "_debtPayment",
          "type": "uint256"
        }
      ],
      "stateMutability": "nonpayable",
      "type": "function"
    },
    {
      "inputs": [
        {
          "internalType": "uint256",
          "name": "assets",
          "type": "uint256"
        }
      ],
      "name": "previewDeposit",
      "outputs": [
        {
          "internalType": "uint256",
          "name": "",
          "type": "uint256"
        }
      ],
      "stateMutability": "view",
      "type": "function"
    },
    {
      "inputs": [
        {
          "internalType": "uint256",
          "name": "shares",
          "type": "uint256"
        }
      ],
      "name": "previewMint",
      "outputs": [
        {
          "internalType": "uint256",
          "name": "",
          "type": "uint256"
        }
      ],
      "stateMutability": "view",
      "type": "function"
    },
    {
      "inputs": [
        {
          "internalType": "uint256",
          "name": "shares",
          "type": "uint256"
        }
      ],
      "name": "previewRedeem",
      "outputs": [
        {
          "internalType": "uint256",
          "name": "",
          "type": "uint256"
        }
      ],
      "stateMutability": "view",
      "type": "function"
    },
    {
      "inputs": [
        {
          "internalType": "uint256",
          "name": "assets",
          "type": "uint256"
        }
      ],
      "name": "previewWithdraw",
      "outputs": [
        {
          "internalType": "uint256",
          "name": "",
          "type": "uint256"
        }
      ],
      "stateMutability": "view",
      "type": "function"
    },
    {
      "inputs": [
        {
          "internalType": "uint256",
          "name": "amount",
          "type": "uint256"
        }
      ],
      "name": "pullRawFunds",
      "outputs": [],
      "stateMutability": "nonpayable",
      "type": "function"
    },
    {
      "inputs": [],
      "name": "rateContract",
      "outputs": [
        {
          "internalType": "contract IRateCalculator",
          "name": "",
          "type": "address"
        }
      ],
      "stateMutability": "view",
      "type": "function"
    },
    {
      "inputs": [],
      "name": "rateInitCallData",
      "outputs": [
        {
          "internalType": "bytes",
          "name": "",
          "type": "bytes"
        }
      ],
      "stateMutability": "view",
      "type": "function"
    },
    {
      "inputs": [],
      "name": "readyForWithdrawal",
      "outputs": [
        {
          "internalType": "bool",
          "name": "",
          "type": "bool"
        }
      ],
      "stateMutability": "view",
      "type": "function"
    },
    {
      "inputs": [
        {
          "internalType": "uint256",
          "name": "shares",
          "type": "uint256"
        },
        {
          "internalType": "address",
          "name": "receiver",
          "type": "address"
        },
        {
          "internalType": "address",
          "name": "owner",
          "type": "address"
        }
      ],
      "name": "redeem",
      "outputs": [
        {
          "internalType": "uint256",
          "name": "assets",
          "type": "uint256"
        }
      ],
      "stateMutability": "nonpayable",
      "type": "function"
    },
    {
      "inputs": [
        {
          "internalType": "uint256",
          "name": "amount",
          "type": "uint256"
        }
      ],
      "name": "redeemUnderlying",
      "outputs": [
        {
          "internalType": "bool",
          "name": "",
          "type": "bool"
        }
      ],
      "stateMutability": "nonpayable",
      "type": "function"
    },
    {
      "inputs": [
        {
          "internalType": "address",
          "name": "_collateral",
          "type": "address"
        },
        {
          "internalType": "uint256",
          "name": "_tokenId",
          "type": "uint256"
        },
        {
          "internalType": "address",
          "name": "_receiver",
          "type": "address"
        }
      ],
      "name": "removeAvailableCollateral",
      "outputs": [
        {
          "internalType": "uint256",
          "name": "removeable",
          "type": "uint256"
        }
      ],
      "stateMutability": "nonpayable",
      "type": "function"
    },
    {
      "inputs": [
        {
          "internalType": "address",
          "name": "_collateral",
          "type": "address"
        },
        {
          "internalType": "uint256",
          "name": "_tokenId",
          "type": "uint256"
        },
        {
          "internalType": "uint256",
          "name": "_collateralAmount",
          "type": "uint256"
        },
        {
          "internalType": "address",
          "name": "_receiver",
          "type": "address"
        }
      ],
      "name": "removeCollateral",
      "outputs": [],
      "stateMutability": "nonpayable",
      "type": "function"
    },
    {
      "inputs": [
        {
          "internalType": "address",
          "name": "_borrower",
          "type": "address"
        },
        {
          "internalType": "uint256",
          "name": "tokenId",
          "type": "uint256"
        },
        {
          "internalType": "address",
          "name": "collateral",
          "type": "address"
        }
      ],
      "name": "removeableCollateral",
      "outputs": [
        {
          "internalType": "uint256",
          "name": "",
          "type": "uint256"
        }
      ],
      "stateMutability": "view",
      "type": "function"
    },
    {
      "inputs": [
        {
          "internalType": "uint256",
          "name": "_shares",
          "type": "uint256"
        },
        {
          "internalType": "address",
          "name": "_borrower",
          "type": "address"
        }
      ],
      "name": "repay",
      "outputs": [
        {
          "internalType": "uint256",
          "name": "_amountToRepay",
          "type": "uint256"
        }
      ],
      "stateMutability": "nonpayable",
      "type": "function"
    },
    {
      "inputs": [
        {
          "internalType": "uint256",
          "name": "_amount",
          "type": "uint256"
        },
        {
          "internalType": "address",
          "name": "_borrower",
          "type": "address"
        }
      ],
      "name": "repayWithAmount",
      "outputs": [
        {
          "internalType": "uint256",
          "name": "_sharesToRepay",
          "type": "uint256"
        }
      ],
      "stateMutability": "nonpayable",
      "type": "function"
    },
    {
      "inputs": [
        {
          "internalType": "address",
          "name": "_Utilizer",
          "type": "address"
        }
      ],
      "name": "setUtilizer",
      "outputs": [],
      "stateMutability": "nonpayable",
      "type": "function"
    },
    {
      "inputs": [],
      "name": "store_internal_balance",
      "outputs": [],
      "stateMutability": "nonpayable",
      "type": "function"
    },
    {
      "inputs": [],
      "name": "symbol",
      "outputs": [
        {
          "internalType": "string",
          "name": "",
          "type": "string"
        }
      ],
      "stateMutability": "view",
      "type": "function"
    },
    {
      "inputs": [
        {
          "internalType": "uint256",
          "name": "_shares",
          "type": "uint256"
        },
        {
          "internalType": "bool",
          "name": "_roundUp",
          "type": "bool"
        }
      ],
      "name": "toAssetAmount",
      "outputs": [
        {
          "internalType": "uint256",
          "name": "",
          "type": "uint256"
        }
      ],
      "stateMutability": "view",
      "type": "function"
    },
    {
      "inputs": [
        {
          "internalType": "uint256",
          "name": "_amount",
          "type": "uint256"
        },
        {
          "internalType": "bool",
          "name": "_roundUp",
          "type": "bool"
        }
      ],
      "name": "toAssetShares",
      "outputs": [
        {
          "internalType": "uint256",
          "name": "",
          "type": "uint256"
        }
      ],
      "stateMutability": "view",
      "type": "function"
    },
    {
      "inputs": [
        {
          "internalType": "uint256",
          "name": "_shares",
          "type": "uint256"
        },
        {
          "internalType": "bool",
          "name": "_roundUp",
          "type": "bool"
        }
      ],
      "name": "toBorrowAmount",
      "outputs": [
        {
          "internalType": "uint256",
          "name": "",
          "type": "uint256"
        }
      ],
      "stateMutability": "view",
      "type": "function"
    },
    {
      "inputs": [
        {
          "internalType": "uint256",
          "name": "_amount",
          "type": "uint256"
        },
        {
          "internalType": "bool",
          "name": "_roundUp",
          "type": "bool"
        }
      ],
      "name": "toBorrowShares",
      "outputs": [
        {
          "internalType": "uint256",
          "name": "",
          "type": "uint256"
        }
      ],
      "stateMutability": "view",
      "type": "function"
    },
    {
      "inputs": [],
      "name": "totalAsset",
      "outputs": [
        {
          "internalType": "uint128",
          "name": "amount",
          "type": "uint128"
        },
        {
          "internalType": "uint128",
          "name": "shares",
          "type": "uint128"
        }
      ],
      "stateMutability": "view",
      "type": "function"
    },
    {
      "inputs": [],
      "name": "totalAssetAvailable",
      "outputs": [
        {
          "internalType": "uint256",
          "name": "",
          "type": "uint256"
        }
      ],
      "stateMutability": "view",
      "type": "function"
    },
    {
      "inputs": [],
      "name": "totalAssets",
      "outputs": [
        {
          "internalType": "uint256",
          "name": "",
          "type": "uint256"
        }
      ],
      "stateMutability": "view",
      "type": "function"
    },
    {
      "inputs": [],
      "name": "totalBorrow",
      "outputs": [
        {
          "internalType": "uint128",
          "name": "amount",
          "type": "uint128"
        },
        {
          "internalType": "uint128",
          "name": "shares",
          "type": "uint128"
        }
      ],
      "stateMutability": "view",
      "type": "function"
    },
    {
      "inputs": [],
      "name": "totalSupply",
      "outputs": [
        {
          "internalType": "uint256",
          "name": "",
          "type": "uint256"
        }
      ],
      "stateMutability": "view",
      "type": "function"
    },
    {
      "inputs": [
        {
          "internalType": "address",
          "name": "to",
          "type": "address"
        },
        {
          "internalType": "uint256",
          "name": "amount",
          "type": "uint256"
        }
      ],
      "name": "transfer",
      "outputs": [
        {
          "internalType": "bool",
          "name": "",
          "type": "bool"
        }
      ],
      "stateMutability": "nonpayable",
      "type": "function"
    },
    {
      "inputs": [
        {
          "internalType": "address",
          "name": "from",
          "type": "address"
        },
        {
          "internalType": "address",
          "name": "to",
          "type": "address"
        },
        {
          "internalType": "uint256",
          "name": "amount",
          "type": "uint256"
        }
      ],
      "name": "transferFrom",
      "outputs": [
        {
          "internalType": "bool",
          "name": "",
          "type": "bool"
        }
      ],
      "stateMutability": "nonpayable",
      "type": "function"
    },
    {
      "inputs": [],
      "name": "underlying",
      "outputs": [
        {
          "internalType": "contract ERC20",
          "name": "",
          "type": "address"
        }
      ],
      "stateMutability": "view",
      "type": "function"
    },
    {
      "inputs": [
        {
          "internalType": "address",
          "name": "",
          "type": "address"
        }
      ],
      "name": "userAuctionId",
      "outputs": [
        {
          "internalType": "uint256",
          "name": "",
          "type": "uint256"
        }
      ],
      "stateMutability": "view",
      "type": "function"
    },
    {
      "inputs": [
        {
          "internalType": "address",
          "name": "",
          "type": "address"
        }
      ],
      "name": "userBorrowShares",
      "outputs": [
        {
          "internalType": "uint256",
          "name": "",
          "type": "uint256"
        }
      ],
      "stateMutability": "view",
      "type": "function"
    },
    {
      "inputs": [
        {
          "internalType": "address",
          "name": "",
          "type": "address"
        },
        {
          "internalType": "address",
          "name": "",
          "type": "address"
        }
      ],
      "name": "userCollateralERC20",
      "outputs": [
        {
          "internalType": "uint256",
          "name": "",
          "type": "uint256"
        }
      ],
      "stateMutability": "view",
      "type": "function"
    },
    {
      "inputs": [
        {
          "internalType": "address",
          "name": "",
          "type": "address"
        },
        {
          "internalType": "uint256",
          "name": "",
          "type": "uint256"
        }
      ],
      "name": "userCollateralNFTs",
      "outputs": [
        {
          "internalType": "address",
          "name": "",
          "type": "address"
        }
      ],
      "stateMutability": "view",
      "type": "function"
    },
    {
      "inputs": [
        {
          "internalType": "uint256",
          "name": "",
          "type": "uint256"
        }
      ],
      "name": "validators",
      "outputs": [
        {
          "internalType": "address",
          "name": "",
          "type": "address"
        }
      ],
      "stateMutability": "view",
      "type": "function"
    },
    {
      "inputs": [],
      "name": "vault",
      "outputs": [
        {
          "internalType": "contract Vault",
          "name": "",
          "type": "address"
        }
      ],
      "stateMutability": "view",
      "type": "function"
    },
    {
      "inputs": [
        {
          "internalType": "uint256",
          "name": "assets",
          "type": "uint256"
        },
        {
          "internalType": "address",
          "name": "receiver",
          "type": "address"
        },
        {
          "internalType": "address",
          "name": "owner",
          "type": "address"
        }
      ],
      "name": "withdraw",
      "outputs": [
        {
          "internalType": "uint256",
          "name": "shares",
          "type": "uint256"
        }
      ],
      "stateMutability": "nonpayable",
      "type": "function"
    }
  ],
  "bytecode": {
    "object": "0x6101006040526001600d553480156200001757600080fd5b5060405162005211380380620052118339810160408190526200003a916200044f565b87868686868181846001600160a01b031663313ce5676040518163ffffffff1660e01b8152600401602060405180830381865afa15801562000080573d6000803e3d6000fd5b505050506040513d601f19601f82011682018060405250810190620000a691906200053f565b6000620000b48482620005fa565b506001620000c38382620005fa565b5060ff81166080524660a052620000d9620002bb565b60c052505050506001600160a01b0391821660e05250600780546001600160a01b0319169184169182179055604080516362eb326360e11b8152905163c5d664c6916004808201926020929091908290030181865afa15801562000141573d6000803e3d6000fd5b505050506040513d601f19601f82011682018060405250810190620001679190620006c6565b600680546001600160a01b0319166001600160a01b0392831690811790915560405163095ea7b360e01b8152918416600483015260001960248301529063095ea7b3906044016020604051808303816000875af1158015620001cd573d6000803e3d6000fd5b505050506040513d601f19601f82011682018060405250810190620001f39190620006e6565b50600a80546001600160a01b03199081166001600160a01b0393841617909155600e805460ff19169055601c805482168b841617905560188054909116918516919091179055506019620002488282620005fa565b5060185460405163453f31d560e01b81526001600160a01b039091169063453f31d5906200027b9084906004016200070a565b60006040518083038186803b1580156200029457600080fd5b505afa158015620002a9573d6000803e3d6000fd5b505050505050505050505050620007bd565b60007f8b73c3c69bb8fe3d512ecc4cf759cc79239f7b179b0ffacaa9a75d522b39400f6000604051620002ef91906200073f565b6040805191829003822060208301939093528101919091527fc89efdaa54c0f20c7adf612882df0950f5a951637e0307cdcb4c672f298b8bc660608201524660808201523060a082015260c00160405160208183030381529060405280519060200120905090565b6001600160a01b03811681146200036d57600080fd5b50565b80516200037d8162000357565b919050565b634e487b7160e01b600052604160045260246000fd5b60005b83811015620003b55781810151838201526020016200039b565b50506000910152565b600082601f830112620003d057600080fd5b81516001600160401b0380821115620003ed57620003ed62000382565b604051601f8301601f19908116603f0116810190828211818310171562000418576200041862000382565b816040528381528660208588010111156200043257600080fd5b6200044584602083016020890162000398565b9695505050505050565b600080600080600080600080610100898b0312156200046d57600080fd5b620004788962000370565b97506200048860208a0162000370565b96506200049860408a0162000370565b9550620004a860608a0162000370565b60808a01519095506001600160401b0380821115620004c657600080fd5b620004d48c838d01620003be565b955060a08b0151915080821115620004eb57600080fd5b620004f98c838d01620003be565b94506200050960c08c0162000370565b935060e08b01519150808211156200052057600080fd5b506200052f8b828c01620003be565b9150509295985092959890939650565b6000602082840312156200055257600080fd5b815160ff811681146200056457600080fd5b9392505050565b600181811c908216806200058057607f821691505b602082108103620005a157634e487b7160e01b600052602260045260246000fd5b50919050565b601f821115620005f557600081815260208120601f850160051c81016020861015620005d05750805b601f850160051c820191505b81811015620005f157828155600101620005dc565b5050505b505050565b81516001600160401b0381111562000616576200061662000382565b6200062e816200062784546200056b565b84620005a7565b602080601f8311600181146200066657600084156200064d5750858301515b600019600386901b1c1916600185901b178555620005f1565b600085815260208120601f198616915b82811015620006975788860151825594840194600190910190840162000676565b5085821015620006b65787850151600019600388901b60f8161c191681555b5050505050600190811b01905550565b600060208284031215620006d957600080fd5b8151620005648162000357565b600060208284031215620006f957600080fd5b815180151581146200056457600080fd5b60208152600082518060208401526200072b81604085016020870162000398565b601f01601f19169190910160400192915050565b60008083546200074f816200056b565b600182811680156200076a57600181146200078057620007b1565b60ff1984168752821515830287019450620007b1565b8760005260208060002060005b85811015620007a85781548a8201529084019082016200078d565b50505082870194505b50929695505050505050565b60805160a05160c05160e0516149f0620008216000396000818161070201528181611d0301528181611f0f0152818161227501528181612488015281816134f20152613777015260006112e3015260006112ae0152600061065901526149f06000f3fe608060405234801561001057600080fd5b50600436106104a15760003560e01c806370a082311161026d578063ba08765211610151578063d832f791116100ce578063ef8b30f711610092578063ef8b30f714610511578063efbb5cb0146107ef578063f3aa68d314610c61578063f9557ccb14610c69578063fbfa77cf14610c87578063fd1c317a14610c9a57600080fd5b8063d832f79114610bd4578063d905777e14610be7578063dd38677a14610c10578063dd62ed3e14610c23578063eee2421914610c4e57600080fd5b8063c7be978611610115578063c7be978614610b5b578063cdddd4e514610b63578063ce96cb7714610b8e578063d505accf14610ba1578063d7da630214610bb457600080fd5b8063ba08765214610b22578063bdf0f25314610989578063c270a54414610b35578063c63d75b614610737578063c6e6f59214610b4857600080fd5b806394bf804d116101ea578063a4e2d634116101ae578063a4e2d63414610a9c578063a9059cbb14610aae578063acb7081514610ac1578063b3d7f6b9146107bc578063b460af9414610ad4578063b68d0a0914610ae757600080fd5b806394bf804d14610a0857806394e301e014610a1b57806395d14ca814610a2e57806395d89b4114610a8157806395ee69ac14610a8957600080fd5b80638354cc59116102315780638354cc5914610940578063838e9ae31461095557806383e754a014610989578063852a12e3146109905780639189ed1c146109a357600080fd5b806370a08231146108ba5780637426e7a4146108da5780637ecebe00146108e25780638129fc1c146107715780638285ef401461090257600080fd5b806338d52e0f1161039457806350bb4beb116103115780635c975abb116102d55780635c975abb14610838578063601b4aed146108435780636578dcfe1461086e578063670c6222146108815780636e553f65146108945780636f307dc3146108a757600080fd5b806350bb4beb146107ef578063537d9409146107f657806356968f971461080957806357b259961461081c5780635c113acc1461082f57600080fd5b806346c114171161035857806346c114171461077357806349dcf4ed146107865780634be085d9146107a95780634cdad506146107bc5780634fd422df146107cf57600080fd5b806338d52e0f146106fd5780633af9e66914610724578063402d267d14610737578063404ffa7a1461074c578063416288dd1461075f57600080fd5b80631c5ef1ab11610422578063313ce567116103e6578063313ce56714610654578063350896fe1461068d57806335aa2e44146106b85780633644e515146106cb57806338094ae7146106d357600080fd5b80631c5ef1ab146105cc5780631f17b2c4146105df5780631fd09567146105f257806323b872dd146106055780632f8655681461061857600080fd5b80630d09365c116104695780630d09365c1461052457806310b181b4146105555780631104aafd14610583578063150b7a021461058b57806318160ddd146105c357600080fd5b806301e1d114146104a657806306fdde03146104c657806307a2d13a146104db578063095ea7b3146104ee5780630a28a47714610511575b600080fd5b6010546001600160801b03165b6040519081526020015b60405180910390f35b6104ce610cad565b6040516104bd919061408a565b6104b36104e936600461409d565b610d3b565b6105016104fc3660046140cb565b610d77565b60405190151581526020016104bd565b6104b361051f36600461409d565b610de3565b61052c610dee565b604080519485526020850193909352918301526001600160401b031660608201526080016104bd565b6105016105633660046140cb565b601260209081526000928352604080842090915290825290205460ff1681565b6008546104b3565b6105aa6105993660046140f7565b630a85bd0160e11b95945050505050565b6040516001600160e01b031990911681526020016104bd565b6104b360025481565b6104b36105da366004614195565b610e3f565b6105016105ed3660046141eb565b610f64565b6104b3610600366004614208565b611003565b610501610613366004614238565b61108b565b61062b6106263660046141eb565b61116d565b6040805183516001600160a01b03168152602093840151938101939093528201526060016104bd565b61067b7f000000000000000000000000000000000000000000000000000000000000000081565b60405160ff90911681526020016104bd565b600a546106a0906001600160a01b031681565b6040516001600160a01b0390911681526020016104bd565b6106a06106c636600461409d565b611280565b6104b36112aa565b6106e66106e13660046141eb565b611305565b6040805192151583526020830191909152016104bd565b6106a07f000000000000000000000000000000000000000000000000000000000000000081565b6104b36107323660046141eb565b6115bf565b6104b36107453660046141eb565b5060001990565b6104b361075a366004614287565b6116ba565b61077161076d3660046142ac565b5050565b005b6107716107813660046142ce565b6116f0565b61078e6117ac565b604080519384526020840192909252908201526060016104bd565b6107716107b7366004614318565b6117fa565b6104b36107ca36600461409d565b611a3b565b6104b36107dd3660046141eb565b60156020526000908152604090205481565b60006104b3565b61050161080436600461409d565b611a46565b6104b3610817366004614287565b611a5a565b61077161082a3660046141eb565b611a90565b6104b360175481565b600e5460ff16610501565b6104b3610851366004614360565b601360209081526000928352604080842090915290825290205481565b61050161087c36600461409d565b611ba4565b61077161088f3660046142ce565b611c17565b6104b36108a2366004614208565b611cab565b6006546106a0906001600160a01b031681565b6104b36108c83660046141eb565b60036020526000908152604090205481565b6104b3611d85565b6104b36108f03660046141eb565b60056020526000908152604090205481565b600f54610920906001600160801b0380821691600160801b90041682565b604080516001600160801b039384168152929091166020830152016104bd565b610948611dda565b6040516104bd919061438e565b6106a06109633660046140cb565b60146020908152600092835260408084209091529082529020546001600160a01b031681565b6001610501565b61050161099e36600461409d565b611e4f565b6109e66109b13660046140cb565b601160209081526000928352604080842090915290825290208054600182015460028301546003909301549192909160ff1684565b60408051948552602085019390935291830152151560608201526080016104bd565b6104b3610a16366004614208565b611ef5565b6104b3610a29366004614287565b611f91565b601a54610a57906001600160401b0380821691600160401b8104821691600160801b9091041683565b604080516001600160401b03948516815292841660208401529216918101919091526060016104bd565b6104ce611fc7565b6104b3610a973660046143ee565b611fd4565b600754600160a01b900460ff16610501565b610501610abc3660046140cb565b612080565b6104b3610acf366004614208565b6120e6565b6104b3610ae2366004614430565b61218e565b610afa610af53660046141eb565b61229c565b604080519586526020860194909452928401919091526060830152608082015260a0016104bd565b6104b3610b30366004614430565b612363565b6104b3610b43366004614287565b6124af565b6104b3610b5636600461409d565b6124e5565b6104ce61251b565b610b79610b7136600461409d565b600080915091565b604080519283526020830191909152016104bd565b6104b3610b9c3660046141eb565b612528565b610771610baf366004614476565b61254a565b6104b3610bc23660046141eb565b60166020526000908152604090205481565b610771610be236600461409d565b61278e565b6104b3610bf53660046141eb565b6001600160a01b031660009081526003602052604090205490565b6104b3610c1e3660046143ee565b612824565b6104b3610c31366004614360565b600460209081526000928352604080842090915290825290205481565b6018546106a0906001600160a01b031681565b6107716128f0565b601054610920906001600160801b0380821691600160801b90041682565b6007546106a0906001600160a01b031681565b6104b3610ca83660046141eb565b612a14565b60008054610cba906144e7565b80601f0160208091040260200160405190810160405280929190818152602001828054610ce6906144e7565b8015610d335780601f10610d0857610100808354040283529160200191610d33565b820191906000526020600020905b815481529060010190602001808311610d1657829003601f168201915b505050505081565b604080518082019091526010546001600160801b038082168352600160801b909104166020820152600090610d71908383612c1a565b92915050565b3360008181526004602090815260408083206001600160a01b038716808552925280832085905551919290917f8c5be1e5ebec7d5bd14f71427d1e84f3dd0314c0f7b2291e5b200ac8c7c3b92590610dd29086815260200190565b60405180910390a350600192915050565b6000610d71826124e5565b600080600080600d54600114610e1f5760405162461bcd60e51b8152600401610e169061451b565b60405180910390fd5b6002600d55610e2c612cb6565b6001600d55929791965094509092509050565b600033600d54600114610e645760405162461bcd60e51b8152600401610e169061451b565b6002600d55610e7161312d565b610e79612cb6565b505050506001600160a01b03861615801590610e9f57506000841180610e9f5750600085115b15610f1c576001600160a01b038616600090815260126020908152604080832088845290915290205460ff16610f0f5760405162461bcd60e51b81526020600482015260156024820152741d5b985c1c1c9bdd99590818dbdb1b185d195c985b605a1b6044820152606401610e16565b610f1c3387863389613173565b610f2e610f2888613329565b8461333f565b6001600d559150610f3e81610f64565b610f5a5760405162461bcd60e51b8152600401610e169061453f565b5095945050505050565b600080610f7083612a14565b6001600160a01b03841660009081526015602052604081205491925003610f9a5750600192915050565b80600003610fab5750600092915050565b6001600160a01b0383166000908152601560209081526040808320548151808301909252600f546001600160801b038082168452600160801b9091041692820192909252610ffb92909190612c1a565b111592915050565b6000600d546001146110275760405162461bcd60e51b8152600401610e169061451b565b6002600d5560408051808201909152600f546001600160801b038082168352600160801b9091041660208201526110608185600161352a565b915061107f8161106f86613329565b61107885613329565b338761359f565b506001600d5592915050565b6001600160a01b038316600090815260046020908152604080832033845290915281205460001981146110e7576110c28382614584565b6001600160a01b03861660009081526004602090815260408083203384529091529020555b6001600160a01b0385166000908152600360205260408120805485929061110f908490614584565b90915550506001600160a01b038085166000818152600360205260409081902080548701905551909187169060008051602061499b833981519152906111589087815260200190565b60405180910390a360019150505b9392505050565b60408051808201909152600080825260208201526000600d546001146111a55760405162461bcd60e51b8152600401610e169061451b565b6002600d556111b2612cb6565b505050506000806111c285611305565b91509150816112135760405162461bcd60e51b815260206004820152601c60248201527f626f72726f776572206973206e6f74206c6971756964617461626c65000000006044820152606401610e16565b6001600160a01b038516600090815260166020526040902054156112725760405162461bcd60e51b815260206004820152601660248201527561756374696f6e20616c72656164792065786973747360501b6044820152606401610e16565b50506001600d559092909150565b600b818154811061129057600080fd5b6000918252602090912001546001600160a01b0316905081565b60007f000000000000000000000000000000000000000000000000000000000000000046146112e0576112db6137af565b905090565b507f000000000000000000000000000000000000000000000000000000000000000090565b6000806000805b601b54811015611506576000601b828154811061132b5761132b614597565b60009182526020808320604080518082018252600294850290920180546001600160a01b03168084526001918201548486019081529087526011855282872090518752845294819020815160808101835281548152958101549386019390935292820154928401929092526003015460ff16158015606084018190529193506113da575081516001600160a01b039081166000908152601360209081526040808320938b168352929052205415155b156114ab57600082600001516001600160a01b031663313ce5676040518163ffffffff1660e01b8152600401602060405180830381865afa158015611423573d6000803e3d6000fd5b505050506040513d601f19601f8201168201806040525081019061144791906145ad565b60ff16905061145781600a6146ae565b60208084015185516001600160a01b039081166000908152601384526040808220928e168252919093529091205461148f91906146ba565b61149991906146d1565b6114a390866146f3565b9450506114f1565b81516001600160a01b0390811660009081526014602090815260408083208287015184529091529020548189169116036114f15760208101516114ee90856146f3565b93505b505080806114fe90614706565b91505061130c565b506001600160a01b0384166000908152601560209081526040808320548151808301909252600f546001600160801b038082168452600160801b909104169282019290925261155792909190612c1a565b6001600160a01b0385166000908152601560209081526040808320548151808301909252600f546001600160801b038082168452600160801b9091041692820192909252928410926115ab92909190612c1a565b6115b5908361471f565b9250925050915091565b6000306001600160a01b0383160361164c576009546006546040516370a0823160e01b81526001600160a01b038581166004830152909116906370a0823190602401602060405180830381865afa15801561161e573d6000803e3d6000fd5b505050506040513d601f19601f820116820180604052508101906116429190614746565b610d719190614584565b6006546040516370a0823160e01b81526001600160a01b038481166004830152909116906370a0823190602401602060405180830381865afa158015611696573d6000803e3d6000fd5b505050506040513d601f19601f82011682018060405250810190610d719190614746565b604080518082019091526010546001600160801b038082168352600160801b909104166020820152600090611166908484612c1a565b600d546001146117125760405162461bcd60e51b8152600401610e169061451b565b6002600d556001600160a01b038416600090815260126020908152604080832086845290915290205433908590859060ff166117605760405162461bcd60e51b8152600401610e169061475f565b611768612cb6565b505050506117798786883388613849565b505061178481610f64565b6117a05760405162461bcd60e51b8152600401610e169061453f565b50506001600d55505050565b600754600090819081906001600160a01b031633146117dd5760405162461bcd60e51b8152600401610e1690614796565b6117f56007805460ff60a01b1916600160a01b179055565b909192565b601c546001600160a01b031633146118465760405162461bcd60e51b815260206004820152600f60248201526e37b7363c9031b7b73a3937b63632b960891b6044820152606401610e16565b6001600160a01b038516600090815260126020908152604080832087845290915290205460ff16156118ba5760405162461bcd60e51b815260206004820152601b60248201527f636f6c6c61746572616c20616c726561647920617070726f76656400000000006044820152606401610e16565b8183116119205760405162461bcd60e51b815260206004820152602e60248201527f6d6178416d6f756e74206d7573742062652067726561746572207468616e206d60448201526d185e109bdc9c9bddd05b5bdd5b9d60921b6064820152608401610e16565b6001600160a01b03948516600081815260126020908152604080832088845282528083208054600160ff199182168117909255825180840184528681528085018b8152601b8054808601825590885291517f3ad8aa4f87544323a9d1e5dd902f40c356527a7955687113db5f9a85ad579dc1600293840290810180546001600160a01b03191692909f1691909117909d55517f3ad8aa4f87544323a9d1e5dd902f40c356527a7955687113db5f9a85ad579dc2909c019b909b558251608081018452858152808501998a52808401988952961515606088019081529585526011845282852099855298909252909120925183559351938201939093559051938101939093555160039092018054909116911515919091179055565b6000610d7182610d3b565b600081611a52306115bf565b101592915050565b604080518082019091526010546001600160801b038082168352600160801b90910416602082015260009061116690848461352a565b600760009054906101000a90046001600160a01b03166001600160a01b0316638da5cb5b6040518163ffffffff1660e01b8152600401602060405180830381865afa158015611ae3573d6000803e3d6000fd5b505050506040513d601f19601f82011682018060405250810190611b0791906147c4565b6001600160a01b0316336001600160a01b03161480611b355750336000908152600c602052604090205460ff165b611b6f5760405162461bcd60e51b815260206004820152600b60248201526a08585d5d1a1bdc9a5e995960aa1b6044820152606401610e16565b6001600160a01b038116611b8257600080fd5b600a80546001600160a01b0319166001600160a01b0392909216919091179055565b604080518082018252600f546001600160801b038082168352600160801b918290048116602080850191909152845180860190955260105480831686529290920416908301526000918290611bf99083613b72565b905083811015611c0d575060009392505050565b5060019392505050565b6001600160a01b03841660009081526012602090815260408083208684529091529020548490849060ff16611c5e5760405162461bcd60e51b8152600401610e169061475f565b600d54600114611c805760405162461bcd60e51b8152600401610e169061451b565b6002600d55611c8d612cb6565b50505050611c9e3387868689613173565b50506001600d5550505050565b6000611cb683610de3565b905080600003611cf65760405162461bcd60e51b815260206004820152600b60248201526a5a45524f5f53484152455360a81b6044820152606401610e16565b611d2b6001600160a01b037f000000000000000000000000000000000000000000000000000000000000000016333086613b92565b611d358282613c15565b60408051848152602081018390526001600160a01b0384169133917fdcbc1c05240f31ff3ad067ef1ee35ce4997762752e3a095284754544f4c709d7910160405180910390a3610d718382613c6f565b6040805180820182526010546001600160801b038082168352600160801b9182900481166020808501919091528451808601909552600f5480831686529290920416908301526000916112db9190613b72565b565b6060601b805480602002602001604051908101604052809291908181526020016000905b82821015611e46576000848152602090819020604080518082019091526002850290910180546001600160a01b03168252600190810154828401529083529092019101611dfe565b50505050905090565b6007546000906001600160a01b03163314611e7c5760405162461bcd60e51b8152600401610e1690614796565b60065460075460405163a9059cbb60e01b81526001600160a01b0391821660048201526024810185905291169063a9059cbb906044016020604051808303816000875af1158015611ed1573d6000803e3d6000fd5b505050506040513d601f19601f82011682018060405250810190610d7191906147e1565b6000611f0083611a3b565b9050611f376001600160a01b037f000000000000000000000000000000000000000000000000000000000000000016333084613b92565b611f418284613c15565b60408051828152602081018590526001600160a01b0384169133917fdcbc1c05240f31ff3ad067ef1ee35ce4997762752e3a095284754544f4c709d7910160405180910390a3610d718184613c6f565b60408051808201909152600f546001600160801b038082168352600160801b909104166020820152600090611166908484612c1a565b60018054610cba906144e7565b600080611fe085612a14565b6001600160a01b038085166000908152601160209081526040808320898452825280832060020154938a1683526015825291829020548251808401909352600f546001600160801b038082168552600160801b909104169183019190915292935090918291612050916001612c1a565b61205a9084614584565b61206c90670de0b6b3a76400006146ba565b61207691906146d1565b9695505050505050565b336000908152600360205260408120805483919083906120a1908490614584565b90915550506001600160a01b0383166000818152600360205260409081902080548501905551339060008051602061499b83398151915290610dd29086815260200190565b6000600d5460011461210a5760405162461bcd60e51b8152600401610e169061451b565b6002600d5560408051808201909152600f546001600160801b038082168352600160801b90910416602082015261214381856001612c1a565b915061217860405180604001604052806011815260200170030b6b7bab73a103a37903932b830bc9d1607d1b81525083613d47565b61107f8161218584613329565b61107887613329565b600061219984610de3565b9050336001600160a01b03831614612209576001600160a01b03821660009081526004602090815260408083203384529091529020546000198114612207576121e28282614584565b6001600160a01b03841660009081526004602090815260408083203384529091529020555b505b6122138482613d8c565b61221d8282613efd565b60408051858152602081018390526001600160a01b03808516929086169133917ffbde797d201c681b91056529119e0b02407c7bb96a4a2c75c01fc9667232c8db910160405180910390a46111666001600160a01b037f0000000000000000000000000000000000000000000000000000000000000000168486613f5f565b6001600160a01b03811660009081526003602090815260408083205481518083019092526010546001600160801b038082168452600160801b90910416928201929092529091908190819081906122f4908683612c1a565b6001600160a01b0387166000908152601560209081526040808320548151808301909252600f546001600160801b038082168452600160801b9091041692820192909252929650945061234991908590612c1a565b915061235486611305565b90508091505091939590929450565b6000336001600160a01b038316146123d3576001600160a01b038216600090815260046020908152604080832033845290915290205460001981146123d1576123ac8582614584565b6001600160a01b03841660009081526004602090815260408083203384529091529020555b505b6123dc84611a3b565b90508060000361241c5760405162461bcd60e51b815260206004820152600b60248201526a5a45524f5f41535345545360a81b6044820152606401610e16565b6124268185613d8c565b6124308285613efd565b60408051828152602081018690526001600160a01b03808516929086169133917ffbde797d201c681b91056529119e0b02407c7bb96a4a2c75c01fc9667232c8db910160405180910390a46111666001600160a01b037f0000000000000000000000000000000000000000000000000000000000000000168483613f5f565b60408051808201909152600f546001600160801b038082168352600160801b90910416602082015260009061116690848461352a565b604080518082019091526010546001600160801b038082168352600160801b909104166020820152600090610d7190838361352a565b60198054610cba906144e7565b6001600160a01b038116600090815260036020526040812054610d7190610d3b565b4284101561259a5760405162461bcd60e51b815260206004820152601760248201527f5045524d49545f444541444c494e455f455850495245440000000000000000006044820152606401610e16565b600060016125a66112aa565b6001600160a01b038a811660008181526005602090815260409182902080546001810190915582517f6e71edae12b1b97f4d1f60370fef10105fa2faae0126114a169c64845d6126c98184015280840194909452938d166060840152608083018c905260a083019390935260c08083018b90528151808403909101815260e08301909152805192019190912061190160f01b6101008301526101028201929092526101228101919091526101420160408051601f198184030181528282528051602091820120600084529083018083525260ff871690820152606081018590526080810184905260a0016020604051602081039080840390855afa1580156126b2573d6000803e3d6000fd5b5050604051601f1901519150506001600160a01b038116158015906126e85750876001600160a01b0316816001600160a01b0316145b6127255760405162461bcd60e51b815260206004820152600e60248201526d24a72b20a624a22fa9a4a3a722a960911b6044820152606401610e16565b6001600160a01b0390811660009081526004602090815260408083208a8516808552908352928190208990555188815291928a16917f8c5be1e5ebec7d5bd14f71427d1e84f3dd0314c0f7b2291e5b200ac8c7c3b925910160405180910390a350505050505050565b6006546040516323b872dd60e01b8152336004820152306024820152604481018390526001600160a01b03909116906323b872dd906064016020604051808303816000875af11580156127e5573d6000803e3d6000fd5b505050506040513d601f19601f8201168201806040525081019061280991906147e1565b50806009600082825461281c91906146f3565b909155505050565b6000600d546001146128485760405162461bcd60e51b8152600401610e169061451b565b6002600d556001600160a01b038416600090815260126020908152604080832086845290915290205433908590859060ff166128965760405162461bcd60e51b8152600401610e169061475f565b61289e612cb6565b505050506128ad338789611fd4565b93506128bc8785883389613849565b50506128c781610f64565b6128e35760405162461bcd60e51b8152600401610e169061453f565b506001600d559392505050565b6007546001600160a01b0316331461291a5760405162461bcd60e51b8152600401610e1690614796565b612923306115bf565b60085560075460408051637e0b9fe360e11b815290516001600160a01b039092169163fc173fc6916004808201926020929091908290030181865afa158015612970573d6000803e3d6000fd5b505050506040513d601f19601f8201168201806040525081019061299491906147e1565b15611dd857600754600854604051634b674ead60e11b81526001600160a01b03909216916396ce9d5a916129ce9160040190815260200190565b602060405180830381865afa1580156129eb573d6000803e3d6000fd5b505050506040513d601f19601f82011682018060405250810190612a0f9190614746565b600855565b6000805b601b54811015612c14576000601b8281548110612a3757612a37614597565b60009182526020808320604080518082018252600294850290920180546001600160a01b03168084526001918201548486019081529087526011855282872090518752845294819020815160808101835281548152958101549386019390935292820154928401929092526003015460ff1615801560608401819052919350612ae6575081516001600160a01b0390811660009081526013602090815260408083209389168352929052205415155b15612bb957600082600001516001600160a01b031663313ce5676040518163ffffffff1660e01b8152600401602060405180830381865afa158015612b2f573d6000803e3d6000fd5b505050506040513d601f19601f82011682018060405250810190612b5391906145ad565b60ff169050612b6381600a6146ae565b60408084015185516001600160a01b03908116600090815260136020908152848220928c168252919091529190912054612b9d91906146ba565b612ba791906146d1565b612bb190866146f3565b945050612bff565b81516001600160a01b039081166000908152601460209081526040808320828701518452909152902054818716911603612bff576040810151612bfc90856146f3565b93505b50508080612c0c90614706565b915050612a18565b50919050565b600083602001516001600160801b0316600003612c38575081611166565b602084015184516001600160801b0391821691612c569116856146ba565b612c6091906146d1565b9050818015612c9e57508284600001516001600160801b031685602001516001600160801b031683612c9291906146ba565b612c9c91906146d1565b105b1561116657612cae8160016146f3565b949350505050565b60408051606081018252601a546001600160401b038082168352600160401b8204811660208401819052600160801b909204169282019290925260009182918291829190429003612d0c57604001519050613127565b6040805180820182526010546001600160801b038082168352600160801b91829004811660208085019190915284518086018652600f548084168252939093049091168282018190528451808601909552601785527f746f74616c20626f72726f776572207368617265733a200000000000000000009185019190915291929091612d979190613d47565b60208101516001600160801b03161580612db35750600e5460ff165b15612e2b57600e5460ff16612dcd5763096ba6c460408401525b6001600160401b0342811660208501819052438216808652601a80546040880151909416600160801b0267ffffffffffffffff60801b19600160401b9094026001600160801b0319909516909217939093179190911617905561309e565b600083602001516001600160401b031642612e469190614584565b835183519192506000916001600160801b0391821691612e6a9116620186a06146ba565b612e7491906146d1565b905060008560400151838388600001516001600160401b031643612e989190614584565b604080516001600160401b0390951660208601528401929092526060830152608082015260a00160408051601f1981840301815290829052601854631b54c1a360e01b83529092506001600160a01b031690631b54c1a390612f019084906019906004016147fe565b602060405180830381865afa158015612f1e573d6000803e3d6000fd5b505050506040513d601f19601f82011682018060405250810190612f429190614899565b6001600160401b038082166040890181905242821660208a01524390911688528551919850670de0b6b3a764000091612f84906001600160801b0316866146ba565b612f8e91906146ba565b612f9891906146d1565b8451909a506001600160801b0390612fb29082168c6146f3565b11158015612fd5575084516001600160801b0390612fd29082168c6146f3565b11155b15613016578984600001818151612fec91906148c2565b6001600160801b031690525084518a9086906130099083906148c2565b6001600160801b03169052505b505082516020808501516001600160801b03928316600160801b9184168202176010558651601a80548985015160408b01516001600160401b039485166001600160801b031990931692909217600160401b918516919091021767ffffffffffffffff60801b1916921683029190911790558451918501519183169190921690910217600f55505b6130d16040518060400160405280601181526020017002fb4b73a32b932b9ba22b0b93732b21d1607d1b81525088613d47565b60408051888152602081018890529081018690526001600160401b038516606082015242907fb3f1ab1acc425f7672dd56d1f8912f1e1b18909cd52aef680190f13adb38a9659060800160405180910390a25050505b90919293565b600e5460ff1615611dd85760405162461bcd60e51b815260206004820152601060248201526f14185d5cd8589b194e881c185d5cd95960821b6044820152606401610e16565b6001600160a01b03808516600090815260116020908152604080832085845290915290206003015460ff1690861630146132d157801561323c576001600160a01b038086166000908152601360209081526040808320938716835292905290812080548692906131e49084906146f3565b90915550506001600160a01b03851660009081526011602090815260408083208380529091528120805486929061321c9084906146f3565b9091555061323790506001600160a01b038616873087613b92565b6132d1565b6001600160a01b0385811660008181526014602090815260408083208784529091529081902080546001600160a01b03191687851617905551632142170760e11b8152918816600483015230602483015260448201849052906342842e0e90606401600060405180830381600087803b1580156132b857600080fd5b505af11580156132cc573d6000803e3d6000fd5b505050505b604080516001600160a01b03878116825260208201859052918101869052908416907f33a089d94f9a0b7d0fe21e69b40d7dbe1965be652c7382cc778d46963db8c49b906060015b60405180910390a2505050505050565b6000600160801b821061333b57600080fd5b5090565b604080518082018252600f546001600160801b038082168352600160801b9182900481166020808501919091528451808601909552601054808316865292909204169083015260009182906133949083613b72565b9050846001600160801b03168110156133fb5760405162461bcd60e51b815260206004820152602360248201527f696e73756666696369656e7420636f6e74726163742061737365742062616c616044820152626e636560e81b6064820152608401610e16565b613410826001600160801b038716600161352a565b9250848260000181815161342491906148c2565b6001600160801b03169052506020820180518491906134449083906148c2565b6001600160801b0390811690915283516020808601518316600160801b029190921617600f55336000908152601590915260408120805486935090919061348c9084906146f3565b9091555050604080516001600160801b03871681526020810185905233917fe1979fe4c35e0cef342fef5668e2c8e7a7e9f5d5d1ca8fee0ac6c427fa4153af910160405180910390a26001600160a01b0384163014613522576135226001600160a01b037f000000000000000000000000000000000000000000000000000000000000000016856001600160801b038816613f5f565b505092915050565b82516000906001600160801b03168103613545575081611166565b835160208501516001600160801b03918216916135639116856146ba565b61356d91906146d1565b9050818015612c9e57508284602001516001600160801b031685600001516001600160801b031683612c9291906146ba565b6135d36040518060400160405280600981526020016802fb9b430b932b99d160bd1b815250846001600160801b0316613d47565b61360e6040518060400160405280601081526020016f02fb0b6b7bab73a2a37a932b830bc9d160851b815250856001600160801b0316613d47565b6136726040518060400160405280601d81526020017f75736572426f72726f775368617265735b5f626f72726f7765725d3a2000000081525060156000846001600160a01b03166001600160a01b0316815260200190815260200160002054613d47565b838560000181815161368491906148e2565b6001600160801b03169052506020850180518491906136a49083906148e2565b6001600160801b039081169091526001600160a01b038316600090815260156020526040812080549287169350916136dd908490614584565b9091555050845160208601516001600160801b03908116600160801b02911617600f556040516001600160a01b038216907f77c6871227e5d2dec8dadd5354f78453203e22e669cd0ec4c19d9a8c5edb31d09061375290879087906001600160801b0392831681529116602082015260400190565b60405180910390a26001600160a01b03821630146137a8576137a86001600160a01b037f00000000000000000000000000000000000000000000000000000000000000001683306001600160801b038816613b92565b5050505050565b60007f8b73c3c69bb8fe3d512ecc4cf759cc79239f7b179b0ffacaa9a75d522b39400f60006040516137e19190614902565b6040805191829003822060208301939093528101919091527fc89efdaa54c0f20c7adf612882df0950f5a951637e0307cdcb4c672f298b8bc660608201524660808201523060a082015260c00160405160208183030381529060405280519060200120905090565b6001600160a01b03808616600090815260116020908152604080832087845290915290206003015460ff169082163014613b26578015613a2b576138c16040518060400160405280601981526020017f72656d6f76696e6720657263323020636f6c6c61746572616c00000000000000815250613fdd565b604080518082018252601581527403ab9b2b921b7b63630ba32b930b632b93199181d1605d1b6020808301919091526001600160a01b03808a1660009081526013835284812091881681529152919091205461391d9190613d47565b61395160405180604001604052806012815260200171031b7b63630ba32b930b620b6b7bab73a1d160751b81525086613d47565b604080518082018252600781526603a37ba30b61d160cd1b6020808301919091526001600160a01b038916600090815260118252838120818052909152919091205461399d9190613d47565b6001600160a01b038087166000908152601360209081526040808320938716835292905290812080548792906139d4908490614584565b90915550506001600160a01b038616600090815260116020908152604080832083805290915281208054879290613a0c908490614584565b90915550613a2690506001600160a01b0387168387613f5f565b613b26565b6001600160a01b038681166000908152601460209081526040808320888452909152902054811690841614613a955760405162461bcd60e51b815260206004820152601060248201526f1b9bdd081bdddb995c881bd9881b999d60821b6044820152606401610e16565b6001600160a01b0386811660008181526014602090815260408083208984529091529081902080546001600160a01b031916905551632142170760e11b8152306004820152918416602483015260448201869052906342842e0e90606401600060405180830381600087803b158015613b0d57600080fd5b505af1158015613b21573d6000803e3d6000fd5b505050505b604080516001600160a01b03888116825260208201879052918101879052908416907f37c4d2e6036e28a1f1ed3eed26620e1e370df577673d4eb2decef5d3ea44a94990606001613319565b80518251600091613b82916148e2565b6001600160801b03169392505050565b60006040516323b872dd60e01b81528460048201528360248201528260448201526020600060648360008a5af13d15601f3d11600160005114161716915050806137a85760405162461bcd60e51b81526020600482015260146024820152731514905394d1915497d19493d357d1905253115160621b6044820152606401610e16565b8060026000828254613c2791906146f3565b90915550506001600160a01b03821660008181526003602090815260408083208054860190555184815260008051602061499b83398151915291015b60405180910390a35050565b6007546001600160a01b03163314613cb55760405162461bcd60e51b8152602060048201526009602482015268139bdd0815985d5b1d60ba1b6044820152606401610e16565b604080518082019091526010546001600160801b038082168352600160801b909104166020820152613ce683613329565b81518290613cf59083906148c2565b6001600160801b0316905250613d0a82613329565b81602001818151613d1b91906148c2565b6001600160801b0390811690915282516020909301518116600160801b02921691909117601055505050565b61076d8282604051602401613d5d929190614978565b60408051601f198184030181529190526020810180516001600160e01b03166309710a9d60e41b179052614023565b6007546001600160a01b03163314613dd25760405162461bcd60e51b8152602060048201526009602482015268139bdd0815985d5b1d60ba1b6044820152606401610e16565b6040805180820182526010546001600160801b038082168352600160801b9182900481166020808501919091528451808601909552600f548083168652929092041690830152600091613e259190613b72565b905082811015613e6a5760405162461bcd60e51b815260206004820152601060248201526f1b9bdd08195b9bdd59da08185cdcd95d60821b6044820152606401610e16565b604080518082019091526010546001600160801b038082168352600160801b909104166020820152613e9b84613329565b81518290613eaa9083906148e2565b6001600160801b0316905250613ebf83613329565b81602001818151613ed091906148e2565b6001600160801b0390811690915282516020909301518116600160801b0292169190911760105550505050565b6001600160a01b03821660009081526003602052604081208054839290613f25908490614584565b90915550506002805482900390556040518181526000906001600160a01b0384169060008051602061499b83398151915290602001613c63565b600060405163a9059cbb60e01b8152836004820152826024820152602060006044836000895af13d15601f3d1160016000511416171691505080613fd75760405162461bcd60e51b815260206004820152600f60248201526e1514905394d1915497d19052531151608a1b6044820152606401610e16565b50505050565b61402081604051602401613ff1919061408a565b60408051601f198184030181529190526020810180516001600160e01b031663104c13eb60e21b179052614023565b50565b80516a636f6e736f6c652e6c6f67602083016000808483855afa5050505050565b6000815180845260005b8181101561406a5760208185018101518683018201520161404e565b506000602082860101526020601f19601f83011685010191505092915050565b6020815260006111666020830184614044565b6000602082840312156140af57600080fd5b5035919050565b6001600160a01b038116811461402057600080fd5b600080604083850312156140de57600080fd5b82356140e9816140b6565b946020939093013593505050565b60008060008060006080868803121561410f57600080fd5b853561411a816140b6565b9450602086013561412a816140b6565b93506040860135925060608601356001600160401b038082111561414d57600080fd5b818801915088601f83011261416157600080fd5b81358181111561417057600080fd5b89602082850101111561418257600080fd5b9699959850939650602001949392505050565b600080600080600060a086880312156141ad57600080fd5b8535945060208601356141bf816140b6565b9350604086013592506060860135915060808601356141dd816140b6565b809150509295509295909350565b6000602082840312156141fd57600080fd5b8135611166816140b6565b6000806040838503121561421b57600080fd5b82359150602083013561422d816140b6565b809150509250929050565b60008060006060848603121561424d57600080fd5b8335614258816140b6565b92506020840135614268816140b6565b929592945050506040919091013590565b801515811461402057600080fd5b6000806040838503121561429a57600080fd5b82359150602083013561422d81614279565b600080604083850312156142bf57600080fd5b50508035926020909101359150565b600080600080608085870312156142e457600080fd5b84356142ef816140b6565b93506020850135925060408501359150606085013561430d816140b6565b939692955090935050565b600080600080600060a0868803121561433057600080fd5b853561433b816140b6565b945060208601359350604086013592506060860135915060808601356141dd81614279565b6000806040838503121561437357600080fd5b823561437e816140b6565b9150602083013561422d816140b6565b602080825282518282018190526000919060409081850190868401855b828110156143e1576143d184835180516001600160a01b03168252602090810151910152565b92840192908501906001016143ab565b5091979650505050505050565b60008060006060848603121561440357600080fd5b833561440e816140b6565b9250602084013591506040840135614425816140b6565b809150509250925092565b60008060006060848603121561444557600080fd5b833592506020840135614457816140b6565b91506040840135614425816140b6565b60ff8116811461402057600080fd5b600080600080600080600060e0888a03121561449157600080fd5b873561449c816140b6565b965060208801356144ac816140b6565b9550604088013594506060880135935060808801356144ca81614467565b9699959850939692959460a0840135945060c09093013592915050565b600181811c908216806144fb57607f821691505b602082108103612c1457634e487b7160e01b600052602260045260246000fd5b6020808252600a90820152695245454e5452414e435960b01b604082015260600190565b602080825260159082015274189bdc9c9bddd95c881a5cc81a5b9cdbdb1d995b9d605a1b604082015260600190565b634e487b7160e01b600052601160045260246000fd5b81810381811115610d7157610d7161456e565b634e487b7160e01b600052603260045260246000fd5b6000602082840312156145bf57600080fd5b815161116681614467565b600181815b808511156146055781600019048211156145eb576145eb61456e565b808516156145f857918102915b93841c93908002906145cf565b509250929050565b60008261461c57506001610d71565b8161462957506000610d71565b816001811461463f576002811461464957614665565b6001915050610d71565b60ff84111561465a5761465a61456e565b50506001821b610d71565b5060208310610133831016604e8410600b8410161715614688575081810a610d71565b61469283836145ca565b80600019048211156146a6576146a661456e565b029392505050565b6000611166838361460d565b8082028115828204841417610d7157610d7161456e565b6000826146ee57634e487b7160e01b600052601260045260246000fd5b500490565b80820180821115610d7157610d7161456e565b6000600182016147185761471861456e565b5060010190565b818103600083128015838313168383128216171561473f5761473f61456e565b5092915050565b60006020828403121561475857600080fd5b5051919050565b60208082526017908201527f636f6c6c61746572616c206e6f7420617070726f766564000000000000000000604082015260600190565b60208082526014908201527318d85b1b195c881b5d5cdd081899481d985d5b1d60621b604082015260600190565b6000602082840312156147d657600080fd5b8151611166816140b6565b6000602082840312156147f357600080fd5b815161116681614279565b6040815260006148116040830185614044565b60208382038185015260008554614827816144e7565b80855260018281168015614842576001811461485c5761488a565b60ff1984168787015282151560051b87018601945061488a565b896000528560002060005b84811015614882578154898201890152908301908701614867565b880187019550505b50929998505050505050505050565b6000602082840312156148ab57600080fd5b81516001600160401b038116811461116657600080fd5b6001600160801b0381811683821601908082111561473f5761473f61456e565b6001600160801b0382811682821603908082111561473f5761473f61456e565b6000808354614910816144e7565b60018281168015614928576001811461493d5761496c565b60ff198416875282151583028701945061496c565b8760005260208060002060005b858110156149635781548a82015290840190820161494a565b50505082870194505b50929695505050505050565b60408152600061498b6040830185614044565b9050826020830152939250505056feddf252ad1be2c89b69c2b068fc378daa952ba7f163c4a11628f55a4df523b3efa26469706673582212209662e5e2cc59831580512db988f9df6cbd6a1669506bc86f2bda96aeaa52f7a664736f6c63430008110033",
    "linkReferences": {}
  },
  "methodIdentifiers": {
    "DOMAIN_SEPARATOR()": "3644e515",
    "Utilizer()": "350896fe",
    "_canBorrow(address)": "1f17b2c4",
    "_isLiquidatable(address)": "38094ae7",
    "addAcceptedCollateral(address,uint256,uint256,uint256,bool)": "4be085d9",
    "addCollateral(address,uint256,uint256,address)": "670c6222",
    "addInterest()": "0d09365c",
    "allowance(address,address)": "dd62ed3e",
    "approve(address,uint256)": "095ea7b3",
    "approvedCollateral(address,uint256)": "10b181b4",
    "asset()": "38d52e0f",
    "balanceOf(address)": "70a08231",
    "balanceOfUnderlying(address)": "3af9e669",
    "borrow(uint256,address,uint256,uint256,address)": "1c5ef1ab",
    "borrowLiquidityAvailable(uint256)": "6578dcfe",
    "collateralData(address,uint256)": "9189ed1c",
    "convertToAssets(uint256)": "07a2d13a",
    "convertToShares(uint256)": "c6e6f592",
    "currentRateInfo()": "95d14ca8",
    "decimals()": "313ce567",
    "deposit(uint256,address)": "6e553f65",
    "estimatedTotalAssets()": "efbb5cb0",
    "getAcceptedCollaterals()": "8354cc59",
    "getMaturityBalance()": "1104aafd",
    "getMaxBorrow(address)": "fd1c317a",
    "getUserSnapshot(address)": "b68d0a09",
    "initialize()": "8129fc1c",
    "instrumentApprovalCondition()": "83e754a0",
    "isLiquid(uint256)": "537d9409",
    "isLocked()": "a4e2d634",
    "liquidate(address)": "2f865568",
    "liquidateAllPositions()": "50bb4beb",
    "liquidatePosition(uint256)": "cdddd4e5",
    "maxDeposit(address)": "402d267d",
    "maxMint(address)": "c63d75b6",
    "maxRedeem(address)": "d905777e",
    "maxWithdraw(address)": "ce96cb77",
    "mint(uint256,address)": "94bf804d",
    "name()": "06fdde03",
    "nonces(address)": "7ecebe00",
    "numAuctions()": "5c113acc",
    "onERC721Received(address,address,uint256,bytes)": "150b7a02",
    "onMarketApproval(uint256,uint256)": "416288dd",
    "paused()": "5c975abb",
    "permit(address,address,uint256,uint256,uint8,bytes32,bytes32)": "d505accf",
    "prepareWithdraw()": "49dcf4ed",
    "previewDeposit(uint256)": "ef8b30f7",
    "previewMint(uint256)": "b3d7f6b9",
    "previewRedeem(uint256)": "4cdad506",
    "previewWithdraw(uint256)": "0a28a477",
    "pullRawFunds(uint256)": "d832f791",
    "rateContract()": "eee24219",
    "rateInitCallData()": "c7be9786",
    "readyForWithdrawal()": "bdf0f253",
    "redeem(uint256,address,address)": "ba087652",
    "redeemUnderlying(uint256)": "852a12e3",
    "removeAvailableCollateral(address,uint256,address)": "dd38677a",
    "removeCollateral(address,uint256,uint256,address)": "46c11417",
    "removeableCollateral(address,uint256,address)": "95ee69ac",
    "repay(uint256,address)": "acb70815",
    "repayWithAmount(uint256,address)": "1fd09567",
    "setUtilizer(address)": "57b25996",
    "store_internal_balance()": "f3aa68d3",
    "symbol()": "95d89b41",
    "toAssetAmount(uint256,bool)": "404ffa7a",
    "toAssetShares(uint256,bool)": "56968f97",
    "toBorrowAmount(uint256,bool)": "94e301e0",
    "toBorrowShares(uint256,bool)": "c270a544",
    "totalAsset()": "f9557ccb",
    "totalAssetAvailable()": "7426e7a4",
    "totalAssets()": "01e1d114",
    "totalBorrow()": "8285ef40",
    "totalSupply()": "18160ddd",
    "transfer(address,uint256)": "a9059cbb",
    "transferFrom(address,address,uint256)": "23b872dd",
    "underlying()": "6f307dc3",
    "userAuctionId(address)": "d7da6302",
    "userBorrowShares(address)": "4fd422df",
    "userCollateralERC20(address,address)": "601b4aed",
    "userCollateralNFTs(address,uint256)": "838e9ae3",
    "validators(uint256)": "35aa2e44",
    "vault()": "fbfa77cf",
    "withdraw(uint256,address,address)": "b460af94"
  },
  "id": 11
}