{
  "abi": [
    {
      "inputs": [
        {
          "internalType": "address",
          "name": "_vault",
          "type": "address"
        },
        {
          "internalType": "address",
          "name": "_reputationManager",
          "type": "address"
        },
        {
          "internalType": "uint256",
          "name": "_r",
          "type": "uint256"
        },
        {
          "internalType": "address",
          "name": "_utilizer",
          "type": "address"
        },
        {
          "internalType": "string",
          "name": "_name",
          "type": "string"
        },
        {
          "internalType": "string",
          "name": "_symbol",
          "type": "string"
        },
        {
          "internalType": "address",
          "name": "_rateCalculator",
          "type": "address"
        },
        {
          "internalType": "bytes",
          "name": "_rateInitCallData",
          "type": "bytes"
        },
        {
          "components": [
            {
              "internalType": "address",
              "name": "tokenAddress",
              "type": "address"
            },
            {
              "internalType": "uint256",
              "name": "tokenId",
              "type": "uint256"
            }
          ],
          "internalType": "struct PoolInstrument.CollateralLabel[]",
          "name": "_collaterals",
          "type": "tuple[]"
        },
        {
          "components": [
            {
              "internalType": "uint256",
              "name": "totalCollateral",
              "type": "uint256"
            },
            {
              "internalType": "uint256",
              "name": "maxAmount",
              "type": "uint256"
            },
            {
              "internalType": "uint256",
              "name": "maxBorrowAmount",
              "type": "uint256"
            },
            {
              "internalType": "bool",
              "name": "isERC20",
              "type": "bool"
            },
            {
              "internalType": "uint256",
              "name": "tau",
              "type": "uint256"
            },
            {
              "internalType": "uint256",
              "name": "cusp",
              "type": "uint256"
            },
            {
              "internalType": "uint256",
              "name": "tail",
              "type": "uint256"
            },
            {
              "internalType": "uint256",
              "name": "buf",
              "type": "uint256"
            }
          ],
          "internalType": "struct PoolInstrument.Config[]",
          "name": "_collateralData",
          "type": "tuple[]"
        }
      ],
      "stateMutability": "nonpayable",
      "type": "constructor"
    },
    {
      "anonymous": false,
      "inputs": [
        {
          "indexed": true,
          "internalType": "address",
          "name": "borrower",
          "type": "address"
        },
        {
          "indexed": false,
          "internalType": "address",
          "name": "collateral",
          "type": "address"
        },
        {
          "indexed": false,
          "internalType": "uint256",
          "name": "tokenId",
          "type": "uint256"
        },
        {
          "indexed": false,
          "internalType": "uint256",
          "name": "amount",
          "type": "uint256"
        }
      ],
      "name": "AddCollateral",
      "type": "event"
    },
    {
      "anonymous": false,
      "inputs": [
        {
          "indexed": true,
          "internalType": "address",
          "name": "owner",
          "type": "address"
        },
        {
          "indexed": true,
          "internalType": "address",
          "name": "spender",
          "type": "address"
        },
        {
          "indexed": false,
          "internalType": "uint256",
          "name": "amount",
          "type": "uint256"
        }
      ],
      "name": "Approval",
      "type": "event"
    },
    {
      "anonymous": false,
      "inputs": [
        {
          "indexed": true,
          "internalType": "address",
          "name": "_borrower",
          "type": "address"
        },
        {
          "indexed": false,
          "internalType": "uint256",
          "name": "_amount",
          "type": "uint256"
        },
        {
          "indexed": false,
          "internalType": "uint256",
          "name": "_shares",
          "type": "uint256"
        }
      ],
      "name": "Borrow",
      "type": "event"
    },
    {
      "anonymous": false,
      "inputs": [
        {
          "indexed": true,
          "internalType": "address",
          "name": "caller",
          "type": "address"
        },
        {
          "indexed": true,
          "internalType": "address",
          "name": "owner",
          "type": "address"
        },
        {
          "indexed": false,
          "internalType": "uint256",
          "name": "assets",
          "type": "uint256"
        },
        {
          "indexed": false,
          "internalType": "uint256",
          "name": "shares",
          "type": "uint256"
        }
      ],
      "name": "Deposit",
      "type": "event"
    },
    {
      "anonymous": false,
      "inputs": [
        {
          "indexed": true,
          "internalType": "uint256",
          "name": "timestamp",
          "type": "uint256"
        },
        {
          "indexed": false,
          "internalType": "uint256",
          "name": "interestEarned",
          "type": "uint256"
        },
        {
          "indexed": false,
          "internalType": "uint256",
          "name": "feesAmount",
          "type": "uint256"
        },
        {
          "indexed": false,
          "internalType": "uint256",
          "name": "feesShare",
          "type": "uint256"
        },
        {
          "indexed": false,
          "internalType": "uint64",
          "name": "newRate",
          "type": "uint64"
        }
      ],
      "name": "InterestAdded",
      "type": "event"
    },
    {
      "anonymous": false,
      "inputs": [
        {
          "indexed": true,
          "internalType": "address",
          "name": "from",
          "type": "address"
        },
        {
          "indexed": true,
          "internalType": "address",
          "name": "to",
          "type": "address"
        },
        {
          "indexed": false,
          "internalType": "uint256",
          "name": "amount",
          "type": "uint256"
        }
      ],
      "name": "LiquidityTransfer",
      "type": "event"
    },
    {
      "anonymous": false,
      "inputs": [
        {
          "indexed": false,
          "internalType": "address",
          "name": "account",
          "type": "address"
        }
      ],
      "name": "Paused",
      "type": "event"
    },
    {
      "anonymous": false,
      "inputs": [
        {
          "indexed": true,
          "internalType": "address",
          "name": "borrower",
          "type": "address"
        },
        {
          "indexed": false,
          "internalType": "address",
          "name": "collateral",
          "type": "address"
        },
        {
          "indexed": false,
          "internalType": "uint256",
          "name": "tokenId",
          "type": "uint256"
        },
        {
          "indexed": false,
          "internalType": "uint256",
          "name": "amount",
          "type": "uint256"
        }
      ],
      "name": "RemoveCollateral",
      "type": "event"
    },
    {
      "anonymous": false,
      "inputs": [
        {
          "indexed": true,
          "internalType": "address",
          "name": "borrower",
          "type": "address"
        },
        {
          "indexed": false,
          "internalType": "uint256",
          "name": "amount",
          "type": "uint256"
        },
        {
          "indexed": false,
          "internalType": "uint256",
          "name": "shares",
          "type": "uint256"
        }
      ],
      "name": "Repay",
      "type": "event"
    },
    {
      "anonymous": false,
      "inputs": [
        {
          "indexed": true,
          "internalType": "address",
          "name": "from",
          "type": "address"
        },
        {
          "indexed": true,
          "internalType": "address",
          "name": "to",
          "type": "address"
        },
        {
          "indexed": false,
          "internalType": "uint256",
          "name": "amount",
          "type": "uint256"
        }
      ],
      "name": "Transfer",
      "type": "event"
    },
    {
      "anonymous": false,
      "inputs": [
        {
          "indexed": false,
          "internalType": "address",
          "name": "account",
          "type": "address"
        }
      ],
      "name": "Unpaused",
      "type": "event"
    },
    {
      "anonymous": false,
      "inputs": [
        {
          "indexed": true,
          "internalType": "address",
          "name": "caller",
          "type": "address"
        },
        {
          "indexed": true,
          "internalType": "address",
          "name": "receiver",
          "type": "address"
        },
        {
          "indexed": true,
          "internalType": "address",
          "name": "owner",
          "type": "address"
        },
        {
          "indexed": false,
          "internalType": "uint256",
          "name": "assets",
          "type": "uint256"
        },
        {
          "indexed": false,
          "internalType": "uint256",
          "name": "shares",
          "type": "uint256"
        }
      ],
      "name": "Withdraw",
      "type": "event"
    },
    {
      "inputs": [],
      "name": "DOMAIN_SEPARATOR",
      "outputs": [
        {
          "internalType": "bytes32",
          "name": "",
          "type": "bytes32"
        }
      ],
      "stateMutability": "view",
      "type": "function"
    },
    {
      "inputs": [],
      "name": "Utilizer",
      "outputs": [
        {
          "internalType": "address",
          "name": "",
          "type": "address"
        }
      ],
      "stateMutability": "view",
      "type": "function"
    },
    {
      "inputs": [
        {
          "internalType": "address",
          "name": "_borrower",
          "type": "address"
        }
      ],
      "name": "_canBorrow",
      "outputs": [
        {
          "internalType": "bool",
          "name": "",
          "type": "bool"
        }
      ],
      "stateMutability": "view",
      "type": "function"
    },
    {
      "inputs": [
        {
          "internalType": "address",
          "name": "_borrower",
          "type": "address"
        }
      ],
      "name": "_isLiquidatable",
      "outputs": [
        {
          "internalType": "bool",
          "name": "",
          "type": "bool"
        },
        {
          "internalType": "int256",
          "name": "accountLiq",
          "type": "int256"
        }
      ],
      "stateMutability": "view",
      "type": "function"
    },
    {
      "inputs": [
        {
          "internalType": "address",
          "name": "_collateral",
          "type": "address"
        },
        {
          "internalType": "uint256",
          "name": "_tokenId",
          "type": "uint256"
        },
        {
          "components": [
            {
              "internalType": "uint256",
              "name": "totalCollateral",
              "type": "uint256"
            },
            {
              "internalType": "uint256",
              "name": "maxAmount",
              "type": "uint256"
            },
            {
              "internalType": "uint256",
              "name": "maxBorrowAmount",
              "type": "uint256"
            },
            {
              "internalType": "bool",
              "name": "isERC20",
              "type": "bool"
            },
            {
              "internalType": "uint256",
              "name": "tau",
              "type": "uint256"
            },
            {
              "internalType": "uint256",
              "name": "cusp",
              "type": "uint256"
            },
            {
              "internalType": "uint256",
              "name": "tail",
              "type": "uint256"
            },
            {
              "internalType": "uint256",
              "name": "buf",
              "type": "uint256"
            }
          ],
          "internalType": "struct PoolInstrument.Config",
          "name": "_config",
          "type": "tuple"
        }
      ],
      "name": "addAcceptedCollateral",
      "outputs": [],
      "stateMutability": "nonpayable",
      "type": "function"
    },
    {
      "inputs": [
        {
          "internalType": "address",
          "name": "_collateral",
          "type": "address"
        },
        {
          "internalType": "uint256",
          "name": "_tokenId",
          "type": "uint256"
        },
        {
          "internalType": "uint256",
          "name": "_collateralAmount",
          "type": "uint256"
        },
        {
          "internalType": "address",
          "name": "_borrower",
          "type": "address"
        },
        {
          "internalType": "bool",
          "name": "_enable",
          "type": "bool"
        }
      ],
      "name": "addCollateral",
      "outputs": [],
      "stateMutability": "nonpayable",
      "type": "function"
    },
    {
      "inputs": [],
      "name": "addInterest",
      "outputs": [
        {
          "internalType": "uint256",
          "name": "_interestEarned",
          "type": "uint256"
        },
        {
          "internalType": "uint256",
          "name": "_feesAmount",
          "type": "uint256"
        },
        {
          "internalType": "uint256",
          "name": "_feesShare",
          "type": "uint256"
        },
        {
          "internalType": "uint64",
          "name": "_newRate",
          "type": "uint64"
        }
      ],
      "stateMutability": "nonpayable",
      "type": "function"
    },
    {
      "inputs": [
        {
          "internalType": "address",
          "name": "",
          "type": "address"
        },
        {
          "internalType": "address",
          "name": "",
          "type": "address"
        }
      ],
      "name": "allowance",
      "outputs": [
        {
          "internalType": "uint256",
          "name": "",
          "type": "uint256"
        }
      ],
      "stateMutability": "view",
      "type": "function"
    },
    {
      "inputs": [
        {
          "internalType": "address",
          "name": "spender",
          "type": "address"
        },
        {
          "internalType": "uint256",
          "name": "amount",
          "type": "uint256"
        }
      ],
      "name": "approve",
      "outputs": [
        {
          "internalType": "bool",
          "name": "",
          "type": "bool"
        }
      ],
      "stateMutability": "nonpayable",
      "type": "function"
    },
    {
      "inputs": [
        {
          "internalType": "bytes32",
          "name": "",
          "type": "bytes32"
        }
      ],
      "name": "approvedCollateral",
      "outputs": [
        {
          "internalType": "bool",
          "name": "",
          "type": "bool"
        }
      ],
      "stateMutability": "view",
      "type": "function"
    },
    {
      "inputs": [],
      "name": "asset",
      "outputs": [
        {
          "internalType": "contract ERC20",
          "name": "",
          "type": "address"
        }
      ],
      "stateMutability": "view",
      "type": "function"
    },
    {
      "inputs": [
        {
          "internalType": "address",
          "name": "",
          "type": "address"
        }
      ],
      "name": "balanceOf",
      "outputs": [
        {
          "internalType": "uint256",
          "name": "",
          "type": "uint256"
        }
      ],
      "stateMutability": "view",
      "type": "function"
    },
    {
      "inputs": [
        {
          "internalType": "address",
          "name": "user",
          "type": "address"
        }
      ],
      "name": "balanceOfUnderlying",
      "outputs": [
        {
          "internalType": "uint256",
          "name": "",
          "type": "uint256"
        }
      ],
      "stateMutability": "view",
      "type": "function"
    },
    {
      "inputs": [
        {
          "internalType": "uint256",
          "name": "_borrowAmount",
          "type": "uint256"
        },
        {
          "internalType": "address",
          "name": "_collateral",
          "type": "address"
        },
        {
          "internalType": "uint256",
          "name": "_tokenId",
          "type": "uint256"
        },
        {
          "internalType": "uint256",
          "name": "_collateralAmount",
          "type": "uint256"
        },
        {
          "internalType": "address",
          "name": "_reciever",
          "type": "address"
        },
        {
          "internalType": "bool",
          "name": "_enable",
          "type": "bool"
        }
      ],
      "name": "borrow",
      "outputs": [
        {
          "internalType": "uint256",
          "name": "_shares",
          "type": "uint256"
        }
      ],
      "stateMutability": "nonpayable",
      "type": "function"
    },
    {
      "inputs": [
        {
          "internalType": "uint256",
          "name": "_borrowAmount",
          "type": "uint256"
        }
      ],
      "name": "borrowLiquidityAvailable",
      "outputs": [
        {
          "internalType": "bool",
          "name": "",
          "type": "bool"
        }
      ],
      "stateMutability": "view",
      "type": "function"
    },
    {
      "inputs": [
        {
          "internalType": "bytes32",
          "name": "",
          "type": "bytes32"
        }
      ],
      "name": "collateralConfigs",
      "outputs": [
        {
          "internalType": "uint256",
          "name": "totalCollateral",
          "type": "uint256"
        },
        {
          "internalType": "uint256",
          "name": "maxAmount",
          "type": "uint256"
        },
        {
          "internalType": "uint256",
          "name": "maxBorrowAmount",
          "type": "uint256"
        },
        {
          "internalType": "bool",
          "name": "isERC20",
          "type": "bool"
        },
        {
          "internalType": "uint256",
          "name": "tau",
          "type": "uint256"
        },
        {
          "internalType": "uint256",
          "name": "cusp",
          "type": "uint256"
        },
        {
          "internalType": "uint256",
          "name": "tail",
          "type": "uint256"
        },
        {
          "internalType": "uint256",
          "name": "buf",
          "type": "uint256"
        }
      ],
      "stateMutability": "view",
      "type": "function"
    },
    {
      "inputs": [
        {
          "internalType": "address",
          "name": "_addr",
          "type": "address"
        },
        {
          "internalType": "uint256",
          "name": "_tokenId",
          "type": "uint256"
        }
      ],
      "name": "computeId",
      "outputs": [
        {
          "internalType": "bytes32",
          "name": "",
          "type": "bytes32"
        }
      ],
      "stateMutability": "pure",
      "type": "function"
    },
    {
      "inputs": [
        {
          "internalType": "uint256",
          "name": "shares",
          "type": "uint256"
        }
      ],
      "name": "convertToAssets",
      "outputs": [
        {
          "internalType": "uint256",
          "name": "",
          "type": "uint256"
        }
      ],
      "stateMutability": "view",
      "type": "function"
    },
    {
      "inputs": [
        {
          "internalType": "uint256",
          "name": "assets",
          "type": "uint256"
        }
      ],
      "name": "convertToShares",
      "outputs": [
        {
          "internalType": "uint256",
          "name": "",
          "type": "uint256"
        }
      ],
      "stateMutability": "view",
      "type": "function"
    },
    {
      "inputs": [],
      "name": "currentRateInfo",
      "outputs": [
        {
          "internalType": "uint64",
          "name": "lastBlock",
          "type": "uint64"
        },
        {
          "internalType": "uint64",
          "name": "lastTimestamp",
          "type": "uint64"
        },
        {
          "internalType": "uint64",
          "name": "ratePerSec",
          "type": "uint64"
        }
      ],
      "stateMutability": "view",
      "type": "function"
    },
    {
      "inputs": [],
      "name": "decimals",
      "outputs": [
        {
          "internalType": "uint8",
          "name": "",
          "type": "uint8"
        }
      ],
      "stateMutability": "view",
      "type": "function"
    },
    {
      "inputs": [
        {
          "internalType": "uint256",
          "name": "assets",
          "type": "uint256"
        },
        {
          "internalType": "address",
          "name": "receiver",
          "type": "address"
        }
      ],
      "name": "deposit",
      "outputs": [
        {
          "internalType": "uint256",
          "name": "shares",
          "type": "uint256"
        }
      ],
      "stateMutability": "nonpayable",
      "type": "function"
    },
    {
      "inputs": [
        {
          "internalType": "address",
          "name": "_collateral",
          "type": "address"
        },
        {
          "internalType": "uint256",
          "name": "_tokenId",
          "type": "uint256"
        }
      ],
      "name": "disableCollateral",
      "outputs": [],
      "stateMutability": "nonpayable",
      "type": "function"
    },
    {
      "inputs": [
        {
          "internalType": "address",
          "name": "_collateral",
          "type": "address"
        },
        {
          "internalType": "uint256",
          "name": "_tokenId",
          "type": "uint256"
        }
      ],
      "name": "enableCollateral",
      "outputs": [],
      "stateMutability": "nonpayable",
      "type": "function"
    },
    {
      "inputs": [],
      "name": "estimatedTotalAssets",
      "outputs": [
        {
          "internalType": "uint256",
          "name": "",
          "type": "uint256"
        }
      ],
      "stateMutability": "view",
      "type": "function"
    },
    {
      "inputs": [],
      "name": "getAcceptedCollaterals",
      "outputs": [
        {
          "components": [
            {
              "internalType": "address",
              "name": "tokenAddress",
              "type": "address"
            },
            {
              "internalType": "uint256",
              "name": "tokenId",
              "type": "uint256"
            }
          ],
          "internalType": "struct PoolInstrument.CollateralLabel[]",
          "name": "",
          "type": "tuple[]"
        }
      ],
      "stateMutability": "view",
      "type": "function"
    },
    {
      "inputs": [],
      "name": "getMaturityBalance",
      "outputs": [
        {
          "internalType": "uint256",
          "name": "",
          "type": "uint256"
        }
      ],
      "stateMutability": "view",
      "type": "function"
    },
    {
      "inputs": [
        {
          "internalType": "address",
          "name": "_borrower",
          "type": "address"
        }
      ],
      "name": "getMaxBorrow",
      "outputs": [
        {
          "internalType": "uint256",
          "name": "_maxBorrowableAmount",
          "type": "uint256"
        }
      ],
      "stateMutability": "view",
      "type": "function"
    },
    {
      "inputs": [
        {
          "internalType": "address",
          "name": "_address",
          "type": "address"
        }
      ],
      "name": "getUserSnapshot",
      "outputs": [
        {
          "internalType": "uint256",
          "name": "_userAssetShares",
          "type": "uint256"
        },
        {
          "internalType": "uint256",
          "name": "_userAssetAmount",
          "type": "uint256"
        },
        {
          "internalType": "uint256",
          "name": "_userBorrowShares",
          "type": "uint256"
        },
        {
          "internalType": "uint256",
          "name": "_userBorrowAmount",
          "type": "uint256"
        },
        {
          "internalType": "int256",
          "name": "_userAccountLiquidity",
          "type": "int256"
        }
      ],
      "stateMutability": "view",
      "type": "function"
    },
    {
      "inputs": [],
      "name": "instrumentApprovalCondition",
      "outputs": [
        {
          "internalType": "bool",
          "name": "",
          "type": "bool"
        }
      ],
      "stateMutability": "view",
      "type": "function"
    },
    {
      "inputs": [
        {
          "internalType": "uint256",
          "name": "amount",
          "type": "uint256"
        }
      ],
      "name": "isLiquid",
      "outputs": [
        {
          "internalType": "bool",
          "name": "",
          "type": "bool"
        }
      ],
      "stateMutability": "view",
      "type": "function"
    },
    {
      "inputs": [],
      "name": "isLocked",
      "outputs": [
        {
          "internalType": "bool",
          "name": "",
          "type": "bool"
        }
      ],
      "stateMutability": "view",
      "type": "function"
    },
    {
      "inputs": [
        {
          "internalType": "address",
          "name": "holder",
          "type": "address"
        },
        {
          "internalType": "uint256",
          "name": "amount",
          "type": "uint256"
        }
      ],
      "name": "isWithdrawAble",
      "outputs": [
        {
          "internalType": "bool",
          "name": "",
          "type": "bool"
        }
      ],
      "stateMutability": "view",
      "type": "function"
    },
    {
      "inputs": [],
      "name": "liquidateAllPositions",
      "outputs": [
        {
          "internalType": "uint256",
          "name": "_amountFreed",
          "type": "uint256"
        }
      ],
      "stateMutability": "nonpayable",
      "type": "function"
    },
    {
      "inputs": [
        {
          "internalType": "uint256",
          "name": "_amountNeeded",
          "type": "uint256"
        }
      ],
      "name": "liquidatePosition",
      "outputs": [
        {
          "internalType": "uint256",
          "name": "_liquidatedAmount",
          "type": "uint256"
        },
        {
          "internalType": "uint256",
          "name": "_loss",
          "type": "uint256"
        }
      ],
      "stateMutability": "nonpayable",
      "type": "function"
    },
    {
      "inputs": [
        {
          "internalType": "address",
          "name": "",
          "type": "address"
        }
      ],
      "name": "maxDeposit",
      "outputs": [
        {
          "internalType": "uint256",
          "name": "",
          "type": "uint256"
        }
      ],
      "stateMutability": "view",
      "type": "function"
    },
    {
      "inputs": [
        {
          "internalType": "address",
          "name": "",
          "type": "address"
        }
      ],
      "name": "maxMint",
      "outputs": [
        {
          "internalType": "uint256",
          "name": "",
          "type": "uint256"
        }
      ],
      "stateMutability": "view",
      "type": "function"
    },
    {
      "inputs": [
        {
          "internalType": "address",
          "name": "owner",
          "type": "address"
        }
      ],
      "name": "maxRedeem",
      "outputs": [
        {
          "internalType": "uint256",
          "name": "",
          "type": "uint256"
        }
      ],
      "stateMutability": "view",
      "type": "function"
    },
    {
      "inputs": [
        {
          "internalType": "address",
          "name": "owner",
          "type": "address"
        }
      ],
      "name": "maxWithdraw",
      "outputs": [
        {
          "internalType": "uint256",
          "name": "",
          "type": "uint256"
        }
      ],
      "stateMutability": "view",
      "type": "function"
    },
    {
      "inputs": [
        {
          "internalType": "uint256",
          "name": "shares",
          "type": "uint256"
        },
        {
          "internalType": "address",
          "name": "receiver",
          "type": "address"
        }
      ],
      "name": "mint",
      "outputs": [
        {
          "internalType": "uint256",
          "name": "assets",
          "type": "uint256"
        }
      ],
      "stateMutability": "nonpayable",
      "type": "function"
    },
    {
      "inputs": [],
      "name": "name",
      "outputs": [
        {
          "internalType": "string",
          "name": "",
          "type": "string"
        }
      ],
      "stateMutability": "view",
      "type": "function"
    },
    {
      "inputs": [
        {
          "internalType": "address",
          "name": "",
          "type": "address"
        }
      ],
      "name": "nonces",
      "outputs": [
        {
          "internalType": "uint256",
          "name": "",
          "type": "uint256"
        }
      ],
      "stateMutability": "view",
      "type": "function"
    },
    {
      "inputs": [
        {
          "internalType": "address",
          "name": "",
          "type": "address"
        },
        {
          "internalType": "address",
          "name": "",
          "type": "address"
        },
        {
          "internalType": "uint256",
          "name": "",
          "type": "uint256"
        },
        {
          "internalType": "bytes",
          "name": "",
          "type": "bytes"
        }
      ],
      "name": "onERC721Received",
      "outputs": [
        {
          "internalType": "bytes4",
          "name": "",
          "type": "bytes4"
        }
      ],
      "stateMutability": "nonpayable",
      "type": "function"
    },
    {
      "inputs": [
        {
          "internalType": "uint256",
          "name": "principal",
          "type": "uint256"
        },
        {
          "internalType": "uint256",
          "name": "yield",
          "type": "uint256"
        }
      ],
      "name": "onMarketApproval",
      "outputs": [],
      "stateMutability": "nonpayable",
      "type": "function"
    },
    {
      "inputs": [],
      "name": "paused",
      "outputs": [
        {
          "internalType": "bool",
          "name": "",
          "type": "bool"
        }
      ],
      "stateMutability": "view",
      "type": "function"
    },
    {
      "inputs": [
        {
          "internalType": "address",
          "name": "owner",
          "type": "address"
        },
        {
          "internalType": "address",
          "name": "spender",
          "type": "address"
        },
        {
          "internalType": "uint256",
          "name": "value",
          "type": "uint256"
        },
        {
          "internalType": "uint256",
          "name": "deadline",
          "type": "uint256"
        },
        {
          "internalType": "uint8",
          "name": "v",
          "type": "uint8"
        },
        {
          "internalType": "bytes32",
          "name": "r",
          "type": "bytes32"
        },
        {
          "internalType": "bytes32",
          "name": "s",
          "type": "bytes32"
        }
      ],
      "name": "permit",
      "outputs": [],
      "stateMutability": "nonpayable",
      "type": "function"
    },
    {
      "inputs": [],
      "name": "prepareWithdraw",
      "outputs": [
        {
          "internalType": "uint256",
          "name": "_profit",
          "type": "uint256"
        },
        {
          "internalType": "uint256",
          "name": "_loss",
          "type": "uint256"
        },
        {
          "internalType": "uint256",
          "name": "_debtPayment",
          "type": "uint256"
        }
      ],
      "stateMutability": "nonpayable",
      "type": "function"
    },
    {
      "inputs": [
        {
          "internalType": "uint256",
          "name": "assets",
          "type": "uint256"
        }
      ],
      "name": "previewDeposit",
      "outputs": [
        {
          "internalType": "uint256",
          "name": "",
          "type": "uint256"
        }
      ],
      "stateMutability": "view",
      "type": "function"
    },
    {
      "inputs": [
        {
          "internalType": "uint256",
          "name": "shares",
          "type": "uint256"
        }
      ],
      "name": "previewMint",
      "outputs": [
        {
          "internalType": "uint256",
          "name": "",
          "type": "uint256"
        }
      ],
      "stateMutability": "view",
      "type": "function"
    },
    {
      "inputs": [
        {
          "internalType": "uint256",
          "name": "shares",
          "type": "uint256"
        }
      ],
      "name": "previewRedeem",
      "outputs": [
        {
          "internalType": "uint256",
          "name": "",
          "type": "uint256"
        }
      ],
      "stateMutability": "view",
      "type": "function"
    },
    {
      "inputs": [
        {
          "internalType": "uint256",
          "name": "assets",
          "type": "uint256"
        }
      ],
      "name": "previewWithdraw",
      "outputs": [
        {
          "internalType": "uint256",
          "name": "",
          "type": "uint256"
        }
      ],
      "stateMutability": "view",
      "type": "function"
    },
    {
      "inputs": [
        {
          "internalType": "uint256",
          "name": "amount",
          "type": "uint256"
        }
      ],
      "name": "pullRawFunds",
      "outputs": [],
      "stateMutability": "nonpayable",
      "type": "function"
    },
    {
      "inputs": [],
      "name": "r",
      "outputs": [
        {
          "internalType": "uint256",
          "name": "",
          "type": "uint256"
        }
      ],
      "stateMutability": "view",
      "type": "function"
    },
    {
      "inputs": [],
      "name": "rateContract",
      "outputs": [
        {
          "internalType": "contract IRateCalculator",
          "name": "",
          "type": "address"
        }
      ],
      "stateMutability": "view",
      "type": "function"
    },
    {
      "inputs": [],
      "name": "rateInitCallData",
      "outputs": [
        {
          "internalType": "bytes",
          "name": "",
          "type": "bytes"
        }
      ],
      "stateMutability": "view",
      "type": "function"
    },
    {
      "inputs": [],
      "name": "readyForWithdrawal",
      "outputs": [
        {
          "internalType": "bool",
          "name": "",
          "type": "bool"
        }
      ],
      "stateMutability": "view",
      "type": "function"
    },
    {
      "inputs": [
        {
          "internalType": "uint256",
          "name": "shares",
          "type": "uint256"
        },
        {
          "internalType": "address",
          "name": "receiver",
          "type": "address"
        },
        {
          "internalType": "address",
          "name": "owner",
          "type": "address"
        }
      ],
      "name": "redeem",
      "outputs": [
        {
          "internalType": "uint256",
          "name": "assets",
          "type": "uint256"
        }
      ],
      "stateMutability": "nonpayable",
      "type": "function"
    },
    {
      "inputs": [
        {
          "internalType": "uint256",
          "name": "amount",
          "type": "uint256"
        }
      ],
      "name": "redeemUnderlying",
      "outputs": [
        {
          "internalType": "bool",
          "name": "",
          "type": "bool"
        }
      ],
      "stateMutability": "nonpayable",
      "type": "function"
    },
    {
      "inputs": [
        {
          "internalType": "address",
          "name": "_collateral",
          "type": "address"
        },
        {
          "internalType": "uint256",
          "name": "_tokenId",
          "type": "uint256"
        },
        {
          "internalType": "address",
          "name": "_receiver",
          "type": "address"
        }
      ],
      "name": "removeAvailableCollateral",
      "outputs": [
        {
          "internalType": "uint256",
          "name": "removeable",
          "type": "uint256"
        }
      ],
      "stateMutability": "nonpayable",
      "type": "function"
    },
    {
      "inputs": [
        {
          "internalType": "address",
          "name": "_collateral",
          "type": "address"
        },
        {
          "internalType": "uint256",
          "name": "_tokenId",
          "type": "uint256"
        },
        {
          "internalType": "uint256",
          "name": "_collateralAmount",
          "type": "uint256"
        },
        {
          "internalType": "address",
          "name": "_receiver",
          "type": "address"
        },
        {
          "internalType": "bool",
          "name": "_disable",
          "type": "bool"
        }
      ],
      "name": "removeCollateral",
      "outputs": [],
      "stateMutability": "nonpayable",
      "type": "function"
    },
    {
      "inputs": [
        {
          "internalType": "address",
          "name": "_borrower",
          "type": "address"
        },
        {
          "internalType": "uint256",
          "name": "tokenId",
          "type": "uint256"
        },
        {
          "internalType": "address",
          "name": "collateral",
          "type": "address"
        }
      ],
      "name": "removeableCollateral",
      "outputs": [
        {
          "internalType": "uint256",
          "name": "",
          "type": "uint256"
        }
      ],
      "stateMutability": "view",
      "type": "function"
    },
    {
      "inputs": [
        {
          "internalType": "uint256",
          "name": "_shares",
          "type": "uint256"
        },
        {
          "internalType": "address",
          "name": "_borrower",
          "type": "address"
        }
      ],
      "name": "repay",
      "outputs": [
        {
          "internalType": "uint256",
          "name": "_amountToRepay",
          "type": "uint256"
        }
      ],
      "stateMutability": "nonpayable",
      "type": "function"
    },
    {
      "inputs": [
        {
          "internalType": "uint256",
          "name": "_amount",
          "type": "uint256"
        },
        {
          "internalType": "address",
          "name": "_borrower",
          "type": "address"
        }
      ],
      "name": "repayWithAmount",
      "outputs": [
        {
          "internalType": "uint256",
          "name": "_sharesToRepay",
          "type": "uint256"
        }
      ],
      "stateMutability": "nonpayable",
      "type": "function"
    },
    {
      "inputs": [
        {
          "internalType": "address",
          "name": "_Utilizer",
          "type": "address"
        }
      ],
      "name": "setUtilizer",
      "outputs": [],
      "stateMutability": "nonpayable",
      "type": "function"
    },
    {
      "inputs": [
        {
          "internalType": "address",
          "name": "newVault",
          "type": "address"
        }
      ],
      "name": "setVault",
      "outputs": [],
      "stateMutability": "nonpayable",
      "type": "function"
    },
    {
      "inputs": [],
      "name": "store_internal_balance",
      "outputs": [],
      "stateMutability": "nonpayable",
      "type": "function"
    },
    {
      "inputs": [],
      "name": "symbol",
      "outputs": [
        {
          "internalType": "string",
          "name": "",
          "type": "string"
        }
      ],
      "stateMutability": "view",
      "type": "function"
    },
    {
      "inputs": [
        {
          "internalType": "uint256",
          "name": "_shares",
          "type": "uint256"
        },
        {
          "internalType": "bool",
          "name": "_roundUp",
          "type": "bool"
        }
      ],
      "name": "toAssetAmount",
      "outputs": [
        {
          "internalType": "uint256",
          "name": "",
          "type": "uint256"
        }
      ],
      "stateMutability": "view",
      "type": "function"
    },
    {
      "inputs": [
        {
          "internalType": "uint256",
          "name": "_amount",
          "type": "uint256"
        },
        {
          "internalType": "bool",
          "name": "_roundUp",
          "type": "bool"
        }
      ],
      "name": "toAssetShares",
      "outputs": [
        {
          "internalType": "uint256",
          "name": "",
          "type": "uint256"
        }
      ],
      "stateMutability": "view",
      "type": "function"
    },
    {
      "inputs": [
        {
          "internalType": "uint256",
          "name": "_shares",
          "type": "uint256"
        },
        {
          "internalType": "bool",
          "name": "_roundUp",
          "type": "bool"
        }
      ],
      "name": "toBorrowAmount",
      "outputs": [
        {
          "internalType": "uint256",
          "name": "",
          "type": "uint256"
        }
      ],
      "stateMutability": "view",
      "type": "function"
    },
    {
      "inputs": [
        {
          "internalType": "uint256",
          "name": "_amount",
          "type": "uint256"
        },
        {
          "internalType": "bool",
          "name": "_roundUp",
          "type": "bool"
        }
      ],
      "name": "toBorrowShares",
      "outputs": [
        {
          "internalType": "uint256",
          "name": "",
          "type": "uint256"
        }
      ],
      "stateMutability": "view",
      "type": "function"
    },
    {
      "inputs": [],
      "name": "totalAsset",
      "outputs": [
        {
          "internalType": "uint128",
          "name": "amount",
          "type": "uint128"
        },
        {
          "internalType": "uint128",
          "name": "shares",
          "type": "uint128"
        }
      ],
      "stateMutability": "view",
      "type": "function"
    },
    {
      "inputs": [],
      "name": "totalAssetAvailable",
      "outputs": [
        {
          "internalType": "uint256",
          "name": "",
          "type": "uint256"
        }
      ],
      "stateMutability": "view",
      "type": "function"
    },
    {
      "inputs": [],
      "name": "totalAssets",
      "outputs": [
        {
          "internalType": "uint256",
          "name": "",
          "type": "uint256"
        }
      ],
      "stateMutability": "view",
      "type": "function"
    },
    {
      "inputs": [],
      "name": "totalBorrow",
      "outputs": [
        {
          "internalType": "uint128",
          "name": "amount",
          "type": "uint128"
        },
        {
          "internalType": "uint128",
          "name": "shares",
          "type": "uint128"
        }
      ],
      "stateMutability": "view",
      "type": "function"
    },
    {
      "inputs": [],
      "name": "totalSupply",
      "outputs": [
        {
          "internalType": "uint256",
          "name": "",
          "type": "uint256"
        }
      ],
      "stateMutability": "view",
      "type": "function"
    },
    {
      "inputs": [
        {
          "internalType": "address",
          "name": "to",
          "type": "address"
        },
        {
          "internalType": "uint256",
          "name": "amount",
          "type": "uint256"
        }
      ],
      "name": "transfer",
      "outputs": [
        {
          "internalType": "bool",
          "name": "",
          "type": "bool"
        }
      ],
      "stateMutability": "nonpayable",
      "type": "function"
    },
    {
      "inputs": [
        {
          "internalType": "address",
          "name": "from",
          "type": "address"
        },
        {
          "internalType": "address",
          "name": "to",
          "type": "address"
        },
        {
          "internalType": "uint256",
          "name": "amount",
          "type": "uint256"
        }
      ],
      "name": "transferFrom",
      "outputs": [
        {
          "internalType": "bool",
          "name": "",
          "type": "bool"
        }
      ],
      "stateMutability": "nonpayable",
      "type": "function"
    },
    {
      "inputs": [],
      "name": "underlying",
      "outputs": [
        {
          "internalType": "contract ERC20",
          "name": "",
          "type": "address"
        }
      ],
      "stateMutability": "view",
      "type": "function"
    },
    {
      "inputs": [
        {
          "internalType": "address",
          "name": "",
          "type": "address"
        }
      ],
      "name": "userBorrowShares",
      "outputs": [
        {
          "internalType": "uint256",
          "name": "",
          "type": "uint256"
        }
      ],
      "stateMutability": "view",
      "type": "function"
    },
    {
      "inputs": [
        {
          "internalType": "bytes32",
          "name": "",
          "type": "bytes32"
        },
        {
          "internalType": "address",
          "name": "",
          "type": "address"
        }
      ],
      "name": "userERC20s",
      "outputs": [
        {
          "internalType": "uint256",
          "name": "",
          "type": "uint256"
        }
      ],
      "stateMutability": "view",
      "type": "function"
    },
    {
      "inputs": [
        {
          "internalType": "bytes32",
          "name": "",
          "type": "bytes32"
        }
      ],
      "name": "userERC721s",
      "outputs": [
        {
          "internalType": "address",
          "name": "",
          "type": "address"
        }
      ],
      "stateMutability": "view",
      "type": "function"
    },
    {
      "inputs": [
        {
          "internalType": "uint256",
          "name": "",
          "type": "uint256"
        }
      ],
      "name": "validators",
      "outputs": [
        {
          "internalType": "address",
          "name": "",
          "type": "address"
        }
      ],
      "stateMutability": "view",
      "type": "function"
    },
    {
      "inputs": [],
      "name": "vault",
      "outputs": [
        {
          "internalType": "contract Vault",
          "name": "",
          "type": "address"
        }
      ],
      "stateMutability": "view",
      "type": "function"
    },
    {
      "inputs": [
        {
          "internalType": "uint256",
          "name": "assets",
          "type": "uint256"
        },
        {
          "internalType": "address",
          "name": "receiver",
          "type": "address"
        },
        {
          "internalType": "address",
          "name": "owner",
          "type": "address"
        }
      ],
      "name": "withdraw",
      "outputs": [
        {
          "internalType": "uint256",
          "name": "shares",
          "type": "uint256"
        }
      ],
      "stateMutability": "nonpayable",
      "type": "function"
    }
  ],
  "bytecode": {
    "object": "0x6101006040526001600d553480156200001757600080fd5b5060405162005b0438038062005b048339810160408190526200003a9162000913565b89878b6001600160a01b031663c5d664c66040518163ffffffff1660e01b8152600401602060405180830381865afa1580156200007b573d6000803e3d6000fd5b505050506040513d601f19601f82011682018060405250810190620000a1919062000a4b565b88888181846001600160a01b031663313ce5676040518163ffffffff1660e01b8152600401602060405180830381865afa158015620000e4573d6000803e3d6000fd5b505050506040513d601f19601f820116820180604052508101906200010a919062000a72565b600062000118848262000b26565b50600162000127838262000b26565b5060ff81166080524660a0526200013d620003e4565b60c052505050506001600160a01b0391821660e05250600780546001600160a01b0319169184169182179055604080516362eb326360e11b8152905163c5d664c6916004808201926020929091908290030181865afa158015620001a5573d6000803e3d6000fd5b505050506040513d601f19601f82011682018060405250810190620001cb919062000a4b565b600680546001600160a01b0319166001600160a01b0392831690811790915560405163095ea7b360e01b8152918416600483015260001960248301529063095ea7b3906044016020604051808303816000875af115801562000231573d6000803e3d6000fd5b505050506040513d601f19601f8201168201806040525081019062000257919062000bf2565b50600a80546001600160a01b03199081166001600160a01b0393841617909155600e805460ff1916905560188054909116918716919091179055506019620002a0848262000b26565b5060185460405163453f31d560e01b81526001600160a01b039091169063453f31d590620002d390869060040162000c10565b60006040518083038186803b158015620002ec57600080fd5b505afa15801562000301573d6000803e3d6000fd5b5050601c80546001600160a01b0319166001600160a01b038d161790555050601d88905560005b8251811015620003d357620003be8382815181106200034b576200034b62000c45565b6020026020010151600001518483815181106200036c576200036c62000c45565b6020026020010151602001518484815181106200038d576200038d62000c45565b6020026020010151868581518110620003aa57620003aa62000c45565b60200260200101516200048060201b60201c565b80620003ca8162000c5b565b91505062000328565b505050505050505050505062000d01565b60007f8b73c3c69bb8fe3d512ecc4cf759cc79239f7b179b0ffacaa9a75d522b39400f600060405162000418919062000c83565b6040805191829003822060208301939093528101919091527fc89efdaa54c0f20c7adf612882df0950f5a951637e0307cdcb4c672f298b8bc660608201524660808201523060a082015260c00160405160208183030381529060405280519060200120905090565b604080516001600160601b0319606087901b1660208083019190915260348083018790528351808403909101815260549092018352815191810191909120600081815260129092529190205460ff1615620005145760405162461bcd60e51b815260206004820152601060248201526f185b1c9958591e48185c1c1c9bdd995960821b604482015260640160405180910390fd5b6000808452908152601160209081526040808320855181558286015160018083019190915591860151600280830191909155606087015160038301805460ff19169115159190911790556080870151600483015560a0870151600583015560c0870151600683015560e090960151600790910155601b8054918201815590925282517f3ad8aa4f87544323a9d1e5dd902f40c356527a7955687113db5f9a85ad579dc19290940291820180546001600160a01b0319166001600160a01b03909516949094179093559101517f3ad8aa4f87544323a9d1e5dd902f40c356527a7955687113db5f9a85ad579dc2909101555050565b6001600160a01b03811681146200061e57600080fd5b50565b80516200062e8162000608565b919050565b634e487b7160e01b600052604160045260246000fd5b604080519081016001600160401b03811182821017156200066e576200066e62000633565b60405290565b60405161010081016001600160401b03811182821017156200066e576200066e62000633565b604051601f8201601f191681016001600160401b0381118282101715620006c557620006c562000633565b604052919050565b60005b83811015620006ea578181015183820152602001620006d0565b50506000910152565b600082601f8301126200070557600080fd5b81516001600160401b0381111562000721576200072162000633565b62000736601f8201601f19166020016200069a565b8181528460208386010111156200074c57600080fd5b6200075f826020830160208701620006cd565b949350505050565b60006001600160401b0382111562000783576200078362000633565b5060051b60200190565b600082601f8301126200079f57600080fd5b81516020620007b8620007b28362000767565b6200069a565b82815260069290921b84018101918181019086841115620007d857600080fd5b8286015b84811015620008275760408189031215620007f75760008081fd5b6200080162000649565b81516200080e8162000608565b81528185015185820152835291830191604001620007dc565b509695505050505050565b805180151581146200062e57600080fd5b600082601f8301126200085557600080fd5b8151602062000868620007b28362000767565b82815260089290921b840181019181810190868411156200088857600080fd5b8286015b8481101562000827576101008189031215620008a85760008081fd5b620008b262000674565b815181528482015185820152604080830151908201526060620008d781840162000832565b908201526080828101519082015260a0808301519082015260c0808301519082015260e08083015190820152835291830191610100016200088c565b6000806000806000806000806000806101408b8d0312156200093457600080fd5b6200093f8b62000621565b99506200094f60208c0162000621565b985060408b015197506200096660608c0162000621565b60808c01519097506001600160401b03808211156200098457600080fd5b620009928e838f01620006f3565b975060a08d0151915080821115620009a957600080fd5b620009b78e838f01620006f3565b9650620009c760c08e0162000621565b955060e08d0151915080821115620009de57600080fd5b620009ec8e838f01620006f3565b94506101008d015191508082111562000a0457600080fd5b62000a128e838f016200078d565b93506101208d015191508082111562000a2a57600080fd5b5062000a398d828e0162000843565b9150509295989b9194979a5092959850565b60006020828403121562000a5e57600080fd5b815162000a6b8162000608565b9392505050565b60006020828403121562000a8557600080fd5b815160ff8116811462000a6b57600080fd5b600181811c9082168062000aac57607f821691505b60208210810362000acd57634e487b7160e01b600052602260045260246000fd5b50919050565b601f82111562000b2157600081815260208120601f850160051c8101602086101562000afc5750805b601f850160051c820191505b8181101562000b1d5782815560010162000b08565b5050505b505050565b81516001600160401b0381111562000b425762000b4262000633565b62000b5a8162000b53845462000a97565b8462000ad3565b602080601f83116001811462000b92576000841562000b795750858301515b600019600386901b1c1916600185901b17855562000b1d565b600085815260208120601f198616915b8281101562000bc35788860151825594840194600190910190840162000ba2565b508582101562000be25787850151600019600388901b60f8161c191681555b5050505050600190811b01905550565b60006020828403121562000c0557600080fd5b62000a6b8262000832565b602081526000825180602084015262000c31816040850160208701620006cd565b601f01601f19169190910160400192915050565b634e487b7160e01b600052603260045260246000fd5b60006001820162000c7c57634e487b7160e01b600052601160045260246000fd5b5060010190565b600080835462000c938162000a97565b6001828116801562000cae576001811462000cc45762000cf5565b60ff198416875282151583028701945062000cf5565b8760005260208060002060005b8581101562000cec5781548a82015290840190820162000cd1565b50505082870194505b50929695505050505050565b60805160a05160c05160e051614d9f62000d65600039600081816106c401528181611cb401528181611f61015281816123fd01528181612610015281816136d10152613d50015260006110d9015260006110a4015260006105f20152614d9f6000f3fe608060405234801561001057600080fd5b50600436106104b75760003560e01c806381859b5a11610278578063c63d75b61161015c578063dd38677a116100ce578063efbb5cb011610092578063efbb5cb01461078b578063f3aa68d314610c7c578063f9557ccb14610c84578063fbfa77cf14610ca2578063fd1c317a14610cb5578063fd1e8c8514610cc857600080fd5b8063dd38677a14610c18578063dd62ed3e14610c2b578063e33f636514610c56578063eee2421914610c69578063ef8b30f71461052757600080fd5b8063ce96cb7711610120578063ce96cb7714610b13578063d3160c0f14610b26578063d505accf14610bb6578063d67b5d7a14610bc9578063d832f79114610bdc578063d905777e14610bef57600080fd5b8063c63d75b6146106f9578063c6e6f59214610aba578063c7be978614610acd578063cd8886ee14610ad5578063cdddd4e514610ae857600080fd5b806395ee69ac116101f5578063b3d7f6b9116101b9578063b3d7f6b914610758578063b460af9414610a46578063b68d0a0914610a59578063ba08765214610a94578063bdf0f25314610922578063c270a54414610aa757600080fd5b806395ee69ac146109e8578063a4e2d634146109fb578063a9059cbb14610a0d578063acb7081514610a20578063b2b93fe314610a3357600080fd5b8063852a12e31161023c578063852a12e31461095457806394bf804d1461096757806394e301e01461097a57806395d14ca81461098d57806395d89b41146109e057600080fd5b806381859b5a146108bc5780638285ef40146108cf5780638354cc591461090d57806383e754a0146109225780638418634f1461092957600080fd5b8063404ffa7a1161039f5780635c975abb1161031c5780636e553f65116102e05780636e553f651461082b5780636f307dc31461083e57806370a08231146108515780637426e7a4146108715780637ecebe00146108795780637f479cb71461089957600080fd5b80635c975abb146107de5780635fdb07f6146107e95780636578dcfe146107fc5780636817031b1461080f5780636c8ae38c1461082257600080fd5b806350bb4beb1161036357806350bb4beb1461078b578063537d94091461079257806356968f97146107a557806357b25996146107b85780635b50fbf3146107cb57600080fd5b8063404ffa7a1461070e578063416288dd1461072157806349dcf4ed146107355780634cdad506146107585780634fd422df1461076b57600080fd5b80631fd095671161043857806335aa2e44116103fc57806335aa2e441461067a5780633644e5151461068d57806338094ae71461069557806338d52e0f146106bf5780633af9e669146106e6578063402d267d146106f957600080fd5b80631fd09567146105c757806323b872dd146105da578063313ce567146105ed57806332ae4f4014610626578063350896fe1461066757600080fd5b80630d09365c1161047f5780630d09365c1461053a5780631104aafd1461056b578063150b7a021461057357806318160ddd146105ab5780631f17b2c4146105b457600080fd5b806301e1d114146104bc57806306fdde03146104dc57806307a2d13a146104f1578063095ea7b3146105045780630a28a47714610527575b600080fd5b6010546001600160801b03165b6040519081526020015b60405180910390f35b6104e4610cdb565b6040516104d39190614324565b6104c96104ff366004614337565b610d69565b610517610512366004614368565b610da5565b60405190151581526020016104d3565b6104c9610535366004614337565b610e11565b610542610e1c565b604080519485526020850193909352918301526001600160401b031660608201526080016104d3565b6008546104c9565b610592610581366004614394565b630a85bd0160e11b95945050505050565b6040516001600160e01b031990911681526020016104d3565b6104c960025481565b6105176105c2366004614432565b610e6d565b6104c96105d536600461444f565b610f0c565b6105176105e836600461447f565b610f94565b6106147f000000000000000000000000000000000000000000000000000000000000000081565b60405160ff90911681526020016104d3565b61064f610634366004614337565b6014602052600090815260409020546001600160a01b031681565b6040516001600160a01b0390911681526020016104d3565b600a5461064f906001600160a01b031681565b61064f610688366004614337565b611076565b6104c96110a0565b6106a86106a3366004614432565b6110fb565b6040805192151583526020830191909152016104d3565b61064f7f000000000000000000000000000000000000000000000000000000000000000081565b6104c96106f4366004614432565b611455565b6104c9610707366004614432565b5060001990565b6104c961071c3660046144d9565b611550565b61073361072f3660046144fe565b5050565b005b61073d611586565b604080519384526020840192909252908201526060016104d3565b6104c9610766366004614337565b6115d4565b6104c9610779366004614432565b60156020526000908152604090205481565b60006104c9565b6105176107a0366004614337565b6115df565b6104c96107b33660046144d9565b611626565b6107336107c6366004614432565b61165c565b6107336107d9366004614368565b611770565b600e5460ff16610517565b6104c96107f7366004614368565b611aa1565b61051761080a366004614337565b611ae8565b61073361081d366004614432565b611b5b565b6104c9601d5481565b6104c961083936600461444f565b611c5c565b60065461064f906001600160a01b031681565b6104c961085f366004614432565b60036020526000908152604090205481565b6104c9611d36565b6104c9610887366004614432565b60056020526000908152604090205481565b6105176108a7366004614337565b60126020526000908152604090205460ff1681565b6107336108ca366004614520565b611d89565b600f546108ed906001600160801b0380821691600160801b90041682565b604080516001600160801b039384168152929091166020830152016104d3565b610915611e27565b6040516104d3919061457f565b6001610517565b6104c961093736600461444f565b601360209081526000928352604080842090915290825290205481565b610517610962366004614337565b611e9c565b6104c961097536600461444f565b611f47565b6104c96109883660046144d9565b611fe3565b601a546109b6906001600160401b0380821691600160401b8104821691600160801b9091041683565b604080516001600160401b03948516815292841660208401529216918101919091526060016104d3565b6104e4612019565b6104c96109f63660046145d7565b612026565b600754600160a01b900460ff16610517565b610517610a1b366004614368565b6120d6565b6104c9610a2e36600461444f565b61213c565b6104c9610a41366004614619565b6121e4565b6104c9610a54366004614680565b612316565b610a6c610a67366004614432565b612424565b604080519586526020860194909452928401919091526060830152608082015260a0016104d3565b6104c9610aa2366004614680565b6124eb565b6104c9610ab53660046144d9565b612637565b6104c9610ac8366004614337565b61266d565b6104e46126a3565b610517610ae3366004614368565b6126b0565b610afe610af6366004614337565b600080915091565b604080519283526020830191909152016104d3565b6104c9610b21366004614432565b6126ef565b610b7b610b34366004614337565b6011602052600090815260409020805460018201546002830154600384015460048501546005860154600687015460079097015495969495939460ff909316939192909188565b604080519889526020890197909752958701949094529115156060860152608085015260a084015260c083015260e0820152610100016104d3565b610733610bc43660046146c6565b612711565b610733610bd7366004614520565b612955565b610733610bea366004614337565b612a1a565b6104c9610bfd366004614432565b6001600160a01b031660009081526003602052604090205490565b6104c9610c263660046145d7565b612ab0565b6104c9610c39366004614737565b600460209081526000928352604080842090915290825290205481565b610733610c64366004614765565b612b74565b60185461064f906001600160a01b031681565b610733612bb0565b6010546108ed906001600160801b0380821691600160801b90041682565b60075461064f906001600160a01b031681565b6104c9610cc3366004614432565b612be8565b610733610cd6366004614368565b612e5a565b60008054610ce8906147b1565b80601f0160208091040260200160405190810160405280929190818152602001828054610d14906147b1565b8015610d615780601f10610d3657610100808354040283529160200191610d61565b820191906000526020600020905b815481529060010190602001808311610d4457829003601f168201915b505050505081565b604080518082019091526010546001600160801b038082168352600160801b909104166020820152600090610d9f908383612f5b565b92915050565b3360008181526004602090815260408083206001600160a01b038716808552925280832085905551919290917f8c5be1e5ebec7d5bd14f71427d1e84f3dd0314c0f7b2291e5b200ac8c7c3b92590610e009086815260200190565b60405180910390a350600192915050565b6000610d9f8261266d565b600080600080600d54600114610e4d5760405162461bcd60e51b8152600401610e44906147eb565b60405180910390fd5b6002600d55610e5a612ff7565b6001600d55929791965094509092509050565b600080610e7983612be8565b6001600160a01b03841660009081526015602052604081205491925003610ea35750600192915050565b80600003610eb45750600092915050565b6001600160a01b0383166000908152601560209081526040808320548151808301909252600f546001600160801b038082168452600160801b9091041692820192909252610f0492909190612f5b565b111592915050565b6000600d54600114610f305760405162461bcd60e51b8152600401610e44906147eb565b6002600d5560408051808201909152600f546001600160801b038082168352600160801b909104166020820152610f698185600161346e565b9150610f8881610f78866134e3565b610f81856134e3565b33876134f9565b506001600d5592915050565b6001600160a01b03831660009081526004602090815260408083203384529091528120546000198114610ff057610fcb8382614825565b6001600160a01b03861660009081526004602090815260408083203384529091529020555b6001600160a01b03851660009081526003602052604081208054859290611018908490614825565b90915550506001600160a01b0380851660008181526003602052604090819020805487019055519091871690600080516020614d4a833981519152906110619087815260200190565b60405180910390a360019150505b9392505050565b600b818154811061108657600080fd5b6000918252602090912001546001600160a01b0316905081565b60007f000000000000000000000000000000000000000000000000000000000000000046146110d6576110d1613709565b905090565b507f000000000000000000000000000000000000000000000000000000000000000090565b60008060008060176000866001600160a01b03166001600160a01b03168152602001908152602001600020805480602002602001604051908101604052809291908181526020016000905b8282101561118e576000848152602090819020604080518082019091526002850290910180546001600160a01b03168252600190810154828401529083529092019101611146565b50505050905060005b815181101561139b5760008282815181106111b4576111b4614838565b6020026020010151905060006111d282600001518360200151611aa1565b60008181526011602090815260409182902082516101008101845281548152600182015492810192909252600281015492820192909252600382015460ff161580156060830181905260048401546080840152600584015460a0840152600684015460c084015260079093015460e083015292935091611273575060008281526013602090815260408083206001600160a01b038d16845290915290205415155b1561135257600083600001516001600160a01b031663313ce5676040518163ffffffff1660e01b8152600401602060405180830381865afa1580156112bc573d6000803e3d6000fd5b505050506040513d601f19601f820116820180604052508101906112e0919061484e565b60ff1690506112f081600a61494f565b82602001516013600086815260200190815260200160002060008d6001600160a01b03166001600160a01b0316815260200190815260200160002054611336919061495b565b6113409190614972565b61134a9088614994565b965050611385565b6000828152601460205260409020546001600160a01b03808b169116036113855760208101516113829087614994565b95505b5050508080611393906149a7565b915050611197565b506001600160a01b0385166000908152601560209081526040808320548151808301909252600f546001600160801b038082168452600160801b90910416928201929092526113ec92909190612f5b565b6001600160a01b0386166000908152601560209081526040808320548151808301909252600f546001600160801b038082168452600160801b90910416928201929092529285109261144092909190612f5b565b61144a90846149c0565b935093505050915091565b6000306001600160a01b038316036114e2576009546006546040516370a0823160e01b81526001600160a01b038581166004830152909116906370a0823190602401602060405180830381865afa1580156114b4573d6000803e3d6000fd5b505050506040513d601f19601f820116820180604052508101906114d891906149e7565b610d9f9190614825565b6006546040516370a0823160e01b81526001600160a01b038481166004830152909116906370a0823190602401602060405180830381865afa15801561152c573d6000803e3d6000fd5b505050506040513d601f19601f82011682018060405250810190610d9f91906149e7565b604080518082019091526010546001600160801b038082168352600160801b90910416602082015260009061106f908484612f5b565b600754600090819081906001600160a01b031633146115b75760405162461bcd60e51b8152600401610e4490614a00565b6115cf6007805460ff60a01b1916600160a01b179055565b909192565b6000610d9f82610d69565b6000611614604051806040016040528060088152602001671a5cdb1a5c5d5a5960c21b81525061160e30611455565b846137a3565b8161161e30611455565b101592915050565b604080518082019091526010546001600160801b038082168352600160801b90910416602082015260009061106f90848461346e565b600760009054906101000a90046001600160a01b03166001600160a01b0316638da5cb5b6040518163ffffffff1660e01b8152600401602060405180830381865afa1580156116af573d6000803e3d6000fd5b505050506040513d601f19601f820116820180604052508101906116d39190614a2e565b6001600160a01b0316336001600160a01b031614806117015750336000908152600c602052604090205460ff165b61173b5760405162461bcd60e51b815260206004820152600b60248201526a08585d5d1a1bdc9a5e995960aa1b6044820152606401610e44565b6001600160a01b03811661174e57600080fd5b600a80546001600160a01b0319166001600160a01b0392909216919091179055565b8181601260006117808484611aa1565b815260208101919091526040016000205460ff166117b05760405162461bcd60e51b8152600401610e4490614a4b565b60006117bc8585611aa1565b33600090815260166020908152604080832084845290915290205490915060ff166117e75750611a9b565b6000818152601360209081526040808320338452909152902054158061182457506000818152601460205260409020546001600160a01b03163314155b6118885760405162461bcd60e51b815260206004820152602f60248201527f6d7573742072656d6f766520616c6c2072656d61696e696e6720636f6c6c617460448201526e6572616c20746f2064697361626c6560881b6064820152608401610e44565b33600090815260176020908152604080832080548251818502810185019093528083529192909190849084015b828210156118fd576000848152602090819020604080518082019091526002850290910180546001600160a01b031682526001908101548284015290835290920191016118b5565b50505050905060005b8151811015611a7757866001600160a01b031682828151811061192b5761192b614838565b6020026020010151600001516001600160a01b031614801561196957508582828151811061195b5761195b614838565b602002602001015160200151145b15611a6557336000908152601760205260409020805461198b90600190614825565b8154811061199b5761199b614838565b906000526020600020906002020160176000336001600160a01b03166001600160a01b0316815260200190815260200160002082815481106119df576119df614838565b60009182526020808320845460029093020180546001600160a01b0319166001600160a01b039093169290921782556001938401549390910192909255338152601790915260409020805480611a3757611a37614a82565b60008281526020812060026000199093019283020180546001600160a01b0319168155600101559055611a77565b80611a6f816149a7565b915050611906565b505033600090815260166020908152604080832093835292905220805460ff191690555b50505050565b6040516bffffffffffffffffffffffff19606084901b1660208201526034810182905260009060540160405160208183030381529060405280519060200120905092915050565b604080518082018252600f546001600160801b038082168352600160801b918290048116602080850191909152845180860190955260105480831686529290920416908301526000918290611b3d90836137ea565b905083811015611b51575060009392505050565b5060019392505050565b600760009054906101000a90046001600160a01b03166001600160a01b0316638da5cb5b6040518163ffffffff1660e01b8152600401602060405180830381865afa158015611bae573d6000803e3d6000fd5b505050506040513d601f19601f82011682018060405250810190611bd29190614a2e565b6001600160a01b0316336001600160a01b03161480611c005750336000908152600c602052604090205460ff165b611c3a5760405162461bcd60e51b815260206004820152600b60248201526a08585d5d1a1bdc9a5e995960aa1b6044820152606401610e44565b600780546001600160a01b0319166001600160a01b0392909216919091179055565b6000611c6783610e11565b905080600003611ca75760405162461bcd60e51b815260206004820152600b60248201526a5a45524f5f53484152455360a81b6044820152606401610e44565b611cdc6001600160a01b037f00000000000000000000000000000000000000000000000000000000000000001633308661380a565b611ce6828261388d565b60408051848152602081018390526001600160a01b0384169133917fdcbc1c05240f31ff3ad067ef1ee35ce4997762752e3a095284754544f4c709d7910160405180910390a3610d9f83826138e7565b6040805180820182526010546001600160801b038082168352600160801b9182900481166020808501919091528451808601909552600f5480831686529290920416908301526000916110d191906137ea565b848460126000611d998484611aa1565b815260208101919091526040016000205460ff16611dc95760405162461bcd60e51b8152600401610e4490614a4b565b600d54600114611deb5760405162461bcd60e51b8152600401610e44906147eb565b6002600d55611df8612ff7565b505050508215611e0c57611e0c8787612e5a565b611e19338887878a613979565b50506001600d555050505050565b6060601b805480602002602001604051908101604052809291908181526020016000905b82821015611e93576000848152602090819020604080518082019091526002850290910180546001600160a01b03168252600190810154828401529083529092019101611e4b565b50505050905090565b6007546000906001600160a01b03163314611ec95760405162461bcd60e51b8152600401610e4490614a00565b60065460075460405163a9059cbb60e01b81526001600160a01b0391821660048201526024810185905291169063a9059cbb906044016020604051808303816000875af1158015611f1e573d6000803e3d6000fd5b505050506040513d601f19601f82011682018060405250810190610d9f9190614a98565b919050565b6000611f52836115d4565b9050611f896001600160a01b037f00000000000000000000000000000000000000000000000000000000000000001633308461380a565b611f93828461388d565b60408051828152602081018590526001600160a01b0384169133917fdcbc1c05240f31ff3ad067ef1ee35ce4997762752e3a095284754544f4c709d7910160405180910390a3610d9f81846138e7565b60408051808201909152600f546001600160801b038082168352600160801b90910416602082015260009061106f908484612f5b565b60018054610ce8906147b1565b60008061203285612be8565b905060006120408486611aa1565b6000818152601160209081526040808320600201546001600160a01b038b1684526015835292819020548151808301909252600f546001600160801b038082168452600160801b9091041692820192909252929350909182916120a591906001612f5b565b6120af9085614825565b6120c190670de0b6b3a764000061495b565b6120cb9190614972565b979650505050505050565b336000908152600360205260408120805483919083906120f7908490614825565b90915550506001600160a01b03831660008181526003602052604090819020805485019055513390600080516020614d4a83398151915290610e009086815260200190565b6000600d546001146121605760405162461bcd60e51b8152600401610e44906147eb565b6002600d5560408051808201909152600f546001600160801b038082168352600160801b90910416602082015261219981856001612f5b565b91506121ce60405180604001604052806011815260200170030b6b7bab73a103a37903932b830bc9d1607d1b81525083613b10565b610f88816121db846134e3565b610f81876134e3565b600033600d546001146122095760405162461bcd60e51b8152600401610e44906147eb565b6002600d55612216613b55565b61221e612ff7565b505050506001600160a01b03871615801590612244575060008511806122445750600086115b156122cd5760006122558888611aa1565b60008181526012602052604090205490915060ff166122ae5760405162461bcd60e51b81526020600482015260156024820152741d5b985c1c1c9bdd99590818dbdb1b185d195c985b605a1b6044820152606401610e44565b83156122be576122be8888612e5a565b6122cb338988338b613979565b505b6122df6122d9896134e3565b85613b9d565b6001600d5591506122ef81610e6d565b61230b5760405162461bcd60e51b8152600401610e4490614ab5565b509695505050505050565b600061232184610e11565b9050336001600160a01b03831614612391576001600160a01b0382166000908152600460209081526040808320338452909152902054600019811461238f5761236a8282614825565b6001600160a01b03841660009081526004602090815260408083203384529091529020555b505b61239b8482613d88565b6123a58282613eb3565b60408051858152602081018390526001600160a01b03808516929086169133917ffbde797d201c681b91056529119e0b02407c7bb96a4a2c75c01fc9667232c8db910160405180910390a461106f6001600160a01b037f0000000000000000000000000000000000000000000000000000000000000000168486613f15565b6001600160a01b03811660009081526003602090815260408083205481518083019092526010546001600160801b038082168452600160801b909104169282019290925290919081908190819061247c908683612f5b565b6001600160a01b0387166000908152601560209081526040808320548151808301909252600f546001600160801b038082168452600160801b909104169282019290925292965094506124d191908590612f5b565b91506124dc866110fb565b90508091505091939590929450565b6000336001600160a01b0383161461255b576001600160a01b03821660009081526004602090815260408083203384529091529020546000198114612559576125348582614825565b6001600160a01b03841660009081526004602090815260408083203384529091529020555b505b612564846115d4565b9050806000036125a45760405162461bcd60e51b815260206004820152600b60248201526a5a45524f5f41535345545360a81b6044820152606401610e44565b6125ae8185613d88565b6125b88285613eb3565b60408051828152602081018690526001600160a01b03808516929086169133917ffbde797d201c681b91056529119e0b02407c7bb96a4a2c75c01fc9667232c8db910160405180910390a461106f6001600160a01b037f0000000000000000000000000000000000000000000000000000000000000000168483613f15565b60408051808201909152600f546001600160801b038082168352600160801b90910416602082015260009061106f90848461346e565b604080518082019091526010546001600160801b038082168352600160801b909104166020820152600090610d9f90838361346e565b60198054610ce8906147b1565b6001600160a01b03821660009081526003602052604081205482906126d4906115d4565b1015801561106f5750816126e6611d36565b10159392505050565b6001600160a01b038116600090815260036020526040812054610d9f90610d69565b428410156127615760405162461bcd60e51b815260206004820152601760248201527f5045524d49545f444541444c494e455f455850495245440000000000000000006044820152606401610e44565b6000600161276d6110a0565b6001600160a01b038a811660008181526005602090815260409182902080546001810190915582517f6e71edae12b1b97f4d1f60370fef10105fa2faae0126114a169c64845d6126c98184015280840194909452938d166060840152608083018c905260a083019390935260c08083018b90528151808403909101815260e08301909152805192019190912061190160f01b6101008301526101028201929092526101228101919091526101420160408051601f198184030181528282528051602091820120600084529083018083525260ff871690820152606081018590526080810184905260a0016020604051602081039080840390855afa158015612879573d6000803e3d6000fd5b5050604051601f1901519150506001600160a01b038116158015906128af5750876001600160a01b0316816001600160a01b0316145b6128ec5760405162461bcd60e51b815260206004820152600e60248201526d24a72b20a624a22fa9a4a3a722a960911b6044820152606401610e44565b6001600160a01b0390811660009081526004602090815260408083208a8516808552908352928190208990555188815291928a16917f8c5be1e5ebec7d5bd14f71427d1e84f3dd0314c0f7b2291e5b200ac8c7c3b925910160405180910390a350505050505050565b600d546001146129775760405162461bcd60e51b8152600401610e44906147eb565b6002600d553385856012600061298d8484611aa1565b815260208101919091526040016000205460ff166129bd5760405162461bcd60e51b8152600401610e4490614a4b565b6129c5612ff7565b5050505083156129d9576129d98888611770565b6129e68887893389613f8d565b50506129f181610e6d565b612a0d5760405162461bcd60e51b8152600401610e4490614ab5565b50506001600d5550505050565b6006546040516323b872dd60e01b8152336004820152306024820152604481018390526001600160a01b03909116906323b872dd906064016020604051808303816000875af1158015612a71573d6000803e3d6000fd5b505050506040513d601f19601f82011682018060405250810190612a959190614a98565b508060096000828254612aa89190614994565b909155505050565b6000600d54600114612ad45760405162461bcd60e51b8152600401610e44906147eb565b6002600d5533848460126000612aea8484611aa1565b815260208101919091526040016000205460ff16612b1a5760405162461bcd60e51b8152600401610e4490614a4b565b612b22612ff7565b50505050612b31338789612026565b9350612b408785883389613f8d565b5050612b4b81610e6d565b612b675760405162461bcd60e51b8152600401610e4490614ab5565b506001600d559392505050565b612bab8383612b8836859003850185614ae4565b6040518060400160405280886001600160a01b0316815260200187815250614168565b505050565b6007546001600160a01b03163314612bda5760405162461bcd60e51b8152600401610e4490614a00565b612be330611455565b600855565b33600090815260176020908152604080832080548251818502810185019093528083528493849084015b82821015612c5a576000848152602090819020604080518082019091526002850290910180546001600160a01b03168252600190810154828401529083529092019101612c12565b50505050905060005b8151811015612e53576000828281518110612c8057612c80614838565b602002602001015190506000612c9e82600001518360200151611aa1565b60008181526011602090815260409182902082516101008101845281548152600182015492810192909252600281015492820192909252600382015460ff161580156060830181905260048401546080840152600584015460a0840152600684015460c084015260079093015460e083015292935091612d3f575060008281526013602090815260408083206001600160a01b038b16845290915290205415155b15612e0a57600083600001516001600160a01b031663313ce5676040518163ffffffff1660e01b8152600401602060405180830381865afa158015612d88573d6000803e3d6000fd5b505050506040513d601f19601f82011682018060405250810190612dac919061484e565b60ff169050612dbc81600a61494f565b6040808401516000868152601360209081528382206001600160a01b038e16835290529190912054612dee919061495b565b612df89190614972565b612e029088614994565b965050612e3d565b6000828152601460205260409020546001600160a01b03808916911603612e3d576040810151612e3a9087614994565b95505b5050508080612e4b906149a7565b915050612c63565b5050919050565b818160126000612e6a8484611aa1565b815260208101919091526040016000205460ff16612e9a5760405162461bcd60e51b8152600401610e4490614a4b565b6000612ea68585611aa1565b33600090815260166020908152604080832084845290915290205490915060ff1615612ed25750611a9b565b336000818152601660209081526040808320948352938152838220805460ff191660019081179091559282526017815283822084518086019095526001600160a01b0389811686528583018981528254808701845592855292909320945160029091029094018054949092166001600160a01b0319909416939093178155915191015550505050565b600083602001516001600160801b0316600003612f7957508161106f565b602084015184516001600160801b0391821691612f9791168561495b565b612fa19190614972565b9050818015612fdf57508284600001516001600160801b031685602001516001600160801b031683612fd3919061495b565b612fdd9190614972565b105b1561106f57612fef816001614994565b949350505050565b60408051606081018252601a546001600160401b038082168352600160401b8204811660208401819052600160801b90920416928201929092526000918291829182919042900361304d57604001519050613468565b6040805180820182526010546001600160801b038082168352600160801b91829004811660208085019190915284518086018652600f548084168252939093049091168282018190528451808601909552601785527f746f74616c20626f72726f776572207368617265733a2000000000000000000091850191909152919290916130d89190613b10565b60208101516001600160801b031615806130f45750600e5460ff165b1561316c57600e5460ff1661310e5763096ba6c460408401525b6001600160401b0342811660208501819052438216808652601a80546040880151909416600160801b0267ffffffffffffffff60801b19600160401b9094026001600160801b031990951690921793909317919091161790556133df565b600083602001516001600160401b0316426131879190614825565b835183519192506000916001600160801b03918216916131ab9116620186a061495b565b6131b59190614972565b905060008560400151838388600001516001600160401b0316436131d99190614825565b604080516001600160401b0390951660208601528401929092526060830152608082015260a00160408051601f1981840301815290829052601854631b54c1a360e01b83529092506001600160a01b031690631b54c1a390613242908490601990600401614b88565b602060405180830381865afa15801561325f573d6000803e3d6000fd5b505050506040513d601f19601f820116820180604052508101906132839190614c23565b6001600160401b038082166040890181905242821660208a01524390911688528551919850670de0b6b3a7640000916132c5906001600160801b03168661495b565b6132cf919061495b565b6132d99190614972565b8451909a506001600160801b03906132f39082168c614994565b11158015613316575084516001600160801b03906133139082168c614994565b11155b1561335757898460000181815161332d9190614c4c565b6001600160801b031690525084518a90869061334a908390614c4c565b6001600160801b03169052505b505082516020808501516001600160801b03928316600160801b9184168202176010558651601a80548985015160408b01516001600160401b039485166001600160801b031990931692909217600160401b918516919091021767ffffffffffffffff60801b1916921683029190911790558451918501519183169190921690910217600f55505b6134126040518060400160405280601181526020017002fb4b73a32b932b9ba22b0b93732b21d1607d1b81525088613b10565b60408051888152602081018890529081018690526001600160401b038516606082015242907fb3f1ab1acc425f7672dd56d1f8912f1e1b18909cd52aef680190f13adb38a9659060800160405180910390a25050505b90919293565b82516000906001600160801b0316810361348957508161106f565b835160208501516001600160801b03918216916134a791168561495b565b6134b19190614972565b9050818015612fdf57508284602001516001600160801b031685600001516001600160801b031683612fd3919061495b565b6000600160801b82106134f557600080fd5b5090565b61352d6040518060400160405280600981526020016802fb9b430b932b99d160bd1b815250846001600160801b0316613b10565b6135686040518060400160405280601081526020016f02fb0b6b7bab73a2a37a932b830bc9d160851b815250856001600160801b0316613b10565b6135cc6040518060400160405280601d81526020017f75736572426f72726f775368617265735b5f626f72726f7765725d3a2000000081525060156000846001600160a01b03166001600160a01b0316815260200190815260200160002054613b10565b83856000018181516135de9190614c6c565b6001600160801b03169052506020850180518491906135fe908390614c6c565b6001600160801b039081169091526001600160a01b03831660009081526015602052604081208054928716935091613637908490614825565b9091555050845160208601516001600160801b03908116600160801b02911617600f556040516001600160a01b038216907f77c6871227e5d2dec8dadd5354f78453203e22e669cd0ec4c19d9a8c5edb31d0906136ac90879087906001600160801b0392831681529116602082015260400190565b60405180910390a26001600160a01b0382163014613702576137026001600160a01b037f00000000000000000000000000000000000000000000000000000000000000001683306001600160801b03881661380a565b5050505050565b60007f8b73c3c69bb8fe3d512ecc4cf759cc79239f7b179b0ffacaa9a75d522b39400f600060405161373b9190614c8c565b6040805191829003822060208301939093528101919091527fc89efdaa54c0f20c7adf612882df0950f5a951637e0307cdcb4c672f298b8bc660608201524660808201523060a082015260c00160405160208183030381529060405280519060200120905090565b612bab8383836040516024016137bb93929190614d02565b60408051601f198184030181529190526020810180516001600160e01b031663969cdd0360e01b1790526142bd565b805182516000916137fa91614c6c565b6001600160801b03169392505050565b60006040516323b872dd60e01b81528460048201528360248201528260448201526020600060648360008a5af13d15601f3d11600160005114161716915050806137025760405162461bcd60e51b81526020600482015260146024820152731514905394d1915497d19493d357d1905253115160621b6044820152606401610e44565b806002600082825461389f9190614994565b90915550506001600160a01b038216600081815260036020908152604080832080548601905551848152600080516020614d4a83398151915291015b60405180910390a35050565b604080518082019091526010546001600160801b038082168352600160801b909104166020820152613918836134e3565b81518290613927908390614c4c565b6001600160801b031690525061393c826134e3565b8160200181815161394d9190614c4c565b6001600160801b0390811690915282516020909301518116600160801b02921691909117601055505050565b60006139858583611aa1565b60008181526011602052604090206003015490915060ff166001600160a01b0387163014613ab7578015613a285760008281526013602090815260408083206001600160a01b0388168452909152812080548792906139e5908490614994565b909155505060008281526011602052604081208054879290613a08908490614994565b90915550613a2390506001600160a01b03871688308861380a565b613ab7565b6000828152601460205260409081902080546001600160a01b0319166001600160a01b03878116919091179091559051632142170760e11b8152888216600482015230602482015260448101859052908716906342842e0e90606401600060405180830381600087803b158015613a9e57600080fd5b505af1158015613ab2573d6000803e3d6000fd5b505050505b604080516001600160a01b03888116825260208201869052918101879052908516907f33a089d94f9a0b7d0fe21e69b40d7dbe1965be652c7382cc778d46963db8c49b906060015b60405180910390a250505050505050565b61072f8282604051602401613b26929190614d27565b60408051601f198184030181529190526020810180516001600160e01b03166309710a9d60e41b1790526142bd565b600e5460ff1615613b9b5760405162461bcd60e51b815260206004820152601060248201526f14185d5cd8589b194e881c185d5cd95960821b6044820152606401610e44565b565b604080518082018252600f546001600160801b038082168352600160801b918290048116602080850191909152845180860190955260105480831686529290920416908301526000918290613bf290836137ea565b9050846001600160801b0316811015613c595760405162461bcd60e51b815260206004820152602360248201527f696e73756666696369656e7420636f6e74726163742061737365742062616c616044820152626e636560e81b6064820152608401610e44565b613c6e826001600160801b038716600161346e565b92508482600001818151613c829190614c4c565b6001600160801b0316905250602082018051849190613ca2908390614c4c565b6001600160801b0390811690915283516020808601518316600160801b029190921617600f553360009081526015909152604081208054869350909190613cea908490614994565b9091555050604080516001600160801b03871681526020810185905233917fe1979fe4c35e0cef342fef5668e2c8e7a7e9f5d5d1ca8fee0ac6c427fa4153af910160405180910390a26001600160a01b0384163014613d8057613d806001600160a01b037f000000000000000000000000000000000000000000000000000000000000000016856001600160801b038816613f15565b505092915050565b6040805180820182526010546001600160801b038082168352600160801b9182900481166020808501919091528451808601909552600f548083168652929092041690830152600091613ddb91906137ea565b905082811015613e205760405162461bcd60e51b815260206004820152601060248201526f1b9bdd08195b9bdd59da08185cdcd95d60821b6044820152606401610e44565b604080518082019091526010546001600160801b038082168352600160801b909104166020820152613e51846134e3565b81518290613e60908390614c6c565b6001600160801b0316905250613e75836134e3565b81602001818151613e869190614c6c565b6001600160801b0390811690915282516020909301518116600160801b0292169190911760105550505050565b6001600160a01b03821660009081526003602052604081208054839290613edb908490614825565b90915550506002805482900390556040518181526000906001600160a01b03841690600080516020614d4a833981519152906020016138db565b600060405163a9059cbb60e01b8152836004820152826024820152602060006044836000895af13d15601f3d1160016000511416171691505080611a9b5760405162461bcd60e51b815260206004820152600f60248201526e1514905394d1915497d19052531151608a1b6044820152606401610e44565b6000613f998685611aa1565b60008181526011602052604090206003015490915060ff166001600160a01b038316301461411c57801561403b5760008281526013602090815260408083206001600160a01b038816845290915281208054889290613ff9908490614825565b90915550506000828152601160205260408120805488929061401c908490614825565b9091555061403690506001600160a01b0388168488613f15565b61411c565b6000828152601460205260409020546001600160a01b038581169116146140975760405162461bcd60e51b815260206004820152601060248201526f1b9bdd081bdddb995c881bd9881b999d60821b6044820152606401610e44565b6000828152601460205260409081902080546001600160a01b031916905551632142170760e11b81523060048201526001600160a01b038481166024830152604482018790528816906342842e0e90606401600060405180830381600087803b15801561410357600080fd5b505af1158015614117573d6000803e3d6000fd5b505050505b604080516001600160a01b03898116825260208201889052918101889052908516907f37c4d2e6036e28a1f1ed3eed26620e1e370df577673d4eb2decef5d3ea44a94990606001613aff565b60006141748585611aa1565b60008181526012602052604090205490915060ff16156141c95760405162461bcd60e51b815260206004820152601060248201526f185b1c9958591e48185c1c1c9bdd995960821b6044820152606401610e44565b6000808452908152601160209081526040808320855181558286015160018083019190915591860151600280830191909155606087015160038301805460ff19169115159190911790556080870151600483015560a0870151600583015560c0870151600683015560e090960151600790910155601b8054918201815590925282517f3ad8aa4f87544323a9d1e5dd902f40c356527a7955687113db5f9a85ad579dc19290940291820180546001600160a01b0319166001600160a01b03909516949094179093559101517f3ad8aa4f87544323a9d1e5dd902f40c356527a7955687113db5f9a85ad579dc2909101555050565b80516a636f6e736f6c652e6c6f67602083016000808483855afa5050505050565b6000815180845260005b81811015614304576020818501810151868301820152016142e8565b506000602082860101526020601f19601f83011685010191505092915050565b60208152600061106f60208301846142de565b60006020828403121561434957600080fd5b5035919050565b6001600160a01b038116811461436557600080fd5b50565b6000806040838503121561437b57600080fd5b823561438681614350565b946020939093013593505050565b6000806000806000608086880312156143ac57600080fd5b85356143b781614350565b945060208601356143c781614350565b93506040860135925060608601356001600160401b03808211156143ea57600080fd5b818801915088601f8301126143fe57600080fd5b81358181111561440d57600080fd5b89602082850101111561441f57600080fd5b9699959850939650602001949392505050565b60006020828403121561444457600080fd5b813561106f81614350565b6000806040838503121561446257600080fd5b82359150602083013561447481614350565b809150509250929050565b60008060006060848603121561449457600080fd5b833561449f81614350565b925060208401356144af81614350565b929592945050506040919091013590565b801515811461436557600080fd5b8035611f42816144c0565b600080604083850312156144ec57600080fd5b823591506020830135614474816144c0565b6000806040838503121561451157600080fd5b50508035926020909101359150565b600080600080600060a0868803121561453857600080fd5b853561454381614350565b94506020860135935060408601359250606086013561456181614350565b91506080860135614571816144c0565b809150509295509295909350565b602080825282518282018190526000919060409081850190868401855b828110156145ca57815180516001600160a01b0316855286015186850152928401929085019060010161459c565b5091979650505050505050565b6000806000606084860312156145ec57600080fd5b83356145f781614350565b925060208401359150604084013561460e81614350565b809150509250925092565b60008060008060008060c0878903121561463257600080fd5b86359550602087013561464481614350565b94506040870135935060608701359250608087013561466281614350565b915060a0870135614672816144c0565b809150509295509295509295565b60008060006060848603121561469557600080fd5b8335925060208401356146a781614350565b9150604084013561460e81614350565b60ff8116811461436557600080fd5b600080600080600080600060e0888a0312156146e157600080fd5b87356146ec81614350565b965060208801356146fc81614350565b95506040880135945060608801359350608088013561471a816146b7565b9699959850939692959460a0840135945060c09093013592915050565b6000806040838503121561474a57600080fd5b823561475581614350565b9150602083013561447481614350565b600080600083850361014081121561477c57600080fd5b843561478781614350565b935060208501359250610100603f19820112156147a357600080fd5b506040840190509250925092565b600181811c908216806147c557607f821691505b6020821081036147e557634e487b7160e01b600052602260045260246000fd5b50919050565b6020808252600a90820152695245454e5452414e435960b01b604082015260600190565b634e487b7160e01b600052601160045260246000fd5b81810381811115610d9f57610d9f61480f565b634e487b7160e01b600052603260045260246000fd5b60006020828403121561486057600080fd5b815161106f816146b7565b600181815b808511156148a657816000190482111561488c5761488c61480f565b8085161561489957918102915b93841c9390800290614870565b509250929050565b6000826148bd57506001610d9f565b816148ca57506000610d9f565b81600181146148e057600281146148ea57614906565b6001915050610d9f565b60ff8411156148fb576148fb61480f565b50506001821b610d9f565b5060208310610133831016604e8410600b8410161715614929575081810a610d9f565b614933838361486b565b80600019048211156149475761494761480f565b029392505050565b600061106f83836148ae565b8082028115828204841417610d9f57610d9f61480f565b60008261498f57634e487b7160e01b600052601260045260246000fd5b500490565b80820180821115610d9f57610d9f61480f565b6000600182016149b9576149b961480f565b5060010190565b81810360008312801583831316838312821617156149e0576149e061480f565b5092915050565b6000602082840312156149f957600080fd5b5051919050565b60208082526014908201527318d85b1b195c881b5d5cdd081899481d985d5b1d60621b604082015260600190565b600060208284031215614a4057600080fd5b815161106f81614350565b60208082526017908201527f636f6c6c61746572616c206e6f7420617070726f766564000000000000000000604082015260600190565b634e487b7160e01b600052603160045260246000fd5b600060208284031215614aaa57600080fd5b815161106f816144c0565b602080825260159082015274189bdc9c9bddd95c881a5cc81a5b9cdbdb1d995b9d605a1b604082015260600190565b6000610100808385031215614af857600080fd5b604051908101906001600160401b0382118183101715614b2857634e487b7160e01b600052604160045260246000fd5b81604052833581526020840135602082015260408401356040820152614b50606085016144ce565b60608201526080840135608082015260a084013560a082015260c084013560c082015260e084013560e0820152809250505092915050565b604081526000614b9b60408301856142de565b60208382038185015260008554614bb1816147b1565b80855260018281168015614bcc5760018114614be657614c14565b60ff1984168787015282151560051b870186019450614c14565b896000528560002060005b84811015614c0c578154898201890152908301908701614bf1565b880187019550505b50929998505050505050505050565b600060208284031215614c3557600080fd5b81516001600160401b038116811461106f57600080fd5b6001600160801b038181168382160190808211156149e0576149e061480f565b6001600160801b038281168282160390808211156149e0576149e061480f565b6000808354614c9a816147b1565b60018281168015614cb25760018114614cc757614cf6565b60ff1984168752821515830287019450614cf6565b8760005260208060002060005b85811015614ced5781548a820152908401908201614cd4565b50505082870194505b50929695505050505050565b606081526000614d1560608301866142de565b60208301949094525060400152919050565b604081526000614d3a60408301856142de565b9050826020830152939250505056feddf252ad1be2c89b69c2b068fc378daa952ba7f163c4a11628f55a4df523b3efa26469706673582212203f18a7ef45632b548ec78dc8dfa210577e4d0f8c0b0bdbcd41b8e62dcd2245ed64736f6c63430008110033",
    "linkReferences": {}
  },
  "methodIdentifiers": {
    "DOMAIN_SEPARATOR()": "3644e515",
    "Utilizer()": "350896fe",
    "_canBorrow(address)": "1f17b2c4",
    "_isLiquidatable(address)": "38094ae7",
    "addAcceptedCollateral(address,uint256,(uint256,uint256,uint256,bool,uint256,uint256,uint256,uint256))": "e33f6365",
    "addCollateral(address,uint256,uint256,address,bool)": "81859b5a",
    "addInterest()": "0d09365c",
    "allowance(address,address)": "dd62ed3e",
    "approve(address,uint256)": "095ea7b3",
    "approvedCollateral(bytes32)": "7f479cb7",
    "asset()": "38d52e0f",
    "balanceOf(address)": "70a08231",
    "balanceOfUnderlying(address)": "3af9e669",
    "borrow(uint256,address,uint256,uint256,address,bool)": "b2b93fe3",
    "borrowLiquidityAvailable(uint256)": "6578dcfe",
    "collateralConfigs(bytes32)": "d3160c0f",
    "computeId(address,uint256)": "5fdb07f6",
    "convertToAssets(uint256)": "07a2d13a",
    "convertToShares(uint256)": "c6e6f592",
    "currentRateInfo()": "95d14ca8",
    "decimals()": "313ce567",
    "deposit(uint256,address)": "6e553f65",
    "disableCollateral(address,uint256)": "5b50fbf3",
    "enableCollateral(address,uint256)": "fd1e8c85",
    "estimatedTotalAssets()": "efbb5cb0",
    "getAcceptedCollaterals()": "8354cc59",
    "getMaturityBalance()": "1104aafd",
    "getMaxBorrow(address)": "fd1c317a",
    "getUserSnapshot(address)": "b68d0a09",
    "instrumentApprovalCondition()": "83e754a0",
    "isLiquid(uint256)": "537d9409",
    "isLocked()": "a4e2d634",
    "isWithdrawAble(address,uint256)": "cd8886ee",
    "liquidateAllPositions()": "50bb4beb",
    "liquidatePosition(uint256)": "cdddd4e5",
    "maxDeposit(address)": "402d267d",
    "maxMint(address)": "c63d75b6",
    "maxRedeem(address)": "d905777e",
    "maxWithdraw(address)": "ce96cb77",
    "mint(uint256,address)": "94bf804d",
    "name()": "06fdde03",
    "nonces(address)": "7ecebe00",
    "onERC721Received(address,address,uint256,bytes)": "150b7a02",
    "onMarketApproval(uint256,uint256)": "416288dd",
    "paused()": "5c975abb",
    "permit(address,address,uint256,uint256,uint8,bytes32,bytes32)": "d505accf",
    "prepareWithdraw()": "49dcf4ed",
    "previewDeposit(uint256)": "ef8b30f7",
    "previewMint(uint256)": "b3d7f6b9",
    "previewRedeem(uint256)": "4cdad506",
    "previewWithdraw(uint256)": "0a28a477",
    "pullRawFunds(uint256)": "d832f791",
    "r()": "6c8ae38c",
    "rateContract()": "eee24219",
    "rateInitCallData()": "c7be9786",
    "readyForWithdrawal()": "bdf0f253",
    "redeem(uint256,address,address)": "ba087652",
    "redeemUnderlying(uint256)": "852a12e3",
    "removeAvailableCollateral(address,uint256,address)": "dd38677a",
    "removeCollateral(address,uint256,uint256,address,bool)": "d67b5d7a",
    "removeableCollateral(address,uint256,address)": "95ee69ac",
    "repay(uint256,address)": "acb70815",
    "repayWithAmount(uint256,address)": "1fd09567",
    "setUtilizer(address)": "57b25996",
    "setVault(address)": "6817031b",
    "store_internal_balance()": "f3aa68d3",
    "symbol()": "95d89b41",
    "toAssetAmount(uint256,bool)": "404ffa7a",
    "toAssetShares(uint256,bool)": "56968f97",
    "toBorrowAmount(uint256,bool)": "94e301e0",
    "toBorrowShares(uint256,bool)": "c270a544",
    "totalAsset()": "f9557ccb",
    "totalAssetAvailable()": "7426e7a4",
    "totalAssets()": "01e1d114",
    "totalBorrow()": "8285ef40",
    "totalSupply()": "18160ddd",
    "transfer(address,uint256)": "a9059cbb",
    "transferFrom(address,address,uint256)": "23b872dd",
    "underlying()": "6f307dc3",
    "userBorrowShares(address)": "4fd422df",
    "userERC20s(bytes32,address)": "8418634f",
    "userERC721s(bytes32)": "32ae4f40",
    "validators(uint256)": "35aa2e44",
    "vault()": "fbfa77cf",
    "withdraw(uint256,address,address)": "b460af94"
  },
  "id": 14
}