{
  "abi": [
    {
      "inputs": [
        {
          "internalType": "address",
          "name": "_controller",
          "type": "address"
        },
        {
          "internalType": "address",
          "name": "_marketManager",
          "type": "address"
        }
      ],
      "stateMutability": "nonpayable",
      "type": "constructor"
    },
    {
      "anonymous": false,
      "inputs": [
        {
          "indexed": false,
          "internalType": "address",
          "name": "trader",
          "type": "address"
        },
        {
          "indexed": false,
          "internalType": "uint256",
          "name": "score",
          "type": "uint256"
        }
      ],
      "name": "ScoreUpdated",
      "type": "event"
    },
    {
      "anonymous": false,
      "inputs": [
        {
          "indexed": false,
          "internalType": "uint256",
          "name": "marketId",
          "type": "uint256"
        },
        {
          "indexed": false,
          "internalType": "address",
          "name": "recipient",
          "type": "address"
        }
      ],
      "name": "reputationUpdated",
      "type": "event"
    },
    {
      "inputs": [],
      "name": "Data",
      "outputs": [
        {
          "internalType": "contract StorageHandler",
          "name": "",
          "type": "address"
        }
      ],
      "stateMutability": "view",
      "type": "function"
    },
    {
      "inputs": [
        {
          "internalType": "uint256",
          "name": "bondAmount",
          "type": "uint256"
        },
        {
          "internalType": "uint256",
          "name": "collateral_amount",
          "type": "uint256"
        },
        {
          "internalType": "uint256",
          "name": "budget",
          "type": "uint256"
        }
      ],
      "name": "calcImpliedProbability",
      "outputs": [
        {
          "internalType": "uint256",
          "name": "",
          "type": "uint256"
        }
      ],
      "stateMutability": "pure",
      "type": "function"
    },
    {
      "inputs": [
        {
          "internalType": "uint256",
          "name": "percentile",
          "type": "uint256"
        }
      ],
      "name": "calculateMinScore",
      "outputs": [
        {
          "internalType": "uint256",
          "name": "",
          "type": "uint256"
        }
      ],
      "stateMutability": "view",
      "type": "function"
    },
    {
      "inputs": [
        {
          "internalType": "address",
          "name": "trader",
          "type": "address"
        },
        {
          "internalType": "uint256",
          "name": "update",
          "type": "uint256"
        }
      ],
      "name": "decrementScore",
      "outputs": [],
      "stateMutability": "nonpayable",
      "type": "function"
    },
    {
      "inputs": [
        {
          "internalType": "address",
          "name": "manager",
          "type": "address"
        }
      ],
      "name": "expectedIncrement",
      "outputs": [
        {
          "internalType": "uint256",
          "name": "",
          "type": "uint256"
        }
      ],
      "stateMutability": "view",
      "type": "function"
    },
    {
      "inputs": [
        {
          "internalType": "address",
          "name": "trader",
          "type": "address"
        },
        {
          "internalType": "uint256",
          "name": "marketId",
          "type": "uint256"
        },
        {
          "internalType": "uint256",
          "name": "bondPrice",
          "type": "uint256"
        },
        {
          "internalType": "uint256",
          "name": "incremntalAmount",
          "type": "uint256"
        },
        {
          "internalType": "uint256",
          "name": "incrementalBondAmount",
          "type": "uint256"
        }
      ],
      "name": "expectedRepGain",
      "outputs": [
        {
          "internalType": "int256",
          "name": "expectedGain",
          "type": "int256"
        }
      ],
      "stateMutability": "view",
      "type": "function"
    },
    {
      "inputs": [
        {
          "internalType": "uint256",
          "name": "percentile",
          "type": "uint256"
        },
        {
          "internalType": "address",
          "name": "utilizer",
          "type": "address"
        }
      ],
      "name": "filterTraders",
      "outputs": [
        {
          "internalType": "address[]",
          "name": "",
          "type": "address[]"
        }
      ],
      "stateMutability": "view",
      "type": "function"
    },
    {
      "inputs": [
        {
          "internalType": "address",
          "name": "trader",
          "type": "address"
        }
      ],
      "name": "findTrader",
      "outputs": [
        {
          "internalType": "uint256",
          "name": "",
          "type": "uint256"
        }
      ],
      "stateMutability": "view",
      "type": "function"
    },
    {
      "inputs": [
        {
          "internalType": "address",
          "name": "trader",
          "type": "address"
        },
        {
          "internalType": "uint256",
          "name": "marketId",
          "type": "uint256"
        }
      ],
      "name": "getRepLog",
      "outputs": [
        {
          "components": [
            {
              "internalType": "uint256",
              "name": "collateralAmount",
              "type": "uint256"
            },
            {
              "internalType": "uint256",
              "name": "bondAmount",
              "type": "uint256"
            },
            {
              "internalType": "uint256",
              "name": "budget",
              "type": "uint256"
            },
            {
              "internalType": "bool",
              "name": "perpetual",
              "type": "bool"
            }
          ],
          "internalType": "struct ReputationManager.RepLog",
          "name": "",
          "type": "tuple"
        }
      ],
      "stateMutability": "view",
      "type": "function"
    },
    {
      "inputs": [],
      "name": "getTraders",
      "outputs": [
        {
          "internalType": "address[]",
          "name": "",
          "type": "address[]"
        }
      ],
      "stateMutability": "view",
      "type": "function"
    },
    {
      "inputs": [
        {
          "internalType": "address",
          "name": "trader",
          "type": "address"
        },
        {
          "internalType": "uint256",
          "name": "update",
          "type": "uint256"
        }
      ],
      "name": "incrementScore",
      "outputs": [],
      "stateMutability": "nonpayable",
      "type": "function"
    },
    {
      "inputs": [
        {
          "internalType": "address",
          "name": "",
          "type": "address"
        }
      ],
      "name": "isRated",
      "outputs": [
        {
          "internalType": "bool",
          "name": "",
          "type": "bool"
        }
      ],
      "stateMutability": "view",
      "type": "function"
    },
    {
      "inputs": [
        {
          "internalType": "address",
          "name": "trader",
          "type": "address"
        },
        {
          "internalType": "uint256",
          "name": "percentile",
          "type": "uint256"
        }
      ],
      "name": "isReputable",
      "outputs": [
        {
          "internalType": "bool",
          "name": "",
          "type": "bool"
        }
      ],
      "stateMutability": "view",
      "type": "function"
    },
    {
      "inputs": [
        {
          "internalType": "address",
          "name": "trader",
          "type": "address"
        },
        {
          "internalType": "uint256",
          "name": "marketId",
          "type": "uint256"
        },
        {
          "internalType": "uint256",
          "name": "bondAmount",
          "type": "uint256"
        },
        {
          "internalType": "uint256",
          "name": "collateral_amount",
          "type": "uint256"
        },
        {
          "internalType": "uint256",
          "name": "budget",
          "type": "uint256"
        },
        {
          "internalType": "bool",
          "name": "perpetual",
          "type": "bool"
        }
      ],
      "name": "recordPull",
      "outputs": [],
      "stateMutability": "nonpayable",
      "type": "function"
    },
    {
      "inputs": [
        {
          "internalType": "address",
          "name": "trader",
          "type": "address"
        },
        {
          "internalType": "uint256",
          "name": "marketId",
          "type": "uint256"
        },
        {
          "internalType": "uint256",
          "name": "bondPrice",
          "type": "uint256"
        },
        {
          "internalType": "bool",
          "name": "premature",
          "type": "bool"
        },
        {
          "internalType": "uint256",
          "name": "redeemAmount",
          "type": "uint256"
        }
      ],
      "name": "recordPush",
      "outputs": [],
      "stateMutability": "nonpayable",
      "type": "function"
    },
    {
      "inputs": [
        {
          "internalType": "address",
          "name": "",
          "type": "address"
        },
        {
          "internalType": "uint256",
          "name": "",
          "type": "uint256"
        }
      ],
      "name": "repLogs",
      "outputs": [
        {
          "internalType": "uint256",
          "name": "collateralAmount",
          "type": "uint256"
        },
        {
          "internalType": "uint256",
          "name": "bondAmount",
          "type": "uint256"
        },
        {
          "internalType": "uint256",
          "name": "budget",
          "type": "uint256"
        },
        {
          "internalType": "bool",
          "name": "perpetual",
          "type": "bool"
        }
      ],
      "stateMutability": "view",
      "type": "function"
    },
    {
      "inputs": [
        {
          "internalType": "address",
          "name": "dataStore",
          "type": "address"
        }
      ],
      "name": "setDataStore",
      "outputs": [],
      "stateMutability": "nonpayable",
      "type": "function"
    },
    {
      "inputs": [
        {
          "internalType": "address",
          "name": "trader",
          "type": "address"
        },
        {
          "internalType": "uint256",
          "name": "score",
          "type": "uint256"
        }
      ],
      "name": "setTraderScore",
      "outputs": [],
      "stateMutability": "nonpayable",
      "type": "function"
    },
    {
      "inputs": [
        {
          "internalType": "uint256",
          "name": "update",
          "type": "uint256"
        }
      ],
      "name": "testIncrementScore",
      "outputs": [],
      "stateMutability": "nonpayable",
      "type": "function"
    },
    {
      "inputs": [
        {
          "internalType": "address",
          "name": "",
          "type": "address"
        }
      ],
      "name": "trader_scores",
      "outputs": [
        {
          "internalType": "uint256",
          "name": "",
          "type": "uint256"
        }
      ],
      "stateMutability": "view",
      "type": "function"
    },
    {
      "inputs": [
        {
          "internalType": "uint256",
          "name": "",
          "type": "uint256"
        }
      ],
      "name": "traders",
      "outputs": [
        {
          "internalType": "address",
          "name": "",
          "type": "address"
        }
      ],
      "stateMutability": "view",
      "type": "function"
    }
  ],
  "bytecode": {
    "object": "0x60806040523480156200001157600080fd5b5060405162001d3638038062001d36833981016040819052620000349162000093565b600380546001600160a01b039384166001600160a01b0319918216179091556004805492909316918116919091179091556005805490911633179055620000cb565b80516001600160a01b03811681146200008e57600080fd5b919050565b60008060408385031215620000a757600080fd5b620000b28362000076565b9150620000c26020840162000076565b90509250929050565b611c5b80620000db6000396000f3fe608060405234801561001057600080fd5b50600436106101375760003560e01c80634c252152116100b85780639bf7927d1161007c5780639bf7927d14610308578063a87541f81461031b578063cf576e551461032e578063dda10bca14610376578063e1648cd214610389578063e8a780261461039c57600080fd5b80634c25215214610261578063500065d21461027457806357b6136014610287578063658e387d1461028f5780638a2d1306146102f457600080fd5b806323ba6107116100ff57806323ba6107146101c85780632a6b8082146101fb5780632e1a65d31461021b57806344c743931461022e5780634b6e7d781461024e57600080fd5b80630622fd171461013c5780630d159896146101515780630e2ebf0614610177578063135e563d1461018a578063224e1c2d146101b5575b600080fd5b61014f61014a366004611912565b6103af565b005b61016461015f36600461193c565b6103f9565b6040519081526020015b60405180910390f35b610164610185366004611955565b6104ab565b61019d61019836600461193c565b610509565b6040516001600160a01b03909116815260200161016e565b61014f6101c3366004611912565b610533565b6101eb6101d6366004611955565b60016020526000908152604090205460ff1681565b604051901515815260200161016e565b61020e610209366004611970565b610659565b60405161016e919061199c565b61014f6102293660046119ed565b610a8a565b61016461023c366004611955565b60006020819052908152604090205481565b60065461019d906001600160a01b031681565b61016461026f366004611a45565b610bc1565b61014f610282366004611955565b610d0a565b61020e610d80565b6102d261029d366004611912565b600760209081526000928352604080842090915290825290208054600182015460028301546003909301549192909160ff1684565b604080519485526020850193909352918301521515606082015260800161016e565b610164610302366004611955565b50600090565b61014f610316366004611a87565b610de2565b61014f61032936600461193c565b6110c2565b61034161033c366004611912565b61113b565b60405161016e919081518152602080830151908201526040808301519082015260609182015115159181019190915260800190565b610164610384366004611ad5565b6111c7565b61014f610397366004611912565b611262565b6101eb6103aa366004611912565b6112ef565b6001600160a01b038216600090815260208190526040902054808211156103e3576103de836103978385611b17565b505050565b808210156103de576103de836101c38484611b17565b600254600090819061041490670de0b6b3a764000090611b2a565b9050610421606484611b41565b6000036104315750600092915050565b6000610448610441606486611b41565b8390611382565b905061045c670de0b6b3a764000082611b41565b9050600080600261046e600185611b17565b8154811061047e5761047e611b63565b60009182526020808320909101546001600160a01b03168352820192909252604001902054949350505050565b6000805b60025481101561050357600281815481106104cc576104cc611b63565b6000918252602090912001546001600160a01b03908116908416036104f15792915050565b806104fb81611b79565b9150506104af565b50919050565b6002818154811061051957600080fd5b6000918252602090912001546001600160a01b0316905081565b6003546001600160a01b031633148061055657506004546001600160a01b031633145b8061056b57506005546001600160a01b031633145b6105905760405162461bcd60e51b815260040161058790611b92565b60405180910390fd5b6001600160a01b03821660009081526020819052604090205481106105cd576001600160a01b0382166000908152602081905260408120556105fb565b6001600160a01b038216600090815260208190526040812080548392906105f5908490611b17565b90915550505b61060682600061139e565b6001600160a01b03821660008181526020818152604091829020548251938452908301527f66ead48cfe0e1d1aa8bad492e906c348dfcfeecbf3b7b2cdf9b1f3cfa42a2945910160405180910390a15050565b60025460609060009061067590670de0b6b3a764000090611b2a565b9050610682606485611b41565b60000361082e576001600160a01b03831660009081526001602052604090205460ff16156107cb576002546000906106bc90600190611b17565b67ffffffffffffffff8111156106d4576106d4611bc9565b6040519080825280602002602001820160405280156106fd578160200160208202803683370190505b5090506000805b6002548110156107bf576002818154811061072157610721611b63565b6000918252602090912001546001600160a01b039081169087160361074957600191506107ad565b6002818154811061075c5761075c611b63565b6000918252602090912001546001600160a01b03168361077c8484611b17565b8151811061078c5761078c611b63565b60200260200101906001600160a01b031690816001600160a01b0316815250505b806107b781611b79565b915050610704565b50819350505050610a84565b600280548060200260200160405190810160405280929190818152602001828054801561082157602002820191906000526020600020905b81546001600160a01b03168152600190910190602001808311610803575b5050505050915050610a84565b600061085c606486610848670de0b6b3a764000083611b2a565b6108529190611b17565b6104419190611b41565b9050610870670de0b6b3a764000082611b41565b905060606001600160a01b03851615806108a357506001600160a01b03851660009081526001602052604090205460ff16155b1561096b578167ffffffffffffffff8111156108c1576108c1611bc9565b6040519080825280602002602001820160405280156108ea578160200160208202803683370190505b50905060005b82811015610965576002818154811061090b5761090b611b63565b9060005260206000200160009054906101000a90046001600160a01b031682828151811061093b5761093b611b63565b6001600160a01b03909216602092830291909101909101528061095d81611b79565b9150506108f0565b50610a7f565b610976600183611b17565b67ffffffffffffffff81111561098e5761098e611bc9565b6040519080825280602002602001820160405280156109b7578160200160208202803683370190505b5090506000805b83811015610a7c57866001600160a01b0316600282815481106109e3576109e3611b63565b6000918252602090912001546001600160a01b031603610a065760019150610a6a565b60028181548110610a1957610a19611b63565b6000918252602090912001546001600160a01b031683610a398484611b17565b81518110610a4957610a49611b63565b60200260200101906001600160a01b031690816001600160a01b0316815250505b80610a7481611b79565b9150506109be565b50505b925050505b92915050565b6003546001600160a01b0316331480610aad57506004546001600160a01b031633145b80610ac257506005546001600160a01b031633145b610ade5760405162461bcd60e51b815260040161058790611b92565b6001600160a01b0386166000908152600760209081526040808320888452825291829020825160808101845281548082526001830154938201939093526002820154938101939093526003015460ff161515606083015284908290610b44908390611bdf565b905250602081018051869190610b5b908390611bdf565b9052509015156060820190815260408083019384526001600160a01b039790971660009081526007602090815288822097825296875296909620815181559401516001850155516002840155505090516003909101805460ff1916911515919091179055565b6001600160a01b0385166000908152600760209081526040808320878452825280832081516080810183528154815260018201549381018490526002820154928101929092526003015460ff1615156060820152908290610c3a90610c27908690611bdf565b8351610c34908890611bdf565b90611741565b90506000610c488288611b17565b90506000836060015115610c995760408401518451610c6691611741565b905082881015610c8857610c7a8282611382565b610c8390611bf2565b610c92565b610c928282611382565b9450610cfd565b610cb08460200151856000015186604001516111c7565b9050670de0b6b3a76400008810610ccb57610c928282611382565b828811158015610ce25750670de0b6b3a764000088105b15610cfd57610cf18282611382565b610cfa90611bf2565b94505b5050505095945050505050565b6003546001600160a01b0316331480610d2d57506004546001600160a01b031633145b80610d4257506005546001600160a01b031633145b610d5e5760405162461bcd60e51b815260040161058790611b92565b600680546001600160a01b0319166001600160a01b0392909216919091179055565b60606002805480602002602001604051908101604052809291908181526020018280548015610dd857602002820191906000526020600020905b81546001600160a01b03168152600190910190602001808311610dba575b5050505050905090565b6003546001600160a01b0316331480610e0557506004546001600160a01b031633145b80610e1a57506005546001600160a01b031633145b610e365760405162461bcd60e51b815260040161058790611b92565b6001600160a01b0385166000908152600760209081526040808320878452825280832081516080810183528154808252600183015494820185905260028301549382019390935260039091015460ff16151560608201529291610e999190611741565b90508315610ef857610eb786886000670de0b6b3a764000086611756565b6001600160a01b03871660009081526007602090815260408083208984529091528120818155600181018290556002810191909155600301805460ff191690555b81606001511561102657808510610f2557610f2086886001610f1a858a611b17565b86611756565b610f36565b610f3686886000610f1a8986611b17565b610f408382611382565b82511015610f7a5760405162461bcd60e51b81526020600482015260076024820152666c6f674552523160c81b6044820152606401610587565b8282602001511015610fb85760405162461bcd60e51b81526020600482015260076024820152663637b3a2a9291960c91b6044820152606401610587565b610fc28382611382565b82510382526020808301805185900381526001600160a01b03891660009081526007835260408082208a8352909352829020845181559051600182015590830151600282015560608301516003909101805460ff19169115159190911790556110b9565b670de0b6b3a7640000851061104b5761104686886001610f1a858a611b17565b611078565b8085111580156110625750670de0b6b3a764000085105b156110785761107886886000610f1a8986611b17565b6001600160a01b03871660009081526007602090815260408083208984529091528120818155600181018290556002810191909155600301805460ff191690555b50505050505050565b33600090815260208190526040812080548392906110e1908490611bdf565b909155506110f2905033600161139e565b3360008181526020818152604091829020548251938452908301527f66ead48cfe0e1d1aa8bad492e906c348dfcfeecbf3b7b2cdf9b1f3cfa42a2945910160405180910390a150565b61116860405180608001604052806000815260200160008152602001600081526020016000151581525090565b506001600160a01b038216600090815260076020908152604080832084845282529182902082516080810184528154815260018201549281019290925260028101549282019290925260039091015460ff161515606082015292915050565b600080841180156111d85750600083115b61120d5760405162461bcd60e51b815260040161058790602080825260049082015263183234bb60e11b604082015260600190565b60006112198486611741565b9050600061123261044183670de0b6b3a7640000611b17565b905060006112408786611741565b90508261124d8284611382565b6112579190611bdf565b979650505050505050565b6003546001600160a01b031633148061128557506004546001600160a01b031633145b8061129a57506005546001600160a01b031633145b6112b65760405162461bcd60e51b815260040161058790611b92565b6001600160a01b038216600090815260208190526040812080548392906112de908490611bdf565b90915550610606905082600161139e565b6000806112fb846104ab565b90506000670de0b6b3a7640000611313836001611bdf565b6002546113209190611b17565b61132a9190611b2a565b60025490915060009061134690670de0b6b3a764000090611b2a565b905060006113548383611741565b61135f906064611b2a565b9050858110611375576001945050505050610a84565b6000945050505050610a84565b60006113978383670de0b6b3a76400006117bc565b9392505050565b6001600160a01b0382166000908152602081815260408083205460019092529091205460ff166115bd576001600160a01b03831660009081526001602081905260408220805460ff19169091179055600254900361144a575050600280546001810182556000919091527f405787fa12a823e0f2b7631cc41b3ba8828b3321ca811111fa75cd3aa3bb5ace0180546001600160a01b0319166001600160a01b0392909216919091179055565b60005b6002548110156115b7576000806002838154811061146d5761146d611b63565b60009182526020808320909101546001600160a01b0316835282019290925260400190205482111561153a57600280546001818101835560008390527f405787fa12a823e0f2b7631cc41b3ba8828b3321ca811111fa75cd3aa3bb5ace90910180546001600160a01b031916905590546114f29183916114ed9190611b17565b6117da565b836002828154811061150657611506611b63565b9060005260206000200160006101000a8154816001600160a01b0302191690836001600160a01b0316021790555050505050565b60025461154990600190611b17565b81036115a5575050600280546001810182556000919091527f405787fa12a823e0f2b7631cc41b3ba8828b3321ca811111fa75cd3aa3bb5ace0180546001600160a01b0319166001600160a01b03939093169290921790915550565b806115af81611b79565b91505061144d565b50505050565b60006115c8846104ab565b9050801580156115d55750825b806115f657506002546115ea90600190611b17565b811480156115f6575082155b156116015750505050565b82156116bf5760005b818110156116b9576000806002838154811061162857611628611b63565b60009182526020808320909101546001600160a01b031683528201929092526040019020548311156116a75761165e81836117da565b846002828154811061167257611672611b63565b9060005260206000200160006101000a8154816001600160a01b0302191690836001600160a01b031602179055505050505050565b806116b181611b79565b91505061160a565b506115b7565b6002546000906116d190600190611b17565b90505b8181111561173a57600080600283815481106116f2576116f2611b63565b60009182526020808320909101546001600160a01b031683528201929092526040019020548310156117285761165e8282611868565b8061173281611c0e565b9150506116d4565b5050505050565b600061139783670de0b6b3a7640000846117bc565b6000816060015161177d576117788260200151836000015184604001516111c7565b61178d565b6040820151825161178d91611741565b9050600061179b8483611382565b905084156117b2576117ad8682611262565b6110b9565b6110b98682610533565b60008260001904841183021582026117d357600080fd5b5091020490565b805b828111156103de5760026117f1600183611b17565b8154811061180157611801611b63565b600091825260209091200154600280546001600160a01b03909216918390811061182d5761182d611b63565b600091825260209091200180546001600160a01b0319166001600160a01b03929092169190911790558061186081611c0e565b9150506117dc565b815b818110156103de57600261187f826001611bdf565b8154811061188f5761188f611b63565b600091825260209091200154600280546001600160a01b0390921691839081106118bb576118bb611b63565b600091825260209091200180546001600160a01b0319166001600160a01b0392909216919091179055806118ee81611b79565b91505061186a565b80356001600160a01b038116811461190d57600080fd5b919050565b6000806040838503121561192557600080fd5b61192e836118f6565b946020939093013593505050565b60006020828403121561194e57600080fd5b5035919050565b60006020828403121561196757600080fd5b611397826118f6565b6000806040838503121561198357600080fd5b82359150611993602084016118f6565b90509250929050565b6020808252825182820181905260009190848201906040850190845b81811015610a7c5783516001600160a01b0316835292840192918401916001016119b8565b8035801515811461190d57600080fd5b60008060008060008060c08789031215611a0657600080fd5b611a0f876118f6565b955060208701359450604087013593506060870135925060808701359150611a3960a088016119dd565b90509295509295509295565b600080600080600060a08688031215611a5d57600080fd5b611a66866118f6565b97602087013597506040870135966060810135965060800135945092505050565b600080600080600060a08688031215611a9f57600080fd5b611aa8866118f6565b94506020860135935060408601359250611ac4606087016119dd565b949793965091946080013592915050565b600080600060608486031215611aea57600080fd5b505081359360208301359350604090920135919050565b634e487b7160e01b600052601160045260246000fd5b81810381811115610a8457610a84611b01565b8082028115828204841417610a8457610a84611b01565b600082611b5e57634e487b7160e01b600052601260045260246000fd5b500490565b634e487b7160e01b600052603260045260246000fd5b600060018201611b8b57611b8b611b01565b5060010190565b6020808252601c908201527f52657075746174696f6e4d616e616765723a202170726f746f636f6c00000000604082015260600190565b634e487b7160e01b600052604160045260246000fd5b80820180821115610a8457610a84611b01565b6000600160ff1b8201611c0757611c07611b01565b5060000390565b600081611c1d57611c1d611b01565b50600019019056fea2646970667358221220cdb564f67668d3bb1702536bbcedbf7cfcfb87843e17ee832a6bf0918a3a5adb64736f6c63430008110033",
    "linkReferences": {}
  },
  "methodIdentifiers": {
    "Data()": "4b6e7d78",
    "calcImpliedProbability(uint256,uint256,uint256)": "dda10bca",
    "calculateMinScore(uint256)": "0d159896",
    "decrementScore(address,uint256)": "224e1c2d",
    "expectedIncrement(address)": "8a2d1306",
    "expectedRepGain(address,uint256,uint256,uint256,uint256)": "4c252152",
    "filterTraders(uint256,address)": "2a6b8082",
    "findTrader(address)": "0e2ebf06",
    "getRepLog(address,uint256)": "cf576e55",
    "getTraders()": "57b61360",
    "incrementScore(address,uint256)": "e1648cd2",
    "isRated(address)": "23ba6107",
    "isReputable(address,uint256)": "e8a78026",
    "recordPull(address,uint256,uint256,uint256,uint256,bool)": "2e1a65d3",
    "recordPush(address,uint256,uint256,bool,uint256)": "9bf7927d",
    "repLogs(address,uint256)": "658e387d",
    "setDataStore(address)": "500065d2",
    "setTraderScore(address,uint256)": "0622fd17",
    "testIncrementScore(uint256)": "a87541f8",
    "trader_scores(address)": "44c74393",
    "traders(uint256)": "135e563d"
  },
  "id": 20
}