{
  "abi": [
    {
      "inputs": [
        {
          "internalType": "address",
          "name": "_controller",
          "type": "address"
        },
        {
          "internalType": "address",
          "name": "_marketManager",
          "type": "address"
        }
      ],
      "stateMutability": "nonpayable",
      "type": "constructor"
    },
    {
      "inputs": [
        {
          "internalType": "uint256",
          "name": "percentile",
          "type": "uint256"
        }
      ],
      "name": "calculateMinScore",
      "outputs": [
        {
          "internalType": "uint256",
          "name": "",
          "type": "uint256"
        }
      ],
      "stateMutability": "view",
      "type": "function"
    },
    {
      "inputs": [
        {
          "internalType": "address",
          "name": "trader",
          "type": "address"
        },
        {
          "internalType": "uint256",
          "name": "update",
          "type": "uint256"
        }
      ],
      "name": "decrementScore",
      "outputs": [],
      "stateMutability": "nonpayable",
      "type": "function"
    },
    {
      "inputs": [
        {
          "internalType": "uint256",
          "name": "percentile",
          "type": "uint256"
        },
        {
          "internalType": "address",
          "name": "utilizer",
          "type": "address"
        }
      ],
      "name": "filterTraders",
      "outputs": [
        {
          "internalType": "address[]",
          "name": "",
          "type": "address[]"
        }
      ],
      "stateMutability": "view",
      "type": "function"
    },
    {
      "inputs": [
        {
          "internalType": "address",
          "name": "trader",
          "type": "address"
        }
      ],
      "name": "findTrader",
      "outputs": [
        {
          "internalType": "uint256",
          "name": "",
          "type": "uint256"
        }
      ],
      "stateMutability": "view",
      "type": "function"
    },
    {
      "inputs": [],
      "name": "getTraders",
      "outputs": [
        {
          "internalType": "address[]",
          "name": "",
          "type": "address[]"
        }
      ],
      "stateMutability": "view",
      "type": "function"
    },
    {
      "inputs": [
        {
          "internalType": "address",
          "name": "trader",
          "type": "address"
        },
        {
          "internalType": "uint256",
          "name": "update",
          "type": "uint256"
        }
      ],
      "name": "incrementScore",
      "outputs": [],
      "stateMutability": "nonpayable",
      "type": "function"
    },
    {
      "inputs": [
        {
          "internalType": "address",
          "name": "",
          "type": "address"
        }
      ],
      "name": "isRated",
      "outputs": [
        {
          "internalType": "bool",
          "name": "",
          "type": "bool"
        }
      ],
      "stateMutability": "view",
      "type": "function"
    },
    {
      "inputs": [
        {
          "internalType": "address",
          "name": "trader",
          "type": "address"
        },
        {
          "internalType": "uint256",
          "name": "percentile",
          "type": "uint256"
        }
      ],
      "name": "isReputable",
      "outputs": [
        {
          "internalType": "bool",
          "name": "",
          "type": "bool"
        }
      ],
      "stateMutability": "view",
      "type": "function"
    },
    {
      "inputs": [
        {
          "internalType": "address",
          "name": "trader",
          "type": "address"
        },
        {
          "internalType": "uint256",
          "name": "score",
          "type": "uint256"
        }
      ],
      "name": "setTraderScore",
      "outputs": [],
      "stateMutability": "nonpayable",
      "type": "function"
    },
    {
      "inputs": [
        {
          "internalType": "address",
          "name": "",
          "type": "address"
        }
      ],
      "name": "trader_scores",
      "outputs": [
        {
          "internalType": "uint256",
          "name": "",
          "type": "uint256"
        }
      ],
      "stateMutability": "view",
      "type": "function"
    },
    {
      "inputs": [
        {
          "internalType": "uint256",
          "name": "",
          "type": "uint256"
        }
      ],
      "name": "traders",
      "outputs": [
        {
          "internalType": "address",
          "name": "",
          "type": "address"
        }
      ],
      "stateMutability": "view",
      "type": "function"
    }
  ],
  "bytecode": {
    "object": "0x608060405234801561001057600080fd5b5060405161118138038061118183398101604081905261002f9161008c565b600380546001600160a01b039384166001600160a01b03199182161790915560048054929093169181169190911790915560058054909116331790556100bf565b80516001600160a01b038116811461008757600080fd5b919050565b6000806040838503121561009f57600080fd5b6100a883610070565b91506100b660208401610070565b90509250929050565b6110b3806100ce6000396000f3fe608060405234801561001057600080fd5b50600436106100a95760003560e01c806323ba61071161007157806323ba61071461013a5780632a6b80821461016d57806344c743931461018d57806357b61360146101ad578063e1648cd2146101b5578063e8a78026146101c857600080fd5b80630622fd17146100ae5780630d159896146100c35780630e2ebf06146100e9578063135e563d146100fc578063224e1c2d14610127575b600080fd5b6100c16100bc366004610ee1565b6101db565b005b6100d66100d1366004610f0b565b610225565b6040519081526020015b60405180910390f35b6100d66100f7366004610f24565b6102d7565b61010f61010a366004610f0b565b610335565b6040516001600160a01b0390911681526020016100e0565b6100c1610135366004610ee1565b61035f565b61015d610148366004610f24565b60016020526000908152604090205460ff1681565b60405190151581526020016100e0565b61018061017b366004610f3f565b61041a565b6040516100e09190610f6b565b6100d661019b366004610f24565b60006020819052908152604090205481565b61018061084b565b6100c16101c3366004610ee1565b6108ad565b61015d6101d6366004610ee1565b610927565b6001600160a01b0382166000908152602081905260409020548082111561020f5761020a836101c38385610fc2565b505050565b8082101561020a5761020a836101358484610fc2565b600254600090819061024090670de0b6b3a764000090610fd5565b905061024d606484610fec565b60000361025d5750600092915050565b600061027461026d606486610fec565b83906109ba565b9050610288670de0b6b3a764000082610fec565b9050600080600261029a600185610fc2565b815481106102aa576102aa61100e565b60009182526020808320909101546001600160a01b03168352820192909252604001902054949350505050565b6000805b60025481101561032f57600281815481106102f8576102f861100e565b6000918252602090912001546001600160a01b039081169084160361031d5792915050565b8061032781611024565b9150506102db565b50919050565b6002818154811061034557600080fd5b6000918252602090912001546001600160a01b0316905081565b6003546001600160a01b031633148061038257506004546001600160a01b031633145b8061039757506005546001600160a01b031633145b6103a057600080fd5b6001600160a01b03821660009081526020819052604090205481106103dd576001600160a01b03821660009081526020819052604081205561040b565b6001600160a01b03821660009081526020819052604081208054839290610405908490610fc2565b90915550505b6104168260006109d6565b5050565b60025460609060009061043690670de0b6b3a764000090610fd5565b9050610443606485610fec565b6000036105ef576001600160a01b03831660009081526001602052604090205460ff161561058c5760025460009061047d90600190610fc2565b67ffffffffffffffff8111156104955761049561103d565b6040519080825280602002602001820160405280156104be578160200160208202803683370190505b5090506000805b60025481101561058057600281815481106104e2576104e261100e565b6000918252602090912001546001600160a01b039081169087160361050a576001915061056e565b6002818154811061051d5761051d61100e565b6000918252602090912001546001600160a01b03168361053d8484610fc2565b8151811061054d5761054d61100e565b60200260200101906001600160a01b031690816001600160a01b0316815250505b8061057881611024565b9150506104c5565b50819350505050610845565b60028054806020026020016040519081016040528092919081815260200182805480156105e257602002820191906000526020600020905b81546001600160a01b031681526001909101906020018083116105c4575b5050505050915050610845565b600061061d606486610609670de0b6b3a764000083610fd5565b6106139190610fc2565b61026d9190610fec565b9050610631670de0b6b3a764000082610fec565b905060606001600160a01b038516158061066457506001600160a01b03851660009081526001602052604090205460ff16155b1561072c578167ffffffffffffffff8111156106825761068261103d565b6040519080825280602002602001820160405280156106ab578160200160208202803683370190505b50905060005b8281101561072657600281815481106106cc576106cc61100e565b9060005260206000200160009054906101000a90046001600160a01b03168282815181106106fc576106fc61100e565b6001600160a01b03909216602092830291909101909101528061071e81611024565b9150506106b1565b50610840565b610737600183610fc2565b67ffffffffffffffff81111561074f5761074f61103d565b604051908082528060200260200182016040528015610778578160200160208202803683370190505b5090506000805b8381101561083d57866001600160a01b0316600282815481106107a4576107a461100e565b6000918252602090912001546001600160a01b0316036107c7576001915061082b565b600281815481106107da576107da61100e565b6000918252602090912001546001600160a01b0316836107fa8484610fc2565b8151811061080a5761080a61100e565b60200260200101906001600160a01b031690816001600160a01b0316815250505b8061083581611024565b91505061077f565b50505b925050505b92915050565b606060028054806020026020016040519081016040528092919081815260200182805480156108a357602002820191906000526020600020905b81546001600160a01b03168152600190910190602001808311610885575b5050505050905090565b6003546001600160a01b03163314806108d057506004546001600160a01b031633145b806108e557506005546001600160a01b031633145b6108ee57600080fd5b6001600160a01b03821660009081526020819052604081208054839290610916908490611053565b9091555061041690508260016109d6565b600080610933846102d7565b90506000670de0b6b3a764000061094b836001611053565b6002546109589190610fc2565b6109629190610fd5565b60025490915060009061097e90670de0b6b3a764000090610fd5565b9050600061098c8383610d79565b610997906064610fd5565b90508581106109ad576001945050505050610845565b6000945050505050610845565b60006109cf8383670de0b6b3a7640000610d8a565b9392505050565b6001600160a01b0382166000908152602081815260408083205460019092529091205460ff16610bf5576001600160a01b03831660009081526001602081905260408220805460ff191690911790556002549003610a82575050600280546001810182556000919091527f405787fa12a823e0f2b7631cc41b3ba8828b3321ca811111fa75cd3aa3bb5ace0180546001600160a01b0319166001600160a01b0392909216919091179055565b60005b600254811015610bef5760008060028381548110610aa557610aa561100e565b60009182526020808320909101546001600160a01b03168352820192909252604001902054821115610b7257600280546001818101835560008390527f405787fa12a823e0f2b7631cc41b3ba8828b3321ca811111fa75cd3aa3bb5ace90910180546001600160a01b03191690559054610b2a918391610b259190610fc2565b610da9565b8360028281548110610b3e57610b3e61100e565b9060005260206000200160006101000a8154816001600160a01b0302191690836001600160a01b0316021790555050505050565b600254610b8190600190610fc2565b8103610bdd575050600280546001810182556000919091527f405787fa12a823e0f2b7631cc41b3ba8828b3321ca811111fa75cd3aa3bb5ace0180546001600160a01b0319166001600160a01b03939093169290921790915550565b80610be781611024565b915050610a85565b50505050565b6000610c00846102d7565b905080158015610c0d5750825b80610c2e5750600254610c2290600190610fc2565b81148015610c2e575082155b15610c395750505050565b8215610cf75760005b81811015610cf15760008060028381548110610c6057610c6061100e565b60009182526020808320909101546001600160a01b03168352820192909252604001902054831115610cdf57610c968183610da9565b8460028281548110610caa57610caa61100e565b9060005260206000200160006101000a8154816001600160a01b0302191690836001600160a01b031602179055505050505050565b80610ce981611024565b915050610c42565b50610bef565b600254600090610d0990600190610fc2565b90505b81811115610d725760008060028381548110610d2a57610d2a61100e565b60009182526020808320909101546001600160a01b03168352820192909252604001902054831015610d6057610c968282610e37565b80610d6a81611066565b915050610d0c565b5050505050565b60006109cf83670de0b6b3a7640000845b828202811515841585830485141716610da257600080fd5b0492915050565b805b8281111561020a576002610dc0600183610fc2565b81548110610dd057610dd061100e565b600091825260209091200154600280546001600160a01b039092169183908110610dfc57610dfc61100e565b600091825260209091200180546001600160a01b0319166001600160a01b039290921691909117905580610e2f81611066565b915050610dab565b815b8181101561020a576002610e4e826001611053565b81548110610e5e57610e5e61100e565b600091825260209091200154600280546001600160a01b039092169183908110610e8a57610e8a61100e565b600091825260209091200180546001600160a01b0319166001600160a01b039290921691909117905580610ebd81611024565b915050610e39565b80356001600160a01b0381168114610edc57600080fd5b919050565b60008060408385031215610ef457600080fd5b610efd83610ec5565b946020939093013593505050565b600060208284031215610f1d57600080fd5b5035919050565b600060208284031215610f3657600080fd5b6109cf82610ec5565b60008060408385031215610f5257600080fd5b82359150610f6260208401610ec5565b90509250929050565b6020808252825182820181905260009190848201906040850190845b8181101561083d5783516001600160a01b031683529284019291840191600101610f87565b634e487b7160e01b600052601160045260246000fd5b8181038181111561084557610845610fac565b808202811582820484141761084557610845610fac565b60008261100957634e487b7160e01b600052601260045260246000fd5b500490565b634e487b7160e01b600052603260045260246000fd5b60006001820161103657611036610fac565b5060010190565b634e487b7160e01b600052604160045260246000fd5b8082018082111561084557610845610fac565b60008161107557611075610fac565b50600019019056fea26469706673582212203129aaac838aad6e72dedd301d965ed6f94493081fa7e5dc24d56bbcff55afa064736f6c63430008110033",
    "linkReferences": {}
  },
  "methodIdentifiers": {
    "calculateMinScore(uint256)": "0d159896",
    "decrementScore(address,uint256)": "224e1c2d",
    "filterTraders(uint256,address)": "2a6b8082",
    "findTrader(address)": "0e2ebf06",
    "getTraders()": "57b61360",
    "incrementScore(address,uint256)": "e1648cd2",
    "isRated(address)": "23ba6107",
    "isReputable(address,uint256)": "e8a78026",
    "setTraderScore(address,uint256)": "0622fd17",
    "trader_scores(address)": "44c74393",
    "traders(uint256)": "135e563d"
  },
  "id": 9
}