{
  "abi": [
    {
      "inputs": [
        {
          "internalType": "address",
          "name": "_controller",
          "type": "address"
        },
        {
          "internalType": "address",
          "name": "_marketManager",
          "type": "address"
        }
      ],
      "stateMutability": "nonpayable",
      "type": "constructor"
    },
    {
      "anonymous": false,
      "inputs": [
        {
          "indexed": false,
          "internalType": "address",
          "name": "trader",
          "type": "address"
        },
        {
          "indexed": false,
          "internalType": "uint256",
          "name": "score",
          "type": "uint256"
        }
      ],
      "name": "ScoreUpdated",
      "type": "event"
    },
    {
      "anonymous": false,
      "inputs": [
        {
          "indexed": false,
          "internalType": "uint256",
          "name": "marketId",
          "type": "uint256"
        },
        {
          "indexed": false,
          "internalType": "address",
          "name": "recipient",
          "type": "address"
        }
      ],
      "name": "reputationUpdated",
      "type": "event"
    },
    {
      "inputs": [
        {
          "internalType": "uint256",
          "name": "bondAmount",
          "type": "uint256"
        },
        {
          "internalType": "uint256",
          "name": "collateral_amount",
          "type": "uint256"
        },
        {
          "internalType": "uint256",
          "name": "budget",
          "type": "uint256"
        }
      ],
      "name": "calcImpliedProbability",
      "outputs": [
        {
          "internalType": "uint256",
          "name": "",
          "type": "uint256"
        }
      ],
      "stateMutability": "pure",
      "type": "function"
    },
    {
      "inputs": [
        {
          "internalType": "uint256",
          "name": "percentile",
          "type": "uint256"
        }
      ],
      "name": "calculateMinScore",
      "outputs": [
        {
          "internalType": "uint256",
          "name": "",
          "type": "uint256"
        }
      ],
      "stateMutability": "view",
      "type": "function"
    },
    {
      "inputs": [
        {
          "internalType": "address",
          "name": "trader",
          "type": "address"
        },
        {
          "internalType": "uint256",
          "name": "update",
          "type": "uint256"
        }
      ],
      "name": "decrementScore",
      "outputs": [],
      "stateMutability": "nonpayable",
      "type": "function"
    },
    {
      "inputs": [
        {
          "internalType": "address",
          "name": "manager",
          "type": "address"
        }
      ],
      "name": "expectedIncrement",
      "outputs": [
        {
          "internalType": "uint256",
          "name": "",
          "type": "uint256"
        }
      ],
      "stateMutability": "view",
      "type": "function"
    },
    {
      "inputs": [
        {
          "internalType": "uint256",
          "name": "percentile",
          "type": "uint256"
        },
        {
          "internalType": "address",
          "name": "utilizer",
          "type": "address"
        }
      ],
      "name": "filterTraders",
      "outputs": [
        {
          "internalType": "address[]",
          "name": "",
          "type": "address[]"
        }
      ],
      "stateMutability": "view",
      "type": "function"
    },
    {
      "inputs": [
        {
          "internalType": "address",
          "name": "trader",
          "type": "address"
        }
      ],
      "name": "findTrader",
      "outputs": [
        {
          "internalType": "uint256",
          "name": "",
          "type": "uint256"
        }
      ],
      "stateMutability": "view",
      "type": "function"
    },
    {
      "inputs": [
        {
          "internalType": "address",
          "name": "trader",
          "type": "address"
        },
        {
          "internalType": "uint256",
          "name": "marketId",
          "type": "uint256"
        }
      ],
      "name": "getRepLog",
      "outputs": [
        {
          "components": [
            {
              "internalType": "uint256",
              "name": "collateralAmount",
              "type": "uint256"
            },
            {
              "internalType": "uint256",
              "name": "bondAmount",
              "type": "uint256"
            },
            {
              "internalType": "uint256",
              "name": "budget",
              "type": "uint256"
            },
            {
              "internalType": "bool",
              "name": "perpetual",
              "type": "bool"
            }
          ],
          "internalType": "struct ReputationManager.RepLog",
          "name": "",
          "type": "tuple"
        }
      ],
      "stateMutability": "view",
      "type": "function"
    },
    {
      "inputs": [],
      "name": "getTraders",
      "outputs": [
        {
          "internalType": "address[]",
          "name": "",
          "type": "address[]"
        }
      ],
      "stateMutability": "view",
      "type": "function"
    },
    {
      "inputs": [
        {
          "internalType": "address",
          "name": "trader",
          "type": "address"
        },
        {
          "internalType": "uint256",
          "name": "update",
          "type": "uint256"
        }
      ],
      "name": "incrementScore",
      "outputs": [],
      "stateMutability": "nonpayable",
      "type": "function"
    },
    {
      "inputs": [
        {
          "internalType": "address",
          "name": "",
          "type": "address"
        }
      ],
      "name": "isRated",
      "outputs": [
        {
          "internalType": "bool",
          "name": "",
          "type": "bool"
        }
      ],
      "stateMutability": "view",
      "type": "function"
    },
    {
      "inputs": [
        {
          "internalType": "address",
          "name": "trader",
          "type": "address"
        },
        {
          "internalType": "uint256",
          "name": "percentile",
          "type": "uint256"
        }
      ],
      "name": "isReputable",
      "outputs": [
        {
          "internalType": "bool",
          "name": "",
          "type": "bool"
        }
      ],
      "stateMutability": "view",
      "type": "function"
    },
    {
      "inputs": [
        {
          "internalType": "address",
          "name": "trader",
          "type": "address"
        },
        {
          "internalType": "uint256",
          "name": "marketId",
          "type": "uint256"
        },
        {
          "internalType": "uint256",
          "name": "bondAmount",
          "type": "uint256"
        },
        {
          "internalType": "uint256",
          "name": "collateral_amount",
          "type": "uint256"
        },
        {
          "internalType": "uint256",
          "name": "budget",
          "type": "uint256"
        },
        {
          "internalType": "bool",
          "name": "perpetual",
          "type": "bool"
        }
      ],
      "name": "recordPull",
      "outputs": [],
      "stateMutability": "nonpayable",
      "type": "function"
    },
    {
      "inputs": [
        {
          "internalType": "address",
          "name": "trader",
          "type": "address"
        },
        {
          "internalType": "uint256",
          "name": "marketId",
          "type": "uint256"
        },
        {
          "internalType": "uint256",
          "name": "bondPrice",
          "type": "uint256"
        },
        {
          "internalType": "bool",
          "name": "premature",
          "type": "bool"
        },
        {
          "internalType": "uint256",
          "name": "redeemAmount",
          "type": "uint256"
        }
      ],
      "name": "recordPush",
      "outputs": [],
      "stateMutability": "nonpayable",
      "type": "function"
    },
    {
      "inputs": [
        {
          "internalType": "address",
          "name": "",
          "type": "address"
        },
        {
          "internalType": "uint256",
          "name": "",
          "type": "uint256"
        }
      ],
      "name": "repLogs",
      "outputs": [
        {
          "internalType": "uint256",
          "name": "collateralAmount",
          "type": "uint256"
        },
        {
          "internalType": "uint256",
          "name": "bondAmount",
          "type": "uint256"
        },
        {
          "internalType": "uint256",
          "name": "budget",
          "type": "uint256"
        },
        {
          "internalType": "bool",
          "name": "perpetual",
          "type": "bool"
        }
      ],
      "stateMutability": "view",
      "type": "function"
    },
    {
      "inputs": [
        {
          "internalType": "address",
          "name": "trader",
          "type": "address"
        },
        {
          "internalType": "uint256",
          "name": "score",
          "type": "uint256"
        }
      ],
      "name": "setTraderScore",
      "outputs": [],
      "stateMutability": "nonpayable",
      "type": "function"
    },
    {
      "inputs": [
        {
          "internalType": "uint256",
          "name": "update",
          "type": "uint256"
        }
      ],
      "name": "testIncrementScore",
      "outputs": [],
      "stateMutability": "nonpayable",
      "type": "function"
    },
    {
      "inputs": [
        {
          "internalType": "address",
          "name": "",
          "type": "address"
        }
      ],
      "name": "trader_scores",
      "outputs": [
        {
          "internalType": "uint256",
          "name": "",
          "type": "uint256"
        }
      ],
      "stateMutability": "view",
      "type": "function"
    },
    {
      "inputs": [
        {
          "internalType": "uint256",
          "name": "",
          "type": "uint256"
        }
      ],
      "name": "traders",
      "outputs": [
        {
          "internalType": "address",
          "name": "",
          "type": "address"
        }
      ],
      "stateMutability": "view",
      "type": "function"
    }
  ],
  "bytecode": {
    "object": "0x60806040523480156200001157600080fd5b5060405162001c8738038062001c87833981016040819052620000349162000093565b600380546001600160a01b039384166001600160a01b0319918216179091556004805492909316918116919091179091556005805490911633179055620000cb565b80516001600160a01b03811681146200008e57600080fd5b919050565b60008060408385031215620000a757600080fd5b620000b28362000076565b9150620000c26020840162000076565b90509250929050565b611bac80620000db6000396000f3fe608060405234801561001057600080fd5b50600436106101165760003560e01c806357b61360116100a2578063a87541f811610071578063a87541f8146102c1578063cf576e55146102d4578063dda10bca1461031c578063e1648cd21461032f578063e8a780261461034257600080fd5b806357b613601461022d578063658e387d146102355780638a2d13061461029a5780639bf7927d146102ae57600080fd5b8063224e1c2d116100e9578063224e1c2d1461019457806323ba6107146101a75780632a6b8082146101da5780632e1a65d3146101fa57806344c743931461020d57600080fd5b80630622fd171461011b5780630d159896146101305780630e2ebf0614610156578063135e563d14610169575b600080fd5b61012e610129366004611834565b610355565b005b61014361013e36600461185e565b61039f565b6040519081526020015b60405180910390f35b610143610164366004611877565b610451565b61017c61017736600461185e565b6104af565b6040516001600160a01b03909116815260200161014d565b61012e6101a2366004611834565b6104d9565b6101ca6101b5366004611877565b60016020526000908152604090205460ff1681565b604051901515815260200161014d565b6101ed6101e8366004611892565b6105ff565b60405161014d91906118be565b61012e61020836600461190f565b610a30565b61014361021b366004611877565b60006020819052908152604090205481565b6101ed610b67565b610278610243366004611834565b600660209081526000928352604080842090915290825290208054600182015460028301546003909301549192909160ff1684565b604080519485526020850193909352918301521515606082015260800161014d565b6101436102a8366004611877565b50600090565b61012e6102bc366004611967565b610bc9565b61012e6102cf36600461185e565b610edd565b6102e76102e2366004611834565b610f56565b60405161014d919081518152602080830151908201526040808301519082015260609182015115159181019190915260800190565b61014361032a3660046119b5565b610fe2565b61012e61033d366004611834565b61107d565b6101ca610350366004611834565b61110a565b6001600160a01b03821660009081526020819052604090205480821115610389576103848361033d83856119f7565b505050565b8082101561038457610384836101a284846119f7565b60025460009081906103ba90670de0b6b3a764000090611a0a565b90506103c7606484611a21565b6000036103d75750600092915050565b60006103ee6103e7606486611a21565b839061119d565b9050610402670de0b6b3a764000082611a21565b905060008060026104146001856119f7565b8154811061042457610424611a43565b60009182526020808320909101546001600160a01b03168352820192909252604001902054949350505050565b6000805b6002548110156104a9576002818154811061047257610472611a43565b6000918252602090912001546001600160a01b03908116908416036104975792915050565b806104a181611a59565b915050610455565b50919050565b600281815481106104bf57600080fd5b6000918252602090912001546001600160a01b0316905081565b6003546001600160a01b03163314806104fc57506004546001600160a01b031633145b8061051157506005546001600160a01b031633145b6105365760405162461bcd60e51b815260040161052d90611a72565b60405180910390fd5b6001600160a01b0382166000908152602081905260409020548110610573576001600160a01b0382166000908152602081905260408120556105a1565b6001600160a01b0382166000908152602081905260408120805483929061059b9084906119f7565b90915550505b6105ac8260006111b9565b6001600160a01b03821660008181526020818152604091829020548251938452908301527f66ead48cfe0e1d1aa8bad492e906c348dfcfeecbf3b7b2cdf9b1f3cfa42a2945910160405180910390a15050565b60025460609060009061061b90670de0b6b3a764000090611a0a565b9050610628606485611a21565b6000036107d4576001600160a01b03831660009081526001602052604090205460ff161561077157600254600090610662906001906119f7565b67ffffffffffffffff81111561067a5761067a611aa9565b6040519080825280602002602001820160405280156106a3578160200160208202803683370190505b5090506000805b60025481101561076557600281815481106106c7576106c7611a43565b6000918252602090912001546001600160a01b03908116908716036106ef5760019150610753565b6002818154811061070257610702611a43565b6000918252602090912001546001600160a01b03168361072284846119f7565b8151811061073257610732611a43565b60200260200101906001600160a01b031690816001600160a01b0316815250505b8061075d81611a59565b9150506106aa565b50819350505050610a2a565b60028054806020026020016040519081016040528092919081815260200182805480156107c757602002820191906000526020600020905b81546001600160a01b031681526001909101906020018083116107a9575b5050505050915050610a2a565b60006108026064866107ee670de0b6b3a764000083611a0a565b6107f891906119f7565b6103e79190611a21565b9050610816670de0b6b3a764000082611a21565b905060606001600160a01b038516158061084957506001600160a01b03851660009081526001602052604090205460ff16155b15610911578167ffffffffffffffff81111561086757610867611aa9565b604051908082528060200260200182016040528015610890578160200160208202803683370190505b50905060005b8281101561090b57600281815481106108b1576108b1611a43565b9060005260206000200160009054906101000a90046001600160a01b03168282815181106108e1576108e1611a43565b6001600160a01b03909216602092830291909101909101528061090381611a59565b915050610896565b50610a25565b61091c6001836119f7565b67ffffffffffffffff81111561093457610934611aa9565b60405190808252806020026020018201604052801561095d578160200160208202803683370190505b5090506000805b83811015610a2257866001600160a01b03166002828154811061098957610989611a43565b6000918252602090912001546001600160a01b0316036109ac5760019150610a10565b600281815481106109bf576109bf611a43565b6000918252602090912001546001600160a01b0316836109df84846119f7565b815181106109ef576109ef611a43565b60200260200101906001600160a01b031690816001600160a01b0316815250505b80610a1a81611a59565b915050610964565b50505b925050505b92915050565b6003546001600160a01b0316331480610a5357506004546001600160a01b031633145b80610a6857506005546001600160a01b031633145b610a845760405162461bcd60e51b815260040161052d90611a72565b6001600160a01b0386166000908152600660209081526040808320888452825291829020825160808101845281548082526001830154938201939093526002820154938101939093526003015460ff161515606083015284908290610aea908390611abf565b905250602081018051869190610b01908390611abf565b9052509015156060820190815260408083019384526001600160a01b039790971660009081526006602090815288822097825296875296909620815181559401516001850155516002840155505090516003909101805460ff1916911515919091179055565b60606002805480602002602001604051908101604052809291908181526020018280548015610bbf57602002820191906000526020600020905b81546001600160a01b03168152600190910190602001808311610ba1575b5050505050905090565b6003546001600160a01b0316331480610bec57506004546001600160a01b031633145b80610c0157506005546001600160a01b031633145b610c1d5760405162461bcd60e51b815260040161052d90611a72565b6001600160a01b0385166000908152600660209081526040808320878452825280832081516080810183528154808252600183015494820185905260028301549382019390935260039091015460ff16151560608201529291610c80919061155c565b90508315610cdf57610c9e86886000670de0b6b3a764000086611571565b6001600160a01b03871660009081526006602090815260408083208984529091528120818155600181018290556002810191909155600301805460ff191690555b816060015115610e0d57808510610d0c57610d0786886001610d01858a6119f7565b86611571565b610d1d565b610d1d86886000610d0189866119f7565b610d27838261119d565b82511015610d615760405162461bcd60e51b81526020600482015260076024820152666c6f674552523160c81b604482015260640161052d565b8282602001511015610d9f5760405162461bcd60e51b81526020600482015260076024820152663637b3a2a9291960c91b604482015260640161052d565b610da9838261119d565b82510382526020808301805185900381526001600160a01b03891660009081526006835260408082208a8352909352829020845181559051600182015590830151600282015560608301516003909101805460ff1916911515919091179055610ed4565b670de0b6b3a76400008510610e3257610e2d86886001610d01858a6119f7565b610e5f565b808511158015610e495750670de0b6b3a764000085105b15610e5f57610e5f86886000610d0189866119f7565b610e9360405180604001604052806011815260200170626f6e647072696365617667707269636560781b815250828761162d565b6001600160a01b03871660009081526006602090815260408083208984529091528120818155600181018290556002810191909155600301805460ff191690555b50505050505050565b3360009081526020819052604081208054839290610efc908490611abf565b90915550610f0d90503360016111b9565b3360008181526020818152604091829020548251938452908301527f66ead48cfe0e1d1aa8bad492e906c348dfcfeecbf3b7b2cdf9b1f3cfa42a2945910160405180910390a150565b610f8360405180608001604052806000815260200160008152602001600081526020016000151581525090565b506001600160a01b038216600090815260066020908152604080832084845282529182902082516080810184528154815260018201549281019290925260028101549282019290925260039091015460ff161515606082015292915050565b60008084118015610ff35750600083115b6110285760405162461bcd60e51b815260040161052d90602080825260049082015263183234bb60e11b604082015260600190565b6000611034848661155c565b9050600061104d6103e783670de0b6b3a76400006119f7565b9050600061105b878661155c565b905082611068828461119d565b6110729190611abf565b979650505050505050565b6003546001600160a01b03163314806110a057506004546001600160a01b031633145b806110b557506005546001600160a01b031633145b6110d15760405162461bcd60e51b815260040161052d90611a72565b6001600160a01b038216600090815260208190526040812080548392906110f9908490611abf565b909155506105ac90508260016111b9565b60008061111684610451565b90506000670de0b6b3a764000061112e836001611abf565b60025461113b91906119f7565b6111459190611a0a565b60025490915060009061116190670de0b6b3a764000090611a0a565b9050600061116f838361155c565b61117a906064611a0a565b9050858110611190576001945050505050610a2a565b6000945050505050610a2a565b60006111b28383670de0b6b3a7640000611674565b9392505050565b6001600160a01b0382166000908152602081815260408083205460019092529091205460ff166113d8576001600160a01b03831660009081526001602081905260408220805460ff191690911790556002549003611265575050600280546001810182556000919091527f405787fa12a823e0f2b7631cc41b3ba8828b3321ca811111fa75cd3aa3bb5ace0180546001600160a01b0319166001600160a01b0392909216919091179055565b60005b6002548110156113d2576000806002838154811061128857611288611a43565b60009182526020808320909101546001600160a01b0316835282019290925260400190205482111561135557600280546001818101835560008390527f405787fa12a823e0f2b7631cc41b3ba8828b3321ca811111fa75cd3aa3bb5ace90910180546001600160a01b0319169055905461130d91839161130891906119f7565b611692565b836002828154811061132157611321611a43565b9060005260206000200160006101000a8154816001600160a01b0302191690836001600160a01b0316021790555050505050565b600254611364906001906119f7565b81036113c0575050600280546001810182556000919091527f405787fa12a823e0f2b7631cc41b3ba8828b3321ca811111fa75cd3aa3bb5ace0180546001600160a01b0319166001600160a01b03939093169290921790915550565b806113ca81611a59565b915050611268565b50505050565b60006113e384610451565b9050801580156113f05750825b806114115750600254611405906001906119f7565b81148015611411575082155b1561141c5750505050565b82156114da5760005b818110156114d4576000806002838154811061144357611443611a43565b60009182526020808320909101546001600160a01b031683528201929092526040019020548311156114c2576114798183611692565b846002828154811061148d5761148d611a43565b9060005260206000200160006101000a8154816001600160a01b0302191690836001600160a01b031602179055505050505050565b806114cc81611a59565b915050611425565b506113d2565b6002546000906114ec906001906119f7565b90505b81811115611555576000806002838154811061150d5761150d611a43565b60009182526020808320909101546001600160a01b03168352820192909252604001902054831015611543576114798282611720565b8061154d81611ad2565b9150506114ef565b5050505050565b60006111b283670de0b6b3a764000084611674565b6000816060015161159857611593826020015183600001518460400151610fe2565b6115a8565b604082015182516115a89161155c565b905060006115b6848361119d565b905084156115f8576115e9604051806040016040528060098152602001681a5b98dc995b595b9d60ba1b815250826117ae565b6115f3868261107d565b610ed4565b61162360405180604001604052806009815260200168191958dc995b595b9d60ba1b815250826117ae565b610ed486826104d9565b61038483838360405160240161164593929190611b2f565b60408051601f198184030181529190526020810180516001600160e01b031663969cdd0360e01b1790526117f7565b600082600019048411830215820261168b57600080fd5b5091020490565b805b828111156103845760026116a96001836119f7565b815481106116b9576116b9611a43565b600091825260209091200154600280546001600160a01b0390921691839081106116e5576116e5611a43565b600091825260209091200180546001600160a01b0319166001600160a01b03929092169190911790558061171881611ad2565b915050611694565b815b81811015610384576002611737826001611abf565b8154811061174757611747611a43565b600091825260209091200154600280546001600160a01b03909216918390811061177357611773611a43565b600091825260209091200180546001600160a01b0319166001600160a01b0392909216919091179055806117a681611a59565b915050611722565b6117f382826040516024016117c4929190611b54565b60408051601f198184030181529190526020810180516001600160e01b03166309710a9d60e41b1790526117f7565b5050565b80516a636f6e736f6c652e6c6f67602083016000808483855afa5050505050565b80356001600160a01b038116811461182f57600080fd5b919050565b6000806040838503121561184757600080fd5b61185083611818565b946020939093013593505050565b60006020828403121561187057600080fd5b5035919050565b60006020828403121561188957600080fd5b6111b282611818565b600080604083850312156118a557600080fd5b823591506118b560208401611818565b90509250929050565b6020808252825182820181905260009190848201906040850190845b81811015610a225783516001600160a01b0316835292840192918401916001016118da565b8035801515811461182f57600080fd5b60008060008060008060c0878903121561192857600080fd5b61193187611818565b95506020870135945060408701359350606087013592506080870135915061195b60a088016118ff565b90509295509295509295565b600080600080600060a0868803121561197f57600080fd5b61198886611818565b945060208601359350604086013592506119a4606087016118ff565b949793965091946080013592915050565b6000806000606084860312156119ca57600080fd5b505081359360208301359350604090920135919050565b634e487b7160e01b600052601160045260246000fd5b81810381811115610a2a57610a2a6119e1565b8082028115828204841417610a2a57610a2a6119e1565b600082611a3e57634e487b7160e01b600052601260045260246000fd5b500490565b634e487b7160e01b600052603260045260246000fd5b600060018201611a6b57611a6b6119e1565b5060010190565b6020808252601c908201527f52657075746174696f6e4d616e616765723a202170726f746f636f6c00000000604082015260600190565b634e487b7160e01b600052604160045260246000fd5b80820180821115610a2a57610a2a6119e1565b600081611ae157611ae16119e1565b506000190190565b6000815180845260005b81811015611b0f57602081850181015186830182015201611af3565b506000602082860101526020601f19601f83011685010191505092915050565b606081526000611b426060830186611ae9565b60208301949094525060400152919050565b604081526000611b676040830185611ae9565b9050826020830152939250505056fea2646970667358221220d84794b21962f61916a85262a7569d3ea87c910774506357787345b8b770b21c64736f6c63430008110033",
    "linkReferences": {}
  },
  "methodIdentifiers": {
    "calcImpliedProbability(uint256,uint256,uint256)": "dda10bca",
    "calculateMinScore(uint256)": "0d159896",
    "decrementScore(address,uint256)": "224e1c2d",
    "expectedIncrement(address)": "8a2d1306",
    "filterTraders(uint256,address)": "2a6b8082",
    "findTrader(address)": "0e2ebf06",
    "getRepLog(address,uint256)": "cf576e55",
    "getTraders()": "57b61360",
    "incrementScore(address,uint256)": "e1648cd2",
    "isRated(address)": "23ba6107",
    "isReputable(address,uint256)": "e8a78026",
    "recordPull(address,uint256,uint256,uint256,uint256,bool)": "2e1a65d3",
    "recordPush(address,uint256,uint256,bool,uint256)": "9bf7927d",
    "repLogs(address,uint256)": "658e387d",
    "setTraderScore(address,uint256)": "0622fd17",
    "testIncrementScore(uint256)": "a87541f8",
    "trader_scores(address)": "44c74393",
    "traders(uint256)": "135e563d"
  },
  "id": 16
}