{
  "abi": [
    {
      "inputs": [],
      "stateMutability": "nonpayable",
      "type": "constructor"
    },
    {
      "inputs": [
        {
          "internalType": "uint256",
          "name": "",
          "type": "uint256"
        }
      ],
      "name": "InstrumentDatas",
      "outputs": [
        {
          "internalType": "bytes32",
          "name": "name",
          "type": "bytes32"
        },
        {
          "internalType": "bool",
          "name": "isPool",
          "type": "bool"
        },
        {
          "internalType": "bool",
          "name": "trusted",
          "type": "bool"
        },
        {
          "internalType": "uint256",
          "name": "balance",
          "type": "uint256"
        },
        {
          "internalType": "uint256",
          "name": "faceValue",
          "type": "uint256"
        },
        {
          "internalType": "uint256",
          "name": "marketId",
          "type": "uint256"
        },
        {
          "internalType": "uint256",
          "name": "principal",
          "type": "uint256"
        },
        {
          "internalType": "uint256",
          "name": "expectedYield",
          "type": "uint256"
        },
        {
          "internalType": "uint256",
          "name": "duration",
          "type": "uint256"
        },
        {
          "internalType": "string",
          "name": "description",
          "type": "string"
        },
        {
          "internalType": "address",
          "name": "instrument_address",
          "type": "address"
        },
        {
          "internalType": "enum InstrumentType",
          "name": "instrument_type",
          "type": "uint8"
        },
        {
          "internalType": "uint256",
          "name": "maturityDate",
          "type": "uint256"
        },
        {
          "components": [
            {
              "internalType": "uint256",
              "name": "saleAmount",
              "type": "uint256"
            },
            {
              "internalType": "uint256",
              "name": "initPrice",
              "type": "uint256"
            },
            {
              "internalType": "uint256",
              "name": "promisedReturn",
              "type": "uint256"
            },
            {
              "internalType": "uint256",
              "name": "inceptionTime",
              "type": "uint256"
            },
            {
              "internalType": "uint256",
              "name": "inceptionPrice",
              "type": "uint256"
            },
            {
              "internalType": "uint256",
              "name": "leverageFactor",
              "type": "uint256"
            },
            {
              "internalType": "uint256",
              "name": "managementFee",
              "type": "uint256"
            }
          ],
          "internalType": "struct PoolData",
          "name": "poolData",
          "type": "tuple"
        }
      ],
      "stateMutability": "view",
      "type": "function"
    },
    {
      "inputs": [
        {
          "internalType": "uint256",
          "name": "",
          "type": "uint256"
        }
      ],
      "name": "PricingInfos",
      "outputs": [
        {
          "internalType": "uint256",
          "name": "psu",
          "type": "uint256"
        },
        {
          "internalType": "uint256",
          "name": "prevAccrueTime",
          "type": "uint256"
        },
        {
          "internalType": "uint256",
          "name": "prevIntervalRp",
          "type": "uint256"
        },
        {
          "internalType": "uint256",
          "name": "URATE_MULTIPLIER",
          "type": "uint256"
        },
        {
          "internalType": "uint256",
          "name": "ID",
          "type": "uint256"
        },
        {
          "internalType": "bool",
          "name": "constantRF",
          "type": "bool"
        }
      ],
      "stateMutability": "view",
      "type": "function"
    },
    {
      "inputs": [],
      "name": "TIME_WINDOW",
      "outputs": [
        {
          "internalType": "uint256",
          "name": "",
          "type": "uint256"
        }
      ],
      "stateMutability": "view",
      "type": "function"
    },
    {
      "inputs": [
        {
          "internalType": "uint256",
          "name": "marketId",
          "type": "uint256"
        }
      ],
      "name": "getInstrumentData",
      "outputs": [
        {
          "components": [
            {
              "internalType": "bytes32",
              "name": "name",
              "type": "bytes32"
            },
            {
              "internalType": "bool",
              "name": "isPool",
              "type": "bool"
            },
            {
              "internalType": "bool",
              "name": "trusted",
              "type": "bool"
            },
            {
              "internalType": "uint256",
              "name": "balance",
              "type": "uint256"
            },
            {
              "internalType": "uint256",
              "name": "faceValue",
              "type": "uint256"
            },
            {
              "internalType": "uint256",
              "name": "marketId",
              "type": "uint256"
            },
            {
              "internalType": "uint256",
              "name": "principal",
              "type": "uint256"
            },
            {
              "internalType": "uint256",
              "name": "expectedYield",
              "type": "uint256"
            },
            {
              "internalType": "uint256",
              "name": "duration",
              "type": "uint256"
            },
            {
              "internalType": "string",
              "name": "description",
              "type": "string"
            },
            {
              "internalType": "address",
              "name": "instrument_address",
              "type": "address"
            },
            {
              "internalType": "enum InstrumentType",
              "name": "instrument_type",
              "type": "uint8"
            },
            {
              "internalType": "uint256",
              "name": "maturityDate",
              "type": "uint256"
            },
            {
              "components": [
                {
                  "internalType": "uint256",
                  "name": "saleAmount",
                  "type": "uint256"
                },
                {
                  "internalType": "uint256",
                  "name": "initPrice",
                  "type": "uint256"
                },
                {
                  "internalType": "uint256",
                  "name": "promisedReturn",
                  "type": "uint256"
                },
                {
                  "internalType": "uint256",
                  "name": "inceptionTime",
                  "type": "uint256"
                },
                {
                  "internalType": "uint256",
                  "name": "inceptionPrice",
                  "type": "uint256"
                },
                {
                  "internalType": "uint256",
                  "name": "leverageFactor",
                  "type": "uint256"
                },
                {
                  "internalType": "uint256",
                  "name": "managementFee",
                  "type": "uint256"
                }
              ],
              "internalType": "struct PoolData",
              "name": "poolData",
              "type": "tuple"
            }
          ],
          "internalType": "struct InstrumentData",
          "name": "",
          "type": "tuple"
        }
      ],
      "stateMutability": "nonpayable",
      "type": "function"
    },
    {
      "inputs": [
        {
          "internalType": "uint256",
          "name": "marketId",
          "type": "uint256"
        }
      ],
      "name": "getMarket",
      "outputs": [
        {
          "components": [
            {
              "internalType": "contract SyntheticZCBPool",
              "name": "bondPool",
              "type": "address"
            },
            {
              "internalType": "contract ERC20",
              "name": "longZCB",
              "type": "address"
            },
            {
              "internalType": "contract ERC20",
              "name": "shortZCB",
              "type": "address"
            },
            {
              "internalType": "string",
              "name": "description",
              "type": "string"
            },
            {
              "internalType": "uint256",
              "name": "creationTimestamp",
              "type": "uint256"
            },
            {
              "internalType": "uint256",
              "name": "resolutionTimestamp",
              "type": "uint256"
            },
            {
              "internalType": "bool",
              "name": "isPool",
              "type": "bool"
            }
          ],
          "internalType": "struct CoreMarketData",
          "name": "data",
          "type": "tuple"
        }
      ],
      "stateMutability": "view",
      "type": "function"
    },
    {
      "inputs": [
        {
          "internalType": "uint256",
          "name": "marketId",
          "type": "uint256"
        }
      ],
      "name": "getPricingInfo",
      "outputs": [
        {
          "components": [
            {
              "internalType": "uint256",
              "name": "psu",
              "type": "uint256"
            },
            {
              "internalType": "uint256",
              "name": "prevAccrueTime",
              "type": "uint256"
            },
            {
              "internalType": "uint256",
              "name": "prevIntervalRp",
              "type": "uint256"
            },
            {
              "internalType": "uint256",
              "name": "URATE_MULTIPLIER",
              "type": "uint256"
            },
            {
              "internalType": "uint256",
              "name": "ID",
              "type": "uint256"
            },
            {
              "internalType": "bool",
              "name": "constantRF",
              "type": "bool"
            }
          ],
          "internalType": "struct PricingInfo",
          "name": "",
          "type": "tuple"
        }
      ],
      "stateMutability": "view",
      "type": "function"
    },
    {
      "inputs": [],
      "name": "lastTradedRate",
      "outputs": [
        {
          "internalType": "uint256",
          "name": "",
          "type": "uint256"
        }
      ],
      "stateMutability": "view",
      "type": "function"
    },
    {
      "inputs": [],
      "name": "lastTradedTime",
      "outputs": [
        {
          "internalType": "uint256",
          "name": "",
          "type": "uint256"
        }
      ],
      "stateMutability": "view",
      "type": "function"
    },
    {
      "inputs": [
        {
          "internalType": "uint256",
          "name": "",
          "type": "uint256"
        }
      ],
      "name": "markets",
      "outputs": [
        {
          "internalType": "contract SyntheticZCBPool",
          "name": "bondPool",
          "type": "address"
        },
        {
          "internalType": "contract ERC20",
          "name": "longZCB",
          "type": "address"
        },
        {
          "internalType": "contract ERC20",
          "name": "shortZCB",
          "type": "address"
        },
        {
          "internalType": "string",
          "name": "description",
          "type": "string"
        },
        {
          "internalType": "uint256",
          "name": "creationTimestamp",
          "type": "uint256"
        },
        {
          "internalType": "uint256",
          "name": "resolutionTimestamp",
          "type": "uint256"
        },
        {
          "internalType": "bool",
          "name": "isPool",
          "type": "bool"
        }
      ],
      "stateMutability": "view",
      "type": "function"
    },
    {
      "inputs": [
        {
          "internalType": "uint256",
          "name": "marketId",
          "type": "uint256"
        }
      ],
      "name": "queryExchangeRateOracle",
      "outputs": [
        {
          "internalType": "uint256",
          "name": "",
          "type": "uint256"
        }
      ],
      "stateMutability": "view",
      "type": "function"
    },
    {
      "inputs": [
        {
          "internalType": "uint256",
          "name": "marketId",
          "type": "uint256"
        },
        {
          "internalType": "uint256",
          "name": "newURate",
          "type": "uint256"
        }
      ],
      "name": "refreshAndGetNewLTV",
      "outputs": [
        {
          "internalType": "uint256",
          "name": "",
          "type": "uint256"
        }
      ],
      "stateMutability": "nonpayable",
      "type": "function"
    },
    {
      "inputs": [
        {
          "internalType": "uint256",
          "name": "marketId",
          "type": "uint256"
        },
        {
          "internalType": "uint256",
          "name": "uRate",
          "type": "uint256"
        }
      ],
      "name": "refreshPricing",
      "outputs": [],
      "stateMutability": "nonpayable",
      "type": "function"
    },
    {
      "inputs": [
        {
          "internalType": "uint256",
          "name": "marketId",
          "type": "uint256"
        },
        {
          "internalType": "uint256",
          "name": "initialPrice",
          "type": "uint256"
        },
        {
          "internalType": "uint256",
          "name": "multiplier",
          "type": "uint256"
        },
        {
          "internalType": "bool",
          "name": "constantRF",
          "type": "bool"
        },
        {
          "components": [
            {
              "internalType": "bytes32",
              "name": "name",
              "type": "bytes32"
            },
            {
              "internalType": "bool",
              "name": "isPool",
              "type": "bool"
            },
            {
              "internalType": "bool",
              "name": "trusted",
              "type": "bool"
            },
            {
              "internalType": "uint256",
              "name": "balance",
              "type": "uint256"
            },
            {
              "internalType": "uint256",
              "name": "faceValue",
              "type": "uint256"
            },
            {
              "internalType": "uint256",
              "name": "marketId",
              "type": "uint256"
            },
            {
              "internalType": "uint256",
              "name": "principal",
              "type": "uint256"
            },
            {
              "internalType": "uint256",
              "name": "expectedYield",
              "type": "uint256"
            },
            {
              "internalType": "uint256",
              "name": "duration",
              "type": "uint256"
            },
            {
              "internalType": "string",
              "name": "description",
              "type": "string"
            },
            {
              "internalType": "address",
              "name": "instrument_address",
              "type": "address"
            },
            {
              "internalType": "enum InstrumentType",
              "name": "instrument_type",
              "type": "uint8"
            },
            {
              "internalType": "uint256",
              "name": "maturityDate",
              "type": "uint256"
            },
            {
              "components": [
                {
                  "internalType": "uint256",
                  "name": "saleAmount",
                  "type": "uint256"
                },
                {
                  "internalType": "uint256",
                  "name": "initPrice",
                  "type": "uint256"
                },
                {
                  "internalType": "uint256",
                  "name": "promisedReturn",
                  "type": "uint256"
                },
                {
                  "internalType": "uint256",
                  "name": "inceptionTime",
                  "type": "uint256"
                },
                {
                  "internalType": "uint256",
                  "name": "inceptionPrice",
                  "type": "uint256"
                },
                {
                  "internalType": "uint256",
                  "name": "leverageFactor",
                  "type": "uint256"
                },
                {
                  "internalType": "uint256",
                  "name": "managementFee",
                  "type": "uint256"
                }
              ],
              "internalType": "struct PoolData",
              "name": "poolData",
              "type": "tuple"
            }
          ],
          "internalType": "struct InstrumentData",
          "name": "idata",
          "type": "tuple"
        },
        {
          "components": [
            {
              "internalType": "contract SyntheticZCBPool",
              "name": "bondPool",
              "type": "address"
            },
            {
              "internalType": "contract ERC20",
              "name": "longZCB",
              "type": "address"
            },
            {
              "internalType": "contract ERC20",
              "name": "shortZCB",
              "type": "address"
            },
            {
              "internalType": "string",
              "name": "description",
              "type": "string"
            },
            {
              "internalType": "uint256",
              "name": "creationTimestamp",
              "type": "uint256"
            },
            {
              "internalType": "uint256",
              "name": "resolutionTimestamp",
              "type": "uint256"
            },
            {
              "internalType": "bool",
              "name": "isPool",
              "type": "bool"
            }
          ],
          "internalType": "struct CoreMarketData",
          "name": "mdata",
          "type": "tuple"
        }
      ],
      "name": "setNewInstrument",
      "outputs": [],
      "stateMutability": "nonpayable",
      "type": "function"
    },
    {
      "inputs": [
        {
          "internalType": "uint256",
          "name": "marketId",
          "type": "uint256"
        },
        {
          "components": [
            {
              "internalType": "uint256",
              "name": "incrementRate",
              "type": "uint256"
            },
            {
              "internalType": "uint256",
              "name": "urateUpper",
              "type": "uint256"
            },
            {
              "internalType": "uint256",
              "name": "urateLower",
              "type": "uint256"
            },
            {
              "internalType": "uint256",
              "name": "prevAccrueTime",
              "type": "uint256"
            },
            {
              "internalType": "uint256",
              "name": "prevURate",
              "type": "uint256"
            },
            {
              "internalType": "uint256",
              "name": "maxBorrowable",
              "type": "uint256"
            }
          ],
          "internalType": "struct PoolPricingParam",
          "name": "params",
          "type": "tuple"
        }
      ],
      "name": "setPoolPricingParams",
      "outputs": [],
      "stateMutability": "nonpayable",
      "type": "function"
    },
    {
      "inputs": [
        {
          "internalType": "uint256",
          "name": "marketId",
          "type": "uint256"
        },
        {
          "internalType": "bool",
          "name": "isConstant",
          "type": "bool"
        }
      ],
      "name": "setRF",
      "outputs": [],
      "stateMutability": "nonpayable",
      "type": "function"
    },
    {
      "inputs": [
        {
          "internalType": "uint256",
          "name": "marketId",
          "type": "uint256"
        },
        {
          "internalType": "uint256",
          "name": "newRate",
          "type": "uint256"
        }
      ],
      "name": "storeExchangeRateOracle",
      "outputs": [
        {
          "internalType": "uint256",
          "name": "",
          "type": "uint256"
        }
      ],
      "stateMutability": "nonpayable",
      "type": "function"
    },
    {
      "inputs": [
        {
          "components": [
            {
              "internalType": "contract SyntheticZCBPool",
              "name": "bondPool",
              "type": "address"
            },
            {
              "internalType": "contract ERC20",
              "name": "longZCB",
              "type": "address"
            },
            {
              "internalType": "contract ERC20",
              "name": "shortZCB",
              "type": "address"
            },
            {
              "internalType": "string",
              "name": "description",
              "type": "string"
            },
            {
              "internalType": "uint256",
              "name": "creationTimestamp",
              "type": "uint256"
            },
            {
              "internalType": "uint256",
              "name": "resolutionTimestamp",
              "type": "uint256"
            },
            {
              "internalType": "bool",
              "name": "isPool",
              "type": "bool"
            }
          ],
          "internalType": "struct CoreMarketData",
          "name": "data",
          "type": "tuple"
        }
      ],
      "name": "storeNewMarket",
      "outputs": [
        {
          "internalType": "uint256",
          "name": "marketId",
          "type": "uint256"
        }
      ],
      "stateMutability": "nonpayable",
      "type": "function"
    },
    {
      "inputs": [
        {
          "internalType": "uint256",
          "name": "marketId",
          "type": "uint256"
        },
        {
          "components": [
            {
              "internalType": "bytes32",
              "name": "name",
              "type": "bytes32"
            },
            {
              "internalType": "bool",
              "name": "isPool",
              "type": "bool"
            },
            {
              "internalType": "bool",
              "name": "trusted",
              "type": "bool"
            },
            {
              "internalType": "uint256",
              "name": "balance",
              "type": "uint256"
            },
            {
              "internalType": "uint256",
              "name": "faceValue",
              "type": "uint256"
            },
            {
              "internalType": "uint256",
              "name": "marketId",
              "type": "uint256"
            },
            {
              "internalType": "uint256",
              "name": "principal",
              "type": "uint256"
            },
            {
              "internalType": "uint256",
              "name": "expectedYield",
              "type": "uint256"
            },
            {
              "internalType": "uint256",
              "name": "duration",
              "type": "uint256"
            },
            {
              "internalType": "string",
              "name": "description",
              "type": "string"
            },
            {
              "internalType": "address",
              "name": "instrument_address",
              "type": "address"
            },
            {
              "internalType": "enum InstrumentType",
              "name": "instrument_type",
              "type": "uint8"
            },
            {
              "internalType": "uint256",
              "name": "maturityDate",
              "type": "uint256"
            },
            {
              "components": [
                {
                  "internalType": "uint256",
                  "name": "saleAmount",
                  "type": "uint256"
                },
                {
                  "internalType": "uint256",
                  "name": "initPrice",
                  "type": "uint256"
                },
                {
                  "internalType": "uint256",
                  "name": "promisedReturn",
                  "type": "uint256"
                },
                {
                  "internalType": "uint256",
                  "name": "inceptionTime",
                  "type": "uint256"
                },
                {
                  "internalType": "uint256",
                  "name": "inceptionPrice",
                  "type": "uint256"
                },
                {
                  "internalType": "uint256",
                  "name": "leverageFactor",
                  "type": "uint256"
                },
                {
                  "internalType": "uint256",
                  "name": "managementFee",
                  "type": "uint256"
                }
              ],
              "internalType": "struct PoolData",
              "name": "poolData",
              "type": "tuple"
            }
          ],
          "internalType": "struct InstrumentData",
          "name": "data",
          "type": "tuple"
        }
      ],
      "name": "storeNewProposal",
      "outputs": [],
      "stateMutability": "nonpayable",
      "type": "function"
    },
    {
      "inputs": [
        {
          "internalType": "uint256",
          "name": "marketId",
          "type": "uint256"
        },
        {
          "components": [
            {
              "internalType": "uint256",
              "name": "psu",
              "type": "uint256"
            },
            {
              "internalType": "uint256",
              "name": "prevAccrueTime",
              "type": "uint256"
            },
            {
              "internalType": "uint256",
              "name": "prevIntervalRp",
              "type": "uint256"
            },
            {
              "internalType": "uint256",
              "name": "URATE_MULTIPLIER",
              "type": "uint256"
            },
            {
              "internalType": "uint256",
              "name": "ID",
              "type": "uint256"
            },
            {
              "internalType": "bool",
              "name": "constantRF",
              "type": "bool"
            }
          ],
          "internalType": "struct PricingInfo",
          "name": "newInfo",
          "type": "tuple"
        }
      ],
      "name": "updatePricingInfo",
      "outputs": [],
      "stateMutability": "nonpayable",
      "type": "function"
    },
    {
      "inputs": [
        {
          "internalType": "uint256",
          "name": "marketId",
          "type": "uint256"
        }
      ],
      "name": "viewCurrentPricing",
      "outputs": [
        {
          "internalType": "uint256",
          "name": "",
          "type": "uint256"
        },
        {
          "internalType": "uint256",
          "name": "",
          "type": "uint256"
        },
        {
          "internalType": "uint256",
          "name": "",
          "type": "uint256"
        }
      ],
      "stateMutability": "view",
      "type": "function"
    },
    {
      "inputs": [
        {
          "internalType": "uint256",
          "name": "marketId",
          "type": "uint256"
        }
      ],
      "name": "zcbMaxPrice",
      "outputs": [
        {
          "internalType": "uint256",
          "name": "",
          "type": "uint256"
        }
      ],
      "stateMutability": "view",
      "type": "function"
    }
  ],
  "bytecode": {
    "object": "0x60806040523480156200001157600080fd5b506006620000ba6040805160e0810182526000808252602082018190529181018290526060808201526080810182905260a0810182905260c08101919091526040518060e0016040528060006001600160a01b0316815260200160006001600160a01b0316815260200160006001600160a01b03168152602001604051806020016040528060008152508152602001600081526020016000815260200160001515815250905090565b8154600180820184556000938452602093849020835160079093020180546001600160a01b03199081166001600160a01b0394851617825594840151918101805486169284169290921790915560408301516002820180549095169216919091179092556060810151909190600382019062000137908262000211565b506080820151600482015560a0820151600582015560c0909101516006909101805460ff1916911515919091179055620002dd565b634e487b7160e01b600052604160045260246000fd5b600181811c908216806200019757607f821691505b602082108103620001b857634e487b7160e01b600052602260045260246000fd5b50919050565b601f8211156200020c57600081815260208120601f850160051c81016020861015620001e75750805b601f850160051c820191505b818110156200020857828155600101620001f3565b5050505b505050565b81516001600160401b038111156200022d576200022d6200016c565b62000245816200023e845462000182565b84620001be565b602080601f8311600181146200027d5760008415620002645750858301515b600019600386901b1c1916600185901b17855562000208565b600085815260208120601f198616915b82811015620002ae578886015182559484019460019091019084016200028d565b5085821015620002cd5787850151600019600388901b60f8161c191681555b5050505050600190811b01905550565b61208d80620002ed6000396000f3fe608060405234801561001057600080fd5b50600436106101375760003560e01c806394850867116100b8578063c7b0ce411161007c578063c7b0ce411461037a578063de2b19e11461038d578063e2d045eb146103a8578063e8a103fd146103bb578063eb44fdd31461041d578063f896376a1461043d57600080fd5b806394850867146102895780639521f666146102925780639e474028146102bf578063b1283e77146102df578063b81e98e81461030557600080fd5b80633bed8f6d116100ff5780633bed8f6d146101c057806350900374146101e05780635cf21f7314610235578063713091a71461024857806392b8c31e1461027657600080fd5b80631b5983481461013c5780631d8dc16b1461016f57806322a07a151461018b5780632e60d9311461019e578063398f7646146101ad575b600080fd5b61016d61014a366004611500565b6000828152602081905260409020600501805482151560ff199091161790555050565b005b61017860025481565b6040519081526020015b60405180910390f35b61017861019936600461152c565b610454565b610178678ac7230489e8000081565b61016d6101bb366004611545565b610548565b6101d36101ce36600461152c565b610560565b6040516101829190611629565b61016d6101ee366004611793565b600091825260036020818152604093849020835181559083015160018201559282015160028401556060820151908301556080810151600483015560a00151600590910155565b610178610243366004611545565b61072c565b61025b61025636600461152c565b610783565b60408051938452602084019290925290820152606001610182565b61016d610284366004611ab6565b610ae0565b61017860015481565b6102a56102a036600461152c565b610b20565b6040516101829e9d9c9b9a99989796959493929190611b46565b6102d26102cd36600461152c565b610c70565b6040516101829190611bdf565b6102f26102ed36600461152c565b610d07565b6040516101829796959493929190611c24565b61034b61031336600461152c565b600060208190529081526040902080546001820154600283015460038401546004850154600590950154939492939192909160ff1686565b6040805196875260208701959095529385019290925260608401526080830152151560a082015260c001610182565b610178610388366004611545565b610df3565b61017861039b36600461152c565b50670de0b6b3a764000090565b61016d6103b6366004611c79565b610e12565b61016d6103c9366004611cc0565b6000918252602082815260409283902082518155908201516001820155918101516002830155606081015160038301556080810151600483015560a001516005909101805460ff1916911515919091179055565b61043061042b36600461152c565b610f57565b6040516101829190611d3e565b61017861044b366004611db3565b6110ac565b5050565b600081815260046020908152604080832081516080810183528154815260018201549381018490526002820154928101929092526003015460ff1615156060820152908290670de0b6b3a7640000906104ad9042611e06565b6104b79190611e19565b905060006104cd82678ac7230489e800006111d4565b905081678ac7230489e8000010156104e6578251610537565b610510610505678ac7230489e800006104ff8582611e06565b906111d4565b6040850151906111e9565b61052d61052583670de0b6b3a76400006111fe565b8551906111e9565b6105379190611e30565b604090930183905250909392505050565b60008281526020819052604090206104509082611215565b61056861143c565b60008281526005602081815260409283902083516101c08101855281548152600182015460ff808216151594830194909452610100908190049093161515948101949094526002810154606085015260038101546080850152600481015460a08501529182015460c0840152600682015460e0840152600782015490830152600881018054610120840191906105fd90611e43565b80601f016020809104026020016040519081016040528092919081815260200182805461062990611e43565b80156106765780601f1061064b57610100808354040283529160200191610676565b820191906000526020600020905b81548152906001019060200180831161065957829003601f168201915b505050918352505060098201546001600160a01b0381166020830152604090910190600160a01b900460ff1660058111156106b3576106b36115ad565b60058111156106c4576106c46115ad565b8152600a8201546020808301919091526040805160e081018252600b8501548152600c85015492810192909252600d84015482820152600e8401546060830152600f8401546080830152601084015460a083015260119093015460c082015291015292915050565b6000828152600460205260408120600381015460ff1661074c5782610755565b61075584610454565b60028201819055838255426001808401919091556003909201805460ff191690921790915590505b92915050565b600081815260056020818152604080842081516101c08101835281548152600182015460ff808216151595830195909552610100908190049094161515928101929092526002810154606083015260038101546080830152600481015460a08301529283015460c0820152600683015460e082015260078301549181019190915260088201805484938493849390926101208401919061082290611e43565b80601f016020809104026020016040519081016040528092919081815260200182805461084e90611e43565b801561089b5780601f106108705761010080835404028352916020019161089b565b820191906000526020600020905b81548152906001019060200180831161087e57829003601f168201915b505050918352505060098201546001600160a01b0381166020830152604090910190600160a01b900460ff1660058111156108d8576108d86115ad565b60058111156108e9576108e96115ad565b8152602001600a8201548152602001600b82016040518060e00160405290816000820154815260200160018201548152602001600282015481526020016003820154815260200160048201548152602001600582015481526020016006820154815250508152505090506000808681526020019081526020016000206040518060c001604052908160008201548152602001600182015481526020016002820154815260200160038201548152602001600482015481526020016005820160009054906101000a900460ff16151515158152505073__$f70aadd4e293e4080b94f21db288cf9fb0$__6367d2a8939091836101400151846101a0015160068a815481106109f8576109f8611e7d565b600091825260209182902060016007909202010154604080516318160ddd60e01b815290516001600160a01b03909216926318160ddd926004808401938290030181865afa158015610a4e573d6000803e3d6000fd5b505050506040513d601f19601f82011682018060405250810190610a729190611e93565b6040518563ffffffff1660e01b8152600401610a919493929190611eac565b606060405180830381865af4158015610aae573d6000803e3d6000fd5b505050506040513d601f19601f82011682018060405250810190610ad29190611f1e565b935093509350509193909250565b60008681526020819052604090208581556003810185905560048101879055600501805460ff1916841515179055610b188683610e12565b505050505050565b6005602081905260009182526040909120805460018201546002830154600384015460048501549585015460068601546007870154600888018054979960ff8089169a61010090990416989697959690959190610b7c90611e43565b80601f0160208091040260200160405190810160405280929190818152602001828054610ba890611e43565b8015610bf55780601f10610bca57610100808354040283529160200191610bf5565b820191906000526020600020905b815481529060010190602001808311610bd857829003601f168201915b505050506009830154600a8401546040805160e081018252600b8701548152600c8701546020820152600d87015491810191909152600e8601546060820152600f8601546080820152601086015460a082015260119095015460c086015292936001600160a01b03821693600160a01b90920460ff1692508e565b610cab6040518060c0016040528060008152602001600081526020016000815260200160008152602001600081526020016000151581525090565b5060009081526020818152604091829020825160c08101845281548152600182015492810192909252600281015492820192909252600382015460608201526004820154608082015260059091015460ff16151560a082015290565b60068181548110610d1757600080fd5b600091825260209091206007909102018054600182015460028301546003840180546001600160a01b03948516965092841694939091169291610d5990611e43565b80601f0160208091040260200160405190810160405280929190818152602001828054610d8590611e43565b8015610dd25780601f10610da757610100808354040283529160200191610dd2565b820191906000526020600020905b815481529060010190602001808311610db557829003601f168201915b50505050600483015460058401546006909401549293909290915060ff1687565b6000828152600360205260408120610e0b9083611286565b9392505050565b60008281526005602081815260409283902084518155908401516001820180549486015161ffff1990951691151561ff001916919091176101009415158502179055606084015160028201556080840151600382015560a0840151600482015560c08401519181019190915560e083015160068201559082015160078201556101208201518291906008820190610ea99082611f97565b506101408201516009820180546001600160a01b039092166001600160a01b0319831681178255610160850151926001600160a81b03191617600160a01b836005811115610ef957610ef96115ad565b0217905550610180820151600a8201556101a0909101518051600b8301556020810151600c8301556040810151600d8301556060810151600e8301556080810151600f83015560a0810151601083015560c001516011909101555050565b6040805160e0810182526000808252602082018190529181018290526060808201526080810182905260a0810182905260c081019190915260068281548110610fa257610fa2611e7d565b60009182526020918290206040805160e081018252600790930290910180546001600160a01b039081168452600182015481169484019490945260028101549093169082015260038201805491929160608401919061100090611e43565b80601f016020809104026020016040519081016040528092919081815260200182805461102c90611e43565b80156110795780601f1061104e57610100808354040283529160200191611079565b820191906000526020600020905b81548152906001019060200180831161105c57829003601f168201915b5050509183525050600482015460208201526005820154604082015260069091015460ff16151560609091015292915050565b600680546001810182556000919091528151600782027ff652222313e28459528d920b65115c16c04f3efc82aaedc97be59f3f377c0d3f810180546001600160a01b039384166001600160a01b031991821617825560208601517ff652222313e28459528d920b65115c16c04f3efc82aaedc97be59f3f377c0d408401805491861691831691909117905560408601517ff652222313e28459528d920b65115c16c04f3efc82aaedc97be59f3f377c0d41840180549190951691161790925560608401518492917ff652222313e28459528d920b65115c16c04f3efc82aaedc97be59f3f377c0d4201906111a09082611f97565b506080820151600482015560a0820151600582015560c0909101516006909101805460ff1916911515919091179055919050565b6000610e0b83670de0b6b3a764000084611339565b6000610e0b8383670de0b6b3a7640000611339565b60008183111561120e5781610e0b565b5090919050565b600061125283600101544261122a9190611e06565b670de0b6b3a76400008560020154670de0b6b3a764000061124b9190611e30565b9190611357565b835490915061126190826111e9565b83554260018401556003830154611279908390611415565b8360020181905550505050565b6000808360010154846004015411156112c9576112c28460030154426112ac9190611e06565b8554670de0b6b3a76400009061124b9082611e06565b905061130d565b836002015484600401541015611302576112c28460030154426112ec9190611e06565b8554670de0b6b3a76400009061124b9082611e30565b50670de0b6b3a76400005b600584015461131c90826111e9565b600585018190554260038601556004850184905591505092915050565b600082600019048411830215820261135057600080fd5b5091020490565b60008380156113f75760018416801561137257859250611376565b8392505b508260011c8460011c94505b84156113f1578560801c1561139657600080fd5b858602818101818110156113a957600080fd5b85900496505060018516156113e65785830283878204146113cf5786156113cf57600080fd5b818101818110156113df57600080fd5b8590049350505b8460011c9450611382565b5061140d565b838015611407576000925061140b565b8392505b505b509392505050565b60008082116114325761142d8364013b022bd26111e9565b610e0b565b610e0b83836111e9565b604080516101c08101825260008082526020820181905291810182905260608082018390526080820183905260a0820183905260c0820183905260e0820183905261010082018390526101208201526101408101829052906101608201908152602001600081526020016114e66040518060e00160405280600081526020016000815260200160008152602001600081526020016000815260200160008152602001600081525090565b905290565b803580151581146114fb57600080fd5b919050565b6000806040838503121561151357600080fd5b82359150611523602084016114eb565b90509250929050565b60006020828403121561153e57600080fd5b5035919050565b6000806040838503121561155857600080fd5b50508035926020909101359150565b6000815180845260005b8181101561158d57602081850181015186830182015201611571565b506000602082860101526020601f19601f83011685010191505092915050565b634e487b7160e01b600052602160045260246000fd5b600681106115e157634e487b7160e01b600052602160045260246000fd5b9052565b805182526020810151602083015260408101516040830152606081015160608301526080810151608083015260a081015160a083015260c081015160c08301525050565b602081528151602082015260006020830151611649604084018215159052565b50604083015180151560608401525060608301516080830152608083015160a083015260a083015160c083015260c083015160e083015260e0830151610100818185015280850151915050610120818185015280850151915050610140610280818501526116bb6102a0850183611567565b908501519091506101606116d9858201836001600160a01b03169052565b85015190506101806116ed858201836115c3565b8501516101a085810191909152850151905061140d6101c08501826115e5565b634e487b7160e01b600052604160045260246000fd5b60405160c0810167ffffffffffffffff811182821017156117465761174661170d565b60405290565b60405160e0810167ffffffffffffffff811182821017156117465761174661170d565b6040516101c0810167ffffffffffffffff811182821017156117465761174661170d565b60008082840360e08112156117a757600080fd5b8335925060c0601f19820112156117bd57600080fd5b506117c6611723565b6020840135815260408401356020820152606084013560408201526080840135606082015260a0840135608082015260c084013560a0820152809150509250929050565b600082601f83011261181b57600080fd5b813567ffffffffffffffff808211156118365761183661170d565b604051601f8301601f19908116603f0116810190828211818310171561185e5761185e61170d565b8160405283815286602085880101111561187757600080fd5b836020870160208301376000602085830101528094505050505092915050565b80356001600160a01b03811681146114fb57600080fd5b8035600681106114fb57600080fd5b600060e082840312156118cf57600080fd5b6118d761174c565b9050813581526020820135602082015260408201356040820152606082013560608201526080820135608082015260a082013560a082015260c082013560c082015292915050565b6000610280828403121561193257600080fd5b61193a61176f565b90508135815261194c602083016114eb565b602082015261195d604083016114eb565b6040820152606082013560608201526080820135608082015260a082013560a082015260c082013560c082015260e082013560e08201526101008083013581830152506101208083013567ffffffffffffffff8111156119bc57600080fd5b6119c88582860161180a565b8284015250506101406119dc818401611897565b908201526101606119ee8382016118ae565b9082015261018082810135908201526101a0611a0c848285016118bd565b9082015292915050565b600060e08284031215611a2857600080fd5b611a3061174c565b9050611a3b82611897565b8152611a4960208301611897565b6020820152611a5a60408301611897565b6040820152606082013567ffffffffffffffff811115611a7957600080fd5b611a858482850161180a565b6060830152506080820135608082015260a082013560a0820152611aab60c083016114eb565b60c082015292915050565b60008060008060008060c08789031215611acf57600080fd5b863595506020870135945060408701359350611aed606088016114eb565b9250608087013567ffffffffffffffff80821115611b0a57600080fd5b611b168a838b0161191f565b935060a0890135915080821115611b2c57600080fd5b50611b3989828a01611a16565b9150509295509295509295565b8e81528d151560208201528c151560408201528b60608201528a60808201528960a08201528860c08201528760e0820152866101008201526102806101208201526000611b97610280830188611567565b6001600160a01b0387166101408401529050611bb76101608301866115c3565b83610180830152611bcc6101a08301846115e5565b9f9e505050505050505050505050505050565b60c0810161077d8284805182526020810151602083015260408101516040830152606081015160608301526080810151608083015260a0810151151560a08301525050565b6001600160a01b03888116825287811660208301528616604082015260e060608201819052600090611c5890830187611567565b60808301959095525060a0810192909252151560c090910152949350505050565b60008060408385031215611c8c57600080fd5b82359150602083013567ffffffffffffffff811115611caa57600080fd5b611cb68582860161191f565b9150509250929050565b60008082840360e0811215611cd457600080fd5b8335925060c0601f1982011215611cea57600080fd5b50611cf3611723565b6020840135815260408401356020820152606084013560408201526080840135606082015260a08401356080820152611d2e60c085016114eb565b60a0820152809150509250929050565b60208152600060018060a01b0380845116602084015280602085015116604084015280604085015116606084015250606083015160e06080840152611d87610100840182611567565b9050608084015160a084015260a084015160c084015260c0840151151560e08401528091505092915050565b600060208284031215611dc557600080fd5b813567ffffffffffffffff811115611ddc57600080fd5b611de884828501611a16565b949350505050565b634e487b7160e01b600052601160045260246000fd5b8181038181111561077d5761077d611df0565b808202811582820484141761077d5761077d611df0565b8082018082111561077d5761077d611df0565b600181811c90821680611e5757607f821691505b602082108103611e7757634e487b7160e01b600052602260045260246000fd5b50919050565b634e487b7160e01b600052603260045260246000fd5b600060208284031215611ea557600080fd5b5051919050565b6101e08101611ef28287805182526020810151602083015260408101516040830152606081015160608301526080810151608083015260a0810151151560a08301525050565b6001600160a01b03851660c0830152611f0e60e08301856115e5565b826101c083015295945050505050565b600080600060608486031215611f3357600080fd5b8351925060208401519150604084015190509250925092565b601f821115611f9257600081815260208120601f850160051c81016020861015611f735750805b601f850160051c820191505b81811015610b1857828155600101611f7f565b505050565b815167ffffffffffffffff811115611fb157611fb161170d565b611fc581611fbf8454611e43565b84611f4c565b602080601f831160018114611ffa5760008415611fe25750858301515b600019600386901b1c1916600185901b178555610b18565b600085815260208120601f198616915b828110156120295788860151825594840194600190910190840161200a565b50858210156120475787850151600019600388901b60f8161c191681555b5050505050600190811b0190555056fea26469706673582212200c63cbad1abe3ca518fc424205d656d2efff355ced93d5983a46f2b8c3a59b5464736f6c63430008110033",
    "linkReferences": {
      "contracts/libraries/pricerLib.sol": {
        "PerpTranchePricer": [
          {
            "start": 3244,
            "length": 20
          }
        ]
      }
    }
  },
  "methodIdentifiers": {
    "InstrumentDatas(uint256)": "9521f666",
    "PricingInfos(uint256)": "b81e98e8",
    "TIME_WINDOW()": "2e60d931",
    "getInstrumentData(uint256)": "3bed8f6d",
    "getMarket(uint256)": "eb44fdd3",
    "getPricingInfo(uint256)": "9e474028",
    "lastTradedRate()": "94850867",
    "lastTradedTime()": "1d8dc16b",
    "markets(uint256)": "b1283e77",
    "queryExchangeRateOracle(uint256)": "22a07a15",
    "refreshAndGetNewLTV(uint256,uint256)": "c7b0ce41",
    "refreshPricing(uint256,uint256)": "398f7646",
    "setNewInstrument(uint256,uint256,uint256,bool,(bytes32,bool,bool,uint256,uint256,uint256,uint256,uint256,uint256,string,address,uint8,uint256,(uint256,uint256,uint256,uint256,uint256,uint256,uint256)),(address,address,address,string,uint256,uint256,bool))": "92b8c31e",
    "setPoolPricingParams(uint256,(uint256,uint256,uint256,uint256,uint256,uint256))": "50900374",
    "setRF(uint256,bool)": "1b598348",
    "storeExchangeRateOracle(uint256,uint256)": "5cf21f73",
    "storeNewMarket((address,address,address,string,uint256,uint256,bool))": "f896376a",
    "storeNewProposal(uint256,(bytes32,bool,bool,uint256,uint256,uint256,uint256,uint256,uint256,string,address,uint8,uint256,(uint256,uint256,uint256,uint256,uint256,uint256,uint256)))": "e2d045eb",
    "updatePricingInfo(uint256,(uint256,uint256,uint256,uint256,uint256,bool))": "e8a103fd",
    "viewCurrentPricing(uint256)": "713091a7",
    "zcbMaxPrice(uint256)": "de2b19e1"
  },
  "id": 6
}