{
  "abi": [
    {
      "inputs": [
        {
          "internalType": "address",
          "name": "base",
          "type": "address"
        },
        {
          "internalType": "address",
          "name": "trade",
          "type": "address"
        },
        {
          "internalType": "address",
          "name": "s_trade",
          "type": "address"
        },
        {
          "internalType": "address",
          "name": "_entry",
          "type": "address"
        },
        {
          "internalType": "address",
          "name": "_controller",
          "type": "address"
        }
      ],
      "stateMutability": "nonpayable",
      "type": "constructor"
    },
    {
      "inputs": [],
      "name": "BaseToken",
      "outputs": [
        {
          "internalType": "contract ERC20",
          "name": "",
          "type": "address"
        }
      ],
      "stateMutability": "view",
      "type": "function"
    },
    {
      "inputs": [],
      "name": "PRECISION",
      "outputs": [
        {
          "internalType": "uint256",
          "name": "",
          "type": "uint256"
        }
      ],
      "stateMutability": "view",
      "type": "function"
    },
    {
      "inputs": [],
      "name": "ROUNDLIMIT",
      "outputs": [
        {
          "internalType": "uint256",
          "name": "",
          "type": "uint256"
        }
      ],
      "stateMutability": "view",
      "type": "function"
    },
    {
      "inputs": [],
      "name": "TradeToken",
      "outputs": [
        {
          "internalType": "contract ERC20",
          "name": "",
          "type": "address"
        }
      ],
      "stateMutability": "view",
      "type": "function"
    },
    {
      "inputs": [],
      "name": "a_initial",
      "outputs": [
        {
          "internalType": "uint256",
          "name": "",
          "type": "uint256"
        }
      ],
      "stateMutability": "view",
      "type": "function"
    },
    {
      "inputs": [
        {
          "internalType": "uint128",
          "name": "x",
          "type": "uint128"
        },
        {
          "internalType": "int128",
          "name": "y",
          "type": "int128"
        }
      ],
      "name": "addDelta",
      "outputs": [
        {
          "internalType": "uint128",
          "name": "z",
          "type": "uint128"
        }
      ],
      "stateMutability": "pure",
      "type": "function"
    },
    {
      "inputs": [
        {
          "internalType": "uint256",
          "name": "amount",
          "type": "uint256"
        }
      ],
      "name": "areaBetweenCurveAndMax",
      "outputs": [
        {
          "internalType": "uint256",
          "name": "",
          "type": "uint256"
        }
      ],
      "stateMutability": "view",
      "type": "function"
    },
    {
      "inputs": [],
      "name": "b",
      "outputs": [
        {
          "internalType": "uint256",
          "name": "",
          "type": "uint256"
        }
      ],
      "stateMutability": "view",
      "type": "function"
    },
    {
      "inputs": [],
      "name": "b_initial",
      "outputs": [
        {
          "internalType": "uint256",
          "name": "",
          "type": "uint256"
        }
      ],
      "stateMutability": "view",
      "type": "function"
    },
    {
      "inputs": [
        {
          "internalType": "uint256",
          "name": "p2",
          "type": "uint256"
        },
        {
          "internalType": "uint256",
          "name": "p1",
          "type": "uint256"
        },
        {
          "internalType": "uint256",
          "name": "L",
          "type": "uint256"
        }
      ],
      "name": "baseGivenLiquidity",
      "outputs": [
        {
          "internalType": "uint256",
          "name": "",
          "type": "uint256"
        }
      ],
      "stateMutability": "pure",
      "type": "function"
    },
    {
      "inputs": [],
      "name": "baseToken",
      "outputs": [
        {
          "internalType": "address",
          "name": "",
          "type": "address"
        }
      ],
      "stateMutability": "view",
      "type": "function"
    },
    {
      "inputs": [
        {
          "internalType": "uint256",
          "name": "P",
          "type": "uint256"
        },
        {
          "internalType": "uint256",
          "name": "I",
          "type": "uint256"
        },
        {
          "internalType": "uint256",
          "name": "sigma",
          "type": "uint256"
        },
        {
          "internalType": "uint256",
          "name": "alpha",
          "type": "uint256"
        },
        {
          "internalType": "uint256",
          "name": "delta",
          "type": "uint256"
        }
      ],
      "name": "calculateInitCurveParams",
      "outputs": [],
      "stateMutability": "nonpayable",
      "type": "function"
    },
    {
      "inputs": [
        {
          "internalType": "uint256",
          "name": "saleAmount",
          "type": "uint256"
        },
        {
          "internalType": "uint256",
          "name": "initPrice",
          "type": "uint256"
        },
        {
          "internalType": "uint256",
          "name": "endPrice",
          "type": "uint256"
        },
        {
          "internalType": "uint256",
          "name": "sigma",
          "type": "uint256"
        }
      ],
      "name": "calculateInitCurveParamsPool",
      "outputs": [
        {
          "internalType": "uint256",
          "name": "managementFee",
          "type": "uint256"
        }
      ],
      "stateMutability": "nonpayable",
      "type": "function"
    },
    {
      "inputs": [
        {
          "internalType": "address",
          "name": "recipient",
          "type": "address"
        },
        {
          "internalType": "uint16",
          "name": "point",
          "type": "uint16"
        },
        {
          "internalType": "bool",
          "name": "isAsk",
          "type": "bool"
        }
      ],
      "name": "claimFilledOrder",
      "outputs": [
        {
          "internalType": "uint256",
          "name": "claimedAmount",
          "type": "uint256"
        }
      ],
      "stateMutability": "nonpayable",
      "type": "function"
    },
    {
      "inputs": [
        {
          "internalType": "address",
          "name": "recipient",
          "type": "address"
        },
        {
          "internalType": "uint16",
          "name": "point",
          "type": "uint16"
        },
        {
          "internalType": "bool",
          "name": "isAsk",
          "type": "bool"
        }
      ],
      "name": "claimPartiallyFilledOrder",
      "outputs": [
        {
          "internalType": "uint256",
          "name": "baseAmount",
          "type": "uint256"
        },
        {
          "internalType": "uint256",
          "name": "tradeAmount",
          "type": "uint256"
        }
      ],
      "stateMutability": "nonpayable",
      "type": "function"
    },
    {
      "inputs": [
        {
          "internalType": "address",
          "name": "recipient",
          "type": "address"
        },
        {
          "internalType": "uint16",
          "name": "tickLower",
          "type": "uint16"
        },
        {
          "internalType": "uint16",
          "name": "tickUpper",
          "type": "uint16"
        },
        {
          "internalType": "uint128",
          "name": "amount0Requested",
          "type": "uint128"
        },
        {
          "internalType": "uint128",
          "name": "amount1Requested",
          "type": "uint128"
        }
      ],
      "name": "collect",
      "outputs": [
        {
          "internalType": "uint256",
          "name": "amount0",
          "type": "uint256"
        },
        {
          "internalType": "uint256",
          "name": "amount1",
          "type": "uint256"
        }
      ],
      "stateMutability": "nonpayable",
      "type": "function"
    },
    {
      "inputs": [],
      "name": "controller",
      "outputs": [
        {
          "internalType": "address",
          "name": "",
          "type": "address"
        }
      ],
      "stateMutability": "view",
      "type": "function"
    },
    {
      "inputs": [],
      "name": "discount_cap",
      "outputs": [
        {
          "internalType": "uint256",
          "name": "",
          "type": "uint256"
        }
      ],
      "stateMutability": "view",
      "type": "function"
    },
    {
      "inputs": [],
      "name": "discountedReserves",
      "outputs": [
        {
          "internalType": "uint256",
          "name": "",
          "type": "uint256"
        }
      ],
      "stateMutability": "view",
      "type": "function"
    },
    {
      "inputs": [],
      "name": "entry",
      "outputs": [
        {
          "internalType": "address",
          "name": "",
          "type": "address"
        }
      ],
      "stateMutability": "view",
      "type": "function"
    },
    {
      "inputs": [],
      "name": "factory",
      "outputs": [
        {
          "internalType": "address",
          "name": "",
          "type": "address"
        }
      ],
      "stateMutability": "view",
      "type": "function"
    },
    {
      "inputs": [],
      "name": "fee",
      "outputs": [
        {
          "internalType": "uint24",
          "name": "",
          "type": "uint24"
        }
      ],
      "stateMutability": "view",
      "type": "function"
    },
    {
      "inputs": [],
      "name": "feeGrowthGlobalBase",
      "outputs": [
        {
          "internalType": "uint256",
          "name": "",
          "type": "uint256"
        }
      ],
      "stateMutability": "view",
      "type": "function"
    },
    {
      "inputs": [],
      "name": "feeGrowthGlobalTrade",
      "outputs": [
        {
          "internalType": "uint256",
          "name": "",
          "type": "uint256"
        }
      ],
      "stateMutability": "view",
      "type": "function"
    },
    {
      "inputs": [
        {
          "internalType": "address",
          "name": "flushTo",
          "type": "address"
        },
        {
          "internalType": "uint256",
          "name": "amount",
          "type": "uint256"
        }
      ],
      "name": "flush",
      "outputs": [],
      "stateMutability": "nonpayable",
      "type": "function"
    },
    {
      "inputs": [],
      "name": "getCurPrice",
      "outputs": [
        {
          "internalType": "uint256",
          "name": "",
          "type": "uint256"
        }
      ],
      "stateMutability": "view",
      "type": "function"
    },
    {
      "inputs": [
        {
          "internalType": "address",
          "name": "to",
          "type": "address"
        },
        {
          "internalType": "uint16",
          "name": "point",
          "type": "uint16"
        },
        {
          "internalType": "bool",
          "name": "isAsk",
          "type": "bool"
        }
      ],
      "name": "getLiq",
      "outputs": [
        {
          "internalType": "uint128",
          "name": "",
          "type": "uint128"
        }
      ],
      "stateMutability": "view",
      "type": "function"
    },
    {
      "inputs": [
        {
          "internalType": "uint16",
          "name": "point",
          "type": "uint16"
        },
        {
          "internalType": "uint256",
          "name": "pDelta",
          "type": "uint256"
        },
        {
          "internalType": "bool",
          "name": "moveUp",
          "type": "bool"
        }
      ],
      "name": "getNextPriceLimit",
      "outputs": [
        {
          "internalType": "uint256",
          "name": "",
          "type": "uint256"
        }
      ],
      "stateMutability": "pure",
      "type": "function"
    },
    {
      "inputs": [
        {
          "internalType": "uint16",
          "name": "point",
          "type": "uint16"
        },
        {
          "internalType": "bool",
          "name": "moveUp",
          "type": "bool"
        }
      ],
      "name": "getNumCross",
      "outputs": [
        {
          "internalType": "uint256",
          "name": "",
          "type": "uint256"
        }
      ],
      "stateMutability": "view",
      "type": "function"
    },
    {
      "inputs": [
        {
          "internalType": "uint16",
          "name": "point",
          "type": "uint16"
        },
        {
          "internalType": "bool",
          "name": "moveUp",
          "type": "bool"
        }
      ],
      "name": "getOneTimeLiquidity",
      "outputs": [
        {
          "internalType": "uint256",
          "name": "",
          "type": "uint256"
        }
      ],
      "stateMutability": "view",
      "type": "function"
    },
    {
      "inputs": [],
      "name": "liquidity",
      "outputs": [
        {
          "internalType": "uint128",
          "name": "",
          "type": "uint128"
        }
      ],
      "stateMutability": "view",
      "type": "function"
    },
    {
      "inputs": [
        {
          "internalType": "uint256",
          "name": "p2",
          "type": "uint256"
        },
        {
          "internalType": "uint256",
          "name": "p1",
          "type": "uint256"
        },
        {
          "internalType": "uint256",
          "name": "B",
          "type": "uint256"
        }
      ],
      "name": "liquidityGivenBase",
      "outputs": [
        {
          "internalType": "uint256",
          "name": "",
          "type": "uint256"
        }
      ],
      "stateMutability": "pure",
      "type": "function"
    },
    {
      "inputs": [
        {
          "internalType": "uint256",
          "name": "p2",
          "type": "uint256"
        },
        {
          "internalType": "uint256",
          "name": "p1",
          "type": "uint256"
        },
        {
          "internalType": "uint256",
          "name": "T",
          "type": "uint256"
        }
      ],
      "name": "liquidityGivenTrade",
      "outputs": [
        {
          "internalType": "uint256",
          "name": "",
          "type": "uint256"
        }
      ],
      "stateMutability": "pure",
      "type": "function"
    },
    {
      "inputs": [],
      "name": "lock",
      "outputs": [],
      "stateMutability": "nonpayable",
      "type": "function"
    },
    {
      "inputs": [
        {
          "internalType": "uint16",
          "name": "point",
          "type": "uint16"
        },
        {
          "internalType": "bool",
          "name": "isLong",
          "type": "bool"
        },
        {
          "internalType": "address",
          "name": "recipient",
          "type": "address"
        }
      ],
      "name": "makerClaimClose",
      "outputs": [
        {
          "internalType": "uint256",
          "name": "claimedAmount",
          "type": "uint256"
        }
      ],
      "stateMutability": "nonpayable",
      "type": "function"
    },
    {
      "inputs": [
        {
          "internalType": "uint16",
          "name": "point",
          "type": "uint16"
        },
        {
          "internalType": "bool",
          "name": "isLong",
          "type": "bool"
        },
        {
          "internalType": "address",
          "name": "recipient",
          "type": "address"
        }
      ],
      "name": "makerClaimOpen",
      "outputs": [
        {
          "internalType": "uint256",
          "name": "claimedAmount",
          "type": "uint256"
        }
      ],
      "stateMutability": "nonpayable",
      "type": "function"
    },
    {
      "inputs": [
        {
          "internalType": "uint16",
          "name": "point",
          "type": "uint16"
        },
        {
          "internalType": "uint256",
          "name": "amount",
          "type": "uint256"
        },
        {
          "internalType": "bool",
          "name": "isLong",
          "type": "bool"
        },
        {
          "internalType": "address",
          "name": "recipient",
          "type": "address"
        }
      ],
      "name": "makerClose",
      "outputs": [
        {
          "internalType": "uint256",
          "name": "toEscrowAmount",
          "type": "uint256"
        },
        {
          "internalType": "uint128",
          "name": "crossId",
          "type": "uint128"
        }
      ],
      "stateMutability": "nonpayable",
      "type": "function"
    },
    {
      "inputs": [
        {
          "internalType": "uint16",
          "name": "point",
          "type": "uint16"
        },
        {
          "internalType": "uint256",
          "name": "amount",
          "type": "uint256"
        },
        {
          "internalType": "bool",
          "name": "isLong",
          "type": "bool"
        },
        {
          "internalType": "address",
          "name": "recipient",
          "type": "address"
        }
      ],
      "name": "makerOpen",
      "outputs": [
        {
          "internalType": "uint256",
          "name": "toEscrowAmount",
          "type": "uint256"
        },
        {
          "internalType": "uint128",
          "name": "crossId",
          "type": "uint128"
        }
      ],
      "stateMutability": "nonpayable",
      "type": "function"
    },
    {
      "inputs": [
        {
          "internalType": "uint16",
          "name": "point",
          "type": "uint16"
        },
        {
          "internalType": "bool",
          "name": "isLong",
          "type": "bool"
        },
        {
          "internalType": "bool",
          "name": "open",
          "type": "bool"
        },
        {
          "internalType": "address",
          "name": "recipient",
          "type": "address"
        }
      ],
      "name": "makerPartiallyClaim",
      "outputs": [
        {
          "internalType": "uint256",
          "name": "baseAmount",
          "type": "uint256"
        },
        {
          "internalType": "uint256",
          "name": "tradeAmount",
          "type": "uint256"
        }
      ],
      "stateMutability": "nonpayable",
      "type": "function"
    },
    {
      "inputs": [
        {
          "internalType": "uint16",
          "name": "point",
          "type": "uint16"
        },
        {
          "internalType": "uint256",
          "name": "amount",
          "type": "uint256"
        },
        {
          "internalType": "bool",
          "name": "isLong",
          "type": "bool"
        },
        {
          "internalType": "address",
          "name": "recipient",
          "type": "address"
        }
      ],
      "name": "makerReduceClose",
      "outputs": [],
      "stateMutability": "nonpayable",
      "type": "function"
    },
    {
      "inputs": [
        {
          "internalType": "uint16",
          "name": "point",
          "type": "uint16"
        },
        {
          "internalType": "uint256",
          "name": "amount",
          "type": "uint256"
        },
        {
          "internalType": "bool",
          "name": "isLong",
          "type": "bool"
        },
        {
          "internalType": "address",
          "name": "recipient",
          "type": "address"
        }
      ],
      "name": "makerReduceOpen",
      "outputs": [],
      "stateMutability": "nonpayable",
      "type": "function"
    },
    {
      "inputs": [],
      "name": "maxPrice",
      "outputs": [
        {
          "internalType": "uint256",
          "name": "",
          "type": "uint256"
        }
      ],
      "stateMutability": "view",
      "type": "function"
    },
    {
      "inputs": [],
      "name": "owner",
      "outputs": [
        {
          "internalType": "address",
          "name": "",
          "type": "address"
        }
      ],
      "stateMutability": "view",
      "type": "function"
    },
    {
      "inputs": [
        {
          "internalType": "address",
          "name": "recipient",
          "type": "address"
        },
        {
          "internalType": "uint16",
          "name": "point",
          "type": "uint16"
        },
        {
          "internalType": "uint128",
          "name": "amount",
          "type": "uint128"
        },
        {
          "internalType": "bool",
          "name": "isAsk",
          "type": "bool"
        }
      ],
      "name": "placeLimitOrder",
      "outputs": [
        {
          "internalType": "uint256",
          "name": "amountToEscrow",
          "type": "uint256"
        },
        {
          "internalType": "uint128",
          "name": "numCross",
          "type": "uint128"
        }
      ],
      "stateMutability": "nonpayable",
      "type": "function"
    },
    {
      "inputs": [
        {
          "internalType": "uint16",
          "name": "point",
          "type": "uint16"
        }
      ],
      "name": "pointToPrice",
      "outputs": [
        {
          "internalType": "uint160",
          "name": "",
          "type": "uint160"
        }
      ],
      "stateMutability": "pure",
      "type": "function"
    },
    {
      "inputs": [
        {
          "internalType": "address",
          "name": "recipient",
          "type": "address"
        },
        {
          "internalType": "uint16",
          "name": "point",
          "type": "uint16"
        },
        {
          "internalType": "bool",
          "name": "isAsk",
          "type": "bool"
        }
      ],
      "name": "positionIsFilled",
      "outputs": [
        {
          "internalType": "bool",
          "name": "",
          "type": "bool"
        }
      ],
      "stateMutability": "view",
      "type": "function"
    },
    {
      "inputs": [
        {
          "internalType": "bytes32",
          "name": "",
          "type": "bytes32"
        }
      ],
      "name": "positions",
      "outputs": [
        {
          "internalType": "uint128",
          "name": "bidCrossId",
          "type": "uint128"
        },
        {
          "internalType": "uint128",
          "name": "askCrossId",
          "type": "uint128"
        },
        {
          "internalType": "uint128",
          "name": "askLiq",
          "type": "uint128"
        },
        {
          "internalType": "uint128",
          "name": "bidLiq",
          "type": "uint128"
        },
        {
          "internalType": "uint128",
          "name": "liquidity",
          "type": "uint128"
        },
        {
          "internalType": "uint256",
          "name": "feeGrowthInside0LastX128",
          "type": "uint256"
        },
        {
          "internalType": "uint256",
          "name": "feeGrowthInside1LastX128",
          "type": "uint256"
        },
        {
          "internalType": "uint256",
          "name": "tokensOwed0",
          "type": "uint256"
        },
        {
          "internalType": "uint256",
          "name": "tokensOwed1",
          "type": "uint256"
        }
      ],
      "stateMutability": "view",
      "type": "function"
    },
    {
      "inputs": [],
      "name": "precision",
      "outputs": [
        {
          "internalType": "uint256",
          "name": "",
          "type": "uint256"
        }
      ],
      "stateMutability": "view",
      "type": "function"
    },
    {
      "inputs": [],
      "name": "priceDelta",
      "outputs": [
        {
          "internalType": "uint256",
          "name": "",
          "type": "uint256"
        }
      ],
      "stateMutability": "view",
      "type": "function"
    },
    {
      "inputs": [
        {
          "internalType": "uint256",
          "name": "price",
          "type": "uint256"
        }
      ],
      "name": "priceToPoint",
      "outputs": [
        {
          "internalType": "uint16",
          "name": "",
          "type": "uint16"
        }
      ],
      "stateMutability": "pure",
      "type": "function"
    },
    {
      "inputs": [
        {
          "internalType": "address",
          "name": "recipient",
          "type": "address"
        },
        {
          "internalType": "uint16",
          "name": "pointLower",
          "type": "uint16"
        },
        {
          "internalType": "uint16",
          "name": "pointUpper",
          "type": "uint16"
        },
        {
          "internalType": "uint128",
          "name": "amount",
          "type": "uint128"
        },
        {
          "internalType": "bytes",
          "name": "data",
          "type": "bytes"
        }
      ],
      "name": "provide",
      "outputs": [
        {
          "internalType": "uint256",
          "name": "amount0",
          "type": "uint256"
        },
        {
          "internalType": "uint256",
          "name": "amount1",
          "type": "uint256"
        }
      ],
      "stateMutability": "nonpayable",
      "type": "function"
    },
    {
      "inputs": [
        {
          "internalType": "address",
          "name": "recipient",
          "type": "address"
        },
        {
          "internalType": "uint16",
          "name": "point",
          "type": "uint16"
        },
        {
          "internalType": "uint128",
          "name": "amount",
          "type": "uint128"
        },
        {
          "internalType": "bool",
          "name": "isAsk",
          "type": "bool"
        }
      ],
      "name": "reduceLimitOrder",
      "outputs": [
        {
          "internalType": "uint256",
          "name": "amountToReturn",
          "type": "uint256"
        }
      ],
      "stateMutability": "nonpayable",
      "type": "function"
    },
    {
      "inputs": [
        {
          "internalType": "address",
          "name": "recipient",
          "type": "address"
        },
        {
          "internalType": "uint16",
          "name": "pointLower",
          "type": "uint16"
        },
        {
          "internalType": "uint16",
          "name": "pointUpper",
          "type": "uint16"
        },
        {
          "internalType": "uint128",
          "name": "amount",
          "type": "uint128"
        }
      ],
      "name": "remove",
      "outputs": [
        {
          "internalType": "uint256",
          "name": "",
          "type": "uint256"
        },
        {
          "internalType": "uint256",
          "name": "",
          "type": "uint256"
        }
      ],
      "stateMutability": "nonpayable",
      "type": "function"
    },
    {
      "inputs": [],
      "name": "resetLiq",
      "outputs": [],
      "stateMutability": "nonpayable",
      "type": "function"
    },
    {
      "inputs": [],
      "name": "s_tradeToken",
      "outputs": [
        {
          "internalType": "contract ERC20",
          "name": "",
          "type": "address"
        }
      ],
      "stateMutability": "view",
      "type": "function"
    },
    {
      "inputs": [
        {
          "internalType": "address",
          "name": "_entry",
          "type": "address"
        }
      ],
      "name": "setEntry",
      "outputs": [],
      "stateMutability": "nonpayable",
      "type": "function"
    },
    {
      "inputs": [],
      "name": "slot0",
      "outputs": [
        {
          "internalType": "uint160",
          "name": "curPrice",
          "type": "uint160"
        },
        {
          "internalType": "uint16",
          "name": "point",
          "type": "uint16"
        },
        {
          "internalType": "uint8",
          "name": "feeProtocol",
          "type": "uint8"
        },
        {
          "internalType": "bool",
          "name": "unlocked",
          "type": "bool"
        },
        {
          "internalType": "bool",
          "name": "amortized",
          "type": "bool"
        },
        {
          "internalType": "uint16",
          "name": "modifyLiqPoint",
          "type": "uint16"
        }
      ],
      "stateMutability": "view",
      "type": "function"
    },
    {
      "inputs": [
        {
          "internalType": "bool",
          "name": "isLong",
          "type": "bool"
        },
        {
          "internalType": "int256",
          "name": "amountIn",
          "type": "int256"
        },
        {
          "internalType": "uint256",
          "name": "priceLimit",
          "type": "uint256"
        },
        {
          "internalType": "bytes",
          "name": "data",
          "type": "bytes"
        }
      ],
      "name": "takerClose",
      "outputs": [
        {
          "internalType": "uint256",
          "name": "poolamountIn",
          "type": "uint256"
        },
        {
          "internalType": "uint256",
          "name": "poolamountOut",
          "type": "uint256"
        }
      ],
      "stateMutability": "nonpayable",
      "type": "function"
    },
    {
      "inputs": [
        {
          "internalType": "bool",
          "name": "isLong",
          "type": "bool"
        },
        {
          "internalType": "int256",
          "name": "amountIn",
          "type": "int256"
        },
        {
          "internalType": "uint256",
          "name": "priceLimit",
          "type": "uint256"
        },
        {
          "internalType": "bytes",
          "name": "data",
          "type": "bytes"
        }
      ],
      "name": "takerOpen",
      "outputs": [
        {
          "internalType": "uint256",
          "name": "poolamountIn",
          "type": "uint256"
        },
        {
          "internalType": "uint256",
          "name": "poolamountOut",
          "type": "uint256"
        }
      ],
      "stateMutability": "nonpayable",
      "type": "function"
    },
    {
      "inputs": [],
      "name": "tickSpacing",
      "outputs": [
        {
          "internalType": "int24",
          "name": "",
          "type": "int24"
        }
      ],
      "stateMutability": "view",
      "type": "function"
    },
    {
      "inputs": [
        {
          "internalType": "uint16",
          "name": "",
          "type": "uint16"
        }
      ],
      "name": "ticks",
      "outputs": [
        {
          "internalType": "uint128",
          "name": "liquidityGross",
          "type": "uint128"
        },
        {
          "internalType": "int128",
          "name": "liquidityNet",
          "type": "int128"
        },
        {
          "internalType": "uint256",
          "name": "feeGrowthOutsideBase",
          "type": "uint256"
        },
        {
          "internalType": "uint256",
          "name": "feeGrowthOutsideTrade",
          "type": "uint256"
        },
        {
          "internalType": "int56",
          "name": "tickCumulativeOutside",
          "type": "int56"
        },
        {
          "internalType": "uint160",
          "name": "secondsPerLiquidityOutsideX128",
          "type": "uint160"
        },
        {
          "internalType": "uint32",
          "name": "secondsOutside",
          "type": "uint32"
        },
        {
          "internalType": "bool",
          "name": "initialized",
          "type": "bool"
        },
        {
          "internalType": "uint128",
          "name": "askLiquidityGross",
          "type": "uint128"
        },
        {
          "internalType": "uint128",
          "name": "bidLiquidityGross",
          "type": "uint128"
        },
        {
          "internalType": "uint128",
          "name": "askNumCross",
          "type": "uint128"
        },
        {
          "internalType": "uint128",
          "name": "bidNumCross",
          "type": "uint128"
        }
      ],
      "stateMutability": "view",
      "type": "function"
    },
    {
      "inputs": [
        {
          "internalType": "address",
          "name": "recipient",
          "type": "address"
        },
        {
          "internalType": "bool",
          "name": "moveUp",
          "type": "bool"
        },
        {
          "internalType": "int256",
          "name": "amountSpecified",
          "type": "int256"
        },
        {
          "internalType": "uint256",
          "name": "priceLimit",
          "type": "uint256"
        },
        {
          "internalType": "bytes",
          "name": "data",
          "type": "bytes"
        }
      ],
      "name": "trade",
      "outputs": [
        {
          "internalType": "uint256",
          "name": "amountIn",
          "type": "uint256"
        },
        {
          "internalType": "uint256",
          "name": "amountOut",
          "type": "uint256"
        }
      ],
      "stateMutability": "nonpayable",
      "type": "function"
    },
    {
      "inputs": [
        {
          "internalType": "uint256",
          "name": "p2",
          "type": "uint256"
        },
        {
          "internalType": "uint256",
          "name": "p1",
          "type": "uint256"
        },
        {
          "internalType": "uint256",
          "name": "L",
          "type": "uint256"
        }
      ],
      "name": "tradeGivenLiquidity",
      "outputs": [
        {
          "internalType": "uint256",
          "name": "",
          "type": "uint256"
        }
      ],
      "stateMutability": "pure",
      "type": "function"
    },
    {
      "inputs": [],
      "name": "tradeToken",
      "outputs": [
        {
          "internalType": "address",
          "name": "",
          "type": "address"
        }
      ],
      "stateMutability": "view",
      "type": "function"
    },
    {
      "inputs": [
        {
          "internalType": "address",
          "name": "trader",
          "type": "address"
        },
        {
          "internalType": "uint256",
          "name": "amount",
          "type": "uint256"
        },
        {
          "internalType": "bool",
          "name": "long",
          "type": "bool"
        }
      ],
      "name": "trustedBurn",
      "outputs": [],
      "stateMutability": "nonpayable",
      "type": "function"
    },
    {
      "inputs": [
        {
          "internalType": "address",
          "name": "receiver",
          "type": "address"
        },
        {
          "internalType": "uint256",
          "name": "amount",
          "type": "uint256"
        }
      ],
      "name": "trustedDiscountedMint",
      "outputs": [],
      "stateMutability": "nonpayable",
      "type": "function"
    },
    {
      "inputs": [],
      "name": "upperBound",
      "outputs": [
        {
          "internalType": "uint256",
          "name": "",
          "type": "uint256"
        }
      ],
      "stateMutability": "view",
      "type": "function"
    },
    {
      "inputs": [
        {
          "internalType": "uint256",
          "name": "curPrice",
          "type": "uint256"
        },
        {
          "internalType": "uint256",
          "name": "b",
          "type": "uint256"
        },
        {
          "internalType": "uint256",
          "name": "a",
          "type": "uint256"
        }
      ],
      "name": "xMax",
      "outputs": [
        {
          "internalType": "uint256",
          "name": "",
          "type": "uint256"
        }
      ],
      "stateMutability": "pure",
      "type": "function"
    },
    {
      "inputs": [
        {
          "internalType": "uint256",
          "name": "curPrice",
          "type": "uint256"
        },
        {
          "internalType": "uint256",
          "name": "b",
          "type": "uint256"
        },
        {
          "internalType": "uint256",
          "name": "a",
          "type": "uint256"
        }
      ],
      "name": "xMaxRoundUp",
      "outputs": [
        {
          "internalType": "uint256",
          "name": "",
          "type": "uint256"
        }
      ],
      "stateMutability": "pure",
      "type": "function"
    },
    {
      "inputs": [
        {
          "internalType": "uint256",
          "name": "curPrice",
          "type": "uint256"
        },
        {
          "internalType": "bool",
          "name": "moveUp",
          "type": "bool"
        }
      ],
      "name": "yInt",
      "outputs": [
        {
          "internalType": "uint256",
          "name": "",
          "type": "uint256"
        }
      ],
      "stateMutability": "pure",
      "type": "function"
    }
  ],
  "bytecode": {
    "object": "0x6101806040523480156200001257600080fd5b5060405162005afa38038062005afa833981016040819052620000359162000120565b6001600160a01b0380851660e052851661010052600060a081905260c0819052610120819052859085908590838362000078670de0b6b3a7640000606462000190565b600280546001600160801b0319166001600160801b0392909216919091179055505033608052600980546001600160a01b03199081166001600160a01b0396871617909155600a8054821694861694909417909355600b80548416928516929092179091551515610140526005805490911693821693909317909255166101605250620001ca915050565b80516001600160a01b03811681146200011b57600080fd5b919050565b600080600080600060a086880312156200013957600080fd5b620001448662000103565b9450620001546020870162000103565b9350620001646040870162000103565b9250620001746060870162000103565b9150620001846080870162000103565b90509295509295909350565b6001600160801b03818116838216028082169190828114620001c257634e487b7160e01b600052601160045260246000fd5b505092915050565b60805160a05160c05160e051610100516101205161014051610160516158766200028460003960008181610bf20152818161231701528181612de60152818161301f0152613476015260008181611d7b01528181611f820152818161285d01526128dc01526000610af7015260008181610abd015281816119120152611c24015260008181610b31015281816119380152611c4a01526000610a96015260008181610b5801526110300152600061083e01526158766000f3fe608060405234801561001057600080fd5b50600436106104115760003560e01c80638ce2699911610220578063b501c28411610130578063df99f8bf116100b8578063e7ca189a11610087578063e7ca189a14610bc7578063f0bb81b314610bda578063f77c479114610bed578063f83d08ba14610c14578063f9734a2414610c1c57600080fd5b8063df99f8bf14610b8e578063e37699c914610ba1578063e38d6b5c146108f8578063e7c3614f14610bb457600080fd5b8063c93ac3ed116100ff578063c93ac3ed14610adf578063d0c93a7c14610af2578063d3b5dc3b146108f8578063d83678ac14610b2c578063ddca3f4314610b5357600080fd5b8063b501c2841461095c578063b9033a391461096f578063c45a015514610a91578063c55dae6314610ab857600080fd5b80639c9d7d3f116101b3578063ac4bc1cb11610182578063ac4bc1cb14610907578063af0d37bc1461091a578063b04a69fd1461092d578063b09ad8a014610940578063b29d9b6e1461094957600080fd5b80639c9d7d3f146108bf578063a1217e7d146108d2578063a74d74d4146108e5578063aaf5eb68146108f857600080fd5b80639314b03f116101ef5780639314b03f14610873578063957343f01461088657806396fd1c42146108995780639b608089146108ac57600080fd5b80638ce269991461081e5780638d01450f146108315780638da5cb5b1461083957806390f817021461086057600080fd5b8063402d44fb11610326578063659a544a116102ae5780636e2f7ad31161027d5780636e2f7ad3146107c35780636ed75596146107cc5780637063b06c146107ef5780637f1d9ae6146107f857806380c0c3e71461080b57600080fd5b8063659a544a1461078157806367f239dd1461078a57806368087cc31461079d578063681504cd146107b057600080fd5b80634df7e3d0116102f55780634df7e3d014610688578063514ea4bf14610691578063556769ba14610757578063558bdb291461076a5780635bfa896a1461077357600080fd5b8063402d44fb1461063a57806342b6c9fb1461064d57806342bc5292146106605780634a3ca7171461067557600080fd5b80631816eb13116103a95780632353b18e116103785780632353b18e1461054b578063244d59cb1461057157806332530d7f1461058457806334327d8b146105975780633850c7bd146105aa57600080fd5b80631816eb13146104de5780631a686502146104e75780631d2637ab146105125780632130ce0d1461051b57600080fd5b806311e715d6116103e557806311e715d6146104945780631376ff3e146104af57806314e2b929146104c2578063159054ea146104d557600080fd5b80624b2045146104165780630821671214610443578063098bcc561461045657806310f2222114610469575b600080fd5b610429610424366004614e97565b610c2f565b604080519283526020830191909152015b60405180910390f35b610429610451366004614f25565b611595565b610429610464366004614f96565b6116cd565b600b5461047c906001600160a01b031681565b6040516001600160a01b03909116815260200161043a565b6001546001600160a01b03165b60405190815260200161043a565b6104a16104bd366004614ffd565b6117e8565b6104a16104d036600461504a565b6119ef565b6104a161271081565b6104a160105481565b6002546104fa906001600160801b031681565b6040516001600160801b03909116815260200161043a565b6104a160075481565b61052e610529366004614ffd565b611ab1565b604080519283526001600160801b0390911660208301520161043a565b61055e61055936600461504a565b611d30565b60405161ffff909116815260200161043a565b61042961057f366004615063565b611d5c565b6104296105923660046150cd565b6120e8565b6104a16105a5366004615116565b61230a565b6001546105f5906001600160a01b0381169061ffff600160a01b820481169160ff600160b01b8204811692600160b81b8304821692600160c01b810490921691600160c81b90041686565b604080516001600160a01b03909716875261ffff958616602088015260ff909416938601939093529015156060850152151560808401521660a082015260c00161043a565b6104fa610648366004615148565b612542565b6104a161065b3660046150cd565b612602565b61067361066e366004615185565b6127d5565b005b6104a16106833660046151a2565b612821565b6104a1600e5481565b6106fc61069f36600461504a565b600460208190526000918252604090912080546001820154600283015460038401549484015460058501546006909501546001600160801b0380861697600160801b96879004821697828716979096048216959190941693929189565b604080516001600160801b039a8b168152988a1660208a015296891696880196909652938716606087015295909116608085015260a084015260c083019390935260e08201929092526101008101919091526101200161043a565b610429610765366004615063565b61283e565b6104a1600d5481565b6104a1662386f26fc1000081565b6104a160065481565b60055461047c906001600160a01b031681565b61052e6107ab3660046151ce565b612939565b6106736107be366004615204565b612b17565b6104a1600c5481565b6107df6107da3660046150cd565b612bc0565b604051901515815260200161043a565b6104a1600f5481565b610429610806366004615230565b612c79565b6104a1610819366004615286565b612d7e565b61047c61082c3660046152b2565b612dbc565b610673612ddb565b61047c7f000000000000000000000000000000000000000000000000000000000000000081565b60095461047c906001600160a01b031681565b6104a1610881366004615286565b612e4d565b6106736108943660046151ce565b612e63565b6106736108a7366004615204565b613014565b6104fa6108ba3660046150cd565b61311a565b6106736108cd3660046151ce565b61316f565b6104a16108e03660046152cd565b6132a7565b6104a16108f336600461530b565b613413565b6104a1670de0b6b3a764000081565b610673610915366004615330565b61346b565b61042961092836600461536b565b6136a2565b6104a161093b366004615286565b613799565b6104a160115481565b6104a1610957366004615286565b6137cf565b6104a161096a3660046153d5565b6137f6565b610a0d61097d3660046152b2565b60036020819052600091825260409091208054600182015460028301549383015460048401546005909401546001600160801b0380851696600160801b95869004600f0b9694959094600685900b94600160381b81046001600160a01b031694600160d81b820463ffffffff1694600160f81b90920460ff1693828416938190048316928083169291909104168c565b604080516001600160801b039d8e168152600f9c909c0b60208d01528b019990995260608a019790975260069590950b60808901526001600160a01b0390931660a088015263ffffffff90911660c0870152151560e0860152851661010085015284166101208401528316610140830152919091166101608201526101800161043a565b61047c7f000000000000000000000000000000000000000000000000000000000000000081565b61047c7f000000000000000000000000000000000000000000000000000000000000000081565b610673610aed36600461540a565b61382d565b610b197f000000000000000000000000000000000000000000000000000000000000000081565b60405160029190910b815260200161043a565b61047c7f000000000000000000000000000000000000000000000000000000000000000081565b610b7a7f000000000000000000000000000000000000000000000000000000000000000081565b60405162ffffff909116815260200161043a565b600a5461047c906001600160a01b031681565b6104a1610baf3660046151a2565b6138f8565b6104a1610bc2366004615286565b613906565b61052e610bd53660046151ce565b61394e565b6104a1610be83660046152cd565b613a26565b61047c7f000000000000000000000000000000000000000000000000000000000000000081565b610673613b5a565b6104a1610c2a366004615286565b613ba5565b60055460009081906001600160a01b03163314610c675760405162461bcd60e51b8152600401610c5e9061542a565b60405180910390fd5b60005460ff1615610c8a5760405162461bcd60e51b8152600401610c5e9061544d565b6000805460ff1916600117905560408051808201909152600f81526e2d2d2d4e65772054726164652d2d2d60881b6020820152610cc690613c6b565b6040805160c0810182526001546001600160a01b03808216835261ffff600160a01b83048116602080860182905260ff600160b01b8604811687890152600160b81b860481161515606080890191909152600160c01b87049091161515608080890191909152600160c81b90960490931660a08701528651610100810188528d81526000918101829052865190941696840196909652908201529192662386f26fc1000092909181018b610d7c57600754610d80565b6006545b8152600060208083018290526002546001600160801b03166040808501829052606094850191909152805193840181528284529083018290528281018290528301519293509091908b1390610dd59085613cb1565b8015610ddf57508b155b15610e2f57600183604001818151610df79190615488565b9052506040830151610e0890611d30565b61ffff16606084018190526001805461ffff60a01b1916600160a01b830217905560208601525b8b610e415782604001518a1115610e4a565b82604001518a10155b610e825760405162461bcd60e51b8152602060048201526009602482015268383634b6b4ba22a92960b91b6044820152606401610c5e565b610e8e61082c8b611d30565b6001600160a01b031699505b825115801590610eae575089836040015114155b1561142f57610f0a60405180610100016040528060008152602001600061ffff1681526020016000151581526020016000815260200160008152602001600081526020016000815260200160006001600160801b031681525090565b604084015181526060840151610f2190868f6137f6565b60608201528c610f415760018460600151610f3c919061549b565b610f51565b6060840151610f519060016154bd565b61ffff1660208201526060840151610f6b90600390613cc5565b6001600160801b031660e082015281610fa857610fa38160e001518560c00151610f9591906154d8565b6001600160801b0316613dd4565b610fcd565b610fcd8160e001518560c00151610fbf91906154d8565b6001600160801b0316613e0b565b83526040840151610fde908e613413565b60408085018290528501518451610ff592906137cf565b60208401908152604085810151606084015187518351631922027560e11b815260048101939093526024830191909152604482015262ffffff7f000000000000000000000000000000000000000000000000000000000000000016606482015285516084820152915160a483015284015160c482015273__$7f722a1af7b4060aab6915c87e2e2208cb$__9063324404ea9060e401608060405180830381865af41580156110a7573d6000803e3d6000fd5b505050506040513d601f19601f820116820180604052508101906110cb91906154f8565b60c085015260a08401526080830152604080860191909152805180820190915260088152675f5f5f5f5f5f5f5f60c01b602082015261110990613c6b565b61113760405180604001604052806008815260200167435552505249434560c01b8152508560400151613e42565b6111836040518060400160405280601e81526020017f74726164696e673b206c69717569646974792c20616d6f756e746c65667400008152508560c001516001600160801b0316613e42565b835161118e90613e87565b6111da6040518060400160405280601881526020017f6e65787470726963656c696d69742f706f696e746e65787400000000000000008152508260600151836020015161ffff16613ecc565b611201604051806040016040528060018152602001606160f81b8152508460000151613e42565b61123a6040518060400160405280600e81526020016d185b5bdd5b9d1a5b985b991bdd5d60921b81525082608001518360a00151613ecc565b6112686040518060400160405280600381526020016239963160e91b81525084602001518560400151613ecc565b811561128a5760808101518451859061128290839061552e565b9052506112a2565b60808101518451859061129e90839061554e565b9052505b8060a00151846020018181516112b89190615488565b90525060c08401516001600160801b0316156112ff5760c080850151908201516112ea916001600160801b0316613f13565b846080018181516112fb9190615488565b9052505b80606001518460400151036114295760e08101516001600160801b031615611333576060840151611333906003908f613f28565b602081015160065460075460009261134d9260039261401f565b9050866080015115801561137057508660a0015161ffff16826020015161ffff16145b1561139e5760208083015161ffff1660009081526008909152604090205461139b90600f0b82615576565b90505b604080518082018252600a81526964796e616d69634c697160b01b6020808301919091528481015161ffff166000908152600890915291909120546113ec9190600f90810b9084900b613ecc565b8d6113fd576113fa816155ac565b90505b61140b8560c0015182612542565b6001600160801b031660c086015250602081015161ffff1660608501525b50610e9a565b61143c8360400151614072565b600180546001600160a01b0319166001600160a01b03929092169190911790556020850151606084015161ffff9182169116146114995760608301516001805461ffff909216600160a01b0261ffff60a01b199092169190911790555b8260c001516001600160801b03168360e001516001600160801b0316146114df5760c0830151600280546001600160801b0319166001600160801b039092169190911790555b8b156114ee5760808301516006555b8061151f5761271083602001516115059190615488565b83516115108d6155d2565b61151a919061554e565b61154c565b8b61153a578251611530908c61552e565b836020015161154c565b8251611546908c61552e565b83602001515b6040805180820190915260038152623f3f3f60e81b60208201528551929950909750611578918d613ecc565b50506000805460ff19169055509299919850909650505050505050565b60008083156115c65784156115ba576115b0838760006120e8565b90925090506115ea565b6115b0838760016120e8565b84156115d8576115b0838760016120e8565b6115e4838760006120e8565b90925090505b60095460405163a9059cbb60e01b81526001600160a01b039091169063a9059cbb9061161c90869086906004016155ee565b6020604051808303816000875af115801561163b573d6000803e3d6000fd5b505050506040513d601f19601f8201168201806040525081019061165f9190615607565b50600a546040516340c10f1960e01b81526001600160a01b03909116906340c10f199061169290869085906004016155ee565b600060405180830381600087803b1580156116ac57600080fd5b505af11580156116c0573d6000803e3d6000fd5b5050505094509492505050565b60055460009081906001600160a01b031633146116fc5760405162461bcd60e51b8152600401610c5e9061542a565b60005460ff161561171f5760405162461bcd60e51b8152600401610c5e9061544d565b6000805460ff19166001178155611739600433898961408d565b90508060050154856001600160801b03161161175e57846001600160801b0316611764565b80600501545b92508060060154846001600160801b03161161178957836001600160801b031661178f565b80600601545b915082156117b157828160050160008282546117ab9190615624565b90915550505b81156117d157818160060160008282546117cb9190615624565b90915550505b506000805460ff1916905590969095509350505050565b6005546000906001600160a01b031633146118155760405162461bcd60e51b8152600401610c5e9061542a565b60005460ff16156118385760405162461bcd60e51b8152600401610c5e9061544d565b6000805460ff191660019081179091555461ffff851690611861906001600160a01b0316611d30565b61ffff16036118be5760405162461bcd60e51b815260206004820152602360248201527f43616e277420726564756365206f7264657220666f722063757272656e74207460448201526269636b60e81b6064820152608401610c5e565b60006118da33866118d08160016154bd565b600492919061408d565b90506118f26118e8856155ac565b82908560006140f8565b611909856118ff866155ac565b60039190866141cd565b600083611936577f0000000000000000000000000000000000000000000000000000000000000000611958565b7f00000000000000000000000000000000000000000000000000000000000000005b90508361199f5761199a61197061082c8860016154bd565b6001600160a01b031661198288612dbc565b6001600160a01b0316876001600160801b0316613ba5565b6119da565b6119da6119b061082c8860016154bd565b6001600160a01b03166119c288612dbc565b6001600160a01b0316876001600160801b0316612d7e565b6000805460ff19169055979650505050505050565b600c54600d5460405163018b035160e01b8152600481018490526000602482018190526044820193909352606481019190915260016084820152819073__$7f722a1af7b4060aab6915c87e2e2208cb$__9063018b03519060a4016040805180830381865af4158015611a66573d6000803e3d6000fd5b505050506040513d601f19601f82011682018060405250810190611a8a9190615637565b50905082611aa082670de0b6b3a764000061429e565b611aaa9190615624565b9392505050565b60055460009081906001600160a01b03163314611ae05760405162461bcd60e51b8152600401610c5e9061542a565b60005460ff1615611b035760405162461bcd60e51b8152600401610c5e9061544d565b6000805460ff19166001179055828015611b3957506001546001600160a01b0316611b2d86612dbc565b6001600160a01b031611155b15611b775760405162461bcd60e51b815260206004820152600e60248201526d61736b2062656c6f77207072696560901b6044820152606401610c5e565b82158015611ba157506001546001600160a01b0316611b9586612dbc565b6001600160a01b031610155b15611be05760405162461bcd60e51b815260206004820152600f60248201526e626964732061626f7665207072696560881b6044820152606401610c5e565b6000611bf287876118d08160016154bd565b9050611c00600387866142b3565b9150611c0e818686856140f8565b611c1b60038787876141cd565b600084611c48577f0000000000000000000000000000000000000000000000000000000000000000611c6a565b7f00000000000000000000000000000000000000000000000000000000000000005b905084611cb157611cac611c8261082c8960016154bd565b6001600160a01b0316611c9489612dbc565b6001600160a01b0316886001600160801b0316613ba5565b611cec565b611cec611cc261082c8960016154bd565b6001600160a01b0316611cd489612dbc565b6001600160a01b0316886001600160801b0316612d7e565b9350611d1960405180604001604052806009815260200168185b5bdd5b9d189a5960ba1b81525085613e42565b50506000805460ff19169055909590945092505050565b6000670de0b6b3a7640000611d4c83662386f26fc10000613f13565b611d569190615671565b92915050565b6000808615611ed557611d7433600188888888610c2f565b90925090507f000000000000000000000000000000000000000000000000000000000000000015611db157611dac338284600161430b565b6120de565b6000611dbb61445d565b604051636d29069f60e11b8152909150339063da520d3e90611de590869089908990600401615685565b600060405180830381600087803b158015611dff57600080fd5b505af1158015611e13573d6000803e3d6000fd5b505050508083611e239190615488565b611e2b61445d565b1015611e625760405162461bcd60e51b81526020600482015260066024820152653130b622a92960d11b6044820152606401610c5e565b600a546001600160a01b03166340c10f19611e7f86880188615185565b846040518363ffffffff1660e01b8152600401611e9d9291906155ee565b600060405180830381600087803b158015611eb757600080fd5b505af1158015611ecb573d6000803e3d6000fd5b50505050506120de565b611ee430600088888888610c2f565b90925090506000611ef361445d565b9050611f1f6040518060400160405280600781526020016618985cd958985b60ca1b8152508284613ecc565b611f2761445d565b821115611f605760405162461bcd60e51b815260206004820152600760248201526621616d6d4c697160c81b6044820152606401610c5e565b8180611f7485670de0b6b3a76400006144cf565b611f7e9190615624565b92507f000000000000000000000000000000000000000000000000000000000000000015611fb857611fb3338585600061430b565b6120db565b6000611fc261445d565b604051636d29069f60e11b8152909150339063da520d3e90611fec9087908b908b90600401615685565b600060405180830381600087803b15801561200657600080fd5b505af115801561201a573d6000803e3d6000fd5b50505050808461202a9190615488565b61203261445d565b10156120695760405162461bcd60e51b81526020600482015260066024820152653130b622a92960d11b6044820152606401610c5e565b600b546001600160a01b03166340c10f19612086888a018a615185565b876040518363ffffffff1660e01b81526004016120a49291906155ee565b600060405180830381600087803b1580156120be57600080fd5b505af11580156120d2573d6000803e3d6000fd5b50505050819450505b50505b9550959350505050565b60055460009081906001600160a01b031633146121175760405162461bcd60e51b8152600401610c5e9061542a565b60005460ff161561213a5760405162461bcd60e51b8152600401610c5e9061544d565b6000805460ff1916600190811782556040805160c08101825282546001600160a01b038116825261ffff600160a01b820481166020840152600160b01b820460ff90811694840194909452600160b81b8204841615156060840152600160c01b820490931615156080830152600160c81b900490911660a082015291906121ca90889088906118d09082906154bd565b90508561ffff166121e783600001516001600160a01b0316611d30565b61ffff16146122285760405162461bcd60e51b815260206004820152600d60248201526c4e6f742063757220707269636560981b6044820152606401610c5e565b600085612249576001820154600160801b90046001600160801b0316612258565b60018201546001600160801b03165b9050612270612266826155ac565b83908860006140f8565b6122878761227d836155ac565b60039190896141cd565b6122be61229861082c8960016154bd565b6001600160a01b031684600001516001600160a01b0316836001600160801b0316612d7e565b93506122f283600001516001600160a01b03166122da89612dbc565b6001600160a01b0316836001600160801b0316613ba5565b6000805460ff19169055989397509295505050505050565b6000336001600160a01b037f000000000000000000000000000000000000000000000000000000000000000016146123735760405162461bcd60e51b815260206004820152600c60248201526b1d5b985d5d1a1bdc9a5e995960a21b6044820152606401610c5e565b60006123936123828587615488565b61238d8860026156bb565b906144e4565b905060006123a58261238d8888615624565b905073__$7f722a1af7b4060aab6915c87e2e2208cb$__63018b03516123cb898761429e565b6040516001600160e01b031960e084901b16815260048101919091526000602482015260448101849052606481018990526001608482015260a4016040805180830381865af4158015612422573d6000803e3d6000fd5b505050506040513d601f19601f820116820180604052508101906124469190615637565b50600f55600e8690558661245a838761429e565b612464898761429e565b600f54612471908961429e565b61247b9190615624565b6124859190615488565b61248f9190615624565b92506124c86124a6670de0b6b3a7640000836144e4565b600280546001600160801b0319166001600160801b0392909216919091179055565b6124d3600e546144f9565b61250a6124df86611d30565b61ffff16600090815260086020526040902080546001600160801b03191660016001607f1b03179055565b61253861251686611d30565b6001805461ffff909216600160c81b0261ffff60c81b19909216919091179055565b5050949350505050565b60008082600f0b12156125af576001600160801b038316612562836155ac565b61256c90856156d2565b9150816001600160801b0316106125aa5760405162461bcd60e51b81526020600482015260026024820152614c5360f01b6044820152606401610c5e565b611d56565b6001600160801b0383166125c383856154d8565b9150816001600160801b03161015611d565760405162461bcd60e51b81526020600482015260026024820152614c4160f01b6044820152606401610c5e565b6005546000906001600160a01b0316331461262f5760405162461bcd60e51b8152600401610c5e9061542a565b60005460ff16156126525760405162461bcd60e51b8152600401610c5e9061544d565b6000805460ff19166001908117825561267490869086906118d09082906154bd565b90506000612684600386866142b3565b905060008461269d5782546001600160801b03166126b0565b8254600160801b90046001600160801b03165b9050806001600160801b0316826001600160801b0316116127095760405162461bcd60e51b8152602060048201526013602482015272141bdcda5d1a5bdb881b9bdd08199a5b1b1959606a1b6044820152606401610c5e565b60008561272a576001840154600160801b90046001600160801b0316612739565b60018401546001600160801b03165b9050851561276b5761276461275261082c8960016154bd565b6001600160a01b03166122da89612dbc565b94506127a9565b6127a661277c61082c8960016154bd565b6001600160a01b031661278e89612dbc565b6001600160a01b0316836001600160801b0316612d7e565b94505b6127bf6127b5826155ac565b85908860006140f8565b50506000805460ff191690555090949350505050565b6005546001600160a01b031633146127ff5760405162461bcd60e51b8152600401610c5e9061542a565b600580546001600160a01b0319166001600160a01b0392909216919091179055565b600061282e600384613cc5565b6001600160801b03169392505050565b60008086156128a65761285633600088888888610c2f565b90925090507f00000000000000000000000000000000000000000000000000000000000000001561288e57611dac338284600161454f565b611dac61289d84860186615185565b8284600161454f565b6128b533600188888888610c2f565b909250905081806128ce83670de0b6b3a76400006144cf565b6128d89190615624565b92507f0000000000000000000000000000000000000000000000000000000000000000156129125761290d338484600061454f565b61292e565b61292a61292185870187615185565b8484600061454f565b8091505b509550959350505050565b6000808315612a0a57612980838761297961295861082c8360016154bd565b6001600160a01b031661296a8b612dbc565b6001600160a01b03168a613906565b6000611ab1565b6009546040516323b872dd60e01b81526001600160a01b0387811660048301523060248301526044820185905293955091935091909116906323b872dd906064016020604051808303816000875af11580156129e0573d6000803e3d6000fd5b505050506040513d601f19601f82011682018060405250810190612a049190615607565b50612b0e565b612a488387612a41612a2061082c8360016154bd565b6001600160a01b0316612a328b612dbc565b6001600160a01b03168a613799565b6001611ab1565b90925090506000612a81612a6061082c8960016154bd565b6001600160a01b0316612a7289612dbc565b6001600160a01b031688613ba5565b612a8b9084615624565b6009546040516323b872dd60e01b81526001600160a01b038781166004830152306024830152604482018490529293509116906323b872dd906064016020604051808303816000875af1158015612ae6573d6000803e3d6000fd5b505050506040513d601f19601f82011682018060405250810190612b0a9190615607565b5091505b94509492505050565b6005546001600160a01b03163314612b415760405162461bcd60e51b8152600401610c5e906156f2565b600a546040516340c10f1960e01b81526001600160a01b03909116906340c10f1990612b7390859085906004016155ee565b600060405180830381600087803b158015612b8d57600080fd5b505af1158015612ba1573d6000803e3d6000fd5b505050508060106000828254612bb79190615488565b90915550505050565b600080612bd385856118d08160016154bd565b90506000612be3600386866142b3565b9050600084612bfc5782546001600160801b0316612c0f565b8254600160801b90046001600160801b03165b9050600085612c32576001840154600160801b90046001600160801b0316612c41565b60018401546001600160801b03165b90506000816001600160801b0316118015612c6d5750816001600160801b0316836001600160801b0316115b98975050505050505050565b60055460009081906001600160a01b03163314612ca85760405162461bcd60e51b8152600401610c5e9061542a565b60005460ff1615612ccb5760405162461bcd60e51b8152600401610c5e9061544d565b6000805460ff19166001178155604080516080810182526001600160a01b038916815261ffff808916602083015287169181019190915281908190612d219060608101612d17896155ac565b600f0b9052614655565b9250925092506000821180612d365750600081115b15612d6657818360050154612d4b9190615488565b818460060154612d5b9190615488565b600685015560058401555b6000805460ff19169055909890975095505050505050565b600082841015612da05760405162461bcd60e51b8152600401610c5e90615714565b612db482612dae8587615624565b906144cf565b949350505050565b6000611d56612dd6662386f26fc1000061ffff85166156bb565b614072565b336001600160a01b037f00000000000000000000000000000000000000000000000000000000000000001614612e235760405162461bcd60e51b8152600401610c5e906156f2565b600280546001600160801b0319169055612e4b6001805460ff60c01b1916600160c01b179055565b565b6000612db482612e5d8587615624565b906148ed565b8115612f0d576000612e908286612e89612e8461295861082c8460016154bd565b614902565b60006117e8565b60095460405163a9059cbb60e01b81529192506001600160a01b03169063a9059cbb90612ec390859085906004016155ee565b6020604051808303816000875af1158015612ee2573d6000803e3d6000fd5b505050506040513d601f19601f82011682018060405250810190612f069190615607565b505061300e565b6000612f44612e84612f2361082c8860016154bd565b6001600160a01b0316612f3588612dbc565b6001600160a01b031687613799565b9050612f5382868360016117e8565b506009546001600160a01b031663a9059cbb83612fa1612f7761082c8a60016154bd565b6001600160a01b0316612f898a612dbc565b6001600160a01b0316866001600160801b0316613ba5565b612fab9088615624565b6040518363ffffffff1660e01b8152600401612fc89291906155ee565b6020604051808303816000875af1158015612fe7573d6000803e3d6000fd5b505050506040513d601f19601f8201168201806040525081019061300b9190615607565b50505b50505050565b336001600160a01b037f0000000000000000000000000000000000000000000000000000000000000000161461305c5760405162461bcd60e51b8152600401610c5e906156f2565b60001981036130e4576009546001600160a01b031663a9059cbb8361307f61445d565b6040518363ffffffff1660e01b815260040161309c9291906155ee565b6020604051808303816000875af11580156130bb573d6000803e3d6000fd5b505050506040513d601f19601f820116820180604052508101906130df9190615607565b505050565b60095460405163a9059cbb60e01b81526001600160a01b039091169063a9059cbb9061309c90859085906004016155ee565b5050565b60008161314a5761313184846118d08160016154bd565b60010154600160801b90046001600160801b0316612db4565b61315a84846118d08160016154bd565b600101546001600160801b0316949350505050565b81156132025760006131978286613190612e84612a2061082c8460016154bd565b60016117e8565b600a546040516340c10f1960e01b81529192506001600160a01b0316906340c10f19906131ca90859085906004016155ee565b600060405180830381600087803b1580156131e457600080fd5b505af11580156131f8573d6000803e3d6000fd5b505050505061300e565b61323c8185612e89612e8461321b61082c8460016154bd565b6001600160a01b031661322d8a612dbc565b6001600160a01b031689613799565b50600b546040516340c10f1960e01b81526001600160a01b03909116906340c10f199061326f90849087906004016155ee565b600060405180830381600087803b15801561328957600080fd5b505af115801561329d573d6000803e3d6000fd5b5050505050505050565b60008215613337576132bb82856001612602565b60095460405163a9059cbb60e01b81529192506001600160a01b03169063a9059cbb906132ee90859085906004016155ee565b6020604051808303816000875af115801561330d573d6000803e3d6000fd5b505050506040513d601f19601f820116820180604052508101906133319190615607565b50611aaa565b60006133458386600061311a565b905061335383866000612602565b915061337861336661082c8760016154bd565b6001600160a01b03166122da87612dbc565b61338a83670de0b6b3a76400006144cf565b6133949190615624565b60095460405163a9059cbb60e01b81529193506001600160a01b03169063a9059cbb906133c790869086906004016155ee565b6020604051808303816000875af11580156133e6573d6000803e3d6000fd5b505050506040513d601f19601f8201168201806040525081019061340a9190615607565b50509392505050565b60008061341f84611d30565b90508215801561343a575061343861ffff821685615737565b155b61344c5761344781612dbc565b61345a565b61345a61082c60018361549b565b6001600160a01b0316949350505050565b336001600160a01b037f000000000000000000000000000000000000000000000000000000000000000016146134d25760405162461bcd60e51b815260206004820152600c60248201526b1d5b985d5d1a1bdc9a5e995960a21b6044820152606401610c5e565b670de0b6b3a76400006134e86123828688615488565b6134f29190615624565b600d556135176135028587615488565b600d5461238d90670de0b6b3a7640000615624565b600c5573__$7f722a1af7b4060aab6915c87e2e2208cb$__63018b035161353e878661429e565b600c54600d546040516001600160e01b031960e086901b168152600481019390935260006024840152604483019190915260648201526001608482015260a4016040805180830381865af415801561359a573d6000803e3d6000fd5b505050506040513d601f19601f820116820180604052508101906135be9190615637565b600e55600f5573__$7f722a1af7b4060aab6915c87e2e2208cb$__63018b03516135f26135eb8486615488565b889061429e565b600c54600d546040516001600160e01b031960e086901b168152600481019390935260006024840152604483019190915260648201526001608482015260a4016040805180830381865af415801561364e573d6000803e3d6000fd5b505050506040513d601f19601f820116820180604052508101906136729190615637565b60115550600c54613690906124a690670de0b6b3a7640000906144e4565b61369b600e546144f9565b5050505050565b60055460009081906001600160a01b031633146136d15760405162461bcd60e51b8152600401610c5e9061542a565b60005460ff16156136f45760405162461bcd60e51b8152600401610c5e9061544d565b6000805460ff191660011790556001600160801b0385166137425760405162461bcd60e51b81526020600482015260086024820152670c08185b5bdd5b9d60c21b6044820152606401610c5e565b61377f60405180608001604052808a6001600160a01b031681526020018961ffff1681526020018861ffff16815260200187600f0b815250614655565b6000805460ff19169055909a909950975050505050505050565b6000828410156137bb5760405162461bcd60e51b8152600401610c5e90615714565b612db46137c88486615624565b8390613f13565b6000816000036137e25750600019611aaa565b612db4826137f08587615624565b90613f13565b6000811561381f578261380a8560016154bd565b61ffff1661381891906156bb565b9050611aaa565b6138188361ffff86166156bb565b6005546001600160a01b031633146138575760405162461bcd60e51b8152600401610c5e906156f2565b80156138c657600a54604051632770a7eb60e21b81526001600160a01b0390911690639dc29fac9061388f90869086906004016155ee565b600060405180830381600087803b1580156138a957600080fd5b505af11580156138bd573d6000803e3d6000fd5b50505050505050565b600b54604051632770a7eb60e21b81526001600160a01b0390911690639dc29fac9061388f90869086906004016155ee565b600061282e600384846142b3565b6000828410156139285760405162461bcd60e51b8152600401610c5e90615714565b612db46137c8600261393a8688615488565b6139449190615671565b612dae8688615624565b60008083156139da5761396d8387612a41612a2061082c8360016154bd565b600a54604051632770a7eb60e21b81529294509092506001600160a01b031690639dc29fac906139a390869086906004016155ee565b600060405180830381600087803b1580156139bd57600080fd5b505af11580156139d1573d6000803e3d6000fd5b50505050612b0e565b6139f08387612979612a2061082c8360016154bd565b600b54604051632770a7eb60e21b81529294509092506001600160a01b031690639dc29fac9061169290869089906004016155ee565b60008215613aa7576000613a3c83866000612602565b600a546040516340c10f1960e01b81529192506001600160a01b0316906340c10f1990613a6f90869085906004016155ee565b600060405180830381600087803b158015613a8957600080fd5b505af1158015613a9d573d6000803e3d6000fd5b5050505050611aaa565b600b546001600160a01b03166340c10f1983613aff613aca61082c8960016154bd565b6001600160a01b0316613adc89612dbc565b6001600160a01b0316613af1338b600161311a565b6001600160801b0316612d7e565b6040518363ffffffff1660e01b8152600401613b1c9291906155ee565b600060405180830381600087803b158015613b3657600080fd5b505af1158015613b4a573d6000803e3d6000fd5b50505050612db482856001612602565b6005546001600160a01b03163314613b845760405162461bcd60e51b8152600401610c5e9061542a565b6001805460ff60b81b198116600160b81b9182900460ff1615909102179055565b600082841015613bc75760405162461bcd60e51b8152600401610c5e90615714565b73__$7f722a1af7b4060aab6915c87e2e2208cb$__636ca35e9e613bec868686612d7e565b6000613bf786613e0b565b6040516001600160e01b031960e086901b16815260048101939093526024830191909152604482015260648101869052608401602060405180830381865af4158015613c47573d6000803e3d6000fd5b505050506040513d601f19601f82011682018060405250810190612db4919061574b565b613cae81604051602401613c7f91906157aa565b60408051601f198184030181529190526020810180516001600160e01b031663104c13eb60e21b179052614918565b50565b6000613cbd8284615737565b159392505050565b61ffff811660009081526020838152604080832081516101808101835281546001600160801b038082168352600160801b91829004600f0b95830195909552600183015493820193909352600282015460608201526003820154600681900b6080830152600160381b81046001600160a01b031660a0830152600160d81b810463ffffffff1660c0830152600160f81b900460ff16151560e08201526004820154808516610100830181905290849004851661012083015260059092015480851661014083015292909204909216610160820152901580613db257506101208101516001600160801b0316155b613dbe57613dbe6157bd565b806101200151816101000151612db491906154d8565b60008115613dee576125aa670de0b6b3a7640000836148ed565b611d56613dfc836001615488565b670de0b6b3a7640000906148ed565b60008115613e25576125aa670de0b6b3a764000083613f13565b611d56613e33836001615488565b670de0b6b3a764000090613f13565b6131168282604051602401613e589291906157d3565b60408051601f198184030181529190526020810180516001600160e01b03166309710a9d60e41b179052614918565b613cae81604051602401613e9d91815260200190565b60408051601f198184030181529190526020810180516001600160e01b031663f5b1bba960e01b179052614918565b6130df838383604051602401613ee4939291906157f5565b60408051601f198184030181529190526020810180516001600160e01b031663969cdd0360e01b179052614918565b6000611aaa83670de0b6b3a764000084614939565b61ffff821660009081526020849052604090208115613fc4576004810180546001600160801b03191690556005810180546001600160801b0316906000613f6e8361581a565b91906101000a8154816001600160801b0302191690836001600160801b0316021790555050613fbf604051806040016040528060068152602001657469636b3f3f60d01b8152508461ffff16613e42565b61300e565b6004810180546001600160801b03908116909155600582018054600160801b9004909116906010613ff48361581a565b91906101000a8154816001600160801b0302191690836001600160801b031602179055505050505050565b61ffff8316600090815260208590526040902080546001820154600160801b909104600f0b91906140509085615624565b600182015560028101546140649084615624565b600290910155949350505050565b806001600160a01b038116811461408857600080fd5b919050565b6040805160609490941b6bffffffffffffffffffffffff191660208086019190915260f093841b6001600160f01b031990811660348701529290931b909116603684015280516018818503018152603890930181528251928201929092206000908152929052902090565b8115614162576001840154614116906001600160801b031684612542565b6001850180546001600160801b0319166001600160801b03929092169190911790556000600f84900b1315613fbf5783546001600160801b03808316600160801b02911617845561300e565b600184015461418190600160801b90046001600160801b031684612542565b6001850180546001600160801b03928316600160801b0292169190911790556000600f84900b131561300e5783546001600160801b0319166001600160801b0391909116179092555050565b80156142365761ffff83166000908152602085905260409020600401546141fd906001600160801b031683612542565b61ffff8416600090815260208690526040902060040180546001600160801b0319166001600160801b039290921691909117905561300e565b61ffff831660009081526020859052604090206004015461426790600160801b90046001600160801b031683612542565b61ffff8416600090815260208690526040902060040180546001600160801b03928316600160801b02921691909117905550505050565b6000611aaa8383670de0b6b3a7640000614958565b6000816142e65761ffff8316600090815260208590526040902060050154600160801b90046001600160801b0316612db4565b505061ffff16600090815260209190915260409020600501546001600160801b031690565b801561437a57600a546040516340c10f1960e01b81526001600160a01b03909116906340c10f199061434390879087906004016155ee565b600060405180830381600087803b15801561435d57600080fd5b505af1158015614371573d6000803e3d6000fd5b505050506143df565b600b546040516340c10f1960e01b81526001600160a01b03909116906340c10f19906143ac90879087906004016155ee565b600060405180830381600087803b1580156143c657600080fd5b505af11580156143da573d6000803e3d6000fd5b505050505b6009546040516323b872dd60e01b81526001600160a01b03868116600483015230602483015260448201859052909116906323b872dd906064015b6020604051808303816000875af1158015614439573d6000803e3d6000fd5b505050506040513d601f19601f8201168201806040525081019061369b9190615607565b6009546040516370a0823160e01b81523060048201526000916001600160a01b0316906370a0823190602401602060405180830381865afa1580156144a6573d6000803e3d6000fd5b505050506040513d601f19601f820116820180604052508101906144ca919061574b565b905090565b6000611aaa8383670de0b6b3a7640000614939565b6000611aaa83670de0b6b3a764000084614958565b61450281611d30565b6001805461ffff92909216600160a01b0261ffff60a01b1990921691909117905561452c81614072565b600180546001600160a01b0319166001600160a01b039290921691909117905550565b80156145be57600a54604051632770a7eb60e21b81526001600160a01b0390911690639dc29fac9061458790879086906004016155ee565b600060405180830381600087803b1580156145a157600080fd5b505af11580156145b5573d6000803e3d6000fd5b50505050614623565b600b54604051632770a7eb60e21b81526001600160a01b0390911690639dc29fac906145f090879086906004016155ee565b600060405180830381600087803b15801561460a57600080fd5b505af115801561461e573d6000803e3d6000fd5b505050505b60095460405163a9059cbb60e01b81526001600160a01b039091169063a9059cbb9061441a90879087906004016155ee565b6040805160c0810182526001546001600160a01b038116825261ffff600160a01b82048116602080850182905260ff600160b01b8504811686880152600160b81b850481161515606080880191909152600160c01b860490911615156080870152600160c81b90940490921660a085015285519186015194860151928601516000958695869590946146e994909390614976565b93508460600151600f0b6000146148e557846020015161ffff16816020015161ffff16101561477b576147746147228660400151612dbc565b6001600160a01b03166147388760200151612dbc565b6001600160a01b031660008860600151600f0b121561476757876060015161475f906155ac565b600f0b612d7e565b8760600151600f0b612d7e565b91506148e5565b846040015161ffff16816020015161ffff1610156148885760025460408601516001600160801b03909116906147f6906147b490612dbc565b6001600160a01b031683600001516001600160a01b031660008960600151600f0b12156147e957886060015161475f906155ac565b8860600151600f0b612d7e565b925061485282600001516001600160a01b03166148168860200151612dbc565b6001600160a01b031660008960600151600f0b121561484557886060015161483d906155ac565b600f0b613ba5565b8860600151600f0b613ba5565b9350614862818760600151612542565b600280546001600160801b0319166001600160801b0392909216919091179055506148e5565b6148e26148988660400151612dbc565b6001600160a01b03166148ae8760200151612dbc565b6001600160a01b031660008860600151600f0b12156148d557876060015161483d906155ac565b8760600151600f0b613ba5565b92505b509193909250565b6000611aaa83670de0b6b3a764000084614a02565b806001600160801b038116811461408857600080fd5b80516a636f6e736f6c652e6c6f67602083016000808483855afa5050505050565b82820281151584158583048514171661495157600080fd5b0492915050565b600082600019048411830215820261496f57600080fd5b5091020490565b6000614985600487878761408d565b60065460075491925090600f85900b156149d2576006546007546149b4916003918a9188918a91906000614a30565b506006546007546149d091600391899188918a91906001614a30565b505b6000806149e460038a8a898888614b3c565b90925090506149f585888484614c28565b5050505095945050505050565b828202811515841585830485141716614a1a57600080fd5b6001826001830304018115150290509392505050565b61ffff8616600090815260208890526040812080546001600160801b031682614a598289612542565b6001600160801b0380821615908416801591909114159550909150600003614ab1578861ffff168a61ffff1611614a995760018301879055600283018690555b6003830180546001600160f81b0316600160f81b1790555b82546001600160801b0319166001600160801b03821617835584614af7578254614af290614aed90600f8b810b91600160801b9004900b61554e565b614e1a565b614b15565b8254614b1590614aed90600f8b810b91600160801b9004900b61552e565b83546001600160801b03918216600160801b02911617909255509098975050505050505050565b61ffff80861660008181526020899052604080822088851683529082209193849391929184918291908a1610614b7d57505060018201546002830154614ba1565b6001840154614b8c9089615624565b9150836002015487614b9e9190615624565b90505b6000808b61ffff168b61ffff161015614bc557505060018301546002840154614be9565b6001850154614bd4908b615624565b9150846002015489614be69190615624565b90505b81614bf4858c615624565b614bfe9190615624565b975080614c0b848b615624565b614c159190615624565b9650505050505050965096945050505050565b604080516101208101825285546001600160801b038082168352600160801b918290048116602084015260018801548082169484019490945292048216606082015260028601549091166080820152600385015460a0820152600485015460c0820152600585015460e082015260068501546101008201526000600f85900b8103614cfa57600082608001516001600160801b031611614cef5760405162461bcd60e51b815260206004820152600260248201526104e560f41b6044820152606401610c5e565b506080810151614d0b565b614d08826080015186612542565b90505b6000614d3e83608001516001600160801b0316670de0b6b3a76400008560a0015188614d379190615624565b9190614939565b90506000614d6c84608001516001600160801b0316670de0b6b3a76400008660c0015188614d379190615624565b905086600f0b600014614d97576002880180546001600160801b0319166001600160801b0385161790555b60038801869055600488018590556001600160801b038216151580614dc557506000816001600160801b0316115b1561329d57816001600160801b0316886005016000828254614de79190615488565b92505081905550806001600160801b0316886006016000828254614e0b9190615488565b90915550505050505050505050565b80600f81900b811461408857600080fd5b6001600160a01b0381168114613cae57600080fd5b8015158114613cae57600080fd5b60008083601f840112614e6057600080fd5b50813567ffffffffffffffff811115614e7857600080fd5b602083019150836020828501011115614e9057600080fd5b9250929050565b60008060008060008060a08789031215614eb057600080fd5b8635614ebb81614e2b565b95506020870135614ecb81614e40565b94506040870135935060608701359250608087013567ffffffffffffffff811115614ef557600080fd5b614f0189828a01614e4e565b979a9699509497509295939492505050565b803561ffff8116811461408857600080fd5b60008060008060808587031215614f3b57600080fd5b614f4485614f13565b93506020850135614f5481614e40565b92506040850135614f6481614e40565b91506060850135614f7481614e2b565b939692955090935050565b80356001600160801b038116811461408857600080fd5b600080600080600060a08688031215614fae57600080fd5b8535614fb981614e2b565b9450614fc760208701614f13565b9350614fd560408701614f13565b9250614fe360608701614f7f565b9150614ff160808701614f7f565b90509295509295909350565b6000806000806080858703121561501357600080fd5b843561501e81614e2b565b935061502c60208601614f13565b925061503a60408601614f7f565b91506060850135614f7481614e40565b60006020828403121561505c57600080fd5b5035919050565b60008060008060006080868803121561507b57600080fd5b853561508681614e40565b94506020860135935060408601359250606086013567ffffffffffffffff8111156150b057600080fd5b6150bc88828901614e4e565b969995985093965092949392505050565b6000806000606084860312156150e257600080fd5b83356150ed81614e2b565b92506150fb60208501614f13565b9150604084013561510b81614e40565b809150509250925092565b6000806000806080858703121561512c57600080fd5b5050823594602084013594506040840135936060013592509050565b6000806040838503121561515b57600080fd5b61516483614f7f565b9150602083013580600f0b811461517a57600080fd5b809150509250929050565b60006020828403121561519757600080fd5b8135611aaa81614e2b565b600080604083850312156151b557600080fd5b6151be83614f13565b9150602083013561517a81614e40565b600080600080608085870312156151e457600080fd5b6151ed85614f13565b9350602085013592506040850135614f6481614e40565b6000806040838503121561521757600080fd5b823561522281614e2b565b946020939093013593505050565b6000806000806080858703121561524657600080fd5b843561525181614e2b565b935061525f60208601614f13565b925061526d60408601614f13565b915061527b60608601614f7f565b905092959194509250565b60008060006060848603121561529b57600080fd5b505081359360208301359350604090920135919050565b6000602082840312156152c457600080fd5b611aaa82614f13565b6000806000606084860312156152e257600080fd5b6152eb84614f13565b925060208401356152fb81614e40565b9150604084013561510b81614e2b565b6000806040838503121561531e57600080fd5b82359150602083013561517a81614e40565b600080600080600060a0868803121561534857600080fd5b505083359560208501359550604085013594606081013594506080013592509050565b60008060008060008060a0878903121561538457600080fd5b863561538f81614e2b565b955061539d60208801614f13565b94506153ab60408801614f13565b93506153b960608801614f7f565b9250608087013567ffffffffffffffff811115614ef557600080fd5b6000806000606084860312156153ea57600080fd5b6153f384614f13565b925060208401359150604084013561510b81614e40565b60008060006060848603121561541f57600080fd5b83356153f381614e2b565b6020808252600990820152684e6f7420456e74727960b81b604082015260600190565b6020808252600b908201526a4552525f5245454e54525960a81b604082015260600190565b634e487b7160e01b600052601160045260246000fd5b80820180821115611d5657611d56615472565b61ffff8281168282160390808211156154b6576154b6615472565b5092915050565b61ffff8181168382160190808211156154b6576154b6615472565b6001600160801b038181168382160190808211156154b6576154b6615472565b6000806000806080858703121561550e57600080fd5b505082516020840151604085015160609095015191969095509092509050565b81810360008312801583831316838312821617156154b6576154b6615472565b808201828112600083128015821682158216171561556e5761556e615472565b505092915050565b600f81810b9083900b0160016001607f1b0381136f7fffffffffffffffffffffffffffffff1982121715611d5657611d56615472565b600081600f0b60016001607f1b031981036155c9576155c9615472565b60000392915050565b6000600160ff1b82016155e7576155e7615472565b5060000390565b6001600160a01b03929092168252602082015260400190565b60006020828403121561561957600080fd5b8151611aaa81614e40565b81810381811115611d5657611d56615472565b6000806040838503121561564a57600080fd5b505080516020909101519092909150565b634e487b7160e01b600052601260045260246000fd5b6000826156805761568061565b565b500490565b83815260406020820152816040820152818360608301376000818301606090810191909152601f909201601f1916010192915050565b8082028115828204841417611d5657611d56615472565b6001600160801b038281168282160390808211156154b6576154b6615472565b60208082526008908201526732b73a393ca2a92960c11b604082015260600190565b602080825260099082015268383934b1b29022a92960b91b604082015260600190565b6000826157465761574661565b565b500690565b60006020828403121561575d57600080fd5b5051919050565b6000815180845260005b8181101561578a5760208185018101518683018201520161576e565b506000602082860101526020601f19601f83011685010191505092915050565b602081526000611aaa6020830184615764565b634e487b7160e01b600052600160045260246000fd5b6040815260006157e66040830185615764565b90508260208301529392505050565b6060815260006158086060830186615764565b60208301949094525060400152919050565b60006001600160801b0380831681810361583657615836615472565b600101939250505056fea264697066735822122015320c31a47ea99ed2bf1761dfef9461879564f07cc45590aef536c7ecb81d3f64736f6c63430008110033",
    "linkReferences": {
      "contracts/bonds/GBC.sol": {
        "LinearCurve": [
          {
            "start": 4849,
            "length": 20
          },
          {
            "start": 7345,
            "length": 20
          },
          {
            "start": 9773,
            "length": 20
          },
          {
            "start": 14240,
            "length": 20
          },
          {
            "start": 14410,
            "length": 20
          },
          {
            "start": 15949,
            "length": 20
          }
        ]
      }
    }
  },
  "methodIdentifiers": {
    "BaseToken()": "90f81702",
    "PRECISION()": "aaf5eb68",
    "ROUNDLIMIT()": "159054ea",
    "TradeToken()": "df99f8bf",
    "a_initial()": "6e2f7ad3",
    "addDelta(uint128,int128)": "402d44fb",
    "areaBetweenCurveAndMax(uint256)": "14e2b929",
    "b()": "4df7e3d0",
    "b_initial()": "558bdb29",
    "baseGivenLiquidity(uint256,uint256,uint256)": "f9734a24",
    "baseToken()": "c55dae63",
    "calculateInitCurveParams(uint256,uint256,uint256,uint256,uint256)": "ac4bc1cb",
    "calculateInitCurveParamsPool(uint256,uint256,uint256,uint256)": "34327d8b",
    "claimFilledOrder(address,uint16,bool)": "42b6c9fb",
    "claimPartiallyFilledOrder(address,uint16,bool)": "32530d7f",
    "collect(address,uint16,uint16,uint128,uint128)": "098bcc56",
    "controller()": "f77c4791",
    "discount_cap()": "7063b06c",
    "discountedReserves()": "1816eb13",
    "entry()": "67f239dd",
    "factory()": "c45a0155",
    "fee()": "ddca3f43",
    "feeGrowthGlobalBase()": "659a544a",
    "feeGrowthGlobalTrade()": "1d2637ab",
    "flush(address,uint256)": "96fd1c42",
    "getCurPrice()": "11e715d6",
    "getLiq(address,uint16,bool)": "9b608089",
    "getNextPriceLimit(uint16,uint256,bool)": "b501c284",
    "getNumCross(uint16,bool)": "e37699c9",
    "getOneTimeLiquidity(uint16,bool)": "4a3ca717",
    "liquidity()": "1a686502",
    "liquidityGivenBase(uint256,uint256,uint256)": "e7c3614f",
    "liquidityGivenTrade(uint256,uint256,uint256)": "b04a69fd",
    "lock()": "f83d08ba",
    "makerClaimClose(uint16,bool,address)": "a1217e7d",
    "makerClaimOpen(uint16,bool,address)": "f0bb81b3",
    "makerClose(uint16,uint256,bool,address)": "e7ca189a",
    "makerOpen(uint16,uint256,bool,address)": "68087cc3",
    "makerPartiallyClaim(uint16,bool,bool,address)": "08216712",
    "makerReduceClose(uint16,uint256,bool,address)": "9c9d7d3f",
    "makerReduceOpen(uint16,uint256,bool,address)": "957343f0",
    "maxPrice()": "e38d6b5c",
    "owner()": "8da5cb5b",
    "placeLimitOrder(address,uint16,uint128,bool)": "2130ce0d",
    "pointToPrice(uint16)": "8ce26999",
    "positionIsFilled(address,uint16,bool)": "6ed75596",
    "positions(bytes32)": "514ea4bf",
    "precision()": "d3b5dc3b",
    "priceDelta()": "5bfa896a",
    "priceToPoint(uint256)": "2353b18e",
    "provide(address,uint16,uint16,uint128,bytes)": "af0d37bc",
    "reduceLimitOrder(address,uint16,uint128,bool)": "1376ff3e",
    "remove(address,uint16,uint16,uint128)": "7f1d9ae6",
    "resetLiq()": "8d01450f",
    "s_tradeToken()": "10f22221",
    "setEntry(address)": "42bc5292",
    "slot0()": "3850c7bd",
    "takerClose(bool,int256,uint256,bytes)": "556769ba",
    "takerOpen(bool,int256,uint256,bytes)": "244d59cb",
    "tickSpacing()": "d0c93a7c",
    "ticks(uint16)": "b9033a39",
    "trade(address,bool,int256,uint256,bytes)": "004b2045",
    "tradeGivenLiquidity(uint256,uint256,uint256)": "80c0c3e7",
    "tradeToken()": "d83678ac",
    "trustedBurn(address,uint256,bool)": "c93ac3ed",
    "trustedDiscountedMint(address,uint256)": "681504cd",
    "upperBound()": "b09ad8a0",
    "xMax(uint256,uint256,uint256)": "b29d9b6e",
    "xMaxRoundUp(uint256,uint256,uint256)": "9314b03f",
    "yInt(uint256,bool)": "a74d74d4"
  },
  "id": 3
}