{
  "abi": [
    {
      "inputs": [
        {
          "internalType": "address",
          "name": "_controller",
          "type": "address"
        },
        {
          "internalType": "address",
          "name": "_marketManager",
          "type": "address"
        },
        {
          "internalType": "address",
          "name": "_reputationManager",
          "type": "address"
        }
      ],
      "stateMutability": "nonpayable",
      "type": "constructor"
    },
    {
      "inputs": [
        {
          "internalType": "uint256",
          "name": "marketId",
          "type": "uint256"
        }
      ],
      "name": "_getValidators",
      "outputs": [],
      "stateMutability": "nonpayable",
      "type": "function"
    },
    {
      "inputs": [
        {
          "internalType": "uint256",
          "name": "marketId",
          "type": "uint256"
        }
      ],
      "name": "approvalCondition",
      "outputs": [
        {
          "internalType": "bool",
          "name": "",
          "type": "bool"
        }
      ],
      "stateMutability": "view",
      "type": "function"
    },
    {
      "inputs": [
        {
          "internalType": "uint256",
          "name": "marketId",
          "type": "uint256"
        },
        {
          "internalType": "address",
          "name": "validator",
          "type": "address"
        }
      ],
      "name": "deniedValidator",
      "outputs": [
        {
          "internalType": "uint256",
          "name": "collateral_amount",
          "type": "uint256"
        }
      ],
      "stateMutability": "nonpayable",
      "type": "function"
    },
    {
      "inputs": [
        {
          "internalType": "uint256",
          "name": "requestId",
          "type": "uint256"
        },
        {
          "internalType": "uint256[]",
          "name": "randomWords",
          "type": "uint256[]"
        }
      ],
      "name": "fulfillRandomWords",
      "outputs": [],
      "stateMutability": "nonpayable",
      "type": "function"
    },
    {
      "inputs": [
        {
          "internalType": "uint256",
          "name": "marketId",
          "type": "uint256"
        }
      ],
      "name": "getFinalStake",
      "outputs": [
        {
          "internalType": "uint256",
          "name": "",
          "type": "uint256"
        }
      ],
      "stateMutability": "view",
      "type": "function"
    },
    {
      "inputs": [
        {
          "internalType": "uint256",
          "name": "marketId",
          "type": "uint256"
        }
      ],
      "name": "getInitialStake",
      "outputs": [
        {
          "internalType": "uint256",
          "name": "",
          "type": "uint256"
        }
      ],
      "stateMutability": "view",
      "type": "function"
    },
    {
      "inputs": [
        {
          "internalType": "uint256",
          "name": "marketId",
          "type": "uint256"
        }
      ],
      "name": "getNumApproved",
      "outputs": [
        {
          "internalType": "uint256",
          "name": "",
          "type": "uint256"
        }
      ],
      "stateMutability": "view",
      "type": "function"
    },
    {
      "inputs": [
        {
          "internalType": "uint256",
          "name": "marketId",
          "type": "uint256"
        }
      ],
      "name": "getNumResolved",
      "outputs": [
        {
          "internalType": "uint256",
          "name": "",
          "type": "uint256"
        }
      ],
      "stateMutability": "view",
      "type": "function"
    },
    {
      "inputs": [
        {
          "internalType": "uint256",
          "name": "marketId",
          "type": "uint256"
        }
      ],
      "name": "getTotalStaked",
      "outputs": [
        {
          "internalType": "uint256",
          "name": "",
          "type": "uint256"
        }
      ],
      "stateMutability": "view",
      "type": "function"
    },
    {
      "inputs": [
        {
          "internalType": "uint256",
          "name": "marketId",
          "type": "uint256"
        }
      ],
      "name": "getTotalValidatorSales",
      "outputs": [
        {
          "internalType": "uint256",
          "name": "",
          "type": "uint256"
        }
      ],
      "stateMutability": "view",
      "type": "function"
    },
    {
      "inputs": [
        {
          "internalType": "uint256",
          "name": "marketId",
          "type": "uint256"
        }
      ],
      "name": "getValidatorCap",
      "outputs": [
        {
          "internalType": "uint256",
          "name": "",
          "type": "uint256"
        }
      ],
      "stateMutability": "view",
      "type": "function"
    },
    {
      "inputs": [
        {
          "internalType": "uint256",
          "name": "marketId",
          "type": "uint256"
        }
      ],
      "name": "getValidatorPrice",
      "outputs": [
        {
          "internalType": "uint256",
          "name": "",
          "type": "uint256"
        }
      ],
      "stateMutability": "view",
      "type": "function"
    },
    {
      "inputs": [
        {
          "internalType": "uint256",
          "name": "marketId",
          "type": "uint256"
        }
      ],
      "name": "getValidatorRequiredCollateral",
      "outputs": [
        {
          "internalType": "uint256",
          "name": "",
          "type": "uint256"
        }
      ],
      "stateMutability": "view",
      "type": "function"
    },
    {
      "inputs": [
        {
          "internalType": "uint256",
          "name": "marketId",
          "type": "uint256"
        },
        {
          "internalType": "address",
          "name": "validator",
          "type": "address"
        }
      ],
      "name": "hasApproved",
      "outputs": [
        {
          "internalType": "bool",
          "name": "",
          "type": "bool"
        }
      ],
      "stateMutability": "view",
      "type": "function"
    },
    {
      "inputs": [
        {
          "internalType": "uint256",
          "name": "marketId",
          "type": "uint256"
        },
        {
          "internalType": "address",
          "name": "user",
          "type": "address"
        }
      ],
      "name": "isValidator",
      "outputs": [
        {
          "internalType": "bool",
          "name": "",
          "type": "bool"
        }
      ],
      "stateMutability": "view",
      "type": "function"
    },
    {
      "inputs": [
        {
          "internalType": "uint256",
          "name": "marketId",
          "type": "uint256"
        },
        {
          "internalType": "address",
          "name": "validator",
          "type": "address"
        }
      ],
      "name": "redeemValidator",
      "outputs": [],
      "stateMutability": "nonpayable",
      "type": "function"
    },
    {
      "inputs": [
        {
          "internalType": "uint256",
          "name": "marketId",
          "type": "uint256"
        }
      ],
      "name": "resolveCondition",
      "outputs": [
        {
          "internalType": "bool",
          "name": "",
          "type": "bool"
        }
      ],
      "stateMutability": "view",
      "type": "function"
    },
    {
      "inputs": [
        {
          "internalType": "uint256",
          "name": "marketId",
          "type": "uint256"
        },
        {
          "internalType": "address",
          "name": "validator",
          "type": "address"
        }
      ],
      "name": "unlockValidatorStake",
      "outputs": [],
      "stateMutability": "nonpayable",
      "type": "function"
    },
    {
      "inputs": [
        {
          "internalType": "uint256",
          "name": "marketId",
          "type": "uint256"
        },
        {
          "internalType": "uint256",
          "name": "principal",
          "type": "uint256"
        },
        {
          "internalType": "uint256",
          "name": "principal_loss",
          "type": "uint256"
        }
      ],
      "name": "updateValidatorStake",
      "outputs": [],
      "stateMutability": "nonpayable",
      "type": "function"
    },
    {
      "inputs": [
        {
          "internalType": "uint256",
          "name": "marketId",
          "type": "uint256"
        },
        {
          "internalType": "address",
          "name": "validator",
          "type": "address"
        }
      ],
      "name": "validatorApprove",
      "outputs": [
        {
          "internalType": "uint256",
          "name": "collateral_required",
          "type": "uint256"
        },
        {
          "internalType": "uint256",
          "name": "zcb_for_sale",
          "type": "uint256"
        }
      ],
      "stateMutability": "nonpayable",
      "type": "function"
    },
    {
      "inputs": [
        {
          "internalType": "uint256",
          "name": "marketId",
          "type": "uint256"
        },
        {
          "internalType": "address",
          "name": "validator",
          "type": "address"
        }
      ],
      "name": "validatorResolve",
      "outputs": [],
      "stateMutability": "nonpayable",
      "type": "function"
    },
    {
      "inputs": [
        {
          "internalType": "uint256",
          "name": "marketId",
          "type": "uint256"
        },
        {
          "internalType": "uint256",
          "name": "principal",
          "type": "uint256"
        },
        {
          "internalType": "bool",
          "name": "isPool",
          "type": "bool"
        }
      ],
      "name": "validatorSetup",
      "outputs": [],
      "stateMutability": "nonpayable",
      "type": "function"
    },
    {
      "inputs": [
        {
          "internalType": "uint256",
          "name": "",
          "type": "uint256"
        }
      ],
      "name": "validator_data",
      "outputs": [
        {
          "internalType": "uint256",
          "name": "val_cap",
          "type": "uint256"
        },
        {
          "internalType": "uint256",
          "name": "avg_price",
          "type": "uint256"
        },
        {
          "internalType": "bool",
          "name": "requested",
          "type": "bool"
        },
        {
          "internalType": "uint256",
          "name": "totalSales",
          "type": "uint256"
        },
        {
          "internalType": "uint256",
          "name": "totalStaked",
          "type": "uint256"
        },
        {
          "internalType": "uint256",
          "name": "numApproved",
          "type": "uint256"
        },
        {
          "internalType": "uint256",
          "name": "initialStake",
          "type": "uint256"
        },
        {
          "internalType": "uint256",
          "name": "finalStake",
          "type": "uint256"
        },
        {
          "internalType": "uint256",
          "name": "numResolved",
          "type": "uint256"
        }
      ],
      "stateMutability": "view",
      "type": "function"
    },
    {
      "inputs": [
        {
          "internalType": "uint256",
          "name": "marketId",
          "type": "uint256"
        }
      ],
      "name": "viewValidators",
      "outputs": [
        {
          "internalType": "address[]",
          "name": "",
          "type": "address[]"
        }
      ],
      "stateMutability": "view",
      "type": "function"
    }
  ],
  "bytecode": {
    "object": "0x60806040523480156200001157600080fd5b50604051620027a3380380620027a3833981016040819052620000349162000094565b600080546001600160a01b039485166001600160a01b031991821617909155600180549285169282169290921790915560028054929093169116179055620000de565b80516001600160a01b03811681146200008f57600080fd5b919050565b600080600060608486031215620000aa57600080fd5b620000b58462000077565b9250620000c56020850162000077565b9150620000d56040850162000077565b90509250925092565b6126b580620000ee6000396000f3fe608060405234801561001057600080fd5b50600436106101585760003560e01c8063830e2a02116100c3578063c8fa33e71161007c578063c8fa33e71461039c578063cca5276614610448578063d466461c1461045b578063d65ec9641461047f578063ebd4dc4614610492578063f23566b5146104b557600080fd5b8063830e2a02146102fa578063875e487e1461030d5780638f5709a514610330578063937b6feb146103435780639c84342314610366578063a40c63f71461037957600080fd5b80633ec8dc3b116101155780633ec8dc3b1461023e578063457a89f61461025e5780635f0ab49c146102715780636172cd6714610299578063805798ac146102ac57806381e1b07c146102cf57600080fd5b806305a1ce991461015d5780632358d5a81461018557806323f2a73f146101c25780632f8899f3146101d557806337bc93b01461020657806338ba461414610229575b600080fd5b61017061016b36600461213e565b6104c8565b60405190151581526020015b60405180910390f35b61017061019336600461216f565b60008281526004602090815260408083206001600160a01b038516845260010190915290205460ff1692915050565b6101706101d036600461216f565b61050c565b6101f86101e336600461213e565b60009081526004602052604090206008015490565b60405190815260200161017c565b6101f861021436600461213e565b60009081526004602052604090206007015490565b61023c61023736600461220a565b610586565b005b61025161024c36600461213e565b610860565b60405161017c91906122ac565b61023c61026c36600461213e565b6108cf565b61028461027f36600461216f565b610b18565b6040805192835260208301919091520161017c565b61023c6102a736600461216f565b610f67565b6101f86102ba36600461213e565b60009081526004602052604090206009015490565b6101706102dd36600461213e565b60009081526004602052604090206003810154600c909101541490565b6101f861030836600461216f565b61130a565b6101f861031b36600461213e565b6000908152600460205260409020600a015490565b61023c61033e36600461216f565b611393565b6101f861035136600461213e565b6000908152600460205260409020600b015490565b61023c610374366004612307565b6113e3565b6101f861038736600461213e565b60009081526004602052604090206005015490565b6103fe6103aa36600461213e565b60046020819052600091825260409091209081015460058201546006830154600784015460088501546009860154600a870154600b880154600c909801549697959660ff9095169593949293919290919089565b60408051998a5260208a0198909852951515968801969096526060870193909352608086019190915260a085015260c084015260e08301919091526101008201526101200161017c565b61023c610456366004612340565b61146e565b6101f861046936600461213e565b6000908152600460208190526040909120015490565b6101f861048d36600461213e565b6117e4565b6101f86104a036600461213e565b6000908152600460205260409020600c015490565b61023c6104c336600461216f565b6118a5565b600081815260046020819052604082209081015460079091015410801590610506575060008281526004602052604090206009810154600390910154145b92915050565b6000828152600460205260408120600301815b815481101561057b57836001600160a01b03168282815481106105445761054461236c565b6000918252602090912001546001600160a01b03160361056957600192505050610506565b8061057381612398565b91505061051f565b506000949350505050565b6000546001600160a01b031633146105b95760405162461bcd60e51b81526004016105b0906123b1565b60405180910390fd5b600082815260036020526040808220546002549151632a4a9dd160e01b81526004810182905290929182916001600160a01b0390911690632a4a9dd19060240161010060405180830381865afa158015610617573d6000803e3d6000fd5b505050506040513d601f19601f8201168201806040525081019061063b91906123d9565b505095505050505091508184511461065557610655612436565b60008054604051638d4f16d760e01b8152600481018690526001600160a01b0390911690638d4f16d7906024016040805180830381865afa15801561069e573d6000803e3d6000fd5b505050506040513d601f19601f820116820180604052508101906106c2919061244c565b600154604051631535c04160e11b8152600481018690526001600160a01b03808416602483015292945060009350911690632a6b808290604401600060405180830381865afa158015610719573d6000803e3d6000fd5b505050506040513d6000823e601f3d908101601f19168201604052610741919081019061247b565b805190915060005b858160ff16101561085557600061077d84848b8560ff16815181106107705761077061236c565b60200260200101516119bb565b9050600460008981526020019081526020016000206003018482815181106107a7576107a761236c565b60209081029190910181015182546001808201855560009485529290932090920180546001600160a01b0319166001600160a01b039093169290921790915584906107f29085612515565b815181106108025761080261236c565b602002602001015184828151811061081c5761081c61236c565b6001600160a01b03909216602092830291909101909101528261083e81612528565b93505050808061084d9061253f565b915050610749565b505050505050505050565b6000818152600460209081526040918290206003018054835181840281018401909452808452606093928301828280156108c357602002820191906000526020600020905b81546001600160a01b031681526001909101906020018083116108a5575b50505050509050919050565b60008054604051638d4f16d760e01b8152600481018490526001600160a01b0390911690638d4f16d7906024016040805180830381865afa158015610918573d6000803e3d6000fd5b505050506040513d601f19601f8201168201806040525081019061093c919061244c565b600254604051632a4a9dd160e01b8152600481018690529193506000925082916001600160a01b0390911690632a4a9dd19060240161010060405180830381865afa15801561098f573d6000803e3d6000fd5b505050506040513d601f19601f820116820180604052508101906109b391906123d9565b5050600154604051631535c04160e11b8152600481018390526001600160a01b038b81166024830152979950919750600096169450632a6b8082935060440191506109fb9050565b600060405180830381865afa158015610a18573d6000803e3d6000fd5b505050506040513d6000823e601f3d908101601f19168201604052610a40919081019061247b565b905082815111610ac85760008581526004602090815260409091208251610a6f926003909201918401906120c4565b508281511015610ac15760405162461bcd60e51b815260206004820152601860248201527f6e6f7420656e6f7567682072617465642074726164657273000000000000000060448201526064016105b0565b5050505050565b50505060008281526004602090815260408220600601805460ff1916600190811790915590915260039052507fa15bc60c955c405d20d9149c709e2460f1c2d9a497496a7f46004d1772c3054c55565b600080610b25848461050c565b610b5a5760405162461bcd60e51b81526004016105b0906020808252600490820152630855985b60e21b604082015260600190565b60005460405163b743939b60e01b8152600481018690526001600160a01b039091169063b743939b90602401602060405180830381865afa158015610ba3573d6000803e3d6000fd5b505050506040513d601f19601f82011682018060405250810190610bc7919061255e565b610c005760405162461bcd60e51b815260206004820152600a60248201526910b1b7b73234ba34b7b760b11b60448201526064016105b0565b60008481526004602090815260408083206001600160a01b0387168452600181019092529091205460ff1615610c625760405162461bcd60e51b8152602060048201526007602482015266085cdd185ad95960ca1b60448201526064016105b0565b600a810154600054604051630c4abc6560e41b815260048101889052610ced92879230926001600160a01b039091169063c4abc65090602401602060405180830381865afa158015610cb8573d6000803e3d6000fd5b505050506040513d601f19601f82011682018060405250810190610cdc919061257b565b6001600160a01b0316929190611b81565b80600a0154816008016000828254610d059190612598565b90915550506001600160a01b03848116600090815260018381016020526040808320805460ff19169092179091556002549051632a4a9dd160e01b81526004810189905291921690632a4a9dd19060240161010060405180830381865afa158015610d74573d6000803e3d6000fd5b505050506040513d601f19601f82011682018060405250810190610d9891906123d9565b505050505050509050808260040154610db191906125c1565b9250610dca826005015484611c0490919063ffffffff16565b6001600160a01b038616600090815260208490526040902054909450831015610e205760405162461bcd60e51b8152602060048201526008602482015267185c1c1c9bdd995960c21b60448201526064016105b0565b6001600160a01b03851660009081526020839052604081208054859290610e48908490612598565b90915550610e599050836001612598565b826007016000828254610e6c9190612598565b925050819055506001826009016000828254610e889190612598565b90915550506000546040516305a1ce9960e01b8152600481018890526001600160a01b03909116906305a1ce9990602401602060405180830381865afa158015610ed6573d6000803e3d6000fd5b505050506040513d601f19601f82011682018060405250810190610efa919061255e565b15610f5e5760005460405163cabe2ae160e01b8152600481018890526001600160a01b039091169063cabe2ae190602401600060405180830381600087803b158015610f4557600080fd5b505af1158015610f59573d6000803e3d6000fd5b505050505b50509250929050565b6000546001600160a01b03163314610f915760405162461bcd60e51b81526004016105b0906123b1565b610f9b828261050c565b610fd45760405162461bcd60e51b815260206004820152600a60248201526910bb30b634b230ba37b960b11b60448201526064016105b0565b60008281526004602090815260408083206001600160a01b038516845260010190915290205460ff166110325760405162461bcd60e51b8152602060048201526006602482015265217374616b6560d01b60448201526064016105b0565b600254604051638a6cac3d60e01b8152600481018490526000916001600160a01b031690638a6cac3d9060240160c060405180830381865afa15801561107c573d6000803e3d6000fd5b505050506040513d601f19601f820116820180604052508101906110a091906125d5565b5050600080546040516311f7790d60e31b8152600481018a905295965090946001600160a01b039091169350638fbbc86892506024019050602060405180830381865afa1580156110f5573d6000803e3d6000fd5b505050506040513d601f19601f820116820180604052508101906111199190612652565b60008054604051634632752560e11b81526004810184905292935090916001600160a01b0390911690638c64ea4a90602401602060405180830381865afa158015611168573d6000803e3d6000fd5b505050506040513d601f19601f8201168201806040525081019061118c919061257b565b9050821561125e576000858152600460208190526040808320600a015492549051630c4abc6560e41b815291820188905261122a92879290916001600160a01b03169063c4abc650906024015b602060405180830381865afa1580156111f6573d6000803e3d6000fd5b505050506040513d601f19601f8201168201806040525081019061121a919061257b565b6001600160a01b03169190611c19565b6000858152600460205260408120600a8101546008909101805491929091611253908490612515565b909155506112d69050565b6000858152600460208190526040808320600b015492549051630c4abc6560e41b81529182018890526112a792879290916001600160a01b03169063c4abc650906024016111d9565b6000858152600460205260408120600b81015460089091018054919290916112d0908490612515565b90915550505b50505060009182526004602090815260408084206001600160a01b039093168452600190920190529020805460ff19169055565b600080546001600160a01b031633146113355760405162461bcd60e51b81526004016105b0906123b1565b600083815260046020908152604080832060058101546001600160a01b038716855292529091205461136691611c04565b60009384526004602090815260408086206001600160a01b03909516865293905291832092909255919050565b6000546001600160a01b031633146113bd5760405162461bcd60e51b81526004016105b0906123b1565b60009182526004602090815260408084206001600160a01b039093168452919052812055565b6000546001600160a01b0316331461140d5760405162461bcd60e51b81526004016105b0906123b1565b8160000361144b5760405162461bcd60e51b815260206004820152600b60248201526a0c081c1c9a5b98da5c185b60aa1b60448201526064016105b0565b611454836108cf565b61145f838383611c97565b6114698383611e79565b505050565b6000546001600160a01b031633146114985760405162461bcd60e51b81526004016105b0906123b1565b806000036114bd5750506000908152600460205260409020600a810154600b90910155565b600080546040516311f7790d60e31b8152600481018690526001600160a01b0390911690638fbbc86890602401602060405180830381865afa158015611507573d6000803e3d6000fd5b505050506040513d601f19601f8201168201806040525081019061152b9190612652565b60008054604051634632752560e11b81526004810184905292935090916001600160a01b0390911690638c64ea4a90602401602060405180830381865afa15801561157a573d6000803e3d6000fd5b505050506040513d601f19601f8201168201806040525081019061159e919061257b565b6040516363737ac960e11b8152600481018690529091506000906001600160a01b0383169063c6e6f59290602401602060405180830381865afa1580156115e9573d6000803e3d6000fd5b505050506040513d601f19601f8201168201806040525081019061160d9190612652565b6040516363737ac960e11b8152600481018690529091506000906001600160a01b0384169063c6e6f59290602401602060405180830381865afa158015611658573d6000803e3d6000fd5b505050506040513d601f19601f8201168201806040525081019061167c9190612652565b6000888152600460205260408120600801549192506116b961169f6002846125c1565b6116b3866116ad8782612515565b90612076565b90611c04565b6116c46002846125c1565b6116ce9190612598565b600054604051630c4abc6560e41b8152600481018c90529192506001600160a01b03169063c4abc65090602401602060405180830381865afa158015611718573d6000803e3d6000fd5b505050506040513d601f19601f8201168201806040525081019061173c919061257b565b6001600160a01b03166342966c686117548385612515565b6040518263ffffffff1660e01b815260040161177291815260200190565b600060405180830381600087803b15801561178c57600080fd5b505af11580156117a0573d6000803e3d6000fd5b50505060008a815260046020526040902060088101839055600301546117c79150826125c1565b60008a8152600460205260409020600b0155505050505050505050565b60008181526004602081905260408083208201546002549151632a4a9dd160e01b81529283018590529183916001600160a01b031690632a4a9dd19060240161010060405180830381865afa158015611841573d6000803e3d6000fd5b505050506040513d601f19601f8201168201806040525081019061186591906123d9565b5050505050505090506000818361187c91906125c1565b60008681526004602052604090206005015490915061189c908290611c04565b95945050505050565b6000546001600160a01b031633146118cf5760405162461bcd60e51b81526004016105b0906123b1565b6118d9828261050c565b61190e5760405162461bcd60e51b81526004016105b090602080825260049082015263085d985b60e21b604082015260600190565b60008281526004602090815260408083206001600160a01b038516845260020190915290205460ff161561196c5760405162461bcd60e51b81526020600482015260056024820152641d9bdd195960da1b60448201526064016105b0565b60008281526004602081815260408084206001600160a01b0386168552600281018352908420805460ff19166001179055858452919052600c018054916119b283612398565b91905055505050565b60008060005b848160ff161015611a8a5760005486516001600160a01b03909116906308ad90a590889060ff85169081106119f8576119f861236c565b60200260200101516040518263ffffffff1660e01b8152600401611a2b91906001600160a01b0391909116815260200190565b602060405180830381865afa158015611a48573d6000803e3d6000fd5b505050506040513d601f19601f82011682018060405250810190611a6c9190612652565b611a769083612598565b915080611a828161253f565b9150506119c1565b506000611a97828561266b565b905060005b858160ff161015611b76576000805488516001600160a01b03909116906308ad90a5908a9060ff8616908110611ad457611ad461236c565b60200260200101516040518263ffffffff1660e01b8152600401611b0791906001600160a01b0391909116815260200190565b602060405180830381865afa158015611b24573d6000803e3d6000fd5b505050506040513d601f19601f82011682018060405250810190611b489190612652565b905080831015611b60575060ff169250611b7a915050565b9091039080611b6e8161253f565b915050611a9c565b5050505b9392505050565b60006040516323b872dd60e01b81528460048201528360248201528260448201526020600060648360008a5af13d15601f3d1160016000511416171691505080610ac15760405162461bcd60e51b81526020600482015260146024820152731514905394d1915497d19493d357d1905253115160621b60448201526064016105b0565b6000611b7a8383670de0b6b3a7640000612087565b600060405163a9059cbb60e01b8152836004820152826024820152602060006044836000895af13d15601f3d1160016000511416171691505080611c915760405162461bcd60e51b815260206004820152600f60248201526e1514905394d1915497d19052531151608a1b60448201526064016105b0565b50505050565b60025460405163068bcd8d60e01b8152600481018590526000916001600160a01b03169063068bcd8d90602401602060405180830381865afa158015611ce1573d6000803e3d6000fd5b505050506040513d601f19601f82011682018060405250810190611d05919061257b565b600254604051632a4a9dd160e01b8152600481018790529192506000916001600160a01b0390911690632a4a9dd19060240161010060405180830381865afa158015611d55573d6000803e3d6000fd5b505050506040513d601f19601f82011682018060405250810190611d7991906123d9565b505050505050915050611d8b816120a5565b8015611d9b5750611d9b846120a5565b611dd25760405162461bcd60e51b81526020600482015260086024820152673830b930b6a2a92960c11b60448201526064016105b0565b600085815260046020526040812090611deb8387611c04565b90506000846001600160a01b0316637063b06c6040518163ffffffff1660e01b8152600401602060405180830381865afa158015611e2d573d6000803e3d6000fd5b505050506040513d601f19601f82011682018060405250810190611e519190612652565b90506000611e5f8383612076565b600485019290925550600590920191909155505050505050565b600080546040516311f7790d60e31b8152600481018590526001600160a01b0390911690638fbbc86890602401602060405180830381865afa158015611ec3573d6000803e3d6000fd5b505050506040513d601f19601f82011682018060405250810190611ee79190612652565b60008054604051634632752560e11b81526004810184905292935090916001600160a01b0390911690638c64ea4a90602401602060405180830381865afa158015611f36573d6000803e3d6000fd5b505050506040513d601f19601f82011682018060405250810190611f5a919061257b565b6040516363737ac960e11b8152600481018590529091506000906001600160a01b0383169063c6e6f59290602401602060405180830381865afa158015611fa5573d6000803e3d6000fd5b505050506040513d601f19601f82011682018060405250810190611fc99190612652565b600254604051632a4a9dd160e01b8152600481018890529192506000916001600160a01b0390911690632a4a9dd19060240161010060405180830381865afa158015612019573d6000803e3d6000fd5b505050506040513d601f19601f8201168201806040525081019061203d91906123d9565b9750505050505050506120598282611c0490919063ffffffff16565b600096875260046020526040909620600a01959095555050505050565b6000611b7a83670de0b6b3a7640000845b600082600019048411830215820261209e57600080fd5b5091020490565b60006120bb612710670de0b6b3a76400006125c1565b90911015919050565b828054828255906000526020600020908101928215612119579160200282015b8281111561211957825182546001600160a01b0319166001600160a01b039091161782556020909201916001909101906120e4565b50612125929150612129565b5090565b5b80821115612125576000815560010161212a565b60006020828403121561215057600080fd5b5035919050565b6001600160a01b038116811461216c57600080fd5b50565b6000806040838503121561218257600080fd5b82359150602083013561219481612157565b809150509250929050565b634e487b7160e01b600052604160045260246000fd5b604051601f8201601f1916810167ffffffffffffffff811182821017156121de576121de61219f565b604052919050565b600067ffffffffffffffff8211156122005761220061219f565b5060051b60200190565b6000806040838503121561221d57600080fd5b8235915060208084013567ffffffffffffffff81111561223c57600080fd5b8401601f8101861361224d57600080fd5b803561226061225b826121e6565b6121b5565b81815260059190911b8201830190838101908883111561227f57600080fd5b928401925b8284101561229d57833582529284019290840190612284565b80955050505050509250929050565b6020808252825182820181905260009190848201906040850190845b818110156122ed5783516001600160a01b0316835292840192918401916001016122c8565b50909695505050505050565b801515811461216c57600080fd5b60008060006060848603121561231c57600080fd5b83359250602084013591506040840135612335816122f9565b809150509250925092565b60008060006060848603121561235557600080fd5b505081359360208301359350604090920135919050565b634e487b7160e01b600052603260045260246000fd5b634e487b7160e01b600052601160045260246000fd5b6000600182016123aa576123aa612382565b5060010190565b6020808252600e908201526d3737ba1031b7b73a3937b63632b960911b604082015260600190565b600080600080600080600080610100898b0312156123f657600080fd5b505086516020880151604089015160608a015160808b015160a08c015160c08d015160e0909d0151959e949d50929b919a50985090965094509092509050565b634e487b7160e01b600052600160045260246000fd5b6000806040838503121561245f57600080fd5b825161246a81612157565b602084015190925061219481612157565b6000602080838503121561248e57600080fd5b825167ffffffffffffffff8111156124a557600080fd5b8301601f810185136124b657600080fd5b80516124c461225b826121e6565b81815260059190911b820183019083810190878311156124e357600080fd5b928401925b8284101561250a5783516124fb81612157565b825292840192908401906124e8565b979650505050505050565b8181038181111561050657610506612382565b60008161253757612537612382565b506000190190565b600060ff821660ff810361255557612555612382565b60010192915050565b60006020828403121561257057600080fd5b8151611b7a816122f9565b60006020828403121561258d57600080fd5b8151611b7a81612157565b8082018082111561050657610506612382565b634e487b7160e01b600052601260045260246000fd5b6000826125d0576125d06125ab565b500490565b60008060008060008060c087890312156125ee57600080fd5b86516125f9816122f9565b602088015190965061260a816122f9565b604088015190955061261b816122f9565b606088015190945061262c816122f9565b608088015190935061263d816122f9565b8092505060a087015190509295509295509295565b60006020828403121561266457600080fd5b5051919050565b60008261267a5761267a6125ab565b50069056fea26469706673582212201afd91d117a2bf425929c07395b28f1c0a3a59d3c63ddd04a2d9097585eb2d9864736f6c63430008110033",
    "linkReferences": {}
  },
  "methodIdentifiers": {
    "_getValidators(uint256)": "457a89f6",
    "approvalCondition(uint256)": "05a1ce99",
    "deniedValidator(uint256,address)": "830e2a02",
    "fulfillRandomWords(uint256,uint256[])": "38ba4614",
    "getFinalStake(uint256)": "937b6feb",
    "getInitialStake(uint256)": "875e487e",
    "getNumApproved(uint256)": "805798ac",
    "getNumResolved(uint256)": "ebd4dc46",
    "getTotalStaked(uint256)": "2f8899f3",
    "getTotalValidatorSales(uint256)": "37bc93b0",
    "getValidatorCap(uint256)": "d466461c",
    "getValidatorPrice(uint256)": "a40c63f7",
    "getValidatorRequiredCollateral(uint256)": "d65ec964",
    "hasApproved(uint256,address)": "2358d5a8",
    "isValidator(uint256,address)": "23f2a73f",
    "redeemValidator(uint256,address)": "8f5709a5",
    "resolveCondition(uint256)": "81e1b07c",
    "unlockValidatorStake(uint256,address)": "6172cd67",
    "updateValidatorStake(uint256,uint256,uint256)": "cca52766",
    "validatorApprove(uint256,address)": "5f0ab49c",
    "validatorResolve(uint256,address)": "f23566b5",
    "validatorSetup(uint256,uint256,bool)": "9c843423",
    "validator_data(uint256)": "c8fa33e7",
    "viewValidators(uint256)": "3ec8dc3b"
  },
  "id": 18
}