{
  "abi": [
    {
      "inputs": [],
      "name": "getConstants",
      "outputs": [
        {
          "internalType": "bytes",
          "name": "_calldata",
          "type": "bytes"
        }
      ],
      "stateMutability": "pure",
      "type": "function"
    },
    {
      "inputs": [
        {
          "internalType": "bytes",
          "name": "_data",
          "type": "bytes"
        },
        {
          "internalType": "bytes",
          "name": "_initData",
          "type": "bytes"
        }
      ],
      "name": "getNewRate",
      "outputs": [
        {
          "internalType": "uint64",
          "name": "_newRatePerSec",
          "type": "uint64"
        }
      ],
      "stateMutability": "pure",
      "type": "function"
    },
    {
      "inputs": [],
      "name": "name",
      "outputs": [
        {
          "internalType": "string",
          "name": "",
          "type": "string"
        }
      ],
      "stateMutability": "pure",
      "type": "function"
    },
    {
      "inputs": [
        {
          "internalType": "bytes",
          "name": "_initData",
          "type": "bytes"
        }
      ],
      "name": "requireValidInitData",
      "outputs": [],
      "stateMutability": "pure",
      "type": "function"
    }
  ],
  "bytecode": {
    "object": "0x608060405234801561001057600080fd5b50610588806100206000396000f3fe608060405234801561001057600080fd5b506004361061004c5760003560e01c806306fdde03146100515780631b54c1a31461006f578063453f31d51461009b5780639a295e73146100af575b600080fd5b610059610112565b6040516100669190610336565b60405180910390f35b61008261007d366004610399565b610132565b60405167ffffffffffffffff9091168152602001610066565b6100ad6100a9366004610405565b5050565b005b60408051620124f8602082015262014c0881830152620186a060608201526304b75443608082015264220d16a7bf60a08201526b1fbd04570630dae37c064673602a1b60c0808301919091528251808303909101815260e0909101909152610059565b606060405180606001604052806024815260200161052f60249139905090565b600080808061014387890189610447565b5091945092509050620124f881101561020b576000620124f861016683826104a5565b61017890670de0b6b3a76400006104be565b61018291906104d5565b905060008361019183806104be565b61019b91906104be565b6101b4906b1fbd04570630dae37c064673602a1b6104f7565b9050806101da6b1fbd04570630dae37c064673602a1b67ffffffffffffffff88166104be565b6101e491906104d5565b95506304b7544367ffffffffffffffff87161015610204576304b7544395505b50506102e5565b62014c088111156102e157600061022862014c08620186a061050a565b63ffffffff1661023b62014c08846104a5565b61024d90670de0b6b3a76400006104be565b61025791906104d5565b905060008361026683806104be565b61027091906104be565b610289906b1fbd04570630dae37c064673602a1b6104f7565b90506b1fbd04570630dae37c064673602a1b6102af8267ffffffffffffffff88166104be565b6102b991906104d5565b955064220d16a7bf67ffffffffffffffff871611156102045764220d16a7bf955050506102e5565b8293505b505050949350505050565b6000815180845260005b81811015610316576020818501810151868301820152016102fa565b506000602082860101526020601f19601f83011685010191505092915050565b60208152600061034960208301846102f0565b9392505050565b60008083601f84011261036257600080fd5b50813567ffffffffffffffff81111561037a57600080fd5b60208301915083602082850101111561039257600080fd5b9250929050565b600080600080604085870312156103af57600080fd5b843567ffffffffffffffff808211156103c757600080fd5b6103d388838901610350565b909650945060208701359150808211156103ec57600080fd5b506103f987828801610350565b95989497509550505050565b6000806020838503121561041857600080fd5b823567ffffffffffffffff81111561042f57600080fd5b61043b85828601610350565b90969095509350505050565b6000806000806080858703121561045d57600080fd5b843567ffffffffffffffff8116811461047557600080fd5b966020860135965060408601359560600135945092505050565b634e487b7160e01b600052601160045260246000fd5b818103818111156104b8576104b861048f565b92915050565b80820281158282048414176104b8576104b861048f565b6000826104f257634e487b7160e01b600052601260045260246000fd5b500490565b808201808211156104b8576104b861048f565b63ffffffff8281168282160390808211156105275761052761048f565b509291505056fe5661726961626c652054696d652d576569676874656420496e7465726573742052617465a2646970667358221220154134e3e3ac2a74ffc877ecb3f19da6c3801be49f9d5fd953f591615b0b5f3e64736f6c63430008110033",
    "linkReferences": {}
  },
  "methodIdentifiers": {
    "getConstants()": "9a295e73",
    "getNewRate(bytes,bytes)": "1b54c1a3",
    "name()": "06fdde03",
    "requireValidInitData(bytes)": "453f31d5"
  },
  "id": 8
}