{
  "abi": [
    {
      "inputs": [
        {
          "internalType": "address",
          "name": "_UNDERLYING",
          "type": "address"
        },
        {
          "internalType": "address",
          "name": "_controller",
          "type": "address"
        },
        {
          "internalType": "address",
          "name": "_owner",
          "type": "address"
        },
        {
          "internalType": "bytes",
          "name": "_configData",
          "type": "bytes"
        },
        {
          "components": [
            {
              "internalType": "uint256",
              "name": "N",
              "type": "uint256"
            },
            {
              "internalType": "uint256",
              "name": "sigma",
              "type": "uint256"
            },
            {
              "internalType": "uint256",
              "name": "alpha",
              "type": "uint256"
            },
            {
              "internalType": "uint256",
              "name": "omega",
              "type": "uint256"
            },
            {
              "internalType": "uint256",
              "name": "delta",
              "type": "uint256"
            },
            {
              "internalType": "uint256",
              "name": "r",
              "type": "uint256"
            },
            {
              "internalType": "uint256",
              "name": "s",
              "type": "uint256"
            },
            {
              "internalType": "uint256",
              "name": "steak",
              "type": "uint256"
            }
          ],
          "internalType": "struct MarketManager.MarketParameters",
          "name": "_default_params",
          "type": "tuple"
        }
      ],
      "stateMutability": "nonpayable",
      "type": "constructor"
    },
    {
      "anonymous": false,
      "inputs": [
        {
          "indexed": true,
          "internalType": "address",
          "name": "owner",
          "type": "address"
        },
        {
          "indexed": true,
          "internalType": "address",
          "name": "spender",
          "type": "address"
        },
        {
          "indexed": false,
          "internalType": "uint256",
          "name": "amount",
          "type": "uint256"
        }
      ],
      "name": "Approval",
      "type": "event"
    },
    {
      "anonymous": false,
      "inputs": [
        {
          "indexed": true,
          "internalType": "address",
          "name": "caller",
          "type": "address"
        },
        {
          "indexed": true,
          "internalType": "address",
          "name": "owner",
          "type": "address"
        },
        {
          "indexed": false,
          "internalType": "uint256",
          "name": "assets",
          "type": "uint256"
        },
        {
          "indexed": false,
          "internalType": "uint256",
          "name": "shares",
          "type": "uint256"
        }
      ],
      "name": "Deposit",
      "type": "event"
    },
    {
      "anonymous": false,
      "inputs": [
        {
          "indexed": true,
          "internalType": "uint256",
          "name": "marketId",
          "type": "uint256"
        }
      ],
      "name": "InstrumentDeny",
      "type": "event"
    },
    {
      "anonymous": false,
      "inputs": [
        {
          "indexed": true,
          "internalType": "uint256",
          "name": "marketId",
          "type": "uint256"
        },
        {
          "indexed": true,
          "internalType": "address",
          "name": "instrument",
          "type": "address"
        },
        {
          "indexed": false,
          "internalType": "uint256",
          "name": "amount",
          "type": "uint256"
        },
        {
          "indexed": false,
          "internalType": "bool",
          "name": "isPool",
          "type": "bool"
        }
      ],
      "name": "InstrumentDeposit",
      "type": "event"
    },
    {
      "anonymous": false,
      "inputs": [
        {
          "indexed": true,
          "internalType": "address",
          "name": "instrument",
          "type": "address"
        },
        {
          "indexed": false,
          "internalType": "uint256",
          "name": "totalInstrumentHoldings",
          "type": "uint256"
        },
        {
          "indexed": false,
          "internalType": "uint256",
          "name": "instrument_balance",
          "type": "uint256"
        },
        {
          "indexed": false,
          "internalType": "uint256",
          "name": "mag",
          "type": "uint256"
        },
        {
          "indexed": false,
          "internalType": "bool",
          "name": "sign",
          "type": "bool"
        }
      ],
      "name": "InstrumentHarvest",
      "type": "event"
    },
    {
      "anonymous": false,
      "inputs": [
        {
          "indexed": true,
          "internalType": "uint256",
          "name": "marketId",
          "type": "uint256"
        },
        {
          "indexed": true,
          "internalType": "address",
          "name": "instrumentAddress",
          "type": "address"
        }
      ],
      "name": "InstrumentRemoved",
      "type": "event"
    },
    {
      "anonymous": false,
      "inputs": [
        {
          "indexed": true,
          "internalType": "uint256",
          "name": "marketId",
          "type": "uint256"
        },
        {
          "indexed": true,
          "internalType": "address",
          "name": "instrument",
          "type": "address"
        },
        {
          "indexed": false,
          "internalType": "uint256",
          "name": "principal",
          "type": "uint256"
        },
        {
          "indexed": false,
          "internalType": "uint256",
          "name": "expectedYield",
          "type": "uint256"
        },
        {
          "indexed": false,
          "internalType": "uint256",
          "name": "maturityDate",
          "type": "uint256"
        }
      ],
      "name": "InstrumentTrusted",
      "type": "event"
    },
    {
      "anonymous": false,
      "inputs": [
        {
          "indexed": true,
          "internalType": "uint256",
          "name": "marketId",
          "type": "uint256"
        },
        {
          "indexed": true,
          "internalType": "address",
          "name": "instrument",
          "type": "address"
        },
        {
          "indexed": false,
          "internalType": "uint256",
          "name": "amount",
          "type": "uint256"
        }
      ],
      "name": "InstrumentWithdrawal",
      "type": "event"
    },
    {
      "anonymous": false,
      "inputs": [
        {
          "indexed": true,
          "internalType": "address",
          "name": "from",
          "type": "address"
        },
        {
          "indexed": true,
          "internalType": "address",
          "name": "to",
          "type": "address"
        },
        {
          "indexed": false,
          "internalType": "uint256",
          "name": "amount",
          "type": "uint256"
        }
      ],
      "name": "Transfer",
      "type": "event"
    },
    {
      "anonymous": false,
      "inputs": [
        {
          "indexed": true,
          "internalType": "address",
          "name": "caller",
          "type": "address"
        },
        {
          "indexed": true,
          "internalType": "address",
          "name": "receiver",
          "type": "address"
        },
        {
          "indexed": true,
          "internalType": "address",
          "name": "owner",
          "type": "address"
        },
        {
          "indexed": false,
          "internalType": "uint256",
          "name": "assets",
          "type": "uint256"
        },
        {
          "indexed": false,
          "internalType": "uint256",
          "name": "shares",
          "type": "uint256"
        }
      ],
      "name": "Withdraw",
      "type": "event"
    },
    {
      "inputs": [],
      "name": "DOMAIN_SEPARATOR",
      "outputs": [
        {
          "internalType": "bytes32",
          "name": "",
          "type": "bytes32"
        }
      ],
      "stateMutability": "view",
      "type": "function"
    },
    {
      "inputs": [
        {
          "internalType": "uint256",
          "name": "",
          "type": "uint256"
        }
      ],
      "name": "Instruments",
      "outputs": [
        {
          "internalType": "contract Instrument",
          "name": "",
          "type": "address"
        }
      ],
      "stateMutability": "view",
      "type": "function"
    },
    {
      "inputs": [],
      "name": "UNDERLYING",
      "outputs": [
        {
          "internalType": "contract ERC20",
          "name": "",
          "type": "address"
        }
      ],
      "stateMutability": "view",
      "type": "function"
    },
    {
      "inputs": [
        {
          "internalType": "address",
          "name": "lv",
          "type": "address"
        }
      ],
      "name": "addLendingModule",
      "outputs": [],
      "stateMutability": "nonpayable",
      "type": "function"
    },
    {
      "inputs": [
        {
          "components": [
            {
              "internalType": "bytes32",
              "name": "name",
              "type": "bytes32"
            },
            {
              "internalType": "bool",
              "name": "isPool",
              "type": "bool"
            },
            {
              "internalType": "bool",
              "name": "trusted",
              "type": "bool"
            },
            {
              "internalType": "uint256",
              "name": "balance",
              "type": "uint256"
            },
            {
              "internalType": "uint256",
              "name": "faceValue",
              "type": "uint256"
            },
            {
              "internalType": "uint256",
              "name": "marketId",
              "type": "uint256"
            },
            {
              "internalType": "uint256",
              "name": "principal",
              "type": "uint256"
            },
            {
              "internalType": "uint256",
              "name": "expectedYield",
              "type": "uint256"
            },
            {
              "internalType": "uint256",
              "name": "duration",
              "type": "uint256"
            },
            {
              "internalType": "string",
              "name": "description",
              "type": "string"
            },
            {
              "internalType": "address",
              "name": "instrument_address",
              "type": "address"
            },
            {
              "internalType": "enum Vault.InstrumentType",
              "name": "instrument_type",
              "type": "uint8"
            },
            {
              "internalType": "uint256",
              "name": "maturityDate",
              "type": "uint256"
            },
            {
              "components": [
                {
                  "internalType": "uint256",
                  "name": "saleAmount",
                  "type": "uint256"
                },
                {
                  "internalType": "uint256",
                  "name": "initPrice",
                  "type": "uint256"
                },
                {
                  "internalType": "uint256",
                  "name": "promisedReturn",
                  "type": "uint256"
                },
                {
                  "internalType": "uint256",
                  "name": "inceptionTime",
                  "type": "uint256"
                },
                {
                  "internalType": "uint256",
                  "name": "inceptionPrice",
                  "type": "uint256"
                },
                {
                  "internalType": "uint256",
                  "name": "leverageFactor",
                  "type": "uint256"
                },
                {
                  "internalType": "uint256",
                  "name": "managementFee",
                  "type": "uint256"
                }
              ],
              "internalType": "struct Vault.PoolData",
              "name": "poolData",
              "type": "tuple"
            }
          ],
          "internalType": "struct Vault.InstrumentData",
          "name": "data",
          "type": "tuple"
        }
      ],
      "name": "addProposal",
      "outputs": [],
      "stateMutability": "nonpayable",
      "type": "function"
    },
    {
      "inputs": [
        {
          "internalType": "address",
          "name": "",
          "type": "address"
        },
        {
          "internalType": "address",
          "name": "",
          "type": "address"
        }
      ],
      "name": "allowance",
      "outputs": [
        {
          "internalType": "uint256",
          "name": "",
          "type": "uint256"
        }
      ],
      "stateMutability": "view",
      "type": "function"
    },
    {
      "inputs": [
        {
          "internalType": "address",
          "name": "spender",
          "type": "address"
        },
        {
          "internalType": "uint256",
          "name": "amount",
          "type": "uint256"
        }
      ],
      "name": "approve",
      "outputs": [
        {
          "internalType": "bool",
          "name": "",
          "type": "bool"
        }
      ],
      "stateMutability": "nonpayable",
      "type": "function"
    },
    {
      "inputs": [],
      "name": "asset",
      "outputs": [
        {
          "internalType": "contract ERC20",
          "name": "",
          "type": "address"
        }
      ],
      "stateMutability": "view",
      "type": "function"
    },
    {
      "inputs": [],
      "name": "asset_limit",
      "outputs": [
        {
          "internalType": "uint256",
          "name": "",
          "type": "uint256"
        }
      ],
      "stateMutability": "view",
      "type": "function"
    },
    {
      "inputs": [
        {
          "internalType": "address",
          "name": "ad",
          "type": "address"
        }
      ],
      "name": "balanceInUnderlying",
      "outputs": [
        {
          "internalType": "uint256",
          "name": "",
          "type": "uint256"
        }
      ],
      "stateMutability": "view",
      "type": "function"
    },
    {
      "inputs": [
        {
          "internalType": "address",
          "name": "",
          "type": "address"
        }
      ],
      "name": "balanceOf",
      "outputs": [
        {
          "internalType": "uint256",
          "name": "",
          "type": "uint256"
        }
      ],
      "stateMutability": "view",
      "type": "function"
    },
    {
      "inputs": [
        {
          "internalType": "uint256",
          "name": "marketId",
          "type": "uint256"
        }
      ],
      "name": "beforeResolve",
      "outputs": [],
      "stateMutability": "nonpayable",
      "type": "function"
    },
    {
      "inputs": [
        {
          "internalType": "uint256",
          "name": "shares",
          "type": "uint256"
        }
      ],
      "name": "burn",
      "outputs": [],
      "stateMutability": "nonpayable",
      "type": "function"
    },
    {
      "inputs": [
        {
          "internalType": "uint256",
          "name": "marketId",
          "type": "uint256"
        }
      ],
      "name": "closeInstrument",
      "outputs": [],
      "stateMutability": "nonpayable",
      "type": "function"
    },
    {
      "inputs": [
        {
          "internalType": "uint256",
          "name": "shares",
          "type": "uint256"
        }
      ],
      "name": "convertToAssets",
      "outputs": [
        {
          "internalType": "uint256",
          "name": "",
          "type": "uint256"
        }
      ],
      "stateMutability": "view",
      "type": "function"
    },
    {
      "inputs": [
        {
          "internalType": "uint256",
          "name": "assets",
          "type": "uint256"
        }
      ],
      "name": "convertToShares",
      "outputs": [
        {
          "internalType": "uint256",
          "name": "",
          "type": "uint256"
        }
      ],
      "stateMutability": "view",
      "type": "function"
    },
    {
      "inputs": [
        {
          "internalType": "uint256",
          "name": "assets",
          "type": "uint256"
        }
      ],
      "name": "decAssetsToShares",
      "outputs": [
        {
          "internalType": "uint256",
          "name": "",
          "type": "uint256"
        }
      ],
      "stateMutability": "view",
      "type": "function"
    },
    {
      "inputs": [
        {
          "internalType": "uint256",
          "name": "shares",
          "type": "uint256"
        }
      ],
      "name": "decSharesToAssets",
      "outputs": [
        {
          "internalType": "uint256",
          "name": "",
          "type": "uint256"
        }
      ],
      "stateMutability": "view",
      "type": "function"
    },
    {
      "inputs": [],
      "name": "decimal_mismatch",
      "outputs": [
        {
          "internalType": "bool",
          "name": "",
          "type": "bool"
        }
      ],
      "stateMutability": "view",
      "type": "function"
    },
    {
      "inputs": [],
      "name": "decimals",
      "outputs": [
        {
          "internalType": "uint8",
          "name": "",
          "type": "uint8"
        }
      ],
      "stateMutability": "view",
      "type": "function"
    },
    {
      "inputs": [
        {
          "internalType": "uint256",
          "name": "marketId",
          "type": "uint256"
        }
      ],
      "name": "denyInstrument",
      "outputs": [],
      "stateMutability": "nonpayable",
      "type": "function"
    },
    {
      "inputs": [
        {
          "internalType": "uint256",
          "name": "assets",
          "type": "uint256"
        },
        {
          "internalType": "address",
          "name": "receiver",
          "type": "address"
        }
      ],
      "name": "deposit",
      "outputs": [
        {
          "internalType": "uint256",
          "name": "shares",
          "type": "uint256"
        }
      ],
      "stateMutability": "nonpayable",
      "type": "function"
    },
    {
      "inputs": [
        {
          "internalType": "uint256",
          "name": "marketId",
          "type": "uint256"
        },
        {
          "internalType": "uint256",
          "name": "underlyingAmount",
          "type": "uint256"
        },
        {
          "internalType": "bool",
          "name": "isPool",
          "type": "bool"
        }
      ],
      "name": "depositIntoInstrument",
      "outputs": [],
      "stateMutability": "nonpayable",
      "type": "function"
    },
    {
      "inputs": [],
      "name": "description",
      "outputs": [
        {
          "internalType": "string",
          "name": "",
          "type": "string"
        }
      ],
      "stateMutability": "view",
      "type": "function"
    },
    {
      "inputs": [
        {
          "internalType": "contract Instrument",
          "name": "instrument",
          "type": "address"
        }
      ],
      "name": "distrustInstrument",
      "outputs": [],
      "stateMutability": "nonpayable",
      "type": "function"
    },
    {
      "inputs": [
        {
          "internalType": "uint256",
          "name": "amounts",
          "type": "uint256"
        }
      ],
      "name": "enoughLiqudity",
      "outputs": [
        {
          "internalType": "bool",
          "name": "",
          "type": "bool"
        }
      ],
      "stateMutability": "view",
      "type": "function"
    },
    {
      "inputs": [
        {
          "internalType": "uint256",
          "name": "marketId",
          "type": "uint256"
        }
      ],
      "name": "fetchInstrument",
      "outputs": [
        {
          "internalType": "contract Instrument",
          "name": "",
          "type": "address"
        }
      ],
      "stateMutability": "view",
      "type": "function"
    },
    {
      "inputs": [
        {
          "internalType": "uint256",
          "name": "marketId",
          "type": "uint256"
        }
      ],
      "name": "fetchInstrumentData",
      "outputs": [
        {
          "components": [
            {
              "internalType": "bytes32",
              "name": "name",
              "type": "bytes32"
            },
            {
              "internalType": "bool",
              "name": "isPool",
              "type": "bool"
            },
            {
              "internalType": "bool",
              "name": "trusted",
              "type": "bool"
            },
            {
              "internalType": "uint256",
              "name": "balance",
              "type": "uint256"
            },
            {
              "internalType": "uint256",
              "name": "faceValue",
              "type": "uint256"
            },
            {
              "internalType": "uint256",
              "name": "marketId",
              "type": "uint256"
            },
            {
              "internalType": "uint256",
              "name": "principal",
              "type": "uint256"
            },
            {
              "internalType": "uint256",
              "name": "expectedYield",
              "type": "uint256"
            },
            {
              "internalType": "uint256",
              "name": "duration",
              "type": "uint256"
            },
            {
              "internalType": "string",
              "name": "description",
              "type": "string"
            },
            {
              "internalType": "address",
              "name": "instrument_address",
              "type": "address"
            },
            {
              "internalType": "enum Vault.InstrumentType",
              "name": "instrument_type",
              "type": "uint8"
            },
            {
              "internalType": "uint256",
              "name": "maturityDate",
              "type": "uint256"
            },
            {
              "components": [
                {
                  "internalType": "uint256",
                  "name": "saleAmount",
                  "type": "uint256"
                },
                {
                  "internalType": "uint256",
                  "name": "initPrice",
                  "type": "uint256"
                },
                {
                  "internalType": "uint256",
                  "name": "promisedReturn",
                  "type": "uint256"
                },
                {
                  "internalType": "uint256",
                  "name": "inceptionTime",
                  "type": "uint256"
                },
                {
                  "internalType": "uint256",
                  "name": "inceptionPrice",
                  "type": "uint256"
                },
                {
                  "internalType": "uint256",
                  "name": "leverageFactor",
                  "type": "uint256"
                },
                {
                  "internalType": "uint256",
                  "name": "managementFee",
                  "type": "uint256"
                }
              ],
              "internalType": "struct Vault.PoolData",
              "name": "poolData",
              "type": "tuple"
            }
          ],
          "internalType": "struct Vault.InstrumentData",
          "name": "",
          "type": "tuple"
        }
      ],
      "stateMutability": "view",
      "type": "function"
    },
    {
      "inputs": [
        {
          "internalType": "uint256",
          "name": "marketId",
          "type": "uint256"
        }
      ],
      "name": "fetchPoolTrancheData",
      "outputs": [
        {
          "internalType": "uint256",
          "name": "",
          "type": "uint256"
        },
        {
          "internalType": "uint256",
          "name": "",
          "type": "uint256"
        },
        {
          "internalType": "uint256",
          "name": "",
          "type": "uint256"
        },
        {
          "internalType": "uint256",
          "name": "",
          "type": "uint256"
        },
        {
          "internalType": "uint256",
          "name": "",
          "type": "uint256"
        }
      ],
      "stateMutability": "view",
      "type": "function"
    },
    {
      "inputs": [
        {
          "internalType": "contract Instrument",
          "name": "_instrument",
          "type": "address"
        }
      ],
      "name": "getInstrumentData",
      "outputs": [
        {
          "components": [
            {
              "internalType": "bytes32",
              "name": "name",
              "type": "bytes32"
            },
            {
              "internalType": "bool",
              "name": "isPool",
              "type": "bool"
            },
            {
              "internalType": "bool",
              "name": "trusted",
              "type": "bool"
            },
            {
              "internalType": "uint256",
              "name": "balance",
              "type": "uint256"
            },
            {
              "internalType": "uint256",
              "name": "faceValue",
              "type": "uint256"
            },
            {
              "internalType": "uint256",
              "name": "marketId",
              "type": "uint256"
            },
            {
              "internalType": "uint256",
              "name": "principal",
              "type": "uint256"
            },
            {
              "internalType": "uint256",
              "name": "expectedYield",
              "type": "uint256"
            },
            {
              "internalType": "uint256",
              "name": "duration",
              "type": "uint256"
            },
            {
              "internalType": "string",
              "name": "description",
              "type": "string"
            },
            {
              "internalType": "address",
              "name": "instrument_address",
              "type": "address"
            },
            {
              "internalType": "enum Vault.InstrumentType",
              "name": "instrument_type",
              "type": "uint8"
            },
            {
              "internalType": "uint256",
              "name": "maturityDate",
              "type": "uint256"
            },
            {
              "components": [
                {
                  "internalType": "uint256",
                  "name": "saleAmount",
                  "type": "uint256"
                },
                {
                  "internalType": "uint256",
                  "name": "initPrice",
                  "type": "uint256"
                },
                {
                  "internalType": "uint256",
                  "name": "promisedReturn",
                  "type": "uint256"
                },
                {
                  "internalType": "uint256",
                  "name": "inceptionTime",
                  "type": "uint256"
                },
                {
                  "internalType": "uint256",
                  "name": "inceptionPrice",
                  "type": "uint256"
                },
                {
                  "internalType": "uint256",
                  "name": "leverageFactor",
                  "type": "uint256"
                },
                {
                  "internalType": "uint256",
                  "name": "managementFee",
                  "type": "uint256"
                }
              ],
              "internalType": "struct Vault.PoolData",
              "name": "poolData",
              "type": "tuple"
            }
          ],
          "internalType": "struct Vault.InstrumentData",
          "name": "",
          "type": "tuple"
        }
      ],
      "stateMutability": "view",
      "type": "function"
    },
    {
      "inputs": [
        {
          "internalType": "uint256",
          "name": "marketId",
          "type": "uint256"
        }
      ],
      "name": "getInstrumentType",
      "outputs": [
        {
          "internalType": "uint256",
          "name": "",
          "type": "uint256"
        }
      ],
      "stateMutability": "view",
      "type": "function"
    },
    {
      "inputs": [],
      "name": "get_vault_params",
      "outputs": [
        {
          "components": [
            {
              "internalType": "uint256",
              "name": "N",
              "type": "uint256"
            },
            {
              "internalType": "uint256",
              "name": "sigma",
              "type": "uint256"
            },
            {
              "internalType": "uint256",
              "name": "alpha",
              "type": "uint256"
            },
            {
              "internalType": "uint256",
              "name": "omega",
              "type": "uint256"
            },
            {
              "internalType": "uint256",
              "name": "delta",
              "type": "uint256"
            },
            {
              "internalType": "uint256",
              "name": "r",
              "type": "uint256"
            },
            {
              "internalType": "uint256",
              "name": "s",
              "type": "uint256"
            },
            {
              "internalType": "uint256",
              "name": "steak",
              "type": "uint256"
            }
          ],
          "internalType": "struct MarketManager.MarketParameters",
          "name": "",
          "type": "tuple"
        }
      ],
      "stateMutability": "view",
      "type": "function"
    },
    {
      "inputs": [
        {
          "internalType": "address",
          "name": "instrument",
          "type": "address"
        }
      ],
      "name": "harvest",
      "outputs": [],
      "stateMutability": "nonpayable",
      "type": "function"
    },
    {
      "inputs": [
        {
          "internalType": "uint256",
          "name": "marketId",
          "type": "uint256"
        }
      ],
      "name": "instrumentApprovalCondition",
      "outputs": [
        {
          "internalType": "bool",
          "name": "",
          "type": "bool"
        }
      ],
      "stateMutability": "view",
      "type": "function"
    },
    {
      "inputs": [
        {
          "internalType": "uint256",
          "name": "marketId",
          "type": "uint256"
        },
        {
          "internalType": "uint256",
          "name": "juniorSupply",
          "type": "uint256"
        },
        {
          "internalType": "uint256",
          "name": "seniorSupply",
          "type": "uint256"
        }
      ],
      "name": "instrumentAssetOracle",
      "outputs": [
        {
          "internalType": "uint256",
          "name": "",
          "type": "uint256"
        }
      ],
      "stateMutability": "view",
      "type": "function"
    },
    {
      "inputs": [
        {
          "internalType": "contract Instrument",
          "name": "",
          "type": "address"
        }
      ],
      "name": "instrument_data",
      "outputs": [
        {
          "internalType": "bytes32",
          "name": "name",
          "type": "bytes32"
        },
        {
          "internalType": "bool",
          "name": "isPool",
          "type": "bool"
        },
        {
          "internalType": "bool",
          "name": "trusted",
          "type": "bool"
        },
        {
          "internalType": "uint256",
          "name": "balance",
          "type": "uint256"
        },
        {
          "internalType": "uint256",
          "name": "faceValue",
          "type": "uint256"
        },
        {
          "internalType": "uint256",
          "name": "marketId",
          "type": "uint256"
        },
        {
          "internalType": "uint256",
          "name": "principal",
          "type": "uint256"
        },
        {
          "internalType": "uint256",
          "name": "expectedYield",
          "type": "uint256"
        },
        {
          "internalType": "uint256",
          "name": "duration",
          "type": "uint256"
        },
        {
          "internalType": "string",
          "name": "description",
          "type": "string"
        },
        {
          "internalType": "address",
          "name": "instrument_address",
          "type": "address"
        },
        {
          "internalType": "enum Vault.InstrumentType",
          "name": "instrument_type",
          "type": "uint8"
        },
        {
          "internalType": "uint256",
          "name": "maturityDate",
          "type": "uint256"
        },
        {
          "components": [
            {
              "internalType": "uint256",
              "name": "saleAmount",
              "type": "uint256"
            },
            {
              "internalType": "uint256",
              "name": "initPrice",
              "type": "uint256"
            },
            {
              "internalType": "uint256",
              "name": "promisedReturn",
              "type": "uint256"
            },
            {
              "internalType": "uint256",
              "name": "inceptionTime",
              "type": "uint256"
            },
            {
              "internalType": "uint256",
              "name": "inceptionPrice",
              "type": "uint256"
            },
            {
              "internalType": "uint256",
              "name": "leverageFactor",
              "type": "uint256"
            },
            {
              "internalType": "uint256",
              "name": "managementFee",
              "type": "uint256"
            }
          ],
          "internalType": "struct Vault.PoolData",
          "name": "poolData",
          "type": "tuple"
        }
      ],
      "stateMutability": "view",
      "type": "function"
    },
    {
      "inputs": [
        {
          "internalType": "contract Instrument",
          "name": "instrument",
          "type": "address"
        }
      ],
      "name": "isTrusted",
      "outputs": [
        {
          "internalType": "bool",
          "name": "",
          "type": "bool"
        }
      ],
      "stateMutability": "view",
      "type": "function"
    },
    {
      "inputs": [
        {
          "internalType": "address",
          "name": "",
          "type": "address"
        }
      ],
      "name": "maxDeposit",
      "outputs": [
        {
          "internalType": "uint256",
          "name": "",
          "type": "uint256"
        }
      ],
      "stateMutability": "view",
      "type": "function"
    },
    {
      "inputs": [
        {
          "internalType": "address",
          "name": "",
          "type": "address"
        }
      ],
      "name": "maxMint",
      "outputs": [
        {
          "internalType": "uint256",
          "name": "",
          "type": "uint256"
        }
      ],
      "stateMutability": "view",
      "type": "function"
    },
    {
      "inputs": [
        {
          "internalType": "address",
          "name": "owner",
          "type": "address"
        }
      ],
      "name": "maxRedeem",
      "outputs": [
        {
          "internalType": "uint256",
          "name": "",
          "type": "uint256"
        }
      ],
      "stateMutability": "view",
      "type": "function"
    },
    {
      "inputs": [
        {
          "internalType": "address",
          "name": "owner",
          "type": "address"
        }
      ],
      "name": "maxWithdraw",
      "outputs": [
        {
          "internalType": "uint256",
          "name": "",
          "type": "uint256"
        }
      ],
      "stateMutability": "view",
      "type": "function"
    },
    {
      "inputs": [
        {
          "internalType": "uint256",
          "name": "shares",
          "type": "uint256"
        },
        {
          "internalType": "address",
          "name": "receiver",
          "type": "address"
        }
      ],
      "name": "mint",
      "outputs": [
        {
          "internalType": "uint256",
          "name": "assets",
          "type": "uint256"
        }
      ],
      "stateMutability": "nonpayable",
      "type": "function"
    },
    {
      "inputs": [],
      "name": "name",
      "outputs": [
        {
          "internalType": "string",
          "name": "",
          "type": "string"
        }
      ],
      "stateMutability": "view",
      "type": "function"
    },
    {
      "inputs": [
        {
          "internalType": "address",
          "name": "",
          "type": "address"
        }
      ],
      "name": "nonces",
      "outputs": [
        {
          "internalType": "uint256",
          "name": "",
          "type": "uint256"
        }
      ],
      "stateMutability": "view",
      "type": "function"
    },
    {
      "inputs": [],
      "name": "onlyVerified",
      "outputs": [
        {
          "internalType": "bool",
          "name": "",
          "type": "bool"
        }
      ],
      "stateMutability": "view",
      "type": "function"
    },
    {
      "inputs": [],
      "name": "owner",
      "outputs": [
        {
          "internalType": "address",
          "name": "",
          "type": "address"
        }
      ],
      "stateMutability": "view",
      "type": "function"
    },
    {
      "inputs": [
        {
          "internalType": "address",
          "name": "owner",
          "type": "address"
        },
        {
          "internalType": "address",
          "name": "spender",
          "type": "address"
        },
        {
          "internalType": "uint256",
          "name": "value",
          "type": "uint256"
        },
        {
          "internalType": "uint256",
          "name": "deadline",
          "type": "uint256"
        },
        {
          "internalType": "uint8",
          "name": "v",
          "type": "uint8"
        },
        {
          "internalType": "bytes32",
          "name": "r",
          "type": "bytes32"
        },
        {
          "internalType": "bytes32",
          "name": "s",
          "type": "bytes32"
        }
      ],
      "name": "permit",
      "outputs": [],
      "stateMutability": "nonpayable",
      "type": "function"
    },
    {
      "inputs": [
        {
          "internalType": "address",
          "name": "instrument",
          "type": "address"
        },
        {
          "internalType": "bool",
          "name": "premature",
          "type": "bool"
        }
      ],
      "name": "pingMaturity",
      "outputs": [],
      "stateMutability": "nonpayable",
      "type": "function"
    },
    {
      "inputs": [
        {
          "internalType": "uint256",
          "name": "marketId",
          "type": "uint256"
        }
      ],
      "name": "poolZCBValue",
      "outputs": [
        {
          "internalType": "uint256",
          "name": "psu",
          "type": "uint256"
        },
        {
          "internalType": "uint256",
          "name": "pju",
          "type": "uint256"
        },
        {
          "internalType": "uint256",
          "name": "levFactor",
          "type": "uint256"
        }
      ],
      "stateMutability": "view",
      "type": "function"
    },
    {
      "inputs": [
        {
          "internalType": "uint256",
          "name": "assets",
          "type": "uint256"
        }
      ],
      "name": "previewDeposit",
      "outputs": [
        {
          "internalType": "uint256",
          "name": "",
          "type": "uint256"
        }
      ],
      "stateMutability": "view",
      "type": "function"
    },
    {
      "inputs": [
        {
          "internalType": "uint256",
          "name": "shares",
          "type": "uint256"
        }
      ],
      "name": "previewMint",
      "outputs": [
        {
          "internalType": "uint256",
          "name": "",
          "type": "uint256"
        }
      ],
      "stateMutability": "view",
      "type": "function"
    },
    {
      "inputs": [
        {
          "internalType": "uint256",
          "name": "shares",
          "type": "uint256"
        }
      ],
      "name": "previewRedeem",
      "outputs": [
        {
          "internalType": "uint256",
          "name": "",
          "type": "uint256"
        }
      ],
      "stateMutability": "view",
      "type": "function"
    },
    {
      "inputs": [
        {
          "internalType": "uint256",
          "name": "assets",
          "type": "uint256"
        }
      ],
      "name": "previewWithdraw",
      "outputs": [
        {
          "internalType": "uint256",
          "name": "",
          "type": "uint256"
        }
      ],
      "stateMutability": "view",
      "type": "function"
    },
    {
      "inputs": [
        {
          "internalType": "uint256",
          "name": "amount",
          "type": "uint256"
        }
      ],
      "name": "pullFromLM",
      "outputs": [],
      "stateMutability": "nonpayable",
      "type": "function"
    },
    {
      "inputs": [
        {
          "internalType": "uint256",
          "name": "amount",
          "type": "uint256"
        }
      ],
      "name": "pushToLM",
      "outputs": [],
      "stateMutability": "nonpayable",
      "type": "function"
    },
    {
      "inputs": [],
      "name": "r",
      "outputs": [
        {
          "internalType": "uint256",
          "name": "",
          "type": "uint256"
        }
      ],
      "stateMutability": "view",
      "type": "function"
    },
    {
      "inputs": [
        {
          "internalType": "address",
          "name": "receiver",
          "type": "address"
        }
      ],
      "name": "receiver_conditions",
      "outputs": [
        {
          "internalType": "bool",
          "name": "",
          "type": "bool"
        }
      ],
      "stateMutability": "view",
      "type": "function"
    },
    {
      "inputs": [
        {
          "internalType": "uint256",
          "name": "shares",
          "type": "uint256"
        },
        {
          "internalType": "address",
          "name": "receiver",
          "type": "address"
        },
        {
          "internalType": "address",
          "name": "owner",
          "type": "address"
        }
      ],
      "name": "redeem",
      "outputs": [
        {
          "internalType": "uint256",
          "name": "assets",
          "type": "uint256"
        }
      ],
      "stateMutability": "nonpayable",
      "type": "function"
    },
    {
      "inputs": [
        {
          "internalType": "address",
          "name": "to",
          "type": "address"
        },
        {
          "internalType": "uint256",
          "name": "amount",
          "type": "uint256"
        }
      ],
      "name": "repayDebt",
      "outputs": [],
      "stateMutability": "nonpayable",
      "type": "function"
    },
    {
      "inputs": [
        {
          "internalType": "uint256",
          "name": "marketId",
          "type": "uint256"
        }
      ],
      "name": "resolveInstrument",
      "outputs": [
        {
          "internalType": "bool",
          "name": "",
          "type": "bool"
        },
        {
          "internalType": "uint256",
          "name": "",
          "type": "uint256"
        },
        {
          "internalType": "uint256",
          "name": "",
          "type": "uint256"
        },
        {
          "internalType": "bool",
          "name": "",
          "type": "bool"
        }
      ],
      "stateMutability": "nonpayable",
      "type": "function"
    },
    {
      "inputs": [],
      "name": "symbol",
      "outputs": [
        {
          "internalType": "string",
          "name": "",
          "type": "string"
        }
      ],
      "stateMutability": "view",
      "type": "function"
    },
    {
      "inputs": [],
      "name": "totalAssets",
      "outputs": [
        {
          "internalType": "uint256",
          "name": "",
          "type": "uint256"
        }
      ],
      "stateMutability": "view",
      "type": "function"
    },
    {
      "inputs": [],
      "name": "totalFloat",
      "outputs": [
        {
          "internalType": "uint256",
          "name": "",
          "type": "uint256"
        }
      ],
      "stateMutability": "view",
      "type": "function"
    },
    {
      "inputs": [],
      "name": "totalSupply",
      "outputs": [
        {
          "internalType": "uint256",
          "name": "",
          "type": "uint256"
        }
      ],
      "stateMutability": "view",
      "type": "function"
    },
    {
      "inputs": [],
      "name": "total_asset_limit",
      "outputs": [
        {
          "internalType": "uint256",
          "name": "",
          "type": "uint256"
        }
      ],
      "stateMutability": "view",
      "type": "function"
    },
    {
      "inputs": [
        {
          "internalType": "address",
          "name": "to",
          "type": "address"
        },
        {
          "internalType": "uint256",
          "name": "amount",
          "type": "uint256"
        }
      ],
      "name": "transfer",
      "outputs": [
        {
          "internalType": "bool",
          "name": "",
          "type": "bool"
        }
      ],
      "stateMutability": "nonpayable",
      "type": "function"
    },
    {
      "inputs": [
        {
          "internalType": "address",
          "name": "from",
          "type": "address"
        },
        {
          "internalType": "address",
          "name": "to",
          "type": "address"
        },
        {
          "internalType": "uint256",
          "name": "amount",
          "type": "uint256"
        }
      ],
      "name": "transferFrom",
      "outputs": [
        {
          "internalType": "bool",
          "name": "",
          "type": "bool"
        }
      ],
      "stateMutability": "nonpayable",
      "type": "function"
    },
    {
      "inputs": [
        {
          "internalType": "uint256",
          "name": "marketId",
          "type": "uint256"
        },
        {
          "components": [
            {
              "internalType": "uint256",
              "name": "managers_stake",
              "type": "uint256"
            },
            {
              "internalType": "uint256",
              "name": "approved_principal",
              "type": "uint256"
            },
            {
              "internalType": "uint256",
              "name": "approved_yield",
              "type": "uint256"
            }
          ],
          "internalType": "struct Controller.ApprovalData",
          "name": "data",
          "type": "tuple"
        },
        {
          "internalType": "bool",
          "name": "isPool",
          "type": "bool"
        }
      ],
      "name": "trustInstrument",
      "outputs": [],
      "stateMutability": "nonpayable",
      "type": "function"
    },
    {
      "inputs": [
        {
          "internalType": "uint256",
          "name": "amount",
          "type": "uint256"
        },
        {
          "internalType": "address",
          "name": "to",
          "type": "address"
        }
      ],
      "name": "trusted_transfer",
      "outputs": [],
      "stateMutability": "nonpayable",
      "type": "function"
    },
    {
      "inputs": [],
      "name": "utilizationRate",
      "outputs": [
        {
          "internalType": "uint256",
          "name": "",
          "type": "uint256"
        }
      ],
      "stateMutability": "view",
      "type": "function"
    },
    {
      "inputs": [
        {
          "internalType": "uint256",
          "name": "marketId",
          "type": "uint256"
        }
      ],
      "name": "viewPrincipalAndYield",
      "outputs": [
        {
          "internalType": "uint256",
          "name": "",
          "type": "uint256"
        },
        {
          "internalType": "uint256",
          "name": "",
          "type": "uint256"
        }
      ],
      "stateMutability": "view",
      "type": "function"
    },
    {
      "inputs": [
        {
          "internalType": "uint256",
          "name": "assets",
          "type": "uint256"
        },
        {
          "internalType": "address",
          "name": "receiver",
          "type": "address"
        },
        {
          "internalType": "address",
          "name": "owner",
          "type": "address"
        }
      ],
      "name": "withdraw",
      "outputs": [
        {
          "internalType": "uint256",
          "name": "shares",
          "type": "uint256"
        }
      ],
      "stateMutability": "nonpayable",
      "type": "function"
    },
    {
      "inputs": [
        {
          "internalType": "uint256",
          "name": "marketId",
          "type": "uint256"
        },
        {
          "internalType": "uint256",
          "name": "instrumentPullAmount",
          "type": "uint256"
        },
        {
          "internalType": "address",
          "name": "pushTo",
          "type": "address"
        },
        {
          "internalType": "uint256",
          "name": "underlyingAmount",
          "type": "uint256"
        }
      ],
      "name": "withdrawFromPoolInstrument",
      "outputs": [],
      "stateMutability": "nonpayable",
      "type": "function"
    }
  ],
  "bytecode": {
    "object": "0x6101406040523480156200001257600080fd5b50604051620058be380380620058be83398101604081905262000035916200063f565b84856001600160a01b03166306fdde036040518163ffffffff1660e01b8152600401600060405180830381865afa15801562000075573d6000803e3d6000fd5b505050506040513d6000823e601f3d908101601f191682016040526200009f919081019062000771565b604051602001620000b19190620007b1565b604051602081830303815290604052866001600160a01b03166395d89b416040518163ffffffff1660e01b8152600401600060405180830381865afa158015620000ff573d6000803e3d6000fd5b505050506040513d6000823e601f3d908101601f1916820160405262000129919081019062000771565b6040516020016200013b9190620007f0565b60408051601f198184030181529190528181601260006200015d8482620008ad565b5060016200016c8382620008ad565b5060ff81166080524660a05262000182620004a2565b60c0525050506001600160a01b03831660e08190526040805163313ce56760e01b8152905163313ce567916004808201926020929091908290030181865afa158015620001d3573d6000803e3d6000fd5b505050506040513d601f19601f82011682018060405250810190620001f9919062000979565b60ff166101008181525050601260ff16836001600160a01b031663313ce5676040518163ffffffff1660e01b8152600401602060405180830381865afa15801562000248573d6000803e3d6000fd5b505050506040513d601f19601f820116820180604052508101906200026e919062000979565b6006805460ff191660ff9283169390931415928317905516156200030957601260ff16836001600160a01b031663313ce5676040518163ffffffff1660e01b8152600401602060405180830381865afa158015620002d0573d6000803e3d6000fd5b505050506040513d601f19601f82011682018060405250810190620002f6919062000979565b60ff16106200030957620003096200099e565b5050506000806000806000868060200190518101906200032a9190620009b4565b9398509196509450925090506012620003448282620008ad565b50601b80546001600160a01b0319166001600160a01b038a8116919091179091558a166101208190526040805163313ce56760e01b8152905163313ce567916004808201926020929091908290030181865afa158015620003a9573d6000803e3d6000fd5b505050506040513d601f19601f82011682018060405250810190620003cf919062000979565b60ff16601214620004115760405162461bcd60e51b8152602060048201526008602482015267646563696d616c7360c01b604482015260640160405180910390fd5b50670de0b6b3a7640000600755600980546001600160a01b0319166001600160a01b0399909916989098179097556013805460ff19169315159390931790925560145560155560169390935550508051600a556020810151600b556040810151600c556060810151600d556080810151600e5560a0810151600f5560c081015160105560e001516011555062000aaa565b60007f8b73c3c69bb8fe3d512ecc4cf759cc79239f7b179b0ffacaa9a75d522b39400f6000604051620004d6919062000a2c565b6040805191829003822060208301939093528101919091527fc89efdaa54c0f20c7adf612882df0950f5a951637e0307cdcb4c672f298b8bc660608201524660808201523060a082015260c00160405160208183030381529060405280519060200120905090565b80516001600160a01b03811681146200055657600080fd5b919050565b634e487b7160e01b600052604160045260246000fd5b60405161010081016001600160401b03811182821017156200059757620005976200055b565b60405290565b60005b83811015620005ba578181015183820152602001620005a0565b50506000910152565b60006001600160401b0380841115620005e057620005e06200055b565b604051601f8501601f19908116603f011681019082821181831017156200060b576200060b6200055b565b816040528093508581528686860111156200062557600080fd5b620006358660208301876200059d565b5050509392505050565b60008060008060008587036101808112156200065a57600080fd5b62000665876200053e565b955062000675602088016200053e565b945062000685604088016200053e565b60608801519094506001600160401b03811115620006a257600080fd5b8701601f81018913620006b457600080fd5b620006c589825160208401620005c3565b93505061010080607f1983011215620006dd57600080fd5b620006e762000571565b91506080880151825260a0880151602083015260c0880151604083015260e088015160608301528088015160808301525061012087015160a082015261014087015160c082015261016087015160e0820152809150509295509295909350565b600082601f8301126200075957600080fd5b6200076a83835160208501620005c3565b9392505050565b6000602082840312156200078457600080fd5b81516001600160401b038111156200079b57600080fd5b620007a98482850162000747565b949350505050565b6402930b6b6960dd1b815260008251620007d38160058501602087016200059d565b650815985d5b1d60d21b6005939091019283015250600b01919050565b6352414d4d60e01b815260008251620008118160048501602087016200059d565b9190910160040192915050565b600181811c908216806200083357607f821691505b6020821081036200085457634e487b7160e01b600052602260045260246000fd5b50919050565b601f821115620008a857600081815260208120601f850160051c81016020861015620008835750805b601f850160051c820191505b81811015620008a4578281556001016200088f565b5050505b505050565b81516001600160401b03811115620008c957620008c96200055b565b620008e181620008da84546200081e565b846200085a565b602080601f831160018114620009195760008415620009005750858301515b600019600386901b1c1916600185901b178555620008a4565b600085815260208120601f198616915b828110156200094a5788860151825594840194600190910190840162000929565b5085821015620009695787850151600019600388901b60f8161c191681555b5050505050600190811b01905550565b6000602082840312156200098c57600080fd5b815160ff811681146200076a57600080fd5b634e487b7160e01b600052600160045260246000fd5b600080600080600060a08688031215620009cd57600080fd5b85518015158114620009de57600080fd5b60208701516040880151606089015160808a0151939850919650945092506001600160401b0381111562000a1157600080fd5b62000a1f8882890162000747565b9150509295509295909350565b600080835462000a3c816200081e565b6001828116801562000a57576001811462000a6d5762000a9e565b60ff198416875282151583028701945062000a9e565b8760005260208060002060005b8581101562000a955781548a82015290840190820162000a7a565b50505082870194505b50929695505050505050565b60805160a05160c05160e0516101005161012051614d5b62000b636000396000818161096001528181611160015281816116540152818161182d0152818161190201528181611bc60152818161237a01528181612400015281816136d7015281816137cb015261381201526000818161110301526125160152600081816106160152818161222b0152818161248d01528181612b070152612c5301526000611aa501526000611a75015260006105c20152614d5b6000f3fe608060405234801561001057600080fd5b50600436106104335760003560e01c80637284e41611610236578063c63d75b61161013b578063dd62ed3e116100c3578063ef8b30f711610087578063ef8b30f714610add578063f05bcfb414610af0578063f7d070de14610b03578063fa07b19f14610b10578063fc173fc614610b2357600080fd5b8063dd62ed3e14610a41578063e134cc8214610a6c578063e4cc3e7614610aa3578063e9a23d3a14610ab6578063edb53d3e14610aca57600080fd5b8063ce96cb771161010a578063ce96cb77146109cc578063d505accf146109df578063d746d3ef146109f2578063d905777e14610a05578063dc361a1314610a2e57600080fd5b8063c63d75b614610650578063c6e6f59214610982578063c83baf4e14610995578063ca13e4501461099e57600080fd5b806396d64879116101be578063b19b1f911161018d578063b19b1f911461090f578063b3d7f6b914610922578063b460af9414610935578063ba08765214610948578063c5d664c61461095b57600080fd5b806396d64879146108c357806398d796e7146108d65780639ec4d40e146108e9578063a9059cbb146108fc57600080fd5b8063841219e511610205578063841219e51461087a5780638da5cb5b1461088257806394bf804d1461089557806395d89b41146108a857806396ce9d5a146108b057600080fd5b80637284e416146107d65780637572cb1f146107de57806379e20bdc146108475780637ecebe001461085a57600080fd5b80633644e5151161033c5780634e1afd00116102c457806360d4efa41161029357806360d4efa41461073c5780636c321c8a146107925780636c8ae38c1461079a5780636e553f65146107a357806370a08231146107b657600080fd5b80634e1afd00146106e457806350c6e6cf146106f757806359dc5c6f146107205780635f260bb81461073357600080fd5b8063471e1cea1161030b578063471e1cea14610678578063492023f81461068b5780634bd3c9a81461069e5780634cdad506146106b15780634dc54a38146106c457600080fd5b80633644e5151461060957806338d52e0f14610611578063402d267d1461065057806342966c681461066557600080fd5b80631316dbde116103bf57806322f0e0691161038e57806322f0e0691461056a57806323b872dd146105975780632b858734146105aa578063313ce567146105bd57806334928ace146105f657600080fd5b80631316dbde14610528578063139f4b6f1461053b57806318160ddd1461054e578063213a7d521461055757600080fd5b806307a2d13a1161040657806307a2d13a146104b8578063095ea7b3146104cb5780630a28a477146104ee5780630e5c011e146105015780630f65cbc41461051457600080fd5b806301e1d11414610438578063063b31d41461045357806306fdde0314610468578063076125a91461047d575b600080fd5b610440610b30565b6040519081526020015b60405180910390f35b610466610461366004614169565b610b4c565b005b610470610d96565b60405161044a91906141c8565b61049061048b366004614169565b610e24565b604080519586526020860194909452928401919091526060830152608082015260a00161044a565b6104406104c6366004614169565b610e6c565b6104de6104d9366004614200565b610eb0565b604051901515815260200161044a565b6104406104fc366004614169565b610f1d565b61046661050f36600461422c565b610f56565b610440610522366004614169565b50600090565b610440610536366004614169565b6110fc565b6104de610549366004614169565b61113e565b61044060025481565b610466610565366004614262565b6111d3565b61057d61057836600461422c565b61123c565b60405161044a9e9d9c9b9a99989796959493929190614317565b6104de6105a53660046143b0565b611385565b6104666105b8366004614169565b611465565b6105e47f000000000000000000000000000000000000000000000000000000000000000081565b60405160ff909116815260200161044a565b6104666106043660046143f1565b611614565b610440611a71565b6106387f000000000000000000000000000000000000000000000000000000000000000081565b6040516001600160a01b03909116815260200161044a565b61044061065e36600461422c565b5060001990565b610466610673366004614169565b611ac7565b6104de610686366004614169565b611ad4565b61046661069936600461422c565b611b4a565b6104406106ac36600461442a565b611c39565b6104406106bf366004614169565b611cd3565b6106d76106d236600461422c565b611cde565b60405161044a9190614456565b6104666106f236600461457a565b611eb8565b610638610705366004614169565b6018602052600090815260409020546001600160a01b031681565b61046661072e366004614169565b612134565b61044060155481565b61077d61074a366004614169565b6000908152601860209081526040808320546001600160a01b031683526017909152902060058101546006909101549091565b6040805192835260208301919091520161044a565b6104406121ad565b61044060145481565b6104406107b13660046145f8565b6121d3565b6104406107c436600461422c565b60036020526000908152604090205481565b6104706122a9565b6107e66122b6565b60405161044a9190600061010082019050825182526020830151602083015260408301516040830152606083015160608301526080830151608083015260a083015160a083015260c083015160c083015260e083015160e083015292915050565b610466610855366004614200565b61234c565b61044061086836600461422c565b60056020526000908152604090205481565b6104406123e8565b601b54610638906001600160a01b031681565b6104406108a33660046145f8565b612473565b610470612502565b6104406108be366004614169565b61250f565b6104de6108d136600461422c565b612551565b6104666108e436600461473d565b612577565b6106d76108f7366004614169565b6128ba565b6104de61090a366004614200565b61296e565b61046661091d36600461422c565b6129d4565b610440610930366004614169565b612a01565b610440610943366004614863565b612a20565b610440610956366004614863565b612b2e565b6106387f000000000000000000000000000000000000000000000000000000000000000081565b610440610990366004614169565b612c7a565b61044060165481565b6109b16109ac366004614169565b612c9a565b6040805193845260208401929092529082015260600161044a565b6104406109da36600461422c565b612f42565b6104666109ed36600461489a565b612f64565b610466610a00366004614169565b6131a8565b610440610a1336600461422c565b6001600160a01b031660009081526003602052604090205490565b610440610a3c36600461422c565b6132be565b610440610a4f366004614911565b600460209081526000928352604080842090915290825290205481565b610a7f610a7a366004614169565b6132e0565b6040805194151585526020850193909352918301521515606082015260800161044a565b610466610ab136600461493f565b61356e565b6104de610ac436600461422c565b50600190565b610638610ad8366004614169565b613760565b610440610aeb366004614169565b61377b565b610466610afe3660046145f8565b613786565b6013546104de9060ff1681565b610466610b1e366004614169565b6137fa565b6006546104de9060ff1681565b6000610b3a6123e8565b600854610b479190614994565b905090565b6000610b586000613760565b6040516370a0823160e01b81523060048201529091506000906001600160a01b038316906370a0823190602401602060405180830381865afa158015610ba2573d6000803e3d6000fd5b505050506040513d601f19601f82011682018060405250810190610bc691906149a7565b60405163b3d7f6b960e01b8152600481018290529091506001600160a01b0383169063b3d7f6b990602401602060405180830381865afa158015610c0e573d6000803e3d6000fd5b505050506040513d601f19601f82011682018060405250810190610c3291906149a7565b831115610c6f5760405162461bcd60e51b815260206004820152600660248201526521216c69713160d01b60448201526064015b60405180910390fd5b60405163537d940960e01b8152600481018490526001600160a01b0383169063537d940990602401602060405180830381865afa158015610cb4573d6000803e3d6000fd5b505050506040513d601f19601f82011682018060405250810190610cd891906149c0565b610d0c5760405162461bcd60e51b815260206004820152600560248201526410b634b89960d91b6044820152606401610c66565b604051632d182be560e21b815260048101849052306024820181905260448201526001600160a01b0383169063b460af94906064016020604051808303816000875af1158015610d60573d6000803e3d6000fd5b505050506040513d601f19601f82011682018060405250810190610d8491906149a7565b50610d91828460006138e9565b505050565b60008054610da3906149dd565b80601f0160208091040260200160405190810160405280929190818152602001828054610dcf906149dd565b8015610e1c5780601f10610df157610100808354040283529160200191610e1c565b820191906000526020600020905b815481529060010190602001808311610dff57829003601f168201915b505050505081565b6000908152601860209081526040808320546001600160a01b0316835260179091529020600d810154600e820154600f83015460108401546011909401549294919390929091565b6002546000908015610e9057610e8b610e83610b30565b849083613a3f565b610ea9565b60065460ff16610ea05782610ea9565b610ea9836110fc565b9392505050565b3360008181526004602090815260408083206001600160a01b038716808552925280832085905551919290917f8c5be1e5ebec7d5bd14f71427d1e84f3dd0314c0f7b2291e5b200ac8c7c3b92590610f0b9086815260200190565b60405180910390a35060015b92915050565b6002546000908015610f3d57610e8b81610f35610b30565b859190613a5e565b60065460ff16610f4d5782610ea9565b610ea98361250f565b6001600160a01b038116600090815260176020526040902060010154610100900460ff16610fbd5760405162461bcd60e51b8152602060048201526014602482015273155395149554d5115117d25b9cdd1c9d5b595b9d60621b6044820152606401610c66565b6001600160a01b03811660008181526017602052604080822060085460028201549251633af9e66960e01b8152600481018690529194909391633af9e66990602401602060405180830381865afa15801561101c573d6000803e3d6000fd5b505050506040513d601f19601f8201168201806040525081019061104091906149a7565b9050808203611050575050505050565b60028401819055600082821015806110715761106c8385614a17565b61107b565b61107b8484614a17565b9150806110915761108c8286614a17565b61109b565b61109b8286614994565b60088190556040805191825260208201859052810183905281151560608201526001600160a01b038816907f6421c76ff84322b255b480a074dc3b65357a55f650d5fc4eedfeea5437c96b719060800160405180910390a250505050505050565b60006111297f00000000000000000000000000000000000000000000000000000000000000006012614a17565b61113490600a614b0e565b610f179083614b1a565b6040516370a0823160e01b815230600482015260009082906001600160a01b037f000000000000000000000000000000000000000000000000000000000000000016906370a0823190602401602060405180830381865afa1580156111a7573d6000803e3d6000fd5b505050506040513d601f19601f820116820180604052508101906111cb91906149a7565b101592915050565b336001600160a01b03831614806111ee57506111ee82612551565b6111f757600080fd5b6001600160a01b03821660009081526017602052604090206004015461121c81611465565b6000908152601960205260409020805460ff191691151591909117905550565b601760205260009081526040902080546001820154600283015460038401546004850154600586015460068701546007880154600889018054989960ff808a169a610100909a041698909190611291906149dd565b80601f01602080910402602001604051908101604052809291908181526020018280546112bd906149dd565b801561130a5780601f106112df5761010080835404028352916020019161130a565b820191906000526020600020905b8154815290600101906020018083116112ed57829003601f168201915b505050506009830154600a8401546040805160e081018252600b8701548152600c8701546020820152600d87015491810191909152600e8601546060820152600f8601546080820152601086015460a082015260119095015460c086015292936001600160a01b03821693600160a01b90920460ff1692508e565b6001600160a01b038316600090815260046020908152604080832033845290915281205460001981146113e1576113bc8382614a17565b6001600160a01b03861660009081526004602090815260408083203384529091529020555b6001600160a01b03851660009081526003602052604081208054859290611409908490614a17565b90915550506001600160a01b0380851660008181526003602052604090819020805487019055519091871690600080516020614d06833981519152906114529087815260200190565b60405180910390a3506001949350505050565b6000818152601860205260409020546001600160a01b03163381148061149557506009546001600160a01b031633145b6114cf5760405162461bcd60e51b815260206004820152600b60248201526a139bdd08185b1b1bddd95960aa1b6044820152606401610c66565b6114d881612551565b6115125760405162461bcd60e51b815260206004820152600b60248201526a139bdd081d1c9d5cdd195960aa1b6044820152606401610c66565b806001600160a01b03166349dcf4ed6040518163ffffffff1660e01b81526004016060604051808303816000875af1158015611552573d6000803e3d6000fd5b505050506040513d601f19601f820116820180604052508101906115769190614b3c565b50505061158281610f56565b806001600160a01b031663f3aa68d36040518163ffffffff1660e01b8152600401600060405180830381600087803b1580156115bd57600080fd5b505af11580156115d1573d6000803e3d6000fd5b5050604080518082018252438152600160208083018281526000988952601a909152929096209051815590519401805460ff191694151594909417909355505050565b61161d83613760565b61162681613a8c565b600061163185613760565b6040516370a0823160e01b81523060048201529091506000906001600160a01b037f000000000000000000000000000000000000000000000000000000000000000016906370a0823190602401602060405180830381865afa15801561169b573d6000803e3d6000fd5b505050506040513d601f19601f820116820180604052508101906116bf91906149a7565b9050808511156117ba5760006116d58287614a17565b6000805260186020527f999d26de3473317ead3eeaf34ca78057f1439db67b6953469c3c96ce9caf6bd7546040516366c4437760e11b8152306004820152602481018390529192506001600160a01b03169063cd8886ee90604401602060405180830381865afa15801561174d573d6000803e3d6000fd5b505050506040513d601f19601f8201168201806040525081019061177191906149c0565b156117845761177f81610b4c565b6117b8565b60405162461bcd60e51b8152602060048201526009602482015268085d985d5b1d18985b60ba1b6044820152606401610c66565b505b84600860008282546117cc9190614994565b90915550506001600160a01b038216600090815260176020526040812060020180548792906117fc908490614994565b909155508490506118dc5760405163a9059cbb60e01b81526001600160a01b038381166004830152602482018790527f0000000000000000000000000000000000000000000000000000000000000000169063a9059cbb906044016020604051808303816000875af1158015611876573d6000803e3d6000fd5b505050506040513d601f19601f8201168201806040525081019061189a91906149c0565b6118d75760405162461bcd60e51b815260206004820152600e60248201526d11115413d4d25517d1905253115160921b6044820152606401610c66565b611a22565b60405163095ea7b360e01b81526001600160a01b038381166004830152602482018790527f0000000000000000000000000000000000000000000000000000000000000000169063095ea7b3906044016020604051808303816000875af115801561194b573d6000803e3d6000fd5b505050506040513d601f19601f8201168201806040525081019061196f91906149c0565b50604051636e553f6560e01b8152600481018690523060248201526000906001600160a01b03841690636e553f65906044016020604051808303816000875af11580156119c0573d6000803e3d6000fd5b505050506040513d601f19601f820116820180604052508101906119e491906149a7565b11611a225760405162461bcd60e51b815260206004820152600e60248201526d11115413d4d25517d1905253115160921b6044820152606401610c66565b6040805186815285151560208201526001600160a01b0384169188917f96ba8877ce47ffd9d7af35a44207700582bc048cfc0be644d3f7d43cf3275258910160405180910390a3505050505050565b60007f00000000000000000000000000000000000000000000000000000000000000004614611aa257610b47613af3565b507f000000000000000000000000000000000000000000000000000000000000000090565b611ad13382613b8d565b50565b600081815260186020908152604080832054815163041f3aa560e51b815291516001600160a01b03909116926383e754a092600480820193918290030181865afa158015611b26573d6000803e3d6000fd5b505050506040513d601f19601f82011682018060405250810190610f1791906149c0565b7f999d26de3473317ead3eeaf34ca78057f1439db67b6953469c3c96ce9caf6bd780546001600160a01b038381166001600160a01b0319909216821790925560008181526017602052604090819020600101805461ff0019166101001790555163095ea7b360e01b8152600481019190915260001960248201527f00000000000000000000000000000000000000000000000000000000000000009091169063095ea7b3906044016020604051808303816000875af1158015611c11573d6000803e3d6000fd5b505050506040513d601f19601f82011682018060405250810190611c3591906149c0565b5050565b60008381526018602052604080822054600754915163b3d7f6b960e01b815260048101929092526001600160a01b031690611cca90829063b3d7f6b990602401602060405180830381865afa158015611c96573d6000803e3d6000fd5b505050506040513d601f19601f82011682018060405250810190611cba91906149a7565b611cc48587614994565b90613bf7565b95945050505050565b6000610f1782610e6c565b611ce661406c565b6001600160a01b03821660009081526017602090815260409182902082516101c08101845281548152600182015460ff808216151594830194909452610100908190049093161515938101939093526002810154606084015260038101546080840152600481015460a0840152600581015460c0840152600681015460e084015260078101549183019190915260088101805461012084019190611d89906149dd565b80601f0160208091040260200160405190810160405280929190818152602001828054611db5906149dd565b8015611e025780601f10611dd757610100808354040283529160200191611e02565b820191906000526020600020905b815481529060010190602001808311611de557829003601f168201915b505050918352505060098201546001600160a01b0381166020830152604090910190600160a01b900460ff166005811115611e3f57611e3f61429b565b6005811115611e5057611e5061429b565b8152600a8201546020808301919091526040805160e081018252600b8501548152600c85015492810192909252600d84015482820152600e8401546060830152600f8401546080830152601084015460a083015260119093015460c082015291015292915050565b611ec0613c0c565b600160176000611ecf86613760565b6001600160a01b03168152602081019190915260400160002060010180549115156101000261ff001990921691909117905580612055576000838152601860209081526040808320546001600160a01b031683526017825291829020908401516005820181905591840151600682018190559091611f4d9190614994565b600382015582516020840151611f70918691611f699190614a17565b6000611614565b4260176000611f7e87613760565b6001600160a01b03166001600160a01b0316815260200190815260200160002060070154611fac9190614994565b60176000611fb987613760565b6001600160a01b031681526020810191909152604001600020600a0155611fdf84613760565b6001600160a01b031663416288dd846020015185604001516040518363ffffffff1660e01b815260040161201d929190918252602082015260400190565b600060405180830381600087803b15801561203757600080fd5b505af115801561204b573d6000803e3d6000fd5b505050505061209d565b6000838152601860209081526040808320546001600160a01b031683526017825290912042600e9091015582519083015161209d9185916120969190614a17565b6001611614565b60008381526018602090815260408083205491850151908501516001600160a01b039092169286927f5f22436ca8b356fcfdd826ffa74d4bbbf0f4a1066169f36d2d8fcfebc9e285fa92916017906120f486613760565b6001600160a01b031681526020808201929092526040908101600020600a01548151948552918401929092529082015260600160405180910390a3505050565b61213c613c0c565b600061214782613760565b9050806001600160a01b03166350bb4beb6040518163ffffffff1660e01b81526004016020604051808303816000875af1158015612189573d6000803e3d6000fd5b505050506040513d601f19601f82011682018060405250810190610d9191906149a7565b60006008546000036121bf5750600090565b610b476121ca610b30565b60085490613c7b565b60006121de8361377b565b90508060000361221e5760405162461bcd60e51b815260206004820152600b60248201526a5a45524f5f53484152455360a81b6044820152606401610c66565b6122536001600160a01b037f000000000000000000000000000000000000000000000000000000000000000016333086613c90565b61225d8282613d13565b60408051848152602081018390526001600160a01b0384169133917fdcbc1c05240f31ff3ad067ef1ee35ce4997762752e3a095284754544f4c709d791015b60405180910390a3610f17565b60128054610da3906149dd565b6122fe60405180610100016040528060008152602001600081526020016000815260200160008152602001600081526020016000815260200160008152602001600081525090565b506040805161010081018252600a548152600b546020820152600c5491810191909152600d546060820152600e546080820152600f5460a082015260105460c082015260115460e082015290565b612354613c0c565b60405163a9059cbb60e01b81526001600160a01b038381166004830152602482018390527f0000000000000000000000000000000000000000000000000000000000000000169063a9059cbb906044015b6020604051808303816000875af11580156123c4573d6000803e3d6000fd5b505050506040513d601f19601f82011682018060405250810190610d9191906149c0565b6040516370a0823160e01b81523060048201526000907f00000000000000000000000000000000000000000000000000000000000000006001600160a01b0316906370a0823190602401602060405180830381865afa15801561244f573d6000803e3d6000fd5b505050506040513d601f19601f82011682018060405250810190610b4791906149a7565b600061247e83612a01565b90506124b56001600160a01b037f000000000000000000000000000000000000000000000000000000000000000016333084613c90565b6124bf8284613d13565b60408051828152602081018590526001600160a01b0384169133917fdcbc1c05240f31ff3ad067ef1ee35ce4997762752e3a095284754544f4c709d7910161229c565b60018054610da3906149dd565b600061253c7f00000000000000000000000000000000000000000000000000000000000000006012614a17565b61254790600a614b0e565b610f179083614b6a565b6001600160a01b0316600090815260176020526040902060010154610100900460ff1690565b61257f613c0c565b806020015161272f5760008160c00151116125dc5760405162461bcd60e51b815260206004820181905260248201527f7072696e636970616c206d7573742062652067726561746572207468616e20306044820152606401610c66565b6000816101000151116126315760405162461bcd60e51b815260206004820152601f60248201527f6475726174696f6e206d7573742062652067726561746572207468616e2030006044820152606401610c66565b60008160800151116126855760405162461bcd60e51b815260206004820181905260248201527f6661636556616c7565206d7573742062652067726561746572207468616e20306044820152606401610c66565b6007548160c0015110156126db5760405162461bcd60e51b815260206004820152601d60248201527f4e6565647320746f20626520696e20646563696d616c20666f726d61740000006044820152606401610c66565b60008160a001511161272f5760405162461bcd60e51b815260206004820152601860248201527f6d7573742062652076616c696420696e737472756d656e7400000000000000006044820152606401610c66565b6101408101516001600160a01b031660009081526017602090815260409182902083518155908301516001820180549385015161ffff1990941691151561ff001916919091176101009315158402179055606083015160028201556080830151600382015560a0830151600482015560c0830151600582015560e0830151600682015590820151600782015561012082015182919060088201906127d39082614bcf565b506101408201516009820180546001600160a01b039092166001600160a01b0319831681178255610160850151926001600160a81b03191617600160a01b8360058111156128235761282361429b565b0217905550610180820151600a8201556101a0909101518051600b830155602080820151600c840155604080830151600d8501556060830151600e8501556080830151600f85015560a080840151601086015560c0909301516011909401939093556101408401519390910151600090815260189091522080546001600160a01b0319166001600160a01b03909216919091179055565b6128c261406c565b6000828152601860209081526040808320546001600160a01b03168352601782529182902082516101c08101845281548152600182015460ff808216151594830194909452610100908190049093161515938101939093526002810154606084015260038101546080840152600481015460a0840152600581015460c0840152600681015460e084015260078101549183019190915260088101805461012084019190611d89906149dd565b3360009081526003602052604081208054839190839061298f908490614a17565b90915550506001600160a01b03831660008181526003602052604090819020805485019055513390600080516020614d0683398151915290610f0b9086815260200190565b6129dc613c0c565b6001600160a01b03166000908152601760205260409020600101805461ff0019169055565b6002546000908015610e9057610e8b612a18610b30565b849083613a5e565b6000612a2b84610f1d565b9050336001600160a01b03831614612a9b576001600160a01b03821660009081526004602090815260408083203384529091529020546000198114612a9957612a748282614a17565b6001600160a01b03841660009081526004602090815260408083203384529091529020555b505b612aa58482613d65565b612aaf8282613b8d565b60408051858152602081018390526001600160a01b03808516929086169133917ffbde797d201c681b91056529119e0b02407c7bb96a4a2c75c01fc9667232c8db910160405180910390a4610ea96001600160a01b037f0000000000000000000000000000000000000000000000000000000000000000168486613dba565b6000336001600160a01b03831614612b9e576001600160a01b03821660009081526004602090815260408083203384529091529020546000198114612b9c57612b778582614a17565b6001600160a01b03841660009081526004602090815260408083203384529091529020555b505b612ba784611cd3565b905080600003612be75760405162461bcd60e51b815260206004820152600b60248201526a5a45524f5f41535345545360a81b6044820152606401610c66565b612bf18185613d65565b612bfb8285613b8d565b60408051828152602081018690526001600160a01b03808516929086169133917ffbde797d201c681b91056529119e0b02407c7bb96a4a2c75c01fc9667232c8db910160405180910390a4610ea96001600160a01b037f0000000000000000000000000000000000000000000000000000000000000000168483613dba565b6002546000908015610f3d57610e8b81612c92610b30565b859190613a3f565b6000806000612cf76040518061014001604052806000815260200160008152602001600081526020016000815260200160008152602001600081526020016000815260200160008152602001600081526020016000151581525090565b612d0085610e24565b6080860152606085018190526040850182905260208501929092529183529250612d505760405162461bcd60e51b81526020600482015260016024820152600360fc1b6044820152606401610c66565b612d87612d7c826020015142612d669190614a17565b6007548451612d759082614994565b9190613e38565b604083015190613bf7565b60a0820152600954604051634955b91f60e11b8152600481018790526001600160a01b03909116906392ab723e90602401602060405180830381865afa158015612dd5573d6000803e3d6000fd5b505050506040513d601f19601f82011682018060405250810190612df991906149a7565b60e082018190526060820151612e0f9190613bf7565b6101008201819052604082015160e0830151612e3092611cc4918991611c39565b60c0820152610100810151600003612e505760a001519250829150612f3b565b61010081015160a0820151612e6491613bf7565b8160c0015110612e7a578060a001519350612e99565b61010081015160c0820151612e8e91613c7b565b600161012083015293505b806101200151612edf57612edc8160e00151612ec78361010001518460a00151613bf790919063ffffffff16565b8360c00151612ed69190614a17565b90613c7b565b92505b6000612efc82606001518360a00151613bf790919063ffffffff16565b612f2d612f1b6109308560400151600754613bf790919063ffffffff16565b8460600151600754611cc49190614994565b612f379190614a17565b5050505b9193909250565b6001600160a01b038116600090815260036020526040812054610f1790610e6c565b42841015612fb45760405162461bcd60e51b815260206004820152601760248201527f5045524d49545f444541444c494e455f455850495245440000000000000000006044820152606401610c66565b60006001612fc0611a71565b6001600160a01b038a811660008181526005602090815260409182902080546001810190915582517f6e71edae12b1b97f4d1f60370fef10105fa2faae0126114a169c64845d6126c98184015280840194909452938d166060840152608083018c905260a083019390935260c08083018b90528151808403909101815260e08301909152805192019190912061190160f01b6101008301526101028201929092526101228101919091526101420160408051601f198184030181528282528051602091820120600084529083018083525260ff871690820152606081018590526080810184905260a0016020604051602081039080840390855afa1580156130cc573d6000803e3d6000fd5b5050604051601f1901519150506001600160a01b038116158015906131025750876001600160a01b0316816001600160a01b0316145b61313f5760405162461bcd60e51b815260206004820152600e60248201526d24a72b20a624a22fa9a4a3a722a960911b6044820152606401610c66565b6001600160a01b0390811660009081526004602090815260408083208a8516808552908352928190208990555188815291928a16917f8c5be1e5ebec7d5bd14f71427d1e84f3dd0314c0f7b2291e5b200ac8c7c3b925910160405180910390a350505050505050565b6131b0613c0c565b6000818152601860209081526040808320546001600160a01b031683526017909152902081158015906131ef575060098101546001600160a01b031615155b6132305760405162461bcd60e51b81526020600482015260126024820152711a5b9d985b1a59081a5b9cdd1c9d5b595b9d60721b6044820152606401610c66565b6001810154610100900460ff161561328a5760405162461bcd60e51b815260206004820152601e60248201527f63616e27742064656e7920617070726f76656420696e737472756d656e7400006044820152606401610c66565b60405182907f2d0c55bb11caafe3aed6eebf9c466c6c50dc9b2706d918bc83357ee394da0ef590600090a2611c3582613ef6565b6001600160a01b038116600090815260036020526040812054610f1790611cd3565b6000806000806132ee613c0c565b600085815260186020908152604080832054601a835292819020815180830183528154815260019091015460ff161515818401528151632938b58d60e21b815291516001600160a01b03909416939092849263a4e2d63492600480830193928290030181865afa158015613366573d6000803e3d6000fd5b505050506040513d601f19601f8201168201806040525081019061338a91906149c0565b6133c35760405162461bcd60e51b815260206004820152600a602482015269139bdd08131bd8dad95960b21b6044820152606401610c66565b6000826001600160a01b0316631104aafd6040518163ffffffff1660e01b8152600401602060405180830381865afa158015613403573d6000803e3d6000fd5b505050506040513d601f19601f8201168201806040525081019061342791906149a7565b60008981526019602052604081205491925060ff909116908080836134d5576001600160a01b0387166000908152601760205260409020600301548510925082613472576000613499565b6001600160a01b038716600090815260176020526040902060030154613499908690614a17565b915082156134a85760006134ce565b6001600160a01b0387166000908152601760205260409020600301546134ce9086614a17565b905061352b565b6001600160a01b0387166000908152601760205260409020600501548510925082613501576000613528565b6001600160a01b038716600090815260176020526040902060050154613528908690614a17565b91505b613537878660016138e9565b6001600160a01b03871660009081526017602052604090206004015461355c90613ef6565b919b919a509850909650945050505050565b600061357985613760565b90506001600160a01b03811663537d94096135948685614994565b6040518263ffffffff1660e01b81526004016135b291815260200190565b602060405180830381865afa1580156135cf573d6000803e3d6000fd5b505050506040513d601f19601f820116820180604052508101906135f391906149c0565b6136285760405162461bcd60e51b8152600401610c6690602080825260049082015263216c697160e01b604082015260600190565b6001600160a01b03811663b460af946136418685614994565b6040516001600160e01b031960e084901b1681526004810191909152306024820181905260448201526064016020604051808303816000875af115801561368c573d6000803e3d6000fd5b505050506040513d601f19601f820116820180604052508101906136b091906149a7565b5060405163a9059cbb60e01b81526001600160a01b038481166004830152602482018690527f0000000000000000000000000000000000000000000000000000000000000000169063a9059cbb906044016020604051808303816000875af1158015613720573d6000803e3d6000fd5b505050506040513d601f19601f8201168201806040525081019061374491906149c0565b5061375961375186613760565b8360006138e9565b5050505050565b6000908152601860205260409020546001600160a01b031690565b6000610f1782612c7a565b61378e613c0c565b60065460ff16156137a5576137a2826110fc565b91505b60405163a9059cbb60e01b81526001600160a01b038281166004830152602482018490527f0000000000000000000000000000000000000000000000000000000000000000169063a9059cbb906044016123a5565b6040516370a0823160e01b81523060048201526000907f00000000000000000000000000000000000000000000000000000000000000006001600160a01b0316906370a0823190602401602060405180830381865afa158015613861573d6000803e3d6000fd5b505050506040513d601f19601f8201168201806040525081019061388591906149a7565b9050808211156138ca5760405162461bcd60e51b815260206004820152601060248201526f707573682065786365656473206c697160801b6044820152606401610c66565b600082156138d857826138da565b815b9050610d916000826001611614565b826138f381613a8c565b6001600160a01b0384166000908152601760205260408120600201805485929061391e908490614a17565b9250508190555082600860008282546139379190614a17565b909155505081156139e95760405163852a12e360e01b8152600481018490526001600160a01b0385169063852a12e3906024016020604051808303816000875af1158015613989573d6000803e3d6000fd5b505050506040513d601f19601f820116820180604052508101906139ad91906149c0565b6139e95760405162461bcd60e51b815260206004820152600d60248201526c14915111515357d19052531151609a1b6044820152606401610c66565b6001600160a01b0384166000818152601760209081526040918290206004015491518681527f881b4464dbc964dda309ca47f63a3fbbfb685abbe05c3c6687dd03f08bfeea12910160405180910390a350505050565b828202811515841585830485141716613a5757600080fd5b0492915050565b828202811515841585830485141716613a7657600080fd5b6001826001830304018115150290509392505050565b6001600160a01b038116600090815260176020526040902060010154610100900460ff16611ad15760405162461bcd60e51b8152602060048201526014602482015273155395149554d5115108125b9cdd1c9d5b595b9d60621b6044820152606401610c66565b60007f8b73c3c69bb8fe3d512ecc4cf759cc79239f7b179b0ffacaa9a75d522b39400f6000604051613b259190614c8f565b6040805191829003822060208301939093528101919091527fc89efdaa54c0f20c7adf612882df0950f5a951637e0307cdcb4c672f298b8bc660608201524660808201523060a082015260c00160405160208183030381529060405280519060200120905090565b6001600160a01b03821660009081526003602052604081208054839290613bb5908490614a17565b90915550506002805482900390556040518181526000906001600160a01b03841690600080516020614d06833981519152906020015b60405180910390a35050565b6000610ea98383670de0b6b3a7640000613a3f565b6009546001600160a01b0316331480613c2f5750601b546001600160a01b031633145b80613c3957503033145b613c795760405162461bcd60e51b815260206004820152601160248201527034b9903737ba1031b7b73a3937b63632b960791b6044820152606401610c66565b565b6000610ea983670de0b6b3a764000084613a3f565b60006040516323b872dd60e01b81528460048201528360248201528260448201526020600060648360008a5af13d15601f3d11600160005114161716915050806137595760405162461bcd60e51b81526020600482015260146024820152731514905394d1915497d19493d357d1905253115160621b6044820152606401610c66565b8060026000828254613d259190614994565b90915550506001600160a01b038216600081815260036020908152604080832080548601905551848152600080516020614d068339815191529101613beb565b613d6e8261113e565b611c355760405162461bcd60e51b815260206004820152601c60248201527f4e6f7420656e6f756768206c6971756469747920696e207661756c74000000006044820152606401610c66565b600060405163a9059cbb60e01b8152836004820152826024820152602060006044836000895af13d15601f3d1160016000511416171691505080613e325760405162461bcd60e51b815260206004820152600f60248201526e1514905394d1915497d19052531151608a1b6044820152606401610c66565b50505050565b6000838015613ed857600184168015613e5357859250613e57565b8392505b508260011c8460011c94505b8415613ed2578560801c15613e7757600080fd5b85860281810181811015613e8a57600080fd5b8590049650506001851615613ec7578583028387820414613eb0578615613eb057600080fd5b81810181811015613ec057600080fd5b8590049350505b8460011c9450613e63565b50613eee565b838015613ee85760009250613eec565b8392505b505b509392505050565b6000818152601860209081526040808320546001600160a01b03168352601790915290206004810154613f6b5760405162461bcd60e51b815260206004820152601860248201527f696e737472756d656e7420646f65736e277420657869737400000000000000006044820152606401610c66565b6000828152601860209081526040808320546001600160a01b031683526017909152812081815560018101805461ffff1916905560028101829055600381018290556004810182905560058101829055600681018290556007810182905590613fd7600883018261411b565b506009810180546001600160a81b03191690556000600a8201819055600b8201819055600c8201819055600d8201819055600e8201819055600f82018190556010820181905560119091018190558281526018602052604080822080546001600160a01b03191690555183907ff2c79fb37cf068a1203864bc62bac9000eb31d5a2425782708e645934a942bbe908390a35050565b604080516101c08101825260008082526020820181905291810182905260608082018390526080820183905260a0820183905260c0820183905260e0820183905261010082018390526101208201526101408101829052906101608201908152602001600081526020016141166040518060e00160405280600081526020016000815260200160008152602001600081526020016000815260200160008152602001600081525090565b905290565b508054614127906149dd565b6000825580601f10614137575050565b601f016020900490600052602060002090810190611ad191905b808211156141655760008155600101614151565b5090565b60006020828403121561417b57600080fd5b5035919050565b6000815180845260005b818110156141a85760208185018101518683018201520161418c565b506000602082860101526020601f19601f83011685010191505092915050565b602081526000610ea96020830184614182565b6001600160a01b0381168114611ad157600080fd5b80356141fb816141db565b919050565b6000806040838503121561421357600080fd5b823561421e816141db565b946020939093013593505050565b60006020828403121561423e57600080fd5b8135610ea9816141db565b8015158114611ad157600080fd5b80356141fb81614249565b6000806040838503121561427557600080fd5b8235614280816141db565b9150602083013561429081614249565b809150509250929050565b634e487b7160e01b600052602160045260246000fd5b600681106142cf57634e487b7160e01b600052602160045260246000fd5b9052565b805182526020810151602083015260408101516040830152606081015160608301526080810151608083015260a081015160a083015260c081015160c08301525050565b8e81528d151560208201528c151560408201528b60608201528a60808201528960a08201528860c08201528760e0820152866101008201526102806101208201526000614368610280830188614182565b6001600160a01b03871661014084015290506143886101608301866142b1565b8361018083015261439d6101a08301846142d3565b9f9e505050505050505050505050505050565b6000806000606084860312156143c557600080fd5b83356143d0816141db565b925060208401356143e0816141db565b929592945050506040919091013590565b60008060006060848603121561440657600080fd5b8335925060208401359150604084013561441f81614249565b809150509250925092565b60008060006060848603121561443f57600080fd5b505081359360208301359350604090920135919050565b602081528151602082015260006020830151614476604084018215159052565b50604083015180151560608401525060608301516080830152608083015160a083015260a083015160c083015260c083015160e083015260e0830151610100818185015280850151915050610120818185015280850151915050610140610280818501526144e86102a0850183614182565b90850151909150610160614506858201836001600160a01b03169052565b850151905061018061451a858201836142b1565b8501516101a0858101919091528501519050613eee6101c08501826142d3565b634e487b7160e01b600052604160045260246000fd5b6040516101c0810167ffffffffffffffff811182821017156145745761457461453a565b60405290565b600080600083850360a081121561459057600080fd5b843593506060601f19820112156145a657600080fd5b506040516060810181811067ffffffffffffffff821117156145ca576145ca61453a565b6040908152602086810135835286820135908301526060860135908201529150608084013561441f81614249565b6000806040838503121561460b57600080fd5b823591506020830135614290816141db565b600082601f83011261462e57600080fd5b813567ffffffffffffffff808211156146495761464961453a565b604051601f8301601f19908116603f011681019082821181831017156146715761467161453a565b8160405283815286602085880101111561468a57600080fd5b836020870160208301376000602085830101528094505050505092915050565b8035600681106141fb57600080fd5b600060e082840312156146cb57600080fd5b60405160e0810181811067ffffffffffffffff821117156146ee576146ee61453a565b8060405250809150823581526020830135602082015260408301356040820152606083013560608201526080830135608082015260a083013560a082015260c083013560c08201525092915050565b60006020828403121561474f57600080fd5b813567ffffffffffffffff8082111561476757600080fd5b90830190610280828603121561477c57600080fd5b614784614550565b8235815261479460208401614257565b60208201526147a560408401614257565b6040820152606083013560608201526080830135608082015260a083013560a082015260c083013560c082015260e083013560e082015261010080840135818301525061012080840135838111156147fc57600080fd5b6148088882870161461d565b828401525050610140915061481e8284016141f0565b8282015261016091506148328284016146aa565b82820152610180915081830135828201526101a09150614854868385016146b9565b91810191909152949350505050565b60008060006060848603121561487857600080fd5b83359250602084013561488a816141db565b9150604084013561441f816141db565b600080600080600080600060e0888a0312156148b557600080fd5b87356148c0816141db565b965060208801356148d0816141db565b95506040880135945060608801359350608088013560ff811681146148f457600080fd5b9699959850939692959460a0840135945060c09093013592915050565b6000806040838503121561492457600080fd5b823561492f816141db565b91506020830135614290816141db565b6000806000806080858703121561495557600080fd5b8435935060208501359250604085013561496e816141db565b9396929550929360600135925050565b634e487b7160e01b600052601160045260246000fd5b80820180821115610f1757610f1761497e565b6000602082840312156149b957600080fd5b5051919050565b6000602082840312156149d257600080fd5b8151610ea981614249565b600181811c908216806149f157607f821691505b602082108103614a1157634e487b7160e01b600052602260045260246000fd5b50919050565b81810381811115610f1757610f1761497e565b600181815b80851115614a65578160001904821115614a4b57614a4b61497e565b80851615614a5857918102915b93841c9390800290614a2f565b509250929050565b600082614a7c57506001610f17565b81614a8957506000610f17565b8160018114614a9f5760028114614aa957614ac5565b6001915050610f17565b60ff841115614aba57614aba61497e565b50506001821b610f17565b5060208310610133831016604e8410600b8410161715614ae8575081810a610f17565b614af28383614a2a565b8060001904821115614b0657614b0661497e565b029392505050565b6000610ea98383614a6d565b600082614b3757634e487b7160e01b600052601260045260246000fd5b500490565b600080600060608486031215614b5157600080fd5b8351925060208401519150604084015190509250925092565b8082028115828204841417610f1757610f1761497e565b601f821115610d9157600081815260208120601f850160051c81016020861015614ba85750805b601f850160051c820191505b81811015614bc757828155600101614bb4565b505050505050565b815167ffffffffffffffff811115614be957614be961453a565b614bfd81614bf784546149dd565b84614b81565b602080601f831160018114614c325760008415614c1a5750858301515b600019600386901b1c1916600185901b178555614bc7565b600085815260208120601f198616915b82811015614c6157888601518255948401946001909101908401614c42565b5085821015614c7f5787850151600019600388901b60f8161c191681555b5050505050600190811b01905550565b6000808354614c9d816149dd565b60018281168015614cb55760018114614cca57614cf9565b60ff1984168752821515830287019450614cf9565b8760005260208060002060005b85811015614cf05781548a820152908401908201614cd7565b50505082870194505b5092969550505050505056feddf252ad1be2c89b69c2b068fc378daa952ba7f163c4a11628f55a4df523b3efa26469706673582212207fa38d66f7e3af6a6b78b737f1a30ae46c9e3f92ecb575cc18cf32178a4507b464736f6c63430008110033",
    "linkReferences": {}
  },
  "methodIdentifiers": {
    "DOMAIN_SEPARATOR()": "3644e515",
    "Instruments(uint256)": "50c6e6cf",
    "UNDERLYING()": "c5d664c6",
    "addLendingModule(address)": "492023f8",
    "addProposal((bytes32,bool,bool,uint256,uint256,uint256,uint256,uint256,uint256,string,address,uint8,uint256,(uint256,uint256,uint256,uint256,uint256,uint256,uint256)))": "98d796e7",
    "allowance(address,address)": "dd62ed3e",
    "approve(address,uint256)": "095ea7b3",
    "asset()": "38d52e0f",
    "asset_limit()": "5f260bb8",
    "balanceInUnderlying(address)": "dc361a13",
    "balanceOf(address)": "70a08231",
    "beforeResolve(uint256)": "2b858734",
    "burn(uint256)": "42966c68",
    "closeInstrument(uint256)": "59dc5c6f",
    "convertToAssets(uint256)": "07a2d13a",
    "convertToShares(uint256)": "c6e6f592",
    "decAssetsToShares(uint256)": "96ce9d5a",
    "decSharesToAssets(uint256)": "1316dbde",
    "decimal_mismatch()": "fc173fc6",
    "decimals()": "313ce567",
    "denyInstrument(uint256)": "d746d3ef",
    "deposit(uint256,address)": "6e553f65",
    "depositIntoInstrument(uint256,uint256,bool)": "34928ace",
    "description()": "7284e416",
    "distrustInstrument(address)": "b19b1f91",
    "enoughLiqudity(uint256)": "139f4b6f",
    "fetchInstrument(uint256)": "edb53d3e",
    "fetchInstrumentData(uint256)": "9ec4d40e",
    "fetchPoolTrancheData(uint256)": "076125a9",
    "getInstrumentData(address)": "4dc54a38",
    "getInstrumentType(uint256)": "0f65cbc4",
    "get_vault_params()": "7572cb1f",
    "harvest(address)": "0e5c011e",
    "instrumentApprovalCondition(uint256)": "471e1cea",
    "instrumentAssetOracle(uint256,uint256,uint256)": "4bd3c9a8",
    "instrument_data(address)": "22f0e069",
    "isTrusted(address)": "96d64879",
    "maxDeposit(address)": "402d267d",
    "maxMint(address)": "c63d75b6",
    "maxRedeem(address)": "d905777e",
    "maxWithdraw(address)": "ce96cb77",
    "mint(uint256,address)": "94bf804d",
    "name()": "06fdde03",
    "nonces(address)": "7ecebe00",
    "onlyVerified()": "f7d070de",
    "owner()": "8da5cb5b",
    "permit(address,address,uint256,uint256,uint8,bytes32,bytes32)": "d505accf",
    "pingMaturity(address,bool)": "213a7d52",
    "poolZCBValue(uint256)": "ca13e450",
    "previewDeposit(uint256)": "ef8b30f7",
    "previewMint(uint256)": "b3d7f6b9",
    "previewRedeem(uint256)": "4cdad506",
    "previewWithdraw(uint256)": "0a28a477",
    "pullFromLM(uint256)": "063b31d4",
    "pushToLM(uint256)": "fa07b19f",
    "r()": "6c8ae38c",
    "receiver_conditions(address)": "e9a23d3a",
    "redeem(uint256,address,address)": "ba087652",
    "repayDebt(address,uint256)": "79e20bdc",
    "resolveInstrument(uint256)": "e134cc82",
    "symbol()": "95d89b41",
    "totalAssets()": "01e1d114",
    "totalFloat()": "841219e5",
    "totalSupply()": "18160ddd",
    "total_asset_limit()": "c83baf4e",
    "transfer(address,uint256)": "a9059cbb",
    "transferFrom(address,address,uint256)": "23b872dd",
    "trustInstrument(uint256,(uint256,uint256,uint256),bool)": "4e1afd00",
    "trusted_transfer(uint256,address)": "f05bcfb4",
    "utilizationRate()": "6c321c8a",
    "viewPrincipalAndYield(uint256)": "60d4efa4",
    "withdraw(uint256,address,address)": "b460af94",
    "withdrawFromPoolInstrument(uint256,uint256,address,uint256)": "e4cc3e76"
  },
  "id": 33
}