{
  "abi": [
    {
      "inputs": [
        {
          "internalType": "address",
          "name": "_UNDERLYING",
          "type": "address"
        },
        {
          "internalType": "address",
          "name": "_controller",
          "type": "address"
        },
        {
          "internalType": "address",
          "name": "_owner",
          "type": "address"
        },
        {
          "internalType": "bytes",
          "name": "_configData",
          "type": "bytes"
        },
        {
          "components": [
            {
              "internalType": "uint256",
              "name": "N",
              "type": "uint256"
            },
            {
              "internalType": "uint256",
              "name": "sigma",
              "type": "uint256"
            },
            {
              "internalType": "uint256",
              "name": "alpha",
              "type": "uint256"
            },
            {
              "internalType": "uint256",
              "name": "omega",
              "type": "uint256"
            },
            {
              "internalType": "uint256",
              "name": "delta",
              "type": "uint256"
            },
            {
              "internalType": "uint256",
              "name": "r",
              "type": "uint256"
            },
            {
              "internalType": "uint256",
              "name": "s",
              "type": "uint256"
            },
            {
              "internalType": "uint256",
              "name": "steak",
              "type": "uint256"
            }
          ],
          "internalType": "struct MarketParameters",
          "name": "_default_params",
          "type": "tuple"
        }
      ],
      "stateMutability": "nonpayable",
      "type": "constructor"
    },
    {
      "anonymous": false,
      "inputs": [
        {
          "indexed": true,
          "internalType": "address",
          "name": "owner",
          "type": "address"
        },
        {
          "indexed": true,
          "internalType": "address",
          "name": "spender",
          "type": "address"
        },
        {
          "indexed": false,
          "internalType": "uint256",
          "name": "amount",
          "type": "uint256"
        }
      ],
      "name": "Approval",
      "type": "event"
    },
    {
      "anonymous": false,
      "inputs": [
        {
          "indexed": true,
          "internalType": "address",
          "name": "caller",
          "type": "address"
        },
        {
          "indexed": true,
          "internalType": "address",
          "name": "owner",
          "type": "address"
        },
        {
          "indexed": false,
          "internalType": "uint256",
          "name": "assets",
          "type": "uint256"
        },
        {
          "indexed": false,
          "internalType": "uint256",
          "name": "shares",
          "type": "uint256"
        }
      ],
      "name": "Deposit",
      "type": "event"
    },
    {
      "anonymous": false,
      "inputs": [
        {
          "indexed": true,
          "internalType": "uint256",
          "name": "marketId",
          "type": "uint256"
        }
      ],
      "name": "InstrumentDeny",
      "type": "event"
    },
    {
      "anonymous": false,
      "inputs": [
        {
          "indexed": true,
          "internalType": "uint256",
          "name": "marketId",
          "type": "uint256"
        },
        {
          "indexed": true,
          "internalType": "address",
          "name": "instrument",
          "type": "address"
        },
        {
          "indexed": false,
          "internalType": "uint256",
          "name": "amount",
          "type": "uint256"
        },
        {
          "indexed": false,
          "internalType": "bool",
          "name": "isPool",
          "type": "bool"
        }
      ],
      "name": "InstrumentDeposit",
      "type": "event"
    },
    {
      "anonymous": false,
      "inputs": [
        {
          "indexed": true,
          "internalType": "address",
          "name": "instrument",
          "type": "address"
        },
        {
          "indexed": false,
          "internalType": "uint256",
          "name": "totalInstrumentHoldings",
          "type": "uint256"
        },
        {
          "indexed": false,
          "internalType": "uint256",
          "name": "instrument_balance",
          "type": "uint256"
        },
        {
          "indexed": false,
          "internalType": "uint256",
          "name": "mag",
          "type": "uint256"
        },
        {
          "indexed": false,
          "internalType": "bool",
          "name": "sign",
          "type": "bool"
        }
      ],
      "name": "InstrumentHarvest",
      "type": "event"
    },
    {
      "anonymous": false,
      "inputs": [
        {
          "indexed": true,
          "internalType": "uint256",
          "name": "marketId",
          "type": "uint256"
        },
        {
          "indexed": true,
          "internalType": "address",
          "name": "instrumentAddress",
          "type": "address"
        }
      ],
      "name": "InstrumentRemoved",
      "type": "event"
    },
    {
      "anonymous": false,
      "inputs": [
        {
          "indexed": true,
          "internalType": "uint256",
          "name": "marketId",
          "type": "uint256"
        },
        {
          "indexed": true,
          "internalType": "address",
          "name": "instrument",
          "type": "address"
        },
        {
          "indexed": false,
          "internalType": "uint256",
          "name": "principal",
          "type": "uint256"
        },
        {
          "indexed": false,
          "internalType": "uint256",
          "name": "expectedYield",
          "type": "uint256"
        },
        {
          "indexed": false,
          "internalType": "uint256",
          "name": "maturityDate",
          "type": "uint256"
        }
      ],
      "name": "InstrumentTrusted",
      "type": "event"
    },
    {
      "anonymous": false,
      "inputs": [
        {
          "indexed": true,
          "internalType": "uint256",
          "name": "marketId",
          "type": "uint256"
        },
        {
          "indexed": true,
          "internalType": "address",
          "name": "instrument",
          "type": "address"
        },
        {
          "indexed": false,
          "internalType": "uint256",
          "name": "amount",
          "type": "uint256"
        }
      ],
      "name": "InstrumentWithdrawal",
      "type": "event"
    },
    {
      "anonymous": false,
      "inputs": [
        {
          "indexed": true,
          "internalType": "address",
          "name": "from",
          "type": "address"
        },
        {
          "indexed": true,
          "internalType": "address",
          "name": "to",
          "type": "address"
        },
        {
          "indexed": false,
          "internalType": "uint256",
          "name": "amount",
          "type": "uint256"
        }
      ],
      "name": "Transfer",
      "type": "event"
    },
    {
      "anonymous": false,
      "inputs": [
        {
          "indexed": true,
          "internalType": "address",
          "name": "caller",
          "type": "address"
        },
        {
          "indexed": true,
          "internalType": "address",
          "name": "receiver",
          "type": "address"
        },
        {
          "indexed": true,
          "internalType": "address",
          "name": "owner",
          "type": "address"
        },
        {
          "indexed": false,
          "internalType": "uint256",
          "name": "assets",
          "type": "uint256"
        },
        {
          "indexed": false,
          "internalType": "uint256",
          "name": "shares",
          "type": "uint256"
        }
      ],
      "name": "Withdraw",
      "type": "event"
    },
    {
      "inputs": [],
      "name": "DOMAIN_SEPARATOR",
      "outputs": [
        {
          "internalType": "bytes32",
          "name": "",
          "type": "bytes32"
        }
      ],
      "stateMutability": "view",
      "type": "function"
    },
    {
      "inputs": [
        {
          "internalType": "uint256",
          "name": "",
          "type": "uint256"
        }
      ],
      "name": "Instruments",
      "outputs": [
        {
          "internalType": "contract Instrument",
          "name": "",
          "type": "address"
        }
      ],
      "stateMutability": "view",
      "type": "function"
    },
    {
      "inputs": [],
      "name": "UNDERLYING",
      "outputs": [
        {
          "internalType": "contract ERC20",
          "name": "",
          "type": "address"
        }
      ],
      "stateMutability": "view",
      "type": "function"
    },
    {
      "inputs": [
        {
          "internalType": "address",
          "name": "lv",
          "type": "address"
        }
      ],
      "name": "addLendingModule",
      "outputs": [],
      "stateMutability": "nonpayable",
      "type": "function"
    },
    {
      "inputs": [
        {
          "components": [
            {
              "internalType": "bytes32",
              "name": "name",
              "type": "bytes32"
            },
            {
              "internalType": "bool",
              "name": "isPool",
              "type": "bool"
            },
            {
              "internalType": "bool",
              "name": "trusted",
              "type": "bool"
            },
            {
              "internalType": "uint256",
              "name": "balance",
              "type": "uint256"
            },
            {
              "internalType": "uint256",
              "name": "faceValue",
              "type": "uint256"
            },
            {
              "internalType": "uint256",
              "name": "marketId",
              "type": "uint256"
            },
            {
              "internalType": "uint256",
              "name": "principal",
              "type": "uint256"
            },
            {
              "internalType": "uint256",
              "name": "expectedYield",
              "type": "uint256"
            },
            {
              "internalType": "uint256",
              "name": "duration",
              "type": "uint256"
            },
            {
              "internalType": "string",
              "name": "description",
              "type": "string"
            },
            {
              "internalType": "address",
              "name": "instrument_address",
              "type": "address"
            },
            {
              "internalType": "enum InstrumentType",
              "name": "instrument_type",
              "type": "uint8"
            },
            {
              "internalType": "uint256",
              "name": "maturityDate",
              "type": "uint256"
            },
            {
              "components": [
                {
                  "internalType": "uint256",
                  "name": "saleAmount",
                  "type": "uint256"
                },
                {
                  "internalType": "uint256",
                  "name": "initPrice",
                  "type": "uint256"
                },
                {
                  "internalType": "uint256",
                  "name": "promisedReturn",
                  "type": "uint256"
                },
                {
                  "internalType": "uint256",
                  "name": "inceptionTime",
                  "type": "uint256"
                },
                {
                  "internalType": "uint256",
                  "name": "inceptionPrice",
                  "type": "uint256"
                },
                {
                  "internalType": "uint256",
                  "name": "leverageFactor",
                  "type": "uint256"
                },
                {
                  "internalType": "uint256",
                  "name": "managementFee",
                  "type": "uint256"
                }
              ],
              "internalType": "struct PoolData",
              "name": "poolData",
              "type": "tuple"
            }
          ],
          "internalType": "struct InstrumentData",
          "name": "data",
          "type": "tuple"
        }
      ],
      "name": "addProposal",
      "outputs": [],
      "stateMutability": "nonpayable",
      "type": "function"
    },
    {
      "inputs": [
        {
          "internalType": "address",
          "name": "",
          "type": "address"
        },
        {
          "internalType": "address",
          "name": "",
          "type": "address"
        }
      ],
      "name": "allowance",
      "outputs": [
        {
          "internalType": "uint256",
          "name": "",
          "type": "uint256"
        }
      ],
      "stateMutability": "view",
      "type": "function"
    },
    {
      "inputs": [
        {
          "internalType": "address",
          "name": "spender",
          "type": "address"
        },
        {
          "internalType": "uint256",
          "name": "amount",
          "type": "uint256"
        }
      ],
      "name": "approve",
      "outputs": [
        {
          "internalType": "bool",
          "name": "",
          "type": "bool"
        }
      ],
      "stateMutability": "nonpayable",
      "type": "function"
    },
    {
      "inputs": [],
      "name": "asset",
      "outputs": [
        {
          "internalType": "contract ERC20",
          "name": "",
          "type": "address"
        }
      ],
      "stateMutability": "view",
      "type": "function"
    },
    {
      "inputs": [],
      "name": "asset_limit",
      "outputs": [
        {
          "internalType": "uint256",
          "name": "",
          "type": "uint256"
        }
      ],
      "stateMutability": "view",
      "type": "function"
    },
    {
      "inputs": [
        {
          "internalType": "address",
          "name": "ad",
          "type": "address"
        }
      ],
      "name": "balanceInUnderlying",
      "outputs": [
        {
          "internalType": "uint256",
          "name": "",
          "type": "uint256"
        }
      ],
      "stateMutability": "view",
      "type": "function"
    },
    {
      "inputs": [
        {
          "internalType": "address",
          "name": "",
          "type": "address"
        }
      ],
      "name": "balanceOf",
      "outputs": [
        {
          "internalType": "uint256",
          "name": "",
          "type": "uint256"
        }
      ],
      "stateMutability": "view",
      "type": "function"
    },
    {
      "inputs": [
        {
          "internalType": "uint256",
          "name": "marketId",
          "type": "uint256"
        }
      ],
      "name": "beforeResolve",
      "outputs": [],
      "stateMutability": "nonpayable",
      "type": "function"
    },
    {
      "inputs": [
        {
          "internalType": "uint256",
          "name": "marketId",
          "type": "uint256"
        }
      ],
      "name": "closeInstrument",
      "outputs": [],
      "stateMutability": "nonpayable",
      "type": "function"
    },
    {
      "inputs": [
        {
          "internalType": "uint256",
          "name": "shares",
          "type": "uint256"
        }
      ],
      "name": "convertToAssets",
      "outputs": [
        {
          "internalType": "uint256",
          "name": "",
          "type": "uint256"
        }
      ],
      "stateMutability": "view",
      "type": "function"
    },
    {
      "inputs": [
        {
          "internalType": "uint256",
          "name": "assets",
          "type": "uint256"
        }
      ],
      "name": "convertToShares",
      "outputs": [
        {
          "internalType": "uint256",
          "name": "",
          "type": "uint256"
        }
      ],
      "stateMutability": "view",
      "type": "function"
    },
    {
      "inputs": [],
      "name": "decimals",
      "outputs": [
        {
          "internalType": "uint8",
          "name": "",
          "type": "uint8"
        }
      ],
      "stateMutability": "view",
      "type": "function"
    },
    {
      "inputs": [
        {
          "internalType": "uint256",
          "name": "marketId",
          "type": "uint256"
        }
      ],
      "name": "denyInstrument",
      "outputs": [],
      "stateMutability": "nonpayable",
      "type": "function"
    },
    {
      "inputs": [
        {
          "internalType": "uint256",
          "name": "assets",
          "type": "uint256"
        },
        {
          "internalType": "address",
          "name": "receiver",
          "type": "address"
        }
      ],
      "name": "deposit",
      "outputs": [
        {
          "internalType": "uint256",
          "name": "shares",
          "type": "uint256"
        }
      ],
      "stateMutability": "nonpayable",
      "type": "function"
    },
    {
      "inputs": [
        {
          "internalType": "uint256",
          "name": "marketId",
          "type": "uint256"
        },
        {
          "internalType": "uint256",
          "name": "underlyingAmount",
          "type": "uint256"
        },
        {
          "internalType": "bool",
          "name": "isPool",
          "type": "bool"
        }
      ],
      "name": "depositIntoInstrument",
      "outputs": [],
      "stateMutability": "nonpayable",
      "type": "function"
    },
    {
      "inputs": [],
      "name": "description",
      "outputs": [
        {
          "internalType": "string",
          "name": "",
          "type": "string"
        }
      ],
      "stateMutability": "view",
      "type": "function"
    },
    {
      "inputs": [
        {
          "internalType": "contract Instrument",
          "name": "instrument",
          "type": "address"
        }
      ],
      "name": "distrustInstrument",
      "outputs": [],
      "stateMutability": "nonpayable",
      "type": "function"
    },
    {
      "inputs": [
        {
          "internalType": "uint256",
          "name": "amounts",
          "type": "uint256"
        }
      ],
      "name": "enoughLiqudity",
      "outputs": [
        {
          "internalType": "bool",
          "name": "",
          "type": "bool"
        }
      ],
      "stateMutability": "view",
      "type": "function"
    },
    {
      "inputs": [
        {
          "internalType": "uint256",
          "name": "marketId",
          "type": "uint256"
        }
      ],
      "name": "fetchInstrument",
      "outputs": [
        {
          "internalType": "contract Instrument",
          "name": "",
          "type": "address"
        }
      ],
      "stateMutability": "view",
      "type": "function"
    },
    {
      "inputs": [
        {
          "internalType": "uint256",
          "name": "marketId",
          "type": "uint256"
        }
      ],
      "name": "fetchInstrumentData",
      "outputs": [
        {
          "components": [
            {
              "internalType": "bytes32",
              "name": "name",
              "type": "bytes32"
            },
            {
              "internalType": "bool",
              "name": "isPool",
              "type": "bool"
            },
            {
              "internalType": "bool",
              "name": "trusted",
              "type": "bool"
            },
            {
              "internalType": "uint256",
              "name": "balance",
              "type": "uint256"
            },
            {
              "internalType": "uint256",
              "name": "faceValue",
              "type": "uint256"
            },
            {
              "internalType": "uint256",
              "name": "marketId",
              "type": "uint256"
            },
            {
              "internalType": "uint256",
              "name": "principal",
              "type": "uint256"
            },
            {
              "internalType": "uint256",
              "name": "expectedYield",
              "type": "uint256"
            },
            {
              "internalType": "uint256",
              "name": "duration",
              "type": "uint256"
            },
            {
              "internalType": "string",
              "name": "description",
              "type": "string"
            },
            {
              "internalType": "address",
              "name": "instrument_address",
              "type": "address"
            },
            {
              "internalType": "enum InstrumentType",
              "name": "instrument_type",
              "type": "uint8"
            },
            {
              "internalType": "uint256",
              "name": "maturityDate",
              "type": "uint256"
            },
            {
              "components": [
                {
                  "internalType": "uint256",
                  "name": "saleAmount",
                  "type": "uint256"
                },
                {
                  "internalType": "uint256",
                  "name": "initPrice",
                  "type": "uint256"
                },
                {
                  "internalType": "uint256",
                  "name": "promisedReturn",
                  "type": "uint256"
                },
                {
                  "internalType": "uint256",
                  "name": "inceptionTime",
                  "type": "uint256"
                },
                {
                  "internalType": "uint256",
                  "name": "inceptionPrice",
                  "type": "uint256"
                },
                {
                  "internalType": "uint256",
                  "name": "leverageFactor",
                  "type": "uint256"
                },
                {
                  "internalType": "uint256",
                  "name": "managementFee",
                  "type": "uint256"
                }
              ],
              "internalType": "struct PoolData",
              "name": "poolData",
              "type": "tuple"
            }
          ],
          "internalType": "struct InstrumentData",
          "name": "",
          "type": "tuple"
        }
      ],
      "stateMutability": "view",
      "type": "function"
    },
    {
      "inputs": [
        {
          "internalType": "uint256",
          "name": "marketId",
          "type": "uint256"
        }
      ],
      "name": "fetchPoolTrancheData",
      "outputs": [
        {
          "internalType": "uint256",
          "name": "",
          "type": "uint256"
        },
        {
          "internalType": "uint256",
          "name": "",
          "type": "uint256"
        },
        {
          "internalType": "uint256",
          "name": "",
          "type": "uint256"
        },
        {
          "internalType": "uint256",
          "name": "",
          "type": "uint256"
        },
        {
          "internalType": "uint256",
          "name": "",
          "type": "uint256"
        }
      ],
      "stateMutability": "view",
      "type": "function"
    },
    {
      "inputs": [
        {
          "internalType": "contract Instrument",
          "name": "_instrument",
          "type": "address"
        }
      ],
      "name": "getInstrumentData",
      "outputs": [
        {
          "components": [
            {
              "internalType": "bytes32",
              "name": "name",
              "type": "bytes32"
            },
            {
              "internalType": "bool",
              "name": "isPool",
              "type": "bool"
            },
            {
              "internalType": "bool",
              "name": "trusted",
              "type": "bool"
            },
            {
              "internalType": "uint256",
              "name": "balance",
              "type": "uint256"
            },
            {
              "internalType": "uint256",
              "name": "faceValue",
              "type": "uint256"
            },
            {
              "internalType": "uint256",
              "name": "marketId",
              "type": "uint256"
            },
            {
              "internalType": "uint256",
              "name": "principal",
              "type": "uint256"
            },
            {
              "internalType": "uint256",
              "name": "expectedYield",
              "type": "uint256"
            },
            {
              "internalType": "uint256",
              "name": "duration",
              "type": "uint256"
            },
            {
              "internalType": "string",
              "name": "description",
              "type": "string"
            },
            {
              "internalType": "address",
              "name": "instrument_address",
              "type": "address"
            },
            {
              "internalType": "enum InstrumentType",
              "name": "instrument_type",
              "type": "uint8"
            },
            {
              "internalType": "uint256",
              "name": "maturityDate",
              "type": "uint256"
            },
            {
              "components": [
                {
                  "internalType": "uint256",
                  "name": "saleAmount",
                  "type": "uint256"
                },
                {
                  "internalType": "uint256",
                  "name": "initPrice",
                  "type": "uint256"
                },
                {
                  "internalType": "uint256",
                  "name": "promisedReturn",
                  "type": "uint256"
                },
                {
                  "internalType": "uint256",
                  "name": "inceptionTime",
                  "type": "uint256"
                },
                {
                  "internalType": "uint256",
                  "name": "inceptionPrice",
                  "type": "uint256"
                },
                {
                  "internalType": "uint256",
                  "name": "leverageFactor",
                  "type": "uint256"
                },
                {
                  "internalType": "uint256",
                  "name": "managementFee",
                  "type": "uint256"
                }
              ],
              "internalType": "struct PoolData",
              "name": "poolData",
              "type": "tuple"
            }
          ],
          "internalType": "struct InstrumentData",
          "name": "",
          "type": "tuple"
        }
      ],
      "stateMutability": "view",
      "type": "function"
    },
    {
      "inputs": [
        {
          "internalType": "uint256",
          "name": "marketId",
          "type": "uint256"
        }
      ],
      "name": "getInstrumentType",
      "outputs": [
        {
          "internalType": "uint256",
          "name": "",
          "type": "uint256"
        }
      ],
      "stateMutability": "view",
      "type": "function"
    },
    {
      "inputs": [],
      "name": "get_vault_params",
      "outputs": [
        {
          "components": [
            {
              "internalType": "uint256",
              "name": "N",
              "type": "uint256"
            },
            {
              "internalType": "uint256",
              "name": "sigma",
              "type": "uint256"
            },
            {
              "internalType": "uint256",
              "name": "alpha",
              "type": "uint256"
            },
            {
              "internalType": "uint256",
              "name": "omega",
              "type": "uint256"
            },
            {
              "internalType": "uint256",
              "name": "delta",
              "type": "uint256"
            },
            {
              "internalType": "uint256",
              "name": "r",
              "type": "uint256"
            },
            {
              "internalType": "uint256",
              "name": "s",
              "type": "uint256"
            },
            {
              "internalType": "uint256",
              "name": "steak",
              "type": "uint256"
            }
          ],
          "internalType": "struct MarketParameters",
          "name": "",
          "type": "tuple"
        }
      ],
      "stateMutability": "view",
      "type": "function"
    },
    {
      "inputs": [
        {
          "internalType": "address",
          "name": "instrument",
          "type": "address"
        }
      ],
      "name": "harvest",
      "outputs": [],
      "stateMutability": "nonpayable",
      "type": "function"
    },
    {
      "inputs": [
        {
          "internalType": "uint256",
          "name": "marketId",
          "type": "uint256"
        }
      ],
      "name": "instrumentApprovalCondition",
      "outputs": [
        {
          "internalType": "bool",
          "name": "",
          "type": "bool"
        }
      ],
      "stateMutability": "view",
      "type": "function"
    },
    {
      "inputs": [
        {
          "internalType": "uint256",
          "name": "marketId",
          "type": "uint256"
        },
        {
          "internalType": "uint256",
          "name": "juniorSupply",
          "type": "uint256"
        },
        {
          "internalType": "uint256",
          "name": "seniorSupply",
          "type": "uint256"
        }
      ],
      "name": "instrumentAssetOracle",
      "outputs": [
        {
          "internalType": "uint256",
          "name": "",
          "type": "uint256"
        }
      ],
      "stateMutability": "view",
      "type": "function"
    },
    {
      "inputs": [
        {
          "internalType": "contract Instrument",
          "name": "",
          "type": "address"
        }
      ],
      "name": "instrument_data",
      "outputs": [
        {
          "internalType": "bytes32",
          "name": "name",
          "type": "bytes32"
        },
        {
          "internalType": "bool",
          "name": "isPool",
          "type": "bool"
        },
        {
          "internalType": "bool",
          "name": "trusted",
          "type": "bool"
        },
        {
          "internalType": "uint256",
          "name": "balance",
          "type": "uint256"
        },
        {
          "internalType": "uint256",
          "name": "faceValue",
          "type": "uint256"
        },
        {
          "internalType": "uint256",
          "name": "marketId",
          "type": "uint256"
        },
        {
          "internalType": "uint256",
          "name": "principal",
          "type": "uint256"
        },
        {
          "internalType": "uint256",
          "name": "expectedYield",
          "type": "uint256"
        },
        {
          "internalType": "uint256",
          "name": "duration",
          "type": "uint256"
        },
        {
          "internalType": "string",
          "name": "description",
          "type": "string"
        },
        {
          "internalType": "address",
          "name": "instrument_address",
          "type": "address"
        },
        {
          "internalType": "enum InstrumentType",
          "name": "instrument_type",
          "type": "uint8"
        },
        {
          "internalType": "uint256",
          "name": "maturityDate",
          "type": "uint256"
        },
        {
          "components": [
            {
              "internalType": "uint256",
              "name": "saleAmount",
              "type": "uint256"
            },
            {
              "internalType": "uint256",
              "name": "initPrice",
              "type": "uint256"
            },
            {
              "internalType": "uint256",
              "name": "promisedReturn",
              "type": "uint256"
            },
            {
              "internalType": "uint256",
              "name": "inceptionTime",
              "type": "uint256"
            },
            {
              "internalType": "uint256",
              "name": "inceptionPrice",
              "type": "uint256"
            },
            {
              "internalType": "uint256",
              "name": "leverageFactor",
              "type": "uint256"
            },
            {
              "internalType": "uint256",
              "name": "managementFee",
              "type": "uint256"
            }
          ],
          "internalType": "struct PoolData",
          "name": "poolData",
          "type": "tuple"
        }
      ],
      "stateMutability": "view",
      "type": "function"
    },
    {
      "inputs": [
        {
          "internalType": "contract Instrument",
          "name": "instrument",
          "type": "address"
        }
      ],
      "name": "isTrusted",
      "outputs": [
        {
          "internalType": "bool",
          "name": "",
          "type": "bool"
        }
      ],
      "stateMutability": "view",
      "type": "function"
    },
    {
      "inputs": [
        {
          "internalType": "address",
          "name": "",
          "type": "address"
        }
      ],
      "name": "maxDeposit",
      "outputs": [
        {
          "internalType": "uint256",
          "name": "",
          "type": "uint256"
        }
      ],
      "stateMutability": "view",
      "type": "function"
    },
    {
      "inputs": [
        {
          "internalType": "address",
          "name": "",
          "type": "address"
        }
      ],
      "name": "maxMint",
      "outputs": [
        {
          "internalType": "uint256",
          "name": "",
          "type": "uint256"
        }
      ],
      "stateMutability": "view",
      "type": "function"
    },
    {
      "inputs": [
        {
          "internalType": "address",
          "name": "owner",
          "type": "address"
        }
      ],
      "name": "maxRedeem",
      "outputs": [
        {
          "internalType": "uint256",
          "name": "",
          "type": "uint256"
        }
      ],
      "stateMutability": "view",
      "type": "function"
    },
    {
      "inputs": [
        {
          "internalType": "address",
          "name": "owner",
          "type": "address"
        }
      ],
      "name": "maxWithdraw",
      "outputs": [
        {
          "internalType": "uint256",
          "name": "",
          "type": "uint256"
        }
      ],
      "stateMutability": "view",
      "type": "function"
    },
    {
      "inputs": [
        {
          "internalType": "uint256",
          "name": "shares",
          "type": "uint256"
        },
        {
          "internalType": "address",
          "name": "receiver",
          "type": "address"
        }
      ],
      "name": "mint",
      "outputs": [
        {
          "internalType": "uint256",
          "name": "assets",
          "type": "uint256"
        }
      ],
      "stateMutability": "nonpayable",
      "type": "function"
    },
    {
      "inputs": [],
      "name": "name",
      "outputs": [
        {
          "internalType": "string",
          "name": "",
          "type": "string"
        }
      ],
      "stateMutability": "view",
      "type": "function"
    },
    {
      "inputs": [
        {
          "internalType": "address",
          "name": "",
          "type": "address"
        }
      ],
      "name": "nonces",
      "outputs": [
        {
          "internalType": "uint256",
          "name": "",
          "type": "uint256"
        }
      ],
      "stateMutability": "view",
      "type": "function"
    },
    {
      "inputs": [],
      "name": "onlyVerified",
      "outputs": [
        {
          "internalType": "bool",
          "name": "",
          "type": "bool"
        }
      ],
      "stateMutability": "view",
      "type": "function"
    },
    {
      "inputs": [],
      "name": "owner",
      "outputs": [
        {
          "internalType": "address",
          "name": "",
          "type": "address"
        }
      ],
      "stateMutability": "view",
      "type": "function"
    },
    {
      "inputs": [
        {
          "internalType": "address",
          "name": "owner",
          "type": "address"
        },
        {
          "internalType": "address",
          "name": "spender",
          "type": "address"
        },
        {
          "internalType": "uint256",
          "name": "value",
          "type": "uint256"
        },
        {
          "internalType": "uint256",
          "name": "deadline",
          "type": "uint256"
        },
        {
          "internalType": "uint8",
          "name": "v",
          "type": "uint8"
        },
        {
          "internalType": "bytes32",
          "name": "r",
          "type": "bytes32"
        },
        {
          "internalType": "bytes32",
          "name": "s",
          "type": "bytes32"
        }
      ],
      "name": "permit",
      "outputs": [],
      "stateMutability": "nonpayable",
      "type": "function"
    },
    {
      "inputs": [
        {
          "internalType": "address",
          "name": "instrument",
          "type": "address"
        },
        {
          "internalType": "bool",
          "name": "premature",
          "type": "bool"
        }
      ],
      "name": "pingMaturity",
      "outputs": [],
      "stateMutability": "nonpayable",
      "type": "function"
    },
    {
      "inputs": [
        {
          "internalType": "uint256",
          "name": "marketId",
          "type": "uint256"
        }
      ],
      "name": "poolZCBValue",
      "outputs": [
        {
          "internalType": "uint256",
          "name": "psu",
          "type": "uint256"
        },
        {
          "internalType": "uint256",
          "name": "pju",
          "type": "uint256"
        },
        {
          "internalType": "uint256",
          "name": "levFactor",
          "type": "uint256"
        }
      ],
      "stateMutability": "view",
      "type": "function"
    },
    {
      "inputs": [
        {
          "internalType": "uint256",
          "name": "assets",
          "type": "uint256"
        }
      ],
      "name": "previewDeposit",
      "outputs": [
        {
          "internalType": "uint256",
          "name": "",
          "type": "uint256"
        }
      ],
      "stateMutability": "view",
      "type": "function"
    },
    {
      "inputs": [
        {
          "internalType": "uint256",
          "name": "shares",
          "type": "uint256"
        }
      ],
      "name": "previewMint",
      "outputs": [
        {
          "internalType": "uint256",
          "name": "",
          "type": "uint256"
        }
      ],
      "stateMutability": "view",
      "type": "function"
    },
    {
      "inputs": [
        {
          "internalType": "uint256",
          "name": "shares",
          "type": "uint256"
        }
      ],
      "name": "previewRedeem",
      "outputs": [
        {
          "internalType": "uint256",
          "name": "",
          "type": "uint256"
        }
      ],
      "stateMutability": "view",
      "type": "function"
    },
    {
      "inputs": [
        {
          "internalType": "uint256",
          "name": "assets",
          "type": "uint256"
        }
      ],
      "name": "previewWithdraw",
      "outputs": [
        {
          "internalType": "uint256",
          "name": "",
          "type": "uint256"
        }
      ],
      "stateMutability": "view",
      "type": "function"
    },
    {
      "inputs": [
        {
          "internalType": "uint256",
          "name": "amount",
          "type": "uint256"
        }
      ],
      "name": "pullFromLM",
      "outputs": [],
      "stateMutability": "nonpayable",
      "type": "function"
    },
    {
      "inputs": [
        {
          "internalType": "uint256",
          "name": "amount",
          "type": "uint256"
        }
      ],
      "name": "pushToLM",
      "outputs": [],
      "stateMutability": "nonpayable",
      "type": "function"
    },
    {
      "inputs": [],
      "name": "r",
      "outputs": [
        {
          "internalType": "uint256",
          "name": "",
          "type": "uint256"
        }
      ],
      "stateMutability": "view",
      "type": "function"
    },
    {
      "inputs": [
        {
          "internalType": "address",
          "name": "receiver",
          "type": "address"
        }
      ],
      "name": "receiver_conditions",
      "outputs": [
        {
          "internalType": "bool",
          "name": "",
          "type": "bool"
        }
      ],
      "stateMutability": "view",
      "type": "function"
    },
    {
      "inputs": [
        {
          "internalType": "uint256",
          "name": "shares",
          "type": "uint256"
        },
        {
          "internalType": "address",
          "name": "receiver",
          "type": "address"
        },
        {
          "internalType": "address",
          "name": "owner",
          "type": "address"
        }
      ],
      "name": "redeem",
      "outputs": [
        {
          "internalType": "uint256",
          "name": "assets",
          "type": "uint256"
        }
      ],
      "stateMutability": "nonpayable",
      "type": "function"
    },
    {
      "inputs": [
        {
          "internalType": "address",
          "name": "to",
          "type": "address"
        },
        {
          "internalType": "uint256",
          "name": "amount",
          "type": "uint256"
        }
      ],
      "name": "repayDebt",
      "outputs": [],
      "stateMutability": "nonpayable",
      "type": "function"
    },
    {
      "inputs": [
        {
          "internalType": "uint256",
          "name": "marketId",
          "type": "uint256"
        }
      ],
      "name": "resolveInstrument",
      "outputs": [
        {
          "internalType": "bool",
          "name": "",
          "type": "bool"
        },
        {
          "internalType": "uint256",
          "name": "",
          "type": "uint256"
        },
        {
          "internalType": "uint256",
          "name": "",
          "type": "uint256"
        },
        {
          "internalType": "bool",
          "name": "",
          "type": "bool"
        }
      ],
      "stateMutability": "nonpayable",
      "type": "function"
    },
    {
      "inputs": [],
      "name": "symbol",
      "outputs": [
        {
          "internalType": "string",
          "name": "",
          "type": "string"
        }
      ],
      "stateMutability": "view",
      "type": "function"
    },
    {
      "inputs": [],
      "name": "totalAssets",
      "outputs": [
        {
          "internalType": "uint256",
          "name": "",
          "type": "uint256"
        }
      ],
      "stateMutability": "view",
      "type": "function"
    },
    {
      "inputs": [],
      "name": "totalFloat",
      "outputs": [
        {
          "internalType": "uint256",
          "name": "",
          "type": "uint256"
        }
      ],
      "stateMutability": "view",
      "type": "function"
    },
    {
      "inputs": [],
      "name": "totalInstrumentHoldings",
      "outputs": [
        {
          "internalType": "uint256",
          "name": "",
          "type": "uint256"
        }
      ],
      "stateMutability": "view",
      "type": "function"
    },
    {
      "inputs": [],
      "name": "totalSupply",
      "outputs": [
        {
          "internalType": "uint256",
          "name": "",
          "type": "uint256"
        }
      ],
      "stateMutability": "view",
      "type": "function"
    },
    {
      "inputs": [],
      "name": "total_asset_limit",
      "outputs": [
        {
          "internalType": "uint256",
          "name": "",
          "type": "uint256"
        }
      ],
      "stateMutability": "view",
      "type": "function"
    },
    {
      "inputs": [
        {
          "internalType": "address",
          "name": "to",
          "type": "address"
        },
        {
          "internalType": "uint256",
          "name": "amount",
          "type": "uint256"
        }
      ],
      "name": "transfer",
      "outputs": [
        {
          "internalType": "bool",
          "name": "",
          "type": "bool"
        }
      ],
      "stateMutability": "nonpayable",
      "type": "function"
    },
    {
      "inputs": [
        {
          "internalType": "address",
          "name": "from",
          "type": "address"
        },
        {
          "internalType": "address",
          "name": "to",
          "type": "address"
        },
        {
          "internalType": "uint256",
          "name": "amount",
          "type": "uint256"
        }
      ],
      "name": "transferFrom",
      "outputs": [
        {
          "internalType": "bool",
          "name": "",
          "type": "bool"
        }
      ],
      "stateMutability": "nonpayable",
      "type": "function"
    },
    {
      "inputs": [
        {
          "internalType": "uint256",
          "name": "marketId",
          "type": "uint256"
        },
        {
          "components": [
            {
              "internalType": "uint256",
              "name": "managers_stake",
              "type": "uint256"
            },
            {
              "internalType": "uint256",
              "name": "approved_principal",
              "type": "uint256"
            },
            {
              "internalType": "uint256",
              "name": "approved_yield",
              "type": "uint256"
            }
          ],
          "internalType": "struct ApprovalData",
          "name": "data",
          "type": "tuple"
        },
        {
          "internalType": "bool",
          "name": "isPool",
          "type": "bool"
        }
      ],
      "name": "trustInstrument",
      "outputs": [],
      "stateMutability": "nonpayable",
      "type": "function"
    },
    {
      "inputs": [
        {
          "internalType": "uint256",
          "name": "amount",
          "type": "uint256"
        },
        {
          "internalType": "address",
          "name": "to",
          "type": "address"
        }
      ],
      "name": "trusted_transfer",
      "outputs": [],
      "stateMutability": "nonpayable",
      "type": "function"
    },
    {
      "inputs": [],
      "name": "utilizationRate",
      "outputs": [
        {
          "internalType": "uint256",
          "name": "",
          "type": "uint256"
        }
      ],
      "stateMutability": "view",
      "type": "function"
    },
    {
      "inputs": [
        {
          "internalType": "uint256",
          "name": "marketId",
          "type": "uint256"
        }
      ],
      "name": "viewPrincipalAndYield",
      "outputs": [
        {
          "internalType": "uint256",
          "name": "",
          "type": "uint256"
        },
        {
          "internalType": "uint256",
          "name": "",
          "type": "uint256"
        }
      ],
      "stateMutability": "view",
      "type": "function"
    },
    {
      "inputs": [
        {
          "internalType": "uint256",
          "name": "assets",
          "type": "uint256"
        },
        {
          "internalType": "address",
          "name": "receiver",
          "type": "address"
        },
        {
          "internalType": "address",
          "name": "owner",
          "type": "address"
        }
      ],
      "name": "withdraw",
      "outputs": [
        {
          "internalType": "uint256",
          "name": "shares",
          "type": "uint256"
        }
      ],
      "stateMutability": "nonpayable",
      "type": "function"
    },
    {
      "inputs": [
        {
          "internalType": "uint256",
          "name": "marketId",
          "type": "uint256"
        },
        {
          "internalType": "uint256",
          "name": "instrumentPullAmount",
          "type": "uint256"
        },
        {
          "internalType": "address",
          "name": "pushTo",
          "type": "address"
        },
        {
          "internalType": "uint256",
          "name": "underlyingAmount",
          "type": "uint256"
        }
      ],
      "name": "withdrawFromPoolInstrument",
      "outputs": [],
      "stateMutability": "nonpayable",
      "type": "function"
    }
  ],
  "bytecode": {
    "object": "0x6101206040523480156200001257600080fd5b506040516200562238038062005622833981016040819052620000359162000531565b84856001600160a01b03166306fdde036040518163ffffffff1660e01b8152600401600060405180830381865afa15801562000075573d6000803e3d6000fd5b505050506040513d6000823e601f3d908101601f191682016040526200009f919081019062000663565b604051602001620000b19190620006a3565b604051602081830303815290604052866001600160a01b03166395d89b416040518163ffffffff1660e01b8152600401600060405180830381865afa158015620000ff573d6000803e3d6000fd5b505050506040513d6000823e601f3d908101601f1916820160405262000129919081019062000663565b6040516020016200013b9190620006e2565b6040516020818303038152906040528181846001600160a01b031663313ce5676040518163ffffffff1660e01b8152600401602060405180830381865afa1580156200018b573d6000803e3d6000fd5b505050506040513d601f19601f82011682018060405250810190620001b1919062000710565b6000620001bf8482620007c4565b506001620001ce8382620007c4565b5060ff81166080524660a052620001e462000394565b60c0525050506001600160a01b0390921660e0525050815160009081908190819081906200021c908801602090810190890162000890565b9398509196509450925090506011620002368282620007c4565b50601a80546001600160a01b0319166001600160a01b038a8116919091179091558a166101008190526040805163313ce56760e01b8152905163313ce567916004808201926020929091908290030181865afa1580156200029b573d6000803e3d6000fd5b505050506040513d601f19601f82011682018060405250810190620002c1919062000710565b60ff16601214620003035760405162461bcd60e51b8152602060048201526008602482015267646563696d616c7360c01b604482015260640160405180910390fd5b50670de0b6b3a7640000600655600880546001600160a01b0319166001600160a01b0399909916989098179097556012805460ff191693151593909317909255601355601455601593909355505080516009556020810151600a556040810151600b556060810151600c556080810151600d5560a0810151600e5560c0810151600f5560e001516010555062000986565b60007f8b73c3c69bb8fe3d512ecc4cf759cc79239f7b179b0ffacaa9a75d522b39400f6000604051620003c8919062000908565b6040805191829003822060208301939093528101919091527fc89efdaa54c0f20c7adf612882df0950f5a951637e0307cdcb4c672f298b8bc660608201524660808201523060a082015260c00160405160208183030381529060405280519060200120905090565b80516001600160a01b03811681146200044857600080fd5b919050565b634e487b7160e01b600052604160045260246000fd5b60405161010081016001600160401b03811182821017156200048957620004896200044d565b60405290565b60005b83811015620004ac57818101518382015260200162000492565b50506000910152565b60006001600160401b0380841115620004d257620004d26200044d565b604051601f8501601f19908116603f01168101908282118183101715620004fd57620004fd6200044d565b816040528093508581528686860111156200051757600080fd5b620005278660208301876200048f565b5050509392505050565b60008060008060008587036101808112156200054c57600080fd5b620005578762000430565b9550620005676020880162000430565b9450620005776040880162000430565b60608801519094506001600160401b038111156200059457600080fd5b8701601f81018913620005a657600080fd5b620005b789825160208401620004b5565b93505061010080607f1983011215620005cf57600080fd5b620005d962000463565b91506080880151825260a0880151602083015260c0880151604083015260e088015160608301528088015160808301525061012087015160a082015261014087015160c082015261016087015160e0820152809150509295509295909350565b600082601f8301126200064b57600080fd5b6200065c83835160208501620004b5565b9392505050565b6000602082840312156200067657600080fd5b81516001600160401b038111156200068d57600080fd5b6200069b8482850162000639565b949350505050565b6402930b6b6960dd1b815260008251620006c58160058501602087016200048f565b650815985d5b1d60d21b6005939091019283015250600b01919050565b6352414d4d60e01b815260008251620007038160048501602087016200048f565b9190910160040192915050565b6000602082840312156200072357600080fd5b815160ff811681146200065c57600080fd5b600181811c908216806200074a57607f821691505b6020821081036200076b57634e487b7160e01b600052602260045260246000fd5b50919050565b601f821115620007bf57600081815260208120601f850160051c810160208610156200079a5750805b601f850160051c820191505b81811015620007bb57828155600101620007a6565b5050505b505050565b81516001600160401b03811115620007e057620007e06200044d565b620007f881620007f1845462000735565b8462000771565b602080601f831160018114620008305760008415620008175750858301515b600019600386901b1c1916600185901b178555620007bb565b600085815260208120601f198616915b82811015620008615788860151825594840194600190910190840162000840565b5085821015620008805787850151600019600388901b60f8161c191681555b5050505050600190811b01905550565b600080600080600060a08688031215620008a957600080fd5b85518015158114620008ba57600080fd5b60208701516040880151606089015160808a0151939850919650945092506001600160401b03811115620008ed57600080fd5b620008fb8882890162000639565b9150509295509295909350565b6000808354620009188162000735565b6001828116801562000933576001811462000949576200097a565b60ff19841687528215158302870194506200097a565b8760005260208060002060005b85811015620009715781548a82015290840190820162000956565b50505082870194505b50929695505050505050565b60805160a05160c05160e05161010051614bf562000a2d6000396000818161090601528181611090015281816115840152818161175d0152818161183201528181611ae90152818161229d01528181612323015281816136b80152818161379501526137dc0152600081816105e20152818161214e015281816123c601528181612a4c0152612bb1015260006119d5015260006119a50152600061058e0152614bf56000f3fe608060405234801561001057600080fd5b50600436106104125760003560e01c80637572cb1f11610220578063c6e6f59211610130578063dd62ed3e116100b8578063edb53d3e11610087578063edb53d3e14610a79578063ef8b30f714610a8c578063f05bcfb414610a9f578063f7d070de14610ab2578063fa07b19f14610abf57600080fd5b8063dd62ed3e146109f0578063e134cc8214610a1b578063e4cc3e7614610a52578063e9a23d3a14610a6557600080fd5b8063ce96cb77116100ff578063ce96cb771461097b578063d505accf1461098e578063d746d3ef146109a1578063d905777e146109b4578063dc361a13146109dd57600080fd5b8063c6e6f59214610928578063c83baf4e1461093b578063ca13e45014610944578063ca2989f41461097257600080fd5b806398d796e7116101b3578063b3d7f6b911610182578063b3d7f6b9146108c8578063b460af94146108db578063ba087652146108ee578063c5d664c614610901578063c63d75b61461061c57600080fd5b806398d796e71461087c5780639ec4d40e1461088f578063a9059cbb146108a2578063b19b1f91146108b557600080fd5b80638da5cb5b116101ef5780638da5cb5b1461083b57806394bf804d1461084e57806395d89b411461086157806396d648791461086957600080fd5b80637572cb1f1461079757806379e20bdc146108005780637ecebe0014610813578063841219e51461083357600080fd5b80633644e5151161032657806350c6e6cf116102ae5780636c321c8a1161027d5780636c321c8a1461074b5780636c8ae38c146107535780636e553f651461075c57806370a082311461076f5780637284e4161461078f57600080fd5b806350c6e6cf146106b057806359dc5c6f146106d95780635f260bb8146106ec57806360d4efa4146106f557600080fd5b8063492023f8116102f5578063492023f8146106445780634bd3c9a8146106575780634cdad5061461066a5780634dc54a381461067d5780634e1afd001461069d57600080fd5b80633644e515146105d557806338d52e0f146105dd578063402d267d1461061c578063471e1cea1461063157600080fd5b80630f65cbc4116103a957806322f0e0691161037857806322f0e0691461053657806323b872dd146105635780632b85873414610576578063313ce5671461058957806334928ace146105c257600080fd5b80630f65cbc4146104f3578063139f4b6f1461050757806318160ddd1461051a578063213a7d521461052357600080fd5b806307a2d13a116103e557806307a2d13a14610497578063095ea7b3146104aa5780630a28a477146104cd5780630e5c011e146104e057600080fd5b806301e1d11414610417578063063b31d41461043257806306fdde0314610447578063076125a91461045c575b600080fd5b61041f610ad2565b6040519081526020015b60405180910390f35b61044561044036600461412c565b610aee565b005b61044f610d38565b604051610429919061418b565b61046f61046a36600461412c565b610dc6565b604080519586526020860194909452928401919091526060830152608082015260a001610429565b61041f6104a536600461412c565b610e0e565b6104bd6104b83660046141c3565b610e3b565b6040519015158152602001610429565b61041f6104db36600461412c565b610ea8565b6104456104ee3660046141ef565b610ec8565b61041f61050136600461412c565b50600090565b6104bd61051536600461412c565b61106e565b61041f60025481565b610445610531366004614225565b611103565b6105496105443660046141ef565b61116c565b6040516104299e9d9c9b9a999897969594939291906142da565b6104bd610571366004614373565b6112b5565b61044561058436600461412c565b611395565b6105b07f000000000000000000000000000000000000000000000000000000000000000081565b60405160ff9091168152602001610429565b6104456105d03660046143b4565b611544565b61041f6119a1565b6106047f000000000000000000000000000000000000000000000000000000000000000081565b6040516001600160a01b039091168152602001610429565b61041f61062a3660046141ef565b5060001990565b6104bd61063f36600461412c565b6119f7565b6104456106523660046141ef565b611a6d565b61041f6106653660046143ed565b611b5c565b61041f61067836600461412c565b611bf6565b61069061068b3660046141ef565b611c01565b6040516104299190614419565b6104456106ab36600461453d565b611ddb565b6106046106be36600461412c565b6017602052600090815260409020546001600160a01b031681565b6104456106e736600461412c565b612057565b61041f60145481565b61073661070336600461412c565b6000908152601760209081526040808320546001600160a01b031683526016909152902060058101546006909101549091565b60408051928352602083019190915201610429565b61041f6120d0565b61041f60135481565b61041f61076a3660046145bb565b6120f6565b61041f61077d3660046141ef565b60036020526000908152604090205481565b61044f6121cc565b61079f6121d9565b6040516104299190600061010082019050825182526020830151602083015260408301516040830152606083015160608301526080830151608083015260a083015160a083015260c083015160c083015260e083015160e083015292915050565b61044561080e3660046141c3565b61226f565b61041f6108213660046141ef565b60056020526000908152604090205481565b61041f61230b565b601a54610604906001600160a01b031681565b61041f61085c3660046145bb565b612396565b61044f612489565b6104bd6108773660046141ef565b612496565b61044561088a366004614700565b6124bc565b61069061089d36600461412c565b6127ff565b6104bd6108b03660046141c3565b6128b3565b6104456108c33660046141ef565b612919565b61041f6108d636600461412c565b612946565b61041f6108e9366004614826565b612965565b61041f6108fc366004614826565b612a73565b6106047f000000000000000000000000000000000000000000000000000000000000000081565b61041f61093636600461412c565b612c26565b61041f60155481565b61095761095236600461412c565b612c46565b60408051938452602084019290925290820152606001610429565b61041f60075481565b61041f6109893660046141ef565b612eee565b61044561099c36600461485d565b612f10565b6104456109af36600461412c565b613154565b61041f6109c23660046141ef565b6001600160a01b031660009081526003602052604090205490565b61041f6109eb3660046141ef565b61326a565b61041f6109fe3660046148d4565b600460209081526000928352604080842090915290825290205481565b610a2e610a2936600461412c565b61328c565b60408051941515855260208501939093529183015215156060820152608001610429565b610445610a60366004614902565b61354f565b6104bd610a733660046141ef565b50600190565b610604610a8736600461412c565b613741565b61041f610a9a36600461412c565b61375c565b610445610aad3660046145bb565b613767565b6012546104bd9060ff1681565b610445610acd36600461412c565b6137c4565b6000610adc61230b565b600754610ae99190614957565b905090565b6000610afa6000613741565b6040516370a0823160e01b81523060048201529091506000906001600160a01b038316906370a0823190602401602060405180830381865afa158015610b44573d6000803e3d6000fd5b505050506040513d601f19601f82011682018060405250810190610b68919061496a565b60405163b3d7f6b960e01b8152600481018290529091506001600160a01b0383169063b3d7f6b990602401602060405180830381865afa158015610bb0573d6000803e3d6000fd5b505050506040513d601f19601f82011682018060405250810190610bd4919061496a565b831115610c115760405162461bcd60e51b815260206004820152600660248201526521216c69713160d01b60448201526064015b60405180910390fd5b60405163537d940960e01b8152600481018490526001600160a01b0383169063537d940990602401602060405180830381865afa158015610c56573d6000803e3d6000fd5b505050506040513d601f19601f82011682018060405250810190610c7a9190614983565b610cae5760405162461bcd60e51b815260206004820152600560248201526410b634b89960d91b6044820152606401610c08565b604051632d182be560e21b815260048101849052306024820181905260448201526001600160a01b0383169063b460af94906064016020604051808303816000875af1158015610d02573d6000803e3d6000fd5b505050506040513d601f19601f82011682018060405250810190610d26919061496a565b50610d33828460006138b3565b505050565b60008054610d45906149a0565b80601f0160208091040260200160405190810160405280929190818152602001828054610d71906149a0565b8015610dbe5780601f10610d9357610100808354040283529160200191610dbe565b820191906000526020600020905b815481529060010190602001808311610da157829003601f168201915b505050505081565b6000908152601760209081526040808320546001600160a01b0316835260169091529020600d810154600e820154600f83015460108401546011909401549294919390929091565b6002546000908015610e3257610e2d610e25610ad2565b849083613a09565b610e34565b825b9392505050565b3360008181526004602090815260408083206001600160a01b038716808552925280832085905551919290917f8c5be1e5ebec7d5bd14f71427d1e84f3dd0314c0f7b2291e5b200ac8c7c3b92590610e969086815260200190565b60405180910390a35060015b92915050565b6002546000908015610e3257610e2d81610ec0610ad2565b859190613a27565b6001600160a01b038116600090815260166020526040902060010154610100900460ff16610f2f5760405162461bcd60e51b8152602060048201526014602482015273155395149554d5115117d25b9cdd1c9d5b595b9d60621b6044820152606401610c08565b6001600160a01b03811660008181526016602052604080822060075460028201549251633af9e66960e01b8152600481018690529194909391633af9e66990602401602060405180830381865afa158015610f8e573d6000803e3d6000fd5b505050506040513d601f19601f82011682018060405250810190610fb2919061496a565b9050808203610fc2575050505050565b6002840181905560008282101580610fe357610fde83856149da565b610fed565b610fed84846149da565b91508061100357610ffe82866149da565b61100d565b61100d8286614957565b60078190556040805191825260208201859052810183905281151560608201526001600160a01b038816907f6421c76ff84322b255b480a074dc3b65357a55f650d5fc4eedfeea5437c96b719060800160405180910390a250505050505050565b6040516370a0823160e01b815230600482015260009082906001600160a01b037f000000000000000000000000000000000000000000000000000000000000000016906370a0823190602401602060405180830381865afa1580156110d7573d6000803e3d6000fd5b505050506040513d601f19601f820116820180604052508101906110fb919061496a565b101592915050565b336001600160a01b038316148061111e575061111e82612496565b61112757600080fd5b6001600160a01b03821660009081526016602052604090206004015461114c81611395565b6000908152601860205260409020805460ff191691151591909117905550565b601660205260009081526040902080546001820154600283015460038401546004850154600586015460068701546007880154600889018054989960ff808a169a610100909a0416989091906111c1906149a0565b80601f01602080910402602001604051908101604052809291908181526020018280546111ed906149a0565b801561123a5780601f1061120f5761010080835404028352916020019161123a565b820191906000526020600020905b81548152906001019060200180831161121d57829003601f168201915b505050506009830154600a8401546040805160e081018252600b8701548152600c8701546020820152600d87015491810191909152600e8601546060820152600f8601546080820152601086015460a082015260119095015460c086015292936001600160a01b03821693600160a01b90920460ff1692508e565b6001600160a01b03831660009081526004602090815260408083203384529091528120546000198114611311576112ec83826149da565b6001600160a01b03861660009081526004602090815260408083203384529091529020555b6001600160a01b038516600090815260036020526040812080548592906113399084906149da565b90915550506001600160a01b0380851660008181526003602052604090819020805487019055519091871690600080516020614ba0833981519152906113829087815260200190565b60405180910390a3506001949350505050565b6000818152601760205260409020546001600160a01b0316338114806113c557506008546001600160a01b031633145b6113ff5760405162461bcd60e51b815260206004820152600b60248201526a139bdd08185b1b1bddd95960aa1b6044820152606401610c08565b61140881612496565b6114425760405162461bcd60e51b815260206004820152600b60248201526a139bdd081d1c9d5cdd195960aa1b6044820152606401610c08565b806001600160a01b03166349dcf4ed6040518163ffffffff1660e01b81526004016060604051808303816000875af1158015611482573d6000803e3d6000fd5b505050506040513d601f19601f820116820180604052508101906114a691906149ed565b5050506114b281610ec8565b806001600160a01b031663f3aa68d36040518163ffffffff1660e01b8152600401600060405180830381600087803b1580156114ed57600080fd5b505af1158015611501573d6000803e3d6000fd5b50506040805180820182524381526001602080830182815260009889526019909152929096209051815590519401805460ff191694151594909417909355505050565b61154d83613741565b61155681613a4d565b600061156185613741565b6040516370a0823160e01b81523060048201529091506000906001600160a01b037f000000000000000000000000000000000000000000000000000000000000000016906370a0823190602401602060405180830381865afa1580156115cb573d6000803e3d6000fd5b505050506040513d601f19601f820116820180604052508101906115ef919061496a565b9050808511156116ea57600061160582876149da565b6000805260176020527fd840e16649f6b9a295d95876f4633d3a6b10b55e8162971cf78afd886d5ec89b546040516366c4437760e11b8152306004820152602481018390529192506001600160a01b03169063cd8886ee90604401602060405180830381865afa15801561167d573d6000803e3d6000fd5b505050506040513d601f19601f820116820180604052508101906116a19190614983565b156116b4576116af81610aee565b6116e8565b60405162461bcd60e51b8152602060048201526009602482015268085d985d5b1d18985b60ba1b6044820152606401610c08565b505b84600760008282546116fc9190614957565b90915550506001600160a01b0382166000908152601660205260408120600201805487929061172c908490614957565b9091555084905061180c5760405163a9059cbb60e01b81526001600160a01b038381166004830152602482018790527f0000000000000000000000000000000000000000000000000000000000000000169063a9059cbb906044016020604051808303816000875af11580156117a6573d6000803e3d6000fd5b505050506040513d601f19601f820116820180604052508101906117ca9190614983565b6118075760405162461bcd60e51b815260206004820152600e60248201526d11115413d4d25517d1905253115160921b6044820152606401610c08565b611952565b60405163095ea7b360e01b81526001600160a01b038381166004830152602482018790527f0000000000000000000000000000000000000000000000000000000000000000169063095ea7b3906044016020604051808303816000875af115801561187b573d6000803e3d6000fd5b505050506040513d601f19601f8201168201806040525081019061189f9190614983565b50604051636e553f6560e01b8152600481018690523060248201526000906001600160a01b03841690636e553f65906044016020604051808303816000875af11580156118f0573d6000803e3d6000fd5b505050506040513d601f19601f82011682018060405250810190611914919061496a565b116119525760405162461bcd60e51b815260206004820152600e60248201526d11115413d4d25517d1905253115160921b6044820152606401610c08565b6040805186815285151560208201526001600160a01b0384169188917f96ba8877ce47ffd9d7af35a44207700582bc048cfc0be644d3f7d43cf3275258910160405180910390a3505050505050565b60007f000000000000000000000000000000000000000000000000000000000000000046146119d257610ae9613ab7565b507f000000000000000000000000000000000000000000000000000000000000000090565b600081815260176020908152604080832054815163041f3aa560e51b815291516001600160a01b03909116926383e754a092600480820193918290030181865afa158015611a49573d6000803e3d6000fd5b505050506040513d601f19601f82011682018060405250810190610ea29190614983565b7fd840e16649f6b9a295d95876f4633d3a6b10b55e8162971cf78afd886d5ec89b80546001600160a01b038381166001600160a01b0319909216821790925560008181526016602052604090819020600101805461ff0019166101001790555163095ea7b360e01b8152600481019190915260001960248201527f00000000000000000000000000000000000000000000000000000000000000009091169063095ea7b3906044016020604051808303816000875af1158015611b34573d6000803e3d6000fd5b505050506040513d601f19601f82011682018060405250810190611b589190614983565b5050565b60008381526017602052604080822054600654915163b3d7f6b960e01b815260048101929092526001600160a01b031690611bed90829063b3d7f6b990602401602060405180830381865afa158015611bb9573d6000803e3d6000fd5b505050506040513d601f19601f82011682018060405250810190611bdd919061496a565b611be78587614957565b90613b51565b95945050505050565b6000610ea282610e0e565b611c0961402f565b6001600160a01b03821660009081526016602090815260409182902082516101c08101845281548152600182015460ff808216151594830194909452610100908190049093161515938101939093526002810154606084015260038101546080840152600481015460a0840152600581015460c0840152600681015460e084015260078101549183019190915260088101805461012084019190611cac906149a0565b80601f0160208091040260200160405190810160405280929190818152602001828054611cd8906149a0565b8015611d255780601f10611cfa57610100808354040283529160200191611d25565b820191906000526020600020905b815481529060010190602001808311611d0857829003601f168201915b505050918352505060098201546001600160a01b0381166020830152604090910190600160a01b900460ff166005811115611d6257611d6261425e565b6005811115611d7357611d7361425e565b8152600a8201546020808301919091526040805160e081018252600b8501548152600c85015492810192909252600d84015482820152600e8401546060830152600f8401546080830152601084015460a083015260119093015460c082015291015292915050565b611de3613b66565b600160166000611df286613741565b6001600160a01b03168152602081019190915260400160002060010180549115156101000261ff001990921691909117905580611f78576000838152601760209081526040808320546001600160a01b031683526016825291829020908401516005820181905591840151600682018190559091611e709190614957565b600382015582516020840151611e93918691611e8c91906149da565b6000611544565b4260166000611ea187613741565b6001600160a01b03166001600160a01b0316815260200190815260200160002060070154611ecf9190614957565b60166000611edc87613741565b6001600160a01b031681526020810191909152604001600020600a0155611f0284613741565b6001600160a01b031663416288dd846020015185604001516040518363ffffffff1660e01b8152600401611f40929190918252602082015260400190565b600060405180830381600087803b158015611f5a57600080fd5b505af1158015611f6e573d6000803e3d6000fd5b5050505050611fc0565b6000838152601760209081526040808320546001600160a01b031683526016825290912042600e90910155825190830151611fc0918591611fb991906149da565b6001611544565b60008381526017602090815260408083205491850151908501516001600160a01b039092169286927f5f22436ca8b356fcfdd826ffa74d4bbbf0f4a1066169f36d2d8fcfebc9e285fa929160169061201786613741565b6001600160a01b031681526020808201929092526040908101600020600a01548151948552918401929092529082015260600160405180910390a3505050565b61205f613b66565b600061206a82613741565b9050806001600160a01b03166350bb4beb6040518163ffffffff1660e01b81526004016020604051808303816000875af11580156120ac573d6000803e3d6000fd5b505050506040513d601f19601f82011682018060405250810190610d33919061496a565b60006007546000036120e25750600090565b610ae96120ed610ad2565b60075490613bd5565b60006121018361375c565b9050806000036121415760405162461bcd60e51b815260206004820152600b60248201526a5a45524f5f53484152455360a81b6044820152606401610c08565b6121766001600160a01b037f000000000000000000000000000000000000000000000000000000000000000016333086613bea565b6121808282613c6d565b60408051848152602081018390526001600160a01b0384169133917fdcbc1c05240f31ff3ad067ef1ee35ce4997762752e3a095284754544f4c709d791015b60405180910390a3610ea2565b60118054610d45906149a0565b61222160405180610100016040528060008152602001600081526020016000815260200160008152602001600081526020016000815260200160008152602001600081525090565b5060408051610100810182526009548152600a546020820152600b5491810191909152600c546060820152600d546080820152600e5460a0820152600f5460c082015260105460e082015290565b612277613b66565b60405163a9059cbb60e01b81526001600160a01b038381166004830152602482018390527f0000000000000000000000000000000000000000000000000000000000000000169063a9059cbb906044015b6020604051808303816000875af11580156122e7573d6000803e3d6000fd5b505050506040513d601f19601f82011682018060405250810190610d339190614983565b6040516370a0823160e01b81523060048201526000907f00000000000000000000000000000000000000000000000000000000000000006001600160a01b0316906370a0823190602401602060405180830381865afa158015612372573d6000803e3d6000fd5b505050506040513d601f19601f82011682018060405250810190610ae9919061496a565b60006123a183612946565b6040516323b872dd60e01b8152336004820152306024820152604481018290529091507f00000000000000000000000000000000000000000000000000000000000000006001600160a01b0316906323b872dd906064016020604051808303816000875af1158015612417573d6000803e3d6000fd5b505050506040513d601f19601f8201168201806040525081019061243b9190614983565b506124468284613c6d565b60408051828152602081018590526001600160a01b0384169133917fdcbc1c05240f31ff3ad067ef1ee35ce4997762752e3a095284754544f4c709d791016121bf565b60018054610d45906149a0565b6001600160a01b0316600090815260166020526040902060010154610100900460ff1690565b6124c4613b66565b80602001516126745760008160c00151116125215760405162461bcd60e51b815260206004820181905260248201527f7072696e636970616c206d7573742062652067726561746572207468616e20306044820152606401610c08565b6000816101000151116125765760405162461bcd60e51b815260206004820152601f60248201527f6475726174696f6e206d7573742062652067726561746572207468616e2030006044820152606401610c08565b60008160800151116125ca5760405162461bcd60e51b815260206004820181905260248201527f6661636556616c7565206d7573742062652067726561746572207468616e20306044820152606401610c08565b6006548160c0015110156126205760405162461bcd60e51b815260206004820152601d60248201527f4e6565647320746f20626520696e20646563696d616c20666f726d61740000006044820152606401610c08565b60008160a00151116126745760405162461bcd60e51b815260206004820152601860248201527f6d7573742062652076616c696420696e737472756d656e7400000000000000006044820152606401610c08565b6101408101516001600160a01b031660009081526016602090815260409182902083518155908301516001820180549385015161ffff1990941691151561ff001916919091176101009315158402179055606083015160028201556080830151600382015560a0830151600482015560c0830151600582015560e0830151600682015590820151600782015561012082015182919060088201906127189082614a69565b506101408201516009820180546001600160a01b039092166001600160a01b0319831681178255610160850151926001600160a81b03191617600160a01b8360058111156127685761276861425e565b0217905550610180820151600a8201556101a0909101518051600b830155602080820151600c840155604080830151600d8501556060830151600e8501556080830151600f85015560a080840151601086015560c0909301516011909401939093556101408401519390910151600090815260179091522080546001600160a01b0319166001600160a01b03909216919091179055565b61280761402f565b6000828152601760209081526040808320546001600160a01b03168352601682529182902082516101c08101845281548152600182015460ff808216151594830194909452610100908190049093161515938101939093526002810154606084015260038101546080840152600481015460a0840152600581015460c0840152600681015460e084015260078101549183019190915260088101805461012084019190611cac906149a0565b336000908152600360205260408120805483919083906128d49084906149da565b90915550506001600160a01b03831660008181526003602052604090819020805485019055513390600080516020614ba083398151915290610e969086815260200190565b612921613b66565b6001600160a01b03166000908152601660205260409020600101805461ff0019169055565b6002546000908015610e3257610e2d61295d610ad2565b849083613a27565b600061297084610ea8565b9050336001600160a01b038316146129e0576001600160a01b038216600090815260046020908152604080832033845290915290205460001981146129de576129b982826149da565b6001600160a01b03841660009081526004602090815260408083203384529091529020555b505b6129ea8482613cc7565b6129f48282613d1c565b60408051858152602081018390526001600160a01b03808516929086169133917ffbde797d201c681b91056529119e0b02407c7bb96a4a2c75c01fc9667232c8db910160405180910390a4610e346001600160a01b037f0000000000000000000000000000000000000000000000000000000000000000168486613d7e565b6000336001600160a01b03831614612ae3576001600160a01b03821660009081526004602090815260408083203384529091529020546000198114612ae157612abc85826149da565b6001600160a01b03841660009081526004602090815260408083203384529091529020555b505b612aec84611bf6565b905080600003612b2c5760405162461bcd60e51b815260206004820152600b60248201526a5a45524f5f41535345545360a81b6044820152606401610c08565b612b368185613cc7565b612b408285613d1c565b60408051828152602081018690526001600160a01b03808516929086169133917ffbde797d201c681b91056529119e0b02407c7bb96a4a2c75c01fc9667232c8db910160405180910390a460405163a9059cbb60e01b81526001600160a01b038481166004830152602482018390527f0000000000000000000000000000000000000000000000000000000000000000169063a9059cbb906044016020604051808303816000875af1158015612bfa573d6000803e3d6000fd5b505050506040513d601f19601f82011682018060405250810190612c1e9190614983565b509392505050565b6002546000908015610e3257610e2d81612c3e610ad2565b859190613a09565b6000806000612ca36040518061014001604052806000815260200160008152602001600081526020016000815260200160008152602001600081526020016000815260200160008152602001600081526020016000151581525090565b612cac85610dc6565b6080860152606085018190526040850182905260208501929092529183529250612cfc5760405162461bcd60e51b81526020600482015260016024820152600360fc1b6044820152606401610c08565b612d33612d28826020015142612d1291906149da565b6006548451612d219082614957565b9190613dfc565b604083015190613b51565b60a0820152600854604051634955b91f60e11b8152600481018790526001600160a01b03909116906392ab723e90602401602060405180830381865afa158015612d81573d6000803e3d6000fd5b505050506040513d601f19601f82011682018060405250810190612da5919061496a565b60e082018190526060820151612dbb9190613b51565b6101008201819052604082015160e0830151612ddc92611be7918991611b5c565b60c0820152610100810151600003612dfc5760a001519250829150612ee7565b61010081015160a0820151612e1091613b51565b8160c0015110612e26578060a001519350612e45565b61010081015160c0820151612e3a91613bd5565b600161012083015293505b806101200151612e8b57612e888160e00151612e738361010001518460a00151613b5190919063ffffffff16565b8360c00151612e8291906149da565b90613bd5565b92505b6000612ea882606001518360a00151613b5190919063ffffffff16565b612ed9612ec76108d68560400151600654613b5190919063ffffffff16565b8460600151600654611be79190614957565b612ee391906149da565b5050505b9193909250565b6001600160a01b038116600090815260036020526040812054610ea290610e0e565b42841015612f605760405162461bcd60e51b815260206004820152601760248201527f5045524d49545f444541444c494e455f455850495245440000000000000000006044820152606401610c08565b60006001612f6c6119a1565b6001600160a01b038a811660008181526005602090815260409182902080546001810190915582517f6e71edae12b1b97f4d1f60370fef10105fa2faae0126114a169c64845d6126c98184015280840194909452938d166060840152608083018c905260a083019390935260c08083018b90528151808403909101815260e08301909152805192019190912061190160f01b6101008301526101028201929092526101228101919091526101420160408051601f198184030181528282528051602091820120600084529083018083525260ff871690820152606081018590526080810184905260a0016020604051602081039080840390855afa158015613078573d6000803e3d6000fd5b5050604051601f1901519150506001600160a01b038116158015906130ae5750876001600160a01b0316816001600160a01b0316145b6130eb5760405162461bcd60e51b815260206004820152600e60248201526d24a72b20a624a22fa9a4a3a722a960911b6044820152606401610c08565b6001600160a01b0390811660009081526004602090815260408083208a8516808552908352928190208990555188815291928a16917f8c5be1e5ebec7d5bd14f71427d1e84f3dd0314c0f7b2291e5b200ac8c7c3b925910160405180910390a350505050505050565b61315c613b66565b6000818152601760209081526040808320546001600160a01b0316835260169091529020811580159061319b575060098101546001600160a01b031615155b6131dc5760405162461bcd60e51b81526020600482015260126024820152711a5b9d985b1a59081a5b9cdd1c9d5b595b9d60721b6044820152606401610c08565b6001810154610100900460ff16156132365760405162461bcd60e51b815260206004820152601e60248201527f63616e27742064656e7920617070726f76656420696e737472756d656e7400006044820152606401610c08565b60405182907f2d0c55bb11caafe3aed6eebf9c466c6c50dc9b2706d918bc83357ee394da0ef590600090a2611b5882613eb9565b6001600160a01b038116600090815260036020526040812054610ea290611bf6565b60008060008061329a613b66565b6000858152601760209081526040808320546019835292819020815180830183528154815260019091015460ff161515818401528151632938b58d60e21b815291516001600160a01b03909416939092849263a4e2d63492600480830193928290030181865afa158015613312573d6000803e3d6000fd5b505050506040513d601f19601f820116820180604052508101906133369190614983565b61336f5760405162461bcd60e51b815260206004820152600a602482015269139bdd08131bd8dad95960b21b6044820152606401610c08565b6000826001600160a01b0316631104aafd6040518163ffffffff1660e01b8152600401602060405180830381865afa1580156133af573d6000803e3d6000fd5b505050506040513d601f19601f820116820180604052508101906133d3919061496a565b60008981526018602052604081205491925060ff90911690808083613481576001600160a01b038716600090815260166020526040902060030154851092508261341e576000613445565b6001600160a01b0387166000908152601660205260409020600301546134459086906149da565b9150821561345457600061347a565b6001600160a01b03871660009081526016602052604090206003015461347a90866149da565b905061350c565b6001600160a01b03871660009081526016602052604090206005015485109250826134ad5760006134d4565b6001600160a01b0387166000908152601660205260409020600501546134d49086906149da565b915082156134e3576000613509565b6001600160a01b03871660009081526016602052604090206005015461350990866149da565b90505b613518878660016138b3565b6001600160a01b03871660009081526016602052604090206004015461353d90613eb9565b919b919a509850909650945050505050565b600061355a85613741565b90506001600160a01b03811663537d94096135758685614957565b6040518263ffffffff1660e01b815260040161359391815260200190565b602060405180830381865afa1580156135b0573d6000803e3d6000fd5b505050506040513d601f19601f820116820180604052508101906135d49190614983565b6136095760405162461bcd60e51b8152600401610c0890602080825260049082015263216c697160e01b604082015260600190565b6001600160a01b03811663b460af946136228685614957565b6040516001600160e01b031960e084901b1681526004810191909152306024820181905260448201526064016020604051808303816000875af115801561366d573d6000803e3d6000fd5b505050506040513d601f19601f82011682018060405250810190613691919061496a565b5060405163a9059cbb60e01b81526001600160a01b038481166004830152602482018690527f0000000000000000000000000000000000000000000000000000000000000000169063a9059cbb906044016020604051808303816000875af1158015613701573d6000803e3d6000fd5b505050506040513d601f19601f820116820180604052508101906137259190614983565b5061373a61373286613741565b8360006138b3565b5050505050565b6000908152601760205260409020546001600160a01b031690565b6000610ea282612c26565b61376f613b66565b60405163a9059cbb60e01b81526001600160a01b038281166004830152602482018490527f0000000000000000000000000000000000000000000000000000000000000000169063a9059cbb906044016122c8565b6040516370a0823160e01b81523060048201526000907f00000000000000000000000000000000000000000000000000000000000000006001600160a01b0316906370a0823190602401602060405180830381865afa15801561382b573d6000803e3d6000fd5b505050506040513d601f19601f8201168201806040525081019061384f919061496a565b9050808211156138945760405162461bcd60e51b815260206004820152601060248201526f707573682065786365656473206c697160801b6044820152606401610c08565b600082156138a257826138a4565b815b9050610d336000826001611544565b826138bd81613a4d565b6001600160a01b038416600090815260166020526040812060020180548592906138e89084906149da565b92505081905550826007600082825461390191906149da565b909155505081156139b35760405163852a12e360e01b8152600481018490526001600160a01b0385169063852a12e3906024016020604051808303816000875af1158015613953573d6000803e3d6000fd5b505050506040513d601f19601f820116820180604052508101906139779190614983565b6139b35760405162461bcd60e51b815260206004820152600d60248201526c14915111515357d19052531151609a1b6044820152606401610c08565b6001600160a01b0384166000818152601660209081526040918290206004015491518681527f881b4464dbc964dda309ca47f63a3fbbfb685abbe05c3c6687dd03f08bfeea12910160405180910390a350505050565b6000826000190484118302158202613a2057600080fd5b5091020490565b6000826000190484118302158202613a3e57600080fd5b50910281810615159190040190565b6001600160a01b038116600090815260166020526040902060010154610100900460ff16613ab45760405162461bcd60e51b8152602060048201526014602482015273155395149554d5115108125b9cdd1c9d5b595b9d60621b6044820152606401610c08565b50565b60007f8b73c3c69bb8fe3d512ecc4cf759cc79239f7b179b0ffacaa9a75d522b39400f6000604051613ae99190614b29565b6040805191829003822060208301939093528101919091527fc89efdaa54c0f20c7adf612882df0950f5a951637e0307cdcb4c672f298b8bc660608201524660808201523060a082015260c00160405160208183030381529060405280519060200120905090565b6000610e348383670de0b6b3a7640000613a09565b6008546001600160a01b0316331480613b895750601a546001600160a01b031633145b80613b9357503033145b613bd35760405162461bcd60e51b815260206004820152601160248201527034b9903737ba1031b7b73a3937b63632b960791b6044820152606401610c08565b565b6000610e3483670de0b6b3a764000084613a09565b60006040516323b872dd60e01b81528460048201528360248201528260448201526020600060648360008a5af13d15601f3d116001600051141617169150508061373a5760405162461bcd60e51b81526020600482015260146024820152731514905394d1915497d19493d357d1905253115160621b6044820152606401610c08565b8060026000828254613c7f9190614957565b90915550506001600160a01b038216600081815260036020908152604080832080548601905551848152600080516020614ba083398151915291015b60405180910390a35050565b613cd08261106e565b611b585760405162461bcd60e51b815260206004820152601c60248201527f4e6f7420656e6f756768206c6971756469747920696e207661756c74000000006044820152606401610c08565b6001600160a01b03821660009081526003602052604081208054839290613d449084906149da565b90915550506002805482900390556040518181526000906001600160a01b03841690600080516020614ba083398151915290602001613cbb565b600060405163a9059cbb60e01b8152836004820152826024820152602060006044836000895af13d15601f3d1160016000511416171691505080613df65760405162461bcd60e51b815260206004820152600f60248201526e1514905394d1915497d19052531151608a1b6044820152606401610c08565b50505050565b6000838015613e9c57600184168015613e1757859250613e1b565b8392505b508260011c8460011c94505b8415613e96578560801c15613e3b57600080fd5b85860281810181811015613e4e57600080fd5b8590049650506001851615613e8b578583028387820414613e74578615613e7457600080fd5b81810181811015613e8457600080fd5b8590049350505b8460011c9450613e27565b50612c1e565b838015613eac5760009250613eb0565b8392505b50509392505050565b6000818152601760209081526040808320546001600160a01b03168352601690915290206004810154613f2e5760405162461bcd60e51b815260206004820152601860248201527f696e737472756d656e7420646f65736e277420657869737400000000000000006044820152606401610c08565b6000828152601760209081526040808320546001600160a01b031683526016909152812081815560018101805461ffff1916905560028101829055600381018290556004810182905560058101829055600681018290556007810182905590613f9a60088301826140de565b506009810180546001600160a81b03191690556000600a8201819055600b8201819055600c8201819055600d8201819055600e8201819055600f82018190556010820181905560119091018190558281526017602052604080822080546001600160a01b03191690555183907ff2c79fb37cf068a1203864bc62bac9000eb31d5a2425782708e645934a942bbe908390a35050565b604080516101c08101825260008082526020820181905291810182905260608082018390526080820183905260a0820183905260c0820183905260e0820183905261010082018390526101208201526101408101829052906101608201908152602001600081526020016140d96040518060e00160405280600081526020016000815260200160008152602001600081526020016000815260200160008152602001600081525090565b905290565b5080546140ea906149a0565b6000825580601f106140fa575050565b601f016020900490600052602060002090810190613ab491905b808211156141285760008155600101614114565b5090565b60006020828403121561413e57600080fd5b5035919050565b6000815180845260005b8181101561416b5760208185018101518683018201520161414f565b506000602082860101526020601f19601f83011685010191505092915050565b602081526000610e346020830184614145565b6001600160a01b0381168114613ab457600080fd5b80356141be8161419e565b919050565b600080604083850312156141d657600080fd5b82356141e18161419e565b946020939093013593505050565b60006020828403121561420157600080fd5b8135610e348161419e565b8015158114613ab457600080fd5b80356141be8161420c565b6000806040838503121561423857600080fd5b82356142438161419e565b915060208301356142538161420c565b809150509250929050565b634e487b7160e01b600052602160045260246000fd5b6006811061429257634e487b7160e01b600052602160045260246000fd5b9052565b805182526020810151602083015260408101516040830152606081015160608301526080810151608083015260a081015160a083015260c081015160c08301525050565b8e81528d151560208201528c151560408201528b60608201528a60808201528960a08201528860c08201528760e082015286610100820152610280610120820152600061432b610280830188614145565b6001600160a01b038716610140840152905061434b610160830186614274565b836101808301526143606101a0830184614296565b9f9e505050505050505050505050505050565b60008060006060848603121561438857600080fd5b83356143938161419e565b925060208401356143a38161419e565b929592945050506040919091013590565b6000806000606084860312156143c957600080fd5b833592506020840135915060408401356143e28161420c565b809150509250925092565b60008060006060848603121561440257600080fd5b505081359360208301359350604090920135919050565b602081528151602082015260006020830151614439604084018215159052565b50604083015180151560608401525060608301516080830152608083015160a083015260a083015160c083015260c083015160e083015260e0830151610100818185015280850151915050610120818185015280850151915050610140610280818501526144ab6102a0850183614145565b908501519091506101606144c9858201836001600160a01b03169052565b85015190506101806144dd85820183614274565b8501516101a0858101919091528501519050612c1e6101c0850182614296565b634e487b7160e01b600052604160045260246000fd5b6040516101c0810167ffffffffffffffff81118282101715614537576145376144fd565b60405290565b600080600083850360a081121561455357600080fd5b843593506060601f198201121561456957600080fd5b506040516060810181811067ffffffffffffffff8211171561458d5761458d6144fd565b604090815260208681013583528682013590830152606086013590820152915060808401356143e28161420c565b600080604083850312156145ce57600080fd5b8235915060208301356142538161419e565b600082601f8301126145f157600080fd5b813567ffffffffffffffff8082111561460c5761460c6144fd565b604051601f8301601f19908116603f01168101908282118183101715614634576146346144fd565b8160405283815286602085880101111561464d57600080fd5b836020870160208301376000602085830101528094505050505092915050565b8035600681106141be57600080fd5b600060e0828403121561468e57600080fd5b60405160e0810181811067ffffffffffffffff821117156146b1576146b16144fd565b8060405250809150823581526020830135602082015260408301356040820152606083013560608201526080830135608082015260a083013560a082015260c083013560c08201525092915050565b60006020828403121561471257600080fd5b813567ffffffffffffffff8082111561472a57600080fd5b90830190610280828603121561473f57600080fd5b614747614513565b823581526147576020840161421a565b60208201526147686040840161421a565b6040820152606083013560608201526080830135608082015260a083013560a082015260c083013560c082015260e083013560e082015261010080840135818301525061012080840135838111156147bf57600080fd5b6147cb888287016145e0565b82840152505061014091506147e18284016141b3565b8282015261016091506147f582840161466d565b82820152610180915081830135828201526101a091506148178683850161467c565b91810191909152949350505050565b60008060006060848603121561483b57600080fd5b83359250602084013561484d8161419e565b915060408401356143e28161419e565b600080600080600080600060e0888a03121561487857600080fd5b87356148838161419e565b965060208801356148938161419e565b95506040880135945060608801359350608088013560ff811681146148b757600080fd5b9699959850939692959460a0840135945060c09093013592915050565b600080604083850312156148e757600080fd5b82356148f28161419e565b915060208301356142538161419e565b6000806000806080858703121561491857600080fd5b843593506020850135925060408501356149318161419e565b9396929550929360600135925050565b634e487b7160e01b600052601160045260246000fd5b80820180821115610ea257610ea2614941565b60006020828403121561497c57600080fd5b5051919050565b60006020828403121561499557600080fd5b8151610e348161420c565b600181811c908216806149b457607f821691505b6020821081036149d457634e487b7160e01b600052602260045260246000fd5b50919050565b81810381811115610ea257610ea2614941565b600080600060608486031215614a0257600080fd5b8351925060208401519150604084015190509250925092565b601f821115610d3357600081815260208120601f850160051c81016020861015614a425750805b601f850160051c820191505b81811015614a6157828155600101614a4e565b505050505050565b815167ffffffffffffffff811115614a8357614a836144fd565b614a9781614a9184546149a0565b84614a1b565b602080601f831160018114614acc5760008415614ab45750858301515b600019600386901b1c1916600185901b178555614a61565b600085815260208120601f198616915b82811015614afb57888601518255948401946001909101908401614adc565b5085821015614b195787850151600019600388901b60f8161c191681555b5050505050600190811b01905550565b6000808354614b37816149a0565b60018281168015614b4f5760018114614b6457614b93565b60ff1984168752821515830287019450614b93565b8760005260208060002060005b85811015614b8a5781548a820152908401908201614b71565b50505082870194505b5092969550505050505056feddf252ad1be2c89b69c2b068fc378daa952ba7f163c4a11628f55a4df523b3efa26469706673582212204d9252e25dd3669c598c2292b2e2490ac1db978fbd9accbc7a580f30bac5ef0864736f6c63430008110033",
    "linkReferences": {}
  },
  "methodIdentifiers": {
    "DOMAIN_SEPARATOR()": "3644e515",
    "Instruments(uint256)": "50c6e6cf",
    "UNDERLYING()": "c5d664c6",
    "addLendingModule(address)": "492023f8",
    "addProposal((bytes32,bool,bool,uint256,uint256,uint256,uint256,uint256,uint256,string,address,uint8,uint256,(uint256,uint256,uint256,uint256,uint256,uint256,uint256)))": "98d796e7",
    "allowance(address,address)": "dd62ed3e",
    "approve(address,uint256)": "095ea7b3",
    "asset()": "38d52e0f",
    "asset_limit()": "5f260bb8",
    "balanceInUnderlying(address)": "dc361a13",
    "balanceOf(address)": "70a08231",
    "beforeResolve(uint256)": "2b858734",
    "closeInstrument(uint256)": "59dc5c6f",
    "convertToAssets(uint256)": "07a2d13a",
    "convertToShares(uint256)": "c6e6f592",
    "decimals()": "313ce567",
    "denyInstrument(uint256)": "d746d3ef",
    "deposit(uint256,address)": "6e553f65",
    "depositIntoInstrument(uint256,uint256,bool)": "34928ace",
    "description()": "7284e416",
    "distrustInstrument(address)": "b19b1f91",
    "enoughLiqudity(uint256)": "139f4b6f",
    "fetchInstrument(uint256)": "edb53d3e",
    "fetchInstrumentData(uint256)": "9ec4d40e",
    "fetchPoolTrancheData(uint256)": "076125a9",
    "getInstrumentData(address)": "4dc54a38",
    "getInstrumentType(uint256)": "0f65cbc4",
    "get_vault_params()": "7572cb1f",
    "harvest(address)": "0e5c011e",
    "instrumentApprovalCondition(uint256)": "471e1cea",
    "instrumentAssetOracle(uint256,uint256,uint256)": "4bd3c9a8",
    "instrument_data(address)": "22f0e069",
    "isTrusted(address)": "96d64879",
    "maxDeposit(address)": "402d267d",
    "maxMint(address)": "c63d75b6",
    "maxRedeem(address)": "d905777e",
    "maxWithdraw(address)": "ce96cb77",
    "mint(uint256,address)": "94bf804d",
    "name()": "06fdde03",
    "nonces(address)": "7ecebe00",
    "onlyVerified()": "f7d070de",
    "owner()": "8da5cb5b",
    "permit(address,address,uint256,uint256,uint8,bytes32,bytes32)": "d505accf",
    "pingMaturity(address,bool)": "213a7d52",
    "poolZCBValue(uint256)": "ca13e450",
    "previewDeposit(uint256)": "ef8b30f7",
    "previewMint(uint256)": "b3d7f6b9",
    "previewRedeem(uint256)": "4cdad506",
    "previewWithdraw(uint256)": "0a28a477",
    "pullFromLM(uint256)": "063b31d4",
    "pushToLM(uint256)": "fa07b19f",
    "r()": "6c8ae38c",
    "receiver_conditions(address)": "e9a23d3a",
    "redeem(uint256,address,address)": "ba087652",
    "repayDebt(address,uint256)": "79e20bdc",
    "resolveInstrument(uint256)": "e134cc82",
    "symbol()": "95d89b41",
    "totalAssets()": "01e1d114",
    "totalFloat()": "841219e5",
    "totalInstrumentHoldings()": "ca2989f4",
    "totalSupply()": "18160ddd",
    "total_asset_limit()": "c83baf4e",
    "transfer(address,uint256)": "a9059cbb",
    "transferFrom(address,address,uint256)": "23b872dd",
    "trustInstrument(uint256,(uint256,uint256,uint256),bool)": "4e1afd00",
    "trusted_transfer(uint256,address)": "f05bcfb4",
    "utilizationRate()": "6c321c8a",
    "viewPrincipalAndYield(uint256)": "60d4efa4",
    "withdraw(uint256,address,address)": "b460af94",
    "withdrawFromPoolInstrument(uint256,uint256,address,uint256)": "e4cc3e76"
  },
  "id": 33
}