{
  "abi": [
    {
      "inputs": [
        {
          "internalType": "address",
          "name": "_UNDERLYING",
          "type": "address"
        },
        {
          "internalType": "address",
          "name": "_controller",
          "type": "address"
        },
        {
          "internalType": "address",
          "name": "_owner",
          "type": "address"
        },
        {
          "internalType": "bool",
          "name": "_onlyVerified",
          "type": "bool"
        },
        {
          "internalType": "uint256",
          "name": "_r",
          "type": "uint256"
        },
        {
          "internalType": "uint256",
          "name": "_asset_limit",
          "type": "uint256"
        },
        {
          "internalType": "uint256",
          "name": "_total_asset_limit",
          "type": "uint256"
        },
        {
          "components": [
            {
              "internalType": "uint256",
              "name": "N",
              "type": "uint256"
            },
            {
              "internalType": "uint256",
              "name": "sigma",
              "type": "uint256"
            },
            {
              "internalType": "uint256",
              "name": "alpha",
              "type": "uint256"
            },
            {
              "internalType": "uint256",
              "name": "omega",
              "type": "uint256"
            },
            {
              "internalType": "uint256",
              "name": "delta",
              "type": "uint256"
            },
            {
              "internalType": "uint256",
              "name": "r",
              "type": "uint256"
            },
            {
              "internalType": "uint256",
              "name": "s",
              "type": "uint256"
            },
            {
              "internalType": "uint256",
              "name": "steak",
              "type": "uint256"
            }
          ],
          "internalType": "struct MarketManager.MarketParameters",
          "name": "_default_params",
          "type": "tuple"
        }
      ],
      "stateMutability": "nonpayable",
      "type": "constructor"
    },
    {
      "anonymous": false,
      "inputs": [
        {
          "indexed": true,
          "internalType": "address",
          "name": "owner",
          "type": "address"
        },
        {
          "indexed": true,
          "internalType": "address",
          "name": "spender",
          "type": "address"
        },
        {
          "indexed": false,
          "internalType": "uint256",
          "name": "amount",
          "type": "uint256"
        }
      ],
      "name": "Approval",
      "type": "event"
    },
    {
      "anonymous": false,
      "inputs": [
        {
          "indexed": true,
          "internalType": "address",
          "name": "caller",
          "type": "address"
        },
        {
          "indexed": true,
          "internalType": "address",
          "name": "owner",
          "type": "address"
        },
        {
          "indexed": false,
          "internalType": "uint256",
          "name": "assets",
          "type": "uint256"
        },
        {
          "indexed": false,
          "internalType": "uint256",
          "name": "shares",
          "type": "uint256"
        }
      ],
      "name": "Deposit",
      "type": "event"
    },
    {
      "anonymous": false,
      "inputs": [
        {
          "indexed": true,
          "internalType": "address",
          "name": "user",
          "type": "address"
        },
        {
          "indexed": true,
          "internalType": "contract Instrument",
          "name": "instrument",
          "type": "address"
        },
        {
          "indexed": false,
          "internalType": "uint256",
          "name": "underlyingAmount",
          "type": "uint256"
        }
      ],
      "name": "InstrumentDeposit",
      "type": "event"
    },
    {
      "anonymous": false,
      "inputs": [
        {
          "indexed": true,
          "internalType": "address",
          "name": "user",
          "type": "address"
        },
        {
          "indexed": true,
          "internalType": "contract Instrument",
          "name": "instrument",
          "type": "address"
        }
      ],
      "name": "InstrumentDistrusted",
      "type": "event"
    },
    {
      "anonymous": false,
      "inputs": [
        {
          "indexed": true,
          "internalType": "address",
          "name": "instrument",
          "type": "address"
        },
        {
          "indexed": false,
          "internalType": "uint256",
          "name": "instrument_balance",
          "type": "uint256"
        },
        {
          "indexed": false,
          "internalType": "uint256",
          "name": "mag",
          "type": "uint256"
        },
        {
          "indexed": false,
          "internalType": "bool",
          "name": "sign",
          "type": "bool"
        }
      ],
      "name": "InstrumentHarvest",
      "type": "event"
    },
    {
      "anonymous": false,
      "inputs": [
        {
          "indexed": true,
          "internalType": "address",
          "name": "user",
          "type": "address"
        },
        {
          "indexed": true,
          "internalType": "contract Instrument",
          "name": "instrument",
          "type": "address"
        }
      ],
      "name": "InstrumentTrusted",
      "type": "event"
    },
    {
      "anonymous": false,
      "inputs": [
        {
          "indexed": true,
          "internalType": "address",
          "name": "user",
          "type": "address"
        },
        {
          "indexed": true,
          "internalType": "contract Instrument",
          "name": "instrument",
          "type": "address"
        },
        {
          "indexed": false,
          "internalType": "uint256",
          "name": "underlyingAmount",
          "type": "uint256"
        }
      ],
      "name": "InstrumentWithdrawal",
      "type": "event"
    },
    {
      "anonymous": false,
      "inputs": [
        {
          "indexed": true,
          "internalType": "address",
          "name": "from",
          "type": "address"
        },
        {
          "indexed": true,
          "internalType": "address",
          "name": "to",
          "type": "address"
        },
        {
          "indexed": false,
          "internalType": "uint256",
          "name": "amount",
          "type": "uint256"
        }
      ],
      "name": "Transfer",
      "type": "event"
    },
    {
      "anonymous": false,
      "inputs": [
        {
          "indexed": true,
          "internalType": "address",
          "name": "caller",
          "type": "address"
        },
        {
          "indexed": true,
          "internalType": "address",
          "name": "receiver",
          "type": "address"
        },
        {
          "indexed": true,
          "internalType": "address",
          "name": "owner",
          "type": "address"
        },
        {
          "indexed": false,
          "internalType": "uint256",
          "name": "assets",
          "type": "uint256"
        },
        {
          "indexed": false,
          "internalType": "uint256",
          "name": "shares",
          "type": "uint256"
        }
      ],
      "name": "Withdraw",
      "type": "event"
    },
    {
      "inputs": [],
      "name": "DOMAIN_SEPARATOR",
      "outputs": [
        {
          "internalType": "bytes32",
          "name": "",
          "type": "bytes32"
        }
      ],
      "stateMutability": "view",
      "type": "function"
    },
    {
      "inputs": [
        {
          "internalType": "uint256",
          "name": "",
          "type": "uint256"
        }
      ],
      "name": "Instruments",
      "outputs": [
        {
          "internalType": "contract Instrument",
          "name": "",
          "type": "address"
        }
      ],
      "stateMutability": "view",
      "type": "function"
    },
    {
      "inputs": [],
      "name": "UNDERLYING",
      "outputs": [
        {
          "internalType": "contract ERC20",
          "name": "",
          "type": "address"
        }
      ],
      "stateMutability": "view",
      "type": "function"
    },
    {
      "inputs": [
        {
          "components": [
            {
              "internalType": "bytes32",
              "name": "name",
              "type": "bytes32"
            },
            {
              "internalType": "bool",
              "name": "isPool",
              "type": "bool"
            },
            {
              "internalType": "bool",
              "name": "trusted",
              "type": "bool"
            },
            {
              "internalType": "uint256",
              "name": "balance",
              "type": "uint256"
            },
            {
              "internalType": "uint256",
              "name": "faceValue",
              "type": "uint256"
            },
            {
              "internalType": "uint256",
              "name": "marketId",
              "type": "uint256"
            },
            {
              "internalType": "uint256",
              "name": "principal",
              "type": "uint256"
            },
            {
              "internalType": "uint256",
              "name": "expectedYield",
              "type": "uint256"
            },
            {
              "internalType": "uint256",
              "name": "duration",
              "type": "uint256"
            },
            {
              "internalType": "string",
              "name": "description",
              "type": "string"
            },
            {
              "internalType": "address",
              "name": "instrument_address",
              "type": "address"
            },
            {
              "internalType": "enum Vault.InstrumentType",
              "name": "instrument_type",
              "type": "uint8"
            },
            {
              "internalType": "uint256",
              "name": "maturityDate",
              "type": "uint256"
            },
            {
              "components": [
                {
                  "internalType": "uint256",
                  "name": "saleAmount",
                  "type": "uint256"
                },
                {
                  "internalType": "uint256",
                  "name": "initPrice",
                  "type": "uint256"
                },
                {
                  "internalType": "uint256",
                  "name": "promisedReturn",
                  "type": "uint256"
                },
                {
                  "internalType": "uint256",
                  "name": "inceptionTime",
                  "type": "uint256"
                },
                {
                  "internalType": "uint256",
                  "name": "inceptionPrice",
                  "type": "uint256"
                },
                {
                  "internalType": "uint256",
                  "name": "leverageFactor",
                  "type": "uint256"
                },
                {
                  "internalType": "uint256",
                  "name": "managementFee",
                  "type": "uint256"
                }
              ],
              "internalType": "struct Vault.PoolData",
              "name": "poolData",
              "type": "tuple"
            }
          ],
          "internalType": "struct Vault.InstrumentData",
          "name": "data",
          "type": "tuple"
        }
      ],
      "name": "addProposal",
      "outputs": [],
      "stateMutability": "nonpayable",
      "type": "function"
    },
    {
      "inputs": [
        {
          "internalType": "address",
          "name": "",
          "type": "address"
        },
        {
          "internalType": "address",
          "name": "",
          "type": "address"
        }
      ],
      "name": "allowance",
      "outputs": [
        {
          "internalType": "uint256",
          "name": "",
          "type": "uint256"
        }
      ],
      "stateMutability": "view",
      "type": "function"
    },
    {
      "inputs": [
        {
          "internalType": "address",
          "name": "spender",
          "type": "address"
        },
        {
          "internalType": "uint256",
          "name": "amount",
          "type": "uint256"
        }
      ],
      "name": "approve",
      "outputs": [
        {
          "internalType": "bool",
          "name": "",
          "type": "bool"
        }
      ],
      "stateMutability": "nonpayable",
      "type": "function"
    },
    {
      "inputs": [],
      "name": "asset",
      "outputs": [
        {
          "internalType": "contract ERC20",
          "name": "",
          "type": "address"
        }
      ],
      "stateMutability": "view",
      "type": "function"
    },
    {
      "inputs": [],
      "name": "asset_limit",
      "outputs": [
        {
          "internalType": "uint256",
          "name": "",
          "type": "uint256"
        }
      ],
      "stateMutability": "view",
      "type": "function"
    },
    {
      "inputs": [
        {
          "internalType": "address",
          "name": "ad",
          "type": "address"
        }
      ],
      "name": "balanceInUnderlying",
      "outputs": [
        {
          "internalType": "uint256",
          "name": "",
          "type": "uint256"
        }
      ],
      "stateMutability": "view",
      "type": "function"
    },
    {
      "inputs": [
        {
          "internalType": "address",
          "name": "",
          "type": "address"
        }
      ],
      "name": "balanceOf",
      "outputs": [
        {
          "internalType": "uint256",
          "name": "",
          "type": "uint256"
        }
      ],
      "stateMutability": "view",
      "type": "function"
    },
    {
      "inputs": [
        {
          "internalType": "uint256",
          "name": "marketId",
          "type": "uint256"
        }
      ],
      "name": "beforeResolve",
      "outputs": [],
      "stateMutability": "nonpayable",
      "type": "function"
    },
    {
      "inputs": [
        {
          "internalType": "uint256",
          "name": "shares",
          "type": "uint256"
        }
      ],
      "name": "burn",
      "outputs": [],
      "stateMutability": "nonpayable",
      "type": "function"
    },
    {
      "inputs": [
        {
          "internalType": "uint256",
          "name": "marketId",
          "type": "uint256"
        }
      ],
      "name": "closeInstrument",
      "outputs": [],
      "stateMutability": "nonpayable",
      "type": "function"
    },
    {
      "inputs": [
        {
          "internalType": "uint256",
          "name": "amount",
          "type": "uint256"
        },
        {
          "internalType": "address",
          "name": "bc_address",
          "type": "address"
        }
      ],
      "name": "controller_burn",
      "outputs": [],
      "stateMutability": "nonpayable",
      "type": "function"
    },
    {
      "inputs": [
        {
          "internalType": "uint256",
          "name": "amount",
          "type": "uint256"
        },
        {
          "internalType": "address",
          "name": "to",
          "type": "address"
        }
      ],
      "name": "controller_mint",
      "outputs": [],
      "stateMutability": "nonpayable",
      "type": "function"
    },
    {
      "inputs": [
        {
          "internalType": "uint256",
          "name": "shares",
          "type": "uint256"
        }
      ],
      "name": "convertToAssets",
      "outputs": [
        {
          "internalType": "uint256",
          "name": "",
          "type": "uint256"
        }
      ],
      "stateMutability": "view",
      "type": "function"
    },
    {
      "inputs": [
        {
          "internalType": "uint256",
          "name": "assets",
          "type": "uint256"
        }
      ],
      "name": "convertToShares",
      "outputs": [
        {
          "internalType": "uint256",
          "name": "",
          "type": "uint256"
        }
      ],
      "stateMutability": "view",
      "type": "function"
    },
    {
      "inputs": [
        {
          "internalType": "uint256",
          "name": "assets",
          "type": "uint256"
        }
      ],
      "name": "decAssetsToShares",
      "outputs": [
        {
          "internalType": "uint256",
          "name": "",
          "type": "uint256"
        }
      ],
      "stateMutability": "view",
      "type": "function"
    },
    {
      "inputs": [
        {
          "internalType": "uint256",
          "name": "shares",
          "type": "uint256"
        }
      ],
      "name": "decSharesToAssets",
      "outputs": [
        {
          "internalType": "uint256",
          "name": "",
          "type": "uint256"
        }
      ],
      "stateMutability": "view",
      "type": "function"
    },
    {
      "inputs": [],
      "name": "decimal_mismatch",
      "outputs": [
        {
          "internalType": "bool",
          "name": "",
          "type": "bool"
        }
      ],
      "stateMutability": "view",
      "type": "function"
    },
    {
      "inputs": [],
      "name": "decimals",
      "outputs": [
        {
          "internalType": "uint8",
          "name": "",
          "type": "uint8"
        }
      ],
      "stateMutability": "view",
      "type": "function"
    },
    {
      "inputs": [
        {
          "internalType": "uint256",
          "name": "marketId",
          "type": "uint256"
        }
      ],
      "name": "denyInstrument",
      "outputs": [],
      "stateMutability": "nonpayable",
      "type": "function"
    },
    {
      "inputs": [
        {
          "internalType": "uint256",
          "name": "assets",
          "type": "uint256"
        },
        {
          "internalType": "address",
          "name": "receiver",
          "type": "address"
        }
      ],
      "name": "deposit",
      "outputs": [
        {
          "internalType": "uint256",
          "name": "shares",
          "type": "uint256"
        }
      ],
      "stateMutability": "nonpayable",
      "type": "function"
    },
    {
      "inputs": [
        {
          "internalType": "uint256",
          "name": "marketId",
          "type": "uint256"
        },
        {
          "internalType": "uint256",
          "name": "underlyingAmount",
          "type": "uint256"
        },
        {
          "internalType": "bool",
          "name": "isPool",
          "type": "bool"
        }
      ],
      "name": "depositIntoInstrument",
      "outputs": [],
      "stateMutability": "nonpayable",
      "type": "function"
    },
    {
      "inputs": [
        {
          "internalType": "contract Instrument",
          "name": "instrument",
          "type": "address"
        }
      ],
      "name": "distrustInstrument",
      "outputs": [],
      "stateMutability": "nonpayable",
      "type": "function"
    },
    {
      "inputs": [
        {
          "internalType": "uint256",
          "name": "amounts",
          "type": "uint256"
        }
      ],
      "name": "enoughLiqudity",
      "outputs": [
        {
          "internalType": "bool",
          "name": "",
          "type": "bool"
        }
      ],
      "stateMutability": "view",
      "type": "function"
    },
    {
      "inputs": [
        {
          "internalType": "uint256",
          "name": "marketId",
          "type": "uint256"
        }
      ],
      "name": "fetchInstrument",
      "outputs": [
        {
          "internalType": "contract Instrument",
          "name": "",
          "type": "address"
        }
      ],
      "stateMutability": "view",
      "type": "function"
    },
    {
      "inputs": [
        {
          "internalType": "uint256",
          "name": "marketId",
          "type": "uint256"
        }
      ],
      "name": "fetchInstrumentData",
      "outputs": [
        {
          "components": [
            {
              "internalType": "bytes32",
              "name": "name",
              "type": "bytes32"
            },
            {
              "internalType": "bool",
              "name": "isPool",
              "type": "bool"
            },
            {
              "internalType": "bool",
              "name": "trusted",
              "type": "bool"
            },
            {
              "internalType": "uint256",
              "name": "balance",
              "type": "uint256"
            },
            {
              "internalType": "uint256",
              "name": "faceValue",
              "type": "uint256"
            },
            {
              "internalType": "uint256",
              "name": "marketId",
              "type": "uint256"
            },
            {
              "internalType": "uint256",
              "name": "principal",
              "type": "uint256"
            },
            {
              "internalType": "uint256",
              "name": "expectedYield",
              "type": "uint256"
            },
            {
              "internalType": "uint256",
              "name": "duration",
              "type": "uint256"
            },
            {
              "internalType": "string",
              "name": "description",
              "type": "string"
            },
            {
              "internalType": "address",
              "name": "instrument_address",
              "type": "address"
            },
            {
              "internalType": "enum Vault.InstrumentType",
              "name": "instrument_type",
              "type": "uint8"
            },
            {
              "internalType": "uint256",
              "name": "maturityDate",
              "type": "uint256"
            },
            {
              "components": [
                {
                  "internalType": "uint256",
                  "name": "saleAmount",
                  "type": "uint256"
                },
                {
                  "internalType": "uint256",
                  "name": "initPrice",
                  "type": "uint256"
                },
                {
                  "internalType": "uint256",
                  "name": "promisedReturn",
                  "type": "uint256"
                },
                {
                  "internalType": "uint256",
                  "name": "inceptionTime",
                  "type": "uint256"
                },
                {
                  "internalType": "uint256",
                  "name": "inceptionPrice",
                  "type": "uint256"
                },
                {
                  "internalType": "uint256",
                  "name": "leverageFactor",
                  "type": "uint256"
                },
                {
                  "internalType": "uint256",
                  "name": "managementFee",
                  "type": "uint256"
                }
              ],
              "internalType": "struct Vault.PoolData",
              "name": "poolData",
              "type": "tuple"
            }
          ],
          "internalType": "struct Vault.InstrumentData",
          "name": "",
          "type": "tuple"
        }
      ],
      "stateMutability": "view",
      "type": "function"
    },
    {
      "inputs": [
        {
          "internalType": "uint256",
          "name": "marketId",
          "type": "uint256"
        }
      ],
      "name": "fetchPoolTrancheData",
      "outputs": [
        {
          "internalType": "uint256",
          "name": "",
          "type": "uint256"
        },
        {
          "internalType": "uint256",
          "name": "",
          "type": "uint256"
        },
        {
          "internalType": "uint256",
          "name": "",
          "type": "uint256"
        },
        {
          "internalType": "uint256",
          "name": "",
          "type": "uint256"
        },
        {
          "internalType": "uint256",
          "name": "",
          "type": "uint256"
        }
      ],
      "stateMutability": "view",
      "type": "function"
    },
    {
      "inputs": [
        {
          "internalType": "contract Instrument",
          "name": "_instrument",
          "type": "address"
        }
      ],
      "name": "getInstrumentData",
      "outputs": [
        {
          "components": [
            {
              "internalType": "bytes32",
              "name": "name",
              "type": "bytes32"
            },
            {
              "internalType": "bool",
              "name": "isPool",
              "type": "bool"
            },
            {
              "internalType": "bool",
              "name": "trusted",
              "type": "bool"
            },
            {
              "internalType": "uint256",
              "name": "balance",
              "type": "uint256"
            },
            {
              "internalType": "uint256",
              "name": "faceValue",
              "type": "uint256"
            },
            {
              "internalType": "uint256",
              "name": "marketId",
              "type": "uint256"
            },
            {
              "internalType": "uint256",
              "name": "principal",
              "type": "uint256"
            },
            {
              "internalType": "uint256",
              "name": "expectedYield",
              "type": "uint256"
            },
            {
              "internalType": "uint256",
              "name": "duration",
              "type": "uint256"
            },
            {
              "internalType": "string",
              "name": "description",
              "type": "string"
            },
            {
              "internalType": "address",
              "name": "instrument_address",
              "type": "address"
            },
            {
              "internalType": "enum Vault.InstrumentType",
              "name": "instrument_type",
              "type": "uint8"
            },
            {
              "internalType": "uint256",
              "name": "maturityDate",
              "type": "uint256"
            },
            {
              "components": [
                {
                  "internalType": "uint256",
                  "name": "saleAmount",
                  "type": "uint256"
                },
                {
                  "internalType": "uint256",
                  "name": "initPrice",
                  "type": "uint256"
                },
                {
                  "internalType": "uint256",
                  "name": "promisedReturn",
                  "type": "uint256"
                },
                {
                  "internalType": "uint256",
                  "name": "inceptionTime",
                  "type": "uint256"
                },
                {
                  "internalType": "uint256",
                  "name": "inceptionPrice",
                  "type": "uint256"
                },
                {
                  "internalType": "uint256",
                  "name": "leverageFactor",
                  "type": "uint256"
                },
                {
                  "internalType": "uint256",
                  "name": "managementFee",
                  "type": "uint256"
                }
              ],
              "internalType": "struct Vault.PoolData",
              "name": "poolData",
              "type": "tuple"
            }
          ],
          "internalType": "struct Vault.InstrumentData",
          "name": "",
          "type": "tuple"
        }
      ],
      "stateMutability": "view",
      "type": "function"
    },
    {
      "inputs": [
        {
          "internalType": "uint256",
          "name": "marketId",
          "type": "uint256"
        }
      ],
      "name": "getInstrumentType",
      "outputs": [
        {
          "internalType": "uint256",
          "name": "",
          "type": "uint256"
        }
      ],
      "stateMutability": "view",
      "type": "function"
    },
    {
      "inputs": [],
      "name": "get_vault_params",
      "outputs": [
        {
          "components": [
            {
              "internalType": "uint256",
              "name": "N",
              "type": "uint256"
            },
            {
              "internalType": "uint256",
              "name": "sigma",
              "type": "uint256"
            },
            {
              "internalType": "uint256",
              "name": "alpha",
              "type": "uint256"
            },
            {
              "internalType": "uint256",
              "name": "omega",
              "type": "uint256"
            },
            {
              "internalType": "uint256",
              "name": "delta",
              "type": "uint256"
            },
            {
              "internalType": "uint256",
              "name": "r",
              "type": "uint256"
            },
            {
              "internalType": "uint256",
              "name": "s",
              "type": "uint256"
            },
            {
              "internalType": "uint256",
              "name": "steak",
              "type": "uint256"
            }
          ],
          "internalType": "struct MarketManager.MarketParameters",
          "name": "",
          "type": "tuple"
        }
      ],
      "stateMutability": "view",
      "type": "function"
    },
    {
      "inputs": [
        {
          "internalType": "address",
          "name": "instrument",
          "type": "address"
        }
      ],
      "name": "harvest",
      "outputs": [],
      "stateMutability": "nonpayable",
      "type": "function"
    },
    {
      "inputs": [
        {
          "internalType": "uint256",
          "name": "marketId",
          "type": "uint256"
        }
      ],
      "name": "instrumentApprovalCondition",
      "outputs": [
        {
          "internalType": "bool",
          "name": "",
          "type": "bool"
        }
      ],
      "stateMutability": "view",
      "type": "function"
    },
    {
      "inputs": [
        {
          "internalType": "uint256",
          "name": "marketId",
          "type": "uint256"
        },
        {
          "internalType": "uint256",
          "name": "juniorSupply",
          "type": "uint256"
        },
        {
          "internalType": "uint256",
          "name": "seniorSupply",
          "type": "uint256"
        }
      ],
      "name": "instrumentAssetOracle",
      "outputs": [
        {
          "internalType": "uint256",
          "name": "",
          "type": "uint256"
        }
      ],
      "stateMutability": "view",
      "type": "function"
    },
    {
      "inputs": [
        {
          "internalType": "contract Instrument",
          "name": "",
          "type": "address"
        }
      ],
      "name": "instrument_data",
      "outputs": [
        {
          "internalType": "bytes32",
          "name": "name",
          "type": "bytes32"
        },
        {
          "internalType": "bool",
          "name": "isPool",
          "type": "bool"
        },
        {
          "internalType": "bool",
          "name": "trusted",
          "type": "bool"
        },
        {
          "internalType": "uint256",
          "name": "balance",
          "type": "uint256"
        },
        {
          "internalType": "uint256",
          "name": "faceValue",
          "type": "uint256"
        },
        {
          "internalType": "uint256",
          "name": "marketId",
          "type": "uint256"
        },
        {
          "internalType": "uint256",
          "name": "principal",
          "type": "uint256"
        },
        {
          "internalType": "uint256",
          "name": "expectedYield",
          "type": "uint256"
        },
        {
          "internalType": "uint256",
          "name": "duration",
          "type": "uint256"
        },
        {
          "internalType": "string",
          "name": "description",
          "type": "string"
        },
        {
          "internalType": "address",
          "name": "instrument_address",
          "type": "address"
        },
        {
          "internalType": "enum Vault.InstrumentType",
          "name": "instrument_type",
          "type": "uint8"
        },
        {
          "internalType": "uint256",
          "name": "maturityDate",
          "type": "uint256"
        },
        {
          "components": [
            {
              "internalType": "uint256",
              "name": "saleAmount",
              "type": "uint256"
            },
            {
              "internalType": "uint256",
              "name": "initPrice",
              "type": "uint256"
            },
            {
              "internalType": "uint256",
              "name": "promisedReturn",
              "type": "uint256"
            },
            {
              "internalType": "uint256",
              "name": "inceptionTime",
              "type": "uint256"
            },
            {
              "internalType": "uint256",
              "name": "inceptionPrice",
              "type": "uint256"
            },
            {
              "internalType": "uint256",
              "name": "leverageFactor",
              "type": "uint256"
            },
            {
              "internalType": "uint256",
              "name": "managementFee",
              "type": "uint256"
            }
          ],
          "internalType": "struct Vault.PoolData",
          "name": "poolData",
          "type": "tuple"
        }
      ],
      "stateMutability": "view",
      "type": "function"
    },
    {
      "inputs": [
        {
          "internalType": "contract Instrument",
          "name": "instrument",
          "type": "address"
        }
      ],
      "name": "isTrusted",
      "outputs": [
        {
          "internalType": "bool",
          "name": "",
          "type": "bool"
        }
      ],
      "stateMutability": "view",
      "type": "function"
    },
    {
      "inputs": [
        {
          "internalType": "address",
          "name": "",
          "type": "address"
        }
      ],
      "name": "maxDeposit",
      "outputs": [
        {
          "internalType": "uint256",
          "name": "",
          "type": "uint256"
        }
      ],
      "stateMutability": "view",
      "type": "function"
    },
    {
      "inputs": [
        {
          "internalType": "address",
          "name": "",
          "type": "address"
        }
      ],
      "name": "maxMint",
      "outputs": [
        {
          "internalType": "uint256",
          "name": "",
          "type": "uint256"
        }
      ],
      "stateMutability": "view",
      "type": "function"
    },
    {
      "inputs": [
        {
          "internalType": "address",
          "name": "owner",
          "type": "address"
        }
      ],
      "name": "maxRedeem",
      "outputs": [
        {
          "internalType": "uint256",
          "name": "",
          "type": "uint256"
        }
      ],
      "stateMutability": "view",
      "type": "function"
    },
    {
      "inputs": [
        {
          "internalType": "address",
          "name": "owner",
          "type": "address"
        }
      ],
      "name": "maxWithdraw",
      "outputs": [
        {
          "internalType": "uint256",
          "name": "",
          "type": "uint256"
        }
      ],
      "stateMutability": "view",
      "type": "function"
    },
    {
      "inputs": [
        {
          "internalType": "uint256",
          "name": "shares",
          "type": "uint256"
        },
        {
          "internalType": "address",
          "name": "receiver",
          "type": "address"
        }
      ],
      "name": "mint",
      "outputs": [
        {
          "internalType": "uint256",
          "name": "assets",
          "type": "uint256"
        }
      ],
      "stateMutability": "nonpayable",
      "type": "function"
    },
    {
      "inputs": [],
      "name": "name",
      "outputs": [
        {
          "internalType": "string",
          "name": "",
          "type": "string"
        }
      ],
      "stateMutability": "view",
      "type": "function"
    },
    {
      "inputs": [
        {
          "internalType": "address",
          "name": "",
          "type": "address"
        }
      ],
      "name": "nonces",
      "outputs": [
        {
          "internalType": "uint256",
          "name": "",
          "type": "uint256"
        }
      ],
      "stateMutability": "view",
      "type": "function"
    },
    {
      "inputs": [
        {
          "internalType": "address",
          "name": "",
          "type": "address"
        }
      ],
      "name": "num_proposals",
      "outputs": [
        {
          "internalType": "uint256",
          "name": "",
          "type": "uint256"
        }
      ],
      "stateMutability": "view",
      "type": "function"
    },
    {
      "inputs": [],
      "name": "onlyVerified",
      "outputs": [
        {
          "internalType": "bool",
          "name": "",
          "type": "bool"
        }
      ],
      "stateMutability": "view",
      "type": "function"
    },
    {
      "inputs": [],
      "name": "owner",
      "outputs": [
        {
          "internalType": "address",
          "name": "",
          "type": "address"
        }
      ],
      "stateMutability": "view",
      "type": "function"
    },
    {
      "inputs": [
        {
          "internalType": "address",
          "name": "owner",
          "type": "address"
        },
        {
          "internalType": "address",
          "name": "spender",
          "type": "address"
        },
        {
          "internalType": "uint256",
          "name": "value",
          "type": "uint256"
        },
        {
          "internalType": "uint256",
          "name": "deadline",
          "type": "uint256"
        },
        {
          "internalType": "uint8",
          "name": "v",
          "type": "uint8"
        },
        {
          "internalType": "bytes32",
          "name": "r",
          "type": "bytes32"
        },
        {
          "internalType": "bytes32",
          "name": "s",
          "type": "bytes32"
        }
      ],
      "name": "permit",
      "outputs": [],
      "stateMutability": "nonpayable",
      "type": "function"
    },
    {
      "inputs": [
        {
          "internalType": "address",
          "name": "instrument",
          "type": "address"
        },
        {
          "internalType": "bool",
          "name": "premature",
          "type": "bool"
        }
      ],
      "name": "pingMaturity",
      "outputs": [],
      "stateMutability": "nonpayable",
      "type": "function"
    },
    {
      "inputs": [
        {
          "internalType": "uint256",
          "name": "marketId",
          "type": "uint256"
        }
      ],
      "name": "poolZCBValue",
      "outputs": [
        {
          "internalType": "uint256",
          "name": "psu",
          "type": "uint256"
        },
        {
          "internalType": "uint256",
          "name": "pju",
          "type": "uint256"
        },
        {
          "internalType": "uint256",
          "name": "levFactor",
          "type": "uint256"
        }
      ],
      "stateMutability": "view",
      "type": "function"
    },
    {
      "inputs": [
        {
          "internalType": "uint256",
          "name": "assets",
          "type": "uint256"
        }
      ],
      "name": "previewDeposit",
      "outputs": [
        {
          "internalType": "uint256",
          "name": "",
          "type": "uint256"
        }
      ],
      "stateMutability": "view",
      "type": "function"
    },
    {
      "inputs": [
        {
          "internalType": "uint256",
          "name": "shares",
          "type": "uint256"
        }
      ],
      "name": "previewMint",
      "outputs": [
        {
          "internalType": "uint256",
          "name": "",
          "type": "uint256"
        }
      ],
      "stateMutability": "view",
      "type": "function"
    },
    {
      "inputs": [
        {
          "internalType": "uint256",
          "name": "shares",
          "type": "uint256"
        }
      ],
      "name": "previewRedeem",
      "outputs": [
        {
          "internalType": "uint256",
          "name": "",
          "type": "uint256"
        }
      ],
      "stateMutability": "view",
      "type": "function"
    },
    {
      "inputs": [
        {
          "internalType": "uint256",
          "name": "assets",
          "type": "uint256"
        }
      ],
      "name": "previewWithdraw",
      "outputs": [
        {
          "internalType": "uint256",
          "name": "",
          "type": "uint256"
        }
      ],
      "stateMutability": "view",
      "type": "function"
    },
    {
      "inputs": [],
      "name": "r",
      "outputs": [
        {
          "internalType": "uint256",
          "name": "",
          "type": "uint256"
        }
      ],
      "stateMutability": "view",
      "type": "function"
    },
    {
      "inputs": [
        {
          "internalType": "address",
          "name": "receiver",
          "type": "address"
        }
      ],
      "name": "receiver_conditions",
      "outputs": [
        {
          "internalType": "bool",
          "name": "",
          "type": "bool"
        }
      ],
      "stateMutability": "view",
      "type": "function"
    },
    {
      "inputs": [
        {
          "internalType": "uint256",
          "name": "shares",
          "type": "uint256"
        },
        {
          "internalType": "address",
          "name": "receiver",
          "type": "address"
        },
        {
          "internalType": "address",
          "name": "owner",
          "type": "address"
        }
      ],
      "name": "redeem",
      "outputs": [
        {
          "internalType": "uint256",
          "name": "assets",
          "type": "uint256"
        }
      ],
      "stateMutability": "nonpayable",
      "type": "function"
    },
    {
      "inputs": [
        {
          "internalType": "address",
          "name": "to",
          "type": "address"
        },
        {
          "internalType": "uint256",
          "name": "amount",
          "type": "uint256"
        }
      ],
      "name": "repayDebt",
      "outputs": [],
      "stateMutability": "nonpayable",
      "type": "function"
    },
    {
      "inputs": [
        {
          "internalType": "uint256",
          "name": "marketId",
          "type": "uint256"
        }
      ],
      "name": "resolveInstrument",
      "outputs": [
        {
          "internalType": "bool",
          "name": "",
          "type": "bool"
        },
        {
          "internalType": "uint256",
          "name": "",
          "type": "uint256"
        },
        {
          "internalType": "uint256",
          "name": "",
          "type": "uint256"
        },
        {
          "internalType": "bool",
          "name": "",
          "type": "bool"
        }
      ],
      "stateMutability": "nonpayable",
      "type": "function"
    },
    {
      "inputs": [],
      "name": "symbol",
      "outputs": [
        {
          "internalType": "string",
          "name": "",
          "type": "string"
        }
      ],
      "stateMutability": "view",
      "type": "function"
    },
    {
      "inputs": [],
      "name": "totalAssets",
      "outputs": [
        {
          "internalType": "uint256",
          "name": "",
          "type": "uint256"
        }
      ],
      "stateMutability": "view",
      "type": "function"
    },
    {
      "inputs": [],
      "name": "totalFloat",
      "outputs": [
        {
          "internalType": "uint256",
          "name": "",
          "type": "uint256"
        }
      ],
      "stateMutability": "view",
      "type": "function"
    },
    {
      "inputs": [],
      "name": "totalSupply",
      "outputs": [
        {
          "internalType": "uint256",
          "name": "",
          "type": "uint256"
        }
      ],
      "stateMutability": "view",
      "type": "function"
    },
    {
      "inputs": [],
      "name": "total_asset_limit",
      "outputs": [
        {
          "internalType": "uint256",
          "name": "",
          "type": "uint256"
        }
      ],
      "stateMutability": "view",
      "type": "function"
    },
    {
      "inputs": [
        {
          "internalType": "address",
          "name": "to",
          "type": "address"
        },
        {
          "internalType": "uint256",
          "name": "amount",
          "type": "uint256"
        }
      ],
      "name": "transfer",
      "outputs": [
        {
          "internalType": "bool",
          "name": "",
          "type": "bool"
        }
      ],
      "stateMutability": "nonpayable",
      "type": "function"
    },
    {
      "inputs": [
        {
          "internalType": "address",
          "name": "from",
          "type": "address"
        },
        {
          "internalType": "address",
          "name": "to",
          "type": "address"
        },
        {
          "internalType": "uint256",
          "name": "amount",
          "type": "uint256"
        }
      ],
      "name": "transferFrom",
      "outputs": [
        {
          "internalType": "bool",
          "name": "",
          "type": "bool"
        }
      ],
      "stateMutability": "nonpayable",
      "type": "function"
    },
    {
      "inputs": [
        {
          "internalType": "uint256",
          "name": "marketId",
          "type": "uint256"
        },
        {
          "components": [
            {
              "internalType": "uint256",
              "name": "managers_stake",
              "type": "uint256"
            },
            {
              "internalType": "uint256",
              "name": "approved_principal",
              "type": "uint256"
            },
            {
              "internalType": "uint256",
              "name": "approved_yield",
              "type": "uint256"
            }
          ],
          "internalType": "struct Controller.ApprovalData",
          "name": "data",
          "type": "tuple"
        },
        {
          "internalType": "bool",
          "name": "isPool",
          "type": "bool"
        }
      ],
      "name": "trustInstrument",
      "outputs": [],
      "stateMutability": "nonpayable",
      "type": "function"
    },
    {
      "inputs": [
        {
          "internalType": "uint256",
          "name": "amount",
          "type": "uint256"
        },
        {
          "internalType": "address",
          "name": "to",
          "type": "address"
        }
      ],
      "name": "trusted_transfer",
      "outputs": [],
      "stateMutability": "nonpayable",
      "type": "function"
    },
    {
      "inputs": [],
      "name": "utilizationRate",
      "outputs": [
        {
          "internalType": "uint256",
          "name": "",
          "type": "uint256"
        }
      ],
      "stateMutability": "view",
      "type": "function"
    },
    {
      "inputs": [
        {
          "internalType": "uint256",
          "name": "marketId",
          "type": "uint256"
        }
      ],
      "name": "viewPrincipalAndYield",
      "outputs": [
        {
          "internalType": "uint256",
          "name": "",
          "type": "uint256"
        },
        {
          "internalType": "uint256",
          "name": "",
          "type": "uint256"
        }
      ],
      "stateMutability": "view",
      "type": "function"
    },
    {
      "inputs": [
        {
          "internalType": "uint256",
          "name": "assets",
          "type": "uint256"
        },
        {
          "internalType": "address",
          "name": "receiver",
          "type": "address"
        },
        {
          "internalType": "address",
          "name": "owner",
          "type": "address"
        }
      ],
      "name": "withdraw",
      "outputs": [
        {
          "internalType": "uint256",
          "name": "shares",
          "type": "uint256"
        }
      ],
      "stateMutability": "nonpayable",
      "type": "function"
    },
    {
      "inputs": [
        {
          "internalType": "uint256",
          "name": "marketId",
          "type": "uint256"
        },
        {
          "internalType": "uint256",
          "name": "instrumentPullAmount",
          "type": "uint256"
        },
        {
          "internalType": "address",
          "name": "pushTo",
          "type": "address"
        },
        {
          "internalType": "uint256",
          "name": "underlyingAmount",
          "type": "uint256"
        }
      ],
      "name": "withdrawFromPoolInstrument",
      "outputs": [],
      "stateMutability": "nonpayable",
      "type": "function"
    }
  ],
  "bytecode": {
    "object": "0x6101406040523480156200001257600080fd5b5060405162005a6938038062005a69833981016040819052620000359162000562565b87886001600160a01b03166306fdde036040518163ffffffff1660e01b8152600401600060405180830381865afa15801562000075573d6000803e3d6000fd5b505050506040513d6000823e601f3d908101601f191682016040526200009f919081019062000686565b604051602001620000b191906200073e565b604051602081830303815290604052896001600160a01b03166395d89b416040518163ffffffff1660e01b8152600401600060405180830381865afa158015620000ff573d6000803e3d6000fd5b505050506040513d6000823e601f3d908101601f1916820160405262000129919081019062000686565b6040516020016200013b91906200077f565b60408051601f198184030181529190528181601260006200015d84826200083a565b5060016200016c83826200083a565b5060ff81166080524660a0526200018262000467565b60c0525050506001600160a01b03831660e08190526040805163313ce56760e01b8152905163313ce567916004808201926020929091908290030181865afa158015620001d3573d6000803e3d6000fd5b505050506040513d601f19601f82011682018060405250810190620001f9919062000906565b60ff166101008181525050601260ff16836001600160a01b031663313ce5676040518163ffffffff1660e01b8152600401602060405180830381865afa15801562000248573d6000803e3d6000fd5b505050506040513d601f19601f820116820180604052508101906200026e919062000906565b6006805460ff191660ff9283169390931415928317905516156200030957601260ff16836001600160a01b031663313ce5676040518163ffffffff1660e01b8152600401602060405180830381865afa158015620002d0573d6000803e3d6000fd5b505050506040513d601f19601f82011682018060405250810190620002f6919062000906565b60ff161062000309576200030962000932565b5050601b80546001600160a01b0319166001600160a01b038981169190911790915589166101208190526040805163313ce56760e01b8152905191925063313ce5679160048083019260209291908290030181865afa15801562000371573d6000803e3d6000fd5b505050506040513d601f19601f8201168201806040525081019062000397919062000906565b60ff16601214620003d95760405162461bcd60e51b8152602060048201526008602482015267646563696d616c7360c01b604482015260640160405180910390fd5b670de0b6b3a7640000600755600980546001600160a01b0319166001600160a01b0389161790556012805460ff19168615151790556013849055601483905560158290558051600a556020810151600b556040810151600c556060810151600d556080810151600e5560a0810151600f5560c081015160105560e0015160115550620009c695505050505050565b60007f8b73c3c69bb8fe3d512ecc4cf759cc79239f7b179b0ffacaa9a75d522b39400f60006040516200049b919062000948565b6040805191829003822060208301939093528101919091527fc89efdaa54c0f20c7adf612882df0950f5a951637e0307cdcb4c672f298b8bc660608201524660808201523060a082015260c00160405160208183030381529060405280519060200120905090565b80516001600160a01b03811681146200051b57600080fd5b919050565b634e487b7160e01b600052604160045260246000fd5b60405161010081016001600160401b03811182821017156200055c576200055c62000520565b60405290565b600080600080600080600080888a036101e08112156200058157600080fd5b6200058c8a62000503565b98506200059c60208b0162000503565b9750620005ac60408b0162000503565b965060608a01518015158114620005c257600080fd5b8096505060808a0151945060a08a0151935060c08a015192506101008060df1983011215620005f057600080fd5b620005fa62000536565b915060e08b01518252808b01516020830152506101208a015160408201526101408a015160608201526101608a015160808201526101808a015160a08201526101a08a015160c08201526101c08a015160e0820152809150509295985092959890939650565b60005b838110156200067d57818101518382015260200162000663565b50506000910152565b6000602082840312156200069957600080fd5b81516001600160401b0380821115620006b157600080fd5b818401915084601f830112620006c657600080fd5b815181811115620006db57620006db62000520565b604051601f8201601f19908116603f0116810190838211818310171562000706576200070662000520565b816040528281528760208487010111156200072057600080fd5b6200073383602083016020880162000660565b979650505050505050565b6603232b134ba30960cd1b8152600082516200076281600785016020870162000660565b650815985d5b1d60d21b6007939091019283015250600d01919050565b61323160f11b8152600082516200079e81600285016020870162000660565b9190910160020192915050565b600181811c90821680620007c057607f821691505b602082108103620007e157634e487b7160e01b600052602260045260246000fd5b50919050565b601f8211156200083557600081815260208120601f850160051c81016020861015620008105750805b601f850160051c820191505b8181101562000831578281556001016200081c565b5050505b505050565b81516001600160401b0381111562000856576200085662000520565b6200086e81620008678454620007ab565b84620007e7565b602080601f831160018114620008a657600084156200088d5750858301515b600019600386901b1c1916600185901b17855562000831565b600085815260208120601f198616915b82811015620008d757888601518255948401946001909101908401620008b6565b5085821015620008f65787850151600019600388901b60f8161c191681555b5050505050600190811b01905550565b6000602082840312156200091957600080fd5b815160ff811681146200092b57600080fd5b9392505050565b634e487b7160e01b600052600160045260246000fd5b60008083546200095881620007ab565b600182811680156200097357600181146200098957620009ba565b60ff1984168752821515830287019450620009ba565b8760005260208060002060005b85811015620009b15781548a82015290840190820162000996565b50505082870194505b50929695505050505050565b60805160a05160c05160e0516101005161012051614ff162000a786000396000818161092c015281816110c301528181611601015281816117360152818161180b015281816122be01528181612344015281816134e901528181613a0c0152613b41015260008181611066015261245a0152600081816105f80152818161213b015281816123d101528181612aed0152612c39015260006119a501526000611975015260006105a40152614ff16000f3fe608060405234801561001057600080fd5b50600436106104285760003560e01c806379e20bdc1161022b578063c6e6f59211610130578063e134cc82116100b8578063edb53d3e11610087578063edb53d3e14610aa9578063ef8b30f714610abc578063f05bcfb414610acf578063f7d070de14610ae2578063fc173fc614610aef57600080fd5b8063e134cc8214610a38578063e3fac5bf14610a6f578063e4cc3e7614610a82578063e9a23d3a14610a9557600080fd5b8063d505accf116100ff578063d505accf146109ab578063d746d3ef146109be578063d905777e146109d1578063dc361a13146109fa578063dd62ed3e14610a0d57600080fd5b8063c6e6f5921461094e578063c83baf4e14610961578063ca13e4501461096a578063ce96cb771461099857600080fd5b80639ec4d40e116101b3578063b460af9411610182578063b460af94146108ee578063ba08765214610901578063bebf7a0414610914578063c5d664c614610927578063c63d75b61461063257600080fd5b80639ec4d40e146108a2578063a9059cbb146108b5578063b19b1f91146108c8578063b3d7f6b9146108db57600080fd5b806394bf804d116101fa57806394bf804d1461084e57806395d89b411461086157806396ce9d5a1461086957806396d648791461087c57806398d796e71461088f57600080fd5b806379e20bdc146108005780637ecebe0014610813578063841219e5146108335780638da5cb5b1461083b57600080fd5b806338d52e0f1161033157806359dc5c6f116102b95780636c321c8a116102885780636c321c8a146107535780636c8ae38c1461075b5780636e553f651461076457806370a08231146107775780637572cb1f1461079757600080fd5b806359dc5c6f146106ef5780635f260bb81461070257806360d4efa41461070b578063692eba091461073357600080fd5b80634bd3c9a8116103005780634bd3c9a81461066d5780634cdad506146106805780634dc54a38146106935780634e1afd00146106b357806350c6e6cf146106c657600080fd5b806338d52e0f146105f3578063402d267d1461063257806342966c6814610647578063471e1cea1461065a57600080fd5b8063139f4b6f116103b457806323b872dd1161038357806323b872dd146105795780632b8587341461058c578063313ce5671461059f57806334928ace146105d85780633644e515146105eb57600080fd5b8063139f4b6f1461051d57806318160ddd14610530578063213a7d521461053957806322f0e0691461054c57600080fd5b8063095ea7b3116103fb578063095ea7b3146104ab5780630a28a477146104ce5780630e5c011e146104e15780630f65cbc4146104f65780631316dbde1461050a57600080fd5b806301e1d1141461042d57806306fdde0314610448578063076125a91461045d57806307a2d13a14610498575b600080fd5b610435610afc565b6040519081526020015b60405180910390f35b610450610b18565b60405161043f91906143eb565b61047061046b3660046143fe565b610ba6565b604080519586526020860194909452928401919091526060830152608082015260a00161043f565b6104356104a63660046143fe565b610dd2565b6104be6104b936600461443c565b610e16565b604051901515815260200161043f565b6104356104dc3660046143fe565b610e83565b6104f46104ef366004614468565b610ebc565b005b6104356105043660046143fe565b50600090565b6104356105183660046143fe565b61105f565b6104be61052b3660046143fe565b6110a1565b61043560025481565b6104f461054736600461449e565b611136565b61055f61055a366004614468565b61119f565b60405161043f9e9d9c9b9a99989796959493929190614553565b6104be6105873660046145ec565b6112e8565b6104f461059a3660046143fe565b6113c8565b6105c67f000000000000000000000000000000000000000000000000000000000000000081565b60405160ff909116815260200161043f565b6104f46105e636600461462d565b611577565b610435611971565b61061a7f000000000000000000000000000000000000000000000000000000000000000081565b6040516001600160a01b03909116815260200161043f565b610435610640366004614468565b5060001990565b6104f46106553660046143fe565b6119c7565b6104be6106683660046143fe565b6119d4565b61043561067b366004614666565b611a4a565b61043561068e3660046143fe565b611a82565b6106a66106a1366004614468565b611a8d565b60405161043f9190614692565b6104f46106c13660046147b6565b611c67565b61061a6106d43660046143fe565b6018602052600090815260409020546001600160a01b031681565b6104f46106fd3660046143fe565b611e0c565b61043560145481565b61071e6107193660046143fe565b611ec6565b6040805192835260208301919091520161043f565b610435610741366004614468565b60176020526000908152604090205481565b6104356120bd565b61043560135481565b610435610772366004614834565b6120e3565b610435610785366004614468565b60036020526000908152604090205481565b61079f6121b9565b60405161043f9190600061010082019050825182526020830151602083015260408301516040830152606083015160608301526080830151608083015260a083015160a083015260c083015160c083015260e083015160e083015292915050565b6104f461080e36600461443c565b61224f565b610435610821366004614468565b60056020526000908152604090205481565b61043561232c565b601b5461061a906001600160a01b031681565b61043561085c366004614834565b6123b7565b610450612446565b6104356108773660046143fe565b612453565b6104be61088a366004614468565b612495565b6104f461089d366004614979565b6124bb565b6106a66108b03660046143fe565b61285f565b6104be6108c336600461443c565b612913565b6104f46108d6366004614468565b612979565b6104356108e93660046143fe565b6129e7565b6104356108fc366004614a9f565b612a06565b61043561090f366004614a9f565b612b14565b6104f4610922366004614834565b612c60565b61061a7f000000000000000000000000000000000000000000000000000000000000000081565b61043561095c3660046143fe565b612cb7565b61043560155481565b61097d6109783660046143fe565b612cd7565b6040805193845260208401929092529082015260600161043f565b6104356109a6366004614468565b612fa9565b6104f46109b9366004614ad6565b612fcb565b6104f46109cc3660046143fe565b61320f565b6104356109df366004614468565b6001600160a01b031660009081526003602052604090205490565b610435610a08366004614468565b61333b565b610435610a1b366004614b4d565b600460209081526000928352604080842090915290825290205481565b610a4b610a463660046143fe565b61335d565b6040805194151585526020850193909352918301521515606082015260800161043f565b6104f4610a7d366004614834565b613850565b6104f4610a90366004614b7b565b6138a3565b6104be610aa3366004614468565b50600190565b61061a610ab73660046143fe565b613a95565b610435610aca3660046143fe565b613ab0565b6104f4610add366004614834565b613abb565b6012546104be9060ff1681565b6006546104be9060ff1681565b6000610b0661232c565b600854610b139190614bd0565b905090565b60008054610b2590614be3565b80601f0160208091040260200160405190810160405280929190818152602001828054610b5190614be3565b8015610b9e5780601f10610b7357610100808354040283529160200191610b9e565b820191906000526020600020905b815481529060010190602001808311610b8157829003601f168201915b505050505081565b6000818152601860209081526040808320546001600160a01b031683526016825280832081516101c08101835281548152600182015460ff808216151595830195909552610100908190049094161515928101929092526002810154606083015260038101546080830152600481015460a0830152600581015460c0830152600681015460e08301526007810154928201929092526008820180548493849384938493849391610120840191610c5b90614be3565b80601f0160208091040260200160405190810160405280929190818152602001828054610c8790614be3565b8015610cd45780601f10610ca957610100808354040283529160200191610cd4565b820191906000526020600020905b815481529060010190602001808311610cb757829003601f168201915b505050918352505060098201546001600160a01b0381166020830152604090910190600160a01b900460ff166003811115610d1157610d116144d7565b6003811115610d2257610d226144d7565b8152602001600a8201548152602001600b82016040518060e0016040529081600082015481526020016001820154815260200160028201548152602001600382015481526020016004820154815260200160058201548152602001600682015481525050815250509050806101a0015160400151816101a0015160600151826101a0015160800151836101a0015160a00151846101a0015160c00151955095509550955095505091939590929450565b6002546000908015610df657610df1610de9610afc565b849083613b70565b610e0f565b60065460ff16610e065782610e0f565b610e0f8361105f565b9392505050565b3360008181526004602090815260408083206001600160a01b038716808552925280832085905551919290917f8c5be1e5ebec7d5bd14f71427d1e84f3dd0314c0f7b2291e5b200ac8c7c3b92590610e719086815260200190565b60405180910390a35060015b92915050565b6002546000908015610ea357610df181610e9b610afc565b859190613b8f565b60065460ff16610eb35782610e0f565b610e0f83612453565b6001600160a01b038116600090815260166020526040902060010154610100900460ff16610f285760405162461bcd60e51b8152602060048201526014602482015273155395149554d5115117d25b9cdd1c9d5b595b9d60621b60448201526064015b60405180910390fd5b6001600160a01b03811660008181526016602052604080822060085460028201549251633af9e66960e01b8152600481018690529194909391633af9e66990602401602060405180830381865afa158015610f87573d6000803e3d6000fd5b505050506040513d601f19601f82011682018060405250810190610fab9190614c1d565b9050808203610fbb575050505050565b6002840181905560008282101580610fdc57610fd78385614c36565b610fe6565b610fe68484614c36565b915080610ffc57610ff78286614c36565b611006565b6110068286614bd0565b60085560408051848152602081018490528215158183015290516001600160a01b038916917f633a7d7c82bd537c647d654b96128a9b02a675bd73abe910b82f875ce4776391919081900360600190a250505050505050565b600061108c7f00000000000000000000000000000000000000000000000000000000000000006012614c36565b61109790600a614d2d565b610e7d9083614d39565b6040516370a0823160e01b815230600482015260009082906001600160a01b037f000000000000000000000000000000000000000000000000000000000000000016906370a0823190602401602060405180830381865afa15801561110a573d6000803e3d6000fd5b505050506040513d601f19601f8201168201806040525081019061112e9190614c1d565b101592915050565b336001600160a01b0383161480611151575061115182612495565b61115a57600080fd5b6001600160a01b03821660009081526016602052604090206004015461117f816113c8565b6000908152601960205260409020805460ff191691151591909117905550565b601660205260009081526040902080546001820154600283015460038401546004850154600586015460068701546007880154600889018054989960ff808a169a610100909a0416989091906111f490614be3565b80601f016020809104026020016040519081016040528092919081815260200182805461122090614be3565b801561126d5780601f106112425761010080835404028352916020019161126d565b820191906000526020600020905b81548152906001019060200180831161125057829003601f168201915b505050506009830154600a8401546040805160e081018252600b8701548152600c8701546020820152600d87015491810191909152600e8601546060820152600f8601546080820152601086015460a082015260119095015460c086015292936001600160a01b03821693600160a01b90920460ff1692508e565b6001600160a01b038316600090815260046020908152604080832033845290915281205460001981146113445761131f8382614c36565b6001600160a01b03861660009081526004602090815260408083203384529091529020555b6001600160a01b0385166000908152600360205260408120805485929061136c908490614c36565b90915550506001600160a01b0380851660008181526003602052604090819020805487019055519091871690600080516020614f9c833981519152906113b59087815260200190565b60405180910390a3506001949350505050565b6000818152601860205260409020546001600160a01b0316338114806113f857506009546001600160a01b031633145b6114325760405162461bcd60e51b815260206004820152600b60248201526a139bdd08185b1b1bddd95960aa1b6044820152606401610f1f565b61143b81612495565b6114755760405162461bcd60e51b815260206004820152600b60248201526a139bdd081d1c9d5cdd195960aa1b6044820152606401610f1f565b806001600160a01b03166349dcf4ed6040518163ffffffff1660e01b81526004016060604051808303816000875af11580156114b5573d6000803e3d6000fd5b505050506040513d601f19601f820116820180604052508101906114d99190614d5b565b5050506114e581610ebc565b806001600160a01b031663f3aa68d36040518163ffffffff1660e01b8152600401600060405180830381600087803b15801561152057600080fd5b505af1158015611534573d6000803e3d6000fd5b5050604080518082018252438152600160208083018281526000988952601a909152929096209051815590519401805460ff191694151594909417909355505050565b600061158284613a95565b6001600160a01b038116600090815260166020526040902060010154909150610100900460ff166115ec5760405162461bcd60e51b8152602060048201526014602482015273155395149554d5115108125b9cdd1c9d5b595b9d60621b6044820152606401610f1f565b6040516370a0823160e01b81523060048201527f00000000000000000000000000000000000000000000000000000000000000006001600160a01b0316906370a0823190602401602060405180830381865afa158015611650573d6000803e3d6000fd5b505050506040513d601f19601f820116820180604052508101906116749190614c1d565b8311156116c35760405162461bcd60e51b815260206004820152601760248201527f4e6f7420656e6f7567682062616c20696e207661756c740000000000000000006044820152606401610f1f565b82600860008282546116d59190614bd0565b90915550506001600160a01b03811660009081526016602052604081206002018054859290611705908490614bd0565b909155508290506117e55760405163a9059cbb60e01b81526001600160a01b038281166004830152602482018590527f0000000000000000000000000000000000000000000000000000000000000000169063a9059cbb906044016020604051808303816000875af115801561177f573d6000803e3d6000fd5b505050506040513d601f19601f820116820180604052508101906117a39190614d89565b6117e05760405162461bcd60e51b815260206004820152600e60248201526d11115413d4d25517d1905253115160921b6044820152606401610f1f565b61192b565b60405163095ea7b360e01b81526001600160a01b038281166004830152602482018590527f0000000000000000000000000000000000000000000000000000000000000000169063095ea7b3906044016020604051808303816000875af1158015611854573d6000803e3d6000fd5b505050506040513d601f19601f820116820180604052508101906118789190614d89565b50604051636e553f6560e01b8152600481018490523060248201526000906001600160a01b03831690636e553f65906044016020604051808303816000875af11580156118c9573d6000803e3d6000fd5b505050506040513d601f19601f820116820180604052508101906118ed9190614c1d565b1161192b5760405162461bcd60e51b815260206004820152600e60248201526d11115413d4d25517d1905253115160921b6044820152606401610f1f565b6040518381526001600160a01b0382169033907f05fb08df9fd3a3099b9b7c09d3b801273152c1bae4b64e818fa08e212e882f849060200160405180910390a350505050565b60007f000000000000000000000000000000000000000000000000000000000000000046146119a257610b13613bbd565b507f000000000000000000000000000000000000000000000000000000000000000090565b6119d13382613c57565b50565b600081815260186020908152604080832054815163041f3aa560e51b815291516001600160a01b03909116926383e754a092600480820193918290030181865afa158015611a26573d6000803e3d6000fd5b505050506040513d601f19601f82011682018060405250810190610e7d9190614d89565b6000611a7a600a6007546008611a609190614da6565b611a6a9190614d39565b611a748486614bd0565b90613cc1565b949350505050565b6000610e7d82610dd2565b611a956142a8565b6001600160a01b03821660009081526016602090815260409182902082516101c08101845281548152600182015460ff808216151594830194909452610100908190049093161515938101939093526002810154606084015260038101546080840152600481015460a0840152600581015460c0840152600681015460e084015260078101549183019190915260088101805461012084019190611b3890614be3565b80601f0160208091040260200160405190810160405280929190818152602001828054611b6490614be3565b8015611bb15780601f10611b8657610100808354040283529160200191611bb1565b820191906000526020600020905b815481529060010190602001808311611b9457829003601f168201915b505050918352505060098201546001600160a01b0381166020830152604090910190600160a01b900460ff166003811115611bee57611bee6144d7565b6003811115611bff57611bff6144d7565b8152600a8201546020808301919091526040805160e081018252600b8501548152600c85015492810192909252600d84015482820152600e8401546060830152600f8401546080830152601084015460a083015260119093015460c082015291015292915050565b6009546001600160a01b0316331480611c8a5750601b546001600160a01b031633145b80611c9457503033145b611cb05760405162461bcd60e51b8152600401610f1f90614dbd565b600160166000611cbf86613a95565b6001600160a01b03168152602081019190915260400160002060010180549115156101000261ff001990921691909117905580611de8576000838152601860209081526040808320546001600160a01b031683526016825291829020908401516005820181905591840151600682018190559091611d3d9190614bd0565b600382015582516020840151611d60918691611d599190614c36565b6000611577565b611d6984613cd6565b611d7284613a95565b6001600160a01b031663416288dd846020015185604001516040518363ffffffff1660e01b8152600401611db0929190918252602082015260400190565b600060405180830381600087803b158015611dca57600080fd5b505af1158015611dde573d6000803e3d6000fd5b5050505050505050565b611e078383600001518460200151611e009190614c36565b6001611577565b505050565b6009546001600160a01b0316331480611e2f5750601b546001600160a01b031633145b80611e3957503033145b611e555760405162461bcd60e51b8152600401610f1f90614dbd565b6000611e6082613a95565b9050806001600160a01b03166350bb4beb6040518163ffffffff1660e01b81526004016020604051808303816000875af1158015611ea2573d6000803e3d6000fd5b505050506040513d601f19601f82011682018060405250810190611e079190614c1d565b6000818152601860209081526040808320546001600160a01b031683526016825280832081516101c08101835281548152600182015460ff808216151595830195909552610100908190049094161515928101929092526002810154606083015260038101546080830152600481015460a0830152600581015460c0830152600681015460e08301526007810154928201929092526008820180548493849392909161012084019190611f7890614be3565b80601f0160208091040260200160405190810160405280929190818152602001828054611fa490614be3565b8015611ff15780601f10611fc657610100808354040283529160200191611ff1565b820191906000526020600020905b815481529060010190602001808311611fd457829003601f168201915b505050918352505060098201546001600160a01b0381166020830152604090910190600160a01b900460ff16600381111561202e5761202e6144d7565b600381111561203f5761203f6144d7565b8152602001600a8201548152602001600b82016040518060e00160405290816000820154815260200160018201548152602001600282015481526020016003820154815260200160048201548152602001600582015481526020016006820154815250508152505090508060c001518160e001519250925050915091565b60006008546000036120cf5750600090565b610b136120da610afc565b60085490613d3f565b60006120ee83613ab0565b90508060000361212e5760405162461bcd60e51b815260206004820152600b60248201526a5a45524f5f53484152455360a81b6044820152606401610f1f565b6121636001600160a01b037f000000000000000000000000000000000000000000000000000000000000000016333086613d54565b61216d8282613dd7565b60408051848152602081018390526001600160a01b0384169133917fdcbc1c05240f31ff3ad067ef1ee35ce4997762752e3a095284754544f4c709d791015b60405180910390a3610e7d565b61220160405180610100016040528060008152602001600081526020016000815260200160008152602001600081526020016000815260200160008152602001600081525090565b506040805161010081018252600a548152600b546020820152600c5491810191909152600d546060820152600e546080820152600f5460a082015260105460c082015260115460e082015290565b6009546001600160a01b03163314806122725750601b546001600160a01b031633145b8061227c57503033145b6122985760405162461bcd60e51b8152600401610f1f90614dbd565b60405163a9059cbb60e01b81526001600160a01b038381166004830152602482018390527f0000000000000000000000000000000000000000000000000000000000000000169063a9059cbb906044015b6020604051808303816000875af1158015612308573d6000803e3d6000fd5b505050506040513d601f19601f82011682018060405250810190611e079190614d89565b6040516370a0823160e01b81523060048201526000907f00000000000000000000000000000000000000000000000000000000000000006001600160a01b0316906370a0823190602401602060405180830381865afa158015612393573d6000803e3d6000fd5b505050506040513d601f19601f82011682018060405250810190610b139190614c1d565b60006123c2836129e7565b90506123f96001600160a01b037f000000000000000000000000000000000000000000000000000000000000000016333084613d54565b6124038284613dd7565b60408051828152602081018590526001600160a01b0384169133917fdcbc1c05240f31ff3ad067ef1ee35ce4997762752e3a095284754544f4c709d791016121ac565b60018054610b2590614be3565b60006124807f00000000000000000000000000000000000000000000000000000000000000006012614c36565b61248b90600a614d2d565b610e7d9083614da6565b6001600160a01b0316600090815260166020526040902060010154610100900460ff1690565b6009546001600160a01b03163314806124de5750601b546001600160a01b031633145b806124e857503033145b6125045760405162461bcd60e51b8152600401610f1f90614dbd565b80602001516126b45760008160c00151116125615760405162461bcd60e51b815260206004820181905260248201527f7072696e636970616c206d7573742062652067726561746572207468616e20306044820152606401610f1f565b6000816101000151116125b65760405162461bcd60e51b815260206004820152601f60248201527f6475726174696f6e206d7573742062652067726561746572207468616e2030006044820152606401610f1f565b600081608001511161260a5760405162461bcd60e51b815260206004820181905260248201527f6661636556616c7565206d7573742062652067726561746572207468616e20306044820152606401610f1f565b6007548160c0015110156126605760405162461bcd60e51b815260206004820152601d60248201527f4e6565647320746f20626520696e20646563696d616c20666f726d61740000006044820152606401610f1f565b60008160a00151116126b45760405162461bcd60e51b815260206004820152601860248201527f6d7573742062652076616c696420696e737472756d656e7400000000000000006044820152606401610f1f565b3360009081526017602052604081208054916126cf83614de8565b90915550506101408101516001600160a01b031660009081526016602090815260409182902083518155908301516001820180549385015161ffff1990941691151561ff001916919091176101009315158402179055606083015160028201556080830151600382015560a0830151600482015560c0830151600582015560e0830151600682015590820151600782015561012082015182919060088201906127789082614e4f565b506101408201516009820180546001600160a01b039092166001600160a01b0319831681178255610160850151926001600160a81b03191617600160a01b8360038111156127c8576127c86144d7565b0217905550610180820151600a8201556101a0909101518051600b830155602080820151600c840155604080830151600d8501556060830151600e8501556080830151600f85015560a080840151601086015560c0909301516011909401939093556101408401519390910151600090815260189091522080546001600160a01b0319166001600160a01b03909216919091179055565b6128676142a8565b6000828152601860209081526040808320546001600160a01b03168352601682529182902082516101c08101845281548152600182015460ff808216151594830194909452610100908190049093161515938101939093526002810154606084015260038101546080840152600481015460a0840152600581015460c0840152600681015460e084015260078101549183019190915260088101805461012084019190611b3890614be3565b33600090815260036020526040812080548391908390612934908490614c36565b90915550506001600160a01b03831660008181526003602052604090819020805485019055513390600080516020614f9c83398151915290610e719086815260200190565b6009546001600160a01b031633148061299c5750601b546001600160a01b031633145b806129a657503033145b6129c25760405162461bcd60e51b8152600401610f1f90614dbd565b6001600160a01b03166000908152601660205260409020600101805461ff0019169055565b6002546000908015610df657610df16129fe610afc565b849083613b8f565b6000612a1184610e83565b9050336001600160a01b03831614612a81576001600160a01b03821660009081526004602090815260408083203384529091529020546000198114612a7f57612a5a8282614c36565b6001600160a01b03841660009081526004602090815260408083203384529091529020555b505b612a8b8482613e29565b612a958282613c57565b60408051858152602081018390526001600160a01b03808516929086169133917ffbde797d201c681b91056529119e0b02407c7bb96a4a2c75c01fc9667232c8db910160405180910390a4610e0f6001600160a01b037f0000000000000000000000000000000000000000000000000000000000000000168486613e7e565b6000336001600160a01b03831614612b84576001600160a01b03821660009081526004602090815260408083203384529091529020546000198114612b8257612b5d8582614c36565b6001600160a01b03841660009081526004602090815260408083203384529091529020555b505b612b8d84611a82565b905080600003612bcd5760405162461bcd60e51b815260206004820152600b60248201526a5a45524f5f41535345545360a81b6044820152606401610f1f565b612bd78185613e29565b612be18285613c57565b60408051828152602081018690526001600160a01b03808516929086169133917ffbde797d201c681b91056529119e0b02407c7bb96a4a2c75c01fc9667232c8db910160405180910390a4610e0f6001600160a01b037f0000000000000000000000000000000000000000000000000000000000000000168483613e7e565b6009546001600160a01b0316331480612c835750601b546001600160a01b031633145b80612c8d57503033145b612ca95760405162461bcd60e51b8152600401610f1f90614dbd565b612cb38183613dd7565b5050565b6002546000908015610ea357610df181612ccf610afc565b859190613b70565b6000806000612d346040518061014001604052806000815260200160008152602001600081526020016000815260200160008152602001600081526020016000815260200160008152602001600081526020016000151581525090565b612d3d85610ba6565b6080860152606085018190526040850182905260208501929092529183529250612d8d5760405162461bcd60e51b81526020600482015260016024820152600360fc1b6044820152606401610f1f565b612dc4612db9826020015142612da39190614c36565b6007548451612db29082614bd0565b9190613efc565b604083015190613cc1565b60a0820152600954604051634955b91f60e11b8152600481018790526001600160a01b03909116906392ab723e90602401602060405180830381865afa158015612e12573d6000803e3d6000fd5b505050506040513d601f19601f82011682018060405250810190612e369190614c1d565b60e082018190526060820151612e4c9190613cc1565b610100820181905260e0820151612e6591879190611a4a565b60c0820152610100810151600003612e855760a001519250829150612fa2565b61010081015160a0820151612e9991613cc1565b8160c0015110612eaf578060a001519350612ece565b61010081015160c0820151612ec391613d3f565b600161012083015293505b806101200151612f1457612f118160e00151612efc8361010001518460a00151613cc190919063ffffffff16565b8360c00151612f0b9190614c36565b90613d3f565b92505b6000612f3182606001518360a00151613cc190919063ffffffff16565b612f64612f52600a6007546008612f489190614da6565b6108e99190614d39565b8460600151600754611a749190614bd0565b612f6e9190614c36565b9050612f7b600a85614c36565b81101580612f935750612f8f84600a614bd0565b8111155b612f9f57612f9f614f0f565b50505b9193909250565b6001600160a01b038116600090815260036020526040812054610e7d90610dd2565b4284101561301b5760405162461bcd60e51b815260206004820152601760248201527f5045524d49545f444541444c494e455f455850495245440000000000000000006044820152606401610f1f565b60006001613027611971565b6001600160a01b038a811660008181526005602090815260409182902080546001810190915582517f6e71edae12b1b97f4d1f60370fef10105fa2faae0126114a169c64845d6126c98184015280840194909452938d166060840152608083018c905260a083019390935260c08083018b90528151808403909101815260e08301909152805192019190912061190160f01b6101008301526101028201929092526101228101919091526101420160408051601f198184030181528282528051602091820120600084529083018083525260ff871690820152606081018590526080810184905260a0016020604051602081039080840390855afa158015613133573d6000803e3d6000fd5b5050604051601f1901519150506001600160a01b038116158015906131695750876001600160a01b0316816001600160a01b0316145b6131a65760405162461bcd60e51b815260206004820152600e60248201526d24a72b20a624a22fa9a4a3a722a960911b6044820152606401610f1f565b6001600160a01b0390811660009081526004602090815260408083208a8516808552908352928190208990555188815291928a16917f8c5be1e5ebec7d5bd14f71427d1e84f3dd0314c0f7b2291e5b200ac8c7c3b925910160405180910390a350505050505050565b6009546001600160a01b03163314806132325750601b546001600160a01b031633145b8061323c57503033145b6132585760405162461bcd60e51b8152600401610f1f90614dbd565b6000818152601860209081526040808320546001600160a01b03168352601690915290208115801590613297575060098101546001600160a01b031615155b6132d85760405162461bcd60e51b81526020600482015260126024820152711a5b9d985b1a59081a5b9cdd1c9d5b595b9d60721b6044820152606401610f1f565b6001810154610100900460ff16156133325760405162461bcd60e51b815260206004820152601e60248201527f63616e27742064656e7920617070726f76656420696e737472756d656e7400006044820152606401610f1f565b612cb382613fba565b6001600160a01b038116600090815260036020526040812054610e7d90611a82565b6009546000908190819081906001600160a01b03163314806133895750601b546001600160a01b031633145b8061339357503033145b6133af5760405162461bcd60e51b8152600401610f1f90614dbd565b600085815260186020908152604080832054601a835292819020815180830183528154815260019091015460ff161515818401528151632938b58d60e21b815291516001600160a01b03909416939092849263a4e2d63492600480830193928290030181865afa158015613427573d6000803e3d6000fd5b505050506040513d601f19601f8201168201806040525081019061344b9190614d89565b6134845760405162461bcd60e51b815260206004820152600a602482015269139bdd08131bd8dad95960b21b6044820152606401610f1f565b806020015180156134955750805143115b6134d15760405162461bcd60e51b815260206004820152600d60248201526c63616e2774207265736f6c766560981b6044820152606401610f1f565b6040516370a0823160e01b81523060048201526000907f00000000000000000000000000000000000000000000000000000000000000006001600160a01b0316906370a0823190602401602060405180830381865afa158015613538573d6000803e3d6000fd5b505050506040513d601f19601f8201168201806040525081019061355c9190614c1d565b90506000836001600160a01b0316631104aafd6040518163ffffffff1660e01b8152600401602060405180830381865afa15801561359e573d6000803e3d6000fd5b505050506040513d601f19601f820116820180604052508101906135c29190614c1d565b6001600160a01b038516600090815260166020908152604080832081516101c08101835281548152600182015460ff808216151595830195909552610100908190049094161515928101929092526002810154606083015260038101546080830152600481015460a0830152600581015460c0830152600681015460e08301526007810154928201929092526008820180549495509293909261012084019161366a90614be3565b80601f016020809104026020016040519081016040528092919081815260200182805461369690614be3565b80156136e35780601f106136b8576101008083540402835291602001916136e3565b820191906000526020600020905b8154815290600101906020018083116136c657829003601f168201915b505050918352505060098201546001600160a01b0381166020830152604090910190600160a01b900460ff166003811115613720576137206144d7565b6003811115613731576137316144d7565b8152600a8201546020808301919091526040805160e081018252600b8501548152600c85015481840152600d85015481830152600e8501546060820152600f8501546080820152601085015460a082015260119094015460c08501529182019290925260008d8152601990925281205491925060ff909116908080836137fb57846080015186109250826137c65760006137d6565b8585608001516137d69190614c36565b915082156137e55760006137f4565b60808501516137f49087614c36565b9050613823565b8460c001518610925082613810576000613820565b858560c001516138209190614c36565b91505b61382f89876001614106565b61383c8560a00151613fba565b919d919c509a509098509650505050505050565b6009546001600160a01b03163314806138735750601b546001600160a01b031633145b8061387d57503033145b6138995760405162461bcd60e51b8152600401610f1f90614dbd565b612cb38183613c57565b60006138ae85613a95565b90506001600160a01b03811663537d94096138c98685614bd0565b6040518263ffffffff1660e01b81526004016138e791815260200190565b602060405180830381865afa158015613904573d6000803e3d6000fd5b505050506040513d601f19601f820116820180604052508101906139289190614d89565b61395d5760405162461bcd60e51b8152600401610f1f90602080825260049082015263216c697160e01b604082015260600190565b6001600160a01b03811663b460af946139768685614bd0565b6040516001600160e01b031960e084901b1681526004810191909152306024820181905260448201526064016020604051808303816000875af11580156139c1573d6000803e3d6000fd5b505050506040513d601f19601f820116820180604052508101906139e59190614c1d565b5060405163a9059cbb60e01b81526001600160a01b038481166004830152602482018690527f0000000000000000000000000000000000000000000000000000000000000000169063a9059cbb906044016020604051808303816000875af1158015613a55573d6000803e3d6000fd5b505050506040513d601f19601f82011682018060405250810190613a799190614d89565b50613a8e613a8686613a95565b836000614106565b5050505050565b6000908152601860205260409020546001600160a01b031690565b6000610e7d82612cb7565b6009546001600160a01b0316331480613ade5750601b546001600160a01b031633145b80613ae857503033145b613b045760405162461bcd60e51b8152600401610f1f90614dbd565b60065460ff1615613b1b57613b188261105f565b91505b60405163a9059cbb60e01b81526001600160a01b038281166004830152602482018490527f0000000000000000000000000000000000000000000000000000000000000000169063a9059cbb906044016122e9565b828202811515841585830485141716613b8857600080fd5b0492915050565b828202811515841585830485141716613ba757600080fd5b6001826001830304018115150290509392505050565b60007f8b73c3c69bb8fe3d512ecc4cf759cc79239f7b179b0ffacaa9a75d522b39400f6000604051613bef9190614f25565b6040805191829003822060208301939093528101919091527fc89efdaa54c0f20c7adf612882df0950f5a951637e0307cdcb4c672f298b8bc660608201524660808201523060a082015260c00160405160208183030381529060405280519060200120905090565b6001600160a01b03821660009081526003602052604081208054839290613c7f908490614c36565b90915550506002805482900390556040518181526000906001600160a01b03841690600080516020614f9c833981519152906020015b60405180910390a35050565b6000610e0f8383670de0b6b3a7640000613b70565b4260166000613ce484613a95565b6001600160a01b03166001600160a01b0316815260200190815260200160002060070154613d129190614bd0565b60166000613d1f84613a95565b6001600160a01b031681526020810191909152604001600020600a015550565b6000610e0f83670de0b6b3a764000084613b70565b60006040516323b872dd60e01b81528460048201528360248201528260448201526020600060648360008a5af13d15601f3d1160016000511416171691505080613a8e5760405162461bcd60e51b81526020600482015260146024820152731514905394d1915497d19493d357d1905253115160621b6044820152606401610f1f565b8060026000828254613de99190614bd0565b90915550506001600160a01b038216600081815260036020908152604080832080548601905551848152600080516020614f9c8339815191529101613cb5565b613e32826110a1565b612cb35760405162461bcd60e51b815260206004820152601c60248201527f4e6f7420656e6f756768206c6971756469747920696e207661756c74000000006044820152606401610f1f565b600060405163a9059cbb60e01b8152836004820152826024820152602060006044836000895af13d15601f3d1160016000511416171691505080613ef65760405162461bcd60e51b815260206004820152600f60248201526e1514905394d1915497d19052531151608a1b6044820152606401610f1f565b50505050565b6000838015613f9c57600184168015613f1757859250613f1b565b8392505b508260011c8460011c94505b8415613f96578560801c15613f3b57600080fd5b85860281810181811015613f4e57600080fd5b8590049650506001851615613f8b578583028387820414613f74578615613f7457600080fd5b81810181811015613f8457600080fd5b8590049350505b8460011c9450613f27565b50613fb2565b838015613fac5760009250613fb0565b8392505b505b509392505050565b6000818152601860209081526040808320546001600160a01b0316835260169091529020600481015461402f5760405162461bcd60e51b815260206004820152601860248201527f696e737472756d656e7420646f65736e277420657869737400000000000000006044820152606401610f1f565b6000828152601860209081526040808320546001600160a01b031683526016909152812081815560018101805461ffff191690556002810182905560038101829055600481018290556005810182905560068101829055600781018290559061409b6008830182614357565b506009810180546001600160a81b03191690556000600a8201819055600b8201819055600c8201819055600d8201819055600e8201819055600f82018190556010820181905560119091018190559182525060186020526040902080546001600160a01b0319169055565b6001600160a01b038316600090815260166020526040902060010154610100900460ff1661416d5760405162461bcd60e51b8152602060048201526014602482015273155395149554d5115108125b9cdd1c9d5b595b9d60621b6044820152606401610f1f565b6001600160a01b03831660009081526016602052604081206002018054849290614198908490614c36565b9250508190555081600860008282546141b19190614c36565b909155505080156142635760405163852a12e360e01b8152600481018390526001600160a01b0384169063852a12e3906024016020604051808303816000875af1158015614203573d6000803e3d6000fd5b505050506040513d601f19601f820116820180604052508101906142279190614d89565b6142635760405162461bcd60e51b815260206004820152600d60248201526c14915111515357d19052531151609a1b6044820152606401610f1f565b6040518281526001600160a01b0384169033907fc8e1ada3e3428244364539f5fe21fa3bc368ed3634b0abc2355534eb12ca35249060200160405180910390a3505050565b604080516101c08101825260008082526020820181905291810182905260608082018390526080820183905260a0820183905260c0820183905260e0820183905261010082018390526101208201526101408101829052906101608201908152602001600081526020016143526040518060e00160405280600081526020016000815260200160008152602001600081526020016000815260200160008152602001600081525090565b905290565b50805461436390614be3565b6000825580601f10614373575050565b601f0160209004906000526020600020908101906119d191905b808211156143a1576000815560010161438d565b5090565b6000815180845260005b818110156143cb576020818501810151868301820152016143af565b506000602082860101526020601f19601f83011685010191505092915050565b602081526000610e0f60208301846143a5565b60006020828403121561441057600080fd5b5035919050565b6001600160a01b03811681146119d157600080fd5b803561443781614417565b919050565b6000806040838503121561444f57600080fd5b823561445a81614417565b946020939093013593505050565b60006020828403121561447a57600080fd5b8135610e0f81614417565b80151581146119d157600080fd5b803561443781614485565b600080604083850312156144b157600080fd5b82356144bc81614417565b915060208301356144cc81614485565b809150509250929050565b634e487b7160e01b600052602160045260246000fd5b6004811061450b57634e487b7160e01b600052602160045260246000fd5b9052565b805182526020810151602083015260408101516040830152606081015160608301526080810151608083015260a081015160a083015260c081015160c08301525050565b8e81528d151560208201528c151560408201528b60608201528a60808201528960a08201528860c08201528760e08201528661010082015261028061012082015260006145a46102808301886143a5565b6001600160a01b03871661014084015290506145c46101608301866144ed565b836101808301526145d96101a083018461450f565b9f9e505050505050505050505050505050565b60008060006060848603121561460157600080fd5b833561460c81614417565b9250602084013561461c81614417565b929592945050506040919091013590565b60008060006060848603121561464257600080fd5b8335925060208401359150604084013561465b81614485565b809150509250925092565b60008060006060848603121561467b57600080fd5b505081359360208301359350604090920135919050565b6020815281516020820152600060208301516146b2604084018215159052565b50604083015180151560608401525060608301516080830152608083015160a083015260a083015160c083015260c083015160e083015260e0830151610100818185015280850151915050610120818185015280850151915050610140610280818501526147246102a08501836143a5565b90850151909150610160614742858201836001600160a01b03169052565b8501519050610180614756858201836144ed565b8501516101a0858101919091528501519050613fb26101c085018261450f565b634e487b7160e01b600052604160045260246000fd5b6040516101c0810167ffffffffffffffff811182821017156147b0576147b0614776565b60405290565b600080600083850360a08112156147cc57600080fd5b843593506060601f19820112156147e257600080fd5b506040516060810181811067ffffffffffffffff8211171561480657614806614776565b6040908152602086810135835286820135908301526060860135908201529150608084013561465b81614485565b6000806040838503121561484757600080fd5b8235915060208301356144cc81614417565b600082601f83011261486a57600080fd5b813567ffffffffffffffff8082111561488557614885614776565b604051601f8301601f19908116603f011681019082821181831017156148ad576148ad614776565b816040528381528660208588010111156148c657600080fd5b836020870160208301376000602085830101528094505050505092915050565b80356004811061443757600080fd5b600060e0828403121561490757600080fd5b60405160e0810181811067ffffffffffffffff8211171561492a5761492a614776565b8060405250809150823581526020830135602082015260408301356040820152606083013560608201526080830135608082015260a083013560a082015260c083013560c08201525092915050565b60006020828403121561498b57600080fd5b813567ffffffffffffffff808211156149a357600080fd5b9083019061028082860312156149b857600080fd5b6149c061478c565b823581526149d060208401614493565b60208201526149e160408401614493565b6040820152606083013560608201526080830135608082015260a083013560a082015260c083013560c082015260e083013560e08201526101008084013581830152506101208084013583811115614a3857600080fd5b614a4488828701614859565b8284015250506101409150614a5a82840161442c565b828201526101609150614a6e8284016148e6565b82820152610180915081830135828201526101a09150614a90868385016148f5565b91810191909152949350505050565b600080600060608486031215614ab457600080fd5b833592506020840135614ac681614417565b9150604084013561465b81614417565b600080600080600080600060e0888a031215614af157600080fd5b8735614afc81614417565b96506020880135614b0c81614417565b95506040880135945060608801359350608088013560ff81168114614b3057600080fd5b9699959850939692959460a0840135945060c09093013592915050565b60008060408385031215614b6057600080fd5b8235614b6b81614417565b915060208301356144cc81614417565b60008060008060808587031215614b9157600080fd5b84359350602085013592506040850135614baa81614417565b9396929550929360600135925050565b634e487b7160e01b600052601160045260246000fd5b80820180821115610e7d57610e7d614bba565b600181811c90821680614bf757607f821691505b602082108103614c1757634e487b7160e01b600052602260045260246000fd5b50919050565b600060208284031215614c2f57600080fd5b5051919050565b81810381811115610e7d57610e7d614bba565b600181815b80851115614c84578160001904821115614c6a57614c6a614bba565b80851615614c7757918102915b93841c9390800290614c4e565b509250929050565b600082614c9b57506001610e7d565b81614ca857506000610e7d565b8160018114614cbe5760028114614cc857614ce4565b6001915050610e7d565b60ff841115614cd957614cd9614bba565b50506001821b610e7d565b5060208310610133831016604e8410600b8410161715614d07575081810a610e7d565b614d118383614c49565b8060001904821115614d2557614d25614bba565b029392505050565b6000610e0f8383614c8c565b600082614d5657634e487b7160e01b600052601260045260246000fd5b500490565b600080600060608486031215614d7057600080fd5b8351925060208401519150604084015190509250925092565b600060208284031215614d9b57600080fd5b8151610e0f81614485565b8082028115828204841417610e7d57610e7d614bba565b60208082526011908201527034b9903737ba1031b7b73a3937b63632b960791b604082015260600190565b600060018201614dfa57614dfa614bba565b5060010190565b601f821115611e0757600081815260208120601f850160051c81016020861015614e285750805b601f850160051c820191505b81811015614e4757828155600101614e34565b505050505050565b815167ffffffffffffffff811115614e6957614e69614776565b614e7d81614e778454614be3565b84614e01565b602080601f831160018114614eb25760008415614e9a5750858301515b600019600386901b1c1916600185901b178555614e47565b600085815260208120601f198616915b82811015614ee157888601518255948401946001909101908401614ec2565b5085821015614eff5787850151600019600388901b60f8161c191681555b5050505050600190811b01905550565b634e487b7160e01b600052600160045260246000fd5b6000808354614f3381614be3565b60018281168015614f4b5760018114614f6057614f8f565b60ff1984168752821515830287019450614f8f565b8760005260208060002060005b85811015614f865781548a820152908401908201614f6d565b50505082870194505b5092969550505050505056feddf252ad1be2c89b69c2b068fc378daa952ba7f163c4a11628f55a4df523b3efa26469706673582212204689305e23c5a952f98a1e4a843ddbbbb1537979530ecb266d9e6f8ef5432b5864736f6c63430008110033",
    "linkReferences": {}
  },
  "methodIdentifiers": {
    "DOMAIN_SEPARATOR()": "3644e515",
    "Instruments(uint256)": "50c6e6cf",
    "UNDERLYING()": "c5d664c6",
    "addProposal((bytes32,bool,bool,uint256,uint256,uint256,uint256,uint256,uint256,string,address,uint8,uint256,(uint256,uint256,uint256,uint256,uint256,uint256,uint256)))": "98d796e7",
    "allowance(address,address)": "dd62ed3e",
    "approve(address,uint256)": "095ea7b3",
    "asset()": "38d52e0f",
    "asset_limit()": "5f260bb8",
    "balanceInUnderlying(address)": "dc361a13",
    "balanceOf(address)": "70a08231",
    "beforeResolve(uint256)": "2b858734",
    "burn(uint256)": "42966c68",
    "closeInstrument(uint256)": "59dc5c6f",
    "controller_burn(uint256,address)": "e3fac5bf",
    "controller_mint(uint256,address)": "bebf7a04",
    "convertToAssets(uint256)": "07a2d13a",
    "convertToShares(uint256)": "c6e6f592",
    "decAssetsToShares(uint256)": "96ce9d5a",
    "decSharesToAssets(uint256)": "1316dbde",
    "decimal_mismatch()": "fc173fc6",
    "decimals()": "313ce567",
    "denyInstrument(uint256)": "d746d3ef",
    "deposit(uint256,address)": "6e553f65",
    "depositIntoInstrument(uint256,uint256,bool)": "34928ace",
    "distrustInstrument(address)": "b19b1f91",
    "enoughLiqudity(uint256)": "139f4b6f",
    "fetchInstrument(uint256)": "edb53d3e",
    "fetchInstrumentData(uint256)": "9ec4d40e",
    "fetchPoolTrancheData(uint256)": "076125a9",
    "getInstrumentData(address)": "4dc54a38",
    "getInstrumentType(uint256)": "0f65cbc4",
    "get_vault_params()": "7572cb1f",
    "harvest(address)": "0e5c011e",
    "instrumentApprovalCondition(uint256)": "471e1cea",
    "instrumentAssetOracle(uint256,uint256,uint256)": "4bd3c9a8",
    "instrument_data(address)": "22f0e069",
    "isTrusted(address)": "96d64879",
    "maxDeposit(address)": "402d267d",
    "maxMint(address)": "c63d75b6",
    "maxRedeem(address)": "d905777e",
    "maxWithdraw(address)": "ce96cb77",
    "mint(uint256,address)": "94bf804d",
    "name()": "06fdde03",
    "nonces(address)": "7ecebe00",
    "num_proposals(address)": "692eba09",
    "onlyVerified()": "f7d070de",
    "owner()": "8da5cb5b",
    "permit(address,address,uint256,uint256,uint8,bytes32,bytes32)": "d505accf",
    "pingMaturity(address,bool)": "213a7d52",
    "poolZCBValue(uint256)": "ca13e450",
    "previewDeposit(uint256)": "ef8b30f7",
    "previewMint(uint256)": "b3d7f6b9",
    "previewRedeem(uint256)": "4cdad506",
    "previewWithdraw(uint256)": "0a28a477",
    "r()": "6c8ae38c",
    "receiver_conditions(address)": "e9a23d3a",
    "redeem(uint256,address,address)": "ba087652",
    "repayDebt(address,uint256)": "79e20bdc",
    "resolveInstrument(uint256)": "e134cc82",
    "symbol()": "95d89b41",
    "totalAssets()": "01e1d114",
    "totalFloat()": "841219e5",
    "totalSupply()": "18160ddd",
    "total_asset_limit()": "c83baf4e",
    "transfer(address,uint256)": "a9059cbb",
    "transferFrom(address,address,uint256)": "23b872dd",
    "trustInstrument(uint256,(uint256,uint256,uint256),bool)": "4e1afd00",
    "trusted_transfer(uint256,address)": "f05bcfb4",
    "utilizationRate()": "6c321c8a",
    "viewPrincipalAndYield(uint256)": "60d4efa4",
    "withdraw(uint256,address,address)": "b460af94",
    "withdrawFromPoolInstrument(uint256,uint256,address,uint256)": "e4cc3e76"
  },
  "id": 32
}