{
  "abi": [
    {
      "inputs": [
        {
          "internalType": "address",
          "name": "_controller",
          "type": "address"
        }
      ],
      "stateMutability": "nonpayable",
      "type": "constructor"
    },
    {
      "inputs": [
        {
          "internalType": "address",
          "name": "v",
          "type": "address"
        }
      ],
      "name": "isVault",
      "outputs": [
        {
          "internalType": "bool",
          "name": "",
          "type": "bool"
        }
      ],
      "stateMutability": "view",
      "type": "function"
    },
    {
      "inputs": [
        {
          "internalType": "address",
          "name": "underlying",
          "type": "address"
        },
        {
          "internalType": "address",
          "name": "_controller",
          "type": "address"
        },
        {
          "internalType": "bool",
          "name": "_onlyVerified",
          "type": "bool"
        },
        {
          "internalType": "uint256",
          "name": "_r",
          "type": "uint256"
        },
        {
          "internalType": "uint256",
          "name": "_asset_limit",
          "type": "uint256"
        },
        {
          "internalType": "uint256",
          "name": "_total_asset_limit",
          "type": "uint256"
        },
        {
          "components": [
            {
              "internalType": "uint256",
              "name": "N",
              "type": "uint256"
            },
            {
              "internalType": "uint256",
              "name": "sigma",
              "type": "uint256"
            },
            {
              "internalType": "uint256",
              "name": "alpha",
              "type": "uint256"
            },
            {
              "internalType": "uint256",
              "name": "omega",
              "type": "uint256"
            },
            {
              "internalType": "uint256",
              "name": "delta",
              "type": "uint256"
            },
            {
              "internalType": "uint256",
              "name": "r",
              "type": "uint256"
            },
            {
              "internalType": "uint256",
              "name": "s",
              "type": "uint256"
            },
            {
              "internalType": "uint256",
              "name": "steak",
              "type": "uint256"
            }
          ],
          "internalType": "struct MarketManager.MarketParameters",
          "name": "default_params",
          "type": "tuple"
        }
      ],
      "name": "newVault",
      "outputs": [
        {
          "internalType": "contract Vault",
          "name": "",
          "type": "address"
        },
        {
          "internalType": "uint256",
          "name": "",
          "type": "uint256"
        }
      ],
      "stateMutability": "nonpayable",
      "type": "function"
    },
    {
      "inputs": [],
      "name": "numVaults",
      "outputs": [
        {
          "internalType": "uint256",
          "name": "",
          "type": "uint256"
        }
      ],
      "stateMutability": "view",
      "type": "function"
    }
  ],
  "bytecode": {
    "object": "0x608060405234801561001057600080fd5b50604051615e46380380615e4683398101604081905261002f91610062565b60008054336001600160a01b031991821617909155600380549091166001600160a01b0392909216919091179055610092565b60006020828403121561007457600080fd5b81516001600160a01b038116811461008b57600080fd5b9392505050565b615da5806100a16000396000f3fe60806040523480156200001157600080fd5b5060043610620000465760003560e01c8063264a6208146200004b578063652b9b411462000068578063da33133314620000a8575b600080fd5b6200005560025481565b6040519081526020015b60405180910390f35b62000097620000793660046200030a565b6001600160a01b031660009081526001602052604090205460ff1690565b60405190151581526020016200005f565b620000bf620000b93660046200032f565b620000df565b604080516001600160a01b0390931683526020830191909152016200005f565b60035460009081906001600160a01b03163314806200010857506000546001600160a01b031633145b806200011357503330145b620001595760405162461bcd60e51b815260206004820152601160248201527034b9903737ba1031b7b73a3937b63632b960791b60448201526064015b60405180910390fd5b662386f26fc1000083604001511015620001a85760405162461bcd60e51b815260206004820152600f60248201526e105b1c1a18481d1bdbc81cdb585b1b608a1b604482015260640162000150565b6000898960008054906101000a90046001600160a01b03168a8a8a8a8a604051620001d390620002df565b6001600160a01b0398891681529688166020808901919091529590971660408088019190915293151560608088019190915260808088019490945260a08088019390935260c080880192909252875160e0808901919091529588015161010088015284880151610120880152870151610140870152918601516101608601528501516101808501528401516101a08401529201516101c08201529051908190036101e001906000f0801580156200028e573d6000803e3d6000fd5b506001600160a01b03811660009081526001602081905260408220805460ff191690911790556002805492935090620002c78362000444565b9091555050600254909a909950975050505050505050565b615903806200046d83390190565b80356001600160a01b03811681146200030557600080fd5b919050565b6000602082840312156200031d57600080fd5b6200032882620002ed565b9392505050565b60008060008060008060008789036101c08112156200034d57600080fd5b6200035889620002ed565b97506200036860208a01620002ed565b9650604089013580151581146200037e57600080fd5b9550606089013594506080890135935060a0890135925061010060bf198201811315620003aa57600080fd5b604051915080820182811067ffffffffffffffff82111715620003dd57634e487b7160e01b600052604160045260246000fd5b806040525060c08a0135825260e08a01356020830152808a01356040830152506101208901356060820152610140890135608082015261016089013560a082015261018089013560c08201526101a089013560e08201528091505092959891949750929550565b6000600182016200046557634e487b7160e01b600052601160045260246000fd5b506001019056fe6101406040523480156200001257600080fd5b5060405162005903380380620059038339810160408190526200003591620004f5565b8588896001600160a01b03166306fdde036040518163ffffffff1660e01b8152600401600060405180830381865afa15801562000076573d6000803e3d6000fd5b505050506040513d6000823e601f3d908101601f19168201604052620000a0919081019062000619565b604051602001620000b29190620006d1565b6040516020818303038152906040528a6001600160a01b03166395d89b416040518163ffffffff1660e01b8152600401600060405180830381865afa15801562000100573d6000803e3d6000fd5b505050506040513d6000823e601f3d908101601f191682016040526200012a919081019062000619565b6040516020016200013c919062000712565b60408051601f198184030181529190528181601260006200015e8482620007cd565b5060016200016d8382620007cd565b5060ff81166080524660a05262000183620003fa565b60c0525050506001600160a01b03831660e08190526040805163313ce56760e01b8152905163313ce567916004808201926020929091908290030181865afa158015620001d4573d6000803e3d6000fd5b505050506040513d601f19601f82011682018060405250810190620001fa919062000899565b60ff166101008181525050601260ff16836001600160a01b031663313ce5676040518163ffffffff1660e01b8152600401602060405180830381865afa15801562000249573d6000803e3d6000fd5b505050506040513d601f19601f820116820180604052508101906200026f919062000899565b6006805460ff191660ff9283169390931415928317905516156200030a57601260ff16836001600160a01b031663313ce5676040518163ffffffff1660e01b8152600401602060405180830381865afa158015620002d1573d6000803e3d6000fd5b505050506040513d601f19601f82011682018060405250810190620002f7919062000899565b60ff16106200030a576200030a620008c5565b505060068054610100600160a81b0319166101006001600160a01b0385169081029190911790915560405190915033907f8292fce18fa69edf4db7b94ea2e58241df0ae57f97e0a6c9b29067028bf92d7690600090a3506001600160a01b0388811661012052670de0b6b3a7640000600955600b80546001600160a01b0319169189169190911790556014805460ff19168615151790556015849055601683905560178290558051600c556020810151600d556040810151600e556060810151600f55608081015160105560a081015160115560c081015160125560e00151601355506200095995505050505050565b60007f8b73c3c69bb8fe3d512ecc4cf759cc79239f7b179b0ffacaa9a75d522b39400f60006040516200042e9190620008db565b6040805191829003822060208301939093528101919091527fc89efdaa54c0f20c7adf612882df0950f5a951637e0307cdcb4c672f298b8bc660608201524660808201523060a082015260c00160405160208183030381529060405280519060200120905090565b80516001600160a01b0381168114620004ae57600080fd5b919050565b634e487b7160e01b600052604160045260246000fd5b60405161010081016001600160401b0381118282101715620004ef57620004ef620004b3565b60405290565b600080600080600080600080888a036101e08112156200051457600080fd5b6200051f8a62000496565b98506200052f60208b0162000496565b97506200053f60408b0162000496565b965060608a015180151581146200055557600080fd5b8096505060808a0151945060a08a0151935060c08a015192506101008060df19830112156200058357600080fd5b6200058d620004c9565b915060e08b01518252808b01516020830152506101208a015160408201526101408a015160608201526101608a015160808201526101808a015160a08201526101a08a015160c08201526101c08a015160e0820152809150509295985092959890939650565b60005b8381101562000610578181015183820152602001620005f6565b50506000910152565b6000602082840312156200062c57600080fd5b81516001600160401b03808211156200064457600080fd5b818401915084601f8301126200065957600080fd5b8151818111156200066e576200066e620004b3565b604051601f8201601f19908116603f01168101908382118183101715620006995762000699620004b3565b81604052828152876020848701011115620006b357600080fd5b620006c6836020830160208801620005f3565b979650505050505050565b6603232b134ba30960cd1b815260008251620006f5816007850160208701620005f3565b650815985d5b1d60d21b6007939091019283015250600d01919050565b61323160f11b81526000825162000731816002850160208701620005f3565b9190910160020192915050565b600181811c908216806200075357607f821691505b6020821081036200077457634e487b7160e01b600052602260045260246000fd5b50919050565b601f821115620007c857600081815260208120601f850160051c81016020861015620007a35750805b601f850160051c820191505b81811015620007c457828155600101620007af565b5050505b505050565b81516001600160401b03811115620007e957620007e9620004b3565b6200080181620007fa84546200073e565b846200077a565b602080601f831160018114620008395760008415620008205750858301515b600019600386901b1c1916600185901b178555620007c4565b600085815260208120601f198616915b828110156200086a5788860151825594840194600190910190840162000849565b5085821015620008895787850151600019600388901b60f8161c191681555b5050505050600190811b01905550565b600060208284031215620008ac57600080fd5b815160ff81168114620008be57600080fd5b9392505050565b634e487b7160e01b600052600160045260246000fd5b6000808354620008eb816200073e565b600182811680156200090657600181146200091c576200094d565b60ff19841687528215158302870194506200094d565b8760005260208060002060005b85811015620009445781548a82015290840190820162000929565b50505082870194505b50929695505050505050565b60805160a05160c05160e0516101005161012051614f06620009fd600039600081816109e20152818161116601528181612079015281816121f10152818161290c01528181612a3b0152818161362f0152613a9d015260008181611109015261230701526000818161063701528181611ef10152818161227e01528181612ca30152612def015260006117b501526000611785015260006105f60152614f066000f3fe608060405234801561001057600080fd5b50600436106104545760003560e01c80637ecebe0011610241578063c5d664c61161013b578063dc361a13116100c3578063edb53d3e11610087578063edb53d3e14610b4c578063ef8b30f714610b5f578063f05bcfb414610b72578063f7d070de14610b85578063fc173fc614610b9257600080fd5b8063dc361a1314610ab0578063dd62ed3e14610ac3578063e134cc8214610aee578063e3fac5bf14610b25578063e9a23d3a14610b3857600080fd5b8063ca13e4501161010a578063ca13e45014610a20578063ce96cb7714610a4e578063d505accf14610a61578063d746d3ef14610a74578063d905777e14610a8757600080fd5b8063c5d664c6146109dd578063c63d75b614610671578063c6e6f59214610a04578063c83baf4e14610a1757600080fd5b80639ec4d40e116101c9578063b3d7f6b91161018d578063b3d7f6b91461097e578063b460af9414610991578063ba087652146109a4578063bebf7a04146109b7578063bf7e214f146109ca57600080fd5b80639ec4d40e146108f9578063a9059cbb1461090c578063ab0c79d01461091f578063ab0fd37e14610932578063b19b1f911461096b57600080fd5b806395d89b411161021057806395d89b41146108a557806396ce9d5a146108ad57806396d64879146108c057806398d796e7146108d35780639d0eba61146108e657600080fd5b80637ecebe0014610852578063841219e5146108725780638da5cb5b1461087a57806394bf804d1461089257600080fd5b806338d52e0f1161035257806360d4efa4116102da5780636e553f651161029e5780636e553f651461079057806370a08231146107a35780637572cb1f146107c357806379e20bdc1461082c5780637a9e5e4b1461083f57600080fd5b806360d4efa414610724578063692eba091461074c5780636a9f1bdb1461076c5780636c321c8a1461077f5780636c8ae38c1461078757600080fd5b80634cdad506116103215780634cdad506146106ac5780634dc54a38146106bf57806350c6e6cf146106df57806359dc5c6f146107085780635f260bb81461071b57600080fd5b806338d52e0f14610632578063402d267d1461067157806342966c6814610686578063471e1cea1461069957600080fd5b8063139f4b6f116103e057806322f0e069116103a457806322f0e0691461059e57806323b872dd146105cb5780632b858734146105de578063313ce567146105f15780633644e5151461062a57600080fd5b8063139f4b6f1461054957806313af40351461055c57806316f6cb071461056f57806318160ddd14610582578063213a7d521461058b57600080fd5b8063095ea7b311610427578063095ea7b3146104d75780630a28a477146104fa5780630e5c011e1461050d5780630f65cbc4146105225780631316dbde1461053657600080fd5b806301e1d1141461045957806306fdde0314610474578063076125a91461048957806307a2d13a146104c4575b600080fd5b610461610b9f565b6040519081526020015b60405180910390f35b61047c610bbb565b60405161046b9190614396565b61049c6104973660046143a9565b610c49565b604080519586526020860194909452928401919091526060830152608082015260a00161046b565b6104616104d23660046143a9565b610e75565b6104ea6104e53660046143e7565b610eb9565b604051901515815260200161046b565b6104616105083660046143a9565b610f26565b61052061051b366004614413565b610f5f565b005b6104616105303660046143a9565b50600090565b6104616105443660046143a9565b611102565b6104ea6105573660046143a9565b611144565b61052061056a366004614413565b6111d9565b61052061057d366004614430565b61127e565b61046160025481565b61052061059936600461446b565b611340565b6105b16105ac366004614413565b6113a9565b60405161046b9e9d9c9b9a99989796959493929190614520565b6104ea6105d93660046145b9565b6114f2565b6105206105ec3660046143a9565b6115d2565b6106187f000000000000000000000000000000000000000000000000000000000000000081565b60405160ff909116815260200161046b565b610461611781565b6106597f000000000000000000000000000000000000000000000000000000000000000081565b6040516001600160a01b03909116815260200161046b565b61046161067f366004614413565b5060001990565b6105206106943660046143a9565b6117d7565b6104ea6106a73660046143a9565b6117e4565b6104616106ba3660046143a9565b61185a565b6106d26106cd366004614413565b611865565b60405161046b91906145fa565b6106596106ed3660046143a9565b601a602052600090815260409020546001600160a01b031681565b6105206107163660046143a9565b611a3f565b61046160165481565b6107376107323660046143a9565b611b03565b6040805192835260208301919091520161046b565b61046161075a366004614413565b60196020526000908152604090205481565b61052061077a36600461471e565b611cfa565b610461611e73565b61046160155481565b61046161079e36600461479e565b611e99565b6104616107b1366004614413565b60036020526000908152604090205481565b6107cb611f6f565b60405161046b9190600061010082019050825182526020830151602083015260408301516040830152606083015160608301526080830151608083015260a083015160a083015260c083015160c083015260e083015160e083015292915050565b61052061083a3660046143e7565b612005565b61052061084d366004614413565b6120e7565b610461610860366004614413565b60056020526000908152604090205481565b6104616121d9565b6006546106599061010090046001600160a01b031681565b6104616108a036600461479e565b612264565b61047c6122f3565b6104616108bb3660046143a9565b612300565b6104ea6108ce366004614413565b612342565b6105206108e13660046148e3565b612368565b6105206108f4366004614413565b612711565b6106d26109073660046143a9565b612751565b6104ea61091a3660046143e7565b612805565b61052061092d366004614430565b61286b565b6104616109403660046143a9565b6000908152601a60209081526040808320546001600160a01b03168352601890915290206002015490565b610520610979366004614413565b612b2a565b61046161098c3660046143a9565b612b9d565b61046161099f366004614a09565b612bbc565b6104616109b2366004614a09565b612cca565b6105206109c536600461479e565b612e16565b600754610659906001600160a01b031681565b6106597f000000000000000000000000000000000000000000000000000000000000000081565b610461610a123660046143a9565b612e6e565b61046160175481565b610a33610a2e3660046143a9565b612e8e565b6040805193845260208401929092529082015260600161046b565b610461610a5c366004614413565b6130e5565b610520610a6f366004614a40565b613107565b610520610a823660046143a9565b61334b565b610461610a95366004614413565b6001600160a01b031660009081526003602052604090205490565b610461610abe366004614413565b61347c565b610461610ad1366004614ab7565b600460209081526000928352604080842090915290825290205481565b610b01610afc3660046143a9565b61349e565b6040805194151585526020850193909352918301521515606082015260800161046b565b610520610b3336600461479e565b613994565b6104ea610b46366004614413565b50600190565b610659610b5a3660046143a9565b6139ec565b610461610b6d3660046143a9565b613a07565b610520610b8036600461479e565b613a12565b6014546104ea9060ff1681565b6006546104ea9060ff1681565b6000610ba96121d9565b600a54610bb69190614afb565b905090565b60008054610bc890614b0e565b80601f0160208091040260200160405190810160405280929190818152602001828054610bf490614b0e565b8015610c415780601f10610c1657610100808354040283529160200191610c41565b820191906000526020600020905b815481529060010190602001808311610c2457829003601f168201915b505050505081565b6000818152601a60209081526040808320546001600160a01b031683526018825280832081516101c08101835281548152600182015460ff808216151595830195909552610100908190049094161515928101929092526002810154606083015260038101546080830152600481015460a0830152600581015460c0830152600681015460e08301526007810154928201929092526008820180548493849384938493849391610120840191610cfe90614b0e565b80601f0160208091040260200160405190810160405280929190818152602001828054610d2a90614b0e565b8015610d775780601f10610d4c57610100808354040283529160200191610d77565b820191906000526020600020905b815481529060010190602001808311610d5a57829003601f168201915b505050918352505060098201546001600160a01b0381166020830152604090910190600160a01b900460ff166003811115610db457610db46144a4565b6003811115610dc557610dc56144a4565b8152602001600a8201548152602001600b82016040518060e0016040529081600082015481526020016001820154815260200160028201548152602001600382015481526020016004820154815260200160058201548152602001600682015481525050815250509050806101a0015160400151816101a0015160600151826101a0015160800151836101a0015160a00151846101a0015160c00151955095509550955095505091939590929450565b6002546000908015610e9957610e94610e8c610b9f565b849083613acc565b610eb2565b60065460ff16610ea95782610eb2565b610eb283611102565b9392505050565b3360008181526004602090815260408083206001600160a01b038716808552925280832085905551919290917f8c5be1e5ebec7d5bd14f71427d1e84f3dd0314c0f7b2291e5b200ac8c7c3b92590610f149086815260200190565b60405180910390a35060015b92915050565b6002546000908015610f4657610e9481610f3e610b9f565b859190613aeb565b60065460ff16610f565782610eb2565b610eb283612300565b6001600160a01b038116600090815260186020526040902060010154610100900460ff16610fcb5760405162461bcd60e51b8152602060048201526014602482015273155395149554d5115117d25b9cdd1c9d5b595b9d60621b60448201526064015b60405180910390fd5b6001600160a01b038116600081815260186020526040808220600a5460028201549251633af9e66960e01b8152600481018690529194909391633af9e66990602401602060405180830381865afa15801561102a573d6000803e3d6000fd5b505050506040513d601f19601f8201168201806040525081019061104e9190614b48565b905080820361105e575050505050565b600284018190556000828210158061107f5761107a8385614b61565b611089565b6110898484614b61565b91508061109f5761109a8286614b61565b6110a9565b6110a98286614afb565b600a5560408051848152602081018490528215158183015290516001600160a01b038916917f633a7d7c82bd537c647d654b96128a9b02a675bd73abe910b82f875ce4776391919081900360600190a250505050505050565b600061112f7f00000000000000000000000000000000000000000000000000000000000000006012614b61565b61113a90600a614c58565b610f209083614c64565b6040516370a0823160e01b815230600482015260009082906001600160a01b037f000000000000000000000000000000000000000000000000000000000000000016906370a0823190602401602060405180830381865afa1580156111ad573d6000803e3d6000fd5b505050506040513d601f19601f820116820180604052508101906111d19190614b48565b101592915050565b6111ef336000356001600160e01b031916613b19565b61122a5760405162461bcd60e51b815260206004820152600c60248201526b15539055551213d49256915160a21b6044820152606401610fc2565b60068054610100600160a81b0319166101006001600160a01b0384169081029190911790915560405133907f8292fce18fa69edf4db7b94ea2e58241df0ae57f97e0a6c9b29067028bf92d7690600090a350565b611287826139ec565b6001600160a01b031663537d9409826040518263ffffffff1660e01b81526004016112b491815260200190565b602060405180830381865afa1580156112d1573d6000803e3d6000fd5b505050506040513d601f19601f820116820180604052508101906112f59190614c86565b61132a5760405162461bcd60e51b8152600401610fc290602080825260049082015263216c697160e01b604082015260600190565b61133c611336836139ec565b82613b58565b5050565b336001600160a01b038316148061135b575061135b82612342565b61136457600080fd5b6001600160a01b038216600090815260186020526040902060040154611389816115d2565b6000908152601b60205260409020805460ff191691151591909117905550565b601860205260009081526040902080546001820154600283015460038401546004850154600586015460068701546007880154600889018054989960ff808a169a610100909a0416989091906113fe90614b0e565b80601f016020809104026020016040519081016040528092919081815260200182805461142a90614b0e565b80156114775780601f1061144c57610100808354040283529160200191611477565b820191906000526020600020905b81548152906001019060200180831161145a57829003601f168201915b505050506009830154600a8401546040805160e081018252600b8701548152600c8701546020820152600d87015491810191909152600e8601546060820152600f8601546080820152601086015460a082015260119095015460c086015292936001600160a01b03821693600160a01b90920460ff1692508e565b6001600160a01b0383166000908152600460209081526040808320338452909152812054600019811461154e576115298382614b61565b6001600160a01b03861660009081526004602090815260408083203384529091529020555b6001600160a01b03851660009081526003602052604081208054859290611576908490614b61565b90915550506001600160a01b0380851660008181526003602052604090819020805487019055519091871690600080516020614eb1833981519152906115bf9087815260200190565b60405180910390a3506001949350505050565b6000818152601a60205260409020546001600160a01b0316338114806116025750600b546001600160a01b031633145b61163c5760405162461bcd60e51b815260206004820152600b60248201526a139bdd08185b1b1bddd95960aa1b6044820152606401610fc2565b61164581612342565b61167f5760405162461bcd60e51b815260206004820152600b60248201526a139bdd081d1c9d5cdd195960aa1b6044820152606401610fc2565b806001600160a01b03166349dcf4ed6040518163ffffffff1660e01b81526004016060604051808303816000875af11580156116bf573d6000803e3d6000fd5b505050506040513d601f19601f820116820180604052508101906116e39190614ca3565b5050506116ef81610f5f565b806001600160a01b031663f3aa68d36040518163ffffffff1660e01b8152600401600060405180830381600087803b15801561172a57600080fd5b505af115801561173e573d6000803e3d6000fd5b5050604080518082018252438152600160208083018281526000988952601c909152929096209051815590519401805460ff191694151594909417909355505050565b60007f000000000000000000000000000000000000000000000000000000000000000046146117b257610bb6613d0b565b507f000000000000000000000000000000000000000000000000000000000000000090565b6117e13382613da5565b50565b6000818152601a6020908152604080832054815163041f3aa560e51b815291516001600160a01b03909116926383e754a092600480820193918290030181865afa158015611836573d6000803e3d6000fd5b505050506040513d601f19601f82011682018060405250810190610f209190614c86565b6000610f2082610e75565b61186d614253565b6001600160a01b03821660009081526018602090815260409182902082516101c08101845281548152600182015460ff808216151594830194909452610100908190049093161515938101939093526002810154606084015260038101546080840152600481015460a0840152600581015460c0840152600681015460e08401526007810154918301919091526008810180546101208401919061191090614b0e565b80601f016020809104026020016040519081016040528092919081815260200182805461193c90614b0e565b80156119895780601f1061195e57610100808354040283529160200191611989565b820191906000526020600020905b81548152906001019060200180831161196c57829003601f168201915b505050918352505060098201546001600160a01b0381166020830152604090910190600160a01b900460ff1660038111156119c6576119c66144a4565b60038111156119d7576119d76144a4565b8152600a8201546020808301919091526040805160e081018252600b8501548152600c85015492810192909252600d84015482820152600e8401546060830152600f8401546080830152601084015460a083015260119093015460c082015291015292915050565b600b546001600160a01b0316331480611a67575060065461010090046001600160a01b031633145b80611a7157503033145b611a8d5760405162461bcd60e51b8152600401610fc290614cd1565b6000611a98826139ec565b9050806001600160a01b03166350bb4beb6040518163ffffffff1660e01b81526004016020604051808303816000875af1158015611ada573d6000803e3d6000fd5b505050506040513d601f19601f82011682018060405250810190611afe9190614b48565b505050565b6000818152601a60209081526040808320546001600160a01b031683526018825280832081516101c08101835281548152600182015460ff808216151595830195909552610100908190049094161515928101929092526002810154606083015260038101546080830152600481015460a0830152600581015460c0830152600681015460e08301526007810154928201929092526008820180548493849392909161012084019190611bb590614b0e565b80601f0160208091040260200160405190810160405280929190818152602001828054611be190614b0e565b8015611c2e5780601f10611c0357610100808354040283529160200191611c2e565b820191906000526020600020905b815481529060010190602001808311611c1157829003601f168201915b505050918352505060098201546001600160a01b0381166020830152604090910190600160a01b900460ff166003811115611c6b57611c6b6144a4565b6003811115611c7c57611c7c6144a4565b8152602001600a8201548152602001600b82016040518060e00160405290816000820154815260200160018201548152602001600282015481526020016003820154815260200160048201548152602001600582015481526020016006820154815250508152505090508060c001518160e001519250925050915091565b600b546001600160a01b0316331480611d22575060065461010090046001600160a01b031633145b80611d2c57503033145b611d485760405162461bcd60e51b8152600401610fc290614cd1565b600160186000611d57866139ec565b6001600160a01b03168152602081019190915260400160002060010180549115156101000261ff001990921691909117905580611e65576000838152601a60209081526040808320546001600160a01b031683526018825290912083516005820181905591840151600682018190559091611dd29190614afb565b60038201558251611de490859061286b565b611ded84613e07565b611df6846139ec565b8351602085015160405163416288dd60e01b8152600481019290925260248201526001600160a01b03919091169063416288dd90604401600060405180830381600087803b158015611e4757600080fd5b505af1158015611e5b573d6000803e3d6000fd5b5050505050505050565b611afe83836000015161286b565b6000600a54600003611e855750600090565b610bb6611e90610b9f565b600a5490613e70565b6000611ea483613a07565b905080600003611ee45760405162461bcd60e51b815260206004820152600b60248201526a5a45524f5f53484152455360a81b6044820152606401610fc2565b611f196001600160a01b037f000000000000000000000000000000000000000000000000000000000000000016333086613e85565b611f238282613f0f565b60408051848152602081018390526001600160a01b0384169133917fdcbc1c05240f31ff3ad067ef1ee35ce4997762752e3a095284754544f4c709d791015b60405180910390a3610f20565b611fb760405180610100016040528060008152602001600081526020016000815260200160008152602001600081526020016000815260200160008152602001600081525090565b506040805161010081018252600c548152600d546020820152600e5491810191909152600f546060820152601054608082015260115460a082015260125460c082015260135460e082015290565b600b546001600160a01b031633148061202d575060065461010090046001600160a01b031633145b8061203757503033145b6120535760405162461bcd60e51b8152600401610fc290614cd1565b60405163a9059cbb60e01b81526001600160a01b038381166004830152602482018390527f0000000000000000000000000000000000000000000000000000000000000000169063a9059cbb906044015b6020604051808303816000875af11580156120c3573d6000803e3d6000fd5b505050506040513d601f19601f82011682018060405250810190611afe9190614c86565b60065461010090046001600160a01b0316331480612184575060075460405163b700961360e01b81523360048201523060248201526000356001600160e01b03191660448201526001600160a01b039091169063b700961390606401602060405180830381865afa158015612160573d6000803e3d6000fd5b505050506040513d601f19601f820116820180604052508101906121849190614c86565b61218d57600080fd5b600780546001600160a01b0319166001600160a01b03831690811790915560405133907fa3396fd7f6e0a21b50e5089d2da70d5ac0a3bbbd1f617a93f134b7638998019890600090a350565b6040516370a0823160e01b81523060048201526000907f00000000000000000000000000000000000000000000000000000000000000006001600160a01b0316906370a0823190602401602060405180830381865afa158015612240573d6000803e3d6000fd5b505050506040513d601f19601f82011682018060405250810190610bb69190614b48565b600061226f83612b9d565b90506122a66001600160a01b037f000000000000000000000000000000000000000000000000000000000000000016333084613e85565b6122b08284613f0f565b60408051828152602081018590526001600160a01b0384169133917fdcbc1c05240f31ff3ad067ef1ee35ce4997762752e3a095284754544f4c709d79101611f62565b60018054610bc890614b0e565b600061232d7f00000000000000000000000000000000000000000000000000000000000000006012614b61565b61233890600a614c58565b610f209083614cfc565b6001600160a01b0316600090815260186020526040902060010154610100900460ff1690565b600b546001600160a01b0316331480612390575060065461010090046001600160a01b031633145b8061239a57503033145b6123b65760405162461bcd60e51b8152600401610fc290614cd1565b80602001516125665760008160c00151116124135760405162461bcd60e51b815260206004820181905260248201527f7072696e636970616c206d7573742062652067726561746572207468616e20306044820152606401610fc2565b6000816101000151116124685760405162461bcd60e51b815260206004820152601f60248201527f6475726174696f6e206d7573742062652067726561746572207468616e2030006044820152606401610fc2565b60008160800151116124bc5760405162461bcd60e51b815260206004820181905260248201527f6661636556616c7565206d7573742062652067726561746572207468616e20306044820152606401610fc2565b6009548160c0015110156125125760405162461bcd60e51b815260206004820152601d60248201527f4e6565647320746f20626520696e20646563696d616c20666f726d61740000006044820152606401610fc2565b60008160a00151116125665760405162461bcd60e51b815260206004820152601860248201527f6d7573742062652076616c696420696e737472756d656e7400000000000000006044820152606401610fc2565b33600090815260196020526040812080549161258183614d13565b90915550506101408101516001600160a01b031660009081526018602090815260409182902083518155908301516001820180549385015161ffff1990941691151561ff001916919091176101009315158402179055606083015160028201556080830151600382015560a0830151600482015560c0830151600582015560e08301516006820155908201516007820155610120820151829190600882019061262a9082614d7a565b506101408201516009820180546001600160a01b039092166001600160a01b0319831681178255610160850151926001600160a81b03191617600160a01b83600381111561267a5761267a6144a4565b0217905550610180820151600a8201556101a0909101518051600b830155602080820151600c840155604080830151600d8501556060830151600e8501556080830151600f85015560a080840151601086015560c09093015160119094019390935561014084015193909101516000908152601a9091522080546001600160a01b0319166001600160a01b03909216919091179055565b60065461010090046001600160a01b0316331461272d57600080fd5b6001600160a01b03166000908152600860205260409020805460ff19166001179055565b612759614253565b6000828152601a60209081526040808320546001600160a01b03168352601882529182902082516101c08101845281548152600182015460ff808216151594830194909452610100908190049093161515938101939093526002810154606084015260038101546080840152600481015460a0840152600581015460c0840152600681015460e08401526007810154918301919091526008810180546101208401919061191090614b0e565b33600090815260036020526040812080548391908390612826908490614b61565b90915550506001600160a01b03831660008181526003602052604090819020805485019055513390600080516020614eb183398151915290610f149086815260200190565b6000612876836139ec565b6001600160a01b038116600090815260186020526040902060010154909150610100900460ff166128e05760405162461bcd60e51b8152602060048201526014602482015273155395149554d5115108125b9cdd1c9d5b595b9d60621b6044820152606401610fc2565b60065460ff16156128f7576128f482611102565b91505b6040516370a0823160e01b81523060048201527f00000000000000000000000000000000000000000000000000000000000000006001600160a01b0316906370a0823190602401602060405180830381865afa15801561295b573d6000803e3d6000fd5b505050506040513d601f19601f8201168201806040525081019061297f9190614b48565b8211156129ce5760405162461bcd60e51b815260206004820152601760248201527f4e6f7420656e6f7567682062616c20696e207661756c740000000000000000006044820152606401610fc2565b81600a60008282546129e09190614afb565b90915550506001600160a01b03811660009081526018602052604081206002018054849290612a10908490614afb565b909155505060405163a9059cbb60e01b81526001600160a01b038281166004830152602482018490527f0000000000000000000000000000000000000000000000000000000000000000169063a9059cbb906044016020604051808303816000875af1158015612a84573d6000803e3d6000fd5b505050506040513d601f19601f82011682018060405250810190612aa89190614c86565b612ae55760405162461bcd60e51b815260206004820152600e60248201526d11115413d4d25517d1905253115160921b6044820152606401610fc2565b6040518281526001600160a01b0382169033907f05fb08df9fd3a3099b9b7c09d3b801273152c1bae4b64e818fa08e212e882f849060200160405180910390a3505050565b600b546001600160a01b0316331480612b52575060065461010090046001600160a01b031633145b80612b5c57503033145b612b785760405162461bcd60e51b8152600401610fc290614cd1565b6001600160a01b03166000908152601860205260409020600101805461ff0019169055565b6002546000908015610e9957610e94612bb4610b9f565b849083613aeb565b6000612bc784610f26565b9050336001600160a01b03831614612c37576001600160a01b03821660009081526004602090815260408083203384529091529020546000198114612c3557612c108282614b61565b6001600160a01b03841660009081526004602090815260408083203384529091529020555b505b612c418482613f61565b612c4b8282613da5565b60408051858152602081018390526001600160a01b03808516929086169133917ffbde797d201c681b91056529119e0b02407c7bb96a4a2c75c01fc9667232c8db910160405180910390a4610eb26001600160a01b037f0000000000000000000000000000000000000000000000000000000000000000168486613fb6565b6000336001600160a01b03831614612d3a576001600160a01b03821660009081526004602090815260408083203384529091529020546000198114612d3857612d138582614b61565b6001600160a01b03841660009081526004602090815260408083203384529091529020555b505b612d438461185a565b905080600003612d835760405162461bcd60e51b815260206004820152600b60248201526a5a45524f5f41535345545360a81b6044820152606401610fc2565b612d8d8185613f61565b612d978285613da5565b60408051828152602081018690526001600160a01b03808516929086169133917ffbde797d201c681b91056529119e0b02407c7bb96a4a2c75c01fc9667232c8db910160405180910390a4610eb26001600160a01b037f0000000000000000000000000000000000000000000000000000000000000000168483613fb6565b600b546001600160a01b0316331480612e3e575060065461010090046001600160a01b031633145b80612e4857503033145b612e645760405162461bcd60e51b8152600401610fc290614cd1565b61133c8183613f0f565b6002546000908015610f4657610e9481612e86610b9f565b859190613acc565b6000806000612eeb6040518061014001604052806000815260200160008152602001600081526020016000815260200160008152602001600081526020016000815260200160008152602001600081526020016000151581525090565b612ef485610c49565b6080860152606085018190526040850182905260208501929092529183529250612f445760405162461bcd60e51b81526020600482015260016024820152600360fc1b6044820152606401610fc2565b612f7b612f70826020015142612f5a9190614b61565b6009548451612f699082614afb565b9190614034565b6040830151906140f2565b60a08201526000858152601a60209081526040808320546001600160a01b03168352601890915290206002015460c0820152600b54604051634955b91f60e11b8152600481018790526001600160a01b03909116906392ab723e90602401602060405180830381865afa158015612ff6573d6000803e3d6000fd5b505050506040513d601f19601f8201168201806040525081019061301a9190614b48565b60e08201819052606082015161303091906140f2565b610100820181905260000361304d5760a0015192508291506130de565b61010081015160a0820151613061916140f2565b8160c0015110613077578060a001519350613096565b61010081015160c082015161308b91613e70565b600161012083015293505b8061012001516130dc576130d98160e001516130c48361010001518460a001516140f290919063ffffffff16565b8360c001516130d39190614b61565b90613e70565b92505b505b9193909250565b6001600160a01b038116600090815260036020526040812054610f2090610e75565b428410156131575760405162461bcd60e51b815260206004820152601760248201527f5045524d49545f444541444c494e455f455850495245440000000000000000006044820152606401610fc2565b60006001613163611781565b6001600160a01b038a811660008181526005602090815260409182902080546001810190915582517f6e71edae12b1b97f4d1f60370fef10105fa2faae0126114a169c64845d6126c98184015280840194909452938d166060840152608083018c905260a083019390935260c08083018b90528151808403909101815260e08301909152805192019190912061190160f01b6101008301526101028201929092526101228101919091526101420160408051601f198184030181528282528051602091820120600084529083018083525260ff871690820152606081018590526080810184905260a0016020604051602081039080840390855afa15801561326f573d6000803e3d6000fd5b5050604051601f1901519150506001600160a01b038116158015906132a55750876001600160a01b0316816001600160a01b0316145b6132e25760405162461bcd60e51b815260206004820152600e60248201526d24a72b20a624a22fa9a4a3a722a960911b6044820152606401610fc2565b6001600160a01b0390811660009081526004602090815260408083208a8516808552908352928190208990555188815291928a16917f8c5be1e5ebec7d5bd14f71427d1e84f3dd0314c0f7b2291e5b200ac8c7c3b925910160405180910390a350505050505050565b600b546001600160a01b0316331480613373575060065461010090046001600160a01b031633145b8061337d57503033145b6133995760405162461bcd60e51b8152600401610fc290614cd1565b6000818152601a60209081526040808320546001600160a01b031683526018909152902081158015906133d8575060098101546001600160a01b031615155b6134195760405162461bcd60e51b81526020600482015260126024820152711a5b9d985b1a59081a5b9cdd1c9d5b595b9d60721b6044820152606401610fc2565b6001810154610100900460ff16156134735760405162461bcd60e51b815260206004820152601e60248201527f63616e27742064656e7920617070726f76656420696e737472756d656e7400006044820152606401610fc2565b61133c82614107565b6001600160a01b038116600090815260036020526040812054610f209061185a565b600b546000908190819081906001600160a01b03163314806134cf575060065461010090046001600160a01b031633145b806134d957503033145b6134f55760405162461bcd60e51b8152600401610fc290614cd1565b6000858152601a6020908152604080832054601c835292819020815180830183528154815260019091015460ff161515818401528151632938b58d60e21b815291516001600160a01b03909416939092849263a4e2d63492600480830193928290030181865afa15801561356d573d6000803e3d6000fd5b505050506040513d601f19601f820116820180604052508101906135919190614c86565b6135ca5760405162461bcd60e51b815260206004820152600a602482015269139bdd08131bd8dad95960b21b6044820152606401610fc2565b806020015180156135db5750805143115b6136175760405162461bcd60e51b815260206004820152600d60248201526c63616e2774207265736f6c766560981b6044820152606401610fc2565b6040516370a0823160e01b81523060048201526000907f00000000000000000000000000000000000000000000000000000000000000006001600160a01b0316906370a0823190602401602060405180830381865afa15801561367e573d6000803e3d6000fd5b505050506040513d601f19601f820116820180604052508101906136a29190614b48565b90506000836001600160a01b0316631104aafd6040518163ffffffff1660e01b8152600401602060405180830381865afa1580156136e4573d6000803e3d6000fd5b505050506040513d601f19601f820116820180604052508101906137089190614b48565b6001600160a01b038516600090815260186020908152604080832081516101c08101835281548152600182015460ff808216151595830195909552610100908190049094161515928101929092526002810154606083015260038101546080830152600481015460a0830152600581015460c0830152600681015460e0830152600781015492820192909252600882018054949550929390926101208401916137b090614b0e565b80601f01602080910402602001604051908101604052809291908181526020018280546137dc90614b0e565b80156138295780601f106137fe57610100808354040283529160200191613829565b820191906000526020600020905b81548152906001019060200180831161380c57829003601f168201915b505050918352505060098201546001600160a01b0381166020830152604090910190600160a01b900460ff166003811115613866576138666144a4565b6003811115613877576138776144a4565b8152600a8201546020808301919091526040805160e081018252600b8501548152600c85015481840152600d85015481830152600e8501546060820152600f8501546080820152601085015460a082015260119094015460c08501529182019290925260008d8152601b90925281205491925060ff90911690808083613941578460800151861092508261390c57600061391c565b85856080015161391c9190614b61565b9150821561392b57600061393a565b608085015161393a9087614b61565b9050613969565b8460c001518610925082613956576000613966565b858560c001516139669190614b61565b91505b6139738987613b58565b6139808560a00151614107565b919d919c509a509098509650505050505050565b600b546001600160a01b03163314806139bc575060065461010090046001600160a01b031633145b806139c657503033145b6139e25760405162461bcd60e51b8152600401610fc290614cd1565b61133c8183613da5565b6000908152601a60205260409020546001600160a01b031690565b6000610f2082612e6e565b600b546001600160a01b0316331480613a3a575060065461010090046001600160a01b031633145b80613a4457503033145b613a605760405162461bcd60e51b8152600401610fc290614cd1565b60065460ff1615613a7757613a7482611102565b91505b60405163a9059cbb60e01b81526001600160a01b038281166004830152602482018490527f0000000000000000000000000000000000000000000000000000000000000000169063a9059cbb906044016120a4565b828202811515841585830485141716613ae457600080fd5b0492915050565b828202811515841585830485141716613b0357600080fd5b6001826001830304018115150290509392505050565b6006546000906001600160a01b03848116610100909204161480610eb2575050506001600160a01b031660009081526008602052604090205460ff1690565b6001600160a01b038216600090815260186020526040902060010154610100900460ff16613bbf5760405162461bcd60e51b8152602060048201526014602482015273155395149554d5115108125b9cdd1c9d5b595b9d60621b6044820152606401610fc2565b60065460ff1615613bd657613bd381611102565b90505b6001600160a01b03821660009081526018602052604081206002018054839290613c01908490614b61565b9250508190555080600a6000828254613c1a9190614b61565b909155505060405163852a12e360e01b8152600481018290526001600160a01b0383169063852a12e3906024016020604051808303816000875af1158015613c66573d6000803e3d6000fd5b505050506040513d601f19601f82011682018060405250810190613c8a9190614c86565b613cc65760405162461bcd60e51b815260206004820152600d60248201526c14915111515357d19052531151609a1b6044820152606401610fc2565b6040518181526001600160a01b0383169033907fc8e1ada3e3428244364539f5fe21fa3bc368ed3634b0abc2355534eb12ca3524906020015b60405180910390a35050565b60007f8b73c3c69bb8fe3d512ecc4cf759cc79239f7b179b0ffacaa9a75d522b39400f6000604051613d3d9190614e3a565b6040805191829003822060208301939093528101919091527fc89efdaa54c0f20c7adf612882df0950f5a951637e0307cdcb4c672f298b8bc660608201524660808201523060a082015260c00160405160208183030381529060405280519060200120905090565b6001600160a01b03821660009081526003602052604081208054839290613dcd908490614b61565b90915550506002805482900390556040518181526000906001600160a01b03841690600080516020614eb183398151915290602001613cff565b4260186000613e15846139ec565b6001600160a01b03166001600160a01b0316815260200190815260200160002060070154613e439190614afb565b60186000613e50846139ec565b6001600160a01b031681526020810191909152604001600020600a015550565b6000610eb283670de0b6b3a764000084613acc565b60006040516323b872dd60e01b81528460048201528360248201528260448201526020600060648360008a5af13d15601f3d1160016000511416171691505080613f085760405162461bcd60e51b81526020600482015260146024820152731514905394d1915497d19493d357d1905253115160621b6044820152606401610fc2565b5050505050565b8060026000828254613f219190614afb565b90915550506001600160a01b038216600081815260036020908152604080832080548601905551848152600080516020614eb18339815191529101613cff565b613f6a82611144565b61133c5760405162461bcd60e51b815260206004820152601c60248201527f4e6f7420656e6f756768206c6971756469747920696e207661756c74000000006044820152606401610fc2565b600060405163a9059cbb60e01b8152836004820152826024820152602060006044836000895af13d15601f3d116001600051141617169150508061402e5760405162461bcd60e51b815260206004820152600f60248201526e1514905394d1915497d19052531151608a1b6044820152606401610fc2565b50505050565b60008380156140d45760018416801561404f57859250614053565b8392505b508260011c8460011c94505b84156140ce578560801c1561407357600080fd5b8586028181018181101561408657600080fd5b85900496505060018516156140c35785830283878204146140ac5786156140ac57600080fd5b818101818110156140bc57600080fd5b8590049350505b8460011c945061405f565b506140ea565b8380156140e457600092506140e8565b8392505b505b509392505050565b6000610eb28383670de0b6b3a7640000613acc565b6000818152601a60209081526040808320546001600160a01b0316835260189091529020600481015461417c5760405162461bcd60e51b815260206004820152601860248201527f696e737472756d656e7420646f65736e277420657869737400000000000000006044820152606401610fc2565b6000828152601a60209081526040808320546001600160a01b031683526018909152812081815560018101805461ffff19169055600281018290556003810182905560048101829055600581018290556006810182905560078101829055906141e86008830182614302565b506009810180546001600160a81b03191690556000600a8201819055600b8201819055600c8201819055600d8201819055600e8201819055600f820181905560108201819055601190910181905591825250601a6020526040902080546001600160a01b0319169055565b604080516101c08101825260008082526020820181905291810182905260608082018390526080820183905260a0820183905260c0820183905260e0820183905261010082018390526101208201526101408101829052906101608201908152602001600081526020016142fd6040518060e00160405280600081526020016000815260200160008152602001600081526020016000815260200160008152602001600081525090565b905290565b50805461430e90614b0e565b6000825580601f1061431e575050565b601f0160209004906000526020600020908101906117e191905b8082111561434c5760008155600101614338565b5090565b6000815180845260005b818110156143765760208185018101518683018201520161435a565b506000602082860101526020601f19601f83011685010191505092915050565b602081526000610eb26020830184614350565b6000602082840312156143bb57600080fd5b5035919050565b6001600160a01b03811681146117e157600080fd5b80356143e2816143c2565b919050565b600080604083850312156143fa57600080fd5b8235614405816143c2565b946020939093013593505050565b60006020828403121561442557600080fd5b8135610eb2816143c2565b6000806040838503121561444357600080fd5b50508035926020909101359150565b80151581146117e157600080fd5b80356143e281614452565b6000806040838503121561447e57600080fd5b8235614489816143c2565b9150602083013561449981614452565b809150509250929050565b634e487b7160e01b600052602160045260246000fd5b600481106144d857634e487b7160e01b600052602160045260246000fd5b9052565b805182526020810151602083015260408101516040830152606081015160608301526080810151608083015260a081015160a083015260c081015160c08301525050565b8e81528d151560208201528c151560408201528b60608201528a60808201528960a08201528860c08201528760e0820152866101008201526102806101208201526000614571610280830188614350565b6001600160a01b03871661014084015290506145916101608301866144ba565b836101808301526145a66101a08301846144dc565b9f9e505050505050505050505050505050565b6000806000606084860312156145ce57600080fd5b83356145d9816143c2565b925060208401356145e9816143c2565b929592945050506040919091013590565b60208152815160208201526000602083015161461a604084018215159052565b50604083015180151560608401525060608301516080830152608083015160a083015260a083015160c083015260c083015160e083015260e08301516101008181850152808501519150506101208181850152808501519150506101406102808185015261468c6102a0850183614350565b908501519091506101606146aa858201836001600160a01b03169052565b85015190506101806146be858201836144ba565b8501516101a08581019190915285015190506140ea6101c08501826144dc565b634e487b7160e01b600052604160045260246000fd5b6040516101c0810167ffffffffffffffff81118282101715614718576147186146de565b60405290565b6000806000838503608081121561473457600080fd5b843593506040601f198201121561474a57600080fd5b506040516040810181811067ffffffffffffffff8211171561476e5761476e6146de565b6040908152602086810135835290860135908201529150606084013561479381614452565b809150509250925092565b600080604083850312156147b157600080fd5b823591506020830135614499816143c2565b600082601f8301126147d457600080fd5b813567ffffffffffffffff808211156147ef576147ef6146de565b604051601f8301601f19908116603f01168101908282118183101715614817576148176146de565b8160405283815286602085880101111561483057600080fd5b836020870160208301376000602085830101528094505050505092915050565b8035600481106143e257600080fd5b600060e0828403121561487157600080fd5b60405160e0810181811067ffffffffffffffff82111715614894576148946146de565b8060405250809150823581526020830135602082015260408301356040820152606083013560608201526080830135608082015260a083013560a082015260c083013560c08201525092915050565b6000602082840312156148f557600080fd5b813567ffffffffffffffff8082111561490d57600080fd5b90830190610280828603121561492257600080fd5b61492a6146f4565b8235815261493a60208401614460565b602082015261494b60408401614460565b6040820152606083013560608201526080830135608082015260a083013560a082015260c083013560c082015260e083013560e082015261010080840135818301525061012080840135838111156149a257600080fd5b6149ae888287016147c3565b82840152505061014091506149c48284016143d7565b8282015261016091506149d8828401614850565b82820152610180915081830135828201526101a091506149fa8683850161485f565b91810191909152949350505050565b600080600060608486031215614a1e57600080fd5b833592506020840135614a30816143c2565b91506040840135614793816143c2565b600080600080600080600060e0888a031215614a5b57600080fd5b8735614a66816143c2565b96506020880135614a76816143c2565b95506040880135945060608801359350608088013560ff81168114614a9a57600080fd5b9699959850939692959460a0840135945060c09093013592915050565b60008060408385031215614aca57600080fd5b8235614ad5816143c2565b91506020830135614499816143c2565b634e487b7160e01b600052601160045260246000fd5b80820180821115610f2057610f20614ae5565b600181811c90821680614b2257607f821691505b602082108103614b4257634e487b7160e01b600052602260045260246000fd5b50919050565b600060208284031215614b5a57600080fd5b5051919050565b81810381811115610f2057610f20614ae5565b600181815b80851115614baf578160001904821115614b9557614b95614ae5565b80851615614ba257918102915b93841c9390800290614b79565b509250929050565b600082614bc657506001610f20565b81614bd357506000610f20565b8160018114614be95760028114614bf357614c0f565b6001915050610f20565b60ff841115614c0457614c04614ae5565b50506001821b610f20565b5060208310610133831016604e8410600b8410161715614c32575081810a610f20565b614c3c8383614b74565b8060001904821115614c5057614c50614ae5565b029392505050565b6000610eb28383614bb7565b600082614c8157634e487b7160e01b600052601260045260246000fd5b500490565b600060208284031215614c9857600080fd5b8151610eb281614452565b600080600060608486031215614cb857600080fd5b8351925060208401519150604084015190509250925092565b60208082526011908201527034b9903737ba1031b7b73a3937b63632b960791b604082015260600190565b8082028115828204841417610f2057610f20614ae5565b600060018201614d2557614d25614ae5565b5060010190565b601f821115611afe57600081815260208120601f850160051c81016020861015614d535750805b601f850160051c820191505b81811015614d7257828155600101614d5f565b505050505050565b815167ffffffffffffffff811115614d9457614d946146de565b614da881614da28454614b0e565b84614d2c565b602080601f831160018114614ddd5760008415614dc55750858301515b600019600386901b1c1916600185901b178555614d72565b600085815260208120601f198616915b82811015614e0c57888601518255948401946001909101908401614ded565b5085821015614e2a5787850151600019600388901b60f8161c191681555b5050505050600190811b01905550565b6000808354614e4881614b0e565b60018281168015614e605760018114614e7557614ea4565b60ff1984168752821515830287019450614ea4565b8760005260208060002060005b85811015614e9b5781548a820152908401908201614e82565b50505082870194505b5092969550505050505056feddf252ad1be2c89b69c2b068fc378daa952ba7f163c4a11628f55a4df523b3efa26469706673582212200d9e09b590b0a43f94f0e0fd76a514457ba7100b4a6d1acdcea7f09087e9a35164736f6c63430008110033a26469706673582212201393ad601b0c1eaeb4050de174427c8290db8a8617b85a9fb7793dd4a1dd88fe64736f6c63430008110033",
    "linkReferences": {}
  },
  "methodIdentifiers": {
    "isVault(address)": "652b9b41",
    "newVault(address,address,bool,uint256,uint256,uint256,(uint256,uint256,uint256,uint256,uint256,uint256,uint256,uint256))": "da331333",
    "numVaults()": "264a6208"
  },
  "id": 7
}