{
  "abi": [
    {
      "inputs": [
        {
          "internalType": "address",
          "name": "_UNDERLYING",
          "type": "address"
        },
        {
          "internalType": "address",
          "name": "_controller",
          "type": "address"
        },
        {
          "internalType": "address",
          "name": "_owner",
          "type": "address"
        },
        {
          "internalType": "bool",
          "name": "_onlyVerified",
          "type": "bool"
        },
        {
          "internalType": "uint256",
          "name": "_r",
          "type": "uint256"
        },
        {
          "internalType": "uint256",
          "name": "_asset_limit",
          "type": "uint256"
        },
        {
          "internalType": "uint256",
          "name": "_total_asset_limit",
          "type": "uint256"
        },
        {
          "components": [
            {
              "internalType": "uint256",
              "name": "N",
              "type": "uint256"
            },
            {
              "internalType": "uint256",
              "name": "sigma",
              "type": "uint256"
            },
            {
              "internalType": "uint256",
              "name": "alpha",
              "type": "uint256"
            },
            {
              "internalType": "uint256",
              "name": "omega",
              "type": "uint256"
            },
            {
              "internalType": "uint256",
              "name": "delta",
              "type": "uint256"
            },
            {
              "internalType": "uint256",
              "name": "r",
              "type": "uint256"
            },
            {
              "internalType": "uint256",
              "name": "s",
              "type": "uint256"
            },
            {
              "internalType": "uint256",
              "name": "steak",
              "type": "uint256"
            }
          ],
          "internalType": "struct MarketManager.MarketParameters",
          "name": "_default_params",
          "type": "tuple"
        }
      ],
      "stateMutability": "nonpayable",
      "type": "constructor"
    },
    {
      "anonymous": false,
      "inputs": [
        {
          "indexed": true,
          "internalType": "address",
          "name": "owner",
          "type": "address"
        },
        {
          "indexed": true,
          "internalType": "address",
          "name": "spender",
          "type": "address"
        },
        {
          "indexed": false,
          "internalType": "uint256",
          "name": "amount",
          "type": "uint256"
        }
      ],
      "name": "Approval",
      "type": "event"
    },
    {
      "anonymous": false,
      "inputs": [
        {
          "indexed": true,
          "internalType": "address",
          "name": "caller",
          "type": "address"
        },
        {
          "indexed": true,
          "internalType": "address",
          "name": "owner",
          "type": "address"
        },
        {
          "indexed": false,
          "internalType": "uint256",
          "name": "assets",
          "type": "uint256"
        },
        {
          "indexed": false,
          "internalType": "uint256",
          "name": "shares",
          "type": "uint256"
        }
      ],
      "name": "Deposit",
      "type": "event"
    },
    {
      "anonymous": false,
      "inputs": [
        {
          "indexed": true,
          "internalType": "address",
          "name": "user",
          "type": "address"
        },
        {
          "indexed": true,
          "internalType": "contract Instrument",
          "name": "instrument",
          "type": "address"
        },
        {
          "indexed": false,
          "internalType": "uint256",
          "name": "underlyingAmount",
          "type": "uint256"
        }
      ],
      "name": "InstrumentDeposit",
      "type": "event"
    },
    {
      "anonymous": false,
      "inputs": [
        {
          "indexed": true,
          "internalType": "address",
          "name": "user",
          "type": "address"
        },
        {
          "indexed": true,
          "internalType": "contract Instrument",
          "name": "instrument",
          "type": "address"
        }
      ],
      "name": "InstrumentDistrusted",
      "type": "event"
    },
    {
      "anonymous": false,
      "inputs": [
        {
          "indexed": true,
          "internalType": "address",
          "name": "instrument",
          "type": "address"
        },
        {
          "indexed": false,
          "internalType": "uint256",
          "name": "instrument_balance",
          "type": "uint256"
        },
        {
          "indexed": false,
          "internalType": "uint256",
          "name": "mag",
          "type": "uint256"
        },
        {
          "indexed": false,
          "internalType": "bool",
          "name": "sign",
          "type": "bool"
        }
      ],
      "name": "InstrumentHarvest",
      "type": "event"
    },
    {
      "anonymous": false,
      "inputs": [
        {
          "indexed": true,
          "internalType": "address",
          "name": "user",
          "type": "address"
        },
        {
          "indexed": true,
          "internalType": "contract Instrument",
          "name": "instrument",
          "type": "address"
        }
      ],
      "name": "InstrumentTrusted",
      "type": "event"
    },
    {
      "anonymous": false,
      "inputs": [
        {
          "indexed": true,
          "internalType": "address",
          "name": "user",
          "type": "address"
        },
        {
          "indexed": true,
          "internalType": "contract Instrument",
          "name": "instrument",
          "type": "address"
        },
        {
          "indexed": false,
          "internalType": "uint256",
          "name": "underlyingAmount",
          "type": "uint256"
        }
      ],
      "name": "InstrumentWithdrawal",
      "type": "event"
    },
    {
      "anonymous": false,
      "inputs": [
        {
          "indexed": true,
          "internalType": "address",
          "name": "from",
          "type": "address"
        },
        {
          "indexed": true,
          "internalType": "address",
          "name": "to",
          "type": "address"
        },
        {
          "indexed": false,
          "internalType": "uint256",
          "name": "amount",
          "type": "uint256"
        }
      ],
      "name": "Transfer",
      "type": "event"
    },
    {
      "anonymous": false,
      "inputs": [
        {
          "indexed": true,
          "internalType": "address",
          "name": "caller",
          "type": "address"
        },
        {
          "indexed": true,
          "internalType": "address",
          "name": "receiver",
          "type": "address"
        },
        {
          "indexed": true,
          "internalType": "address",
          "name": "owner",
          "type": "address"
        },
        {
          "indexed": false,
          "internalType": "uint256",
          "name": "assets",
          "type": "uint256"
        },
        {
          "indexed": false,
          "internalType": "uint256",
          "name": "shares",
          "type": "uint256"
        }
      ],
      "name": "Withdraw",
      "type": "event"
    },
    {
      "inputs": [],
      "name": "DOMAIN_SEPARATOR",
      "outputs": [
        {
          "internalType": "bytes32",
          "name": "",
          "type": "bytes32"
        }
      ],
      "stateMutability": "view",
      "type": "function"
    },
    {
      "inputs": [
        {
          "internalType": "uint256",
          "name": "",
          "type": "uint256"
        }
      ],
      "name": "Instruments",
      "outputs": [
        {
          "internalType": "contract Instrument",
          "name": "",
          "type": "address"
        }
      ],
      "stateMutability": "view",
      "type": "function"
    },
    {
      "inputs": [],
      "name": "UNDERLYING",
      "outputs": [
        {
          "internalType": "contract ERC20",
          "name": "",
          "type": "address"
        }
      ],
      "stateMutability": "view",
      "type": "function"
    },
    {
      "inputs": [
        {
          "components": [
            {
              "internalType": "bytes32",
              "name": "name",
              "type": "bytes32"
            },
            {
              "internalType": "bool",
              "name": "isPool",
              "type": "bool"
            },
            {
              "internalType": "bool",
              "name": "trusted",
              "type": "bool"
            },
            {
              "internalType": "uint256",
              "name": "balance",
              "type": "uint256"
            },
            {
              "internalType": "uint256",
              "name": "faceValue",
              "type": "uint256"
            },
            {
              "internalType": "uint256",
              "name": "marketId",
              "type": "uint256"
            },
            {
              "internalType": "uint256",
              "name": "principal",
              "type": "uint256"
            },
            {
              "internalType": "uint256",
              "name": "expectedYield",
              "type": "uint256"
            },
            {
              "internalType": "uint256",
              "name": "duration",
              "type": "uint256"
            },
            {
              "internalType": "string",
              "name": "description",
              "type": "string"
            },
            {
              "internalType": "address",
              "name": "instrument_address",
              "type": "address"
            },
            {
              "internalType": "enum Vault.InstrumentType",
              "name": "instrument_type",
              "type": "uint8"
            },
            {
              "internalType": "uint256",
              "name": "maturityDate",
              "type": "uint256"
            },
            {
              "components": [
                {
                  "internalType": "uint256",
                  "name": "saleAmount",
                  "type": "uint256"
                },
                {
                  "internalType": "uint256",
                  "name": "initPrice",
                  "type": "uint256"
                },
                {
                  "internalType": "uint256",
                  "name": "promisedReturn",
                  "type": "uint256"
                },
                {
                  "internalType": "uint256",
                  "name": "inceptionTime",
                  "type": "uint256"
                },
                {
                  "internalType": "uint256",
                  "name": "inceptionPrice",
                  "type": "uint256"
                },
                {
                  "internalType": "uint256",
                  "name": "leverageFactor",
                  "type": "uint256"
                },
                {
                  "internalType": "uint256",
                  "name": "managementFee",
                  "type": "uint256"
                }
              ],
              "internalType": "struct Vault.PoolData",
              "name": "poolData",
              "type": "tuple"
            }
          ],
          "internalType": "struct Vault.InstrumentData",
          "name": "data",
          "type": "tuple"
        }
      ],
      "name": "addProposal",
      "outputs": [],
      "stateMutability": "nonpayable",
      "type": "function"
    },
    {
      "inputs": [
        {
          "internalType": "address",
          "name": "",
          "type": "address"
        },
        {
          "internalType": "address",
          "name": "",
          "type": "address"
        }
      ],
      "name": "allowance",
      "outputs": [
        {
          "internalType": "uint256",
          "name": "",
          "type": "uint256"
        }
      ],
      "stateMutability": "view",
      "type": "function"
    },
    {
      "inputs": [
        {
          "internalType": "address",
          "name": "spender",
          "type": "address"
        },
        {
          "internalType": "uint256",
          "name": "amount",
          "type": "uint256"
        }
      ],
      "name": "approve",
      "outputs": [
        {
          "internalType": "bool",
          "name": "",
          "type": "bool"
        }
      ],
      "stateMutability": "nonpayable",
      "type": "function"
    },
    {
      "inputs": [],
      "name": "asset",
      "outputs": [
        {
          "internalType": "contract ERC20",
          "name": "",
          "type": "address"
        }
      ],
      "stateMutability": "view",
      "type": "function"
    },
    {
      "inputs": [],
      "name": "asset_limit",
      "outputs": [
        {
          "internalType": "uint256",
          "name": "",
          "type": "uint256"
        }
      ],
      "stateMutability": "view",
      "type": "function"
    },
    {
      "inputs": [
        {
          "internalType": "address",
          "name": "ad",
          "type": "address"
        }
      ],
      "name": "balanceInUnderlying",
      "outputs": [
        {
          "internalType": "uint256",
          "name": "",
          "type": "uint256"
        }
      ],
      "stateMutability": "view",
      "type": "function"
    },
    {
      "inputs": [
        {
          "internalType": "address",
          "name": "",
          "type": "address"
        }
      ],
      "name": "balanceOf",
      "outputs": [
        {
          "internalType": "uint256",
          "name": "",
          "type": "uint256"
        }
      ],
      "stateMutability": "view",
      "type": "function"
    },
    {
      "inputs": [
        {
          "internalType": "uint256",
          "name": "marketId",
          "type": "uint256"
        }
      ],
      "name": "beforeResolve",
      "outputs": [],
      "stateMutability": "nonpayable",
      "type": "function"
    },
    {
      "inputs": [
        {
          "internalType": "uint256",
          "name": "shares",
          "type": "uint256"
        }
      ],
      "name": "burn",
      "outputs": [],
      "stateMutability": "nonpayable",
      "type": "function"
    },
    {
      "inputs": [
        {
          "internalType": "uint256",
          "name": "marketId",
          "type": "uint256"
        }
      ],
      "name": "closeInstrument",
      "outputs": [],
      "stateMutability": "nonpayable",
      "type": "function"
    },
    {
      "inputs": [
        {
          "internalType": "uint256",
          "name": "amount",
          "type": "uint256"
        },
        {
          "internalType": "address",
          "name": "bc_address",
          "type": "address"
        }
      ],
      "name": "controller_burn",
      "outputs": [],
      "stateMutability": "nonpayable",
      "type": "function"
    },
    {
      "inputs": [
        {
          "internalType": "uint256",
          "name": "amount",
          "type": "uint256"
        },
        {
          "internalType": "address",
          "name": "to",
          "type": "address"
        }
      ],
      "name": "controller_mint",
      "outputs": [],
      "stateMutability": "nonpayable",
      "type": "function"
    },
    {
      "inputs": [
        {
          "internalType": "uint256",
          "name": "shares",
          "type": "uint256"
        }
      ],
      "name": "convertToAssets",
      "outputs": [
        {
          "internalType": "uint256",
          "name": "",
          "type": "uint256"
        }
      ],
      "stateMutability": "view",
      "type": "function"
    },
    {
      "inputs": [
        {
          "internalType": "uint256",
          "name": "assets",
          "type": "uint256"
        }
      ],
      "name": "convertToShares",
      "outputs": [
        {
          "internalType": "uint256",
          "name": "",
          "type": "uint256"
        }
      ],
      "stateMutability": "view",
      "type": "function"
    },
    {
      "inputs": [
        {
          "internalType": "uint256",
          "name": "assets",
          "type": "uint256"
        }
      ],
      "name": "decAssetsToShares",
      "outputs": [
        {
          "internalType": "uint256",
          "name": "",
          "type": "uint256"
        }
      ],
      "stateMutability": "view",
      "type": "function"
    },
    {
      "inputs": [
        {
          "internalType": "uint256",
          "name": "shares",
          "type": "uint256"
        }
      ],
      "name": "decSharesToAssets",
      "outputs": [
        {
          "internalType": "uint256",
          "name": "",
          "type": "uint256"
        }
      ],
      "stateMutability": "view",
      "type": "function"
    },
    {
      "inputs": [],
      "name": "decimal_mismatch",
      "outputs": [
        {
          "internalType": "bool",
          "name": "",
          "type": "bool"
        }
      ],
      "stateMutability": "view",
      "type": "function"
    },
    {
      "inputs": [],
      "name": "decimals",
      "outputs": [
        {
          "internalType": "uint8",
          "name": "",
          "type": "uint8"
        }
      ],
      "stateMutability": "view",
      "type": "function"
    },
    {
      "inputs": [
        {
          "internalType": "uint256",
          "name": "marketId",
          "type": "uint256"
        }
      ],
      "name": "denyInstrument",
      "outputs": [],
      "stateMutability": "nonpayable",
      "type": "function"
    },
    {
      "inputs": [
        {
          "internalType": "uint256",
          "name": "assets",
          "type": "uint256"
        },
        {
          "internalType": "address",
          "name": "receiver",
          "type": "address"
        }
      ],
      "name": "deposit",
      "outputs": [
        {
          "internalType": "uint256",
          "name": "shares",
          "type": "uint256"
        }
      ],
      "stateMutability": "nonpayable",
      "type": "function"
    },
    {
      "inputs": [
        {
          "internalType": "uint256",
          "name": "marketId",
          "type": "uint256"
        },
        {
          "internalType": "uint256",
          "name": "underlyingAmount",
          "type": "uint256"
        }
      ],
      "name": "depositIntoInstrument",
      "outputs": [],
      "stateMutability": "nonpayable",
      "type": "function"
    },
    {
      "inputs": [
        {
          "internalType": "contract Instrument",
          "name": "instrument",
          "type": "address"
        }
      ],
      "name": "distrustInstrument",
      "outputs": [],
      "stateMutability": "nonpayable",
      "type": "function"
    },
    {
      "inputs": [
        {
          "internalType": "uint256",
          "name": "amounts",
          "type": "uint256"
        }
      ],
      "name": "enoughLiqudity",
      "outputs": [
        {
          "internalType": "bool",
          "name": "",
          "type": "bool"
        }
      ],
      "stateMutability": "view",
      "type": "function"
    },
    {
      "inputs": [
        {
          "internalType": "uint256",
          "name": "marketId",
          "type": "uint256"
        }
      ],
      "name": "fetchInstrument",
      "outputs": [
        {
          "internalType": "contract Instrument",
          "name": "",
          "type": "address"
        }
      ],
      "stateMutability": "view",
      "type": "function"
    },
    {
      "inputs": [
        {
          "internalType": "uint256",
          "name": "marketId",
          "type": "uint256"
        }
      ],
      "name": "fetchInstrumentData",
      "outputs": [
        {
          "components": [
            {
              "internalType": "bytes32",
              "name": "name",
              "type": "bytes32"
            },
            {
              "internalType": "bool",
              "name": "isPool",
              "type": "bool"
            },
            {
              "internalType": "bool",
              "name": "trusted",
              "type": "bool"
            },
            {
              "internalType": "uint256",
              "name": "balance",
              "type": "uint256"
            },
            {
              "internalType": "uint256",
              "name": "faceValue",
              "type": "uint256"
            },
            {
              "internalType": "uint256",
              "name": "marketId",
              "type": "uint256"
            },
            {
              "internalType": "uint256",
              "name": "principal",
              "type": "uint256"
            },
            {
              "internalType": "uint256",
              "name": "expectedYield",
              "type": "uint256"
            },
            {
              "internalType": "uint256",
              "name": "duration",
              "type": "uint256"
            },
            {
              "internalType": "string",
              "name": "description",
              "type": "string"
            },
            {
              "internalType": "address",
              "name": "instrument_address",
              "type": "address"
            },
            {
              "internalType": "enum Vault.InstrumentType",
              "name": "instrument_type",
              "type": "uint8"
            },
            {
              "internalType": "uint256",
              "name": "maturityDate",
              "type": "uint256"
            },
            {
              "components": [
                {
                  "internalType": "uint256",
                  "name": "saleAmount",
                  "type": "uint256"
                },
                {
                  "internalType": "uint256",
                  "name": "initPrice",
                  "type": "uint256"
                },
                {
                  "internalType": "uint256",
                  "name": "promisedReturn",
                  "type": "uint256"
                },
                {
                  "internalType": "uint256",
                  "name": "inceptionTime",
                  "type": "uint256"
                },
                {
                  "internalType": "uint256",
                  "name": "inceptionPrice",
                  "type": "uint256"
                },
                {
                  "internalType": "uint256",
                  "name": "leverageFactor",
                  "type": "uint256"
                },
                {
                  "internalType": "uint256",
                  "name": "managementFee",
                  "type": "uint256"
                }
              ],
              "internalType": "struct Vault.PoolData",
              "name": "poolData",
              "type": "tuple"
            }
          ],
          "internalType": "struct Vault.InstrumentData",
          "name": "",
          "type": "tuple"
        }
      ],
      "stateMutability": "view",
      "type": "function"
    },
    {
      "inputs": [
        {
          "internalType": "uint256",
          "name": "marketId",
          "type": "uint256"
        }
      ],
      "name": "fetchPoolTrancheData",
      "outputs": [
        {
          "internalType": "uint256",
          "name": "",
          "type": "uint256"
        },
        {
          "internalType": "uint256",
          "name": "",
          "type": "uint256"
        },
        {
          "internalType": "uint256",
          "name": "",
          "type": "uint256"
        },
        {
          "internalType": "uint256",
          "name": "",
          "type": "uint256"
        },
        {
          "internalType": "uint256",
          "name": "",
          "type": "uint256"
        }
      ],
      "stateMutability": "view",
      "type": "function"
    },
    {
      "inputs": [
        {
          "internalType": "contract Instrument",
          "name": "_instrument",
          "type": "address"
        }
      ],
      "name": "getInstrumentData",
      "outputs": [
        {
          "components": [
            {
              "internalType": "bytes32",
              "name": "name",
              "type": "bytes32"
            },
            {
              "internalType": "bool",
              "name": "isPool",
              "type": "bool"
            },
            {
              "internalType": "bool",
              "name": "trusted",
              "type": "bool"
            },
            {
              "internalType": "uint256",
              "name": "balance",
              "type": "uint256"
            },
            {
              "internalType": "uint256",
              "name": "faceValue",
              "type": "uint256"
            },
            {
              "internalType": "uint256",
              "name": "marketId",
              "type": "uint256"
            },
            {
              "internalType": "uint256",
              "name": "principal",
              "type": "uint256"
            },
            {
              "internalType": "uint256",
              "name": "expectedYield",
              "type": "uint256"
            },
            {
              "internalType": "uint256",
              "name": "duration",
              "type": "uint256"
            },
            {
              "internalType": "string",
              "name": "description",
              "type": "string"
            },
            {
              "internalType": "address",
              "name": "instrument_address",
              "type": "address"
            },
            {
              "internalType": "enum Vault.InstrumentType",
              "name": "instrument_type",
              "type": "uint8"
            },
            {
              "internalType": "uint256",
              "name": "maturityDate",
              "type": "uint256"
            },
            {
              "components": [
                {
                  "internalType": "uint256",
                  "name": "saleAmount",
                  "type": "uint256"
                },
                {
                  "internalType": "uint256",
                  "name": "initPrice",
                  "type": "uint256"
                },
                {
                  "internalType": "uint256",
                  "name": "promisedReturn",
                  "type": "uint256"
                },
                {
                  "internalType": "uint256",
                  "name": "inceptionTime",
                  "type": "uint256"
                },
                {
                  "internalType": "uint256",
                  "name": "inceptionPrice",
                  "type": "uint256"
                },
                {
                  "internalType": "uint256",
                  "name": "leverageFactor",
                  "type": "uint256"
                },
                {
                  "internalType": "uint256",
                  "name": "managementFee",
                  "type": "uint256"
                }
              ],
              "internalType": "struct Vault.PoolData",
              "name": "poolData",
              "type": "tuple"
            }
          ],
          "internalType": "struct Vault.InstrumentData",
          "name": "",
          "type": "tuple"
        }
      ],
      "stateMutability": "view",
      "type": "function"
    },
    {
      "inputs": [
        {
          "internalType": "uint256",
          "name": "marketId",
          "type": "uint256"
        }
      ],
      "name": "getInstrumentType",
      "outputs": [
        {
          "internalType": "uint256",
          "name": "",
          "type": "uint256"
        }
      ],
      "stateMutability": "view",
      "type": "function"
    },
    {
      "inputs": [],
      "name": "get_vault_params",
      "outputs": [
        {
          "components": [
            {
              "internalType": "uint256",
              "name": "N",
              "type": "uint256"
            },
            {
              "internalType": "uint256",
              "name": "sigma",
              "type": "uint256"
            },
            {
              "internalType": "uint256",
              "name": "alpha",
              "type": "uint256"
            },
            {
              "internalType": "uint256",
              "name": "omega",
              "type": "uint256"
            },
            {
              "internalType": "uint256",
              "name": "delta",
              "type": "uint256"
            },
            {
              "internalType": "uint256",
              "name": "r",
              "type": "uint256"
            },
            {
              "internalType": "uint256",
              "name": "s",
              "type": "uint256"
            },
            {
              "internalType": "uint256",
              "name": "steak",
              "type": "uint256"
            }
          ],
          "internalType": "struct MarketManager.MarketParameters",
          "name": "",
          "type": "tuple"
        }
      ],
      "stateMutability": "view",
      "type": "function"
    },
    {
      "inputs": [
        {
          "internalType": "address",
          "name": "instrument",
          "type": "address"
        }
      ],
      "name": "harvest",
      "outputs": [],
      "stateMutability": "nonpayable",
      "type": "function"
    },
    {
      "inputs": [
        {
          "internalType": "uint256",
          "name": "marketId",
          "type": "uint256"
        }
      ],
      "name": "instrumentApprovalCondition",
      "outputs": [
        {
          "internalType": "bool",
          "name": "",
          "type": "bool"
        }
      ],
      "stateMutability": "view",
      "type": "function"
    },
    {
      "inputs": [
        {
          "internalType": "uint256",
          "name": "marketId",
          "type": "uint256"
        },
        {
          "internalType": "uint256",
          "name": "juniorSupply",
          "type": "uint256"
        },
        {
          "internalType": "uint256",
          "name": "seniorSupply",
          "type": "uint256"
        }
      ],
      "name": "instrumentAssetOracle",
      "outputs": [
        {
          "internalType": "uint256",
          "name": "",
          "type": "uint256"
        }
      ],
      "stateMutability": "view",
      "type": "function"
    },
    {
      "inputs": [
        {
          "internalType": "contract Instrument",
          "name": "",
          "type": "address"
        }
      ],
      "name": "instrument_data",
      "outputs": [
        {
          "internalType": "bytes32",
          "name": "name",
          "type": "bytes32"
        },
        {
          "internalType": "bool",
          "name": "isPool",
          "type": "bool"
        },
        {
          "internalType": "bool",
          "name": "trusted",
          "type": "bool"
        },
        {
          "internalType": "uint256",
          "name": "balance",
          "type": "uint256"
        },
        {
          "internalType": "uint256",
          "name": "faceValue",
          "type": "uint256"
        },
        {
          "internalType": "uint256",
          "name": "marketId",
          "type": "uint256"
        },
        {
          "internalType": "uint256",
          "name": "principal",
          "type": "uint256"
        },
        {
          "internalType": "uint256",
          "name": "expectedYield",
          "type": "uint256"
        },
        {
          "internalType": "uint256",
          "name": "duration",
          "type": "uint256"
        },
        {
          "internalType": "string",
          "name": "description",
          "type": "string"
        },
        {
          "internalType": "address",
          "name": "instrument_address",
          "type": "address"
        },
        {
          "internalType": "enum Vault.InstrumentType",
          "name": "instrument_type",
          "type": "uint8"
        },
        {
          "internalType": "uint256",
          "name": "maturityDate",
          "type": "uint256"
        },
        {
          "components": [
            {
              "internalType": "uint256",
              "name": "saleAmount",
              "type": "uint256"
            },
            {
              "internalType": "uint256",
              "name": "initPrice",
              "type": "uint256"
            },
            {
              "internalType": "uint256",
              "name": "promisedReturn",
              "type": "uint256"
            },
            {
              "internalType": "uint256",
              "name": "inceptionTime",
              "type": "uint256"
            },
            {
              "internalType": "uint256",
              "name": "inceptionPrice",
              "type": "uint256"
            },
            {
              "internalType": "uint256",
              "name": "leverageFactor",
              "type": "uint256"
            },
            {
              "internalType": "uint256",
              "name": "managementFee",
              "type": "uint256"
            }
          ],
          "internalType": "struct Vault.PoolData",
          "name": "poolData",
          "type": "tuple"
        }
      ],
      "stateMutability": "view",
      "type": "function"
    },
    {
      "inputs": [
        {
          "internalType": "contract Instrument",
          "name": "instrument",
          "type": "address"
        }
      ],
      "name": "isTrusted",
      "outputs": [
        {
          "internalType": "bool",
          "name": "",
          "type": "bool"
        }
      ],
      "stateMutability": "view",
      "type": "function"
    },
    {
      "inputs": [
        {
          "internalType": "address",
          "name": "",
          "type": "address"
        }
      ],
      "name": "maxDeposit",
      "outputs": [
        {
          "internalType": "uint256",
          "name": "",
          "type": "uint256"
        }
      ],
      "stateMutability": "view",
      "type": "function"
    },
    {
      "inputs": [
        {
          "internalType": "address",
          "name": "",
          "type": "address"
        }
      ],
      "name": "maxMint",
      "outputs": [
        {
          "internalType": "uint256",
          "name": "",
          "type": "uint256"
        }
      ],
      "stateMutability": "view",
      "type": "function"
    },
    {
      "inputs": [
        {
          "internalType": "address",
          "name": "owner",
          "type": "address"
        }
      ],
      "name": "maxRedeem",
      "outputs": [
        {
          "internalType": "uint256",
          "name": "",
          "type": "uint256"
        }
      ],
      "stateMutability": "view",
      "type": "function"
    },
    {
      "inputs": [
        {
          "internalType": "address",
          "name": "owner",
          "type": "address"
        }
      ],
      "name": "maxWithdraw",
      "outputs": [
        {
          "internalType": "uint256",
          "name": "",
          "type": "uint256"
        }
      ],
      "stateMutability": "view",
      "type": "function"
    },
    {
      "inputs": [
        {
          "internalType": "uint256",
          "name": "shares",
          "type": "uint256"
        },
        {
          "internalType": "address",
          "name": "receiver",
          "type": "address"
        }
      ],
      "name": "mint",
      "outputs": [
        {
          "internalType": "uint256",
          "name": "assets",
          "type": "uint256"
        }
      ],
      "stateMutability": "nonpayable",
      "type": "function"
    },
    {
      "inputs": [],
      "name": "name",
      "outputs": [
        {
          "internalType": "string",
          "name": "",
          "type": "string"
        }
      ],
      "stateMutability": "view",
      "type": "function"
    },
    {
      "inputs": [
        {
          "internalType": "address",
          "name": "",
          "type": "address"
        }
      ],
      "name": "nonces",
      "outputs": [
        {
          "internalType": "uint256",
          "name": "",
          "type": "uint256"
        }
      ],
      "stateMutability": "view",
      "type": "function"
    },
    {
      "inputs": [
        {
          "internalType": "address",
          "name": "",
          "type": "address"
        }
      ],
      "name": "num_proposals",
      "outputs": [
        {
          "internalType": "uint256",
          "name": "",
          "type": "uint256"
        }
      ],
      "stateMutability": "view",
      "type": "function"
    },
    {
      "inputs": [],
      "name": "onlyVerified",
      "outputs": [
        {
          "internalType": "bool",
          "name": "",
          "type": "bool"
        }
      ],
      "stateMutability": "view",
      "type": "function"
    },
    {
      "inputs": [],
      "name": "owner",
      "outputs": [
        {
          "internalType": "address",
          "name": "",
          "type": "address"
        }
      ],
      "stateMutability": "view",
      "type": "function"
    },
    {
      "inputs": [
        {
          "internalType": "address",
          "name": "owner",
          "type": "address"
        },
        {
          "internalType": "address",
          "name": "spender",
          "type": "address"
        },
        {
          "internalType": "uint256",
          "name": "value",
          "type": "uint256"
        },
        {
          "internalType": "uint256",
          "name": "deadline",
          "type": "uint256"
        },
        {
          "internalType": "uint8",
          "name": "v",
          "type": "uint8"
        },
        {
          "internalType": "bytes32",
          "name": "r",
          "type": "bytes32"
        },
        {
          "internalType": "bytes32",
          "name": "s",
          "type": "bytes32"
        }
      ],
      "name": "permit",
      "outputs": [],
      "stateMutability": "nonpayable",
      "type": "function"
    },
    {
      "inputs": [
        {
          "internalType": "address",
          "name": "instrument",
          "type": "address"
        },
        {
          "internalType": "bool",
          "name": "premature",
          "type": "bool"
        }
      ],
      "name": "pingMaturity",
      "outputs": [],
      "stateMutability": "nonpayable",
      "type": "function"
    },
    {
      "inputs": [
        {
          "internalType": "uint256",
          "name": "marketId",
          "type": "uint256"
        }
      ],
      "name": "poolZCBValue",
      "outputs": [
        {
          "internalType": "uint256",
          "name": "psu",
          "type": "uint256"
        },
        {
          "internalType": "uint256",
          "name": "pju",
          "type": "uint256"
        },
        {
          "internalType": "uint256",
          "name": "levFactor",
          "type": "uint256"
        }
      ],
      "stateMutability": "view",
      "type": "function"
    },
    {
      "inputs": [
        {
          "internalType": "uint256",
          "name": "assets",
          "type": "uint256"
        }
      ],
      "name": "previewDeposit",
      "outputs": [
        {
          "internalType": "uint256",
          "name": "",
          "type": "uint256"
        }
      ],
      "stateMutability": "view",
      "type": "function"
    },
    {
      "inputs": [
        {
          "internalType": "uint256",
          "name": "shares",
          "type": "uint256"
        }
      ],
      "name": "previewMint",
      "outputs": [
        {
          "internalType": "uint256",
          "name": "",
          "type": "uint256"
        }
      ],
      "stateMutability": "view",
      "type": "function"
    },
    {
      "inputs": [
        {
          "internalType": "uint256",
          "name": "shares",
          "type": "uint256"
        }
      ],
      "name": "previewRedeem",
      "outputs": [
        {
          "internalType": "uint256",
          "name": "",
          "type": "uint256"
        }
      ],
      "stateMutability": "view",
      "type": "function"
    },
    {
      "inputs": [
        {
          "internalType": "uint256",
          "name": "assets",
          "type": "uint256"
        }
      ],
      "name": "previewWithdraw",
      "outputs": [
        {
          "internalType": "uint256",
          "name": "",
          "type": "uint256"
        }
      ],
      "stateMutability": "view",
      "type": "function"
    },
    {
      "inputs": [],
      "name": "r",
      "outputs": [
        {
          "internalType": "uint256",
          "name": "",
          "type": "uint256"
        }
      ],
      "stateMutability": "view",
      "type": "function"
    },
    {
      "inputs": [
        {
          "internalType": "address",
          "name": "receiver",
          "type": "address"
        }
      ],
      "name": "receiver_conditions",
      "outputs": [
        {
          "internalType": "bool",
          "name": "",
          "type": "bool"
        }
      ],
      "stateMutability": "view",
      "type": "function"
    },
    {
      "inputs": [
        {
          "internalType": "uint256",
          "name": "shares",
          "type": "uint256"
        },
        {
          "internalType": "address",
          "name": "receiver",
          "type": "address"
        },
        {
          "internalType": "address",
          "name": "owner",
          "type": "address"
        }
      ],
      "name": "redeem",
      "outputs": [
        {
          "internalType": "uint256",
          "name": "assets",
          "type": "uint256"
        }
      ],
      "stateMutability": "nonpayable",
      "type": "function"
    },
    {
      "inputs": [
        {
          "internalType": "address",
          "name": "to",
          "type": "address"
        },
        {
          "internalType": "uint256",
          "name": "amount",
          "type": "uint256"
        }
      ],
      "name": "repayDebt",
      "outputs": [],
      "stateMutability": "nonpayable",
      "type": "function"
    },
    {
      "inputs": [
        {
          "internalType": "uint256",
          "name": "marketId",
          "type": "uint256"
        }
      ],
      "name": "resolveInstrument",
      "outputs": [
        {
          "internalType": "bool",
          "name": "",
          "type": "bool"
        },
        {
          "internalType": "uint256",
          "name": "",
          "type": "uint256"
        },
        {
          "internalType": "uint256",
          "name": "",
          "type": "uint256"
        },
        {
          "internalType": "bool",
          "name": "",
          "type": "bool"
        }
      ],
      "stateMutability": "nonpayable",
      "type": "function"
    },
    {
      "inputs": [],
      "name": "symbol",
      "outputs": [
        {
          "internalType": "string",
          "name": "",
          "type": "string"
        }
      ],
      "stateMutability": "view",
      "type": "function"
    },
    {
      "inputs": [],
      "name": "totalAssets",
      "outputs": [
        {
          "internalType": "uint256",
          "name": "",
          "type": "uint256"
        }
      ],
      "stateMutability": "view",
      "type": "function"
    },
    {
      "inputs": [],
      "name": "totalFloat",
      "outputs": [
        {
          "internalType": "uint256",
          "name": "",
          "type": "uint256"
        }
      ],
      "stateMutability": "view",
      "type": "function"
    },
    {
      "inputs": [],
      "name": "totalSupply",
      "outputs": [
        {
          "internalType": "uint256",
          "name": "",
          "type": "uint256"
        }
      ],
      "stateMutability": "view",
      "type": "function"
    },
    {
      "inputs": [],
      "name": "total_asset_limit",
      "outputs": [
        {
          "internalType": "uint256",
          "name": "",
          "type": "uint256"
        }
      ],
      "stateMutability": "view",
      "type": "function"
    },
    {
      "inputs": [
        {
          "internalType": "address",
          "name": "to",
          "type": "address"
        },
        {
          "internalType": "uint256",
          "name": "amount",
          "type": "uint256"
        }
      ],
      "name": "transfer",
      "outputs": [
        {
          "internalType": "bool",
          "name": "",
          "type": "bool"
        }
      ],
      "stateMutability": "nonpayable",
      "type": "function"
    },
    {
      "inputs": [
        {
          "internalType": "address",
          "name": "from",
          "type": "address"
        },
        {
          "internalType": "address",
          "name": "to",
          "type": "address"
        },
        {
          "internalType": "uint256",
          "name": "amount",
          "type": "uint256"
        }
      ],
      "name": "transferFrom",
      "outputs": [
        {
          "internalType": "bool",
          "name": "",
          "type": "bool"
        }
      ],
      "stateMutability": "nonpayable",
      "type": "function"
    },
    {
      "inputs": [
        {
          "internalType": "uint256",
          "name": "marketId",
          "type": "uint256"
        },
        {
          "components": [
            {
              "internalType": "uint256",
              "name": "managers_stake",
              "type": "uint256"
            },
            {
              "internalType": "uint256",
              "name": "approved_principal",
              "type": "uint256"
            },
            {
              "internalType": "uint256",
              "name": "approved_yield",
              "type": "uint256"
            }
          ],
          "internalType": "struct Controller.ApprovalData",
          "name": "data",
          "type": "tuple"
        },
        {
          "internalType": "bool",
          "name": "isPool",
          "type": "bool"
        }
      ],
      "name": "trustInstrument",
      "outputs": [],
      "stateMutability": "nonpayable",
      "type": "function"
    },
    {
      "inputs": [
        {
          "internalType": "uint256",
          "name": "amount",
          "type": "uint256"
        },
        {
          "internalType": "address",
          "name": "to",
          "type": "address"
        }
      ],
      "name": "trusted_transfer",
      "outputs": [],
      "stateMutability": "nonpayable",
      "type": "function"
    },
    {
      "inputs": [],
      "name": "utilizationRate",
      "outputs": [
        {
          "internalType": "uint256",
          "name": "",
          "type": "uint256"
        }
      ],
      "stateMutability": "view",
      "type": "function"
    },
    {
      "inputs": [
        {
          "internalType": "uint256",
          "name": "marketId",
          "type": "uint256"
        }
      ],
      "name": "viewPrincipalAndYield",
      "outputs": [
        {
          "internalType": "uint256",
          "name": "",
          "type": "uint256"
        },
        {
          "internalType": "uint256",
          "name": "",
          "type": "uint256"
        }
      ],
      "stateMutability": "view",
      "type": "function"
    },
    {
      "inputs": [
        {
          "internalType": "uint256",
          "name": "assets",
          "type": "uint256"
        },
        {
          "internalType": "address",
          "name": "receiver",
          "type": "address"
        },
        {
          "internalType": "address",
          "name": "owner",
          "type": "address"
        }
      ],
      "name": "withdraw",
      "outputs": [
        {
          "internalType": "uint256",
          "name": "shares",
          "type": "uint256"
        }
      ],
      "stateMutability": "nonpayable",
      "type": "function"
    },
    {
      "inputs": [
        {
          "internalType": "uint256",
          "name": "marketId",
          "type": "uint256"
        },
        {
          "internalType": "uint256",
          "name": "instrumentPullAmount",
          "type": "uint256"
        },
        {
          "internalType": "address",
          "name": "pushTo",
          "type": "address"
        },
        {
          "internalType": "uint256",
          "name": "underlyingAmount",
          "type": "uint256"
        }
      ],
      "name": "withdrawFromPoolInstrument",
      "outputs": [],
      "stateMutability": "nonpayable",
      "type": "function"
    }
  ],
  "bytecode": {
    "object": "0x6101406040523480156200001257600080fd5b50604051620058e7380380620058e7833981016040819052620000359162000562565b87886001600160a01b03166306fdde036040518163ffffffff1660e01b8152600401600060405180830381865afa15801562000075573d6000803e3d6000fd5b505050506040513d6000823e601f3d908101601f191682016040526200009f919081019062000686565b604051602001620000b191906200073e565b604051602081830303815290604052896001600160a01b03166395d89b416040518163ffffffff1660e01b8152600401600060405180830381865afa158015620000ff573d6000803e3d6000fd5b505050506040513d6000823e601f3d908101601f1916820160405262000129919081019062000686565b6040516020016200013b91906200077f565b60408051601f198184030181529190528181601260006200015d84826200083a565b5060016200016c83826200083a565b5060ff81166080524660a0526200018262000467565b60c0525050506001600160a01b03831660e08190526040805163313ce56760e01b8152905163313ce567916004808201926020929091908290030181865afa158015620001d3573d6000803e3d6000fd5b505050506040513d601f19601f82011682018060405250810190620001f9919062000906565b60ff166101008181525050601260ff16836001600160a01b031663313ce5676040518163ffffffff1660e01b8152600401602060405180830381865afa15801562000248573d6000803e3d6000fd5b505050506040513d601f19601f820116820180604052508101906200026e919062000906565b6006805460ff191660ff9283169390931415928317905516156200030957601260ff16836001600160a01b031663313ce5676040518163ffffffff1660e01b8152600401602060405180830381865afa158015620002d0573d6000803e3d6000fd5b505050506040513d601f19601f82011682018060405250810190620002f6919062000906565b60ff161062000309576200030962000932565b5050601b80546001600160a01b0319166001600160a01b038981169190911790915589166101208190526040805163313ce56760e01b8152905191925063313ce5679160048083019260209291908290030181865afa15801562000371573d6000803e3d6000fd5b505050506040513d601f19601f8201168201806040525081019062000397919062000906565b60ff16601214620003d95760405162461bcd60e51b8152602060048201526008602482015267646563696d616c7360c01b604482015260640160405180910390fd5b670de0b6b3a7640000600755600980546001600160a01b0319166001600160a01b0389161790556012805460ff19168615151790556013849055601483905560158290558051600a556020810151600b556040810151600c556060810151600d556080810151600e5560a0810151600f5560c081015160105560e0015160115550620009c695505050505050565b60007f8b73c3c69bb8fe3d512ecc4cf759cc79239f7b179b0ffacaa9a75d522b39400f60006040516200049b919062000948565b6040805191829003822060208301939093528101919091527fc89efdaa54c0f20c7adf612882df0950f5a951637e0307cdcb4c672f298b8bc660608201524660808201523060a082015260c00160405160208183030381529060405280519060200120905090565b80516001600160a01b03811681146200051b57600080fd5b919050565b634e487b7160e01b600052604160045260246000fd5b60405161010081016001600160401b03811182821017156200055c576200055c62000520565b60405290565b600080600080600080600080888a036101e08112156200058157600080fd5b6200058c8a62000503565b98506200059c60208b0162000503565b9750620005ac60408b0162000503565b965060608a01518015158114620005c257600080fd5b8096505060808a0151945060a08a0151935060c08a015192506101008060df1983011215620005f057600080fd5b620005fa62000536565b915060e08b01518252808b01516020830152506101208a015160408201526101408a015160608201526101608a015160808201526101808a015160a08201526101a08a015160c08201526101c08a015160e0820152809150509295985092959890939650565b60005b838110156200067d57818101518382015260200162000663565b50506000910152565b6000602082840312156200069957600080fd5b81516001600160401b0380821115620006b157600080fd5b818401915084601f830112620006c657600080fd5b815181811115620006db57620006db62000520565b604051601f8201601f19908116603f0116810190838211818310171562000706576200070662000520565b816040528281528760208487010111156200072057600080fd5b6200073383602083016020880162000660565b979650505050505050565b6603232b134ba30960cd1b8152600082516200076281600785016020870162000660565b650815985d5b1d60d21b6007939091019283015250600d01919050565b61323160f11b8152600082516200079e81600285016020870162000660565b9190910160020192915050565b600181811c90821680620007c057607f821691505b602082108103620007e157634e487b7160e01b600052602260045260246000fd5b50919050565b601f8211156200083557600081815260208120601f850160051c81016020861015620008105750805b601f850160051c820191505b8181101562000831578281556001016200081c565b5050505b505050565b81516001600160401b0381111562000856576200085662000520565b6200086e81620008678454620007ab565b84620007e7565b602080601f831160018114620008a657600084156200088d5750858301515b600019600386901b1c1916600185901b17855562000831565b600085815260208120601f198616915b82811015620008d757888601518255948401946001909101908401620008b6565b5085821015620008f65787850151600019600388901b60f8161c191681555b5050505050600190811b01905550565b6000602082840312156200091957600080fd5b815160ff811681146200092b57600080fd5b9392505050565b634e487b7160e01b600052600160045260246000fd5b60008083546200095881620007ab565b600182811680156200097357600181146200098957620009ba565b60ff1984168752821515830287019450620009ba565b8760005260208060002060005b85811015620009b15781548a82015290840190820162000996565b50505082870194505b50929695505050505050565b60805160a05160c05160e0516101005161012051614e7662000a716000396000818161092c015281816110c301528181611eb601528181611f3c0152818161261201528181612741015281816133a0015281816137f801526139c901526000818161106601526120520152600081816105e501528181611d3301528181611fc9015281816129a40152612af0015260006115ab0152600061157b015260006105a40152614e766000f3fe608060405234801561001057600080fd5b50600436106104285760003560e01c80637ecebe001161022b578063c6e6f59211610130578063e134cc82116100b8578063edb53d3e11610087578063edb53d3e14610aa9578063ef8b30f714610abc578063f05bcfb414610acf578063f7d070de14610ae2578063fc173fc614610aef57600080fd5b8063e134cc8214610a38578063e3fac5bf14610a6f578063e4cc3e7614610a82578063e9a23d3a14610a9557600080fd5b8063d505accf116100ff578063d505accf146109ab578063d746d3ef146109be578063d905777e146109d1578063dc361a13146109fa578063dd62ed3e14610a0d57600080fd5b8063c6e6f5921461094e578063c83baf4e14610961578063ca13e4501461096a578063ce96cb771461099857600080fd5b8063a9059cbb116101b3578063b460af9411610182578063b460af94146108ee578063ba08765214610901578063bebf7a0414610914578063c5d664c614610927578063c63d75b61461061f57600080fd5b8063a9059cbb146108a2578063ab0c79d0146108b5578063b19b1f91146108c8578063b3d7f6b9146108db57600080fd5b806395d89b41116101fa57806395d89b411461084e57806396ce9d5a1461085657806396d648791461086957806398d796e71461087c5780639ec4d40e1461088f57600080fd5b80637ecebe0014610800578063841219e5146108205780638da5cb5b1461082857806394bf804d1461083b57600080fd5b8063402d267d116103315780635f260bb8116102b95780636c8ae38c116102885780636c8ae38c146107485780636e553f651461075157806370a08231146107645780637572cb1f1461078457806379e20bdc146107ed57600080fd5b80635f260bb8146106ef57806360d4efa4146106f8578063692eba09146107205780636c321c8a1461074057600080fd5b80634cdad506116103005780634cdad5061461066d5780634dc54a38146106805780634e1afd00146106a057806350c6e6cf146106b357806359dc5c6f146106dc57600080fd5b8063402d267d1461061f57806342966c6814610634578063471e1cea146106475780634bd3c9a81461065a57600080fd5b8063139f4b6f116103b457806323b872dd1161038357806323b872dd146105795780632b8587341461058c578063313ce5671461059f5780633644e515146105d857806338d52e0f146105e057600080fd5b8063139f4b6f1461051d57806318160ddd14610530578063213a7d521461053957806322f0e0691461054c57600080fd5b8063095ea7b3116103fb578063095ea7b3146104ab5780630a28a477146104ce5780630e5c011e146104e15780630f65cbc4146104f65780631316dbde1461050a57600080fd5b806301e1d1141461042d57806306fdde0314610448578063076125a91461045d57806307a2d13a14610498575b600080fd5b610435610afc565b6040519081526020015b60405180910390f35b610450610b18565b60405161043f919061427c565b61047061046b36600461428f565b610ba6565b604080519586526020860194909452928401919091526060830152608082015260a00161043f565b6104356104a636600461428f565b610dd2565b6104be6104b93660046142cd565b610e16565b604051901515815260200161043f565b6104356104dc36600461428f565b610e83565b6104f46104ef3660046142f9565b610ebc565b005b61043561050436600461428f565b50600090565b61043561051836600461428f565b61105f565b6104be61052b36600461428f565b6110a1565b61043560025481565b6104f461054736600461432f565b611136565b61055f61055a3660046142f9565b61119f565b60405161043f9e9d9c9b9a999897969594939291906143e4565b6104be61058736600461447d565b6112e8565b6104f461059a36600461428f565b6113c8565b6105c67f000000000000000000000000000000000000000000000000000000000000000081565b60405160ff909116815260200161043f565b610435611577565b6106077f000000000000000000000000000000000000000000000000000000000000000081565b6040516001600160a01b03909116815260200161043f565b61043561062d3660046142f9565b5060001990565b6104f461064236600461428f565b6115cd565b6104be61065536600461428f565b6115da565b6104356106683660046144be565b611650565b61043561067b36600461428f565b611688565b61069361068e3660046142f9565b611693565b60405161043f91906144ea565b6104f46106ae36600461460e565b61186d565b6106076106c136600461428f565b6018602052600090815260409020546001600160a01b031681565b6104f46106ea36600461428f565b611a04565b61043560145481565b61070b61070636600461428f565b611abe565b6040805192835260208301919091520161043f565b61043561072e3660046142f9565b60176020526000908152604090205481565b610435611cb5565b61043560135481565b61043561075f366004614697565b611cdb565b6104356107723660046142f9565b60036020526000908152604090205481565b61078c611db1565b60405161043f9190600061010082019050825182526020830151602083015260408301516040830152606083015160608301526080830151608083015260a083015160a083015260c083015160c083015260e083015160e083015292915050565b6104f46107fb3660046142cd565b611e47565b61043561080e3660046142f9565b60056020526000908152604090205481565b610435611f24565b601b54610607906001600160a01b031681565b610435610849366004614697565b611faf565b61045061203e565b61043561086436600461428f565b61204b565b6104be6108773660046142f9565b61208d565b6104f461088a3660046147dc565b6120b3565b61069361089d36600461428f565b612457565b6104be6108b03660046142cd565b61250b565b6104f46108c3366004614902565b612571565b6104f46108d63660046142f9565b612830565b6104356108e936600461428f565b61289e565b6104356108fc366004614924565b6128bd565b61043561090f366004614924565b6129cb565b6104f4610922366004614697565b612b17565b6106077f000000000000000000000000000000000000000000000000000000000000000081565b61043561095c36600461428f565b612b6e565b61043560155481565b61097d61097836600461428f565b612b8e565b6040805193845260208401929092529082015260600161043f565b6104356109a63660046142f9565b612e60565b6104f46109b936600461495b565b612e82565b6104f46109cc36600461428f565b6130c6565b6104356109df3660046142f9565b6001600160a01b031660009081526003602052604090205490565b610435610a083660046142f9565b6131f2565b610435610a1b3660046149d2565b600460209081526000928352604080842090915290825290205481565b610a4b610a4636600461428f565b613214565b6040805194151585526020850193909352918301521515606082015260800161043f565b6104f4610a7d366004614697565b613705565b6104f4610a90366004614a00565b613758565b6104be610aa33660046142f9565b50600190565b610607610ab736600461428f565b61391d565b610435610aca36600461428f565b613938565b6104f4610add366004614697565b613943565b6012546104be9060ff1681565b6006546104be9060ff1681565b6000610b06611f24565b600854610b139190614a55565b905090565b60008054610b2590614a68565b80601f0160208091040260200160405190810160405280929190818152602001828054610b5190614a68565b8015610b9e5780601f10610b7357610100808354040283529160200191610b9e565b820191906000526020600020905b815481529060010190602001808311610b8157829003601f168201915b505050505081565b6000818152601860209081526040808320546001600160a01b031683526016825280832081516101c08101835281548152600182015460ff808216151595830195909552610100908190049094161515928101929092526002810154606083015260038101546080830152600481015460a0830152600581015460c0830152600681015460e08301526007810154928201929092526008820180548493849384938493849391610120840191610c5b90614a68565b80601f0160208091040260200160405190810160405280929190818152602001828054610c8790614a68565b8015610cd45780601f10610ca957610100808354040283529160200191610cd4565b820191906000526020600020905b815481529060010190602001808311610cb757829003601f168201915b505050918352505060098201546001600160a01b0381166020830152604090910190600160a01b900460ff166003811115610d1157610d11614368565b6003811115610d2257610d22614368565b8152602001600a8201548152602001600b82016040518060e0016040529081600082015481526020016001820154815260200160028201548152602001600382015481526020016004820154815260200160058201548152602001600682015481525050815250509050806101a0015160400151816101a0015160600151826101a0015160800151836101a0015160a00151846101a0015160c00151955095509550955095505091939590929450565b6002546000908015610df657610df1610de9610afc565b8490836139f8565b610e0f565b60065460ff16610e065782610e0f565b610e0f8361105f565b9392505050565b3360008181526004602090815260408083206001600160a01b038716808552925280832085905551919290917f8c5be1e5ebec7d5bd14f71427d1e84f3dd0314c0f7b2291e5b200ac8c7c3b92590610e719086815260200190565b60405180910390a35060015b92915050565b6002546000908015610ea357610df181610e9b610afc565b859190613a17565b60065460ff16610eb35782610e0f565b610e0f8361204b565b6001600160a01b038116600090815260166020526040902060010154610100900460ff16610f285760405162461bcd60e51b8152602060048201526014602482015273155395149554d5115117d25b9cdd1c9d5b595b9d60621b60448201526064015b60405180910390fd5b6001600160a01b03811660008181526016602052604080822060085460028201549251633af9e66960e01b8152600481018690529194909391633af9e66990602401602060405180830381865afa158015610f87573d6000803e3d6000fd5b505050506040513d601f19601f82011682018060405250810190610fab9190614aa2565b9050808203610fbb575050505050565b6002840181905560008282101580610fdc57610fd78385614abb565b610fe6565b610fe68484614abb565b915080610ffc57610ff78286614abb565b611006565b6110068286614a55565b60085560408051848152602081018490528215158183015290516001600160a01b038916917f633a7d7c82bd537c647d654b96128a9b02a675bd73abe910b82f875ce4776391919081900360600190a250505050505050565b600061108c7f00000000000000000000000000000000000000000000000000000000000000006012614abb565b61109790600a614bb2565b610e7d9083614bbe565b6040516370a0823160e01b815230600482015260009082906001600160a01b037f000000000000000000000000000000000000000000000000000000000000000016906370a0823190602401602060405180830381865afa15801561110a573d6000803e3d6000fd5b505050506040513d601f19601f8201168201806040525081019061112e9190614aa2565b101592915050565b336001600160a01b038316148061115157506111518261208d565b61115a57600080fd5b6001600160a01b03821660009081526016602052604090206004015461117f816113c8565b6000908152601960205260409020805460ff191691151591909117905550565b601660205260009081526040902080546001820154600283015460038401546004850154600586015460068701546007880154600889018054989960ff808a169a610100909a0416989091906111f490614a68565b80601f016020809104026020016040519081016040528092919081815260200182805461122090614a68565b801561126d5780601f106112425761010080835404028352916020019161126d565b820191906000526020600020905b81548152906001019060200180831161125057829003601f168201915b505050506009830154600a8401546040805160e081018252600b8701548152600c8701546020820152600d87015491810191909152600e8601546060820152600f8601546080820152601086015460a082015260119095015460c086015292936001600160a01b03821693600160a01b90920460ff1692508e565b6001600160a01b038316600090815260046020908152604080832033845290915281205460001981146113445761131f8382614abb565b6001600160a01b03861660009081526004602090815260408083203384529091529020555b6001600160a01b0385166000908152600360205260408120805485929061136c908490614abb565b90915550506001600160a01b0380851660008181526003602052604090819020805487019055519091871690600080516020614e21833981519152906113b59087815260200190565b60405180910390a3506001949350505050565b6000818152601860205260409020546001600160a01b0316338114806113f857506009546001600160a01b031633145b6114325760405162461bcd60e51b815260206004820152600b60248201526a139bdd08185b1b1bddd95960aa1b6044820152606401610f1f565b61143b8161208d565b6114755760405162461bcd60e51b815260206004820152600b60248201526a139bdd081d1c9d5cdd195960aa1b6044820152606401610f1f565b806001600160a01b03166349dcf4ed6040518163ffffffff1660e01b81526004016060604051808303816000875af11580156114b5573d6000803e3d6000fd5b505050506040513d601f19601f820116820180604052508101906114d99190614be0565b5050506114e581610ebc565b806001600160a01b031663f3aa68d36040518163ffffffff1660e01b8152600401600060405180830381600087803b15801561152057600080fd5b505af1158015611534573d6000803e3d6000fd5b5050604080518082018252438152600160208083018281526000988952601a909152929096209051815590519401805460ff191694151594909417909355505050565b60007f000000000000000000000000000000000000000000000000000000000000000046146115a857610b13613a45565b507f000000000000000000000000000000000000000000000000000000000000000090565b6115d73382613adf565b50565b600081815260186020908152604080832054815163041f3aa560e51b815291516001600160a01b03909116926383e754a092600480820193918290030181865afa15801561162c573d6000803e3d6000fd5b505050506040513d601f19601f82011682018060405250810190610e7d9190614c0e565b6000611680600a60075460086116669190614c2b565b6116709190614bbe565b61167a8486614a55565b90613b49565b949350505050565b6000610e7d82610dd2565b61169b614139565b6001600160a01b03821660009081526016602090815260409182902082516101c08101845281548152600182015460ff808216151594830194909452610100908190049093161515938101939093526002810154606084015260038101546080840152600481015460a0840152600581015460c0840152600681015460e08401526007810154918301919091526008810180546101208401919061173e90614a68565b80601f016020809104026020016040519081016040528092919081815260200182805461176a90614a68565b80156117b75780601f1061178c576101008083540402835291602001916117b7565b820191906000526020600020905b81548152906001019060200180831161179a57829003601f168201915b505050918352505060098201546001600160a01b0381166020830152604090910190600160a01b900460ff1660038111156117f4576117f4614368565b600381111561180557611805614368565b8152600a8201546020808301919091526040805160e081018252600b8501548152600c85015492810192909252600d84015482820152600e8401546060830152600f8401546080830152601084015460a083015260119093015460c082015291015292915050565b6009546001600160a01b03163314806118905750601b546001600160a01b031633145b8061189a57503033145b6118b65760405162461bcd60e51b8152600401610f1f90614c42565b6001601660006118c58661391d565b6001600160a01b03168152602081019190915260400160002060010180549115156101000261ff0019909216919091179055806119e7576000838152601860209081526040808320546001600160a01b0316835260168252918290209084015160058201819055918401516006820181905590916119439190614a55565b60038201558251602084015161195f9186916108c39190614abb565b61196884613b5e565b6119718461391d565b6001600160a01b031663416288dd846020015185604001516040518363ffffffff1660e01b81526004016119af929190918252602082015260400190565b600060405180830381600087803b1580156119c957600080fd5b505af11580156119dd573d6000803e3d6000fd5b5050505050505050565b6119ff83836000015184602001516108c39190614abb565b505050565b6009546001600160a01b0316331480611a275750601b546001600160a01b031633145b80611a3157503033145b611a4d5760405162461bcd60e51b8152600401610f1f90614c42565b6000611a588261391d565b9050806001600160a01b03166350bb4beb6040518163ffffffff1660e01b81526004016020604051808303816000875af1158015611a9a573d6000803e3d6000fd5b505050506040513d601f19601f820116820180604052508101906119ff9190614aa2565b6000818152601860209081526040808320546001600160a01b031683526016825280832081516101c08101835281548152600182015460ff808216151595830195909552610100908190049094161515928101929092526002810154606083015260038101546080830152600481015460a0830152600581015460c0830152600681015460e08301526007810154928201929092526008820180548493849392909161012084019190611b7090614a68565b80601f0160208091040260200160405190810160405280929190818152602001828054611b9c90614a68565b8015611be95780601f10611bbe57610100808354040283529160200191611be9565b820191906000526020600020905b815481529060010190602001808311611bcc57829003601f168201915b505050918352505060098201546001600160a01b0381166020830152604090910190600160a01b900460ff166003811115611c2657611c26614368565b6003811115611c3757611c37614368565b8152602001600a8201548152602001600b82016040518060e00160405290816000820154815260200160018201548152602001600282015481526020016003820154815260200160048201548152602001600582015481526020016006820154815250508152505090508060c001518160e001519250925050915091565b6000600854600003611cc75750600090565b610b13611cd2610afc565b60085490613bc7565b6000611ce683613938565b905080600003611d265760405162461bcd60e51b815260206004820152600b60248201526a5a45524f5f53484152455360a81b6044820152606401610f1f565b611d5b6001600160a01b037f000000000000000000000000000000000000000000000000000000000000000016333086613bdc565b611d658282613c5f565b60408051848152602081018390526001600160a01b0384169133917fdcbc1c05240f31ff3ad067ef1ee35ce4997762752e3a095284754544f4c709d791015b60405180910390a3610e7d565b611df960405180610100016040528060008152602001600081526020016000815260200160008152602001600081526020016000815260200160008152602001600081525090565b506040805161010081018252600a548152600b546020820152600c5491810191909152600d546060820152600e546080820152600f5460a082015260105460c082015260115460e082015290565b6009546001600160a01b0316331480611e6a5750601b546001600160a01b031633145b80611e7457503033145b611e905760405162461bcd60e51b8152600401610f1f90614c42565b60405163a9059cbb60e01b81526001600160a01b038381166004830152602482018390527f0000000000000000000000000000000000000000000000000000000000000000169063a9059cbb906044015b6020604051808303816000875af1158015611f00573d6000803e3d6000fd5b505050506040513d601f19601f820116820180604052508101906119ff9190614c0e565b6040516370a0823160e01b81523060048201526000907f00000000000000000000000000000000000000000000000000000000000000006001600160a01b0316906370a0823190602401602060405180830381865afa158015611f8b573d6000803e3d6000fd5b505050506040513d601f19601f82011682018060405250810190610b139190614aa2565b6000611fba8361289e565b9050611ff16001600160a01b037f000000000000000000000000000000000000000000000000000000000000000016333084613bdc565b611ffb8284613c5f565b60408051828152602081018590526001600160a01b0384169133917fdcbc1c05240f31ff3ad067ef1ee35ce4997762752e3a095284754544f4c709d79101611da4565b60018054610b2590614a68565b60006120787f00000000000000000000000000000000000000000000000000000000000000006012614abb565b61208390600a614bb2565b610e7d9083614c2b565b6001600160a01b0316600090815260166020526040902060010154610100900460ff1690565b6009546001600160a01b03163314806120d65750601b546001600160a01b031633145b806120e057503033145b6120fc5760405162461bcd60e51b8152600401610f1f90614c42565b80602001516122ac5760008160c00151116121595760405162461bcd60e51b815260206004820181905260248201527f7072696e636970616c206d7573742062652067726561746572207468616e20306044820152606401610f1f565b6000816101000151116121ae5760405162461bcd60e51b815260206004820152601f60248201527f6475726174696f6e206d7573742062652067726561746572207468616e2030006044820152606401610f1f565b60008160800151116122025760405162461bcd60e51b815260206004820181905260248201527f6661636556616c7565206d7573742062652067726561746572207468616e20306044820152606401610f1f565b6007548160c0015110156122585760405162461bcd60e51b815260206004820152601d60248201527f4e6565647320746f20626520696e20646563696d616c20666f726d61740000006044820152606401610f1f565b60008160a00151116122ac5760405162461bcd60e51b815260206004820152601860248201527f6d7573742062652076616c696420696e737472756d656e7400000000000000006044820152606401610f1f565b3360009081526017602052604081208054916122c783614c6d565b90915550506101408101516001600160a01b031660009081526016602090815260409182902083518155908301516001820180549385015161ffff1990941691151561ff001916919091176101009315158402179055606083015160028201556080830151600382015560a0830151600482015560c0830151600582015560e0830151600682015590820151600782015561012082015182919060088201906123709082614cd4565b506101408201516009820180546001600160a01b039092166001600160a01b0319831681178255610160850151926001600160a81b03191617600160a01b8360038111156123c0576123c0614368565b0217905550610180820151600a8201556101a0909101518051600b830155602080820151600c840155604080830151600d8501556060830151600e8501556080830151600f85015560a080840151601086015560c0909301516011909401939093556101408401519390910151600090815260189091522080546001600160a01b0319166001600160a01b03909216919091179055565b61245f614139565b6000828152601860209081526040808320546001600160a01b03168352601682529182902082516101c08101845281548152600182015460ff808216151594830194909452610100908190049093161515938101939093526002810154606084015260038101546080840152600481015460a0840152600581015460c0840152600681015460e08401526007810154918301919091526008810180546101208401919061173e90614a68565b3360009081526003602052604081208054839190839061252c908490614abb565b90915550506001600160a01b03831660008181526003602052604090819020805485019055513390600080516020614e2183398151915290610e719086815260200190565b600061257c8361391d565b6001600160a01b038116600090815260166020526040902060010154909150610100900460ff166125e65760405162461bcd60e51b8152602060048201526014602482015273155395149554d5115108125b9cdd1c9d5b595b9d60621b6044820152606401610f1f565b60065460ff16156125fd576125fa8261105f565b91505b6040516370a0823160e01b81523060048201527f00000000000000000000000000000000000000000000000000000000000000006001600160a01b0316906370a0823190602401602060405180830381865afa158015612661573d6000803e3d6000fd5b505050506040513d601f19601f820116820180604052508101906126859190614aa2565b8211156126d45760405162461bcd60e51b815260206004820152601760248201527f4e6f7420656e6f7567682062616c20696e207661756c740000000000000000006044820152606401610f1f565b81600860008282546126e69190614a55565b90915550506001600160a01b03811660009081526016602052604081206002018054849290612716908490614a55565b909155505060405163a9059cbb60e01b81526001600160a01b038281166004830152602482018490527f0000000000000000000000000000000000000000000000000000000000000000169063a9059cbb906044016020604051808303816000875af115801561278a573d6000803e3d6000fd5b505050506040513d601f19601f820116820180604052508101906127ae9190614c0e565b6127eb5760405162461bcd60e51b815260206004820152600e60248201526d11115413d4d25517d1905253115160921b6044820152606401610f1f565b6040518281526001600160a01b0382169033907f05fb08df9fd3a3099b9b7c09d3b801273152c1bae4b64e818fa08e212e882f849060200160405180910390a3505050565b6009546001600160a01b03163314806128535750601b546001600160a01b031633145b8061285d57503033145b6128795760405162461bcd60e51b8152600401610f1f90614c42565b6001600160a01b03166000908152601660205260409020600101805461ff0019169055565b6002546000908015610df657610df16128b5610afc565b849083613a17565b60006128c884610e83565b9050336001600160a01b03831614612938576001600160a01b03821660009081526004602090815260408083203384529091529020546000198114612936576129118282614abb565b6001600160a01b03841660009081526004602090815260408083203384529091529020555b505b6129428482613cb1565b61294c8282613adf565b60408051858152602081018390526001600160a01b03808516929086169133917ffbde797d201c681b91056529119e0b02407c7bb96a4a2c75c01fc9667232c8db910160405180910390a4610e0f6001600160a01b037f0000000000000000000000000000000000000000000000000000000000000000168486613d06565b6000336001600160a01b03831614612a3b576001600160a01b03821660009081526004602090815260408083203384529091529020546000198114612a3957612a148582614abb565b6001600160a01b03841660009081526004602090815260408083203384529091529020555b505b612a4484611688565b905080600003612a845760405162461bcd60e51b815260206004820152600b60248201526a5a45524f5f41535345545360a81b6044820152606401610f1f565b612a8e8185613cb1565b612a988285613adf565b60408051828152602081018690526001600160a01b03808516929086169133917ffbde797d201c681b91056529119e0b02407c7bb96a4a2c75c01fc9667232c8db910160405180910390a4610e0f6001600160a01b037f0000000000000000000000000000000000000000000000000000000000000000168483613d06565b6009546001600160a01b0316331480612b3a5750601b546001600160a01b031633145b80612b4457503033145b612b605760405162461bcd60e51b8152600401610f1f90614c42565b612b6a8183613c5f565b5050565b6002546000908015610ea357610df181612b86610afc565b8591906139f8565b6000806000612beb6040518061014001604052806000815260200160008152602001600081526020016000815260200160008152602001600081526020016000815260200160008152602001600081526020016000151581525090565b612bf485610ba6565b6080860152606085018190526040850182905260208501929092529183529250612c445760405162461bcd60e51b81526020600482015260016024820152600360fc1b6044820152606401610f1f565b612c7b612c70826020015142612c5a9190614abb565b6007548451612c699082614a55565b9190613d84565b604083015190613b49565b60a0820152600954604051634955b91f60e11b8152600481018790526001600160a01b03909116906392ab723e90602401602060405180830381865afa158015612cc9573d6000803e3d6000fd5b505050506040513d601f19601f82011682018060405250810190612ced9190614aa2565b60e082018190526060820151612d039190613b49565b610100820181905260e0820151612d1c91879190611650565b60c0820152610100810151600003612d3c5760a001519250829150612e59565b61010081015160a0820151612d5091613b49565b8160c0015110612d66578060a001519350612d85565b61010081015160c0820151612d7a91613bc7565b600161012083015293505b806101200151612dcb57612dc88160e00151612db38361010001518460a00151613b4990919063ffffffff16565b8360c00151612dc29190614abb565b90613bc7565b92505b6000612de882606001518360a00151613b4990919063ffffffff16565b612e1b612e09600a6007546008612dff9190614c2b565b6108e99190614bbe565b846060015160075461167a9190614a55565b612e259190614abb565b9050612e32600a85614abb565b81101580612e4a5750612e4684600a614a55565b8111155b612e5657612e56614d94565b50505b9193909250565b6001600160a01b038116600090815260036020526040812054610e7d90610dd2565b42841015612ed25760405162461bcd60e51b815260206004820152601760248201527f5045524d49545f444541444c494e455f455850495245440000000000000000006044820152606401610f1f565b60006001612ede611577565b6001600160a01b038a811660008181526005602090815260409182902080546001810190915582517f6e71edae12b1b97f4d1f60370fef10105fa2faae0126114a169c64845d6126c98184015280840194909452938d166060840152608083018c905260a083019390935260c08083018b90528151808403909101815260e08301909152805192019190912061190160f01b6101008301526101028201929092526101228101919091526101420160408051601f198184030181528282528051602091820120600084529083018083525260ff871690820152606081018590526080810184905260a0016020604051602081039080840390855afa158015612fea573d6000803e3d6000fd5b5050604051601f1901519150506001600160a01b038116158015906130205750876001600160a01b0316816001600160a01b0316145b61305d5760405162461bcd60e51b815260206004820152600e60248201526d24a72b20a624a22fa9a4a3a722a960911b6044820152606401610f1f565b6001600160a01b0390811660009081526004602090815260408083208a8516808552908352928190208990555188815291928a16917f8c5be1e5ebec7d5bd14f71427d1e84f3dd0314c0f7b2291e5b200ac8c7c3b925910160405180910390a350505050505050565b6009546001600160a01b03163314806130e95750601b546001600160a01b031633145b806130f357503033145b61310f5760405162461bcd60e51b8152600401610f1f90614c42565b6000818152601860209081526040808320546001600160a01b0316835260169091529020811580159061314e575060098101546001600160a01b031615155b61318f5760405162461bcd60e51b81526020600482015260126024820152711a5b9d985b1a59081a5b9cdd1c9d5b595b9d60721b6044820152606401610f1f565b6001810154610100900460ff16156131e95760405162461bcd60e51b815260206004820152601e60248201527f63616e27742064656e7920617070726f76656420696e737472756d656e7400006044820152606401610f1f565b612b6a82613e42565b6001600160a01b038116600090815260036020526040812054610e7d90611688565b6009546000908190819081906001600160a01b03163314806132405750601b546001600160a01b031633145b8061324a57503033145b6132665760405162461bcd60e51b8152600401610f1f90614c42565b600085815260186020908152604080832054601a835292819020815180830183528154815260019091015460ff161515818401528151632938b58d60e21b815291516001600160a01b03909416939092849263a4e2d63492600480830193928290030181865afa1580156132de573d6000803e3d6000fd5b505050506040513d601f19601f820116820180604052508101906133029190614c0e565b61333b5760405162461bcd60e51b815260206004820152600a602482015269139bdd08131bd8dad95960b21b6044820152606401610f1f565b8060200151801561334c5750805143115b6133885760405162461bcd60e51b815260206004820152600d60248201526c63616e2774207265736f6c766560981b6044820152606401610f1f565b6040516370a0823160e01b81523060048201526000907f00000000000000000000000000000000000000000000000000000000000000006001600160a01b0316906370a0823190602401602060405180830381865afa1580156133ef573d6000803e3d6000fd5b505050506040513d601f19601f820116820180604052508101906134139190614aa2565b90506000836001600160a01b0316631104aafd6040518163ffffffff1660e01b8152600401602060405180830381865afa158015613455573d6000803e3d6000fd5b505050506040513d601f19601f820116820180604052508101906134799190614aa2565b6001600160a01b038516600090815260166020908152604080832081516101c08101835281548152600182015460ff808216151595830195909552610100908190049094161515928101929092526002810154606083015260038101546080830152600481015460a0830152600581015460c0830152600681015460e08301526007810154928201929092526008820180549495509293909261012084019161352190614a68565b80601f016020809104026020016040519081016040528092919081815260200182805461354d90614a68565b801561359a5780601f1061356f5761010080835404028352916020019161359a565b820191906000526020600020905b81548152906001019060200180831161357d57829003601f168201915b505050918352505060098201546001600160a01b0381166020830152604090910190600160a01b900460ff1660038111156135d7576135d7614368565b60038111156135e8576135e8614368565b8152600a8201546020808301919091526040805160e081018252600b8501548152600c85015481840152600d85015481830152600e8501546060820152600f8501546080820152601085015460a082015260119094015460c08501529182019290925260008d8152601990925281205491925060ff909116908080836136b2578460800151861092508261367d57600061368d565b85856080015161368d9190614abb565b9150821561369c5760006136ab565b60808501516136ab9087614abb565b90506136da565b8460c0015186109250826136c75760006136d7565b858560c001516136d79190614abb565b91505b6136e48987613f8e565b6136f18560a00151613e42565b919d919c509a509098509650505050505050565b6009546001600160a01b03163314806137285750601b546001600160a01b031633145b8061373257503033145b61374e5760405162461bcd60e51b8152600401610f1f90614c42565b612b6a8183613adf565b60006137638561391d565b60405163852a12e360e01b8152600481018690529091506001600160a01b0382169063852a12e3906024016020604051808303816000875af11580156137ad573d6000803e3d6000fd5b505050506040513d601f19601f820116820180604052508101906137d19190614c0e565b5060405163a9059cbb60e01b81526001600160a01b038481166004830152602482018690527f0000000000000000000000000000000000000000000000000000000000000000169063a9059cbb906044016020604051808303816000875af1158015613841573d6000803e3d6000fd5b505050506040513d601f19601f820116820180604052508101906138659190614c0e565b5060405163537d940960e01b8152600481018390526001600160a01b0382169063537d940990602401602060405180830381865afa1580156138ab573d6000803e3d6000fd5b505050506040513d601f19601f820116820180604052508101906138cf9190614c0e565b6139045760405162461bcd60e51b8152600401610f1f90602080825260049082015263216c697160e01b604082015260600190565b6139166139108661391d565b83613f8e565b5050505050565b6000908152601860205260409020546001600160a01b031690565b6000610e7d82612b6e565b6009546001600160a01b03163314806139665750601b546001600160a01b031633145b8061397057503033145b61398c5760405162461bcd60e51b8152600401610f1f90614c42565b60065460ff16156139a3576139a08261105f565b91505b60405163a9059cbb60e01b81526001600160a01b038281166004830152602482018490527f0000000000000000000000000000000000000000000000000000000000000000169063a9059cbb90604401611ee1565b828202811515841585830485141716613a1057600080fd5b0492915050565b828202811515841585830485141716613a2f57600080fd5b6001826001830304018115150290509392505050565b60007f8b73c3c69bb8fe3d512ecc4cf759cc79239f7b179b0ffacaa9a75d522b39400f6000604051613a779190614daa565b6040805191829003822060208301939093528101919091527fc89efdaa54c0f20c7adf612882df0950f5a951637e0307cdcb4c672f298b8bc660608201524660808201523060a082015260c00160405160208183030381529060405280519060200120905090565b6001600160a01b03821660009081526003602052604081208054839290613b07908490614abb565b90915550506002805482900390556040518181526000906001600160a01b03841690600080516020614e21833981519152906020015b60405180910390a35050565b6000610e0f8383670de0b6b3a76400006139f8565b4260166000613b6c8461391d565b6001600160a01b03166001600160a01b0316815260200190815260200160002060070154613b9a9190614a55565b60166000613ba78461391d565b6001600160a01b031681526020810191909152604001600020600a015550565b6000610e0f83670de0b6b3a7640000846139f8565b60006040516323b872dd60e01b81528460048201528360248201528260448201526020600060648360008a5af13d15601f3d11600160005114161716915050806139165760405162461bcd60e51b81526020600482015260146024820152731514905394d1915497d19493d357d1905253115160621b6044820152606401610f1f565b8060026000828254613c719190614a55565b90915550506001600160a01b038216600081815260036020908152604080832080548601905551848152600080516020614e218339815191529101613b3d565b613cba826110a1565b612b6a5760405162461bcd60e51b815260206004820152601c60248201527f4e6f7420656e6f756768206c6971756469747920696e207661756c74000000006044820152606401610f1f565b600060405163a9059cbb60e01b8152836004820152826024820152602060006044836000895af13d15601f3d1160016000511416171691505080613d7e5760405162461bcd60e51b815260206004820152600f60248201526e1514905394d1915497d19052531151608a1b6044820152606401610f1f565b50505050565b6000838015613e2457600184168015613d9f57859250613da3565b8392505b508260011c8460011c94505b8415613e1e578560801c15613dc357600080fd5b85860281810181811015613dd657600080fd5b8590049650506001851615613e13578583028387820414613dfc578615613dfc57600080fd5b81810181811015613e0c57600080fd5b8590049350505b8460011c9450613daf565b50613e3a565b838015613e345760009250613e38565b8392505b505b509392505050565b6000818152601860209081526040808320546001600160a01b03168352601690915290206004810154613eb75760405162461bcd60e51b815260206004820152601860248201527f696e737472756d656e7420646f65736e277420657869737400000000000000006044820152606401610f1f565b6000828152601860209081526040808320546001600160a01b031683526016909152812081815560018101805461ffff1916905560028101829055600381018290556004810182905560058101829055600681018290556007810182905590613f2360088301826141e8565b506009810180546001600160a81b03191690556000600a8201819055600b8201819055600c8201819055600d8201819055600e8201819055600f82018190556010820181905560119091018190559182525060186020526040902080546001600160a01b0319169055565b6001600160a01b038216600090815260166020526040902060010154610100900460ff16613ff55760405162461bcd60e51b8152602060048201526014602482015273155395149554d5115108125b9cdd1c9d5b595b9d60621b6044820152606401610f1f565b60065460ff161561400c576140098161105f565b90505b6001600160a01b03821660009081526016602052604081206002018054839290614037908490614abb565b9250508190555080600860008282546140509190614abb565b909155505060405163852a12e360e01b8152600481018290526001600160a01b0383169063852a12e3906024016020604051808303816000875af115801561409c573d6000803e3d6000fd5b505050506040513d601f19601f820116820180604052508101906140c09190614c0e565b6140fc5760405162461bcd60e51b815260206004820152600d60248201526c14915111515357d19052531151609a1b6044820152606401610f1f565b6040518181526001600160a01b0383169033907fc8e1ada3e3428244364539f5fe21fa3bc368ed3634b0abc2355534eb12ca352490602001613b3d565b604080516101c08101825260008082526020820181905291810182905260608082018390526080820183905260a0820183905260c0820183905260e0820183905261010082018390526101208201526101408101829052906101608201908152602001600081526020016141e36040518060e00160405280600081526020016000815260200160008152602001600081526020016000815260200160008152602001600081525090565b905290565b5080546141f490614a68565b6000825580601f10614204575050565b601f0160209004906000526020600020908101906115d791905b80821115614232576000815560010161421e565b5090565b6000815180845260005b8181101561425c57602081850181015186830182015201614240565b506000602082860101526020601f19601f83011685010191505092915050565b602081526000610e0f6020830184614236565b6000602082840312156142a157600080fd5b5035919050565b6001600160a01b03811681146115d757600080fd5b80356142c8816142a8565b919050565b600080604083850312156142e057600080fd5b82356142eb816142a8565b946020939093013593505050565b60006020828403121561430b57600080fd5b8135610e0f816142a8565b80151581146115d757600080fd5b80356142c881614316565b6000806040838503121561434257600080fd5b823561434d816142a8565b9150602083013561435d81614316565b809150509250929050565b634e487b7160e01b600052602160045260246000fd5b6004811061439c57634e487b7160e01b600052602160045260246000fd5b9052565b805182526020810151602083015260408101516040830152606081015160608301526080810151608083015260a081015160a083015260c081015160c08301525050565b8e81528d151560208201528c151560408201528b60608201528a60808201528960a08201528860c08201528760e0820152866101008201526102806101208201526000614435610280830188614236565b6001600160a01b038716610140840152905061445561016083018661437e565b8361018083015261446a6101a08301846143a0565b9f9e505050505050505050505050505050565b60008060006060848603121561449257600080fd5b833561449d816142a8565b925060208401356144ad816142a8565b929592945050506040919091013590565b6000806000606084860312156144d357600080fd5b505081359360208301359350604090920135919050565b60208152815160208201526000602083015161450a604084018215159052565b50604083015180151560608401525060608301516080830152608083015160a083015260a083015160c083015260c083015160e083015260e08301516101008181850152808501519150506101208181850152808501519150506101406102808185015261457c6102a0850183614236565b9085015190915061016061459a858201836001600160a01b03169052565b85015190506101806145ae8582018361437e565b8501516101a0858101919091528501519050613e3a6101c08501826143a0565b634e487b7160e01b600052604160045260246000fd5b6040516101c0810167ffffffffffffffff81118282101715614608576146086145ce565b60405290565b600080600083850360a081121561462457600080fd5b843593506060601f198201121561463a57600080fd5b506040516060810181811067ffffffffffffffff8211171561465e5761465e6145ce565b6040908152602086810135835286820135908301526060860135908201529150608084013561468c81614316565b809150509250925092565b600080604083850312156146aa57600080fd5b82359150602083013561435d816142a8565b600082601f8301126146cd57600080fd5b813567ffffffffffffffff808211156146e8576146e86145ce565b604051601f8301601f19908116603f01168101908282118183101715614710576147106145ce565b8160405283815286602085880101111561472957600080fd5b836020870160208301376000602085830101528094505050505092915050565b8035600481106142c857600080fd5b600060e0828403121561476a57600080fd5b60405160e0810181811067ffffffffffffffff8211171561478d5761478d6145ce565b8060405250809150823581526020830135602082015260408301356040820152606083013560608201526080830135608082015260a083013560a082015260c083013560c08201525092915050565b6000602082840312156147ee57600080fd5b813567ffffffffffffffff8082111561480657600080fd5b90830190610280828603121561481b57600080fd5b6148236145e4565b8235815261483360208401614324565b602082015261484460408401614324565b6040820152606083013560608201526080830135608082015260a083013560a082015260c083013560c082015260e083013560e0820152610100808401358183015250610120808401358381111561489b57600080fd5b6148a7888287016146bc565b82840152505061014091506148bd8284016142bd565b8282015261016091506148d1828401614749565b82820152610180915081830135828201526101a091506148f386838501614758565b91810191909152949350505050565b6000806040838503121561491557600080fd5b50508035926020909101359150565b60008060006060848603121561493957600080fd5b83359250602084013561494b816142a8565b9150604084013561468c816142a8565b600080600080600080600060e0888a03121561497657600080fd5b8735614981816142a8565b96506020880135614991816142a8565b95506040880135945060608801359350608088013560ff811681146149b557600080fd5b9699959850939692959460a0840135945060c09093013592915050565b600080604083850312156149e557600080fd5b82356149f0816142a8565b9150602083013561435d816142a8565b60008060008060808587031215614a1657600080fd5b84359350602085013592506040850135614a2f816142a8565b9396929550929360600135925050565b634e487b7160e01b600052601160045260246000fd5b80820180821115610e7d57610e7d614a3f565b600181811c90821680614a7c57607f821691505b602082108103614a9c57634e487b7160e01b600052602260045260246000fd5b50919050565b600060208284031215614ab457600080fd5b5051919050565b81810381811115610e7d57610e7d614a3f565b600181815b80851115614b09578160001904821115614aef57614aef614a3f565b80851615614afc57918102915b93841c9390800290614ad3565b509250929050565b600082614b2057506001610e7d565b81614b2d57506000610e7d565b8160018114614b435760028114614b4d57614b69565b6001915050610e7d565b60ff841115614b5e57614b5e614a3f565b50506001821b610e7d565b5060208310610133831016604e8410600b8410161715614b8c575081810a610e7d565b614b968383614ace565b8060001904821115614baa57614baa614a3f565b029392505050565b6000610e0f8383614b11565b600082614bdb57634e487b7160e01b600052601260045260246000fd5b500490565b600080600060608486031215614bf557600080fd5b8351925060208401519150604084015190509250925092565b600060208284031215614c2057600080fd5b8151610e0f81614316565b8082028115828204841417610e7d57610e7d614a3f565b60208082526011908201527034b9903737ba1031b7b73a3937b63632b960791b604082015260600190565b600060018201614c7f57614c7f614a3f565b5060010190565b601f8211156119ff57600081815260208120601f850160051c81016020861015614cad5750805b601f850160051c820191505b81811015614ccc57828155600101614cb9565b505050505050565b815167ffffffffffffffff811115614cee57614cee6145ce565b614d0281614cfc8454614a68565b84614c86565b602080601f831160018114614d375760008415614d1f5750858301515b600019600386901b1c1916600185901b178555614ccc565b600085815260208120601f198616915b82811015614d6657888601518255948401946001909101908401614d47565b5085821015614d845787850151600019600388901b60f8161c191681555b5050505050600190811b01905550565b634e487b7160e01b600052600160045260246000fd5b6000808354614db881614a68565b60018281168015614dd05760018114614de557614e14565b60ff1984168752821515830287019450614e14565b8760005260208060002060005b85811015614e0b5781548a820152908401908201614df2565b50505082870194505b5092969550505050505056feddf252ad1be2c89b69c2b068fc378daa952ba7f163c4a11628f55a4df523b3efa26469706673582212207c343ff84eefa1698cd09138260b47fc943afa57cb320d43446eadb65978cb0464736f6c63430008110033",
    "linkReferences": {}
  },
  "methodIdentifiers": {
    "DOMAIN_SEPARATOR()": "3644e515",
    "Instruments(uint256)": "50c6e6cf",
    "UNDERLYING()": "c5d664c6",
    "addProposal((bytes32,bool,bool,uint256,uint256,uint256,uint256,uint256,uint256,string,address,uint8,uint256,(uint256,uint256,uint256,uint256,uint256,uint256,uint256)))": "98d796e7",
    "allowance(address,address)": "dd62ed3e",
    "approve(address,uint256)": "095ea7b3",
    "asset()": "38d52e0f",
    "asset_limit()": "5f260bb8",
    "balanceInUnderlying(address)": "dc361a13",
    "balanceOf(address)": "70a08231",
    "beforeResolve(uint256)": "2b858734",
    "burn(uint256)": "42966c68",
    "closeInstrument(uint256)": "59dc5c6f",
    "controller_burn(uint256,address)": "e3fac5bf",
    "controller_mint(uint256,address)": "bebf7a04",
    "convertToAssets(uint256)": "07a2d13a",
    "convertToShares(uint256)": "c6e6f592",
    "decAssetsToShares(uint256)": "96ce9d5a",
    "decSharesToAssets(uint256)": "1316dbde",
    "decimal_mismatch()": "fc173fc6",
    "decimals()": "313ce567",
    "denyInstrument(uint256)": "d746d3ef",
    "deposit(uint256,address)": "6e553f65",
    "depositIntoInstrument(uint256,uint256)": "ab0c79d0",
    "distrustInstrument(address)": "b19b1f91",
    "enoughLiqudity(uint256)": "139f4b6f",
    "fetchInstrument(uint256)": "edb53d3e",
    "fetchInstrumentData(uint256)": "9ec4d40e",
    "fetchPoolTrancheData(uint256)": "076125a9",
    "getInstrumentData(address)": "4dc54a38",
    "getInstrumentType(uint256)": "0f65cbc4",
    "get_vault_params()": "7572cb1f",
    "harvest(address)": "0e5c011e",
    "instrumentApprovalCondition(uint256)": "471e1cea",
    "instrumentAssetOracle(uint256,uint256,uint256)": "4bd3c9a8",
    "instrument_data(address)": "22f0e069",
    "isTrusted(address)": "96d64879",
    "maxDeposit(address)": "402d267d",
    "maxMint(address)": "c63d75b6",
    "maxRedeem(address)": "d905777e",
    "maxWithdraw(address)": "ce96cb77",
    "mint(uint256,address)": "94bf804d",
    "name()": "06fdde03",
    "nonces(address)": "7ecebe00",
    "num_proposals(address)": "692eba09",
    "onlyVerified()": "f7d070de",
    "owner()": "8da5cb5b",
    "permit(address,address,uint256,uint256,uint8,bytes32,bytes32)": "d505accf",
    "pingMaturity(address,bool)": "213a7d52",
    "poolZCBValue(uint256)": "ca13e450",
    "previewDeposit(uint256)": "ef8b30f7",
    "previewMint(uint256)": "b3d7f6b9",
    "previewRedeem(uint256)": "4cdad506",
    "previewWithdraw(uint256)": "0a28a477",
    "r()": "6c8ae38c",
    "receiver_conditions(address)": "e9a23d3a",
    "redeem(uint256,address,address)": "ba087652",
    "repayDebt(address,uint256)": "79e20bdc",
    "resolveInstrument(uint256)": "e134cc82",
    "symbol()": "95d89b41",
    "totalAssets()": "01e1d114",
    "totalFloat()": "841219e5",
    "totalSupply()": "18160ddd",
    "total_asset_limit()": "c83baf4e",
    "transfer(address,uint256)": "a9059cbb",
    "transferFrom(address,address,uint256)": "23b872dd",
    "trustInstrument(uint256,(uint256,uint256,uint256),bool)": "4e1afd00",
    "trusted_transfer(uint256,address)": "f05bcfb4",
    "utilizationRate()": "6c321c8a",
    "viewPrincipalAndYield(uint256)": "60d4efa4",
    "withdraw(uint256,address,address)": "b460af94",
    "withdrawFromPoolInstrument(uint256,uint256,address,uint256)": "e4cc3e76"
  },
  "id": 33
}