{
  "address": "0xA7a0cAb2D46756248345e3E2Ff83CfcA288F272c",
  "abi": [
    {
      "inputs": [
        {
          "internalType": "contract BFactory",
          "name": "_bFactory",
          "type": "address"
        },
        {
          "internalType": "uint256",
          "name": "_fee",
          "type": "uint256"
        }
      ],
      "stateMutability": "nonpayable",
      "type": "constructor"
    },
    {
      "anonymous": false,
      "inputs": [
        {
          "indexed": true,
          "internalType": "address",
          "name": "marketFactory",
          "type": "address"
        },
        {
          "indexed": true,
          "internalType": "uint256",
          "name": "marketId",
          "type": "uint256"
        },
        {
          "indexed": true,
          "internalType": "address",
          "name": "user",
          "type": "address"
        },
        {
          "indexed": false,
          "internalType": "address",
          "name": "recipient",
          "type": "address"
        },
        {
          "indexed": false,
          "internalType": "int256",
          "name": "collateral",
          "type": "int256"
        },
        {
          "indexed": false,
          "internalType": "int256",
          "name": "lpTokens",
          "type": "int256"
        },
        {
          "indexed": false,
          "internalType": "uint256[]",
          "name": "sharesReturned",
          "type": "uint256[]"
        }
      ],
      "name": "LiquidityChanged",
      "type": "event"
    },
    {
      "anonymous": false,
      "inputs": [
        {
          "indexed": false,
          "internalType": "address",
          "name": "pool",
          "type": "address"
        },
        {
          "indexed": true,
          "internalType": "address",
          "name": "marketFactory",
          "type": "address"
        },
        {
          "indexed": true,
          "internalType": "uint256",
          "name": "marketId",
          "type": "uint256"
        },
        {
          "indexed": true,
          "internalType": "address",
          "name": "creator",
          "type": "address"
        },
        {
          "indexed": false,
          "internalType": "address",
          "name": "lpTokenRecipient",
          "type": "address"
        }
      ],
      "name": "PoolCreated",
      "type": "event"
    },
    {
      "anonymous": false,
      "inputs": [
        {
          "indexed": true,
          "internalType": "address",
          "name": "marketFactory",
          "type": "address"
        },
        {
          "indexed": true,
          "internalType": "uint256",
          "name": "marketId",
          "type": "uint256"
        },
        {
          "indexed": true,
          "internalType": "address",
          "name": "user",
          "type": "address"
        },
        {
          "indexed": false,
          "internalType": "uint256",
          "name": "outcome",
          "type": "uint256"
        },
        {
          "indexed": false,
          "internalType": "int256",
          "name": "collateral",
          "type": "int256"
        },
        {
          "indexed": false,
          "internalType": "int256",
          "name": "shares",
          "type": "int256"
        },
        {
          "indexed": false,
          "internalType": "uint256",
          "name": "price",
          "type": "uint256"
        }
      ],
      "name": "SharesSwapped",
      "type": "event"
    },
    {
      "inputs": [],
      "name": "BONE",
      "outputs": [
        {
          "internalType": "uint256",
          "name": "",
          "type": "uint256"
        }
      ],
      "stateMutability": "view",
      "type": "function"
    },
    {
      "inputs": [],
      "name": "BPOW_PRECISION",
      "outputs": [
        {
          "internalType": "uint256",
          "name": "",
          "type": "uint256"
        }
      ],
      "stateMutability": "view",
      "type": "function"
    },
    {
      "inputs": [],
      "name": "EXIT_FEE",
      "outputs": [
        {
          "internalType": "uint256",
          "name": "",
          "type": "uint256"
        }
      ],
      "stateMutability": "view",
      "type": "function"
    },
    {
      "inputs": [],
      "name": "INIT_POOL_SUPPLY",
      "outputs": [
        {
          "internalType": "uint256",
          "name": "",
          "type": "uint256"
        }
      ],
      "stateMutability": "view",
      "type": "function"
    },
    {
      "inputs": [],
      "name": "MAX_BOUND_TOKENS",
      "outputs": [
        {
          "internalType": "uint256",
          "name": "",
          "type": "uint256"
        }
      ],
      "stateMutability": "view",
      "type": "function"
    },
    {
      "inputs": [],
      "name": "MAX_BPOW_BASE",
      "outputs": [
        {
          "internalType": "uint256",
          "name": "",
          "type": "uint256"
        }
      ],
      "stateMutability": "view",
      "type": "function"
    },
    {
      "inputs": [],
      "name": "MAX_FEE",
      "outputs": [
        {
          "internalType": "uint256",
          "name": "",
          "type": "uint256"
        }
      ],
      "stateMutability": "view",
      "type": "function"
    },
    {
      "inputs": [],
      "name": "MAX_IN_RATIO",
      "outputs": [
        {
          "internalType": "uint256",
          "name": "",
          "type": "uint256"
        }
      ],
      "stateMutability": "view",
      "type": "function"
    },
    {
      "inputs": [],
      "name": "MAX_OUT_RATIO",
      "outputs": [
        {
          "internalType": "uint256",
          "name": "",
          "type": "uint256"
        }
      ],
      "stateMutability": "view",
      "type": "function"
    },
    {
      "inputs": [],
      "name": "MAX_TOTAL_WEIGHT",
      "outputs": [
        {
          "internalType": "uint256",
          "name": "",
          "type": "uint256"
        }
      ],
      "stateMutability": "view",
      "type": "function"
    },
    {
      "inputs": [],
      "name": "MAX_WEIGHT",
      "outputs": [
        {
          "internalType": "uint256",
          "name": "",
          "type": "uint256"
        }
      ],
      "stateMutability": "view",
      "type": "function"
    },
    {
      "inputs": [],
      "name": "MIN_BALANCE",
      "outputs": [
        {
          "internalType": "uint256",
          "name": "",
          "type": "uint256"
        }
      ],
      "stateMutability": "view",
      "type": "function"
    },
    {
      "inputs": [],
      "name": "MIN_BOUND_TOKENS",
      "outputs": [
        {
          "internalType": "uint256",
          "name": "",
          "type": "uint256"
        }
      ],
      "stateMutability": "view",
      "type": "function"
    },
    {
      "inputs": [],
      "name": "MIN_BPOW_BASE",
      "outputs": [
        {
          "internalType": "uint256",
          "name": "",
          "type": "uint256"
        }
      ],
      "stateMutability": "view",
      "type": "function"
    },
    {
      "inputs": [],
      "name": "MIN_FEE",
      "outputs": [
        {
          "internalType": "uint256",
          "name": "",
          "type": "uint256"
        }
      ],
      "stateMutability": "view",
      "type": "function"
    },
    {
      "inputs": [],
      "name": "MIN_WEIGHT",
      "outputs": [
        {
          "internalType": "uint256",
          "name": "",
          "type": "uint256"
        }
      ],
      "stateMutability": "view",
      "type": "function"
    },
    {
      "inputs": [
        {
          "internalType": "contract AbstractMarketFactoryV3",
          "name": "_marketFactory",
          "type": "address"
        },
        {
          "internalType": "uint256",
          "name": "_marketId",
          "type": "uint256"
        },
        {
          "internalType": "uint256",
          "name": "_collateralIn",
          "type": "uint256"
        },
        {
          "internalType": "uint256",
          "name": "_minLPTokensOut",
          "type": "uint256"
        },
        {
          "internalType": "address",
          "name": "_lpTokenRecipient",
          "type": "address"
        }
      ],
      "name": "addLiquidity",
      "outputs": [
        {
          "internalType": "uint256",
          "name": "_poolAmountOut",
          "type": "uint256"
        },
        {
          "internalType": "uint256[]",
          "name": "_balances",
          "type": "uint256[]"
        }
      ],
      "stateMutability": "nonpayable",
      "type": "function"
    },
    {
      "inputs": [],
      "name": "bFactory",
      "outputs": [
        {
          "internalType": "contract BFactory",
          "name": "",
          "type": "address"
        }
      ],
      "stateMutability": "view",
      "type": "function"
    },
    {
      "inputs": [
        {
          "internalType": "contract AbstractMarketFactoryV3",
          "name": "_marketFactory",
          "type": "address"
        },
        {
          "internalType": "uint256",
          "name": "_marketId",
          "type": "uint256"
        },
        {
          "internalType": "uint256",
          "name": "_outcome",
          "type": "uint256"
        },
        {
          "internalType": "uint256",
          "name": "_collateralIn",
          "type": "uint256"
        },
        {
          "internalType": "uint256",
          "name": "_minTokensOut",
          "type": "uint256"
        }
      ],
      "name": "buy",
      "outputs": [
        {
          "internalType": "uint256",
          "name": "",
          "type": "uint256"
        }
      ],
      "stateMutability": "nonpayable",
      "type": "function"
    },
    {
      "inputs": [
        {
          "internalType": "contract AbstractMarketFactoryV3",
          "name": "_marketFactory",
          "type": "address"
        },
        {
          "internalType": "uint256",
          "name": "_marketId",
          "type": "uint256"
        },
        {
          "internalType": "uint256",
          "name": "_initialLiquidity",
          "type": "uint256"
        },
        {
          "internalType": "address",
          "name": "_lpTokenRecipient",
          "type": "address"
        }
      ],
      "name": "createPool",
      "outputs": [
        {
          "internalType": "uint256",
          "name": "",
          "type": "uint256"
        }
      ],
      "stateMutability": "nonpayable",
      "type": "function"
    },
    {
      "inputs": [],
      "name": "getColor",
      "outputs": [
        {
          "internalType": "bytes32",
          "name": "",
          "type": "bytes32"
        }
      ],
      "stateMutability": "pure",
      "type": "function"
    },
    {
      "inputs": [
        {
          "internalType": "contract AbstractMarketFactoryV3",
          "name": "_marketFactory",
          "type": "address"
        },
        {
          "internalType": "uint256",
          "name": "_marketId",
          "type": "uint256"
        }
      ],
      "name": "getPool",
      "outputs": [
        {
          "internalType": "contract BPool",
          "name": "",
          "type": "address"
        }
      ],
      "stateMutability": "view",
      "type": "function"
    },
    {
      "inputs": [
        {
          "internalType": "contract AbstractMarketFactoryV3",
          "name": "_marketFactory",
          "type": "address"
        },
        {
          "internalType": "uint256",
          "name": "_marketId",
          "type": "uint256"
        }
      ],
      "name": "getPoolBalances",
      "outputs": [
        {
          "internalType": "uint256[]",
          "name": "",
          "type": "uint256[]"
        }
      ],
      "stateMutability": "view",
      "type": "function"
    },
    {
      "inputs": [
        {
          "internalType": "contract AbstractMarketFactoryV3",
          "name": "_marketFactory",
          "type": "address"
        },
        {
          "internalType": "uint256",
          "name": "_marketId",
          "type": "uint256"
        },
        {
          "internalType": "address",
          "name": "_user",
          "type": "address"
        }
      ],
      "name": "getPoolTokenBalance",
      "outputs": [
        {
          "internalType": "uint256",
          "name": "",
          "type": "uint256"
        }
      ],
      "stateMutability": "view",
      "type": "function"
    },
    {
      "inputs": [
        {
          "internalType": "contract AbstractMarketFactoryV3",
          "name": "_marketFactory",
          "type": "address"
        },
        {
          "internalType": "uint256",
          "name": "_marketId",
          "type": "uint256"
        }
      ],
      "name": "getPoolWeights",
      "outputs": [
        {
          "internalType": "uint256[]",
          "name": "",
          "type": "uint256[]"
        }
      ],
      "stateMutability": "view",
      "type": "function"
    },
    {
      "inputs": [
        {
          "internalType": "contract AbstractMarketFactoryV3",
          "name": "_marketFactory",
          "type": "address"
        },
        {
          "internalType": "uint256",
          "name": "_marketId",
          "type": "uint256"
        }
      ],
      "name": "getSwapFee",
      "outputs": [
        {
          "internalType": "uint256",
          "name": "",
          "type": "uint256"
        }
      ],
      "stateMutability": "view",
      "type": "function"
    },
    {
      "inputs": [
        {
          "internalType": "address",
          "name": "",
          "type": "address"
        },
        {
          "internalType": "uint256",
          "name": "",
          "type": "uint256"
        }
      ],
      "name": "pools",
      "outputs": [
        {
          "internalType": "contract BPool",
          "name": "",
          "type": "address"
        }
      ],
      "stateMutability": "view",
      "type": "function"
    },
    {
      "inputs": [
        {
          "internalType": "contract AbstractMarketFactoryV3",
          "name": "_marketFactory",
          "type": "address"
        },
        {
          "internalType": "uint256",
          "name": "_marketId",
          "type": "uint256"
        },
        {
          "internalType": "uint256",
          "name": "_lpTokensIn",
          "type": "uint256"
        },
        {
          "internalType": "uint256",
          "name": "_minCollateralOut",
          "type": "uint256"
        },
        {
          "internalType": "address",
          "name": "_collateralRecipient",
          "type": "address"
        }
      ],
      "name": "removeLiquidity",
      "outputs": [
        {
          "internalType": "uint256",
          "name": "_collateralOut",
          "type": "uint256"
        },
        {
          "internalType": "uint256[]",
          "name": "_balances",
          "type": "uint256[]"
        }
      ],
      "stateMutability": "nonpayable",
      "type": "function"
    },
    {
      "inputs": [
        {
          "internalType": "contract AbstractMarketFactoryV3",
          "name": "_marketFactory",
          "type": "address"
        },
        {
          "internalType": "uint256",
          "name": "_marketId",
          "type": "uint256"
        },
        {
          "internalType": "uint256",
          "name": "_outcome",
          "type": "uint256"
        },
        {
          "internalType": "uint256[]",
          "name": "_shareTokensIn",
          "type": "uint256[]"
        },
        {
          "internalType": "uint256",
          "name": "_minSetsOut",
          "type": "uint256"
        }
      ],
      "name": "sellForCollateral",
      "outputs": [
        {
          "internalType": "uint256",
          "name": "",
          "type": "uint256"
        }
      ],
      "stateMutability": "nonpayable",
      "type": "function"
    },
    {
      "inputs": [
        {
          "internalType": "contract AbstractMarketFactoryV3",
          "name": "_marketFactory",
          "type": "address"
        },
        {
          "internalType": "uint256",
          "name": "_marketId",
          "type": "uint256"
        }
      ],
      "name": "tokenRatios",
      "outputs": [
        {
          "internalType": "uint256[]",
          "name": "",
          "type": "uint256[]"
        }
      ],
      "stateMutability": "view",
      "type": "function"
    }
  ],
  "transactionHash": "0x64396728c8f333ae29c90e3f8421b8ead59865bc4118c52e122a433371ff308a",
  "args": [
    "0xE152327f9700F1733d12e7a507045FB4A4606C6F",
    "1000000000000"
  ],
  "solcInputHash": "6b5c7513e0191700db98fb0f972486e7",
  "bytecode": "0x60806040523480156200001157600080fd5b50604051620040463803806200404683398101604081905262000034916200005e565b600080546001600160a01b0319166001600160a01b03939093169290921790915560025562000098565b6000806040838503121562000071578182fd5b82516001600160a01b038116811462000088578283fd5b6020939093015192949293505050565b613f9e80620000a86000396000f3fe608060405234801561001057600080fd5b50600436106101da5760003560e01c80639a86139b11610104578063c36596a6116100a2578063d2364bf311610071578063d2364bf314610395578063e4a28a52146101df578063ec093021146103a8578063fa0de359146103b057600080fd5b8063c36596a61461022d578063c6580d121461035a578063c7b4b6dd14610362578063d055da711461038257600080fd5b8063b7b800a4116100de578063b7b800a41461033a578063ba019dab14610342578063bc063e1a1461034a578063bc694ea21461035257600080fd5b80639a86139b14610310578063a0147aa11461031f578063b0e0d1361461033257600080fd5b806360cac85a1161017c578063867378c51161014b578063867378c5146102c45780638f38a555146102cc5780639381cd2b14610300578063992e2a921461030857600080fd5b806360cac85a1461028357806372b60c301461029657806376c7a3c7146102a9578063842980f4146102b157600080fd5b8063218b5382116101b8578063218b53821461022d57806345fa67831461023c57806359f842b21461025d5780635b5b9ea21461027057600080fd5b806309a3bbe4146101df5780630a165940146101fa578063189d00ca14610225575b600080fd5b6101e76103c3565b6040519081526020015b60405180910390f35b60005461020d906001600160a01b031681565b6040516001600160a01b0390911681526020016101f1565b6101e76103d9565b6101e7670de0b6b3a764000081565b61024f61024a366004613aec565b6103f0565b6040516101f1929190613dcd565b61024f61026b366004613aec565b610d42565b61020d61027e366004613889565b611595565b6101e7610291366004613a2c565b6115c2565b6101e76102a4366004613b41565b611dca565b6101e7612320565b6101e76102bf3660046139e3565b612335565b6101e7612de4565b61020d6102da366004613889565b60016020908152600092835260408084209091529082529020546001600160a01b031681565b6101e7612dfb565b6101e7612e0e565b6542524f4e5a4560d01b6101e7565b6101e761032d3660046139a2565b612e2c565b6101e7600881565b6101e7600281565b6101e7600181565b6101e7612ece565b6101e7612ee1565b6101e7600081565b610375610370366004613889565b612f00565b6040516101f19190613d83565b610375610390366004613889565b6131bf565b6103756103a3366004613889565b6133c7565b6101e76135c5565b6101e76103be366004613889565b6135d8565b6103d6670de0b6b3a76400006032613eb9565b81565b6103d66402540be400670de0b6b3a7640000613e99565b6001600160a01b038086166000908152600160209081526040808320888452909152812054909160609116806104415760405162461bcd60e51b815260040161043890613d96565b60405180910390fd5b60405163eb44fdd360e01b8152600481018890526000906001600160a01b038a169063eb44fdd39060240160006040518083038186803b15801561048457600080fd5b505afa158015610498573d6000803e3d6000fd5b505050506040513d6000823e601f3d908101601f191682016040526104c09190810190613ba0565b90506000896001600160a01b031663d8dfeb456040518163ffffffff1660e01b815260040160206040518083038186803b1580156104fd57600080fd5b505afa158015610511573d6000803e3d6000fd5b505050506040513d601f19601f820116820180604052508101906105359190613b84565b6040516323b872dd60e01b81529091506001600160a01b038216906323b872dd9061056890339030908d90600401613d19565b602060405180830381600087803b15801561058257600080fd5b505af1158015610596573d6000803e3d6000fd5b505050506040513d601f19601f820116820180604052508101906105ba9190613981565b5060405163095ea7b360e01b81526001600160a01b0382169063095ea7b3906105eb908d9060001990600401613d6a565b602060405180830381600087803b15801561060557600080fd5b505af1158015610619573d6000803e3d6000fd5b505050506040513d601f19601f8201168201806040525081019061063d9190613981565b50604051636643d6f560e11b8152600481018990526000906001600160a01b038c169063cc87adea9060240160206040518083038186803b15801561068157600080fd5b505afa158015610695573d6000803e3d6000fd5b505050506040513d601f19601f820116820180604052508101906106b99190613ca4565b60405163221fff8160e01b81529091506001600160a01b038c169063221fff81906106ec908d9085903090600401613de6565b600060405180830381600087803b15801561070657600080fd5b505af115801561071a573d6000803e3d6000fd5b5050505060001995506000846001600160a01b03166318160ddd6040518163ffffffff1660e01b815260040160206040518083038186803b15801561075e57600080fd5b505afa158015610772573d6000803e3d6000fd5b505050506040513d601f19601f820116820180604052508101906107969190613ca4565b905060008460200151516001600160401b038111156107c557634e487b7160e01b600052604160045260246000fd5b6040519080825280602002602001820160405280156107ee578160200160208202803683370190505b50905060005b856020015151811015610973578382828151811061082257634e487b7160e01b600052603260045260246000fd5b60200260200101818152505060008660200151828151811061085457634e487b7160e01b600052603260045260246000fd5b602090810291909101015160405163f8b2cb4f60e01b81526001600160a01b0380831660048301529192506000918a169063f8b2cb4f9060240160206040518083038186803b1580156108a657600080fd5b505afa1580156108ba573d6000803e3d6000fd5b505050506040513d601f19601f820116820180604052508101906108de9190613ca4565b90506000670de0b6b3a76400006108f6600288613e99565b838861090b6002670de0b6b3a7640000613e99565b61091d670de0b6b3a76400008d613eb9565b6109279190613ed8565b6109319190613eb9565b61093b9190613e99565b6109459190613ed8565b61094f9190613e99565b90508b81101561095d57809b505b505050808061096b90613eef565b9150506107f4565b506040516313da703560e21b81526001600160a01b03871690634f69c0d4906109a2908b908590600401613dcd565b600060405180830381600087803b1580156109bc57600080fd5b505af11580156109d0573d6000803e3d6000fd5b50505050505087861015610a375760405162461bcd60e51b815260206004820152602860248201527f576f756c64206e6f74206861766520726563656976656420656e6f756768204c6044820152675020746f6b656e7360c01b6064820152608401610438565b60405163a9059cbb60e01b81526001600160a01b0385169063a9059cbb90610a65908a908a90600401613d6a565b602060405180830381600087803b158015610a7f57600080fd5b505af1158015610a93573d6000803e3d6000fd5b505050506040513d601f19601f82011682018060405250810190610ab79190613981565b508260200151516001600160401b03811115610ae357634e487b7160e01b600052604160045260246000fd5b604051908082528060200260200182016040528015610b0c578160200160208202803683370190505b50945060005b836020015151811015610ce257600084602001518281518110610b4557634e487b7160e01b600052603260045260246000fd5b60209081029190910101516040516370a0823160e01b81523060048201529091506001600160a01b038216906370a082319060240160206040518083038186803b158015610b9257600080fd5b505afa158015610ba6573d6000803e3d6000fd5b505050506040513d601f19601f82011682018060405250810190610bca9190613ca4565b878381518110610bea57634e487b7160e01b600052603260045260246000fd5b6020026020010181815250506000878381518110610c1857634e487b7160e01b600052603260045260246000fd5b60200260200101511115610ccf57806001600160a01b031663a9059cbb8a898581518110610c5657634e487b7160e01b600052603260045260246000fd5b60200260200101516040518363ffffffff1660e01b8152600401610c7b929190613d6a565b602060405180830381600087803b158015610c9557600080fd5b505af1158015610ca9573d6000803e3d6000fd5b505050506040513d601f19601f82011682018060405250810190610ccd9190613981565b505b5080610cda81613eef565b915050610b12565b50338a6001600160a01b038d167f9a1dccf45b5053e827f262e45fbb5211c2bd99497d340eecaebbd245eb48f4bc8a610d1a8e613f0a565b8b8b604051610d2c9493929190613d3d565b60405180910390a4505050509550959350505050565b6001600160a01b03808616600090815260016020908152604080832088845290915281205490916060911680610d8a5760405162461bcd60e51b815260040161043890613d96565b60405163eb44fdd360e01b8152600481018890526000906001600160a01b038a169063eb44fdd39060240160006040518083038186803b158015610dcd57600080fd5b505afa158015610de1573d6000803e3d6000fd5b505050506040513d6000823e601f3d908101601f19168201604052610e099190810190613ba0565b6040516323b872dd60e01b81529091506001600160a01b038316906323b872dd90610e3c90339030908c90600401613d19565b602060405180830381600087803b158015610e5657600080fd5b505af1158015610e6a573d6000803e3d6000fd5b505050506040513d601f19601f82011682018060405250810190610e8e9190613981565b50606060008260200151516001600160401b03811115610ebe57634e487b7160e01b600052604160045260246000fd5b604051908082528060200260200182016040528015610ee7578160200160208202803683370190505b5060405163ea40f3f760e01b81529091506001600160a01b0385169063ea40f3f790610f19908c908590600401613dcd565b60006040518083038186803b158015610f3157600080fd5b505afa158015610f45573d6000803e3d6000fd5b505050506040513d6000823e601f3d908101601f19168201604052610f6d919081019061394f565b60405163b02f0b7360e01b81529092506001600160a01b0385169063b02f0b7390610f9e908c908590600401613dcd565b600060405180830381600087803b158015610fb857600080fd5b505af1158015610fcc573d6000803e3d6000fd5b5060001993506000925050505b83602001515181101561103157600083828151811061100857634e487b7160e01b600052603260045260246000fd5b602002602001015190508281101561101e578092505b508061102981613eef565b915050610fd9565b508a6001600160a01b0316637641ab016040518163ffffffff1660e01b815260040160206040518083038186803b15801561106b57600080fd5b505afa15801561107f573d6000803e3d6000fd5b505050506040513d601f19601f820116820180604052508101906110a39190613ca4565b8b6001600160a01b0316637641ab016040518163ffffffff1660e01b815260040160206040518083038186803b1580156110dc57600080fd5b505afa1580156110f0573d6000803e3d6000fd5b505050506040513d601f19601f820116820180604052508101906111149190613ca4565b61111e9083613e99565b6111289190613eb9565b6040516353ac55f560e01b8152600481018c90529091506000906001600160a01b038d16906353ac55f59060240160206040518083038186803b15801561116e57600080fd5b505afa158015611182573d6000803e3d6000fd5b505050506040513d601f19601f820116820180604052508101906111a69190613981565b905080156112375760405163992c907960e01b8152600481018c90526001600160a01b0389811660248301528d169063992c907990604401602060405180830381600087803b1580156111f857600080fd5b505af115801561120c573d6000803e3d6000fd5b505050506040513d601f19601f820116820180604052508101906112309190613ca4565b96506112bc565b6040516335a9cdad60e01b81526001600160a01b038d16906335a9cdad90611267908e9086908d90600401613de6565b602060405180830381600087803b15801561128157600080fd5b505af1158015611295573d6000803e3d6000fd5b505050506040513d601f19601f820116820180604052508101906112b99190613ca4565b96505b88871161131a5760405162461bcd60e51b815260206004820152602660248201527f416d6f756e74206f6620636f6c6c61746572616c2072657475726e656420746f60448201526537903637bb9760d11b6064820152608401610438565b8360200151516001600160401b0381111561134557634e487b7160e01b600052604160045260246000fd5b60405190808252806020026020018201604052801561136e578160200160208202803683370190505b50955060005b84602001515181101561152a576000856020015182815181106113a757634e487b7160e01b600052603260045260246000fd5b602002602001015190508280156113d3575085604001516001600160a01b0316816001600160a01b0316145b156113de5750611518565b838583815181106113ff57634e487b7160e01b600052603260045260246000fd5b60200260200101516114119190613ed8565b88838151811061143157634e487b7160e01b600052603260045260246000fd5b602002602001018181525050600088838151811061145f57634e487b7160e01b600052603260045260246000fd5b6020026020010151111561151657806001600160a01b031663a9059cbb8b8a858151811061149d57634e487b7160e01b600052603260045260246000fd5b60200260200101516040518363ffffffff1660e01b81526004016114c2929190613d6a565b602060405180830381600087803b1580156114dc57600080fd5b505af11580156114f0573d6000803e3d6000fd5b505050506040513d601f19601f820116820180604052508101906115149190613981565b505b505b8061152281613eef565b915050611374565b50336001600160a01b03168b8d6001600160a01b03167f9a1dccf45b5053e827f262e45fbb5211c2bd99497d340eecaebbd245eb48f4bc8b8b8f61156d90613f0a565b8c60405161157e9493929190613d3d565b60405180910390a450505050509550959350505050565b6001600160a01b038083166000908152600160209081526040808320858452909152902054165b92915050565b6001600160a01b038086166000908152600160209081526040808320888452909152812054909116806116075760405162461bcd60e51b815260040161043890613d96565b60405163eb44fdd360e01b8152600481018790526000906001600160a01b0389169063eb44fdd39060240160006040518083038186803b15801561164a57600080fd5b505afa15801561165e573d6000803e3d6000fd5b505050506040513d6000823e601f3d908101601f191682016040526116869190810190613ba0565b90506000196000805b8360200151518110156116e3578781815181106116bc57634e487b7160e01b600052603260045260246000fd5b6020026020010151826116cf9190613e81565b9150806116db81613eef565b91505061168f565b508260200151888151811061170857634e487b7160e01b600052603260045260246000fd5b60200260200101516001600160a01b03166323b872dd3330846040518463ffffffff1660e01b815260040161173f93929190613d19565b602060405180830381600087803b15801561175957600080fd5b505af115801561176d573d6000803e3d6000fd5b505050506040513d601f19601f820116820180604052508101906117919190613981565b50826020015188815181106117b657634e487b7160e01b600052603260045260246000fd5b60200260200101516001600160a01b031663095ea7b3856000196040518363ffffffff1660e01b81526004016117ed929190613d6a565b602060405180830381600087803b15801561180757600080fd5b505af115801561181b573d6000803e3d6000fd5b505050506040513d601f19601f8201168201806040525081019061183f9190613981565b5060005b836020015151811015611aa8578881141561185d57611a96565b60008460200151828151811061188357634e487b7160e01b600052603260045260246000fd5b602002602001015190506000866001600160a01b0316638201aa3f87602001518d815181106118c257634e487b7160e01b600052603260045260246000fd5b60200260200101518c86815181106118ea57634e487b7160e01b600052603260045260246000fd5b60209081029190910101516040516001600160e01b031960e085901b1681526001600160a01b0392831660048201526024810191909152908516604482015260006064820152600019608482015260a4016040805180830381600087803b15801561195457600080fd5b505af1158015611968573d6000803e3d6000fd5b505050506040513d601f19601f8201168201806040525081019061198c9190613cbc565b5090508c6001600160a01b0316637641ab016040518163ffffffff1660e01b815260040160206040518083038186803b1580156119c857600080fd5b505afa1580156119dc573d6000803e3d6000fd5b505050506040513d601f19601f82011682018060405250810190611a009190613ca4565b8d6001600160a01b0316637641ab016040518163ffffffff1660e01b815260040160206040518083038186803b158015611a3957600080fd5b505afa158015611a4d573d6000803e3d6000fd5b505050506040513d601f19601f82011682018060405250810190611a719190613ca4565b611a7b9083613e99565b611a859190613eb9565b905084811015611a93578094505b50505b80611aa081613eef565b915050611843565b5085821015611af95760405162461bcd60e51b815260206004820152601b60248201527f4d696e696d756d2073657473206e6f7420617661696c61626c652e00000000006044820152606401610438565b6040516335a9cdad60e01b81526001600160a01b038b16906335a9cdad90611b29908c9086903390600401613de6565b602060405180830381600087803b158015611b4357600080fd5b505af1158015611b57573d6000803e3d6000fd5b505050506040513d601f19601f82011682018060405250810190611b7b9190613ca4565b5060005b836020015151811015611cd957600084602001518281518110611bb257634e487b7160e01b600052603260045260246000fd5b60209081029190910101516040516370a0823160e01b81523060048201529091506000906001600160a01b038316906370a082319060240160206040518083038186803b158015611c0257600080fd5b505afa158015611c16573d6000803e3d6000fd5b505050506040513d601f19601f82011682018060405250810190611c3a9190613ca4565b90508015611cc45760405163a9059cbb60e01b81526001600160a01b0383169063a9059cbb90611c709033908590600401613d6a565b602060405180830381600087803b158015611c8a57600080fd5b505af1158015611c9e573d6000803e3d6000fd5b505050506040513d601f19601f82011682018060405250810190611cc29190613981565b505b50508080611cd190613eef565b915050611b7f565b5060405163239d36a960e11b8152600481018390526000906001600160a01b038c169063473a6d529060240160206040518083038186803b158015611d1d57600080fd5b505afa158015611d31573d6000803e3d6000fd5b505050506040513d601f19601f82011682018060405250810190611d559190613ca4565b9050338a6001600160a01b038d167fec2a60d57293d00dfe68ab5f1d18738c4600ce39c0c0c623fc086814615f33fa8c85611d8f88613f0a565b611d998a8a613672565b60408051948552602085019390935291830152606082015260800160405180910390a49a9950505050505050505050565b6001600160a01b03808616600090815260016020908152604080832088845290915281205490911680611e0f5760405162461bcd60e51b815260040161043890613d96565b60405163eb44fdd360e01b8152600481018790526000906001600160a01b0389169063eb44fdd39060240160006040518083038186803b158015611e5257600080fd5b505afa158015611e66573d6000803e3d6000fd5b505050506040513d6000823e601f3d908101601f19168201604052611e8e9190810190613ba0565b60405163ea05487960e01b81526004810189905260248101889052604481018790529091506001600160a01b0389169063ea05487990606401600060405180830381600087803b158015611ee157600080fd5b505af1158015611ef5573d6000803e3d6000fd5b505050506000886001600160a01b031663d8dfeb456040518163ffffffff1660e01b815260040160206040518083038186803b158015611f3457600080fd5b505afa158015611f48573d6000803e3d6000fd5b505050506040513d601f19601f82011682018060405250810190611f6c9190613b84565b6040516323b872dd60e01b81529091506001600160a01b038216906323b872dd90611f9f90339030908b90600401613d19565b602060405180830381600087803b158015611fb957600080fd5b505af1158015611fcd573d6000803e3d6000fd5b505050506040513d601f19601f82011682018060405250810190611ff19190613981565b50604051636643d6f560e11b8152600481018790526000906001600160a01b038b169063cc87adea9060240160206040518083038186803b15801561203557600080fd5b505afa158015612049573d6000803e3d6000fd5b505050506040513d601f19601f8201168201806040525081019061206d9190613ca4565b60405163221fff8160e01b81529091506001600160a01b038b169063221fff81906120a0908c9085903090600401613de6565b600060405180830381600087803b1580156120ba57600080fd5b505af11580156120ce573d6000803e3d6000fd5b505050506000819050600084602001518a815181106120fd57634e487b7160e01b600052603260045260246000fd5b6020026020010151905060005b856020015151811015612216578a81141561212457612204565b60008660200151828151811061214a57634e487b7160e01b600052603260045260246000fd5b6020908102919091010151604051638201aa3f60e01b81526001600160a01b03808316600483015260248201889052858116604483015260006064830181905260001960848401529293508a1690638201aa3f9060a4016040805180830381600087803b1580156121ba57600080fd5b505af11580156121ce573d6000803e3d6000fd5b505050506040513d601f19601f820116820180604052508101906121f29190613cbc565b5090506121ff8186613e81565b945050505b8061220e81613eef565b91505061210a565b508782101561225b5760405162461bcd60e51b815260206004820152601160248201527014db1a5c1c1859d948195e18d959591959607a1b6044820152606401610438565b60405163a9059cbb60e01b81526001600160a01b0382169063a9059cbb906122899033908690600401613d6a565b602060405180830381600087803b1580156122a357600080fd5b505af11580156122b7573d6000803e3d6000fd5b505050506040513d601f19601f820116820180604052508101906122db9190613981565b503390508a6001600160a01b038d167fec2a60d57293d00dfe68ab5f1d18738c4600ce39c0c0c623fc086814615f33fa8c6123158d613f0a565b86611d998989613672565b6103d6620f4240670de0b6b3a7640000613e99565b6001600160a01b038481166000908152600160209081526040808320878452909152812054909116156123a15760405162461bcd60e51b8152602060048201526014602482015273141bdbdb08185b1c9958591e4818dc99585d195960621b6044820152606401610438565b60405163eb44fdd360e01b8152600481018590526000906001600160a01b0387169063eb44fdd39060240160006040518083038186803b1580156123e457600080fd5b505afa1580156123f8573d6000803e3d6000fd5b505050506040513d6000823e601f3d908101601f191682016040526124209190810190613ba0565b604051636643d6f560e11b8152600481018690529091506000906001600160a01b0388169063cc87adea9060240160206040518083038186803b15801561246657600080fd5b505afa15801561247a573d6000803e3d6000fd5b505050506040513d601f19601f8201168201806040525081019061249e9190613ca4565b90506124b3670de0b6b3a76400006064613eb9565b81101561251d5760405162461bcd60e51b815260206004820152603260248201527f496e697469616c206c6971756964697479206d757374206265206174206c656160448201527139ba101898181031b7b63630ba32b930b61760711b6064820152608401610438565b6000876001600160a01b031663d8dfeb456040518163ffffffff1660e01b815260040160206040518083038186803b15801561255857600080fd5b505afa15801561256c573d6000803e3d6000fd5b505050506040513d601f19601f820116820180604052508101906125909190613b84565b604051636eb1769f60e11b815233600482015230602482015290915086906001600160a01b0383169063dd62ed3e9060440160206040518083038186803b1580156125da57600080fd5b505afa1580156125ee573d6000803e3d6000fd5b505050506040513d601f19601f820116820180604052508101906126129190613ca4565b10156126865760405162461bcd60e51b815260206004820152603760248201527f696e73756666696369656e7420636f6c6c61746572616c20616c6c6f77616e6360448201527f6520666f7220696e697469616c206c69717569646974790000000000000000006064820152608401610438565b6040516323b872dd60e01b81526001600160a01b038216906323b872dd906126b690339030908b90600401613d19565b602060405180830381600087803b1580156126d057600080fd5b505af11580156126e4573d6000803e3d6000fd5b505050506040513d601f19601f820116820180604052508101906127089190613981565b5060405163095ea7b360e01b81526001600160a01b0382169063095ea7b390612739908b9060001990600401613d6a565b602060405180830381600087803b15801561275357600080fd5b505af1158015612767573d6000803e3d6000fd5b505050506040513d601f19601f8201168201806040525081019061278b9190613981565b5060405163221fff8160e01b81526001600160a01b0389169063221fff81906127bc908a9086903090600401613de6565b600060405180830381600087803b1580156127d657600080fd5b505af11580156127ea573d6000803e3d6000fd5b5050505060008060009054906101000a90046001600160a01b03166001600160a01b031663d556c5dc6040518163ffffffff1660e01b8152600401602060405180830381600087803b15801561283f57600080fd5b505af1158015612853573d6000803e3d6000fd5b505050506040513d601f19601f820116820180604052508101906128779190613b84565b905060005b8460200151518110156129f7576000856020015182815181106128af57634e487b7160e01b600052603260045260246000fd5b60200260200101519050806001600160a01b031663095ea7b3846000196040518363ffffffff1660e01b81526004016128e9929190613d6a565b602060405180830381600087803b15801561290357600080fd5b505af1158015612917573d6000803e3d6000fd5b505050506040513d601f19601f8201168201806040525081019061293b9190613981565b50826001600160a01b031663e4e1e5388287896101200151868151811061297257634e487b7160e01b600052603260045260246000fd5b60209081029190910101516040516001600160e01b031960e086901b1681526001600160a01b03909316600484015260248301919091526044820152606401600060405180830381600087803b1580156129cb57600080fd5b505af11580156129df573d6000803e3d6000fd5b505050505080806129ef90613eef565b91505061287c565b506002546040516334e1990760e01b815260048101919091526001600160a01b038216906334e1990790602401600060405180830381600087803b158015612a3e57600080fd5b505af1158015612a52573d6000803e3d6000fd5b50505050806001600160a01b0316634bb278f36040518163ffffffff1660e01b8152600401600060405180830381600087803b158015612a9157600080fd5b505af1158015612aa5573d6000803e3d6000fd5b505050506001600160a01b0389811660009081526001602090815260408083208c8452909152812080546001600160a01b03191692841692909217909155612af76103e8670de0b6b3a7640000613e99565b6040516370a0823160e01b81523060048201526001600160a01b038416906370a082319060240160206040518083038186803b158015612b3657600080fd5b505afa158015612b4a573d6000803e3d6000fd5b505050506040513d601f19601f82011682018060405250810190612b6e9190613ca4565b612b789190613ed8565b90506001600160a01b03821663a9059cbb6000612b9f6103e8670de0b6b3a7640000613e99565b6040518363ffffffff1660e01b8152600401612bbc929190613d6a565b602060405180830381600087803b158015612bd657600080fd5b505af1158015612bea573d6000803e3d6000fd5b505050506040513d601f19601f82011682018060405250810190612c0e9190613981565b5060405163a9059cbb60e01b81526001600160a01b0383169063a9059cbb90612c3d908a908590600401613d6a565b602060405180830381600087803b158015612c5757600080fd5b505af1158015612c6b573d6000803e3d6000fd5b505050506040513d601f19601f82011682018060405250810190612c8f9190613981565b5060008560200151516001600160401b03811115612cbd57634e487b7160e01b600052604160045260246000fd5b604051908082528060200260200182016040528015612ce6578160200160208202803683370190505b50905060005b866020015151811015612d38576000828281518110612d1b57634e487b7160e01b600052603260045260246000fd5b602090810291909101015280612d3081613eef565b915050612cec565b50604080516001600160a01b0385811682528a8116602083015233928d92918f16917ffb27591822deac7913ea973cf845992f243e2ba5634ef8fbe0b6554aca37a428910160405180910390a4338a6001600160a01b038d167f9a1dccf45b5053e827f262e45fbb5211c2bd99497d340eecaebbd245eb48f4bc8b612dbc8e613f0a565b8787604051612dce9493929190613d3d565b60405180910390a4509998505050505050505050565b6103d664e8d4a51000670de0b6b3a7640000613e99565b6103d6670de0b6b3a76400006064613eb9565b612e216003670de0b6b3a7640000613e99565b6103d6906001613e81565b6001600160a01b0383811660009081526001602090815260408083208684529091528082205490516370a0823160e01b815284841660048201529192169081906370a082319060240160206040518083038186803b158015612e8d57600080fd5b505afa158015612ea1573d6000803e3d6000fd5b505050506040513d601f19601f82011682018060405250810190612ec59190613ca4565b95945050505050565b6103d6600a670de0b6b3a7640000613e99565b6001612ef6670de0b6b3a76400006002613eb9565b6103d69190613ed8565b6001600160a01b0380831660009081526001602090815260408083208584529091529020546060911680612f635760005b604051908082528060200260200182016040528015612f5a578160200160208202803683370190505b509150506115bc565b60405163eb44fdd360e01b8152600481018490526000906001600160a01b0386169063eb44fdd39060240160006040518083038186803b158015612fa657600080fd5b505afa158015612fba573d6000803e3d6000fd5b505050506040513d6000823e601f3d908101601f19168201604052612fe29190810190613ba0565b90506000816020015160008151811061300b57634e487b7160e01b600052603260045260246000fd5b6020026020010151905060008260200151516001600160401b0381111561304257634e487b7160e01b600052604160045260246000fd5b60405190808252806020026020018201604052801561306b578160200160208202803683370190505b509050670de0b6b3a76400008160008151811061309857634e487b7160e01b600052603260045260246000fd5b602090810291909101015260015b8360200151518110156131b4576000856001600160a01b03166315e84af985876020015185815181106130e957634e487b7160e01b600052603260045260246000fd5b60200260200101516040518363ffffffff1660e01b81526004016131239291906001600160a01b0392831681529116602082015260400190565b60206040518083038186803b15801561313b57600080fd5b505afa15801561314f573d6000803e3d6000fd5b505050506040513d601f19601f820116820180604052508101906131739190613ca4565b90508083838151811061319657634e487b7160e01b600052603260045260246000fd5b602090810291909101015250806131ac81613eef565b9150506130a6565b509695505050505050565b6001600160a01b03808316600090815260016020908152604080832085845290915290205460609116806131f4576000612f31565b6000816001600160a01b031663cc77828d6040518163ffffffff1660e01b815260040160006040518083038186803b15801561322f57600080fd5b505afa158015613243573d6000803e3d6000fd5b505050506040513d6000823e601f3d908101601f1916820160405261326b91908101906138b4565b9050600081516001600160401b0381111561329657634e487b7160e01b600052604160045260246000fd5b6040519080825280602002602001820160405280156132bf578160200160208202803683370190505b50905060005b82518110156133bd57836001600160a01b031663948d8ce68483815181106132fd57634e487b7160e01b600052603260045260246000fd5b60200260200101516040518263ffffffff1660e01b815260040161333091906001600160a01b0391909116815260200190565b60206040518083038186803b15801561334857600080fd5b505afa15801561335c573d6000803e3d6000fd5b505050506040513d601f19601f820116820180604052508101906133809190613ca4565b8282815181106133a057634e487b7160e01b600052603260045260246000fd5b6020908102919091010152806133b581613eef565b9150506132c5565b5095945050505050565b6001600160a01b03808316600090815260016020908152604080832085845290915290205460609116806133fc576000612f31565b6000816001600160a01b031663cc77828d6040518163ffffffff1660e01b815260040160006040518083038186803b15801561343757600080fd5b505afa15801561344b573d6000803e3d6000fd5b505050506040513d6000823e601f3d908101601f1916820160405261347391908101906138b4565b9050600081516001600160401b0381111561349e57634e487b7160e01b600052604160045260246000fd5b6040519080825280602002602001820160405280156134c7578160200160208202803683370190505b50905060005b82518110156133bd57836001600160a01b031663f8b2cb4f84838151811061350557634e487b7160e01b600052603260045260246000fd5b60200260200101516040518263ffffffff1660e01b815260040161353891906001600160a01b0391909116815260200190565b60206040518083038186803b15801561355057600080fd5b505afa158015613564573d6000803e3d6000fd5b505050506040513d601f19601f820116820180604052508101906135889190613ca4565b8282815181106135a857634e487b7160e01b600052603260045260246000fd5b6020908102919091010152806135bd81613eef565b9150506134cd565b6103d66002670de0b6b3a7640000613e99565b6001600160a01b0380831660009081526001602090815260408083208584528252808320548151631a995bed60e31b8152915193941692839263d4cadf689260048082019391829003018186803b15801561363257600080fd5b505afa158015613646573d6000803e3d6000fd5b505050506040513d601f19601f8201168201806040525081019061366a9190613ca4565b949350505050565b6000816136b05760405162461bcd60e51b815260206004820152600c60248201526b4552525f4449565f5a45524f60a01b6044820152606401610438565b60006136c4670de0b6b3a764000085613eb9565b90508315806136e35750670de0b6b3a76400006136e18583613e99565b145b6137225760405162461bcd60e51b815260206004820152601060248201526f11549497d1125597d25395115493905360821b6044820152606401610438565b600061372f600285613e99565b6137399083613e81565b90508181101561377e5760405162461bcd60e51b815260206004820152601060248201526f11549497d1125597d25395115493905360821b6044820152606401610438565b600061378a8583613e99565b9695505050505050565b805161379f81613f50565b919050565b600082601f8301126137b4578081fd5b815160206137c96137c483613e5e565b613e2e565b80838252828201915082860187848660051b89010111156137e8578586fd5b855b8581101561380f5781516137fd81613f50565b845292840192908401906001016137ea565b5090979650505050505050565b600082601f83011261382c578081fd5b8151602061383c6137c483613e5e565b80838252828201915082860187848660051b890101111561385b578586fd5b855b8581101561380f5781518452928401929084019060010161385d565b8051801515811461379f57600080fd5b6000806040838503121561389b578182fd5b82356138a681613f50565b946020939093013593505050565b600060208083850312156138c6578182fd5b82516001600160401b038111156138db578283fd5b8301601f810185136138eb578283fd5b80516138f96137c482613e5e565b80828252848201915084840188868560051b8701011115613918578687fd5b8694505b8385101561394357805161392f81613f50565b83526001949094019391850191850161391c565b50979650505050505050565b600060208284031215613960578081fd5b81516001600160401b03811115613975578182fd5b61366a8482850161381c565b600060208284031215613992578081fd5b61399b82613879565b9392505050565b6000806000606084860312156139b6578081fd5b83356139c181613f50565b92506020840135915060408401356139d881613f50565b809150509250925092565b600080600080608085870312156139f8578182fd5b8435613a0381613f50565b935060208501359250604085013591506060850135613a2181613f50565b939692955090935050565b600080600080600060a08688031215613a43578283fd5b8535613a4e81613f50565b945060208681013594506040870135935060608701356001600160401b03811115613a77578283fd5b8701601f81018913613a87578283fd5b8035613a956137c482613e5e565b8082825284820191508484018c868560051b8701011115613ab4578687fd5b8694505b83851015613ad6578035835260019490940193918501918501613ab8565b50989b979a509598608001359695505050505050565b600080600080600060a08688031215613b03578283fd5b8535613b0e81613f50565b94506020860135935060408601359250606086013591506080860135613b3381613f50565b809150509295509295909350565b600080600080600060a08688031215613b58578283fd5b8535613b6381613f50565b97602087013597506040870135966060810135965060800135945092505050565b600060208284031215613b95578081fd5b815161399b81613f50565b600060208284031215613bb1578081fd5b81516001600160401b0380821115613bc7578283fd5b908301906101608286031215613bdb578283fd5b613be3613e05565b613bec83613794565b8152602083015182811115613bff578485fd5b613c0b878286016137a4565b602083015250613c1d60408401613794565b6040820152606083015160608201526080830151608082015260a083015160a082015260c083015160c082015260e083015160e08201526101008084015181830152506101208084015183811115613c73578586fd5b613c7f8882870161381c565b8284015250506101409150613c95828401613879565b91810191909152949350505050565b600060208284031215613cb5578081fd5b5051919050565b60008060408385031215613cce578182fd5b505080516020909101519092909150565b6000815180845260208085019450808401835b83811015613d0e57815187529582019590820190600101613cf2565b509495945050505050565b6001600160a01b039384168152919092166020820152604081019190915260600190565b60018060a01b038516815283602082015282604082015260806060820152600061378a6080830184613cdf565b6001600160a01b03929092168252602082015260400190565b60208152600061399b6020830184613cdf565b60208082526018908201527f506f6f6c206e6565647320746f20626520637265617465640000000000000000604082015260600190565b82815260406020820152600061366a6040830184613cdf565b92835260208301919091526001600160a01b0316604082015260600190565b60405161016081016001600160401b0381118282101715613e2857613e28613f3a565b60405290565b604051601f8201601f191681016001600160401b0381118282101715613e5657613e56613f3a565b604052919050565b60006001600160401b03821115613e7757613e77613f3a565b5060051b60200190565b60008219821115613e9457613e94613f24565b500190565b600082613eb457634e487b7160e01b81526012600452602481fd5b500490565b6000816000190483118215151615613ed357613ed3613f24565b500290565b600082821015613eea57613eea613f24565b500390565b6000600019821415613f0357613f03613f24565b5060010190565b6000600160ff1b821415613f2057613f20613f24565b0390565b634e487b7160e01b600052601160045260246000fd5b634e487b7160e01b600052604160045260246000fd5b6001600160a01b0381168114613f6557600080fd5b5056fea264697066735822122008cb8a5b1272f67b371670539a16418394ec565cae8a34bb80679b2e0cc2845f64736f6c63430008040033",
  "devdoc": {
    "kind": "dev",
    "methods": {},
    "version": 1
  },
  "userdoc": {
    "kind": "user",
    "methods": {},
    "version": 1
  },
  "storageLayout": {
    "storage": [
      {
        "astId": 19701,
        "contract": "contracts/turbo/AMMFactory.sol:AMMFactory",
        "label": "bFactory",
        "offset": 0,
        "slot": "0",
        "type": "t_contract(BFactory)6122"
      },
      {
        "astId": 19708,
        "contract": "contracts/turbo/AMMFactory.sol:AMMFactory",
        "label": "pools",
        "offset": 0,
        "slot": "1",
        "type": "t_mapping(t_address,t_mapping(t_uint256,t_contract(BPool)9471))"
      },
      {
        "astId": 19710,
        "contract": "contracts/turbo/AMMFactory.sol:AMMFactory",
        "label": "fee",
        "offset": 0,
        "slot": "2",
        "type": "t_uint256"
      }
    ],
    "types": {
      "t_address": {
        "encoding": "inplace",
        "label": "address",
        "numberOfBytes": "20"
      },
      "t_contract(BFactory)6122": {
        "encoding": "inplace",
        "label": "contract BFactory",
        "numberOfBytes": "20"
      },
      "t_contract(BPool)9471": {
        "encoding": "inplace",
        "label": "contract BPool",
        "numberOfBytes": "20"
      },
      "t_mapping(t_address,t_mapping(t_uint256,t_contract(BPool)9471))": {
        "encoding": "mapping",
        "key": "t_address",
        "label": "mapping(address => mapping(uint256 => contract BPool))",
        "numberOfBytes": "32",
        "value": "t_mapping(t_uint256,t_contract(BPool)9471)"
      },
      "t_mapping(t_uint256,t_contract(BPool)9471)": {
        "encoding": "mapping",
        "key": "t_uint256",
        "label": "mapping(uint256 => contract BPool)",
        "numberOfBytes": "32",
        "value": "t_contract(BPool)9471"
      },
      "t_uint256": {
        "encoding": "inplace",
        "label": "uint256",
        "numberOfBytes": "32"
      }
    }
  }
}