{
  "address": "0x7fc5F526A8be47f9D6460b26D59532C35bd54931",
  "abi": [
    {
      "inputs": [
        {
          "internalType": "contract BFactory",
          "name": "_bFactory",
          "type": "address"
        },
        {
          "internalType": "uint256",
          "name": "_fee",
          "type": "uint256"
        }
      ],
      "stateMutability": "nonpayable",
      "type": "constructor"
    },
    {
      "anonymous": false,
      "inputs": [
        {
          "indexed": true,
          "internalType": "address",
          "name": "marketFactory",
          "type": "address"
        },
        {
          "indexed": true,
          "internalType": "uint256",
          "name": "marketId",
          "type": "uint256"
        },
        {
          "indexed": true,
          "internalType": "address",
          "name": "user",
          "type": "address"
        },
        {
          "indexed": false,
          "internalType": "address",
          "name": "recipient",
          "type": "address"
        },
        {
          "indexed": false,
          "internalType": "int256",
          "name": "collateral",
          "type": "int256"
        },
        {
          "indexed": false,
          "internalType": "int256",
          "name": "lpTokens",
          "type": "int256"
        },
        {
          "indexed": false,
          "internalType": "uint256[]",
          "name": "sharesReturned",
          "type": "uint256[]"
        }
      ],
      "name": "LiquidityChanged",
      "type": "event"
    },
    {
      "anonymous": false,
      "inputs": [
        {
          "indexed": false,
          "internalType": "address",
          "name": "pool",
          "type": "address"
        },
        {
          "indexed": true,
          "internalType": "address",
          "name": "marketFactory",
          "type": "address"
        },
        {
          "indexed": true,
          "internalType": "uint256",
          "name": "marketId",
          "type": "uint256"
        },
        {
          "indexed": true,
          "internalType": "address",
          "name": "creator",
          "type": "address"
        },
        {
          "indexed": false,
          "internalType": "address",
          "name": "lpTokenRecipient",
          "type": "address"
        }
      ],
      "name": "PoolCreated",
      "type": "event"
    },
    {
      "anonymous": false,
      "inputs": [
        {
          "indexed": true,
          "internalType": "address",
          "name": "marketFactory",
          "type": "address"
        },
        {
          "indexed": true,
          "internalType": "uint256",
          "name": "marketId",
          "type": "uint256"
        },
        {
          "indexed": true,
          "internalType": "address",
          "name": "user",
          "type": "address"
        },
        {
          "indexed": false,
          "internalType": "uint256",
          "name": "outcome",
          "type": "uint256"
        },
        {
          "indexed": false,
          "internalType": "int256",
          "name": "collateral",
          "type": "int256"
        },
        {
          "indexed": false,
          "internalType": "int256",
          "name": "shares",
          "type": "int256"
        },
        {
          "indexed": false,
          "internalType": "uint256",
          "name": "price",
          "type": "uint256"
        }
      ],
      "name": "SharesSwapped",
      "type": "event"
    },
    {
      "inputs": [],
      "name": "BONE",
      "outputs": [
        {
          "internalType": "uint256",
          "name": "",
          "type": "uint256"
        }
      ],
      "stateMutability": "view",
      "type": "function"
    },
    {
      "inputs": [],
      "name": "BPOW_PRECISION",
      "outputs": [
        {
          "internalType": "uint256",
          "name": "",
          "type": "uint256"
        }
      ],
      "stateMutability": "view",
      "type": "function"
    },
    {
      "inputs": [],
      "name": "EXIT_FEE",
      "outputs": [
        {
          "internalType": "uint256",
          "name": "",
          "type": "uint256"
        }
      ],
      "stateMutability": "view",
      "type": "function"
    },
    {
      "inputs": [],
      "name": "INIT_POOL_SUPPLY",
      "outputs": [
        {
          "internalType": "uint256",
          "name": "",
          "type": "uint256"
        }
      ],
      "stateMutability": "view",
      "type": "function"
    },
    {
      "inputs": [],
      "name": "MAX_BOUND_TOKENS",
      "outputs": [
        {
          "internalType": "uint256",
          "name": "",
          "type": "uint256"
        }
      ],
      "stateMutability": "view",
      "type": "function"
    },
    {
      "inputs": [],
      "name": "MAX_BPOW_BASE",
      "outputs": [
        {
          "internalType": "uint256",
          "name": "",
          "type": "uint256"
        }
      ],
      "stateMutability": "view",
      "type": "function"
    },
    {
      "inputs": [],
      "name": "MAX_FEE",
      "outputs": [
        {
          "internalType": "uint256",
          "name": "",
          "type": "uint256"
        }
      ],
      "stateMutability": "view",
      "type": "function"
    },
    {
      "inputs": [],
      "name": "MAX_IN_RATIO",
      "outputs": [
        {
          "internalType": "uint256",
          "name": "",
          "type": "uint256"
        }
      ],
      "stateMutability": "view",
      "type": "function"
    },
    {
      "inputs": [],
      "name": "MAX_OUT_RATIO",
      "outputs": [
        {
          "internalType": "uint256",
          "name": "",
          "type": "uint256"
        }
      ],
      "stateMutability": "view",
      "type": "function"
    },
    {
      "inputs": [],
      "name": "MAX_TOTAL_WEIGHT",
      "outputs": [
        {
          "internalType": "uint256",
          "name": "",
          "type": "uint256"
        }
      ],
      "stateMutability": "view",
      "type": "function"
    },
    {
      "inputs": [],
      "name": "MAX_WEIGHT",
      "outputs": [
        {
          "internalType": "uint256",
          "name": "",
          "type": "uint256"
        }
      ],
      "stateMutability": "view",
      "type": "function"
    },
    {
      "inputs": [],
      "name": "MIN_BALANCE",
      "outputs": [
        {
          "internalType": "uint256",
          "name": "",
          "type": "uint256"
        }
      ],
      "stateMutability": "view",
      "type": "function"
    },
    {
      "inputs": [],
      "name": "MIN_BOUND_TOKENS",
      "outputs": [
        {
          "internalType": "uint256",
          "name": "",
          "type": "uint256"
        }
      ],
      "stateMutability": "view",
      "type": "function"
    },
    {
      "inputs": [],
      "name": "MIN_BPOW_BASE",
      "outputs": [
        {
          "internalType": "uint256",
          "name": "",
          "type": "uint256"
        }
      ],
      "stateMutability": "view",
      "type": "function"
    },
    {
      "inputs": [],
      "name": "MIN_FEE",
      "outputs": [
        {
          "internalType": "uint256",
          "name": "",
          "type": "uint256"
        }
      ],
      "stateMutability": "view",
      "type": "function"
    },
    {
      "inputs": [],
      "name": "MIN_WEIGHT",
      "outputs": [
        {
          "internalType": "uint256",
          "name": "",
          "type": "uint256"
        }
      ],
      "stateMutability": "view",
      "type": "function"
    },
    {
      "inputs": [
        {
          "internalType": "contract AbstractMarketFactoryV3",
          "name": "_marketFactory",
          "type": "address"
        },
        {
          "internalType": "uint256",
          "name": "_marketId",
          "type": "uint256"
        },
        {
          "internalType": "uint256",
          "name": "_collateralIn",
          "type": "uint256"
        },
        {
          "internalType": "uint256",
          "name": "_minLPTokensOut",
          "type": "uint256"
        },
        {
          "internalType": "address",
          "name": "_lpTokenRecipient",
          "type": "address"
        }
      ],
      "name": "addLiquidity",
      "outputs": [
        {
          "internalType": "uint256",
          "name": "_poolAmountOut",
          "type": "uint256"
        },
        {
          "internalType": "uint256[]",
          "name": "_balances",
          "type": "uint256[]"
        }
      ],
      "stateMutability": "nonpayable",
      "type": "function"
    },
    {
      "inputs": [],
      "name": "bFactory",
      "outputs": [
        {
          "internalType": "contract BFactory",
          "name": "",
          "type": "address"
        }
      ],
      "stateMutability": "view",
      "type": "function"
    },
    {
      "inputs": [
        {
          "internalType": "contract AbstractMarketFactoryV3",
          "name": "_marketFactory",
          "type": "address"
        },
        {
          "internalType": "uint256",
          "name": "_marketId",
          "type": "uint256"
        },
        {
          "internalType": "uint256",
          "name": "_outcome",
          "type": "uint256"
        },
        {
          "internalType": "uint256",
          "name": "_collateralIn",
          "type": "uint256"
        },
        {
          "internalType": "uint256",
          "name": "_minTokensOut",
          "type": "uint256"
        }
      ],
      "name": "buy",
      "outputs": [
        {
          "internalType": "uint256",
          "name": "",
          "type": "uint256"
        }
      ],
      "stateMutability": "nonpayable",
      "type": "function"
    },
    {
      "inputs": [
        {
          "internalType": "contract AbstractMarketFactoryV3",
          "name": "_marketFactory",
          "type": "address"
        },
        {
          "internalType": "uint256",
          "name": "_marketId",
          "type": "uint256"
        },
        {
          "internalType": "uint256",
          "name": "_initialLiquidity",
          "type": "uint256"
        },
        {
          "internalType": "address",
          "name": "_lpTokenRecipient",
          "type": "address"
        }
      ],
      "name": "createPool",
      "outputs": [
        {
          "internalType": "uint256",
          "name": "",
          "type": "uint256"
        }
      ],
      "stateMutability": "nonpayable",
      "type": "function"
    },
    {
      "inputs": [],
      "name": "getColor",
      "outputs": [
        {
          "internalType": "bytes32",
          "name": "",
          "type": "bytes32"
        }
      ],
      "stateMutability": "pure",
      "type": "function"
    },
    {
      "inputs": [
        {
          "internalType": "contract AbstractMarketFactoryV3",
          "name": "_marketFactory",
          "type": "address"
        },
        {
          "internalType": "uint256",
          "name": "_marketId",
          "type": "uint256"
        }
      ],
      "name": "getPool",
      "outputs": [
        {
          "internalType": "contract BPool",
          "name": "",
          "type": "address"
        }
      ],
      "stateMutability": "view",
      "type": "function"
    },
    {
      "inputs": [
        {
          "internalType": "contract AbstractMarketFactoryV3",
          "name": "_marketFactory",
          "type": "address"
        },
        {
          "internalType": "uint256",
          "name": "_marketId",
          "type": "uint256"
        }
      ],
      "name": "getPoolBalances",
      "outputs": [
        {
          "internalType": "uint256[]",
          "name": "",
          "type": "uint256[]"
        }
      ],
      "stateMutability": "view",
      "type": "function"
    },
    {
      "inputs": [
        {
          "internalType": "contract AbstractMarketFactoryV3",
          "name": "_marketFactory",
          "type": "address"
        },
        {
          "internalType": "uint256",
          "name": "_marketId",
          "type": "uint256"
        },
        {
          "internalType": "address",
          "name": "_user",
          "type": "address"
        }
      ],
      "name": "getPoolTokenBalance",
      "outputs": [
        {
          "internalType": "uint256",
          "name": "",
          "type": "uint256"
        }
      ],
      "stateMutability": "view",
      "type": "function"
    },
    {
      "inputs": [
        {
          "internalType": "contract AbstractMarketFactoryV3",
          "name": "_marketFactory",
          "type": "address"
        },
        {
          "internalType": "uint256",
          "name": "_marketId",
          "type": "uint256"
        }
      ],
      "name": "getPoolWeights",
      "outputs": [
        {
          "internalType": "uint256[]",
          "name": "",
          "type": "uint256[]"
        }
      ],
      "stateMutability": "view",
      "type": "function"
    },
    {
      "inputs": [
        {
          "internalType": "contract AbstractMarketFactoryV3",
          "name": "_marketFactory",
          "type": "address"
        },
        {
          "internalType": "uint256",
          "name": "_marketId",
          "type": "uint256"
        }
      ],
      "name": "getSwapFee",
      "outputs": [
        {
          "internalType": "uint256",
          "name": "",
          "type": "uint256"
        }
      ],
      "stateMutability": "view",
      "type": "function"
    },
    {
      "inputs": [
        {
          "internalType": "address",
          "name": "",
          "type": "address"
        },
        {
          "internalType": "uint256",
          "name": "",
          "type": "uint256"
        }
      ],
      "name": "pools",
      "outputs": [
        {
          "internalType": "contract BPool",
          "name": "",
          "type": "address"
        }
      ],
      "stateMutability": "view",
      "type": "function"
    },
    {
      "inputs": [
        {
          "internalType": "contract AbstractMarketFactoryV3",
          "name": "_marketFactory",
          "type": "address"
        },
        {
          "internalType": "uint256",
          "name": "_marketId",
          "type": "uint256"
        },
        {
          "internalType": "uint256",
          "name": "_lpTokensIn",
          "type": "uint256"
        },
        {
          "internalType": "uint256",
          "name": "_minCollateralOut",
          "type": "uint256"
        },
        {
          "internalType": "address",
          "name": "_collateralRecipient",
          "type": "address"
        }
      ],
      "name": "removeLiquidity",
      "outputs": [
        {
          "internalType": "uint256",
          "name": "_collateralOut",
          "type": "uint256"
        },
        {
          "internalType": "uint256[]",
          "name": "_balances",
          "type": "uint256[]"
        }
      ],
      "stateMutability": "nonpayable",
      "type": "function"
    },
    {
      "inputs": [
        {
          "internalType": "contract AbstractMarketFactoryV3",
          "name": "_marketFactory",
          "type": "address"
        },
        {
          "internalType": "uint256",
          "name": "_marketId",
          "type": "uint256"
        },
        {
          "internalType": "uint256",
          "name": "_outcome",
          "type": "uint256"
        },
        {
          "internalType": "uint256[]",
          "name": "_shareTokensIn",
          "type": "uint256[]"
        },
        {
          "internalType": "uint256",
          "name": "_minSetsOut",
          "type": "uint256"
        }
      ],
      "name": "sellForCollateral",
      "outputs": [
        {
          "internalType": "uint256",
          "name": "",
          "type": "uint256"
        }
      ],
      "stateMutability": "nonpayable",
      "type": "function"
    },
    {
      "inputs": [
        {
          "internalType": "contract AbstractMarketFactoryV3",
          "name": "_marketFactory",
          "type": "address"
        },
        {
          "internalType": "uint256",
          "name": "_marketId",
          "type": "uint256"
        }
      ],
      "name": "tokenRatios",
      "outputs": [
        {
          "internalType": "uint256[]",
          "name": "",
          "type": "uint256[]"
        }
      ],
      "stateMutability": "view",
      "type": "function"
    }
  ],
  "transactionHash": "0x4ec8ed081fc3f384a99c0578806ed2d4fa8a7d6debab0810134e4322acf28190",
  "args": [
    "0xE152327f9700F1733d12e7a507045FB4A4606C6F",
    "1000000000000"
  ],
  "solcInputHash": "bcb06b8b228bc6167eb9eeb2cf5701fd",
  "bytecode": "0x60806040523480156200001157600080fd5b506040516200532e3803806200532e83398101604081905262000034916200005e565b600080546001600160a01b0319166001600160a01b03939093169290921790915560025562000098565b6000806040838503121562000071578182fd5b82516001600160a01b038116811462000088578283fd5b6020939093015192949293505050565b61528680620000a86000396000f3fe608060405234801561001057600080fd5b50600436106101da5760003560e01c80639a86139b11610104578063c36596a6116100a2578063d2364bf311610071578063d2364bf3146103d3578063e4a28a52146101df578063ec093021146103e6578063fa0de359146103ee57600080fd5b8063c36596a614610247578063c6580d1214610398578063c7b4b6dd146103a0578063d055da71146103c057600080fd5b8063b7b800a4116100de578063b7b800a414610378578063ba019dab14610380578063bc063e1a14610388578063bc694ea21461039057600080fd5b80639a86139b14610337578063a0147aa11461035d578063b0e0d1361461037057600080fd5b806360cac85a1161017c578063867378c51161014b578063867378c5146102de5780638f38a555146102e65780639381cd2b14610327578063992e2a921461032f57600080fd5b806360cac85a1461029d57806372b60c30146102b057806376c7a3c7146102c3578063842980f4146102cb57600080fd5b8063218b5382116101b8578063218b53821461024757806345fa67831461025657806359f842b2146102775780635b5b9ea21461028a57600080fd5b806309a3bbe4146101df5780630a165940146101fa578063189d00ca1461023f575b600080fd5b6101e7610401565b6040519081526020015b60405180910390f35b60005461021a9073ffffffffffffffffffffffffffffffffffffffff1681565b60405173ffffffffffffffffffffffffffffffffffffffff90911681526020016101f1565b6101e7610417565b6101e7670de0b6b3a764000081565b610269610264366004614d87565b61042e565b6040516101f1929190615003565b610269610285366004614d87565b6110dd565b61021a610298366004614b21565b611c6d565b6101e76102ab366004614cc6565b611ca7565b6101e76102be366004614ddc565b6127be565b6101e7612f2c565b6101e76102d9366004614c7d565b612f41565b6101e7613d92565b61021a6102f4366004614b21565b600160209081526000928352604080842090915290825290205473ffffffffffffffffffffffffffffffffffffffff1681565b6101e7613da9565b6101e7613dbc565b7f42524f4e5a4500000000000000000000000000000000000000000000000000006101e7565b6101e761036b366004614c3c565b613dda565b6101e7600881565b6101e7600281565b6101e7600181565b6101e7613ea2565b6101e7613eb5565b6101e7600081565b6103b36103ae366004614b21565b613ed4565b6040516101f19190614ff0565b6103b36103ce366004614b21565b61427c565b6103b36103e1366004614b21565b614522565b6101e76147be565b6101e76103fc366004614b21565b6147d1565b610414670de0b6b3a7640000603261510a565b81565b6104146402540be400670de0b6b3a76400006150d1565b73ffffffffffffffffffffffffffffffffffffffff8086166000908152600160209081526040808320888452909152812054909160609116806104d2576040517f08c379a000000000000000000000000000000000000000000000000000000000815260206004820152601860248201527f506f6f6c206e6565647320746f2062652063726561746564000000000000000060448201526064015b60405180910390fd5b6040517feb44fdd30000000000000000000000000000000000000000000000000000000081526004810188905260009073ffffffffffffffffffffffffffffffffffffffff8a169063eb44fdd39060240160006040518083038186803b15801561053b57600080fd5b505afa15801561054f573d6000803e3d6000fd5b505050506040513d6000823e601f3d9081017fffffffffffffffffffffffffffffffffffffffffffffffffffffffffffffffe01682016040526105959190810190614e3b565b905060008973ffffffffffffffffffffffffffffffffffffffff1663d8dfeb456040518163ffffffff1660e01b815260040160206040518083038186803b1580156105df57600080fd5b505afa1580156105f3573d6000803e3d6000fd5b505050506040513d601f19601f820116820180604052508101906106179190614e1f565b6040517f23b872dd000000000000000000000000000000000000000000000000000000008152336004820152306024820152604481018a905290915073ffffffffffffffffffffffffffffffffffffffff8216906323b872dd90606401602060405180830381600087803b15801561068e57600080fd5b505af11580156106a2573d6000803e3d6000fd5b505050506040513d601f19601f820116820180604052508101906106c69190614c1b565b506040517f095ea7b300000000000000000000000000000000000000000000000000000000815273ffffffffffffffffffffffffffffffffffffffff8b811660048301527fffffffffffffffffffffffffffffffffffffffffffffffffffffffffffffffff602483015282169063095ea7b390604401602060405180830381600087803b15801561075657600080fd5b505af115801561076a573d6000803e3d6000fd5b505050506040513d601f19601f8201168201806040525081019061078e9190614c1b565b506040517fcc87adea0000000000000000000000000000000000000000000000000000000081526004810189905260009073ffffffffffffffffffffffffffffffffffffffff8c169063cc87adea9060240160206040518083038186803b1580156107f857600080fd5b505afa15801561080c573d6000803e3d6000fd5b505050506040513d601f19601f820116820180604052508101906108309190614f40565b6040517f221fff81000000000000000000000000000000000000000000000000000000008152600481018c90526024810182905230604482015290915073ffffffffffffffffffffffffffffffffffffffff8c169063221fff8190606401600060405180830381600087803b1580156108a857600080fd5b505af11580156108bc573d6000803e3d6000fd5b505050507fffffffffffffffffffffffffffffffffffffffffffffffffffffffffffffffff955060008473ffffffffffffffffffffffffffffffffffffffff166318160ddd6040518163ffffffff1660e01b815260040160206040518083038186803b15801561092b57600080fd5b505afa15801561093f573d6000803e3d6000fd5b505050506040513d601f19601f820116820180604052508101906109639190614f40565b9050600084602001515167ffffffffffffffff8111156109ac577f4e487b7100000000000000000000000000000000000000000000000000000000600052604160045260246000fd5b6040519080825280602002602001820160405280156109d5578160200160208202803683370190505b50905060005b856020015151811015610bb25783828281518110610a22577f4e487b7100000000000000000000000000000000000000000000000000000000600052603260045260246000fd5b602002602001018181525050600086602001518281518110610a6d577f4e487b7100000000000000000000000000000000000000000000000000000000600052603260045260246000fd5b60209081029190910101516040517ff8b2cb4f00000000000000000000000000000000000000000000000000000000815273ffffffffffffffffffffffffffffffffffffffff80831660048301529192506000918a169063f8b2cb4f9060240160206040518083038186803b158015610ae557600080fd5b505afa158015610af9573d6000803e3d6000fd5b505050506040513d601f19601f82011682018060405250810190610b1d9190614f40565b90506000670de0b6b3a7640000610b356002886150d1565b8388610b4a6002670de0b6b3a76400006150d1565b610b5c670de0b6b3a76400008d61510a565b610b669190615147565b610b70919061510a565b610b7a91906150d1565b610b849190615147565b610b8e91906150d1565b90508b811015610b9c57809b505b5050508080610baa9061515e565b9150506109db565b506040517f4f69c0d400000000000000000000000000000000000000000000000000000000815273ffffffffffffffffffffffffffffffffffffffff871690634f69c0d490610c07908b908590600401615003565b600060405180830381600087803b158015610c2157600080fd5b505af1158015610c35573d6000803e3d6000fd5b50505050505087861015610ccb576040517f08c379a000000000000000000000000000000000000000000000000000000000815260206004820152602860248201527f576f756c64206e6f74206861766520726563656976656420656e6f756768204c60448201527f5020746f6b656e7300000000000000000000000000000000000000000000000060648201526084016104c9565b6040517fa9059cbb00000000000000000000000000000000000000000000000000000000815273ffffffffffffffffffffffffffffffffffffffff88811660048301526024820188905285169063a9059cbb90604401602060405180830381600087803b158015610d3b57600080fd5b505af1158015610d4f573d6000803e3d6000fd5b505050506040513d601f19601f82011682018060405250810190610d739190614c1b565b5082602001515167ffffffffffffffff811115610db9577f4e487b7100000000000000000000000000000000000000000000000000000000600052604160045260246000fd5b604051908082528060200260200182016040528015610de2578160200160208202803683370190505b50945060005b83602001515181101561107057600084602001518281518110610e34577f4e487b7100000000000000000000000000000000000000000000000000000000600052603260045260246000fd5b60209081029190910101516040517f70a0823100000000000000000000000000000000000000000000000000000000815230600482015290915073ffffffffffffffffffffffffffffffffffffffff8216906370a082319060240160206040518083038186803b158015610ea757600080fd5b505afa158015610ebb573d6000803e3d6000fd5b505050506040513d601f19601f82011682018060405250810190610edf9190614f40565b878381518110610f18577f4e487b7100000000000000000000000000000000000000000000000000000000600052603260045260246000fd5b6020026020010181815250506000878381518110610f5f577f4e487b7100000000000000000000000000000000000000000000000000000000600052603260045260246000fd5b6020026020010151111561105d578073ffffffffffffffffffffffffffffffffffffffff1663a9059cbb8a898581518110610fc3577f4e487b7100000000000000000000000000000000000000000000000000000000600052603260045260246000fd5b60200260200101516040518363ffffffff1660e01b815260040161100992919073ffffffffffffffffffffffffffffffffffffffff929092168252602082015260400190565b602060405180830381600087803b15801561102357600080fd5b505af1158015611037573d6000803e3d6000fd5b505050506040513d601f19601f8201168201806040525081019061105b9190614c1b565b505b50806110688161515e565b915050610de8565b50338a73ffffffffffffffffffffffffffffffffffffffff8d167f9a1dccf45b5053e827f262e45fbb5211c2bd99497d340eecaebbd245eb48f4bc8a6110b58e615197565b8b8b6040516110c79493929190614fb5565b60405180910390a4505050509550959350505050565b73ffffffffffffffffffffffffffffffffffffffff80861660009081526001602090815260408083208884529091528120549091606091168061117c576040517f08c379a000000000000000000000000000000000000000000000000000000000815260206004820152601860248201527f506f6f6c206e6565647320746f2062652063726561746564000000000000000060448201526064016104c9565b6040517feb44fdd30000000000000000000000000000000000000000000000000000000081526004810188905260009073ffffffffffffffffffffffffffffffffffffffff8a169063eb44fdd39060240160006040518083038186803b1580156111e557600080fd5b505afa1580156111f9573d6000803e3d6000fd5b505050506040513d6000823e601f3d9081017fffffffffffffffffffffffffffffffffffffffffffffffffffffffffffffffe016820160405261123f9190810190614e3b565b6040517f23b872dd0000000000000000000000000000000000000000000000000000000081523360048201523060248201526044810189905290915073ffffffffffffffffffffffffffffffffffffffff8316906323b872dd90606401602060405180830381600087803b1580156112b657600080fd5b505af11580156112ca573d6000803e3d6000fd5b505050506040513d601f19601f820116820180604052508101906112ee9190614c1b565b506060600082602001515167ffffffffffffffff811115611338577f4e487b7100000000000000000000000000000000000000000000000000000000600052604160045260246000fd5b604051908082528060200260200182016040528015611361578160200160208202803683370190505b506040517fea40f3f700000000000000000000000000000000000000000000000000000000815290915073ffffffffffffffffffffffffffffffffffffffff85169063ea40f3f7906113b9908c908590600401615003565b60006040518083038186803b1580156113d157600080fd5b505afa1580156113e5573d6000803e3d6000fd5b505050506040513d6000823e601f3d9081017fffffffffffffffffffffffffffffffffffffffffffffffffffffffffffffffe016820160405261142b9190810190614be8565b6040517fb02f0b7300000000000000000000000000000000000000000000000000000000815290925073ffffffffffffffffffffffffffffffffffffffff85169063b02f0b7390611482908c908590600401615003565b600060405180830381600087803b15801561149c57600080fd5b505af11580156114b0573d6000803e3d6000fd5b507fffffffffffffffffffffffffffffffffffffffffffffffffffffffffffffffff93506000925050505b83602001515181101561154c576000838281518110611523577f4e487b7100000000000000000000000000000000000000000000000000000000600052603260045260246000fd5b6020026020010151905082811015611539578092505b50806115448161515e565b9150506114db565b508a73ffffffffffffffffffffffffffffffffffffffff16637641ab016040518163ffffffff1660e01b815260040160206040518083038186803b15801561159357600080fd5b505afa1580156115a7573d6000803e3d6000fd5b505050506040513d601f19601f820116820180604052508101906115cb9190614f40565b8b73ffffffffffffffffffffffffffffffffffffffff16637641ab016040518163ffffffff1660e01b815260040160206040518083038186803b15801561161157600080fd5b505afa158015611625573d6000803e3d6000fd5b505050506040513d601f19601f820116820180604052508101906116499190614f40565b61165390836150d1565b61165d919061510a565b6040517f53ac55f5000000000000000000000000000000000000000000000000000000008152600481018c905290915060009073ffffffffffffffffffffffffffffffffffffffff8d16906353ac55f59060240160206040518083038186803b1580156116c957600080fd5b505afa1580156116dd573d6000803e3d6000fd5b505050506040513d601f19601f820116820180604052508101906117019190614c1b565b905080156117b8576040517f992c9079000000000000000000000000000000000000000000000000000000008152600481018c905273ffffffffffffffffffffffffffffffffffffffff89811660248301528d169063992c907990604401602060405180830381600087803b15801561177957600080fd5b505af115801561178d573d6000803e3d6000fd5b505050506040513d601f19601f820116820180604052508101906117b19190614f40565b965061186a565b6040517f35a9cdad000000000000000000000000000000000000000000000000000000008152600481018c90526024810183905273ffffffffffffffffffffffffffffffffffffffff89811660448301528d16906335a9cdad90606401602060405180830381600087803b15801561182f57600080fd5b505af1158015611843573d6000803e3d6000fd5b505050506040513d601f19601f820116820180604052508101906118679190614f40565b96505b8887116118f9576040517f08c379a000000000000000000000000000000000000000000000000000000000815260206004820152602660248201527f416d6f756e74206f6620636f6c6c61746572616c2072657475726e656420746f60448201527f6f206c6f772e000000000000000000000000000000000000000000000000000060648201526084016104c9565b83602001515167ffffffffffffffff81111561193e577f4e487b7100000000000000000000000000000000000000000000000000000000600052604160045260246000fd5b604051908082528060200260200182016040528015611967578160200160208202803683370190505b50955060005b846020015151811015611be8576000856020015182815181106119b9577f4e487b7100000000000000000000000000000000000000000000000000000000600052603260045260246000fd5b602002602001015190508280156119ff5750856040015173ffffffffffffffffffffffffffffffffffffffff168173ffffffffffffffffffffffffffffffffffffffff16145b15611a0a5750611bd6565b83858381518110611a44577f4e487b7100000000000000000000000000000000000000000000000000000000600052603260045260246000fd5b6020026020010151611a569190615147565b888381518110611a8f577f4e487b7100000000000000000000000000000000000000000000000000000000600052603260045260246000fd5b6020026020010181815250506000888381518110611ad6577f4e487b7100000000000000000000000000000000000000000000000000000000600052603260045260246000fd5b60200260200101511115611bd4578073ffffffffffffffffffffffffffffffffffffffff1663a9059cbb8b8a8581518110611b3a577f4e487b7100000000000000000000000000000000000000000000000000000000600052603260045260246000fd5b60200260200101516040518363ffffffff1660e01b8152600401611b8092919073ffffffffffffffffffffffffffffffffffffffff929092168252602082015260400190565b602060405180830381600087803b158015611b9a57600080fd5b505af1158015611bae573d6000803e3d6000fd5b505050506040513d601f19601f82011682018060405250810190611bd29190614c1b565b505b505b80611be08161515e565b91505061196d565b503373ffffffffffffffffffffffffffffffffffffffff168b8d73ffffffffffffffffffffffffffffffffffffffff167f9a1dccf45b5053e827f262e45fbb5211c2bd99497d340eecaebbd245eb48f4bc8b8b8f611c4590615197565b8c604051611c569493929190614fb5565b60405180910390a450505050509550959350505050565b73ffffffffffffffffffffffffffffffffffffffff8083166000908152600160209081526040808320858452909152902054165b92915050565b73ffffffffffffffffffffffffffffffffffffffff808616600090815260016020908152604080832088845290915281205490911680611d43576040517f08c379a000000000000000000000000000000000000000000000000000000000815260206004820152601860248201527f506f6f6c206e6565647320746f2062652063726561746564000000000000000060448201526064016104c9565b6040517feb44fdd30000000000000000000000000000000000000000000000000000000081526004810187905260009073ffffffffffffffffffffffffffffffffffffffff89169063eb44fdd39060240160006040518083038186803b158015611dac57600080fd5b505afa158015611dc0573d6000803e3d6000fd5b505050506040513d6000823e601f3d9081017fffffffffffffffffffffffffffffffffffffffffffffffffffffffffffffffe0168201604052611e069190810190614e3b565b90507fffffffffffffffffffffffffffffffffffffffffffffffffffffffffffffffff6000805b836020015151811015611e9a57878181518110611e73577f4e487b7100000000000000000000000000000000000000000000000000000000600052603260045260246000fd5b602002602001015182611e8691906150b9565b915080611e928161515e565b915050611e2d565b5082602001518881518110611ed8577f4e487b7100000000000000000000000000000000000000000000000000000000600052603260045260246000fd5b60209081029190910101516040517f23b872dd0000000000000000000000000000000000000000000000000000000081523360048201523060248201526044810183905273ffffffffffffffffffffffffffffffffffffffff909116906323b872dd90606401602060405180830381600087803b158015611f5857600080fd5b505af1158015611f6c573d6000803e3d6000fd5b505050506040513d601f19601f82011682018060405250810190611f909190614c1b565b5082602001518881518110611fce577f4e487b7100000000000000000000000000000000000000000000000000000000600052603260045260246000fd5b60209081029190910101516040517f095ea7b300000000000000000000000000000000000000000000000000000000815273ffffffffffffffffffffffffffffffffffffffff86811660048301527fffffffffffffffffffffffffffffffffffffffffffffffffffffffffffffffff60248301529091169063095ea7b390604401602060405180830381600087803b15801561206957600080fd5b505af115801561207d573d6000803e3d6000fd5b505050506040513d601f19601f820116820180604052508101906120a19190614c1b565b5060005b8360200151518110156123bf57888114156120bf576123ad565b6000846020015182815181106120fe577f4e487b7100000000000000000000000000000000000000000000000000000000600052603260045260246000fd5b6020026020010151905060008673ffffffffffffffffffffffffffffffffffffffff16638201aa3f87602001518d81518110612163577f4e487b7100000000000000000000000000000000000000000000000000000000600052603260045260246000fd5b60200260200101518c86815181106121a4577f4e487b7100000000000000000000000000000000000000000000000000000000600052603260045260246000fd5b60209081029190910101516040517fffffffff0000000000000000000000000000000000000000000000000000000060e085901b16815273ffffffffffffffffffffffffffffffffffffffff928316600482015260248101919091529085166044820152600060648201527fffffffffffffffffffffffffffffffffffffffffffffffffffffffffffffffff608482015260a4016040805180830381600087803b15801561225157600080fd5b505af1158015612265573d6000803e3d6000fd5b505050506040513d601f19601f820116820180604052508101906122899190614f58565b5090508c73ffffffffffffffffffffffffffffffffffffffff16637641ab016040518163ffffffff1660e01b815260040160206040518083038186803b1580156122d257600080fd5b505afa1580156122e6573d6000803e3d6000fd5b505050506040513d601f19601f8201168201806040525081019061230a9190614f40565b8d73ffffffffffffffffffffffffffffffffffffffff16637641ab016040518163ffffffff1660e01b815260040160206040518083038186803b15801561235057600080fd5b505afa158015612364573d6000803e3d6000fd5b505050506040513d601f19601f820116820180604052508101906123889190614f40565b61239290836150d1565b61239c919061510a565b9050848110156123aa578094505b50505b806123b78161515e565b9150506120a5565b508582101561242a576040517f08c379a000000000000000000000000000000000000000000000000000000000815260206004820152601b60248201527f4d696e696d756d2073657473206e6f7420617661696c61626c652e000000000060448201526064016104c9565b6040517f35a9cdad000000000000000000000000000000000000000000000000000000008152600481018a90526024810183905233604482015273ffffffffffffffffffffffffffffffffffffffff8b16906335a9cdad90606401602060405180830381600087803b15801561249f57600080fd5b505af11580156124b3573d6000803e3d6000fd5b505050506040513d601f19601f820116820180604052508101906124d79190614f40565b5060005b83602001515181101561269a57600084602001518281518110612527577f4e487b7100000000000000000000000000000000000000000000000000000000600052603260045260246000fd5b60209081029190910101516040517f70a0823100000000000000000000000000000000000000000000000000000000815230600482015290915060009073ffffffffffffffffffffffffffffffffffffffff8316906370a082319060240160206040518083038186803b15801561259d57600080fd5b505afa1580156125b1573d6000803e3d6000fd5b505050506040513d601f19601f820116820180604052508101906125d59190614f40565b90508015612685576040517fa9059cbb0000000000000000000000000000000000000000000000000000000081523360048201526024810182905273ffffffffffffffffffffffffffffffffffffffff83169063a9059cbb90604401602060405180830381600087803b15801561264b57600080fd5b505af115801561265f573d6000803e3d6000fd5b505050506040513d601f19601f820116820180604052508101906126839190614c1b565b505b505080806126929061515e565b9150506124db565b506040517f473a6d520000000000000000000000000000000000000000000000000000000081526004810183905260009073ffffffffffffffffffffffffffffffffffffffff8c169063473a6d529060240160206040518083038186803b15801561270457600080fd5b505afa158015612718573d6000803e3d6000fd5b505050506040513d601f19601f8201168201806040525081019061273c9190614f40565b9050338a73ffffffffffffffffffffffffffffffffffffffff8d167fec2a60d57293d00dfe68ab5f1d18738c4600ce39c0c0c623fc086814615f33fa8c8561278388615197565b61278d8a8a614891565b60408051948552602085019390935291830152606082015260800160405180910390a49a9950505050505050505050565b73ffffffffffffffffffffffffffffffffffffffff80861660009081526001602090815260408083208884529091528120549091168061285a576040517f08c379a000000000000000000000000000000000000000000000000000000000815260206004820152601860248201527f506f6f6c206e6565647320746f2062652063726561746564000000000000000060448201526064016104c9565b6040517feb44fdd30000000000000000000000000000000000000000000000000000000081526004810187905260009073ffffffffffffffffffffffffffffffffffffffff89169063eb44fdd39060240160006040518083038186803b1580156128c357600080fd5b505afa1580156128d7573d6000803e3d6000fd5b505050506040513d6000823e601f3d9081017fffffffffffffffffffffffffffffffffffffffffffffffffffffffffffffffe016820160405261291d9190810190614e3b565b6040517fea05487900000000000000000000000000000000000000000000000000000000815260048101899052602481018890526044810187905290915073ffffffffffffffffffffffffffffffffffffffff89169063ea05487990606401600060405180830381600087803b15801561299657600080fd5b505af11580156129aa573d6000803e3d6000fd5b5050505060008873ffffffffffffffffffffffffffffffffffffffff1663d8dfeb456040518163ffffffff1660e01b815260040160206040518083038186803b1580156129f657600080fd5b505afa158015612a0a573d6000803e3d6000fd5b505050506040513d601f19601f82011682018060405250810190612a2e9190614e1f565b6040517f23b872dd0000000000000000000000000000000000000000000000000000000081523360048201523060248201526044810188905290915073ffffffffffffffffffffffffffffffffffffffff8216906323b872dd90606401602060405180830381600087803b158015612aa557600080fd5b505af1158015612ab9573d6000803e3d6000fd5b505050506040513d601f19601f82011682018060405250810190612add9190614c1b565b506040517fcc87adea0000000000000000000000000000000000000000000000000000000081526004810187905260009073ffffffffffffffffffffffffffffffffffffffff8b169063cc87adea9060240160206040518083038186803b158015612b4757600080fd5b505afa158015612b5b573d6000803e3d6000fd5b505050506040513d601f19601f82011682018060405250810190612b7f9190614f40565b6040517f221fff81000000000000000000000000000000000000000000000000000000008152600481018b90526024810182905230604482015290915073ffffffffffffffffffffffffffffffffffffffff8b169063221fff8190606401600060405180830381600087803b158015612bf757600080fd5b505af1158015612c0b573d6000803e3d6000fd5b505050506000819050600084602001518a81518110612c53577f4e487b7100000000000000000000000000000000000000000000000000000000600052603260045260246000fd5b6020026020010151905060005b856020015151811015612dc9578a811415612c7a57612db7565b600086602001518281518110612cb9577f4e487b7100000000000000000000000000000000000000000000000000000000600052603260045260246000fd5b60209081029190910101516040517f8201aa3f00000000000000000000000000000000000000000000000000000000815273ffffffffffffffffffffffffffffffffffffffff80831660048301526024820188905285811660448301526000606483018190527fffffffffffffffffffffffffffffffffffffffffffffffffffffffffffffffff60848401529293508a1690638201aa3f9060a4016040805180830381600087803b158015612d6d57600080fd5b505af1158015612d81573d6000803e3d6000fd5b505050506040513d601f19601f82011682018060405250810190612da59190614f58565b509050612db281866150b9565b945050505b80612dc18161515e565b915050612c60565b5087821015612e34576040517f08c379a000000000000000000000000000000000000000000000000000000000815260206004820152601160248201527f536c69707061676520657863656564656400000000000000000000000000000060448201526064016104c9565b6040517fa9059cbb0000000000000000000000000000000000000000000000000000000081523360048201526024810183905273ffffffffffffffffffffffffffffffffffffffff82169063a9059cbb90604401602060405180830381600087803b158015612ea257600080fd5b505af1158015612eb6573d6000803e3d6000fd5b505050506040513d601f19601f82011682018060405250810190612eda9190614c1b565b503390508a73ffffffffffffffffffffffffffffffffffffffff8d167fec2a60d57293d00dfe68ab5f1d18738c4600ce39c0c0c623fc086814615f33fa8c612f218d615197565b8661278d8989614891565b610414620f4240670de0b6b3a76400006150d1565b73ffffffffffffffffffffffffffffffffffffffff848116600090815260016020908152604080832087845290915281205490911615612fdd576040517f08c379a000000000000000000000000000000000000000000000000000000000815260206004820152601460248201527f506f6f6c20616c7265616479206372656174656400000000000000000000000060448201526064016104c9565b6040517feb44fdd30000000000000000000000000000000000000000000000000000000081526004810185905260009073ffffffffffffffffffffffffffffffffffffffff87169063eb44fdd39060240160006040518083038186803b15801561304657600080fd5b505afa15801561305a573d6000803e3d6000fd5b505050506040513d6000823e601f3d9081017fffffffffffffffffffffffffffffffffffffffffffffffffffffffffffffffe01682016040526130a09190810190614e3b565b6040517fcc87adea0000000000000000000000000000000000000000000000000000000081526004810186905290915060009073ffffffffffffffffffffffffffffffffffffffff88169063cc87adea9060240160206040518083038186803b15801561310c57600080fd5b505afa158015613120573d6000803e3d6000fd5b505050506040513d601f19601f820116820180604052508101906131449190614f40565b9050613159670de0b6b3a7640000606461510a565b8110156131e8576040517f08c379a000000000000000000000000000000000000000000000000000000000815260206004820152603260248201527f496e697469616c206c6971756964697479206d757374206265206174206c656160448201527f73742031303020636f6c6c61746572616c2e000000000000000000000000000060648201526084016104c9565b60008773ffffffffffffffffffffffffffffffffffffffff1663d8dfeb456040518163ffffffff1660e01b815260040160206040518083038186803b15801561323057600080fd5b505afa158015613244573d6000803e3d6000fd5b505050506040513d601f19601f820116820180604052508101906132689190614e1f565b6040517fdd62ed3e000000000000000000000000000000000000000000000000000000008152336004820152306024820152909150869073ffffffffffffffffffffffffffffffffffffffff83169063dd62ed3e9060440160206040518083038186803b1580156132d857600080fd5b505afa1580156132ec573d6000803e3d6000fd5b505050506040513d601f19601f820116820180604052508101906133109190614f40565b101561339e576040517f08c379a000000000000000000000000000000000000000000000000000000000815260206004820152603760248201527f696e73756666696369656e7420636f6c6c61746572616c20616c6c6f77616e6360448201527f6520666f7220696e697469616c206c697175696469747900000000000000000060648201526084016104c9565b6040517f23b872dd0000000000000000000000000000000000000000000000000000000081523360048201523060248201526044810187905273ffffffffffffffffffffffffffffffffffffffff8216906323b872dd90606401602060405180830381600087803b15801561341257600080fd5b505af1158015613426573d6000803e3d6000fd5b505050506040513d601f19601f8201168201806040525081019061344a9190614c1b565b506040517f095ea7b300000000000000000000000000000000000000000000000000000000815273ffffffffffffffffffffffffffffffffffffffff89811660048301527fffffffffffffffffffffffffffffffffffffffffffffffffffffffffffffffff602483015282169063095ea7b390604401602060405180830381600087803b1580156134da57600080fd5b505af11580156134ee573d6000803e3d6000fd5b505050506040513d601f19601f820116820180604052508101906135129190614c1b565b506040517f221fff81000000000000000000000000000000000000000000000000000000008152600481018890526024810183905230604482015273ffffffffffffffffffffffffffffffffffffffff89169063221fff8190606401600060405180830381600087803b15801561358857600080fd5b505af115801561359c573d6000803e3d6000fd5b5050505060008060009054906101000a900473ffffffffffffffffffffffffffffffffffffffff1673ffffffffffffffffffffffffffffffffffffffff1663d556c5dc6040518163ffffffff1660e01b8152600401602060405180830381600087803b15801561360b57600080fd5b505af115801561361f573d6000803e3d6000fd5b505050506040513d601f19601f820116820180604052508101906136439190614e1f565b905060005b84602001515181101561387157600085602001518281518110613694577f4e487b7100000000000000000000000000000000000000000000000000000000600052603260045260246000fd5b60209081029190910101516040517f095ea7b300000000000000000000000000000000000000000000000000000000815273ffffffffffffffffffffffffffffffffffffffff85811660048301527fffffffffffffffffffffffffffffffffffffffffffffffffffffffffffffffff60248301529192509082169063095ea7b390604401602060405180830381600087803b15801561373257600080fd5b505af1158015613746573d6000803e3d6000fd5b505050506040513d601f19601f8201168201806040525081019061376a9190614c1b565b508273ffffffffffffffffffffffffffffffffffffffff1663e4e1e538828789610120015186815181106137c7577f4e487b7100000000000000000000000000000000000000000000000000000000600052603260045260246000fd5b60209081029190910101516040517fffffffff0000000000000000000000000000000000000000000000000000000060e086901b16815273ffffffffffffffffffffffffffffffffffffffff909316600484015260248301919091526044820152606401600060405180830381600087803b15801561384557600080fd5b505af1158015613859573d6000803e3d6000fd5b505050505080806138699061515e565b915050613648565b506002546040517f34e19907000000000000000000000000000000000000000000000000000000008152600481019190915273ffffffffffffffffffffffffffffffffffffffff8216906334e1990790602401600060405180830381600087803b1580156138de57600080fd5b505af11580156138f2573d6000803e3d6000fd5b505050508073ffffffffffffffffffffffffffffffffffffffff16634bb278f36040518163ffffffff1660e01b8152600401600060405180830381600087803b15801561393e57600080fd5b505af1158015613952573d6000803e3d6000fd5b5050505073ffffffffffffffffffffffffffffffffffffffff89811660009081526001602090815260408083208c8452909152812080547fffffffffffffffffffffffff000000000000000000000000000000000000000016928416929092179091556139c96103e8670de0b6b3a76400006150d1565b6040517f70a0823100000000000000000000000000000000000000000000000000000000815230600482015273ffffffffffffffffffffffffffffffffffffffff8416906370a082319060240160206040518083038186803b158015613a2e57600080fd5b505afa158015613a42573d6000803e3d6000fd5b505050506040513d601f19601f82011682018060405250810190613a669190614f40565b613a709190615147565b905073ffffffffffffffffffffffffffffffffffffffff821663a9059cbb6000613aa46103e8670de0b6b3a76400006150d1565b6040517fffffffff0000000000000000000000000000000000000000000000000000000060e085901b16815273ffffffffffffffffffffffffffffffffffffffff90921660048301526024820152604401602060405180830381600087803b158015613b0f57600080fd5b505af1158015613b23573d6000803e3d6000fd5b505050506040513d601f19601f82011682018060405250810190613b479190614c1b565b506040517fa9059cbb00000000000000000000000000000000000000000000000000000000815273ffffffffffffffffffffffffffffffffffffffff88811660048301526024820183905283169063a9059cbb90604401602060405180830381600087803b158015613bb857600080fd5b505af1158015613bcc573d6000803e3d6000fd5b505050506040513d601f19601f82011682018060405250810190613bf09190614c1b565b50600085602001515167ffffffffffffffff811115613c38577f4e487b7100000000000000000000000000000000000000000000000000000000600052604160045260246000fd5b604051908082528060200260200182016040528015613c61578160200160208202803683370190505b50905060005b866020015151811015613ccc576000828281518110613caf577f4e487b7100000000000000000000000000000000000000000000000000000000600052603260045260246000fd5b602090810291909101015280613cc48161515e565b915050613c67565b506040805173ffffffffffffffffffffffffffffffffffffffff85811682528a8116602083015233928d92918f16917ffb27591822deac7913ea973cf845992f243e2ba5634ef8fbe0b6554aca37a428910160405180910390a4338a73ffffffffffffffffffffffffffffffffffffffff8d167f9a1dccf45b5053e827f262e45fbb5211c2bd99497d340eecaebbd245eb48f4bc8b613d6a8e615197565b8787604051613d7c9493929190614fb5565b60405180910390a4509998505050505050505050565b61041464e8d4a51000670de0b6b3a76400006150d1565b610414670de0b6b3a7640000606461510a565b613dcf6003670de0b6b3a76400006150d1565b6104149060016150b9565b73ffffffffffffffffffffffffffffffffffffffff83811660009081526001602090815260408083208684529091528082205490517f70a0823100000000000000000000000000000000000000000000000000000000815284841660048201529192169081906370a082319060240160206040518083038186803b158015613e6157600080fd5b505afa158015613e75573d6000803e3d6000fd5b505050506040513d601f19601f82011682018060405250810190613e999190614f40565b95945050505050565b610414600a670de0b6b3a76400006150d1565b6001613eca670de0b6b3a7640000600261510a565b6104149190615147565b73ffffffffffffffffffffffffffffffffffffffff80831660009081526001602090815260408083208584529091529020546060911680613f445760005b604051908082528060200260200182016040528015613f3b578160200160208202803683370190505b50915050611ca1565b6040517feb44fdd30000000000000000000000000000000000000000000000000000000081526004810184905260009073ffffffffffffffffffffffffffffffffffffffff86169063eb44fdd39060240160006040518083038186803b158015613fad57600080fd5b505afa158015613fc1573d6000803e3d6000fd5b505050506040513d6000823e601f3d9081017fffffffffffffffffffffffffffffffffffffffffffffffffffffffffffffffe01682016040526140079190810190614e3b565b905060008160200151600081518110614049577f4e487b7100000000000000000000000000000000000000000000000000000000600052603260045260246000fd5b60200260200101519050600082602001515167ffffffffffffffff81111561409a577f4e487b7100000000000000000000000000000000000000000000000000000000600052604160045260246000fd5b6040519080825280602002602001820160405280156140c3578160200160208202803683370190505b509050670de0b6b3a764000081600081518110614109577f4e487b7100000000000000000000000000000000000000000000000000000000600052603260045260246000fd5b602090810291909101015260015b8360200151518110156142715760008573ffffffffffffffffffffffffffffffffffffffff166315e84af98587602001518581518110614180577f4e487b7100000000000000000000000000000000000000000000000000000000600052603260045260246000fd5b60200260200101516040518363ffffffff1660e01b81526004016141c792919073ffffffffffffffffffffffffffffffffffffffff92831681529116602082015260400190565b60206040518083038186803b1580156141df57600080fd5b505afa1580156141f3573d6000803e3d6000fd5b505050506040513d601f19601f820116820180604052508101906142179190614f40565b905080838381518110614253577f4e487b7100000000000000000000000000000000000000000000000000000000600052603260045260246000fd5b602090810291909101015250806142698161515e565b915050614117565b509695505050505050565b73ffffffffffffffffffffffffffffffffffffffff808316600090815260016020908152604080832085845290915290205460609116806142be576000613f12565b60008173ffffffffffffffffffffffffffffffffffffffff1663cc77828d6040518163ffffffff1660e01b815260040160006040518083038186803b15801561430657600080fd5b505afa15801561431a573d6000803e3d6000fd5b505050506040513d6000823e601f3d9081017fffffffffffffffffffffffffffffffffffffffffffffffffffffffffffffffe01682016040526143609190810190614b4c565b90506000815167ffffffffffffffff8111156143a5577f4e487b7100000000000000000000000000000000000000000000000000000000600052604160045260246000fd5b6040519080825280602002602001820160405280156143ce578160200160208202803683370190505b50905060005b8251811015614518578373ffffffffffffffffffffffffffffffffffffffff1663948d8ce6848381518110614432577f4e487b7100000000000000000000000000000000000000000000000000000000600052603260045260246000fd5b60200260200101516040518263ffffffff1660e01b8152600401614472919073ffffffffffffffffffffffffffffffffffffffff91909116815260200190565b60206040518083038186803b15801561448a57600080fd5b505afa15801561449e573d6000803e3d6000fd5b505050506040513d601f19601f820116820180604052508101906144c29190614f40565b8282815181106144fb577f4e487b7100000000000000000000000000000000000000000000000000000000600052603260045260246000fd5b6020908102919091010152806145108161515e565b9150506143d4565b5095945050505050565b73ffffffffffffffffffffffffffffffffffffffff80831660009081526001602090815260408083208584529091529020546060911680614564576000613f12565b60008173ffffffffffffffffffffffffffffffffffffffff1663cc77828d6040518163ffffffff1660e01b815260040160006040518083038186803b1580156145ac57600080fd5b505afa1580156145c0573d6000803e3d6000fd5b505050506040513d6000823e601f3d9081017fffffffffffffffffffffffffffffffffffffffffffffffffffffffffffffffe01682016040526146069190810190614b4c565b90506000815167ffffffffffffffff81111561464b577f4e487b7100000000000000000000000000000000000000000000000000000000600052604160045260246000fd5b604051908082528060200260200182016040528015614674578160200160208202803683370190505b50905060005b8251811015614518578373ffffffffffffffffffffffffffffffffffffffff1663f8b2cb4f8483815181106146d8577f4e487b7100000000000000000000000000000000000000000000000000000000600052603260045260246000fd5b60200260200101516040518263ffffffff1660e01b8152600401614718919073ffffffffffffffffffffffffffffffffffffffff91909116815260200190565b60206040518083038186803b15801561473057600080fd5b505afa158015614744573d6000803e3d6000fd5b505050506040513d601f19601f820116820180604052508101906147689190614f40565b8282815181106147a1577f4e487b7100000000000000000000000000000000000000000000000000000000600052603260045260246000fd5b6020908102919091010152806147b68161515e565b91505061467a565b6104146002670de0b6b3a76400006150d1565b73ffffffffffffffffffffffffffffffffffffffff808316600090815260016020908152604080832085845282528083205481517fd4cadf68000000000000000000000000000000000000000000000000000000008152915193941692839263d4cadf689260048082019391829003018186803b15801561485157600080fd5b505afa158015614865573d6000803e3d6000fd5b505050506040513d601f19601f820116820180604052508101906148899190614f40565b949350505050565b6000816148fa576040517f08c379a000000000000000000000000000000000000000000000000000000000815260206004820152600c60248201527f4552525f4449565f5a45524f000000000000000000000000000000000000000060448201526064016104c9565b600061490e670de0b6b3a76400008561510a565b905083158061492d5750670de0b6b3a764000061492b85836150d1565b145b614993576040517f08c379a000000000000000000000000000000000000000000000000000000000815260206004820152601060248201527f4552525f4449565f494e5445524e414c0000000000000000000000000000000060448201526064016104c9565b60006149a06002856150d1565b6149aa90836150b9565b905081811015614a16576040517f08c379a000000000000000000000000000000000000000000000000000000000815260206004820152601060248201527f4552525f4449565f494e5445524e414c0000000000000000000000000000000060448201526064016104c9565b6000614a2285836150d1565b9695505050505050565b8051614a378161522b565b919050565b600082601f830112614a4c578081fd5b81516020614a61614a5c83615095565b615046565b80838252828201915082860187848660051b8901011115614a80578586fd5b855b85811015614aa7578151614a958161522b565b84529284019290840190600101614a82565b5090979650505050505050565b600082601f830112614ac4578081fd5b81516020614ad4614a5c83615095565b80838252828201915082860187848660051b8901011115614af3578586fd5b855b85811015614aa757815184529284019290840190600101614af5565b80518015158114614a3757600080fd5b60008060408385031215614b33578182fd5b8235614b3e8161522b565b946020939093013593505050565b60006020808385031215614b5e578182fd5b825167ffffffffffffffff811115614b74578283fd5b8301601f81018513614b84578283fd5b8051614b92614a5c82615095565b80828252848201915084840188868560051b8701011115614bb1578687fd5b8694505b83851015614bdc578051614bc88161522b565b835260019490940193918501918501614bb5565b50979650505050505050565b600060208284031215614bf9578081fd5b815167ffffffffffffffff811115614c0f578182fd5b61488984828501614ab4565b600060208284031215614c2c578081fd5b614c3582614b11565b9392505050565b600080600060608486031215614c50578081fd5b8335614c5b8161522b565b9250602084013591506040840135614c728161522b565b809150509250925092565b60008060008060808587031215614c92578182fd5b8435614c9d8161522b565b935060208501359250604085013591506060850135614cbb8161522b565b939692955090935050565b600080600080600060a08688031215614cdd578283fd5b8535614ce88161522b565b9450602086810135945060408701359350606087013567ffffffffffffffff811115614d12578283fd5b8701601f81018913614d22578283fd5b8035614d30614a5c82615095565b8082825284820191508484018c868560051b8701011115614d4f578687fd5b8694505b83851015614d71578035835260019490940193918501918501614d53565b50989b979a509598608001359695505050505050565b600080600080600060a08688031215614d9e578283fd5b8535614da98161522b565b94506020860135935060408601359250606086013591506080860135614dce8161522b565b809150509295509295909350565b600080600080600060a08688031215614df3578283fd5b8535614dfe8161522b565b97602087013597506040870135966060810135965060800135945092505050565b600060208284031215614e30578081fd5b8151614c358161522b565b600060208284031215614e4c578081fd5b815167ffffffffffffffff80821115614e63578283fd5b908301906101608286031215614e77578283fd5b614e7f61501c565b614e8883614a2c565b8152602083015182811115614e9b578485fd5b614ea787828601614a3c565b602083015250614eb960408401614a2c565b6040820152606083015160608201526080830151608082015260a083015160a082015260c083015160c082015260e083015160e08201526101008084015181830152506101208084015183811115614f0f578586fd5b614f1b88828701614ab4565b8284015250506101409150614f31828401614b11565b91810191909152949350505050565b600060208284031215614f51578081fd5b5051919050565b60008060408385031215614f6a578182fd5b505080516020909101519092909150565b6000815180845260208085019450808401835b83811015614faa57815187529582019590820190600101614f8e565b509495945050505050565b73ffffffffffffffffffffffffffffffffffffffff85168152836020820152826040820152608060608201526000614a226080830184614f7b565b602081526000614c356020830184614f7b565b8281526040602082015260006148896040830184614f7b565b604051610160810167ffffffffffffffff81118282101715615040576150406151fc565b60405290565b604051601f82017fffffffffffffffffffffffffffffffffffffffffffffffffffffffffffffffe016810167ffffffffffffffff8111828210171561508d5761508d6151fc565b604052919050565b600067ffffffffffffffff8211156150af576150af6151fc565b5060051b60200190565b600082198211156150cc576150cc6151cd565b500190565b600082615105577f4e487b710000000000000000000000000000000000000000000000000000000081526012600452602481fd5b500490565b6000817fffffffffffffffffffffffffffffffffffffffffffffffffffffffffffffffff0483118215151615615142576151426151cd565b500290565b600082821015615159576151596151cd565b500390565b60007fffffffffffffffffffffffffffffffffffffffffffffffffffffffffffffffff821415615190576151906151cd565b5060010190565b60007f80000000000000000000000000000000000000000000000000000000000000008214156151c9576151c96151cd565b0390565b7f4e487b7100000000000000000000000000000000000000000000000000000000600052601160045260246000fd5b7f4e487b7100000000000000000000000000000000000000000000000000000000600052604160045260246000fd5b73ffffffffffffffffffffffffffffffffffffffff8116811461524d57600080fd5b5056fea264697066735822122065b9fe7b7a7f25e320eaf2e404f536f4a5c17606afd6e838a11b46102b41f1e864736f6c63430008040033",
  "devdoc": {
    "kind": "dev",
    "methods": {},
    "version": 1
  },
  "userdoc": {
    "kind": "user",
    "methods": {},
    "version": 1
  },
  "storageLayout": {
    "storage": [
      {
        "astId": 17541,
        "contract": "contracts/turbo/AMMFactory.sol:AMMFactory",
        "label": "bFactory",
        "offset": 0,
        "slot": "0",
        "type": "t_contract(BFactory)4792"
      },
      {
        "astId": 17548,
        "contract": "contracts/turbo/AMMFactory.sol:AMMFactory",
        "label": "pools",
        "offset": 0,
        "slot": "1",
        "type": "t_mapping(t_address,t_mapping(t_uint256,t_contract(BPool)8141))"
      },
      {
        "astId": 17550,
        "contract": "contracts/turbo/AMMFactory.sol:AMMFactory",
        "label": "fee",
        "offset": 0,
        "slot": "2",
        "type": "t_uint256"
      }
    ],
    "types": {
      "t_address": {
        "encoding": "inplace",
        "label": "address",
        "numberOfBytes": "20"
      },
      "t_contract(BFactory)4792": {
        "encoding": "inplace",
        "label": "contract BFactory",
        "numberOfBytes": "20"
      },
      "t_contract(BPool)8141": {
        "encoding": "inplace",
        "label": "contract BPool",
        "numberOfBytes": "20"
      },
      "t_mapping(t_address,t_mapping(t_uint256,t_contract(BPool)8141))": {
        "encoding": "mapping",
        "key": "t_address",
        "label": "mapping(address => mapping(uint256 => contract BPool))",
        "numberOfBytes": "32",
        "value": "t_mapping(t_uint256,t_contract(BPool)8141)"
      },
      "t_mapping(t_uint256,t_contract(BPool)8141)": {
        "encoding": "mapping",
        "key": "t_uint256",
        "label": "mapping(uint256 => contract BPool)",
        "numberOfBytes": "32",
        "value": "t_contract(BPool)8141"
      },
      "t_uint256": {
        "encoding": "inplace",
        "label": "uint256",
        "numberOfBytes": "32"
      }
    }
  }
}