{
  "address": "0x10F3BcF56c012d46B04C9C7C7FFEeb332C25684D",
  "abi": [
    {
      "inputs": [
        {
          "internalType": "address",
          "name": "_creator_address",
          "type": "address"
        },
        {
          "internalType": "address",
          "name": "_interep_address",
          "type": "address"
        }
      ],
      "stateMutability": "nonpayable",
      "type": "constructor"
    },
    {
      "anonymous": false,
      "inputs": [
        {
          "indexed": false,
          "internalType": "uint256",
          "name": "marketId",
          "type": "uint256"
        },
        {
          "indexed": false,
          "internalType": "address",
          "name": "recipient",
          "type": "address"
        }
      ],
      "name": "MarketInitiated",
      "type": "event"
    },
    {
      "inputs": [
        {
          "internalType": "address",
          "name": "",
          "type": "address"
        }
      ],
      "name": "ad_to_id",
      "outputs": [
        {
          "internalType": "uint256",
          "name": "",
          "type": "uint256"
        }
      ],
      "stateMutability": "view",
      "type": "function"
    },
    {
      "inputs": [
        {
          "internalType": "uint256",
          "name": "marketId",
          "type": "uint256"
        }
      ],
      "name": "approveMarket",
      "outputs": [],
      "stateMutability": "nonpayable",
      "type": "function"
    },
    {
      "inputs": [
        {
          "internalType": "uint256",
          "name": "marketId",
          "type": "uint256"
        }
      ],
      "name": "beforeResolve",
      "outputs": [],
      "stateMutability": "nonpayable",
      "type": "function"
    },
    {
      "inputs": [
        {
          "internalType": "uint256",
          "name": "marketId",
          "type": "uint256"
        }
      ],
      "name": "checkInstrument",
      "outputs": [
        {
          "internalType": "bool",
          "name": "",
          "type": "bool"
        }
      ],
      "stateMutability": "nonpayable",
      "type": "function"
    },
    {
      "inputs": [
        {
          "internalType": "address",
          "name": "underlying",
          "type": "address"
        },
        {
          "internalType": "bool",
          "name": "_onlyVerified",
          "type": "bool"
        },
        {
          "internalType": "uint256",
          "name": "_r",
          "type": "uint256"
        },
        {
          "internalType": "uint256",
          "name": "_asset_limit",
          "type": "uint256"
        },
        {
          "internalType": "uint256",
          "name": "_total_asset_limit",
          "type": "uint256"
        },
        {
          "components": [
            {
              "internalType": "uint32",
              "name": "N",
              "type": "uint32"
            },
            {
              "internalType": "uint256",
              "name": "sigma",
              "type": "uint256"
            },
            {
              "internalType": "uint256",
              "name": "alpha",
              "type": "uint256"
            },
            {
              "internalType": "uint256",
              "name": "omega",
              "type": "uint256"
            },
            {
              "internalType": "uint256",
              "name": "delta",
              "type": "uint256"
            },
            {
              "internalType": "uint256",
              "name": "r",
              "type": "uint256"
            },
            {
              "internalType": "uint256",
              "name": "s",
              "type": "uint256"
            }
          ],
          "internalType": "struct MarketManager.MarketParameters",
          "name": "default_params",
          "type": "tuple"
        }
      ],
      "name": "createVault",
      "outputs": [],
      "stateMutability": "nonpayable",
      "type": "function"
    },
    {
      "inputs": [
        {
          "internalType": "uint256",
          "name": "marketId",
          "type": "uint256"
        }
      ],
      "name": "denyMarket",
      "outputs": [],
      "stateMutability": "nonpayable",
      "type": "function"
    },
    {
      "inputs": [
        {
          "internalType": "uint256",
          "name": "marketId",
          "type": "uint256"
        },
        {
          "internalType": "bool",
          "name": "emergency",
          "type": "bool"
        }
      ],
      "name": "forceCloseInstrument",
      "outputs": [
        {
          "internalType": "bool",
          "name": "",
          "type": "bool"
        }
      ],
      "stateMutability": "nonpayable",
      "type": "function"
    },
    {
      "inputs": [
        {
          "internalType": "uint256",
          "name": "marketId",
          "type": "uint256"
        }
      ],
      "name": "getApprovalData",
      "outputs": [
        {
          "components": [
            {
              "internalType": "uint256",
              "name": "approved_principal",
              "type": "uint256"
            },
            {
              "internalType": "uint256",
              "name": "approved_yield",
              "type": "uint256"
            }
          ],
          "internalType": "struct Controller.ApprovalData",
          "name": "",
          "type": "tuple"
        }
      ],
      "stateMutability": "view",
      "type": "function"
    },
    {
      "inputs": [
        {
          "internalType": "address",
          "name": "recipient",
          "type": "address"
        }
      ],
      "name": "getMarketId",
      "outputs": [
        {
          "internalType": "uint256",
          "name": "",
          "type": "uint256"
        }
      ],
      "stateMutability": "view",
      "type": "function"
    },
    {
      "inputs": [
        {
          "internalType": "uint256",
          "name": "vaultId",
          "type": "uint256"
        }
      ],
      "name": "getMarketIds",
      "outputs": [
        {
          "internalType": "uint256[]",
          "name": "",
          "type": "uint256[]"
        }
      ],
      "stateMutability": "view",
      "type": "function"
    },
    {
      "inputs": [
        {
          "internalType": "uint256",
          "name": "marketId",
          "type": "uint256"
        }
      ],
      "name": "getVault",
      "outputs": [
        {
          "internalType": "contract Vault",
          "name": "",
          "type": "address"
        }
      ],
      "stateMutability": "view",
      "type": "function"
    },
    {
      "inputs": [
        {
          "internalType": "uint256",
          "name": "marketId",
          "type": "uint256"
        }
      ],
      "name": "getVaultAd",
      "outputs": [
        {
          "internalType": "address",
          "name": "",
          "type": "address"
        }
      ],
      "stateMutability": "view",
      "type": "function"
    },
    {
      "inputs": [
        {
          "internalType": "uint256",
          "name": "vaultId",
          "type": "uint256"
        }
      ],
      "name": "getVaultfromId",
      "outputs": [
        {
          "internalType": "address",
          "name": "",
          "type": "address"
        }
      ],
      "stateMutability": "view",
      "type": "function"
    },
    {
      "inputs": [
        {
          "internalType": "uint256",
          "name": "",
          "type": "uint256"
        }
      ],
      "name": "id_parent",
      "outputs": [
        {
          "internalType": "uint256",
          "name": "",
          "type": "uint256"
        }
      ],
      "stateMutability": "view",
      "type": "function"
    },
    {
      "inputs": [
        {
          "internalType": "address",
          "name": "recipient",
          "type": "address"
        },
        {
          "components": [
            {
              "internalType": "bool",
              "name": "trusted",
              "type": "bool"
            },
            {
              "internalType": "uint256",
              "name": "balance",
              "type": "uint256"
            },
            {
              "internalType": "uint256",
              "name": "faceValue",
              "type": "uint256"
            },
            {
              "internalType": "uint256",
              "name": "marketId",
              "type": "uint256"
            },
            {
              "internalType": "uint256",
              "name": "principal",
              "type": "uint256"
            },
            {
              "internalType": "uint256",
              "name": "expectedYield",
              "type": "uint256"
            },
            {
              "internalType": "uint256",
              "name": "duration",
              "type": "uint256"
            },
            {
              "internalType": "string",
              "name": "description",
              "type": "string"
            },
            {
              "internalType": "address",
              "name": "Instrument_address",
              "type": "address"
            },
            {
              "internalType": "enum Vault.InstrumentType",
              "name": "instrument_type",
              "type": "uint8"
            },
            {
              "internalType": "uint256",
              "name": "maturityDate",
              "type": "uint256"
            }
          ],
          "internalType": "struct Vault.InstrumentData",
          "name": "instrumentData",
          "type": "tuple"
        },
        {
          "internalType": "uint256",
          "name": "vaultId",
          "type": "uint256"
        }
      ],
      "name": "initiateMarket",
      "outputs": [],
      "stateMutability": "nonpayable",
      "type": "function"
    },
    {
      "inputs": [
        {
          "internalType": "address",
          "name": "addr",
          "type": "address"
        }
      ],
      "name": "isVerified",
      "outputs": [
        {
          "internalType": "bool",
          "name": "",
          "type": "bool"
        }
      ],
      "stateMutability": "view",
      "type": "function"
    },
    {
      "inputs": [
        {
          "internalType": "uint256",
          "name": "marketId",
          "type": "uint256"
        }
      ],
      "name": "marketIdToVaultId",
      "outputs": [
        {
          "internalType": "uint256",
          "name": "",
          "type": "uint256"
        }
      ],
      "stateMutability": "view",
      "type": "function"
    },
    {
      "inputs": [
        {
          "internalType": "uint256",
          "name": "marketId",
          "type": "uint256"
        }
      ],
      "name": "marketId_to_vaultId",
      "outputs": [
        {
          "internalType": "uint256",
          "name": "",
          "type": "uint256"
        }
      ],
      "stateMutability": "view",
      "type": "function"
    },
    {
      "inputs": [
        {
          "internalType": "uint256",
          "name": "",
          "type": "uint256"
        }
      ],
      "name": "market_data",
      "outputs": [
        {
          "internalType": "address",
          "name": "instrument_address",
          "type": "address"
        },
        {
          "internalType": "address",
          "name": "recipient",
          "type": "address"
        }
      ],
      "stateMutability": "view",
      "type": "function"
    },
    {
      "inputs": [
        {
          "internalType": "address",
          "name": "NFT_address",
          "type": "address"
        },
        {
          "internalType": "address",
          "name": "trader",
          "type": "address"
        }
      ],
      "name": "mintRepNFT",
      "outputs": [],
      "stateMutability": "nonpayable",
      "type": "function"
    },
    {
      "inputs": [
        {
          "internalType": "uint256",
          "name": "amount",
          "type": "uint256"
        },
        {
          "internalType": "address",
          "name": "to",
          "type": "address"
        },
        {
          "internalType": "uint256",
          "name": "marketId",
          "type": "uint256"
        }
      ],
      "name": "redeem_mint",
      "outputs": [],
      "stateMutability": "nonpayable",
      "type": "function"
    },
    {
      "inputs": [
        {
          "internalType": "uint256",
          "name": "amount",
          "type": "uint256"
        },
        {
          "internalType": "address",
          "name": "to",
          "type": "address"
        },
        {
          "internalType": "uint256",
          "name": "marketId",
          "type": "uint256"
        }
      ],
      "name": "redeem_transfer",
      "outputs": [],
      "stateMutability": "nonpayable",
      "type": "function"
    },
    {
      "inputs": [
        {
          "internalType": "uint256",
          "name": "marketId",
          "type": "uint256"
        }
      ],
      "name": "resolveMarket",
      "outputs": [],
      "stateMutability": "nonpayable",
      "type": "function"
    },
    {
      "inputs": [
        {
          "internalType": "address",
          "name": "_marketManager",
          "type": "address"
        }
      ],
      "name": "setMarketManager",
      "outputs": [],
      "stateMutability": "nonpayable",
      "type": "function"
    },
    {
      "inputs": [
        {
          "internalType": "address",
          "name": "NFT_address",
          "type": "address"
        }
      ],
      "name": "setReputationNFT",
      "outputs": [],
      "stateMutability": "nonpayable",
      "type": "function"
    },
    {
      "inputs": [
        {
          "internalType": "address",
          "name": "_vaultFactory",
          "type": "address"
        }
      ],
      "name": "setVaultFactory",
      "outputs": [],
      "stateMutability": "nonpayable",
      "type": "function"
    },
    {
      "inputs": [],
      "name": "testVerifyAddress",
      "outputs": [],
      "stateMutability": "nonpayable",
      "type": "function"
    },
    {
      "inputs": [
        {
          "internalType": "uint256",
          "name": "marketId",
          "type": "uint256"
        },
        {
          "internalType": "address",
          "name": "trader",
          "type": "address"
        },
        {
          "internalType": "bool",
          "name": "increment",
          "type": "bool"
        }
      ],
      "name": "updateReputation",
      "outputs": [],
      "stateMutability": "nonpayable",
      "type": "function"
    },
    {
      "inputs": [
        {
          "internalType": "uint256",
          "name": "",
          "type": "uint256"
        }
      ],
      "name": "vault_debt",
      "outputs": [
        {
          "internalType": "uint256",
          "name": "",
          "type": "uint256"
        }
      ],
      "stateMutability": "view",
      "type": "function"
    },
    {
      "inputs": [
        {
          "internalType": "uint256",
          "name": "",
          "type": "uint256"
        },
        {
          "internalType": "uint256",
          "name": "",
          "type": "uint256"
        }
      ],
      "name": "vault_to_marketIds",
      "outputs": [
        {
          "internalType": "uint256",
          "name": "",
          "type": "uint256"
        }
      ],
      "stateMutability": "view",
      "type": "function"
    },
    {
      "inputs": [
        {
          "internalType": "uint256",
          "name": "",
          "type": "uint256"
        }
      ],
      "name": "vaults",
      "outputs": [
        {
          "internalType": "contract Vault",
          "name": "",
          "type": "address"
        }
      ],
      "stateMutability": "view",
      "type": "function"
    },
    {
      "inputs": [
        {
          "internalType": "address",
          "name": "",
          "type": "address"
        }
      ],
      "name": "verified",
      "outputs": [
        {
          "internalType": "bool",
          "name": "",
          "type": "bool"
        }
      ],
      "stateMutability": "view",
      "type": "function"
    },
    {
      "inputs": [
        {
          "internalType": "uint256",
          "name": "nullifier_hash",
          "type": "uint256"
        },
        {
          "internalType": "uint256",
          "name": "external_nullifier",
          "type": "uint256"
        },
        {
          "internalType": "uint256[8]",
          "name": "proof",
          "type": "uint256[8]"
        }
      ],
      "name": "verifyAddress",
      "outputs": [],
      "stateMutability": "nonpayable",
      "type": "function"
    }
  ],
  "transactionHash": "0xea7f4d316b1b5e907e3ea58cb4b56db6f590147dcb41f61bdb8c25927f7d264c",
  "args": [
    "0xFD84b7AC1E646580db8c77f1f05F47977fAda692",
    "0xb1dA5d9AC4B125F521DeF573532e9DBb6395B925"
  ],
  "numDeployments": 9,
  "solcInputHash": "16dc79075d4ab3f83e464f67cd882f79",
  "bytecode": "0x60806040526000600e553480156200001657600080fd5b506040516200ac1c3803806200ac1c8339810160408190526200003991620000e9565b600880546001600160a01b038085166001600160a01b03199283161790925560098054928416929091169190911790556040516200007790620000be565b604051809103906000f08015801562000094573d6000803e3d6000fd5b50600c80546001600160a01b0319166001600160a01b039290921691909117905550620001209050565b61592880620052f483390190565b80516001600160a01b0381168114620000e457600080fd5b919050565b60008060408385031215620000fc578182fd5b6200010783620000cc565b91506200011760208401620000cc565b90509250929050565b6151c480620001306000396000f3fe60806040523480156200001157600080fd5b5060043610620002255760003560e01c80638928dfc31162000131578063b9209e3311620000bb578063d82aff111162000086578063d82aff1114620005d4578063d8f146dd14620005eb578063f0fd1d381462000602578063f25fcc9f1462000619578063f8bd5acd146200064557600080fd5b8063b9209e33146200058e578063c4abc65014620004d6578063cabe2ae114620005bd578063ce93ec6714620002b857600080fd5b80639403b63411620000fc5780639403b63414620004d65780639fe1458b14620004ed578063ac1b6b011462000519578063b1b7e1f2146200056857600080fd5b80638928dfc314620003ff5780638c64ea4a14620004165780638d4f16d7146200045b5780638fbbc86814620004b357600080fd5b806343437be011620001b35780636399d03d116200017e5780636399d03d1462000397578063756bf09114620003ae5780637789ec5a14620003c55780637f8e6f1d14620003e857600080fd5b806343437be0146200032f578063482c0aa81462000352578063494ef44714620003695780634cb44087146200038057600080fd5b806314f2b14c11620001f457806314f2b14c14620002b85780632b85873414620002ea5780632d858c3f14620003015780633ea7fbdb146200031857600080fd5b806303cccb35146200022a5780630700472d146200024f5780630c33df1814620002665780630db065f41462000292575b600080fd5b6200024d336000908152600160208190526040909120805460ff19169091179055565b005b6200024d6200026036600462002ee7565b6200065c565b6200027d62000277366004620033ed565b620006bb565b60405190151581526020015b60405180910390f35b6200027d620002a336600462002ea9565b60016020526000908152604090205460ff1681565b620002db620002c93660046200333b565b60009081526005602052604090205490565b60405190815260200162000289565b6200024d620002fb3660046200333b565b6200079a565b6200024d6200031236600462002ea9565b62000818565b6200024d6200032936600462002ea9565b62000870565b620002db620003403660046200333b565b60066020526000908152604090205481565b620002db6200036336600462003414565b620008bf565b6200024d6200037a3660046200336d565b620008f1565b6200024d620003913660046200333b565b62000ad7565b6200024d620003a83660046200333b565b62000c85565b6200024d620003bf36600462002ff4565b62000db8565b620002db620003d636600462002ea9565b60036020526000908152604090205481565b6200027d620003f93660046200333b565b6200146e565b6200024d620004103660046200345a565b62001645565b62000442620004273660046200333b565b6004602052600090815260409020546001600160a01b031681565b6040516001600160a01b03909116815260200162000289565b620004926200046c3660046200333b565b600260205260009081526040902080546001909101546001600160a01b03918216911682565b604080516001600160a01b0393841681529290911660208301520162000289565b620002db620004c43660046200333b565b60056020526000908152604090205481565b62000442620004e73660046200333b565b62001769565b62000442620004fe3660046200333b565b6000908152600460205260409020546001600160a01b031690565b6200054c6200052a3660046200333b565b6040805180820190915260008082526020820152600091825260209190915290565b6040805182518152602092830151928101929092520162000289565b6200057f620005793660046200333b565b62001791565b604051620002899190620035f8565b6200027d6200059f36600462002ea9565b6001600160a01b031660009081526001602052604090205460ff1690565b6200024d620005ce3660046200333b565b620017f5565b6200024d620005e536600462002ea9565b6200208f565b6200024d620005fc366004620033b3565b620020f2565b6200024d62000613366004620033b3565b620021bd565b620002db6200062a36600462002ea9565b6001600160a01b031660009081526003602052604090205490565b6200024d6200065636600462002f24565b62002296565b6040516335313c2160e11b81523360048201526001600160a01b03831690636a62784290602401600060405180830381600087803b1580156200069e57600080fd5b505af1158015620006b3573d6000803e3d6000fd5b505050505050565b60008281526005602090815260408083205483526004918290528083205490516359dc5c6f60e01b81529182018590526001600160a01b03169081906359dc5c6f90602401600060405180830381600087803b1580156200071b57600080fd5b505af115801562000730573d6000803e3d6000fd5b5050604051630ae161cd60e21b8152600481018790526001600160a01b0384169250632b8587349150602401600060405180830381600087803b1580156200077757600080fd5b505af11580156200078c573d6000803e3d6000fd5b506001979650505050505050565b600081815260056020908152604080832054835260049182905291829020549151630ae161cd60e21b81529081018390526001600160a01b0390911690632b858734906024015b600060405180830381600087803b158015620007fc57600080fd5b505af115801562000811573d6000803e3d6000fd5b5050505050565b6008546001600160a01b031633146200084e5760405162461bcd60e51b8152600401620008459062003785565b60405180910390fd5b600b80546001600160a01b0319166001600160a01b0392909216919091179055565b6008546001600160a01b031633146200089d5760405162461bcd60e51b8152600401620008459062003785565b600d80546001600160a01b0319166001600160a01b0392909216919091179055565b60076020528160005260406000208181548110620008dc57600080fd5b90600052602060002001600091509150505481565b600a546001600160a01b03163314806200091557506008546001600160a01b031633145b620009345760405162461bcd60e51b8152600401620008459062003742565b600a54604051632841c2b760e21b8152600481018590526001600160a01b038481166024830152600092169063a1070adc9060440160206040518083038186803b1580156200098257600080fd5b505afa15801562000997573d6000803e3d6000fd5b505050506040513d601f19601f82011682018060405250810190620009bd919062003354565b9050811562000a4e576000620009dd8280670de0b6b3a764000062002364565b600b5460405163344676d360e21b81526001600160a01b0387811660048301526024820184905292935091169063d119db4c90604401600060405180830381600087803b15801562000a2e57600080fd5b505af115801562000a43573d6000803e3d6000fd5b505050505062000ad1565b600062000a658280670de0b6b3a764000062002364565b600b5460405163224e1c2d60e01b81526001600160a01b0387811660048301526024820184905292935091169063224e1c2d90604401600060405180830381600087803b15801562000ab657600080fd5b505af115801562000acb573d6000803e3d6000fd5b50505050505b50505050565b600a54604051636ff3062160e11b8152600481018390526001600160a01b039091169063dfe60c429060240160206040518083038186803b15801562000b1c57600080fd5b505afa15801562000b31573d6000803e3d6000fd5b505050506040513d601f19601f8201168201806040525081019062000b5791906200310e565b62000b9d5760405162461bcd60e51b8152602060048201526015602482015274139bdd08191d5c9a5b99c8185cdcd95cdcdb595b9d605a1b604482015260640162000845565b600a54604051634cb4408760e01b8152600481018390526001600160a01b0390911690634cb4408790602401600060405180830381600087803b15801562000be457600080fd5b505af115801562000bf9573d6000803e3d6000fd5b50505060008281526005602090815260408083205483526004918290529182902054915163d746d3ef60e01b81529081018490526001600160a01b03909116915063d746d3ef90602401600060405180830381600087803b15801562000c5e57600080fd5b505af115801562000c73573d6000803e3d6000fd5b5050505062000c828162002384565b50565b600081815260056020908152604080832054835260049182905280832054905163709a664160e11b81529182018490528291829182916001600160a01b039091169063e134cc8290602401608060405180830381600087803b15801562000ceb57600080fd5b505af115801562000d00573d6000803e3d6000fd5b505050506040513d601f19601f8201168201806040525081019062000d2691906200312d565b600a546040516335bf348d60e01b8152600481018b905285151560248201526044810185905260648101849052821515608482015294985092965090945092506001600160a01b0316906335bf348d9060a401600060405180830381600087803b15801562000d9457600080fd5b505af115801562000da9573d6000803e3d6000fd5b50505050620008118562002384565b6101008201516001600160a01b031662000e155760405162461bcd60e51b815260206004820152601860248201527f6d757374206e6f74206265207a65726f20616464726573730000000000000000604482015260640162000845565b670de0b6b3a76400008260800151101562000e635760405162461bcd60e51b815260206004820152600d60248201526c283932b1b4b9b4b7b71032b93960991b604482015260640162000845565b6000818152600460205260409020546001600160a01b031662000ec05760405162461bcd60e51b815260206004820152601460248201527315985d5b1d08191bd95cdb89dd09c8195e1a5cdd60621b604482015260640162000845565b6001600160a01b03831662000f235760405162461bcd60e51b815260206004820152602260248201527f726563697069656e74206d757374206e6f74206265207a65726f206164647265604482015261737360f01b606482015260840162000845565b600081815260046020818152604080842054600a54825163764bc84160e11b815292516001600160a01b039283169695919092169363ec9790829380830193919290829003018186803b15801562000f7a57600080fd5b505afa15801562000f8f573d6000803e3d6000fd5b505050506040513d601f19601f8201168201806040525081019062000fb5919062003354565b60008181526005602090815260408083208790558683526007825280832080546001810182559084529190922001829055600a548151637572cb1f60e01b815291519293506001600160a01b03908116926323cc3df89291861691637572cb1f9160048083019260e0929190829003018186803b1580156200103657600080fd5b505afa1580156200104b573d6000803e3d6000fd5b505050506040513d601f19601f82011682018060405250810190620010719190620032a9565b846001600160a01b0316636c321c8a6040518163ffffffff1660e01b815260040160206040518083038186803b158015620010ab57600080fd5b505afa158015620010c0573d6000803e3d6000fd5b505050506040513d601f19601f82011682018060405250810190620010e6919062003354565b846040518463ffffffff1660e01b815260040162001107939291906200387e565b600060405180830381600087803b1580156200112257600080fd5b505af115801562001137573d6000803e3d6000fd5b50505050608084015160a0850151600a5460405163c6ceb96b60e01b8152600481018590526000938493620011dc93919290916001600160a01b03169063c6ceb96b9060240160e06040518083038186803b1580156200119657600080fd5b505afa158015620011ab573d6000803e3d6000fd5b505050506040513d601f19601f82011682018060405250810190620011d19190620032a9565b6020015186620024be565b600a54608089015160a08a015160e08b0151604051637e1f049560e11b81529597509395506001600160a01b039092169363fc3e092a936200122d93899392909189918991904290600401620038d6565b600060405180830381600087803b1580156200124857600080fd5b505af11580156200125d573d6000803e3d6000fd5b5050506001600160a01b03808916600090815260036020526040908190208690556060890186905251634857ef4160e11b815290861691506390afde8290620012ab908990600401620037c6565b600060405180830381600087803b158015620012c657600080fd5b505af1158015620012db573d6000803e3d6000fd5b50506040805180820182526101008a01516001600160a01b0390811682528b8116602080840191825260008a81526002909152849020925183549083166001600160a01b03199182161784559051600190930180549383169390911692909217909155600b54600a54925163c6ceb96b60e01b81526004810189905290821694506331e062b8935091169063c6ceb96b9060240160e06040518083038186803b1580156200138857600080fd5b505afa1580156200139d573d6000803e3d6000fd5b505050506040513d601f19601f82011682018060405250810190620013c39190620032a9565b60a00151856040518363ffffffff1660e01b8152600401620013ef929190918252602082015260400190565b600060405180830381600087803b1580156200140a57600080fd5b505af11580156200141f573d6000803e3d6000fd5b5050604080518681526001600160a01b038b1660208201527f5e2ab39d79551e4c4e66256d806dd566d4d015420519d2ed2621563488a5d2a8935001905060405180910390a150505050505050565b6000818152600560209081526040808320548352600491829052808320549051634f626a0760e11b815291820184905282916001600160a01b0390911690639ec4d40e9060240160006040518083038186803b158015620014ce57600080fd5b505afa158015620014e3573d6000803e3d6000fd5b505050506040513d6000823e601f3d908101601f191682016040526200150d9190810190620031ad565b90506000816060015111801562001522575080515b620015705760405162461bcd60e51b815260206004820152601960248201527f696e737472756d656e74206d7573742062652061637469766500000000000000604482015260640162000845565b600081610140015111620015d35760405162461bcd60e51b815260206004820152602360248201527f696e737472756d656e74206861736e2774206265656e20617070726f766564206044820152621e595d60ea1b606482015260840162000845565b80610140015142106200163c57604051630ae161cd60e21b8152600481018490523090632b85873490602401600060405180830381600087803b1580156200161a57600080fd5b505af11580156200162f573d6000803e3d6000fd5b5060019695505050505050565b50600092915050565b3360009081526001602052604090205460ff1615620016a75760405162461bcd60e51b815260206004820152601860248201527f6164647265737320616c72656164792076657269666965640000000000000000604482015260640162000845565b600954604051636673e84960e01b81526001600160a01b0390911690636673e8499062001713907f239c35f1f32f5943610fcc78e22c7d7a412ac0939d50bb892b9987f4326f07a7906e1d1dda5d1d195c8b5d5b9c985d1959608a1b90889088908890600401620038a1565b600060405180830381600087803b1580156200172e57600080fd5b505af115801562001743573d6000803e3d6000fd5b5050336000908152600160208190526040909120805460ff191690911790555050505050565b600090815260056020908152604080832054835260049091529020546001600160a01b031690565b600081815260076020908152604091829020805483518184028101840190945280845260609392830182828015620017e957602002820191906000526020600020905b815481526020019060010190808311620017d4575b50505050509050919050565b600a546001600160a01b03163314806200181957506008546001600160a01b031633145b620018385760405162461bcd60e51b8152600401620008459062003742565b600081815260056020908152604080832054835260049182905280832054600a54915163054d50b360e21b81529283018590526001600160a01b03908116939291169063153542cc9060240160206040518083038186803b1580156200189d57600080fd5b505afa158015620018b2573d6000803e3d6000fd5b505050506040513d601f19601f82011682018060405250810190620018d8919062002ec8565b600a54604051634bee760b60e11b8152600481018690529192506001600160a01b0316906397dcec169060240160206040518083038186803b1580156200191e57600080fd5b505afa15801562001933573d6000803e3d6000fd5b505050506040513d601f19601f8201168201806040525081019062001959919062003354565b600314620019aa5760405162461bcd60e51b815260206004820152601860248201527f4d61726b657420436f6e646974696f6e204e6f74206d65740000000000000000604482015260640162000845565b60405163238f0e7560e11b8152600481018490526001600160a01b0383169063471e1cea9060240160206040518083038186803b158015620019eb57600080fd5b505afa15801562001a00573d6000803e3d6000fd5b505050506040513d601f19601f8201168201806040525081019062001a2691906200310e565b62001a7e5760405162461bcd60e51b815260206004820152602160248201527f496e737472756d656e7420617070726f76616c20636f6e646974696f6e206d656044820152601d60fa1b606482015260840162000845565b62001a8a83826200285d565b600a54604051634093659d60e11b8152600481018590526001600160a01b0390911690638126cb3a90602401600060405180830381600087803b15801562001ad157600080fd5b505af115801562001ae6573d6000803e3d6000fd5b505050506000816001600160a01b031663f6bb8ba06040518163ffffffff1660e01b815260040160206040518083038186803b15801562001b2657600080fd5b505afa15801562001b3b573d6000803e3d6000fd5b505050506040513d601f19601f8201168201806040525081019062001b61919062003354565b826001600160a01b0316630902f1ac6040518163ffffffff1660e01b815260040160206040518083038186803b15801562001b9b57600080fd5b505afa15801562001bb0573d6000803e3d6000fd5b505050506040513d601f19601f8201168201806040525081019062001bd6919062003354565b62001be29190620039de565b905062001cfc6040518060400160405280600b81526020016a626320726573657276657360a81b815250836001600160a01b0316630902f1ac6040518163ffffffff1660e01b815260040160206040518083038186803b15801562001c4657600080fd5b505afa15801562001c5b573d6000803e3d6000fd5b505050506040513d601f19601f8201168201806040525081019062001c81919062003354565b846001600160a01b031663f6bb8ba06040518163ffffffff1660e01b815260040160206040518083038186803b15801562001cbb57600080fd5b505afa15801562001cd0573d6000803e3d6000fd5b505050506040513d601f19601f8201168201806040525081019062001cf6919062003354565b62002b7c565b62001eaf6040518060400160405280601a81526020017f77636f6c6c61746572616c2062616c616e6365206265666f7265000000000000815250846001600160a01b031663c5d664c66040518163ffffffff1660e01b815260040160206040518083038186803b15801562001d7057600080fd5b505afa15801562001d85573d6000803e3d6000fd5b505050506040513d601f19601f8201168201806040525081019062001dab919062002ec8565b6001600160a01b03166370a08231856001600160a01b0316635c1548fb6040518163ffffffff1660e01b815260040160206040518083038186803b15801562001df357600080fd5b505afa15801562001e08573d6000803e3d6000fd5b505050506040513d601f19601f8201168201806040525081019062001e2e919062002ec8565b6040516001600160e01b031960e084901b1681526001600160a01b03909116600482015260240160206040518083038186803b15801562001e6e57600080fd5b505afa15801562001e83573d6000803e3d6000fd5b505050506040513d601f19601f8201168201806040525081019062001ea9919062003354565b62002bcc565b816001600160a01b0316635c1548fb6040518163ffffffff1660e01b815260040160206040518083038186803b15801562001ee957600080fd5b505afa15801562001efe573d6000803e3d6000fd5b505050506040513d601f19601f8201168201806040525081019062001f24919062002ec8565b604051639c62122560e01b81526001600160a01b038581166004830152602482018490529190911690639c62122590604401600060405180830381600087803b15801562001f7157600080fd5b505af115801562001f86573d6000803e3d6000fd5b505050508060066000868152602001908152602001600020819055506200200c6040518060400160405280601381526020017277636f6c6c61746572616c2062616c616e636560681b815250846001600160a01b031663c5d664c66040518163ffffffff1660e01b815260040160206040518083038186803b15801562001d7057600080fd5b60008481526020819052604090819020905163fec4fa7560e01b8152600481018690528154602482015260019091015460448201526001600160a01b0384169063fec4fa7590606401600060405180830381600087803b1580156200207057600080fd5b505af115801562002085573d6000803e3d6000fd5b5050505050505050565b6008546001600160a01b03163314620020bc5760405162461bcd60e51b8152600401620008459062003785565b6001600160a01b038116620020d057600080fd5b600a80546001600160a01b0319166001600160a01b0392909216919091179055565b600a546001600160a01b03163314806200211657506008546001600160a01b031633145b620021355760405162461bcd60e51b8152600401620008459062003742565b600081815260056020908152604080832054835260049182905291829020549151632fafde8160e21b81529081018590526001600160a01b0384811660248301529091169063bebf7a04906044015b600060405180830381600087803b1580156200219f57600080fd5b505af1158015620021b4573d6000803e3d6000fd5b50505050505050565b600a546001600160a01b0316331480620021e157506008546001600160a01b031633145b620022005760405162461bcd60e51b8152600401620008459062003742565b620022426040518060400160405280600a8152602001691d985d5b1d081919589d60b21b81525060066000848152602001908152602001600020548562002b7c565b600081815260056020908152604080832054835260049182905291829020549151633c16f3ed60e21b81529081018590526001600160a01b0384811660248301529091169063f05bcfb49060440162002184565b600d546040516326d079ad60e01b815260009182916001600160a01b03909116906326d079ad90620022d9908b9030908c908c908c908c908c90600401620035a7565b6040805180830381600087803b158015620022f357600080fd5b505af115801562002308573d6000803e3d6000fd5b505050506040513d601f19601f820116820180604052508101906200232e91906200317d565b600090815260046020526040902080546001600160a01b0319166001600160a01b03929092169190911790555050505050505050565b8282028115158415858304851417166200237d57600080fd5b0492915050565b600a5460405163054d50b360e21b8152600481018390526001600160a01b039091169063153542cc9060240160206040518083038186803b158015620023c957600080fd5b505afa158015620023de573d6000803e3d6000fd5b505050506040513d601f19601f8201168201806040525081019062002404919062002ec8565b6001600160a01b0316635c1548fb6040518163ffffffff1660e01b815260040160206040518083038186803b1580156200243d57600080fd5b505afa15801562002452573d6000803e3d6000fd5b505050506040513d601f19601f8201168201806040525081019062002478919062002ec8565b6001600160a01b03166379c76e1a620024918362001769565b6040516001600160e01b031960e084901b1681526001600160a01b039091166004820152602401620007e1565b600080600030620024cf8562001769565b6001600160a01b031663c5d664c66040518163ffffffff1660e01b815260040160206040518083038186803b1580156200250857600080fd5b505afa1580156200251d573d6000803e3d6000fd5b505050506040513d601f19601f8201168201806040525081019062002543919062002ec8565b604051620025519062002da7565b6080808252600490820152636e616d6560e01b60a082015260c060208201819052600690820152651cde5b589bdb60d21b60e08201526001600160a01b0392831660408201529116606082015261010001604051809103906000f080158015620025bf573d6000803e3d6000fd5b50600c54604080518082019091526004815263109bdb9960e21b6020820152600e549293506000926001600160a01b0390921691632c77a7739190620026059062002c19565b6040516020016200261892919062003567565b60408051601f1981840301815282820190915260018252602160f91b6020830152600e549091906200264a9062002c19565b6040516020016200265d92919062003534565b60408051601f1981840301815290829052600a546001600160e01b031960e086901b168352620026a593926001600160a01b039091169088908f908f908f9060040162003697565b602060405180830381600087803b158015620026c057600080fd5b505af1158015620026d5573d6000803e3d6000fd5b505050506040513d601f19601f82011682018060405250810190620026fb919062002ec8565b600c546040805180820190915260058152641cd09bdb9960da1b6020820152600e549293506000926001600160a01b039092169163220859989190620027419062002c19565b6040516020016200275492919062003567565b60408051601f19818403018152828201909152600282526139a160f11b6020830152600e54909190620027879062002c19565b6040516020016200279a92919062003534565b60408051601f1981840301815290829052600a546001600160e01b031960e086901b168352620027e093926001600160a01b0390911690899089908e906004016200363e565b602060405180830381600087803b158015620027fb57600080fd5b505af115801562002810573d6000803e3d6000fd5b505050506040513d601f19601f8201168201806040525081019062002836919062002ec8565b600e805491925060006200284a8362003a59565b9091555091999098509650505050505050565b60008281526005602090815260408083205483526004918290528083205490516318353be960e21b815291820185905282916001600160a01b03909116906360d4efa490602401604080518083038186803b158015620028bc57600080fd5b505afa158015620028d1573d6000803e3d6000fd5b505050506040513d601f19601f82011682018060405250810190620028f7919062003436565b91509150600062002a15846001600160a01b031663d6eb59106040518163ffffffff1660e01b815260040160206040518083038186803b1580156200293b57600080fd5b505afa15801562002950573d6000803e3d6000fd5b505050506040513d601f19601f8201168201806040525081019062002976919062003354565b600a5460405163c6ceb96b60e01b815260048101899052670de0b6b3a7640000916001600160a01b03169063c6ceb96b9060240160e06040518083038186803b158015620029c357600080fd5b505afa158015620029d8573d6000803e3d6000fd5b505050506040513d601f19601f82011682018060405250810190620029fe9190620032a9565b60c0015162002a0e9190620039de565b9062002d4f565b905062002a7b6040518060400160405280600c81526020016b1b585e1c1c9a5b98da5c185b60a21b81525082866001600160a01b031663d6eb59106040518163ffffffff1660e01b815260040160206040518083038186803b15801562001cbb57600080fd5b62002a87818462002d6d565b604051634e5d17f760e11b81526004810182905260006024820181905291925082906001600160a01b03871690639cba2fee9060440160206040518083038186803b15801562002ad657600080fd5b505afa15801562002aeb573d6000803e3d6000fd5b505050506040513d601f19601f8201168201806040525081019062002b11919062003354565b62002b1d919062003a10565b905062002b49604051806040016040528060068152602001651c5d5bdd195960d21b8152508262002bcc565b60408051808201825292835260208084019283526000978852879052909520905181559351600190940193909355505050565b62002bc783838360405160240162002b97939291906200371b565b60408051601f198184030181529190526020810180516001600160e01b031663969cdd0360e01b17905262002d86565b505050565b62002c15828260405160240162002be5929190620036f7565b60408051601f198184030181529190526020810180516001600160e01b03166309710a9d60e41b17905262002d86565b5050565b60608162002c3e5750506040805180820190915260018152600360fc1b602082015290565b8160005b811562002c6e578062002c558162003a59565b915062002c669050600a83620039f9565b915062002c42565b60008167ffffffffffffffff81111562002c9857634e487b7160e01b600052604160045260246000fd5b6040519080825280601f01601f19166020018201604052801562002cc3576020820181803683370190505b5090505b841562002d475762002cdb60018362003a10565b915062002cea600a8662003a77565b62002cf7906030620039de565b60f81b81838151811062002d1b57634e487b7160e01b600052603260045260246000fd5b60200101906001600160f81b031916908160001a90535062002d3f600a86620039f9565b945062002cc7565b949350505050565b600062002d668383670de0b6b3a764000062002364565b9392505050565b60008183111562002d7f578162002d66565b5090919050565b80516a636f6e736f6c652e6c6f67602083016000808483855afa5050505050565b6116788062003b1783390190565b803562002dc28162003ad0565b919050565b805162002dc28162003ad0565b803562002dc28162003ae6565b805162002dc28162003ae6565b803562002dc28162003af5565b805162002dc28162003af5565b600082601f83011262002e19578081fd5b813562002e3062002e2a82620039b3565b6200397f565b81815284602083860101111562002e45578283fd5b816020850160208301379081016020019190915292915050565b600082601f83011262002e70578081fd5b815162002e8162002e2a82620039b3565b81815284602083860101111562002e96578283fd5b62002d4782602083016020870162003a2a565b60006020828403121562002ebb578081fd5b813562002d668162003ad0565b60006020828403121562002eda578081fd5b815162002d668162003ad0565b6000806040838503121562002efa578081fd5b823562002f078162003ad0565b9150602083013562002f198162003ad0565b809150509250929050565b60008060008060008086880361018081121562002f3f578283fd5b873562002f4c8162003ad0565b9650602088013562002f5e8162003ae6565b955060408801359450606088013593506080880135925060e0609f198201121562002f87578182fd5b5062002f926200392c565b60a088013562002fa28162003b03565b8082525060c0880135602082015260e088013560408201526101008801356060820152610120880135608082015261014088013560a082015261016088013560c0820152809150509295509295509295565b60008060006060848603121562003009578081fd5b8335620030168162003ad0565b9250602084013567ffffffffffffffff8082111562003033578283fd5b90850190610160828803121562003048578283fd5b6200305262003958565b6200305d8362002dd4565b81526020830135602082015260408301356040820152606083013560608201526080830135608082015260a083013560a082015260c083013560c082015260e083013582811115620030ad578485fd5b620030bb8982860162002e08565b60e0830152506101009150620030d382840162002db5565b828201526101209150620030e982840162002dee565b8282015261014091508183013582820152809450505050604084013590509250925092565b60006020828403121562003120578081fd5b815162002d668162003ae6565b6000806000806080858703121562003143578182fd5b8451620031508162003ae6565b8094505060208501519250604085015191506060850151620031728162003ae6565b939692955090935050565b6000806040838503121562003190578182fd5b82516200319d8162003ad0565b6020939093015192949293505050565b600060208284031215620031bf578081fd5b815167ffffffffffffffff80821115620031d7578283fd5b908301906101608286031215620031ec578283fd5b620031f662003958565b620032018362002de1565b81526020830151602082015260408301516040820152606083015160608201526080830151608082015260a083015160a082015260c083015160c082015260e08301518281111562003251578485fd5b6200325f8782860162002e5f565b60e08301525061010091506200327782840162002dc7565b8282015261012091506200328d82840162002dfb565b9181019190915261014091820151918101919091529392505050565b600060e08284031215620032bb578081fd5b60405160e0810181811067ffffffffffffffff82111715620032e157620032e162003aba565b6040528251620032f18162003b03565b808252506020830151602082015260408301516040820152606083015160608201526080830151608082015260a083015160a082015260c083015160c08201528091505092915050565b6000602082840312156200334d578081fd5b5035919050565b60006020828403121562003366578081fd5b5051919050565b60008060006060848603121562003382578081fd5b833592506020840135620033968162003ad0565b91506040840135620033a88162003ae6565b809150509250925092565b600080600060608486031215620033c8578081fd5b833592506020840135620033dc8162003ad0565b929592945050506040919091013590565b6000806040838503121562003400578182fd5b82359150602083013562002f198162003ae6565b6000806040838503121562003427578182fd5b50508035926020909101359150565b6000806040838503121562003449578182fd5b505080516020909101519092909150565b600080600061014080858703121562003471578182fd5b84359350602085013592508581860111156200348b578182fd5b506040840190509250925092565b60028110620034b857634e487b7160e01b600052602160045260246000fd5b9052565b60008151808452620034d681602086016020860162003a2a565b601f01601f19169290920160200192915050565b63ffffffff81511682526020810151602083015260408101516040830152606081015160608301526080810151608083015260a081015160a083015260c081015160c08301525050565b600083516200354881846020880162003a2a565b8351908301906200355e81836020880162003a2a565b01949350505050565b600083516200357b81846020880162003a2a565b602d60f81b90830190815283516200359b81600184016020880162003a2a565b01600101949350505050565b6001600160a01b038881168252871660208201528515156040820152606081018590526080810184905260a081018390526101a08101620035ec60c0830184620034ea565b98975050505050505050565b6020808252825182820181905260009190848201906040850190845b81811015620036325783518352928401929184019160010162003614565b50909695505050505050565b60c0815260006200365360c0830189620034bc565b8281036020840152620036678189620034bc565b6001600160a01b0397881660408501529587166060840152505091909316608082015260a0019190915292915050565b60e081526000620036ac60e083018a620034bc565b8281036020840152620036c0818a620034bc565b6001600160a01b03988916604085015296909716606083015250608081019390935260a083019190915260c0909101529392505050565b6040815260006200370c6040830185620034bc565b90508260208301529392505050565b606081526000620037306060830186620034bc565b60208301949094525060400152919050565b60208082526023908201527f4f6e6c79204d616e616765722063616e2063616c6c20746869732066756e637460408201526234b7b760e91b606082015260800190565b60208082526021908201527f4f6e6c79204f776e65722063616e2063616c6c20746869732066756e6374696f6040820152603760f91b606082015260800190565b60208152620037da60208201835115159052565b602082015160408201526040820151606082015260608201516080820152608082015160a082015260a082015160c082015260c082015160e0820152600060e0830151610160610100818186015262003838610180860184620034bc565b9086015190925061012062003857868201836001600160a01b03169052565b86015190506101406200386d8682018362003499565b959095015193019290925250919050565b61012081016200388f8286620034ea565b60e08201939093526101000152919050565b600061018082019050868252856020830152846040830152836060830152610100836080840137600081529695505050505050565b87815260208101879052604081018690526001600160a01b0385811660608301528416608082015260e060a082018190526000906200391890830185620034bc565b90508260c083015298975050505050505050565b60405160e0810167ffffffffffffffff8111828210171562003952576200395262003aba565b60405290565b604051610160810167ffffffffffffffff8111828210171562003952576200395262003aba565b604051601f8201601f1916810167ffffffffffffffff81118282101715620039ab57620039ab62003aba565b604052919050565b600067ffffffffffffffff821115620039d057620039d062003aba565b50601f01601f191660200190565b60008219821115620039f457620039f462003a8e565b500190565b60008262003a0b5762003a0b62003aa4565b500490565b60008282101562003a255762003a2562003a8e565b500390565b60005b8381101562003a4757818101518382015260200162003a2d565b8381111562000ad15750506000910152565b600060001982141562003a705762003a7062003a8e565b5060010190565b60008262003a895762003a8962003aa4565b500690565b634e487b7160e01b600052601160045260246000fd5b634e487b7160e01b600052601260045260246000fd5b634e487b7160e01b600052604160045260246000fd5b6001600160a01b038116811462000c8257600080fd5b801515811462000c8257600080fd5b6002811062000c8257600080fd5b63ffffffff8116811462000c8257600080fdfe60806040523480156200001157600080fd5b506040516200167838038062001678833981016040819052620000349162000364565b8383838282816003908051906020019062000051929190620001c5565b50805162000067906004906020840190620001c5565b5050600580546001600160a01b0319908116338216176001600160a01b03948516179091556006805490911686841690811790915560405163095ea7b360e01b815292871660048401526000196024840152935063095ea7b3925050604401602060405180830381600087803b158015620000e157600080fd5b505af1158015620000f6573d6000803e3d6000fd5b505050506040513d601f19601f820116820180604052508101906200011c91906200033b565b50600660009054906101000a90046001600160a01b03166001600160a01b031663313ce5676040518163ffffffff1660e01b815260040160206040518083038186803b1580156200016c57600080fd5b505afa15801562000181573d6000803e3d6000fd5b505050506040513d601f19601f82011682018060405250810190620001a79190620003f0565b620001b490601262000413565b60ff16600755506200049692505050565b828054620001d39062000443565b90600052602060002090601f016020900481019282620001f7576000855562000242565b82601f106200021257805160ff191683800117855562000242565b8280016001018555821562000242579182015b828111156200024257825182559160200191906001019062000225565b506200025092915062000254565b5090565b5b8082111562000250576000815560010162000255565b80516001600160a01b03811681146200028357600080fd5b919050565b600082601f83011262000299578081fd5b81516001600160401b0380821115620002b657620002b662000480565b604051601f8301601f19908116603f01168101908282118183101715620002e157620002e162000480565b81604052838152602092508683858801011115620002fd578485fd5b8491505b8382101562000320578582018301518183018401529082019062000301565b838211156200033157848385830101525b9695505050505050565b6000602082840312156200034d578081fd5b815180151581146200035d578182fd5b9392505050565b600080600080608085870312156200037a578283fd5b84516001600160401b038082111562000391578485fd5b6200039f8883890162000288565b95506020870151915080821115620003b5578485fd5b50620003c48782880162000288565b935050620003d5604086016200026b565b9150620003e5606086016200026b565b905092959194509250565b60006020828403121562000402578081fd5b815160ff811681146200035d578182fd5b600060ff821660ff8416808210156200043a57634e487b7160e01b83526011600452602483fd5b90039392505050565b600181811c908216806200045857607f821691505b602082108114156200047a57634e487b7160e01b600052602260045260246000fd5b50919050565b634e487b7160e01b600052604160045260246000fd5b6111d280620004a66000396000f3fe608060405234801561001057600080fd5b50600436106101375760003560e01c806371297784116100b8578063a457c2d71161007c578063a457c2d714610284578063a9059cbb14610297578063c024cd26146102aa578063c6c3bbe6146102bd578063dd62ed3e146102d0578063f2fde38b146102e357600080fd5b8063712977841461022857806379c76e1a1461023b578063893d20e81461024e57806395d89b41146102695780639c6212251461027157600080fd5b806323b872dd116100ff57806323b872dd146101b7578063313ce567146101ca57806339509351146101d957806342986e13146101ec57806370a08231146101ff57600080fd5b806306fdde031461013c578063095ea7b31461015a5780630e6dfcd51461017d5780630fb665571461019257806318160ddd146101a5575b600080fd5b6101446102f6565b6040516101519190610fbe565b60405180910390f35b61016d610168366004610f5d565b610388565b6040519015158152602001610151565b61019061018b366004610f22565b6103a2565b005b6101906101a0366004610f22565b610456565b6002545b604051908152602001610151565b61016d6101c5366004610f22565b61047d565b60405160128152602001610151565b61016d6101e7366004610f5d565b6104a1565b6101906101fa366004610f5d565b6104c3565b6101a961020d366004610ecf565b6001600160a01b031660009081526020819052604090205490565b6101a9610236366004610ecf565b6104e8565b610190610249366004610ecf565b61052d565b6005546040516001600160a01b039091168152602001610151565b610144610647565b61019061027f366004610f5d565b610656565b61016d610292366004610f5d565b61074a565b61016d6102a5366004610f5d565b6107c5565b6101906102b8366004610f5d565b6107d3565b6101906102cb366004610f22565b6107f4565b6101a96102de366004610ef0565b6108a8565b61016d6102f1366004610ecf565b6108d3565b6060600380546103059061114b565b80601f01602080910402602001604051908101604052809291908181526020018280546103319061114b565b801561037e5780601f106103535761010080835404028352916020019161037e565b820191906000526020600020905b81548152906001019060200180831161036157829003601f168201915b5050505050905090565b600033610396818585610925565b60019150505b92915050565b6000600754600a6103b3919061108c565b6103bd9083611029565b90506103c98483610a49565b60065460405163a9059cbb60e01b81526001600160a01b038581166004830152602482018490529091169063a9059cbb90604401602060405180830381600087803b15801561041757600080fd5b505af115801561042b573d6000803e3d6000fd5b505050506040513d601f19601f8201168201806040525081019061044f9190610f86565b5050505050565b6005546001600160a01b0316331461046d57600080fd5b610478838383610b97565b505050565b60003361048b858285610d65565b610496858585610b97565b506001949350505050565b6000336103968185856104b483836108a8565b6104be9190611011565b610925565b6005546001600160a01b031633146104da57600080fd5b6104e48282610a49565b5050565b6005546000906001600160a01b0316331461050257600080fd5b6001600160a01b0382166000908152602081905260409020546105258382610a49565b90505b919050565b6005546001600160a01b0316331461054457600080fd5b6006546040516370a0823160e01b81523060048201526001600160a01b039091169063a9059cbb90839083906370a082319060240160206040518083038186803b15801561059157600080fd5b505afa1580156105a5573d6000803e3d6000fd5b505050506040513d601f19601f820116820180604052508101906105c99190610fa6565b6040516001600160e01b031960e085901b1681526001600160a01b0390921660048301526024820152604401602060405180830381600087803b15801561060f57600080fd5b505af1158015610623573d6000803e3d6000fd5b505050506040513d601f19601f820116820180604052508101906104e49190610f86565b6060600480546103059061114b565b6005546001600160a01b031633146106a15760405162461bcd60e51b81526020600482015260096024820152682737ba1037bbb732b960b91b60448201526064015b60405180910390fd5b6000600754600a6106b2919061108c565b6106bc9083611029565b60065460405163a9059cbb60e01b81526001600160a01b0386811660048301526024820184905292935091169063a9059cbb90604401602060405180830381600087803b15801561070c57600080fd5b505af1158015610720573d6000803e3d6000fd5b505050506040513d601f19601f820116820180604052508101906107449190610f86565b50505050565b6000338161075882866108a8565b9050838110156107b85760405162461bcd60e51b815260206004820152602560248201527f45524332303a2064656372656173656420616c6c6f77616e63652062656c6f77604482015264207a65726f60d81b6064820152608401610698565b6104968286868403610925565b600033610396818585610b97565b6005546001600160a01b031633146107ea57600080fd5b6104e48282610dd9565b6000600754600a610805919061108c565b61080f9083611029565b6006546040516323b872dd60e01b81526001600160a01b038781166004830152306024830152604482018490529293509116906323b872dd90606401602060405180830381600087803b15801561086557600080fd5b505af1158015610879573d6000803e3d6000fd5b505050506040513d601f19601f8201168201806040525081019061089d9190610f86565b506107448383610dd9565b6001600160a01b03918216600090815260016020908152604080832093909416825291909152205490565b6005546000906001600160a01b031633146108ed57600080fd5b6001600160a01b03821661090057600080fd5b50600580546001600160a01b0383166001600160a01b03199091161790556001919050565b6001600160a01b0383166109875760405162461bcd60e51b8152602060048201526024808201527f45524332303a20617070726f76652066726f6d20746865207a65726f206164646044820152637265737360e01b6064820152608401610698565b6001600160a01b0382166109e85760405162461bcd60e51b815260206004820152602260248201527f45524332303a20617070726f766520746f20746865207a65726f206164647265604482015261737360f01b6064820152608401610698565b6001600160a01b0383811660008181526001602090815260408083209487168084529482529182902085905590518481527f8c5be1e5ebec7d5bd14f71427d1e84f3dd0314c0f7b2291e5b200ac8c7c3b925910160405180910390a3505050565b6001600160a01b038216610aa95760405162461bcd60e51b815260206004820152602160248201527f45524332303a206275726e2066726f6d20746865207a65726f206164647265736044820152607360f81b6064820152608401610698565b6001600160a01b03821660009081526020819052604090205481811015610b1d5760405162461bcd60e51b815260206004820152602260248201527f45524332303a206275726e20616d6f756e7420657863656564732062616c616e604482015261636560f01b6064820152608401610698565b6001600160a01b0383166000908152602081905260408120838303905560028054849290610b4c908490611134565b90915550506040518281526000906001600160a01b038516907fddf252ad1be2c89b69c2b068fc378daa952ba7f163c4a11628f55a4df523b3ef9060200160405180910390a3505050565b6001600160a01b038316610bfb5760405162461bcd60e51b815260206004820152602560248201527f45524332303a207472616e736665722066726f6d20746865207a65726f206164604482015264647265737360d81b6064820152608401610698565b6001600160a01b038216610c5d5760405162461bcd60e51b815260206004820152602360248201527f45524332303a207472616e7366657220746f20746865207a65726f206164647260448201526265737360e81b6064820152608401610698565b6001600160a01b03831660009081526020819052604090205481811015610cd55760405162461bcd60e51b815260206004820152602660248201527f45524332303a207472616e7366657220616d6f756e7420657863656564732062604482015265616c616e636560d01b6064820152608401610698565b6001600160a01b03808516600090815260208190526040808220858503905591851681529081208054849290610d0c908490611011565b92505081905550826001600160a01b0316846001600160a01b03167fddf252ad1be2c89b69c2b068fc378daa952ba7f163c4a11628f55a4df523b3ef84604051610d5891815260200190565b60405180910390a3610744565b6000610d7184846108a8565b905060001981146107445781811015610dcc5760405162461bcd60e51b815260206004820152601d60248201527f45524332303a20696e73756666696369656e7420616c6c6f77616e63650000006044820152606401610698565b6107448484848403610925565b6001600160a01b038216610e2f5760405162461bcd60e51b815260206004820152601f60248201527f45524332303a206d696e7420746f20746865207a65726f2061646472657373006044820152606401610698565b8060026000828254610e419190611011565b90915550506001600160a01b03821660009081526020819052604081208054839290610e6e908490611011565b90915550506040518181526001600160a01b038316906000907fddf252ad1be2c89b69c2b068fc378daa952ba7f163c4a11628f55a4df523b3ef9060200160405180910390a35050565b80356001600160a01b038116811461052857600080fd5b600060208284031215610ee0578081fd5b610ee982610eb8565b9392505050565b60008060408385031215610f02578081fd5b610f0b83610eb8565b9150610f1960208401610eb8565b90509250929050565b600080600060608486031215610f36578081fd5b610f3f84610eb8565b9250610f4d60208501610eb8565b9150604084013590509250925092565b60008060408385031215610f6f578182fd5b610f7883610eb8565b946020939093013593505050565b600060208284031215610f97578081fd5b81518015158114610ee9578182fd5b600060208284031215610fb7578081fd5b5051919050565b6000602080835283518082850152825b81811015610fea57858101830151858201604001528201610fce565b81811115610ffb5783604083870101525b50601f01601f1916929092016040019392505050565b6000821982111561102457611024611186565b500190565b60008261104457634e487b7160e01b81526012600452602481fd5b500490565b600181815b8085111561108457816000190482111561106a5761106a611186565b8085161561107757918102915b93841c939080029061104e565b509250929050565b6000610ee983836000826110a25750600161039c565b816110af5750600061039c565b81600181146110c557600281146110cf576110eb565b600191505061039c565b60ff8411156110e0576110e0611186565b50506001821b61039c565b5060208310610133831016604e8410600b841016171561110e575081810a61039c565b6111188383611049565b806000190482111561112c5761112c611186565b029392505050565b60008282101561114657611146611186565b500390565b600181811c9082168061115f57607f821691505b6020821081141561118057634e487b7160e01b600052602260045260246000fd5b50919050565b634e487b7160e01b600052601160045260246000fdfea2646970667358221220f11c6aea9faf811254edd5dff799b39354803364fdc946cd830cc909735d6a4e64736f6c63430008040033a26469706673582212207c8a4c61c923a1e46a377afa34351e16743939b76be19dadb59187aa167909b664736f6c63430008040033608060405234801561001057600080fd5b50600080546001600160a01b031916331790556158f6806100326000396000f3fe60806040523480156200001157600080fd5b50600436106200003a5760003560e01c806322085998146200003f5780632c77a7731462000072575b600080fd5b6200005662000050366004620001f8565b62000089565b6040516001600160a01b03909116815260200160405180910390f35b6200005662000083366004620002a0565b620000db565b600080878787878787604051620000a09062000130565b620000b19695949392919062000396565b604051809103906000f080158015620000ce573d6000803e3d6000fd5b5098975050505050505050565b60008088888888888888604051620000f3906200013e565b620001059796959493929190620003ef565b604051809103906000f08015801562000122573d6000803e3d6000fd5b509998505050505050505050565b6124f0806200046683390190565b612f6b806200295683390190565b80356001600160a01b03811681146200016457600080fd5b919050565b600082601f8301126200017a578081fd5b813567ffffffffffffffff808211156200019857620001986200044f565b604051601f8301601f19908116603f01168101908282118183101715620001c357620001c36200044f565b81604052838152866020858801011115620001dc578485fd5b8360208701602083013792830160200193909352509392505050565b60008060008060008060c0878903121562000211578182fd5b863567ffffffffffffffff8082111562000229578384fd5b620002378a838b0162000169565b975060208901359150808211156200024d578384fd5b506200025c89828a0162000169565b9550506200026d604088016200014c565b93506200027d606088016200014c565b92506200028d608088016200014c565b915060a087013590509295509295509295565b600080600080600080600060e0888a031215620002bb578081fd5b873567ffffffffffffffff80821115620002d3578283fd5b620002e18b838c0162000169565b985060208a0135915080821115620002f7578283fd5b50620003068a828b0162000169565b96505062000317604089016200014c565b945062000327606089016200014c565b9699959850939660808101359560a0820135955060c0909101359350915050565b60008151808452815b818110156200036f5760208185018101518683018201520162000351565b81811115620003815782602083870101525b50601f01601f19169290920160200192915050565b60c081526000620003ab60c083018962000348565b8281036020840152620003bf818962000348565b6001600160a01b0397881660408501529587166060840152505091909316608082015260a0019190915292915050565b60e0815260006200040460e083018a62000348565b828103602084015262000418818a62000348565b6001600160a01b03988916604085015296909716606083015250608081019390935260a083019190915260c0909101529392505050565b634e487b7160e01b600052604160045260246000fdfe60806040523480156200001157600080fd5b50604051620024f0380380620024f08339810160408190526200003491620003a8565b858585858585858585828281600390805190602001906200005792919062000209565b5080516200006d90600490602084019062000209565b5050600580546001600160a01b0319908116338216176001600160a01b039485161790915560068054909116928816928317905550670de0b6b3a76400006008556040805163313ce56760e01b8152905191935063313ce5679250600480820192602092909190829003018186803b158015620000e957600080fd5b505afa158015620000fe573d6000803e3d6000fd5b505050506040513d601f19601f820116820180604052508101906200012491906200044f565b60ff1660098190556006546001600160a01b03169063095ea7b39086906200015190633b9aca0062000472565b6040516001600160e01b031960e085901b1681526001600160a01b0390921660048301526024820152604401602060405180830381600087803b1580156200019857600080fd5b505af1158015620001ad573d6000803e3d6000fd5b505050506040513d601f19601f82011682018060405250810190620001d391906200037f565b50600780546001600160a01b0319166001600160a01b039390931692909217909155600a5550620004f198505050505050505050565b82805462000217906200049e565b90600052602060002090601f0160209004810192826200023b576000855562000286565b82601f106200025657805160ff191683800117855562000286565b8280016001018555821562000286579182015b828111156200028657825182559160200191906001019062000269565b506200029492915062000298565b5090565b5b8082111562000294576000815560010162000299565b80516001600160a01b0381168114620002c757600080fd5b919050565b600082601f830112620002dd578081fd5b81516001600160401b0380821115620002fa57620002fa620004db565b604051601f8301601f19908116603f01168101908282118183101715620003255762000325620004db565b8160405283815260209250868385880101111562000341578485fd5b8491505b8382101562000364578582018301518183018401529082019062000345565b838211156200037557848385830101525b9695505050505050565b60006020828403121562000391578081fd5b81518015158114620003a1578182fd5b9392505050565b60008060008060008060c08789031215620003c1578182fd5b86516001600160401b0380821115620003d8578384fd5b620003e68a838b01620002cc565b97506020890151915080821115620003fc578384fd5b506200040b89828a01620002cc565b9550506200041c60408801620002af565b93506200042c60608801620002af565b92506200043c60808801620002af565b915060a087015190509295509295509295565b60006020828403121562000461578081fd5b815160ff81168114620003a1578182fd5b60008160001904831182151516156200049957634e487b7160e01b81526011600452602481fd5b500290565b600181811c90821680620004b357607f821691505b60208210811415620004d557634e487b7160e01b600052602260045260246000fd5b50919050565b634e487b7160e01b600052604160045260246000fd5b611fef80620005016000396000f3fe608060405234801561001057600080fd5b50600436106101a95760003560e01c806370a08231116100f9578063a8ec1e9611610097578063c1f1b1b511610071578063c1f1b1b514610395578063dd62ed3e146103a6578063e02f18f6146103b9578063f2fde38b146103cc57600080fd5b8063a8ec1e961461035c578063a9059cbb1461036f578063c024cd261461038257600080fd5b80638b3bcb43116100d35780638b3bcb43146103265780638fbc41ba1461032e57806395d89b4114610341578063a457c2d71461034957600080fd5b806370a08231146102d95780637129778414610302578063893d20e81461031557600080fd5b806323b872dd116101665780633bd849e8116101405780633bd849e81461027b57806342986e131461028e5780635c1548fb146102a1578063682a5a47146102c657600080fd5b806323b872dd14610246578063313ce56714610259578063395093511461026857600080fd5b806306fdde03146101ae5780630902f1ac146101cc578063095ea7b3146101de5780630c3dc919146102015780630fb665571461022957806318160ddd1461023e575b600080fd5b6101b66103df565b6040516101c39190611e7a565b60405180910390f35b600b545b6040519081526020016101c3565b6101f16101ec366004611d64565b610471565b60405190151581526020016101c3565b61021461020f366004611ddf565b610489565b604080519283526020830191909152016101c3565b61023c610237366004611d29565b61074b565b005b6002546101d0565b6101f1610254366004611d29565b610772565b604051601281526020016101c3565b6101f1610276366004611d64565b610798565b610214610289366004611d8d565b6107ba565b61023c61029c366004611d64565b610bc1565b6006546001600160a01b03165b6040516001600160a01b0390911681526020016101c3565b6102146102d4366004611ddf565b610be6565b6101d06102e7366004611cdd565b6001600160a01b031660009081526020819052604090205490565b6101d0610310366004611cdd565b610bfb565b6005546001600160a01b03166102ae565b6101d0610c40565b6101d061033c366004611ddf565b610d8a565b6101b6610e0d565b6101f1610357366004611d64565b610e1c565b61021461036a366004611ddf565b610ea2565b6101f161037d366004611d64565b610ecb565b61023c610390366004611d64565b610ed9565b6007546001600160a01b03166102ae565b6101d06103b4366004611cf7565b610efa565b6102146103c7366004611d8d565b610f25565b6101f16103da366004611cdd565b611222565b6060600380546103ee90611f6e565b80601f016020809104026020016040519081016040528092919081815260200182805461041a90611f6e565b80156104675780601f1061043c57610100808354040283529160200191610467565b820191906000526020600020905b81548152906001019060200180831161044a57829003601f168201915b5050505050905090565b60003361047f818585611274565b5060019392505050565b60008060006104a06007546001600160a01b031690565b6001600160a01b031663072b85286040518163ffffffff1660e01b815260040160206040518083038186803b1580156104d857600080fd5b505afa1580156104ec573d6000803e3d6000fd5b505050506040513d601f19601f820116820180604052508101906105109190611df7565b90506000806105276007546001600160a01b031690565b6001600160a01b0316635e615a6b6040518163ffffffff1660e01b8152600401604080518083038186803b15801561055e57600080fd5b505afa158015610572573d6000803e3d6000fd5b505050506040513d601f19601f820116820180604052508101906105969190611e0f565b9150915060006105c1826008546105ad9190611f2b565b836008546105bb9190611f2b565b90611398565b905060006105cf8486611398565b6105da906002611f0c565b905060006105f56105eb8780611398565b6105bb8780611398565b905060006106038386611398565b90506000610611878c611398565b61061c906002611f0c565b90506000818461062c8589611ed4565b6106369190611ed4565b6106409190611ed4565b9050600061064e8683611f2b565b90506000610668600854836106639190611f0c565b6113ad565b905061068f6040518060400160405280600381526020016272687360e81b81525082611486565b60008960085461069f9190611f2b565b82106106e95760405162461bcd60e51b81526020600482015260146024820152734e6f7420656e6f756768206c697175696469747960601b60448201526064015b60405180910390fd5b5060085489900381900360006106ff828d6114cb565b905061072a60405180604001604052806006815260200165637072696d6560d01b815250828f6114e0565b610734818e611f2b565b819e509e5050505050505050505050505050915091565b6005546001600160a01b0316331461076257600080fd5b61076d838383611527565b505050565b6000336107808582856116f7565b61078b858585611527565b60019150505b9392505050565b60003361047f8185856107ab8383610efa565b6107b59190611ed4565b611274565b60055460009081906001600160a01b031633146107d657600080fd5b6006546040516370a0823160e01b81523060048201526000916001600160a01b0316906370a082319060240160206040518083038186803b15801561081a57600080fd5b505afa15801561082e573d6000803e3d6000fd5b505050506040513d601f19601f820116820180604052508101906108529190611df7565b905061085e868661176b565b60075460405163011a060760e11b8152600481018790526000916001600160a01b0316906302340c0e9060240160206040518083038186803b1580156108a357600080fd5b505afa1580156108b7573d6000803e3d6000fd5b505050506040513d601f19601f820116820180604052508101906108db9190611df7565b90506108e78187611f2b565b93506108f38482611ed4565b600b60008282546109049190611f2b565b909155505060065460075460405163095ea7b360e01b81526001600160a01b0391821660048201526024810184905291169063095ea7b390604401602060405180830381600087803b15801561095957600080fd5b505af115801561096d573d6000803e3d6000fd5b505050506040513d601f19601f820116820180604052508101906109919190611dbf565b50600754604051631f690c5d60e31b815230600482015260248101839052600060448201526001600160a01b039091169063fb4862e890606401602060405180830381600087803b1580156109e557600080fd5b505af11580156109f9573d6000803e3d6000fd5b505050506040513d601f19601f82011682018060405250810190610a1d9190611df7565b9250610a53604051806040016040528060118152602001701b995959195917d8dbdb1b185d195c985b607a1b81525082866114e0565b610a836040518060400160405280600e81526020016d1cda1bdc9d1698d8985b5bdd5b9d60921b81525087611486565b610a93655af3107a400087611ed4565b6006546040516370a0823160e01b81523060048201526001600160a01b03909116906370a082319060240160206040518083038186803b158015610ad657600080fd5b505afa158015610aea573d6000803e3d6000fd5b505050506040513d601f19601f82011682018060405250810190610b0e9190611df7565b610b189084611f2b565b1115610b3457634e487b7160e01b600052600160045260246000fd5b610b44655af3107a400084611ed4565b861115610b6157634e487b7160e01b600052600160045260246000fd5b84841015610ba05760405162461bcd60e51b815260206004820152600c60248201526b29b634b83830b3b29022b93960a11b60448201526064016106e0565b600654610bb7906001600160a01b031688866118b9565b5050935093915050565b6005546001600160a01b03163314610bd857600080fd5b610be2828261176b565b5050565b600080610bf283610489565b91509150915091565b6005546000906001600160a01b03163314610c1557600080fd5b6001600160a01b038216600090815260208190526040902054610c38838261176b565b90505b919050565b600080600760009054906101000a90046001600160a01b03166001600160a01b031663072b85286040518163ffffffff1660e01b815260040160206040518083038186803b158015610c9157600080fd5b505afa158015610ca5573d6000803e3d6000fd5b505050506040513d601f19601f82011682018060405250810190610cc99190611df7565b60075460408051635e615a6b60e01b8152815193945060009384936001600160a01b031692635e615a6b9260048082019391829003018186803b158015610d0f57600080fd5b505afa158015610d23573d6000803e3d6000fd5b505050506040513d601f19601f82011682018060405250810190610d479190611e0f565b9092509050610d568184611398565b610d6e610d638580611398565b6105bb600286611eec565b610d789085611f2b565b610d829190611f2b565b935050505090565b60075460405163011a060760e11b8152600481018390526000916001600160a01b0316906302340c0e9060240160206040518083038186803b158015610dcf57600080fd5b505afa158015610de3573d6000803e3d6000fd5b505050506040513d601f19601f82011682018060405250810190610e079190611df7565b92915050565b6060600480546103ee90611f6e565b60003381610e2a8286610efa565b905083811015610e8a5760405162461bcd60e51b815260206004820152602560248201527f45524332303a2064656372656173656420616c6c6f77616e63652062656c6f77604482015264207a65726f60d81b60648201526084016106e0565b610e978286868403611274565b506001949350505050565b600080600080610eb185610be6565b9092509050610ec085836114cb565b959194509092505050565b60003361047f818585611527565b6005546001600160a01b03163314610ef057600080fd5b610be2828261191c565b6001600160a01b03918216600090815260016020908152604080832093909416825291909152205490565b60055460009081906001600160a01b03163314610f4157600080fd5b6006546040516370a0823160e01b81523060048201526000916001600160a01b0316906370a082319060240160206040518083038186803b158015610f8557600080fd5b505afa158015610f99573d6000803e3d6000fd5b505050506040513d601f19601f82011682018060405250810190610fbd9190611df7565b9050610fc885610be6565b6006549194509250610fe5906001600160a01b03168730886119fb565b600754604051634d71b5a560e01b815230600482015260248101859052600060448201819052916001600160a01b031690634d71b5a590606401602060405180830381600087803b15801561103957600080fd5b505af115801561104d573d6000803e3d6000fd5b505050506040513d601f19601f820116820180604052508101906110719190611df7565b905061107d8187611ed4565b600b600082825461108e9190611ed4565b9091555050604080518082019091526009815268185b5bdd5b9d1bdd5d60ba1b60208201526110be9082886114e0565b6110f2604051806040016040528060118152602001701cdd5c1c1b1e57d8599d195c97dcd95b1b607a1b81525084866114e0565b611102655af3107a400085611f2b565b6006546040516370a0823160e01b815230600482015284916001600160a01b0316906370a082319060240160206040518083038186803b15801561114557600080fd5b505afa158015611159573d6000803e3d6000fd5b505050506040513d601f19601f8201168201806040525081019061117d9190611df7565b6111879190611f2b565b10156111a357634e487b7160e01b600052600160045260246000fd5b6111b3655af3107a400085611f2b565b6111bd8783611ed4565b10156111d957634e487b7160e01b600052600160045260246000fd5b838511156112185760405162461bcd60e51b815260206004820152600c60248201526b29b634b83830b3b29022b93960a11b60448201526064016106e0565b610bb7878561191c565b6005546000906001600160a01b0316331461123c57600080fd5b6001600160a01b03821661124f57600080fd5b50600580546001600160a01b0383166001600160a01b03199091161790556001919050565b6001600160a01b0383166112d65760405162461bcd60e51b8152602060048201526024808201527f45524332303a20617070726f76652066726f6d20746865207a65726f206164646044820152637265737360e01b60648201526084016106e0565b6001600160a01b0382166113375760405162461bcd60e51b815260206004820152602260248201527f45524332303a20617070726f766520746f20746865207a65726f206164647265604482015261737360f01b60648201526084016106e0565b6001600160a01b0383811660008181526001602090815260408083209487168084529482529182902085905590518481527f8c5be1e5ebec7d5bd14f71427d1e84f3dd0314c0f7b2291e5b200ac8c7c3b925910160405180910390a3505050565b60006107918383670de0b6b3a7640000611a33565b600181600160801b81106113c65760409190911b9060801c5b6801000000000000000081106113e15760209190911b9060401c5b64010000000081106113f85760109190911b9060201c5b62010000811061140d5760089190911b9060101c5b61010081106114215760049190911b9060081c5b601081106114345760029190911b9060041c5b60088110611443578160011b91505b5080820401600190811c80830401811c80830401811c80830401811c80830401811c80830401811c80830401901c80820481811015611480578091505b50919050565b610be2828260405160240161149c929190611e8d565b60408051601f198184030181529190526020810180516001600160e01b03166309710a9d60e41b179052611a52565b600061079183670de0b6b3a764000084611a33565b61076d8383836040516024016114f893929190611eaf565b60408051601f198184030181529190526020810180516001600160e01b031663969cdd0360e01b179052611a52565b6001600160a01b03831661158b5760405162461bcd60e51b815260206004820152602560248201527f45524332303a207472616e736665722066726f6d20746865207a65726f206164604482015264647265737360d81b60648201526084016106e0565b6001600160a01b0382166115ed5760405162461bcd60e51b815260206004820152602360248201527f45524332303a207472616e7366657220746f20746865207a65726f206164647260448201526265737360e81b60648201526084016106e0565b6001600160a01b038316600090815260208190526040902054818110156116655760405162461bcd60e51b815260206004820152602660248201527f45524332303a207472616e7366657220616d6f756e7420657863656564732062604482015265616c616e636560d01b60648201526084016106e0565b6001600160a01b0380851660009081526020819052604080822085850390559185168152908120805484929061169c908490611ed4565b92505081905550826001600160a01b0316846001600160a01b03167fddf252ad1be2c89b69c2b068fc378daa952ba7f163c4a11628f55a4df523b3ef846040516116e891815260200190565b60405180910390a35b50505050565b60006117038484610efa565b905060001981146116f1578181101561175e5760405162461bcd60e51b815260206004820152601d60248201527f45524332303a20696e73756666696369656e7420616c6c6f77616e636500000060448201526064016106e0565b6116f18484848403611274565b6001600160a01b0382166117cb5760405162461bcd60e51b815260206004820152602160248201527f45524332303a206275726e2066726f6d20746865207a65726f206164647265736044820152607360f81b60648201526084016106e0565b6001600160a01b0382166000908152602081905260409020548181101561183f5760405162461bcd60e51b815260206004820152602260248201527f45524332303a206275726e20616d6f756e7420657863656564732062616c616e604482015261636560f01b60648201526084016106e0565b6001600160a01b038316600090815260208190526040812083830390556002805484929061186e908490611f2b565b90915550506040518281526000906001600160a01b038516907fddf252ad1be2c89b69c2b068fc378daa952ba7f163c4a11628f55a4df523b3ef9060200160405180910390a3505050565b6040516001600160a01b03831660248201526044810182905261076d90849063a9059cbb60e01b906064015b60408051601f198184030181529190526020810180516001600160e01b03166001600160e01b031990931692909217909152611a73565b6001600160a01b0382166119725760405162461bcd60e51b815260206004820152601f60248201527f45524332303a206d696e7420746f20746865207a65726f20616464726573730060448201526064016106e0565b80600260008282546119849190611ed4565b90915550506001600160a01b038216600090815260208190526040812080548392906119b1908490611ed4565b90915550506040518181526001600160a01b038316906000907fddf252ad1be2c89b69c2b068fc378daa952ba7f163c4a11628f55a4df523b3ef9060200160405180910390a35050565b6040516001600160a01b03808516602483015283166044820152606481018290526116f19085906323b872dd60e01b906084016118e5565b828202811515841585830485141716611a4b57600080fd5b0492915050565b80516a636f6e736f6c652e6c6f67602083016000808483855afa5050505050565b6000611ac8826040518060400160405280602081526020017f5361666545524332303a206c6f772d6c6576656c2063616c6c206661696c6564815250856001600160a01b0316611b459092919063ffffffff16565b80519091501561076d5780806020019051810190611ae69190611dbf565b61076d5760405162461bcd60e51b815260206004820152602a60248201527f5361666545524332303a204552433230206f7065726174696f6e20646964206e6044820152691bdd081cdd58d8d9595960b21b60648201526084016106e0565b6060611b548484600085611b5c565b949350505050565b606082471015611bbd5760405162461bcd60e51b815260206004820152602660248201527f416464726573733a20696e73756666696369656e742062616c616e636520666f6044820152651c8818d85b1b60d21b60648201526084016106e0565b6001600160a01b0385163b611c145760405162461bcd60e51b815260206004820152601d60248201527f416464726573733a2063616c6c20746f206e6f6e2d636f6e747261637400000060448201526064016106e0565b600080866001600160a01b03168587604051611c309190611e5e565b60006040518083038185875af1925050503d8060008114611c6d576040519150601f19603f3d011682016040523d82523d6000602084013e611c72565b606091505b5091509150611c82828286611c8d565b979650505050505050565b60608315611c9c575081610791565b825115611cac5782518084602001fd5b8160405162461bcd60e51b81526004016106e09190611e7a565b80356001600160a01b0381168114610c3b57600080fd5b600060208284031215611cee578081fd5b61079182611cc6565b60008060408385031215611d09578081fd5b611d1283611cc6565b9150611d2060208401611cc6565b90509250929050565b600080600060608486031215611d3d578081fd5b611d4684611cc6565b9250611d5460208501611cc6565b9150604084013590509250925092565b60008060408385031215611d76578182fd5b611d7f83611cc6565b946020939093013593505050565b600080600060608486031215611da1578283fd5b611daa84611cc6565b95602085013595506040909401359392505050565b600060208284031215611dd0578081fd5b81518015158114610791578182fd5b600060208284031215611df0578081fd5b5035919050565b600060208284031215611e08578081fd5b5051919050565b60008060408385031215611e21578182fd5b505080516020909101519092909150565b60008151808452611e4a816020860160208601611f42565b601f01601f19169290920160200192915050565b60008251611e70818460208701611f42565b9190910192915050565b6020815260006107916020830184611e32565b604081526000611ea06040830185611e32565b90508260208301529392505050565b606081526000611ec26060830186611e32565b60208301949094525060400152919050565b60008219821115611ee757611ee7611fa3565b500190565b600082611f0757634e487b7160e01b81526012600452602481fd5b500490565b6000816000190483118215151615611f2657611f26611fa3565b500290565b600082821015611f3d57611f3d611fa3565b500390565b60005b83811015611f5d578181015183820152602001611f45565b838111156116f15750506000910152565b600181811c90821680611f8257607f821691505b6020821081141561148057634e487b7160e01b600052602260045260246000fd5b634e487b7160e01b600052601160045260246000fdfea26469706673582212204bd21e1018f2c7d8ba171747b907ddcbc5d7ef65f6e9406deabd977dc145747a64736f6c6343000804003360806040523480156200001157600080fd5b5060405162002f6b38038062002f6b833981016040819052620000349162000758565b868686868383838282816003908051906020019062000055929190620005e2565b5080516200006b906004906020840190620005e2565b5050600580546001600160a01b0319908116338216176001600160a01b0394851617909155600d8054909116928616928317905550670de0b6b3a7640000600a556040805163313ce56760e01b8152905191935063313ce5679250600480820192602092909190829003018186803b158015620000e757600080fd5b505afa158015620000fc573d6000803e3d6000fd5b505050506040513d601f19601f8201168201806040525081019062000122919062000801565b60ff16600b8190555050505050826200014681620001ae60201b620012251760201c565b620001925760405162461bcd60e51b8152602060048201526022602482015260008051602062002f4b8339815191526044820152611b9d60f21b60648201526084015b60405180910390fd5b6200019f848484620001cf565b50505050505050505062000a0e565b6000620001c6612710670de0b6b3a764000062000846565b90911015919050565b600083620001e881620001ae60201b620012251760201c565b620002305760405162461bcd60e51b8152602060048201526022602482015260008051602062002f4b8339815191526044820152611b9d60f21b606482015260840162000189565b600a54620002646200024386886200082b565b620002508860026200096f565b6200031a60201b620012441790919060201c565b62000270919062000991565b601155620002956200028385876200082b565b601154600a5462000250919062000991565b601055620002ba620002b486856200033a602090811b6200125917901c565b62000351565b601281905550601154620002e16012546010546200033a60201b620012591790919060201c565b620002ed91906200082b565b601155600a54620003036200024386886200082b565b6200030f919062000991565b601355509392505050565b60006200033183670de0b6b3a764000084620004c4565b90505b92915050565b6000620003318383670de0b6b3a7640000620004c4565b6000816200036a81620001ae60201b620012251760201c565b620003b25760405162461bcd60e51b8152602060048201526022602482015260008051602062002f4b8339815191526044820152611b9d60f21b606482015260840162000189565b6000620003be620004e4565b90506000600a546002601154620003e6856010546200033a60201b620012591790919060201c565b620003f291906200082b565b620003fe9190620008b0565b6200040a919062000846565b905060006200042a866010546200033a60201b620012591790919060201c565b620004379060026200096f565b905060006200046d600a5483856200045091906200082b565b6200045c91906200096f565b6200050560201b6200126e1760201c565b9050600060115462000490866010546200033a60201b620012591790919060201c565b6200049c91906200082b565b90506000620004b5601054838562000250919062000991565b97505050505050505b50919050565b828202811515841585830485141716620004dd57600080fd5b0492915050565b600e54600090620004f460025490565b62000500919062000991565b905090565b600181600160801b81106200051f5760409190911b9060801c5b6801000000000000000081106200053b5760209190911b9060401c5b6401000000008110620005535760109190911b9060201c5b620100008110620005695760089190911b9060101c5b61010081106200057e5760049190911b9060081c5b60108110620005925760029190911b9060041c5b60088110620005a2578160011b91505b5080820401600190811c80830401811c80830401811c80830401811c80830401811c80830401811c80830401901c80820481811015620004be5792915050565b828054620005f090620009ab565b90600052602060002090601f0160209004810192826200061457600085556200065f565b82601f106200062f57805160ff19168380011785556200065f565b828001600101855582156200065f579182015b828111156200065f57825182559160200191906001019062000642565b506200066d92915062000671565b5090565b5b808211156200066d576000815560010162000672565b80516001600160a01b0381168114620006a057600080fd5b919050565b600082601f830112620006b6578081fd5b81516001600160401b0380821115620006d357620006d3620009f8565b604051601f8301601f19908116603f01168101908282118183101715620006fe57620006fe620009f8565b816040528381526020925086838588010111156200071a578485fd5b8491505b838210156200073d57858201830151818301840152908201906200071e565b838211156200074e57848385830101525b9695505050505050565b600080600080600080600060e0888a03121562000773578283fd5b87516001600160401b03808211156200078a578485fd5b620007988b838c01620006a5565b985060208a0151915080821115620007ae578485fd5b50620007bd8a828b01620006a5565b965050620007ce6040890162000688565b9450620007de6060890162000688565b93506080880151925060a0880151915060c0880151905092959891949750929550565b60006020828403121562000813578081fd5b815160ff8116811462000824578182fd5b9392505050565b60008219821115620008415762000841620009e2565b500190565b6000826200086257634e487b7160e01b81526012600452602481fd5b500490565b600181815b80851115620008a85781600019048211156200088c576200088c620009e2565b808516156200089a57918102915b93841c93908002906200086c565b509250929050565b60006200033160ff841683600082620008cc5750600162000334565b81620008db5750600062000334565b8160018114620008f45760028114620008ff576200091f565b600191505062000334565b60ff841115620009135762000913620009e2565b50506001821b62000334565b5060208310610133831016604e8410600b841016171562000944575081810a62000334565b62000950838362000867565b8060001904821115620009675762000967620009e2565b029392505050565b60008160001904831182151516156200098c576200098c620009e2565b500290565b600082821015620009a657620009a6620009e2565b500390565b600181811c90821680620009c057607f821691505b60208210811415620004be57634e487b7160e01b600052602260045260246000fd5b634e487b7160e01b600052601160045260246000fd5b634e487b7160e01b600052604160045260246000fd5b61252d8062000a1e6000396000f3fe608060405234801561001057600080fd5b50600436106103785760003560e01c80635e615a6b116101d3578063a9059cbb11610104578063e3fa569f116100a2578063f2fde38b1161007c578063f2fde38b14610728578063f4eec7c91461073b578063f6bb8ba01461074e578063fb4862e81461075657600080fd5b8063e3fa569f146106fa578063e4849b3214610702578063eebfe1cb1461071557600080fd5b8063d69d239e116100de578063d69d239e146106b9578063d6eb5910146106cc578063d96a094a146106d4578063dd62ed3e146106e757600080fd5b8063a9059cbb14610680578063c024cd2614610693578063c20fa6a5146106a657600080fd5b8063893d20e81161017157806396b4ebe31161014b57806396b4ebe31461063f5780639a850274146106525780639cba2fee1461065a578063a457c2d71461066d57600080fd5b8063893d20e8146106135780638e2091df1461062457806395d89b411461063757600080fd5b80636c438fe3116101ad5780636c438fe3146105bc57806370a08231146105c457806371297784146105ed578063874bc6a11461060057600080fd5b80635e615a6b1461058e578063681504cd1461059657806369fcd4ac146105a957600080fd5b806327457e90116102ad57806342986e131161024b5780634737c418116102255780634737c418146105305780634a65a575146105435780634d71b5a5146105565780635c1548fb1461056957600080fd5b806342986e1314610501578063431a8b471461051457806344ba791e1461052757600080fd5b8063313ce56711610287578063313ce567146104b9578063322d2100146104c857806339509351146104db57806340154740146104ee57600080fd5b806327457e90146104805780632b83cccd146104935780632e740446146104a657600080fd5b806309635da41161031a57806318160ddd116102f457806318160ddd146104555780631de0f0951461045d57806322c180b51461046557806323b872dd1461046d57600080fd5b806309635da4146104135780630fb665571461042f5780631642a2991461044257600080fd5b8063072b852811610356578063072b8528146103cd5780630902f1ac146103d55780630910fbe6146103dd578063095ea7b3146103f057600080fd5b806301ddc7ba1461037d57806302340c0e1461039257806306fdde03146103b8575b600080fd5b61039061038b3660046120d6565b610769565b005b6103a56103a03660046121d4565b6107a2565b6040519081526020015b60405180910390f35b6103c06107b3565b6040516103af919061229c565b6103a5610845565b6008546103a5565b6103906103eb36600461215d565b610862565b6104036103fe36600461215d565b6108cf565b60405190151581526020016103af565b6010546011545b604080519283526020830191909152016103af565b61039061043d366004612122565b6108e7565b6103906104503660046121d4565b61090e565b6002546103a5565b6007546103a5565b6006546103a5565b61040361047b366004612122565b61095c565b61039061048e3660046121d4565b610982565b6103906104a1366004612186565b61099e565b6103906104b43660046121d4565b6109e8565b604051601281526020016103af565b6103a56104d63660046121d4565b6109ff565b6104036104e936600461215d565b610a0a565b6103a56104fc366004612233565b610a2c565b61039061050f36600461215d565b610a91565b6103a5610522366004612204565b610ab6565b6103a5600b5481565b61039061053e3660046121d4565b610ac2565b6103906105513660046121d4565b610aeb565b6103a5610564366004612186565b610b07565b600d546001600160a01b03165b6040516001600160a01b0390911681526020016103af565b61041a610c07565b6103906105a436600461215d565b610c1f565b6103a56105b73660046121d4565b610c58565b6103a5610c63565b6103a56105d23660046120d6565b6001600160a01b031660009081526020819052604090205490565b6103a56105fb3660046120d6565b610c6e565b6103a561060e3660046121d4565b610cb3565b6005546001600160a01b0316610576565b61039061063236600461215d565b610cbe565b6103c0610cf7565b6103a561064d3660046121d4565b610d06565b6103a5610d28565b6103a5610668366004612233565b610d33565b61040361067b36600461215d565b610d3f565b61040361068e36600461215d565b610dc5565b6103906106a136600461215d565b610dd3565b6103906106b436600461215d565b610df4565b6103a56106c73660046121d4565b610e91565b6103a5610e9c565b6103906106e23660046121d4565b610f18565b6103a56106f53660046120f0565b610f5f565b6009546103a5565b6103906107103660046121d4565b610f8a565b6103906107233660046121d4565b610fd3565b6104036107363660046120d6565b610ffc565b6103906107493660046121d4565b61104e565b600c546103a5565b6103a5610764366004612186565b61106a565b6005546001600160a01b0316331461078057600080fd5b600f80546001600160a01b0319166001600160a01b0392909216919091179055565b60006107ad82611347565b92915050565b6060600380546107c29061249b565b80601f01602080910402602001604051908101604052809291908181526020018280546107ee9061249b565b801561083b5780601f106108105761010080835404028352916020019161083b565b820191906000526020600020905b81548152906001019060200180831161081e57829003601f168201915b5050505050905090565b6000600e5461085360025490565b61085d9190612458565b905090565b6005546001600160a01b0316331461087957600080fd5b6001600160a01b03821660009081526020819052604090205461089c83826113de565b600d546108b3906001600160a01b03168484611538565b81600860008282546108c59190612458565b9091555050505050565b6000336108dd81858561159b565b5060019392505050565b6005546001600160a01b031633146108fe57600080fd5b6109098383836116bf565b505050565b6005546001600160a01b0316331461092557600080fd5b600554600d54610942916001600160a01b03918216911683611538565b80600860008282546109549190612458565b909155505050565b60003361096a85828561189a565b6109758585856116bf565b60019150505b9392505050565b6005546001600160a01b0316331461099957600080fd5b600755565b6005546001600160a01b031633146109b557600080fd5b6109bf83836113de565b600d546109d6906001600160a01b03168483611538565b80600860008282546108c59190612458565b6005546001600160a01b0316331461094257600080fd5b60006107ad8261190e565b6000336108dd818585610a1d8383610f5f565b610a279190612313565b61159b565b600080610a38846109ff565b90506000610a4582610d06565b90506000610a6182600a54610a5a9190612458565b8390611259565b90506000610a6f8487611244565b905082610a7c8284611259565b610a869190612313565b979650505050505050565b6005546001600160a01b03163314610aa857600080fd5b610ab282826113de565b5050565b600061097b8383611a17565b6005546001600160a01b03163314610ad957600080fd5b80600c60008282546109549190612313565b6005546001600160a01b03163314610b0257600080fd5b600955565b6005546000906001600160a01b0316331480610b2d5750600f546001600160a01b031633145b610b3657600080fd5b610b3f83610c58565b905060075481600854610b529190612458565b1015610b9e5760405162461bcd60e51b81526020600482015260166024820152756578636565647320747261646520626f756e6461727960501b60448201526064015b60405180910390fd5b81811015610bdd5760405162461bcd60e51b815260206004820152600c60248201526b29b634b83830b3b29022b93960a11b6044820152606401610b95565b600880548290039055610bf084846113de565b600d5461097b906001600160a01b03168583611538565b600080610c176010546011549091565b915091509091565b6005546001600160a01b03163314610c3657600080fd5b80600e6000828254610c489190612313565b90915550610ab290508282611a61565b60006107ad82611b4c565b600061085d60125490565b6005546000906001600160a01b03163314610c8857600080fd5b6001600160a01b038216600090815260208190526040902054610cab83826113de565b90505b919050565b60006107ad82611bf3565b6005546001600160a01b03163314610cd557600080fd5b80600e6000828254610ce79190612458565b90915550610ab2905082826113de565b6060600480546107c29061249b565b600080610d12836107a2565b90506000610d208285611244565b949350505050565b600061085d60025490565b600061097b8383611c1f565b60003381610d4d8286610f5f565b905083811015610dad5760405162461bcd60e51b815260206004820152602560248201527f45524332303a2064656372656173656420616c6c6f77616e63652062656c6f77604482015264207a65726f60d81b6064820152608401610b95565b610dba828686840361159b565b506001949350505050565b6000336108dd8185856116bf565b6005546001600160a01b03163314610dea57600080fd5b610ab28282611a61565b6005546001600160a01b03163314610e0b57600080fd5b600d5460405163095ea7b360e01b81526001600160a01b038481166004830152602482018490529091169063095ea7b390604401602060405180830381600087803b158015610e5957600080fd5b505af1158015610e6d573d6000803e3d6000fd5b505050506040513d601f19601f8201168201806040525081019061090991906121b8565b60006107ad82611d0d565b600d546040516370a0823160e01b81523060048201526000916001600160a01b0316906370a082319060240160206040518083038186803b158015610ee057600080fd5b505afa158015610ef4573d6000803e3d6000fd5b505050506040513d601f19601f8201168201806040525081019061085d91906121ec565b6000610f238261190e565b90508160086000828254610f379190612313565b90915550610f4790503382611a61565b600d54610ab2906001600160a01b0316333085611d51565b6001600160a01b03918216600090815260016020908152604080832093909416825291909152205490565b6000610f9582611b4c565b9050610fa133836113de565b600d54610fb8906001600160a01b03163383611538565b8060086000828254610fca9190612458565b90915550505050565b6005546001600160a01b03163314610fea57600080fd5b80600860008282546109549190612313565b6005546000906001600160a01b0316331461101657600080fd5b6001600160a01b03821661102957600080fd5b50600580546001600160a01b0383166001600160a01b03199091161790556001919050565b6005546001600160a01b0316331461106557600080fd5b600655565b6005546000906001600160a01b03163314806110905750600f546001600160a01b031633145b61109957600080fd5b600d546040516370a0823160e01b81526001600160a01b038681166004830152859216906370a082319060240160206040518083038186803b1580156110de57600080fd5b505afa1580156110f2573d6000803e3d6000fd5b505050506040513d601f19601f8201168201806040525081019061111691906121ec565b10156111595760405162461bcd60e51b81526020600482015260126024820152716e6f7420656e6f7567682062616c616e636560701b6044820152606401610b95565b6006548360085461116a9190612313565b11156111b15760405162461bcd60e51b81526020600482015260166024820152756578636565647320747261646520626f756e6461727960501b6044820152606401610b95565b6111ba836109ff565b9050818110156111fb5760405162461bcd60e51b815260206004820152600c60248201526b29b634b83830b3b29032b93960a11b6044820152606401610b95565b6008805484019055600d5461121b906001600160a01b0316853086611d51565b61097b8482611a61565b600061123b612710670de0b6b3a764000061232b565b90911015919050565b600061097b83670de0b6b3a764000084611d89565b600061097b8383670de0b6b3a7640000611d89565b600181600160801b81106112875760409190911b9060801c5b6801000000000000000081106112a25760209190911b9060401c5b64010000000081106112b95760109190911b9060201c5b6201000081106112ce5760089190911b9060101c5b61010081106112e25760049190911b9060081c5b601081106112f55760029190911b9060041c5b60088110611304578160011b91505b5080820401600190811c80830401811c80830401811c80830401811c80830401811c80830401811c80830401901c80820481811015611341578091505b50919050565b60008161135381611225565b61136f5760405162461bcd60e51b8152600401610b95906122d1565b6000611379610845565b905060006113928560115461125990919063ffffffff16565b6113cb866113a1856002612439565b6113ab9190612313565b6010546002906113bb908a611259565b6113c5919061232b565b90611259565b6113d59190612313565b95945050505050565b6001600160a01b03821661143e5760405162461bcd60e51b815260206004820152602160248201527f45524332303a206275726e2066726f6d20746865207a65726f206164647265736044820152607360f81b6064820152608401610b95565b61144a82600083611da8565b6001600160a01b038216600090815260208190526040902054818110156114be5760405162461bcd60e51b815260206004820152602260248201527f45524332303a206275726e20616d6f756e7420657863656564732062616c616e604482015261636560f01b6064820152608401610b95565b6001600160a01b03831660009081526020819052604081208383039055600280548492906114ed908490612458565b90915550506040518281526000906001600160a01b038516907fddf252ad1be2c89b69c2b068fc378daa952ba7f163c4a11628f55a4df523b3ef9060200160405180910390a3505050565b6040516001600160a01b03831660248201526044810182905261090990849063a9059cbb60e01b906064015b60408051601f198184030181529190526020810180516001600160e01b03166001600160e01b031990931692909217909152611e1e565b6001600160a01b0383166115fd5760405162461bcd60e51b8152602060048201526024808201527f45524332303a20617070726f76652066726f6d20746865207a65726f206164646044820152637265737360e01b6064820152608401610b95565b6001600160a01b03821661165e5760405162461bcd60e51b815260206004820152602260248201527f45524332303a20617070726f766520746f20746865207a65726f206164647265604482015261737360f01b6064820152608401610b95565b6001600160a01b0383811660008181526001602090815260408083209487168084529482529182902085905590518481527f8c5be1e5ebec7d5bd14f71427d1e84f3dd0314c0f7b2291e5b200ac8c7c3b925910160405180910390a3505050565b6001600160a01b0383166117235760405162461bcd60e51b815260206004820152602560248201527f45524332303a207472616e736665722066726f6d20746865207a65726f206164604482015264647265737360d81b6064820152608401610b95565b6001600160a01b0382166117855760405162461bcd60e51b815260206004820152602360248201527f45524332303a207472616e7366657220746f20746865207a65726f206164647260448201526265737360e81b6064820152608401610b95565b611790838383611da8565b6001600160a01b038316600090815260208190526040902054818110156118085760405162461bcd60e51b815260206004820152602660248201527f45524332303a207472616e7366657220616d6f756e7420657863656564732062604482015265616c616e636560d01b6064820152608401610b95565b6001600160a01b0380851660009081526020819052604080822085850390559185168152908120805484929061183f908490612313565b92505081905550826001600160a01b0316846001600160a01b03167fddf252ad1be2c89b69c2b068fc378daa952ba7f163c4a11628f55a4df523b3ef8460405161188b91815260200190565b60405180910390a35b50505050565b60006118a68484610f5f565b9050600019811461189457818110156119015760405162461bcd60e51b815260206004820152601d60248201527f45524332303a20696e73756666696369656e7420616c6c6f77616e63650000006044820152606401610b95565b611894848484840361159b565b60008161191a81611225565b6119365760405162461bcd60e51b8152600401610b95906122d1565b6000611940610845565b90506000600a5460026011546119618560105461125990919063ffffffff16565b61196b9190612313565b611975919061238e565b61197f919061232b565b905060006119988660105461125990919063ffffffff16565b6119a3906002612439565b905060006119c8600a5483856119b99190612313565b6119c39190612439565b61126e565b905060006011546119e48660105461125990919063ffffffff16565b6119ee9190612313565b90506000611a0a6010548385611a049190612458565b90611244565b9998505050505050505050565b60008115611a4957600a546002611a2e8286612458565b611a38919061238e565b611a42919061232b565b90506107ad565b600a54611a5760028561238e565b61097b919061232b565b6001600160a01b038216611ab75760405162461bcd60e51b815260206004820152601f60248201527f45524332303a206d696e7420746f20746865207a65726f2061646472657373006044820152606401610b95565b611ac360008383611da8565b8060026000828254611ad59190612313565b90915550506001600160a01b03821660009081526020819052604081208054839290611b02908490612313565b90915550506040518181526001600160a01b038316906000907fddf252ad1be2c89b69c2b068fc378daa952ba7f163c4a11628f55a4df523b3ef9060200160405180910390a35050565b600081611b5881611225565b611b745760405162461bcd60e51b8152600401610b95906122d1565b6000611b7e610845565b90506000611b978260105461125990919063ffffffff16565b905060006002611bb28760105461125990919063ffffffff16565b611bbc919061232b565b905060008183601154611bcf9190612313565b611bd99190612458565b90506000611be78883611259565b98975050505050505050565b600080611bfe610845565b9050601154611c1560105485846113c59190612313565b61097b9190612313565b600082611c2b81611225565b611c475760405162461bcd60e51b8152600401610b95906122d1565b60008390506000600a546002601354611c6b8560105461125990919063ffffffff16565b611c759190612313565b611c7f919061238e565b611c89919061232b565b90506000611ca28760105461125990919063ffffffff16565b611cad906002612439565b90506000611cc3600a5483856119b99190612313565b90506000601354611cdf8660105461125990919063ffffffff16565b611ce99190612313565b90506000611cff6010548385611a049190612458565b9a9950505050505050505050565b600081611d1981611225565b611d355760405162461bcd60e51b8152600401610b95906122d1565b601154611c1560105485611d47610845565b6113c59190612458565b6040516001600160a01b03808516602483015283166044820152606481018290526118949085906323b872dd60e01b90608401611564565b828202811515841585830485141716611da157600080fd5b0492915050565b6001600160a01b038316158015611dc157506000600654115b15611e07576109096040518060400160405280601b81526020017f6265666f726554543a2070726963655f75707065725f626f756e640000000000815250600654611ef0565b6001600160a01b0382161580156118945750505050565b6000611e73826040518060400160405280602081526020017f5361666545524332303a206c6f772d6c6576656c2063616c6c206661696c6564815250856001600160a01b0316611f359092919063ffffffff16565b8051909150156109095780806020019051810190611e9191906121b8565b6109095760405162461bcd60e51b815260206004820152602a60248201527f5361666545524332303a204552433230206f7065726174696f6e20646964206e6044820152691bdd081cdd58d8d9595960b21b6064820152608401610b95565b610ab28282604051602401611f069291906122af565b60408051601f198184030181529190526020810180516001600160e01b03166309710a9d60e41b179052611f44565b6060610d208484600085611f65565b80516a636f6e736f6c652e6c6f67602083016000808483855afa5050505050565b606082471015611fc65760405162461bcd60e51b815260206004820152602660248201527f416464726573733a20696e73756666696369656e742062616c616e636520666f6044820152651c8818d85b1b60d21b6064820152608401610b95565b6001600160a01b0385163b61201d5760405162461bcd60e51b815260206004820152601d60248201527f416464726573733a2063616c6c20746f206e6f6e2d636f6e74726163740000006044820152606401610b95565b600080866001600160a01b031685876040516120399190612280565b60006040518083038185875af1925050503d8060008114612076576040519150601f19603f3d011682016040523d82523d6000602084013e61207b565b606091505b5091509150610a868282866060831561209557508161097b565b8251156120a55782518084602001fd5b8160405162461bcd60e51b8152600401610b95919061229c565b80356001600160a01b0381168114610cae57600080fd5b6000602082840312156120e7578081fd5b61097b826120bf565b60008060408385031215612102578081fd5b61210b836120bf565b9150612119602084016120bf565b90509250929050565b600080600060608486031215612136578081fd5b61213f846120bf565b925061214d602085016120bf565b9150604084013590509250925092565b6000806040838503121561216f578182fd5b612178836120bf565b946020939093013593505050565b60008060006060848603121561219a578283fd5b6121a3846120bf565b95602085013595506040909401359392505050565b6000602082840312156121c9578081fd5b815161097b816124e6565b6000602082840312156121e5578081fd5b5035919050565b6000602082840312156121fd578081fd5b5051919050565b60008060408385031215612216578182fd5b823591506020830135612228816124e6565b809150509250929050565b60008060408385031215612245578182fd5b50508035926020909101359150565b6000815180845261226c81602086016020860161246f565b601f01601f19169290920160200192915050565b6000825161229281846020870161246f565b9190910192915050565b60208152600061097b6020830184612254565b6040815260006122c26040830185612254565b90508260208301529392505050565b60208082526022908201527f4e6f7420696e20776164206f722062656c6f77206d696e696d756d20616d6f756040820152611b9d60f21b606082015260800190565b60008219821115612326576123266124d0565b500190565b60008261234657634e487b7160e01b81526012600452602481fd5b500490565b600181815b8085111561238657816000190482111561236c5761236c6124d0565b8085161561237957918102915b93841c9390800290612350565b509250929050565b600061097b60ff8416836000826123a7575060016107ad565b816123b4575060006107ad565b81600181146123ca57600281146123d4576123f0565b60019150506107ad565b60ff8411156123e5576123e56124d0565b50506001821b6107ad565b5060208310610133831016604e8410600b8410161715612413575081810a6107ad565b61241d838361234b565b8060001904821115612431576124316124d0565b029392505050565b6000816000190483118215151615612453576124536124d0565b500290565b60008282101561246a5761246a6124d0565b500390565b60005b8381101561248a578181015183820152602001612472565b838111156118945750506000910152565b600181811c908216806124af57607f821691505b6020821081141561134157634e487b7160e01b600052602260045260246000fd5b634e487b7160e01b600052601160045260246000fd5b80151581146124f457600080fd5b5056fea2646970667358221220a52a281cf2ae524c7012d587c6a7d2eec06208c95916220f325e0fb0684b446864736f6c634300080400334e6f7420696e20776164206f722062656c6f77206d696e696d756d20616d6f75a26469706673582212200004bac6e2199a22e40543e4d6fdee18e7b0e12c6582b231a5b6c6ba69829b2b64736f6c63430008040033",
  "devdoc": {
    "kind": "dev",
    "methods": {
      "checkInstrument(uint256)": {
        "params": {
          "marketId": ": called for anyone."
        }
      },
      "createVault(address,bool,uint256,uint256,uint256,(uint32,uint256,uint256,uint256,uint256,uint256,uint256))": {
        "params": {
          "_asset_limit": ": max number of shares for a single address",
          "_onlyVerified": ": only verified users can mint shares",
          "_r": ": minimum reputation score to mint shares",
          "_total_asset_limit": ": max number of shares for entire vault",
          "default_params": ": default params for markets created by vault",
          "underlying": ": underlying asset for vault"
        }
      },
      "forceCloseInstrument(uint256,bool)": {
        "details": "withdraws all balance from the instrument.  If assets in instrument is not in underlying, need all balances to be divested to underlying  Ideally this should be called by several validators, maybe implement a voting scheme and have a keeper call it.",
        "params": {
          "emergency": "ascribes cases where the instrument should be forcefully liquidated back to the vault"
        }
      },
      "initiateMarket(address,(bool,uint256,uint256,uint256,uint256,uint256,uint256,string,address,uint8,uint256),uint256)": {
        "details": "Instrument should already be deployed ",
        "params": {
          "instrumentData": ": instrument arguments",
          "recipient": ": utilizer for the associated instrument",
          "vaultId": ": vault identifier"
        }
      }
    },
    "version": 1
  },
  "userdoc": {
    "kind": "user",
    "methods": {
      "approveMarket(uint256)": {
        "notice": "called by the validator when market conditions are met need to move the collateral in the wCollateral to "
      },
      "beforeResolve(uint256)": {
        "notice": "Resolve function 1Prepare market/instrument for closing, called separately before resolveMarket exists to circumvent manipulations   "
      },
      "checkInstrument(uint256)": {
        "notice": "checks for maturity, resolve at maturity"
      },
      "createVault(address,bool,uint256,uint256,uint256,(uint32,uint256,uint256,uint256,uint256,uint256,uint256))": {
        "notice": "creates vault"
      },
      "forceCloseInstrument(uint256,bool)": {
        "notice": "function that closes the instrument/market before maturity, maybe to realize gains/cut losses fast or debt is prematurely fully repaid, or underlying strategy is deemed dangerous, etc.  "
      },
      "initiateMarket(address,(bool,uint256,uint256,uint256,uint256,uint256,uint256,string,address,uint8,uint256),uint256)": {
        "notice": "initiates market, called by frontend loan proposal or instrument form submit button."
      },
      "redeem_mint(uint256,address,uint256)": {
        "notice": "deprecatedcalled when market is resolved "
      },
      "redeem_transfer(uint256,address,uint256)": {
        "notice": "called only when redeeming, transfer funds from vault "
      },
      "resolveMarket(uint256)": {
        "notice": "Resolve function 2main function called at maturity OR premature resolve of instrument(from early default) When market finishes at maturity, need to  1. burn all vault tokens in bc  2. mint all incoming redeeming vault tokens  Validators can call this function as they are incentivized to redeem any funds left for the instrument , irrespective of whether it is in profit or inloss. "
      },
      "updateReputation(uint256,address,bool)": {
        "notice": "when market is resolved(maturity/early default), calculates score and update each assessment phase trader's reputation, called by individual traders when redeeming "
      }
    },
    "version": 1
  },
  "storageLayout": {
    "storage": [
      {
        "astId": 6499,
        "contract": "contracts/protocol/controller.sol:Controller",
        "label": "approvalDatas",
        "offset": 0,
        "slot": "0",
        "type": "t_mapping(t_uint256,t_struct(ApprovalData)6488_storage)"
      },
      {
        "astId": 6516,
        "contract": "contracts/protocol/controller.sol:Controller",
        "label": "verified",
        "offset": 0,
        "slot": "1",
        "type": "t_mapping(t_address,t_bool)"
      },
      {
        "astId": 6521,
        "contract": "contracts/protocol/controller.sol:Controller",
        "label": "market_data",
        "offset": 0,
        "slot": "2",
        "type": "t_mapping(t_uint256,t_struct(MarketData)6483_storage)"
      },
      {
        "astId": 6525,
        "contract": "contracts/protocol/controller.sol:Controller",
        "label": "ad_to_id",
        "offset": 0,
        "slot": "3",
        "type": "t_mapping(t_address,t_uint256)"
      },
      {
        "astId": 6530,
        "contract": "contracts/protocol/controller.sol:Controller",
        "label": "vaults",
        "offset": 0,
        "slot": "4",
        "type": "t_mapping(t_uint256,t_contract(Vault)18797)"
      },
      {
        "astId": 6534,
        "contract": "contracts/protocol/controller.sol:Controller",
        "label": "id_parent",
        "offset": 0,
        "slot": "5",
        "type": "t_mapping(t_uint256,t_uint256)"
      },
      {
        "astId": 6538,
        "contract": "contracts/protocol/controller.sol:Controller",
        "label": "vault_debt",
        "offset": 0,
        "slot": "6",
        "type": "t_mapping(t_uint256,t_uint256)"
      },
      {
        "astId": 6543,
        "contract": "contracts/protocol/controller.sol:Controller",
        "label": "vault_to_marketIds",
        "offset": 0,
        "slot": "7",
        "type": "t_mapping(t_uint256,t_array(t_uint256)dyn_storage)"
      },
      {
        "astId": 6545,
        "contract": "contracts/protocol/controller.sol:Controller",
        "label": "creator_address",
        "offset": 0,
        "slot": "8",
        "type": "t_address"
      },
      {
        "astId": 6548,
        "contract": "contracts/protocol/controller.sol:Controller",
        "label": "interep",
        "offset": 0,
        "slot": "9",
        "type": "t_contract(IInterep)1054"
      },
      {
        "astId": 6551,
        "contract": "contracts/protocol/controller.sol:Controller",
        "label": "marketManager",
        "offset": 0,
        "slot": "10",
        "type": "t_contract(MarketManager)11432"
      },
      {
        "astId": 6554,
        "contract": "contracts/protocol/controller.sol:Controller",
        "label": "repNFT",
        "offset": 0,
        "slot": "11",
        "type": "t_contract(ReputationNFT)12247"
      },
      {
        "astId": 6557,
        "contract": "contracts/protocol/controller.sol:Controller",
        "label": "linearBCFactory",
        "offset": 0,
        "slot": "12",
        "type": "t_contract(LinearBondingCurveFactory)4133"
      },
      {
        "astId": 6560,
        "contract": "contracts/protocol/controller.sol:Controller",
        "label": "vaultFactory",
        "offset": 0,
        "slot": "13",
        "type": "t_contract(VaultFactory)7932"
      },
      {
        "astId": 6590,
        "contract": "contracts/protocol/controller.sol:Controller",
        "label": "nonce",
        "offset": 0,
        "slot": "14",
        "type": "t_uint256"
      }
    ],
    "types": {
      "t_address": {
        "encoding": "inplace",
        "label": "address",
        "numberOfBytes": "20"
      },
      "t_array(t_uint256)dyn_storage": {
        "base": "t_uint256",
        "encoding": "dynamic_array",
        "label": "uint256[]",
        "numberOfBytes": "32"
      },
      "t_bool": {
        "encoding": "inplace",
        "label": "bool",
        "numberOfBytes": "1"
      },
      "t_contract(IInterep)1054": {
        "encoding": "inplace",
        "label": "contract IInterep",
        "numberOfBytes": "20"
      },
      "t_contract(LinearBondingCurveFactory)4133": {
        "encoding": "inplace",
        "label": "contract LinearBondingCurveFactory",
        "numberOfBytes": "20"
      },
      "t_contract(MarketManager)11432": {
        "encoding": "inplace",
        "label": "contract MarketManager",
        "numberOfBytes": "20"
      },
      "t_contract(ReputationNFT)12247": {
        "encoding": "inplace",
        "label": "contract ReputationNFT",
        "numberOfBytes": "20"
      },
      "t_contract(Vault)18797": {
        "encoding": "inplace",
        "label": "contract Vault",
        "numberOfBytes": "20"
      },
      "t_contract(VaultFactory)7932": {
        "encoding": "inplace",
        "label": "contract VaultFactory",
        "numberOfBytes": "20"
      },
      "t_mapping(t_address,t_bool)": {
        "encoding": "mapping",
        "key": "t_address",
        "label": "mapping(address => bool)",
        "numberOfBytes": "32",
        "value": "t_bool"
      },
      "t_mapping(t_address,t_uint256)": {
        "encoding": "mapping",
        "key": "t_address",
        "label": "mapping(address => uint256)",
        "numberOfBytes": "32",
        "value": "t_uint256"
      },
      "t_mapping(t_uint256,t_array(t_uint256)dyn_storage)": {
        "encoding": "mapping",
        "key": "t_uint256",
        "label": "mapping(uint256 => uint256[])",
        "numberOfBytes": "32",
        "value": "t_array(t_uint256)dyn_storage"
      },
      "t_mapping(t_uint256,t_contract(Vault)18797)": {
        "encoding": "mapping",
        "key": "t_uint256",
        "label": "mapping(uint256 => contract Vault)",
        "numberOfBytes": "32",
        "value": "t_contract(Vault)18797"
      },
      "t_mapping(t_uint256,t_struct(ApprovalData)6488_storage)": {
        "encoding": "mapping",
        "key": "t_uint256",
        "label": "mapping(uint256 => struct Controller.ApprovalData)",
        "numberOfBytes": "32",
        "value": "t_struct(ApprovalData)6488_storage"
      },
      "t_mapping(t_uint256,t_struct(MarketData)6483_storage)": {
        "encoding": "mapping",
        "key": "t_uint256",
        "label": "mapping(uint256 => struct Controller.MarketData)",
        "numberOfBytes": "32",
        "value": "t_struct(MarketData)6483_storage"
      },
      "t_mapping(t_uint256,t_uint256)": {
        "encoding": "mapping",
        "key": "t_uint256",
        "label": "mapping(uint256 => uint256)",
        "numberOfBytes": "32",
        "value": "t_uint256"
      },
      "t_struct(ApprovalData)6488_storage": {
        "encoding": "inplace",
        "label": "struct Controller.ApprovalData",
        "members": [
          {
            "astId": 6485,
            "contract": "contracts/protocol/controller.sol:Controller",
            "label": "approved_principal",
            "offset": 0,
            "slot": "0",
            "type": "t_uint256"
          },
          {
            "astId": 6487,
            "contract": "contracts/protocol/controller.sol:Controller",
            "label": "approved_yield",
            "offset": 0,
            "slot": "1",
            "type": "t_uint256"
          }
        ],
        "numberOfBytes": "64"
      },
      "t_struct(MarketData)6483_storage": {
        "encoding": "inplace",
        "label": "struct Controller.MarketData",
        "members": [
          {
            "astId": 6480,
            "contract": "contracts/protocol/controller.sol:Controller",
            "label": "instrument_address",
            "offset": 0,
            "slot": "0",
            "type": "t_address"
          },
          {
            "astId": 6482,
            "contract": "contracts/protocol/controller.sol:Controller",
            "label": "recipient",
            "offset": 0,
            "slot": "1",
            "type": "t_address"
          }
        ],
        "numberOfBytes": "64"
      },
      "t_uint256": {
        "encoding": "inplace",
        "label": "uint256",
        "numberOfBytes": "32"
      }
    }
  }
}