{
  "address": "0x2677e0b4f55ad47e369dd17d7ae1b9ebc00ade25",
  "abi": [
    {
      "inputs": [
        {
          "internalType": "address",
          "name": "_creator_address",
          "type": "address"
        },
        {
          "internalType": "address",
          "name": "_interep_address",
          "type": "address"
        }
      ],
      "stateMutability": "nonpayable",
      "type": "constructor"
    },
    {
      "anonymous": false,
      "inputs": [
        {
          "indexed": false,
          "internalType": "uint256",
          "name": "marketId",
          "type": "uint256"
        },
        {
          "indexed": false,
          "internalType": "address",
          "name": "recipient",
          "type": "address"
        }
      ],
      "name": "MarketInitiated",
      "type": "event"
    },
    {
      "inputs": [
        {
          "internalType": "address",
          "name": "trader",
          "type": "address"
        },
        {
          "internalType": "uint256",
          "name": "update",
          "type": "uint256"
        }
      ],
      "name": "_decrementScore",
      "outputs": [],
      "stateMutability": "nonpayable",
      "type": "function"
    },
    {
      "inputs": [
        {
          "internalType": "uint256",
          "name": "percentile",
          "type": "uint256"
        },
        {
          "internalType": "address",
          "name": "utilizer",
          "type": "address"
        }
      ],
      "name": "_filterTraders",
      "outputs": [
        {
          "internalType": "address[]",
          "name": "",
          "type": "address[]"
        }
      ],
      "stateMutability": "view",
      "type": "function"
    },
    {
      "inputs": [
        {
          "internalType": "uint256",
          "name": "marketId",
          "type": "uint256"
        }
      ],
      "name": "_getValidators",
      "outputs": [],
      "stateMutability": "nonpayable",
      "type": "function"
    },
    {
      "inputs": [
        {
          "internalType": "address",
          "name": "trader",
          "type": "address"
        },
        {
          "internalType": "uint256",
          "name": "update",
          "type": "uint256"
        }
      ],
      "name": "_incrementScore",
      "outputs": [],
      "stateMutability": "nonpayable",
      "type": "function"
    },
    {
      "inputs": [
        {
          "internalType": "address",
          "name": "",
          "type": "address"
        }
      ],
      "name": "ad_to_id",
      "outputs": [
        {
          "internalType": "uint256",
          "name": "",
          "type": "uint256"
        }
      ],
      "stateMutability": "view",
      "type": "function"
    },
    {
      "inputs": [
        {
          "internalType": "uint256",
          "name": "marketId",
          "type": "uint256"
        }
      ],
      "name": "approvalCondition",
      "outputs": [
        {
          "internalType": "bool",
          "name": "",
          "type": "bool"
        }
      ],
      "stateMutability": "view",
      "type": "function"
    },
    {
      "inputs": [
        {
          "internalType": "uint256",
          "name": "marketId",
          "type": "uint256"
        }
      ],
      "name": "beforeResolve",
      "outputs": [],
      "stateMutability": "nonpayable",
      "type": "function"
    },
    {
      "inputs": [
        {
          "internalType": "uint256",
          "name": "percentile",
          "type": "uint256"
        }
      ],
      "name": "calculateMinScore",
      "outputs": [
        {
          "internalType": "uint256",
          "name": "",
          "type": "uint256"
        }
      ],
      "stateMutability": "view",
      "type": "function"
    },
    {
      "inputs": [
        {
          "internalType": "address",
          "name": "underlying",
          "type": "address"
        },
        {
          "internalType": "bool",
          "name": "_onlyVerified",
          "type": "bool"
        },
        {
          "internalType": "uint256",
          "name": "_r",
          "type": "uint256"
        },
        {
          "internalType": "uint256",
          "name": "_asset_limit",
          "type": "uint256"
        },
        {
          "internalType": "uint256",
          "name": "_total_asset_limit",
          "type": "uint256"
        },
        {
          "components": [
            {
              "internalType": "uint256",
              "name": "N",
              "type": "uint256"
            },
            {
              "internalType": "uint256",
              "name": "sigma",
              "type": "uint256"
            },
            {
              "internalType": "uint256",
              "name": "alpha",
              "type": "uint256"
            },
            {
              "internalType": "uint256",
              "name": "omega",
              "type": "uint256"
            },
            {
              "internalType": "uint256",
              "name": "delta",
              "type": "uint256"
            },
            {
              "internalType": "uint256",
              "name": "r",
              "type": "uint256"
            },
            {
              "internalType": "uint256",
              "name": "s",
              "type": "uint256"
            },
            {
              "internalType": "uint256",
              "name": "steak",
              "type": "uint256"
            }
          ],
          "internalType": "struct MarketManager.MarketParameters",
          "name": "default_params",
          "type": "tuple"
        }
      ],
      "name": "createVault",
      "outputs": [],
      "stateMutability": "nonpayable",
      "type": "function"
    },
    {
      "inputs": [
        {
          "internalType": "uint256",
          "name": "marketId",
          "type": "uint256"
        },
        {
          "internalType": "address",
          "name": "validator",
          "type": "address"
        }
      ],
      "name": "deniedValidator",
      "outputs": [
        {
          "internalType": "uint256",
          "name": "collateral_amount",
          "type": "uint256"
        }
      ],
      "stateMutability": "nonpayable",
      "type": "function"
    },
    {
      "inputs": [
        {
          "internalType": "uint256",
          "name": "marketId",
          "type": "uint256"
        }
      ],
      "name": "denyMarket",
      "outputs": [],
      "stateMutability": "nonpayable",
      "type": "function"
    },
    {
      "inputs": [
        {
          "internalType": "uint256",
          "name": "marketId",
          "type": "uint256"
        },
        {
          "internalType": "bool",
          "name": "emergency",
          "type": "bool"
        }
      ],
      "name": "forceCloseInstrument",
      "outputs": [
        {
          "internalType": "bool",
          "name": "",
          "type": "bool"
        }
      ],
      "stateMutability": "nonpayable",
      "type": "function"
    },
    {
      "inputs": [
        {
          "internalType": "uint256",
          "name": "requestId",
          "type": "uint256"
        },
        {
          "internalType": "uint256[]",
          "name": "randomWords",
          "type": "uint256[]"
        }
      ],
      "name": "fulfillRandomWords",
      "outputs": [],
      "stateMutability": "nonpayable",
      "type": "function"
    },
    {
      "inputs": [
        {
          "internalType": "uint256",
          "name": "marketId",
          "type": "uint256"
        }
      ],
      "name": "getApprovalData",
      "outputs": [
        {
          "components": [
            {
              "internalType": "uint256",
              "name": "approved_principal",
              "type": "uint256"
            },
            {
              "internalType": "uint256",
              "name": "approved_yield",
              "type": "uint256"
            }
          ],
          "internalType": "struct Controller.ApprovalData",
          "name": "",
          "type": "tuple"
        }
      ],
      "stateMutability": "view",
      "type": "function"
    },
    {
      "inputs": [
        {
          "internalType": "uint256",
          "name": "marketId",
          "type": "uint256"
        }
      ],
      "name": "getFinalStake",
      "outputs": [
        {
          "internalType": "uint256",
          "name": "",
          "type": "uint256"
        }
      ],
      "stateMutability": "view",
      "type": "function"
    },
    {
      "inputs": [
        {
          "internalType": "uint256",
          "name": "marketId",
          "type": "uint256"
        }
      ],
      "name": "getInitialStake",
      "outputs": [
        {
          "internalType": "uint256",
          "name": "",
          "type": "uint256"
        }
      ],
      "stateMutability": "view",
      "type": "function"
    },
    {
      "inputs": [
        {
          "internalType": "address",
          "name": "recipient",
          "type": "address"
        }
      ],
      "name": "getMarketId",
      "outputs": [
        {
          "internalType": "uint256",
          "name": "",
          "type": "uint256"
        }
      ],
      "stateMutability": "view",
      "type": "function"
    },
    {
      "inputs": [
        {
          "internalType": "uint256",
          "name": "vaultId",
          "type": "uint256"
        }
      ],
      "name": "getMarketIds",
      "outputs": [
        {
          "internalType": "uint256[]",
          "name": "",
          "type": "uint256[]"
        }
      ],
      "stateMutability": "view",
      "type": "function"
    },
    {
      "inputs": [
        {
          "internalType": "uint256",
          "name": "marketId",
          "type": "uint256"
        }
      ],
      "name": "getNumApproved",
      "outputs": [
        {
          "internalType": "uint256",
          "name": "",
          "type": "uint256"
        }
      ],
      "stateMutability": "view",
      "type": "function"
    },
    {
      "inputs": [
        {
          "internalType": "uint256",
          "name": "marketId",
          "type": "uint256"
        }
      ],
      "name": "getNumResolved",
      "outputs": [
        {
          "internalType": "uint256",
          "name": "",
          "type": "uint256"
        }
      ],
      "stateMutability": "view",
      "type": "function"
    },
    {
      "inputs": [
        {
          "internalType": "uint256",
          "name": "marketId",
          "type": "uint256"
        }
      ],
      "name": "getTotalStaked",
      "outputs": [
        {
          "internalType": "uint256",
          "name": "",
          "type": "uint256"
        }
      ],
      "stateMutability": "view",
      "type": "function"
    },
    {
      "inputs": [],
      "name": "getTraders",
      "outputs": [
        {
          "internalType": "address[]",
          "name": "",
          "type": "address[]"
        }
      ],
      "stateMutability": "nonpayable",
      "type": "function"
    },
    {
      "inputs": [
        {
          "internalType": "uint256",
          "name": "marketId",
          "type": "uint256"
        }
      ],
      "name": "getValidatorRequiredCollateral",
      "outputs": [
        {
          "internalType": "uint256",
          "name": "",
          "type": "uint256"
        }
      ],
      "stateMutability": "view",
      "type": "function"
    },
    {
      "inputs": [
        {
          "internalType": "uint256",
          "name": "marketId",
          "type": "uint256"
        }
      ],
      "name": "getVault",
      "outputs": [
        {
          "internalType": "contract Vault",
          "name": "",
          "type": "address"
        }
      ],
      "stateMutability": "view",
      "type": "function"
    },
    {
      "inputs": [
        {
          "internalType": "uint256",
          "name": "marketId",
          "type": "uint256"
        }
      ],
      "name": "getVaultAd",
      "outputs": [
        {
          "internalType": "address",
          "name": "",
          "type": "address"
        }
      ],
      "stateMutability": "view",
      "type": "function"
    },
    {
      "inputs": [
        {
          "internalType": "uint256",
          "name": "vaultId",
          "type": "uint256"
        }
      ],
      "name": "getVaultfromId",
      "outputs": [
        {
          "internalType": "address",
          "name": "",
          "type": "address"
        }
      ],
      "stateMutability": "view",
      "type": "function"
    },
    {
      "inputs": [
        {
          "internalType": "uint256",
          "name": "marketId",
          "type": "uint256"
        },
        {
          "internalType": "address",
          "name": "validator",
          "type": "address"
        }
      ],
      "name": "hasApproved",
      "outputs": [
        {
          "internalType": "bool",
          "name": "",
          "type": "bool"
        }
      ],
      "stateMutability": "view",
      "type": "function"
    },
    {
      "inputs": [
        {
          "internalType": "uint256",
          "name": "",
          "type": "uint256"
        }
      ],
      "name": "id_parent",
      "outputs": [
        {
          "internalType": "uint256",
          "name": "",
          "type": "uint256"
        }
      ],
      "stateMutability": "view",
      "type": "function"
    },
    {
      "inputs": [
        {
          "internalType": "address",
          "name": "recipient",
          "type": "address"
        },
        {
          "components": [
            {
              "internalType": "bool",
              "name": "isPool",
              "type": "bool"
            },
            {
              "internalType": "bool",
              "name": "trusted",
              "type": "bool"
            },
            {
              "internalType": "uint256",
              "name": "balance",
              "type": "uint256"
            },
            {
              "internalType": "uint256",
              "name": "faceValue",
              "type": "uint256"
            },
            {
              "internalType": "uint256",
              "name": "marketId",
              "type": "uint256"
            },
            {
              "internalType": "uint256",
              "name": "principal",
              "type": "uint256"
            },
            {
              "internalType": "uint256",
              "name": "expectedYield",
              "type": "uint256"
            },
            {
              "internalType": "uint256",
              "name": "duration",
              "type": "uint256"
            },
            {
              "internalType": "string",
              "name": "description",
              "type": "string"
            },
            {
              "internalType": "address",
              "name": "Instrument_address",
              "type": "address"
            },
            {
              "internalType": "enum Vault.InstrumentType",
              "name": "instrument_type",
              "type": "uint8"
            },
            {
              "internalType": "uint256",
              "name": "maturityDate",
              "type": "uint256"
            },
            {
              "components": [
                {
                  "internalType": "uint256",
                  "name": "saleAmount",
                  "type": "uint256"
                },
                {
                  "internalType": "uint256",
                  "name": "initPrice",
                  "type": "uint256"
                },
                {
                  "internalType": "uint256",
                  "name": "promisedReturn",
                  "type": "uint256"
                },
                {
                  "internalType": "uint256",
                  "name": "inceptionTime",
                  "type": "uint256"
                },
                {
                  "internalType": "uint256",
                  "name": "inceptionPrice",
                  "type": "uint256"
                },
                {
                  "internalType": "uint256",
                  "name": "leverageFactor",
                  "type": "uint256"
                }
              ],
              "internalType": "struct Vault.PoolData",
              "name": "poolData",
              "type": "tuple"
            }
          ],
          "internalType": "struct Vault.InstrumentData",
          "name": "instrumentData",
          "type": "tuple"
        },
        {
          "internalType": "uint256",
          "name": "vaultId",
          "type": "uint256"
        }
      ],
      "name": "initiateMarket",
      "outputs": [],
      "stateMutability": "nonpayable",
      "type": "function"
    },
    {
      "inputs": [
        {
          "internalType": "address",
          "name": "",
          "type": "address"
        }
      ],
      "name": "isRated",
      "outputs": [
        {
          "internalType": "bool",
          "name": "",
          "type": "bool"
        }
      ],
      "stateMutability": "view",
      "type": "function"
    },
    {
      "inputs": [
        {
          "internalType": "address",
          "name": "trader",
          "type": "address"
        },
        {
          "internalType": "uint256",
          "name": "percentile",
          "type": "uint256"
        }
      ],
      "name": "isReputable",
      "outputs": [
        {
          "internalType": "bool",
          "name": "",
          "type": "bool"
        }
      ],
      "stateMutability": "view",
      "type": "function"
    },
    {
      "inputs": [
        {
          "internalType": "uint256",
          "name": "marketId",
          "type": "uint256"
        },
        {
          "internalType": "address",
          "name": "user",
          "type": "address"
        }
      ],
      "name": "isValidator",
      "outputs": [
        {
          "internalType": "bool",
          "name": "",
          "type": "bool"
        }
      ],
      "stateMutability": "view",
      "type": "function"
    },
    {
      "inputs": [
        {
          "internalType": "address",
          "name": "addr",
          "type": "address"
        }
      ],
      "name": "isVerified",
      "outputs": [
        {
          "internalType": "bool",
          "name": "",
          "type": "bool"
        }
      ],
      "stateMutability": "view",
      "type": "function"
    },
    {
      "inputs": [
        {
          "internalType": "uint256",
          "name": "marketId",
          "type": "uint256"
        }
      ],
      "name": "marketIdToVaultId",
      "outputs": [
        {
          "internalType": "uint256",
          "name": "",
          "type": "uint256"
        }
      ],
      "stateMutability": "view",
      "type": "function"
    },
    {
      "inputs": [
        {
          "internalType": "uint256",
          "name": "marketId",
          "type": "uint256"
        }
      ],
      "name": "marketId_to_vaultId",
      "outputs": [
        {
          "internalType": "uint256",
          "name": "",
          "type": "uint256"
        }
      ],
      "stateMutability": "view",
      "type": "function"
    },
    {
      "inputs": [
        {
          "internalType": "uint256",
          "name": "",
          "type": "uint256"
        }
      ],
      "name": "market_data",
      "outputs": [
        {
          "internalType": "address",
          "name": "instrument_address",
          "type": "address"
        },
        {
          "internalType": "address",
          "name": "utilizer",
          "type": "address"
        }
      ],
      "stateMutability": "view",
      "type": "function"
    },
    {
      "inputs": [
        {
          "internalType": "uint256",
          "name": "marketId",
          "type": "uint256"
        },
        {
          "internalType": "uint256",
          "name": "amount",
          "type": "uint256"
        }
      ],
      "name": "pullLeverage",
      "outputs": [],
      "stateMutability": "nonpayable",
      "type": "function"
    },
    {
      "inputs": [
        {
          "internalType": "uint256",
          "name": "marketId",
          "type": "uint256"
        },
        {
          "internalType": "address",
          "name": "validator",
          "type": "address"
        }
      ],
      "name": "redeemValidator",
      "outputs": [],
      "stateMutability": "nonpayable",
      "type": "function"
    },
    {
      "inputs": [
        {
          "internalType": "uint256",
          "name": "amount",
          "type": "uint256"
        },
        {
          "internalType": "address",
          "name": "to",
          "type": "address"
        },
        {
          "internalType": "uint256",
          "name": "marketId",
          "type": "uint256"
        }
      ],
      "name": "redeem_transfer",
      "outputs": [],
      "stateMutability": "nonpayable",
      "type": "function"
    },
    {
      "inputs": [
        {
          "internalType": "uint256",
          "name": "marketId",
          "type": "uint256"
        }
      ],
      "name": "resolveCondition",
      "outputs": [
        {
          "internalType": "bool",
          "name": "",
          "type": "bool"
        }
      ],
      "stateMutability": "view",
      "type": "function"
    },
    {
      "inputs": [
        {
          "internalType": "uint256",
          "name": "marketId",
          "type": "uint256"
        }
      ],
      "name": "resolveMarket",
      "outputs": [],
      "stateMutability": "nonpayable",
      "type": "function"
    },
    {
      "inputs": [
        {
          "internalType": "address",
          "name": "_marketManager",
          "type": "address"
        }
      ],
      "name": "setMarketManager",
      "outputs": [],
      "stateMutability": "nonpayable",
      "type": "function"
    },
    {
      "inputs": [
        {
          "internalType": "address",
          "name": "_poolFactory",
          "type": "address"
        }
      ],
      "name": "setPoolFactory",
      "outputs": [],
      "stateMutability": "nonpayable",
      "type": "function"
    },
    {
      "inputs": [
        {
          "internalType": "address",
          "name": "trader",
          "type": "address"
        },
        {
          "internalType": "uint256",
          "name": "score",
          "type": "uint256"
        }
      ],
      "name": "setTraderScore",
      "outputs": [],
      "stateMutability": "nonpayable",
      "type": "function"
    },
    {
      "inputs": [
        {
          "internalType": "address",
          "name": "_vaultFactory",
          "type": "address"
        }
      ],
      "name": "setVaultFactory",
      "outputs": [],
      "stateMutability": "nonpayable",
      "type": "function"
    },
    {
      "inputs": [],
      "name": "testVerifyAddress",
      "outputs": [],
      "stateMutability": "nonpayable",
      "type": "function"
    },
    {
      "inputs": [
        {
          "internalType": "address",
          "name": "",
          "type": "address"
        }
      ],
      "name": "trader_scores",
      "outputs": [
        {
          "internalType": "uint256",
          "name": "",
          "type": "uint256"
        }
      ],
      "stateMutability": "view",
      "type": "function"
    },
    {
      "inputs": [
        {
          "internalType": "uint256",
          "name": "",
          "type": "uint256"
        }
      ],
      "name": "traders",
      "outputs": [
        {
          "internalType": "address",
          "name": "",
          "type": "address"
        }
      ],
      "stateMutability": "view",
      "type": "function"
    },
    {
      "inputs": [
        {
          "internalType": "uint256",
          "name": "marketId",
          "type": "uint256"
        }
      ],
      "name": "unlockValidatorStake",
      "outputs": [],
      "stateMutability": "nonpayable",
      "type": "function"
    },
    {
      "inputs": [
        {
          "internalType": "uint256",
          "name": "marketId",
          "type": "uint256"
        },
        {
          "internalType": "address",
          "name": "trader",
          "type": "address"
        },
        {
          "internalType": "bool",
          "name": "increment",
          "type": "bool"
        }
      ],
      "name": "updateReputation",
      "outputs": [],
      "stateMutability": "nonpayable",
      "type": "function"
    },
    {
      "inputs": [
        {
          "internalType": "uint256",
          "name": "marketId",
          "type": "uint256"
        }
      ],
      "name": "validatorApprove",
      "outputs": [
        {
          "internalType": "uint256",
          "name": "",
          "type": "uint256"
        }
      ],
      "stateMutability": "nonpayable",
      "type": "function"
    },
    {
      "inputs": [
        {
          "internalType": "uint256",
          "name": "marketId",
          "type": "uint256"
        }
      ],
      "name": "validatorResolve",
      "outputs": [],
      "stateMutability": "nonpayable",
      "type": "function"
    },
    {
      "inputs": [
        {
          "internalType": "uint256",
          "name": "",
          "type": "uint256"
        }
      ],
      "name": "vault_debt",
      "outputs": [
        {
          "internalType": "uint256",
          "name": "",
          "type": "uint256"
        }
      ],
      "stateMutability": "view",
      "type": "function"
    },
    {
      "inputs": [
        {
          "internalType": "uint256",
          "name": "",
          "type": "uint256"
        },
        {
          "internalType": "uint256",
          "name": "",
          "type": "uint256"
        }
      ],
      "name": "vault_to_marketIds",
      "outputs": [
        {
          "internalType": "uint256",
          "name": "",
          "type": "uint256"
        }
      ],
      "stateMutability": "view",
      "type": "function"
    },
    {
      "inputs": [
        {
          "internalType": "uint256",
          "name": "",
          "type": "uint256"
        }
      ],
      "name": "vaults",
      "outputs": [
        {
          "internalType": "contract Vault",
          "name": "",
          "type": "address"
        }
      ],
      "stateMutability": "view",
      "type": "function"
    },
    {
      "inputs": [
        {
          "internalType": "address",
          "name": "",
          "type": "address"
        }
      ],
      "name": "verified",
      "outputs": [
        {
          "internalType": "bool",
          "name": "",
          "type": "bool"
        }
      ],
      "stateMutability": "view",
      "type": "function"
    },
    {
      "inputs": [
        {
          "internalType": "uint256",
          "name": "marketId",
          "type": "uint256"
        }
      ],
      "name": "viewValidators",
      "outputs": [
        {
          "internalType": "address[]",
          "name": "",
          "type": "address[]"
        }
      ],
      "stateMutability": "view",
      "type": "function"
    }
  ],
  "transactionHash": "0x1106510667b989e376434c6b9ac988c626916264cf011617a6d06743007b9c40",
  "args": [
    "0xFD84b7AC1E646580db8c77f1f05F47977fAda692",
    "0xb1dA5d9AC4B125F521DeF573532e9DBb6395B925"
  ],
  "numDeployments": 13,
  "solcInputHash": "1e758903b3e98c74b81d5b6f8a2e1649",
  "bytecode": "0x60806040523480156200001157600080fd5b5060405162005b8338038062005b83833981016040819052620000349162000078565b50600880546001600160a01b0319166001600160a01b0392909216919091179055620000b0565b80516001600160a01b03811681146200007357600080fd5b919050565b600080604083850312156200008c57600080fd5b62000097836200005b565b9150620000a7602084016200005b565b90509250929050565b615ac380620000c06000396000f3fe608060405234801561001057600080fd5b50600436106103835760003560e01c80637ea3417f116101de578063ad4e4e701161010f578063d82aff11116100ad578063ebd4dc461161007c578063ebd4dc461461094d578063f0fd1d3814610970578063f251f82e14610983578063f25fcc9f1461099657600080fd5b8063d82aff1114610901578063da0a697f14610914578063e8a7802614610927578063ebac31401461093a57600080fd5b8063c4abc650116100e9578063c4abc650146107f5578063ce93ec6714610469578063d1227136146108db578063d65ec964146108ee57600080fd5b8063ad4e4e701461087c578063b1b7e1f21461088f578063b9209e33146108af57600080fd5b80638dc3d9b41161017c578063937b6feb11610156578063937b6feb146107d25780639403b634146107f55780639fe1458b14610808578063ac1b6b011461083157600080fd5b80638dc3d9b41461078c5780638f5709a51461079f5780638fbbc868146107b257600080fd5b8063830e2a02116101b8578063830e2a02146106d9578063875e487e146106ec5780638c64ea4a1461070f5780638d4f16d71461073857600080fd5b80637ea3417f14610678578063805798ac1461068b57806381e1b07c146106ae57600080fd5b806338ba4614116102b8578063482c0aa8116102565780634cb44087116102305780634cb440871461062a57806357b613601461063d5780636399d03d146106455780637789ec5a1461065857600080fd5b8063482c0aa8146105f1578063494ef447146106045780634a7e35f91461061757600080fd5b806343437be01161029257806343437be01461058b57806344c74393146105ab578063457a89f6146105cb578063473597a0146105de57600080fd5b806338ba4614146105455780633ea7fbdb146105585780633ec8dc3b1461056b57600080fd5b806314f2b14c1161032557806323f2a73f116102ff57806323f2a73f146104e95780632b858734146104fc5780632f8899f31461050f578063340e04b31461053257600080fd5b806314f2b14c146104695780632358d5a81461048957806323ba6107146104c657600080fd5b80630c33df18116103615780630c33df18146103e75780630d159896146103fa5780630db065f41461041b578063135e563d1461043e57600080fd5b806303cccb351461038857806305a1ce99146103ac5780630622fd17146103d4575b600080fd5b6103aa336000908152600160208190526040909120805460ff19169091179055565b005b6103bf6103ba366004614bb8565b6109bf565b60405190151581526020015b60405180910390f35b6103aa6103e2366004614bf6565b610a02565b6103bf6103f5366004614c3b565b610a4c565b61040d610408366004614bb8565b610b27565b6040519081526020016103cb565b6103bf610429366004614c6b565b60016020526000908152604090205460ff1681565b61045161044c366004614bb8565b610bd7565b6040516001600160a01b0390911681526020016103cb565b61040d610477366004614bb8565b60009081526005602052604090205490565b6103bf610497366004614c88565b6000828152600d602090815260408083206001600160a01b038516845260010190915290205460ff1692915050565b6103bf6104d4366004614c6b565b600f6020526000908152604090205460ff1681565b6103bf6104f7366004614c88565b610c01565b6103aa61050a366004614bb8565b610c7c565b61040d61051d366004614bb8565b6000908152600d602052604090206008015490565b6103aa610540366004614d65565b610ea5565b6103aa610553366004614e2f565b610f5e565b6103aa610566366004614c6b565b61113f565b61057e610579366004614bb8565b61118b565b6040516103cb9190614ee1565b61040d610599366004614bb8565b60066020526000908152604090205481565b61040d6105b9366004614c6b565b600e6020526000908152604090205481565b6103aa6105d9366004614bb8565b6111fa565b6103aa6105ec366004614c6b565b611382565b61040d6105ff366004614f22565b6113ce565b6103aa610612366004614f44565b6113ff565b6103aa610625366004615074565b6114ec565b6103aa610638366004614bb8565b611ca2565b61057e611ded565b6103aa610653366004614bb8565b611e4f565b61040d610666366004614c6b565b60036020526000908152604090205481565b61057e610686366004614c88565b611fed565b61040d610699366004614bb8565b6000908152600d602052604090206009015490565b6103bf6106bc366004614bb8565b6000908152600d602052604090206003810154600c909101541490565b61040d6106e7366004614c88565b61243f565b61040d6106fa366004614bb8565b6000908152600d60205260409020600a015490565b61045161071d366004614bb8565b6004602052600090815260409020546001600160a01b031681565b61076c610746366004614bb8565b600260205260009081526040902080546001909101546001600160a01b03918216911682565b604080516001600160a01b039384168152929091166020830152016103cb565b6103aa61079a366004614bb8565b6124df565b6103aa6107ad366004614c88565b612847565b61040d6107c0366004614bb8565b60056020526000908152604090205481565b61040d6107e0366004614bb8565b6000908152600d60205260409020600b015490565b610451610803366004614bb8565b6128ac565b610451610816366004614bb8565b6000908152600460205260409020546001600160a01b031690565b61086161083f366004614bb8565b6040805180820190915260008082526020820152600091825260209190915290565b604080518251815260209283015192810192909252016103cb565b6103aa61088a366004614bb8565b6128d4565b6108a261089d366004614bb8565b612b60565b6040516103cb91906151aa565b6103bf6108bd366004614c6b565b6001600160a01b031660009081526001602052604090205460ff1690565b61040d6108e9366004614bb8565b612bc1565b61040d6108fc366004614bb8565b6130a7565b6103aa61090f366004614c6b565b613162565b6103aa610922366004614f22565b6131c1565b6103bf610935366004614bf6565b613241565b6103aa610948366004614bf6565b6132d4565b61040d61095b366004614bb8565b6000908152600d60205260409020600c015490565b6103aa61097e3660046151e2565b61334e565b6103aa610991366004614bf6565b613412565b61040d6109a4366004614c6b565b6001600160a01b031660009081526003602052604090205490565b6000818152600d602052604081206004810154600790910154108015906109fc57506000828152600d602052604090206009810154600390910154145b92915050565b6001600160a01b0382166000908152600e602052604090205480821115610a3657610a31836109918385615230565b505050565b80821015610a3157610a31836109488484615230565b60008281526005602090815260408083205483526004918290528083205490516359dc5c6f60e01b81529182018590526001600160a01b03169081906359dc5c6f90602401600060405180830381600087803b158015610aab57600080fd5b505af1158015610abf573d6000803e3d6000fd5b5050604051630ae161cd60e21b8152600481018790526001600160a01b0384169250632b8587349150602401600060405180830381600087803b158015610b0557600080fd5b505af1158015610b19573d6000803e3d6000fd5b506001979650505050505050565b6010546000908190610b4290670de0b6b3a764000090615247565b9050610b4f60648461527c565b610b5c5750600092915050565b6000610b73610b6c60648661527c565b839061344b565b9050610b87670de0b6b3a76400008261527c565b9050600e60006010610b9a600185615230565b81548110610baa57610baa615290565b60009182526020808320909101546001600160a01b03168352820192909252604001902054949350505050565b60108181548110610be757600080fd5b6000918252602090912001546001600160a01b0316905081565b6000828152600d60205260408120600301815b8154811015610c7157836001600160a01b0316828281548110610c3957610c39615290565b6000918252602090912001546001600160a01b03161415610c5f576001925050506109fc565b80610c69816152a6565b915050610c14565b506000949350505050565b600954604051636ff3062160e11b8152600481018390526001600160a01b039091169063dfe60c4290602401602060405180830381865afa158015610cc5573d6000803e3d6000fd5b505050506040513d601f19601f82011682018060405250810190610ce991906152cc565b158015610d5e5750600954604051637a513a1960e01b8152600481018390526001600160a01b0390911690637a513a1990602401602060405180830381865afa158015610d3a573d6000803e3d6000fd5b505050506040513d601f19601f82011682018060405250810190610d5e91906152cc565b610daf5760405162461bcd60e51b815260206004820152601960248201527f6d61726b657420636f6e646974696f6e73206e6f74206d65740000000000000060448201526064015b60405180910390fd5b6000818152600d602052604090206003810154600c9091015414610e295760405162461bcd60e51b815260206004820152602b60248201527f6e6f7420656e6f7567682076616c696461746f7273206861766520766f74656460448201526a20746f207265736f6c766560a81b6064820152608401610da6565b600081815260056020908152604080832054835260049182905291829020549151630ae161cd60e21b81529081018390526001600160a01b0390911690632b858734906024015b600060405180830381600087803b158015610e8a57600080fd5b505af1158015610e9e573d6000803e3d6000fd5b5050505050565b600a5460405163da33133360e01b815260009182916001600160a01b039091169063da33133390610ee6908b9030908c908c908c908c908c90600401615337565b60408051808303816000875af1158015610f04573d6000803e3d6000fd5b505050506040513d601f19601f82011682018060405250810190610f289190615386565b600090815260046020526040902080546001600160a01b0319166001600160a01b03929092169190911790555050505050505050565b6000828152600c6020526040808220546009549151632a4a9dd160e01b81526004810182905290929182916001600160a01b0390911690632a4a9dd19060240161010060405180830381865afa158015610fbc573d6000803e3d6000fd5b505050506040513d601f19601f82011682018060405250810190610fe091906153b4565b5050955050505050915081845114610ffa57610ffa615411565b6000838152600260205260408120600101546001600160a01b0316906110208383611fed565b805190915060005b858160ff16101561113457600061105c84848b8560ff168151811061104f5761104f615290565b6020026020010151613467565b9050600d600089815260200190815260200160002060030184828151811061108657611086615290565b60209081029190910181015182546001808201855560009485529290932090920180546001600160a01b0319166001600160a01b039093169290921790915584906110d19085615230565b815181106110e1576110e1615290565b60200260200101518482815181106110fb576110fb615290565b6001600160a01b03909216602092830291909101909101528261111d81615427565b93505050808061112c9061543e565b915050611028565b505050505050505050565b6008546001600160a01b031633146111695760405162461bcd60e51b8152600401610da69061545e565b600a80546001600160a01b0319166001600160a01b0392909216919091179055565b6000818152600d60209081526040918290206003018054835181840281018401909452808452606093928301828280156111ee57602002820191906000526020600020905b81546001600160a01b031681526001909101906020018083116111d0575b50505050509050919050565b600081815260026020526040808220600101546009549151632a4a9dd160e01b8152600481018590526001600160a01b03918216939283921690632a4a9dd19060240161010060405180830381865afa15801561125b573d6000803e3d6000fd5b505050506040513d601f19601f8201168201806040525081019061127f91906153b4565b5050955050505050915060006112958285611fed565b905082815111611332576000858152600d6020908152604090912082516112c492600390920191840190614b3e565b508281511015610e9e57600954815160405163555f8d2d60e01b81526004810188905260248101919091526001600160a01b039091169063555f8d2d90604401600060405180830381600087803b15801561131e57600080fd5b505af1158015611134573d6000803e3d6000fd5b5050506000828152600d602090815260408220600601805460ff19166001908117909155909152600c9052507fd421a5181c571bba3f01190c922c3b2a896fc1d84e86c9f17ac10e67ebef8b5c55565b6008546001600160a01b031633146113ac5760405162461bcd60e51b8152600401610da69061545e565b600b80546001600160a01b0319166001600160a01b0392909216919091179055565b600760205281600052604060002081815481106113ea57600080fd5b90600052602060002001600091509150505481565b6009546001600160a01b031633148061142257506008546001600160a01b031633145b61143e5760405162461bcd60e51b8152600401610da69061549f565b600954604051632841c2b760e21b8152600481018590526001600160a01b038481166024830152600092169063a1070adc90604401602060405180830381865afa158015611490573d6000803e3d6000fd5b505050506040513d601f19601f820116820180604052508101906114b491906154e2565b905060006114cb8280670de0b6b3a76400006135a7565b905082156114e2576114dd8482613412565b610e9e565b610e9e84826132d4565b6001600160a01b0383166115125760405162461bcd60e51b8152600401610da6906154fb565b6101208201516001600160a01b031661153d5760405162461bcd60e51b8152600401610da6906154fb565b6000818152600460205260409020546001600160a01b03166115715760405162461bcd60e51b8152600401610da6906154fb565b600081815260046020818152604080842054600954825163764bc84160e11b815292516001600160a01b039283169695919092169363ec97908293808301939192908290030181865afa1580156115cc573d6000803e3d6000fd5b505050506040513d601f19601f820116820180604052508101906115f091906154e2565b60008181526005602090815260408083208790558683526007825280832080546001818101835591855283852001859055815180830183526101208a01516001600160a01b0390811682528b8116828601908152878752600290955294839020905181549086166001600160a01b031991821617825593519101805491851691909316179091556009548151637572cb1f60e01b81529151939450821692634e042a5992861691637572cb1f916004808301926101009291908290030181865afa1580156116c2573d6000803e3d6000fd5b505050506040513d601f19601f820116820180604052508101906116e6919061551d565b846001600160a01b0316636c321c8a6040518163ffffffff1660e01b8152600401602060405180830381865afa158015611724573d6000803e3d6000fd5b505050506040513d601f19601f8201168201806040525081019061174891906154e2565b846040518463ffffffff1660e01b8152600401611767939291906155ad565b600060405180830381600087803b15801561178157600080fd5b505af1158015611795573d6000803e3d6000fd5b5050600b5460008681526004602081815260408084205481516362eb326360e11b8152915194975087965086956001600160a01b039081169563981f513695919092169363c5d664c693808301939192908290030181865afa1580156117ff573d6000803e3d6000fd5b505050506040513d601f19601f8201168201806040525081019061182391906155cf565b60095460405160e084901b6001600160e01b03191681526001600160a01b039283166004820152911660248201526044016060604051808303816000875af1158015611873573d6000803e3d6000fd5b505050506040513d601f19601f8201168201806040525081019061189791906155f7565b925092509250866000015115611a6c576101808701518051602082015160809092015160095460405163c6ceb96b60e01b8152600481018990526001600160a01b03868116956334327d8b95949093909291169063c6ceb96b9060240161010060405180830381865afa158015611912573d6000803e3d6000fd5b505050506040513d601f19601f82011682018060405250810190611936919061551d565b602001516040516001600160e01b031960e087901b1681526004810194909452602484019290925260448301526064820152608401600060405180830381600087803b15801561198557600080fd5b505af1158015611999573d6000803e3d6000fd5b505050506119bf604051806040016040528060018152602001603f60f81b8152506135c6565b60095461010088015160405163080ec90d60e21b81526001600160a01b039092169163203b2434916119fe918891869189918991600190600401615691565b600060405180830381600087803b158015611a1857600080fd5b505af1158015611a2c573d6000803e3d6000fd5b50505050611a53604051806040016040528060028152602001613f3f60f01b8152506135c6565b610180870151518751611a6791869161360c565b611bd7565b60a087015160c088015160095460405163c6ceb96b60e01b8152600481018890526001600160a01b03858116946375e2d946949093909291169063c6ceb96b9060240161010060405180830381865afa158015611acd573d6000803e3d6000fd5b505050506040513d601f19601f82011682018060405250810190611af1919061551d565b602001516040516001600160e01b031960e086901b168152600481019390935260248301919091526044820152606401600060405180830381600087803b158015611b3b57600080fd5b505af1158015611b4f573d6000803e3d6000fd5b50506009546101008a015160405163080ec90d60e21b81526001600160a01b03909216935063203b24349250611b92918891869189918991600090600401615691565b600060405180830381600087803b158015611bac57600080fd5b505af1158015611bc0573d6000803e3d6000fd5b50505050611bd7848860a00151896000015161360c565b608087018490526040516283d6f160e11b81526001600160a01b03861690630107ade290611c09908a90600401615702565b600060405180830381600087803b158015611c2357600080fd5b505af1158015611c37573d6000803e3d6000fd5b5050604080518781526001600160a01b038c1660208201527f5e2ab39d79551e4c4e66256d806dd566d4d015420519d2ed2621563488a5d2a8935001905060405180910390a15050506001600160a01b03909416600090815260036020526040902093909355505050565b80611cad8133610c01565b80611cc257506008546001600160a01b031633145b611d095760405162461bcd60e51b81526020600482015260186024820152771b9bdd081d985b1a59185d1bdc88199bdc881b585c9ad95d60421b6044820152606401610da6565b60008281526005602090815260408083205483526004918290529182902054915163d746d3ef60e01b81529081018490526001600160a01b039091169063d746d3ef90602401600060405180830381600087803b158015611d6957600080fd5b505af1158015611d7d573d6000803e3d6000fd5b50505050611d8a82613665565b600954604051634cb4408760e01b8152600481018490526001600160a01b0390911690634cb44087906024015b600060405180830381600087803b158015611dd157600080fd5b505af1158015611de5573d6000803e3d6000fd5b505050505050565b60606010805480602002602001604051908101604052809291908181526020018280548015611e4557602002820191906000526020600020905b81546001600160a01b03168152600190910190602001808311611e27575b5050505050905090565b80611e5a8133610c01565b80611e6f57506008546001600160a01b031633145b611eb65760405162461bcd60e51b81526020600482015260186024820152771b9bdd081d985b1a59185d1bdc88199bdc881b585c9ad95d60421b6044820152606401610da6565b600082815260056020908152604080832054835260049182905280832054905163709a664160e11b81529182018590528291829182916001600160a01b039091169063e134cc82906024016080604051808303816000875af1158015611f20573d6000803e3d6000fd5b505050506040513d601f19601f82011682018060405250810190611f449190615814565b60095460405163573ed96360e01b8152600481018c905285151560248201526044810185905260648101849052821515608482015294985092965090945092506001600160a01b03169063573ed9639060a401600060405180830381600087803b158015611fb157600080fd5b505af1158015611fc5573d6000803e3d6000fd5b505050600087815260208190526040902054611fe4915087908461371d565b611de586613665565b60105460609060009061200990670de0b6b3a764000090615247565b905061201660648561527c565b6121e45761203f604051806040016040528060048152602001636865726560e01b8152506135c6565b6001600160a01b0383166000908152600f602052604090205460ff16156121815760105460009061207290600190615230565b67ffffffffffffffff81111561208a5761208a614cad565b6040519080825280602002602001820160405280156120b3578160200160208202803683370190505b5090506000805b60105481101561217557601081815481106120d7576120d7615290565b6000918252602090912001546001600160a01b03878116911614156120ff5760019150612163565b6010818154811061211257612112615290565b6000918252602090912001546001600160a01b0316836121328484615230565b8151811061214257612142615290565b60200260200101906001600160a01b031690816001600160a01b0316815250505b8061216d816152a6565b9150506120ba565b508193505050506109fc565b60108054806020026020016040519081016040528092919081815260200182805480156121d757602002820191906000526020600020905b81546001600160a01b031681526001909101906020018083116121b9575b50505050509150506109fc565b60006122126064866121fe670de0b6b3a764000083615247565b6122089190615230565b610b6c919061527c565b9050612226670de0b6b3a76400008261527c565b905060606001600160a01b038516158061225957506001600160a01b0385166000908152600f602052604090205460ff16155b15612321578167ffffffffffffffff81111561227757612277614cad565b6040519080825280602002602001820160405280156122a0578160200160208202803683370190505b50905060005b8281101561231b57601081815481106122c1576122c1615290565b9060005260206000200160009054906101000a90046001600160a01b03168282815181106122f1576122f1615290565b6001600160a01b039092166020928302919091019091015280612313816152a6565b9150506122a6565b50612436565b61232c600183615230565b67ffffffffffffffff81111561234457612344614cad565b60405190808252806020026020018201604052801561236d578160200160208202803683370190505b5090506000805b8381101561243357866001600160a01b03166010828154811061239957612399615290565b6000918252602090912001546001600160a01b031614156123bd5760019150612421565b601081815481106123d0576123d0615290565b6000918252602090912001546001600160a01b0316836123f08484615230565b8151811061240057612400615290565b60200260200101906001600160a01b031690816001600160a01b0316815250505b8061242b816152a6565b915050612374565b50505b95945050505050565b6009546000906001600160a01b031633148061246557506008546001600160a01b031633145b6124815760405162461bcd60e51b8152600401610da69061549f565b6000838152600d6020908152604080832060058101546001600160a01b03871685529252909120546124b29161344b565b6000938452600d602090815260408086206001600160a01b03909516865293905291832092909255919050565b6124e98133610c01565b6125275760405162461bcd60e51b815260206004820152600f60248201526e3737ba1030903b30b634b230ba37b960891b6044820152606401610da6565b6000818152600d6020908152604080832033845260010190915290205460ff1661257e5760405162461bcd60e51b81526020600482015260086024820152676e6f207374616b6560c01b6044820152606401610da6565b600954604051637a513a1960e01b8152600481018390526001600160a01b0390911690637a513a1990602401602060405180830381865afa1580156125c7573d6000803e3d6000fd5b505050506040513d601f19601f820116820180604052508101906125eb91906152cc565b1561262b5760405162461bcd60e51b815260206004820152601060248201526f6d61726b6574206e6f7420616c69766560801b6044820152606401610da6565b600954604051633acc765360e01b8152600481018390526001600160a01b0390911690633acc765390602401602060405180830381865afa158015612674573d6000803e3d6000fd5b505050506040513d601f19601f8201168201806040525081019061269891906152cc565b6126da5760405162461bcd60e51b81526020600482015260136024820152721b585c9ad95d081b9bdd081c995cdbdb1d9959606a1b6044820152606401610da6565b600081815260056020908152604080832054835260049182905291829020546009549251636ff3062160e11b81529182018490526001600160a01b0390811692169063dfe60c4290602401602060405180830381865afa158015612742573d6000803e3d6000fd5b505050506040513d601f19601f8201168201806040525081019061276691906152cc565b156127d0576000828152600d60205260409020600a015461279c90339061278c856128ac565b6001600160a01b0316919061393c565b6000828152600d60205260408120600a81015460089091018054919290916127c5908490615230565b909155506128209050565b6000828152600d60205260409020600b01546127f190339061278c856128ac565b6000828152600d60205260408120600b810154600890910180549192909161281a908490615230565b90915550505b506000908152600d602090815260408083203384526001019091529020805460ff19169055565b6009546001600160a01b031633148061286a57506008546001600160a01b031633145b6128865760405162461bcd60e51b8152600401610da69061549f565b6000918252600d602090815260408084206001600160a01b039093168452919052812055565b600090815260056020908152604080832054835260049091529020546001600160a01b031690565b6128de8133610c01565b61293c5760405162461bcd60e51b815260206004820152602960248201527f6d7573742062652076616c696461746f7220746f207265736f6c76652074686560448201526810333ab731ba34b7b760b91b6064820152608401610da6565b600954604051637a513a1960e01b8152600481018390526001600160a01b0390911690637a513a1990602401602060405180830381865afa158015612985573d6000803e3d6000fd5b505050506040513d601f19601f820116820180604052508101906129a991906152cc565b6129e95760405162461bcd60e51b81526020600482015260116024820152706d61726b6574206e6f742061637469766560781b6044820152606401610da6565b600954604051636ff3062160e11b8152600481018390526001600160a01b039091169063dfe60c4290602401602060405180830381865afa158015612a32573d6000803e3d6000fd5b505050506040513d601f19601f82011682018060405250810190612a5691906152cc565b15612aa35760405162461bcd60e51b815260206004820152601860248201527f6d61726b657420647572696e67206173736573736d656e7400000000000000006044820152606401610da6565b6000818152600d6020908152604080832033845260020190915290205460ff1615612b1b5760405162461bcd60e51b815260206004820152602260248201527f76616c696461746f7220616c726561647920766f74656420746f207265736f6c604482015261766560f01b6064820152608401610da6565b6000818152600d60208181526040808420338552600281018352908420805460ff19166001179055848452919052600c01805491612b58836152a6565b919050555050565b6000818152600760209081526040918290208054835181840281018401909452808452606093928301828280156111ee57602002820191906000526020600020905b815481526020019060010190808311612ba25750505050509050919050565b6000612bcd8233610c01565b612c195760405162461bcd60e51b815260206004820152601e60248201527f6e6f7420612076616c696461746f7220666f7220746865206d61726b657400006044820152606401610da6565b600954604051636ff3062160e11b8152600481018490526001600160a01b039091169063dfe60c4290602401602060405180830381865afa158015612c62573d6000803e3d6000fd5b505050506040513d601f19601f82011682018060405250810190612c8691906152cc565b612cc55760405162461bcd60e51b815260206004820152601060248201526f185b1c9958591e48185c1c1c9bdd995960821b6044820152606401610da6565b60095460405163b743939b60e01b8152600481018490526001600160a01b039091169063b743939b90602401602060405180830381865afa158015612d0e573d6000803e3d6000fd5b505050506040513d601f19601f82011682018060405250810190612d3291906152cc565b612d7e5760405162461bcd60e51b815260206004820152601860248201527f6d61726b657420636f6e646974696f6e206e6f74206d657400000000000000006044820152606401610da6565b6000828152600d60209081526040808320338452600181019092529091205460ff1615612dfb5760405162461bcd60e51b815260206004820152602560248201527f63616c6c657220616c7265616479207374616b656420666f722074686973206d604482015264185c9ad95d60da1b6064820152608401610da6565b612e1f333083600a0154612e0e876128ac565b6001600160a01b03169291906139ba565b80600a0154816008016000828254612e379190615860565b909155505033600090815260018281016020526040808320805460ff19169092179091556009549051632a4a9dd160e01b8152600481018690526001600160a01b0390911690632a4a9dd19060240161010060405180830381865afa158015612ea4573d6000803e3d6000fd5b505050506040513d601f19601f82011682018060405250810190612ec891906153b4565b5050505050505090506000818360040154612ee3919061527c565b90506000612efe84600501548361344b90919063ffffffff16565b33600090815260208690526040902054909150821015612f535760405162461bcd60e51b815260206004820152601060248201526f185b1c9958591e48185c1c1c9bdd995960821b6044820152606401610da6565b3360009081526020859052604081208054849290612f72908490615860565b90915550612f839050826001615860565b846007016000828254612f969190615860565b925050819055506001846009016000828254612fb29190615860565b909155505060095460405163334b11d360e11b81526004810188905260248101839052604481018490523360648201526001600160a01b039091169063669623a690608401600060405180830381600087803b15801561301157600080fd5b505af1158015613025573d6000803e3d6000fd5b50505050613032866109bf565b156124365761304086613a3d565b60095460405163cabe2ae160e01b8152600481018890526001600160a01b039091169063cabe2ae190602401600060405180830381600087803b15801561308657600080fd5b505af115801561309a573d6000803e3d6000fd5b5050505095945050505050565b6000818152600d60205260408082206004908101546009549251632a4a9dd160e01b81529182018590529183916001600160a01b0390911690632a4a9dd19060240161010060405180830381865afa158015613107573d6000803e3d6000fd5b505050506040513d601f19601f8201168201806040525081019061312b91906153b4565b50505050505050905060008183613142919061527c565b6000868152600d602052604090206005015490915061243690829061344b565b6008546001600160a01b0316331461318c5760405162461bcd60e51b8152600401610da69061545e565b6001600160a01b03811661319f57600080fd5b600980546001600160a01b0319166001600160a01b0392909216919091179055565b6009546001600160a01b03163314806131e457506008546001600160a01b031633145b6132005760405162461bcd60e51b8152600401610da69061549f565b613209826128ac565b600954604051633c16f3ed60e21b8152600481018490526001600160a01b03918216602482015291169063f05bcfb490604401611db7565b60008061324d84613f3a565b90506000670de0b6b3a7640000613265836001615860565b6010546132729190615230565b61327c9190615247565b60105490915060009061329890670de0b6b3a764000090615247565b905060006132a68383613f98565b6132b1906064615247565b90508581106132c75760019450505050506109fc565b60009450505050506109fc565b6001600160a01b0382166000908152600e60205260409020548110613311576001600160a01b0382166000908152600e602052604081205561333f565b6001600160a01b0382166000908152600e602052604081208054839290613339908490615230565b90915550505b61334a826000613fad565b5050565b6009546001600160a01b031633148061337157506008546001600160a01b031633145b61338d5760405162461bcd60e51b8152600401610da69061549f565b600081815260056020908152604080832054835260049182905291829020549151633c16f3ed60e21b81529081018590526001600160a01b0384811660248301529091169063f05bcfb490604401600060405180830381600087803b1580156133f557600080fd5b505af1158015613409573d6000803e3d6000fd5b50505050505050565b6001600160a01b0382166000908152600e60205260408120805483929061343a908490615860565b9091555061334a9050826001613fad565b60006134608383670de0b6b3a76400006135a7565b9392505050565b60008060005b848160ff1610156134d957600e6000878360ff168151811061349157613491615290565b60200260200101516001600160a01b03166001600160a01b0316815260200190815260200160002054826134c59190615860565b9150806134d18161543e565b91505061346d565b5060006134e68285615878565b905060005b858160ff161015613568576000600e6000898460ff168151811061351157613511615290565b60200260200101516001600160a01b03166001600160a01b0316815260200190815260200160002054905080831015613552575060ff169250613460915050565b90910390806135608161543e565b9150506134eb565b5061359e6040518060400160405280601481526020017373686f756c64206e65766572206265206865726560601b8152506135c6565b50509392505050565b8282028115158415858304851417166135bf57600080fd5b0492915050565b613609816040516024016135da919061588c565b60408051601f198184030181529190526020810180516001600160e01b031663104c13eb60e21b179052614345565b50565b816136475760405162461bcd60e51b815260206004820152600b60248201526a0c081c1c9a5b98da5c185b60aa1b6044820152606401610da6565b613650836111fa565b61365b838383614366565b610a318383614548565b60095460405163068bcd8d60e01b8152600481018390526001600160a01b039091169063068bcd8d90602401602060405180830381865afa1580156136ae573d6000803e3d6000fd5b505050506040513d601f19601f820116820180604052508101906136d291906155cf565b6001600160a01b03166396fd1c426136e9836128ac565b6040516001600160e01b031960e084901b1681526001600160a01b0390911660048201526000196024820152604401610e70565b8061373f5750506000908152600d60205260409020600a810154600b90910155565b60008381526005602090815260408083205483526004918290528083205490516363737ac960e11b81529182018590526001600160a01b03169190829063c6e6f59290602401602060405180830381865afa1580156137a2573d6000803e3d6000fd5b505050506040513d601f19601f820116820180604052508101906137c691906154e2565b6040516363737ac960e11b8152600481018590529091506000906001600160a01b0384169063c6e6f59290602401602060405180830381865afa158015613811573d6000803e3d6000fd5b505050506040513d601f19601f8201168201806040525081019061383591906154e2565b6000878152600d602052604081206008015491925061387261385860028461527c565b61386c866138668782615230565b90613f98565b9061344b565b61387d60028461527c565b6138879190615860565b9050613892886128ac565b6001600160a01b03166342966c686138aa8385615230565b6040518263ffffffff1660e01b81526004016138c891815260200190565b600060405180830381600087803b1580156138e257600080fd5b505af11580156138f6573d6000803e3d6000fd5b5050506000898152600d60205260409020600881018390556003015461391d91508261527c565b6000988952600d6020526040909820600b019790975550505050505050565b600060405163a9059cbb60e01b8152836004820152826024820152602060006044836000895af13d15601f3d11600160005114161716915050806139b45760405162461bcd60e51b815260206004820152600f60248201526e1514905394d1915497d19052531151608a1b6044820152606401610da6565b50505050565b60006040516323b872dd60e01b81528460048201528360248201528260448201526020600060648360008a5af13d15601f3d1160016000511416171691505080610e9e5760405162461bcd60e51b81526020600482015260146024820152731514905394d1915497d19493d357d1905253115160621b6044820152606401610da6565b600081815260056020908152604080832054835260049182905280832054600954915163068bcd8d60e01b81529283018590526001600160a01b03908116939291169063068bcd8d90602401602060405180830381865afa158015613aa6573d6000803e3d6000fd5b505050506040513d601f19601f82011682018060405250810190613aca91906155cf565b600954604051634bee760b60e11b8152600481018690529192506001600160a01b0316906397dcec1690602401602060405180830381865afa158015613b14573d6000803e3d6000fd5b505050506040513d601f19601f82011682018060405250810190613b3891906154e2565b600314613b7a5760405162461bcd60e51b815260206004820152601060248201526f10b6b0b935b2ba21b7b73234ba34b7b760811b6044820152606401610da6565b60405163238f0e7560e11b8152600481018490526001600160a01b0383169063471e1cea90602401602060405180830381865afa158015613bbf573d6000803e3d6000fd5b505050506040513d601f19601f82011682018060405250810190613be391906152cc565b613c265760405162461bcd60e51b815260206004820152601460248201527310b4b739ba393ab6b2b73a21b7b73234ba34b7b760611b6044820152606401610da6565b600954604051636b51d35560e01b8152600481018590526000916001600160a01b031690636b51d35590602401602060405180830381865afa158015613c70573d6000803e3d6000fd5b505050506040513d601f19601f82011682018060405250810190613c9491906152cc565b60095460405163661f1cf560e01b8152600481018790529192506000916001600160a01b039091169063661f1cf590602401602060405180830381865afa158015613ce3573d6000803e3d6000fd5b505050506040513d601f19601f82011682018060405250810190613d0791906154e2565b90508115613d9a57613d958582866001600160a01b0316639ec4d40e896040518263ffffffff1660e01b8152600401613d4291815260200190565b600060405180830381865afa158015613d5f573d6000803e3d6000fd5b505050506040513d6000823e601f3d908101601f19168201604052613d87919081019061594f565b610180015160a0015161467b565b613e1a565b6040516303d972f160e21b8152600481018690526001600160a01b03851690630f65cbc490602401602060405180830381865afa158015613ddf573d6000803e3d6000fd5b505050506040513d601f19601f82011682018060405250810190613e0391906154e2565b613e1157613d9585846146fa565b613e1a85614933565b604051634b7e8e2160e11b81526001600160a01b038581166004830152602482018390528416906396fd1c4290604401600060405180830381600087803b158015613e6457600080fd5b505af1158015613e78573d6000803e3d6000fd5b505050600086815260208190526040908190209051636a9f1bdb60e01b81526004810188905281546024820152600190910154604482015283151560648201526001600160a01b0386169150636a9f1bdb90608401600060405180830381600087803b158015613ee757600080fd5b505af1158015613efb573d6000803e3d6000fd5b50505050826001600160a01b0316638d01450f6040518163ffffffff1660e01b8152600401600060405180830381600087803b15801561131e57600080fd5b6000805b601054811015613f925760108181548110613f5b57613f5b615290565b6000918252602090912001546001600160a01b0384811691161415613f805792915050565b80613f8a816152a6565b915050613f3e565b50919050565b600061346083670de0b6b3a7640000846135a7565b6001600160a01b0382166000908152600e6020908152604080832054600f9092529091205460ff166141c6576001600160a01b0383166000908152600f60205260409020805460ff19166001179055601054614057575050601080546001810182556000919091527f1b6847dc741a1b0cd08d278845f9d819d87b734759afb55fe2de5cb82a9ae6720180546001600160a01b0319166001600160a01b0392909216919091179055565b60005b6010548110156139b457600e60006010838154811061407b5761407b615290565b60009182526020808320909101546001600160a01b0316835282019290925260400190205482111561414857601080546001818101835560008390527f1b6847dc741a1b0cd08d278845f9d819d87b734759afb55fe2de5cb82a9ae67290910180546001600160a01b031916905590546141009183916140fb9190615230565b6149ec565b836010828154811061411457614114615290565b9060005260206000200160006101000a8154816001600160a01b0302191690836001600160a01b0316021790555050505050565b60105461415790600190615230565b8114156141b4575050601080546001810182556000919091527f1b6847dc741a1b0cd08d278845f9d819d87b734759afb55fe2de5cb82a9ae6720180546001600160a01b0319166001600160a01b03939093169290921790915550565b806141be816152a6565b91505061405a565b60006141d184613f3a565b9050801580156141de5750825b806141ff57506010546141f390600190615230565b811480156141ff575082155b1561420a5750505050565b82156142c95760005b818110156142c357600e60006010838154811061423257614232615290565b60009182526020808320909101546001600160a01b031683528201929092526040019020548311156142b15761426881836149ec565b846010828154811061427c5761427c615290565b9060005260206000200160006101000a8154816001600160a01b0302191690836001600160a01b031602179055505050505050565b806142bb816152a6565b915050614213565b506139b4565b6010546000906142db90600190615230565b90505b81811115610e9e57600e6000601083815481106142fd576142fd615290565b60009182526020808320909101546001600160a01b03168352820192909252604001902054831015614333576142688282614a7a565b8061433d81615427565b9150506142de565b80516a636f6e736f6c652e6c6f67602083016000808483855afa5050505050565b600954604051634bd9725160e11b8152600481018590526000916001600160a01b0316906397b2e4a290602401602060405180830381865afa1580156143b0573d6000803e3d6000fd5b505050506040513d601f19601f820116820180604052508101906143d491906155cf565b600954604051632a4a9dd160e01b8152600481018790529192506000916001600160a01b0390911690632a4a9dd19060240161010060405180830381865afa158015614424573d6000803e3d6000fd5b505050506040513d601f19601f8201168201806040525081019061444891906153b4565b50505050505091505061445a81614b08565b801561446a575061446a84614b08565b6144a15760405162461bcd60e51b81526020600482015260086024820152673830b930b6a2a92960c11b6044820152606401610da6565b6000858152600d60205260408120906144ba838761344b565b90506000846001600160a01b0316637063b06c6040518163ffffffff1660e01b8152600401602060405180830381865afa1580156144fc573d6000803e3d6000fd5b505050506040513d601f19601f8201168201806040525081019061452091906154e2565b9050600061452e8383613f98565b600485019290925550600590920191909155505050505050565b60008281526005602090815260408083205483526004918290528083205490516363737ac960e11b81529182018490526001600160a01b03169190829063c6e6f59290602401602060405180830381865afa1580156145ab573d6000803e3d6000fd5b505050506040513d601f19601f820116820180604052508101906145cf91906154e2565b600954604051632a4a9dd160e01b8152600481018790529192506000916001600160a01b0390911690632a4a9dd19060240161010060405180830381865afa15801561461f573d6000803e3d6000fd5b505050506040513d601f19601f8201168201806040525081019061464391906153b4565b97505050505050505061465f828261344b90919063ffffffff16565b6000958652600d6020526040909520600a019490945550505050565b600081116146ba5760405162461bcd60e51b815260206004820152600c60248201526b18102622ab2fa320a1aa27a960a11b6044820152606401610da6565b60408051808201909152806146cf848461344b565b8152600060209182018190529485528481526040909420815181559301516001909301929092555050565b60008281526005602090815260408083205483526004918290528083205490516318353be960e21b815291820185905282916001600160a01b03909116906360d4efa4906024016040805180830381865afa15801561475d573d6000803e3d6000fd5b505050506040513d601f19601f820116820180604052508101906147819190615a69565b60095460405163661f1cf560e01b81526004810188905292945090925060009161488991614883916001600160a01b039091169063661f1cf590602401602060405180830381865afa1580156147db573d6000803e3d6000fd5b505050506040513d601f19601f820116820180604052508101906147ff91906154e2565b60095460405163c6ceb96b60e01b8152600481018a9052670de0b6b3a7640000916001600160a01b03169063c6ceb96b9060240161010060405180830381865afa158015614851573d6000803e3d6000fd5b505050506040513d601f19601f82011682018060405250810190614875919061551d565b60c0015161386c9190615860565b84614b27565b905060006148ff856001600160a01b03166314e2b929846040518263ffffffff1660e01b81526004016148be91815260200190565b602060405180830381865afa1580156148db573d6000803e3d6000fd5b505050506040513d601f19601f8201168201806040525081019061488391906154e2565b6040805180820182529384526020808501928352600098895288905290962091518255509351600190940193909355505050565b60008181526005602090815260408083205483526004918290528083205490516318353be960e21b815291820184905282916001600160a01b03909116906360d4efa4906024016040805180830381865afa158015614996573d6000803e3d6000fd5b505050506040513d601f19601f820116820180604052508101906149ba9190615a69565b604080518082018252928352602080840192835260009687528690529094209051815592516001909301929092555050565b805b82811115610a31576010614a03600183615230565b81548110614a1357614a13615290565b600091825260209091200154601080546001600160a01b039092169183908110614a3f57614a3f615290565b600091825260209091200180546001600160a01b0319166001600160a01b039290921691909117905580614a7281615427565b9150506149ee565b815b81811015610a31576010614a91826001615860565b81548110614aa157614aa1615290565b600091825260209091200154601080546001600160a01b039092169183908110614acd57614acd615290565b600091825260209091200180546001600160a01b0319166001600160a01b039290921691909117905580614b00816152a6565b915050614a7c565b6000614b1e612710670de0b6b3a764000061527c565b90911015919050565b600081831115614b375781613460565b5090919050565b828054828255906000526020600020908101928215614b93579160200282015b82811115614b9357825182546001600160a01b0319166001600160a01b03909116178255602090920191600190910190614b5e565b50614b9f929150614ba3565b5090565b5b80821115614b9f5760008155600101614ba4565b600060208284031215614bca57600080fd5b5035919050565b6001600160a01b038116811461360957600080fd5b8035614bf181614bd1565b919050565b60008060408385031215614c0957600080fd5b8235614c1481614bd1565b946020939093013593505050565b801515811461360957600080fd5b8035614bf181614c22565b60008060408385031215614c4e57600080fd5b823591506020830135614c6081614c22565b809150509250929050565b600060208284031215614c7d57600080fd5b813561346081614bd1565b60008060408385031215614c9b57600080fd5b823591506020830135614c6081614bd1565b634e487b7160e01b600052604160045260246000fd5b604051610100810167ffffffffffffffff81118282101715614ce757614ce7614cad565b60405290565b60405160c0810167ffffffffffffffff81118282101715614ce757614ce7614cad565b6040516101a0810167ffffffffffffffff81118282101715614ce757614ce7614cad565b604051601f8201601f1916810167ffffffffffffffff81118282101715614d5d57614d5d614cad565b604052919050565b6000806000806000808688036101a0811215614d8057600080fd5b8735614d8b81614bd1565b96506020880135614d9b81614c22565b9550604088013594506060880135935060808801359250610100609f198201811315614dc657600080fd5b614dce614cc3565b915060a0890135825260c0890135602083015260e0890135604083015280890135606083015250610120880135608082015261014088013560a082015261016088013560c082015261018088013560e0820152809150509295509295509295565b60008060408385031215614e4257600080fd5b8235915060208084013567ffffffffffffffff80821115614e6257600080fd5b818601915086601f830112614e7657600080fd5b813581811115614e8857614e88614cad565b8060051b9150614e99848301614d34565b8181529183018401918481019089841115614eb357600080fd5b938501935b83851015614ed157843582529385019390850190614eb8565b8096505050505050509250929050565b6020808252825182820181905260009190848201906040850190845b818110156124335783516001600160a01b031683529284019291840191600101614efd565b60008060408385031215614f3557600080fd5b50508035926020909101359150565b600080600060608486031215614f5957600080fd5b833592506020840135614f6b81614bd1565b91506040840135614f7b81614c22565b809150509250925092565b600067ffffffffffffffff821115614fa057614fa0614cad565b50601f01601f191660200190565b600082601f830112614fbf57600080fd5b8135614fd2614fcd82614f86565b614d34565b818152846020838601011115614fe757600080fd5b816020850160208301376000918101602001919091529392505050565b6004811061360957600080fd5b8035614bf181615004565b600060c0828403121561502e57600080fd5b615036614ced565b9050813581526020820135602082015260408201356040820152606082013560608201526080820135608082015260a082013560a082015292915050565b60008060006060848603121561508957600080fd5b833561509481614bd1565b9250602084013567ffffffffffffffff808211156150b157600080fd5b9085019061024082880312156150c657600080fd5b6150ce614d10565b6150d783614c30565b81526150e560208401614c30565b602082015260408301356040820152606083013560608201526080830135608082015260a083013560a082015260c083013560c082015260e083013560e0820152610100808401358381111561513a57600080fd5b6151468a828701614fae565b828401525050610120915061515c828401614be6565b828201526101409150615170828401615011565b828201526101609150818301358282015261018091506151928883850161501c565b82820152809450505050604084013590509250925092565b6020808252825182820181905260009190848201906040850190845b81811015612433578351835292840192918401916001016151c6565b6000806000606084860312156151f757600080fd5b83359250602084013561520981614bd1565b929592945050506040919091013590565b634e487b7160e01b600052601160045260246000fd5b6000828210156152425761524261521a565b500390565b60008160001904831182151516156152615761526161521a565b500290565b634e487b7160e01b600052601260045260246000fd5b60008261528b5761528b615266565b500490565b634e487b7160e01b600052603260045260246000fd5b60006000198214156152ba576152ba61521a565b5060010190565b8051614bf181614c22565b6000602082840312156152de57600080fd5b815161346081614c22565b805182526020810151602083015260408101516040830152606081015160608301526080810151608083015260a081015160a083015260c081015160c083015260e081015160e08301525050565b6001600160a01b038881168252871660208201528515156040820152606081018590526080810184905260a081018390526101c0810161537a60c08301846152e9565b98975050505050505050565b6000806040838503121561539957600080fd5b82516153a481614bd1565b6020939093015192949293505050565b600080600080600080600080610100898b0312156153d157600080fd5b505086516020880151604089015160608a015160808b015160a08c015160c08d015160e0909d0151959e949d50929b919a50985090965094509092509050565b634e487b7160e01b600052600160045260246000fd5b6000816154365761543661521a565b506000190190565b600060ff821660ff8114156154555761545561521a565b60010192915050565b60208082526021908201527f4f6e6c79204f776e65722063616e2063616c6c20746869732066756e6374696f6040820152603760f91b606082015260800190565b60208082526023908201527f4f6e6c79204d616e616765722063616e2063616c6c20746869732066756e637460408201526234b7b760e91b606082015260800190565b6000602082840312156154f457600080fd5b5051919050565b602080825260089082015267061646472657373360c41b604082015260600190565b600061010080838503121561553157600080fd5b6040519081019067ffffffffffffffff8211818310171561555457615554614cad565b81604052835181526020840151602082015260408401516040820152606084015160608201526080840151608082015260a084015160a082015260c084015160c082015260e084015160e0820152809250505092915050565b61014081016155bc82866152e9565b6101008201939093526101200152919050565b6000602082840312156155e157600080fd5b815161346081614bd1565b8051614bf181614bd1565b60008060006060848603121561560c57600080fd5b835161561781614bd1565b602085015190935061562881614bd1565b6040850151909250614f7b81614bd1565b60005b8381101561565457818101518382015260200161563c565b838111156139b45750506000910152565b6000815180845261567d816020860160208601615639565b601f01601f19169290920160200192915050565b8681526001600160a01b03868116602083015285811660408301528416606082015260c0608082018190526000906156cb90830185615665565b905082151560a0830152979650505050505050565b600481106156fe57634e487b7160e01b600052602160045260246000fd5b9052565b6020815261571560208201835115159052565b6000602083015161572a604084018215159052565b506040830151606083015260608301516080830152608083015160a083015260a083015160c083015260c083015160e083015260e083015161010081818501528085015191505061012061024081850152615789610260850183615665565b908501519091506101406157a7858201836001600160a01b03169052565b85015190506101606157bb858201836156e0565b8501516101808581019190915285015180516101a086015260208101516101c086015260408101516101e08601526060810151610200860152608081015161022086015260a08101516102408601529050509392505050565b6000806000806080858703121561582a57600080fd5b845161583581614c22565b809450506020850151925060408501519150606085015161585581614c22565b939692955090935050565b600082198211156158735761587361521a565b500190565b60008261588757615887615266565b500690565b6020815260006134606020830184615665565b600082601f8301126158b057600080fd5b81516158be614fcd82614f86565b8181528460208386010111156158d357600080fd5b6158e4826020830160208701615639565b949350505050565b8051614bf181615004565b600060c0828403121561590957600080fd5b615911614ced565b9050815181526020820151602082015260408201516040820152606082015160608201526080820151608082015260a082015160a082015292915050565b60006020828403121561596157600080fd5b815167ffffffffffffffff8082111561597957600080fd5b90830190610240828603121561598e57600080fd5b615996614d10565b61599f836152c1565b81526159ad602084016152c1565b602082015260408301516040820152606083015160608201526080830151608082015260a083015160a082015260c083015160c082015260e083015160e08201526101008084015183811115615a0257600080fd5b615a0e8882870161589f565b8284015250506101209150615a248284016155ec565b828201526101409150615a388284016158ec565b82820152610160915081830151828201526101809150615a5a868385016158f7565b91810191909152949350505050565b60008060408385031215615a7c57600080fd5b50508051602090910151909290915056fea2646970667358221220ba42582f5a6745019e7568f8548dcf7bce7c0ee1d3665c54e2ffbd92c542f6ef64736f6c634300080c0033",
  "devdoc": {
    "kind": "dev",
    "methods": {
      "_decrementScore(address,uint256)": {
        "details": "score >= 0, update > 0"
      },
      "_filterTraders(uint256,address)": {
        "details": "percentile is is wad 0-100"
      },
      "_getValidators(uint256)": {
        "details": "for now called on market initialization"
      },
      "_incrementScore(address,uint256)": {
        "details": "score >= 0, update > 0"
      },
      "beforeResolve(uint256)": {
        "details": "Prepare market/instrument for closing, called separately before resolveMarket this is either called automatically from the instrument when conditions are met i.e fully repaid principal + interest or, in the event of a default, by validators who deem the principal recouperation is finished and need to collect remaining funds by redeeming ZCB"
      },
      "calculateMinScore(uint256)": {
        "details": "returns 0 on no minimum threshold",
        "params": {
          "percentile": ": 0-100 WAD"
        }
      },
      "createVault(address,bool,uint256,uint256,uint256,(uint256,uint256,uint256,uint256,uint256,uint256,uint256,uint256))": {
        "params": {
          "_asset_limit": ": max number of shares for a single address",
          "_onlyVerified": ": only verified users can mint shares",
          "_r": ": minimum reputation score to mint shares",
          "_total_asset_limit": ": max number of shares for entire vault",
          "default_params": ": default params for markets created by vault",
          "underlying": ": underlying asset for vault"
        }
      },
      "denyMarket(uint256)": {
        "details": "called by validator denial of market."
      },
      "forceCloseInstrument(uint256,bool)": {
        "details": "withdraws all balance from the instrument.  If assets in instrument is not in underlying, need all balances to be divested to underlying  Ideally this should be called by several validators, maybe implement a voting scheme and have a keeper call it.",
        "params": {
          "emergency": "ascribes cases where the instrument should be forcefully liquidated back to the vault"
        }
      },
      "fulfillRandomWords(uint256,uint256[])": {
        "details": "TODO => can be called by anyone?"
      },
      "initiateMarket(address,(bool,bool,uint256,uint256,uint256,uint256,uint256,uint256,string,address,uint8,uint256,(uint256,uint256,uint256,uint256,uint256,uint256)),uint256)": {
        "details": "Instrument should already be deployed ",
        "params": {
          "instrumentData": ": instrument arguments",
          "recipient": ": utilizer for the associated instrument",
          "vaultId": ": vault identifier"
        }
      },
      "isReputable(address,uint256)": {
        "params": {
          "percentile": ": 0-100 w/ WAD."
        }
      },
      "resolveMarket(uint256)": {
        "details": "validators call this function from market manager any funds left for the instrument, irrespective of whether it is in profit or inloss. "
      },
      "validatorApprove(uint256)": {
        "details": "get val_cap, the total amount of zcb for sale and each validators should buy  val_cap/num validators zcb  They also need to hold the corresponding vault, so they are incentivized to assess at a systemic level and avoid highly  correlated instruments triggers controller.approveMarket"
      }
    },
    "version": 1
  },
  "userdoc": {
    "kind": "user",
    "methods": {
      "_decrementScore(address,uint256)": {
        "notice": "decrements trader's score"
      },
      "_filterTraders(uint256,address)": {
        "notice": "returns a list of top X percentile traders excluding the utilizer. "
      },
      "_getValidators(uint256)": {
        "notice": "randomly choose validators for market approval, async operation => fulfillRandomness is the callback function."
      },
      "_incrementScore(address,uint256)": {
        "notice": "increments trader's score"
      },
      "approvalCondition(uint256)": {
        "notice": "conditions for approval => validator zcb stake fulfilled + validators have all approved"
      },
      "beforeResolve(uint256)": {
        "notice": "Resolve function 1"
      },
      "calculateMinScore(uint256)": {
        "notice": "finds the first trader within the percentile"
      },
      "createVault(address,bool,uint256,uint256,uint256,(uint256,uint256,uint256,uint256,uint256,uint256,uint256,uint256))": {
        "notice": "creates vault"
      },
      "deniedValidator(uint256,address)": {
        "notice": "called by marketManager.redeemDeniedMarket, redeems the discounted ZCB"
      },
      "forceCloseInstrument(uint256,bool)": {
        "notice": "function that closes the instrument/market before maturity, maybe to realize gains/cut losses fast or debt is prematurely fully repaid, or underlying strategy is deemed dangerous, etc.  After, the resolveMarket function should be called in a new block  "
      },
      "fulfillRandomWords(uint256,uint256[])": {
        "notice": "chainlink callback function, sets validators."
      },
      "getTraders()": {
        "notice": "retrieves all rated traders"
      },
      "initiateMarket(address,(bool,bool,uint256,uint256,uint256,uint256,uint256,uint256,string,address,uint8,uint256,(uint256,uint256,uint256,uint256,uint256,uint256)),uint256)": {
        "notice": "initiates market, called by frontend loan proposal or instrument form submit button."
      },
      "isReputable(address,uint256)": {
        "notice": "calculates whether a trader meets the requirements to trade during the reputation assessment phase."
      },
      "isValidator(uint256,address)": {
        "notice": "returns true if user is validator for corresponding market"
      },
      "redeem_transfer(uint256,address,uint256)": {
        "notice": "called only when redeeming, transfer funds from vault "
      },
      "resolveCondition(uint256)": {
        "notice": "condition for resolving market, met when all the validators chosen for the market have voted to resolve."
      },
      "resolveMarket(uint256)": {
        "notice": "Resolve function 2main function called at maturity OR premature resolve of instrument(from early default)  "
      },
      "unlockValidatorStake(uint256)": {
        "notice": "called by validators when the market is resolved or denied to retrieve their stake."
      },
      "updateReputation(uint256,address,bool)": {
        "notice": "when market is resolved(maturity/early default), calculates score and update each assessment phase trader's reputation, called by individual traders when redeeming "
      },
      "validatorApprove(uint256)": {
        "notice": "allows validators to buy at a discount + automatically stake a percentage of the principal They can only buy a fixed amount of ZCB, usually a at lot larger amount "
      },
      "validatorResolve(uint256)": {
        "notice": "called by validators to approve resolving the market, after approval."
      }
    },
    "version": 1
  },
  "storageLayout": {
    "storage": [
      {
        "astId": 7796,
        "contract": "contracts/protocol/controller.sol:Controller",
        "label": "approvalDatas",
        "offset": 0,
        "slot": "0",
        "type": "t_mapping(t_uint256,t_struct(ApprovalData)7785_storage)"
      },
      {
        "astId": 7813,
        "contract": "contracts/protocol/controller.sol:Controller",
        "label": "verified",
        "offset": 0,
        "slot": "1",
        "type": "t_mapping(t_address,t_bool)"
      },
      {
        "astId": 7818,
        "contract": "contracts/protocol/controller.sol:Controller",
        "label": "market_data",
        "offset": 0,
        "slot": "2",
        "type": "t_mapping(t_uint256,t_struct(MarketData)7780_storage)"
      },
      {
        "astId": 7822,
        "contract": "contracts/protocol/controller.sol:Controller",
        "label": "ad_to_id",
        "offset": 0,
        "slot": "3",
        "type": "t_mapping(t_address,t_uint256)"
      },
      {
        "astId": 7827,
        "contract": "contracts/protocol/controller.sol:Controller",
        "label": "vaults",
        "offset": 0,
        "slot": "4",
        "type": "t_mapping(t_uint256,t_contract(Vault)24723)"
      },
      {
        "astId": 7831,
        "contract": "contracts/protocol/controller.sol:Controller",
        "label": "id_parent",
        "offset": 0,
        "slot": "5",
        "type": "t_mapping(t_uint256,t_uint256)"
      },
      {
        "astId": 7835,
        "contract": "contracts/protocol/controller.sol:Controller",
        "label": "vault_debt",
        "offset": 0,
        "slot": "6",
        "type": "t_mapping(t_uint256,t_uint256)"
      },
      {
        "astId": 7840,
        "contract": "contracts/protocol/controller.sol:Controller",
        "label": "vault_to_marketIds",
        "offset": 0,
        "slot": "7",
        "type": "t_mapping(t_uint256,t_array(t_uint256)dyn_storage)"
      },
      {
        "astId": 7842,
        "contract": "contracts/protocol/controller.sol:Controller",
        "label": "creator_address",
        "offset": 0,
        "slot": "8",
        "type": "t_address"
      },
      {
        "astId": 7845,
        "contract": "contracts/protocol/controller.sol:Controller",
        "label": "marketManager",
        "offset": 0,
        "slot": "9",
        "type": "t_contract(MarketManager)14711"
      },
      {
        "astId": 7848,
        "contract": "contracts/protocol/controller.sol:Controller",
        "label": "vaultFactory",
        "offset": 0,
        "slot": "10",
        "type": "t_contract(VaultFactory)10970"
      },
      {
        "astId": 7851,
        "contract": "contracts/protocol/controller.sol:Controller",
        "label": "poolFactory",
        "offset": 0,
        "slot": "11",
        "type": "t_contract(SyntheticZCBPoolFactory)7015"
      },
      {
        "astId": 8774,
        "contract": "contracts/protocol/controller.sol:Controller",
        "label": "requestToMarketId",
        "offset": 0,
        "slot": "12",
        "type": "t_mapping(t_uint256,t_uint256)"
      },
      {
        "astId": 8779,
        "contract": "contracts/protocol/controller.sol:Controller",
        "label": "validator_data",
        "offset": 0,
        "slot": "13",
        "type": "t_mapping(t_uint256,t_struct(ValidatorData)8770_storage)"
      },
      {
        "astId": 9935,
        "contract": "contracts/protocol/controller.sol:Controller",
        "label": "trader_scores",
        "offset": 0,
        "slot": "14",
        "type": "t_mapping(t_address,t_uint256)"
      },
      {
        "astId": 9939,
        "contract": "contracts/protocol/controller.sol:Controller",
        "label": "isRated",
        "offset": 0,
        "slot": "15",
        "type": "t_mapping(t_address,t_bool)"
      },
      {
        "astId": 9942,
        "contract": "contracts/protocol/controller.sol:Controller",
        "label": "traders",
        "offset": 0,
        "slot": "16",
        "type": "t_array(t_address)dyn_storage"
      }
    ],
    "types": {
      "t_address": {
        "encoding": "inplace",
        "label": "address",
        "numberOfBytes": "20"
      },
      "t_array(t_address)dyn_storage": {
        "base": "t_address",
        "encoding": "dynamic_array",
        "label": "address[]",
        "numberOfBytes": "32"
      },
      "t_array(t_uint256)dyn_storage": {
        "base": "t_uint256",
        "encoding": "dynamic_array",
        "label": "uint256[]",
        "numberOfBytes": "32"
      },
      "t_bool": {
        "encoding": "inplace",
        "label": "bool",
        "numberOfBytes": "1"
      },
      "t_contract(MarketManager)14711": {
        "encoding": "inplace",
        "label": "contract MarketManager",
        "numberOfBytes": "20"
      },
      "t_contract(SyntheticZCBPoolFactory)7015": {
        "encoding": "inplace",
        "label": "contract SyntheticZCBPoolFactory",
        "numberOfBytes": "20"
      },
      "t_contract(Vault)24723": {
        "encoding": "inplace",
        "label": "contract Vault",
        "numberOfBytes": "20"
      },
      "t_contract(VaultFactory)10970": {
        "encoding": "inplace",
        "label": "contract VaultFactory",
        "numberOfBytes": "20"
      },
      "t_mapping(t_address,t_bool)": {
        "encoding": "mapping",
        "key": "t_address",
        "label": "mapping(address => bool)",
        "numberOfBytes": "32",
        "value": "t_bool"
      },
      "t_mapping(t_address,t_uint256)": {
        "encoding": "mapping",
        "key": "t_address",
        "label": "mapping(address => uint256)",
        "numberOfBytes": "32",
        "value": "t_uint256"
      },
      "t_mapping(t_uint256,t_array(t_uint256)dyn_storage)": {
        "encoding": "mapping",
        "key": "t_uint256",
        "label": "mapping(uint256 => uint256[])",
        "numberOfBytes": "32",
        "value": "t_array(t_uint256)dyn_storage"
      },
      "t_mapping(t_uint256,t_contract(Vault)24723)": {
        "encoding": "mapping",
        "key": "t_uint256",
        "label": "mapping(uint256 => contract Vault)",
        "numberOfBytes": "32",
        "value": "t_contract(Vault)24723"
      },
      "t_mapping(t_uint256,t_struct(ApprovalData)7785_storage)": {
        "encoding": "mapping",
        "key": "t_uint256",
        "label": "mapping(uint256 => struct Controller.ApprovalData)",
        "numberOfBytes": "32",
        "value": "t_struct(ApprovalData)7785_storage"
      },
      "t_mapping(t_uint256,t_struct(MarketData)7780_storage)": {
        "encoding": "mapping",
        "key": "t_uint256",
        "label": "mapping(uint256 => struct Controller.MarketData)",
        "numberOfBytes": "32",
        "value": "t_struct(MarketData)7780_storage"
      },
      "t_mapping(t_uint256,t_struct(ValidatorData)8770_storage)": {
        "encoding": "mapping",
        "key": "t_uint256",
        "label": "mapping(uint256 => struct Controller.ValidatorData)",
        "numberOfBytes": "32",
        "value": "t_struct(ValidatorData)8770_storage"
      },
      "t_mapping(t_uint256,t_uint256)": {
        "encoding": "mapping",
        "key": "t_uint256",
        "label": "mapping(uint256 => uint256)",
        "numberOfBytes": "32",
        "value": "t_uint256"
      },
      "t_struct(ApprovalData)7785_storage": {
        "encoding": "inplace",
        "label": "struct Controller.ApprovalData",
        "members": [
          {
            "astId": 7782,
            "contract": "contracts/protocol/controller.sol:Controller",
            "label": "approved_principal",
            "offset": 0,
            "slot": "0",
            "type": "t_uint256"
          },
          {
            "astId": 7784,
            "contract": "contracts/protocol/controller.sol:Controller",
            "label": "approved_yield",
            "offset": 0,
            "slot": "1",
            "type": "t_uint256"
          }
        ],
        "numberOfBytes": "64"
      },
      "t_struct(MarketData)7780_storage": {
        "encoding": "inplace",
        "label": "struct Controller.MarketData",
        "members": [
          {
            "astId": 7777,
            "contract": "contracts/protocol/controller.sol:Controller",
            "label": "instrument_address",
            "offset": 0,
            "slot": "0",
            "type": "t_address"
          },
          {
            "astId": 7779,
            "contract": "contracts/protocol/controller.sol:Controller",
            "label": "utilizer",
            "offset": 0,
            "slot": "1",
            "type": "t_address"
          }
        ],
        "numberOfBytes": "64"
      },
      "t_struct(ValidatorData)8770_storage": {
        "encoding": "inplace",
        "label": "struct Controller.ValidatorData",
        "members": [
          {
            "astId": 8740,
            "contract": "contracts/protocol/controller.sol:Controller",
            "label": "sales",
            "offset": 0,
            "slot": "0",
            "type": "t_mapping(t_address,t_uint256)"
          },
          {
            "astId": 8744,
            "contract": "contracts/protocol/controller.sol:Controller",
            "label": "staked",
            "offset": 0,
            "slot": "1",
            "type": "t_mapping(t_address,t_bool)"
          },
          {
            "astId": 8748,
            "contract": "contracts/protocol/controller.sol:Controller",
            "label": "resolved",
            "offset": 0,
            "slot": "2",
            "type": "t_mapping(t_address,t_bool)"
          },
          {
            "astId": 8751,
            "contract": "contracts/protocol/controller.sol:Controller",
            "label": "validators",
            "offset": 0,
            "slot": "3",
            "type": "t_array(t_address)dyn_storage"
          },
          {
            "astId": 8753,
            "contract": "contracts/protocol/controller.sol:Controller",
            "label": "val_cap",
            "offset": 0,
            "slot": "4",
            "type": "t_uint256"
          },
          {
            "astId": 8755,
            "contract": "contracts/protocol/controller.sol:Controller",
            "label": "avg_price",
            "offset": 0,
            "slot": "5",
            "type": "t_uint256"
          },
          {
            "astId": 8757,
            "contract": "contracts/protocol/controller.sol:Controller",
            "label": "requested",
            "offset": 0,
            "slot": "6",
            "type": "t_bool"
          },
          {
            "astId": 8759,
            "contract": "contracts/protocol/controller.sol:Controller",
            "label": "totalSales",
            "offset": 0,
            "slot": "7",
            "type": "t_uint256"
          },
          {
            "astId": 8761,
            "contract": "contracts/protocol/controller.sol:Controller",
            "label": "totalStaked",
            "offset": 0,
            "slot": "8",
            "type": "t_uint256"
          },
          {
            "astId": 8763,
            "contract": "contracts/protocol/controller.sol:Controller",
            "label": "numApproved",
            "offset": 0,
            "slot": "9",
            "type": "t_uint256"
          },
          {
            "astId": 8765,
            "contract": "contracts/protocol/controller.sol:Controller",
            "label": "initialStake",
            "offset": 0,
            "slot": "10",
            "type": "t_uint256"
          },
          {
            "astId": 8767,
            "contract": "contracts/protocol/controller.sol:Controller",
            "label": "finalStake",
            "offset": 0,
            "slot": "11",
            "type": "t_uint256"
          },
          {
            "astId": 8769,
            "contract": "contracts/protocol/controller.sol:Controller",
            "label": "numResolved",
            "offset": 0,
            "slot": "12",
            "type": "t_uint256"
          }
        ],
        "numberOfBytes": "416"
      },
      "t_uint256": {
        "encoding": "inplace",
        "label": "uint256",
        "numberOfBytes": "32"
      }
    }
  }
}