{
  "address": "0x38fCC8c20b6CDDBaBa8E764830030764f99f4CB1",
  "abi": [
    {
      "inputs": [
        {
          "internalType": "address",
          "name": "_creator_address",
          "type": "address"
        },
        {
          "internalType": "address",
          "name": "_timelock_address",
          "type": "address"
        },
        {
          "internalType": "address",
          "name": "_MasterChef_address",
          "type": "address"
        },
        {
          "internalType": "address",
          "name": "_LendingPool_address",
          "type": "address"
        },
        {
          "internalType": "address",
          "name": "_DS_address",
          "type": "address"
        },
        {
          "internalType": "address",
          "name": "_interep_address",
          "type": "address"
        }
      ],
      "stateMutability": "nonpayable",
      "type": "constructor"
    },
    {
      "inputs": [
        {
          "components": [
            {
              "internalType": "address",
              "name": "ammFactoryAddress",
              "type": "address"
            },
            {
              "internalType": "address",
              "name": "marketFactoryAddress",
              "type": "address"
            },
            {
              "internalType": "uint256",
              "name": "liquidityAmountUSD",
              "type": "uint256"
            },
            {
              "internalType": "uint256",
              "name": "marketID",
              "type": "uint256"
            },
            {
              "internalType": "string",
              "name": "description",
              "type": "string"
            },
            {
              "internalType": "string[]",
              "name": "names",
              "type": "string[]"
            },
            {
              "internalType": "uint256[]",
              "name": "odds",
              "type": "uint256[]"
            }
          ],
          "internalType": "struct IController.MarketInfo",
          "name": "marketData",
          "type": "tuple"
        },
        {
          "internalType": "address",
          "name": "recipient",
          "type": "address"
        },
        {
          "internalType": "string",
          "name": "loanID",
          "type": "string"
        }
      ],
      "name": "_initiateMarket",
      "outputs": [],
      "stateMutability": "nonpayable",
      "type": "function"
    },
    {
      "inputs": [
        {
          "internalType": "address",
          "name": "validator_address",
          "type": "address"
        }
      ],
      "name": "addValidator",
      "outputs": [],
      "stateMutability": "nonpayable",
      "type": "function"
    },
    {
      "inputs": [
        {
          "internalType": "address",
          "name": "recipient",
          "type": "address"
        },
        {
          "internalType": "string",
          "name": "id",
          "type": "string"
        },
        {
          "internalType": "address",
          "name": "marketFactory",
          "type": "address"
        }
      ],
      "name": "approveLoan",
      "outputs": [],
      "stateMutability": "nonpayable",
      "type": "function"
    },
    {
      "inputs": [
        {
          "internalType": "address",
          "name": "",
          "type": "address"
        },
        {
          "internalType": "bytes32",
          "name": "",
          "type": "bytes32"
        }
      ],
      "name": "borrower_market_data",
      "outputs": [
        {
          "internalType": "address",
          "name": "ammFactoryAddress",
          "type": "address"
        },
        {
          "internalType": "address",
          "name": "marketFactoryAddress",
          "type": "address"
        },
        {
          "internalType": "uint256",
          "name": "liquidityAmountUSD",
          "type": "uint256"
        },
        {
          "internalType": "uint256",
          "name": "marketID",
          "type": "uint256"
        },
        {
          "internalType": "string",
          "name": "description",
          "type": "string"
        }
      ],
      "stateMutability": "view",
      "type": "function"
    },
    {
      "inputs": [
        {
          "internalType": "address",
          "name": "borrower",
          "type": "address"
        },
        {
          "internalType": "string",
          "name": "loanID",
          "type": "string"
        },
        {
          "internalType": "address",
          "name": "marketFactoryAddress",
          "type": "address"
        }
      ],
      "name": "canBeApproved",
      "outputs": [
        {
          "internalType": "bool",
          "name": "",
          "type": "bool"
        }
      ],
      "stateMutability": "nonpayable",
      "type": "function"
    },
    {
      "inputs": [
        {
          "internalType": "address",
          "name": "borrower",
          "type": "address"
        },
        {
          "internalType": "address",
          "name": "ammFactoryAddress",
          "type": "address"
        },
        {
          "internalType": "address",
          "name": "marketFactoryAddress",
          "type": "address"
        },
        {
          "internalType": "uint256",
          "name": "liquidityAmountUSD",
          "type": "uint256"
        },
        {
          "internalType": "string",
          "name": "description",
          "type": "string"
        },
        {
          "internalType": "string",
          "name": "loanID",
          "type": "string"
        },
        {
          "internalType": "string[]",
          "name": "names",
          "type": "string[]"
        },
        {
          "internalType": "uint256[]",
          "name": "odds",
          "type": "uint256[]"
        }
      ],
      "name": "initiateMarket",
      "outputs": [],
      "stateMutability": "nonpayable",
      "type": "function"
    },
    {
      "inputs": [
        {
          "internalType": "address",
          "name": "recipient",
          "type": "address"
        },
        {
          "internalType": "bytes32",
          "name": "loanID",
          "type": "bytes32"
        },
        {
          "internalType": "bool",
          "name": "isDefault",
          "type": "bool"
        }
      ],
      "name": "resolveMarket",
      "outputs": [],
      "stateMutability": "nonpayable",
      "type": "function"
    },
    {
      "inputs": [
        {
          "internalType": "address",
          "name": "",
          "type": "address"
        }
      ],
      "name": "validators",
      "outputs": [
        {
          "internalType": "bool",
          "name": "",
          "type": "bool"
        }
      ],
      "stateMutability": "view",
      "type": "function"
    },
    {
      "inputs": [
        {
          "internalType": "address",
          "name": "",
          "type": "address"
        }
      ],
      "name": "verified",
      "outputs": [
        {
          "internalType": "bool",
          "name": "",
          "type": "bool"
        }
      ],
      "stateMutability": "view",
      "type": "function"
    },
    {
      "inputs": [
        {
          "internalType": "uint256",
          "name": "nullifier_hash",
          "type": "uint256"
        },
        {
          "internalType": "uint256",
          "name": "external_nullifier",
          "type": "uint256"
        },
        {
          "internalType": "uint256[8]",
          "name": "proof",
          "type": "uint256[8]"
        }
      ],
      "name": "verifyAddress",
      "outputs": [],
      "stateMutability": "nonpayable",
      "type": "function"
    }
  ],
  "transactionHash": "0xac2ac327890563421ff8e458032c12cf1ab664131fe33d96742ab3a963cf1035",
  "args": [
    "0xFD84b7AC1E646580db8c77f1f05F47977fAda692",
    "0xf2B351F19Cc58f52ca7C4f7B8B2663B932f889AC",
    "0x52e187467bf9d22614b3867e68d53143aad87dde",
    "0xe38Df11EDe1426F2e93E0A518a3D349d4425200B",
    "0xb21ae1581F747C7913B9d8e3026A949f0cB0221b",
    "0xf2B351F19Cc58f52ca7C4f7B8B2663B932f889AC"
  ],
  "numDeployments": 1,
  "solcInputHash": "f1e7de409326fef85577dc516fa72386",
  "bytecode": "0x60806040526207a120600c553480156200001857600080fd5b50604051620020fd380380620020fd8339810160408190526200003b91620000b8565b600680546001600160a01b039788166001600160a01b0319918216179091556008805495881695821686179055600980548216909517909455600a80549387169385169390931790925550600b8054919094169116179091555062000138565b80516001600160a01b0381168114620000b357600080fd5b919050565b60008060008060008060c08789031215620000d1578182fd5b620000dc876200009b565b9550620000ec602088016200009b565b9450620000fc604088016200009b565b93506200010c606088016200009b565b92506200011c608088016200009b565b91506200012c60a088016200009b565b90509295509295509295565b611fb580620001486000396000f3fe608060405234801561001057600080fd5b506004361061009e5760003560e01c80634d238c8e116100665780634d238c8e1461013a578063554ef5711461014d5780638928dfc314610160578063d04fa29314610173578063fa52c7d81461018657600080fd5b806307a9ec08146100a35780630db065f4146100cb578063315786f1146100ee57806342f045c51461011257806348d026b214610127575b600080fd5b6100b66100b13660046117f9565b6101a9565b60405190151581526020015b60405180910390f35b6100b66100d936600461167b565b60026020526000908152604090205460ff1681565b6101016100fc36600461178d565b6105ed565b6040516100c2959493929190611c03565b6101256101203660046117b8565b6106bb565b005b61012561013536600461197d565b6109cf565b61012561014836600461167b565b610e56565b61012561015b3660046117f9565b610fd0565b61012561016e366004611b50565b611072565b61012561018136600461169e565b61118d565b6100b661019436600461167b565b60006020819052908152604090205460ff1681565b6001600160a01b03841660009081526003602090815260408083209051839283916101d8918991899101611bf3565b60408051601f198184030181529181528151602092830120835282820193909352908201600020825160e08101845281546001600160a01b039081168252600183015416928101929092526002810154928201929092526003820154606082015260048201805491929160808401919061025190611ef5565b80601f016020809104026020016040519081016040528092919081815260200182805461027d90611ef5565b80156102ca5780601f1061029f576101008083540402835291602001916102ca565b820191906000526020600020905b8154815290600101906020018083116102ad57829003601f168201915b5050505050815260200160058201805480602002602001604051908101604052809291908181526020016000905b828210156103a457838290600052602060002001805461031790611ef5565b80601f016020809104026020016040519081016040528092919081815260200182805461034390611ef5565b80156103905780601f1061036557610100808354040283529160200191610390565b820191906000526020600020905b81548152906001019060200180831161037357829003601f168201915b5050505050815260200190600101906102f8565b505050508152602001600682018054806020026020016040519081016040528092919081815260200182805480156103fb57602002820191906000526020600020905b8154815260200190600101908083116103e7575b505050919092525050506060810151604051630d9d711160e01b815260048101829052600060248201819052929350909185916001600160a01b03831690630d9d71119060440160206040518083038186803b15801561045a57600080fd5b505afa15801561046e573d6000803e3d6000fd5b505050506040513d601f19601f820116820180604052508101906104929190611a99565b604051630d9d711160e01b815260048101859052600160248201529091506000906001600160a01b03841690630d9d71119060440160206040518083038186803b1580156104df57600080fd5b505afa1580156104f3573d6000803e3d6000fd5b505050506040513d601f19601f820116820180604052508101906105179190611a99565b905060006105258383611eae565b600a54604051630db2ba4760e31b81526001600160a01b038e8116600483015292935060009290911690636d95d23890602401600060405180830381600087803b15801561057257600080fd5b505af1158015610586573d6000803e3d6000fd5b505050506040513d6000823e601f3d908101601f191682016040526105ae9190810190611897565b90506000816020015190506000620f4240600c54836105cd9190611e8f565b6105d79190611e6f565b93909311159d9c50505050505050505050505050565b60036020818152600093845260408085209091529183529120805460018201546002830154938301546004840180546001600160a01b03948516969490931694919261063890611ef5565b80601f016020809104026020016040519081016040528092919081815260200182805461066490611ef5565b80156106b15780601f10610686576101008083540402835291602001916106b1565b820191906000526020600020905b81548152906001019060200180831161069457829003601f168201915b5050505050905085565b6001600160a01b03808416600090815260036020818152604080842087855282528084208054600182015494820154948716808752600485528387208688529094529185205494956060959194921692919083908390888a61071e576001610721565b60005b604051631fc6ebd560e11b81526004810187905260ff919091166024820181905291506001600160a01b03841690633f8dd7aa90604401600060405180830381600087803b15801561077257600080fd5b505af1158015610786573d6000803e3d6000fd5b505060095460405163c0e3ee6b60e01b81526001600160a01b0388811660048301528781166024830152604482018a905260648201879052600060848301523060a4830152909116925063c0e3ee6b915060c401600060405180830381600087803b1580156107f457600080fd5b505af1158015610808573d6000803e3d6000fd5b505050506040513d6000823e601f3d908101601f191682016040526108309190810190611ab1565b6001600160a01b03881660009081526004602090815260408083208a8452909152902060010154919b5099508b156108ae57808b116108ae5760405162461bcd60e51b815260206004820152601560248201527414185e5bdd5d081b9bdd081cdd59999a58da595b9d605a1b60448201526064015b60405180910390fd5b600a54604051631e05c99760e31b8152600481018d90526001600160a01b039091169063f02e4cb890602401600060405180830381600087803b1580156108f457600080fd5b505af1158015610908573d6000803e3d6000fd5b50505050610916818c61125b565b600360008f6001600160a01b03166001600160a01b0316815260200190815260200160002060008e8152602001908152602001600020600080820160006101000a8154906001600160a01b0302191690556001820160006101000a8154906001600160a01b030219169055600282016000905560038201600090556004820160006109a191906112c6565b6109af600583016000611303565b6109bd600683016000611321565b50505050505050505050505050505050565b83516020850151604080870151608088015160a089015160c08a01519351636a87a1c560e01b815292939192909190869086906000906001600160a01b03831690636a87a1c590610a2a9033908a908a908a90600401611c95565b602060405180830381600087803b158015610a4457600080fd5b505af1158015610a58573d6000803e3d6000fd5b505050506040513d601f19601f82011682018060405250810190610a7c9190611a99565b9050808d60600181815250508c600360008e6001600160a01b03166001600160a01b0316815260200190815260200160002060008d8d604051602001610ac3929190611bf3565b60408051601f198184030181529181528151602092830120835282820193909352908201600020835181546001600160a01b039182166001600160a01b0319918216178355858401516001840180549190931691161790559183015160028301556060830151600383015560808301518051610b45926004850192019061133f565b5060a08201518051610b619160058401916020909101906113c3565b5060c08201518051610b7d91600684019160209091019061141c565b5050600a5460405163e0cd9c8f60e01b8152600481018a90526001600160a01b03909116915063e0cd9c8f90602401600060405180830381600087803b158015610bc657600080fd5b505af1158015610bda573d6000803e3d6000fd5b50505050816001600160a01b031663d8dfeb456040518163ffffffff1660e01b815260040160206040518083038186803b158015610c1757600080fd5b505afa158015610c2b573d6000803e3d6000fd5b505050506040513d601f19601f82011682018060405250810190610c4f919061187b565b60095460405163095ea7b360e01b81526001600160a01b039182166004820152602481018a905291169063095ea7b390604401602060405180830381600087803b158015610c9c57600080fd5b505af1158015610cb0573d6000803e3d6000fd5b505050506040513d601f19601f82011682018060405250810190610cd4919061185f565b506009546040516321123f4b60e21b81526001600160a01b038581166004830152848116602483015260448201849052606482018a905230608483015290911690638448fd2c9060a401602060405180830381600087803b158015610d3857600080fd5b505af1158015610d4c573d6000803e3d6000fd5b505050506040513d601f19601f82011682018060405250810190610d709190611a99565b5060095460405163fe04b54960e01b81526001600160a01b038581166004830152848116602483015260448201849052306064830152600092169063fe04b5499060840160206040518083038186803b158015610dcc57600080fd5b505afa158015610de0573d6000803e3d6000fd5b505050506040513d601f19601f82011682018060405250810190610e049190611a99565b60408051808201825291825260208083019a8b526001600160a01b03909b16600090815260048c5281812094815293909a52989091209751885550509351600190950194909455505050505050505050565b600a546001600160a01b03163314610eba5760405162461bcd60e51b815260206004820152602160248201527f4f6e6c7920506f6f6c732063616e2063616c6c20746869732066756e6374696f6044820152603760f91b60648201526084016108a5565b6001600160a01b038116610f085760405162461bcd60e51b815260206004820152601560248201527416995c9bc81859191c995cdcc819195d1958dd1959605a1b60448201526064016108a5565b6001600160a01b03811660009081526020819052604090205460ff1615610f6a5760405162461bcd60e51b81526020600482015260166024820152754164647265737320616c72656164792065786973747360501b60448201526064016108a5565b6001600160a01b03166000818152602081905260408120805460ff191660019081179091556005805491820181559091527f036b6384b5eca791c62761152d0c79bb0604c104a5fb6f4eb0703f3154bb3db00180546001600160a01b0319169091179055565b3360009081526020819052604090205460ff1615156001146110045760405162461bcd60e51b81526004016108a590611d2a565b600a5460405163554ef57160e01b81526001600160a01b039091169063554ef5719061103a908790879087908790600401611c48565b600060405180830381600087803b15801561105457600080fd5b505af1158015611068573d6000803e3d6000fd5b5050505050505050565b3360009081526002602052604090205460ff16156110d25760405162461bcd60e51b815260206004820152601860248201527f6164647265737320616c7265616479207665726966696564000000000000000060448201526064016108a5565b600b54604051636673e84960e01b81526001600160a01b0390911690636673e8499061113c907f239c35f1f32f5943610fcc78e22c7d7a412ac0939d50bb892b9987f4326f07a7906e1d1dda5d1d195c8b5d5b9c985d1959608a1b90889088908890600401611d70565b600060405180830381600087803b15801561115657600080fd5b505af115801561116a573d6000803e3d6000fd5b5050336000908152600260205260409020805460ff191660011790555050505050565b3360009081526020819052604090205460ff1615156001146111c15760405162461bcd60e51b81526004016108a590611d2a565b60006040518060e001604052808b6001600160a01b031681526020018a6001600160a01b03168152602001898152602001612710815260200188888080601f01602080910402602001604051908101604052809392919081815260200183838082843760009201919091525050509082525060208101859052604001839052905061124e818c87876109cf565b5050505050505050505050565b60405160248101839052604481018290526112a19060640160408051601f198184030181529190526020810180516001600160e01b031662d81ed360e71b1790526112a5565b5050565b80516a636f6e736f6c652e6c6f67602083016000808483855afa5050505050565b5080546112d290611ef5565b6000825580601f106112e2575050565b601f0160209004906000526020600020908101906113009190611456565b50565b5080546000825590600052602060002090810190611300919061146b565b50805460008255906000526020600020908101906113009190611456565b82805461134b90611ef5565b90600052602060002090601f01602090048101928261136d57600085556113b3565b82601f1061138657805160ff19168380011785556113b3565b828001600101855582156113b3579182015b828111156113b3578251825591602001919060010190611398565b506113bf929150611456565b5090565b828054828255906000526020600020908101928215611410579160200282015b82811115611410578251805161140091849160209091019061133f565b50916020019190600101906113e3565b506113bf92915061146b565b8280548282559060005260206000209081019282156113b357916020028201828111156113b3578251825591602001919060010190611398565b5b808211156113bf5760008155600101611457565b808211156113bf57600061147f82826112c6565b5060010161146b565b803561149381611f5c565b919050565b805161149381611f5c565b600082601f8301126114b3578081fd5b813560206114c86114c383611e23565b611df2565b80838252828201915082860187848660051b89010111156114e7578586fd5b855b8581101561152857813567ffffffffffffffff811115611507578788fd5b6115158a87838c01016115e4565b85525092840192908401906001016114e9565b5090979650505050505050565b600082601f830112611545578081fd5b813560206115556114c383611e23565b80838252828201915082860187848660051b8901011115611574578586fd5b855b8581101561152857813584529284019290840190600101611576565b805161149381611f71565b60008083601f8401126115ae578182fd5b50813567ffffffffffffffff8111156115c5578182fd5b6020830191508360208285010111156115dd57600080fd5b9250929050565b600082601f8301126115f4578081fd5b81356116026114c382611e47565b818152846020838601011115611616578283fd5b816020850160208301379081016020019190915292915050565b600082601f830112611640578081fd5b815161164e6114c382611e47565b818152846020838601011115611662578283fd5b611673826020830160208701611ec5565b949350505050565b60006020828403121561168c578081fd5b813561169781611f5c565b9392505050565b6000806000806000806000806000806101008b8d0312156116bd578586fd5b6116c68b611488565b99506116d460208c01611488565b98506116e260408c01611488565b975060608b0135965060808b013567ffffffffffffffff80821115611705578788fd5b6117118e838f0161159d565b909850965060a08d0135915080821115611729578586fd5b6117358e838f0161159d565b909650945060c08d013591508082111561174d578384fd5b6117598e838f016114a3565b935060e08d013591508082111561176e578283fd5b5061177b8d828e01611535565b9150509295989b9194979a5092959850565b6000806040838503121561179f578182fd5b82356117aa81611f5c565b946020939093013593505050565b6000806000606084860312156117cc578081fd5b83356117d781611f5c565b92506020840135915060408401356117ee81611f71565b809150509250925092565b6000806000806060858703121561180e578182fd5b843561181981611f5c565b9350602085013567ffffffffffffffff811115611834578283fd5b6118408782880161159d565b909450925050604085013561185481611f5c565b939692955090935050565b600060208284031215611870578081fd5b815161169781611f71565b60006020828403121561188c578081fd5b815161169781611f5c565b6000602082840312156118a8578081fd5b815167ffffffffffffffff808211156118bf578283fd5b9083019061016082860312156118d3578283fd5b6118db611da5565b825181526020830151602082015260408301516040820152606083015160608201526080830151608082015260a083015160a082015260c083015160c082015260e083015160e08201526101008084015183811115611938578586fd5b61194488828701611630565b828401525050610120915061195a828401611592565b82820152610140915061196e828401611498565b91810191909152949350505050565b60008060008060608587031215611992578182fd5b843567ffffffffffffffff808211156119a9578384fd5b9086019060e082890312156119bc578384fd5b6119c4611dcf565b6119cd83611488565b81526119db60208401611488565b60208201526040830135604082015260608301356060820152608083013582811115611a05578586fd5b611a118a8286016115e4565b60808301525060a083013582811115611a28578586fd5b611a348a8286016114a3565b60a08301525060c083013582811115611a4b578586fd5b611a578a828601611535565b60c0830152509550611a6b60208801611488565b94506040870135915080821115611a80578384fd5b50611a8d8782880161159d565b95989497509550505050565b600060208284031215611aaa578081fd5b5051919050565b60008060408385031215611ac3578182fd5b8251915060208084015167ffffffffffffffff811115611ae1578283fd5b8401601f81018613611af1578283fd5b8051611aff6114c382611e23565b80828252848201915084840189868560051b8701011115611b1e578687fd5b8694505b83851015611b40578051835260019490940193918501918501611b22565b5080955050505050509250929050565b6000806000610140808587031215611b66578182fd5b8435935060208501359250858186011115611b7f578182fd5b506040840190509250925092565b6000815180845260208085019450808401835b83811015611bbc57815187529582019590820190600101611ba0565b509495945050505050565b60008151808452611bdf816020860160208601611ec5565b601f01601f19169290920160200192915050565b8183823760009101908152919050565b6001600160a01b03868116825285166020820152604081018490526060810183905260a060808201819052600090611c3d90830184611bc7565b979650505050505050565b6001600160a01b038581168252606060208301819052820184905260009084866080850137828501608090810192909252929092166040820152601f909201601f19169091010192915050565b6001600160a01b038516815260806020808301829052600091611cba90840187611bc7565b8381036040850152855180825282820190600581901b83018401848901865b83811015611d0757601f19868403018552611cf5838351611bc7565b94870194925090860190600101611cd9565b50508681036060880152611d1b8189611b8d565b9b9a5050505050505050505050565b60208082526026908201527f4f6e6c792056616c696461746f72732063616e2063616c6c20746869732066756040820152653731ba34b7b760d11b606082015260800190565b600061018082019050868252856020830152846040830152836060830152610100836080840137600081529695505050505050565b604051610160810167ffffffffffffffff81118282101715611dc957611dc9611f46565b60405290565b60405160e0810167ffffffffffffffff81118282101715611dc957611dc9611f46565b604051601f8201601f1916810167ffffffffffffffff81118282101715611e1b57611e1b611f46565b604052919050565b600067ffffffffffffffff821115611e3d57611e3d611f46565b5060051b60200190565b600067ffffffffffffffff821115611e6157611e61611f46565b50601f01601f191660200190565b600082611e8a57634e487b7160e01b81526012600452602481fd5b500490565b6000816000190483118215151615611ea957611ea9611f30565b500290565b600082821015611ec057611ec0611f30565b500390565b60005b83811015611ee0578181015183820152602001611ec8565b83811115611eef576000848401525b50505050565b600181811c90821680611f0957607f821691505b60208210811415611f2a57634e487b7160e01b600052602260045260246000fd5b50919050565b634e487b7160e01b600052601160045260246000fd5b634e487b7160e01b600052604160045260246000fd5b6001600160a01b038116811461130057600080fd5b801515811461130057600080fdfea26469706673582212209f2ded1f67449156a7ce7015ebcf0fea2d247a7277407a1e4dff70d7e15030de64736f6c63430008040033",
  "devdoc": {
    "kind": "dev",
    "methods": {},
    "version": 1
  },
  "userdoc": {
    "kind": "user",
    "methods": {},
    "version": 1
  },
  "storageLayout": {
    "storage": [
      {
        "astId": 17211,
        "contract": "contracts/stablecoin/controller.sol:Controller",
        "label": "validators",
        "offset": 0,
        "slot": "0",
        "type": "t_mapping(t_address,t_bool)"
      },
      {
        "astId": 17215,
        "contract": "contracts/stablecoin/controller.sol:Controller",
        "label": "pools",
        "offset": 0,
        "slot": "1",
        "type": "t_mapping(t_address,t_bool)"
      },
      {
        "astId": 17220,
        "contract": "contracts/stablecoin/controller.sol:Controller",
        "label": "verified",
        "offset": 0,
        "slot": "2",
        "type": "t_mapping(t_address,t_bool)"
      },
      {
        "astId": 17227,
        "contract": "contracts/stablecoin/controller.sol:Controller",
        "label": "borrower_market_data",
        "offset": 0,
        "slot": "3",
        "type": "t_mapping(t_address,t_mapping(t_bytes32,t_struct(MarketInfo)16662_storage))"
      },
      {
        "astId": 17234,
        "contract": "contracts/stablecoin/controller.sol:Controller",
        "label": "lpinfo",
        "offset": 0,
        "slot": "4",
        "type": "t_mapping(t_address,t_mapping(t_uint256,t_struct(LiquidityInfo)17206_storage))"
      },
      {
        "astId": 17237,
        "contract": "contracts/stablecoin/controller.sol:Controller",
        "label": "validators_array",
        "offset": 0,
        "slot": "5",
        "type": "t_array(t_address)dyn_storage"
      },
      {
        "astId": 17239,
        "contract": "contracts/stablecoin/controller.sol:Controller",
        "label": "creator_address",
        "offset": 0,
        "slot": "6",
        "type": "t_address"
      },
      {
        "astId": 17241,
        "contract": "contracts/stablecoin/controller.sol:Controller",
        "label": "timelock_address",
        "offset": 0,
        "slot": "7",
        "type": "t_address"
      },
      {
        "astId": 17243,
        "contract": "contracts/stablecoin/controller.sol:Controller",
        "label": "MasterChef_address",
        "offset": 0,
        "slot": "8",
        "type": "t_address"
      },
      {
        "astId": 17246,
        "contract": "contracts/stablecoin/controller.sol:Controller",
        "label": "masterchef",
        "offset": 0,
        "slot": "9",
        "type": "t_contract(MasterChef)16293"
      },
      {
        "astId": 17249,
        "contract": "contracts/stablecoin/controller.sol:Controller",
        "label": "lendingpool",
        "offset": 0,
        "slot": "10",
        "type": "t_contract(ILendingPool)17028"
      },
      {
        "astId": 17252,
        "contract": "contracts/stablecoin/controller.sol:Controller",
        "label": "interep",
        "offset": 0,
        "slot": "11",
        "type": "t_contract(IInterep)1054"
      },
      {
        "astId": 17264,
        "contract": "contracts/stablecoin/controller.sol:Controller",
        "label": "insurance_constant",
        "offset": 0,
        "slot": "12",
        "type": "t_uint256"
      }
    ],
    "types": {
      "t_address": {
        "encoding": "inplace",
        "label": "address",
        "numberOfBytes": "20"
      },
      "t_array(t_address)dyn_storage": {
        "base": "t_address",
        "encoding": "dynamic_array",
        "label": "address[]",
        "numberOfBytes": "32"
      },
      "t_array(t_string_storage)dyn_storage": {
        "base": "t_string_storage",
        "encoding": "dynamic_array",
        "label": "string[]",
        "numberOfBytes": "32"
      },
      "t_array(t_uint256)dyn_storage": {
        "base": "t_uint256",
        "encoding": "dynamic_array",
        "label": "uint256[]",
        "numberOfBytes": "32"
      },
      "t_bool": {
        "encoding": "inplace",
        "label": "bool",
        "numberOfBytes": "1"
      },
      "t_bytes32": {
        "encoding": "inplace",
        "label": "bytes32",
        "numberOfBytes": "32"
      },
      "t_contract(IInterep)1054": {
        "encoding": "inplace",
        "label": "contract IInterep",
        "numberOfBytes": "20"
      },
      "t_contract(ILendingPool)17028": {
        "encoding": "inplace",
        "label": "contract ILendingPool",
        "numberOfBytes": "20"
      },
      "t_contract(MasterChef)16293": {
        "encoding": "inplace",
        "label": "contract MasterChef",
        "numberOfBytes": "20"
      },
      "t_mapping(t_address,t_bool)": {
        "encoding": "mapping",
        "key": "t_address",
        "label": "mapping(address => bool)",
        "numberOfBytes": "32",
        "value": "t_bool"
      },
      "t_mapping(t_address,t_mapping(t_bytes32,t_struct(MarketInfo)16662_storage))": {
        "encoding": "mapping",
        "key": "t_address",
        "label": "mapping(address => mapping(bytes32 => struct IController.MarketInfo))",
        "numberOfBytes": "32",
        "value": "t_mapping(t_bytes32,t_struct(MarketInfo)16662_storage)"
      },
      "t_mapping(t_address,t_mapping(t_uint256,t_struct(LiquidityInfo)17206_storage))": {
        "encoding": "mapping",
        "key": "t_address",
        "label": "mapping(address => mapping(uint256 => struct Controller.LiquidityInfo))",
        "numberOfBytes": "32",
        "value": "t_mapping(t_uint256,t_struct(LiquidityInfo)17206_storage)"
      },
      "t_mapping(t_bytes32,t_struct(MarketInfo)16662_storage)": {
        "encoding": "mapping",
        "key": "t_bytes32",
        "label": "mapping(bytes32 => struct IController.MarketInfo)",
        "numberOfBytes": "32",
        "value": "t_struct(MarketInfo)16662_storage"
      },
      "t_mapping(t_uint256,t_struct(LiquidityInfo)17206_storage)": {
        "encoding": "mapping",
        "key": "t_uint256",
        "label": "mapping(uint256 => struct Controller.LiquidityInfo)",
        "numberOfBytes": "32",
        "value": "t_struct(LiquidityInfo)17206_storage"
      },
      "t_string_storage": {
        "encoding": "bytes",
        "label": "string",
        "numberOfBytes": "32"
      },
      "t_struct(LiquidityInfo)17206_storage": {
        "encoding": "inplace",
        "label": "struct Controller.LiquidityInfo",
        "members": [
          {
            "astId": 17203,
            "contract": "contracts/stablecoin/controller.sol:Controller",
            "label": "lptokenamount",
            "offset": 0,
            "slot": "0",
            "type": "t_uint256"
          },
          {
            "astId": 17205,
            "contract": "contracts/stablecoin/controller.sol:Controller",
            "label": "suppliedDS",
            "offset": 0,
            "slot": "1",
            "type": "t_uint256"
          }
        ],
        "numberOfBytes": "64"
      },
      "t_struct(MarketInfo)16662_storage": {
        "encoding": "inplace",
        "label": "struct IController.MarketInfo",
        "members": [
          {
            "astId": 16647,
            "contract": "contracts/stablecoin/controller.sol:Controller",
            "label": "ammFactoryAddress",
            "offset": 0,
            "slot": "0",
            "type": "t_address"
          },
          {
            "astId": 16649,
            "contract": "contracts/stablecoin/controller.sol:Controller",
            "label": "marketFactoryAddress",
            "offset": 0,
            "slot": "1",
            "type": "t_address"
          },
          {
            "astId": 16651,
            "contract": "contracts/stablecoin/controller.sol:Controller",
            "label": "liquidityAmountUSD",
            "offset": 0,
            "slot": "2",
            "type": "t_uint256"
          },
          {
            "astId": 16653,
            "contract": "contracts/stablecoin/controller.sol:Controller",
            "label": "marketID",
            "offset": 0,
            "slot": "3",
            "type": "t_uint256"
          },
          {
            "astId": 16655,
            "contract": "contracts/stablecoin/controller.sol:Controller",
            "label": "description",
            "offset": 0,
            "slot": "4",
            "type": "t_string_storage"
          },
          {
            "astId": 16658,
            "contract": "contracts/stablecoin/controller.sol:Controller",
            "label": "names",
            "offset": 0,
            "slot": "5",
            "type": "t_array(t_string_storage)dyn_storage"
          },
          {
            "astId": 16661,
            "contract": "contracts/stablecoin/controller.sol:Controller",
            "label": "odds",
            "offset": 0,
            "slot": "6",
            "type": "t_array(t_uint256)dyn_storage"
          }
        ],
        "numberOfBytes": "224"
      },
      "t_uint256": {
        "encoding": "inplace",
        "label": "uint256",
        "numberOfBytes": "32"
      }
    }
  }
}