{
  "address": "0x8317C1239A04BB5442DAEd216916678D8dC5160B",
  "abi": [
    {
      "inputs": [
        {
          "internalType": "address",
          "name": "vault",
          "type": "address"
        },
        {
          "internalType": "address",
          "name": "borrower",
          "type": "address"
        },
        {
          "internalType": "uint256",
          "name": "principal",
          "type": "uint256"
        },
        {
          "internalType": "uint256",
          "name": "interestAPR",
          "type": "uint256"
        },
        {
          "internalType": "uint256",
          "name": "duration",
          "type": "uint256"
        },
        {
          "internalType": "uint256",
          "name": "faceValue",
          "type": "uint256"
        }
      ],
      "stateMutability": "nonpayable",
      "type": "constructor"
    },
    {
      "inputs": [
        {
          "internalType": "address",
          "name": "user",
          "type": "address"
        }
      ],
      "name": "balanceOfUnderlying",
      "outputs": [
        {
          "internalType": "uint256",
          "name": "",
          "type": "uint256"
        }
      ],
      "stateMutability": "nonpayable",
      "type": "function"
    },
    {
      "inputs": [
        {
          "internalType": "uint256",
          "name": "amount",
          "type": "uint256"
        }
      ],
      "name": "drawdown",
      "outputs": [],
      "stateMutability": "nonpayable",
      "type": "function"
    },
    {
      "inputs": [
        {
          "internalType": "uint256",
          "name": "amount",
          "type": "uint256"
        }
      ],
      "name": "redeemUnderlying",
      "outputs": [
        {
          "internalType": "bool",
          "name": "",
          "type": "bool"
        }
      ],
      "stateMutability": "nonpayable",
      "type": "function"
    },
    {
      "inputs": [
        {
          "internalType": "uint256",
          "name": "repay_principal",
          "type": "uint256"
        },
        {
          "internalType": "uint256",
          "name": "repay_interest",
          "type": "uint256"
        }
      ],
      "name": "repay",
      "outputs": [],
      "stateMutability": "nonpayable",
      "type": "function"
    },
    {
      "inputs": [],
      "name": "resolveLoan",
      "outputs": [],
      "stateMutability": "nonpayable",
      "type": "function"
    },
    {
      "inputs": [],
      "name": "setTime",
      "outputs": [],
      "stateMutability": "nonpayable",
      "type": "function"
    },
    {
      "inputs": [
        {
          "internalType": "address",
          "name": "_Utilizer",
          "type": "address"
        }
      ],
      "name": "setUtilizer",
      "outputs": [],
      "stateMutability": "nonpayable",
      "type": "function"
    },
    {
      "inputs": [],
      "name": "underlying",
      "outputs": [
        {
          "internalType": "contract ERC20",
          "name": "",
          "type": "address"
        }
      ],
      "stateMutability": "view",
      "type": "function"
    },
    {
      "inputs": [],
      "name": "vault",
      "outputs": [
        {
          "internalType": "contract Vault",
          "name": "",
          "type": "address"
        }
      ],
      "stateMutability": "view",
      "type": "function"
    }
  ],
  "transactionHash": "0xe3ed89daf13709cd147885928fdf73b6bba57a0f92a191104c28cae09c5e06e7",
  "args": [
    "0x55C6C0ACEd3d83A1F66E37a6d9a31d0B0259FA70",
    "0xFD84b7AC1E646580db8c77f1f05F47977fAda692",
    1000000,
    100000,
    1000000,
    1100000
  ],
  "numDeployments": 1,
  "solcInputHash": "29a83bf9ac7eb91e37e2651095822cf1",
  "bytecode": "0x60806040523480156200001157600080fd5b5060405162000cbb38038062000cbb8339810160408190526200003491620001c7565b6200004486868686868662000050565b50505050505062000285565b6200005c868662000077565b60039390935560048290556006556005919091556009555050565b600180546001600160a01b0319166001600160a01b038416908117909155604080516362eb326360e11b8152905163c5d664c691600480820192602092909190829003018186803b158015620000cc57600080fd5b505afa158015620000e1573d6000803e3d6000fd5b505050506040513d601f19601f8201168201806040525081019062000107919062000252565b600080546001600160a01b0319166001600160a01b0392831690811790915560405163095ea7b360e01b8152918416600483015260001960248301529063095ea7b390604401602060405180830381600087803b1580156200016857600080fd5b505af11580156200017d573d6000803e3d6000fd5b505050506040513d601f19601f82011682018060405250810190620001a3919062000229565b50600280546001600160a01b0319166001600160a01b039290921691909117905550565b60008060008060008060c08789031215620001e0578182fd5b8651620001ed816200026c565b602088015190965062000200816200026c565b6040880151606089015160808a015160a0909a0151989b929a5090989097909650945092505050565b6000602082840312156200023b578081fd5b815180151581146200024b578182fd5b9392505050565b60006020828403121562000264578081fd5b81516200024b815b6001600160a01b03811681146200028257600080fd5b50565b610a2680620002956000396000f3fe608060405234801561001057600080fd5b50600436106100935760003560e01c8063852a12e311610066578063852a12e314610106578063a079a4dd14610129578063d8aed1451461013c578063d9276a491461014f578063fbfa77cf1461015757600080fd5b80630b6b5857146100985780633af9e669146100a257806357b25996146100c85780636f307dc3146100db575b600080fd5b6100a061016a565b005b6100b56100b03660046108c7565b61019f565b6040519081526020015b60405180910390f35b6100a06100d63660046108c7565b610223565b6000546100ee906001600160a01b031681565b6040516001600160a01b0390911681526020016100bf565b61011961011436600461091f565b610341565b60405190151581526020016100bf565b6100a061013736600461091f565b6103ca565b6100a061014a36600461094f565b61066d565b6100a06107fc565b6001546100ee906001600160a01b031681565b6002546001600160a01b0316331461019d5760405162461bcd60e51b815260040161019490610970565b60405180910390fd5b565b600080546040516370a0823160e01b81526001600160a01b038481166004830152909116906370a082319060240160206040518083038186803b1580156101e557600080fd5b505afa1580156101f9573d6000803e3d6000fd5b505050506040513d601f19601f8201168201806040525081019061021d9190610937565b92915050565b6002546001600160a01b03163314806102d25750600160009054906101000a90046001600160a01b03166001600160a01b0316638da5cb5b6040518163ffffffff1660e01b815260040160206040518083038186803b15801561028557600080fd5b505afa158015610299573d6000803e3d6000fd5b505050506040513d601f19601f820116820180604052508101906102bd91906108e3565b6001600160a01b0316336001600160a01b0316145b61030c5760405162461bcd60e51b815260206004820152600b60248201526a08585d5d1a1bdc9a5e995960aa1b6044820152606401610194565b6001600160a01b03811661031f57600080fd5b600280546001600160a01b0319166001600160a01b0392909216919091179055565b6000805460015460405163a9059cbb60e01b81526001600160a01b0391821660048201526024810185905291169063a9059cbb90604401602060405180830381600087803b15801561039257600080fd5b505af11580156103a6573d6000803e3d6000fd5b505050506040513d601f19601f8201168201806040525081019061021d91906108ff565b6002546001600160a01b031633146103f45760405162461bcd60e51b815260040161019490610970565b6001546040516396d6487960e01b81523060048201526001600160a01b03909116906396d648799060240160206040518083038186803b15801561043757600080fd5b505afa15801561044b573d6000803e3d6000fd5b505050506040513d601f19601f8201168201806040525081019061046f91906108ff565b6104aa5760405162461bcd60e51b815260206004820152600c60248201526b139bdd08185c1c1c9bdd995960a21b6044820152606401610194565b6000546040516370a0823160e01b815230600482015282916001600160a01b0316906370a082319060240160206040518083038186803b1580156104ed57600080fd5b505afa158015610501573d6000803e3d6000fd5b505050506040513d601f19601f820116820180604052508101906105259190610937565b116105635760405162461bcd60e51b815260206004820152600e60248201526d115e18d959591cc810dc99591a5d60921b6044820152606401610194565b600a544211156105b55760405162461bcd60e51b815260206004820181905260248201527f496e737472756d656e74206d757374206e6f742068617665206d6174757265646044820152606401610194565b80600760008282546105c79190610993565b9250508190555080600860008282546105e09190610993565b909155505060005460405163a9059cbb60e01b8152336004820152602481018390526001600160a01b039091169063a9059cbb90604401602060405180830381600087803b15801561063157600080fd5b505af1158015610645573d6000803e3d6000fd5b505050506040513d601f19601f8201168201806040525081019061066991906108ff565b5050565b6002546001600160a01b031633146106975760405162461bcd60e51b815260040161019490610970565b6001546040516396d6487960e01b81523060048201526001600160a01b03909116906396d648799060240160206040518083038186803b1580156106da57600080fd5b505afa1580156106ee573d6000803e3d6000fd5b505050506040513d601f19601f8201168201806040525081019061071291906108ff565b61074d5760405162461bcd60e51b815260206004820152600c60248201526b139bdd08185c1c1c9bdd995960a21b6044820152606401610194565b6000546001600160a01b03166323b872dd333061076a8587610993565b6040516001600160e01b031960e086901b1681526001600160a01b0393841660048201529290911660248301526044820152606401602060405180830381600087803b1580156107b957600080fd5b505af11580156107cd573d6000803e3d6000fd5b505050506040513d601f19601f820116820180604052508101906107f191906108ff565b506106698282610838565b6002546001600160a01b031633146108265760405162461bcd60e51b815260040161019490610970565b6006546108339042610993565b600a55565b61084d6108458284610993565b6007546108af565b6007600082825461085e91906109ab565b92505081905550610871826008546108af565b6008600082825461088291906109ab565b92505081905550610895816009546108af565b600960008282546108a691906109ab565b90915550505050565b60008183106108be57816108c0565b825b9392505050565b6000602082840312156108d8578081fd5b81356108c0816109d8565b6000602082840312156108f4578081fd5b81516108c0816109d8565b600060208284031215610910578081fd5b815180151581146108c0578182fd5b600060208284031215610930578081fd5b5035919050565b600060208284031215610948578081fd5b5051919050565b60008060408385031215610961578081fd5b50508035926020909101359150565b60208082526009908201526810aaba34b634bd32b960b91b604082015260600190565b600082198211156109a6576109a66109c2565b500190565b6000828210156109bd576109bd6109c2565b500390565b634e487b7160e01b600052601160045260246000fd5b6001600160a01b03811681146109ed57600080fd5b5056fea2646970667358221220b5845f00606fb9614436f2393dceacddfea117460bcf6b3b9feeee066b8d37b364736f6c63430008040033",
  "devdoc": {
    "kind": "dev",
    "methods": {
      "balanceOfUnderlying(address)": {
        "details": "May mutate the state of the Instrument by accruing interest.",
        "params": {
          "user": "The user to get the underlying balance of."
        },
        "returns": {
          "_0": "The user's Instrument balance in underlying tokens."
        }
      },
      "redeemUnderlying(uint256)": {
        "params": {
          "amount": "The amount of underlying tokens to withdraw."
        },
        "returns": {
          "_0": "An error code, or 0 if the withdrawal was successful."
        }
      }
    },
    "version": 1
  },
  "userdoc": {
    "kind": "user",
    "methods": {
      "balanceOfUnderlying(address)": {
        "notice": "Returns a user's Instrument balance in underlying tokens."
      },
      "drawdown(uint256)": {
        "notice": "Allows a borrower to borrow on their creditline."
      },
      "redeemUnderlying(uint256)": {
        "notice": "Withdraws a specific amount of underlying tokens from the Instrument."
      },
      "repay(uint256,uint256)": {
        "notice": "allows a borrower to repay their loan"
      },
      "setTime()": {
        "notice": "sets the maturity date for the instrument, after which the user can no longer borrow any funds."
      }
    },
    "notice": "Contract for unsecured loans, each instance will be associated to a borrower+marketId approved borrowers will interact with this contract to borrow, repay.  and vault will supply principal and harvest principal/interest ",
    "version": 1
  },
  "storageLayout": {
    "storage": [
      {
        "astId": 49097,
        "contract": "contracts/vaults/instrument.sol:CreditLine",
        "label": "underlying",
        "offset": 0,
        "slot": "0",
        "type": "t_contract(ERC20)50403"
      },
      {
        "astId": 49100,
        "contract": "contracts/vaults/instrument.sol:CreditLine",
        "label": "vault",
        "offset": 0,
        "slot": "1",
        "type": "t_contract(Vault)51461"
      },
      {
        "astId": 49110,
        "contract": "contracts/vaults/instrument.sol:CreditLine",
        "label": "Utilizer",
        "offset": 0,
        "slot": "2",
        "type": "t_address"
      },
      {
        "astId": 49247,
        "contract": "contracts/vaults/instrument.sol:CreditLine",
        "label": "principal",
        "offset": 0,
        "slot": "3",
        "type": "t_uint256"
      },
      {
        "astId": 49249,
        "contract": "contracts/vaults/instrument.sol:CreditLine",
        "label": "interestAPR",
        "offset": 0,
        "slot": "4",
        "type": "t_uint256"
      },
      {
        "astId": 49251,
        "contract": "contracts/vaults/instrument.sol:CreditLine",
        "label": "faceValue",
        "offset": 0,
        "slot": "5",
        "type": "t_uint256"
      },
      {
        "astId": 49253,
        "contract": "contracts/vaults/instrument.sol:CreditLine",
        "label": "duration",
        "offset": 0,
        "slot": "6",
        "type": "t_uint256"
      },
      {
        "astId": 49255,
        "contract": "contracts/vaults/instrument.sol:CreditLine",
        "label": "totalOwed",
        "offset": 0,
        "slot": "7",
        "type": "t_uint256"
      },
      {
        "astId": 49257,
        "contract": "contracts/vaults/instrument.sol:CreditLine",
        "label": "principalOwed",
        "offset": 0,
        "slot": "8",
        "type": "t_uint256"
      },
      {
        "astId": 49259,
        "contract": "contracts/vaults/instrument.sol:CreditLine",
        "label": "interestOwed",
        "offset": 0,
        "slot": "9",
        "type": "t_uint256"
      },
      {
        "astId": 49261,
        "contract": "contracts/vaults/instrument.sol:CreditLine",
        "label": "maturityDate",
        "offset": 0,
        "slot": "10",
        "type": "t_uint256"
      }
    ],
    "types": {
      "t_address": {
        "encoding": "inplace",
        "label": "address",
        "numberOfBytes": "20"
      },
      "t_contract(ERC20)50403": {
        "encoding": "inplace",
        "label": "contract ERC20",
        "numberOfBytes": "20"
      },
      "t_contract(Vault)51461": {
        "encoding": "inplace",
        "label": "contract Vault",
        "numberOfBytes": "20"
      },
      "t_uint256": {
        "encoding": "inplace",
        "label": "uint256",
        "numberOfBytes": "32"
      }
    }
  }
}