{
  "address": "0xe3E34E7d6D406838e3d6D36eC8C2116BA3053938",
  "abi": [
    {
      "inputs": [
        {
          "internalType": "address",
          "name": "_creator_address",
          "type": "address"
        },
        {
          "internalType": "address",
          "name": "_timelock_address",
          "type": "address"
        }
      ],
      "stateMutability": "nonpayable",
      "type": "constructor"
    },
    {
      "anonymous": false,
      "inputs": [
        {
          "indexed": true,
          "internalType": "address",
          "name": "owner",
          "type": "address"
        },
        {
          "indexed": true,
          "internalType": "address",
          "name": "spender",
          "type": "address"
        },
        {
          "indexed": false,
          "internalType": "uint256",
          "name": "value",
          "type": "uint256"
        }
      ],
      "name": "Approval",
      "type": "event"
    },
    {
      "anonymous": false,
      "inputs": [
        {
          "indexed": true,
          "internalType": "address",
          "name": "previousOwner",
          "type": "address"
        },
        {
          "indexed": true,
          "internalType": "address",
          "name": "newOwner",
          "type": "address"
        }
      ],
      "name": "OwnershipTransferred",
      "type": "event"
    },
    {
      "anonymous": false,
      "inputs": [
        {
          "indexed": true,
          "internalType": "bytes32",
          "name": "role",
          "type": "bytes32"
        },
        {
          "indexed": true,
          "internalType": "bytes32",
          "name": "previousAdminRole",
          "type": "bytes32"
        },
        {
          "indexed": true,
          "internalType": "bytes32",
          "name": "newAdminRole",
          "type": "bytes32"
        }
      ],
      "name": "RoleAdminChanged",
      "type": "event"
    },
    {
      "anonymous": false,
      "inputs": [
        {
          "indexed": true,
          "internalType": "bytes32",
          "name": "role",
          "type": "bytes32"
        },
        {
          "indexed": true,
          "internalType": "address",
          "name": "account",
          "type": "address"
        },
        {
          "indexed": true,
          "internalType": "address",
          "name": "sender",
          "type": "address"
        }
      ],
      "name": "RoleGranted",
      "type": "event"
    },
    {
      "anonymous": false,
      "inputs": [
        {
          "indexed": true,
          "internalType": "bytes32",
          "name": "role",
          "type": "bytes32"
        },
        {
          "indexed": true,
          "internalType": "address",
          "name": "account",
          "type": "address"
        },
        {
          "indexed": true,
          "internalType": "address",
          "name": "sender",
          "type": "address"
        }
      ],
      "name": "RoleRevoked",
      "type": "event"
    },
    {
      "anonymous": false,
      "inputs": [
        {
          "indexed": true,
          "internalType": "address",
          "name": "from",
          "type": "address"
        },
        {
          "indexed": true,
          "internalType": "address",
          "name": "to",
          "type": "address"
        },
        {
          "indexed": false,
          "internalType": "uint256",
          "name": "value",
          "type": "uint256"
        }
      ],
      "name": "Transfer",
      "type": "event"
    },
    {
      "inputs": [],
      "name": "DEFAULT_ADMIN_ADDRESS",
      "outputs": [
        {
          "internalType": "address",
          "name": "",
          "type": "address"
        }
      ],
      "stateMutability": "view",
      "type": "function"
    },
    {
      "inputs": [],
      "name": "DEFAULT_ADMIN_ROLE",
      "outputs": [
        {
          "internalType": "bytes32",
          "name": "",
          "type": "bytes32"
        }
      ],
      "stateMutability": "view",
      "type": "function"
    },
    {
      "inputs": [
        {
          "internalType": "address",
          "name": "pool_address",
          "type": "address"
        }
      ],
      "name": "addPool",
      "outputs": [],
      "stateMutability": "nonpayable",
      "type": "function"
    },
    {
      "inputs": [
        {
          "internalType": "address",
          "name": "owner",
          "type": "address"
        },
        {
          "internalType": "address",
          "name": "spender",
          "type": "address"
        }
      ],
      "name": "allowance",
      "outputs": [
        {
          "internalType": "uint256",
          "name": "",
          "type": "uint256"
        }
      ],
      "stateMutability": "view",
      "type": "function"
    },
    {
      "inputs": [
        {
          "internalType": "address",
          "name": "spender",
          "type": "address"
        },
        {
          "internalType": "uint256",
          "name": "amount",
          "type": "uint256"
        }
      ],
      "name": "approve",
      "outputs": [
        {
          "internalType": "bool",
          "name": "",
          "type": "bool"
        }
      ],
      "stateMutability": "nonpayable",
      "type": "function"
    },
    {
      "inputs": [
        {
          "internalType": "address",
          "name": "account",
          "type": "address"
        }
      ],
      "name": "balanceOf",
      "outputs": [
        {
          "internalType": "uint256",
          "name": "",
          "type": "uint256"
        }
      ],
      "stateMutability": "view",
      "type": "function"
    },
    {
      "inputs": [],
      "name": "creator_address",
      "outputs": [
        {
          "internalType": "address",
          "name": "",
          "type": "address"
        }
      ],
      "stateMutability": "view",
      "type": "function"
    },
    {
      "inputs": [],
      "name": "decimals",
      "outputs": [
        {
          "internalType": "uint8",
          "name": "",
          "type": "uint8"
        }
      ],
      "stateMutability": "view",
      "type": "function"
    },
    {
      "inputs": [
        {
          "internalType": "address",
          "name": "spender",
          "type": "address"
        },
        {
          "internalType": "uint256",
          "name": "subtractedValue",
          "type": "uint256"
        }
      ],
      "name": "decreaseAllowance",
      "outputs": [
        {
          "internalType": "bool",
          "name": "",
          "type": "bool"
        }
      ],
      "stateMutability": "nonpayable",
      "type": "function"
    },
    {
      "inputs": [],
      "name": "dss_price",
      "outputs": [
        {
          "internalType": "uint256",
          "name": "",
          "type": "uint256"
        }
      ],
      "stateMutability": "view",
      "type": "function"
    },
    {
      "inputs": [
        {
          "internalType": "bytes32",
          "name": "role",
          "type": "bytes32"
        }
      ],
      "name": "getRoleAdmin",
      "outputs": [
        {
          "internalType": "bytes32",
          "name": "",
          "type": "bytes32"
        }
      ],
      "stateMutability": "view",
      "type": "function"
    },
    {
      "inputs": [],
      "name": "get_collateral_ratio",
      "outputs": [
        {
          "internalType": "uint256",
          "name": "",
          "type": "uint256"
        }
      ],
      "stateMutability": "view",
      "type": "function"
    },
    {
      "inputs": [
        {
          "internalType": "bytes32",
          "name": "role",
          "type": "bytes32"
        },
        {
          "internalType": "address",
          "name": "account",
          "type": "address"
        }
      ],
      "name": "grantRole",
      "outputs": [],
      "stateMutability": "nonpayable",
      "type": "function"
    },
    {
      "inputs": [
        {
          "internalType": "bytes32",
          "name": "role",
          "type": "bytes32"
        },
        {
          "internalType": "address",
          "name": "account",
          "type": "address"
        }
      ],
      "name": "hasRole",
      "outputs": [
        {
          "internalType": "bool",
          "name": "",
          "type": "bool"
        }
      ],
      "stateMutability": "view",
      "type": "function"
    },
    {
      "inputs": [
        {
          "internalType": "address",
          "name": "spender",
          "type": "address"
        },
        {
          "internalType": "uint256",
          "name": "addedValue",
          "type": "uint256"
        }
      ],
      "name": "increaseAllowance",
      "outputs": [
        {
          "internalType": "bool",
          "name": "",
          "type": "bool"
        }
      ],
      "stateMutability": "nonpayable",
      "type": "function"
    },
    {
      "inputs": [],
      "name": "name",
      "outputs": [
        {
          "internalType": "string",
          "name": "",
          "type": "string"
        }
      ],
      "stateMutability": "view",
      "type": "function"
    },
    {
      "inputs": [],
      "name": "owner",
      "outputs": [
        {
          "internalType": "address",
          "name": "",
          "type": "address"
        }
      ],
      "stateMutability": "view",
      "type": "function"
    },
    {
      "inputs": [
        {
          "internalType": "address",
          "name": "b_address",
          "type": "address"
        },
        {
          "internalType": "uint256",
          "name": "b_amount",
          "type": "uint256"
        }
      ],
      "name": "pool_burn",
      "outputs": [],
      "stateMutability": "nonpayable",
      "type": "function"
    },
    {
      "inputs": [
        {
          "internalType": "address",
          "name": "m_address",
          "type": "address"
        },
        {
          "internalType": "uint256",
          "name": "m_amount",
          "type": "uint256"
        }
      ],
      "name": "pool_mint",
      "outputs": [],
      "stateMutability": "nonpayable",
      "type": "function"
    },
    {
      "inputs": [
        {
          "internalType": "uint256",
          "name": "",
          "type": "uint256"
        }
      ],
      "name": "pools_array",
      "outputs": [
        {
          "internalType": "address",
          "name": "",
          "type": "address"
        }
      ],
      "stateMutability": "view",
      "type": "function"
    },
    {
      "inputs": [],
      "name": "renounceOwnership",
      "outputs": [],
      "stateMutability": "nonpayable",
      "type": "function"
    },
    {
      "inputs": [
        {
          "internalType": "bytes32",
          "name": "role",
          "type": "bytes32"
        },
        {
          "internalType": "address",
          "name": "account",
          "type": "address"
        }
      ],
      "name": "renounceRole",
      "outputs": [],
      "stateMutability": "nonpayable",
      "type": "function"
    },
    {
      "inputs": [
        {
          "internalType": "bytes32",
          "name": "role",
          "type": "bytes32"
        },
        {
          "internalType": "address",
          "name": "account",
          "type": "address"
        }
      ],
      "name": "revokeRole",
      "outputs": [],
      "stateMutability": "nonpayable",
      "type": "function"
    },
    {
      "inputs": [
        {
          "internalType": "bytes4",
          "name": "interfaceId",
          "type": "bytes4"
        }
      ],
      "name": "supportsInterface",
      "outputs": [
        {
          "internalType": "bool",
          "name": "",
          "type": "bool"
        }
      ],
      "stateMutability": "view",
      "type": "function"
    },
    {
      "inputs": [],
      "name": "symbol",
      "outputs": [
        {
          "internalType": "string",
          "name": "",
          "type": "string"
        }
      ],
      "stateMutability": "view",
      "type": "function"
    },
    {
      "inputs": [],
      "name": "totalSupply",
      "outputs": [
        {
          "internalType": "uint256",
          "name": "",
          "type": "uint256"
        }
      ],
      "stateMutability": "view",
      "type": "function"
    },
    {
      "inputs": [
        {
          "internalType": "address",
          "name": "to",
          "type": "address"
        },
        {
          "internalType": "uint256",
          "name": "amount",
          "type": "uint256"
        }
      ],
      "name": "transfer",
      "outputs": [
        {
          "internalType": "bool",
          "name": "",
          "type": "bool"
        }
      ],
      "stateMutability": "nonpayable",
      "type": "function"
    },
    {
      "inputs": [
        {
          "internalType": "address",
          "name": "from",
          "type": "address"
        },
        {
          "internalType": "address",
          "name": "to",
          "type": "address"
        },
        {
          "internalType": "uint256",
          "name": "amount",
          "type": "uint256"
        }
      ],
      "name": "transferFrom",
      "outputs": [
        {
          "internalType": "bool",
          "name": "",
          "type": "bool"
        }
      ],
      "stateMutability": "nonpayable",
      "type": "function"
    },
    {
      "inputs": [
        {
          "internalType": "address",
          "name": "newOwner",
          "type": "address"
        }
      ],
      "name": "transferOwnership",
      "outputs": [],
      "stateMutability": "nonpayable",
      "type": "function"
    }
  ],
  "transactionHash": "0xed101f9ace1e6b349b93b39936cec338f64150f2407ef99b8ffead0338066352",
  "args": [
    "0xFD84b7AC1E646580db8c77f1f05F47977fAda692",
    "0xFD84b7AC1E646580db8c77f1f05F47977fAda692"
  ],
  "solcInputHash": "256d0a41466e4b2edeb4e0708cf9f0fe",
  "bytecode": "0x60806040523480156200001157600080fd5b5060405162001b5d38038062001b5d833981810160405260408110156200003757600080fd5b50805160209182015160408051808201825260118152702232b134ba309029ba30b13632b1b7b4b760791b81860190815282518084019093526002835261445360f01b9583019590955280519394929385939192916200009b91600391906200034f565b508051620000b19060049060208401906200034f565b505050620000c5816200016160201b60201c565b50620000dc8269d3c21bcecceda1000000620001b3565b600980546001600160a01b038085166001600160a01b031992831617909255600a8054928416929091169190911790556200012260006200011c62000288565b6200028c565b6200012c62000288565b600b80546001600160a01b0319166001600160a01b03929092169190911790556200015960008362000293565b5050620003fb565b600680546001600160a01b038381166001600160a01b0319831681179093556040519116919082907f8be0079c531659141344cd1fd0a4f28419497f9722a3daafe3b4186f6b6457e090600090a35050565b6001600160a01b0382166200020f576040805162461bcd60e51b815260206004820152601f60248201527f45524332303a206d696e7420746f20746865207a65726f206164647265737300604482015290519081900360640190fd5b6200021d600083836200031f565b60028054820190556001600160a01b038216600081815260208181526040808320805486019055805185815290517fddf252ad1be2c89b69c2b068fc378daa952ba7f163c4a11628f55a4df523b3ef929181900390910190a362000284600083836200031f565b5050565b3390565b6200028482825b6200029f828262000324565b620002845760008281526005602090815260408083206001600160a01b03851684529091529020805460ff19166001179055620002db62000288565b6001600160a01b0316816001600160a01b0316837f2f8788117e7eff1d82e926ec794901d17c78024a50270940304540a733656f0d60405160405180910390a45050565b505050565b60009182526005602090815260408084206001600160a01b0393909316845291905290205460ff1690565b828054600181600116156101000203166002900490600052602060002090601f016020900481019282620003875760008555620003d2565b82601f10620003a257805160ff1916838001178555620003d2565b82800160010185558215620003d2579182015b82811115620003d2578251825591602001919060010190620003b5565b50620003e0929150620003e4565b5090565b5b80821115620003e05760008155600101620003e5565b611752806200040b6000396000f3fe608060405234801561001057600080fd5b50600436106101cf5760003560e01c80635451086311610104578063a217fddf116100a2578063d547741f11610071578063d547741f1461053c578063d914cd4b14610568578063dd62ed3e1461058e578063f2fde38b146105bc576101cf565b8063a217fddf146104b0578063a457c2d7146104b8578063a9059cbb146104e4578063b4f56b2614610510576101cf565b80638da5cb5b116100de5780638da5cb5b14610448578063908fd7681461045057806391d148541461047c57806395d89b41146104a8576101cf565b8063545108631461041257806370a082311461041a578063715018a614610440576101cf565b80632f2ff15d1161017157806336568abe1161014b57806336568abe146103b257806339509351146103de5780634bd0be231461040a5780634ed9ac1f14610412576101cf565b80632f2ff15d1461035e578063313ce5671461038c57806335467d5d146103aa576101cf565b80631189ebea116101ad5780631189ebea146102b857806318160ddd146102f157806323b872dd1461030b578063248a9ca314610341576101cf565b806301ffc9a7146101d457806306fdde031461020f578063095ea7b31461028c575b600080fd5b6101fb600480360360208110156101ea57600080fd5b50356001600160e01b0319166105e2565b604080519115158252519081900360200190f35b61021761060d565b6040805160208082528351818301528351919283929083019185019080838360005b83811015610251578181015183820152602001610239565b50505050905090810190601f16801561027e5780820380516001836020036101000a031916815260200191505b509250505060405180910390f35b6101fb600480360360408110156102a257600080fd5b506001600160a01b0381351690602001356106a3565b6102d5600480360360208110156102ce57600080fd5b50356106c5565b604080516001600160a01b039092168252519081900360200190f35b6102f96106ef565b60408051918252519081900360200190f35b6101fb6004803603606081101561032157600080fd5b506001600160a01b038135811691602081013590911690604001356106f5565b6102f96004803603602081101561035757600080fd5b5035610723565b61038a6004803603604081101561037457600080fd5b50803590602001356001600160a01b0316610738565b005b610394610759565b6040805160ff9092168252519081900360200190f35b6102d561075e565b61038a600480360360408110156103c857600080fd5b50803590602001356001600160a01b031661076d565b6101fb600480360360408110156103f457600080fd5b506001600160a01b0381351690602001356107d2565b6102d56107f5565b6102f9610804565b6102f96004803603602081101561043057600080fd5b50356001600160a01b031661080b565b61038a610826565b6102d561083a565b61038a6004803603604081101561046657600080fd5b506001600160a01b038135169060200135610849565b6101fb6004803603604081101561049257600080fd5b50803590602001356001600160a01b03166108a6565b6102176108d1565b6102f9610932565b6101fb600480360360408110156104ce57600080fd5b506001600160a01b038135169060200135610937565b6101fb600480360360408110156104fa57600080fd5b506001600160a01b03813516906020013561099e565b61038a6004803603604081101561052657600080fd5b506001600160a01b0381351690602001356109b6565b61038a6004803603604081101561055257600080fd5b50803590602001356001600160a01b0316610a13565b61038a6004803603602081101561057e57600080fd5b50356001600160a01b0316610a2f565b6102f9600480360360408110156105a457600080fd5b506001600160a01b0381358116916020013516610b57565b61038a600480360360208110156105d257600080fd5b50356001600160a01b0316610b82565b60006001600160e01b03198216637965db0b60e01b1480610607575061060782610bdb565b92915050565b60038054604080516020601f60026000196101006001881615020190951694909404938401819004810282018101909252828152606093909290918301828280156106995780601f1061066e57610100808354040283529160200191610699565b820191906000526020600020905b81548152906001019060200180831161067c57829003601f168201915b5050505050905090565b6000806106ae610bf4565b90506106bb818585610bf8565b5060019392505050565b600881815481106106d557600080fd5b6000918252602090912001546001600160a01b0316905081565b60025490565b600080610700610bf4565b905061070d858285610ce4565b610718858585610d63565b506001949350505050565b60009081526005602052604090206001015490565b61074182610723565b61074a81610ebe565b6107548383610ecf565b505050565b600690565b600b546001600160a01b031681565b610775610bf4565b6001600160a01b0316816001600160a01b0316146107c45760405162461bcd60e51b815260040180806020018281038252602f8152602001806116ee602f913960400191505060405180910390fd5b6107ce8282610f56565b5050565b6000806107dd610bf4565b90506106bb8185856107ef8589610b57565b01610bf8565b6009546001600160a01b031681565b620f424090565b6001600160a01b031660009081526020819052604090205490565b61082e610fdb565b610838600061104f565b565b6006546001600160a01b031690565b3360009081526007602052604090205460ff16151560011461089c5760405162461bcd60e51b815260040180806020018281038252602181526020018061163e6021913960400191505060405180910390fd5b6107ce82826110a1565b60009182526005602090815260408084206001600160a01b0393909316845291905290205460ff1690565b60048054604080516020601f60026000196101006001881615020190951694909404938401819004810282018101909252828152606093909290918301828280156106995780601f1061066e57610100808354040283529160200191610699565b600081565b600080610942610bf4565b905060006109508286610b57565b9050838110156109915760405162461bcd60e51b81526004018080602001828103825260258152602001806116c96025913960400191505060405180910390fd5b6107188286868403610bf8565b6000806109a9610bf4565b90506106bb818585610d63565b3360009081526007602052604090205460ff161515600114610a095760405162461bcd60e51b815260040180806020018281038252602181526020018061163e6021913960400191505060405180910390fd5b6107ce82826111b2565b610a1c82610723565b610a2581610ebe565b6107548383610f56565b610a37610fdb565b6001600160a01b038116610a8a576040805162461bcd60e51b815260206004820152601560248201527416995c9bc81859191c995cdcc819195d1958dd1959605a1b604482015290519081900360640190fd5b6001600160a01b03811660009081526007602052604090205460ff1615610af1576040805162461bcd60e51b81526020600482015260166024820152754164647265737320616c72656164792065786973747360501b604482015290519081900360640190fd5b6001600160a01b03166000818152600760205260408120805460ff191660019081179091556008805491820181559091527ff3f7a9fe364faab93b216da50a3214154f22a0a2b415b23a84c8169e8b636ee30180546001600160a01b0319169091179055565b6001600160a01b03918216600090815260016020908152604080832093909416825291909152205490565b610b8a610fdb565b6001600160a01b038116610bcf5760405162461bcd60e51b81526004018080602001828103825260268152602001806115d06026913960400191505060405180910390fd5b610bd88161104f565b50565b6001600160e01b031981166301ffc9a760e01b14919050565b3390565b6001600160a01b038316610c3d5760405162461bcd60e51b81526004018080602001828103825260248152602001806116a56024913960400191505060405180910390fd5b6001600160a01b038216610c825760405162461bcd60e51b81526004018080602001828103825260228152602001806115f66022913960400191505060405180910390fd5b6001600160a01b03808416600081815260016020908152604080832094871680845294825291829020859055815185815291517f8c5be1e5ebec7d5bd14f71427d1e84f3dd0314c0f7b2291e5b200ac8c7c3b9259281900390910190a3505050565b6000610cf08484610b57565b90506000198114610d5d5781811015610d50576040805162461bcd60e51b815260206004820152601d60248201527f45524332303a20696e73756666696369656e7420616c6c6f77616e6365000000604482015290519081900360640190fd5b610d5d8484848403610bf8565b50505050565b6001600160a01b038316610da85760405162461bcd60e51b81526004018080602001828103825260258152602001806116806025913960400191505060405180910390fd5b6001600160a01b038216610ded5760405162461bcd60e51b815260040180806020018281038252602381526020018061158b6023913960400191505060405180910390fd5b610df8838383610754565b6001600160a01b03831660009081526020819052604090205481811015610e505760405162461bcd60e51b81526004018080602001828103825260268152602001806116186026913960400191505060405180910390fd5b6001600160a01b038085166000818152602081815260408083208787039055938716808352918490208054870190558351868152935191937fddf252ad1be2c89b69c2b068fc378daa952ba7f163c4a11628f55a4df523b3ef929081900390910190a3610d5d848484610754565b610bd881610eca610bf4565b61127e565b610ed982826108a6565b6107ce5760008281526005602090815260408083206001600160a01b03851684529091529020805460ff19166001179055610f12610bf4565b6001600160a01b0316816001600160a01b0316837f2f8788117e7eff1d82e926ec794901d17c78024a50270940304540a733656f0d60405160405180910390a45050565b610f6082826108a6565b156107ce5760008281526005602090815260408083206001600160a01b03851684529091529020805460ff19169055610f97610bf4565b6001600160a01b0316816001600160a01b0316837ff6391f5c32d9c69d2a47ea670b442974b53935d1edc7fd64eb21e047a839171b60405160405180910390a45050565b610fe3610bf4565b6001600160a01b0316610ff461083a565b6001600160a01b031614610838576040805162461bcd60e51b815260206004820181905260248201527f4f776e61626c653a2063616c6c6572206973206e6f7420746865206f776e6572604482015290519081900360640190fd5b600680546001600160a01b038381166001600160a01b0319831681179093556040519116919082907f8be0079c531659141344cd1fd0a4f28419497f9722a3daafe3b4186f6b6457e090600090a35050565b6001600160a01b0382166110e65760405162461bcd60e51b815260040180806020018281038252602181526020018061165f6021913960400191505060405180910390fd5b6110f282600083610754565b6001600160a01b0382166000908152602081905260409020548181101561114a5760405162461bcd60e51b81526004018080602001828103825260228152602001806115ae6022913960400191505060405180910390fd5b6001600160a01b0383166000818152602081815260408083208686039055600280548790039055805186815290519293927fddf252ad1be2c89b69c2b068fc378daa952ba7f163c4a11628f55a4df523b3ef929181900390910190a361075483600084610754565b6001600160a01b03821661120d576040805162461bcd60e51b815260206004820152601f60248201527f45524332303a206d696e7420746f20746865207a65726f206164647265737300604482015290519081900360640190fd5b61121960008383610754565b60028054820190556001600160a01b038216600081815260208181526040808320805486019055805185815290517fddf252ad1be2c89b69c2b068fc378daa952ba7f163c4a11628f55a4df523b3ef929181900390910190a36107ce60008383610754565b61128882826108a6565b6107ce5761129581611412565b6112a0836020611424565b60405160200180807f416363657373436f6e74726f6c3a206163636f756e742000000000000000000081525060170183805190602001908083835b602083106112fa5780518252601f1990920191602091820191016112db565b51815160209384036101000a60001901801990921691161790527001034b99036b4b9b9b4b733903937b6329607d1b919093019081528451601190910192850191508083835b6020831061135f5780518252601f199092019160209182019101611340565b51815160209384036101000a60001901801990921691161790526040805192909401828103601f190183529384905262461bcd60e51b84526004840181815282516024860152825192975095508594506044909301928601915080838360005b838110156113d75781810151838201526020016113bf565b50505050905090810190601f1680156114045780820380516001836020036101000a031916815260200191505b509250505060405180910390fd5b60606106076001600160a01b03831660145b606060008260020260020167ffffffffffffffff8111801561144557600080fd5b506040519080825280601f01601f191660200182016040528015611470576020820181803683370190505b509050600360fc1b8160008151811061148557fe5b60200101906001600160f81b031916908160001a905350600f60fb1b816001815181106114ae57fe5b60200101906001600160f81b031916908160001a905350600160028402015b600181111561152f576f181899199a1a9b1b9c1cb0b131b232b360811b85600f16601081106114f857fe5b1a60f81b82828151811061150857fe5b60200101906001600160f81b031916908160001a90535060049490941c93600019016114cd565b508315611583576040805162461bcd60e51b815260206004820181905260248201527f537472696e67733a20686578206c656e67746820696e73756666696369656e74604482015290519081900360640190fd5b939250505056fe45524332303a207472616e7366657220746f20746865207a65726f206164647265737345524332303a206275726e20616d6f756e7420657863656564732062616c616e63654f776e61626c653a206e6577206f776e657220697320746865207a65726f206164647265737345524332303a20617070726f766520746f20746865207a65726f206164647265737345524332303a207472616e7366657220616d6f756e7420657863656564732062616c616e63654f6e6c7920706f6f6c732063616e2063616c6c20746869732066756e6374696f6e45524332303a206275726e2066726f6d20746865207a65726f206164647265737345524332303a207472616e736665722066726f6d20746865207a65726f206164647265737345524332303a20617070726f76652066726f6d20746865207a65726f206164647265737345524332303a2064656372656173656420616c6c6f77616e63652062656c6f77207a65726f416363657373436f6e74726f6c3a2063616e206f6e6c792072656e6f756e636520726f6c657320666f722073656c66a26469706673582212208c42077109f3d9fbed7a315cf75483b0e752e125e07ed69efb97dc648e03d8a764736f6c63430007060033",
  "devdoc": {
    "kind": "dev",
    "methods": {
      "allowance(address,address)": {
        "details": "See {IERC20-allowance}."
      },
      "approve(address,uint256)": {
        "details": "See {IERC20-approve}. NOTE: If `amount` is the maximum `uint256`, the allowance is not updated on `transferFrom`. This is semantically equivalent to an infinite approval. Requirements: - `spender` cannot be the zero address."
      },
      "balanceOf(address)": {
        "details": "See {IERC20-balanceOf}."
      },
      "decimals()": {
        "details": "Returns the number of decimals used to get its user representation. For example, if `decimals` equals `2`, a balance of `505` tokens should be displayed to a user as `5.05` (`505 / 10 ** 2`). Tokens usually opt for a value of 18, imitating the relationship between Ether and Wei. This is the value {ERC20} uses, unless this function is overridden; NOTE: This information is only used for _display_ purposes: it in no way affects any of the arithmetic of the contract, including {IERC20-balanceOf} and {IERC20-transfer}."
      },
      "decreaseAllowance(address,uint256)": {
        "details": "Atomically decreases the allowance granted to `spender` by the caller. This is an alternative to {approve} that can be used as a mitigation for problems described in {IERC20-approve}. Emits an {Approval} event indicating the updated allowance. Requirements: - `spender` cannot be the zero address. - `spender` must have allowance for the caller of at least `subtractedValue`."
      },
      "getRoleAdmin(bytes32)": {
        "details": "Returns the admin role that controls `role`. See {grantRole} and {revokeRole}. To change a role's admin, use {_setRoleAdmin}."
      },
      "grantRole(bytes32,address)": {
        "details": "Grants `role` to `account`. If `account` had not been already granted `role`, emits a {RoleGranted} event. Requirements: - the caller must have ``role``'s admin role. May emit a {RoleGranted} event."
      },
      "hasRole(bytes32,address)": {
        "details": "Returns `true` if `account` has been granted `role`."
      },
      "increaseAllowance(address,uint256)": {
        "details": "Atomically increases the allowance granted to `spender` by the caller. This is an alternative to {approve} that can be used as a mitigation for problems described in {IERC20-approve}. Emits an {Approval} event indicating the updated allowance. Requirements: - `spender` cannot be the zero address."
      },
      "name()": {
        "details": "Returns the name of the token."
      },
      "owner()": {
        "details": "Returns the address of the current owner."
      },
      "renounceOwnership()": {
        "details": "Leaves the contract without owner. It will not be possible to call `onlyOwner` functions anymore. Can only be called by the current owner. NOTE: Renouncing ownership will leave the contract without an owner, thereby removing any functionality that is only available to the owner."
      },
      "renounceRole(bytes32,address)": {
        "details": "Revokes `role` from the calling account. Roles are often managed via {grantRole} and {revokeRole}: this function's purpose is to provide a mechanism for accounts to lose their privileges if they are compromised (such as when a trusted device is misplaced). If the calling account had been revoked `role`, emits a {RoleRevoked} event. Requirements: - the caller must be `account`. May emit a {RoleRevoked} event."
      },
      "revokeRole(bytes32,address)": {
        "details": "Revokes `role` from `account`. If `account` had been granted `role`, emits a {RoleRevoked} event. Requirements: - the caller must have ``role``'s admin role. May emit a {RoleRevoked} event."
      },
      "supportsInterface(bytes4)": {
        "details": "See {IERC165-supportsInterface}."
      },
      "symbol()": {
        "details": "Returns the symbol of the token, usually a shorter version of the name."
      },
      "totalSupply()": {
        "details": "See {IERC20-totalSupply}."
      },
      "transfer(address,uint256)": {
        "details": "See {IERC20-transfer}. Requirements: - `to` cannot be the zero address. - the caller must have a balance of at least `amount`."
      },
      "transferFrom(address,address,uint256)": {
        "details": "See {IERC20-transferFrom}. Emits an {Approval} event indicating the updated allowance. This is not required by the EIP. See the note at the beginning of {ERC20}. NOTE: Does not update the allowance if the current allowance is the maximum `uint256`. Requirements: - `from` and `to` cannot be the zero address. - `from` must have a balance of at least `amount`. - the caller must have allowance for ``from``'s tokens of at least `amount`."
      },
      "transferOwnership(address)": {
        "details": "Transfers ownership of the contract to a new account (`newOwner`). Can only be called by the current owner."
      }
    },
    "version": 1
  },
  "userdoc": {
    "kind": "user",
    "methods": {},
    "version": 1
  },
  "storageLayout": {
    "storage": [
      {
        "astId": 5745,
        "contract": "contracts/stablecoin/DS.sol:DS",
        "label": "_balances",
        "offset": 0,
        "slot": "0",
        "type": "t_mapping(t_address,t_uint256)"
      },
      {
        "astId": 5751,
        "contract": "contracts/stablecoin/DS.sol:DS",
        "label": "_allowances",
        "offset": 0,
        "slot": "1",
        "type": "t_mapping(t_address,t_mapping(t_address,t_uint256))"
      },
      {
        "astId": 5753,
        "contract": "contracts/stablecoin/DS.sol:DS",
        "label": "_totalSupply",
        "offset": 0,
        "slot": "2",
        "type": "t_uint256"
      },
      {
        "astId": 5755,
        "contract": "contracts/stablecoin/DS.sol:DS",
        "label": "_name",
        "offset": 0,
        "slot": "3",
        "type": "t_string_storage"
      },
      {
        "astId": 5757,
        "contract": "contracts/stablecoin/DS.sol:DS",
        "label": "_symbol",
        "offset": 0,
        "slot": "4",
        "type": "t_string_storage"
      },
      {
        "astId": 4296,
        "contract": "contracts/stablecoin/DS.sol:DS",
        "label": "_roles",
        "offset": 0,
        "slot": "5",
        "type": "t_mapping(t_bytes32,t_struct(RoleData)4292_storage)"
      },
      {
        "astId": 4690,
        "contract": "contracts/stablecoin/DS.sol:DS",
        "label": "_owner",
        "offset": 0,
        "slot": "6",
        "type": "t_address"
      },
      {
        "astId": 16367,
        "contract": "contracts/stablecoin/DS.sol:DS",
        "label": "pools",
        "offset": 0,
        "slot": "7",
        "type": "t_mapping(t_address,t_bool)"
      },
      {
        "astId": 16370,
        "contract": "contracts/stablecoin/DS.sol:DS",
        "label": "pools_array",
        "offset": 0,
        "slot": "8",
        "type": "t_array(t_address)dyn_storage"
      },
      {
        "astId": 16372,
        "contract": "contracts/stablecoin/DS.sol:DS",
        "label": "creator_address",
        "offset": 0,
        "slot": "9",
        "type": "t_address"
      },
      {
        "astId": 16374,
        "contract": "contracts/stablecoin/DS.sol:DS",
        "label": "timelock_address",
        "offset": 0,
        "slot": "10",
        "type": "t_address"
      },
      {
        "astId": 16376,
        "contract": "contracts/stablecoin/DS.sol:DS",
        "label": "DEFAULT_ADMIN_ADDRESS",
        "offset": 0,
        "slot": "11",
        "type": "t_address"
      }
    ],
    "types": {
      "t_address": {
        "encoding": "inplace",
        "label": "address",
        "numberOfBytes": "20"
      },
      "t_array(t_address)dyn_storage": {
        "base": "t_address",
        "encoding": "dynamic_array",
        "label": "address[]",
        "numberOfBytes": "32"
      },
      "t_bool": {
        "encoding": "inplace",
        "label": "bool",
        "numberOfBytes": "1"
      },
      "t_bytes32": {
        "encoding": "inplace",
        "label": "bytes32",
        "numberOfBytes": "32"
      },
      "t_mapping(t_address,t_bool)": {
        "encoding": "mapping",
        "key": "t_address",
        "label": "mapping(address => bool)",
        "numberOfBytes": "32",
        "value": "t_bool"
      },
      "t_mapping(t_address,t_mapping(t_address,t_uint256))": {
        "encoding": "mapping",
        "key": "t_address",
        "label": "mapping(address => mapping(address => uint256))",
        "numberOfBytes": "32",
        "value": "t_mapping(t_address,t_uint256)"
      },
      "t_mapping(t_address,t_uint256)": {
        "encoding": "mapping",
        "key": "t_address",
        "label": "mapping(address => uint256)",
        "numberOfBytes": "32",
        "value": "t_uint256"
      },
      "t_mapping(t_bytes32,t_struct(RoleData)4292_storage)": {
        "encoding": "mapping",
        "key": "t_bytes32",
        "label": "mapping(bytes32 => struct AccessControl.RoleData)",
        "numberOfBytes": "32",
        "value": "t_struct(RoleData)4292_storage"
      },
      "t_string_storage": {
        "encoding": "bytes",
        "label": "string",
        "numberOfBytes": "32"
      },
      "t_struct(RoleData)4292_storage": {
        "encoding": "inplace",
        "label": "struct AccessControl.RoleData",
        "members": [
          {
            "astId": 4289,
            "contract": "contracts/stablecoin/DS.sol:DS",
            "label": "members",
            "offset": 0,
            "slot": "0",
            "type": "t_mapping(t_address,t_bool)"
          },
          {
            "astId": 4291,
            "contract": "contracts/stablecoin/DS.sol:DS",
            "label": "adminRole",
            "offset": 0,
            "slot": "1",
            "type": "t_bytes32"
          }
        ],
        "numberOfBytes": "64"
      },
      "t_uint256": {
        "encoding": "inplace",
        "label": "uint256",
        "numberOfBytes": "32"
      }
    }
  }
}