{
  "address": "0x0449EC87720500128a59e888e167A106761CD97c",
  "abi": [
    {
      "inputs": [
        {
          "internalType": "string",
          "name": "_name",
          "type": "string"
        },
        {
          "internalType": "string",
          "name": "_symbol",
          "type": "string"
        },
        {
          "internalType": "address",
          "name": "_deployer_address",
          "type": "address"
        },
        {
          "internalType": "address",
          "name": "_timelock_address",
          "type": "address"
        }
      ],
      "stateMutability": "nonpayable",
      "type": "constructor"
    },
    {
      "anonymous": false,
      "inputs": [
        {
          "indexed": true,
          "internalType": "address",
          "name": "owner",
          "type": "address"
        },
        {
          "indexed": true,
          "internalType": "address",
          "name": "spender",
          "type": "address"
        },
        {
          "indexed": false,
          "internalType": "uint256",
          "name": "value",
          "type": "uint256"
        }
      ],
      "name": "Approval",
      "type": "event"
    },
    {
      "anonymous": false,
      "inputs": [
        {
          "indexed": false,
          "internalType": "address",
          "name": "oldOwner",
          "type": "address"
        },
        {
          "indexed": false,
          "internalType": "address",
          "name": "newOwner",
          "type": "address"
        }
      ],
      "name": "OwnerChanged",
      "type": "event"
    },
    {
      "anonymous": false,
      "inputs": [
        {
          "indexed": false,
          "internalType": "address",
          "name": "newOwner",
          "type": "address"
        }
      ],
      "name": "OwnerNominated",
      "type": "event"
    },
    {
      "anonymous": false,
      "inputs": [
        {
          "indexed": true,
          "internalType": "address",
          "name": "from",
          "type": "address"
        },
        {
          "indexed": true,
          "internalType": "address",
          "name": "to",
          "type": "address"
        },
        {
          "indexed": false,
          "internalType": "uint256",
          "name": "value",
          "type": "uint256"
        }
      ],
      "name": "Transfer",
      "type": "event"
    },
    {
      "inputs": [],
      "name": "acceptOwnership",
      "outputs": [],
      "stateMutability": "nonpayable",
      "type": "function"
    },
    {
      "inputs": [
        {
          "internalType": "address",
          "name": "pool_address",
          "type": "address"
        }
      ],
      "name": "addPool",
      "outputs": [],
      "stateMutability": "nonpayable",
      "type": "function"
    },
    {
      "inputs": [
        {
          "internalType": "address",
          "name": "owner",
          "type": "address"
        },
        {
          "internalType": "address",
          "name": "spender",
          "type": "address"
        }
      ],
      "name": "allowance",
      "outputs": [
        {
          "internalType": "uint256",
          "name": "",
          "type": "uint256"
        }
      ],
      "stateMutability": "view",
      "type": "function"
    },
    {
      "inputs": [
        {
          "internalType": "address",
          "name": "spender",
          "type": "address"
        },
        {
          "internalType": "uint256",
          "name": "amount",
          "type": "uint256"
        }
      ],
      "name": "approve",
      "outputs": [
        {
          "internalType": "bool",
          "name": "",
          "type": "bool"
        }
      ],
      "stateMutability": "nonpayable",
      "type": "function"
    },
    {
      "inputs": [
        {
          "internalType": "address",
          "name": "account",
          "type": "address"
        }
      ],
      "name": "balanceOf",
      "outputs": [
        {
          "internalType": "uint256",
          "name": "",
          "type": "uint256"
        }
      ],
      "stateMutability": "view",
      "type": "function"
    },
    {
      "inputs": [],
      "name": "decimals",
      "outputs": [
        {
          "internalType": "uint8",
          "name": "",
          "type": "uint8"
        }
      ],
      "stateMutability": "view",
      "type": "function"
    },
    {
      "inputs": [
        {
          "internalType": "address",
          "name": "spender",
          "type": "address"
        },
        {
          "internalType": "uint256",
          "name": "subtractedValue",
          "type": "uint256"
        }
      ],
      "name": "decreaseAllowance",
      "outputs": [
        {
          "internalType": "bool",
          "name": "",
          "type": "bool"
        }
      ],
      "stateMutability": "nonpayable",
      "type": "function"
    },
    {
      "inputs": [],
      "name": "dss_price",
      "outputs": [
        {
          "internalType": "uint256",
          "name": "",
          "type": "uint256"
        }
      ],
      "stateMutability": "view",
      "type": "function"
    },
    {
      "inputs": [],
      "name": "get_collateral_ratio",
      "outputs": [
        {
          "internalType": "uint256",
          "name": "",
          "type": "uint256"
        }
      ],
      "stateMutability": "view",
      "type": "function"
    },
    {
      "inputs": [
        {
          "internalType": "address",
          "name": "spender",
          "type": "address"
        },
        {
          "internalType": "uint256",
          "name": "addedValue",
          "type": "uint256"
        }
      ],
      "name": "increaseAllowance",
      "outputs": [
        {
          "internalType": "bool",
          "name": "",
          "type": "bool"
        }
      ],
      "stateMutability": "nonpayable",
      "type": "function"
    },
    {
      "inputs": [],
      "name": "name",
      "outputs": [
        {
          "internalType": "string",
          "name": "",
          "type": "string"
        }
      ],
      "stateMutability": "view",
      "type": "function"
    },
    {
      "inputs": [
        {
          "internalType": "address",
          "name": "_owner",
          "type": "address"
        }
      ],
      "name": "nominateNewOwner",
      "outputs": [],
      "stateMutability": "nonpayable",
      "type": "function"
    },
    {
      "inputs": [],
      "name": "nominatedOwner",
      "outputs": [
        {
          "internalType": "address",
          "name": "",
          "type": "address"
        }
      ],
      "stateMutability": "view",
      "type": "function"
    },
    {
      "inputs": [],
      "name": "owner",
      "outputs": [
        {
          "internalType": "address",
          "name": "",
          "type": "address"
        }
      ],
      "stateMutability": "view",
      "type": "function"
    },
    {
      "inputs": [
        {
          "internalType": "address",
          "name": "account",
          "type": "address"
        },
        {
          "internalType": "uint256",
          "name": "amount",
          "type": "uint256"
        }
      ],
      "name": "pool_burn",
      "outputs": [],
      "stateMutability": "nonpayable",
      "type": "function"
    },
    {
      "inputs": [
        {
          "internalType": "address",
          "name": "to",
          "type": "address"
        },
        {
          "internalType": "uint256",
          "name": "amount",
          "type": "uint256"
        }
      ],
      "name": "pool_mint",
      "outputs": [],
      "stateMutability": "nonpayable",
      "type": "function"
    },
    {
      "inputs": [
        {
          "internalType": "uint256",
          "name": "",
          "type": "uint256"
        }
      ],
      "name": "pools_array",
      "outputs": [
        {
          "internalType": "address",
          "name": "",
          "type": "address"
        }
      ],
      "stateMutability": "view",
      "type": "function"
    },
    {
      "inputs": [],
      "name": "symbol",
      "outputs": [
        {
          "internalType": "string",
          "name": "",
          "type": "string"
        }
      ],
      "stateMutability": "view",
      "type": "function"
    },
    {
      "inputs": [],
      "name": "totalSupply",
      "outputs": [
        {
          "internalType": "uint256",
          "name": "",
          "type": "uint256"
        }
      ],
      "stateMutability": "view",
      "type": "function"
    },
    {
      "inputs": [
        {
          "internalType": "address",
          "name": "recipient",
          "type": "address"
        },
        {
          "internalType": "uint256",
          "name": "amount",
          "type": "uint256"
        }
      ],
      "name": "transfer",
      "outputs": [
        {
          "internalType": "bool",
          "name": "",
          "type": "bool"
        }
      ],
      "stateMutability": "nonpayable",
      "type": "function"
    },
    {
      "inputs": [
        {
          "internalType": "address",
          "name": "sender",
          "type": "address"
        },
        {
          "internalType": "address",
          "name": "recipient",
          "type": "address"
        },
        {
          "internalType": "uint256",
          "name": "amount",
          "type": "uint256"
        }
      ],
      "name": "transferFrom",
      "outputs": [
        {
          "internalType": "bool",
          "name": "",
          "type": "bool"
        }
      ],
      "stateMutability": "nonpayable",
      "type": "function"
    }
  ],
  "transactionHash": "0x7aa69965665632c706b187e561eec204d4884b3c811fa42d052eb1a81da7d02b",
  "args": [
    "DS",
    "DS",
    "0xFD84b7AC1E646580db8c77f1f05F47977fAda692",
    "0xFD84b7AC1E646580db8c77f1f05F47977fAda692"
  ],
  "solcInputHash": "cb0cb1886bee81de7f5b747d568ad04c",
  "bytecode": "0x608060405269d3c21bcecceda1000000600b553480156200001f57600080fd5b50604051620017ea380380620017ea833981810160405260808110156200004557600080fd5b81019080805160405193929190846401000000008211156200006657600080fd5b9083019060208201858111156200007c57600080fd5b82516401000000008111828201881017156200009757600080fd5b82525081516020918201929091019080838360005b83811015620000c6578181015183820152602001620000ac565b50505050905090810190601f168015620000f45780820380516001836020036101000a031916815260200191505b50604052602001805160405193929190846401000000008211156200011857600080fd5b9083019060208201858111156200012e57600080fd5b82516401000000008111828201881017156200014957600080fd5b82525081516020918201929091019080838360005b83811015620001785781810151838201526020016200015e565b50505050905090810190601f168015620001a65780820380516001836020036101000a031916815260200191505b506040908152602082810151929091015186519294509250839186918691620001d691600391908501906200047b565b508051620001ec9060049060208401906200047b565b50506005805460ff19166012179055506001600160a01b03811662000258576040805162461bcd60e51b815260206004820152601960248201527f4f776e657220616464726573732063616e6e6f74206265203000000000000000604482015290519081900360640190fd5b60058054610100600160a81b0319166101006001600160a01b038416908102919091179091556040805160008152602081019290925280517fb532073b38c83145e3e5135377a08bf9aab55bc0fd7c1179cd4fb995d2a5159c9281900390910190a150600980546001600160a01b038085166001600160a01b031992831617909255600a805492841692909116919091179055600b54620002fb90839062000305565b5050505062000527565b6001600160a01b03821662000361576040805162461bcd60e51b815260206004820152601f60248201527f45524332303a206d696e7420746f20746865207a65726f206164647265737300604482015290519081900360640190fd5b6200036f6000838362000414565b6200038b816002546200041960201b62000aee1790919060201c565b6002556001600160a01b03821660009081526020818152604090912054620003be91839062000aee62000419821b17901c565b6001600160a01b0383166000818152602081815260408083209490945583518581529351929391927fddf252ad1be2c89b69c2b068fc378daa952ba7f163c4a11628f55a4df523b3ef9281900390910190a35050565b505050565b60008282018381101562000474576040805162461bcd60e51b815260206004820152601b60248201527f536166654d6174683a206164646974696f6e206f766572666c6f770000000000604482015290519081900360640190fd5b9392505050565b828054600181600116156101000203166002900490600052602060002090601f016020900481019282620004b35760008555620004fe565b82601f10620004ce57805160ff1916838001178555620004fe565b82800160010185558215620004fe579182015b82811115620004fe578251825591602001919060010190620004e1565b506200050c92915062000510565b5090565b5b808211156200050c576000815560010162000511565b6112b380620005376000396000f3fe608060405234801561001057600080fd5b50600436106101375760003560e01c806354510863116100b857806395d89b411161007c57806395d89b4114610366578063a457c2d71461036e578063a9059cbb1461039a578063b4f56b26146103c6578063d914cd4b146103f2578063dd62ed3e1461041857610137565b806354510863146102f457806370a082311461030457806379ba50971461032a5780638da5cb5b14610332578063908fd7681461033a57610137565b806323b872dd116100ff57806323b872dd14610274578063313ce567146102aa57806339509351146102c85780634ed9ac1f146102f457806353a47bb7146102fc57610137565b806306fdde031461013c578063095ea7b3146101b95780631189ebea146101f95780631627540c1461023257806318160ddd1461025a575b600080fd5b610144610446565b6040805160208082528351818301528351919283929083019185019080838360005b8381101561017e578181015183820152602001610166565b50505050905090810190601f1680156101ab5780820380516001836020036101000a031916815260200191505b509250505060405180910390f35b6101e5600480360360408110156101cf57600080fd5b506001600160a01b0381351690602001356104dc565b604080519115158252519081900360200190f35b6102166004803603602081101561020f57600080fd5b50356104f9565b604080516001600160a01b039092168252519081900360200190f35b6102586004803603602081101561024857600080fd5b50356001600160a01b0316610523565b005b6102626105c5565b60408051918252519081900360200190f35b6101e56004803603606081101561028a57600080fd5b506001600160a01b038135811691602081013590911690604001356105cb565b6102b2610652565b6040805160ff9092168252519081900360200190f35b6101e5600480360360408110156102de57600080fd5b506001600160a01b03813516906020013561065b565b6102626106a9565b6102166106b0565b6102626004803603602081101561031a57600080fd5b50356001600160a01b03166106bf565b6102586106da565b6102166107a6565b6102586004803603604081101561035057600080fd5b506001600160a01b0381351690602001356107ba565b61014461081b565b6101e56004803603604081101561038457600080fd5b506001600160a01b03813516906020013561087c565b6101e5600480360360408110156103b057600080fd5b506001600160a01b0381351690602001356108e4565b610258600480360360408110156103dc57600080fd5b506001600160a01b0381351690602001356108f8565b6102586004803603602081101561040857600080fd5b50356001600160a01b0316610955565b6102626004803603604081101561042e57600080fd5b506001600160a01b0381358116916020013516610ac3565b60038054604080516020601f60026000196101006001881615020190951694909404938401819004810282018101909252828152606093909290918301828280156104d25780601f106104a7576101008083540402835291602001916104d2565b820191906000526020600020905b8154815290600101906020018083116104b557829003601f168201915b5050505050905090565b60006104f06104e9610b4f565b8484610b53565b50600192915050565b6008818154811061050957600080fd5b6000918252602090912001546001600160a01b0316905081565b60055461010090046001600160a01b031633146105715760405162461bcd60e51b815260040180806020018281038252602f815260200180611163602f913960400191505060405180910390fd5b600680546001600160a01b0383166001600160a01b0319909116811790915560408051918252517f906a1c6bd7e3091ea86693dd029a831c19049ce77f1dce2ce0bab1cacbabce229181900360200190a150565b60025490565b60006105d8848484610c3f565b610648846105e4610b4f565b61064385604051806060016040528060288152602001611192602891396001600160a01b038a16600090815260016020526040812090610622610b4f565b6001600160a01b031681526020810191909152604001600020549190610d9a565b610b53565b5060019392505050565b60055460ff1690565b60006104f0610668610b4f565b846106438560016000610679610b4f565b6001600160a01b03908116825260208083019390935260409182016000908120918c168152925290205490610aee565b620f424090565b6006546001600160a01b031681565b6001600160a01b031660009081526020819052604090205490565b6006546001600160a01b031633146107235760405162461bcd60e51b81526004018080602001828103825260358152602001806110a36035913960400191505060405180910390fd5b600554600654604080516101009093046001600160a01b039081168452909116602083015280517fb532073b38c83145e3e5135377a08bf9aab55bc0fd7c1179cd4fb995d2a5159c9281900390910190a16006805460058054610100600160a81b0319166101006001600160a01b038416021790556001600160a01b0319169055565b60055461010090046001600160a01b031681565b3360009081526007602052604090205460ff16151560011461080d5760405162461bcd60e51b81526004018080602001828103825260218152602001806111426021913960400191505060405180910390fd5b6108178282610e31565b5050565b60048054604080516020601f60026000196101006001881615020190951694909404938401819004810282018101909252828152606093909290918301828280156104d25780601f106104a7576101008083540402835291602001916104d2565b60006104f0610889610b4f565b846106438560405180606001604052806025815260200161125960259139600160006108b3610b4f565b6001600160a01b03908116825260208083019390935260409182016000908120918d16815292529020549190610d9a565b60006104f06108f1610b4f565b8484610c3f565b3360009081526007602052604090205460ff16151560011461094b5760405162461bcd60e51b81526004018080602001828103825260218152602001806111426021913960400191505060405180910390fd5b6108178282610f2d565b60055461010090046001600160a01b031633146109a35760405162461bcd60e51b81526004018080602001828103825260358152602001806112006035913960400191505060405180910390fd5b6001600160a01b0381166109f6576040805162461bcd60e51b815260206004820152601560248201527416995c9bc81859191c995cdcc819195d1958dd1959605a1b604482015290519081900360640190fd5b6001600160a01b03811660009081526007602052604090205460ff1615610a5d576040805162461bcd60e51b81526020600482015260166024820152754164647265737320616c72656164792065786973747360501b604482015290519081900360640190fd5b6001600160a01b03166000818152600760205260408120805460ff191660019081179091556008805491820181559091527ff3f7a9fe364faab93b216da50a3214154f22a0a2b415b23a84c8169e8b636ee30180546001600160a01b0319169091179055565b6001600160a01b03918216600090815260016020908152604080832093909416825291909152205490565b600082820183811015610b48576040805162461bcd60e51b815260206004820152601b60248201527f536166654d6174683a206164646974696f6e206f766572666c6f770000000000604482015290519081900360640190fd5b9392505050565b3390565b6001600160a01b038316610b985760405162461bcd60e51b81526004018080602001828103825260248152602001806112356024913960400191505060405180910390fd5b6001600160a01b038216610bdd5760405162461bcd60e51b81526004018080602001828103825260228152602001806110fa6022913960400191505060405180910390fd5b6001600160a01b03808416600081815260016020908152604080832094871680845294825291829020859055815185815291517f8c5be1e5ebec7d5bd14f71427d1e84f3dd0314c0f7b2291e5b200ac8c7c3b9259281900390910190a3505050565b6001600160a01b038316610c845760405162461bcd60e51b81526004018080602001828103825260258152602001806111db6025913960400191505060405180910390fd5b6001600160a01b038216610cc95760405162461bcd60e51b81526004018080602001828103825260238152602001806110806023913960400191505060405180910390fd5b610cd483838361101d565b610d118160405180606001604052806026815260200161111c602691396001600160a01b0386166000908152602081905260409020549190610d9a565b6001600160a01b038085166000908152602081905260408082209390935590841681522054610d409082610aee565b6001600160a01b038084166000818152602081815260409182902094909455805185815290519193928716927fddf252ad1be2c89b69c2b068fc378daa952ba7f163c4a11628f55a4df523b3ef92918290030190a3505050565b60008184841115610e295760405162461bcd60e51b81526004018080602001828103825283818151815260200191508051906020019080838360005b83811015610dee578181015183820152602001610dd6565b50505050905090810190601f168015610e1b5780820380516001836020036101000a031916815260200191505b509250505060405180910390fd5b505050900390565b6001600160a01b038216610e765760405162461bcd60e51b81526004018080602001828103825260218152602001806111ba6021913960400191505060405180910390fd5b610e828260008361101d565b610ebf816040518060600160405280602281526020016110d8602291396001600160a01b0385166000908152602081905260409020549190610d9a565b6001600160a01b038316600090815260208190526040902055600254610ee59082611022565b6002556040805182815290516000916001600160a01b038516917fddf252ad1be2c89b69c2b068fc378daa952ba7f163c4a11628f55a4df523b3ef9181900360200190a35050565b6001600160a01b038216610f88576040805162461bcd60e51b815260206004820152601f60248201527f45524332303a206d696e7420746f20746865207a65726f206164647265737300604482015290519081900360640190fd5b610f946000838361101d565b600254610fa19082610aee565b6002556001600160a01b038216600090815260208190526040902054610fc79082610aee565b6001600160a01b0383166000818152602081815260408083209490945583518581529351929391927fddf252ad1be2c89b69c2b068fc378daa952ba7f163c4a11628f55a4df523b3ef9281900390910190a35050565b505050565b600082821115611079576040805162461bcd60e51b815260206004820152601e60248201527f536166654d6174683a207375627472616374696f6e206f766572666c6f770000604482015290519081900360640190fd5b5090039056fe45524332303a207472616e7366657220746f20746865207a65726f2061646472657373596f75206d757374206265206e6f6d696e61746564206265666f726520796f752063616e20616363657074206f776e65727368697045524332303a206275726e20616d6f756e7420657863656564732062616c616e636545524332303a20617070726f766520746f20746865207a65726f206164647265737345524332303a207472616e7366657220616d6f756e7420657863656564732062616c616e63654f6e6c7920706f6f6c732063616e2063616c6c20746869732066756e6374696f6e4f6e6c792074686520636f6e7472616374206f776e6572206d617920706572666f726d207468697320616374696f6e45524332303a207472616e7366657220616d6f756e74206578636565647320616c6c6f77616e636545524332303a206275726e2066726f6d20746865207a65726f206164647265737345524332303a207472616e736665722066726f6d20746865207a65726f20616464726573734e6f7420746865206f776e65722c20636f6e74726f6c6c65722c206f722074686520676f7665726e616e63652074696d656c6f636b45524332303a20617070726f76652066726f6d20746865207a65726f206164647265737345524332303a2064656372656173656420616c6c6f77616e63652062656c6f77207a65726fa26469706673582212205b2e692a85e8d350c715775215586c94cd4e13a2c3289405062e745e46f8fb2664736f6c63430007060033",
  "devdoc": {
    "kind": "dev",
    "methods": {
      "allowance(address,address)": {
        "details": "See {IERC20-allowance}."
      },
      "approve(address,uint256)": {
        "details": "See {IERC20-approve}. Requirements: - `spender` cannot be the zero address."
      },
      "balanceOf(address)": {
        "details": "See {IERC20-balanceOf}."
      },
      "decimals()": {
        "details": "Returns the number of decimals used to get its user representation. For example, if `decimals` equals `2`, a balance of `505` tokens should be displayed to a user as `5,05` (`505 / 10 ** 2`). Tokens usually opt for a value of 18, imitating the relationship between Ether and Wei. This is the value {ERC20} uses, unless {_setupDecimals} is called. NOTE: This information is only used for _display_ purposes: it in no way affects any of the arithmetic of the contract, including {IERC20-balanceOf} and {IERC20-transfer}."
      },
      "decreaseAllowance(address,uint256)": {
        "details": "Atomically decreases the allowance granted to `spender` by the caller. This is an alternative to {approve} that can be used as a mitigation for problems described in {IERC20-approve}. Emits an {Approval} event indicating the updated allowance. Requirements: - `spender` cannot be the zero address. - `spender` must have allowance for the caller of at least `subtractedValue`."
      },
      "increaseAllowance(address,uint256)": {
        "details": "Atomically increases the allowance granted to `spender` by the caller. This is an alternative to {approve} that can be used as a mitigation for problems described in {IERC20-approve}. Emits an {Approval} event indicating the updated allowance. Requirements: - `spender` cannot be the zero address."
      },
      "name()": {
        "details": "Returns the name of the token."
      },
      "symbol()": {
        "details": "Returns the symbol of the token, usually a shorter version of the name."
      },
      "totalSupply()": {
        "details": "See {IERC20-totalSupply}."
      },
      "transfer(address,uint256)": {
        "details": "See {IERC20-transfer}. Requirements: - `recipient` cannot be the zero address. - the caller must have a balance of at least `amount`."
      },
      "transferFrom(address,address,uint256)": {
        "details": "See {IERC20-transferFrom}. Emits an {Approval} event indicating the updated allowance. This is not required by the EIP. See the note at the beginning of {ERC20}. Requirements: - `sender` and `recipient` cannot be the zero address. - `sender` must have a balance of at least `amount`. - the caller must have allowance for ``sender``'s tokens of at least `amount`."
      }
    },
    "version": 1
  },
  "userdoc": {
    "kind": "user",
    "methods": {},
    "version": 1
  },
  "storageLayout": {
    "storage": [
      {
        "astId": 527,
        "contract": "contracts/stablecoin/DS.sol:DS",
        "label": "_balances",
        "offset": 0,
        "slot": "0",
        "type": "t_mapping(t_address,t_uint256)"
      },
      {
        "astId": 533,
        "contract": "contracts/stablecoin/DS.sol:DS",
        "label": "_allowances",
        "offset": 0,
        "slot": "1",
        "type": "t_mapping(t_address,t_mapping(t_address,t_uint256))"
      },
      {
        "astId": 535,
        "contract": "contracts/stablecoin/DS.sol:DS",
        "label": "_totalSupply",
        "offset": 0,
        "slot": "2",
        "type": "t_uint256"
      },
      {
        "astId": 537,
        "contract": "contracts/stablecoin/DS.sol:DS",
        "label": "_name",
        "offset": 0,
        "slot": "3",
        "type": "t_string_storage"
      },
      {
        "astId": 539,
        "contract": "contracts/stablecoin/DS.sol:DS",
        "label": "_symbol",
        "offset": 0,
        "slot": "4",
        "type": "t_string_storage"
      },
      {
        "astId": 541,
        "contract": "contracts/stablecoin/DS.sol:DS",
        "label": "_decimals",
        "offset": 0,
        "slot": "5",
        "type": "t_uint8"
      },
      {
        "astId": 12811,
        "contract": "contracts/stablecoin/DS.sol:DS",
        "label": "owner",
        "offset": 1,
        "slot": "5",
        "type": "t_address"
      },
      {
        "astId": 12813,
        "contract": "contracts/stablecoin/DS.sol:DS",
        "label": "nominatedOwner",
        "offset": 0,
        "slot": "6",
        "type": "t_address"
      },
      {
        "astId": 11759,
        "contract": "contracts/stablecoin/DS.sol:DS",
        "label": "pools",
        "offset": 0,
        "slot": "7",
        "type": "t_mapping(t_address,t_bool)"
      },
      {
        "astId": 11762,
        "contract": "contracts/stablecoin/DS.sol:DS",
        "label": "pools_array",
        "offset": 0,
        "slot": "8",
        "type": "t_array(t_address)dyn_storage"
      },
      {
        "astId": 11764,
        "contract": "contracts/stablecoin/DS.sol:DS",
        "label": "deployer_address",
        "offset": 0,
        "slot": "9",
        "type": "t_address"
      },
      {
        "astId": 11766,
        "contract": "contracts/stablecoin/DS.sol:DS",
        "label": "timelock_address",
        "offset": 0,
        "slot": "10",
        "type": "t_address"
      },
      {
        "astId": 11769,
        "contract": "contracts/stablecoin/DS.sol:DS",
        "label": "genesis_supply",
        "offset": 0,
        "slot": "11",
        "type": "t_uint256"
      }
    ],
    "types": {
      "t_address": {
        "encoding": "inplace",
        "label": "address",
        "numberOfBytes": "20"
      },
      "t_array(t_address)dyn_storage": {
        "base": "t_address",
        "encoding": "dynamic_array",
        "label": "address[]",
        "numberOfBytes": "32"
      },
      "t_bool": {
        "encoding": "inplace",
        "label": "bool",
        "numberOfBytes": "1"
      },
      "t_mapping(t_address,t_bool)": {
        "encoding": "mapping",
        "key": "t_address",
        "label": "mapping(address => bool)",
        "numberOfBytes": "32",
        "value": "t_bool"
      },
      "t_mapping(t_address,t_mapping(t_address,t_uint256))": {
        "encoding": "mapping",
        "key": "t_address",
        "label": "mapping(address => mapping(address => uint256))",
        "numberOfBytes": "32",
        "value": "t_mapping(t_address,t_uint256)"
      },
      "t_mapping(t_address,t_uint256)": {
        "encoding": "mapping",
        "key": "t_address",
        "label": "mapping(address => uint256)",
        "numberOfBytes": "32",
        "value": "t_uint256"
      },
      "t_string_storage": {
        "encoding": "bytes",
        "label": "string",
        "numberOfBytes": "32"
      },
      "t_uint256": {
        "encoding": "inplace",
        "label": "uint256",
        "numberOfBytes": "32"
      },
      "t_uint8": {
        "encoding": "inplace",
        "label": "uint8",
        "numberOfBytes": "1"
      }
    }
  }
}