{
  "address": "0x7f9c80f08810Cf7A03065cA78d015d121ebA68a7",
  "abi": [
    {
      "inputs": [
        {
          "internalType": "string",
          "name": "_type",
          "type": "string"
        },
        {
          "internalType": "string",
          "name": "_version",
          "type": "string"
        }
      ],
      "stateMutability": "nonpayable",
      "type": "constructor"
    },
    {
      "inputs": [
        {
          "internalType": "contract Controller",
          "name": "_controller",
          "type": "address"
        },
        {
          "internalType": "contract MarketManager",
          "name": "_marketManager",
          "type": "address"
        },
        {
          "internalType": "uint256",
          "name": "_vaultId",
          "type": "uint256"
        },
        {
          "internalType": "uint256",
          "name": "_offset",
          "type": "uint256"
        }
      ],
      "name": "fetchDynamic",
      "outputs": [
        {
          "components": [
            {
              "internalType": "uint256",
              "name": "vaultId",
              "type": "uint256"
            },
            {
              "internalType": "uint256",
              "name": "totalSupply",
              "type": "uint256"
            }
          ],
          "internalType": "struct Fetcher.DynamicVaultBundle",
          "name": "",
          "type": "tuple"
        },
        {
          "components": [
            {
              "internalType": "uint256",
              "name": "marketId",
              "type": "uint256"
            },
            {
              "components": [
                {
                  "internalType": "bool",
                  "name": "duringAssessment",
                  "type": "bool"
                },
                {
                  "internalType": "bool",
                  "name": "onlyReputable",
                  "type": "bool"
                },
                {
                  "internalType": "bool",
                  "name": "resolved",
                  "type": "bool"
                },
                {
                  "internalType": "uint256",
                  "name": "min_rep_score",
                  "type": "uint256"
                },
                {
                  "internalType": "bool",
                  "name": "alive",
                  "type": "bool"
                },
                {
                  "internalType": "bool",
                  "name": "atLoss",
                  "type": "bool"
                },
                {
                  "internalType": "uint256",
                  "name": "base_budget",
                  "type": "uint256"
                }
              ],
              "internalType": "struct MarketManager.MarketPhaseData",
              "name": "phase",
              "type": "tuple"
            },
            {
              "internalType": "uint256",
              "name": "longZCB",
              "type": "uint256"
            },
            {
              "internalType": "uint256",
              "name": "shortZCB",
              "type": "uint256"
            },
            {
              "components": [
                {
                  "internalType": "bool",
                  "name": "trusted",
                  "type": "bool"
                },
                {
                  "internalType": "uint256",
                  "name": "balance",
                  "type": "uint256"
                },
                {
                  "internalType": "uint256",
                  "name": "faceValue",
                  "type": "uint256"
                },
                {
                  "internalType": "uint256",
                  "name": "marketId",
                  "type": "uint256"
                },
                {
                  "internalType": "uint256",
                  "name": "principal",
                  "type": "uint256"
                },
                {
                  "internalType": "uint256",
                  "name": "expectedYield",
                  "type": "uint256"
                },
                {
                  "internalType": "uint256",
                  "name": "duration",
                  "type": "uint256"
                },
                {
                  "internalType": "string",
                  "name": "description",
                  "type": "string"
                },
                {
                  "internalType": "address",
                  "name": "Instrument_address",
                  "type": "address"
                },
                {
                  "internalType": "enum Vault.InstrumentType",
                  "name": "instrument_type",
                  "type": "uint8"
                },
                {
                  "internalType": "uint256",
                  "name": "maturityDate",
                  "type": "uint256"
                }
              ],
              "internalType": "struct Vault.InstrumentData",
              "name": "instrument",
              "type": "tuple"
            },
            {
              "internalType": "uint256",
              "name": "approved_principal",
              "type": "uint256"
            },
            {
              "internalType": "uint256",
              "name": "approved_yield",
              "type": "uint256"
            }
          ],
          "internalType": "struct Fetcher.DynamicMarketBundle[]",
          "name": "",
          "type": "tuple[]"
        },
        {
          "internalType": "uint256",
          "name": "",
          "type": "uint256"
        }
      ],
      "stateMutability": "view",
      "type": "function"
    },
    {
      "inputs": [
        {
          "internalType": "contract Controller",
          "name": "_controller",
          "type": "address"
        },
        {
          "internalType": "contract MarketManager",
          "name": "_marketManager",
          "type": "address"
        },
        {
          "internalType": "uint256",
          "name": "_vaultId",
          "type": "uint256"
        },
        {
          "internalType": "uint256",
          "name": "_offset",
          "type": "uint256"
        }
      ],
      "name": "fetchInitial",
      "outputs": [
        {
          "components": [
            {
              "internalType": "uint256",
              "name": "vaultId",
              "type": "uint256"
            },
            {
              "internalType": "uint256[]",
              "name": "marketIds",
              "type": "uint256[]"
            },
            {
              "components": [
                {
                  "internalType": "uint32",
                  "name": "N",
                  "type": "uint32"
                },
                {
                  "internalType": "uint256",
                  "name": "sigma",
                  "type": "uint256"
                },
                {
                  "internalType": "uint256",
                  "name": "alpha",
                  "type": "uint256"
                },
                {
                  "internalType": "uint256",
                  "name": "omega",
                  "type": "uint256"
                },
                {
                  "internalType": "uint256",
                  "name": "delta",
                  "type": "uint256"
                },
                {
                  "internalType": "uint256",
                  "name": "r",
                  "type": "uint256"
                },
                {
                  "internalType": "uint256",
                  "name": "s",
                  "type": "uint256"
                }
              ],
              "internalType": "struct MarketManager.MarketParameters",
              "name": "default_params",
              "type": "tuple"
            },
            {
              "internalType": "bool",
              "name": "onlyVerified",
              "type": "bool"
            },
            {
              "internalType": "uint256",
              "name": "r",
              "type": "uint256"
            },
            {
              "internalType": "uint256",
              "name": "asset_limit",
              "type": "uint256"
            },
            {
              "internalType": "uint256",
              "name": "total_asset_limit",
              "type": "uint256"
            },
            {
              "components": [
                {
                  "internalType": "address",
                  "name": "addr",
                  "type": "address"
                },
                {
                  "internalType": "string",
                  "name": "symbol",
                  "type": "string"
                },
                {
                  "internalType": "uint256",
                  "name": "decimals",
                  "type": "uint256"
                }
              ],
              "internalType": "struct Fetcher.CollateralBundle",
              "name": "collateral",
              "type": "tuple"
            }
          ],
          "internalType": "struct Fetcher.StaticVaultBundle",
          "name": "",
          "type": "tuple"
        },
        {
          "components": [
            {
              "internalType": "uint256",
              "name": "marketId",
              "type": "uint256"
            },
            {
              "internalType": "uint256",
              "name": "creationTimestamp",
              "type": "uint256"
            },
            {
              "internalType": "address",
              "name": "long",
              "type": "address"
            },
            {
              "internalType": "address",
              "name": "short",
              "type": "address"
            },
            {
              "components": [
                {
                  "internalType": "uint32",
                  "name": "N",
                  "type": "uint32"
                },
                {
                  "internalType": "uint256",
                  "name": "sigma",
                  "type": "uint256"
                },
                {
                  "internalType": "uint256",
                  "name": "alpha",
                  "type": "uint256"
                },
                {
                  "internalType": "uint256",
                  "name": "omega",
                  "type": "uint256"
                },
                {
                  "internalType": "uint256",
                  "name": "delta",
                  "type": "uint256"
                },
                {
                  "internalType": "uint256",
                  "name": "r",
                  "type": "uint256"
                },
                {
                  "internalType": "uint256",
                  "name": "s",
                  "type": "uint256"
                }
              ],
              "internalType": "struct MarketManager.MarketParameters",
              "name": "parameters",
              "type": "tuple"
            }
          ],
          "internalType": "struct Fetcher.StaticMarketBundle[]",
          "name": "",
          "type": "tuple[]"
        },
        {
          "internalType": "uint256",
          "name": "",
          "type": "uint256"
        }
      ],
      "stateMutability": "view",
      "type": "function"
    },
    {
      "inputs": [
        {
          "internalType": "uint256",
          "name": "marketId",
          "type": "uint256"
        },
        {
          "internalType": "contract MarketManager",
          "name": "_marketManager",
          "type": "address"
        }
      ],
      "name": "isUnresolvedMarket",
      "outputs": [
        {
          "internalType": "bool",
          "name": "",
          "type": "bool"
        }
      ],
      "stateMutability": "view",
      "type": "function"
    },
    {
      "inputs": [],
      "name": "marketType",
      "outputs": [
        {
          "internalType": "string",
          "name": "",
          "type": "string"
        }
      ],
      "stateMutability": "view",
      "type": "function"
    },
    {
      "inputs": [],
      "name": "version",
      "outputs": [
        {
          "internalType": "string",
          "name": "",
          "type": "string"
        }
      ],
      "stateMutability": "view",
      "type": "function"
    }
  ],
  "transactionHash": "0x6be926314c3c94baae50e13556edf9208b1e6fd82705c2d6d9692d0e49c8b436",
  "args": [
    "new",
    "1.0"
  ],
  "numDeployments": 1,
  "solcInputHash": "16dc79075d4ab3f83e464f67cd882f79",
  "bytecode": "0x60806040523480156200001157600080fd5b5060405162002512380380620025128339810160408190526200003491620001c1565b81516200004990600090602085019062000068565b5080516200005f90600190602084019062000068565b5050506200027b565b828054620000769062000228565b90600052602060002090601f0160209004810192826200009a5760008555620000e5565b82601f10620000b557805160ff1916838001178555620000e5565b82800160010185558215620000e5579182015b82811115620000e5578251825591602001919060010190620000c8565b50620000f3929150620000f7565b5090565b5b80821115620000f35760008155600101620000f8565b600082601f8301126200011f578081fd5b81516001600160401b03808211156200013c576200013c62000265565b604051601f8301601f19908116603f0116810190828211818310171562000167576200016762000265565b8160405283815260209250868385880101111562000183578485fd5b8491505b83821015620001a6578582018301518183018401529082019062000187565b83821115620001b757848385830101525b9695505050505050565b60008060408385031215620001d4578182fd5b82516001600160401b0380821115620001eb578384fd5b620001f9868387016200010e565b935060208501519150808211156200020f578283fd5b506200021e858286016200010e565b9150509250929050565b600181811c908216806200023d57607f821691505b602082108114156200025f57634e487b7160e01b600052602260045260246000fd5b50919050565b634e487b7160e01b600052604160045260246000fd5b612287806200028b6000396000f3fe608060405234801561001057600080fd5b50600436106100575760003560e01c80631e179eff1461005c5780632dd489091461008757806354fd4d501461009c57806356d27491146100a4578063e2c2008c146100c6575b600080fd5b61006f61006a366004611906565b6100ec565b60405161007e93929190612010565b60405180910390f35b61008f610691565b60405161007e9190611eeb565b61008f61071f565b6100b76100b2366004611906565b61072c565b60405161007e93929190611efe565b6100dc6100d4366004611c70565b600192915050565b604051901515815260200161007e565b6100f4611564565b60606000610100611564565b6040516358dbf0f960e11b81526004810187905260609042906001600160a01b038b169063b1b7e1f29060240160006040518083038186803b15801561014557600080fd5b505afa158015610159573d6000803e3d6000fd5b505050506040513d6000823e601f3d908101601f191682016040526101819190810190611822565b6020840152604051634632752560e11b8152600481018990526000906001600160a01b038c1690638c64ea4a9060240160206040518083038186803b1580156101c957600080fd5b505afa1580156101dd573d6000803e3d6000fd5b505050506040513d601f19601f8201168201806040525081019061020191906118ea565b90506001600160a01b03811661025b57610219610b08565b604080516000808252602082019092529061024a565b610237611619565b81526020019060019003908161022f5790505b508396509650965050505050610687565b6102d4816001600160a01b03166338d52e0f6040518163ffffffff1660e01b815260040160206040518083038186803b15801561029757600080fd5b505afa1580156102ab573d6000803e3d6000fd5b505050506040513d601f19601f820116820180604052508101906102cf91906118ea565b610bd9565b8460e00181905250806001600160a01b0316637572cb1f6040518163ffffffff1660e01b815260040160e06040518083038186803b15801561031557600080fd5b505afa158015610329573d6000803e3d6000fd5b505050506040513d601f19601f8201168201806040525081019061034d9190611b5c565b8460400181905250806001600160a01b031663f7d070de6040518163ffffffff1660e01b815260040160206040518083038186803b15801561038e57600080fd5b505afa1580156103a2573d6000803e3d6000fd5b505050506040513d601f19601f820116820180604052508101906103c691906118c9565b1515606085015260408051631b22b8e360e21b815290516001600160a01b03831691636c8ae38c916004808301926020929190829003018186803b15801561040d57600080fd5b505afa158015610421573d6000803e3d6000fd5b505050506040513d601f19601f820116820180604052508101906104459190611c58565b846080018181525050806001600160a01b0316635f260bb86040518163ffffffff1660e01b815260040160206040518083038186803b15801561048757600080fd5b505afa15801561049b573d6000803e3d6000fd5b505050506040513d601f19601f820116820180604052508101906104bf9190611c58565b8460a0018181525050806001600160a01b031663c83baf4e6040518163ffffffff1660e01b815260040160206040518083038186803b15801561050157600080fd5b505afa158015610515573d6000803e3d6000fd5b505050506040513d601f19601f820116820180604052508101906105399190611c58565b60c085015260208401515161058a5760408051600080825260208201909252859161024a565b610567611619565b81526020019060019003908161055f579050508396509650965050505050610687565b60006105988a8d8d8c610d0b565b8051909150806001600160401b038111156105c357634e487b7160e01b600052604160045260246000fd5b6040519080825280602002602001820160405280156105fc57816020015b6105e9611619565b8152602001906001900390816105e15790505b50945060005b818110156106795761063b83828151811061062d57634e487b7160e01b600052603260045260246000fd5b60200260200101518e610fb6565b86828151811061065b57634e487b7160e01b600052603260045260246000fd5b60200260200101819052508080610671906121f2565b915050610602565b509497509295509093505050505b9450945094915050565b6000805461069e906121b7565b80601f01602080910402602001604051908101604052809291908181526020018280546106ca906121b7565b80156107175780601f106106ec57610100808354040283529160200191610717565b820191906000526020600020905b8154815290600101906020018083116106fa57829003601f168201915b505050505081565b6001805461069e906121b7565b604080518082019091526000808252602082015260606000610761604051806040016040528060008152602001600081525090565b858152604051634632752560e11b81526004810187905260609042906000906001600160a01b038c1690638c64ea4a9060240160206040518083038186803b1580156107ac57600080fd5b505afa1580156107c0573d6000803e3d6000fd5b505050506040513d601f19601f820116820180604052508101906107e491906118ea565b6001600160a01b031614156108545760408051808201825260008082526020918201819052825180840184528181528083018290528351828152928301909352610844565b610831611698565b8152602001906001900390816108295790505b5082955095509550505050610687565b604051634632752560e11b8152600481018990526001600160a01b038b1690638c64ea4a9060240160206040518083038186803b15801561089457600080fd5b505afa1580156108a8573d6000803e3d6000fd5b505050506040513d601f19601f820116820180604052508101906108cc91906118ea565b6001600160a01b03166318160ddd6040518163ffffffff1660e01b815260040160206040518083038186803b15801561090457600080fd5b505afa158015610918573d6000803e3d6000fd5b505050506040513d601f19601f8201168201806040525081019061093c9190611c58565b60208401526040516358dbf0f960e11b8152600481018990526001600160a01b038b169063b1b7e1f29060240160006040518083038186803b15801561098157600080fd5b505afa158015610995573d6000803e3d6000fd5b505050506040513d6000823e601f3d908101601f191682016040526109bd9190810190611822565b51610a0357604080516000808252602082019092528491610844565b6109e1611698565b8152602001906001900390816109d95790505082955095509550505050610687565b6000610a11898c8c8b610d0b565b8051909150806001600160401b03811115610a3c57634e487b7160e01b600052604160045260246000fd5b604051908082528060200260200182016040528015610a7557816020015b610a62611698565b815260200190600190039081610a5a5790505b50935060005b81811015610af457610ab6838281518110610aa657634e487b7160e01b600052603260045260246000fd5b60200260200101518c8f8f6110ed565b858281518110610ad657634e487b7160e01b600052603260045260246000fd5b60200260200101819052508080610aec906121f2565b915050610a7b565b50939b929a50909850909650505050505050565b610b10611564565b60408051610100810182526000808252825181815260208181019094529192830191905081526020016040518060e00160405280600063ffffffff168152602001600081526020016000815260200160008152602001600081526020016000815260200160008152508152602001600015158152602001600081526020016000815260200160008152602001604051806060016040528060006001600160a01b031681526020016040518060200160405280600081525081526020016000815250815250905090565b610c06604051806060016040528060006001600160a01b0316815260200160608152602001600081525090565b6001600160a01b038216808252604080516395d89b4160e01b815290516395d89b4191600480820192600092909190829003018186803b158015610c4957600080fd5b505afa158015610c5d573d6000803e3d6000fd5b505050506040513d6000823e601f3d908101601f19168201604052610c85919081019061194b565b8160200181905250816001600160a01b031663313ce5676040518163ffffffff1660e01b815260040160206040518083038186803b158015610cc657600080fd5b505afa158015610cda573d6000803e3d6000fd5b505050506040513d601f19601f82011682018060405250810190610cfe9190611c9f565b60ff166040820152919050565b6040516358dbf0f960e11b8152600481018590526060906000906001600160a01b0386169063b1b7e1f29060240160006040518083038186803b158015610d5157600080fd5b505afa158015610d65573d6000803e3d6000fd5b505050506040513d6000823e601f3d908101601f19168201604052610d8d9190810190611822565b80519091508084101580610d9f575080155b15610dbc5750506040805160008152602081019091529050610fae565b600080826001600160401b03811115610de557634e487b7160e01b600052604160045260246000fd5b604051908082528060200260200182016040528015610e0e578160200160208202803683370190505b50905060006001610e1f8886612159565b610e299190612159565b90505b838310610e3857610ee5565b610e63858281518110610e5b57634e487b7160e01b600052603260045260246000fd5b506001919050565b15610ec957848181518110610e8857634e487b7160e01b600052603260045260246000fd5b6020026020010151828481518110610eb057634e487b7160e01b600052603260045260246000fd5b602090810291909101015282610ec5816121f2565b9350505b80610ed357610ee5565b80610edd816121a0565b915050610e2c565b50816001600160401b03811115610f0c57634e487b7160e01b600052604160045260246000fd5b604051908082528060200260200182016040528015610f35578160200160208202803683370190505b50945060005b82811015610fa857818181518110610f6357634e487b7160e01b600052603260045260246000fd5b6020026020010151868281518110610f8b57634e487b7160e01b600052603260045260246000fd5b602090810291909101015280610fa0816121f2565b915050610f3b565b50505050505b949350505050565b610fbe611619565b60405163eb44fdd360e01b8152600481018490526000906001600160a01b0384169063eb44fdd39060240160006040518083038186803b15801561100157600080fd5b505afa158015611015573d6000803e3d6000fd5b505050506040513d6000823e601f3d908101601f1916820160405261103d91908101906119ca565b60608181015160208581019190915282516001600160a01b03908116604080880191909152918401518116928601929092525163c6ceb96b60e01b81526004810187905291925084169063c6ceb96b9060240160e06040518083038186803b1580156110a857600080fd5b505afa1580156110bc573d6000803e3d6000fd5b505050506040513d601f19601f820116820180604052508101906110e09190611b5c565b6080830152509182525090565b6110f5611698565b604051634632752560e11b8152600481018590526000906001600160a01b03851690638c64ea4a9060240160206040518083038186803b15801561113857600080fd5b505afa15801561114c573d6000803e3d6000fd5b505050506040513d601f19601f8201168201806040525081019061117091906118ea565b86835260405163265d466f60e11b8152600481018890529091506001600160a01b03841690634cba8cde9060240160e06040518083038186803b1580156111b657600080fd5b505afa1580156111ca573d6000803e3d6000fd5b505050506040513d601f19601f820116820180604052508101906111ee9190611bd2565b602083015260405163054d50b360e21b8152600481018790526001600160a01b0384169063153542cc9060240160206040518083038186803b15801561123357600080fd5b505afa158015611247573d6000803e3d6000fd5b505050506040513d601f19601f8201168201806040525081019061126b91906118ea565b6001600160a01b03166318160ddd6040518163ffffffff1660e01b815260040160206040518083038186803b1580156112a357600080fd5b505afa1580156112b7573d6000803e3d6000fd5b505050506040513d601f19601f820116820180604052508101906112db9190611c58565b6040838101919091525163920f4e5560e01b8152600481018790526001600160a01b0384169063920f4e559060240160206040518083038186803b15801561132257600080fd5b505afa158015611336573d6000803e3d6000fd5b505050506040513d601f19601f8201168201806040525081019061135a91906118ea565b6001600160a01b03166318160ddd6040518163ffffffff1660e01b815260040160206040518083038186803b15801561139257600080fd5b505afa1580156113a6573d6000803e3d6000fd5b505050506040513d601f19601f820116820180604052508101906113ca9190611c58565b60608301526040516350c6e6cf60e01b8152600481018790526001600160a01b03821690634dc54a389082906350c6e6cf9060240160206040518083038186803b15801561141757600080fd5b505afa15801561142b573d6000803e3d6000fd5b505050506040513d601f19601f8201168201806040525081019061144f91906118ea565b6040516001600160e01b031960e084901b1681526001600160a01b03909116600482015260240160006040518083038186803b15801561148e57600080fd5b505afa1580156114a2573d6000803e3d6000fd5b505050506040513d6000823e601f3d908101601f191682016040526114ca9190810190611a6f565b608083015260405163ac1b6b0160e01b8152600481018790526000906001600160a01b0386169063ac1b6b0190602401604080518083038186803b15801561151157600080fd5b505afa158015611525573d6000803e3d6000fd5b505050506040513d601f19601f82011682018060405250810190611549919061197d565b805160a08501526020015160c0840152509095945050505050565b60405180610100016040528060008152602001606081526020016115c46040518060e00160405280600063ffffffff1681526020016000815260200160008152602001600081526020016000815260200160008152602001600081525090565b8152602001600015158152602001600081526020016000815260200160008152602001611614604051806060016040528060006001600160a01b0316815260200160608152602001600081525090565b905290565b6040518060a00160405280600081526020016000815260200160006001600160a01b0316815260200160006001600160a01b031681526020016116146040518060e00160405280600063ffffffff1681526020016000815260200160008152602001600081526020016000815260200160008152602001600081525090565b6040805160e080820183526000808352835191820184528082526020828101829052938201819052606082018190526080820181905260a0820181905260c08201529091820190815260200160008152602001600081526020016116fa61170e565b815260200160008152602001600081525090565b6040518061016001604052806000151581526020016000815260200160008152602001600081526020016000815260200160008152602001600081526020016060815260200160006001600160a01b031681526020016000600181111561178557634e487b7160e01b600052602160045260246000fd5b8152602001600081525090565b805161179d81612239565b919050565b8051801515811461179d57600080fd5b80516002811061179d57600080fd5b600082601f8301126117d1578081fd5b81516001600160401b038111156117ea576117ea612223565b6117fd601f8201601f1916602001612129565b818152846020838601011115611811578283fd5b610fae826020830160208701612170565b60006020808385031215611834578182fd5b82516001600160401b038082111561184a578384fd5b818501915085601f83011261185d578384fd5b81518181111561186f5761186f612223565b8060051b9150611880848301612129565b8181528481019084860184860187018a101561189a578788fd5b8795505b838610156118bc57805183526001959095019491860191860161189e565b5098975050505050505050565b6000602082840312156118da578081fd5b6118e3826117a2565b9392505050565b6000602082840312156118fb578081fd5b81516118e381612239565b6000806000806080858703121561191b578283fd5b843561192681612239565b9350602085013561193681612239565b93969395505050506040820135916060013590565b60006020828403121561195c578081fd5b81516001600160401b03811115611971578182fd5b610fae848285016117c1565b60006040828403121561198e578081fd5b604051604081018181106001600160401b03821117156119b0576119b0612223565b604052825181526020928301519281019290925250919050565b6000602082840312156119db578081fd5b81516001600160401b03808211156119f1578283fd5b9083019060a08286031215611a04578283fd5b611a0c6120bc565b8251611a1781612239565b81526020830151611a2781612239565b6020820152604083015182811115611a3d578485fd5b611a49878286016117c1565b604083015250606083015160608201526080830151608082015280935050505092915050565b600060208284031215611a80578081fd5b81516001600160401b0380821115611a96578283fd5b908301906101608286031215611aaa578283fd5b611ab26120e4565b611abb836117a2565b81526020830151602082015260408301516040820152606083015160608201526080830151608082015260a083015160a082015260c083015160c082015260e083015182811115611b0a578485fd5b611b16878286016117c1565b60e0830152506101009150611b2c828401611792565b828201526101209150611b408284016117b2565b9181019190915261014091820151918101919091529392505050565b600060e08284031215611b6d578081fd5b611b75612107565b825163ffffffff81168114611b88578283fd5b808252506020830151602082015260408301516040820152606083015160608201526080830151608082015260a083015160a082015260c083015160c08201528091505092915050565b600060e08284031215611be3578081fd5b611beb612107565b611bf4836117a2565b8152611c02602084016117a2565b6020820152611c13604084016117a2565b604082015260608301516060820152611c2e608084016117a2565b6080820152611c3f60a084016117a2565b60a082015260c083015160c08201528091505092915050565b600060208284031215611c69578081fd5b5051919050565b60008060408385031215611c82578182fd5b823591506020830135611c9481612239565b809150509250929050565b600060208284031215611cb0578081fd5b815160ff811681146118e3578182fd5b6000815180845260208085019450808401835b83811015611d375781518051885283810151848901526040808201516001600160a01b03908116918a01919091526060808301519091169089015260809081015190611d21818a0183611ea1565b5050610160969096019590820190600101611cd3565b509495945050505050565b6000815180845260208085019450808401835b83811015611d3757815187529582019590820190600101611d55565b60028110611d8f57634e487b7160e01b600052602160045260246000fd5b9052565b60008151808452611dab816020860160208601612170565b601f01601f19169290920160200192915050565b60018060a01b0381511682526000602082015160606020850152611de66060850182611d93565b604093840151949093019390935250919050565b80511515825260006101606020830151602085015260408301516040850152606083015160608501526080830151608085015260a083015160a085015260c083015160c085015260e08301518160e0860152611e5882860182611d93565b91505061010080840151611e76828701826001600160a01b03169052565b505061012080840151611e8b82870182611d71565b5050610140928301519390920192909252919050565b63ffffffff81511682526020810151602083015260408101516040830152606081015160608301526080810151608083015260a081015160a083015260c081015160c08301525050565b6020815260006118e36020830184611d93565b6000608080830186518452602080880151818601526040838187015282885180855260a094508488019150848160051b890101848b01885b83811015611ff657609f198b840301855281516101a08151855288820151805115158a8701528981015115158987015288810151606081151581890152808301518e8901528d83015115158d8901528c830151915060c0821515818a01528084015160e08a01528b8601516101008a0152818601516101208a01528e8601519350846101408a0152611fca858a0185611dfa565b868f01516101608b01529501516101809098019790975250505094870194925090860190600101611f36565b505080975050505050505050826060830152949350505050565b6060815283516060820152600060208501516101c0806080850152612039610220850183611d42565b9150604087015161204d60a0860182611ea1565b506060870151151561018085015260808701516101a085015260a08701519084015260c08601516101e084015260e0860151605f19848303016102008501526120968282611dbf565b91505082810360208401526120ab8186611cc0565b915050826040830152949350505050565b60405160a081016001600160401b03811182821017156120de576120de612223565b60405290565b60405161016081016001600160401b03811182821017156120de576120de612223565b60405160e081016001600160401b03811182821017156120de576120de612223565b604051601f8201601f191681016001600160401b038111828210171561215157612151612223565b604052919050565b60008282101561216b5761216b61220d565b500390565b60005b8381101561218b578181015183820152602001612173565b8381111561219a576000848401525b50505050565b6000816121af576121af61220d565b506000190190565b600181811c908216806121cb57607f821691505b602082108114156121ec57634e487b7160e01b600052602260045260246000fd5b50919050565b60006000198214156122065761220661220d565b5060010190565b634e487b7160e01b600052601160045260246000fd5b634e487b7160e01b600052604160045260246000fd5b6001600160a01b038116811461224e57600080fd5b5056fea26469706673582212202e190525fafefbdc4c86c6b86e1f3c30e498461f84e2cf589dec54f795839e9d64736f6c63430008040033",
  "devdoc": {
    "kind": "dev",
    "methods": {
      "fetchInitial(address,address,uint256,uint256)": {
        "details": "vaultId retrieved from vaultIds public array in controller."
      }
    },
    "version": 1
  },
  "userdoc": {
    "kind": "user",
    "methods": {
      "fetchInitial(address,address,uint256,uint256)": {
        "notice": "retrieves all the static data associated with a vaultId."
      }
    },
    "version": 1
  },
  "storageLayout": {
    "storage": [
      {
        "astId": 12429,
        "contract": "contracts/turbo/newFetcher.sol:Fetcher",
        "label": "marketType",
        "offset": 0,
        "slot": "0",
        "type": "t_string_storage"
      },
      {
        "astId": 12431,
        "contract": "contracts/turbo/newFetcher.sol:Fetcher",
        "label": "version",
        "offset": 0,
        "slot": "1",
        "type": "t_string_storage"
      }
    ],
    "types": {
      "t_string_storage": {
        "encoding": "bytes",
        "label": "string",
        "numberOfBytes": "32"
      }
    }
  }
}