{
  "address": "0x23ECD6642811345aFde48D26Be2f2CF9489E755D",
  "abi": [
    {
      "inputs": [],
      "stateMutability": "nonpayable",
      "type": "constructor"
    },
    {
      "anonymous": false,
      "inputs": [
        {
          "indexed": true,
          "internalType": "address",
          "name": "owner",
          "type": "address"
        },
        {
          "indexed": true,
          "internalType": "address",
          "name": "approved",
          "type": "address"
        },
        {
          "indexed": true,
          "internalType": "uint256",
          "name": "tokenId",
          "type": "uint256"
        }
      ],
      "name": "Approval",
      "type": "event"
    },
    {
      "anonymous": false,
      "inputs": [
        {
          "indexed": true,
          "internalType": "address",
          "name": "owner",
          "type": "address"
        },
        {
          "indexed": true,
          "internalType": "address",
          "name": "operator",
          "type": "address"
        },
        {
          "indexed": false,
          "internalType": "bool",
          "name": "approved",
          "type": "bool"
        }
      ],
      "name": "ApprovalForAll",
      "type": "event"
    },
    {
      "anonymous": false,
      "inputs": [
        {
          "indexed": true,
          "internalType": "address",
          "name": "from",
          "type": "address"
        },
        {
          "indexed": true,
          "internalType": "address",
          "name": "to",
          "type": "address"
        },
        {
          "indexed": true,
          "internalType": "uint256",
          "name": "tokenId",
          "type": "uint256"
        }
      ],
      "name": "Transfer",
      "type": "event"
    },
    {
      "inputs": [
        {
          "internalType": "address",
          "name": "to",
          "type": "address"
        },
        {
          "internalType": "uint256",
          "name": "tokenId",
          "type": "uint256"
        }
      ],
      "name": "approve",
      "outputs": [],
      "stateMutability": "nonpayable",
      "type": "function"
    },
    {
      "inputs": [
        {
          "internalType": "address",
          "name": "owner",
          "type": "address"
        }
      ],
      "name": "balanceOf",
      "outputs": [
        {
          "internalType": "uint256",
          "name": "",
          "type": "uint256"
        }
      ],
      "stateMutability": "view",
      "type": "function"
    },
    {
      "inputs": [
        {
          "internalType": "address",
          "name": "recipient",
          "type": "address"
        },
        {
          "internalType": "address",
          "name": "marketFactoryAddress",
          "type": "address"
        },
        {
          "internalType": "address",
          "name": "ammFactoryAddress",
          "type": "address"
        },
        {
          "internalType": "uint256[]",
          "name": "marketIds",
          "type": "uint256[]"
        },
        {
          "internalType": "uint256[]",
          "name": "outcomes",
          "type": "uint256[]"
        },
        {
          "internalType": "uint256[]",
          "name": "amounts",
          "type": "uint256[]"
        }
      ],
      "name": "buyBulk",
      "outputs": [
        {
          "internalType": "uint256",
          "name": "",
          "type": "uint256"
        }
      ],
      "stateMutability": "nonpayable",
      "type": "function"
    },
    {
      "inputs": [
        {
          "internalType": "address",
          "name": "holder",
          "type": "address"
        }
      ],
      "name": "curValue",
      "outputs": [
        {
          "internalType": "uint256",
          "name": "",
          "type": "uint256"
        }
      ],
      "stateMutability": "view",
      "type": "function"
    },
    {
      "inputs": [
        {
          "internalType": "address",
          "name": "holder",
          "type": "address"
        }
      ],
      "name": "getAPR",
      "outputs": [
        {
          "internalType": "uint256",
          "name": "",
          "type": "uint256"
        }
      ],
      "stateMutability": "view",
      "type": "function"
    },
    {
      "inputs": [
        {
          "internalType": "uint256",
          "name": "tokenId",
          "type": "uint256"
        }
      ],
      "name": "getApproved",
      "outputs": [
        {
          "internalType": "address",
          "name": "",
          "type": "address"
        }
      ],
      "stateMutability": "view",
      "type": "function"
    },
    {
      "inputs": [
        {
          "internalType": "address",
          "name": "owner",
          "type": "address"
        },
        {
          "internalType": "address",
          "name": "operator",
          "type": "address"
        }
      ],
      "name": "isApprovedForAll",
      "outputs": [
        {
          "internalType": "bool",
          "name": "",
          "type": "bool"
        }
      ],
      "stateMutability": "view",
      "type": "function"
    },
    {
      "inputs": [],
      "name": "name",
      "outputs": [
        {
          "internalType": "string",
          "name": "",
          "type": "string"
        }
      ],
      "stateMutability": "view",
      "type": "function"
    },
    {
      "inputs": [
        {
          "internalType": "uint256",
          "name": "tokenId",
          "type": "uint256"
        }
      ],
      "name": "ownerOf",
      "outputs": [
        {
          "internalType": "address",
          "name": "",
          "type": "address"
        }
      ],
      "stateMutability": "view",
      "type": "function"
    },
    {
      "inputs": [
        {
          "internalType": "address",
          "name": "from",
          "type": "address"
        },
        {
          "internalType": "address",
          "name": "to",
          "type": "address"
        },
        {
          "internalType": "uint256",
          "name": "tokenId",
          "type": "uint256"
        }
      ],
      "name": "safeTransferFrom",
      "outputs": [],
      "stateMutability": "nonpayable",
      "type": "function"
    },
    {
      "inputs": [
        {
          "internalType": "address",
          "name": "from",
          "type": "address"
        },
        {
          "internalType": "address",
          "name": "to",
          "type": "address"
        },
        {
          "internalType": "uint256",
          "name": "tokenId",
          "type": "uint256"
        },
        {
          "internalType": "bytes",
          "name": "data",
          "type": "bytes"
        }
      ],
      "name": "safeTransferFrom",
      "outputs": [],
      "stateMutability": "nonpayable",
      "type": "function"
    },
    {
      "inputs": [
        {
          "internalType": "address",
          "name": "recipient",
          "type": "address"
        },
        {
          "internalType": "uint256",
          "name": "lockID",
          "type": "uint256"
        },
        {
          "internalType": "address",
          "name": "marketFactoryAddress",
          "type": "address"
        },
        {
          "internalType": "address",
          "name": "ammFactoryAddress",
          "type": "address"
        }
      ],
      "name": "sellBulk",
      "outputs": [],
      "stateMutability": "nonpayable",
      "type": "function"
    },
    {
      "inputs": [
        {
          "internalType": "address",
          "name": "operator",
          "type": "address"
        },
        {
          "internalType": "bool",
          "name": "approved",
          "type": "bool"
        }
      ],
      "name": "setApprovalForAll",
      "outputs": [],
      "stateMutability": "nonpayable",
      "type": "function"
    },
    {
      "inputs": [
        {
          "internalType": "bytes4",
          "name": "interfaceId",
          "type": "bytes4"
        }
      ],
      "name": "supportsInterface",
      "outputs": [
        {
          "internalType": "bool",
          "name": "",
          "type": "bool"
        }
      ],
      "stateMutability": "view",
      "type": "function"
    },
    {
      "inputs": [],
      "name": "symbol",
      "outputs": [
        {
          "internalType": "string",
          "name": "",
          "type": "string"
        }
      ],
      "stateMutability": "view",
      "type": "function"
    },
    {
      "inputs": [
        {
          "internalType": "uint256",
          "name": "tokenId",
          "type": "uint256"
        }
      ],
      "name": "tokenURI",
      "outputs": [
        {
          "internalType": "string",
          "name": "",
          "type": "string"
        }
      ],
      "stateMutability": "view",
      "type": "function"
    },
    {
      "inputs": [],
      "name": "totalNumMints",
      "outputs": [
        {
          "internalType": "uint256",
          "name": "",
          "type": "uint256"
        }
      ],
      "stateMutability": "view",
      "type": "function"
    },
    {
      "inputs": [
        {
          "internalType": "address",
          "name": "from",
          "type": "address"
        },
        {
          "internalType": "address",
          "name": "to",
          "type": "address"
        },
        {
          "internalType": "uint256",
          "name": "tokenId",
          "type": "uint256"
        }
      ],
      "name": "transferFrom",
      "outputs": [],
      "stateMutability": "nonpayable",
      "type": "function"
    }
  ],
  "transactionHash": "0xe3aed096e54bfa9cfb1036c1f637d3586ca3ff1a36a826cbe87e7a8694e80764",
  "args": [],
  "solcInputHash": "6b5c7513e0191700db98fb0f972486e7",
  "bytecode": "0x608060405260026008553480156200001657600080fd5b506040805180820182526008815267496e64657843445360c01b6020808301918252835180850190945260048452636943445360e01b908401528151919291620000639160009162000087565b5080516200007990600190602084019062000087565b50506001600655506200016a565b82805462000095906200012d565b90600052602060002090601f016020900481019282620000b9576000855562000104565b82601f10620000d457805160ff191683800117855562000104565b8280016001018555821562000104579182015b8281111562000104578251825591602001919060010190620000e7565b506200011292915062000116565b5090565b5b8082111562000112576000815560010162000117565b600181811c908216806200014257607f821691505b602082108114156200016457634e487b7160e01b600052602260045260246000fd5b50919050565b612e99806200017a6000396000f3fe608060405234801561001057600080fd5b50600436106101165760003560e01c80636352211e116100a2578063b88d4fde11610071578063b88d4fde14610247578063bcc6c00e1461025a578063c87b56dd14610263578063e985e9c514610276578063f1dbe205146102b257600080fd5b80636352211e1461020657806370a082311461021957806395d89b411461022c578063a22cb4651461023457600080fd5b80631c5122d9116100e95780631c5122d91461019857806323b872dd146101ba5780632a53d87a146101cd57806342842e0e146101e057806345fb2f63146101f357600080fd5b806301ffc9a71461011b57806306fdde0314610143578063081812fc14610158578063095ea7b314610183575b600080fd5b61012e61012936600461291d565b6102c5565b60405190151581526020015b60405180910390f35b61014b610317565b60405161013a9190612bbe565b61016b610166366004612a76565b6103a9565b6040516001600160a01b03909116815260200161013a565b610196610191366004612884565b6103d0565b005b6101ac6101a636600461264c565b50600190565b60405190815260200161013a565b6101966101c836600461275b565b6104eb565b6101ac6101db36600461264c565b61051c565b6101966101ee36600461275b565b6106a3565b6101ac6102013660046126a0565b6106be565b61016b610214366004612a76565b610a38565b6101ac61022736600461264c565b610a98565b61014b610b1e565b610196610242366004612857565b610b2d565b61019661025536600461279b565b610b3c565b6101ac60075481565b61014b610271366004612a76565b610b74565b61012e610284366004612668565b6001600160a01b03918216600090815260056020908152604080832093909416825291909152205460ff1690565b6101966102c03660046128af565b610be8565b60006001600160e01b031982166380ac58cd60e01b14806102f657506001600160e01b03198216635b5e139f60e01b145b8061031157506301ffc9a760e01b6001600160e01b03198316145b92915050565b60606000805461032690612d7e565b80601f016020809104026020016040519081016040528092919081815260200182805461035290612d7e565b801561039f5780601f106103745761010080835404028352916020019161039f565b820191906000526020600020905b81548152906001019060200180831161038257829003601f168201915b5050505050905090565b60006103b48261105b565b506000908152600460205260409020546001600160a01b031690565b60006103db82610a38565b9050806001600160a01b0316836001600160a01b0316141561044e5760405162461bcd60e51b815260206004820152602160248201527f4552433732313a20617070726f76616c20746f2063757272656e74206f776e656044820152603960f91b60648201526084015b60405180910390fd5b336001600160a01b038216148061046a575061046a8133610284565b6104dc5760405162461bcd60e51b815260206004820152603e60248201527f4552433732313a20617070726f76652063616c6c6572206973206e6f7420746f60448201527f6b656e206f776e6572206e6f7220617070726f76656420666f7220616c6c00006064820152608401610445565b6104e683836110bd565b505050565b6104f5338261112b565b6105115760405162461bcd60e51b815260040161044590612c23565b6104e68383836111aa565b6001600160a01b0381166000908152600b6020908152604080832054808452600a8352818420600201805483518186028101860190945280845291938593929083018282801561059557602002820191906000526020600020905b81546001600160a01b03168152600190910190602001808311610577575b505050505090506000600a60008481526020019081526020016000206001018054806020026020016040519081016040528092919081815260200182805480156105fe57602002820191906000526020600020905b8154815260200190600101908083116105ea575b5050505050905060008251905060008060005b838110156106975761064486828151811061063c57634e487b7160e01b600052603260045260246000fd5b506001919050565b925084818151811061066657634e487b7160e01b600052603260045260246000fd5b6020026020010151836106799190612d1c565b6106839083612cf0565b91508061068f81612db9565b915050610611565b50505050505050919050565b6104e683838360405180602001604052806000815250610b3c565b60008084519050600086905060008890506000816001600160a01b031663d8dfeb456040518163ffffffff1660e01b815260040160206040518083038186803b15801561070a57600080fd5b505afa15801561071e573d6000803e3d6000fd5b505050506040513d601f19601f820116820180604052508101906107429190612955565b905060008467ffffffffffffffff81111561076d57634e487b7160e01b600052604160045260246000fd5b604051908082528060200260200182016040528015610796578160200160208202803683370190505b50905060008567ffffffffffffffff8111156107c257634e487b7160e01b600052604160045260246000fd5b6040519080825280602002602001820160405280156107eb578160200160208202803683370190505b50905060008667ffffffffffffffff81111561081757634e487b7160e01b600052604160045260246000fd5b604051908082528060200260200182016040528015610840578160200160208202803683370190505b50905060006108508c8c8c611346565b905060005b8881101561098e576108918789883386868151811061088457634e487b7160e01b600052603260045260246000fd5b60200260200101516114ad565b8482815181106108b157634e487b7160e01b600052603260045260246000fd5b6020026020010181815250506108ee878383815181106108e157634e487b7160e01b600052603260045260246000fd5b6020026020010151611674565b83828151811061090e57634e487b7160e01b600052603260045260246000fd5b60200260200101906001600160a01b031690816001600160a01b03168152505061095183828151811061063c57634e487b7160e01b600052603260045260246000fd5b85828151811061097157634e487b7160e01b600052603260045260246000fd5b60209081029190910101528061098681612db9565b915050610855565b50600061099f336000878787611738565b905060405180606001604052808581526020018e81526020018d8152506009600083815260200190815260200160002060008201518160000190805190602001906109eb929190612430565b506020828101518051610a049260018501920190612430565b5060408201518051610a20916002840191602090910190612430565b50919a50505050505050505050509695505050505050565b6000818152600260205260408120546001600160a01b0316806103115760405162461bcd60e51b8152602060048201526018602482015277115490cdcc8c4e881a5b9d985b1a59081d1bdad95b88125160421b6044820152606401610445565b60006001600160a01b038216610b025760405162461bcd60e51b815260206004820152602960248201527f4552433732313a2061646472657373207a65726f206973206e6f7420612076616044820152683634b21037bbb732b960b91b6064820152608401610445565b506001600160a01b031660009081526003602052604090205490565b60606001805461032690612d7e565b610b38338383611964565b5050565b610b46338361112b565b610b625760405162461bcd60e51b815260040161044590612c23565b610b6e84848484611a33565b50505050565b6060610b7f8261105b565b6000610b9660408051602081019091526000815290565b90506000815111610bb65760405180602001604052806000815250610be1565b80610bc084611a66565b604051602001610bd1929190612aee565b6040516020818303038152906040525b9392505050565b600081905060008390506000816001600160a01b031663d8dfeb456040518163ffffffff1660e01b815260040160206040518083038186803b158015610c2d57600080fd5b505afa158015610c41573d6000803e3d6000fd5b505050506040513d601f19601f82011682018060405250810190610c659190612955565b600087815260096020908152604080832081518154608094810282018501909352606081018381529596509394909284928491840182828015610cc757602002820191906000526020600020905b815481526020019060010190808311610cb3575b5050505050815260200160018201805480602002602001604051908101604052809291908181526020018280548015610d1f57602002820191906000526020600020905b815481526020019060010190808311610d0b575b5050505050815260200160028201805480602002602001604051908101604052809291908181526020018280548015610d7757602002820191906000526020600020905b815481526020019060010190808311610d63575b5050505050815250509050600060085467ffffffffffffffff811115610dad57634e487b7160e01b600052604160045260246000fd5b604051908082528060200260200182016040528015610dd6578160200160208202803683370190505b50602083015151909150600090815b81811015610fc05760005b600854811015610e61578551805183908110610e1c57634e487b7160e01b600052603260045260246000fd5b6020026020010151858281518110610e4457634e487b7160e01b600052603260045260246000fd5b602090810291909101015280610e5981612db9565b915050610df0565b50610ec5878987602001518481518110610e8b57634e487b7160e01b600052603260045260246000fd5b602002602001015188604001518581518110610eb757634e487b7160e01b600052603260045260246000fd5b602002602001015188611b80565b876001600160a01b03166360cac85a8887602001518481518110610ef957634e487b7160e01b600052603260045260246000fd5b602002602001015188604001518581518110610f2557634e487b7160e01b600052603260045260246000fd5b60200260200101518860006040518663ffffffff1660e01b8152600401610f50959493929190612b50565b602060405180830381600087803b158015610f6a57600080fd5b505af1158015610f7e573d6000803e3d6000fd5b505050506040513d601f19601f82011682018060405250810190610fa29190612a8e565b610fac9084612cf0565b925080610fb881612db9565b915050610de5565b50610fcd8b8b6000611d24565b60405163a9059cbb60e01b8152336004820152602481018390526001600160a01b0386169063a9059cbb90604401602060405180830381600087803b15801561101557600080fd5b505af1158015611029573d6000803e3d6000fd5b505050506040513d601f19601f8201168201806040525081019061104d9190612901565b505050505050505050505050565b6000818152600260205260409020546001600160a01b03166110ba5760405162461bcd60e51b8152602060048201526018602482015277115490cdcc8c4e881a5b9d985b1a59081d1bdad95b88125160421b6044820152606401610445565b50565b600081815260046020526040902080546001600160a01b0319166001600160a01b03841690811790915581906110f282610a38565b6001600160a01b03167f8c5be1e5ebec7d5bd14f71427d1e84f3dd0314c0f7b2291e5b200ac8c7c3b92560405160405180910390a45050565b60008061113783610a38565b9050806001600160a01b0316846001600160a01b0316148061117e57506001600160a01b0380821660009081526005602090815260408083209388168352929052205460ff165b806111a25750836001600160a01b0316611197846103a9565b6001600160a01b0316145b949350505050565b826001600160a01b03166111bd82610a38565b6001600160a01b0316146112215760405162461bcd60e51b815260206004820152602560248201527f4552433732313a207472616e736665722066726f6d20696e636f72726563742060448201526437bbb732b960d91b6064820152608401610445565b6001600160a01b0382166112835760405162461bcd60e51b8152602060048201526024808201527f4552433732313a207472616e7366657220746f20746865207a65726f206164646044820152637265737360e01b6064820152608401610445565b61128e6000826110bd565b6001600160a01b03831660009081526003602052604081208054600192906112b7908490612d3b565b90915550506001600160a01b03821660009081526003602052604081208054600192906112e5908490612cf0565b909155505060008181526002602052604080822080546001600160a01b0319166001600160a01b0386811691821790925591518493918716917fddf252ad1be2c89b69c2b068fc378daa952ba7f163c4a11628f55a4df523b3ef91a4505050565b60606000845167ffffffffffffffff81111561137257634e487b7160e01b600052604160045260246000fd5b6040519080825280602002602001820160405280156113c757816020015b6113b460405180606001604052806000815260200160008152602001600081525090565b8152602001906001900390816113905790505b50905060005b85518110156114a457604051806060016040528085838151811061140157634e487b7160e01b600052603260045260246000fd5b6020026020010151815260200187838151811061142e57634e487b7160e01b600052603260045260246000fd5b6020026020010151815260200186838151811061145b57634e487b7160e01b600052603260045260246000fd5b602002602001015181525082828151811061148657634e487b7160e01b600052603260045260246000fd5b6020026020010181905250808061149c90612db9565b9150506113cd565b50949350505050565b80516040516323b872dd60e01b81526001600160a01b03848116600483015230602483015260448201929092526000918516906323b872dd90606401602060405180830381600087803b15801561150357600080fd5b505af1158015611517573d6000803e3d6000fd5b505050506040513d601f19601f8201168201806040525081019061153b9190612901565b50815160405163095ea7b360e01b81526001600160a01b03878116600483015260248201929092529085169063095ea7b390604401602060405180830381600087803b15801561158a57600080fd5b505af115801561159e573d6000803e3d6000fd5b505050506040513d601f19601f820116820180604052508101906115c29190612901565b5060208201516040808401518451915163072b60c360e41b81526001600160a01b038a8116600483015260248201949094526044810191909152606481019190915260006084820152908616906372b60c309060a401602060405180830381600087803b15801561163257600080fd5b505af1158015611646573d6000803e3d6000fd5b505050506040513d601f19601f8201168201806040525081019061166a9190612a8e565b9695505050505050565b600080836001600160a01b031663eb44fdd384602001516040518263ffffffff1660e01b81526004016116a991815260200190565b60006040518083038186803b1580156116c157600080fd5b505afa1580156116d5573d6000803e3d6000fd5b505050506040513d6000823e601f3d908101601f191682016040526116fd9190810190612971565b9050806020015183604001518151811061172757634e487b7160e01b600052603260045260246000fd5b602002602001015191505092915050565b60008060076000815461174a90612db9565b918290555085519091506000805b828110156118ca5786818151811061178057634e487b7160e01b600052603260045260246000fd5b60200260200101518882815181106117a857634e487b7160e01b600052603260045260246000fd5b60200260200101516117ba9190612d1c565b6117c49083612cf0565b915088156118b8578581815181106117ec57634e487b7160e01b600052603260045260246000fd5b60200260200101516001600160a01b03166323b872dd8b308a858151811061182457634e487b7160e01b600052603260045260246000fd5b60209081029190910101516040516001600160e01b031960e086901b1681526001600160a01b0393841660048201529290911660248301526044820152606401602060405180830381600087803b15801561187e57600080fd5b505af1158015611892573d6000803e3d6000fd5b505050506040513d601f19601f820116820180604052508101906118b69190612901565b505b806118c281612db9565b915050611758565b506040805160608101825282815260208082018981528284018990526000878152600a8352939093208251815592518051929384939092611912926001850192910190612430565b506040820151805161192e91600284019160209091019061247b565b5050506001600160a01b038a166000908152600b602052604090208490556119568a85611ec1565b509198975050505050505050565b816001600160a01b0316836001600160a01b031614156119c65760405162461bcd60e51b815260206004820152601960248201527f4552433732313a20617070726f766520746f2063616c6c6572000000000000006044820152606401610445565b6001600160a01b03838116600081815260056020908152604080832094871680845294825291829020805460ff191686151590811790915591519182527f17307eab39ab6107e8899845ad3d59bd9653f200f220920489ca2b5937696c31910160405180910390a3505050565b611a3e8484846111aa565b611a4a84848484611edb565b610b6e5760405162461bcd60e51b815260040161044590612bd1565b606081611a8a5750506040805180820190915260018152600360fc1b602082015290565b8160005b8115611ab45780611a9e81612db9565b9150611aad9050600a83612d08565b9150611a8e565b60008167ffffffffffffffff811115611add57634e487b7160e01b600052604160045260246000fd5b6040519080825280601f01601f191660200182016040528015611b07576020820181803683370190505b5090505b84156111a257611b1c600183612d3b565b9150611b29600a86612dd4565b611b34906030612cf0565b60f81b818381518110611b5757634e487b7160e01b600052603260045260246000fd5b60200101906001600160f81b031916908160001a905350611b79600a86612d08565b9450611b0b565b6000818381518110611ba257634e487b7160e01b600052603260045260246000fd5b602002602001015111611bb457600080fd5b60405163eb44fdd360e01b8152600481018490526000906001600160a01b0387169063eb44fdd39060240160006040518083038186803b158015611bf757600080fd5b505afa158015611c0b573d6000803e3d6000fd5b505050506040513d6000823e601f3d908101601f19168201604052611c339190810190612971565b905080602001518381518110611c5957634e487b7160e01b600052603260045260246000fd5b60200260200101516001600160a01b031663095ea7b386848681518110611c9057634e487b7160e01b600052603260045260246000fd5b60200260200101516040518363ffffffff1660e01b8152600401611cc99291906001600160a01b03929092168252602082015260400190565b602060405180830381600087803b158015611ce357600080fd5b505af1158015611cf7573d6000803e3d6000fd5b505050506040513d601f19601f82011682018060405250810190611d1b9190612901565b50505050505050565b6000828152600a602090815260408083208151606081018352815481526001820180548451818702810187019095528085529194929385840193909290830182828015611d9057602002820191906000526020600020905b815481526020019060010190808311611d7c575b5050505050815260200160028201805480602002602001604051908101604052809291908181526020018280548015611df257602002820191906000526020600020905b81546001600160a01b03168152600190910190602001808311611dd4575b505050919092525050506020810151519091508215611e8b5760005b81811015611e8957611e7783604001518281518110611e3d57634e487b7160e01b600052603260045260246000fd5b60200260200101518785602001518481518110611e6a57634e487b7160e01b600052603260045260246000fd5b6020026020010151611fe8565b80611e8181612db9565b915050611e0e565b505b611e948461203a565b6000848152600a6020526040812081815590611eb360018301826124d0565b611d1b6002830160006124d0565b610b388282604051806020016040528060008152506120d5565b60006001600160a01b0384163b15611fdd57604051630a85bd0160e11b81526001600160a01b0385169063150b7a0290611f1f903390899088908890600401612b1d565b602060405180830381600087803b158015611f3957600080fd5b505af1925050508015611f69575060408051601f3d908101601f19168201909252611f6691810190612939565b60015b611fc3573d808015611f97576040519150601f19603f3d011682016040523d82523d6000602084013e611f9c565b606091505b508051611fbb5760405162461bcd60e51b815260040161044590612bd1565b805181602001fd5b6001600160e01b031916630a85bd0160e11b1490506111a2565b506001949350505050565b604080516001600160a01b038416602482015260448082018490528251808303909101815260649091019091526020810180516001600160e01b031663a9059cbb60e01b1790526104e6908490612108565b600061204582610a38565b90506120526000836110bd565b6001600160a01b038116600090815260036020526040812080546001929061207b908490612d3b565b909155505060008281526002602052604080822080546001600160a01b0319169055518391906001600160a01b038416907fddf252ad1be2c89b69c2b068fc378daa952ba7f163c4a11628f55a4df523b3ef908390a45050565b6120df83836121da565b6120ec6000848484611edb565b6104e65760405162461bcd60e51b815260040161044590612bd1565b600061215d826040518060400160405280602081526020017f5361666545524332303a206c6f772d6c6576656c2063616c6c206661696c6564815250856001600160a01b031661231c9092919063ffffffff16565b8051909150156104e6578080602001905181019061217b9190612901565b6104e65760405162461bcd60e51b815260206004820152602a60248201527f5361666545524332303a204552433230206f7065726174696f6e20646964206e6044820152691bdd081cdd58d8d9595960b21b6064820152608401610445565b6001600160a01b0382166122305760405162461bcd60e51b815260206004820181905260248201527f4552433732313a206d696e7420746f20746865207a65726f20616464726573736044820152606401610445565b6000818152600260205260409020546001600160a01b0316156122955760405162461bcd60e51b815260206004820152601c60248201527f4552433732313a20746f6b656e20616c7265616479206d696e746564000000006044820152606401610445565b6001600160a01b03821660009081526003602052604081208054600192906122be908490612cf0565b909155505060008181526002602052604080822080546001600160a01b0319166001600160a01b03861690811790915590518392907fddf252ad1be2c89b69c2b068fc378daa952ba7f163c4a11628f55a4df523b3ef908290a45050565b60606111a28484600085856001600160a01b0385163b61237e5760405162461bcd60e51b815260206004820152601d60248201527f416464726573733a2063616c6c20746f206e6f6e2d636f6e74726163740000006044820152606401610445565b600080866001600160a01b0316858760405161239a9190612ad2565b60006040518083038185875af1925050503d80600081146123d7576040519150601f19603f3d011682016040523d82523d6000602084013e6123dc565b606091505b50915091506123ec8282866123f7565b979650505050505050565b60608315612406575081610be1565b8251156124165782518084602001fd5b8160405162461bcd60e51b81526004016104459190612bbe565b82805482825590600052602060002090810192821561246b579160200282015b8281111561246b578251825591602001919060010190612450565b506124779291506124ea565b5090565b82805482825590600052602060002090810192821561246b579160200282015b8281111561246b57825182546001600160a01b0319166001600160a01b0390911617825560209092019160019091019061249b565b50805460008255906000526020600020908101906110ba91905b5b8082111561247757600081556001016124eb565b805161250a81612e2a565b919050565b600082601f83011261251f578081fd5b8151602061253461252f83612ccc565b612c9b565b80838252828201915082860187848660051b8901011115612553578586fd5b855b8581101561257a57815161256881612e2a565b84529284019290840190600101612555565b5090979650505050505050565b600082601f830112612597578081fd5b813560206125a761252f83612ccc565b80838252828201915082860187848660051b89010111156125c6578586fd5b855b8581101561257a578135845292840192908401906001016125c8565b600082601f8301126125f4578081fd5b8151602061260461252f83612ccc565b80838252828201915082860187848660051b8901011115612623578586fd5b855b8581101561257a57815184529284019290840190600101612625565b805161250a81612e3f565b60006020828403121561265d578081fd5b8135610be181612e2a565b6000806040838503121561267a578081fd5b823561268581612e2a565b9150602083013561269581612e2a565b809150509250929050565b60008060008060008060c087890312156126b8578182fd5b86356126c381612e2a565b955060208701356126d381612e2a565b945060408701356126e381612e2a565b9350606087013567ffffffffffffffff808211156126ff578384fd5b61270b8a838b01612587565b94506080890135915080821115612720578384fd5b61272c8a838b01612587565b935060a0890135915080821115612741578283fd5b5061274e89828a01612587565b9150509295509295509295565b60008060006060848603121561276f578081fd5b833561277a81612e2a565b9250602084013561278a81612e2a565b929592945050506040919091013590565b600080600080608085870312156127b0578182fd5b84356127bb81612e2a565b93506020858101356127cc81612e2a565b935060408601359250606086013567ffffffffffffffff808211156127ef578384fd5b818801915088601f830112612802578384fd5b81358181111561281457612814612e14565b612826601f8201601f19168501612c9b565b9150808252898482850101111561283b578485fd5b8084840185840137810190920192909252939692955090935050565b60008060408385031215612869578182fd5b823561287481612e2a565b9150602083013561269581612e3f565b60008060408385031215612896578182fd5b82356128a181612e2a565b946020939093013593505050565b600080600080608085870312156128c4578182fd5b84356128cf81612e2a565b93506020850135925060408501356128e681612e2a565b915060608501356128f681612e2a565b939692955090935050565b600060208284031215612912578081fd5b8151610be181612e3f565b60006020828403121561292e578081fd5b8135610be181612e4d565b60006020828403121561294a578081fd5b8151610be181612e4d565b600060208284031215612966578081fd5b8151610be181612e2a565b600060208284031215612982578081fd5b815167ffffffffffffffff80821115612999578283fd5b9083019061016082860312156129ad578283fd5b6129b5612c71565b6129be836124ff565b81526020830151828111156129d1578485fd5b6129dd8782860161250f565b6020830152506129ef604084016124ff565b6040820152606083015160608201526080830151608082015260a083015160a082015260c083015160c082015260e083015160e08201526101008084015181830152506101208084015183811115612a45578586fd5b612a51888287016125e4565b8284015250506101409150612a67828401612641565b91810191909152949350505050565b600060208284031215612a87578081fd5b5035919050565b600060208284031215612a9f578081fd5b5051919050565b60008151808452612abe816020860160208601612d52565b601f01601f19169290920160200192915050565b60008251612ae4818460208701612d52565b9190910192915050565b60008351612b00818460208801612d52565b835190830190612b14818360208801612d52565b01949350505050565b6001600160a01b038581168252841660208201526040810183905260806060820181905260009061166a90830184612aa6565b6001600160a01b038616815260208082018690526040820185905260a06060830181905284519083018190526000918581019160c0850190845b81811015612ba657845183529383019391830191600101612b8a565b50508093505050508260808301529695505050505050565b602081526000610be16020830184612aa6565b60208082526032908201527f4552433732313a207472616e7366657220746f206e6f6e20455243373231526560408201527131b2b4bb32b91034b6b83632b6b2b73a32b960711b606082015260800190565b6020808252602e908201527f4552433732313a2063616c6c6572206973206e6f7420746f6b656e206f776e6560408201526d1c881b9bdc88185c1c1c9bdd995960921b606082015260800190565b604051610160810167ffffffffffffffff81118282101715612c9557612c95612e14565b60405290565b604051601f8201601f1916810167ffffffffffffffff81118282101715612cc457612cc4612e14565b604052919050565b600067ffffffffffffffff821115612ce657612ce6612e14565b5060051b60200190565b60008219821115612d0357612d03612de8565b500190565b600082612d1757612d17612dfe565b500490565b6000816000190483118215151615612d3657612d36612de8565b500290565b600082821015612d4d57612d4d612de8565b500390565b60005b83811015612d6d578181015183820152602001612d55565b83811115610b6e5750506000910152565b600181811c90821680612d9257607f821691505b60208210811415612db357634e487b7160e01b600052602260045260246000fd5b50919050565b6000600019821415612dcd57612dcd612de8565b5060010190565b600082612de357612de3612dfe565b500690565b634e487b7160e01b600052601160045260246000fd5b634e487b7160e01b600052601260045260246000fd5b634e487b7160e01b600052604160045260246000fd5b6001600160a01b03811681146110ba57600080fd5b80151581146110ba57600080fd5b6001600160e01b0319811681146110ba57600080fdfea26469706673582212200209e8124325eac3cb90efa716358de785913ae2f1491ec144e22574d6c05c4764736f6c63430008040033",
  "devdoc": {
    "kind": "dev",
    "methods": {
      "approve(address,uint256)": {
        "details": "See {IERC721-approve}."
      },
      "balanceOf(address)": {
        "details": "See {IERC721-balanceOf}."
      },
      "getApproved(uint256)": {
        "details": "See {IERC721-getApproved}."
      },
      "isApprovedForAll(address,address)": {
        "details": "See {IERC721-isApprovedForAll}."
      },
      "name()": {
        "details": "See {IERC721Metadata-name}."
      },
      "ownerOf(uint256)": {
        "details": "See {IERC721-ownerOf}."
      },
      "safeTransferFrom(address,address,uint256)": {
        "details": "See {IERC721-safeTransferFrom}."
      },
      "safeTransferFrom(address,address,uint256,bytes)": {
        "details": "See {IERC721-safeTransferFrom}."
      },
      "setApprovalForAll(address,bool)": {
        "details": "See {IERC721-setApprovalForAll}."
      },
      "supportsInterface(bytes4)": {
        "details": "See {IERC165-supportsInterface}."
      },
      "symbol()": {
        "details": "See {IERC721Metadata-symbol}."
      },
      "tokenURI(uint256)": {
        "details": "See {IERC721Metadata-tokenURI}."
      },
      "transferFrom(address,address,uint256)": {
        "details": "See {IERC721-transferFrom}."
      }
    },
    "version": 1
  },
  "userdoc": {
    "kind": "user",
    "methods": {},
    "version": 1
  },
  "storageLayout": {
    "storage": [
      {
        "astId": 1184,
        "contract": "contracts/stablecoin/indexCDS.sol:IndexCDS",
        "label": "_name",
        "offset": 0,
        "slot": "0",
        "type": "t_string_storage"
      },
      {
        "astId": 1186,
        "contract": "contracts/stablecoin/indexCDS.sol:IndexCDS",
        "label": "_symbol",
        "offset": 0,
        "slot": "1",
        "type": "t_string_storage"
      },
      {
        "astId": 1190,
        "contract": "contracts/stablecoin/indexCDS.sol:IndexCDS",
        "label": "_owners",
        "offset": 0,
        "slot": "2",
        "type": "t_mapping(t_uint256,t_address)"
      },
      {
        "astId": 1194,
        "contract": "contracts/stablecoin/indexCDS.sol:IndexCDS",
        "label": "_balances",
        "offset": 0,
        "slot": "3",
        "type": "t_mapping(t_address,t_uint256)"
      },
      {
        "astId": 1198,
        "contract": "contracts/stablecoin/indexCDS.sol:IndexCDS",
        "label": "_tokenApprovals",
        "offset": 0,
        "slot": "4",
        "type": "t_mapping(t_uint256,t_address)"
      },
      {
        "astId": 1204,
        "contract": "contracts/stablecoin/indexCDS.sol:IndexCDS",
        "label": "_operatorApprovals",
        "offset": 0,
        "slot": "5",
        "type": "t_mapping(t_address,t_mapping(t_address,t_bool))"
      },
      {
        "astId": 123,
        "contract": "contracts/stablecoin/indexCDS.sol:IndexCDS",
        "label": "_status",
        "offset": 0,
        "slot": "6",
        "type": "t_uint256"
      },
      {
        "astId": 16214,
        "contract": "contracts/stablecoin/indexCDS.sol:IndexCDS",
        "label": "totalNumMints",
        "offset": 0,
        "slot": "7",
        "type": "t_uint256"
      },
      {
        "astId": 16217,
        "contract": "contracts/stablecoin/indexCDS.sol:IndexCDS",
        "label": "num_outcomes",
        "offset": 0,
        "slot": "8",
        "type": "t_uint256"
      },
      {
        "astId": 16222,
        "contract": "contracts/stablecoin/indexCDS.sol:IndexCDS",
        "label": "index_infos",
        "offset": 0,
        "slot": "9",
        "type": "t_mapping(t_uint256,t_struct(Index_info)16212_storage)"
      },
      {
        "astId": 16227,
        "contract": "contracts/stablecoin/indexCDS.sol:IndexCDS",
        "label": "indexes",
        "offset": 0,
        "slot": "10",
        "type": "t_mapping(t_uint256,t_struct(Index)16202_storage)"
      },
      {
        "astId": 16231,
        "contract": "contracts/stablecoin/indexCDS.sol:IndexCDS",
        "label": "address_to_id",
        "offset": 0,
        "slot": "11",
        "type": "t_mapping(t_address,t_uint256)"
      }
    ],
    "types": {
      "t_address": {
        "encoding": "inplace",
        "label": "address",
        "numberOfBytes": "20"
      },
      "t_array(t_address)dyn_storage": {
        "base": "t_address",
        "encoding": "dynamic_array",
        "label": "address[]",
        "numberOfBytes": "32"
      },
      "t_array(t_uint256)dyn_storage": {
        "base": "t_uint256",
        "encoding": "dynamic_array",
        "label": "uint256[]",
        "numberOfBytes": "32"
      },
      "t_bool": {
        "encoding": "inplace",
        "label": "bool",
        "numberOfBytes": "1"
      },
      "t_mapping(t_address,t_bool)": {
        "encoding": "mapping",
        "key": "t_address",
        "label": "mapping(address => bool)",
        "numberOfBytes": "32",
        "value": "t_bool"
      },
      "t_mapping(t_address,t_mapping(t_address,t_bool))": {
        "encoding": "mapping",
        "key": "t_address",
        "label": "mapping(address => mapping(address => bool))",
        "numberOfBytes": "32",
        "value": "t_mapping(t_address,t_bool)"
      },
      "t_mapping(t_address,t_uint256)": {
        "encoding": "mapping",
        "key": "t_address",
        "label": "mapping(address => uint256)",
        "numberOfBytes": "32",
        "value": "t_uint256"
      },
      "t_mapping(t_uint256,t_address)": {
        "encoding": "mapping",
        "key": "t_uint256",
        "label": "mapping(uint256 => address)",
        "numberOfBytes": "32",
        "value": "t_address"
      },
      "t_mapping(t_uint256,t_struct(Index)16202_storage)": {
        "encoding": "mapping",
        "key": "t_uint256",
        "label": "mapping(uint256 => struct IndexCDS.Index)",
        "numberOfBytes": "32",
        "value": "t_struct(Index)16202_storage"
      },
      "t_mapping(t_uint256,t_struct(Index_info)16212_storage)": {
        "encoding": "mapping",
        "key": "t_uint256",
        "label": "mapping(uint256 => struct IndexCDS.Index_info)",
        "numberOfBytes": "32",
        "value": "t_struct(Index_info)16212_storage"
      },
      "t_string_storage": {
        "encoding": "bytes",
        "label": "string",
        "numberOfBytes": "32"
      },
      "t_struct(Index)16202_storage": {
        "encoding": "inplace",
        "label": "struct IndexCDS.Index",
        "members": [
          {
            "astId": 16195,
            "contract": "contracts/stablecoin/indexCDS.sol:IndexCDS",
            "label": "value",
            "offset": 0,
            "slot": "0",
            "type": "t_uint256"
          },
          {
            "astId": 16198,
            "contract": "contracts/stablecoin/indexCDS.sol:IndexCDS",
            "label": "amounts",
            "offset": 0,
            "slot": "1",
            "type": "t_array(t_uint256)dyn_storage"
          },
          {
            "astId": 16201,
            "contract": "contracts/stablecoin/indexCDS.sol:IndexCDS",
            "label": "tokens",
            "offset": 0,
            "slot": "2",
            "type": "t_array(t_address)dyn_storage"
          }
        ],
        "numberOfBytes": "96"
      },
      "t_struct(Index_info)16212_storage": {
        "encoding": "inplace",
        "label": "struct IndexCDS.Index_info",
        "members": [
          {
            "astId": 16205,
            "contract": "contracts/stablecoin/indexCDS.sol:IndexCDS",
            "label": "token_amounts",
            "offset": 0,
            "slot": "0",
            "type": "t_array(t_uint256)dyn_storage"
          },
          {
            "astId": 16208,
            "contract": "contracts/stablecoin/indexCDS.sol:IndexCDS",
            "label": "marketIds",
            "offset": 0,
            "slot": "1",
            "type": "t_array(t_uint256)dyn_storage"
          },
          {
            "astId": 16211,
            "contract": "contracts/stablecoin/indexCDS.sol:IndexCDS",
            "label": "outcomes",
            "offset": 0,
            "slot": "2",
            "type": "t_array(t_uint256)dyn_storage"
          }
        ],
        "numberOfBytes": "96"
      },
      "t_uint256": {
        "encoding": "inplace",
        "label": "uint256",
        "numberOfBytes": "32"
      }
    }
  }
}