{
  "address": "0xB8d57e97568d952686286bFC4692324230f5B798",
  "abi": [
    {
      "inputs": [
        {
          "internalType": "address",
          "name": "_ds_address",
          "type": "address"
        },
        {
          "internalType": "address",
          "name": "_dss_address",
          "type": "address"
        },
        {
          "internalType": "address",
          "name": "_collateral_address",
          "type": "address"
        },
        {
          "internalType": "address",
          "name": "_creator_address",
          "type": "address"
        },
        {
          "internalType": "address",
          "name": "_timelock_address",
          "type": "address"
        }
      ],
      "stateMutability": "nonpayable",
      "type": "constructor"
    },
    {
      "anonymous": false,
      "inputs": [
        {
          "indexed": false,
          "internalType": "address",
          "name": "oldOwner",
          "type": "address"
        },
        {
          "indexed": false,
          "internalType": "address",
          "name": "newOwner",
          "type": "address"
        }
      ],
      "name": "OwnerChanged",
      "type": "event"
    },
    {
      "anonymous": false,
      "inputs": [
        {
          "indexed": false,
          "internalType": "address",
          "name": "newOwner",
          "type": "address"
        }
      ],
      "name": "OwnerNominated",
      "type": "event"
    },
    {
      "inputs": [],
      "name": "acceptOwnership",
      "outputs": [],
      "stateMutability": "nonpayable",
      "type": "function"
    },
    {
      "inputs": [
        {
          "internalType": "uint256",
          "name": "col_idx",
          "type": "uint256"
        }
      ],
      "name": "collectRedemption",
      "outputs": [
        {
          "internalType": "uint256",
          "name": "dss_amount",
          "type": "uint256"
        },
        {
          "internalType": "uint256",
          "name": "collateral_amount",
          "type": "uint256"
        }
      ],
      "stateMutability": "nonpayable",
      "type": "function"
    },
    {
      "inputs": [
        {
          "internalType": "address",
          "name": "",
          "type": "address"
        }
      ],
      "name": "lastRedeemed",
      "outputs": [
        {
          "internalType": "uint256",
          "name": "",
          "type": "uint256"
        }
      ],
      "stateMutability": "view",
      "type": "function"
    },
    {
      "inputs": [
        {
          "internalType": "uint256",
          "name": "collateral_amount",
          "type": "uint256"
        },
        {
          "internalType": "uint256",
          "name": "DS_out_min",
          "type": "uint256"
        }
      ],
      "name": "mintDS",
      "outputs": [],
      "stateMutability": "nonpayable",
      "type": "function"
    },
    {
      "inputs": [
        {
          "internalType": "address",
          "name": "_owner",
          "type": "address"
        }
      ],
      "name": "nominateNewOwner",
      "outputs": [],
      "stateMutability": "nonpayable",
      "type": "function"
    },
    {
      "inputs": [],
      "name": "nominatedOwner",
      "outputs": [
        {
          "internalType": "address",
          "name": "",
          "type": "address"
        }
      ],
      "stateMutability": "view",
      "type": "function"
    },
    {
      "inputs": [],
      "name": "owner",
      "outputs": [
        {
          "internalType": "address",
          "name": "",
          "type": "address"
        }
      ],
      "stateMutability": "view",
      "type": "function"
    },
    {
      "inputs": [
        {
          "internalType": "address",
          "name": "",
          "type": "address"
        }
      ],
      "name": "redeemCollateralBalances",
      "outputs": [
        {
          "internalType": "uint256",
          "name": "",
          "type": "uint256"
        }
      ],
      "stateMutability": "view",
      "type": "function"
    },
    {
      "inputs": [
        {
          "internalType": "uint256",
          "name": "DS_amount",
          "type": "uint256"
        },
        {
          "internalType": "uint256",
          "name": "DSS_out_min",
          "type": "uint256"
        },
        {
          "internalType": "uint256",
          "name": "COLLATERAL_out_min",
          "type": "uint256"
        }
      ],
      "name": "redeemDS",
      "outputs": [],
      "stateMutability": "nonpayable",
      "type": "function"
    },
    {
      "inputs": [
        {
          "internalType": "address",
          "name": "",
          "type": "address"
        }
      ],
      "name": "redeemDSSBalances",
      "outputs": [
        {
          "internalType": "uint256",
          "name": "",
          "type": "uint256"
        }
      ],
      "stateMutability": "view",
      "type": "function"
    },
    {
      "inputs": [
        {
          "internalType": "uint256",
          "name": "new_ceiling",
          "type": "uint256"
        },
        {
          "internalType": "uint256",
          "name": "new_bonus_rate",
          "type": "uint256"
        },
        {
          "internalType": "uint256",
          "name": "new_redemption_delay",
          "type": "uint256"
        },
        {
          "internalType": "uint256",
          "name": "new_mint_fee",
          "type": "uint256"
        },
        {
          "internalType": "uint256",
          "name": "new_redeem_fee",
          "type": "uint256"
        },
        {
          "internalType": "uint256",
          "name": "new_buyback_fee",
          "type": "uint256"
        },
        {
          "internalType": "uint256",
          "name": "new_recollat_fee",
          "type": "uint256"
        }
      ],
      "name": "setPoolParameters",
      "outputs": [],
      "stateMutability": "nonpayable",
      "type": "function"
    },
    {
      "inputs": [],
      "name": "unclaimedPoolCollateral",
      "outputs": [
        {
          "internalType": "uint256",
          "name": "",
          "type": "uint256"
        }
      ],
      "stateMutability": "view",
      "type": "function"
    },
    {
      "inputs": [],
      "name": "unclaimedPoolDSS",
      "outputs": [
        {
          "internalType": "uint256",
          "name": "",
          "type": "uint256"
        }
      ],
      "stateMutability": "view",
      "type": "function"
    }
  ],
  "transactionHash": "0x859df3fb6babf4808c7ebf93b275603afb5592edae901769be512b3c4157c747",
  "args": [
    "0x0449EC87720500128a59e888e167A106761CD97c",
    "0x7c8a33e19A9080648f669A2548cB87f9Fae2AE50",
    "0x5799bFe361BEea69f808328FF4884DF92f1f66f0",
    "0xFD84b7AC1E646580db8c77f1f05F47977fAda692",
    "0xFD84b7AC1E646580db8c77f1f05F47977fAda692"
  ],
  "solcInputHash": "cb0cb1886bee81de7f5b747d568ad04c",
  "bytecode": "0x608060405234801561001057600080fd5b5060405161119e38038061119e833981810160405260a081101561003357600080fd5b50805160208201516040830151606084015160809094015192939192909190816001600160a01b0381166100ae576040805162461bcd60e51b815260206004820152601960248201527f4f776e657220616464726573732063616e6e6f74206265203000000000000000604482015290519081900360640190fd5b600080546001600160a01b0319166001600160a01b038316908117825560408051928352602083019190915280517fb532073b38c83145e3e5135377a08bf9aab55bc0fd7c1179cd4fb995d2a5159c9281900390910190a1506001600160a01b0385161580159061012757506001600160a01b03841615155b801561013b57506001600160a01b03831615155b801561014f57506001600160a01b03821615155b801561016357506001600160a01b03811615155b6101b4576040805162461bcd60e51b815260206004820152601560248201527f5a65726f20616464726573732064657465637465640000000000000000000000604482015290519081900360640190fd5b601080546001600160a01b03199081166001600160a01b038881169182179093556011805483168885169081179091556002805484169092179091556003805483169091179055600480546005805484168786161790556006805484168686161790558216868416908117831681178255600f805490931617918290556040805163313ce56760e01b815290516102af94939093169263313ce56792828101926020929190829003018186803b15801561026d57600080fd5b505afa158015610281573d6000803e3d6000fd5b505050506040513d602081101561029757600080fd5b505160129060ff166102bd602090811b61094e17901c565b600e555061031a9350505050565b600082821115610314576040805162461bcd60e51b815260206004820152601e60248201527f536166654d6174683a207375627472616374696f6e206f766572666c6f770000604482015290519081900360640190fd5b50900390565b610e75806103296000396000f3fe608060405234801561001057600080fd5b50600436106100cf5760003560e01c80638da5cb5b1161008c578063abae2c4c11610066578063abae2c4c14610210578063bcecd40f14610236578063f43038c51461023e578063f57e3fa514610264576100cf565b80638da5cb5b146101a95780639d202bf8146101b15780639f59ae4d146101e7576100cf565b806308a7493d146100d45780631627540c1461010c5780634ebbe7621461013457806353a47bb71461017557806379ba5097146101995780637b0461e9146101a1575b600080fd5b6100fa600480360360208110156100ea57600080fd5b50356001600160a01b0316610287565b60408051918252519081900360200190f35b6101326004803603602081101561012257600080fd5b50356001600160a01b0316610299565b005b610132600480360360e081101561014a57600080fd5b5080359060208101359060408101359060608101359060808101359060a08101359060c00135610336565b61017d6103c2565b604080516001600160a01b039092168252519081900360200190f35b6101326103d1565b6100fa61048d565b61017d610493565b6101ce600480360360208110156101c757600080fd5b50356104a2565b6040805192835260208301919091528051918290030190f35b610132600480360360608110156101fd57600080fd5b508035906020810135906040013561056a565b6100fa6004803603602081101561022657600080fd5b50356001600160a01b0316610852565b6100fa610864565b6100fa6004803603602081101561025457600080fd5b50356001600160a01b031661086a565b6101326004803603604081101561027a57600080fd5b508035906020013561087c565b60136020526000908152604090205481565b6000546001600160a01b031633146102e25760405162461bcd60e51b815260040180806020018281038252602f815260200180610dcc602f913960400191505060405180910390fd5b600180546001600160a01b0383166001600160a01b0319909116811790915560408051918252517f906a1c6bd7e3091ea86693dd029a831c19049ce77f1dce2ce0bab1cacbabce229181900360200190a150565b6006546001600160a01b031633148061035957506000546001600160a01b031633145b6103a2576040805162461bcd60e51b81526020600482015260156024820152744e6f74206f776e6572206f722074696d656c6f636b60581b604482015290519081900360640190fd5b600796909655600894909455600992909255600a55600b55600c55600d55565b6001546001600160a01b031681565b6001546001600160a01b0316331461041a5760405162461bcd60e51b8152600401808060200182810382526035815260200180610d976035913960400191505060405180910390fd5b600054600154604080516001600160a01b03938416815292909116602083015280517fb532073b38c83145e3e5135377a08bf9aab55bc0fd7c1179cd4fb995d2a5159c9281900390910190a160018054600080546001600160a01b03199081166001600160a01b03841617909155169055565b60145481565b6000546001600160a01b031681565b33600090815260126020526040812054819081908190156104e95733600090815260126020526040812080549190556015549094506104e1908561094e565b601555600191505b3360009081526013602052604090205415610529573360009081526013602052604081208054919055601454909350610522908461094e565b6014555060015b811561054657601154610546906001600160a01b031633866109b0565b801561056357600454610563906001600160a01b031633856109b0565b5050915091565b60105460408051634ed9ac1f60e01b815290516000926001600160a01b031691634ed9ac1f916004808301926020929190829003018186803b1580156105af57600080fd5b505afa1580156105c3573d6000803e3d6000fd5b505050506040513d60208110156105d957600080fd5b505160105460408051635451086360e01b815290519293506000926001600160a01b0390921691635451086391600480820192602092909190829003018186803b15801561062657600080fd5b505afa15801561063a573d6000803e3d6000fd5b505050506040513d602081101561065057600080fd5b5051600e54909150600090610669908790600a0a610b19565b9050600061069c620f424061069661068f600b54620f424061094e90919063ffffffff16565b8a90610b19565b90610b79565b905060006106bb6106b4620f42406106968588610b19565b839061094e565b905060006106d08661069684620f4240610b19565b90508260006106e6620f4240610696848a610b19565b3360009081526013602052604090205490915081906107059082610be0565b336000908152601360205260409020556014546107229082610be0565b6014553360009081526012602052604090205461073f9085610be0565b3360009081526012602052604090205560155461075c9085610be0565b601555336000818152601660205260408082204390556010548151631211faed60e31b81526004810194909452602484018b905290516001600160a01b039091169263908fd76892604480830193919282900301818387803b1580156107c157600080fd5b505af11580156107d5573d6000803e3d6000fd5b505060115460408051635a7ab59360e11b81523060048201526024810189905290516001600160a01b03909216935063b4f56b26925060448082019260009290919082900301818387803b15801561082c57600080fd5b505af1158015610840573d6000803e3d6000fd5b50505050505050505050505050505050565b60166020526000908152604090205481565b60155481565b60126020526000908152604090205481565b6000600e54600a0a8302905060008190506108b6620f42406106966108af600a54620f424061094e90919063ffffffff16565b8490610b19565b9050808311156108c557600080fd5b600f546108dd906001600160a01b0316333087610c3a565b60105460408051635a7ab59360e11b81523360048201526024810184905290516001600160a01b039092169163b4f56b269160448082019260009290919082900301818387803b15801561093057600080fd5b505af1158015610944573d6000803e3d6000fd5b5050505050505050565b6000828211156109a5576040805162461bcd60e51b815260206004820152601e60248201527f536166654d6174683a207375627472616374696f6e206f766572666c6f770000604482015290519081900360640190fd5b508082035b92915050565b604080516001600160a01b038481166024830152604480830185905283518084039091018152606490920183526020820180516001600160e01b031663a9059cbb60e01b1781529251825160009485949389169392918291908083835b60208310610a2c5780518252601f199092019160209182019101610a0d565b6001836020036101000a0380198251168184511680821785525050505050509050019150506000604051808303816000865af19150503d8060008114610a8e576040519150601f19603f3d011682016040523d82523d6000602084013e610a93565b606091505b5091509150818015610ac1575080511580610ac15750808060200190516020811015610abe57600080fd5b50515b610b12576040805162461bcd60e51b815260206004820152601f60248201527f5472616e7366657248656c7065723a205452414e534645525f4641494c454400604482015290519081900360640190fd5b5050505050565b600082610b28575060006109aa565b82820282848281610b3557fe5b0414610b725760405162461bcd60e51b8152600401808060200182810382526021815260200180610dfb6021913960400191505060405180910390fd5b9392505050565b6000808211610bcf576040805162461bcd60e51b815260206004820152601a60248201527f536166654d6174683a206469766973696f6e206279207a65726f000000000000604482015290519081900360640190fd5b818381610bd857fe5b049392505050565b600082820183811015610b72576040805162461bcd60e51b815260206004820152601b60248201527f536166654d6174683a206164646974696f6e206f766572666c6f770000000000604482015290519081900360640190fd5b604080516001600160a01b0385811660248301528481166044830152606480830185905283518084039091018152608490920183526020820180516001600160e01b03166323b872dd60e01b178152925182516000948594938a169392918291908083835b60208310610cbe5780518252601f199092019160209182019101610c9f565b6001836020036101000a0380198251168184511680821785525050505050509050019150506000604051808303816000865af19150503d8060008114610d20576040519150601f19603f3d011682016040523d82523d6000602084013e610d25565b606091505b5091509150818015610d53575080511580610d535750808060200190516020811015610d5057600080fd5b50515b610d8e5760405162461bcd60e51b8152600401808060200182810382526024815260200180610e1c6024913960400191505060405180910390fd5b50505050505056fe596f75206d757374206265206e6f6d696e61746564206265666f726520796f752063616e20616363657074206f776e6572736869704f6e6c792074686520636f6e7472616374206f776e6572206d617920706572666f726d207468697320616374696f6e536166654d6174683a206d756c7469706c69636174696f6e206f766572666c6f775472616e7366657248656c7065723a205452414e534645525f46524f4d5f4641494c4544a2646970667358221220da9d4cd33f7e48e34a4201ac1eef9b55829561e8c1bf399671ee62e8f535ae7e64736f6c63430007060033",
  "devdoc": {
    "kind": "dev",
    "methods": {},
    "version": 1
  },
  "userdoc": {
    "kind": "user",
    "methods": {},
    "version": 1
  },
  "storageLayout": {
    "storage": [
      {
        "astId": 12811,
        "contract": "contracts/stablecoin/lendingpool.sol:LendingPool",
        "label": "owner",
        "offset": 0,
        "slot": "0",
        "type": "t_address"
      },
      {
        "astId": 12813,
        "contract": "contracts/stablecoin/lendingpool.sol:LendingPool",
        "label": "nominatedOwner",
        "offset": 0,
        "slot": "1",
        "type": "t_address"
      },
      {
        "astId": 12238,
        "contract": "contracts/stablecoin/lendingpool.sol:LendingPool",
        "label": "ds_address",
        "offset": 0,
        "slot": "2",
        "type": "t_address"
      },
      {
        "astId": 12240,
        "contract": "contracts/stablecoin/lendingpool.sol:LendingPool",
        "label": "dss_address",
        "offset": 0,
        "slot": "3",
        "type": "t_address"
      },
      {
        "astId": 12242,
        "contract": "contracts/stablecoin/lendingpool.sol:LendingPool",
        "label": "collateral_address",
        "offset": 0,
        "slot": "4",
        "type": "t_address"
      },
      {
        "astId": 12244,
        "contract": "contracts/stablecoin/lendingpool.sol:LendingPool",
        "label": "creator_address",
        "offset": 0,
        "slot": "5",
        "type": "t_address"
      },
      {
        "astId": 12246,
        "contract": "contracts/stablecoin/lendingpool.sol:LendingPool",
        "label": "timelock_address",
        "offset": 0,
        "slot": "6",
        "type": "t_address"
      },
      {
        "astId": 12248,
        "contract": "contracts/stablecoin/lendingpool.sol:LendingPool",
        "label": "pool_ceiling",
        "offset": 0,
        "slot": "7",
        "type": "t_uint256"
      },
      {
        "astId": 12250,
        "contract": "contracts/stablecoin/lendingpool.sol:LendingPool",
        "label": "bonus_rate",
        "offset": 0,
        "slot": "8",
        "type": "t_uint256"
      },
      {
        "astId": 12252,
        "contract": "contracts/stablecoin/lendingpool.sol:LendingPool",
        "label": "redemption_delay",
        "offset": 0,
        "slot": "9",
        "type": "t_uint256"
      },
      {
        "astId": 12254,
        "contract": "contracts/stablecoin/lendingpool.sol:LendingPool",
        "label": "minting_fee",
        "offset": 0,
        "slot": "10",
        "type": "t_uint256"
      },
      {
        "astId": 12256,
        "contract": "contracts/stablecoin/lendingpool.sol:LendingPool",
        "label": "redemption_fee",
        "offset": 0,
        "slot": "11",
        "type": "t_uint256"
      },
      {
        "astId": 12258,
        "contract": "contracts/stablecoin/lendingpool.sol:LendingPool",
        "label": "buyback_fee",
        "offset": 0,
        "slot": "12",
        "type": "t_uint256"
      },
      {
        "astId": 12260,
        "contract": "contracts/stablecoin/lendingpool.sol:LendingPool",
        "label": "recollat_fee",
        "offset": 0,
        "slot": "13",
        "type": "t_uint256"
      },
      {
        "astId": 12262,
        "contract": "contracts/stablecoin/lendingpool.sol:LendingPool",
        "label": "missing_decimals",
        "offset": 0,
        "slot": "14",
        "type": "t_uint256"
      },
      {
        "astId": 12267,
        "contract": "contracts/stablecoin/lendingpool.sol:LendingPool",
        "label": "collateral_token",
        "offset": 0,
        "slot": "15",
        "type": "t_contract(ERC20)1013"
      },
      {
        "astId": 12269,
        "contract": "contracts/stablecoin/lendingpool.sol:LendingPool",
        "label": "DScontract",
        "offset": 0,
        "slot": "16",
        "type": "t_contract(DS)11913"
      },
      {
        "astId": 12271,
        "contract": "contracts/stablecoin/lendingpool.sol:LendingPool",
        "label": "DSScontract",
        "offset": 0,
        "slot": "17",
        "type": "t_contract(DSS)12065"
      },
      {
        "astId": 12275,
        "contract": "contracts/stablecoin/lendingpool.sol:LendingPool",
        "label": "redeemDSSBalances",
        "offset": 0,
        "slot": "18",
        "type": "t_mapping(t_address,t_uint256)"
      },
      {
        "astId": 12279,
        "contract": "contracts/stablecoin/lendingpool.sol:LendingPool",
        "label": "redeemCollateralBalances",
        "offset": 0,
        "slot": "19",
        "type": "t_mapping(t_address,t_uint256)"
      },
      {
        "astId": 12281,
        "contract": "contracts/stablecoin/lendingpool.sol:LendingPool",
        "label": "unclaimedPoolCollateral",
        "offset": 0,
        "slot": "20",
        "type": "t_uint256"
      },
      {
        "astId": 12283,
        "contract": "contracts/stablecoin/lendingpool.sol:LendingPool",
        "label": "unclaimedPoolDSS",
        "offset": 0,
        "slot": "21",
        "type": "t_uint256"
      },
      {
        "astId": 12287,
        "contract": "contracts/stablecoin/lendingpool.sol:LendingPool",
        "label": "lastRedeemed",
        "offset": 0,
        "slot": "22",
        "type": "t_mapping(t_address,t_uint256)"
      }
    ],
    "types": {
      "t_address": {
        "encoding": "inplace",
        "label": "address",
        "numberOfBytes": "20"
      },
      "t_contract(DS)11913": {
        "encoding": "inplace",
        "label": "contract DS",
        "numberOfBytes": "20"
      },
      "t_contract(DSS)12065": {
        "encoding": "inplace",
        "label": "contract DSS",
        "numberOfBytes": "20"
      },
      "t_contract(ERC20)1013": {
        "encoding": "inplace",
        "label": "contract ERC20",
        "numberOfBytes": "20"
      },
      "t_mapping(t_address,t_uint256)": {
        "encoding": "mapping",
        "key": "t_address",
        "label": "mapping(address => uint256)",
        "numberOfBytes": "32",
        "value": "t_uint256"
      },
      "t_uint256": {
        "encoding": "inplace",
        "label": "uint256",
        "numberOfBytes": "32"
      }
    }
  }
}