{
  "address": "0x97Ed87C184b79bD6C34c1C056b6930Fd08C4F8d5",
  "abi": [
    {
      "inputs": [
        {
          "internalType": "address",
          "name": "_ds_address",
          "type": "address"
        },
        {
          "internalType": "address",
          "name": "_dss_address",
          "type": "address"
        },
        {
          "internalType": "address",
          "name": "_collateral_address",
          "type": "address"
        },
        {
          "internalType": "address",
          "name": "_creator_address",
          "type": "address"
        },
        {
          "internalType": "address",
          "name": "_timelock_address",
          "type": "address"
        }
      ],
      "stateMutability": "nonpayable",
      "type": "constructor"
    },
    {
      "anonymous": false,
      "inputs": [
        {
          "indexed": false,
          "internalType": "address",
          "name": "oldOwner",
          "type": "address"
        },
        {
          "indexed": false,
          "internalType": "address",
          "name": "newOwner",
          "type": "address"
        }
      ],
      "name": "OwnerChanged",
      "type": "event"
    },
    {
      "anonymous": false,
      "inputs": [
        {
          "indexed": false,
          "internalType": "address",
          "name": "newOwner",
          "type": "address"
        }
      ],
      "name": "OwnerNominated",
      "type": "event"
    },
    {
      "inputs": [
        {
          "internalType": "address",
          "name": "borrower_address",
          "type": "address"
        }
      ],
      "name": "_isBorrower",
      "outputs": [
        {
          "internalType": "bool",
          "name": "",
          "type": "bool"
        }
      ],
      "stateMutability": "view",
      "type": "function"
    },
    {
      "inputs": [],
      "name": "acceptOwnership",
      "outputs": [],
      "stateMutability": "nonpayable",
      "type": "function"
    },
    {
      "inputs": [
        {
          "internalType": "address",
          "name": "_recipient",
          "type": "address"
        },
        {
          "internalType": "uint256",
          "name": "_principal",
          "type": "uint256"
        },
        {
          "internalType": "uint256",
          "name": "_totalDebt",
          "type": "uint256"
        },
        {
          "internalType": "uint256",
          "name": "_duration",
          "type": "uint256"
        },
        {
          "internalType": "contract ERC20",
          "name": "_underlyingToken",
          "type": "address"
        }
      ],
      "name": "addBorrower",
      "outputs": [],
      "stateMutability": "nonpayable",
      "type": "function"
    },
    {
      "inputs": [
        {
          "internalType": "uint256",
          "name": "amount",
          "type": "uint256"
        }
      ],
      "name": "borrow",
      "outputs": [],
      "stateMutability": "nonpayable",
      "type": "function"
    },
    {
      "inputs": [
        {
          "internalType": "address",
          "name": "",
          "type": "address"
        }
      ],
      "name": "borrower_allowance",
      "outputs": [
        {
          "internalType": "uint256",
          "name": "",
          "type": "uint256"
        }
      ],
      "stateMutability": "view",
      "type": "function"
    },
    {
      "inputs": [
        {
          "internalType": "address",
          "name": "",
          "type": "address"
        }
      ],
      "name": "borrower_data",
      "outputs": [
        {
          "internalType": "contract ERC20",
          "name": "underlyingToken",
          "type": "address"
        },
        {
          "internalType": "uint256",
          "name": "principal",
          "type": "uint256"
        },
        {
          "internalType": "uint256",
          "name": "totalDebt",
          "type": "uint256"
        },
        {
          "internalType": "uint256",
          "name": "amountRepaid",
          "type": "uint256"
        },
        {
          "internalType": "uint256",
          "name": "duration",
          "type": "uint256"
        },
        {
          "internalType": "uint256",
          "name": "repaymentDate",
          "type": "uint256"
        },
        {
          "internalType": "address",
          "name": "recipient",
          "type": "address"
        }
      ],
      "stateMutability": "view",
      "type": "function"
    },
    {
      "inputs": [
        {
          "internalType": "address",
          "name": "",
          "type": "address"
        }
      ],
      "name": "borrower_debt",
      "outputs": [
        {
          "internalType": "uint256",
          "name": "",
          "type": "uint256"
        }
      ],
      "stateMutability": "view",
      "type": "function"
    },
    {
      "inputs": [
        {
          "internalType": "uint256",
          "name": "col_idx",
          "type": "uint256"
        }
      ],
      "name": "collectRedemption",
      "outputs": [
        {
          "internalType": "uint256",
          "name": "dss_amount",
          "type": "uint256"
        },
        {
          "internalType": "uint256",
          "name": "collateral_amount",
          "type": "uint256"
        }
      ],
      "stateMutability": "nonpayable",
      "type": "function"
    },
    {
      "inputs": [
        {
          "internalType": "address",
          "name": "borrower_address",
          "type": "address"
        }
      ],
      "name": "getBorrowerData",
      "outputs": [
        {
          "components": [
            {
              "internalType": "contract ERC20",
              "name": "underlyingToken",
              "type": "address"
            },
            {
              "internalType": "uint256",
              "name": "principal",
              "type": "uint256"
            },
            {
              "internalType": "uint256",
              "name": "totalDebt",
              "type": "uint256"
            },
            {
              "internalType": "uint256",
              "name": "amountRepaid",
              "type": "uint256"
            },
            {
              "internalType": "uint256",
              "name": "duration",
              "type": "uint256"
            },
            {
              "internalType": "uint256",
              "name": "repaymentDate",
              "type": "uint256"
            },
            {
              "internalType": "address",
              "name": "recipient",
              "type": "address"
            }
          ],
          "internalType": "struct LendingPool.LoanMetadata",
          "name": "",
          "type": "tuple"
        }
      ],
      "stateMutability": "view",
      "type": "function"
    },
    {
      "inputs": [],
      "name": "get_loan_data",
      "outputs": [
        {
          "components": [
            {
              "internalType": "uint256",
              "name": "_total_borrowed_amount",
              "type": "uint256"
            },
            {
              "internalType": "uint256",
              "name": "_accrued_interest",
              "type": "uint256"
            }
          ],
          "internalType": "struct LendingPool.LoanData",
          "name": "",
          "type": "tuple"
        }
      ],
      "stateMutability": "view",
      "type": "function"
    },
    {
      "inputs": [
        {
          "internalType": "address",
          "name": "",
          "type": "address"
        }
      ],
      "name": "isBorrower",
      "outputs": [
        {
          "internalType": "bool",
          "name": "",
          "type": "bool"
        }
      ],
      "stateMutability": "view",
      "type": "function"
    },
    {
      "inputs": [
        {
          "internalType": "address",
          "name": "",
          "type": "address"
        }
      ],
      "name": "lastRedeemed",
      "outputs": [
        {
          "internalType": "uint256",
          "name": "",
          "type": "uint256"
        }
      ],
      "stateMutability": "view",
      "type": "function"
    },
    {
      "inputs": [
        {
          "internalType": "uint256",
          "name": "collateral_amount",
          "type": "uint256"
        },
        {
          "internalType": "uint256",
          "name": "DS_out_min",
          "type": "uint256"
        }
      ],
      "name": "mintDS",
      "outputs": [],
      "stateMutability": "nonpayable",
      "type": "function"
    },
    {
      "inputs": [
        {
          "internalType": "address",
          "name": "_owner",
          "type": "address"
        }
      ],
      "name": "nominateNewOwner",
      "outputs": [],
      "stateMutability": "nonpayable",
      "type": "function"
    },
    {
      "inputs": [],
      "name": "nominatedOwner",
      "outputs": [
        {
          "internalType": "address",
          "name": "",
          "type": "address"
        }
      ],
      "stateMutability": "view",
      "type": "function"
    },
    {
      "inputs": [],
      "name": "owner",
      "outputs": [
        {
          "internalType": "address",
          "name": "",
          "type": "address"
        }
      ],
      "stateMutability": "view",
      "type": "function"
    },
    {
      "inputs": [
        {
          "internalType": "address",
          "name": "",
          "type": "address"
        }
      ],
      "name": "redeemCollateralBalances",
      "outputs": [
        {
          "internalType": "uint256",
          "name": "",
          "type": "uint256"
        }
      ],
      "stateMutability": "view",
      "type": "function"
    },
    {
      "inputs": [
        {
          "internalType": "uint256",
          "name": "DS_amount",
          "type": "uint256"
        },
        {
          "internalType": "uint256",
          "name": "DSS_out_min",
          "type": "uint256"
        },
        {
          "internalType": "uint256",
          "name": "COLLATERAL_out_min",
          "type": "uint256"
        }
      ],
      "name": "redeemDS",
      "outputs": [],
      "stateMutability": "nonpayable",
      "type": "function"
    },
    {
      "inputs": [
        {
          "internalType": "address",
          "name": "",
          "type": "address"
        }
      ],
      "name": "redeemDSSBalances",
      "outputs": [
        {
          "internalType": "uint256",
          "name": "",
          "type": "uint256"
        }
      ],
      "stateMutability": "view",
      "type": "function"
    },
    {
      "inputs": [
        {
          "internalType": "uint256",
          "name": "repay_principal",
          "type": "uint256"
        },
        {
          "internalType": "uint256",
          "name": "repay_interest",
          "type": "uint256"
        }
      ],
      "name": "repay",
      "outputs": [],
      "stateMutability": "nonpayable",
      "type": "function"
    },
    {
      "inputs": [
        {
          "internalType": "uint256",
          "name": "new_ceiling",
          "type": "uint256"
        },
        {
          "internalType": "uint256",
          "name": "new_bonus_rate",
          "type": "uint256"
        },
        {
          "internalType": "uint256",
          "name": "new_redemption_delay",
          "type": "uint256"
        },
        {
          "internalType": "uint256",
          "name": "new_mint_fee",
          "type": "uint256"
        },
        {
          "internalType": "uint256",
          "name": "new_redeem_fee",
          "type": "uint256"
        },
        {
          "internalType": "uint256",
          "name": "new_buyback_fee",
          "type": "uint256"
        },
        {
          "internalType": "uint256",
          "name": "new_recollat_fee",
          "type": "uint256"
        }
      ],
      "name": "setPoolParameters",
      "outputs": [],
      "stateMutability": "nonpayable",
      "type": "function"
    },
    {
      "inputs": [],
      "name": "unclaimedPoolCollateral",
      "outputs": [
        {
          "internalType": "uint256",
          "name": "",
          "type": "uint256"
        }
      ],
      "stateMutability": "view",
      "type": "function"
    },
    {
      "inputs": [],
      "name": "unclaimedPoolDSS",
      "outputs": [
        {
          "internalType": "uint256",
          "name": "",
          "type": "uint256"
        }
      ],
      "stateMutability": "view",
      "type": "function"
    }
  ],
  "transactionHash": "0xd3a5d67d3656ab78c791b7e0f3dc660c8f12c022d9644585d0d10eddfc61108a",
  "args": [
    "0xc90AfD78f79068184d79beA3b615cAB32D0DC45D",
    "0x578ee85856763334d436C715Bcd42F7610619644",
    "0x5799bFe361BEea69f808328FF4884DF92f1f66f0",
    "0xFD84b7AC1E646580db8c77f1f05F47977fAda692",
    "0xFD84b7AC1E646580db8c77f1f05F47977fAda692"
  ],
  "solcInputHash": "a9af2a26547d7d91adb649267e288c6f",
  "bytecode": "0x60806040523480156200001157600080fd5b5060405162001c5638038062001c5683398101604081905262000034916200030b565b816001600160a01b03811662000091576040805162461bcd60e51b815260206004820152601960248201527f4f776e657220616464726573732063616e6e6f74206265203000000000000000604482015290519081900360640190fd5b600080546001600160a01b0319166001600160a01b038316908117825560408051928352602083019190915280517fb532073b38c83145e3e5135377a08bf9aab55bc0fd7c1179cd4fb995d2a5159c9281900390910190a1506001600160a01b038516158015906200010b57506001600160a01b03841615155b80156200012057506001600160a01b03831615155b80156200013557506001600160a01b03821615155b80156200014a57506001600160a01b03811615155b620001725760405162461bcd60e51b81526004016200016990620003a4565b60405180910390fd5b601080546001600160a01b03199081166001600160a01b038881169182179093556011805483168885169081179091556002805484169092179091556003805483169091179055600480546005805484168786161790556006805484168686161790558216868416908117831681178255600f805490931617918290556040805163313ce56760e01b815290516200028194939093169263313ce56792828101926020929190829003018186803b1580156200022d57600080fd5b505afa15801562000242573d6000803e3d6000fd5b505050506040513d601f19601f820116820180604052508101906200026891906200037a565b60ff1660126200029060201b62000ed01790919060201c565b600e5550620003db9350505050565b600082821115620002e8576040805162461bcd60e51b815260206004820152601e60248201527f536166654d6174683a207375627472616374696f6e206f766572666c6f770000604482015290519081900360640190fd5b50900390565b80516001600160a01b03811681146200030657600080fd5b919050565b600080600080600060a0868803121562000323578081fd5b6200032e86620002ee565b94506200033e60208701620002ee565b93506200034e60408701620002ee565b92506200035e60608701620002ee565b91506200036e60808701620002ee565b90509295509295909350565b6000602082840312156200038c578081fd5b815160ff811681146200039d578182fd5b9392505050565b60208082526015908201527f5a65726f20616464726573732064657465637465640000000000000000000000604082015260600190565b61186b80620003eb6000396000f3fe608060405234801561001057600080fd5b506004361061014d5760003560e01c8063a2abb4ea116100c3578063d8aed1451161007c578063d8aed145146102c0578063e6c43911146102d3578063e705b263146102e6578063eaf6e483146102f9578063f43038c51461030c578063f57e3fa51461031f5761014d565b8063a2abb4ea1461024a578063abae2c4c1461025f578063bcecd40f14610272578063c1c76de81461027a578063c5ebeaec1461028d578063cffafc4c146102a05761014d565b806373431b5e1161011557806373431b5e146101d857806379ba5097146101fe5780637b0461e9146102065780638da5cb5b1461020e5780639d202bf8146102165780639f59ae4d146102375761014d565b806308a7493d146101525780631627540c1461017b5780634a0e542c146101905780634ebbe762146101b057806353a47bb7146101c3575b600080fd5b610165610160366004611454565b610332565b604051610172919061175d565b60405180910390f35b61018e610189366004611454565b610344565b005b6101a361019e366004611454565b6103e1565b6040516101729190611708565b61018e6101be366004611541565b61045c565b6101cb6104c4565b604051610172919061158c565b6101eb6101e6366004611454565b6104d3565b60405161017297969594939291906115c4565b61018e61051b565b6101656105d7565b6101cb6105dd565b6102296102243660046114c5565b6105ec565b604051610172929190611766565b61018e610245366004611516565b6106b4565b6102526109b5565b60405161017291906116f1565b61016561026d366004611454565b6109d8565b6101656109ea565b610165610288366004611454565b6109f0565b61018e61029b3660046114c5565b610a02565b6102b36102ae366004611454565b610b20565b60405161017291906115b9565b61018e6102ce3660046114f5565b610b3e565b6101656102e1366004611454565b610c8e565b61018e6102f4366004611470565b610ca0565b6102b3610307366004611454565b610dde565b61016561031a366004611454565b610df3565b61018e61032d3660046114f5565b610e05565b60136020526000908152604090205481565b6000546001600160a01b0316331461038d5760405162461bcd60e51b815260040180806020018281038252602f8152602001806117c2602f913960400191505060405180910390fd5b600180546001600160a01b0383166001600160a01b0319909116811790915560408051918252517f906a1c6bd7e3091ea86693dd029a831c19049ce77f1dce2ce0bab1cacbabce229181900360200190a150565b6103e96113eb565b506001600160a01b039081166000908152601a6020908152604091829020825160e0810184528154851681526001820154928101929092526002810154928201929092526003820154606082015260048201546080820152600582015460a082015260069091015490911660c082015290565b6006546001600160a01b031633148061047f57506000546001600160a01b031633145b6104a45760405162461bcd60e51b815260040161049b90611601565b60405180910390fd5b600796909655600894909455600992909255600a55600b55600c55600d55565b6001546001600160a01b031681565b601a6020526000908152604090208054600182015460028301546003840154600485015460058601546006909601546001600160a01b03958616969495939492939192911687565b6001546001600160a01b031633146105645760405162461bcd60e51b815260040180806020018281038252603581526020018061178d6035913960400191505060405180910390fd5b600054600154604080516001600160a01b03938416815292909116602083015280517fb532073b38c83145e3e5135377a08bf9aab55bc0fd7c1179cd4fb995d2a5159c9281900390910190a160018054600080546001600160a01b03199081166001600160a01b03841617909155169055565b60145481565b6000546001600160a01b031681565b336000908152601260205260408120548190819081901561063357336000908152601260205260408120805491905560155490945061062b9085610ed0565b601555600191505b336000908152601360205260409020541561067357336000908152601360205260408120805491905560145490935061066c9084610ed0565b6014555060015b811561069057601154610690906001600160a01b03163386610f32565b80156106ad576004546106ad906001600160a01b03163385610f32565b5050915091565b60105460408051634ed9ac1f60e01b815290516000926001600160a01b031691634ed9ac1f916004808301926020929190829003018186803b1580156106f957600080fd5b505afa15801561070d573d6000803e3d6000fd5b505050506040513d601f19601f8201168201806040525081019061073191906114dd565b90506000601060009054906101000a90046001600160a01b03166001600160a01b031663545108636040518163ffffffff1660e01b815260040160206040518083038186803b15801561078357600080fd5b505afa158015610797573d6000803e3d6000fd5b505050506040513d601f19601f820116820180604052508101906107bb91906114dd565b905060006107d7600e54600a0a8761109b90919063ffffffff16565b9050600061080a620f42406108046107fd600b54620f4240610ed090919063ffffffff16565b8a9061109b565b906110fb565b90506000610829610822620f4240610804858861109b565b8390610ed0565b9050600061083e8661080484620f424061109b565b9050826000610854620f4240610804848a61109b565b3360009081526013602052604090205490915081906108739082611162565b336000908152601360205260409020556014546108909082611162565b601455336000908152601260205260409020546108ad9085611162565b336000908152601260205260409020556015546108ca9085611162565b60155533600081815260166020526040908190204390556010549051631211faed60e31b81526001600160a01b039091169163908fd7689161091191908b906004016115a0565b600060405180830381600087803b15801561092b57600080fd5b505af115801561093f573d6000803e3d6000fd5b5050601154604051635a7ab59360e11b81526001600160a01b03909116925063b4f56b26915061097590309088906004016115a0565b600060405180830381600087803b15801561098f57600080fd5b505af11580156109a3573d6000803e3d6000fd5b50505050505050505050505050505050565b6109bd61143a565b5060408051808201909152601b548152601c54602082015290565b60166020526000908152604090205481565b60155481565b60186020526000908152604090205481565b3360009081526017602052604090205460ff16610a315760405162461bcd60e51b815260040161049b9061169e565b33600090815260186020526040902054811115610a605760405162461bcd60e51b815260040161049b90611667565b336000908152601a60209081526040808320600101546019909252909120541115610a9d5760405162461bcd60e51b815260040161049b906116c7565b33600090815260186020526040902054610ab79082610ed0565b33600081815260186020526040902091909155600454610ae3916001600160a01b039091169083610f32565b33600090815260196020526040902054610afd9082611162565b33600090815260196020526040902055601b54610b1a9082611162565b601b5550565b6001600160a01b031660009081526017602052604090205460ff1690565b3360009081526017602052604090205460ff16610b6d5760405162461bcd60e51b815260040161049b9061169e565b6000610b798383611162565b600454909150610b94906001600160a01b03163330846111bc565b33600090815260196020526040902054610bae9084610ed0565b33600090815260196020526040902055601c54610bcb9083611162565b50610c05604051806040016040528060158152602001741d1bdd185b17d89bdc9c9bddd95917d85b5bdd5b9d605a1b815250601b54611318565b601b54610c129084610ed0565b601b5533600090815260196020526040902054610c8957336000908152601760209081526040808320805460ff19169055601a909152812080546001600160a01b03199081168255600182018390556002820183905560038201839055600482018390556005820192909255600601805490911690555b505050565b60196020526000908152604090205481565b6006546001600160a01b0316331480610cc357506000546001600160a01b031633145b610cdf5760405162461bcd60e51b815260040161049b90611601565b6001600160a01b03851660009081526017602052604090205460ff1615610d185760405162461bcd60e51b815260040161049b90611630565b6001600160a01b039485166000818152601760209081526040808320805460ff1916600190811790915560188352818420899055815160e081018352958a16865285830198895285820197885260608601848152608087018881524290980160a0880190815260c08801878152968652601a9094529190932094518554908a166001600160a01b03199182161786559751928501929092559451600284015551600383015591516004820155915160058301555160069091018054919093169116179055565b60176020526000908152604090205460ff1681565b60126020526000908152604090205481565b6000600e54600a0a830290506000819050610e3f620f4240610804610e38600a54620f4240610ed090919063ffffffff16565b849061109b565b905080831115610e4e57600080fd5b600f54610e66906001600160a01b03163330876111bc565b601054604051635a7ab59360e11b81526001600160a01b039091169063b4f56b2690610e9890339085906004016115a0565b600060405180830381600087803b158015610eb257600080fd5b505af1158015610ec6573d6000803e3d6000fd5b5050505050505050565b600082821115610f27576040805162461bcd60e51b815260206004820152601e60248201527f536166654d6174683a207375627472616374696f6e206f766572666c6f770000604482015290519081900360640190fd5b508082035b92915050565b604080516001600160a01b038481166024830152604480830185905283518084039091018152606490920183526020820180516001600160e01b031663a9059cbb60e01b1781529251825160009485949389169392918291908083835b60208310610fae5780518252601f199092019160209182019101610f8f565b6001836020036101000a0380198251168184511680821785525050505050509050019150506000604051808303816000865af19150503d8060008114611010576040519150601f19603f3d011682016040523d82523d6000602084013e611015565b606091505b5091509150818015611043575080511580611043575080806020019051602081101561104057600080fd5b50515b611094576040805162461bcd60e51b815260206004820152601f60248201527f5472616e7366657248656c7065723a205452414e534645525f4641494c454400604482015290519081900360640190fd5b5050505050565b6000826110aa57506000610f2c565b828202828482816110b757fe5b04146110f45760405162461bcd60e51b81526004018080602001828103825260218152602001806117f16021913960400191505060405180910390fd5b9392505050565b6000808211611151576040805162461bcd60e51b815260206004820152601a60248201527f536166654d6174683a206469766973696f6e206279207a65726f000000000000604482015290519081900360640190fd5b81838161115a57fe5b049392505050565b6000828201838110156110f4576040805162461bcd60e51b815260206004820152601b60248201527f536166654d6174683a206164646974696f6e206f766572666c6f770000000000604482015290519081900360640190fd5b604080516001600160a01b0385811660248301528481166044830152606480830185905283518084039091018152608490920183526020820180516001600160e01b03166323b872dd60e01b178152925182516000948594938a169392918291908083835b602083106112405780518252601f199092019160209182019101611221565b6001836020036101000a0380198251168184511680821785525050505050509050019150506000604051808303816000865af19150503d80600081146112a2576040519150601f19603f3d011682016040523d82523d6000602084013e6112a7565b606091505b50915091508180156112d55750805115806112d557508080602001905160208110156112d257600080fd5b50515b6113105760405162461bcd60e51b81526004018080602001828103825260248152602001806118126024913960400191505060405180910390fd5b505050505050565b6113c682826040516024018080602001838152602001828103825284818151815260200191508051906020019080838360005b8381101561136357818101518382015260200161134b565b50505050905090810190601f1680156113905780820380516001836020036101000a031916815260200191505b5060408051601f198184030181529190526020810180516001600160e01b03166309710a9d60e41b17905293506113ca92505050565b5050565b80516a636f6e736f6c652e6c6f67602083016000808483855afa5050505050565b6040518060e0016040528060006001600160a01b03168152602001600081526020016000815260200160008152602001600081526020016000815260200160006001600160a01b031681525090565b604051806040016040528060008152602001600081525090565b600060208284031215611465578081fd5b81356110f481611774565b600080600080600060a08688031215611487578081fd5b853561149281611774565b945060208601359350604086013592506060860135915060808601356114b781611774565b809150509295509295909350565b6000602082840312156114d6578081fd5b5035919050565b6000602082840312156114ee578081fd5b5051919050565b60008060408385031215611507578182fd5b50508035926020909101359150565b60008060006060848603121561152a578283fd5b505081359360208301359350604090920135919050565b600080600080600080600060e0888a03121561155b578182fd5b505085359760208701359750604087013596606081013596506080810135955060a0810135945060c0013592509050565b6001600160a01b0391909116815260200190565b6001600160a01b03929092168252602082015260400190565b901515815260200190565b6001600160a01b039788168152602081019690965260408601949094526060850192909252608084015260a083015290911660c082015260e00190565b6020808252601590820152744e6f74206f776e6572206f722074696d656c6f636b60581b604082015260600190565b60208082526019908201527f416c726561647920417070726f76656420426f72726f77657200000000000000604082015260600190565b60208082526018908201527f4578636565647320626f72726f7720616c6c6f77616e63650000000000000000604082015260600190565b6020808252600f908201526e24b9902737ba102137b93937bbb2b960891b604082015260600190565b60208082526010908201526f105b1c9958591e48109bdc9c9bddd95960821b604082015260600190565b815181526020918201519181019190915260400190565b81516001600160a01b0390811682526020808401519083015260408084015190830152606080840151908301526080808401519083015260a0838101519083015260c092830151169181019190915260e00190565b90815260200190565b918252602082015260400190565b6001600160a01b038116811461178957600080fd5b5056fe596f75206d757374206265206e6f6d696e61746564206265666f726520796f752063616e20616363657074206f776e6572736869704f6e6c792074686520636f6e7472616374206f776e6572206d617920706572666f726d207468697320616374696f6e536166654d6174683a206d756c7469706c69636174696f6e206f766572666c6f775472616e7366657248656c7065723a205452414e534645525f46524f4d5f4641494c4544a2646970667358221220b7d4d54f44634ffbd7e7c885821a01acdecf34cc9e93c14c42959d64f1c411f564736f6c63430007060033",
  "devdoc": {
    "kind": "dev",
    "methods": {},
    "version": 1
  },
  "userdoc": {
    "kind": "user",
    "methods": {},
    "version": 1
  },
  "storageLayout": {
    "storage": [
      {
        "astId": 15273,
        "contract": "contracts/stablecoin/lendingpool.sol:LendingPool",
        "label": "owner",
        "offset": 0,
        "slot": "0",
        "type": "t_address"
      },
      {
        "astId": 15275,
        "contract": "contracts/stablecoin/lendingpool.sol:LendingPool",
        "label": "nominatedOwner",
        "offset": 0,
        "slot": "1",
        "type": "t_address"
      },
      {
        "astId": 14418,
        "contract": "contracts/stablecoin/lendingpool.sol:LendingPool",
        "label": "ds_address",
        "offset": 0,
        "slot": "2",
        "type": "t_address"
      },
      {
        "astId": 14420,
        "contract": "contracts/stablecoin/lendingpool.sol:LendingPool",
        "label": "dss_address",
        "offset": 0,
        "slot": "3",
        "type": "t_address"
      },
      {
        "astId": 14422,
        "contract": "contracts/stablecoin/lendingpool.sol:LendingPool",
        "label": "collateral_address",
        "offset": 0,
        "slot": "4",
        "type": "t_address"
      },
      {
        "astId": 14424,
        "contract": "contracts/stablecoin/lendingpool.sol:LendingPool",
        "label": "creator_address",
        "offset": 0,
        "slot": "5",
        "type": "t_address"
      },
      {
        "astId": 14426,
        "contract": "contracts/stablecoin/lendingpool.sol:LendingPool",
        "label": "timelock_address",
        "offset": 0,
        "slot": "6",
        "type": "t_address"
      },
      {
        "astId": 14428,
        "contract": "contracts/stablecoin/lendingpool.sol:LendingPool",
        "label": "pool_ceiling",
        "offset": 0,
        "slot": "7",
        "type": "t_uint256"
      },
      {
        "astId": 14430,
        "contract": "contracts/stablecoin/lendingpool.sol:LendingPool",
        "label": "bonus_rate",
        "offset": 0,
        "slot": "8",
        "type": "t_uint256"
      },
      {
        "astId": 14432,
        "contract": "contracts/stablecoin/lendingpool.sol:LendingPool",
        "label": "redemption_delay",
        "offset": 0,
        "slot": "9",
        "type": "t_uint256"
      },
      {
        "astId": 14434,
        "contract": "contracts/stablecoin/lendingpool.sol:LendingPool",
        "label": "minting_fee",
        "offset": 0,
        "slot": "10",
        "type": "t_uint256"
      },
      {
        "astId": 14436,
        "contract": "contracts/stablecoin/lendingpool.sol:LendingPool",
        "label": "redemption_fee",
        "offset": 0,
        "slot": "11",
        "type": "t_uint256"
      },
      {
        "astId": 14438,
        "contract": "contracts/stablecoin/lendingpool.sol:LendingPool",
        "label": "buyback_fee",
        "offset": 0,
        "slot": "12",
        "type": "t_uint256"
      },
      {
        "astId": 14440,
        "contract": "contracts/stablecoin/lendingpool.sol:LendingPool",
        "label": "recollat_fee",
        "offset": 0,
        "slot": "13",
        "type": "t_uint256"
      },
      {
        "astId": 14442,
        "contract": "contracts/stablecoin/lendingpool.sol:LendingPool",
        "label": "missing_decimals",
        "offset": 0,
        "slot": "14",
        "type": "t_uint256"
      },
      {
        "astId": 14447,
        "contract": "contracts/stablecoin/lendingpool.sol:LendingPool",
        "label": "collateral_token",
        "offset": 0,
        "slot": "15",
        "type": "t_contract(ERC20)1347"
      },
      {
        "astId": 14449,
        "contract": "contracts/stablecoin/lendingpool.sol:LendingPool",
        "label": "DScontract",
        "offset": 0,
        "slot": "16",
        "type": "t_contract(DS)14070"
      },
      {
        "astId": 14451,
        "contract": "contracts/stablecoin/lendingpool.sol:LendingPool",
        "label": "DSScontract",
        "offset": 0,
        "slot": "17",
        "type": "t_contract(DSS)14222"
      },
      {
        "astId": 14455,
        "contract": "contracts/stablecoin/lendingpool.sol:LendingPool",
        "label": "redeemDSSBalances",
        "offset": 0,
        "slot": "18",
        "type": "t_mapping(t_address,t_uint256)"
      },
      {
        "astId": 14459,
        "contract": "contracts/stablecoin/lendingpool.sol:LendingPool",
        "label": "redeemCollateralBalances",
        "offset": 0,
        "slot": "19",
        "type": "t_mapping(t_address,t_uint256)"
      },
      {
        "astId": 14461,
        "contract": "contracts/stablecoin/lendingpool.sol:LendingPool",
        "label": "unclaimedPoolCollateral",
        "offset": 0,
        "slot": "20",
        "type": "t_uint256"
      },
      {
        "astId": 14463,
        "contract": "contracts/stablecoin/lendingpool.sol:LendingPool",
        "label": "unclaimedPoolDSS",
        "offset": 0,
        "slot": "21",
        "type": "t_uint256"
      },
      {
        "astId": 14467,
        "contract": "contracts/stablecoin/lendingpool.sol:LendingPool",
        "label": "lastRedeemed",
        "offset": 0,
        "slot": "22",
        "type": "t_mapping(t_address,t_uint256)"
      },
      {
        "astId": 14471,
        "contract": "contracts/stablecoin/lendingpool.sol:LendingPool",
        "label": "isBorrower",
        "offset": 0,
        "slot": "23",
        "type": "t_mapping(t_address,t_bool)"
      },
      {
        "astId": 14475,
        "contract": "contracts/stablecoin/lendingpool.sol:LendingPool",
        "label": "borrower_allowance",
        "offset": 0,
        "slot": "24",
        "type": "t_mapping(t_address,t_uint256)"
      },
      {
        "astId": 14479,
        "contract": "contracts/stablecoin/lendingpool.sol:LendingPool",
        "label": "borrower_debt",
        "offset": 0,
        "slot": "25",
        "type": "t_mapping(t_address,t_uint256)"
      },
      {
        "astId": 14483,
        "contract": "contracts/stablecoin/lendingpool.sol:LendingPool",
        "label": "borrower_data",
        "offset": 0,
        "slot": "26",
        "type": "t_mapping(t_address,t_struct(LoanMetadata)14408_storage)"
      },
      {
        "astId": 14485,
        "contract": "contracts/stablecoin/lendingpool.sol:LendingPool",
        "label": "total_borrowed_amount",
        "offset": 0,
        "slot": "27",
        "type": "t_uint256"
      },
      {
        "astId": 14487,
        "contract": "contracts/stablecoin/lendingpool.sol:LendingPool",
        "label": "accrued_interest",
        "offset": 0,
        "slot": "28",
        "type": "t_uint256"
      }
    ],
    "types": {
      "t_address": {
        "encoding": "inplace",
        "label": "address",
        "numberOfBytes": "20"
      },
      "t_bool": {
        "encoding": "inplace",
        "label": "bool",
        "numberOfBytes": "1"
      },
      "t_contract(DS)14070": {
        "encoding": "inplace",
        "label": "contract DS",
        "numberOfBytes": "20"
      },
      "t_contract(DSS)14222": {
        "encoding": "inplace",
        "label": "contract DSS",
        "numberOfBytes": "20"
      },
      "t_contract(ERC20)1347": {
        "encoding": "inplace",
        "label": "contract ERC20",
        "numberOfBytes": "20"
      },
      "t_mapping(t_address,t_bool)": {
        "encoding": "mapping",
        "key": "t_address",
        "label": "mapping(address => bool)",
        "numberOfBytes": "32",
        "value": "t_bool"
      },
      "t_mapping(t_address,t_struct(LoanMetadata)14408_storage)": {
        "encoding": "mapping",
        "key": "t_address",
        "label": "mapping(address => struct LendingPool.LoanMetadata)",
        "numberOfBytes": "32",
        "value": "t_struct(LoanMetadata)14408_storage"
      },
      "t_mapping(t_address,t_uint256)": {
        "encoding": "mapping",
        "key": "t_address",
        "label": "mapping(address => uint256)",
        "numberOfBytes": "32",
        "value": "t_uint256"
      },
      "t_struct(LoanMetadata)14408_storage": {
        "encoding": "inplace",
        "label": "struct LendingPool.LoanMetadata",
        "members": [
          {
            "astId": 14395,
            "contract": "contracts/stablecoin/lendingpool.sol:LendingPool",
            "label": "underlyingToken",
            "offset": 0,
            "slot": "0",
            "type": "t_contract(ERC20)1347"
          },
          {
            "astId": 14397,
            "contract": "contracts/stablecoin/lendingpool.sol:LendingPool",
            "label": "principal",
            "offset": 0,
            "slot": "1",
            "type": "t_uint256"
          },
          {
            "astId": 14399,
            "contract": "contracts/stablecoin/lendingpool.sol:LendingPool",
            "label": "totalDebt",
            "offset": 0,
            "slot": "2",
            "type": "t_uint256"
          },
          {
            "astId": 14401,
            "contract": "contracts/stablecoin/lendingpool.sol:LendingPool",
            "label": "amountRepaid",
            "offset": 0,
            "slot": "3",
            "type": "t_uint256"
          },
          {
            "astId": 14403,
            "contract": "contracts/stablecoin/lendingpool.sol:LendingPool",
            "label": "duration",
            "offset": 0,
            "slot": "4",
            "type": "t_uint256"
          },
          {
            "astId": 14405,
            "contract": "contracts/stablecoin/lendingpool.sol:LendingPool",
            "label": "repaymentDate",
            "offset": 0,
            "slot": "5",
            "type": "t_uint256"
          },
          {
            "astId": 14407,
            "contract": "contracts/stablecoin/lendingpool.sol:LendingPool",
            "label": "recipient",
            "offset": 0,
            "slot": "6",
            "type": "t_address"
          }
        ],
        "numberOfBytes": "224"
      },
      "t_uint256": {
        "encoding": "inplace",
        "label": "uint256",
        "numberOfBytes": "32"
      }
    }
  }
}