{
  "address": "0x8447f8865d84c3DaFa0948645872d7522a7e9Ad7",
  "abi": [
    {
      "inputs": [
        {
          "internalType": "address",
          "name": "_ds_address",
          "type": "address"
        },
        {
          "internalType": "address",
          "name": "_dss_address",
          "type": "address"
        },
        {
          "internalType": "address",
          "name": "_collateral_address",
          "type": "address"
        },
        {
          "internalType": "address",
          "name": "_creator_address",
          "type": "address"
        },
        {
          "internalType": "address",
          "name": "_timelock_address",
          "type": "address"
        }
      ],
      "stateMutability": "nonpayable",
      "type": "constructor"
    },
    {
      "anonymous": false,
      "inputs": [
        {
          "indexed": false,
          "internalType": "address",
          "name": "oldOwner",
          "type": "address"
        },
        {
          "indexed": false,
          "internalType": "address",
          "name": "newOwner",
          "type": "address"
        }
      ],
      "name": "OwnerChanged",
      "type": "event"
    },
    {
      "anonymous": false,
      "inputs": [
        {
          "indexed": false,
          "internalType": "address",
          "name": "newOwner",
          "type": "address"
        }
      ],
      "name": "OwnerNominated",
      "type": "event"
    },
    {
      "inputs": [
        {
          "internalType": "address",
          "name": "borrower_address",
          "type": "address"
        }
      ],
      "name": "_isBorrower",
      "outputs": [
        {
          "internalType": "bool",
          "name": "",
          "type": "bool"
        }
      ],
      "stateMutability": "view",
      "type": "function"
    },
    {
      "inputs": [],
      "name": "acceptOwnership",
      "outputs": [],
      "stateMutability": "nonpayable",
      "type": "function"
    },
    {
      "inputs": [
        {
          "internalType": "address",
          "name": "_recipient",
          "type": "address"
        },
        {
          "internalType": "uint256",
          "name": "_principal",
          "type": "uint256"
        },
        {
          "internalType": "uint256",
          "name": "_totalDebt",
          "type": "uint256"
        },
        {
          "internalType": "uint256",
          "name": "_duration",
          "type": "uint256"
        },
        {
          "internalType": "contract ERC20",
          "name": "_underlyingToken",
          "type": "address"
        }
      ],
      "name": "addBorrower",
      "outputs": [],
      "stateMutability": "nonpayable",
      "type": "function"
    },
    {
      "inputs": [
        {
          "internalType": "address",
          "name": "manager",
          "type": "address"
        }
      ],
      "name": "addManager",
      "outputs": [],
      "stateMutability": "nonpayable",
      "type": "function"
    },
    {
      "inputs": [
        {
          "internalType": "address",
          "name": "validator",
          "type": "address"
        },
        {
          "internalType": "address",
          "name": "manager",
          "type": "address"
        }
      ],
      "name": "addValidator",
      "outputs": [],
      "stateMutability": "nonpayable",
      "type": "function"
    },
    {
      "inputs": [
        {
          "internalType": "address",
          "name": "_recipient",
          "type": "address"
        }
      ],
      "name": "approveBorrower",
      "outputs": [],
      "stateMutability": "nonpayable",
      "type": "function"
    },
    {
      "inputs": [
        {
          "internalType": "uint256",
          "name": "amount",
          "type": "uint256"
        }
      ],
      "name": "borrow",
      "outputs": [],
      "stateMutability": "nonpayable",
      "type": "function"
    },
    {
      "inputs": [
        {
          "internalType": "address",
          "name": "",
          "type": "address"
        }
      ],
      "name": "borrower_allowance",
      "outputs": [
        {
          "internalType": "uint256",
          "name": "",
          "type": "uint256"
        }
      ],
      "stateMutability": "view",
      "type": "function"
    },
    {
      "inputs": [
        {
          "internalType": "address",
          "name": "",
          "type": "address"
        }
      ],
      "name": "borrower_data",
      "outputs": [
        {
          "internalType": "contract ERC20",
          "name": "underlyingToken",
          "type": "address"
        },
        {
          "internalType": "uint256",
          "name": "principal",
          "type": "uint256"
        },
        {
          "internalType": "uint256",
          "name": "totalDebt",
          "type": "uint256"
        },
        {
          "internalType": "uint256",
          "name": "amountRepaid",
          "type": "uint256"
        },
        {
          "internalType": "uint256",
          "name": "duration",
          "type": "uint256"
        },
        {
          "internalType": "uint256",
          "name": "repaymentDate",
          "type": "uint256"
        },
        {
          "internalType": "address",
          "name": "recipient",
          "type": "address"
        }
      ],
      "stateMutability": "view",
      "type": "function"
    },
    {
      "inputs": [
        {
          "internalType": "address",
          "name": "",
          "type": "address"
        }
      ],
      "name": "borrower_debt",
      "outputs": [
        {
          "internalType": "uint256",
          "name": "",
          "type": "uint256"
        }
      ],
      "stateMutability": "view",
      "type": "function"
    },
    {
      "inputs": [
        {
          "internalType": "uint256",
          "name": "col_idx",
          "type": "uint256"
        }
      ],
      "name": "collectRedemption",
      "outputs": [
        {
          "internalType": "uint256",
          "name": "dss_amount",
          "type": "uint256"
        },
        {
          "internalType": "uint256",
          "name": "collateral_amount",
          "type": "uint256"
        }
      ],
      "stateMutability": "nonpayable",
      "type": "function"
    },
    {
      "inputs": [
        {
          "internalType": "address",
          "name": "borrower_address",
          "type": "address"
        }
      ],
      "name": "getBorrowerData",
      "outputs": [
        {
          "components": [
            {
              "internalType": "contract ERC20",
              "name": "underlyingToken",
              "type": "address"
            },
            {
              "internalType": "uint256",
              "name": "principal",
              "type": "uint256"
            },
            {
              "internalType": "uint256",
              "name": "totalDebt",
              "type": "uint256"
            },
            {
              "internalType": "uint256",
              "name": "amountRepaid",
              "type": "uint256"
            },
            {
              "internalType": "uint256",
              "name": "duration",
              "type": "uint256"
            },
            {
              "internalType": "uint256",
              "name": "repaymentDate",
              "type": "uint256"
            },
            {
              "internalType": "address",
              "name": "recipient",
              "type": "address"
            }
          ],
          "internalType": "struct LendingPool.LoanMetadata",
          "name": "",
          "type": "tuple"
        }
      ],
      "stateMutability": "view",
      "type": "function"
    },
    {
      "inputs": [
        {
          "internalType": "address",
          "name": "addr",
          "type": "address"
        }
      ],
      "name": "getRegistrationStatus",
      "outputs": [
        {
          "internalType": "bool",
          "name": "",
          "type": "bool"
        }
      ],
      "stateMutability": "view",
      "type": "function"
    },
    {
      "inputs": [],
      "name": "get_loan_data",
      "outputs": [
        {
          "components": [
            {
              "internalType": "uint256",
              "name": "_total_borrowed_amount",
              "type": "uint256"
            },
            {
              "internalType": "uint256",
              "name": "_accrued_interest",
              "type": "uint256"
            }
          ],
          "internalType": "struct LendingPool.LoanData",
          "name": "",
          "type": "tuple"
        }
      ],
      "stateMutability": "view",
      "type": "function"
    },
    {
      "inputs": [
        {
          "internalType": "address",
          "name": "",
          "type": "address"
        }
      ],
      "name": "isBorrower",
      "outputs": [
        {
          "internalType": "bool",
          "name": "",
          "type": "bool"
        }
      ],
      "stateMutability": "view",
      "type": "function"
    },
    {
      "inputs": [
        {
          "internalType": "address",
          "name": "",
          "type": "address"
        }
      ],
      "name": "isManager",
      "outputs": [
        {
          "internalType": "bool",
          "name": "",
          "type": "bool"
        }
      ],
      "stateMutability": "view",
      "type": "function"
    },
    {
      "inputs": [
        {
          "internalType": "address",
          "name": "",
          "type": "address"
        }
      ],
      "name": "isRegistered",
      "outputs": [
        {
          "internalType": "bool",
          "name": "",
          "type": "bool"
        }
      ],
      "stateMutability": "view",
      "type": "function"
    },
    {
      "inputs": [
        {
          "internalType": "address",
          "name": "",
          "type": "address"
        }
      ],
      "name": "lastRedeemed",
      "outputs": [
        {
          "internalType": "uint256",
          "name": "",
          "type": "uint256"
        }
      ],
      "stateMutability": "view",
      "type": "function"
    },
    {
      "inputs": [
        {
          "internalType": "uint256",
          "name": "amount",
          "type": "uint256"
        }
      ],
      "name": "managerBurnDS",
      "outputs": [],
      "stateMutability": "nonpayable",
      "type": "function"
    },
    {
      "inputs": [
        {
          "internalType": "uint256",
          "name": "amount",
          "type": "uint256"
        }
      ],
      "name": "managerMintDS",
      "outputs": [],
      "stateMutability": "nonpayable",
      "type": "function"
    },
    {
      "inputs": [
        {
          "internalType": "uint256",
          "name": "collateral_amount",
          "type": "uint256"
        },
        {
          "internalType": "uint256",
          "name": "DS_out_min",
          "type": "uint256"
        }
      ],
      "name": "mintDS",
      "outputs": [],
      "stateMutability": "nonpayable",
      "type": "function"
    },
    {
      "inputs": [
        {
          "internalType": "address",
          "name": "_owner",
          "type": "address"
        }
      ],
      "name": "nominateNewOwner",
      "outputs": [],
      "stateMutability": "nonpayable",
      "type": "function"
    },
    {
      "inputs": [],
      "name": "nominatedOwner",
      "outputs": [
        {
          "internalType": "address",
          "name": "",
          "type": "address"
        }
      ],
      "stateMutability": "view",
      "type": "function"
    },
    {
      "inputs": [],
      "name": "owner",
      "outputs": [
        {
          "internalType": "address",
          "name": "",
          "type": "address"
        }
      ],
      "stateMutability": "view",
      "type": "function"
    },
    {
      "inputs": [],
      "name": "proposal_fee",
      "outputs": [
        {
          "internalType": "uint256",
          "name": "",
          "type": "uint256"
        }
      ],
      "stateMutability": "view",
      "type": "function"
    },
    {
      "inputs": [
        {
          "internalType": "address",
          "name": "",
          "type": "address"
        }
      ],
      "name": "redeemCollateralBalances",
      "outputs": [
        {
          "internalType": "uint256",
          "name": "",
          "type": "uint256"
        }
      ],
      "stateMutability": "view",
      "type": "function"
    },
    {
      "inputs": [
        {
          "internalType": "uint256",
          "name": "DS_amount",
          "type": "uint256"
        },
        {
          "internalType": "uint256",
          "name": "DSS_out_min",
          "type": "uint256"
        },
        {
          "internalType": "uint256",
          "name": "COLLATERAL_out_min",
          "type": "uint256"
        }
      ],
      "name": "redeemDS",
      "outputs": [],
      "stateMutability": "nonpayable",
      "type": "function"
    },
    {
      "inputs": [
        {
          "internalType": "address",
          "name": "",
          "type": "address"
        }
      ],
      "name": "redeemDSSBalances",
      "outputs": [
        {
          "internalType": "uint256",
          "name": "",
          "type": "uint256"
        }
      ],
      "stateMutability": "view",
      "type": "function"
    },
    {
      "inputs": [],
      "name": "registerBorrower",
      "outputs": [],
      "stateMutability": "nonpayable",
      "type": "function"
    },
    {
      "inputs": [
        {
          "internalType": "uint256",
          "name": "repay_principal",
          "type": "uint256"
        },
        {
          "internalType": "uint256",
          "name": "repay_interest",
          "type": "uint256"
        }
      ],
      "name": "repay",
      "outputs": [],
      "stateMutability": "nonpayable",
      "type": "function"
    },
    {
      "inputs": [
        {
          "internalType": "uint256",
          "name": "new_ceiling",
          "type": "uint256"
        },
        {
          "internalType": "uint256",
          "name": "new_bonus_rate",
          "type": "uint256"
        },
        {
          "internalType": "uint256",
          "name": "new_redemption_delay",
          "type": "uint256"
        },
        {
          "internalType": "uint256",
          "name": "new_mint_fee",
          "type": "uint256"
        },
        {
          "internalType": "uint256",
          "name": "new_redeem_fee",
          "type": "uint256"
        },
        {
          "internalType": "uint256",
          "name": "new_buyback_fee",
          "type": "uint256"
        },
        {
          "internalType": "uint256",
          "name": "new_recollat_fee",
          "type": "uint256"
        }
      ],
      "name": "setPoolParameters",
      "outputs": [],
      "stateMutability": "nonpayable",
      "type": "function"
    },
    {
      "inputs": [
        {
          "internalType": "address",
          "name": "_recipient",
          "type": "address"
        },
        {
          "internalType": "uint256",
          "name": "_principal",
          "type": "uint256"
        },
        {
          "internalType": "uint256",
          "name": "_totalDebt",
          "type": "uint256"
        },
        {
          "internalType": "uint256",
          "name": "_duration",
          "type": "uint256"
        },
        {
          "internalType": "contract ERC20",
          "name": "_underlyingToken",
          "type": "address"
        }
      ],
      "name": "submitProposal",
      "outputs": [],
      "stateMutability": "nonpayable",
      "type": "function"
    },
    {
      "inputs": [],
      "name": "unclaimedPoolCollateral",
      "outputs": [
        {
          "internalType": "uint256",
          "name": "",
          "type": "uint256"
        }
      ],
      "stateMutability": "view",
      "type": "function"
    },
    {
      "inputs": [],
      "name": "unclaimedPoolDSS",
      "outputs": [
        {
          "internalType": "uint256",
          "name": "",
          "type": "uint256"
        }
      ],
      "stateMutability": "view",
      "type": "function"
    }
  ],
  "transactionHash": "0x07946ac7dba6c5ea76652b7c008b39de113b51f05724bb5726598e919373849b",
  "args": [
    "0x970C0f56f0755B2CC3DEeBA00e9e8aE5138d9fBC",
    "0xd2B269F5a37B70ce7ab098BaeeCCB7A0740B7f8B",
    "0x5799bFe361BEea69f808328FF4884DF92f1f66f0",
    "0xFD84b7AC1E646580db8c77f1f05F47977fAda692",
    "0xFD84b7AC1E646580db8c77f1f05F47977fAda692"
  ],
  "solcInputHash": "85fbd2e79774b1ef389725d58cd99c0a",
  "bytecode": "0x60a06040523480156200001157600080fd5b50604051620022c9380380620022c983398101604081905262000034916200022d565b816001600160a01b03811662000091576040805162461bcd60e51b815260206004820152601960248201527f4f776e657220616464726573732063616e6e6f74206265203000000000000000604482015290519081900360640190fd5b600080546001600160a01b0319166001600160a01b038316908117825560408051928352602083019190915280517fb532073b38c83145e3e5135377a08bf9aab55bc0fd7c1179cd4fb995d2a5159c9281900390910190a1506001600160a01b038516158015906200010b57506001600160a01b03841615155b80156200012057506001600160a01b03831615155b80156200013557506001600160a01b03821615155b80156200014a57506001600160a01b03811615155b620001725760405162461bcd60e51b815260040162000169906200029c565b60405180910390fd5b601080546001600160a01b039687166001600160a01b0319918216811790925560118054968816968216871790556002805482169092179091556003805482169095179094556004805460058054948816948716949094179093556006805492871692861692909217909155919093169282168317821683179055600f805490911690911790556000600e55678ac7230489e80000608052620002d3565b80516001600160a01b03811681146200022857600080fd5b919050565b600080600080600060a0868803121562000245578081fd5b620002508662000210565b9450620002606020870162000210565b9350620002706040870162000210565b9250620002806060870162000210565b9150620002906080870162000210565b90509295509295909350565b60208082526015908201527f5a65726f20616464726573732064657465637465640000000000000000000000604082015260600190565b608051611fd6620002f36000398061077b52806114125250611fd66000f3fe608060405234801561001057600080fd5b50600436106102065760003560e01c8063aa2299ae1161011a578063cffafc4c116100ad578063e831878d1161007c578063e831878d14610452578063eaf6e4831461045a578063f3ae24151461046d578063f43038c514610480578063f57e3fa51461049357610206565b8063cffafc4c14610406578063d8aed14514610419578063e6c439111461042c578063e705b2631461043f57610206565b8063bcecd40f116100e9578063bcecd40f146103c5578063c1c76de8146103cd578063c3c5a547146103e0578063c5ebeaec146103f357610206565b8063aa2299ae14610379578063abae2c4c1461038c578063ae4c01701461039f578063b1819c2b146103b257610206565b806373431b5e1161019d5780639a4719201161016c5780639a471920146102fd5780639d202bf8146103105780639f59ae4d14610331578063a2abb4ea14610344578063a8af4ff51461035957610206565b806373431b5e146102bf57806379ba5097146102e55780637b0461e9146102ed5780638da5cb5b146102f557610206565b80634a0e542c116101d95780634a0e542c1461026f5780634ebbe7621461028f57806353a47bb7146102a25780636cedcceb146102b757610206565b806308a7493d1461020b5780631627540c146102345780632d06177a146102495780633fec5c241461025c575b600080fd5b61021e610219366004611ace565b6104a6565b60405161022b9190611ec8565b60405180910390f35b610247610242366004611ace565b6104b8565b005b610247610257366004611ace565b610555565b61024761026a366004611b77565b6105fa565b61028261027d366004611ace565b610690565b60405161022b9190611e73565b61024761029d366004611bf3565b61070b565b6102aa61076a565b60405161022b9190611c3e565b61021e610779565b6102d26102cd366004611ace565b61079d565b60405161022b9796959493929190611c76565b6102476107e5565b61021e6108a1565b6102aa6108a7565b61024761030b366004611ace565b6108b6565b61032361031e366004611b77565b61098d565b60405161022b929190611ed1565b61024761033f366004611bc8565b610a55565b61034c610d56565b60405161022b9190611e5c565b61036c610367366004611ace565b610d79565b60405161022b9190611c6b565b610247610387366004611b22565b610d97565b61021e61039a366004611ace565b610ec0565b6102476103ad366004611b77565b610ed2565b6102476103c0366004611aea565b610f33565b61021e610f95565b61021e6103db366004611ace565b610f9b565b61036c6103ee366004611ace565b610fad565b610247610401366004611b77565b610fc2565b61036c610414366004611ace565b611110565b610247610427366004611ba7565b61112e565b61021e61043a366004611ace565b61127e565b61024761044d366004611b22565b611290565b6102476113ce565b61036c610468366004611ace565b611452565b61036c61047b366004611ace565b611467565b61021e61048e366004611ace565b61147c565b6102476104a1366004611ba7565b61148e565b60136020526000908152604090205481565b6000546001600160a01b031633146105015760405162461bcd60e51b815260040180806020018281038252602f815260200180611f2d602f913960400191505060405180910390fd5b600180546001600160a01b0383166001600160a01b0319909116811790915560408051918252517f906a1c6bd7e3091ea86693dd029a831c19049ce77f1dce2ce0bab1cacbabce229181900360200190a150565b6006546001600160a01b031633148061057857506000546001600160a01b031633145b61059d5760405162461bcd60e51b815260040161059490611cdb565b60405180910390fd5b6001600160a01b0381166000908152601e602052604090205460ff16156105d65760405162461bcd60e51b815260040161059490611d78565b6001600160a01b03166000908152601e60205260409020805460ff19166001179055565b336000908152601e602052604090205460ff166106295760405162461bcd60e51b815260040161059490611cb3565b601054604051635a7ab59360e11b81526001600160a01b039091169063b4f56b269061065b9033908590600401611c52565b600060405180830381600087803b15801561067557600080fd5b505af1158015610689573d6000803e3d6000fd5b5050505050565b610698611a65565b506001600160a01b039081166000908152601b6020908152604091829020825160e0810184528154851681526001820154928101929092526002810154928201929092526003820154606082015260048201546080820152600582015460a082015260069091015490911660c082015290565b6006546001600160a01b031633148061072e57506000546001600160a01b031633145b61074a5760405162461bcd60e51b815260040161059490611cdb565b600796909655600894909455600992909255600a55600b55600c55600d55565b6001546001600160a01b031681565b7f000000000000000000000000000000000000000000000000000000000000000081565b601b6020526000908152604090208054600182015460028301546003840154600485015460058601546006909601546001600160a01b03958616969495939492939192911687565b6001546001600160a01b0316331461082e5760405162461bcd60e51b8152600401808060200182810382526035815260200180611ef86035913960400191505060405180910390fd5b600054600154604080516001600160a01b03938416815292909116602083015280517fb532073b38c83145e3e5135377a08bf9aab55bc0fd7c1179cd4fb995d2a5159c9281900390910190a160018054600080546001600160a01b03199081166001600160a01b03841617909155169055565b60145481565b6000546001600160a01b031681565b6006546001600160a01b03163314806108d957506000546001600160a01b031633145b6108f55760405162461bcd60e51b815260040161059490611cdb565b6001600160a01b038116600090815260186020526040902054819060ff1661092f5760405162461bcd60e51b815260040161059490611da7565b6001600160a01b03821660009081526017602052604090205460ff16156109685760405162461bcd60e51b815260040161059490611d41565b506001600160a01b03166000908152601760205260409020805460ff19166001179055565b33600090815260126020526040812054819081908190156109d45733600090815260126020526040812080549190556015549094506109cc9085611559565b601555600191505b3360009081526013602052604090205415610a14573360009081526013602052604081208054919055601454909350610a0d9084611559565b6014555060015b8115610a3157601154610a31906001600160a01b031633866115bb565b8015610a4e57600454610a4e906001600160a01b031633856115bb565b5050915091565b60105460408051634ed9ac1f60e01b815290516000926001600160a01b031691634ed9ac1f916004808301926020929190829003018186803b158015610a9a57600080fd5b505afa158015610aae573d6000803e3d6000fd5b505050506040513d601f19601f82011682018060405250810190610ad29190611b8f565b90506000601060009054906101000a90046001600160a01b03166001600160a01b031663545108636040518163ffffffff1660e01b815260040160206040518083038186803b158015610b2457600080fd5b505afa158015610b38573d6000803e3d6000fd5b505050506040513d601f19601f82011682018060405250810190610b5c9190611b8f565b90506000610b78600e54600a0a8761171d90919063ffffffff16565b90506000610bab620f4240610ba5610b9e600b54620f424061155990919063ffffffff16565b8a9061171d565b9061177d565b90506000610bca610bc3620f4240610ba5858861171d565b8390611559565b90506000610bdf86610ba584620f424061171d565b9050826000610bf5620f4240610ba5848a61171d565b336000908152601360205260409020549091508190610c1490826117e4565b33600090815260136020526040902055601454610c3190826117e4565b60145533600090815260126020526040902054610c4e90856117e4565b33600090815260126020526040902055601554610c6b90856117e4565b60155533600081815260166020526040908190204390556010549051631211faed60e31b81526001600160a01b039091169163908fd76891610cb291908b90600401611c52565b600060405180830381600087803b158015610ccc57600080fd5b505af1158015610ce0573d6000803e3d6000fd5b5050601154604051635a7ab59360e11b81526001600160a01b03909116925063b4f56b269150610d169030908890600401611c52565b600060405180830381600087803b158015610d3057600080fd5b505af1158015610d44573d6000803e3d6000fd5b50505050505050505050505050505050565b610d5e611ab4565b5060408051808201909152601c548152601d54602082015290565b6001600160a01b031660009081526018602052604090205460ff1690565b6001600160a01b038516600090815260186020526040902054859060ff16610dd15760405162461bcd60e51b815260040161059490611da7565b6001600160a01b03861660009081526017602052604090205460ff1615610e0a5760405162461bcd60e51b815260040161059490611d41565b6001600160a01b038616610e1d57600080fd5b506040805160e0810182526001600160a01b0392831681526020808201968752818301958652600060608301818152608084018781524290970160a0850190815299861660c08501818152908352601b909352939020915182549085166001600160a01b03199182161783559651600183015594516002820155905160038201559151600483015593516005820155905160069091018054919093169116179055565b60166020526000908152604090205481565b336000908152601e602052604090205460ff16610f015760405162461bcd60e51b815260040161059490611cb3565b601054604051631211faed60e31b81526001600160a01b039091169063908fd7689061065b9033908590600401611c52565b604051632691c64760e11b81526001600160a01b03821690634d238c8e90610f5f908590600401611c3e565b600060405180830381600087803b158015610f7957600080fd5b505af1158015610f8d573d6000803e3d6000fd5b505050505050565b60155481565b60196020526000908152604090205481565b60186020526000908152604090205460ff1681565b3360009081526017602052604090205460ff16610ff15760405162461bcd60e51b815260040161059490611e09565b3360008181526018602052604090205460ff166110205760405162461bcd60e51b815260040161059490611da7565b3360009081526019602052604090205482111561104f5760405162461bcd60e51b815260040161059490611dd2565b336000908152601b6020908152604080832060010154601a90925290912054111561108c5760405162461bcd60e51b815260040161059490611e32565b336000908152601960205260409020546110a69083611559565b336000818152601960205260409020919091556004546110d2916001600160a01b0390911690846115bb565b336000908152601a60205260409020546110ec90836117e4565b336000908152601a6020526040902055601c5461110990836117e4565b601c555050565b6001600160a01b031660009081526017602052604090205460ff1690565b3360009081526017602052604090205460ff1661115d5760405162461bcd60e51b815260040161059490611e09565b600061116983836117e4565b600454909150611184906001600160a01b031633308461183e565b336000908152601a602052604090205461119e9084611559565b336000908152601a6020526040902055601d546111bb90836117e4565b506111f5604051806040016040528060158152602001741d1bdd185b17d89bdc9c9bddd95917d85b5bdd5b9d605a1b815250601c54611992565b601c546112029084611559565b601c55336000908152601a602052604090205461127957336000908152601760209081526040808320805460ff19169055601b909152812080546001600160a01b03199081168255600182018390556002820183905560038201839055600482018390556005820192909255600601805490911690555b505050565b601a6020526000908152604090205481565b6006546001600160a01b03163314806112b357506000546001600160a01b031633145b6112cf5760405162461bcd60e51b815260040161059490611cdb565b6001600160a01b03851660009081526017602052604090205460ff16156113085760405162461bcd60e51b815260040161059490611d41565b6001600160a01b039485166000818152601760209081526040808320805460ff1916600190811790915560198352818420899055815160e081018352958a16865285830198895285820197885260608601848152608087018881524290980160a0880190815260c08801878152968652601b9094529190932094518554908a166001600160a01b03199182161786559751928501929092559451600284015551600383015591516004820155915160058301555160069091018054919093169116179055565b3360009081526018602052604090205460ff16156113fe5760405162461bcd60e51b815260040161059490611d0a565b600f54611436906001600160a01b031633307f000000000000000000000000000000000000000000000000000000000000000061183e565b336000908152601860205260409020805460ff19166001179055565b60176020526000908152604090205460ff1681565b601e6020526000908152604090205460ff1681565b60126020526000908152604090205481565b6000600e54600a0a8302905060008190506114c8620f4240610ba56114c1600a54620f424061155990919063ffffffff16565b849061171d565b9050808311156114d757600080fd5b600f546114ef906001600160a01b031633308761183e565b601054604051635a7ab59360e11b81526001600160a01b039091169063b4f56b26906115219033908590600401611c52565b600060405180830381600087803b15801561153b57600080fd5b505af115801561154f573d6000803e3d6000fd5b5050505050505050565b6000828211156115b0576040805162461bcd60e51b815260206004820152601e60248201527f536166654d6174683a207375627472616374696f6e206f766572666c6f770000604482015290519081900360640190fd5b508082035b92915050565b604080516001600160a01b038481166024830152604480830185905283518084039091018152606490920183526020820180516001600160e01b031663a9059cbb60e01b1781529251825160009485949389169392918291908083835b602083106116375780518252601f199092019160209182019101611618565b6001836020036101000a0380198251168184511680821785525050505050509050019150506000604051808303816000865af19150503d8060008114611699576040519150601f19603f3d011682016040523d82523d6000602084013e61169e565b606091505b50915091508180156116cc5750805115806116cc57508080602001905160208110156116c957600080fd5b50515b610689576040805162461bcd60e51b815260206004820152601f60248201527f5472616e7366657248656c7065723a205452414e534645525f4641494c454400604482015290519081900360640190fd5b60008261172c575060006115b5565b8282028284828161173957fe5b04146117765760405162461bcd60e51b8152600401808060200182810382526021815260200180611f5c6021913960400191505060405180910390fd5b9392505050565b60008082116117d3576040805162461bcd60e51b815260206004820152601a60248201527f536166654d6174683a206469766973696f6e206279207a65726f000000000000604482015290519081900360640190fd5b8183816117dc57fe5b049392505050565b600082820183811015611776576040805162461bcd60e51b815260206004820152601b60248201527f536166654d6174683a206164646974696f6e206f766572666c6f770000000000604482015290519081900360640190fd5b604080516001600160a01b0385811660248301528481166044830152606480830185905283518084039091018152608490920183526020820180516001600160e01b03166323b872dd60e01b178152925182516000948594938a169392918291908083835b602083106118c25780518252601f1990920191602091820191016118a3565b6001836020036101000a0380198251168184511680821785525050505050509050019150506000604051808303816000865af19150503d8060008114611924576040519150601f19603f3d011682016040523d82523d6000602084013e611929565b606091505b5091509150818015611957575080511580611957575080806020019051602081101561195457600080fd5b50515b610f8d5760405162461bcd60e51b8152600401808060200182810382526024815260200180611f7d6024913960400191505060405180910390fd5b611a4082826040516024018080602001838152602001828103825284818151815260200191508051906020019080838360005b838110156119dd5781810151838201526020016119c5565b50505050905090810190601f168015611a0a5780820380516001836020036101000a031916815260200191505b5060408051601f198184030181529190526020810180516001600160e01b03166309710a9d60e41b1790529350611a4492505050565b5050565b80516a636f6e736f6c652e6c6f67602083016000808483855afa5050505050565b6040518060e0016040528060006001600160a01b03168152602001600081526020016000815260200160008152602001600081526020016000815260200160006001600160a01b031681525090565b604051806040016040528060008152602001600081525090565b600060208284031215611adf578081fd5b813561177681611edf565b60008060408385031215611afc578081fd5b8235611b0781611edf565b91506020830135611b1781611edf565b809150509250929050565b600080600080600060a08688031215611b39578081fd5b8535611b4481611edf565b94506020860135935060408601359250606086013591506080860135611b6981611edf565b809150509295509295909350565b600060208284031215611b88578081fd5b5035919050565b600060208284031215611ba0578081fd5b5051919050565b60008060408385031215611bb9578182fd5b50508035926020909101359150565b600080600060608486031215611bdc578283fd5b505081359360208301359350604090920135919050565b600080600080600080600060e0888a031215611c0d578182fd5b505085359760208701359750604087013596606081013596506080810135955060a0810135945060c0013592509050565b6001600160a01b0391909116815260200190565b6001600160a01b03929092168252602082015260400190565b901515815260200190565b6001600160a01b039788168152602081019690965260408601949094526060850192909252608084015260a083015290911660c082015260e00190565b6020808252600e908201526d24b9902737ba1026b0b730b3b2b960911b604082015260600190565b6020808252601590820152744e6f74206f776e6572206f722074696d656c6f636b60581b604082015260600190565b60208082526019908201527f616c726561647920706169642070726f706f73616c2066656500000000000000604082015260600190565b60208082526019908201527f416c726561647920417070726f76656420426f72726f77657200000000000000604082015260600190565b60208082526015908201527413585b9859d95c88185b1c9958591e481859191959605a1b604082015260600190565b6020808252601190820152701a5cc81b9bdd081c9959da5cdd195c9959607a1b604082015260600190565b60208082526018908201527f4578636565647320626f72726f7720616c6c6f77616e63650000000000000000604082015260600190565b6020808252600f908201526e24b9902737ba102137b93937bbb2b960891b604082015260600190565b60208082526010908201526f105b1c9958591e48109bdc9c9bddd95960821b604082015260600190565b815181526020918201519181019190915260400190565b81516001600160a01b0390811682526020808401519083015260408084015190830152606080840151908301526080808401519083015260a0838101519083015260c092830151169181019190915260e00190565b90815260200190565b918252602082015260400190565b6001600160a01b0381168114611ef457600080fd5b5056fe596f75206d757374206265206e6f6d696e61746564206265666f726520796f752063616e20616363657074206f776e6572736869704f6e6c792074686520636f6e7472616374206f776e6572206d617920706572666f726d207468697320616374696f6e536166654d6174683a206d756c7469706c69636174696f6e206f766572666c6f775472616e7366657248656c7065723a205452414e534645525f46524f4d5f4641494c4544a2646970667358221220cfbe3e806895a6bec44d13fbe9b9e4327b06483dfd4665ea94d3352030f9529564736f6c63430007060033",
  "devdoc": {
    "kind": "dev",
    "methods": {},
    "version": 1
  },
  "userdoc": {
    "kind": "user",
    "methods": {},
    "version": 1
  },
  "storageLayout": {
    "storage": [
      {
        "astId": 18512,
        "contract": "contracts/stablecoin/lendingpool.sol:LendingPool",
        "label": "owner",
        "offset": 0,
        "slot": "0",
        "type": "t_address"
      },
      {
        "astId": 18514,
        "contract": "contracts/stablecoin/lendingpool.sol:LendingPool",
        "label": "nominatedOwner",
        "offset": 0,
        "slot": "1",
        "type": "t_address"
      },
      {
        "astId": 17005,
        "contract": "contracts/stablecoin/lendingpool.sol:LendingPool",
        "label": "ds_address",
        "offset": 0,
        "slot": "2",
        "type": "t_address"
      },
      {
        "astId": 17007,
        "contract": "contracts/stablecoin/lendingpool.sol:LendingPool",
        "label": "dss_address",
        "offset": 0,
        "slot": "3",
        "type": "t_address"
      },
      {
        "astId": 17009,
        "contract": "contracts/stablecoin/lendingpool.sol:LendingPool",
        "label": "collateral_address",
        "offset": 0,
        "slot": "4",
        "type": "t_address"
      },
      {
        "astId": 17011,
        "contract": "contracts/stablecoin/lendingpool.sol:LendingPool",
        "label": "creator_address",
        "offset": 0,
        "slot": "5",
        "type": "t_address"
      },
      {
        "astId": 17013,
        "contract": "contracts/stablecoin/lendingpool.sol:LendingPool",
        "label": "timelock_address",
        "offset": 0,
        "slot": "6",
        "type": "t_address"
      },
      {
        "astId": 17015,
        "contract": "contracts/stablecoin/lendingpool.sol:LendingPool",
        "label": "pool_ceiling",
        "offset": 0,
        "slot": "7",
        "type": "t_uint256"
      },
      {
        "astId": 17017,
        "contract": "contracts/stablecoin/lendingpool.sol:LendingPool",
        "label": "bonus_rate",
        "offset": 0,
        "slot": "8",
        "type": "t_uint256"
      },
      {
        "astId": 17019,
        "contract": "contracts/stablecoin/lendingpool.sol:LendingPool",
        "label": "redemption_delay",
        "offset": 0,
        "slot": "9",
        "type": "t_uint256"
      },
      {
        "astId": 17021,
        "contract": "contracts/stablecoin/lendingpool.sol:LendingPool",
        "label": "minting_fee",
        "offset": 0,
        "slot": "10",
        "type": "t_uint256"
      },
      {
        "astId": 17023,
        "contract": "contracts/stablecoin/lendingpool.sol:LendingPool",
        "label": "redemption_fee",
        "offset": 0,
        "slot": "11",
        "type": "t_uint256"
      },
      {
        "astId": 17025,
        "contract": "contracts/stablecoin/lendingpool.sol:LendingPool",
        "label": "buyback_fee",
        "offset": 0,
        "slot": "12",
        "type": "t_uint256"
      },
      {
        "astId": 17027,
        "contract": "contracts/stablecoin/lendingpool.sol:LendingPool",
        "label": "recollat_fee",
        "offset": 0,
        "slot": "13",
        "type": "t_uint256"
      },
      {
        "astId": 17029,
        "contract": "contracts/stablecoin/lendingpool.sol:LendingPool",
        "label": "missing_decimals",
        "offset": 0,
        "slot": "14",
        "type": "t_uint256"
      },
      {
        "astId": 17034,
        "contract": "contracts/stablecoin/lendingpool.sol:LendingPool",
        "label": "collateral_token",
        "offset": 0,
        "slot": "15",
        "type": "t_contract(ERC20)5733"
      },
      {
        "astId": 17036,
        "contract": "contracts/stablecoin/lendingpool.sol:LendingPool",
        "label": "DScontract",
        "offset": 0,
        "slot": "16",
        "type": "t_contract(DS)16527"
      },
      {
        "astId": 17038,
        "contract": "contracts/stablecoin/lendingpool.sol:LendingPool",
        "label": "DSScontract",
        "offset": 0,
        "slot": "17",
        "type": "t_contract(DSS)16702"
      },
      {
        "astId": 17042,
        "contract": "contracts/stablecoin/lendingpool.sol:LendingPool",
        "label": "redeemDSSBalances",
        "offset": 0,
        "slot": "18",
        "type": "t_mapping(t_address,t_uint256)"
      },
      {
        "astId": 17046,
        "contract": "contracts/stablecoin/lendingpool.sol:LendingPool",
        "label": "redeemCollateralBalances",
        "offset": 0,
        "slot": "19",
        "type": "t_mapping(t_address,t_uint256)"
      },
      {
        "astId": 17048,
        "contract": "contracts/stablecoin/lendingpool.sol:LendingPool",
        "label": "unclaimedPoolCollateral",
        "offset": 0,
        "slot": "20",
        "type": "t_uint256"
      },
      {
        "astId": 17050,
        "contract": "contracts/stablecoin/lendingpool.sol:LendingPool",
        "label": "unclaimedPoolDSS",
        "offset": 0,
        "slot": "21",
        "type": "t_uint256"
      },
      {
        "astId": 17054,
        "contract": "contracts/stablecoin/lendingpool.sol:LendingPool",
        "label": "lastRedeemed",
        "offset": 0,
        "slot": "22",
        "type": "t_mapping(t_address,t_uint256)"
      },
      {
        "astId": 17058,
        "contract": "contracts/stablecoin/lendingpool.sol:LendingPool",
        "label": "isBorrower",
        "offset": 0,
        "slot": "23",
        "type": "t_mapping(t_address,t_bool)"
      },
      {
        "astId": 17062,
        "contract": "contracts/stablecoin/lendingpool.sol:LendingPool",
        "label": "isRegistered",
        "offset": 0,
        "slot": "24",
        "type": "t_mapping(t_address,t_bool)"
      },
      {
        "astId": 17066,
        "contract": "contracts/stablecoin/lendingpool.sol:LendingPool",
        "label": "borrower_allowance",
        "offset": 0,
        "slot": "25",
        "type": "t_mapping(t_address,t_uint256)"
      },
      {
        "astId": 17070,
        "contract": "contracts/stablecoin/lendingpool.sol:LendingPool",
        "label": "borrower_debt",
        "offset": 0,
        "slot": "26",
        "type": "t_mapping(t_address,t_uint256)"
      },
      {
        "astId": 17074,
        "contract": "contracts/stablecoin/lendingpool.sol:LendingPool",
        "label": "borrower_data",
        "offset": 0,
        "slot": "27",
        "type": "t_mapping(t_address,t_struct(LoanMetadata)16995_storage)"
      },
      {
        "astId": 17076,
        "contract": "contracts/stablecoin/lendingpool.sol:LendingPool",
        "label": "total_borrowed_amount",
        "offset": 0,
        "slot": "28",
        "type": "t_uint256"
      },
      {
        "astId": 17080,
        "contract": "contracts/stablecoin/lendingpool.sol:LendingPool",
        "label": "accrued_interest",
        "offset": 0,
        "slot": "29",
        "type": "t_uint256"
      },
      {
        "astId": 17084,
        "contract": "contracts/stablecoin/lendingpool.sol:LendingPool",
        "label": "isManager",
        "offset": 0,
        "slot": "30",
        "type": "t_mapping(t_address,t_bool)"
      }
    ],
    "types": {
      "t_address": {
        "encoding": "inplace",
        "label": "address",
        "numberOfBytes": "20"
      },
      "t_bool": {
        "encoding": "inplace",
        "label": "bool",
        "numberOfBytes": "1"
      },
      "t_contract(DS)16527": {
        "encoding": "inplace",
        "label": "contract DS",
        "numberOfBytes": "20"
      },
      "t_contract(DSS)16702": {
        "encoding": "inplace",
        "label": "contract DSS",
        "numberOfBytes": "20"
      },
      "t_contract(ERC20)5733": {
        "encoding": "inplace",
        "label": "contract ERC20",
        "numberOfBytes": "20"
      },
      "t_mapping(t_address,t_bool)": {
        "encoding": "mapping",
        "key": "t_address",
        "label": "mapping(address => bool)",
        "numberOfBytes": "32",
        "value": "t_bool"
      },
      "t_mapping(t_address,t_struct(LoanMetadata)16995_storage)": {
        "encoding": "mapping",
        "key": "t_address",
        "label": "mapping(address => struct LendingPool.LoanMetadata)",
        "numberOfBytes": "32",
        "value": "t_struct(LoanMetadata)16995_storage"
      },
      "t_mapping(t_address,t_uint256)": {
        "encoding": "mapping",
        "key": "t_address",
        "label": "mapping(address => uint256)",
        "numberOfBytes": "32",
        "value": "t_uint256"
      },
      "t_struct(LoanMetadata)16995_storage": {
        "encoding": "inplace",
        "label": "struct LendingPool.LoanMetadata",
        "members": [
          {
            "astId": 16982,
            "contract": "contracts/stablecoin/lendingpool.sol:LendingPool",
            "label": "underlyingToken",
            "offset": 0,
            "slot": "0",
            "type": "t_contract(ERC20)5733"
          },
          {
            "astId": 16984,
            "contract": "contracts/stablecoin/lendingpool.sol:LendingPool",
            "label": "principal",
            "offset": 0,
            "slot": "1",
            "type": "t_uint256"
          },
          {
            "astId": 16986,
            "contract": "contracts/stablecoin/lendingpool.sol:LendingPool",
            "label": "totalDebt",
            "offset": 0,
            "slot": "2",
            "type": "t_uint256"
          },
          {
            "astId": 16988,
            "contract": "contracts/stablecoin/lendingpool.sol:LendingPool",
            "label": "amountRepaid",
            "offset": 0,
            "slot": "3",
            "type": "t_uint256"
          },
          {
            "astId": 16990,
            "contract": "contracts/stablecoin/lendingpool.sol:LendingPool",
            "label": "duration",
            "offset": 0,
            "slot": "4",
            "type": "t_uint256"
          },
          {
            "astId": 16992,
            "contract": "contracts/stablecoin/lendingpool.sol:LendingPool",
            "label": "repaymentDate",
            "offset": 0,
            "slot": "5",
            "type": "t_uint256"
          },
          {
            "astId": 16994,
            "contract": "contracts/stablecoin/lendingpool.sol:LendingPool",
            "label": "recipient",
            "offset": 0,
            "slot": "6",
            "type": "t_address"
          }
        ],
        "numberOfBytes": "224"
      },
      "t_uint256": {
        "encoding": "inplace",
        "label": "uint256",
        "numberOfBytes": "32"
      }
    }
  }
}