{
  "address": "0x8e98BD7EE6B00Cc26E3dd4E09Ad3Ecd99ffA4972",
  "abi": [
    {
      "inputs": [
        {
          "internalType": "address",
          "name": "_ds_address",
          "type": "address"
        },
        {
          "internalType": "address",
          "name": "_dss_address",
          "type": "address"
        },
        {
          "internalType": "address",
          "name": "_collateral_address",
          "type": "address"
        },
        {
          "internalType": "address",
          "name": "_creator_address",
          "type": "address"
        },
        {
          "internalType": "address",
          "name": "_timelock_address",
          "type": "address"
        }
      ],
      "stateMutability": "nonpayable",
      "type": "constructor"
    },
    {
      "anonymous": false,
      "inputs": [
        {
          "indexed": true,
          "internalType": "address",
          "name": "defaultor",
          "type": "address"
        },
        {
          "components": [
            {
              "internalType": "bytes32",
              "name": "id",
              "type": "bytes32"
            },
            {
              "internalType": "uint256",
              "name": "principal",
              "type": "uint256"
            },
            {
              "internalType": "uint256",
              "name": "totalDebt",
              "type": "uint256"
            },
            {
              "internalType": "uint256",
              "name": "duration",
              "type": "uint256"
            },
            {
              "internalType": "uint256",
              "name": "repaymentDate",
              "type": "uint256"
            },
            {
              "internalType": "uint256",
              "name": "amountRepaid",
              "type": "uint256"
            },
            {
              "internalType": "string",
              "name": "description",
              "type": "string"
            },
            {
              "internalType": "bool",
              "name": "approved",
              "type": "bool"
            }
          ],
          "indexed": false,
          "internalType": "struct ILendingPool.LoanMetadata",
          "name": "loan",
          "type": "tuple"
        }
      ],
      "name": "Default",
      "type": "event"
    },
    {
      "anonymous": false,
      "inputs": [
        {
          "indexed": true,
          "internalType": "address",
          "name": "recipient",
          "type": "address"
        },
        {
          "components": [
            {
              "internalType": "bytes32",
              "name": "id",
              "type": "bytes32"
            },
            {
              "internalType": "uint256",
              "name": "principal",
              "type": "uint256"
            },
            {
              "internalType": "uint256",
              "name": "totalDebt",
              "type": "uint256"
            },
            {
              "internalType": "uint256",
              "name": "duration",
              "type": "uint256"
            },
            {
              "internalType": "uint256",
              "name": "repaymentDate",
              "type": "uint256"
            },
            {
              "internalType": "uint256",
              "name": "amountRepaid",
              "type": "uint256"
            },
            {
              "internalType": "string",
              "name": "description",
              "type": "string"
            },
            {
              "internalType": "bool",
              "name": "approved",
              "type": "bool"
            }
          ],
          "indexed": false,
          "internalType": "struct ILendingPool.LoanMetadata",
          "name": "loan",
          "type": "tuple"
        }
      ],
      "name": "FullRepayment",
      "type": "event"
    },
    {
      "anonymous": false,
      "inputs": [
        {
          "indexed": true,
          "internalType": "address",
          "name": "recipient",
          "type": "address"
        },
        {
          "indexed": false,
          "internalType": "uint256",
          "name": "amount",
          "type": "uint256"
        }
      ],
      "name": "FundsBorrowed",
      "type": "event"
    },
    {
      "anonymous": false,
      "inputs": [
        {
          "indexed": true,
          "internalType": "address",
          "name": "recipient",
          "type": "address"
        },
        {
          "components": [
            {
              "internalType": "bytes32",
              "name": "id",
              "type": "bytes32"
            },
            {
              "internalType": "uint256",
              "name": "principal",
              "type": "uint256"
            },
            {
              "internalType": "uint256",
              "name": "totalDebt",
              "type": "uint256"
            },
            {
              "internalType": "uint256",
              "name": "duration",
              "type": "uint256"
            },
            {
              "internalType": "uint256",
              "name": "repaymentDate",
              "type": "uint256"
            },
            {
              "internalType": "uint256",
              "name": "amountRepaid",
              "type": "uint256"
            },
            {
              "internalType": "string",
              "name": "description",
              "type": "string"
            },
            {
              "internalType": "bool",
              "name": "approved",
              "type": "bool"
            }
          ],
          "indexed": false,
          "internalType": "struct ILendingPool.LoanMetadata",
          "name": "loan",
          "type": "tuple"
        }
      ],
      "name": "LoanApproval",
      "type": "event"
    },
    {
      "anonymous": false,
      "inputs": [
        {
          "indexed": true,
          "internalType": "address",
          "name": "recipient",
          "type": "address"
        },
        {
          "indexed": false,
          "internalType": "string",
          "name": "loan_id",
          "type": "string"
        }
      ],
      "name": "LoanProposal",
      "type": "event"
    },
    {
      "anonymous": false,
      "inputs": [
        {
          "indexed": true,
          "internalType": "address",
          "name": "recipient",
          "type": "address"
        },
        {
          "components": [
            {
              "internalType": "bytes32",
              "name": "id",
              "type": "bytes32"
            },
            {
              "internalType": "uint256",
              "name": "principal",
              "type": "uint256"
            },
            {
              "internalType": "uint256",
              "name": "totalDebt",
              "type": "uint256"
            },
            {
              "internalType": "uint256",
              "name": "duration",
              "type": "uint256"
            },
            {
              "internalType": "uint256",
              "name": "repaymentDate",
              "type": "uint256"
            },
            {
              "internalType": "uint256",
              "name": "amountRepaid",
              "type": "uint256"
            },
            {
              "internalType": "string",
              "name": "description",
              "type": "string"
            },
            {
              "internalType": "bool",
              "name": "approved",
              "type": "bool"
            }
          ],
          "indexed": false,
          "internalType": "struct ILendingPool.LoanMetadata",
          "name": "loan",
          "type": "tuple"
        }
      ],
      "name": "LoanProposalRemoval",
      "type": "event"
    },
    {
      "anonymous": false,
      "inputs": [
        {
          "indexed": false,
          "internalType": "address",
          "name": "oldOwner",
          "type": "address"
        },
        {
          "indexed": false,
          "internalType": "address",
          "name": "newOwner",
          "type": "address"
        }
      ],
      "name": "OwnerChanged",
      "type": "event"
    },
    {
      "anonymous": false,
      "inputs": [
        {
          "indexed": false,
          "internalType": "address",
          "name": "newOwner",
          "type": "address"
        }
      ],
      "name": "OwnerNominated",
      "type": "event"
    },
    {
      "inputs": [],
      "name": "acceptOwnership",
      "outputs": [],
      "stateMutability": "nonpayable",
      "type": "function"
    },
    {
      "inputs": [
        {
          "internalType": "string",
          "name": "_id",
          "type": "string"
        },
        {
          "internalType": "uint256",
          "name": "_principal",
          "type": "uint256"
        },
        {
          "internalType": "uint256",
          "name": "_duration",
          "type": "uint256"
        },
        {
          "internalType": "uint256",
          "name": "_totalDebt",
          "type": "uint256"
        },
        {
          "internalType": "string",
          "name": "_description",
          "type": "string"
        }
      ],
      "name": "addProposal",
      "outputs": [],
      "stateMutability": "nonpayable",
      "type": "function"
    },
    {
      "inputs": [
        {
          "internalType": "address",
          "name": "validator",
          "type": "address"
        },
        {
          "internalType": "address",
          "name": "controller",
          "type": "address"
        }
      ],
      "name": "addValidator",
      "outputs": [],
      "stateMutability": "nonpayable",
      "type": "function"
    },
    {
      "inputs": [
        {
          "internalType": "address",
          "name": "recipient",
          "type": "address"
        }
      ],
      "name": "addressCheckDefault",
      "outputs": [],
      "stateMutability": "nonpayable",
      "type": "function"
    },
    {
      "inputs": [
        {
          "internalType": "address",
          "name": "recipient",
          "type": "address"
        },
        {
          "internalType": "string",
          "name": "id",
          "type": "string"
        }
      ],
      "name": "approveLoan",
      "outputs": [
        {
          "internalType": "bool",
          "name": "",
          "type": "bool"
        }
      ],
      "stateMutability": "nonpayable",
      "type": "function"
    },
    {
      "inputs": [
        {
          "internalType": "uint256",
          "name": "amount",
          "type": "uint256"
        }
      ],
      "name": "borrow",
      "outputs": [],
      "stateMutability": "nonpayable",
      "type": "function"
    },
    {
      "inputs": [
        {
          "internalType": "address",
          "name": "",
          "type": "address"
        }
      ],
      "name": "borrower_allowance",
      "outputs": [
        {
          "internalType": "uint256",
          "name": "",
          "type": "uint256"
        }
      ],
      "stateMutability": "view",
      "type": "function"
    },
    {
      "inputs": [
        {
          "internalType": "address",
          "name": "",
          "type": "address"
        }
      ],
      "name": "borrower_debt",
      "outputs": [
        {
          "internalType": "uint256",
          "name": "",
          "type": "uint256"
        }
      ],
      "stateMutability": "view",
      "type": "function"
    },
    {
      "inputs": [
        {
          "internalType": "uint256",
          "name": "",
          "type": "uint256"
        }
      ],
      "name": "borrowers_array",
      "outputs": [
        {
          "internalType": "address",
          "name": "",
          "type": "address"
        }
      ],
      "stateMutability": "view",
      "type": "function"
    },
    {
      "inputs": [
        {
          "internalType": "uint256",
          "name": "col_idx",
          "type": "uint256"
        }
      ],
      "name": "collectRedemption",
      "outputs": [
        {
          "internalType": "uint256",
          "name": "dss_amount",
          "type": "uint256"
        },
        {
          "internalType": "uint256",
          "name": "collateral_amount",
          "type": "uint256"
        }
      ],
      "stateMutability": "nonpayable",
      "type": "function"
    },
    {
      "inputs": [
        {
          "internalType": "uint256",
          "name": "amount",
          "type": "uint256"
        }
      ],
      "name": "controllerBurnDS",
      "outputs": [],
      "stateMutability": "nonpayable",
      "type": "function"
    },
    {
      "inputs": [
        {
          "internalType": "uint256",
          "name": "amount",
          "type": "uint256"
        }
      ],
      "name": "controllerMintDS",
      "outputs": [],
      "stateMutability": "nonpayable",
      "type": "function"
    },
    {
      "inputs": [
        {
          "internalType": "address",
          "name": "",
          "type": "address"
        },
        {
          "internalType": "uint256",
          "name": "",
          "type": "uint256"
        }
      ],
      "name": "current_loan_data",
      "outputs": [
        {
          "internalType": "bytes32",
          "name": "id",
          "type": "bytes32"
        },
        {
          "internalType": "uint256",
          "name": "principal",
          "type": "uint256"
        },
        {
          "internalType": "uint256",
          "name": "totalDebt",
          "type": "uint256"
        },
        {
          "internalType": "uint256",
          "name": "duration",
          "type": "uint256"
        },
        {
          "internalType": "uint256",
          "name": "repaymentDate",
          "type": "uint256"
        },
        {
          "internalType": "uint256",
          "name": "amountRepaid",
          "type": "uint256"
        },
        {
          "internalType": "string",
          "name": "description",
          "type": "string"
        },
        {
          "internalType": "bool",
          "name": "approved",
          "type": "bool"
        }
      ],
      "stateMutability": "view",
      "type": "function"
    },
    {
      "inputs": [
        {
          "internalType": "address",
          "name": "borrower",
          "type": "address"
        }
      ],
      "name": "deregisterBorrower",
      "outputs": [],
      "stateMutability": "nonpayable",
      "type": "function"
    },
    {
      "inputs": [],
      "name": "fullDefaultCheck",
      "outputs": [],
      "stateMutability": "nonpayable",
      "type": "function"
    },
    {
      "inputs": [],
      "name": "getLoanData",
      "outputs": [
        {
          "components": [
            {
              "internalType": "uint256",
              "name": "_total_borrowed_amount",
              "type": "uint256"
            },
            {
              "internalType": "uint256",
              "name": "_accrued_interest",
              "type": "uint256"
            }
          ],
          "internalType": "struct ILendingPool.LoanData",
          "name": "",
          "type": "tuple"
        }
      ],
      "stateMutability": "view",
      "type": "function"
    },
    {
      "inputs": [
        {
          "internalType": "address",
          "name": "",
          "type": "address"
        }
      ],
      "name": "is_borrower",
      "outputs": [
        {
          "internalType": "bool",
          "name": "",
          "type": "bool"
        }
      ],
      "stateMutability": "view",
      "type": "function"
    },
    {
      "inputs": [
        {
          "internalType": "address",
          "name": "",
          "type": "address"
        }
      ],
      "name": "is_registered",
      "outputs": [
        {
          "internalType": "bool",
          "name": "",
          "type": "bool"
        }
      ],
      "stateMutability": "view",
      "type": "function"
    },
    {
      "inputs": [
        {
          "internalType": "address",
          "name": "",
          "type": "address"
        }
      ],
      "name": "lastRedeemed",
      "outputs": [
        {
          "internalType": "uint256",
          "name": "",
          "type": "uint256"
        }
      ],
      "stateMutability": "view",
      "type": "function"
    },
    {
      "inputs": [
        {
          "internalType": "uint256",
          "name": "collateral_amount",
          "type": "uint256"
        },
        {
          "internalType": "uint256",
          "name": "DS_out_min",
          "type": "uint256"
        }
      ],
      "name": "mintDS",
      "outputs": [],
      "stateMutability": "nonpayable",
      "type": "function"
    },
    {
      "inputs": [
        {
          "internalType": "address",
          "name": "_owner",
          "type": "address"
        }
      ],
      "name": "nominateNewOwner",
      "outputs": [],
      "stateMutability": "nonpayable",
      "type": "function"
    },
    {
      "inputs": [],
      "name": "nominatedOwner",
      "outputs": [
        {
          "internalType": "address",
          "name": "",
          "type": "address"
        }
      ],
      "stateMutability": "view",
      "type": "function"
    },
    {
      "inputs": [
        {
          "internalType": "address",
          "name": "",
          "type": "address"
        }
      ],
      "name": "num_loans",
      "outputs": [
        {
          "internalType": "uint256",
          "name": "",
          "type": "uint256"
        }
      ],
      "stateMutability": "view",
      "type": "function"
    },
    {
      "inputs": [
        {
          "internalType": "address",
          "name": "",
          "type": "address"
        }
      ],
      "name": "num_proposals",
      "outputs": [
        {
          "internalType": "uint256",
          "name": "",
          "type": "uint256"
        }
      ],
      "stateMutability": "view",
      "type": "function"
    },
    {
      "inputs": [],
      "name": "owner",
      "outputs": [
        {
          "internalType": "address",
          "name": "",
          "type": "address"
        }
      ],
      "stateMutability": "view",
      "type": "function"
    },
    {
      "inputs": [],
      "name": "proposal_fee",
      "outputs": [
        {
          "internalType": "uint256",
          "name": "",
          "type": "uint256"
        }
      ],
      "stateMutability": "view",
      "type": "function"
    },
    {
      "inputs": [
        {
          "internalType": "address",
          "name": "",
          "type": "address"
        }
      ],
      "name": "redeemCollateralBalances",
      "outputs": [
        {
          "internalType": "uint256",
          "name": "",
          "type": "uint256"
        }
      ],
      "stateMutability": "view",
      "type": "function"
    },
    {
      "inputs": [
        {
          "internalType": "uint256",
          "name": "DS_amount",
          "type": "uint256"
        },
        {
          "internalType": "uint256",
          "name": "DSS_out_min",
          "type": "uint256"
        },
        {
          "internalType": "uint256",
          "name": "COLLATERAL_out_min",
          "type": "uint256"
        }
      ],
      "name": "redeemDS",
      "outputs": [],
      "stateMutability": "nonpayable",
      "type": "function"
    },
    {
      "inputs": [
        {
          "internalType": "address",
          "name": "",
          "type": "address"
        }
      ],
      "name": "redeemDSSBalances",
      "outputs": [
        {
          "internalType": "uint256",
          "name": "",
          "type": "uint256"
        }
      ],
      "stateMutability": "view",
      "type": "function"
    },
    {
      "inputs": [],
      "name": "registerBorrower",
      "outputs": [],
      "stateMutability": "nonpayable",
      "type": "function"
    },
    {
      "inputs": [
        {
          "internalType": "string",
          "name": "id",
          "type": "string"
        }
      ],
      "name": "removeProposal",
      "outputs": [
        {
          "internalType": "bool",
          "name": "",
          "type": "bool"
        }
      ],
      "stateMutability": "nonpayable",
      "type": "function"
    },
    {
      "inputs": [
        {
          "internalType": "address",
          "name": "recipient",
          "type": "address"
        },
        {
          "internalType": "string",
          "name": "id",
          "type": "string"
        }
      ],
      "name": "removeProposal",
      "outputs": [
        {
          "internalType": "bool",
          "name": "",
          "type": "bool"
        }
      ],
      "stateMutability": "nonpayable",
      "type": "function"
    },
    {
      "inputs": [
        {
          "internalType": "uint256",
          "name": "repay_principal",
          "type": "uint256"
        },
        {
          "internalType": "uint256",
          "name": "repay_interest",
          "type": "uint256"
        },
        {
          "internalType": "string",
          "name": "loan_id",
          "type": "string"
        }
      ],
      "name": "repay",
      "outputs": [
        {
          "internalType": "bool",
          "name": "",
          "type": "bool"
        }
      ],
      "stateMutability": "nonpayable",
      "type": "function"
    },
    {
      "inputs": [
        {
          "internalType": "address",
          "name": "borrower",
          "type": "address"
        },
        {
          "internalType": "string",
          "name": "id",
          "type": "string"
        }
      ],
      "name": "retrieveLoan",
      "outputs": [
        {
          "components": [
            {
              "internalType": "bytes32",
              "name": "id",
              "type": "bytes32"
            },
            {
              "internalType": "uint256",
              "name": "principal",
              "type": "uint256"
            },
            {
              "internalType": "uint256",
              "name": "totalDebt",
              "type": "uint256"
            },
            {
              "internalType": "uint256",
              "name": "duration",
              "type": "uint256"
            },
            {
              "internalType": "uint256",
              "name": "repaymentDate",
              "type": "uint256"
            },
            {
              "internalType": "uint256",
              "name": "amountRepaid",
              "type": "uint256"
            },
            {
              "internalType": "string",
              "name": "description",
              "type": "string"
            },
            {
              "internalType": "bool",
              "name": "approved",
              "type": "bool"
            }
          ],
          "internalType": "struct ILendingPool.LoanMetadata",
          "name": "",
          "type": "tuple"
        }
      ],
      "stateMutability": "view",
      "type": "function"
    },
    {
      "inputs": [
        {
          "internalType": "address",
          "name": "controller",
          "type": "address"
        }
      ],
      "name": "setController",
      "outputs": [],
      "stateMutability": "nonpayable",
      "type": "function"
    },
    {
      "inputs": [
        {
          "internalType": "uint256",
          "name": "new_ceiling",
          "type": "uint256"
        },
        {
          "internalType": "uint256",
          "name": "new_bonus_rate",
          "type": "uint256"
        },
        {
          "internalType": "uint256",
          "name": "new_redemption_delay",
          "type": "uint256"
        },
        {
          "internalType": "uint256",
          "name": "new_mint_fee",
          "type": "uint256"
        },
        {
          "internalType": "uint256",
          "name": "new_redeem_fee",
          "type": "uint256"
        },
        {
          "internalType": "uint256",
          "name": "new_buyback_fee",
          "type": "uint256"
        },
        {
          "internalType": "uint256",
          "name": "new_recollat_fee",
          "type": "uint256"
        }
      ],
      "name": "setPoolParameters",
      "outputs": [],
      "stateMutability": "nonpayable",
      "type": "function"
    },
    {
      "inputs": [],
      "name": "unclaimedPoolCollateral",
      "outputs": [
        {
          "internalType": "uint256",
          "name": "",
          "type": "uint256"
        }
      ],
      "stateMutability": "view",
      "type": "function"
    },
    {
      "inputs": [],
      "name": "unclaimedPoolDSS",
      "outputs": [
        {
          "internalType": "uint256",
          "name": "",
          "type": "uint256"
        }
      ],
      "stateMutability": "view",
      "type": "function"
    }
  ],
  "transactionHash": "0x5234403af465ee14af9b55b58a9c1518124ceecf8b5bdd92b3616ca40b175c87",
  "args": [
    "0xd52654d5D4b08366E33bDd2FFC1C2Bd8eF6f70aC",
    "0x3FB816bc51020F3F61f4F6F85c6147a7144c9818",
    "0x5799bFe361BEea69f808328FF4884DF92f1f66f0",
    "0xFD84b7AC1E646580db8c77f1f05F47977fAda692",
    "0xFD84b7AC1E646580db8c77f1f05F47977fAda692"
  ],
  "solcInputHash": "6b5c7513e0191700db98fb0f972486e7",
  "bytecode": "0x60e06040526001608081905260a0523480156200001b57600080fd5b5060405162003adc38038062003adc8339810160408190526200003e9162000249565b816001600160a01b0381166200009b5760405162461bcd60e51b815260206004820152601960248201527f4f776e657220616464726573732063616e6e6f7420626520300000000000000060448201526064015b60405180910390fd5b600080546001600160a01b0319166001600160a01b03831690811782556040805192835260208301919091527fb532073b38c83145e3e5135377a08bf9aab55bc0fd7c1179cd4fb995d2a5159c910160405180910390a1506001600160a01b038516158015906200011457506001600160a01b03841615155b80156200012957506001600160a01b03831615155b80156200013e57506001600160a01b03821615155b80156200015357506001600160a01b03811615155b620001a15760405162461bcd60e51b815260206004820152601560248201527f5a65726f20616464726573732064657465637465640000000000000000000000604482015260640162000092565b600f80546001600160a01b039687166001600160a01b031991821681179092556010805496881696821687179055600280548216909217909155600380548216909517909455600480549386169385169390931790925560058054918516918416919091179055600680549190931691161790556000600e55678ac7230489e8000060c052620002b8565b80516001600160a01b03811681146200024457600080fd5b919050565b600080600080600060a0868803121562000261578081fd5b6200026c866200022c565b94506200027c602087016200022c565b93506200028c604087016200022c565b92506200029c606087016200022c565b9150620002ac608087016200022c565b90509295509295909350565b60805160a05160c0516137df620002fd6000396000818161038a01528181611f9f0152818161204e01526121250152600061095a01526000610d0501526137df6000f3fe608060405234801561001057600080fd5b50600436106102325760003560e01c80639f59ae4d11610130578063c5ebeaec116100b8578063ecce54461161007c578063ecce544614610595578063f02e4cb8146105a8578063f43038c5146105bb578063f57e3fa5146105db578063f9a7f8dc146105ee57600080fd5b8063c5ebeaec14610534578063e0cd9c8f14610547578063e31ecd1b1461055a578063e6c439111461056d578063e831878d1461058d57600080fd5b8063b1819c2b116100ff578063b1819c2b146104d2578063b2e2d4db146104e5578063bbcbdc61146104f8578063bcecd40f1461050b578063c1c76de81461051457600080fd5b80639f59ae4d14610441578063a3f14e9614610454578063a4cc257c14610492578063abae2c4c146104b257600080fd5b8063692eba09116101be5780637b0461e9116101825780637b0461e9146103c75780637c2a5f03146103d05780638da5cb5b146103f357806392eefe9b146104065780639d202bf81461041957600080fd5b8063692eba091461033e5780636cdd9cf61461035e5780636cedcceb146103855780636f8833f9146103ac57806379ba5097146103bf57600080fd5b80632a243860116102055780632a243860146102b25780632dad3b7f146102ba5780634ebbe762146102dd57806353a47bb7146102f0578063619ea8061461031b57600080fd5b806308a7493d146102375780631627540c1461026a578063164157c01461027f57806319dbe5de1461029f575b600080fd5b610257610245366004612fe1565b60126020526000908152604090205481565b6040519081526020015b60405180910390f35b61027d610278366004612fe1565b610601565b005b61029261028d36600461302d565b6106cc565b604051610261919061351d565b61027d6102ad366004613107565b610948565b61027d610c25565b6102cd6102c836600461302d565b610cbd565b6040519015158152602001610261565b61027d6102eb36600461325e565b61110a565b600154610303906001600160a01b031681565b6040516001600160a01b039091168152602001610261565b6102cd610329366004612fe1565b60176020526000908152604090205460ff1681565b61025761034c366004612fe1565b601d6020526000908152604090205481565b61037161036c36600461307e565b611169565b60405161026198979695949392919061340f565b6102577f000000000000000000000000000000000000000000000000000000000000000081565b61027d6103ba366004612fe1565b611259565b61027d611321565b61025760135481565b6102cd6103de366004612fe1565b60166020526000908152604090205460ff1681565b600054610303906001600160a01b031681565b61027d610414366004612fe1565b61140b565b61042c610427366004613191565b61146c565b60408051928352602083019190915201610261565b61027d61044f366004613233565b611534565b604080518082018252600080825260209182015281518083018352601e54808252601f54918301918252835190815290519181019190915201610261565b6102576104a0366004612fe1565b601c6020526000908152604090205481565b6102576104c0366004612fe1565b60156020526000908152604090205481565b61027d6104e0366004612ffb565b611837565b6102cd6104f33660046131e2565b611896565b6102cd6105063660046130c7565b611bb6565b61025760145481565b610257610522366004612fe1565b60186020526000908152604090205481565b61027d610542366004613191565b611c44565b61027d610555366004613191565b611e4f565b61027d610568366004612fe1565b611ee1565b61025761057b366004612fe1565b60196020526000908152604090205481565b61027d611f24565b6103036105a3366004613191565b612165565b61027d6105b6366004613191565b61218f565b6102576105c9366004612fe1565b60116020526000908152604090205481565b61027d6105e93660046131c1565b6121f0565b6102cd6105fc36600461302d565b6122cc565b6000546001600160a01b031633146106785760405162461bcd60e51b815260206004820152602f60248201527f4f6e6c792074686520636f6e7472616374206f776e6572206d6179207065726660448201526e37b936903a3434b99030b1ba34b7b760891b60648201526084015b60405180910390fd5b600180546001600160a01b0319166001600160a01b0383169081179091556040519081527f906a1c6bd7e3091ea86693dd029a831c19049ce77f1dce2ce0bab1cacbabce229060200160405180910390a150565b610719604051806101000160405280600080191681526020016000815260200160008152602001600081526020016000815260200160008152602001606081526020016000151581525090565b6000838360405160200161072e9291906133ff565b60405160208183030381529060405280519060200120905060005b6001600160a01b0386166000908152601b6020526040902054811015610907576001600160a01b0386166000908152601b602052604090208054829081106107a157634e487b7160e01b600052603260045260246000fd5b9060005260206000209060080201600001548214156108f5576001600160a01b0386166000908152601b602052604090208054829081106107f257634e487b7160e01b600052603260045260246000fd5b9060005260206000209060080201604051806101000160405290816000820154815260200160018201548152602001600282015481526020016003820154815260200160048201548152602001600582015481526020016006820180546108589061373d565b80601f01602080910402602001604051908101604052809291908181526020018280546108849061373d565b80156108d15780601f106108a6576101008083540402835291602001916108d1565b820191906000526020600020905b8154815290600101906020018083116108b457829003601f168201915b50505091835250506007919091015460ff1615156020909101529250610941915050565b806108ff81613778565b915050610749565b5060405162461bcd60e51b815260206004820152600e60248201526d1b1bd85b881b9bdd08199bdd5b9960921b604482015260640161066f565b9392505050565b336000908152601d60205260409020547f0000000000000000000000000000000000000000000000000000000000000000116109bf5760405162461bcd60e51b81526020600482015260166024820152751c1c9bdc1bdcd85b081b1a5b5a5d081c995858da195960521b604482015260640161066f565b600087876040516020016109d49291906133ff565b60405160208183030381529060405280519060200120905060005b336000908152601d6020526040902054811015610aa357336000908152601b60205260409020805483919083908110610a3857634e487b7160e01b600052603260045260246000fd5b9060005260206000209060080201600001541415610a915760405162461bcd60e51b81526020600482015260166024820152754c6f616e204944206d75737420626520756e6971756560501b604482015260640161066f565b80610a9b81613778565b9150506109ef565b50336000908152601d60205260408120805491610abf83613778565b9190505550601b6000336001600160a01b03166001600160a01b03168152602001908152602001600020604051806101000160405280838152602001888152602001868152602001878152602001600081526020016000815260200185858080601f01602080910402602001604051908101604052809392919081815260200183838082843760009201829052509385525050506020918201819052835460018181018655948252908290208351600890920201908155828201519381019390935560408201516002840155606082015160038401556080820151600484015560a0820151600584015560c08201518051929392610bc39260068501920190612e34565b5060e091909101516007909101805460ff191691151591909117905560405133907fee947c2dbef85920918a354ca22ad7516804df5b6a1e95d68c5e34dbe1e20fd690610c13908b908b9061345f565b60405180910390a25050505050505050565b60005b601a54811015610cba576000601a8281548110610c5557634e487b7160e01b600052603260045260246000fd5b60009182526020808320909101546001600160a01b0316808352601b909152604082208054919350915b81811015610ca357610c918482612325565b80610c9b81613778565b915050610c7f565b505050508080610cb290613778565b915050610c28565b50565b6020546000906001600160a01b03163314610cea5760405162461bcd60e51b815260040161066f906134f2565b6001600160a01b0384166000908152601c60205260409020547f000000000000000000000000000000000000000000000000000000000000000011610d715760405162461bcd60e51b815260206004820152601b60248201527f6d6178206e756d626572206f66206c6f616e7320726561636865640000000000604482015260640161066f565b60008383604051602001610d869291906133ff565b60405160208183030381529060405280519060200120905060005b6001600160a01b0386166000908152601b60205260409020548110156110fe576001600160a01b0386166000908152601b60205260409020805482908110610df957634e487b7160e01b600052603260045260246000fd5b9060005260206000209060080201600001548214156110ec576001600160a01b0386166000908152601b60205260409020805482908110610e4a57634e487b7160e01b600052603260045260246000fd5b600091825260209091206007600890920201015460ff1615610ea65760405162461bcd60e51b81526020600482015260156024820152741b1bd85b88185b1c9958591e48185c1c1c9bdd9959605a1b604482015260640161066f565b6001600160a01b0386166000908152601b60205260408120805483908110610ede57634e487b7160e01b600052603260045260246000fd5b90600052602060002090600802019050866001600160a01b03167ff2a5566c9c9e309c27a8e5d5c4de2b3fcb75d1fe180f1acf4808ce863b95cbfe601b60008a6001600160a01b03166001600160a01b031681526020019081526020016000208481548110610f5d57634e487b7160e01b600052603260045260246000fd5b9060005260206000209060080201604051610f78919061358e565b60405180910390a260078101805460ff191660011790556003810154610f9e90426135a1565b60048201556001600160a01b03871660009081526016602052604090205460ff16611029576001600160a01b0387166000818152601660205260408120805460ff19166001908117909155601a805491820181559091527f057c384a7d1c54f3a1b2e5e67b2617b8224fdfd1ea7234eea573a6ff665ff63e0180546001600160a01b03191690911790555b6001600160a01b0387166000908152601c6020526040812080549161104d83613778565b90915550506001600160a01b0387166000908152601d6020526040812080549161107683613726565b909155505060018101546001600160a01b038816600090815260186020526040812080549091906110a89084906135a1565b909155505060018101546001600160a01b038816600090815260196020526040812080549091906110da9084906135a1565b90915550600194506109419350505050565b806110f681613778565b915050610da1565b50600095945050505050565b6006546001600160a01b031633148061112d57506000546001600160a01b031633145b6111495760405162461bcd60e51b815260040161066f906134c3565b600796909655600894909455600992909255600a55600b55600c55600d55565b601b602052816000526040600020818154811061118557600080fd5b9060005260206000209060080201600091509150508060000154908060010154908060020154908060030154908060040154908060050154908060060180546111cd9061373d565b80601f01602080910402602001604051908101604052809291908181526020018280546111f99061373d565b80156112465780601f1061121b57610100808354040283529160200191611246565b820191906000526020600020905b81548152906001019060200180831161122957829003601f168201915b5050506007909301549192505060ff1688565b6006546001600160a01b031633148061127c57506000546001600160a01b031633145b6112985760405162461bcd60e51b815260040161066f906134c3565b6001600160a01b03811660009081526017602052604090205460ff166113005760405162461bcd60e51b815260206004820152601760248201527f626f72726f776572206e6f742072656769737465726564000000000000000000604482015260640161066f565b6001600160a01b03166000908152601760205260409020805460ff19169055565b6001546001600160a01b031633146113995760405162461bcd60e51b815260206004820152603560248201527f596f75206d757374206265206e6f6d696e61746564206265666f726520796f7560448201527402063616e20616363657074206f776e65727368697605c1b606482015260840161066f565b600054600154604080516001600160a01b0393841681529290911660208301527fb532073b38c83145e3e5135377a08bf9aab55bc0fd7c1179cd4fb995d2a5159c910160405180910390a160018054600080546001600160a01b03199081166001600160a01b03841617909155169055565b6006546001600160a01b031633148061142e57506000546001600160a01b031633145b61144a5760405162461bcd60e51b815260040161066f906134c3565b602080546001600160a01b0319166001600160a01b0392909216919091179055565b33600090815260116020526040812054819081908190156114b35733600090815260116020526040812080549190556014549094506114ab9085612423565b601455600191505b33600090815260126020526040902054156114f35733600090815260126020526040812080549190556013549093506114ec9084612423565b6013555060015b811561151057601054611510906001600160a01b0316338661242f565b801561152d5760045461152d906001600160a01b0316338561242f565b5050915091565b600f5460408051634ed9ac1f60e01b815290516000926001600160a01b031691634ed9ac1f916004808301926020929190829003018186803b15801561157957600080fd5b505afa15801561158d573d6000803e3d6000fd5b505050506040513d601f19601f820116820180604052508101906115b191906131a9565b90506000600f60009054906101000a90046001600160a01b03166001600160a01b031663545108636040518163ffffffff1660e01b815260040160206040518083038186803b15801561160357600080fd5b505afa158015611617573d6000803e3d6000fd5b505050506040513d601f19601f8201168201806040525081019061163b91906131a9565b90506000611658600e54600a611651919061361c565b8790612497565b9050600061168b620f424061168561167e600b54620f424061242390919063ffffffff16565b8a90612497565b906124a3565b905060006116aa6116a3620f42406116858588612497565b8390612423565b905060006116bf8661168584620f4240612497565b90508260006116d5620f4240611685848a612497565b3360009081526012602052604090205490915081906116f490826124af565b3360009081526012602052604090205560135461171190826124af565b6013553360009081526011602052604090205461172e90856124af565b3360009081526011602052604090205560145461174b90856124af565b6014553360008181526015602052604090819020439055600f549051631211faed60e31b81526004810192909252602482018990526001600160a01b03169063908fd76890604401600060405180830381600087803b1580156117ad57600080fd5b505af11580156117c1573d6000803e3d6000fd5b5050601054604051635a7ab59360e11b8152306004820152602481018890526001600160a01b03909116925063b4f56b269150604401600060405180830381600087803b15801561181157600080fd5b505af1158015611825573d6000803e3d6000fd5b50505050505050505050505050505050565b604051632691c64760e11b81526001600160a01b038381166004830152821690634d238c8e90602401600060405180830381600087803b15801561187a57600080fd5b505af115801561188e573d6000803e3d6000fd5b505050505050565b3360009081526016602052604081205460ff166118e75760405162461bcd60e51b815260206004820152600f60248201526e34b9903737ba103137b93937bbb2b960891b604482015260640161066f565b60006118f386866124af565b90506000848460405160200161190a9291906133ff565b60405160208183030381529060405280519060200120905060005b336000908152601b6020526040902054811015611ba657336000908152601b6020526040902080548290811061196b57634e487b7160e01b600052603260045260246000fd5b906000526020600020906008020160000154821415611b9457336000908152601b602052604081208054839081106119b357634e487b7160e01b600052603260045260246000fd5b9060005260206000209060080201905080600101548482600501546119d891906135a1565b1115611a265760405162461bcd60e51b815260206004820152601b60248201527f6f7665727061696420666f7220737065636966696564206c6f616e0000000000604482015260640161066f565b83816005016000828254611a3a91906135a1565b909155505033600090815260196020526040902054611a59908a612423565b33600090815260196020526040902055601f54611a7690896124af565b50611ab0604051806040016040528060158152602001741d1bdd185b17d89bdc9c9bddd95917d85b5bdd5b9d605a1b815250601e546124bb565b601e54611abd908a612423565b601e55600454611ad8906001600160a01b0316333087612500565b806002015481600501541415611b8757336001600160a01b03167f6109a4c798a992b22a4ea2359ccd7dfd5c6c2af4f4ba7c4272ee60f9dbe6c1d882604051611b21919061358e565b60405180910390a2336000908152601c60205260408120805491611b4483613726565b9190505550611b533383612628565b336000908152601c6020526040902054611b8757336000818152601660205260409020805460ff19169055611b879061284e565b6001945050505050611bae565b80611b9e81613778565b915050611925565b506000925050505b949350505050565b3360009081526017602052604081205460ff16611c095760405162461bcd60e51b81526020600482015260116024820152701a5cc81b9bdd081c9959da5cdd195c9959607a1b604482015260640161066f565b611c3b338484604051602001611c209291906133ff565b60405160208183030381529060405280519060200120612983565b90505b92915050565b3360009081526016602052604090205460ff16611c955760405162461bcd60e51b815260206004820152600f60248201526e34b9903737ba103137b93937bbb2b960891b604482015260640161066f565b3360009081526017602052604090205460ff16611ce85760405162461bcd60e51b81526020600482015260116024820152701a5cc81b9bdd081c9959da5cdd195c9959607a1b604482015260640161066f565b33600090815260186020526040902054811115611d475760405162461bcd60e51b815260206004820152601860248201527f4578636565647320626f72726f7720616c6c6f77616e63650000000000000000604482015260640161066f565b60008111611d975760405162461bcd60e51b815260206004820152601d60248201527f616d6f756e74206d7573742062652067726561746572207468616e2030000000604482015260640161066f565b33600090815260186020526040902054611db19082612423565b33600081815260186020526040902091909155600454611ddd916001600160a01b039091169083612acf565b33600090815260196020526040902054611df790826124af565b33600090815260196020526040902055601e54611e1490826124af565b601e5560405181815233907f7fd4365684b3ba337d3ae48b3f8e735f5159301d6df281756306b6363adb66e79060200160405180910390a250565b6020546001600160a01b03163314611e795760405162461bcd60e51b815260040161066f906134f2565b600f54604051635a7ab59360e11b8152336004820152602481018390526001600160a01b039091169063b4f56b26906044015b600060405180830381600087803b158015611ec657600080fd5b505af1158015611eda573d6000803e3d6000fd5b5050505050565b60005b6001600160a01b0382166000908152601b6020526040902054811015611f2057611f0e8282612325565b80611f1881613778565b915050611ee4565b5050565b3360009081526017602052604090205460ff1615611f845760405162461bcd60e51b815260206004820152601960248201527f616c726561647920706169642070726f706f73616c2066656500000000000000604482015260640161066f565b600480546040516370a0823160e01b815233928101929092527f0000000000000000000000000000000000000000000000000000000000000000916001600160a01b03909116906370a082319060240160206040518083038186803b158015611fec57600080fd5b505afa158015612000573d6000803e3d6000fd5b505050506040513d601f19601f8201168201806040525081019061202491906131a9565b101580156120d6575060048054604051636eb1769f60e11b815233928101929092523060248301527f0000000000000000000000000000000000000000000000000000000000000000916001600160a01b039091169063dd62ed3e9060440160206040518083038186803b15801561209b57600080fd5b505afa1580156120af573d6000803e3d6000fd5b505050506040513d601f19601f820116820180604052508101906120d391906131a9565b10155b6121115760405162461bcd60e51b815260206004820152600c60248201526b6e6f20616c6c6f77616e636560a01b604482015260640161066f565b600454612149906001600160a01b031633307f0000000000000000000000000000000000000000000000000000000000000000612be3565b336000908152601760205260409020805460ff19166001179055565b601a818154811061217557600080fd5b6000918252602090912001546001600160a01b0316905081565b6020546001600160a01b031633146121b95760405162461bcd60e51b815260040161066f906134f2565b600f54604051631211faed60e31b8152336004820152602481018390526001600160a01b039091169063908fd76890604401611eac565b6000600e54600a612201919061361c565b61220b90846136c4565b9050600081905061223b620f4240611685612234600a54620f424061242390919063ffffffff16565b8490612497565b90508083111561224a57600080fd5b600454612262906001600160a01b0316333087612be3565b600f54604051635a7ab59360e11b8152336004820152602481018390526001600160a01b039091169063b4f56b2690604401600060405180830381600087803b1580156122ae57600080fd5b505af11580156122c2573d6000803e3d6000fd5b5050505050505050565b6006546000906001600160a01b03163314806122f257506000546001600160a01b031633145b61230e5760405162461bcd60e51b815260040161066f906134c3565b611bae848484604051602001611c209291906133ff565b6001600160a01b0382166000908152601b6020526040902080544291908390811061236057634e487b7160e01b600052603260045260246000fd5b9060005260206000209060080201600401541015611f20576001600160a01b0382166000818152601b6020526040902080547f2c0d0cb3def05dc8fd0a849509477cbbd1a185820e04ffcf9eeb0a4cb903471c9190849081106123d357634e487b7160e01b600052603260045260246000fd5b90600052602060002090600802016040516123ee919061358e565b60405180910390a26001600160a01b0382166000908152601c6020526040812080549161241a83613726565b91905055505050565b6000611c3b82846136e3565b6040516001600160a01b03831660248201526044810182905261249290849063a9059cbb60e01b906064015b60408051601f198184030181529190526020810180516001600160e01b03166001600160e01b031990931692909217909152612c21565b505050565b6000611c3b82846136c4565b6000611c3b82846135b9565b6000611c3b82846135a1565b611f2082826040516024016124d19291906134a1565b60408051601f198184030181529190526020810180516001600160e01b03166309710a9d60e41b179052612cf3565b604080516001600160a01b0385811660248301528481166044830152606480830185905283518084039091018152608490920183526020820180516001600160e01b03166323b872dd60e01b179052915160009283929088169161256491906133e3565b6000604051808303816000865af19150503d80600081146125a1576040519150601f19603f3d011682016040523d82523d6000602084013e6125a6565b606091505b50915091508180156125d05750805115806125d05750808060200190518101906125d091906130a7565b61188e5760405162461bcd60e51b8152602060048201526024808201527f5472616e7366657248656c7065723a205452414e534645525f46524f4d5f46416044820152631253115160e21b606482015260840161066f565b6001600160a01b0382166000908152601b602052604090205481106126855760405162461bcd60e51b81526020600482015260136024820152720d2dcecc2d8d2c840c2e4e4c2f240d2dcc8caf606b1b604482015260640161066f565b6001600160a01b0382166000908152601b60205260408120546126aa906001906136e3565b6001600160a01b0384166000908152601b60205260409020805491925090829081106126e657634e487b7160e01b600052603260045260246000fd5b9060005260206000209060080201601b6000856001600160a01b03166001600160a01b03168152602001908152602001600020838154811061273857634e487b7160e01b600052603260045260246000fd5b906000526020600020906008020160008201548160000155600182015481600101556002820154816002015560038201548160030155600482015481600401556005820154816005015560068201816006019080546127969061373d565b6127a1929190612eb8565b506007918201549101805460ff191660ff90921615159190911790556001600160a01b0383166000908152601b602052604090208054806127f257634e487b7160e01b600052603160045260246000fd5b60008281526020812060086000199093019283020181815560018101829055600281018290556003810182905560048101829055600581018290559061283b6006830182612f33565b50600701805460ff191690559055505050565b601a5460005b8181101561249257601a818154811061287d57634e487b7160e01b600052603260045260246000fd5b6000918252602090912001546001600160a01b038481169116141561297157601a6128a96001846136e3565b815481106128c757634e487b7160e01b600052603260045260246000fd5b600091825260209091200154601a80546001600160a01b03909216918390811061290157634e487b7160e01b600052603260045260246000fd5b9060005260206000200160006101000a8154816001600160a01b0302191690836001600160a01b03160217905550601a80548061294e57634e487b7160e01b600052603160045260246000fd5b600082815260209020810160001990810180546001600160a01b03191690550190555b8061297b81613778565b915050612854565b6000805b6001600160a01b0384166000908152601d6020526040902054811015612ac5576001600160a01b0384166000908152601b602052604090208054829081106129df57634e487b7160e01b600052603260045260246000fd5b906000526020600020906008020160000154831415612ab3576001600160a01b0384166000818152601b6020526040902080547f1d81f218937c6be897f82b1559501b28354ec734e6671c635cf1017112d9b786919084908110612a5357634e487b7160e01b600052603260045260246000fd5b9060005260206000209060080201604051612a6e919061358e565b60405180910390a2612a808482612628565b6001600160a01b0384166000908152601d60205260408120805491612aa483613726565b91905055506001915050611c3e565b80612abd81613778565b915050612987565b5060009392505050565b604080516001600160a01b038481166024830152604480830185905283518084039091018152606490920183526020820180516001600160e01b031663a9059cbb60e01b1790529151600092839290871691612b2b91906133e3565b6000604051808303816000865af19150503d8060008114612b68576040519150601f19603f3d011682016040523d82523d6000602084013e612b6d565b606091505b5091509150818015612b97575080511580612b97575080806020019051810190612b9791906130a7565b611eda5760405162461bcd60e51b815260206004820152601f60248201527f5472616e7366657248656c7065723a205452414e534645525f4641494c454400604482015260640161066f565b6040516001600160a01b0380851660248301528316604482015260648101829052612c1b9085906323b872dd60e01b9060840161245b565b50505050565b6000612c76826040518060400160405280602081526020017f5361666545524332303a206c6f772d6c6576656c2063616c6c206661696c6564815250856001600160a01b0316612d149092919063ffffffff16565b8051909150156124925780806020019051810190612c9491906130a7565b6124925760405162461bcd60e51b815260206004820152602a60248201527f5361666545524332303a204552433230206f7065726174696f6e20646964206e6044820152691bdd081cdd58d8d9595960b21b606482015260840161066f565b80516a636f6e736f6c652e6c6f67602083016000808483855afa5050505050565b6060611bae848460008585600080866001600160a01b03168587604051612d3b91906133e3565b60006040518083038185875af1925050503d8060008114612d78576040519150601f19603f3d011682016040523d82523d6000602084013e612d7d565b606091505b5091509150612d8e87838387612d99565b979650505050505050565b60608315612e05578251612dfe576001600160a01b0385163b612dfe5760405162461bcd60e51b815260206004820152601d60248201527f416464726573733a2063616c6c20746f206e6f6e2d636f6e7472616374000000604482015260640161066f565b5081611bae565b611bae8383815115612e1a5781518083602001fd5b8060405162461bcd60e51b815260040161066f919061348e565b828054612e409061373d565b90600052602060002090601f016020900481019282612e625760008555612ea8565b82601f10612e7b57805160ff1916838001178555612ea8565b82800160010185558215612ea8579182015b82811115612ea8578251825591602001919060010190612e8d565b50612eb4929150612f69565b5090565b828054612ec49061373d565b90600052602060002090601f016020900481019282612ee65760008555612ea8565b82601f10612ef75780548555612ea8565b82800160010185558215612ea857600052602060002091601f016020900482015b82811115612ea8578254825591600101919060010190612f18565b508054612f3f9061373d565b6000825580601f10612f4f575050565b601f016020900490600052602060002090810190610cba91905b5b80821115612eb45760008155600101612f6a565b80356001600160a01b0381168114612f9557600080fd5b919050565b60008083601f840112612fab578182fd5b50813567ffffffffffffffff811115612fc2578182fd5b602083019150836020828501011115612fda57600080fd5b9250929050565b600060208284031215612ff2578081fd5b611c3b82612f7e565b6000806040838503121561300d578081fd5b61301683612f7e565b915061302460208401612f7e565b90509250929050565b600080600060408486031215613041578081fd5b61304a84612f7e565b9250602084013567ffffffffffffffff811115613065578182fd5b61307186828701612f9a565b9497909650939450505050565b60008060408385031215613090578182fd5b61309983612f7e565b946020939093013593505050565b6000602082840312156130b8578081fd5b81518015158114610941578182fd5b600080602083850312156130d9578182fd5b823567ffffffffffffffff8111156130ef578283fd5b6130fb85828601612f9a565b90969095509350505050565b600080600080600080600060a0888a031215613121578283fd5b873567ffffffffffffffff80821115613138578485fd5b6131448b838c01612f9a565b909950975060208a0135965060408a0135955060608a0135945060808a0135915080821115613171578384fd5b5061317e8a828b01612f9a565b989b979a50959850939692959293505050565b6000602082840312156131a2578081fd5b5035919050565b6000602082840312156131ba578081fd5b5051919050565b600080604083850312156131d3578182fd5b50508035926020909101359150565b600080600080606085870312156131f7578384fd5b8435935060208501359250604085013567ffffffffffffffff81111561321b578283fd5b61322787828801612f9a565b95989497509550505050565b600080600060608486031215613247578283fd5b505081359360208301359350604090920135919050565b600080600080600080600060e0888a031215613278578283fd5b505085359760208701359750604087013596606081013596506080810135955060a0810135945060c0013592509050565b600081518084526132c18160208601602086016136fa565b601f01601f19169290920160200192915050565b8054600090600181811c90808316806132ef57607f831692505b602080841082141561330f57634e487b7160e01b86526022600452602486fd5b8388526020880182801561332a576001811461333b57613366565b60ff19871682528282019750613366565b60008981526020902060005b8781101561336057815484820152908601908401613347565b83019850505b5050505050505092915050565b60006101008254845260018301546020850152600283015460408501526003830154606085015260048301546080850152600583015460a08501528060c08501526133c3818501600685016132d5565b90506133d3600784015460ff1690565b80151560e0860152509392505050565b600082516133f58184602087016136fa565b9190910192915050565b8183823760009101908152919050565b60006101008a83528960208401528860408401528760608401528660808401528560a08401528060c0840152613447818401866132a9565b91505082151560e08301529998505050505050505050565b60208152816020820152818360408301376000818301604090810191909152601f909201601f19160101919050565b602081526000611c3b60208301846132a9565b6040815260006134b460408301856132a9565b90508260208301529392505050565b6020808252601590820152744e6f74206f776e6572206f722074696d656c6f636b60581b604082015260600190565b60208082526011908201527034b9903737ba1031b7b73a3937b63632b960791b604082015260600190565b6020815281516020820152602082015160408201526040820151606082015260608201516080820152608082015160a082015260a082015160c0820152600060c08301516101008060e08501526135786101208501836132a9565b60e0959095015115159301929092525090919050565b602081526000611c3b6020830184613373565b600082198211156135b4576135b4613793565b500190565b6000826135d457634e487b7160e01b81526012600452602481fd5b500490565b600181815b808511156136145781600019048211156135fa576135fa613793565b8085161561360757918102915b93841c93908002906135de565b509250929050565b6000611c3b838360008261363257506001611c3e565b8161363f57506000611c3e565b8160018114613655576002811461365f5761367b565b6001915050611c3e565b60ff84111561367057613670613793565b50506001821b611c3e565b5060208310610133831016604e8410600b841016171561369e575081810a611c3e565b6136a883836135d9565b80600019048211156136bc576136bc613793565b029392505050565b60008160001904831182151516156136de576136de613793565b500290565b6000828210156136f5576136f5613793565b500390565b60005b838110156137155781810151838201526020016136fd565b83811115612c1b5750506000910152565b60008161373557613735613793565b506000190190565b600181811c9082168061375157607f821691505b6020821081141561377257634e487b7160e01b600052602260045260246000fd5b50919050565b600060001982141561378c5761378c613793565b5060010190565b634e487b7160e01b600052601160045260246000fdfea26469706673582212206f517673c6d79c1d12d9e69709b5eede50ca3b8bdcc01343fddf64b00d51490764736f6c63430008040033",
  "devdoc": {
    "kind": "dev",
    "methods": {},
    "version": 1
  },
  "userdoc": {
    "kind": "user",
    "methods": {},
    "version": 1
  },
  "storageLayout": {
    "storage": [
      {
        "astId": 18752,
        "contract": "contracts/stablecoin/lendingpool.sol:LendingPool",
        "label": "owner",
        "offset": 0,
        "slot": "0",
        "type": "t_address"
      },
      {
        "astId": 18754,
        "contract": "contracts/stablecoin/lendingpool.sol:LendingPool",
        "label": "nominatedOwner",
        "offset": 0,
        "slot": "1",
        "type": "t_address"
      },
      {
        "astId": 17036,
        "contract": "contracts/stablecoin/lendingpool.sol:LendingPool",
        "label": "ds_address",
        "offset": 0,
        "slot": "2",
        "type": "t_address"
      },
      {
        "astId": 17038,
        "contract": "contracts/stablecoin/lendingpool.sol:LendingPool",
        "label": "dss_address",
        "offset": 0,
        "slot": "3",
        "type": "t_address"
      },
      {
        "astId": 17040,
        "contract": "contracts/stablecoin/lendingpool.sol:LendingPool",
        "label": "collateral_address",
        "offset": 0,
        "slot": "4",
        "type": "t_address"
      },
      {
        "astId": 17042,
        "contract": "contracts/stablecoin/lendingpool.sol:LendingPool",
        "label": "creator_address",
        "offset": 0,
        "slot": "5",
        "type": "t_address"
      },
      {
        "astId": 17044,
        "contract": "contracts/stablecoin/lendingpool.sol:LendingPool",
        "label": "timelock_address",
        "offset": 0,
        "slot": "6",
        "type": "t_address"
      },
      {
        "astId": 17046,
        "contract": "contracts/stablecoin/lendingpool.sol:LendingPool",
        "label": "pool_ceiling",
        "offset": 0,
        "slot": "7",
        "type": "t_uint256"
      },
      {
        "astId": 17048,
        "contract": "contracts/stablecoin/lendingpool.sol:LendingPool",
        "label": "bonus_rate",
        "offset": 0,
        "slot": "8",
        "type": "t_uint256"
      },
      {
        "astId": 17050,
        "contract": "contracts/stablecoin/lendingpool.sol:LendingPool",
        "label": "redemption_delay",
        "offset": 0,
        "slot": "9",
        "type": "t_uint256"
      },
      {
        "astId": 17052,
        "contract": "contracts/stablecoin/lendingpool.sol:LendingPool",
        "label": "minting_fee",
        "offset": 0,
        "slot": "10",
        "type": "t_uint256"
      },
      {
        "astId": 17054,
        "contract": "contracts/stablecoin/lendingpool.sol:LendingPool",
        "label": "redemption_fee",
        "offset": 0,
        "slot": "11",
        "type": "t_uint256"
      },
      {
        "astId": 17056,
        "contract": "contracts/stablecoin/lendingpool.sol:LendingPool",
        "label": "buyback_fee",
        "offset": 0,
        "slot": "12",
        "type": "t_uint256"
      },
      {
        "astId": 17058,
        "contract": "contracts/stablecoin/lendingpool.sol:LendingPool",
        "label": "recollat_fee",
        "offset": 0,
        "slot": "13",
        "type": "t_uint256"
      },
      {
        "astId": 17060,
        "contract": "contracts/stablecoin/lendingpool.sol:LendingPool",
        "label": "missing_decimals",
        "offset": 0,
        "slot": "14",
        "type": "t_uint256"
      },
      {
        "astId": 17066,
        "contract": "contracts/stablecoin/lendingpool.sol:LendingPool",
        "label": "DScontract",
        "offset": 0,
        "slot": "15",
        "type": "t_contract(DS)15150"
      },
      {
        "astId": 17069,
        "contract": "contracts/stablecoin/lendingpool.sol:LendingPool",
        "label": "DSScontract",
        "offset": 0,
        "slot": "16",
        "type": "t_contract(DSS)15325"
      },
      {
        "astId": 17073,
        "contract": "contracts/stablecoin/lendingpool.sol:LendingPool",
        "label": "redeemDSSBalances",
        "offset": 0,
        "slot": "17",
        "type": "t_mapping(t_address,t_uint256)"
      },
      {
        "astId": 17077,
        "contract": "contracts/stablecoin/lendingpool.sol:LendingPool",
        "label": "redeemCollateralBalances",
        "offset": 0,
        "slot": "18",
        "type": "t_mapping(t_address,t_uint256)"
      },
      {
        "astId": 17079,
        "contract": "contracts/stablecoin/lendingpool.sol:LendingPool",
        "label": "unclaimedPoolCollateral",
        "offset": 0,
        "slot": "19",
        "type": "t_uint256"
      },
      {
        "astId": 17081,
        "contract": "contracts/stablecoin/lendingpool.sol:LendingPool",
        "label": "unclaimedPoolDSS",
        "offset": 0,
        "slot": "20",
        "type": "t_uint256"
      },
      {
        "astId": 17085,
        "contract": "contracts/stablecoin/lendingpool.sol:LendingPool",
        "label": "lastRedeemed",
        "offset": 0,
        "slot": "21",
        "type": "t_mapping(t_address,t_uint256)"
      },
      {
        "astId": 17090,
        "contract": "contracts/stablecoin/lendingpool.sol:LendingPool",
        "label": "is_borrower",
        "offset": 0,
        "slot": "22",
        "type": "t_mapping(t_address,t_bool)"
      },
      {
        "astId": 17095,
        "contract": "contracts/stablecoin/lendingpool.sol:LendingPool",
        "label": "is_registered",
        "offset": 0,
        "slot": "23",
        "type": "t_mapping(t_address,t_bool)"
      },
      {
        "astId": 17100,
        "contract": "contracts/stablecoin/lendingpool.sol:LendingPool",
        "label": "borrower_allowance",
        "offset": 0,
        "slot": "24",
        "type": "t_mapping(t_address,t_uint256)"
      },
      {
        "astId": 17105,
        "contract": "contracts/stablecoin/lendingpool.sol:LendingPool",
        "label": "borrower_debt",
        "offset": 0,
        "slot": "25",
        "type": "t_mapping(t_address,t_uint256)"
      },
      {
        "astId": 17108,
        "contract": "contracts/stablecoin/lendingpool.sol:LendingPool",
        "label": "borrowers_array",
        "offset": 0,
        "slot": "26",
        "type": "t_array(t_address)dyn_storage"
      },
      {
        "astId": 17114,
        "contract": "contracts/stablecoin/lendingpool.sol:LendingPool",
        "label": "current_loan_data",
        "offset": 0,
        "slot": "27",
        "type": "t_mapping(t_address,t_array(t_struct(LoanMetadata)15385_storage)dyn_storage)"
      },
      {
        "astId": 17119,
        "contract": "contracts/stablecoin/lendingpool.sol:LendingPool",
        "label": "num_loans",
        "offset": 0,
        "slot": "28",
        "type": "t_mapping(t_address,t_uint256)"
      },
      {
        "astId": 17124,
        "contract": "contracts/stablecoin/lendingpool.sol:LendingPool",
        "label": "num_proposals",
        "offset": 0,
        "slot": "29",
        "type": "t_mapping(t_address,t_uint256)"
      },
      {
        "astId": 17132,
        "contract": "contracts/stablecoin/lendingpool.sol:LendingPool",
        "label": "total_borrowed_amount",
        "offset": 0,
        "slot": "30",
        "type": "t_uint256"
      },
      {
        "astId": 17136,
        "contract": "contracts/stablecoin/lendingpool.sol:LendingPool",
        "label": "accrued_interest",
        "offset": 0,
        "slot": "31",
        "type": "t_uint256"
      },
      {
        "astId": 17138,
        "contract": "contracts/stablecoin/lendingpool.sol:LendingPool",
        "label": "controller_address",
        "offset": 0,
        "slot": "32",
        "type": "t_address"
      }
    ],
    "types": {
      "t_address": {
        "encoding": "inplace",
        "label": "address",
        "numberOfBytes": "20"
      },
      "t_array(t_address)dyn_storage": {
        "base": "t_address",
        "encoding": "dynamic_array",
        "label": "address[]",
        "numberOfBytes": "32"
      },
      "t_array(t_struct(LoanMetadata)15385_storage)dyn_storage": {
        "base": "t_struct(LoanMetadata)15385_storage",
        "encoding": "dynamic_array",
        "label": "struct ILendingPool.LoanMetadata[]",
        "numberOfBytes": "32"
      },
      "t_bool": {
        "encoding": "inplace",
        "label": "bool",
        "numberOfBytes": "1"
      },
      "t_bytes32": {
        "encoding": "inplace",
        "label": "bytes32",
        "numberOfBytes": "32"
      },
      "t_contract(DS)15150": {
        "encoding": "inplace",
        "label": "contract DS",
        "numberOfBytes": "20"
      },
      "t_contract(DSS)15325": {
        "encoding": "inplace",
        "label": "contract DSS",
        "numberOfBytes": "20"
      },
      "t_mapping(t_address,t_array(t_struct(LoanMetadata)15385_storage)dyn_storage)": {
        "encoding": "mapping",
        "key": "t_address",
        "label": "mapping(address => struct ILendingPool.LoanMetadata[])",
        "numberOfBytes": "32",
        "value": "t_array(t_struct(LoanMetadata)15385_storage)dyn_storage"
      },
      "t_mapping(t_address,t_bool)": {
        "encoding": "mapping",
        "key": "t_address",
        "label": "mapping(address => bool)",
        "numberOfBytes": "32",
        "value": "t_bool"
      },
      "t_mapping(t_address,t_uint256)": {
        "encoding": "mapping",
        "key": "t_address",
        "label": "mapping(address => uint256)",
        "numberOfBytes": "32",
        "value": "t_uint256"
      },
      "t_string_storage": {
        "encoding": "bytes",
        "label": "string",
        "numberOfBytes": "32"
      },
      "t_struct(LoanMetadata)15385_storage": {
        "encoding": "inplace",
        "label": "struct ILendingPool.LoanMetadata",
        "members": [
          {
            "astId": 15370,
            "contract": "contracts/stablecoin/lendingpool.sol:LendingPool",
            "label": "id",
            "offset": 0,
            "slot": "0",
            "type": "t_bytes32"
          },
          {
            "astId": 15372,
            "contract": "contracts/stablecoin/lendingpool.sol:LendingPool",
            "label": "principal",
            "offset": 0,
            "slot": "1",
            "type": "t_uint256"
          },
          {
            "astId": 15374,
            "contract": "contracts/stablecoin/lendingpool.sol:LendingPool",
            "label": "totalDebt",
            "offset": 0,
            "slot": "2",
            "type": "t_uint256"
          },
          {
            "astId": 15376,
            "contract": "contracts/stablecoin/lendingpool.sol:LendingPool",
            "label": "duration",
            "offset": 0,
            "slot": "3",
            "type": "t_uint256"
          },
          {
            "astId": 15378,
            "contract": "contracts/stablecoin/lendingpool.sol:LendingPool",
            "label": "repaymentDate",
            "offset": 0,
            "slot": "4",
            "type": "t_uint256"
          },
          {
            "astId": 15380,
            "contract": "contracts/stablecoin/lendingpool.sol:LendingPool",
            "label": "amountRepaid",
            "offset": 0,
            "slot": "5",
            "type": "t_uint256"
          },
          {
            "astId": 15382,
            "contract": "contracts/stablecoin/lendingpool.sol:LendingPool",
            "label": "description",
            "offset": 0,
            "slot": "6",
            "type": "t_string_storage"
          },
          {
            "astId": 15384,
            "contract": "contracts/stablecoin/lendingpool.sol:LendingPool",
            "label": "approved",
            "offset": 0,
            "slot": "7",
            "type": "t_bool"
          }
        ],
        "numberOfBytes": "256"
      },
      "t_uint256": {
        "encoding": "inplace",
        "label": "uint256",
        "numberOfBytes": "32"
      }
    }
  }
}