{
  "address": "0x8312E1c9AF40B53B407631c39283FACa6a3E7870",
  "abi": [
    {
      "inputs": [
        {
          "internalType": "address",
          "name": "_ds_address",
          "type": "address"
        },
        {
          "internalType": "address",
          "name": "_dss_address",
          "type": "address"
        },
        {
          "internalType": "address",
          "name": "_collateral_address",
          "type": "address"
        },
        {
          "internalType": "address",
          "name": "_creator_address",
          "type": "address"
        },
        {
          "internalType": "address",
          "name": "_timelock_address",
          "type": "address"
        }
      ],
      "stateMutability": "nonpayable",
      "type": "constructor"
    },
    {
      "anonymous": false,
      "inputs": [
        {
          "indexed": false,
          "internalType": "address",
          "name": "oldOwner",
          "type": "address"
        },
        {
          "indexed": false,
          "internalType": "address",
          "name": "newOwner",
          "type": "address"
        }
      ],
      "name": "OwnerChanged",
      "type": "event"
    },
    {
      "anonymous": false,
      "inputs": [
        {
          "indexed": false,
          "internalType": "address",
          "name": "newOwner",
          "type": "address"
        }
      ],
      "name": "OwnerNominated",
      "type": "event"
    },
    {
      "inputs": [
        {
          "internalType": "address",
          "name": "borrower_address",
          "type": "address"
        }
      ],
      "name": "_isBorrower",
      "outputs": [
        {
          "internalType": "bool",
          "name": "",
          "type": "bool"
        }
      ],
      "stateMutability": "view",
      "type": "function"
    },
    {
      "inputs": [],
      "name": "acceptOwnership",
      "outputs": [],
      "stateMutability": "nonpayable",
      "type": "function"
    },
    {
      "inputs": [
        {
          "internalType": "address",
          "name": "_recipient",
          "type": "address"
        },
        {
          "internalType": "uint256",
          "name": "_principal",
          "type": "uint256"
        },
        {
          "internalType": "uint256",
          "name": "_totalDebt",
          "type": "uint256"
        },
        {
          "internalType": "uint256",
          "name": "_duration",
          "type": "uint256"
        },
        {
          "internalType": "contract ERC20",
          "name": "_underlyingToken",
          "type": "address"
        }
      ],
      "name": "addBorrower",
      "outputs": [],
      "stateMutability": "nonpayable",
      "type": "function"
    },
    {
      "inputs": [
        {
          "internalType": "address",
          "name": "_recipient",
          "type": "address"
        }
      ],
      "name": "approveBorrower",
      "outputs": [],
      "stateMutability": "nonpayable",
      "type": "function"
    },
    {
      "inputs": [
        {
          "internalType": "uint256",
          "name": "amount",
          "type": "uint256"
        }
      ],
      "name": "borrow",
      "outputs": [],
      "stateMutability": "nonpayable",
      "type": "function"
    },
    {
      "inputs": [
        {
          "internalType": "address",
          "name": "",
          "type": "address"
        }
      ],
      "name": "borrower_allowance",
      "outputs": [
        {
          "internalType": "uint256",
          "name": "",
          "type": "uint256"
        }
      ],
      "stateMutability": "view",
      "type": "function"
    },
    {
      "inputs": [
        {
          "internalType": "address",
          "name": "",
          "type": "address"
        }
      ],
      "name": "borrower_data",
      "outputs": [
        {
          "internalType": "contract ERC20",
          "name": "underlyingToken",
          "type": "address"
        },
        {
          "internalType": "uint256",
          "name": "principal",
          "type": "uint256"
        },
        {
          "internalType": "uint256",
          "name": "totalDebt",
          "type": "uint256"
        },
        {
          "internalType": "uint256",
          "name": "amountRepaid",
          "type": "uint256"
        },
        {
          "internalType": "uint256",
          "name": "duration",
          "type": "uint256"
        },
        {
          "internalType": "uint256",
          "name": "repaymentDate",
          "type": "uint256"
        },
        {
          "internalType": "address",
          "name": "recipient",
          "type": "address"
        }
      ],
      "stateMutability": "view",
      "type": "function"
    },
    {
      "inputs": [
        {
          "internalType": "address",
          "name": "",
          "type": "address"
        }
      ],
      "name": "borrower_debt",
      "outputs": [
        {
          "internalType": "uint256",
          "name": "",
          "type": "uint256"
        }
      ],
      "stateMutability": "view",
      "type": "function"
    },
    {
      "inputs": [
        {
          "internalType": "uint256",
          "name": "col_idx",
          "type": "uint256"
        }
      ],
      "name": "collectRedemption",
      "outputs": [
        {
          "internalType": "uint256",
          "name": "dss_amount",
          "type": "uint256"
        },
        {
          "internalType": "uint256",
          "name": "collateral_amount",
          "type": "uint256"
        }
      ],
      "stateMutability": "nonpayable",
      "type": "function"
    },
    {
      "inputs": [
        {
          "internalType": "address",
          "name": "borrower_address",
          "type": "address"
        }
      ],
      "name": "getBorrowerData",
      "outputs": [
        {
          "components": [
            {
              "internalType": "contract ERC20",
              "name": "underlyingToken",
              "type": "address"
            },
            {
              "internalType": "uint256",
              "name": "principal",
              "type": "uint256"
            },
            {
              "internalType": "uint256",
              "name": "totalDebt",
              "type": "uint256"
            },
            {
              "internalType": "uint256",
              "name": "amountRepaid",
              "type": "uint256"
            },
            {
              "internalType": "uint256",
              "name": "duration",
              "type": "uint256"
            },
            {
              "internalType": "uint256",
              "name": "repaymentDate",
              "type": "uint256"
            },
            {
              "internalType": "address",
              "name": "recipient",
              "type": "address"
            }
          ],
          "internalType": "struct LendingPool.LoanMetadata",
          "name": "",
          "type": "tuple"
        }
      ],
      "stateMutability": "view",
      "type": "function"
    },
    {
      "inputs": [
        {
          "internalType": "address",
          "name": "addr",
          "type": "address"
        }
      ],
      "name": "getRegistrationStatus",
      "outputs": [
        {
          "internalType": "bool",
          "name": "",
          "type": "bool"
        }
      ],
      "stateMutability": "view",
      "type": "function"
    },
    {
      "inputs": [],
      "name": "get_loan_data",
      "outputs": [
        {
          "components": [
            {
              "internalType": "uint256",
              "name": "_total_borrowed_amount",
              "type": "uint256"
            },
            {
              "internalType": "uint256",
              "name": "_accrued_interest",
              "type": "uint256"
            }
          ],
          "internalType": "struct LendingPool.LoanData",
          "name": "",
          "type": "tuple"
        }
      ],
      "stateMutability": "view",
      "type": "function"
    },
    {
      "inputs": [
        {
          "internalType": "address",
          "name": "",
          "type": "address"
        }
      ],
      "name": "isBorrower",
      "outputs": [
        {
          "internalType": "bool",
          "name": "",
          "type": "bool"
        }
      ],
      "stateMutability": "view",
      "type": "function"
    },
    {
      "inputs": [
        {
          "internalType": "address",
          "name": "",
          "type": "address"
        }
      ],
      "name": "isRegistered",
      "outputs": [
        {
          "internalType": "bool",
          "name": "",
          "type": "bool"
        }
      ],
      "stateMutability": "view",
      "type": "function"
    },
    {
      "inputs": [
        {
          "internalType": "address",
          "name": "",
          "type": "address"
        }
      ],
      "name": "lastRedeemed",
      "outputs": [
        {
          "internalType": "uint256",
          "name": "",
          "type": "uint256"
        }
      ],
      "stateMutability": "view",
      "type": "function"
    },
    {
      "inputs": [
        {
          "internalType": "uint256",
          "name": "collateral_amount",
          "type": "uint256"
        },
        {
          "internalType": "uint256",
          "name": "DS_out_min",
          "type": "uint256"
        }
      ],
      "name": "mintDS",
      "outputs": [],
      "stateMutability": "nonpayable",
      "type": "function"
    },
    {
      "inputs": [
        {
          "internalType": "address",
          "name": "_owner",
          "type": "address"
        }
      ],
      "name": "nominateNewOwner",
      "outputs": [],
      "stateMutability": "nonpayable",
      "type": "function"
    },
    {
      "inputs": [],
      "name": "nominatedOwner",
      "outputs": [
        {
          "internalType": "address",
          "name": "",
          "type": "address"
        }
      ],
      "stateMutability": "view",
      "type": "function"
    },
    {
      "inputs": [],
      "name": "owner",
      "outputs": [
        {
          "internalType": "address",
          "name": "",
          "type": "address"
        }
      ],
      "stateMutability": "view",
      "type": "function"
    },
    {
      "inputs": [],
      "name": "proposal_fee",
      "outputs": [
        {
          "internalType": "uint256",
          "name": "",
          "type": "uint256"
        }
      ],
      "stateMutability": "view",
      "type": "function"
    },
    {
      "inputs": [
        {
          "internalType": "address",
          "name": "",
          "type": "address"
        }
      ],
      "name": "redeemCollateralBalances",
      "outputs": [
        {
          "internalType": "uint256",
          "name": "",
          "type": "uint256"
        }
      ],
      "stateMutability": "view",
      "type": "function"
    },
    {
      "inputs": [
        {
          "internalType": "uint256",
          "name": "DS_amount",
          "type": "uint256"
        },
        {
          "internalType": "uint256",
          "name": "DSS_out_min",
          "type": "uint256"
        },
        {
          "internalType": "uint256",
          "name": "COLLATERAL_out_min",
          "type": "uint256"
        }
      ],
      "name": "redeemDS",
      "outputs": [],
      "stateMutability": "nonpayable",
      "type": "function"
    },
    {
      "inputs": [
        {
          "internalType": "address",
          "name": "",
          "type": "address"
        }
      ],
      "name": "redeemDSSBalances",
      "outputs": [
        {
          "internalType": "uint256",
          "name": "",
          "type": "uint256"
        }
      ],
      "stateMutability": "view",
      "type": "function"
    },
    {
      "inputs": [],
      "name": "registerBorrower",
      "outputs": [],
      "stateMutability": "nonpayable",
      "type": "function"
    },
    {
      "inputs": [
        {
          "internalType": "uint256",
          "name": "repay_principal",
          "type": "uint256"
        },
        {
          "internalType": "uint256",
          "name": "repay_interest",
          "type": "uint256"
        }
      ],
      "name": "repay",
      "outputs": [],
      "stateMutability": "nonpayable",
      "type": "function"
    },
    {
      "inputs": [
        {
          "internalType": "uint256",
          "name": "new_ceiling",
          "type": "uint256"
        },
        {
          "internalType": "uint256",
          "name": "new_bonus_rate",
          "type": "uint256"
        },
        {
          "internalType": "uint256",
          "name": "new_redemption_delay",
          "type": "uint256"
        },
        {
          "internalType": "uint256",
          "name": "new_mint_fee",
          "type": "uint256"
        },
        {
          "internalType": "uint256",
          "name": "new_redeem_fee",
          "type": "uint256"
        },
        {
          "internalType": "uint256",
          "name": "new_buyback_fee",
          "type": "uint256"
        },
        {
          "internalType": "uint256",
          "name": "new_recollat_fee",
          "type": "uint256"
        }
      ],
      "name": "setPoolParameters",
      "outputs": [],
      "stateMutability": "nonpayable",
      "type": "function"
    },
    {
      "inputs": [
        {
          "internalType": "address",
          "name": "_recipient",
          "type": "address"
        },
        {
          "internalType": "uint256",
          "name": "_principal",
          "type": "uint256"
        },
        {
          "internalType": "uint256",
          "name": "_totalDebt",
          "type": "uint256"
        },
        {
          "internalType": "uint256",
          "name": "_duration",
          "type": "uint256"
        },
        {
          "internalType": "contract ERC20",
          "name": "_underlyingToken",
          "type": "address"
        }
      ],
      "name": "submitProposal",
      "outputs": [],
      "stateMutability": "nonpayable",
      "type": "function"
    },
    {
      "inputs": [],
      "name": "unclaimedPoolCollateral",
      "outputs": [
        {
          "internalType": "uint256",
          "name": "",
          "type": "uint256"
        }
      ],
      "stateMutability": "view",
      "type": "function"
    },
    {
      "inputs": [],
      "name": "unclaimedPoolDSS",
      "outputs": [
        {
          "internalType": "uint256",
          "name": "",
          "type": "uint256"
        }
      ],
      "stateMutability": "view",
      "type": "function"
    }
  ],
  "transactionHash": "0x20378c9e1ebc3696765c72bb3417c21fa6c016c114dd4455e66e292cff477b54",
  "args": [
    "0x9d1c89B9bD2Fb153cE6838eF10BB37bB5F4e1528",
    "0x189f9dEE268dec96A75280c9D93E1D3103a8238D",
    "0x5799bFe361BEea69f808328FF4884DF92f1f66f0",
    "0xFD84b7AC1E646580db8c77f1f05F47977fAda692",
    "0xFD84b7AC1E646580db8c77f1f05F47977fAda692"
  ],
  "solcInputHash": "63a65ea2c7a8d8e451dc9af7f6162f0d",
  "bytecode": "0x60a06040523480156200001157600080fd5b50604051620020bd380380620020bd833981016040819052620000349162000317565b816001600160a01b03811662000091576040805162461bcd60e51b815260206004820152601960248201527f4f776e657220616464726573732063616e6e6f74206265203000000000000000604482015290519081900360640190fd5b600080546001600160a01b0319166001600160a01b038316908117825560408051928352602083019190915280517fb532073b38c83145e3e5135377a08bf9aab55bc0fd7c1179cd4fb995d2a5159c9281900390910190a1506001600160a01b038516158015906200010b57506001600160a01b03841615155b80156200012057506001600160a01b03831615155b80156200013557506001600160a01b03821615155b80156200014a57506001600160a01b03811615155b620001725760405162461bcd60e51b81526004016200016990620003b0565b60405180910390fd5b601080546001600160a01b03199081166001600160a01b038881169182179093556011805483168885169081179091556002805484169092179091556003805483169091179055600480546005805484168786161790556006805484168686161790558216868416908117831681178255600f805490931617918290556040805163313ce56760e01b815290516200028194939093169263313ce56792828101926020929190829003018186803b1580156200022d57600080fd5b505afa15801562000242573d6000803e3d6000fd5b505050506040513d601f19601f8201168201806040525081019062000268919062000386565b60ff1660126200029c60201b620012b91790919060201c565b600e555050678ac7230489e8000060805250620003e7915050565b600082821115620002f4576040805162461bcd60e51b815260206004820152601e60248201527f536166654d6174683a207375627472616374696f6e206f766572666c6f770000604482015290519081900360640190fd5b50900390565b80516001600160a01b03811681146200031257600080fd5b919050565b600080600080600060a086880312156200032f578081fd5b6200033a86620002fa565b94506200034a60208701620002fa565b93506200035a60408701620002fa565b92506200036a60608701620002fa565b91506200037a60808701620002fa565b90509295509295909350565b60006020828403121562000398578081fd5b815160ff81168114620003a9578182fd5b9392505050565b60208082526015908201527f5a65726f20616464726573732064657465637465640000000000000000000000604082015260600190565b608051611cb662000407600039806105b352806111875250611cb66000f3fe608060405234801561001057600080fd5b50600436106101cf5760003560e01c8063a8af4ff511610104578063cffafc4c116100a2578063e831878d11610071578063e831878d146103cf578063eaf6e483146103d7578063f43038c5146103ea578063f57e3fa5146103fd576101cf565b8063cffafc4c14610383578063d8aed14514610396578063e6c43911146103a9578063e705b263146103bc576101cf565b8063bcecd40f116100de578063bcecd40f14610342578063c1c76de81461034a578063c3c5a5471461035d578063c5ebeaec14610370576101cf565b8063a8af4ff5146102fc578063aa2299ae1461031c578063abae2c4c1461032f576101cf565b806379ba5097116101715780639a4719201161014b5780639a471920146102a05780639d202bf8146102b35780639f59ae4d146102d4578063a2abb4ea146102e7576101cf565b806379ba5097146102885780637b0461e9146102905780638da5cb5b14610298576101cf565b80634ebbe762116101ad5780634ebbe7621461023257806353a47bb7146102455780636cedcceb1461025a57806373431b5e14610262576101cf565b806308a7493d146101d45780631627540c146101fd5780634a0e542c14610212575b600080fd5b6101e76101e236600461183d565b610410565b6040516101f49190611ba8565b60405180910390f35b61021061020b36600461183d565b610422565b005b61022561022036600461183d565b6104bf565b6040516101f49190611b53565b61021061024036600461192a565b61053a565b61024d6105a2565b6040516101f49190611975565b6101e76105b1565b61027561027036600461183d565b6105d5565b6040516101f497969594939291906119ad565b61021061061d565b6101e76106d9565b61024d6106df565b6102106102ae36600461183d565b6106ee565b6102c66102c13660046118ae565b6107c5565b6040516101f4929190611bb1565b6102106102e23660046118ff565b61088d565b6102ef610b8e565b6040516101f49190611b3c565b61030f61030a36600461183d565b610bb1565b6040516101f491906119a2565b61021061032a366004611859565b610bcf565b6101e761033d36600461183d565b610cf8565b6101e7610d0a565b6101e761035836600461183d565b610d10565b61030f61036b36600461183d565b610d22565b61021061037e3660046118ae565b610d37565b61030f61039136600461183d565b610e85565b6102106103a43660046118de565b610ea3565b6101e76103b736600461183d565b610ff3565b6102106103ca366004611859565b611005565b610210611143565b61030f6103e536600461183d565b6111c7565b6101e76103f836600461183d565b6111dc565b61021061040b3660046118de565b6111ee565b60136020526000908152604090205481565b6000546001600160a01b0316331461046b5760405162461bcd60e51b815260040180806020018281038252602f815260200180611c0d602f913960400191505060405180910390fd5b600180546001600160a01b0383166001600160a01b0319909116811790915560408051918252517f906a1c6bd7e3091ea86693dd029a831c19049ce77f1dce2ce0bab1cacbabce229181900360200190a150565b6104c76117d4565b506001600160a01b039081166000908152601b6020908152604091829020825160e0810184528154851681526001820154928101929092526002810154928201929092526003820154606082015260048201546080820152600582015460a082015260069091015490911660c082015290565b6006546001600160a01b031633148061055d57506000546001600160a01b031633145b6105825760405162461bcd60e51b8152600401610579906119ea565b60405180910390fd5b600796909655600894909455600992909255600a55600b55600c55600d55565b6001546001600160a01b031681565b7f000000000000000000000000000000000000000000000000000000000000000081565b601b6020526000908152604090208054600182015460028301546003840154600485015460058601546006909601546001600160a01b03958616969495939492939192911687565b6001546001600160a01b031633146106665760405162461bcd60e51b8152600401808060200182810382526035815260200180611bd86035913960400191505060405180910390fd5b600054600154604080516001600160a01b03938416815292909116602083015280517fb532073b38c83145e3e5135377a08bf9aab55bc0fd7c1179cd4fb995d2a5159c9281900390910190a160018054600080546001600160a01b03199081166001600160a01b03841617909155169055565b60145481565b6000546001600160a01b031681565b6006546001600160a01b031633148061071157506000546001600160a01b031633145b61072d5760405162461bcd60e51b8152600401610579906119ea565b6001600160a01b038116600090815260186020526040902054819060ff166107675760405162461bcd60e51b815260040161057990611a87565b6001600160a01b03821660009081526017602052604090205460ff16156107a05760405162461bcd60e51b815260040161057990611a50565b506001600160a01b03166000908152601760205260409020805460ff19166001179055565b336000908152601260205260408120548190819081901561080c57336000908152601260205260408120805491905560155490945061080490856112b9565b601555600191505b336000908152601360205260409020541561084c57336000908152601360205260408120805491905560145490935061084590846112b9565b6014555060015b811561086957601154610869906001600160a01b0316338661131b565b801561088657600454610886906001600160a01b0316338561131b565b5050915091565b60105460408051634ed9ac1f60e01b815290516000926001600160a01b031691634ed9ac1f916004808301926020929190829003018186803b1580156108d257600080fd5b505afa1580156108e6573d6000803e3d6000fd5b505050506040513d601f19601f8201168201806040525081019061090a91906118c6565b90506000601060009054906101000a90046001600160a01b03166001600160a01b031663545108636040518163ffffffff1660e01b815260040160206040518083038186803b15801561095c57600080fd5b505afa158015610970573d6000803e3d6000fd5b505050506040513d601f19601f8201168201806040525081019061099491906118c6565b905060006109b0600e54600a0a8761148490919063ffffffff16565b905060006109e3620f42406109dd6109d6600b54620f42406112b990919063ffffffff16565b8a90611484565b906114e4565b90506000610a026109fb620f42406109dd8588611484565b83906112b9565b90506000610a17866109dd84620f4240611484565b9050826000610a2d620f42406109dd848a611484565b336000908152601360205260409020549091508190610a4c908261154b565b33600090815260136020526040902055601454610a69908261154b565b60145533600090815260126020526040902054610a86908561154b565b33600090815260126020526040902055601554610aa3908561154b565b60155533600081815260166020526040908190204390556010549051631211faed60e31b81526001600160a01b039091169163908fd76891610aea91908b90600401611989565b600060405180830381600087803b158015610b0457600080fd5b505af1158015610b18573d6000803e3d6000fd5b5050601154604051635a7ab59360e11b81526001600160a01b03909116925063b4f56b269150610b4e9030908890600401611989565b600060405180830381600087803b158015610b6857600080fd5b505af1158015610b7c573d6000803e3d6000fd5b50505050505050505050505050505050565b610b96611823565b5060408051808201909152601c548152601d54602082015290565b6001600160a01b031660009081526018602052604090205460ff1690565b6001600160a01b038516600090815260186020526040902054859060ff16610c095760405162461bcd60e51b815260040161057990611a87565b6001600160a01b03861660009081526017602052604090205460ff1615610c425760405162461bcd60e51b815260040161057990611a50565b6001600160a01b038616610c5557600080fd5b506040805160e0810182526001600160a01b0392831681526020808201968752818301958652600060608301818152608084018781524290970160a0850190815299861660c08501818152908352601b909352939020915182549085166001600160a01b03199182161783559651600183015594516002820155905160038201559151600483015593516005820155905160069091018054919093169116179055565b60166020526000908152604090205481565b60155481565b60196020526000908152604090205481565b60186020526000908152604090205460ff1681565b3360009081526017602052604090205460ff16610d665760405162461bcd60e51b815260040161057990611ae9565b3360008181526018602052604090205460ff16610d955760405162461bcd60e51b815260040161057990611a87565b33600090815260196020526040902054821115610dc45760405162461bcd60e51b815260040161057990611ab2565b336000908152601b6020908152604080832060010154601a909252909120541115610e015760405162461bcd60e51b815260040161057990611b12565b33600090815260196020526040902054610e1b90836112b9565b33600081815260196020526040902091909155600454610e47916001600160a01b03909116908461131b565b336000908152601a6020526040902054610e61908361154b565b336000908152601a6020526040902055601c54610e7e908361154b565b601c555050565b6001600160a01b031660009081526017602052604090205460ff1690565b3360009081526017602052604090205460ff16610ed25760405162461bcd60e51b815260040161057990611ae9565b6000610ede838361154b565b600454909150610ef9906001600160a01b03163330846115a5565b336000908152601a6020526040902054610f1390846112b9565b336000908152601a6020526040902055601d54610f30908361154b565b50610f6a604051806040016040528060158152602001741d1bdd185b17d89bdc9c9bddd95917d85b5bdd5b9d605a1b815250601c54611701565b601c54610f7790846112b9565b601c55336000908152601a6020526040902054610fee57336000908152601760209081526040808320805460ff19169055601b909152812080546001600160a01b03199081168255600182018390556002820183905560038201839055600482018390556005820192909255600601805490911690555b505050565b601a6020526000908152604090205481565b6006546001600160a01b031633148061102857506000546001600160a01b031633145b6110445760405162461bcd60e51b8152600401610579906119ea565b6001600160a01b03851660009081526017602052604090205460ff161561107d5760405162461bcd60e51b815260040161057990611a50565b6001600160a01b039485166000818152601760209081526040808320805460ff1916600190811790915560198352818420899055815160e081018352958a16865285830198895285820197885260608601848152608087018881524290980160a0880190815260c08801878152968652601b9094529190932094518554908a166001600160a01b03199182161786559751928501929092559451600284015551600383015591516004820155915160058301555160069091018054919093169116179055565b3360009081526018602052604090205460ff16156111735760405162461bcd60e51b815260040161057990611a19565b600f546111ab906001600160a01b031633307f00000000000000000000000000000000000000000000000000000000000000006115a5565b336000908152601860205260409020805460ff19166001179055565b60176020526000908152604090205460ff1681565b60126020526000908152604090205481565b6000600e54600a0a830290506000819050611228620f42406109dd611221600a54620f42406112b990919063ffffffff16565b8490611484565b90508083111561123757600080fd5b600f5461124f906001600160a01b03163330876115a5565b601054604051635a7ab59360e11b81526001600160a01b039091169063b4f56b26906112819033908590600401611989565b600060405180830381600087803b15801561129b57600080fd5b505af11580156112af573d6000803e3d6000fd5b5050505050505050565b600082821115611310576040805162461bcd60e51b815260206004820152601e60248201527f536166654d6174683a207375627472616374696f6e206f766572666c6f770000604482015290519081900360640190fd5b508082035b92915050565b604080516001600160a01b038481166024830152604480830185905283518084039091018152606490920183526020820180516001600160e01b031663a9059cbb60e01b1781529251825160009485949389169392918291908083835b602083106113975780518252601f199092019160209182019101611378565b6001836020036101000a0380198251168184511680821785525050505050509050019150506000604051808303816000865af19150503d80600081146113f9576040519150601f19603f3d011682016040523d82523d6000602084013e6113fe565b606091505b509150915081801561142c57508051158061142c575080806020019051602081101561142957600080fd5b50515b61147d576040805162461bcd60e51b815260206004820152601f60248201527f5472616e7366657248656c7065723a205452414e534645525f4641494c454400604482015290519081900360640190fd5b5050505050565b60008261149357506000611315565b828202828482816114a057fe5b04146114dd5760405162461bcd60e51b8152600401808060200182810382526021815260200180611c3c6021913960400191505060405180910390fd5b9392505050565b600080821161153a576040805162461bcd60e51b815260206004820152601a60248201527f536166654d6174683a206469766973696f6e206279207a65726f000000000000604482015290519081900360640190fd5b81838161154357fe5b049392505050565b6000828201838110156114dd576040805162461bcd60e51b815260206004820152601b60248201527f536166654d6174683a206164646974696f6e206f766572666c6f770000000000604482015290519081900360640190fd5b604080516001600160a01b0385811660248301528481166044830152606480830185905283518084039091018152608490920183526020820180516001600160e01b03166323b872dd60e01b178152925182516000948594938a169392918291908083835b602083106116295780518252601f19909201916020918201910161160a565b6001836020036101000a0380198251168184511680821785525050505050509050019150506000604051808303816000865af19150503d806000811461168b576040519150601f19603f3d011682016040523d82523d6000602084013e611690565b606091505b50915091508180156116be5750805115806116be57508080602001905160208110156116bb57600080fd5b50515b6116f95760405162461bcd60e51b8152600401808060200182810382526024815260200180611c5d6024913960400191505060405180910390fd5b505050505050565b6117af82826040516024018080602001838152602001828103825284818151815260200191508051906020019080838360005b8381101561174c578181015183820152602001611734565b50505050905090810190601f1680156117795780820380516001836020036101000a031916815260200191505b5060408051601f198184030181529190526020810180516001600160e01b03166309710a9d60e41b17905293506117b392505050565b5050565b80516a636f6e736f6c652e6c6f67602083016000808483855afa5050505050565b6040518060e0016040528060006001600160a01b03168152602001600081526020016000815260200160008152602001600081526020016000815260200160006001600160a01b031681525090565b604051806040016040528060008152602001600081525090565b60006020828403121561184e578081fd5b81356114dd81611bbf565b600080600080600060a08688031215611870578081fd5b853561187b81611bbf565b945060208601359350604086013592506060860135915060808601356118a081611bbf565b809150509295509295909350565b6000602082840312156118bf578081fd5b5035919050565b6000602082840312156118d7578081fd5b5051919050565b600080604083850312156118f0578182fd5b50508035926020909101359150565b600080600060608486031215611913578283fd5b505081359360208301359350604090920135919050565b600080600080600080600060e0888a031215611944578182fd5b505085359760208701359750604087013596606081013596506080810135955060a0810135945060c0013592509050565b6001600160a01b0391909116815260200190565b6001600160a01b03929092168252602082015260400190565b901515815260200190565b6001600160a01b039788168152602081019690965260408601949094526060850192909252608084015260a083015290911660c082015260e00190565b6020808252601590820152744e6f74206f776e6572206f722074696d656c6f636b60581b604082015260600190565b60208082526019908201527f616c726561647920706169642070726f706f73616c2066656500000000000000604082015260600190565b60208082526019908201527f416c726561647920417070726f76656420426f72726f77657200000000000000604082015260600190565b6020808252601190820152701a5cc81b9bdd081c9959da5cdd195c9959607a1b604082015260600190565b60208082526018908201527f4578636565647320626f72726f7720616c6c6f77616e63650000000000000000604082015260600190565b6020808252600f908201526e24b9902737ba102137b93937bbb2b960891b604082015260600190565b60208082526010908201526f105b1c9958591e48109bdc9c9bddd95960821b604082015260600190565b815181526020918201519181019190915260400190565b81516001600160a01b0390811682526020808401519083015260408084015190830152606080840151908301526080808401519083015260a0838101519083015260c092830151169181019190915260e00190565b90815260200190565b918252602082015260400190565b6001600160a01b0381168114611bd457600080fd5b5056fe596f75206d757374206265206e6f6d696e61746564206265666f726520796f752063616e20616363657074206f776e6572736869704f6e6c792074686520636f6e7472616374206f776e6572206d617920706572666f726d207468697320616374696f6e536166654d6174683a206d756c7469706c69636174696f6e206f766572666c6f775472616e7366657248656c7065723a205452414e534645525f46524f4d5f4641494c4544a2646970667358221220070f03bfbfd9bd4ee0ed7ff0a45b0f073150567751d9e524c2480edcdede454664736f6c63430007060033",
  "devdoc": {
    "kind": "dev",
    "methods": {},
    "version": 1
  },
  "userdoc": {
    "kind": "user",
    "methods": {},
    "version": 1
  },
  "storageLayout": {
    "storage": [
      {
        "astId": 17936,
        "contract": "contracts/stablecoin/lendingpool.sol:LendingPool",
        "label": "owner",
        "offset": 0,
        "slot": "0",
        "type": "t_address"
      },
      {
        "astId": 17938,
        "contract": "contracts/stablecoin/lendingpool.sol:LendingPool",
        "label": "nominatedOwner",
        "offset": 0,
        "slot": "1",
        "type": "t_address"
      },
      {
        "astId": 16930,
        "contract": "contracts/stablecoin/lendingpool.sol:LendingPool",
        "label": "ds_address",
        "offset": 0,
        "slot": "2",
        "type": "t_address"
      },
      {
        "astId": 16932,
        "contract": "contracts/stablecoin/lendingpool.sol:LendingPool",
        "label": "dss_address",
        "offset": 0,
        "slot": "3",
        "type": "t_address"
      },
      {
        "astId": 16934,
        "contract": "contracts/stablecoin/lendingpool.sol:LendingPool",
        "label": "collateral_address",
        "offset": 0,
        "slot": "4",
        "type": "t_address"
      },
      {
        "astId": 16936,
        "contract": "contracts/stablecoin/lendingpool.sol:LendingPool",
        "label": "creator_address",
        "offset": 0,
        "slot": "5",
        "type": "t_address"
      },
      {
        "astId": 16938,
        "contract": "contracts/stablecoin/lendingpool.sol:LendingPool",
        "label": "timelock_address",
        "offset": 0,
        "slot": "6",
        "type": "t_address"
      },
      {
        "astId": 16940,
        "contract": "contracts/stablecoin/lendingpool.sol:LendingPool",
        "label": "pool_ceiling",
        "offset": 0,
        "slot": "7",
        "type": "t_uint256"
      },
      {
        "astId": 16942,
        "contract": "contracts/stablecoin/lendingpool.sol:LendingPool",
        "label": "bonus_rate",
        "offset": 0,
        "slot": "8",
        "type": "t_uint256"
      },
      {
        "astId": 16944,
        "contract": "contracts/stablecoin/lendingpool.sol:LendingPool",
        "label": "redemption_delay",
        "offset": 0,
        "slot": "9",
        "type": "t_uint256"
      },
      {
        "astId": 16946,
        "contract": "contracts/stablecoin/lendingpool.sol:LendingPool",
        "label": "minting_fee",
        "offset": 0,
        "slot": "10",
        "type": "t_uint256"
      },
      {
        "astId": 16948,
        "contract": "contracts/stablecoin/lendingpool.sol:LendingPool",
        "label": "redemption_fee",
        "offset": 0,
        "slot": "11",
        "type": "t_uint256"
      },
      {
        "astId": 16950,
        "contract": "contracts/stablecoin/lendingpool.sol:LendingPool",
        "label": "buyback_fee",
        "offset": 0,
        "slot": "12",
        "type": "t_uint256"
      },
      {
        "astId": 16952,
        "contract": "contracts/stablecoin/lendingpool.sol:LendingPool",
        "label": "recollat_fee",
        "offset": 0,
        "slot": "13",
        "type": "t_uint256"
      },
      {
        "astId": 16954,
        "contract": "contracts/stablecoin/lendingpool.sol:LendingPool",
        "label": "missing_decimals",
        "offset": 0,
        "slot": "14",
        "type": "t_uint256"
      },
      {
        "astId": 16959,
        "contract": "contracts/stablecoin/lendingpool.sol:LendingPool",
        "label": "collateral_token",
        "offset": 0,
        "slot": "15",
        "type": "t_contract(ERC20)5733"
      },
      {
        "astId": 16961,
        "contract": "contracts/stablecoin/lendingpool.sol:LendingPool",
        "label": "DScontract",
        "offset": 0,
        "slot": "16",
        "type": "t_contract(DS)16527"
      },
      {
        "astId": 16963,
        "contract": "contracts/stablecoin/lendingpool.sol:LendingPool",
        "label": "DSScontract",
        "offset": 0,
        "slot": "17",
        "type": "t_contract(DSS)16702"
      },
      {
        "astId": 16967,
        "contract": "contracts/stablecoin/lendingpool.sol:LendingPool",
        "label": "redeemDSSBalances",
        "offset": 0,
        "slot": "18",
        "type": "t_mapping(t_address,t_uint256)"
      },
      {
        "astId": 16971,
        "contract": "contracts/stablecoin/lendingpool.sol:LendingPool",
        "label": "redeemCollateralBalances",
        "offset": 0,
        "slot": "19",
        "type": "t_mapping(t_address,t_uint256)"
      },
      {
        "astId": 16973,
        "contract": "contracts/stablecoin/lendingpool.sol:LendingPool",
        "label": "unclaimedPoolCollateral",
        "offset": 0,
        "slot": "20",
        "type": "t_uint256"
      },
      {
        "astId": 16975,
        "contract": "contracts/stablecoin/lendingpool.sol:LendingPool",
        "label": "unclaimedPoolDSS",
        "offset": 0,
        "slot": "21",
        "type": "t_uint256"
      },
      {
        "astId": 16979,
        "contract": "contracts/stablecoin/lendingpool.sol:LendingPool",
        "label": "lastRedeemed",
        "offset": 0,
        "slot": "22",
        "type": "t_mapping(t_address,t_uint256)"
      },
      {
        "astId": 16983,
        "contract": "contracts/stablecoin/lendingpool.sol:LendingPool",
        "label": "isBorrower",
        "offset": 0,
        "slot": "23",
        "type": "t_mapping(t_address,t_bool)"
      },
      {
        "astId": 16987,
        "contract": "contracts/stablecoin/lendingpool.sol:LendingPool",
        "label": "isRegistered",
        "offset": 0,
        "slot": "24",
        "type": "t_mapping(t_address,t_bool)"
      },
      {
        "astId": 16991,
        "contract": "contracts/stablecoin/lendingpool.sol:LendingPool",
        "label": "borrower_allowance",
        "offset": 0,
        "slot": "25",
        "type": "t_mapping(t_address,t_uint256)"
      },
      {
        "astId": 16995,
        "contract": "contracts/stablecoin/lendingpool.sol:LendingPool",
        "label": "borrower_debt",
        "offset": 0,
        "slot": "26",
        "type": "t_mapping(t_address,t_uint256)"
      },
      {
        "astId": 16999,
        "contract": "contracts/stablecoin/lendingpool.sol:LendingPool",
        "label": "borrower_data",
        "offset": 0,
        "slot": "27",
        "type": "t_mapping(t_address,t_struct(LoanMetadata)16920_storage)"
      },
      {
        "astId": 17001,
        "contract": "contracts/stablecoin/lendingpool.sol:LendingPool",
        "label": "total_borrowed_amount",
        "offset": 0,
        "slot": "28",
        "type": "t_uint256"
      },
      {
        "astId": 17005,
        "contract": "contracts/stablecoin/lendingpool.sol:LendingPool",
        "label": "accrued_interest",
        "offset": 0,
        "slot": "29",
        "type": "t_uint256"
      }
    ],
    "types": {
      "t_address": {
        "encoding": "inplace",
        "label": "address",
        "numberOfBytes": "20"
      },
      "t_bool": {
        "encoding": "inplace",
        "label": "bool",
        "numberOfBytes": "1"
      },
      "t_contract(DS)16527": {
        "encoding": "inplace",
        "label": "contract DS",
        "numberOfBytes": "20"
      },
      "t_contract(DSS)16702": {
        "encoding": "inplace",
        "label": "contract DSS",
        "numberOfBytes": "20"
      },
      "t_contract(ERC20)5733": {
        "encoding": "inplace",
        "label": "contract ERC20",
        "numberOfBytes": "20"
      },
      "t_mapping(t_address,t_bool)": {
        "encoding": "mapping",
        "key": "t_address",
        "label": "mapping(address => bool)",
        "numberOfBytes": "32",
        "value": "t_bool"
      },
      "t_mapping(t_address,t_struct(LoanMetadata)16920_storage)": {
        "encoding": "mapping",
        "key": "t_address",
        "label": "mapping(address => struct LendingPool.LoanMetadata)",
        "numberOfBytes": "32",
        "value": "t_struct(LoanMetadata)16920_storage"
      },
      "t_mapping(t_address,t_uint256)": {
        "encoding": "mapping",
        "key": "t_address",
        "label": "mapping(address => uint256)",
        "numberOfBytes": "32",
        "value": "t_uint256"
      },
      "t_struct(LoanMetadata)16920_storage": {
        "encoding": "inplace",
        "label": "struct LendingPool.LoanMetadata",
        "members": [
          {
            "astId": 16907,
            "contract": "contracts/stablecoin/lendingpool.sol:LendingPool",
            "label": "underlyingToken",
            "offset": 0,
            "slot": "0",
            "type": "t_contract(ERC20)5733"
          },
          {
            "astId": 16909,
            "contract": "contracts/stablecoin/lendingpool.sol:LendingPool",
            "label": "principal",
            "offset": 0,
            "slot": "1",
            "type": "t_uint256"
          },
          {
            "astId": 16911,
            "contract": "contracts/stablecoin/lendingpool.sol:LendingPool",
            "label": "totalDebt",
            "offset": 0,
            "slot": "2",
            "type": "t_uint256"
          },
          {
            "astId": 16913,
            "contract": "contracts/stablecoin/lendingpool.sol:LendingPool",
            "label": "amountRepaid",
            "offset": 0,
            "slot": "3",
            "type": "t_uint256"
          },
          {
            "astId": 16915,
            "contract": "contracts/stablecoin/lendingpool.sol:LendingPool",
            "label": "duration",
            "offset": 0,
            "slot": "4",
            "type": "t_uint256"
          },
          {
            "astId": 16917,
            "contract": "contracts/stablecoin/lendingpool.sol:LendingPool",
            "label": "repaymentDate",
            "offset": 0,
            "slot": "5",
            "type": "t_uint256"
          },
          {
            "astId": 16919,
            "contract": "contracts/stablecoin/lendingpool.sol:LendingPool",
            "label": "recipient",
            "offset": 0,
            "slot": "6",
            "type": "t_address"
          }
        ],
        "numberOfBytes": "224"
      },
      "t_uint256": {
        "encoding": "inplace",
        "label": "uint256",
        "numberOfBytes": "32"
      }
    }
  }
}