{
  "address": "0x7eEea60c374187FAF1c00D82427788BAb3a096CD",
  "abi": [
    {
      "inputs": [
        {
          "internalType": "address",
          "name": "_ds_address",
          "type": "address"
        },
        {
          "internalType": "address",
          "name": "_dss_address",
          "type": "address"
        },
        {
          "internalType": "address",
          "name": "_collateral_address",
          "type": "address"
        },
        {
          "internalType": "address",
          "name": "_creator_address",
          "type": "address"
        },
        {
          "internalType": "address",
          "name": "_timelock_address",
          "type": "address"
        }
      ],
      "stateMutability": "nonpayable",
      "type": "constructor"
    },
    {
      "anonymous": false,
      "inputs": [
        {
          "indexed": true,
          "internalType": "address",
          "name": "defaultor",
          "type": "address"
        },
        {
          "components": [
            {
              "internalType": "bytes32",
              "name": "id",
              "type": "bytes32"
            },
            {
              "internalType": "uint256",
              "name": "principal",
              "type": "uint256"
            },
            {
              "internalType": "uint256",
              "name": "totalDebt",
              "type": "uint256"
            },
            {
              "internalType": "uint256",
              "name": "duration",
              "type": "uint256"
            },
            {
              "internalType": "uint256",
              "name": "repaymentDate",
              "type": "uint256"
            },
            {
              "internalType": "uint256",
              "name": "amountRepaid",
              "type": "uint256"
            },
            {
              "internalType": "string",
              "name": "description",
              "type": "string"
            },
            {
              "internalType": "bool",
              "name": "approved",
              "type": "bool"
            }
          ],
          "indexed": false,
          "internalType": "struct ILendingPool.LoanMetadata",
          "name": "loan",
          "type": "tuple"
        }
      ],
      "name": "Default",
      "type": "event"
    },
    {
      "anonymous": false,
      "inputs": [
        {
          "indexed": true,
          "internalType": "address",
          "name": "recipient",
          "type": "address"
        },
        {
          "components": [
            {
              "internalType": "bytes32",
              "name": "id",
              "type": "bytes32"
            },
            {
              "internalType": "uint256",
              "name": "principal",
              "type": "uint256"
            },
            {
              "internalType": "uint256",
              "name": "totalDebt",
              "type": "uint256"
            },
            {
              "internalType": "uint256",
              "name": "duration",
              "type": "uint256"
            },
            {
              "internalType": "uint256",
              "name": "repaymentDate",
              "type": "uint256"
            },
            {
              "internalType": "uint256",
              "name": "amountRepaid",
              "type": "uint256"
            },
            {
              "internalType": "string",
              "name": "description",
              "type": "string"
            },
            {
              "internalType": "bool",
              "name": "approved",
              "type": "bool"
            }
          ],
          "indexed": false,
          "internalType": "struct ILendingPool.LoanMetadata",
          "name": "loan",
          "type": "tuple"
        }
      ],
      "name": "FullRepayment",
      "type": "event"
    },
    {
      "anonymous": false,
      "inputs": [
        {
          "indexed": true,
          "internalType": "address",
          "name": "recipient",
          "type": "address"
        },
        {
          "indexed": false,
          "internalType": "uint256",
          "name": "amount",
          "type": "uint256"
        }
      ],
      "name": "FundsBorrowed",
      "type": "event"
    },
    {
      "anonymous": false,
      "inputs": [
        {
          "indexed": true,
          "internalType": "address",
          "name": "recipient",
          "type": "address"
        },
        {
          "components": [
            {
              "internalType": "bytes32",
              "name": "id",
              "type": "bytes32"
            },
            {
              "internalType": "uint256",
              "name": "principal",
              "type": "uint256"
            },
            {
              "internalType": "uint256",
              "name": "totalDebt",
              "type": "uint256"
            },
            {
              "internalType": "uint256",
              "name": "duration",
              "type": "uint256"
            },
            {
              "internalType": "uint256",
              "name": "repaymentDate",
              "type": "uint256"
            },
            {
              "internalType": "uint256",
              "name": "amountRepaid",
              "type": "uint256"
            },
            {
              "internalType": "string",
              "name": "description",
              "type": "string"
            },
            {
              "internalType": "bool",
              "name": "approved",
              "type": "bool"
            }
          ],
          "indexed": false,
          "internalType": "struct ILendingPool.LoanMetadata",
          "name": "loan",
          "type": "tuple"
        }
      ],
      "name": "LoanApproval",
      "type": "event"
    },
    {
      "anonymous": false,
      "inputs": [
        {
          "indexed": true,
          "internalType": "address",
          "name": "recipient",
          "type": "address"
        },
        {
          "indexed": false,
          "internalType": "string",
          "name": "loan_id",
          "type": "string"
        }
      ],
      "name": "LoanProposal",
      "type": "event"
    },
    {
      "anonymous": false,
      "inputs": [
        {
          "indexed": true,
          "internalType": "address",
          "name": "recipient",
          "type": "address"
        },
        {
          "components": [
            {
              "internalType": "bytes32",
              "name": "id",
              "type": "bytes32"
            },
            {
              "internalType": "uint256",
              "name": "principal",
              "type": "uint256"
            },
            {
              "internalType": "uint256",
              "name": "totalDebt",
              "type": "uint256"
            },
            {
              "internalType": "uint256",
              "name": "duration",
              "type": "uint256"
            },
            {
              "internalType": "uint256",
              "name": "repaymentDate",
              "type": "uint256"
            },
            {
              "internalType": "uint256",
              "name": "amountRepaid",
              "type": "uint256"
            },
            {
              "internalType": "string",
              "name": "description",
              "type": "string"
            },
            {
              "internalType": "bool",
              "name": "approved",
              "type": "bool"
            }
          ],
          "indexed": false,
          "internalType": "struct ILendingPool.LoanMetadata",
          "name": "loan",
          "type": "tuple"
        }
      ],
      "name": "LoanProposalRemoval",
      "type": "event"
    },
    {
      "anonymous": false,
      "inputs": [
        {
          "indexed": false,
          "internalType": "address",
          "name": "oldOwner",
          "type": "address"
        },
        {
          "indexed": false,
          "internalType": "address",
          "name": "newOwner",
          "type": "address"
        }
      ],
      "name": "OwnerChanged",
      "type": "event"
    },
    {
      "anonymous": false,
      "inputs": [
        {
          "indexed": false,
          "internalType": "address",
          "name": "newOwner",
          "type": "address"
        }
      ],
      "name": "OwnerNominated",
      "type": "event"
    },
    {
      "inputs": [],
      "name": "acceptOwnership",
      "outputs": [],
      "stateMutability": "nonpayable",
      "type": "function"
    },
    {
      "inputs": [
        {
          "internalType": "string",
          "name": "_id",
          "type": "string"
        },
        {
          "internalType": "uint256",
          "name": "_principal",
          "type": "uint256"
        },
        {
          "internalType": "uint256",
          "name": "_duration",
          "type": "uint256"
        },
        {
          "internalType": "uint256",
          "name": "_totalDebt",
          "type": "uint256"
        },
        {
          "internalType": "string",
          "name": "_description",
          "type": "string"
        }
      ],
      "name": "addProposal",
      "outputs": [],
      "stateMutability": "nonpayable",
      "type": "function"
    },
    {
      "inputs": [
        {
          "internalType": "address",
          "name": "validator",
          "type": "address"
        },
        {
          "internalType": "address",
          "name": "controller",
          "type": "address"
        }
      ],
      "name": "addValidator",
      "outputs": [],
      "stateMutability": "nonpayable",
      "type": "function"
    },
    {
      "inputs": [
        {
          "internalType": "address",
          "name": "recipient",
          "type": "address"
        }
      ],
      "name": "addressCheckDefault",
      "outputs": [],
      "stateMutability": "nonpayable",
      "type": "function"
    },
    {
      "inputs": [
        {
          "internalType": "address",
          "name": "recipient",
          "type": "address"
        },
        {
          "internalType": "string",
          "name": "id",
          "type": "string"
        }
      ],
      "name": "approveLoan",
      "outputs": [
        {
          "internalType": "bool",
          "name": "",
          "type": "bool"
        }
      ],
      "stateMutability": "nonpayable",
      "type": "function"
    },
    {
      "inputs": [
        {
          "internalType": "uint256",
          "name": "amount",
          "type": "uint256"
        }
      ],
      "name": "borrow",
      "outputs": [],
      "stateMutability": "nonpayable",
      "type": "function"
    },
    {
      "inputs": [
        {
          "internalType": "address",
          "name": "",
          "type": "address"
        }
      ],
      "name": "borrower_allowance",
      "outputs": [
        {
          "internalType": "uint256",
          "name": "",
          "type": "uint256"
        }
      ],
      "stateMutability": "view",
      "type": "function"
    },
    {
      "inputs": [
        {
          "internalType": "address",
          "name": "",
          "type": "address"
        }
      ],
      "name": "borrower_debt",
      "outputs": [
        {
          "internalType": "uint256",
          "name": "",
          "type": "uint256"
        }
      ],
      "stateMutability": "view",
      "type": "function"
    },
    {
      "inputs": [
        {
          "internalType": "uint256",
          "name": "",
          "type": "uint256"
        }
      ],
      "name": "borrowers_array",
      "outputs": [
        {
          "internalType": "address",
          "name": "",
          "type": "address"
        }
      ],
      "stateMutability": "view",
      "type": "function"
    },
    {
      "inputs": [
        {
          "internalType": "uint256",
          "name": "col_idx",
          "type": "uint256"
        }
      ],
      "name": "collectRedemption",
      "outputs": [
        {
          "internalType": "uint256",
          "name": "dss_amount",
          "type": "uint256"
        },
        {
          "internalType": "uint256",
          "name": "collateral_amount",
          "type": "uint256"
        }
      ],
      "stateMutability": "nonpayable",
      "type": "function"
    },
    {
      "inputs": [
        {
          "internalType": "uint256",
          "name": "amount",
          "type": "uint256"
        }
      ],
      "name": "controllerBurnDS",
      "outputs": [],
      "stateMutability": "nonpayable",
      "type": "function"
    },
    {
      "inputs": [
        {
          "internalType": "uint256",
          "name": "amount",
          "type": "uint256"
        }
      ],
      "name": "controllerMintDS",
      "outputs": [],
      "stateMutability": "nonpayable",
      "type": "function"
    },
    {
      "inputs": [
        {
          "internalType": "address",
          "name": "",
          "type": "address"
        },
        {
          "internalType": "uint256",
          "name": "",
          "type": "uint256"
        }
      ],
      "name": "current_loan_data",
      "outputs": [
        {
          "internalType": "bytes32",
          "name": "id",
          "type": "bytes32"
        },
        {
          "internalType": "uint256",
          "name": "principal",
          "type": "uint256"
        },
        {
          "internalType": "uint256",
          "name": "totalDebt",
          "type": "uint256"
        },
        {
          "internalType": "uint256",
          "name": "duration",
          "type": "uint256"
        },
        {
          "internalType": "uint256",
          "name": "repaymentDate",
          "type": "uint256"
        },
        {
          "internalType": "uint256",
          "name": "amountRepaid",
          "type": "uint256"
        },
        {
          "internalType": "string",
          "name": "description",
          "type": "string"
        },
        {
          "internalType": "bool",
          "name": "approved",
          "type": "bool"
        }
      ],
      "stateMutability": "view",
      "type": "function"
    },
    {
      "inputs": [
        {
          "internalType": "address",
          "name": "borrower",
          "type": "address"
        }
      ],
      "name": "deregisterBorrower",
      "outputs": [],
      "stateMutability": "nonpayable",
      "type": "function"
    },
    {
      "inputs": [],
      "name": "fullDefaultCheck",
      "outputs": [],
      "stateMutability": "nonpayable",
      "type": "function"
    },
    {
      "inputs": [],
      "name": "getLoanData",
      "outputs": [
        {
          "components": [
            {
              "internalType": "uint256",
              "name": "_total_borrowed_amount",
              "type": "uint256"
            },
            {
              "internalType": "uint256",
              "name": "_accrued_interest",
              "type": "uint256"
            }
          ],
          "internalType": "struct ILendingPool.LoanData",
          "name": "",
          "type": "tuple"
        }
      ],
      "stateMutability": "view",
      "type": "function"
    },
    {
      "inputs": [
        {
          "internalType": "address",
          "name": "",
          "type": "address"
        }
      ],
      "name": "is_borrower",
      "outputs": [
        {
          "internalType": "bool",
          "name": "",
          "type": "bool"
        }
      ],
      "stateMutability": "view",
      "type": "function"
    },
    {
      "inputs": [
        {
          "internalType": "address",
          "name": "",
          "type": "address"
        }
      ],
      "name": "is_registered",
      "outputs": [
        {
          "internalType": "bool",
          "name": "",
          "type": "bool"
        }
      ],
      "stateMutability": "view",
      "type": "function"
    },
    {
      "inputs": [
        {
          "internalType": "address",
          "name": "",
          "type": "address"
        }
      ],
      "name": "lastRedeemed",
      "outputs": [
        {
          "internalType": "uint256",
          "name": "",
          "type": "uint256"
        }
      ],
      "stateMutability": "view",
      "type": "function"
    },
    {
      "inputs": [
        {
          "internalType": "uint256",
          "name": "collateral_amount",
          "type": "uint256"
        },
        {
          "internalType": "uint256",
          "name": "DS_out_min",
          "type": "uint256"
        }
      ],
      "name": "mintDS",
      "outputs": [],
      "stateMutability": "nonpayable",
      "type": "function"
    },
    {
      "inputs": [
        {
          "internalType": "address",
          "name": "_owner",
          "type": "address"
        }
      ],
      "name": "nominateNewOwner",
      "outputs": [],
      "stateMutability": "nonpayable",
      "type": "function"
    },
    {
      "inputs": [],
      "name": "nominatedOwner",
      "outputs": [
        {
          "internalType": "address",
          "name": "",
          "type": "address"
        }
      ],
      "stateMutability": "view",
      "type": "function"
    },
    {
      "inputs": [
        {
          "internalType": "address",
          "name": "",
          "type": "address"
        }
      ],
      "name": "num_loans",
      "outputs": [
        {
          "internalType": "uint256",
          "name": "",
          "type": "uint256"
        }
      ],
      "stateMutability": "view",
      "type": "function"
    },
    {
      "inputs": [
        {
          "internalType": "address",
          "name": "",
          "type": "address"
        }
      ],
      "name": "num_proposals",
      "outputs": [
        {
          "internalType": "uint256",
          "name": "",
          "type": "uint256"
        }
      ],
      "stateMutability": "view",
      "type": "function"
    },
    {
      "inputs": [],
      "name": "owner",
      "outputs": [
        {
          "internalType": "address",
          "name": "",
          "type": "address"
        }
      ],
      "stateMutability": "view",
      "type": "function"
    },
    {
      "inputs": [],
      "name": "proposal_fee",
      "outputs": [
        {
          "internalType": "uint256",
          "name": "",
          "type": "uint256"
        }
      ],
      "stateMutability": "view",
      "type": "function"
    },
    {
      "inputs": [
        {
          "internalType": "address",
          "name": "",
          "type": "address"
        }
      ],
      "name": "redeemCollateralBalances",
      "outputs": [
        {
          "internalType": "uint256",
          "name": "",
          "type": "uint256"
        }
      ],
      "stateMutability": "view",
      "type": "function"
    },
    {
      "inputs": [
        {
          "internalType": "uint256",
          "name": "DS_amount",
          "type": "uint256"
        },
        {
          "internalType": "uint256",
          "name": "DSS_out_min",
          "type": "uint256"
        },
        {
          "internalType": "uint256",
          "name": "COLLATERAL_out_min",
          "type": "uint256"
        }
      ],
      "name": "redeemDS",
      "outputs": [],
      "stateMutability": "nonpayable",
      "type": "function"
    },
    {
      "inputs": [
        {
          "internalType": "address",
          "name": "",
          "type": "address"
        }
      ],
      "name": "redeemDSSBalances",
      "outputs": [
        {
          "internalType": "uint256",
          "name": "",
          "type": "uint256"
        }
      ],
      "stateMutability": "view",
      "type": "function"
    },
    {
      "inputs": [],
      "name": "registerBorrower",
      "outputs": [],
      "stateMutability": "nonpayable",
      "type": "function"
    },
    {
      "inputs": [
        {
          "internalType": "string",
          "name": "id",
          "type": "string"
        }
      ],
      "name": "removeProposal",
      "outputs": [
        {
          "internalType": "bool",
          "name": "",
          "type": "bool"
        }
      ],
      "stateMutability": "nonpayable",
      "type": "function"
    },
    {
      "inputs": [
        {
          "internalType": "address",
          "name": "recipient",
          "type": "address"
        },
        {
          "internalType": "string",
          "name": "id",
          "type": "string"
        }
      ],
      "name": "removeProposal",
      "outputs": [
        {
          "internalType": "bool",
          "name": "",
          "type": "bool"
        }
      ],
      "stateMutability": "nonpayable",
      "type": "function"
    },
    {
      "inputs": [
        {
          "internalType": "uint256",
          "name": "repay_principal",
          "type": "uint256"
        },
        {
          "internalType": "uint256",
          "name": "repay_interest",
          "type": "uint256"
        },
        {
          "internalType": "string",
          "name": "loan_id",
          "type": "string"
        }
      ],
      "name": "repay",
      "outputs": [
        {
          "internalType": "bool",
          "name": "",
          "type": "bool"
        }
      ],
      "stateMutability": "nonpayable",
      "type": "function"
    },
    {
      "inputs": [
        {
          "internalType": "address",
          "name": "borrower",
          "type": "address"
        },
        {
          "internalType": "string",
          "name": "id",
          "type": "string"
        }
      ],
      "name": "retrieveLoan",
      "outputs": [
        {
          "components": [
            {
              "internalType": "bytes32",
              "name": "id",
              "type": "bytes32"
            },
            {
              "internalType": "uint256",
              "name": "principal",
              "type": "uint256"
            },
            {
              "internalType": "uint256",
              "name": "totalDebt",
              "type": "uint256"
            },
            {
              "internalType": "uint256",
              "name": "duration",
              "type": "uint256"
            },
            {
              "internalType": "uint256",
              "name": "repaymentDate",
              "type": "uint256"
            },
            {
              "internalType": "uint256",
              "name": "amountRepaid",
              "type": "uint256"
            },
            {
              "internalType": "string",
              "name": "description",
              "type": "string"
            },
            {
              "internalType": "bool",
              "name": "approved",
              "type": "bool"
            }
          ],
          "internalType": "struct ILendingPool.LoanMetadata",
          "name": "",
          "type": "tuple"
        }
      ],
      "stateMutability": "view",
      "type": "function"
    },
    {
      "inputs": [
        {
          "internalType": "address",
          "name": "controller",
          "type": "address"
        }
      ],
      "name": "setController",
      "outputs": [],
      "stateMutability": "nonpayable",
      "type": "function"
    },
    {
      "inputs": [
        {
          "internalType": "uint256",
          "name": "new_ceiling",
          "type": "uint256"
        },
        {
          "internalType": "uint256",
          "name": "new_bonus_rate",
          "type": "uint256"
        },
        {
          "internalType": "uint256",
          "name": "new_redemption_delay",
          "type": "uint256"
        },
        {
          "internalType": "uint256",
          "name": "new_mint_fee",
          "type": "uint256"
        },
        {
          "internalType": "uint256",
          "name": "new_redeem_fee",
          "type": "uint256"
        },
        {
          "internalType": "uint256",
          "name": "new_buyback_fee",
          "type": "uint256"
        },
        {
          "internalType": "uint256",
          "name": "new_recollat_fee",
          "type": "uint256"
        }
      ],
      "name": "setPoolParameters",
      "outputs": [],
      "stateMutability": "nonpayable",
      "type": "function"
    },
    {
      "inputs": [],
      "name": "unclaimedPoolCollateral",
      "outputs": [
        {
          "internalType": "uint256",
          "name": "",
          "type": "uint256"
        }
      ],
      "stateMutability": "view",
      "type": "function"
    },
    {
      "inputs": [],
      "name": "unclaimedPoolDSS",
      "outputs": [
        {
          "internalType": "uint256",
          "name": "",
          "type": "uint256"
        }
      ],
      "stateMutability": "view",
      "type": "function"
    }
  ],
  "transactionHash": "0xe0bfe77a4b2086923e2cb7b140c8beeb5e421383d1bd6ed95c8cfc7a3253e310",
  "args": [
    "0xC9a5FfC14d68c511e83E758d186C249580d5f111",
    "0x9ee05EBdD94e1779072634b4C8C636f68f3088a2",
    "0x5799bFe361BEea69f808328FF4884DF92f1f66f0",
    "0xFD84b7AC1E646580db8c77f1f05F47977fAda692",
    "0xFD84b7AC1E646580db8c77f1f05F47977fAda692"
  ],
  "solcInputHash": "bcb06b8b228bc6167eb9eeb2cf5701fd",
  "bytecode": "0x60e06040526001608081905260a0523480156200001b57600080fd5b5060405162004b7238038062004b728339810160408190526200003e9162000249565b816001600160a01b0381166200009b5760405162461bcd60e51b815260206004820152601960248201527f4f776e657220616464726573732063616e6e6f7420626520300000000000000060448201526064015b60405180910390fd5b600080546001600160a01b0319166001600160a01b03831690811782556040805192835260208301919091527fb532073b38c83145e3e5135377a08bf9aab55bc0fd7c1179cd4fb995d2a5159c910160405180910390a1506001600160a01b038516158015906200011457506001600160a01b03841615155b80156200012957506001600160a01b03831615155b80156200013e57506001600160a01b03821615155b80156200015357506001600160a01b03811615155b620001a15760405162461bcd60e51b815260206004820152601560248201527f5a65726f20616464726573732064657465637465640000000000000000000000604482015260640162000092565b600f80546001600160a01b039687166001600160a01b031991821681179092556010805496881696821687179055600280548216909217909155600380548216909517909455600480549386169385169390931790925560058054918516918416919091179055600680549190931691161790556000600e55678ac7230489e8000060c052620002b8565b80516001600160a01b03811681146200024457600080fd5b919050565b600080600080600060a0868803121562000261578081fd5b6200026c866200022c565b94506200027c602087016200022c565b93506200028c604087016200022c565b92506200029c606087016200022c565b9150620002ac608087016200022c565b90509295509295909350565b60805160a05160c051614875620002fd60003960008181610404015281816128b2015281816129870152612aa301526000610abd01526000610f8501526148756000f3fe608060405234801561001057600080fd5b50600436106102925760003560e01c80639f59ae4d11610160578063c5ebeaec116100d8578063ecce54461161008c578063f43038c511610071578063f43038c514610642578063f57e3fa514610662578063f9a7f8dc1461067557600080fd5b8063ecce54461461061c578063f02e4cb81461062f57600080fd5b8063e31ecd1b116100bd578063e31ecd1b146105e1578063e6c43911146105f4578063e831878d1461061457600080fd5b8063c5ebeaec146105bb578063e0cd9c8f146105ce57600080fd5b8063b1819c2b1161012f578063bbcbdc6111610114578063bbcbdc611461057f578063bcecd40f14610592578063c1c76de81461059b57600080fd5b8063b1819c2b14610559578063b2e2d4db1461056c57600080fd5b80639f59ae4d146104c8578063a3f14e96146104db578063a4cc257c14610519578063abae2c4c1461053957600080fd5b8063692eba091161020e5780637b0461e9116101c25780638da5cb5b116101a75780638da5cb5b1461046d57806392eefe9b1461048d5780639d202bf8146104a057600080fd5b80637b0461e9146104415780637c2a5f031461044a57600080fd5b80636cedcceb116101f35780636cedcceb146103ff5780636f8833f91461042657806379ba50971461043957600080fd5b8063692eba09146103b85780636cdd9cf6146103d857600080fd5b80632a243860116102655780634ebbe7621161024a5780634ebbe7621461033d57806353a47bb714610350578063619ea8061461039557600080fd5b80632a243860146103125780632dad3b7f1461031a57600080fd5b806308a7493d146102975780631627540c146102ca578063164157c0146102df57806319dbe5de146102ff575b600080fd5b6102b76102a5366004613f7d565b60126020526000908152604090205481565b6040519081526020015b60405180910390f35b6102dd6102d8366004613f7d565b610688565b005b6102f26102ed366004613fc9565b6107ad565b6040516102c191906144d2565b6102dd61030d3660046140a3565b610aab565b6102dd610e1b565b61032d610328366004613fc9565b610ed9565b60405190151581526020016102c1565b6102dd61034b3660046141fa565b611527565b6001546103709073ffffffffffffffffffffffffffffffffffffffff1681565b60405173ffffffffffffffffffffffffffffffffffffffff90911681526020016102c1565b61032d6103a3366004613f7d565b60176020526000908152604090205460ff1681565b6102b76103c6366004613f7d565b601d6020526000908152604090205481565b6103eb6103e636600461401a565b6115ea565b6040516102c1989796959493929190614400565b6102b77f000000000000000000000000000000000000000000000000000000000000000081565b6102dd610434366004613f7d565b6116da565b6102dd611858565b6102b760135481565b61032d610458366004613f7d565b60166020526000908152604090205460ff1681565b6000546103709073ffffffffffffffffffffffffffffffffffffffff1681565b6102dd61049b366004613f7d565b6119a3565b6104b36104ae36600461412d565b611a8d565b604080519283526020830191909152016102c1565b6102dd6104d63660046141cf565b611b6f565b604080518082018252600080825260209182015281518083018352601e54808252601f549183019182528351908152905191810191909152016102c1565b6102b7610527366004613f7d565b601c6020526000908152604090205481565b6102b7610547366004613f7d565b60156020526000908152604090205481565b6102dd610567366004613f97565b611efe565b61032d61057a36600461417e565b611f83565b61032d61058d366004614063565b612357565b6102b760145481565b6102b76105a9366004613f7d565b60186020526000908152604090205481565b6102dd6105c936600461412d565b61240b565b6102dd6105dc36600461412d565b6126a5565b6102dd6105ef366004613f7d565b6127b4565b6102b7610602366004613f7d565b60196020526000908152604090205481565b6102dd612804565b61037061062a36600461412d565b612b01565b6102dd61063d36600461412d565b612b38565b6102b7610650366004613f7d565b60116020526000908152604090205481565b6102dd61067036600461415d565b612c16565b61032d610683366004613fc9565b612d25565b60005473ffffffffffffffffffffffffffffffffffffffff163314610734576040517f08c379a000000000000000000000000000000000000000000000000000000000815260206004820152602f60248201527f4f6e6c792074686520636f6e7472616374206f776e6572206d6179207065726660448201527f6f726d207468697320616374696f6e000000000000000000000000000000000060648201526084015b60405180910390fd5b600180547fffffffffffffffffffffffff00000000000000000000000000000000000000001673ffffffffffffffffffffffffffffffffffffffff83169081179091556040519081527f906a1c6bd7e3091ea86693dd029a831c19049ce77f1dce2ce0bab1cacbabce229060200160405180910390a150565b6107fa604051806101000160405280600080191681526020016000815260200160008152602001600081526020016000815260200160008152602001606081526020016000151581525090565b6000838360405160200161080f9291906143f0565b60405160208183030381529060405280519060200120905060005b73ffffffffffffffffffffffffffffffffffffffff86166000908152601b6020526040902054811015610a415773ffffffffffffffffffffffffffffffffffffffff86166000908152601b602052604090208054829081106108b5577f4e487b7100000000000000000000000000000000000000000000000000000000600052603260045260246000fd5b906000526020600020906008020160000154821415610a2f5773ffffffffffffffffffffffffffffffffffffffff86166000908152601b6020526040902080548290811061092c577f4e487b7100000000000000000000000000000000000000000000000000000000600052603260045260246000fd5b90600052602060002090600802016040518061010001604052908160008201548152602001600182015481526020016002820154815260200160038201548152602001600482015481526020016005820154815260200160068201805461099290614783565b80601f01602080910402602001604051908101604052809291908181526020018280546109be90614783565b8015610a0b5780601f106109e057610100808354040283529160200191610a0b565b820191906000526020600020905b8154815290600101906020018083116109ee57829003601f168201915b50505091835250506007919091015460ff1615156020909101529250610aa4915050565b80610a39816147d7565b91505061082a565b506040517f08c379a000000000000000000000000000000000000000000000000000000000815260206004820152600e60248201527f6c6f616e206e6f7420666f756e64000000000000000000000000000000000000604482015260640161072b565b9392505050565b336000908152601d60205260409020547f000000000000000000000000000000000000000000000000000000000000000011610b43576040517f08c379a000000000000000000000000000000000000000000000000000000000815260206004820152601660248201527f70726f706f73616c206c696d6974207265616368656400000000000000000000604482015260640161072b565b60008787604051602001610b589291906143f0565b60405160208183030381529060405280519060200120905060005b336000908152601d6020526040902054811015610c6157336000908152601b60205260409020805483919083908110610bd5577f4e487b7100000000000000000000000000000000000000000000000000000000600052603260045260246000fd5b9060005260206000209060080201600001541415610c4f576040517f08c379a000000000000000000000000000000000000000000000000000000000815260206004820152601660248201527f4c6f616e204944206d75737420626520756e6971756500000000000000000000604482015260640161072b565b80610c59816147d7565b915050610b73565b50336000908152601d60205260408120805491610c7d836147d7565b9190505550601b60003373ffffffffffffffffffffffffffffffffffffffff1673ffffffffffffffffffffffffffffffffffffffff168152602001908152602001600020604051806101000160405280838152602001888152602001868152602001878152602001600081526020016000815260200185858080601f01602080910402602001604051908101604052809392919081815260200183838082843760009201829052509385525050506020918201819052835460018181018655948252908290208351600890920201908155828201519381019390935560408201516002840155606082015160038401556080820151600484015560a0820151600584015560c08201518051929392610d9b9260068501920190613dc3565b5060e09190910151600790910180547fffffffffffffffffffffffffffffffffffffffffffffffffffffffffffffff001691151591909117905560405133907fee947c2dbef85920918a354ca22ad7516804df5b6a1e95d68c5e34dbe1e20fd690610e09908b908b90614450565b60405180910390a25050505050505050565b60005b601a54811015610ed6576000601a8281548110610e64577f4e487b7100000000000000000000000000000000000000000000000000000000600052603260045260246000fd5b600091825260208083209091015473ffffffffffffffffffffffffffffffffffffffff16808352601b909152604082208054919350915b81811015610ebf57610ead8482612de2565b80610eb7816147d7565b915050610e9b565b505050508080610ece906147d7565b915050610e1e565b50565b60205460009073ffffffffffffffffffffffffffffffffffffffff163314610f5d576040517f08c379a000000000000000000000000000000000000000000000000000000000815260206004820152601160248201527f6973206e6f7420636f6e74726f6c6c6572000000000000000000000000000000604482015260640161072b565b73ffffffffffffffffffffffffffffffffffffffff84166000908152601c60205260409020547f00000000000000000000000000000000000000000000000000000000000000001161100b576040517f08c379a000000000000000000000000000000000000000000000000000000000815260206004820152601b60248201527f6d6178206e756d626572206f66206c6f616e7320726561636865640000000000604482015260640161072b565b600083836040516020016110209291906143f0565b60405160208183030381529060405280519060200120905060005b73ffffffffffffffffffffffffffffffffffffffff86166000908152601b602052604090205481101561151b5773ffffffffffffffffffffffffffffffffffffffff86166000908152601b602052604090208054829081106110c6577f4e487b7100000000000000000000000000000000000000000000000000000000600052603260045260246000fd5b9060005260206000209060080201600001548214156115095773ffffffffffffffffffffffffffffffffffffffff86166000908152601b6020526040902080548290811061113d577f4e487b7100000000000000000000000000000000000000000000000000000000600052603260045260246000fd5b600091825260209091206007600890920201015460ff16156111bb576040517f08c379a000000000000000000000000000000000000000000000000000000000815260206004820152601560248201527f6c6f616e20616c726561647920617070726f7665640000000000000000000000604482015260640161072b565b73ffffffffffffffffffffffffffffffffffffffff86166000908152601b60205260408120805483908110611219577f4e487b7100000000000000000000000000000000000000000000000000000000600052603260045260246000fd5b906000526020600020906008020190508673ffffffffffffffffffffffffffffffffffffffff167ff2a5566c9c9e309c27a8e5d5c4de2b3fcb75d1fe180f1acf4808ce863b95cbfe601b60008a73ffffffffffffffffffffffffffffffffffffffff1673ffffffffffffffffffffffffffffffffffffffff16815260200190815260200160002084815481106112d8577f4e487b7100000000000000000000000000000000000000000000000000000000600052603260045260246000fd5b90600052602060002090600802016040516112f39190614543565b60405180910390a26007810180547fffffffffffffffffffffffffffffffffffffffffffffffffffffffffffffff0016600117905560038101546113379042614556565b600482015573ffffffffffffffffffffffffffffffffffffffff871660009081526016602052604090205460ff166114125773ffffffffffffffffffffffffffffffffffffffff8716600081815260166020526040812080547fffffffffffffffffffffffffffffffffffffffffffffffffffffffffffffff00166001908117909155601a805491820181559091527f057c384a7d1c54f3a1b2e5e67b2617b8224fdfd1ea7234eea573a6ff665ff63e0180547fffffffffffffffffffffffff00000000000000000000000000000000000000001690911790555b73ffffffffffffffffffffffffffffffffffffffff87166000908152601c60205260408120805491611443836147d7565b909155505073ffffffffffffffffffffffffffffffffffffffff87166000908152601d602052604081208054916114798361474e565b9091555050600181015473ffffffffffffffffffffffffffffffffffffffff8816600090815260186020526040812080549091906114b8908490614556565b9091555050600181015473ffffffffffffffffffffffffffffffffffffffff8816600090815260196020526040812080549091906114f7908490614556565b9091555060019450610aa49350505050565b80611513816147d7565b91505061103b565b50600095945050505050565b60065473ffffffffffffffffffffffffffffffffffffffff16331480611564575060005473ffffffffffffffffffffffffffffffffffffffff1633145b6115ca576040517f08c379a000000000000000000000000000000000000000000000000000000000815260206004820152601560248201527f4e6f74206f776e6572206f722074696d656c6f636b0000000000000000000000604482015260640161072b565b600796909655600894909455600992909255600a55600b55600c55600d55565b601b602052816000526040600020818154811061160657600080fd5b90600052602060002090600802016000915091505080600001549080600101549080600201549080600301549080600401549080600501549080600601805461164e90614783565b80601f016020809104026020016040519081016040528092919081815260200182805461167a90614783565b80156116c75780601f1061169c576101008083540402835291602001916116c7565b820191906000526020600020905b8154815290600101906020018083116116aa57829003601f168201915b5050506007909301549192505060ff1688565b60065473ffffffffffffffffffffffffffffffffffffffff16331480611717575060005473ffffffffffffffffffffffffffffffffffffffff1633145b61177d576040517f08c379a000000000000000000000000000000000000000000000000000000000815260206004820152601560248201527f4e6f74206f776e6572206f722074696d656c6f636b0000000000000000000000604482015260640161072b565b73ffffffffffffffffffffffffffffffffffffffff811660009081526017602052604090205460ff1661180c576040517f08c379a000000000000000000000000000000000000000000000000000000000815260206004820152601760248201527f626f72726f776572206e6f742072656769737465726564000000000000000000604482015260640161072b565b73ffffffffffffffffffffffffffffffffffffffff16600090815260176020526040902080547fffffffffffffffffffffffffffffffffffffffffffffffffffffffffffffff00169055565b60015473ffffffffffffffffffffffffffffffffffffffff1633146118ff576040517f08c379a000000000000000000000000000000000000000000000000000000000815260206004820152603560248201527f596f75206d757374206265206e6f6d696e61746564206265666f726520796f7560448201527f2063616e20616363657074206f776e6572736869700000000000000000000000606482015260840161072b565b6000546001546040805173ffffffffffffffffffffffffffffffffffffffff93841681529290911660208301527fb532073b38c83145e3e5135377a08bf9aab55bc0fd7c1179cd4fb995d2a5159c910160405180910390a160018054600080547fffffffffffffffffffffffff000000000000000000000000000000000000000090811673ffffffffffffffffffffffffffffffffffffffff841617909155169055565b60065473ffffffffffffffffffffffffffffffffffffffff163314806119e0575060005473ffffffffffffffffffffffffffffffffffffffff1633145b611a46576040517f08c379a000000000000000000000000000000000000000000000000000000000815260206004820152601560248201527f4e6f74206f776e6572206f722074696d656c6f636b0000000000000000000000604482015260640161072b565b602080547fffffffffffffffffffffffff00000000000000000000000000000000000000001673ffffffffffffffffffffffffffffffffffffffff92909216919091179055565b3360009081526011602052604081205481908190819015611ad4573360009081526011602052604081208054919055601454909450611acc9085612f39565b601455600191505b3360009081526012602052604090205415611b14573360009081526012602052604081208054919055601354909350611b0d9084612f39565b6013555060015b8115611b3e57601054611b3e9073ffffffffffffffffffffffffffffffffffffffff163386612f45565b8015611b6857600454611b689073ffffffffffffffffffffffffffffffffffffffff163385612f45565b5050915091565b600f54604080517f4ed9ac1f000000000000000000000000000000000000000000000000000000008152905160009273ffffffffffffffffffffffffffffffffffffffff1691634ed9ac1f916004808301926020929190829003018186803b158015611bda57600080fd5b505afa158015611bee573d6000803e3d6000fd5b505050506040513d601f19601f82011682018060405250810190611c129190614145565b90506000600f60009054906101000a900473ffffffffffffffffffffffffffffffffffffffff1673ffffffffffffffffffffffffffffffffffffffff1663545108636040518163ffffffff1660e01b815260040160206040518083038186803b158015611c7e57600080fd5b505afa158015611c92573d6000803e3d6000fd5b505050506040513d601f19601f82011682018060405250810190611cb69190614145565b90506000611cd3600e54600a611ccc9190614608565b879061301e565b90506000611d06620f4240611d00611cf9600b54620f4240612f3990919063ffffffff16565b8a9061301e565b9061302a565b90506000611d25611d1e620f4240611d00858861301e565b8390612f39565b90506000611d3a86611d0084620f424061301e565b9050826000611d50620f4240611d00848a61301e565b336000908152601260205260409020549091508190611d6f9082613036565b33600090815260126020526040902055601354611d8c9082613036565b60135533600090815260116020526040902054611da99085613036565b33600090815260116020526040902055601454611dc69085613036565b6014553360008181526015602052604090819020439055600f5490517f908fd76800000000000000000000000000000000000000000000000000000000815260048101929092526024820189905273ffffffffffffffffffffffffffffffffffffffff169063908fd76890604401600060405180830381600087803b158015611e4e57600080fd5b505af1158015611e62573d6000803e3d6000fd5b50506010546040517fb4f56b260000000000000000000000000000000000000000000000000000000081523060048201526024810188905273ffffffffffffffffffffffffffffffffffffffff909116925063b4f56b269150604401600060405180830381600087803b158015611ed857600080fd5b505af1158015611eec573d6000803e3d6000fd5b50505050505050505050505050505050565b6040517f4d238c8e00000000000000000000000000000000000000000000000000000000815273ffffffffffffffffffffffffffffffffffffffff8381166004830152821690634d238c8e90602401600060405180830381600087803b158015611f6757600080fd5b505af1158015611f7b573d6000803e3d6000fd5b505050505050565b3360009081526016602052604081205460ff16611ffc576040517f08c379a000000000000000000000000000000000000000000000000000000000815260206004820152600f60248201527f6973206e6f7420626f72726f7765720000000000000000000000000000000000604482015260640161072b565b60006120088686613036565b90506000848460405160200161201f9291906143f0565b60405160208183030381529060405280519060200120905060005b336000908152601b602052604090205481101561234757336000908152601b60205260409020805482908110612099577f4e487b7100000000000000000000000000000000000000000000000000000000600052603260045260246000fd5b90600052602060002090600802016000015482141561233557336000908152601b602052604081208054839081106120fa577f4e487b7100000000000000000000000000000000000000000000000000000000600052603260045260246000fd5b90600052602060002090600802019050806001015484826005015461211f9190614556565b1115612187576040517f08c379a000000000000000000000000000000000000000000000000000000000815260206004820152601b60248201527f6f7665727061696420666f7220737065636966696564206c6f616e0000000000604482015260640161072b565b8381600501600082825461219b9190614556565b9091555050336000908152601960205260409020546121ba908a612f39565b33600090815260196020526040902055601f546121d79089613036565b506122196040518060400160405280601581526020017f746f74616c5f626f72726f7765645f616d6f756e740000000000000000000000815250601e54613042565b601e54612226908a612f39565b601e5560045461224e9073ffffffffffffffffffffffffffffffffffffffff163330876130d3565b806002015481600501541415612328573373ffffffffffffffffffffffffffffffffffffffff167f6109a4c798a992b22a4ea2359ccd7dfd5c6c2af4f4ba7c4272ee60f9dbe6c1d8826040516122a49190614543565b60405180910390a2336000908152601c602052604081208054916122c78361474e565b91905055506122d63383613269565b336000908152601c60205260409020546123285733600081815260166020526040902080547fffffffffffffffffffffffffffffffffffffffffffffffffffffffffffffff00169055612328906135a6565b600194505050505061234f565b8061233f816147d7565b91505061203a565b506000925050505b949350505050565b3360009081526017602052604081205460ff166123d0576040517f08c379a000000000000000000000000000000000000000000000000000000000815260206004820152601160248201527f6973206e6f742072656769737465726564000000000000000000000000000000604482015260640161072b565b6124023384846040516020016123e79291906143f0565b604051602081830303815290604052805190602001206137a9565b90505b92915050565b3360009081526016602052604090205460ff16612484576040517f08c379a000000000000000000000000000000000000000000000000000000000815260206004820152600f60248201527f6973206e6f7420626f72726f7765720000000000000000000000000000000000604482015260640161072b565b3360009081526017602052604090205460ff166124fd576040517f08c379a000000000000000000000000000000000000000000000000000000000815260206004820152601160248201527f6973206e6f742072656769737465726564000000000000000000000000000000604482015260640161072b565b33600090815260186020526040902054811115612576576040517f08c379a000000000000000000000000000000000000000000000000000000000815260206004820152601860248201527f4578636565647320626f72726f7720616c6c6f77616e63650000000000000000604482015260640161072b565b600081116125e0576040517f08c379a000000000000000000000000000000000000000000000000000000000815260206004820152601d60248201527f616d6f756e74206d7573742062652067726561746572207468616e2030000000604482015260640161072b565b336000908152601860205260409020546125fa9082612f39565b336000818152601860205260409020919091556004546126339173ffffffffffffffffffffffffffffffffffffffff909116908361395b565b3360009081526019602052604090205461264d9082613036565b33600090815260196020526040902055601e5461266a9082613036565b601e5560405181815233907f7fd4365684b3ba337d3ae48b3f8e735f5159301d6df281756306b6363adb66e79060200160405180910390a250565b60205473ffffffffffffffffffffffffffffffffffffffff163314612726576040517f08c379a000000000000000000000000000000000000000000000000000000000815260206004820152601160248201527f6973206e6f7420636f6e74726f6c6c6572000000000000000000000000000000604482015260640161072b565b600f546040517fb4f56b260000000000000000000000000000000000000000000000000000000081523360048201526024810183905273ffffffffffffffffffffffffffffffffffffffff9091169063b4f56b26906044015b600060405180830381600087803b15801561279957600080fd5b505af11580156127ad573d6000803e3d6000fd5b5050505050565b60005b73ffffffffffffffffffffffffffffffffffffffff82166000908152601b6020526040902054811015612800576127ee8282612de2565b806127f8816147d7565b9150506127b7565b5050565b3360009081526017602052604090205460ff161561287e576040517f08c379a000000000000000000000000000000000000000000000000000000000815260206004820152601960248201527f616c726561647920706169642070726f706f73616c2066656500000000000000604482015260640161072b565b600480546040517f70a0823100000000000000000000000000000000000000000000000000000000815233928101929092527f00000000000000000000000000000000000000000000000000000000000000009173ffffffffffffffffffffffffffffffffffffffff909116906370a082319060240160206040518083038186803b15801561290c57600080fd5b505afa158015612920573d6000803e3d6000fd5b505050506040513d601f19601f820116820180604052508101906129449190614145565b10158015612a1c5750600480546040517fdd62ed3e00000000000000000000000000000000000000000000000000000000815233928101929092523060248301527f00000000000000000000000000000000000000000000000000000000000000009173ffffffffffffffffffffffffffffffffffffffff9091169063dd62ed3e9060440160206040518083038186803b1580156129e157600080fd5b505afa1580156129f5573d6000803e3d6000fd5b505050506040513d601f19601f82011682018060405250810190612a199190614145565b10155b612a82576040517f08c379a000000000000000000000000000000000000000000000000000000000815260206004820152600c60248201527f6e6f20616c6c6f77616e63650000000000000000000000000000000000000000604482015260640161072b565b600454612ac79073ffffffffffffffffffffffffffffffffffffffff1633307f0000000000000000000000000000000000000000000000000000000000000000613ac4565b33600090815260176020526040902080547fffffffffffffffffffffffffffffffffffffffffffffffffffffffffffffff00166001179055565b601a8181548110612b1157600080fd5b60009182526020909120015473ffffffffffffffffffffffffffffffffffffffff16905081565b60205473ffffffffffffffffffffffffffffffffffffffff163314612bb9576040517f08c379a000000000000000000000000000000000000000000000000000000000815260206004820152601160248201527f6973206e6f7420636f6e74726f6c6c6572000000000000000000000000000000604482015260640161072b565b600f546040517f908fd7680000000000000000000000000000000000000000000000000000000081523360048201526024810183905273ffffffffffffffffffffffffffffffffffffffff9091169063908fd7689060440161277f565b6000600e54600a612c279190614608565b612c3190846146ce565b90506000819050612c61620f4240611d00612c5a600a54620f4240612f3990919063ffffffff16565b849061301e565b905080831115612c7057600080fd5b600454612c959073ffffffffffffffffffffffffffffffffffffffff16333087613ac4565b600f546040517fb4f56b260000000000000000000000000000000000000000000000000000000081523360048201526024810183905273ffffffffffffffffffffffffffffffffffffffff9091169063b4f56b2690604401600060405180830381600087803b158015612d0757600080fd5b505af1158015612d1b573d6000803e3d6000fd5b5050505050505050565b60065460009073ffffffffffffffffffffffffffffffffffffffff16331480612d65575060005473ffffffffffffffffffffffffffffffffffffffff1633145b612dcb576040517f08c379a000000000000000000000000000000000000000000000000000000000815260206004820152601560248201527f4e6f74206f776e6572206f722074696d656c6f636b0000000000000000000000604482015260640161072b565b61234f8484846040516020016123e79291906143f0565b73ffffffffffffffffffffffffffffffffffffffff82166000908152601b60205260409020805442919083908110612e43577f4e487b7100000000000000000000000000000000000000000000000000000000600052603260045260246000fd5b90600052602060002090600802016004015410156128005773ffffffffffffffffffffffffffffffffffffffff82166000818152601b6020526040902080547f2c0d0cb3def05dc8fd0a849509477cbbd1a185820e04ffcf9eeb0a4cb903471c919084908110612edc577f4e487b7100000000000000000000000000000000000000000000000000000000600052603260045260246000fd5b9060005260206000209060080201604051612ef79190614543565b60405180910390a273ffffffffffffffffffffffffffffffffffffffff82166000908152601c60205260408120805491612f308361474e565b91905055505050565b6000612402828461470b565b60405173ffffffffffffffffffffffffffffffffffffffff83166024820152604481018290526130199084907fa9059cbb00000000000000000000000000000000000000000000000000000000906064015b604080517fffffffffffffffffffffffffffffffffffffffffffffffffffffffffffffffe08184030181529190526020810180517bffffffffffffffffffffffffffffffffffffffffffffffffffffffff167fffffffff0000000000000000000000000000000000000000000000000000000090931692909217909152613b28565b505050565b600061240282846146ce565b6000612402828461456e565b60006124028284614556565b61280082826040516024016130589291906144b0565b604080517fffffffffffffffffffffffffffffffffffffffffffffffffffffffffffffffe08184030181529190526020810180517bffffffffffffffffffffffffffffffffffffffffffffffffffffffff167f9710a9d000000000000000000000000000000000000000000000000000000000179052613c34565b6040805173ffffffffffffffffffffffffffffffffffffffff85811660248301528481166044830152606480830185905283518084039091018152608490920183526020820180517bffffffffffffffffffffffffffffffffffffffffffffffffffffffff167f23b872dd00000000000000000000000000000000000000000000000000000000179052915160009283929088169161317291906143d4565b6000604051808303816000865af19150503d80600081146131af576040519150601f19603f3d011682016040523d82523d6000602084013e6131b4565b606091505b50915091508180156131de5750805115806131de5750808060200190518101906131de9190614043565b611f7b576040517f08c379a0000000000000000000000000000000000000000000000000000000008152602060048201526024808201527f5472616e7366657248656c7065723a205452414e534645525f46524f4d5f464160448201527f494c454400000000000000000000000000000000000000000000000000000000606482015260840161072b565b73ffffffffffffffffffffffffffffffffffffffff82166000908152601b602052604090205481106132f7576040517f08c379a000000000000000000000000000000000000000000000000000000000815260206004820152601360248201527f696e76616c696420617272617920696e64657800000000000000000000000000604482015260640161072b565b73ffffffffffffffffffffffffffffffffffffffff82166000908152601b60205260408120546133299060019061470b565b73ffffffffffffffffffffffffffffffffffffffff84166000908152601b602052604090208054919250908290811061338b577f4e487b7100000000000000000000000000000000000000000000000000000000600052603260045260246000fd5b9060005260206000209060080201601b60008573ffffffffffffffffffffffffffffffffffffffff1673ffffffffffffffffffffffffffffffffffffffff1681526020019081526020016000208381548110613410577f4e487b7100000000000000000000000000000000000000000000000000000000600052603260045260246000fd5b9060005260206000209060080201600082015481600001556001820154816001015560028201548160020155600382015481600301556004820154816004015560058201548160050155600682018160060190805461346e90614783565b613479929190613e47565b50600791820154910180547fffffffffffffffffffffffffffffffffffffffffffffffffffffffffffffff001660ff909216151591909117905573ffffffffffffffffffffffffffffffffffffffff83166000908152601b6020526040902080548061350e577f4e487b7100000000000000000000000000000000000000000000000000000000600052603160045260246000fd5b60008281526020812060087fffffffffffffffffffffffffffffffffffffffffffffffffffffffffffffffff909301928302018181556001810182905560028101829055600381018290556004810182905560058101829055906135756006830182613ec2565b5060070180547fffffffffffffffffffffffffffffffffffffffffffffffffffffffffffffff001690559055505050565b601a5460005b8181101561301957601a81815481106135ee577f4e487b7100000000000000000000000000000000000000000000000000000000600052603260045260246000fd5b60009182526020909120015473ffffffffffffffffffffffffffffffffffffffff8481169116141561379757601a61362760018461470b565b8154811061365e577f4e487b7100000000000000000000000000000000000000000000000000000000600052603260045260246000fd5b600091825260209091200154601a805473ffffffffffffffffffffffffffffffffffffffff90921691839081106136be577f4e487b7100000000000000000000000000000000000000000000000000000000600052603260045260246000fd5b9060005260206000200160006101000a81548173ffffffffffffffffffffffffffffffffffffffff021916908373ffffffffffffffffffffffffffffffffffffffff160217905550601a80548061373e577f4e487b7100000000000000000000000000000000000000000000000000000000600052603160045260246000fd5b60008281526020902081017fffffffffffffffffffffffffffffffffffffffffffffffffffffffffffffffff90810180547fffffffffffffffffffffffff00000000000000000000000000000000000000001690550190555b806137a1816147d7565b9150506135ac565b6000805b73ffffffffffffffffffffffffffffffffffffffff84166000908152601d60205260409020548110156139515773ffffffffffffffffffffffffffffffffffffffff84166000908152601b60205260409020805482908110613838577f4e487b7100000000000000000000000000000000000000000000000000000000600052603260045260246000fd5b90600052602060002090600802016000015483141561393f5773ffffffffffffffffffffffffffffffffffffffff84166000818152601b6020526040902080547f1d81f218937c6be897f82b1559501b28354ec734e6671c635cf1017112d9b7869190849081106138d2577f4e487b7100000000000000000000000000000000000000000000000000000000600052603260045260246000fd5b90600052602060002090600802016040516138ed9190614543565b60405180910390a26138ff8482613269565b73ffffffffffffffffffffffffffffffffffffffff84166000908152601d602052604081208054916139308361474e565b91905055506001915050612405565b80613949816147d7565b9150506137ad565b5060009392505050565b6040805173ffffffffffffffffffffffffffffffffffffffff8481166024830152604480830185905283518084039091018152606490920183526020820180517bffffffffffffffffffffffffffffffffffffffffffffffffffffffff167fa9059cbb0000000000000000000000000000000000000000000000000000000017905291516000928392908716916139f291906143d4565b6000604051808303816000865af19150503d8060008114613a2f576040519150601f19603f3d011682016040523d82523d6000602084013e613a34565b606091505b5091509150818015613a5e575080511580613a5e575080806020019051810190613a5e9190614043565b6127ad576040517f08c379a000000000000000000000000000000000000000000000000000000000815260206004820152601f60248201527f5472616e7366657248656c7065723a205452414e534645525f4641494c454400604482015260640161072b565b60405173ffffffffffffffffffffffffffffffffffffffff80851660248301528316604482015260648101829052613b229085907f23b872dd0000000000000000000000000000000000000000000000000000000090608401612f97565b50505050565b6000613b8a826040518060400160405280602081526020017f5361666545524332303a206c6f772d6c6576656c2063616c6c206661696c65648152508573ffffffffffffffffffffffffffffffffffffffff16613c559092919063ffffffff16565b8051909150156130195780806020019051810190613ba89190614043565b613019576040517f08c379a000000000000000000000000000000000000000000000000000000000815260206004820152602a60248201527f5361666545524332303a204552433230206f7065726174696f6e20646964206e60448201527f6f74207375636365656400000000000000000000000000000000000000000000606482015260840161072b565b80516a636f6e736f6c652e6c6f67602083016000808483855afa5050505050565b606061234f8484600085856000808673ffffffffffffffffffffffffffffffffffffffff168587604051613c8991906143d4565b60006040518083038185875af1925050503d8060008114613cc6576040519150601f19603f3d011682016040523d82523d6000602084013e613ccb565b606091505b5091509150613cdc87838387613ce7565b979650505050505050565b60608315613d7a578251613d735773ffffffffffffffffffffffffffffffffffffffff85163b613d73576040517f08c379a000000000000000000000000000000000000000000000000000000000815260206004820152601d60248201527f416464726573733a2063616c6c20746f206e6f6e2d636f6e7472616374000000604482015260640161072b565b508161234f565b61234f8383815115613d8f5781518083602001fd5b806040517f08c379a000000000000000000000000000000000000000000000000000000000815260040161072b919061449d565b828054613dcf90614783565b90600052602060002090601f016020900481019282613df15760008555613e37565b82601f10613e0a57805160ff1916838001178555613e37565b82800160010185558215613e37579182015b82811115613e37578251825591602001919060010190613e1c565b50613e43929150613ef8565b5090565b828054613e5390614783565b90600052602060002090601f016020900481019282613e755760008555613e37565b82601f10613e865780548555613e37565b82800160010185558215613e3757600052602060002091601f016020900482015b82811115613e37578254825591600101919060010190613ea7565b508054613ece90614783565b6000825580601f10613ede575050565b601f016020900490600052602060002090810190610ed691905b5b80821115613e435760008155600101613ef9565b803573ffffffffffffffffffffffffffffffffffffffff81168114613f3157600080fd5b919050565b60008083601f840112613f47578182fd5b50813567ffffffffffffffff811115613f5e578182fd5b602083019150836020828501011115613f7657600080fd5b9250929050565b600060208284031215613f8e578081fd5b61240282613f0d565b60008060408385031215613fa9578081fd5b613fb283613f0d565b9150613fc060208401613f0d565b90509250929050565b600080600060408486031215613fdd578081fd5b613fe684613f0d565b9250602084013567ffffffffffffffff811115614001578182fd5b61400d86828701613f36565b9497909650939450505050565b6000806040838503121561402c578182fd5b61403583613f0d565b946020939093013593505050565b600060208284031215614054578081fd5b81518015158114610aa4578182fd5b60008060208385031215614075578182fd5b823567ffffffffffffffff81111561408b578283fd5b61409785828601613f36565b90969095509350505050565b600080600080600080600060a0888a0312156140bd578283fd5b873567ffffffffffffffff808211156140d4578485fd5b6140e08b838c01613f36565b909950975060208a0135965060408a0135955060608a0135945060808a013591508082111561410d578384fd5b5061411a8a828b01613f36565b989b979a50959850939692959293505050565b60006020828403121561413e578081fd5b5035919050565b600060208284031215614156578081fd5b5051919050565b6000806040838503121561416f578182fd5b50508035926020909101359150565b60008060008060608587031215614193578384fd5b8435935060208501359250604085013567ffffffffffffffff8111156141b7578283fd5b6141c387828801613f36565b95989497509550505050565b6000806000606084860312156141e3578283fd5b505081359360208301359350604090920135919050565b600080600080600080600060e0888a031215614214578283fd5b505085359760208701359750604087013596606081013596506080810135955060a0810135945060c0013592509050565b6000815180845261425d816020860160208601614722565b601f017fffffffffffffffffffffffffffffffffffffffffffffffffffffffffffffffe0169290920160200192915050565b8054600090600181811c90808316806142a957607f831692505b60208084108214156142e2577f4e487b710000000000000000000000000000000000000000000000000000000086526022600452602486fd5b838852602088018280156142fd576001811461432c57614357565b7fffffffffffffffffffffffffffffffffffffffffffffffffffffffffffffff00871682528282019750614357565b60008981526020902060005b8781101561435157815484820152908601908401614338565b83019850505b5050505050505092915050565b60006101008254845260018301546020850152600283015460408501526003830154606085015260048301546080850152600583015460a08501528060c08501526143b48185016006850161428f565b90506143c4600784015460ff1690565b80151560e0860152509392505050565b600082516143e6818460208701614722565b9190910192915050565b8183823760009101908152919050565b60006101008a83528960208401528860408401528760608401528660808401528560a08401528060c084015261443881840186614245565b91505082151560e08301529998505050505050505050565b60208152816020820152818360408301376000818301604090810191909152601f9092017fffffffffffffffffffffffffffffffffffffffffffffffffffffffffffffffe0160101919050565b6020815260006124026020830184614245565b6040815260006144c36040830185614245565b90508260208301529392505050565b6020815281516020820152602082015160408201526040820151606082015260608201516080820152608082015160a082015260a082015160c0820152600060c08301516101008060e085015261452d610120850183614245565b60e0959095015115159301929092525090919050565b6020815260006124026020830184614364565b6000821982111561456957614569614810565b500190565b6000826145a2577f4e487b710000000000000000000000000000000000000000000000000000000081526012600452602481fd5b500490565b600181815b8085111561460057817fffffffffffffffffffffffffffffffffffffffffffffffffffffffffffffffff048211156145e6576145e6614810565b808516156145f357918102915b93841c93908002906145ac565b509250929050565b6000612402838360008261461e57506001612405565b8161462b57506000612405565b8160018114614641576002811461464b57614667565b6001915050612405565b60ff84111561465c5761465c614810565b50506001821b612405565b5060208310610133831016604e8410600b841016171561468a575081810a612405565b61469483836145a7565b807fffffffffffffffffffffffffffffffffffffffffffffffffffffffffffffffff048211156146c6576146c6614810565b029392505050565b6000817fffffffffffffffffffffffffffffffffffffffffffffffffffffffffffffffff048311821515161561470657614706614810565b500290565b60008282101561471d5761471d614810565b500390565b60005b8381101561473d578181015183820152602001614725565b83811115613b225750506000910152565b60008161475d5761475d614810565b507fffffffffffffffffffffffffffffffffffffffffffffffffffffffffffffffff0190565b600181811c9082168061479757607f821691505b602082108114156147d1577f4e487b7100000000000000000000000000000000000000000000000000000000600052602260045260246000fd5b50919050565b60007fffffffffffffffffffffffffffffffffffffffffffffffffffffffffffffffff82141561480957614809614810565b5060010190565b7f4e487b7100000000000000000000000000000000000000000000000000000000600052601160045260246000fdfea2646970667358221220e04f1ac4b00dcc3332bcb4c87fab682a35f0bc53e29ad178f2ca6cb7c8b6d0e164736f6c63430008040033",
  "devdoc": {
    "kind": "dev",
    "methods": {},
    "version": 1
  },
  "userdoc": {
    "kind": "user",
    "methods": {},
    "version": 1
  },
  "storageLayout": {
    "storage": [
      {
        "astId": 16592,
        "contract": "contracts/stablecoin/lendingpool.sol:LendingPool",
        "label": "owner",
        "offset": 0,
        "slot": "0",
        "type": "t_address"
      },
      {
        "astId": 16594,
        "contract": "contracts/stablecoin/lendingpool.sol:LendingPool",
        "label": "nominatedOwner",
        "offset": 0,
        "slot": "1",
        "type": "t_address"
      },
      {
        "astId": 14876,
        "contract": "contracts/stablecoin/lendingpool.sol:LendingPool",
        "label": "ds_address",
        "offset": 0,
        "slot": "2",
        "type": "t_address"
      },
      {
        "astId": 14878,
        "contract": "contracts/stablecoin/lendingpool.sol:LendingPool",
        "label": "dss_address",
        "offset": 0,
        "slot": "3",
        "type": "t_address"
      },
      {
        "astId": 14880,
        "contract": "contracts/stablecoin/lendingpool.sol:LendingPool",
        "label": "collateral_address",
        "offset": 0,
        "slot": "4",
        "type": "t_address"
      },
      {
        "astId": 14882,
        "contract": "contracts/stablecoin/lendingpool.sol:LendingPool",
        "label": "creator_address",
        "offset": 0,
        "slot": "5",
        "type": "t_address"
      },
      {
        "astId": 14884,
        "contract": "contracts/stablecoin/lendingpool.sol:LendingPool",
        "label": "timelock_address",
        "offset": 0,
        "slot": "6",
        "type": "t_address"
      },
      {
        "astId": 14886,
        "contract": "contracts/stablecoin/lendingpool.sol:LendingPool",
        "label": "pool_ceiling",
        "offset": 0,
        "slot": "7",
        "type": "t_uint256"
      },
      {
        "astId": 14888,
        "contract": "contracts/stablecoin/lendingpool.sol:LendingPool",
        "label": "bonus_rate",
        "offset": 0,
        "slot": "8",
        "type": "t_uint256"
      },
      {
        "astId": 14890,
        "contract": "contracts/stablecoin/lendingpool.sol:LendingPool",
        "label": "redemption_delay",
        "offset": 0,
        "slot": "9",
        "type": "t_uint256"
      },
      {
        "astId": 14892,
        "contract": "contracts/stablecoin/lendingpool.sol:LendingPool",
        "label": "minting_fee",
        "offset": 0,
        "slot": "10",
        "type": "t_uint256"
      },
      {
        "astId": 14894,
        "contract": "contracts/stablecoin/lendingpool.sol:LendingPool",
        "label": "redemption_fee",
        "offset": 0,
        "slot": "11",
        "type": "t_uint256"
      },
      {
        "astId": 14896,
        "contract": "contracts/stablecoin/lendingpool.sol:LendingPool",
        "label": "buyback_fee",
        "offset": 0,
        "slot": "12",
        "type": "t_uint256"
      },
      {
        "astId": 14898,
        "contract": "contracts/stablecoin/lendingpool.sol:LendingPool",
        "label": "recollat_fee",
        "offset": 0,
        "slot": "13",
        "type": "t_uint256"
      },
      {
        "astId": 14900,
        "contract": "contracts/stablecoin/lendingpool.sol:LendingPool",
        "label": "missing_decimals",
        "offset": 0,
        "slot": "14",
        "type": "t_uint256"
      },
      {
        "astId": 14906,
        "contract": "contracts/stablecoin/lendingpool.sol:LendingPool",
        "label": "DScontract",
        "offset": 0,
        "slot": "15",
        "type": "t_contract(DS)13820"
      },
      {
        "astId": 14909,
        "contract": "contracts/stablecoin/lendingpool.sol:LendingPool",
        "label": "DSScontract",
        "offset": 0,
        "slot": "16",
        "type": "t_contract(DSS)13995"
      },
      {
        "astId": 14913,
        "contract": "contracts/stablecoin/lendingpool.sol:LendingPool",
        "label": "redeemDSSBalances",
        "offset": 0,
        "slot": "17",
        "type": "t_mapping(t_address,t_uint256)"
      },
      {
        "astId": 14917,
        "contract": "contracts/stablecoin/lendingpool.sol:LendingPool",
        "label": "redeemCollateralBalances",
        "offset": 0,
        "slot": "18",
        "type": "t_mapping(t_address,t_uint256)"
      },
      {
        "astId": 14919,
        "contract": "contracts/stablecoin/lendingpool.sol:LendingPool",
        "label": "unclaimedPoolCollateral",
        "offset": 0,
        "slot": "19",
        "type": "t_uint256"
      },
      {
        "astId": 14921,
        "contract": "contracts/stablecoin/lendingpool.sol:LendingPool",
        "label": "unclaimedPoolDSS",
        "offset": 0,
        "slot": "20",
        "type": "t_uint256"
      },
      {
        "astId": 14925,
        "contract": "contracts/stablecoin/lendingpool.sol:LendingPool",
        "label": "lastRedeemed",
        "offset": 0,
        "slot": "21",
        "type": "t_mapping(t_address,t_uint256)"
      },
      {
        "astId": 14930,
        "contract": "contracts/stablecoin/lendingpool.sol:LendingPool",
        "label": "is_borrower",
        "offset": 0,
        "slot": "22",
        "type": "t_mapping(t_address,t_bool)"
      },
      {
        "astId": 14935,
        "contract": "contracts/stablecoin/lendingpool.sol:LendingPool",
        "label": "is_registered",
        "offset": 0,
        "slot": "23",
        "type": "t_mapping(t_address,t_bool)"
      },
      {
        "astId": 14940,
        "contract": "contracts/stablecoin/lendingpool.sol:LendingPool",
        "label": "borrower_allowance",
        "offset": 0,
        "slot": "24",
        "type": "t_mapping(t_address,t_uint256)"
      },
      {
        "astId": 14945,
        "contract": "contracts/stablecoin/lendingpool.sol:LendingPool",
        "label": "borrower_debt",
        "offset": 0,
        "slot": "25",
        "type": "t_mapping(t_address,t_uint256)"
      },
      {
        "astId": 14948,
        "contract": "contracts/stablecoin/lendingpool.sol:LendingPool",
        "label": "borrowers_array",
        "offset": 0,
        "slot": "26",
        "type": "t_array(t_address)dyn_storage"
      },
      {
        "astId": 14954,
        "contract": "contracts/stablecoin/lendingpool.sol:LendingPool",
        "label": "current_loan_data",
        "offset": 0,
        "slot": "27",
        "type": "t_mapping(t_address,t_array(t_struct(LoanMetadata)14055_storage)dyn_storage)"
      },
      {
        "astId": 14959,
        "contract": "contracts/stablecoin/lendingpool.sol:LendingPool",
        "label": "num_loans",
        "offset": 0,
        "slot": "28",
        "type": "t_mapping(t_address,t_uint256)"
      },
      {
        "astId": 14964,
        "contract": "contracts/stablecoin/lendingpool.sol:LendingPool",
        "label": "num_proposals",
        "offset": 0,
        "slot": "29",
        "type": "t_mapping(t_address,t_uint256)"
      },
      {
        "astId": 14972,
        "contract": "contracts/stablecoin/lendingpool.sol:LendingPool",
        "label": "total_borrowed_amount",
        "offset": 0,
        "slot": "30",
        "type": "t_uint256"
      },
      {
        "astId": 14976,
        "contract": "contracts/stablecoin/lendingpool.sol:LendingPool",
        "label": "accrued_interest",
        "offset": 0,
        "slot": "31",
        "type": "t_uint256"
      },
      {
        "astId": 14978,
        "contract": "contracts/stablecoin/lendingpool.sol:LendingPool",
        "label": "controller_address",
        "offset": 0,
        "slot": "32",
        "type": "t_address"
      }
    ],
    "types": {
      "t_address": {
        "encoding": "inplace",
        "label": "address",
        "numberOfBytes": "20"
      },
      "t_array(t_address)dyn_storage": {
        "base": "t_address",
        "encoding": "dynamic_array",
        "label": "address[]",
        "numberOfBytes": "32"
      },
      "t_array(t_struct(LoanMetadata)14055_storage)dyn_storage": {
        "base": "t_struct(LoanMetadata)14055_storage",
        "encoding": "dynamic_array",
        "label": "struct ILendingPool.LoanMetadata[]",
        "numberOfBytes": "32"
      },
      "t_bool": {
        "encoding": "inplace",
        "label": "bool",
        "numberOfBytes": "1"
      },
      "t_bytes32": {
        "encoding": "inplace",
        "label": "bytes32",
        "numberOfBytes": "32"
      },
      "t_contract(DS)13820": {
        "encoding": "inplace",
        "label": "contract DS",
        "numberOfBytes": "20"
      },
      "t_contract(DSS)13995": {
        "encoding": "inplace",
        "label": "contract DSS",
        "numberOfBytes": "20"
      },
      "t_mapping(t_address,t_array(t_struct(LoanMetadata)14055_storage)dyn_storage)": {
        "encoding": "mapping",
        "key": "t_address",
        "label": "mapping(address => struct ILendingPool.LoanMetadata[])",
        "numberOfBytes": "32",
        "value": "t_array(t_struct(LoanMetadata)14055_storage)dyn_storage"
      },
      "t_mapping(t_address,t_bool)": {
        "encoding": "mapping",
        "key": "t_address",
        "label": "mapping(address => bool)",
        "numberOfBytes": "32",
        "value": "t_bool"
      },
      "t_mapping(t_address,t_uint256)": {
        "encoding": "mapping",
        "key": "t_address",
        "label": "mapping(address => uint256)",
        "numberOfBytes": "32",
        "value": "t_uint256"
      },
      "t_string_storage": {
        "encoding": "bytes",
        "label": "string",
        "numberOfBytes": "32"
      },
      "t_struct(LoanMetadata)14055_storage": {
        "encoding": "inplace",
        "label": "struct ILendingPool.LoanMetadata",
        "members": [
          {
            "astId": 14040,
            "contract": "contracts/stablecoin/lendingpool.sol:LendingPool",
            "label": "id",
            "offset": 0,
            "slot": "0",
            "type": "t_bytes32"
          },
          {
            "astId": 14042,
            "contract": "contracts/stablecoin/lendingpool.sol:LendingPool",
            "label": "principal",
            "offset": 0,
            "slot": "1",
            "type": "t_uint256"
          },
          {
            "astId": 14044,
            "contract": "contracts/stablecoin/lendingpool.sol:LendingPool",
            "label": "totalDebt",
            "offset": 0,
            "slot": "2",
            "type": "t_uint256"
          },
          {
            "astId": 14046,
            "contract": "contracts/stablecoin/lendingpool.sol:LendingPool",
            "label": "duration",
            "offset": 0,
            "slot": "3",
            "type": "t_uint256"
          },
          {
            "astId": 14048,
            "contract": "contracts/stablecoin/lendingpool.sol:LendingPool",
            "label": "repaymentDate",
            "offset": 0,
            "slot": "4",
            "type": "t_uint256"
          },
          {
            "astId": 14050,
            "contract": "contracts/stablecoin/lendingpool.sol:LendingPool",
            "label": "amountRepaid",
            "offset": 0,
            "slot": "5",
            "type": "t_uint256"
          },
          {
            "astId": 14052,
            "contract": "contracts/stablecoin/lendingpool.sol:LendingPool",
            "label": "description",
            "offset": 0,
            "slot": "6",
            "type": "t_string_storage"
          },
          {
            "astId": 14054,
            "contract": "contracts/stablecoin/lendingpool.sol:LendingPool",
            "label": "approved",
            "offset": 0,
            "slot": "7",
            "type": "t_bool"
          }
        ],
        "numberOfBytes": "256"
      },
      "t_uint256": {
        "encoding": "inplace",
        "label": "uint256",
        "numberOfBytes": "32"
      }
    }
  }
}