{
  "address": "0x742daEcae70c36dD3A6cDA29E779EB2E53d6385D",
  "abi": [
    {
      "inputs": [
        {
          "internalType": "address",
          "name": "_creator_address",
          "type": "address"
        },
        {
          "internalType": "address",
          "name": "reputationNFTaddress",
          "type": "address"
        },
        {
          "internalType": "address",
          "name": "_controllerAddress",
          "type": "address"
        },
        {
          "internalType": "address",
          "name": "_vrfCoordinator",
          "type": "address"
        },
        {
          "internalType": "bytes32",
          "name": "_keyHash",
          "type": "bytes32"
        },
        {
          "internalType": "uint64",
          "name": "_subscriptionId",
          "type": "uint64"
        }
      ],
      "stateMutability": "nonpayable",
      "type": "constructor"
    },
    {
      "anonymous": false,
      "inputs": [
        {
          "indexed": false,
          "internalType": "address",
          "name": "oldOwner",
          "type": "address"
        },
        {
          "indexed": false,
          "internalType": "address",
          "name": "newOwner",
          "type": "address"
        }
      ],
      "name": "OwnerChanged",
      "type": "event"
    },
    {
      "anonymous": false,
      "inputs": [
        {
          "indexed": false,
          "internalType": "address",
          "name": "newOwner",
          "type": "address"
        }
      ],
      "name": "OwnerNominated",
      "type": "event"
    },
    {
      "inputs": [],
      "name": "acceptOwnership",
      "outputs": [],
      "stateMutability": "nonpayable",
      "type": "function"
    },
    {
      "inputs": [
        {
          "internalType": "uint256",
          "name": "marketId",
          "type": "uint256"
        }
      ],
      "name": "approveMarketAndSetLowerBound",
      "outputs": [],
      "stateMutability": "nonpayable",
      "type": "function"
    },
    {
      "inputs": [
        {
          "internalType": "uint256",
          "name": "",
          "type": "uint256"
        },
        {
          "internalType": "address",
          "name": "",
          "type": "address"
        }
      ],
      "name": "assessment_probs",
      "outputs": [
        {
          "internalType": "uint256",
          "name": "",
          "type": "uint256"
        }
      ],
      "stateMutability": "view",
      "type": "function"
    },
    {
      "inputs": [
        {
          "internalType": "uint256",
          "name": "_marketId",
          "type": "uint256"
        },
        {
          "internalType": "uint256",
          "name": "_collateralIn",
          "type": "uint256"
        },
        {
          "internalType": "uint256",
          "name": "_min_amount_out",
          "type": "uint256"
        }
      ],
      "name": "buy",
      "outputs": [
        {
          "internalType": "uint256",
          "name": "amountOut",
          "type": "uint256"
        }
      ],
      "stateMutability": "nonpayable",
      "type": "function"
    },
    {
      "inputs": [
        {
          "internalType": "uint256",
          "name": "marketId",
          "type": "uint256"
        },
        {
          "internalType": "uint256",
          "name": "close_amount",
          "type": "uint256"
        },
        {
          "internalType": "uint256",
          "name": "min_collateral_out",
          "type": "uint256"
        }
      ],
      "name": "closeShort",
      "outputs": [],
      "stateMutability": "nonpayable",
      "type": "function"
    },
    {
      "inputs": [
        {
          "internalType": "uint256",
          "name": "marketId",
          "type": "uint256"
        }
      ],
      "name": "denyMarket",
      "outputs": [],
      "stateMutability": "nonpayable",
      "type": "function"
    },
    {
      "inputs": [
        {
          "internalType": "uint256",
          "name": "marketId",
          "type": "uint256"
        }
      ],
      "name": "duringMarketAssessment",
      "outputs": [
        {
          "internalType": "bool",
          "name": "",
          "type": "bool"
        }
      ],
      "stateMutability": "view",
      "type": "function"
    },
    {
      "inputs": [
        {
          "internalType": "uint256",
          "name": "marketId",
          "type": "uint256"
        }
      ],
      "name": "getCurrentMarketPhase",
      "outputs": [
        {
          "internalType": "uint256",
          "name": "",
          "type": "uint256"
        }
      ],
      "stateMutability": "view",
      "type": "function"
    },
    {
      "inputs": [
        {
          "internalType": "address",
          "name": "trader",
          "type": "address"
        },
        {
          "internalType": "uint256",
          "name": "marketId",
          "type": "uint256"
        }
      ],
      "name": "getDebtPosition",
      "outputs": [
        {
          "internalType": "uint256",
          "name": "",
          "type": "uint256"
        },
        {
          "internalType": "uint256",
          "name": "",
          "type": "uint256"
        }
      ],
      "stateMutability": "view",
      "type": "function"
    },
    {
      "inputs": [
        {
          "internalType": "uint256",
          "name": "marketId",
          "type": "uint256"
        }
      ],
      "name": "getHedgePrice",
      "outputs": [
        {
          "internalType": "uint256",
          "name": "",
          "type": "uint256"
        }
      ],
      "stateMutability": "view",
      "type": "function"
    },
    {
      "inputs": [
        {
          "internalType": "address",
          "name": "trader",
          "type": "address"
        },
        {
          "internalType": "uint256",
          "name": "marketId",
          "type": "uint256"
        }
      ],
      "name": "getHedgeQuantity",
      "outputs": [
        {
          "internalType": "uint256",
          "name": "",
          "type": "uint256"
        }
      ],
      "stateMutability": "view",
      "type": "function"
    },
    {
      "inputs": [
        {
          "internalType": "uint256",
          "name": "_id",
          "type": "uint256"
        }
      ],
      "name": "getMarket",
      "outputs": [
        {
          "components": [
            {
              "internalType": "contract BondingCurve",
              "name": "long",
              "type": "address"
            },
            {
              "internalType": "contract ShortBondingCurve",
              "name": "short",
              "type": "address"
            },
            {
              "internalType": "string",
              "name": "description",
              "type": "string"
            },
            {
              "internalType": "uint256",
              "name": "creationTimestamp",
              "type": "uint256"
            },
            {
              "internalType": "uint256",
              "name": "resolutionTimestamp",
              "type": "uint256"
            }
          ],
          "internalType": "struct MarketManager.CoreMarketData",
          "name": "",
          "type": "tuple"
        }
      ],
      "stateMutability": "view",
      "type": "function"
    },
    {
      "inputs": [
        {
          "internalType": "uint256",
          "name": "marketId",
          "type": "uint256"
        }
      ],
      "name": "getMinRepScore",
      "outputs": [
        {
          "internalType": "uint256",
          "name": "",
          "type": "uint256"
        }
      ],
      "stateMutability": "view",
      "type": "function"
    },
    {
      "inputs": [
        {
          "internalType": "uint256",
          "name": "marketId",
          "type": "uint256"
        }
      ],
      "name": "getParameters",
      "outputs": [
        {
          "components": [
            {
              "internalType": "uint32",
              "name": "N",
              "type": "uint32"
            },
            {
              "internalType": "uint256",
              "name": "sigma",
              "type": "uint256"
            },
            {
              "internalType": "uint256",
              "name": "alpha",
              "type": "uint256"
            },
            {
              "internalType": "uint256",
              "name": "omega",
              "type": "uint256"
            },
            {
              "internalType": "uint256",
              "name": "delta",
              "type": "uint256"
            },
            {
              "internalType": "uint256",
              "name": "r",
              "type": "uint256"
            },
            {
              "internalType": "uint256",
              "name": "s",
              "type": "uint256"
            }
          ],
          "internalType": "struct MarketManager.MarketParameters",
          "name": "",
          "type": "tuple"
        }
      ],
      "stateMutability": "view",
      "type": "function"
    },
    {
      "inputs": [
        {
          "internalType": "uint256",
          "name": "marketId",
          "type": "uint256"
        }
      ],
      "name": "getPhaseData",
      "outputs": [
        {
          "components": [
            {
              "internalType": "bool",
              "name": "duringAssessment",
              "type": "bool"
            },
            {
              "internalType": "bool",
              "name": "onlyReputable",
              "type": "bool"
            },
            {
              "internalType": "bool",
              "name": "resolved",
              "type": "bool"
            },
            {
              "internalType": "uint256",
              "name": "min_rep_score",
              "type": "uint256"
            },
            {
              "internalType": "bool",
              "name": "alive",
              "type": "bool"
            },
            {
              "internalType": "bool",
              "name": "atLoss",
              "type": "bool"
            },
            {
              "internalType": "uint256",
              "name": "base_budget",
              "type": "uint256"
            }
          ],
          "internalType": "struct MarketManager.MarketPhaseData",
          "name": "",
          "type": "tuple"
        }
      ],
      "stateMutability": "view",
      "type": "function"
    },
    {
      "inputs": [
        {
          "internalType": "uint256",
          "name": "marketId",
          "type": "uint256"
        }
      ],
      "name": "getShortZCB",
      "outputs": [
        {
          "internalType": "contract ShortBondingCurve",
          "name": "",
          "type": "address"
        }
      ],
      "stateMutability": "view",
      "type": "function"
    },
    {
      "inputs": [
        {
          "internalType": "uint256",
          "name": "marketId",
          "type": "uint256"
        },
        {
          "internalType": "address",
          "name": "trader",
          "type": "address"
        }
      ],
      "name": "getTraderBudget",
      "outputs": [
        {
          "internalType": "uint256",
          "name": "",
          "type": "uint256"
        }
      ],
      "stateMutability": "view",
      "type": "function"
    },
    {
      "inputs": [
        {
          "internalType": "uint256",
          "name": "marketId",
          "type": "uint256"
        }
      ],
      "name": "getValidatorRequiredCollateral",
      "outputs": [
        {
          "internalType": "uint256",
          "name": "",
          "type": "uint256"
        }
      ],
      "stateMutability": "view",
      "type": "function"
    },
    {
      "inputs": [
        {
          "internalType": "uint256",
          "name": "marketId",
          "type": "uint256"
        }
      ],
      "name": "getZCB",
      "outputs": [
        {
          "internalType": "contract BondingCurve",
          "name": "",
          "type": "address"
        }
      ],
      "stateMutability": "view",
      "type": "function"
    },
    {
      "inputs": [
        {
          "internalType": "uint256",
          "name": "marketId",
          "type": "uint256"
        }
      ],
      "name": "get_redemption_price",
      "outputs": [
        {
          "internalType": "uint256",
          "name": "",
          "type": "uint256"
        }
      ],
      "stateMutability": "view",
      "type": "function"
    },
    {
      "inputs": [
        {
          "internalType": "uint256",
          "name": "marketId",
          "type": "uint256"
        }
      ],
      "name": "isMarketApproved",
      "outputs": [
        {
          "internalType": "bool",
          "name": "",
          "type": "bool"
        }
      ],
      "stateMutability": "view",
      "type": "function"
    },
    {
      "inputs": [
        {
          "internalType": "address",
          "name": "trader",
          "type": "address"
        },
        {
          "internalType": "uint256",
          "name": "marketId",
          "type": "uint256"
        }
      ],
      "name": "isReputable",
      "outputs": [
        {
          "internalType": "bool",
          "name": "",
          "type": "bool"
        }
      ],
      "stateMutability": "view",
      "type": "function"
    },
    {
      "inputs": [
        {
          "internalType": "uint256",
          "name": "marketId",
          "type": "uint256"
        },
        {
          "internalType": "address",
          "name": "user",
          "type": "address"
        }
      ],
      "name": "isValidator",
      "outputs": [
        {
          "internalType": "bool",
          "name": "",
          "type": "bool"
        }
      ],
      "stateMutability": "view",
      "type": "function"
    },
    {
      "inputs": [
        {
          "internalType": "address",
          "name": "trader",
          "type": "address"
        }
      ],
      "name": "isVerified",
      "outputs": [
        {
          "internalType": "bool",
          "name": "",
          "type": "bool"
        }
      ],
      "stateMutability": "view",
      "type": "function"
    },
    {
      "inputs": [],
      "name": "makeEmptyMarketData",
      "outputs": [
        {
          "components": [
            {
              "internalType": "contract BondingCurve",
              "name": "long",
              "type": "address"
            },
            {
              "internalType": "contract ShortBondingCurve",
              "name": "short",
              "type": "address"
            },
            {
              "internalType": "string",
              "name": "description",
              "type": "string"
            },
            {
              "internalType": "uint256",
              "name": "creationTimestamp",
              "type": "uint256"
            },
            {
              "internalType": "uint256",
              "name": "resolutionTimestamp",
              "type": "uint256"
            }
          ],
          "internalType": "struct MarketManager.CoreMarketData",
          "name": "",
          "type": "tuple"
        }
      ],
      "stateMutability": "pure",
      "type": "function"
    },
    {
      "inputs": [
        {
          "internalType": "uint256",
          "name": "marketId",
          "type": "uint256"
        }
      ],
      "name": "marketActive",
      "outputs": [
        {
          "internalType": "bool",
          "name": "",
          "type": "bool"
        }
      ],
      "stateMutability": "view",
      "type": "function"
    },
    {
      "inputs": [
        {
          "internalType": "uint256",
          "name": "marketId",
          "type": "uint256"
        }
      ],
      "name": "marketCondition",
      "outputs": [
        {
          "internalType": "bool",
          "name": "",
          "type": "bool"
        }
      ],
      "stateMutability": "view",
      "type": "function"
    },
    {
      "inputs": [],
      "name": "marketCount",
      "outputs": [
        {
          "internalType": "uint256",
          "name": "",
          "type": "uint256"
        }
      ],
      "stateMutability": "view",
      "type": "function"
    },
    {
      "inputs": [
        {
          "internalType": "uint256",
          "name": "",
          "type": "uint256"
        }
      ],
      "name": "markets",
      "outputs": [
        {
          "internalType": "contract BondingCurve",
          "name": "long",
          "type": "address"
        },
        {
          "internalType": "contract ShortBondingCurve",
          "name": "short",
          "type": "address"
        },
        {
          "internalType": "string",
          "name": "description",
          "type": "string"
        },
        {
          "internalType": "uint256",
          "name": "creationTimestamp",
          "type": "uint256"
        },
        {
          "internalType": "uint256",
          "name": "resolutionTimestamp",
          "type": "uint256"
        }
      ],
      "stateMutability": "view",
      "type": "function"
    },
    {
      "inputs": [
        {
          "internalType": "uint256",
          "name": "marketId",
          "type": "uint256"
        },
        {
          "internalType": "uint256",
          "name": "principal",
          "type": "uint256"
        },
        {
          "internalType": "uint256",
          "name": "expectedYield",
          "type": "uint256"
        },
        {
          "internalType": "contract BondingCurve",
          "name": "_long",
          "type": "address"
        },
        {
          "internalType": "contract ShortBondingCurve",
          "name": "_short",
          "type": "address"
        },
        {
          "internalType": "string",
          "name": "_description",
          "type": "string"
        },
        {
          "internalType": "uint256",
          "name": "_creationTimestamp",
          "type": "uint256"
        }
      ],
      "name": "newMarket",
      "outputs": [],
      "stateMutability": "nonpayable",
      "type": "function"
    },
    {
      "inputs": [
        {
          "internalType": "address",
          "name": "_owner",
          "type": "address"
        }
      ],
      "name": "nominateNewOwner",
      "outputs": [],
      "stateMutability": "nonpayable",
      "type": "function"
    },
    {
      "inputs": [],
      "name": "nominatedOwner",
      "outputs": [
        {
          "internalType": "address",
          "name": "",
          "type": "address"
        }
      ],
      "stateMutability": "view",
      "type": "function"
    },
    {
      "inputs": [
        {
          "internalType": "uint256",
          "name": "marketId",
          "type": "uint256"
        }
      ],
      "name": "numValidatorLeftToApproval",
      "outputs": [
        {
          "internalType": "uint256",
          "name": "",
          "type": "uint256"
        }
      ],
      "stateMutability": "view",
      "type": "function"
    },
    {
      "inputs": [
        {
          "internalType": "uint256",
          "name": "marketId",
          "type": "uint256"
        }
      ],
      "name": "onlyReputable",
      "outputs": [
        {
          "internalType": "bool",
          "name": "",
          "type": "bool"
        }
      ],
      "stateMutability": "view",
      "type": "function"
    },
    {
      "inputs": [
        {
          "internalType": "uint256",
          "name": "marketId",
          "type": "uint256"
        },
        {
          "internalType": "uint256",
          "name": "collateralIn",
          "type": "uint256"
        },
        {
          "internalType": "uint256",
          "name": "min_amount_out",
          "type": "uint256"
        }
      ],
      "name": "openShort",
      "outputs": [],
      "stateMutability": "nonpayable",
      "type": "function"
    },
    {
      "inputs": [],
      "name": "owner",
      "outputs": [
        {
          "internalType": "address",
          "name": "",
          "type": "address"
        }
      ],
      "stateMutability": "view",
      "type": "function"
    },
    {
      "inputs": [
        {
          "internalType": "uint256",
          "name": "marketId",
          "type": "uint256"
        }
      ],
      "name": "redeem",
      "outputs": [
        {
          "internalType": "uint256",
          "name": "",
          "type": "uint256"
        }
      ],
      "stateMutability": "nonpayable",
      "type": "function"
    },
    {
      "inputs": [
        {
          "internalType": "uint256",
          "name": "marketId",
          "type": "uint256"
        },
        {
          "internalType": "bool",
          "name": "isLong",
          "type": "bool"
        }
      ],
      "name": "redeemDeniedMarket",
      "outputs": [],
      "stateMutability": "nonpayable",
      "type": "function"
    },
    {
      "inputs": [
        {
          "internalType": "uint256",
          "name": "marketId",
          "type": "uint256"
        }
      ],
      "name": "redeemShortZCB",
      "outputs": [
        {
          "internalType": "uint256",
          "name": "",
          "type": "uint256"
        }
      ],
      "stateMutability": "nonpayable",
      "type": "function"
    },
    {
      "inputs": [
        {
          "internalType": "uint256",
          "name": "",
          "type": "uint256"
        }
      ],
      "name": "restriction_data",
      "outputs": [
        {
          "internalType": "bool",
          "name": "duringAssessment",
          "type": "bool"
        },
        {
          "internalType": "bool",
          "name": "onlyReputable",
          "type": "bool"
        },
        {
          "internalType": "bool",
          "name": "resolved",
          "type": "bool"
        },
        {
          "internalType": "uint256",
          "name": "min_rep_score",
          "type": "uint256"
        },
        {
          "internalType": "bool",
          "name": "alive",
          "type": "bool"
        },
        {
          "internalType": "bool",
          "name": "atLoss",
          "type": "bool"
        },
        {
          "internalType": "uint256",
          "name": "base_budget",
          "type": "uint256"
        }
      ],
      "stateMutability": "view",
      "type": "function"
    },
    {
      "inputs": [
        {
          "internalType": "uint256",
          "name": "_marketId",
          "type": "uint256"
        },
        {
          "internalType": "uint256",
          "name": "_zcb_amount_in",
          "type": "uint256"
        },
        {
          "internalType": "uint256",
          "name": "_min_collateral_out",
          "type": "uint256"
        }
      ],
      "name": "sell",
      "outputs": [
        {
          "internalType": "uint256",
          "name": "amountOut",
          "type": "uint256"
        }
      ],
      "stateMutability": "nonpayable",
      "type": "function"
    },
    {
      "inputs": [
        {
          "components": [
            {
              "internalType": "uint32",
              "name": "N",
              "type": "uint32"
            },
            {
              "internalType": "uint256",
              "name": "sigma",
              "type": "uint256"
            },
            {
              "internalType": "uint256",
              "name": "alpha",
              "type": "uint256"
            },
            {
              "internalType": "uint256",
              "name": "omega",
              "type": "uint256"
            },
            {
              "internalType": "uint256",
              "name": "delta",
              "type": "uint256"
            },
            {
              "internalType": "uint256",
              "name": "r",
              "type": "uint256"
            },
            {
              "internalType": "uint256",
              "name": "s",
              "type": "uint256"
            }
          ],
          "internalType": "struct MarketManager.MarketParameters",
          "name": "param",
          "type": "tuple"
        },
        {
          "internalType": "uint256",
          "name": "utilizationRate",
          "type": "uint256"
        },
        {
          "internalType": "uint256",
          "name": "marketId",
          "type": "uint256"
        }
      ],
      "name": "setParameters",
      "outputs": [],
      "stateMutability": "nonpayable",
      "type": "function"
    },
    {
      "inputs": [
        {
          "internalType": "uint256",
          "name": "marketId",
          "type": "uint256"
        },
        {
          "internalType": "bool",
          "name": "atLoss",
          "type": "bool"
        },
        {
          "internalType": "uint256",
          "name": "extra_gain",
          "type": "uint256"
        },
        {
          "internalType": "uint256",
          "name": "loss",
          "type": "uint256"
        },
        {
          "internalType": "bool",
          "name": "premature",
          "type": "bool"
        }
      ],
      "name": "update_redemption_price",
      "outputs": [],
      "stateMutability": "nonpayable",
      "type": "function"
    },
    {
      "inputs": [
        {
          "internalType": "uint256",
          "name": "marketId",
          "type": "uint256"
        }
      ],
      "name": "validatorApprovalCondition",
      "outputs": [
        {
          "internalType": "bool",
          "name": "",
          "type": "bool"
        }
      ],
      "stateMutability": "view",
      "type": "function"
    },
    {
      "inputs": [
        {
          "internalType": "uint256",
          "name": "marketId",
          "type": "uint256"
        }
      ],
      "name": "validatorBuy",
      "outputs": [],
      "stateMutability": "nonpayable",
      "type": "function"
    }
  ],
  "transactionHash": "0x4bb787f74532fc7504303a0980cf42235e605ca698cfcdf050f0d5736da5344d",
  "args": [
    "0xFD84b7AC1E646580db8c77f1f05F47977fAda692",
    "0x3CF983C25070443F5603b9744540c4116462B0b8",
    "0x8c3cE1975BFCc3A1438A7c8E50F28929a0e2b17a",
    "0x7a1bac17ccc5b313516c5e16fb24f7659aa5ebed",
    "0x4b09e658ed251bcafeebbc69400383d49f344ace09b9576fe248bb02c003fe9f",
    "1713"
  ],
  "numDeployments": 8,
  "solcInputHash": "3ac820fcfd114d4725585bee3b1f3dc7",
  "bytecode": "0x60a06040526004805465ffffffffffff19166403000186a01790553480156200002757600080fd5b50604051620062e7380380620062e78339810160408190526200004a916200037a565b856001600160a01b038116620000a65760405162461bcd60e51b815260206004820152601960248201527f4f776e657220616464726573732063616e6e6f74206265203000000000000000604482015260640160405180910390fd5b600080546001600160a01b0319166001600160a01b03831690811782556040805192835260208301919091527fb532073b38c83145e3e5135377a08bf9aab55bc0fd7c1179cd4fb995d2a5159c910160405180910390a150600680546001600160a01b0380881661010002610100600160a81b031990921691909117909155600780549186166001600160a01b03199283161790557f4b09e658ed251bcafeebbc69400383d49f344ace09b9576fe248bb02c003fe9f6003556106b160c01b60805260028054909116737a1bac17ccc5b313516c5e16fb24f7659aa5ebed17905560086200019362000221565b8154600181810184556000938452602093849020835160059093020180546001600160a01b039384166001600160a01b0319918216178255858501519282018054939094169216919091179091556040820151805192939192620001fe9260028501920190620002b7565b50606082015181600301556080820151816004015550505050505050506200043d565b620002666040518060a0016040528060006001600160a01b0316815260200160006001600160a01b031681526020016060815260200160008152602001600081525090565b6040518060a0016040528060006001600160a01b0316815260200160006001600160a01b03168152602001604051806020016040528060008152508152602001600081526020016000815250905090565b828054620002c59062000400565b90600052602060002090601f016020900481019282620002e9576000855562000334565b82601f106200030457805160ff191683800117855562000334565b8280016001018555821562000334579182015b828111156200033457825182559160200191906001019062000317565b506200034292915062000346565b5090565b5b8082111562000342576000815560010162000347565b80516001600160a01b03811681146200037557600080fd5b919050565b60008060008060008060c0878903121562000393578182fd5b6200039e876200035d565b9550620003ae602088016200035d565b9450620003be604088016200035d565b9350620003ce606088016200035d565b608088015160a089015191945092506001600160401b0381168114620003f2578182fd5b809150509295509295509295565b600181811c908216806200041557607f821691505b602082108114156200043757634e487b7160e01b600052602260045260246000fd5b50919050565b60805160c01c615e8b6200045c6000396000614b080152615e8b6000f3fe608060405234801561001057600080fd5b506004361061027f5760003560e01c80638a6cac3d1161015c578063c6ceb96b116100ce578063dfe60c4211610087578063dfe60c4214610854578063e4e0268814610877578063e8a780261461088a578063eb44fdd31461089d578063ec979082146108b0578063fc3e092a146108b857600080fd5b8063c6ceb96b14610770578063d3c9727c146107df578063d5725953146107f2578063d65ec96414610805578063db006a7514610818578063df8d7c131461082b57600080fd5b8063a1070adc11610120578063a1070adc146106c8578063a31a6252146106f3578063b1283e7714610706578063b743939b1461072a578063b9209e331461073d578063c44435301461075057600080fd5b80638a6cac3d146105e95780638da5cb5b1461067c578063920f4e551461068f57806397dcec16146106a25780639ec33416146106b557600080fd5b806363f960d8116101f557806379ba5097116101b957806379ba50971461056d5780637a513a1914610575578063807ca3531461059b5780638126cb3a146105ae578063839ee8f6146105c1578063897c99ae146105d657600080fd5b806363f960d8146104b457806371b31707146104c7578063727b887f146104da57806375a3f034146104ed57806378d1454c1461054557600080fd5b806335bf348d1161024757806335bf348d1461033057806340993b26146103435780634cb44087146103565780634cba8cde1461036957806353a47bb71461048e5780635673bde6146104a157600080fd5b8063153542cc146102845780631627540c146102b45780631f800dd2146102c957806323cc3df8146102fa57806323f2a73f1461030d575b600080fd5b610297610292366004615901565b6108cb565b6040516001600160a01b0390911681526020015b60405180910390f35b6102c76102c23660046156fb565b61090e565b005b6102ec6102d7366004615901565b60009081526011602052604090206001015490565b6040519081526020016102ab565b6102c7610308366004615868565b6109d9565b61032061031b366004615931565b610af7565b60405190151581526020016102ab565b6102c761033e366004615984565b610b82565b6102ec6103513660046159fc565b610ea6565b6102c7610364366004615901565b6114db565b61042e610377366004615901565b6040805160e081018252600080825260208201819052918101829052606081018290526080810182905260a0810182905260c081019190915250600090815260116020908152604091829020825160e081018452815460ff8082161515835261010080830482161515958401959095526201000090910481161515948201949094526001820154606082015260028201548085161515608083015292909204909216151560a082015260039091015460c082015290565b6040516102ab9190600060e0820190508251151582526020830151151560208301526040830151151560408301526060830151606083015260808301511515608083015260a0830151151560a083015260c083015160c083015292915050565b600154610297906001600160a01b031681565b6102ec6104af366004615733565b6115bf565b6102c76104c2366004615960565b6118ea565b6102c76104d53660046159fc565b611e25565b6102ec6104e8366004615901565b6121dc565b6105306104fb366004615733565b60009081526013602090815260408083206001600160a01b039490941683528382528083205460019094019091529020549091565b604080519283526020830191909152016102ab565b610320610553366004615901565b600090815260116020526040902054610100900460ff1690565b6102c7612558565b610320610583366004615901565b60009081526011602052604090206002015460ff1690565b6102c76105a93660046159fc565b612642565b6102c76105bc366004615901565b612998565b6105c9612b51565b6040516102ab9190615c6c565b6102c76105e4366004615901565b612baa565b61063d6105f7366004615901565b601160205260009081526040902080546001820154600283015460039093015460ff80841694610100808604831695620100009004831694938284169391909204169087565b60408051971515885295151560208801529315159486019490945260608501919091521515608084015290151560a083015260c082015260e0016102ab565b600054610297906001600160a01b031681565b61029761069d366004615901565b61300f565b6102ec6106b0366004615901565b613055565b6103206106c3366004615901565b61319a565b6102ec6106d6366004615931565b601060209081526000928352604080842090915290825290205481565b6102ec610701366004615901565b6131cd565b610719610714366004615901565b613434565b6040516102ab959493929190615b6a565b610320610738366004615901565b61350c565b61032061074b3660046156fb565b6136e5565b6102ec61075e366004615901565b6000908152600c602052604090205490565b61078361077e366004615901565b61377e565b6040516102ab9190600060e08201905063ffffffff83511682526020830151602083015260408301516040830152606083015160608301526080830151608083015260a083015160a083015260c083015160c083015292915050565b6102ec6107ed3660046159fc565b61382d565b6102ec610800366004615931565b613b42565b6102ec610813366004615901565b613cbd565b6102ec610826366004615901565b613d09565b610320610839366004615901565b6000908152600a602052604090208054600690910154101590565b610320610862366004615901565b60009081526011602052604090205460ff1690565b6102ec610885366004615901565b614211565b610320610898366004615733565b61423e565b6105c96108ab366004615901565b6142f4565b6008546102ec565b6102c76108c6366004615a27565b61441a565b6000600882815481106108ee57634e487b7160e01b600052603260045260246000fd5b60009182526020909120600590910201546001600160a01b031692915050565b6000546001600160a01b031633146109855760405162461bcd60e51b815260206004820152602f60248201527f4f6e6c792074686520636f6e7472616374206f776e6572206d6179207065726660448201526e37b936903a3434b99030b1ba34b7b760891b60648201526084015b60405180910390fd5b600180546001600160a01b0319166001600160a01b0383169081179091556040519081527f906a1c6bd7e3091ea86693dd029a831c19049ce77f1dce2ce0bab1cacbabce229060200160405180910390a150565b6007546001600160a01b03163314806109fc57506000546001600160a01b031633145b80610a0657503330145b610a225760405162461bcd60e51b815260040161097c90615c16565b6000818152601460209081526040918290208551815463ffffffff191663ffffffff909116178155908501516001820155908401516002820155606084015160038201556080840151600482015560a0840151600582015560c0840151600690910155610aa5610a9a83670de0b6b3a7640000615d6c565b60c0850151906145cc565b6000828152601460208181526040808420600601859055805180820190915260128152717574696c697a6174696f6e20726174652f7360701b818301529285905252610af29184906145e1565b505050565b6000828152600a60205260408120600301815b8154811015610b7557836001600160a01b0316828281548110610b3d57634e487b7160e01b600052603260045260246000fd5b6000918252602090912001546001600160a01b03161415610b6357600192505050610b7c565b80610b6d81615de8565b915050610b0a565b5060009150505b92915050565b6007546001600160a01b0316331480610ba557506000546001600160a01b031633145b80610baf57503330145b610bcb5760405162461bcd60e51b815260040161097c90615c16565b8315610bed578215610bed57634e487b7160e01b600052600160045260246000fd5b60088581548110610c0e57634e487b7160e01b600052603260045260246000fd5b600091825260209182902060016005909202010154604080516318160ddd60e01b815290516001600160a01b03909216926318160ddd92600480840193829003018186803b158015610c5f57600080fd5b505afa158015610c73573d6000803e3d6000fd5b505050506040513d601f19601f82011682018060405250810190610c979190615919565b60008681526013602052604090206002015414610cc457634e487b7160e01b600052600160045260246000fd5b600060088681548110610ce757634e487b7160e01b600052603260045260246000fd5b60009182526020808320600590920290910154604080516326a1409d60e21b815290516001600160a01b0390921694508492639a85027492600480840193829003018186803b158015610d3957600080fd5b505afa158015610d4d573d6000803e3d6000fd5b505050506040513d601f19601f82011682018060405250810190610d719190615919565b90506000808611610d83576000610d96565b6000888152601360205260409020600201545b905086610e0c57610db1610daa8284615d15565b8790614628565b610dc390670de0b6b3a7640000615d15565b6000898152600c602081815260408084208590558051808201909152600e81526d726564656d74696f6e707269636560901b81830152928c905252610e079161463d565b610e64565b610e168583614628565b670de0b6b3a764000011610e38576000888152600c6020526040812055610e64565b610e428583614628565b610e5490670de0b6b3a7640000615d6c565b6000898152600c60205260409020555b6000888152601160205260409020805462ff0000191662010000861502178155600201805461ffff19166101008915150260ff19161790555050505050505050565b60065460009060ff1615610ecc5760405162461bcd60e51b815260040161097c90615bf1565b6006805460ff1916600117905560008481526011602052604090205462010000900460ff1615610f355760405162461bcd60e51b81526020600482015260146024820152731b5d5cdd081b9bdd081899481c995cdbdb1d995960621b604482015260640161097c565b610f40338486614682565b600060088581548110610f6357634e487b7160e01b600052603260045260246000fd5b6000918252602080832060059092029091015460408051635c1548fb60e01b815290516001600160a01b0390921694508492635c1548fb92600480840193829003018186803b158015610fb557600080fd5b505afa158015610fc9573d6000803e3d6000fd5b505050506040513d601f19601f82011682018060405250810190610fed9190615717565b604051636361ddf360e11b81529091506001600160a01b0382169063c6c3bbe69061102090339030908a90600401615b0c565b600060405180830381600087803b15801561103a57600080fd5b505af115801561104e573d6000803e3d6000fd5b505060405163095ea7b360e01b81526001600160a01b038416925063095ea7b391506110809085908990600401615b30565b602060405180830381600087803b15801561109a57600080fd5b505af11580156110ae573d6000803e3d6000fd5b505050506040513d601f19601f820116820180604052508101906110d2919061575e565b50604051631f690c5d60e31b81526001600160a01b0383169063fb4862e89061110390309089908990600401615b49565b602060405180830381600087803b15801561111d57600080fd5b505af1158015611131573d6000803e3d6000fd5b505050506040513d601f19601f820116820180604052508101906111559190615919565b92506111658633876001806148ff565b60008681526011602052604090205460ff161561144757600086815260116020526040902054610100900460ff161561139e57600754604051632500ed8d60e21b8152600481018890526000916001600160a01b031690639403b6349060240160206040518083038186803b1580156111dd57600080fd5b505afa1580156111f1573d6000803e3d6000fd5b505050506040513d601f19601f820116820180604052508101906112159190615717565b6001600160a01b0316639ec4d40e886040518263ffffffff1660e01b815260040161124291815260200190565b60006040518083038186803b15801561125a57600080fd5b505afa15801561126e573d6000803e3d6000fd5b505050506040513d6000823e601f3d908101601f19168201604052611296919081019061577a565b6080015190506000836001600160a01b031663d6eb59106040518163ffffffff1660e01b815260040160206040518083038186803b1580156112d757600080fd5b505afa1580156112eb573d6000803e3d6000fd5b505050506040513d601f19601f8201168201806040525081019061130f9190615919565b6000898152600f6020908152604080832033845290915290205490915060ff16611365576000888152600a602090815260408220600201805460018101825590835291200180546001600160a01b031916331790555b60008881526014602052604090206003015461138190836145cc565b811061139b576113928860006149f0565b61139b88614a6f565b50505b816001600160a01b03166340154740866113b88933613b42565b6040516001600160e01b031960e085901b1681526004810192909252602482015260440160206040518083038186803b1580156113f457600080fd5b505afa158015611408573d6000803e3d6000fd5b505050506040513d601f19601f8201168201806040525081019061142c9190615919565b60008781526010602090815260408083203384529091529020555b60405163a9059cbb60e01b81526001600160a01b0383169063a9059cbb906114759033908790600401615b30565b602060405180830381600087803b15801561148f57600080fd5b505af11580156114a3573d6000803e3d6000fd5b505050506040513d601f19601f820116820180604052508101906114c7919061575e565b50506006805460ff19169055509392505050565b6007546001600160a01b03163314806114fe57506000546001600160a01b031633145b8061150857503330145b6115245760405162461bcd60e51b815260040161097c90615c16565b60008181526011602052604090206002015460ff166115555760405162461bcd60e51b815260040161097c90615c41565b60008181526011602052604090205460ff166115a75760405162461bcd60e51b8152602060048201526011602482015270139bdd081a5b88185cdcd95cdcdb595b9d607a1b604482015260640161097c565b6000908152601160205260409020805460ff19169055565b60008181526014602052604081206002015481906116f0906115e990670de0b6b3a7640000615d6c565b600754604051632500ed8d60e21b8152600481018790526001600160a01b0390911690639403b6349060240160206040518083038186803b15801561162d57600080fd5b505afa158015611641573d6000803e3d6000fd5b505050506040513d601f19601f820116820180604052508101906116659190615717565b6001600160a01b0316639ec4d40e866040518263ffffffff1660e01b815260040161169291815260200190565b60006040518083038186803b1580156116aa57600080fd5b505afa1580156116be573d6000803e3d6000fd5b505050506040513d6000823e601f3d908101601f191682016040526116e6919081019061577a565b60800151906145cc565b600754604051632500ed8d60e21b8152600481018690529192506118e2916001600160a01b0390911690639403b6349060240160206040518083038186803b15801561173b57600080fd5b505afa15801561174f573d6000803e3d6000fd5b505050506040513d601f19601f820116820180604052508101906117739190615717565b6040516370a0823160e01b81526001600160a01b03878116600483015291909116906370a082319060240160206040518083038186803b1580156117b657600080fd5b505afa1580156117ca573d6000803e3d6000fd5b505050506040513d601f19601f820116820180604052508101906117ee9190615919565b600754604051632500ed8d60e21b8152600481018790526001600160a01b0390911690639403b6349060240160206040518083038186803b15801561183257600080fd5b505afa158015611846573d6000803e3d6000fd5b505050506040513d601f19601f8201168201806040525081019061186a9190615717565b6001600160a01b03166318160ddd6040518163ffffffff1660e01b815260040160206040518083038186803b1580156118a257600080fd5b505afa1580156118b6573d6000803e3d6000fd5b505050506040513d601f19601f820116820180604052508101906118da9190615919565b839190614bce565b949350505050565b60065460ff161561190d5760405162461bcd60e51b815260040161097c90615bf1565b6006805460ff1916600117905560008281526011602052604090206002015460ff161561197c5760405162461bcd60e51b815260206004820152601e60248201527f4d61726b6574205374696c6c20447572696e67204173736573736d656e740000604482015260640161097c565b600081611b69576000600884815481106119a657634e487b7160e01b600052603260045260246000fd5b60009182526020822060059190910201600101546040516370a0823160e01b81523360048201526001600160a01b03909116925082906370a082319060240160206040518083038186803b1580156119fd57600080fd5b505afa158015611a11573d6000803e3d6000fd5b505050506040513d601f19601f82011682018060405250810190611a359190615919565b1015611a735760405162461bcd60e51b815260206004820152600d60248201526c456d7074792042616c616e636560981b604482015260640161097c565b60008481526019602090815260408083203380855292528083208054939055516370a0823160e01b8152600481018290529193506001600160a01b038316916342986e13919083906370a082319060240160206040518083038186803b158015611adc57600080fd5b505afa158015611af0573d6000803e3d6000fd5b505050506040513d601f19601f82011682018060405250810190611b149190615919565b6040518363ffffffff1660e01b8152600401611b31929190615b30565b600060405180830381600087803b158015611b4b57600080fd5b505af1158015611b5f573d6000803e3d6000fd5b5050505050611dab565b600060088481548110611b8c57634e487b7160e01b600052603260045260246000fd5b60009182526020822060059190910201546040516370a0823160e01b81523360048201526001600160a01b03909116925082906370a082319060240160206040518083038186803b158015611be057600080fd5b505afa158015611bf4573d6000803e3d6000fd5b505050506040513d601f19601f82011682018060405250810190611c189190615919565b1015611c565760405162461bcd60e51b815260206004820152600d60248201526c456d7074792042616c616e636560981b604482015260640161097c565b611c608433610af7565b15611cb7576000848152600a602090815260408083206001810154338552600590910190925290912054611c93916145cc565b6000858152600a602090815260408083203384526005019091528120559150611cd8565b60008481526018602090815260408083203384529091528120805491905591505b6040516370a0823160e01b815233600482018190526001600160a01b038316916342986e13919083906370a082319060240160206040518083038186803b158015611d2257600080fd5b505afa158015611d36573d6000803e3d6000fd5b505050506040513d601f19601f82011682018060405250810190611d5a9190615919565b6040518363ffffffff1660e01b8152600401611d77929190615b30565b600060405180830381600087803b158015611d9157600080fd5b505af1158015611da5573d6000803e3d6000fd5b50505050505b600754604051631e1fa3a760e31b815260048101839052336024820152604481018590526001600160a01b039091169063f0fd1d3890606401600060405180830381600087803b158015611dfe57600080fd5b505af1158015611e12573d6000803e3d6000fd5b50506006805460ff191690555050505050565b60065460ff1615611e485760405162461bcd60e51b815260040161097c90615bf1565b6006805460ff19166001179055611e6e8360009081526011602052604090205460ff1690565b15611e7e57611e7e833384614bed565b600060088481548110611ea157634e487b7160e01b600052603260045260246000fd5b906000526020600020906005020160010160009054906101000a90046001600160a01b031690506000816001600160a01b0316635c1548fb6040518163ffffffff1660e01b815260040160206040518083038186803b158015611f0357600080fd5b505afa158015611f17573d6000803e3d6000fd5b505050506040513d601f19601f82011682018060405250810190611f3b9190615717565b604051636361ddf360e11b81529091506001600160a01b0382169063c6c3bbe690611f6e90339030908990600401615b0c565b600060405180830381600087803b158015611f8857600080fd5b505af1158015611f9c573d6000803e3d6000fd5b505060405163095ea7b360e01b81526001600160a01b038416925063095ea7b39150611fce9085908890600401615b30565b602060405180830381600087803b158015611fe857600080fd5b505af1158015611ffc573d6000803e3d6000fd5b505050506040513d601f19601f82011682018060405250810190612020919061575e565b5060405163682a5a4760e01b81526004810185905260009081906001600160a01b0385169063682a5a4790602401604080518083038186803b15801561206557600080fd5b505afa158015612079573d6000803e3d6000fd5b505050506040513d601f19601f8201168201806040525081019061209d91906159d9565b915091506120b0873388600160006148ff565b6120bb338884614c29565b600087905260116020526040516370178c7b60e11b81526001600160a01b0385169063e02f18f6906120f59030908a908a90600401615b49565b6040805180830381600087803b15801561210e57600080fd5b505af1158015612122573d6000803e3d6000fd5b505050506040513d601f19601f8201168201806040525081019061214691906159d9565b505060405163a9059cbb60e01b81526001600160a01b0385169063a9059cbb906121769033908690600401615b30565b602060405180830381600087803b15801561219057600080fd5b505af11580156121a4573d6000803e3d6000fd5b505050506040513d601f19601f820116820180604052508101906121c8919061575e565b50506006805460ff19169055505050505050565b60065460009060ff16156122025760405162461bcd60e51b815260040161097c90615bf1565b6006805460ff1916600117905561222b8260009081526011602052604090206002015460ff1690565b156122685760405162461bcd60e51b815260206004820152600d60248201526c4d61726b65742041637469766560981b604482015260640161097c565b60006008838154811061228b57634e487b7160e01b600052603260045260246000fd5b60009182526020822060059190910201600101546040516370a0823160e01b81523360048201526001600160a01b03909116925082906370a082319060240160206040518083038186803b1580156122e257600080fd5b505afa1580156122f6573d6000803e3d6000fd5b505050506040513d601f19601f8201168201806040525081019061231a9190615919565b6040516342986e1360e01b81529091506001600160a01b038316906342986e139061234b9033908590600401615b30565b600060405180830381600087803b15801561236557600080fd5b505af1158015612379573d6000803e3d6000fd5b5050600754604051632500ed8d60e21b8152600481018890526001600160a01b039091169250639403b634915060240160206040518083038186803b1580156123c157600080fd5b505afa1580156123d5573d6000803e3d6000fd5b505050506040513d601f19601f820116820180604052508101906123f99190615717565b6040516370a0823160e01b81526001600160a01b03848116600483015291909116906370a082319060240160206040518083038186803b15801561243c57600080fd5b505afa158015612450573d6000803e3d6000fd5b505050506040513d601f19601f820116820180604052508101906124749190615919565b1561248f57634e487b7160e01b600052600160045260246000fd5b6000848152600c602052604081205490670de0b6b3a76400008210156124c6576124c182670de0b6b3a7640000615d6c565b6124c9565b60005b905060006124d782856145cc565b600754604051631e1fa3a760e31b815260048101839052336024820152604481018a90529192506001600160a01b03169063f0fd1d3890606401600060405180830381600087803b15801561252b57600080fd5b505af115801561253f573d6000803e3d6000fd5b50506006805460ff191690555090979650505050505050565b6001546001600160a01b031633146125d05760405162461bcd60e51b815260206004820152603560248201527f596f75206d757374206265206e6f6d696e61746564206265666f726520796f7560448201527402063616e20616363657074206f776e65727368697605c1b606482015260840161097c565b600054600154604080516001600160a01b0393841681529290911660208301527fb532073b38c83145e3e5135377a08bf9aab55bc0fd7c1179cd4fb995d2a5159c910160405180910390a160018054600080546001600160a01b03199081166001600160a01b03841617909155169055565b60065460ff16156126655760405162461bcd60e51b815260040161097c90615bf1565b6006805460ff1916600117905560088054600091908590811061269857634e487b7160e01b600052603260045260246000fd5b60009182526020909120600160059092020101546001600160a01b031690506126c2338585614dc2565b6040516323b872dd60e01b81526001600160a01b038216906323b872dd906126f290339030908890600401615b0c565b602060405180830381600087803b15801561270c57600080fd5b505af1158015612720573d6000803e3d6000fd5b505050506040513d601f19601f82011682018060405250810190612744919061575e565b50600080826001600160a01b0316633bd849e83087876040518463ffffffff1660e01b815260040161277893929190615b49565b6040805180830381600087803b15801561279157600080fd5b505af11580156127a5573d6000803e3d6000fd5b505050506040513d601f19601f820116820180604052508101906127c991906159d9565b915091506127db8633846000806148ff565b60008681526011602052604090205460ff16156128215760008681526017602090815260408083203384529091528120805484929061281b908490615d6c565b90915550505b6008868154811061284257634e487b7160e01b600052603260045260246000fd5b6000918252602090912060059091020154604051638e2091df60e01b81526001600160a01b0390911690638e2091df906128829086908590600401615b30565b600060405180830381600087803b15801561289c57600080fd5b505af11580156128b0573d6000803e3d6000fd5b50505050826001600160a01b0316635c1548fb6040518163ffffffff1660e01b815260040160206040518083038186803b1580156128ed57600080fd5b505afa158015612901573d6000803e3d6000fd5b505050506040513d601f19601f820116820180604052508101906129259190615717565b6001600160a01b0316630e6dfcd53033856040518463ffffffff1660e01b815260040161295493929190615b0c565b600060405180830381600087803b15801561296e57600080fd5b505af1158015612982573d6000803e3d6000fd5b50506006805460ff191690555050505050505050565b6007546001600160a01b03163314806129bb57506000546001600160a01b031633145b806129c557503330145b6129e15760405162461bcd60e51b815260040161097c90615c16565b60008181526011602052604090206002015460ff166129ff57600080fd5b600081815260116020526040808220805460ff191690556007549051632500ed8d60e21b815260048101849052612b41916001600160a01b031690639403b6349060240160206040518083038186803b158015612a5b57600080fd5b505afa158015612a6f573d6000803e3d6000fd5b505050506040513d601f19601f82011682018060405250810190612a939190615717565b6001600160a01b0316639ec4d40e846040518263ffffffff1660e01b8152600401612ac091815260200190565b60006040518083038186803b158015612ad857600080fd5b505afa158015612aec573d6000803e3d6000fd5b505050506040513d6000823e601f3d908101601f19168201604052612b14919081019061577a565b6080015160008481526014602052604090206004810154600290910154612b3b9190615d6c565b906145cc565b9050612b4d8282614eb6565b5050565b612b59615536565b6040518060a0016040528060006001600160a01b0316815260200160006001600160a01b03168152602001604051806020016040528060008152508152602001600081526020016000815250905090565b612bb38161350c565b612bff5760405162461bcd60e51b815260206004820152601860248201527f4d61726b65742063616e277420626520617070726f7665640000000000000000604482015260640161097c565b600060088281548110612c2257634e487b7160e01b600052603260045260246000fd5b60009182526020808320600590920290910154848352600a825260408084205460149093528320546001600160a01b039091169350909190612c6a9063ffffffff1683615d2d565b6000858152600a602052604081206001015491925090612c8b9083906145cc565b6000868152600a60209081526040808320338452600501909152902054909150821015612ced5760405162461bcd60e51b815260206004820152601060248201526f185b1c9958591e48185c1c1c9bdd995960821b604482015260640161097c565b6000858152600a6020908152604080832033845260050190915281208054849290612d19908490615d15565b90915550612d2a9050826001615d15565b6000868152600a602052604081206006018054909190612d4b908490615d15565b90915550506000858152600a60205260408120600701805460019290612d72908490615d15565b925050819055506000846001600160a01b0316635c1548fb6040518163ffffffff1660e01b815260040160206040518083038186803b158015612db457600080fd5b505afa158015612dc8573d6000803e3d6000fd5b505050506040513d601f19601f82011682018060405250810190612dec9190615717565b604051636361ddf360e11b81529091506001600160a01b0382169063c6c3bbe690612e1f90339030908790600401615b0c565b600060405180830381600087803b158015612e3957600080fd5b505af1158015612e4d573d6000803e3d6000fd5b505060405163a9059cbb60e01b81526001600160a01b038416925063a9059cbb9150612e7f9088908690600401615b30565b602060405180830381600087803b158015612e9957600080fd5b505af1158015612ead573d6000803e3d6000fd5b505050506040513d601f19601f82011682018060405250810190612ed1919061575e565b5060405163681504cd60e01b81526001600160a01b0386169063681504cd90612f009033908790600401615b30565b600060405180830381600087803b158015612f1a57600080fd5b505af1158015612f2e573d6000803e3d6000fd5b50506040516308e6f88360e31b8152600481018590526001600160a01b0388169250634737c4189150602401600060405180830381600087803b158015612f7457600080fd5b505af1158015612f88573d6000803e3d6000fd5b5050506000878152600a6020526040902080546006909101541090506130075760075460405163cabe2ae160e01b8152600481018890526001600160a01b039091169063cabe2ae190602401600060405180830381600087803b158015612fee57600080fd5b505af1158015613002573d6000803e3d6000fd5b505050505b505050505050565b60006008828154811061303257634e487b7160e01b600052603260045260246000fd5b60009182526020909120600160059092020101546001600160a01b031692915050565b600081815260116020526040812054610100900460ff16156130c95761307a8261350c565b15801561308d575061308b8261319a565b155b80156130a7575060008281526011602052604090205460ff165b6130c157634e487b7160e01b600052600160045260246000fd5b506001919050565b60008281526011602052604090205460ff1680156130fb5750600082815260116020526040902054610100900460ff16155b15613142576131098261319a565b1561312457634e487b7160e01b600052600160045260246000fd5b61312d8261350c565b1561313a57506003919050565b506002919050565b61314b8261319a565b156131955760008281526011602052604090205460ff1615801561317357506131738261350c565b61318d57634e487b7160e01b600052600160045260246000fd5b506004919050565b919050565b60008181526011602052604081205460ff16158015610b7c57505060009081526011602052604090206002015460ff1690565b600754604051632500ed8d60e21b81526004810183905260009182916001600160a01b0390911690639403b6349060240160206040518083038186803b15801561321657600080fd5b505afa15801561322a573d6000803e3d6000fd5b505050506040513d601f19601f8201168201806040525081019061324e9190615717565b6001600160a01b0316639ec4d40e846040518263ffffffff1660e01b815260040161327b91815260200190565b60006040518083038186803b15801561329357600080fd5b505afa1580156132a7573d6000803e3d6000fd5b505050506040513d6000823e601f3d908101601f191682016040526132cf919081019061577a565b60800151600754604051632500ed8d60e21b8152600481018690529192506000916001600160a01b0390911690639403b6349060240160206040518083038186803b15801561331d57600080fd5b505afa158015613331573d6000803e3d6000fd5b505050506040513d601f19601f820116820180604052508101906133559190615717565b6001600160a01b0316639ec4d40e856040518263ffffffff1660e01b815260040161338291815260200190565b60006040518083038186803b15801561339a57600080fd5b505afa1580156133ae573d6000803e3d6000fd5b505050506040513d6000823e601f3d908101601f191682016040526133d6919081019061577a565b60a001516000858152601460205260408120600201549192509061340d9061340690670de0b6b3a7640000615d6c565b84906145cc565b90506134198282614628565b61342b90670de0b6b3a7640000615d6c565b95945050505050565b6008818154811061344457600080fd5b60009182526020909120600590910201805460018201546002830180546001600160a01b03938416955092909116929161347d90615db3565b80601f01602080910402602001604051908101604052809291908181526020018280546134a990615db3565b80156134f65780601f106134cb576101008083540402835291602001916134f6565b820191906000526020600020905b8154815290600101906020018083116134d957829003601f168201915b5050505050908060030154908060040154905085565b6000806008838154811061353057634e487b7160e01b600052603260045260246000fd5b6000918252602082206005919091020154600754604051632500ed8d60e21b8152600481018790526001600160a01b039283169450911690639403b6349060240160206040518083038186803b15801561358957600080fd5b505afa15801561359d573d6000803e3d6000fd5b505050506040513d601f19601f820116820180604052508101906135c19190615717565b6001600160a01b0316639ec4d40e856040518263ffffffff1660e01b81526004016135ee91815260200190565b60006040518083038186803b15801561360657600080fd5b505afa15801561361a573d6000803e3d6000fd5b505050506040513d6000823e601f3d908101601f19168201604052613642919081019061577a565b6080015190506000826001600160a01b031663d6eb59106040518163ffffffff1660e01b815260040160206040518083038186803b15801561368357600080fd5b505afa158015613697573d6000803e3d6000fd5b505050506040513d601f19601f820116820180604052508101906136bb9190615919565b6000868152601460205260409020600201549091506136db9083906145cc565b1115949350505050565b60075460405163b9209e3360e01b81526001600160a01b038381166004830152600092169063b9209e339060240160206040518083038186803b15801561372b57600080fd5b505afa15801561373f573d6000803e3d6000fd5b505050506040513d601f19601f82011682018060405250810190613763919061575e565b80610b7c5750506000546001600160a01b0390811691161490565b6137c46040518060e00160405280600063ffffffff1681526020016000815260200160008152602001600081526020016000815260200160008152602001600081525090565b50600090815260146020908152604091829020825160e081018452815463ffffffff1681526001820154928101929092526002810154928201929092526003820154606082015260048201546080820152600582015460a082015260069091015460c082015290565b60065460009060ff16156138535760405162461bcd60e51b815260040161097c90615bf1565b6006805460ff1916600117905560008481526011602052604090205462010000900460ff16156138bc5760405162461bcd60e51b81526020600482015260146024820152731b5d5cdd081b9bdd081899481c995cdbdb1d995960621b604482015260640161097c565b6138c7338486614f40565b6139065760405162461bcd60e51b815260206004820152601060248201526f151c9859194814995cdd1c9a58dd195960821b604482015260640161097c565b60006008858154811061392957634e487b7160e01b600052603260045260246000fd5b60009182526020909120600590910201546040516323b872dd60e01b81526001600160a01b03909116915081906323b872dd9061396e90339030908990600401615b0c565b602060405180830381600087803b15801561398857600080fd5b505af115801561399c573d6000803e3d6000fd5b505050506040513d601f19601f820116820180604052508101906139c0919061575e565b50604051634d71b5a560e01b81526001600160a01b03821690634d71b5a5906139f190309088908890600401615b49565b602060405180830381600087803b158015613a0b57600080fd5b505af1158015613a1f573d6000803e3d6000fd5b505050506040513d601f19601f82011682018060405250810190613a439190615919565b9150613a54853384600060016148ff565b806001600160a01b0316635c1548fb6040518163ffffffff1660e01b815260040160206040518083038186803b158015613a8d57600080fd5b505afa158015613aa1573d6000803e3d6000fd5b505050506040513d601f19601f82011682018060405250810190613ac59190615717565b6001600160a01b0316630e6dfcd53033856040518463ffffffff1660e01b8152600401613af493929190615b0c565b600060405180830381600087803b158015613b0e57600080fd5b505af1158015613b22573d6000803e3d6000fd5b5050506000959095525060116020526006805460ff191690559392505050565b600654604051631d699f5760e21b81526001600160a01b0383811660048301526000928392610100909104909116906375a67d5c9060240160206040518083038186803b158015613b9257600080fd5b505afa158015613ba6573d6000803e3d6000fd5b505050506040513d601f19601f82011682018060405250810190613bca9190615919565b9050600060088581548110613bef57634e487b7160e01b600052603260045260246000fd5b6000918252602091829020600590910201546040805163225d3c8f60e11b815290516001600160a01b03909216926344ba791e92600480840193829003018186803b158015613c3d57600080fd5b505afa158015613c51573d6000803e3d6000fd5b505050506040513d601f19601f82011682018060405250810190613c759190615919565b905081613c8757600092505050610b7c565b613ca1613c9c670de0b6b3a764000084615d4d565b615046565b60008681526011602052604090206003015461342b9190615d15565b6000818152600a602090815260408083205460149092528220548290613ce99063ffffffff1683615d2d565b6000858152600a60205260409020600101549091506118e29082906145cc565b60065460009060ff1615613d2f5760405162461bcd60e51b815260040161097c90615bf1565b6006805460ff19166001179055613d588260009081526011602052604090206002015460ff1690565b15613d955760405162461bcd60e51b815260206004820152600d60248201526c4d61726b65742041637469766560981b604482015260640161097c565b60008281526011602052604090205462010000900460ff16613def5760405162461bcd60e51b815260206004820152601360248201527213585c9ad95d081b9bdd081c995cdbdb1d9959606a1b604482015260640161097c565b600082815260156020908152604080832033845290915290205460ff1615613e4c5760405162461bcd60e51b815260206004820152601060248201526f105b1c9958591e4814995919595b595960821b604482015260640161097c565b6000828152601560209081526040808320338085529252909120805460ff19166001179055613e7c908390610af7565b15613e9f576000828152600a602090815260408083203384526005019091528120555b600060088381548110613ec257634e487b7160e01b600052603260045260246000fd5b6000918252602090912060059091020154600754604051632500ed8d60e21b8152600481018690526001600160a01b039283169350911690639403b6349060240160206040518083038186803b158015613f1b57600080fd5b505afa158015613f2f573d6000803e3d6000fd5b505050506040513d601f19601f82011682018060405250810190613f539190615717565b6040516370a0823160e01b81526001600160a01b03838116600483015291909116906370a082319060240160206040518083038186803b158015613f9657600080fd5b505afa158015613faa573d6000803e3d6000fd5b505050506040513d601f19601f82011682018060405250810190613fce9190615919565b15613fe957634e487b7160e01b600052600160045260246000fd5b6040516370a0823160e01b81523360048201526000906001600160a01b038316906370a082319060240160206040518083038186803b15801561402b57600080fd5b505afa15801561403f573d6000803e3d6000fd5b505050506040513d601f19601f820116820180604052508101906140639190615919565b6040516342986e1360e01b81529091506001600160a01b038316906342986e13906140949033908590600401615b30565b600060405180830381600087803b1580156140ae57600080fd5b505af11580156140c2573d6000803e3d6000fd5b5050506000858152600c602052604081205491506140e082846145cc565b90506140ec8633610af7565b61417b576000670de0b6b3a764000083101561410957600061410c565b60015b60075460405163494ef44760e01b8152600481018a905233602482015282151560448201529192506001600160a01b03169063494ef44790606401600060405180830381600087803b15801561416157600080fd5b505af1158015614175573d6000803e3d6000fd5b50505050505b336000908152601a602052604090205460ff166141fe57600754604051631e1fa3a760e31b815260048101839052336024820152604481018890526001600160a01b039091169063f0fd1d3890606401600060405180830381600087803b1580156141e557600080fd5b505af11580156141f9573d6000803e3d6000fd5b505050505b6006805460ff1916905595945050505050565b6000818152600a60209081526040808320600701546014909252822054610b7c919063ffffffff16615d6c565b600654604051631d699f5760e21b81526001600160a01b038481166004830152600092610100900416906375a67d5c9060240160206040518083038186803b15801561428957600080fd5b505afa15801561429d573d6000803e3d6000fd5b505050506040513d601f19601f820116820180604052508101906142c19190615919565b6000838152601160205260409020600101541115806142ed57506000546001600160a01b038481169116145b9392505050565b6142fc615536565b600854821061430d57610b7c612b51565b6008828154811061432e57634e487b7160e01b600052603260045260246000fd5b60009182526020918290206040805160a081018252600590930290910180546001600160a01b039081168452600182015416938301939093526002830180549293929184019161437d90615db3565b80601f01602080910402602001604051908101604052809291908181526020018280546143a990615db3565b80156143f65780601f106143cb576101008083540402835291602001916143f6565b820191906000526020600020905b8154815290600101906020018083116143d957829003601f168201915b50505050508152602001600382015481526020016004820154815250509050919050565b6007546001600160a01b031633148061443d57506000546001600160a01b031633145b8061444757503330145b6144635760405162461bcd60e51b815260040161097c90615c16565b60086040518060a00160405280876001600160a01b03168152602001866001600160a01b0316815260200185858080601f01602080910402602001604051908101604052809392919081815260200183838082843760009201829052509385525050506020808301869052604092830182905284546001818101875595835291819020845160059093020180546001600160a01b039384166001600160a01b0319918216178255858301519682018054979094169616959095179091559082015180519293926145399260028501920190615577565b50606082015160038201556080909101516004909101556000614566670de0b6b3a76400006103e8615d4d565b9050614575896001808461511f565b61457e89615173565b6145898989896152b5565b600089815260146020526040902060048101546002909101546145c1918b916145bc916145b591615d15565b8b906145cc565b6153fb565b505050505050505050565b60006142ed8383670de0b6b3a7640000614bce565b610af28383836040516024016145f993929190615bcc565b60408051601f198184030181529190526020810180516001600160e01b031663969cdd0360e01b17905261545b565b60006142ed83670de0b6b3a764000084614bce565b612b4d8282604051602401614653929190615baa565b60408051601f198184030181529190526020810180516001600160e01b03166309710a9d60e41b17905261545b565b60008181526011602052604090206002015460ff166146b35760405162461bcd60e51b815260040161097c90615c41565b600081815260166020908152604080832033845290915290205460ff16156146da57505050565b60008181526011602052604090205460ff80821691610100900416811561483557614704856136e5565b6147495760405162461bcd60e51b81526020600482015260166024820152751d1c9859195c881a5cc81b9bdd081d995c9a599a595960521b604482015260640161097c565b600654604051631f32033160e01b8152600481018590526001600160a01b03878116602483015261010090920490911690631f3203319060440160206040518083038186803b15801561479b57600080fd5b505afa1580156147af573d6000803e3d6000fd5b505050506040513d601f19601f820116820180604052508101906147d39190615919565b6147dd9085615d15565b6147e78487613b42565b10156148355760405162461bcd60e51b815260206004820152601c60248201527f74726164657220627564676574206c696d697420657863656564656400000000604482015260640161097c565b80156148f857816148975760405162461bcd60e51b815260206004820152602660248201527f4d61726b6574206e6565647320746f20626520696e206173736573736d656e7460448201526520706861736560d01b606482015260840161097c565b6148a1858461423e565b6148f85760405162461bcd60e51b815260206004820152602260248201527f747261646572206c61636b732073756666696369656e7420726570757461746960448201526137b760f11b606482015260840161097c565b5050505050565b801561497a5781156149485760008581526018602090815260408083206001600160a01b03881684529091528120805485929061493d908490615d15565b909155506148f89050565b60008581526018602090815260408083206001600160a01b03881684529091528120805485929061493d908490615d6c565b81156149b25760008581526019602090815260408083206001600160a01b03881684529091528120805485929061493d908490615d15565b60008581526019602090815260408083206001600160a01b0388168452909152812080548592906149e4908490615d6c565b90915550505050505050565b60008281526011602052604090206002015460ff16614a485760405162461bcd60e51b81526020600482015260146024820152736d61726b6574206d75737420626520616c69766560601b604482015260640161097c565b60009182526011602052604090912080549115156101000261ff0019909216919091179055565b6000818152600a6020818152604080842060048101805461ff0019166101001790556014835293205491905260029091015463ffffffff90911610614ad0576000818152600a60205260409020600281018054612b4d9260030191906155fb565b600254600354600480546000858152601460205260408082205490516305d3b1d360e41b81529384019490945267ffffffffffffffff7f0000000000000000000000000000000000000000000000000000000000000000166024840152640100000000820461ffff16604484015263ffffffff91821660648401529216608482015290916001600160a01b031690635d3b1d309060a401602060405180830381600087803b158015614b8157600080fd5b505af1158015614b95573d6000803e3d6000fd5b505050506040513d601f19601f82011682018060405250810190614bb99190615919565b60009081526009602052604090209190915550565b828202811515841585830485141716614be657600080fd5b0492915050565b60008381526017602090815260408083206001600160a01b038616845290915281208054839290614c1f908490615d15565b9091555050505050565b600060088381548110614c4c57634e487b7160e01b600052603260045260246000fd5b600091825260208083206005909202909101548583526013825260408084206001600160a01b038981168652938190529084208054939092169450928592614c95908490615d15565b90915550506001600160a01b038516600090815260018201602052604081208054859290614cc4908490615d15565b9250508190555082816002016000828254614cdf9190615d15565b9250508190555082816003016000828254614cfa9190615d15565b909155505060008481526012602052604081208054859290614d1d908490615d15565b92505081905550816001600160a01b031663681504cd60088681548110614d5457634e487b7160e01b600052603260045260246000fd5b60009182526020909120600160059092020101546040516001600160e01b031960e084901b168152614d94916001600160a01b0316908790600401615b30565b600060405180830381600087803b158015614dae57600080fd5b505af11580156145c1573d6000803e3d6000fd5b600060088381548110614de557634e487b7160e01b600052603260045260246000fd5b600091825260208083206005909202909101548583526013825260408084206001600160a01b038981168652938190529084208054939092169450928592614e2e908490615d6c565b90915550506001600160a01b038516600090815260018201602052604081208054859290614e5d908490615d6c565b9250508190555082816002016000828254614e789190615d6c565b9250508190555082816003016000828254614e939190615d6c565b9091555050600084815260126020526040812080548592906149e4908490615d6c565b60088281548110614ed757634e487b7160e01b600052603260045260246000fd5b600091825260209091206005909102015460405163027457e960e41b8152600481018390526001600160a01b03909116906327457e90906024015b600060405180830381600087803b158015614f2c57600080fd5b505af1158015613007573d6000803e3d6000fd5b60008181526011602052604081206002015460ff16614f715760405162461bcd60e51b815260040161097c90615c41565b600060088381548110614f9457634e487b7160e01b600052603260045260246000fd5b6000918252602090912060059091020154604051631a7f352b60e21b8152600481018690526001600160a01b03909116915081906369fcd4ac9060240160206040518083038186803b158015614fe957600080fd5b505afa158015614ffd573d6000803e3d6000fd5b505050506040513d601f19601f820116820180604052508101906150219190615919565b61502b8487613b42565b101561503b5760009150506142ed565b506001949350505050565b600181600160801b811061505f5760409190911b9060801c5b68010000000000000000811061507a5760209190911b9060401c5b64010000000081106150915760109190911b9060201c5b6201000081106150a65760089190911b9060101c5b61010081106150ba5760049190911b9060081c5b601081106150cd5760029190911b9060041c5b600881106150dc578160011b91505b5080820401600190811c80830401811c80830401811c80830401811c80830401811c80830401811c80830401901c80820481811015615119578091505b50919050565b6000848152601160205260409020805461ffff19166101008415150260ff19161784151517815561514f8561547c565b6001808301919091556003820192909255600201805460ff19169091179055505050565b6000818152601660205260408120600880546001939190859081106151a857634e487b7160e01b600052603260045260246000fd5b60009182526020808320600592909202909101600101546001600160a01b031683528201929092526040019020805460ff1916911515919091179055600880548290811061520657634e487b7160e01b600052603260045260246000fd5b6000918252602090912060059091020154600880546001600160a01b03909216916301ddc7ba91908490811061524c57634e487b7160e01b600052603260045260246000fd5b600091825260209091206005909102016001015460405160e083901b6001600160e01b03191681526001600160a01b039091166004820152602401600060405180830381600087803b1580156152a157600080fd5b505af11580156148f8573d6000803e3d6000fd5b6000600884815481106152d857634e487b7160e01b600052603260045260246000fd5b6000918252602080832060059092029091015486835260149091526040909120600101546001600160a01b03909116915061531290615517565b8015615322575061532283615517565b61533c57634e487b7160e01b600052600160045260246000fd5b60008481526014602052604081206001015461535890856145cc565b90506000826001600160a01b0316636c438fe36040518163ffffffff1660e01b815260040160206040518083038186803b15801561539557600080fd5b505afa1580156153a9573d6000803e3d6000fd5b505050506040513d601f19601f820116820180604052508101906153cd9190615919565b905060006153db8383614628565b6000978852600a6020526040909720918255506001019490945550505050565b6008828154811061541c57634e487b7160e01b600052603260045260246000fd5b600091825260209091206005909102015460405163f4eec7c960e01b8152600481018390526001600160a01b039091169063f4eec7c990602401614f12565b80516a636f6e736f6c652e6c6f67602083016000808483855afa5050505050565b60065460008281526014602052604080822060050154905163b5e39ec360e01b8152600481019190915260248101849052909161010090046001600160a01b03169063b5e39ec39060440160206040518083038186803b1580156154df57600080fd5b505afa1580156154f3573d6000803e3d6000fd5b505050506040513d601f19601f82011682018060405250810190610b7c9190615919565b600061552d612710670de0b6b3a7640000615d2d565b90911015919050565b6040518060a0016040528060006001600160a01b0316815260200160006001600160a01b031681526020016060815260200160008152602001600081525090565b82805461558390615db3565b90600052602060002090601f0160209004810192826155a557600085556155eb565b82601f106155be57805160ff19168380011785556155eb565b828001600101855582156155eb579182015b828111156155eb5782518255916020019190600101906155d0565b506155f792915061563b565b5090565b8280548282559060005260206000209081019282156155eb5760005260206000209182015b828111156155eb578254825591600101919060010190615620565b5b808211156155f7576000815560010161563c565b805161319581615e2f565b805161319581615e47565b80516002811061319557600080fd5b600082601f830112615685578081fd5b815167ffffffffffffffff808211156156a0576156a0615e19565b604051601f8301601f19908116603f011681019082821181831017156156c8576156c8615e19565b816040528381528660208588010111156156e0578485fd5b6156f1846020830160208901615d83565b9695505050505050565b60006020828403121561570c578081fd5b81356142ed81615e2f565b600060208284031215615728578081fd5b81516142ed81615e2f565b60008060408385031215615745578081fd5b823561575081615e2f565b946020939093013593505050565b60006020828403121561576f578081fd5b81516142ed81615e47565b60006020828403121561578b578081fd5b815167ffffffffffffffff808211156157a2578283fd5b9083019061016082860312156157b6578283fd5b6157be615cc8565b6157c78361565b565b81526020830151602082015260408301516040820152606083015160608201526080830151608082015260a083015160a082015260c083015160c082015260e083015182811115615816578485fd5b61582287828601615675565b60e0830152506101009150615838828401615650565b82820152610120915061584c828401615666565b9181019190915261014091820151918101919091529392505050565b600080600083850361012081121561587e578182fd5b60e081121561588b578182fd5b50615894615cf2565b843563ffffffff811681146158a7578283fd5b808252506020850135602082015260408501356040820152606085013560608201526080850135608082015260a085013560a082015260c085013560c08201528093505060e0840135915061010084013590509250925092565b600060208284031215615912578081fd5b5035919050565b60006020828403121561592a578081fd5b5051919050565b60008060408385031215615943578182fd5b82359150602083013561595581615e2f565b809150509250929050565b60008060408385031215615972578182fd5b82359150602083013561595581615e47565b600080600080600060a0868803121561599b578283fd5b8535945060208601356159ad81615e47565b9350604086013592506060860135915060808601356159cb81615e47565b809150509295509295909350565b600080604083850312156159eb578182fd5b505080516020909101519092909150565b600080600060608486031215615a10578081fd5b505081359360208301359350604090920135919050565b60008060008060008060008060e0898b031215615a42578586fd5b8835975060208901359650604089013595506060890135615a6281615e2f565b94506080890135615a7281615e2f565b935060a089013567ffffffffffffffff80821115615a8e578485fd5b818b0191508b601f830112615aa1578485fd5b813581811115615aaf578586fd5b8c6020828501011115615ac0578586fd5b60208301955080945050505060c089013590509295985092959890939650565b60008151808452615af8816020860160208601615d83565b601f01601f19169290920160200192915050565b6001600160a01b039384168152919092166020820152604081019190915260600190565b6001600160a01b03929092168252602082015260400190565b6001600160a01b039390931683526020830191909152604082015260600190565b6001600160a01b0386811682528516602082015260a060408201819052600090615b9690830186615ae0565b606083019490945250608001529392505050565b604081526000615bbd6040830185615ae0565b90508260208301529392505050565b606081526000615bdf6060830186615ae0565b60208301949094525060400152919050565b6020808252600b908201526a4552525f5245454e54525960a81b604082015260600190565b60208082526011908201527034b9903737ba1031b7b73a3937b63632b960791b604082015260600190565b6020808252601190820152704d61726b6574204e6f742041637469766560781b604082015260600190565b60208152600060018060a01b0380845116602084015280602085015116604084015250604083015160a06060840152615ca860c0840182615ae0565b905060608401516080840152608084015160a08401528091505092915050565b604051610160810167ffffffffffffffff81118282101715615cec57615cec615e19565b60405290565b60405160e0810167ffffffffffffffff81118282101715615cec57615cec615e19565b60008219821115615d2857615d28615e03565b500190565b600082615d4857634e487b7160e01b81526012600452602481fd5b500490565b6000816000190483118215151615615d6757615d67615e03565b500290565b600082821015615d7e57615d7e615e03565b500390565b60005b83811015615d9e578181015183820152602001615d86565b83811115615dad576000848401525b50505050565b600181811c90821680615dc757607f821691505b6020821081141561511957634e487b7160e01b600052602260045260246000fd5b6000600019821415615dfc57615dfc615e03565b5060010190565b634e487b7160e01b600052601160045260246000fd5b634e487b7160e01b600052604160045260246000fd5b6001600160a01b0381168114615e4457600080fd5b50565b8015158114615e4457600080fdfea26469706673582212203c0c7cea5bad822c40e7eeae090eb29b76c77d3113d745b72fc17bfc73d20c7364736f6c63430008040033",
  "devdoc": {
    "kind": "dev",
    "methods": {
      "approveMarketAndSetLowerBound(uint256)": {
        "details": "if market is alive and market is not during assessment, it is approved. "
      },
      "buy(uint256,uint256,uint256)": {
        "params": {
          "_collateralIn": ": amount of collateral tokens in WAD",
          "_min_amount_out": "is min quantity of ZCB returned"
        }
      },
      "closeShort(uint256,uint256,uint256)": {
        "params": {
          "close_amount": "is in of shortZCB, 18dec "
        }
      },
      "isVerified(address)": {
        "details": "verification of trader initializes reputation score at 0, to gain reputation need to participate in markets."
      },
      "openShort(uint256,uint256,uint256)": {
        "params": {
          "collateralIn": ": amount of collateral (vt)"
        }
      },
      "setParameters((uint32,uint256,uint256,uint256,uint256,uint256,uint256),uint256,uint256)": {
        "details": "calculates market driven s from utilization rate. If u-r high,  then s should be low, as 1) it disincentivizes  managers to approving as more proportion of the profit goes to the LP, and 2) disincentivizes the borrower  to borrow as it lowers approved principal and increases interest rate "
      },
      "update_redemption_price(uint256,bool,uint256,uint256,bool)": {
        "details": "Redemption price, as calculated (only once) at maturity, depends on total_repayed/(principal + predetermined yield) If total_repayed = 0, redemption price is 0",
        "params": {
          "atLoss": ": defines circumstances where expected returns are higher than actual",
          "extra_gain": ": any extra yield not factored during assessment. Is 0 yield is as expected",
          "loss": ": facevalue - returned amount => non-negative always?"
        }
      },
      "validatorBuy(uint256)": {
        "details": "get val_cap, the total amount of zcb for sale and each validators should buy  val_cap/num validators zcb  They also need to hold the corresponding vault, so they are incentivized to assess at a systemic level and avoid highly  correlated instruments  TODO change this to staking system "
      }
    },
    "version": 1
  },
  "userdoc": {
    "kind": "user",
    "methods": {
      "approveMarketAndSetLowerBound(uint256)": {
        "notice": "main approval function called by controller"
      },
      "buy(uint256,uint256,uint256)": {
        "notice": "main entry point for longZCB buys"
      },
      "closeShort(uint256,uint256,uint256)": {
        "notice": "called by user to repay shorts"
      },
      "denyMarket(uint256)": {
        "notice": "denies market from validator "
      },
      "getCurrentMarketPhase(uint256)": {
        "notice": "returns whether current market is in phase  1: onlyReputable, which also means market is in assessment 2: not onlyReputable but in asseessment  3: in assessment but canbeapproved  4: post assessment(accepted or denied)"
      },
      "getHedgePrice(uint256)": {
        "notice": "computes the price for ZCB one needs to short at to completely hedge for the case of maximal loss, function of principal and interest"
      },
      "getHedgeQuantity(address,uint256)": {
        "notice": "computes maximum amount of quantity that trader can short while being hedged such that when he loses his loss will be offset by his gains  "
      },
      "getTraderBudget(uint256,address)": {
        "notice": "get trade budget = f(reputation), returns in collateral_dec sqrt for now"
      },
      "marketCondition(uint256)": {
        "notice": "returns true if amount bought is greater than the insurance threshold"
      },
      "newMarket(uint256,uint256,uint256,address,address,string,uint256)": {
        "notice": "parameters have to be set prior "
      },
      "redeem(uint256)": {
        "notice": "trader will redeem entire balance of ZCB Needs to be called at maturity, market needs to be resolved first(from controller)"
      },
      "redeemDeniedMarket(uint256,bool)": {
        "notice": "called by traders when market is denied or resolve before maturity "
      },
      "redeemShortZCB(uint256)": {
        "notice": "called by traders when market is resolved  "
      },
      "setParameters((uint32,uint256,uint256,uint256,uint256,uint256,uint256),uint256,uint256)": {
        "notice": "list of parameters in this system for each market, should vary for each instrument "
      },
      "validatorBuy(uint256)": {
        "notice": "allows validators to buy at a discount  They can only buy a fixed amount of ZCB, usually a at lot larger amount "
      }
    },
    "version": 1
  },
  "storageLayout": {
    "storage": [
      {
        "astId": 11439,
        "contract": "contracts/protocol/marketmanager.sol:MarketManager",
        "label": "owner",
        "offset": 0,
        "slot": "0",
        "type": "t_address"
      },
      {
        "astId": 11441,
        "contract": "contracts/protocol/marketmanager.sol:MarketManager",
        "label": "nominatedOwner",
        "offset": 0,
        "slot": "1",
        "type": "t_address"
      },
      {
        "astId": 8235,
        "contract": "contracts/protocol/marketmanager.sol:MarketManager",
        "label": "COORDINATOR",
        "offset": 0,
        "slot": "2",
        "type": "t_contract(VRFCoordinatorV2Interface)5864"
      },
      {
        "astId": 8239,
        "contract": "contracts/protocol/marketmanager.sol:MarketManager",
        "label": "keyHash",
        "offset": 0,
        "slot": "3",
        "type": "t_bytes32"
      },
      {
        "astId": 8242,
        "contract": "contracts/protocol/marketmanager.sol:MarketManager",
        "label": "callbackGasLimit",
        "offset": 0,
        "slot": "4",
        "type": "t_uint32"
      },
      {
        "astId": 8245,
        "contract": "contracts/protocol/marketmanager.sol:MarketManager",
        "label": "requestConfirmations",
        "offset": 4,
        "slot": "4",
        "type": "t_uint16"
      },
      {
        "astId": 8247,
        "contract": "contracts/protocol/marketmanager.sol:MarketManager",
        "label": "total_validator_bought",
        "offset": 0,
        "slot": "5",
        "type": "t_uint256"
      },
      {
        "astId": 8249,
        "contract": "contracts/protocol/marketmanager.sol:MarketManager",
        "label": "_mutex",
        "offset": 0,
        "slot": "6",
        "type": "t_bool"
      },
      {
        "astId": 8252,
        "contract": "contracts/protocol/marketmanager.sol:MarketManager",
        "label": "rep",
        "offset": 1,
        "slot": "6",
        "type": "t_contract(ReputationNFT)12250"
      },
      {
        "astId": 8255,
        "contract": "contracts/protocol/marketmanager.sol:MarketManager",
        "label": "controller",
        "offset": 0,
        "slot": "7",
        "type": "t_contract(Controller)7790"
      },
      {
        "astId": 8259,
        "contract": "contracts/protocol/marketmanager.sol:MarketManager",
        "label": "markets",
        "offset": 0,
        "slot": "8",
        "type": "t_array(t_struct(CoreMarketData)8352_storage)dyn_storage"
      },
      {
        "astId": 8263,
        "contract": "contracts/protocol/marketmanager.sol:MarketManager",
        "label": "requestToMarketId",
        "offset": 0,
        "slot": "9",
        "type": "t_mapping(t_uint256,t_uint256)"
      },
      {
        "astId": 8268,
        "contract": "contracts/protocol/marketmanager.sol:MarketManager",
        "label": "validator_data",
        "offset": 0,
        "slot": "10",
        "type": "t_mapping(t_uint256,t_struct(ValidatorData)8403_storage)"
      },
      {
        "astId": 8274,
        "contract": "contracts/protocol/marketmanager.sol:MarketManager",
        "label": "sale_data",
        "offset": 0,
        "slot": "11",
        "type": "t_mapping(t_uint256,t_mapping(t_address,t_uint256))"
      },
      {
        "astId": 8278,
        "contract": "contracts/protocol/marketmanager.sol:MarketManager",
        "label": "redemption_prices",
        "offset": 0,
        "slot": "12",
        "type": "t_mapping(t_uint256,t_uint256)"
      },
      {
        "astId": 8284,
        "contract": "contracts/protocol/marketmanager.sol:MarketManager",
        "label": "assessment_collaterals",
        "offset": 0,
        "slot": "13",
        "type": "t_mapping(t_uint256,t_mapping(t_address,t_uint256))"
      },
      {
        "astId": 8290,
        "contract": "contracts/protocol/marketmanager.sol:MarketManager",
        "label": "assessment_prices",
        "offset": 0,
        "slot": "14",
        "type": "t_mapping(t_uint256,t_mapping(t_address,t_uint256))"
      },
      {
        "astId": 8296,
        "contract": "contracts/protocol/marketmanager.sol:MarketManager",
        "label": "assessment_trader",
        "offset": 0,
        "slot": "15",
        "type": "t_mapping(t_uint256,t_mapping(t_address,t_bool))"
      },
      {
        "astId": 8302,
        "contract": "contracts/protocol/marketmanager.sol:MarketManager",
        "label": "assessment_probs",
        "offset": 0,
        "slot": "16",
        "type": "t_mapping(t_uint256,t_mapping(t_address,t_uint256))"
      },
      {
        "astId": 8307,
        "contract": "contracts/protocol/marketmanager.sol:MarketManager",
        "label": "restriction_data",
        "offset": 0,
        "slot": "17",
        "type": "t_mapping(t_uint256,t_struct(MarketPhaseData)8380_storage)"
      },
      {
        "astId": 8311,
        "contract": "contracts/protocol/marketmanager.sol:MarketManager",
        "label": "collateral_pot",
        "offset": 0,
        "slot": "18",
        "type": "t_mapping(t_uint256,t_uint256)"
      },
      {
        "astId": 8316,
        "contract": "contracts/protocol/marketmanager.sol:MarketManager",
        "label": "debt_pools",
        "offset": 0,
        "slot": "19",
        "type": "t_mapping(t_uint256,t_struct(CDP)8365_storage)"
      },
      {
        "astId": 8321,
        "contract": "contracts/protocol/marketmanager.sol:MarketManager",
        "label": "parameters",
        "offset": 0,
        "slot": "20",
        "type": "t_mapping(t_uint256,t_struct(MarketParameters)8418_storage)"
      },
      {
        "astId": 8327,
        "contract": "contracts/protocol/marketmanager.sol:MarketManager",
        "label": "redeemed",
        "offset": 0,
        "slot": "21",
        "type": "t_mapping(t_uint256,t_mapping(t_address,t_bool))"
      },
      {
        "astId": 8333,
        "contract": "contracts/protocol/marketmanager.sol:MarketManager",
        "label": "isShortZCB",
        "offset": 0,
        "slot": "22",
        "type": "t_mapping(t_uint256,t_mapping(t_address,t_bool))"
      },
      {
        "astId": 8339,
        "contract": "contracts/protocol/marketmanager.sol:MarketManager",
        "label": "assessment_shorts",
        "offset": 0,
        "slot": "23",
        "type": "t_mapping(t_uint256,t_mapping(t_address,t_uint256))"
      },
      {
        "astId": 10157,
        "contract": "contracts/protocol/marketmanager.sol:MarketManager",
        "label": "longTrades",
        "offset": 0,
        "slot": "24",
        "type": "t_mapping(t_uint256,t_mapping(t_address,t_uint256))"
      },
      {
        "astId": 10163,
        "contract": "contracts/protocol/marketmanager.sol:MarketManager",
        "label": "shortTrades",
        "offset": 0,
        "slot": "25",
        "type": "t_mapping(t_uint256,t_mapping(t_address,t_uint256))"
      },
      {
        "astId": 11275,
        "contract": "contracts/protocol/marketmanager.sol:MarketManager",
        "label": "queuedRepUpdates",
        "offset": 0,
        "slot": "26",
        "type": "t_mapping(t_address,t_uint8)"
      }
    ],
    "types": {
      "t_address": {
        "encoding": "inplace",
        "label": "address",
        "numberOfBytes": "20"
      },
      "t_array(t_address)dyn_storage": {
        "base": "t_address",
        "encoding": "dynamic_array",
        "label": "address[]",
        "numberOfBytes": "32"
      },
      "t_array(t_struct(CoreMarketData)8352_storage)dyn_storage": {
        "base": "t_struct(CoreMarketData)8352_storage",
        "encoding": "dynamic_array",
        "label": "struct MarketManager.CoreMarketData[]",
        "numberOfBytes": "32"
      },
      "t_bool": {
        "encoding": "inplace",
        "label": "bool",
        "numberOfBytes": "1"
      },
      "t_bytes32": {
        "encoding": "inplace",
        "label": "bytes32",
        "numberOfBytes": "32"
      },
      "t_contract(BondingCurve)5710": {
        "encoding": "inplace",
        "label": "contract BondingCurve",
        "numberOfBytes": "20"
      },
      "t_contract(Controller)7790": {
        "encoding": "inplace",
        "label": "contract Controller",
        "numberOfBytes": "20"
      },
      "t_contract(ReputationNFT)12250": {
        "encoding": "inplace",
        "label": "contract ReputationNFT",
        "numberOfBytes": "20"
      },
      "t_contract(ShortBondingCurve)4620": {
        "encoding": "inplace",
        "label": "contract ShortBondingCurve",
        "numberOfBytes": "20"
      },
      "t_contract(VRFCoordinatorV2Interface)5864": {
        "encoding": "inplace",
        "label": "contract VRFCoordinatorV2Interface",
        "numberOfBytes": "20"
      },
      "t_mapping(t_address,t_bool)": {
        "encoding": "mapping",
        "key": "t_address",
        "label": "mapping(address => bool)",
        "numberOfBytes": "32",
        "value": "t_bool"
      },
      "t_mapping(t_address,t_uint256)": {
        "encoding": "mapping",
        "key": "t_address",
        "label": "mapping(address => uint256)",
        "numberOfBytes": "32",
        "value": "t_uint256"
      },
      "t_mapping(t_address,t_uint8)": {
        "encoding": "mapping",
        "key": "t_address",
        "label": "mapping(address => uint8)",
        "numberOfBytes": "32",
        "value": "t_uint8"
      },
      "t_mapping(t_uint256,t_mapping(t_address,t_bool))": {
        "encoding": "mapping",
        "key": "t_uint256",
        "label": "mapping(uint256 => mapping(address => bool))",
        "numberOfBytes": "32",
        "value": "t_mapping(t_address,t_bool)"
      },
      "t_mapping(t_uint256,t_mapping(t_address,t_uint256))": {
        "encoding": "mapping",
        "key": "t_uint256",
        "label": "mapping(uint256 => mapping(address => uint256))",
        "numberOfBytes": "32",
        "value": "t_mapping(t_address,t_uint256)"
      },
      "t_mapping(t_uint256,t_struct(CDP)8365_storage)": {
        "encoding": "mapping",
        "key": "t_uint256",
        "label": "mapping(uint256 => struct MarketManager.CDP)",
        "numberOfBytes": "32",
        "value": "t_struct(CDP)8365_storage"
      },
      "t_mapping(t_uint256,t_struct(MarketParameters)8418_storage)": {
        "encoding": "mapping",
        "key": "t_uint256",
        "label": "mapping(uint256 => struct MarketManager.MarketParameters)",
        "numberOfBytes": "32",
        "value": "t_struct(MarketParameters)8418_storage"
      },
      "t_mapping(t_uint256,t_struct(MarketPhaseData)8380_storage)": {
        "encoding": "mapping",
        "key": "t_uint256",
        "label": "mapping(uint256 => struct MarketManager.MarketPhaseData)",
        "numberOfBytes": "32",
        "value": "t_struct(MarketPhaseData)8380_storage"
      },
      "t_mapping(t_uint256,t_struct(ValidatorData)8403_storage)": {
        "encoding": "mapping",
        "key": "t_uint256",
        "label": "mapping(uint256 => struct MarketManager.ValidatorData)",
        "numberOfBytes": "32",
        "value": "t_struct(ValidatorData)8403_storage"
      },
      "t_mapping(t_uint256,t_uint256)": {
        "encoding": "mapping",
        "key": "t_uint256",
        "label": "mapping(uint256 => uint256)",
        "numberOfBytes": "32",
        "value": "t_uint256"
      },
      "t_string_storage": {
        "encoding": "bytes",
        "label": "string",
        "numberOfBytes": "32"
      },
      "t_struct(CDP)8365_storage": {
        "encoding": "inplace",
        "label": "struct MarketManager.CDP",
        "members": [
          {
            "astId": 8356,
            "contract": "contracts/protocol/marketmanager.sol:MarketManager",
            "label": "collateral_amount",
            "offset": 0,
            "slot": "0",
            "type": "t_mapping(t_address,t_uint256)"
          },
          {
            "astId": 8360,
            "contract": "contracts/protocol/marketmanager.sol:MarketManager",
            "label": "borrowed_amount",
            "offset": 0,
            "slot": "1",
            "type": "t_mapping(t_address,t_uint256)"
          },
          {
            "astId": 8362,
            "contract": "contracts/protocol/marketmanager.sol:MarketManager",
            "label": "total_debt",
            "offset": 0,
            "slot": "2",
            "type": "t_uint256"
          },
          {
            "astId": 8364,
            "contract": "contracts/protocol/marketmanager.sol:MarketManager",
            "label": "total_collateral",
            "offset": 0,
            "slot": "3",
            "type": "t_uint256"
          }
        ],
        "numberOfBytes": "128"
      },
      "t_struct(CoreMarketData)8352_storage": {
        "encoding": "inplace",
        "label": "struct MarketManager.CoreMarketData",
        "members": [
          {
            "astId": 8342,
            "contract": "contracts/protocol/marketmanager.sol:MarketManager",
            "label": "long",
            "offset": 0,
            "slot": "0",
            "type": "t_contract(BondingCurve)5710"
          },
          {
            "astId": 8345,
            "contract": "contracts/protocol/marketmanager.sol:MarketManager",
            "label": "short",
            "offset": 0,
            "slot": "1",
            "type": "t_contract(ShortBondingCurve)4620"
          },
          {
            "astId": 8347,
            "contract": "contracts/protocol/marketmanager.sol:MarketManager",
            "label": "description",
            "offset": 0,
            "slot": "2",
            "type": "t_string_storage"
          },
          {
            "astId": 8349,
            "contract": "contracts/protocol/marketmanager.sol:MarketManager",
            "label": "creationTimestamp",
            "offset": 0,
            "slot": "3",
            "type": "t_uint256"
          },
          {
            "astId": 8351,
            "contract": "contracts/protocol/marketmanager.sol:MarketManager",
            "label": "resolutionTimestamp",
            "offset": 0,
            "slot": "4",
            "type": "t_uint256"
          }
        ],
        "numberOfBytes": "160"
      },
      "t_struct(MarketParameters)8418_storage": {
        "encoding": "inplace",
        "label": "struct MarketManager.MarketParameters",
        "members": [
          {
            "astId": 8405,
            "contract": "contracts/protocol/marketmanager.sol:MarketManager",
            "label": "N",
            "offset": 0,
            "slot": "0",
            "type": "t_uint32"
          },
          {
            "astId": 8407,
            "contract": "contracts/protocol/marketmanager.sol:MarketManager",
            "label": "sigma",
            "offset": 0,
            "slot": "1",
            "type": "t_uint256"
          },
          {
            "astId": 8409,
            "contract": "contracts/protocol/marketmanager.sol:MarketManager",
            "label": "alpha",
            "offset": 0,
            "slot": "2",
            "type": "t_uint256"
          },
          {
            "astId": 8411,
            "contract": "contracts/protocol/marketmanager.sol:MarketManager",
            "label": "omega",
            "offset": 0,
            "slot": "3",
            "type": "t_uint256"
          },
          {
            "astId": 8413,
            "contract": "contracts/protocol/marketmanager.sol:MarketManager",
            "label": "delta",
            "offset": 0,
            "slot": "4",
            "type": "t_uint256"
          },
          {
            "astId": 8415,
            "contract": "contracts/protocol/marketmanager.sol:MarketManager",
            "label": "r",
            "offset": 0,
            "slot": "5",
            "type": "t_uint256"
          },
          {
            "astId": 8417,
            "contract": "contracts/protocol/marketmanager.sol:MarketManager",
            "label": "s",
            "offset": 0,
            "slot": "6",
            "type": "t_uint256"
          }
        ],
        "numberOfBytes": "224"
      },
      "t_struct(MarketPhaseData)8380_storage": {
        "encoding": "inplace",
        "label": "struct MarketManager.MarketPhaseData",
        "members": [
          {
            "astId": 8367,
            "contract": "contracts/protocol/marketmanager.sol:MarketManager",
            "label": "duringAssessment",
            "offset": 0,
            "slot": "0",
            "type": "t_bool"
          },
          {
            "astId": 8369,
            "contract": "contracts/protocol/marketmanager.sol:MarketManager",
            "label": "onlyReputable",
            "offset": 1,
            "slot": "0",
            "type": "t_bool"
          },
          {
            "astId": 8371,
            "contract": "contracts/protocol/marketmanager.sol:MarketManager",
            "label": "resolved",
            "offset": 2,
            "slot": "0",
            "type": "t_bool"
          },
          {
            "astId": 8373,
            "contract": "contracts/protocol/marketmanager.sol:MarketManager",
            "label": "min_rep_score",
            "offset": 0,
            "slot": "1",
            "type": "t_uint256"
          },
          {
            "astId": 8375,
            "contract": "contracts/protocol/marketmanager.sol:MarketManager",
            "label": "alive",
            "offset": 0,
            "slot": "2",
            "type": "t_bool"
          },
          {
            "astId": 8377,
            "contract": "contracts/protocol/marketmanager.sol:MarketManager",
            "label": "atLoss",
            "offset": 1,
            "slot": "2",
            "type": "t_bool"
          },
          {
            "astId": 8379,
            "contract": "contracts/protocol/marketmanager.sol:MarketManager",
            "label": "base_budget",
            "offset": 0,
            "slot": "3",
            "type": "t_uint256"
          }
        ],
        "numberOfBytes": "128"
      },
      "t_struct(ValidatorData)8403_storage": {
        "encoding": "inplace",
        "label": "struct MarketManager.ValidatorData",
        "members": [
          {
            "astId": 8382,
            "contract": "contracts/protocol/marketmanager.sol:MarketManager",
            "label": "val_cap",
            "offset": 0,
            "slot": "0",
            "type": "t_uint256"
          },
          {
            "astId": 8384,
            "contract": "contracts/protocol/marketmanager.sol:MarketManager",
            "label": "avg_price",
            "offset": 0,
            "slot": "1",
            "type": "t_uint256"
          },
          {
            "astId": 8387,
            "contract": "contracts/protocol/marketmanager.sol:MarketManager",
            "label": "candidates",
            "offset": 0,
            "slot": "2",
            "type": "t_array(t_address)dyn_storage"
          },
          {
            "astId": 8390,
            "contract": "contracts/protocol/marketmanager.sol:MarketManager",
            "label": "validators",
            "offset": 0,
            "slot": "3",
            "type": "t_array(t_address)dyn_storage"
          },
          {
            "astId": 8392,
            "contract": "contracts/protocol/marketmanager.sol:MarketManager",
            "label": "confirmations",
            "offset": 0,
            "slot": "4",
            "type": "t_uint8"
          },
          {
            "astId": 8394,
            "contract": "contracts/protocol/marketmanager.sol:MarketManager",
            "label": "requested",
            "offset": 1,
            "slot": "4",
            "type": "t_bool"
          },
          {
            "astId": 8398,
            "contract": "contracts/protocol/marketmanager.sol:MarketManager",
            "label": "sales",
            "offset": 0,
            "slot": "5",
            "type": "t_mapping(t_address,t_uint256)"
          },
          {
            "astId": 8400,
            "contract": "contracts/protocol/marketmanager.sol:MarketManager",
            "label": "totalSales",
            "offset": 0,
            "slot": "6",
            "type": "t_uint256"
          },
          {
            "astId": 8402,
            "contract": "contracts/protocol/marketmanager.sol:MarketManager",
            "label": "numApprovedValidators",
            "offset": 0,
            "slot": "7",
            "type": "t_uint256"
          }
        ],
        "numberOfBytes": "256"
      },
      "t_uint16": {
        "encoding": "inplace",
        "label": "uint16",
        "numberOfBytes": "2"
      },
      "t_uint256": {
        "encoding": "inplace",
        "label": "uint256",
        "numberOfBytes": "32"
      },
      "t_uint32": {
        "encoding": "inplace",
        "label": "uint32",
        "numberOfBytes": "4"
      },
      "t_uint8": {
        "encoding": "inplace",
        "label": "uint8",
        "numberOfBytes": "1"
      }
    }
  }
}