{
  "address": "0xe0746079b499a8d10BdF3fdeF91417657Ff21289",
  "abi": [
    {
      "inputs": [
        {
          "internalType": "address",
          "name": "_creator_address",
          "type": "address"
        },
        {
          "internalType": "address",
          "name": "reputationNFTaddress",
          "type": "address"
        },
        {
          "internalType": "address",
          "name": "_controllerAddress",
          "type": "address"
        }
      ],
      "stateMutability": "nonpayable",
      "type": "constructor"
    },
    {
      "anonymous": false,
      "inputs": [
        {
          "indexed": false,
          "internalType": "address",
          "name": "oldOwner",
          "type": "address"
        },
        {
          "indexed": false,
          "internalType": "address",
          "name": "newOwner",
          "type": "address"
        }
      ],
      "name": "OwnerChanged",
      "type": "event"
    },
    {
      "anonymous": false,
      "inputs": [
        {
          "indexed": false,
          "internalType": "address",
          "name": "newOwner",
          "type": "address"
        }
      ],
      "name": "OwnerNominated",
      "type": "event"
    },
    {
      "inputs": [],
      "name": "acceptOwnership",
      "outputs": [],
      "stateMutability": "nonpayable",
      "type": "function"
    },
    {
      "inputs": [
        {
          "internalType": "uint256",
          "name": "_marketId",
          "type": "uint256"
        },
        {
          "internalType": "uint256",
          "name": "requested_zcb",
          "type": "uint256"
        },
        {
          "internalType": "address",
          "name": "trader",
          "type": "address"
        }
      ],
      "name": "borrow_with_collateral",
      "outputs": [],
      "stateMutability": "nonpayable",
      "type": "function"
    },
    {
      "inputs": [
        {
          "internalType": "uint256",
          "name": "_marketId",
          "type": "uint256"
        },
        {
          "internalType": "uint256",
          "name": "_collateralIn",
          "type": "uint256"
        }
      ],
      "name": "buy",
      "outputs": [
        {
          "internalType": "uint256",
          "name": "",
          "type": "uint256"
        }
      ],
      "stateMutability": "nonpayable",
      "type": "function"
    },
    {
      "inputs": [
        {
          "internalType": "address",
          "name": "trader",
          "type": "address"
        },
        {
          "internalType": "uint256",
          "name": "amount",
          "type": "uint256"
        },
        {
          "internalType": "uint256",
          "name": "marketId",
          "type": "uint256"
        }
      ],
      "name": "canBuy",
      "outputs": [
        {
          "internalType": "bool",
          "name": "",
          "type": "bool"
        }
      ],
      "stateMutability": "nonpayable",
      "type": "function"
    },
    {
      "inputs": [
        {
          "internalType": "uint256",
          "name": "marketId",
          "type": "uint256"
        },
        {
          "internalType": "bool",
          "name": "atLoss",
          "type": "bool"
        }
      ],
      "name": "deactivateMarket",
      "outputs": [],
      "stateMutability": "nonpayable",
      "type": "function"
    },
    {
      "inputs": [
        {
          "internalType": "uint256",
          "name": "marketId",
          "type": "uint256"
        }
      ],
      "name": "denyMarket",
      "outputs": [],
      "stateMutability": "nonpayable",
      "type": "function"
    },
    {
      "inputs": [
        {
          "internalType": "address",
          "name": "trader",
          "type": "address"
        },
        {
          "internalType": "uint256",
          "name": "marketId",
          "type": "uint256"
        }
      ],
      "name": "getDebtPosition",
      "outputs": [
        {
          "internalType": "uint256",
          "name": "",
          "type": "uint256"
        },
        {
          "internalType": "uint256",
          "name": "",
          "type": "uint256"
        }
      ],
      "stateMutability": "view",
      "type": "function"
    },
    {
      "inputs": [
        {
          "internalType": "uint256",
          "name": "marketId",
          "type": "uint256"
        }
      ],
      "name": "getHedgePrice",
      "outputs": [
        {
          "internalType": "uint256",
          "name": "",
          "type": "uint256"
        }
      ],
      "stateMutability": "view",
      "type": "function"
    },
    {
      "inputs": [
        {
          "internalType": "address",
          "name": "trader",
          "type": "address"
        },
        {
          "internalType": "uint256",
          "name": "marketId",
          "type": "uint256"
        }
      ],
      "name": "getHedgeQuantity",
      "outputs": [
        {
          "internalType": "uint256",
          "name": "",
          "type": "uint256"
        }
      ],
      "stateMutability": "view",
      "type": "function"
    },
    {
      "inputs": [
        {
          "internalType": "address",
          "name": "trader",
          "type": "address"
        }
      ],
      "name": "getTraderBudget",
      "outputs": [
        {
          "internalType": "uint256",
          "name": "",
          "type": "uint256"
        }
      ],
      "stateMutability": "view",
      "type": "function"
    },
    {
      "inputs": [
        {
          "internalType": "uint256",
          "name": "marketId",
          "type": "uint256"
        }
      ],
      "name": "get_redemption_price",
      "outputs": [
        {
          "internalType": "uint256",
          "name": "",
          "type": "uint256"
        }
      ],
      "stateMutability": "view",
      "type": "function"
    },
    {
      "inputs": [
        {
          "internalType": "uint256",
          "name": "marketId",
          "type": "uint256"
        },
        {
          "internalType": "bool",
          "name": "atLoss",
          "type": "bool"
        },
        {
          "internalType": "uint256",
          "name": "principal_loss",
          "type": "uint256"
        }
      ],
      "name": "handle_maturity",
      "outputs": [],
      "stateMutability": "nonpayable",
      "type": "function"
    },
    {
      "inputs": [
        {
          "internalType": "uint256",
          "name": "marketId",
          "type": "uint256"
        }
      ],
      "name": "isMarketApproved",
      "outputs": [
        {
          "internalType": "bool",
          "name": "",
          "type": "bool"
        }
      ],
      "stateMutability": "view",
      "type": "function"
    },
    {
      "inputs": [
        {
          "internalType": "uint256",
          "name": "marketId",
          "type": "uint256"
        }
      ],
      "name": "marketActive",
      "outputs": [
        {
          "internalType": "bool",
          "name": "",
          "type": "bool"
        }
      ],
      "stateMutability": "view",
      "type": "function"
    },
    {
      "inputs": [
        {
          "internalType": "uint256",
          "name": "marketId",
          "type": "uint256"
        }
      ],
      "name": "marketCondition",
      "outputs": [
        {
          "internalType": "bool",
          "name": "",
          "type": "bool"
        }
      ],
      "stateMutability": "view",
      "type": "function"
    },
    {
      "inputs": [
        {
          "internalType": "address",
          "name": "_owner",
          "type": "address"
        }
      ],
      "name": "nominateNewOwner",
      "outputs": [],
      "stateMutability": "nonpayable",
      "type": "function"
    },
    {
      "inputs": [],
      "name": "nominatedOwner",
      "outputs": [
        {
          "internalType": "address",
          "name": "",
          "type": "address"
        }
      ],
      "stateMutability": "view",
      "type": "function"
    },
    {
      "inputs": [
        {
          "internalType": "uint256",
          "name": "marketId",
          "type": "uint256"
        }
      ],
      "name": "onlyReputable",
      "outputs": [
        {
          "internalType": "bool",
          "name": "",
          "type": "bool"
        }
      ],
      "stateMutability": "view",
      "type": "function"
    },
    {
      "inputs": [],
      "name": "owner",
      "outputs": [
        {
          "internalType": "address",
          "name": "",
          "type": "address"
        }
      ],
      "stateMutability": "view",
      "type": "function"
    },
    {
      "inputs": [
        {
          "internalType": "uint256",
          "name": "marketId",
          "type": "uint256"
        },
        {
          "internalType": "address",
          "name": "marketFactory",
          "type": "address"
        },
        {
          "internalType": "address",
          "name": "receiver",
          "type": "address"
        },
        {
          "internalType": "uint256",
          "name": "zcb_redeem_amount",
          "type": "uint256"
        }
      ],
      "name": "redeem",
      "outputs": [
        {
          "internalType": "uint256",
          "name": "",
          "type": "uint256"
        }
      ],
      "stateMutability": "nonpayable",
      "type": "function"
    },
    {
      "inputs": [
        {
          "internalType": "uint256",
          "name": "marketId",
          "type": "uint256"
        },
        {
          "internalType": "address",
          "name": "trader",
          "type": "address"
        }
      ],
      "name": "redeemPostAssessment",
      "outputs": [],
      "stateMutability": "nonpayable",
      "type": "function"
    },
    {
      "inputs": [
        {
          "internalType": "uint256",
          "name": "_marketId",
          "type": "uint256"
        },
        {
          "internalType": "uint256",
          "name": "repaying_zcb",
          "type": "uint256"
        },
        {
          "internalType": "address",
          "name": "trader",
          "type": "address"
        }
      ],
      "name": "repay_for_collateral",
      "outputs": [],
      "stateMutability": "nonpayable",
      "type": "function"
    },
    {
      "inputs": [
        {
          "internalType": "uint256",
          "name": "_marketId",
          "type": "uint256"
        },
        {
          "internalType": "uint256",
          "name": "_zcb_amount_in",
          "type": "uint256"
        }
      ],
      "name": "sell",
      "outputs": [
        {
          "internalType": "uint256",
          "name": "",
          "type": "uint256"
        }
      ],
      "stateMutability": "nonpayable",
      "type": "function"
    },
    {
      "inputs": [
        {
          "internalType": "uint256",
          "name": "marketId",
          "type": "uint256"
        },
        {
          "internalType": "bool",
          "name": "_duringMarketAssessment",
          "type": "bool"
        },
        {
          "internalType": "bool",
          "name": "_onlyReputable",
          "type": "bool"
        }
      ],
      "name": "setAssessmentPhase",
      "outputs": [],
      "stateMutability": "nonpayable",
      "type": "function"
    },
    {
      "inputs": [
        {
          "internalType": "bool",
          "name": "_duringMarketAssessment",
          "type": "bool"
        },
        {
          "internalType": "bool",
          "name": "_onlyReputable",
          "type": "bool"
        },
        {
          "internalType": "uint256",
          "name": "marketId",
          "type": "uint256"
        },
        {
          "internalType": "uint256",
          "name": "min_rep_score",
          "type": "uint256"
        }
      ],
      "name": "setMarketRestrictionData",
      "outputs": [],
      "stateMutability": "nonpayable",
      "type": "function"
    },
    {
      "inputs": [
        {
          "internalType": "uint256",
          "name": "marketId",
          "type": "uint256"
        }
      ],
      "name": "updateReputation",
      "outputs": [],
      "stateMutability": "nonpayable",
      "type": "function"
    },
    {
      "inputs": [
        {
          "internalType": "uint256",
          "name": "marketId",
          "type": "uint256"
        },
        {
          "internalType": "bool",
          "name": "atLoss",
          "type": "bool"
        },
        {
          "internalType": "uint256",
          "name": "extra_gain",
          "type": "uint256"
        },
        {
          "internalType": "uint256",
          "name": "principal_loss",
          "type": "uint256"
        }
      ],
      "name": "update_redemption_price",
      "outputs": [],
      "stateMutability": "nonpayable",
      "type": "function"
    }
  ],
  "transactionHash": "0x19d935c3887a85c3c00262cccdc715615c01abdbb241877b2c4a3cb9a8f8380e",
  "args": [
    "0xFD84b7AC1E646580db8c77f1f05F47977fAda692",
    "0xf39cd0caeeb5A02dCf51817d1aFF8D7BCd752002",
    "0x7609e874dEe3160A0Cc07EF1E52c0Bde8D23d046"
  ],
  "numDeployments": 1,
  "solcInputHash": "29a83bf9ac7eb91e37e2651095822cf1",
  "bytecode": "0x60806040526207a120600b55620493e0600c553480156200001f57600080fd5b506040516200387538038062003875833981016040819052620000429162000160565b826001600160a01b0381166200009e5760405162461bcd60e51b815260206004820152601960248201527f4f776e657220616464726573732063616e6e6f74206265203000000000000000604482015260640160405180910390fd5b600080546001600160a01b0319166001600160a01b03831690811782556040805192835260208301919091527fb532073b38c83145e3e5135377a08bf9aab55bc0fd7c1179cd4fb995d2a5159c910160405180910390a150600280546001600160a01b038085166001600160a01b031992831617909255600380549284169290911691909117905562000136620f42406064620001a9565b600d5550620001d5915050565b80516001600160a01b03811681146200015b57600080fd5b919050565b60008060006060848603121562000175578283fd5b620001808462000143565b9250620001906020850162000143565b9150620001a06040850162000143565b90509250925092565b6000816000190483118215151615620001d057634e487b7160e01b81526011600452602481fd5b500290565b61369080620001e56000396000f3fe608060405234801561001057600080fd5b50600436106101a95760003560e01c806389fc9c79116100f9578063b743939b11610097578063d79875eb11610071578063d79875eb14610416578063e23190db14610429578063e9f6ac531461043c578063f43970f31461044f57600080fd5b8063b743939b146103d0578063c4443530146103e3578063d6febde81461040357600080fd5b80639ec33416116100d35780639ec33416146103845780639f40a7b314610397578063a31a6252146103aa578063a6b5abb1146103bd57600080fd5b806389fc9c791461034b5780638d4a3f141461035e5780638da5cb5b1461037157600080fd5b80635a79e5b51161016657806378d1454c1161014057806378d1454c146102ce57806379ba5097146103065780637a513a191461030e5780638915567b1461033857600080fd5b80635a79e5b51461024d5780636be3ff451461026057806375a3f0341461027357600080fd5b80630c909644146101ae5780631627540c146101c35780634598e683146101d65780634cb44087146101e957806353a47bb7146101fc5780635673bde61461022c575b600080fd5b6101c16101bc3660046133fc565b610462565b005b6101c16101d13660046130ee565b61075a565b6101c16101e43660046132ea565b610820565b6101c16101f73660046132ba565b61098b565b60015461020f906001600160a01b031681565b6040516001600160a01b0390911681526020015b60405180910390f35b61023f61023a366004613126565b610a7a565b604051908152602001610223565b6101c161025b3660046133c5565b610dd6565b6101c161026e3660046131a1565b61115c565b6102b9610281366004613126565b6000908152600a602090815260408083206001600160a01b039490941683526001840182528083205460029094019091529020549091565b60408051928352602083019190915201610223565b6102f66102dc3660046132ba565b600090815260086020526040902054610100900460ff1690565b6040519015158152602001610223565b6101c161124f565b6102f661031c3660046132ba565b60009081526008602052604090205462010000900460ff161590565b6102f6610346366004613151565b611339565b61023f6103593660046130ee565b611743565b6101c161036c366004613444565b6117dc565b60005461020f906001600160a01b031681565b6102f66103923660046132ba565b611a0d565b61023f6103a5366004613319565b611a47565b61023f6103b83660046132ba565b611baf565b6101c16103cb366004613360565b611e29565b6102f66103de3660046132ba565b611ea6565b61023f6103f13660046132ba565b60009081526004602052604090205490565b61023f610411366004613423565b6120cd565b61023f610424366004613423565b612528565b6101c1610437366004613384565b612681565b6101c161044a366004613444565b6126fa565b6101c161045d3660046132ba565b612986565b6003546001600160a01b031633148061048557506000546001600160a01b031633145b8061048f57503330145b6104b45760405162461bcd60e51b81526004016104ab906134ee565b60405180910390fd5b60035460405163054d50b360e21b8152600481018690526000916001600160a01b03169063153542cc9060240160206040518083038186803b1580156104f957600080fd5b505afa15801561050d573d6000803e3d6000fd5b505050506040513d601f19601f82011682018060405250810190610531919061310a565b90506000816001600160a01b031663d6eb59106040518163ffffffff1660e01b815260040160206040518083038186803b15801561056e57600080fd5b505afa158015610582573d6000803e3d6000fd5b505050506040513d601f19601f820116820180604052508101906105a691906132d2565b90506000826001600160a01b0316639a8502746040518163ffffffff1660e01b815260040160206040518083038186803b1580156105e357600080fd5b505afa1580156105f7573d6000803e3d6000fd5b505050506040513d601f19601f8201168201806040525081019061061b91906132d2565b9050851561068257600061062f85846135c5565b111561066e5780610643620f4240866135a6565b61064d9190613586565b61065a90620f42406135c5565b60008881526004602052604090205561070c565b60008781526004602052604081205561070c565b83156106bb5760405162461bcd60e51b81526020600482015260086024820152673637b9b99032b93960c11b60448201526064016104ab565b6000878152600a60205260409020600301546106d7818361356e565b6106e4620f4240886135a6565b6106ee9190613586565b6106fb90620f424061356e565b600089815260046020526040902055505b6107516040518060400160405280601081526020016f726564656d7074696f6e5f707269636560801b815250600460008a815260200190815260200160002054612b3c565b50505050505050565b6000546001600160a01b031633146107cc5760405162461bcd60e51b815260206004820152602f60248201527f4f6e6c792074686520636f6e7472616374206f776e6572206d6179207065726660448201526e37b936903a3434b99030b1ba34b7b760891b60648201526084016104ab565b600180546001600160a01b0319166001600160a01b0383169081179091556040519081527f906a1c6bd7e3091ea86693dd029a831c19049ce77f1dce2ce0bab1cacbabce229060200160405180910390a150565b60008281526008602052604090205462010000900460ff166108845760405162461bcd60e51b815260206004820152601e60248201527f4d61726b6574205374696c6c20447572696e67204173736573736d656e74000060448201526064016104ab565b60008281526005602090815260408083206001600160a01b038581168552925280832054600354915163054d50b360e21b815260048101879052909392919091169063153542cc9060240160206040518083038186803b1580156108e757600080fd5b505afa1580156108fb573d6000803e3d6000fd5b505050506040513d601f19601f8201168201806040525081019061091f919061310a565b6040516304887df360e11b81526001600160a01b0385811660048301526024820185905291925090821690630910fbe690604401600060405180830381600087803b15801561096d57600080fd5b505af1158015610981573d6000803e3d6000fd5b5050505050505050565b6003546001600160a01b03163314806109ae57506000546001600160a01b031633145b806109b857503330145b6109d45760405162461bcd60e51b81526004016104ab906134ee565b60008181526008602052604090205462010000900460ff1615610a095760405162461bcd60e51b81526004016104ab90613519565b60008181526008602052604090205460ff16610a5b5760405162461bcd60e51b8152602060048201526011602482015270139bdd081a5b88185cdcd95cdcdb595b9d607a1b60448201526064016104ab565b6000908152600860205260409020805462ff00ff191662010000179055565b600080600360009054906101000a90046001600160a01b03166001600160a01b031663fbfa77cf6040518163ffffffff1660e01b815260040160206040518083038186803b158015610acb57600080fd5b505afa158015610adf573d6000803e3d6000fd5b505050506040513d601f19601f82011682018060405250810190610b03919061310a565b6001600160a01b0316639ec4d40e846040518263ffffffff1660e01b8152600401610b3091815260200190565b60006040518083038186803b158015610b4857600080fd5b505afa158015610b5c573d6000803e3d6000fd5b505050506040513d6000823e601f3d908101601f19168201604052610b8491908101906131e6565b6080015190506000600360009054906101000a90046001600160a01b03166001600160a01b031663fbfa77cf6040518163ffffffff1660e01b815260040160206040518083038186803b158015610bda57600080fd5b505afa158015610bee573d6000803e3d6000fd5b505050506040513d601f19601f82011682018060405250810190610c12919061310a565b6040516370a0823160e01b81526001600160a01b03878116600483015291909116906370a082319060240160206040518083038186803b158015610c5557600080fd5b505afa158015610c69573d6000803e3d6000fd5b505050506040513d601f19601f82011682018060405250810190610c8d91906132d2565b90506000600360009054906101000a90046001600160a01b03166001600160a01b031663fbfa77cf6040518163ffffffff1660e01b815260040160206040518083038186803b158015610cdf57600080fd5b505afa158015610cf3573d6000803e3d6000fd5b505050506040513d601f19601f82011682018060405250810190610d17919061310a565b6001600160a01b03166318160ddd6040518163ffffffff1660e01b815260040160206040518083038186803b158015610d4f57600080fd5b505afa158015610d63573d6000803e3d6000fd5b505050506040513d601f19601f82011682018060405250810190610d8791906132d2565b9050600082620f4240600b54620f4240610da191906135c5565b610dab90876135a6565b610db59190613586565b610dbf91906135a6565b9050610dcb8282613586565b979650505050505050565b6003546001600160a01b0316331480610df957506000546001600160a01b031633145b80610e0357503330145b610e1f5760405162461bcd60e51b81526004016104ab906134ee565b60035460405163054d50b360e21b8152600481018590526000916001600160a01b03169063153542cc9060240160206040518083038186803b158015610e6457600080fd5b505afa158015610e78573d6000803e3d6000fd5b505050506040513d601f19601f82011682018060405250810190610e9c919061310a565b60008581526004602052604090205490915080610efb5760405162461bcd60e51b815260206004820152601c60248201527f4e65656420746f2073657420726564656d7074696f6e2070726963650000000060448201526064016104ab565b6000826001600160a01b0316639a8502746040518163ffffffff1660e01b815260040160206040518083038186803b158015610f3657600080fd5b505afa158015610f4a573d6000803e3d6000fd5b505050506040513d601f19601f82011682018060405250810190610f6e91906132d2565b90506000836001600160a01b031663d6eb59106040518163ffffffff1660e01b815260040160206040518083038186803b158015610fab57600080fd5b505afa158015610fbf573d6000803e3d6000fd5b505050506040513d601f19601f82011682018060405250810190610fe391906132d2565b90508515610751576000620f4240610ffb84866135a6565b6110059190613586565b61100f90836135c5565b905061103e6040518060400160405280600b81526020016a6275726e616d6f756e747360a81b81525082612b3c565b851561098157600081116110865760405162461bcd60e51b815260206004820152600f60248201526e313ab9371030b6b7bab73a1032b93960891b60448201526064016104ab565b604051631642a29960e01b8152600481018290526001600160a01b03861690631642a29990602401600060405180830381600087803b1580156110c857600080fd5b505af11580156110dc573d6000803e3d6000fd5b50505050846001600160a01b0316635c1548fb6040518163ffffffff1660e01b815260040160206040518083038186803b15801561111957600080fd5b505afa15801561112d573d6000803e3d6000fd5b505050506040513d601f19601f82011682018060405250810190611151919061310a565b505050505050505050565b6003546001600160a01b031633148061117f57506000546001600160a01b031633145b8061118957503330145b6111a55760405162461bcd60e51b81526004016104ab906134ee565b6000828152600860205260409020600101546040805160a0810182529515158652931515602080870191825260008787018181526060890194855260808901828152968252600890925295909520955186549151955161ffff1990921690151561ff00191617610100951515959095029490941762ff0000191662010000941515949094029390931784555090516001830155516002909101805460ff1916911515919091179055565b6001546001600160a01b031633146112c75760405162461bcd60e51b815260206004820152603560248201527f596f75206d757374206265206e6f6d696e61746564206265666f726520796f7560448201527402063616e20616363657074206f776e65727368697605c1b60648201526084016104ab565b600054600154604080516001600160a01b0393841681529290911660208301527fb532073b38c83145e3e5135377a08bf9aab55bc0fd7c1179cd4fb995d2a5159c910160405180910390a160018054600080546001600160a01b03199081166001600160a01b03841617909155169055565b60008181526008602052604081205462010000900460ff161561136e5760405162461bcd60e51b81526004016104ab90613519565b60008281526008602052604090205460ff8082169161010090041681156114285761139886612b85565b6113d85760405162461bcd60e51b8152602060048201526011602482015270155cd95c88139bdd0815995c9a599a5959607a1b60448201526064016104ab565b846113e287611743565b10156114285760405162461bcd60e51b8152602060048201526015602482015274105b5bdd5b9d08115e18d959591cc8109d5919d95d605a1b60448201526064016104ab565b801561149d578161148a5760405162461bcd60e51b815260206004820152602660248201527f4d61726b6574206e6565647320746f20626520696e206173736573736d656e7460448201526520706861736560d01b60648201526084016104ab565b6114948685612c1e565b61149d57600080fd5b816117355760035460405163054d50b360e21b8152600481018690526000916001600160a01b03169063153542cc9060240160206040518083038186803b1580156114e757600080fd5b505afa1580156114fb573d6000803e3d6000fd5b505050506040513d601f19601f8201168201806040525081019061151f919061310a565b60405162322d2160e81b8152600481018890529091506000906001600160a01b0383169063322d21009060240160206040518083038186803b15801561156457600080fd5b505afa158015611578573d6000803e3d6000fd5b505050506040513d601f19601f8201168201806040525081019061159c91906132d2565b60405163874bc6a160e01b8152600481018290529091506000906001600160a01b0384169063874bc6a19060240160206040518083038186803b1580156115e257600080fd5b505afa1580156115f6573d6000803e3d6000fd5b505050506040513d601f19601f8201168201806040525081019061161a91906132d2565b90506000836001600160a01b03166322c180b56040518163ffffffff1660e01b815260040160206040518083038186803b15801561165757600080fd5b505afa15801561166b573d6000803e3d6000fd5b505050506040513d601f19601f8201168201806040525081019061168f91906132d2565b9050600081116116e15760405162461bcd60e51b815260206004820152601b60248201527f5265737472696374696f6e73206e65656420746f20626520736574000000000060448201526064016104ab565b8181116117305760405162461bcd60e51b815260206004820152601e60248201527f5175616e74697479206578636565647320627579207468726573686f6c64000060448201526064016104ab565b505050505b6001925050505b9392505050565b600254604051631d699f5760e21b81526001600160a01b03838116600483015260009283929116906375a67d5c9060240160206040518083038186803b15801561178c57600080fd5b505afa1580156117a0573d6000803e3d6000fd5b505050506040513d601f19601f820116820180604052508101906117c491906132d2565b9050600d546117d282612cce565b61173c919061356e565b60035460405163054d50b360e21b8152600481018590526000916001600160a01b03169063153542cc9060240160206040518083038186803b15801561182157600080fd5b505afa158015611835573d6000803e3d6000fd5b505050506040513d601f19601f82011682018060405250810190611859919061310a565b90506000816001600160a01b0316635c1548fb6040518163ffffffff1660e01b815260040160206040518083038186803b15801561189657600080fd5b505afa1580156118aa573d6000803e3d6000fd5b505050506040513d601f19601f820116820180604052508101906118ce919061310a565b90506118dc81848487612d3e565b6000858152600a602090815260408083206001600160a01b03871684526001810190925282208054879384929161191490849061356e565b90915550506001600160a01b03851660009081526002820160205260408120805488929061194390849061356e565b925050819055508581600301600082825461195e919061356e565b9250508190555081816004016000828254611979919061356e565b90915550506000878152600960205260408120805484929061199c90849061356e565b9091555050604051636012669360e11b81526001600160a01b0386811660048301526024820188905285169063c024cd26906044015b600060405180830381600087803b1580156119ec57600080fd5b505af1158015611a00573d6000803e3d6000fd5b5050505050505050505050565b60008181526008602052604081205460ff16158015611a41575060008281526008602052604090205462010000900460ff16155b92915050565b60008481526004602052604081205460008111611a9a5760405162461bcd60e51b8152602060048201526011602482015270052656465656d207072696365206973203607c1b60448201526064016104ab565b6000620f4240611aaa85846135a6565b611ab49190613586565b60035460405163054d50b360e21b8152600481018a90529192506000916001600160a01b039091169063153542cc9060240160206040518083038186803b158015611afe57600080fd5b505afa158015611b12573d6000803e3d6000fd5b505050506040513d601f19601f82011682018060405250810190611b36919061310a565b604051632b83cccd60e01b81526001600160a01b038881166004830152602482018890526044820185905291925090821690632b83cccd90606401600060405180830381600087803b158015611b8b57600080fd5b505af1158015611b9f573d6000803e3d6000fd5b50939a9950505050505050505050565b600080600360009054906101000a90046001600160a01b03166001600160a01b031663fbfa77cf6040518163ffffffff1660e01b815260040160206040518083038186803b158015611c0057600080fd5b505afa158015611c14573d6000803e3d6000fd5b505050506040513d601f19601f82011682018060405250810190611c38919061310a565b6001600160a01b0316639ec4d40e846040518263ffffffff1660e01b8152600401611c6591815260200190565b60006040518083038186803b158015611c7d57600080fd5b505afa158015611c91573d6000803e3d6000fd5b505050506040513d6000823e601f3d908101601f19168201604052611cb991908101906131e6565b6080015190506000600360009054906101000a90046001600160a01b03166001600160a01b031663fbfa77cf6040518163ffffffff1660e01b815260040160206040518083038186803b158015611d0f57600080fd5b505afa158015611d23573d6000803e3d6000fd5b505050506040513d601f19601f82011682018060405250810190611d47919061310a565b6001600160a01b0316639ec4d40e856040518263ffffffff1660e01b8152600401611d7491815260200190565b60006040518083038186803b158015611d8c57600080fd5b505afa158015611da0573d6000803e3d6000fd5b505050506040513d6000823e601f3d908101601f19168201604052611dc891908101906131e6565b60a0015190506000620f4240600b54620f4240611de591906135c5565b611def90856135a6565b611df99190613586565b905080611e09620f4240846135a6565b611e139190613586565b611e2090620f42406135c5565b95945050505050565b6003546001600160a01b0316331480611e4c57506000546001600160a01b031633145b80611e5657503330145b611e725760405162461bcd60e51b81526004016104ab906134ee565b600091825260086020526040909120805462ff0000191662010000178155600201805491151560ff19909216919091179055565b600080600360009054906101000a90046001600160a01b03166001600160a01b031663fbfa77cf6040518163ffffffff1660e01b815260040160206040518083038186803b158015611ef757600080fd5b505afa158015611f0b573d6000803e3d6000fd5b505050506040513d601f19601f82011682018060405250810190611f2f919061310a565b6001600160a01b0316639ec4d40e846040518263ffffffff1660e01b8152600401611f5c91815260200190565b60006040518083038186803b158015611f7457600080fd5b505afa158015611f88573d6000803e3d6000fd5b505050506040513d6000823e601f3d908101601f19168201604052611fb091908101906131e6565b6080015160035460405163054d50b360e21b8152600481018690529192506000916001600160a01b039091169063153542cc9060240160206040518083038186803b158015611ffe57600080fd5b505afa158015612012573d6000803e3d6000fd5b505050506040513d601f19601f82011682018060405250810190612036919061310a565b6001600160a01b031663d6eb59106040518163ffffffff1660e01b815260040160206040518083038186803b15801561206e57600080fd5b505afa158015612082573d6000803e3d6000fd5b505050506040513d601f19601f820116820180604052508101906120a691906132d2565b9050620f4240600b54836120ba91906135a6565b6120c49190613586565b11159392505050565b60006120da338385611339565b6121195760405162461bcd60e51b815260206004820152601060248201526f151c9859194814995cdd1c9a58dd195960821b60448201526064016104ab565b60035460405163054d50b360e21b8152600481018590526000916001600160a01b03169063153542cc9060240160206040518083038186803b15801561215e57600080fd5b505afa158015612172573d6000803e3d6000fd5b505050506040513d601f19601f82011682018060405250810190612196919061310a565b6040516396ec020560e01b8152336004820152602481018590529091506000906001600160a01b038316906396ec020590604401602060405180830381600087803b1580156121e457600080fd5b505af11580156121f8573d6000803e3d6000fd5b505050506040513d601f19601f8201168201806040525081019061221c91906132d2565b60008681526008602052604090205490915060ff16156125205760405163874bc6a160e01b8152600060048201819052906001600160a01b0384169063874bc6a19060240160206040518083038186803b15801561227957600080fd5b505afa15801561228d573d6000803e3d6000fd5b505050506040513d601f19601f820116820180604052508101906122b191906132d2565b600087815260076020908152604080832033808552908352818420805460ff191660011790558a84526005835281842081855283528184208a90558a845260068352818420908452909152902081905590506003546040805163fbfa77cf60e01b815290516000926001600160a01b03169163fbfa77cf916004808301926020929190829003018186803b15801561234857600080fd5b505afa15801561235c573d6000803e3d6000fd5b505050506040513d601f19601f82011682018060405250810190612380919061310a565b6001600160a01b0316639ec4d40e886040518263ffffffff1660e01b81526004016123ad91815260200190565b60006040518083038186803b1580156123c557600080fd5b505afa1580156123d9573d6000803e3d6000fd5b505050506040513d6000823e601f3d908101601f1916820160405261240191908101906131e6565b6080015190506000846001600160a01b031663d6eb59106040518163ffffffff1660e01b815260040160206040518083038186803b15801561244257600080fd5b505afa158015612456573d6000803e3d6000fd5b505050506040513d601f19601f8201168201806040525081019061247a91906132d2565b600089815260086020526040902054909150610100900460ff161561251c57620f424082600c546124ab91906135a6565b6124b59190613586565b81111561251c5760405163e23190db60e01b8152600481018990526001602482015260006044820152309063e23190db90606401600060405180830381600087803b15801561250357600080fd5b505af1158015612517573d6000803e3d6000fd5b505050505b5050505b949350505050565b6000612535338385612d9e565b6125745760405162461bcd60e51b815260206004820152601060248201526f151c9859194814995cdd1c9a58dd195960821b60448201526064016104ab565b60035460405163054d50b360e21b8152600481018590526000916001600160a01b03169063153542cc9060240160206040518083038186803b1580156125b957600080fd5b505afa1580156125cd573d6000803e3d6000fd5b505050506040513d601f19601f820116820180604052508101906125f1919061310a565b60405163032773bb60e51b8152336004820152602481018590529091506000906001600160a01b038316906364ee776090604401602060405180830381600087803b15801561263f57600080fd5b505af1158015612653573d6000803e3d6000fd5b505050506040513d601f19601f8201168201806040525081019061267791906132d2565b9050505092915050565b6003546001600160a01b03163314806126a457506000546001600160a01b031633145b806126ae57503330145b6126ca5760405162461bcd60e51b81526004016104ab906134ee565b600092835260086020526040909220805461ffff19166101009315159390930260ff191692909217901515179055565b60035460405163054d50b360e21b8152600481018590526000916001600160a01b03169063153542cc9060240160206040518083038186803b15801561273f57600080fd5b505afa158015612753573d6000803e3d6000fd5b505050506040513d601f19601f82011682018060405250810190612777919061310a565b90506000816001600160a01b0316635c1548fb6040518163ffffffff1660e01b815260040160206040518083038186803b1580156127b457600080fd5b505afa1580156127c8573d6000803e3d6000fd5b505050506040513d601f19601f820116820180604052508101906127ec919061310a565b6040516342986e1360e01b81526001600160a01b03858116600483015260248201879052919250908316906342986e1390604401600060405180830381600087803b15801561283a57600080fd5b505af115801561284e573d6000803e3d6000fd5b5050506000868152600a602090815260408083206001600160a01b038816845260018101909252822080548894509192849261288b9084906135c5565b90915550506001600160a01b0385166000908152600282016020526040812080548892906128ba9084906135c5565b92505081905550858160030160008282546128d591906135c5565b92505081905550818160040160008282546128f091906135c5565b9091555050600087815260096020526040812080548492906129139084906135c5565b909155505060405163c20fa6a560e01b81526001600160a01b0386811660048301526024820184905285169063c20fa6a590604401600060405180830381600087803b15801561296257600080fd5b505af1158015612976573d6000803e3d6000fd5b5050505061075183858785612d3e565b60008181526008602052604090205462010000900460ff166129e05760405162461bcd60e51b815260206004820152601360248201527213585c9ad95d081b9bdd081c995cdbdb1d9959606a1b60448201526064016104ab565b600081815260076020908152604080832033845290915290205460ff16612a375760405162461bcd60e51b815260206004820152600b60248201526a2737ba1036b0b730b3b2b960a91b60448201526064016104ab565b600081815260086020908152604080832060020154600683528184203380865290845282852054868652600585528386208287529094529184205460ff909116939091612a8390611743565b90506000620f4240612a9585856135a6565b612a9f9190613586565b9050600085612adb5781612ab686620f42406135c5565b612ac08585613586565b612aca91906135a6565b612ad491906135a6565b9050612afe565b8185612ae78583613586565b612af191906135a6565b612afb91906135a6565b90505b6002546040516302c6709960e21b815233600482015260248101839052871560448201526001600160a01b0390911690630b19c264906064016119d2565b612b818282604051602401612b529291906134cc565b60408051601f198184030181529190526020810180516001600160e01b03166309710a9d60e41b179052612e3f565b5050565b60035460405163b9209e3360e01b81526001600160a01b038381166004830152600092169063b9209e339060240160206040518083038186803b158015612bcb57600080fd5b505afa158015612bdf573d6000803e3d6000fd5b505050506040513d601f19601f82011682018060405250810190612c039190613185565b80611a415750506000546001600160a01b0390811691161490565b600254604051631d699f5760e21b81526001600160a01b03848116600483015260009216906375a67d5c9060240160206040518083038186803b158015612c6457600080fd5b505afa158015612c78573d6000803e3d6000fd5b505050506040513d601f19601f82011682018060405250810190612c9c91906132d2565b60008381526008602052604090206001015411158061173c57506000546001600160a01b038481169116149392505050565b60006003821115612d2f5750806000612ce8600283613586565b612cf390600161356e565b90505b81811015612d2957905080600281612d0e8186613586565b612d18919061356e565b612d229190613586565b9050612cf6565b50919050565b8115612d39575060015b919050565b604080516001600160a01b0385811660248301528416604482015260648082018490528251808303909101815260849091019091526020810180516001600160e01b03166323b872dd60e01b179052612d98908590612e60565b50505050565b60008181526008602052604081205462010000900460ff1615612dd35760405162461bcd60e51b81526004016104ab90613519565b60008281526008602052604090205460ff168015612e3457612df485612b85565b612e345760405162461bcd60e51b8152602060048201526011602482015270155cd95c88139bdd0815995c9a599a5959607a1b60448201526064016104ab565b506001949350505050565b80516a636f6e736f6c652e6c6f67602083016000808483855afa5050505050565b6000612eb5826040518060400160405280602081526020017f5361666545524332303a206c6f772d6c6576656c2063616c6c206661696c6564815250856001600160a01b0316612f379092919063ffffffff16565b805190915015612f325780806020019051810190612ed39190613185565b612f325760405162461bcd60e51b815260206004820152602a60248201527f5361666545524332303a204552433230206f7065726174696f6e20646964206e6044820152691bdd081cdd58d8d9595960b21b60648201526084016104ab565b505050565b60606125208484600085856001600160a01b0385163b612f995760405162461bcd60e51b815260206004820152601d60248201527f416464726573733a2063616c6c20746f206e6f6e2d636f6e747261637400000060448201526064016104ab565b600080866001600160a01b03168587604051612fb5919061349d565b60006040518083038185875af1925050503d8060008114612ff2576040519150601f19603f3d011682016040523d82523d6000602084013e612ff7565b606091505b5091509150610dcb8282866060831561301157508161173c565b8251156130215782518084602001fd5b8160405162461bcd60e51b81526004016104ab91906134b9565b8051612d3981613634565b8051612d398161364c565b600082601f830112613061578081fd5b815167ffffffffffffffff8082111561307c5761307c61361e565b604051601f8301601f19908116603f011681019082821181831017156130a4576130a461361e565b816040528381528660208588010111156130bc578485fd5b6130cd8460208301602089016135dc565b9695505050505050565b80516001600160f81b0381168114612d3957600080fd5b6000602082840312156130ff578081fd5b813561173c81613634565b60006020828403121561311b578081fd5b815161173c81613634565b60008060408385031215613138578081fd5b823561314381613634565b946020939093013593505050565b600080600060608486031215613165578081fd5b833561317081613634565b95602085013595506040909401359392505050565b600060208284031215613196578081fd5b815161173c8161364c565b600080600080608085870312156131b6578081fd5b84356131c18161364c565b935060208501356131d18161364c565b93969395505050506040820135916060013590565b6000602082840312156131f7578081fd5b815167ffffffffffffffff8082111561320e578283fd5b908301906101208286031215613222578283fd5b61322a613544565b61323383613046565b8152613241602084016130d7565b602082015260408301516040820152606083015160608201526080830151608082015260a083015160a082015260c083015160c082015260e083015182811115613289578485fd5b61329587828601613051565b60e08301525061010091506132ab82840161303b565b91810191909152949350505050565b6000602082840312156132cb578081fd5b5035919050565b6000602082840312156132e3578081fd5b5051919050565b600080604083850312156132fc578182fd5b82359150602083013561330e81613634565b809150509250929050565b6000806000806080858703121561332e578182fd5b84359350602085013561334081613634565b9250604085013561335081613634565b9396929550929360600135925050565b60008060408385031215613372578182fd5b82359150602083013561330e8161364c565b600080600060608486031215613398578081fd5b8335925060208401356133aa8161364c565b915060408401356133ba8161364c565b809150509250925092565b6000806000606084860312156133d9578081fd5b8335925060208401356133eb8161364c565b929592945050506040919091013590565b60008060008060808587031215613411578182fd5b8435935060208501356131d18161364c565b60008060408385031215613435578182fd5b50508035926020909101359150565b600080600060608486031215613458578081fd5b833592506020840135915060408401356133ba81613634565b600081518084526134898160208601602086016135dc565b601f01601f19169290920160200192915050565b600082516134af8184602087016135dc565b9190910192915050565b60208152600061173c6020830184613471565b6040815260006134df6040830185613471565b90508260208301529392505050565b60208082526011908201527034b9903737ba1031b7b73a3937b63632b960791b604082015260600190565b6020808252601190820152704d61726b6574204e6f742041637469766560781b604082015260600190565b604051610120810167ffffffffffffffff811182821017156135685761356861361e565b60405290565b6000821982111561358157613581613608565b500190565b6000826135a157634e487b7160e01b81526012600452602481fd5b500490565b60008160001904831182151516156135c0576135c0613608565b500290565b6000828210156135d7576135d7613608565b500390565b60005b838110156135f75781810151838201526020016135df565b83811115612d985750506000910152565b634e487b7160e01b600052601160045260246000fd5b634e487b7160e01b600052604160045260246000fd5b6001600160a01b038116811461364957600080fd5b50565b801515811461364957600080fdfea26469706673582212207647f2052f6e4b51d1c386b8437ba8bbdededdca151079d336dced56334bb25e64736f6c63430008040033",
  "devdoc": {
    "kind": "dev",
    "methods": {
      "canBuy(address,uint256,uint256)": {
        "details": "Called offchain before doTrade contract calls "
      },
      "setMarketRestrictionData(bool,bool,uint256,uint256)": {
        "details": "Sets reputation score requirements and for the market, called by the controller when market is initiated. Buy threshold is set after the assessment is completed "
      },
      "update_redemption_price(uint256,bool,uint256,uint256)": {
        "details": "Redemption price, as calculated at maturity, depends on total_repayed/(principal + predetermined yield) If total_repayed = 0, redemption price is 0",
        "params": {
          "atLoss": ": defines circumstances where expected returns are higher than actual",
          "extra_gain": ": any extra yield not factored during assessment. Is 0 yield is as expected",
          "principal_loss": ": principal - returned amount => non-negative always?"
        }
      }
    },
    "version": 1
  },
  "userdoc": {
    "kind": "user",
    "methods": {
      "canBuy(address,uint256,uint256)": {
        "notice": "trader can only buy within their budget limit "
      },
      "denyMarket(uint256)": {
        "notice": "denies market from validator "
      },
      "getHedgePrice(uint256)": {
        "notice": "computes the price for ZCB one needs to short at to completely hedge for the case of maximal loss, function of principal and interest"
      },
      "getHedgeQuantity(address,uint256)": {
        "notice": "computes maximum amount of quantity that trader can short while being hedged such that when he loses his loss will be offset by his gains  "
      },
      "getTraderBudget(address)": {
        "notice": "get trade budget = f(reputation) sqrt for now "
      },
      "marketCondition(uint256)": {
        "notice": "returns true if amount bought is greater than the insurance threshold"
      },
      "updateReputation(uint256)": {
        "notice": "when market is resolved(maturity/early default), calculates score and update each assessment phase trader's reputation, called by individual traders"
      }
    },
    "version": 1
  },
  "storageLayout": {
    "storage": [
      {
        "astId": 27568,
        "contract": "contracts/stablecoin/marketmanager.sol:MarketManager",
        "label": "owner",
        "offset": 0,
        "slot": "0",
        "type": "t_address"
      },
      {
        "astId": 27570,
        "contract": "contracts/stablecoin/marketmanager.sol:MarketManager",
        "label": "nominatedOwner",
        "offset": 0,
        "slot": "1",
        "type": "t_address"
      },
      {
        "astId": 25916,
        "contract": "contracts/stablecoin/marketmanager.sol:MarketManager",
        "label": "rep",
        "offset": 0,
        "slot": "2",
        "type": "t_contract(ReputationNFT)27961"
      },
      {
        "astId": 25919,
        "contract": "contracts/stablecoin/marketmanager.sol:MarketManager",
        "label": "controller",
        "offset": 0,
        "slot": "3",
        "type": "t_contract(Controller)22699"
      },
      {
        "astId": 25923,
        "contract": "contracts/stablecoin/marketmanager.sol:MarketManager",
        "label": "redemption_prices",
        "offset": 0,
        "slot": "4",
        "type": "t_mapping(t_uint256,t_uint256)"
      },
      {
        "astId": 25929,
        "contract": "contracts/stablecoin/marketmanager.sol:MarketManager",
        "label": "assessment_collaterals",
        "offset": 0,
        "slot": "5",
        "type": "t_mapping(t_uint256,t_mapping(t_address,t_uint256))"
      },
      {
        "astId": 25935,
        "contract": "contracts/stablecoin/marketmanager.sol:MarketManager",
        "label": "assessment_prices",
        "offset": 0,
        "slot": "6",
        "type": "t_mapping(t_uint256,t_mapping(t_address,t_uint256))"
      },
      {
        "astId": 25941,
        "contract": "contracts/stablecoin/marketmanager.sol:MarketManager",
        "label": "assessment_trader",
        "offset": 0,
        "slot": "7",
        "type": "t_mapping(t_uint256,t_mapping(t_address,t_bool))"
      },
      {
        "astId": 25946,
        "contract": "contracts/stablecoin/marketmanager.sol:MarketManager",
        "label": "restriction_data",
        "offset": 0,
        "slot": "8",
        "type": "t_mapping(t_uint256,t_struct(MarketPhaseData)25983_storage)"
      },
      {
        "astId": 25950,
        "contract": "contracts/stablecoin/marketmanager.sol:MarketManager",
        "label": "collateral_pot",
        "offset": 0,
        "slot": "9",
        "type": "t_mapping(t_uint256,t_uint256)"
      },
      {
        "astId": 25955,
        "contract": "contracts/stablecoin/marketmanager.sol:MarketManager",
        "label": "debt_pools",
        "offset": 0,
        "slot": "10",
        "type": "t_mapping(t_uint256,t_struct(CDP)25972_storage)"
      },
      {
        "astId": 25990,
        "contract": "contracts/stablecoin/marketmanager.sol:MarketManager",
        "label": "INSURANCE_CONSTANT",
        "offset": 0,
        "slot": "11",
        "type": "t_uint256"
      },
      {
        "astId": 25997,
        "contract": "contracts/stablecoin/marketmanager.sol:MarketManager",
        "label": "REPUTATION_CONSTANT",
        "offset": 0,
        "slot": "12",
        "type": "t_uint256"
      },
      {
        "astId": 25999,
        "contract": "contracts/stablecoin/marketmanager.sol:MarketManager",
        "label": "base_budget",
        "offset": 0,
        "slot": "13",
        "type": "t_uint256"
      }
    ],
    "types": {
      "t_address": {
        "encoding": "inplace",
        "label": "address",
        "numberOfBytes": "20"
      },
      "t_bool": {
        "encoding": "inplace",
        "label": "bool",
        "numberOfBytes": "1"
      },
      "t_contract(Controller)22699": {
        "encoding": "inplace",
        "label": "contract Controller",
        "numberOfBytes": "20"
      },
      "t_contract(ReputationNFT)27961": {
        "encoding": "inplace",
        "label": "contract ReputationNFT",
        "numberOfBytes": "20"
      },
      "t_mapping(t_address,t_address)": {
        "encoding": "mapping",
        "key": "t_address",
        "label": "mapping(address => address)",
        "numberOfBytes": "32",
        "value": "t_address"
      },
      "t_mapping(t_address,t_bool)": {
        "encoding": "mapping",
        "key": "t_address",
        "label": "mapping(address => bool)",
        "numberOfBytes": "32",
        "value": "t_bool"
      },
      "t_mapping(t_address,t_uint256)": {
        "encoding": "mapping",
        "key": "t_address",
        "label": "mapping(address => uint256)",
        "numberOfBytes": "32",
        "value": "t_uint256"
      },
      "t_mapping(t_uint256,t_mapping(t_address,t_bool))": {
        "encoding": "mapping",
        "key": "t_uint256",
        "label": "mapping(uint256 => mapping(address => bool))",
        "numberOfBytes": "32",
        "value": "t_mapping(t_address,t_bool)"
      },
      "t_mapping(t_uint256,t_mapping(t_address,t_uint256))": {
        "encoding": "mapping",
        "key": "t_uint256",
        "label": "mapping(uint256 => mapping(address => uint256))",
        "numberOfBytes": "32",
        "value": "t_mapping(t_address,t_uint256)"
      },
      "t_mapping(t_uint256,t_struct(CDP)25972_storage)": {
        "encoding": "mapping",
        "key": "t_uint256",
        "label": "mapping(uint256 => struct MarketManager.CDP)",
        "numberOfBytes": "32",
        "value": "t_struct(CDP)25972_storage"
      },
      "t_mapping(t_uint256,t_struct(MarketPhaseData)25983_storage)": {
        "encoding": "mapping",
        "key": "t_uint256",
        "label": "mapping(uint256 => struct MarketManager.MarketPhaseData)",
        "numberOfBytes": "32",
        "value": "t_struct(MarketPhaseData)25983_storage"
      },
      "t_mapping(t_uint256,t_uint256)": {
        "encoding": "mapping",
        "key": "t_uint256",
        "label": "mapping(uint256 => uint256)",
        "numberOfBytes": "32",
        "value": "t_uint256"
      },
      "t_struct(CDP)25972_storage": {
        "encoding": "inplace",
        "label": "struct MarketManager.CDP",
        "members": [
          {
            "astId": 25959,
            "contract": "contracts/stablecoin/marketmanager.sol:MarketManager",
            "label": "collateral_address",
            "offset": 0,
            "slot": "0",
            "type": "t_mapping(t_address,t_address)"
          },
          {
            "astId": 25963,
            "contract": "contracts/stablecoin/marketmanager.sol:MarketManager",
            "label": "collateral_amount",
            "offset": 0,
            "slot": "1",
            "type": "t_mapping(t_address,t_uint256)"
          },
          {
            "astId": 25967,
            "contract": "contracts/stablecoin/marketmanager.sol:MarketManager",
            "label": "borrowed_amount",
            "offset": 0,
            "slot": "2",
            "type": "t_mapping(t_address,t_uint256)"
          },
          {
            "astId": 25969,
            "contract": "contracts/stablecoin/marketmanager.sol:MarketManager",
            "label": "total_debt",
            "offset": 0,
            "slot": "3",
            "type": "t_uint256"
          },
          {
            "astId": 25971,
            "contract": "contracts/stablecoin/marketmanager.sol:MarketManager",
            "label": "total_collateral",
            "offset": 0,
            "slot": "4",
            "type": "t_uint256"
          }
        ],
        "numberOfBytes": "160"
      },
      "t_struct(MarketPhaseData)25983_storage": {
        "encoding": "inplace",
        "label": "struct MarketManager.MarketPhaseData",
        "members": [
          {
            "astId": 25974,
            "contract": "contracts/stablecoin/marketmanager.sol:MarketManager",
            "label": "duringMarketAssessment",
            "offset": 0,
            "slot": "0",
            "type": "t_bool"
          },
          {
            "astId": 25976,
            "contract": "contracts/stablecoin/marketmanager.sol:MarketManager",
            "label": "onlyReputable",
            "offset": 1,
            "slot": "0",
            "type": "t_bool"
          },
          {
            "astId": 25978,
            "contract": "contracts/stablecoin/marketmanager.sol:MarketManager",
            "label": "marketDenied",
            "offset": 2,
            "slot": "0",
            "type": "t_bool"
          },
          {
            "astId": 25980,
            "contract": "contracts/stablecoin/marketmanager.sol:MarketManager",
            "label": "min_rep_score",
            "offset": 0,
            "slot": "1",
            "type": "t_uint256"
          },
          {
            "astId": 25982,
            "contract": "contracts/stablecoin/marketmanager.sol:MarketManager",
            "label": "atLoss",
            "offset": 0,
            "slot": "2",
            "type": "t_bool"
          }
        ],
        "numberOfBytes": "96"
      },
      "t_uint256": {
        "encoding": "inplace",
        "label": "uint256",
        "numberOfBytes": "32"
      }
    }
  }
}