{
  "address": "0x81D0609d4FDe0efa1661dB340b99E730285b592e",
  "abi": [
    {
      "inputs": [
        {
          "internalType": "contract IERC20",
          "name": "_rewardsToken",
          "type": "address"
        }
      ],
      "stateMutability": "nonpayable",
      "type": "constructor"
    },
    {
      "anonymous": false,
      "inputs": [
        {
          "indexed": true,
          "internalType": "address",
          "name": "user",
          "type": "address"
        },
        {
          "indexed": true,
          "internalType": "uint256",
          "name": "pid",
          "type": "uint256"
        },
        {
          "indexed": false,
          "internalType": "uint256",
          "name": "amount",
          "type": "uint256"
        }
      ],
      "name": "Deposit",
      "type": "event"
    },
    {
      "anonymous": false,
      "inputs": [
        {
          "indexed": true,
          "internalType": "address",
          "name": "user",
          "type": "address"
        },
        {
          "indexed": true,
          "internalType": "uint256",
          "name": "pid",
          "type": "uint256"
        },
        {
          "indexed": false,
          "internalType": "uint256",
          "name": "amount",
          "type": "uint256"
        }
      ],
      "name": "EmergencyWithdraw",
      "type": "event"
    },
    {
      "anonymous": false,
      "inputs": [
        {
          "indexed": true,
          "internalType": "address",
          "name": "ammFactory",
          "type": "address"
        },
        {
          "indexed": true,
          "internalType": "address",
          "name": "marketFactory",
          "type": "address"
        },
        {
          "indexed": true,
          "internalType": "uint256",
          "name": "marketId",
          "type": "uint256"
        },
        {
          "indexed": false,
          "internalType": "address",
          "name": "user",
          "type": "address"
        },
        {
          "indexed": false,
          "internalType": "address",
          "name": "recipient",
          "type": "address"
        },
        {
          "indexed": false,
          "internalType": "int256",
          "name": "collateral",
          "type": "int256"
        },
        {
          "indexed": false,
          "internalType": "int256",
          "name": "lpTokens",
          "type": "int256"
        },
        {
          "indexed": false,
          "internalType": "uint256[]",
          "name": "sharesReturned",
          "type": "uint256[]"
        }
      ],
      "name": "LiquidityChanged",
      "type": "event"
    },
    {
      "anonymous": false,
      "inputs": [
        {
          "indexed": true,
          "internalType": "address",
          "name": "previousOwner",
          "type": "address"
        },
        {
          "indexed": true,
          "internalType": "address",
          "name": "newOwner",
          "type": "address"
        }
      ],
      "name": "OwnershipTransferred",
      "type": "event"
    },
    {
      "anonymous": false,
      "inputs": [
        {
          "indexed": true,
          "internalType": "address",
          "name": "ammFactory",
          "type": "address"
        },
        {
          "indexed": true,
          "internalType": "address",
          "name": "marketFactory",
          "type": "address"
        },
        {
          "indexed": true,
          "internalType": "uint256",
          "name": "marketId",
          "type": "uint256"
        },
        {
          "indexed": false,
          "internalType": "address",
          "name": "creator",
          "type": "address"
        },
        {
          "indexed": false,
          "internalType": "address",
          "name": "lpTokenRecipient",
          "type": "address"
        }
      ],
      "name": "PoolCreated",
      "type": "event"
    },
    {
      "anonymous": false,
      "inputs": [
        {
          "indexed": true,
          "internalType": "address",
          "name": "MarketFactory",
          "type": "address"
        },
        {
          "indexed": false,
          "internalType": "uint256",
          "name": "OriginEarlyDepositBonusRewards",
          "type": "uint256"
        },
        {
          "indexed": false,
          "internalType": "uint256",
          "name": "OriginrewardsPeriods",
          "type": "uint256"
        },
        {
          "indexed": false,
          "internalType": "uint256",
          "name": "OriginRewardsPerPeriod",
          "type": "uint256"
        },
        {
          "indexed": false,
          "internalType": "uint256",
          "name": "EarlyDepositBonusRewards",
          "type": "uint256"
        },
        {
          "indexed": false,
          "internalType": "uint256",
          "name": "rewardsPeriods",
          "type": "uint256"
        },
        {
          "indexed": false,
          "internalType": "uint256",
          "name": "RewardsPerPeriod",
          "type": "uint256"
        }
      ],
      "name": "TrustMarketFactory",
      "type": "event"
    },
    {
      "anonymous": false,
      "inputs": [
        {
          "indexed": true,
          "internalType": "address",
          "name": "user",
          "type": "address"
        },
        {
          "indexed": true,
          "internalType": "uint256",
          "name": "pid",
          "type": "uint256"
        },
        {
          "indexed": false,
          "internalType": "uint256",
          "name": "amount",
          "type": "uint256"
        },
        {
          "indexed": false,
          "internalType": "address",
          "name": "recipient",
          "type": "address"
        }
      ],
      "name": "Withdraw",
      "type": "event"
    },
    {
      "inputs": [],
      "name": "BONE",
      "outputs": [
        {
          "internalType": "uint256",
          "name": "",
          "type": "uint256"
        }
      ],
      "stateMutability": "view",
      "type": "function"
    },
    {
      "inputs": [],
      "name": "EARLY_DEPOSIT_BONUS_REWARDS_PERCENTAGE",
      "outputs": [
        {
          "internalType": "uint256",
          "name": "",
          "type": "uint256"
        }
      ],
      "stateMutability": "view",
      "type": "function"
    },
    {
      "inputs": [
        {
          "internalType": "address",
          "name": "_ammFactory",
          "type": "address"
        },
        {
          "internalType": "address",
          "name": "_marketFactory",
          "type": "address"
        },
        {
          "internalType": "uint256",
          "name": "_marketId",
          "type": "uint256"
        },
        {
          "internalType": "contract IERC20",
          "name": "_lpToken",
          "type": "address"
        },
        {
          "internalType": "uint256",
          "name": "_endTimestamp",
          "type": "uint256"
        }
      ],
      "name": "add",
      "outputs": [
        {
          "internalType": "uint256",
          "name": "_nextPID",
          "type": "uint256"
        }
      ],
      "stateMutability": "nonpayable",
      "type": "function"
    },
    {
      "inputs": [
        {
          "internalType": "contract AMMFactory",
          "name": "_ammFactory",
          "type": "address"
        },
        {
          "internalType": "contract AbstractMarketFactoryV3",
          "name": "_marketFactory",
          "type": "address"
        },
        {
          "internalType": "uint256",
          "name": "_marketId",
          "type": "uint256"
        },
        {
          "internalType": "uint256",
          "name": "_collateralIn",
          "type": "uint256"
        },
        {
          "internalType": "uint256",
          "name": "_minLPTokensOut",
          "type": "uint256"
        },
        {
          "internalType": "address",
          "name": "_lpTokenRecipient",
          "type": "address"
        }
      ],
      "name": "addLiquidity",
      "outputs": [
        {
          "internalType": "uint256",
          "name": "_poolAmountOut",
          "type": "uint256"
        },
        {
          "internalType": "uint256[]",
          "name": "_balances",
          "type": "uint256[]"
        }
      ],
      "stateMutability": "nonpayable",
      "type": "function"
    },
    {
      "inputs": [
        {
          "internalType": "address",
          "name": "_marketFactory",
          "type": "address"
        },
        {
          "internalType": "uint256",
          "name": "_rewardsPerMarket",
          "type": "uint256"
        },
        {
          "internalType": "uint256",
          "name": "_rewardDaysPerMarket",
          "type": "uint256"
        },
        {
          "internalType": "uint256",
          "name": "_earlyDepositBonusRewards",
          "type": "uint256"
        }
      ],
      "name": "addRewards",
      "outputs": [],
      "stateMutability": "nonpayable",
      "type": "function"
    },
    {
      "inputs": [
        {
          "internalType": "contract AMMFactory",
          "name": "_ammFactory",
          "type": "address"
        },
        {
          "internalType": "contract AbstractMarketFactoryV3",
          "name": "_marketFactory",
          "type": "address"
        },
        {
          "internalType": "uint256",
          "name": "_marketId",
          "type": "uint256"
        },
        {
          "internalType": "uint256",
          "name": "_initialLiquidity",
          "type": "uint256"
        },
        {
          "internalType": "address",
          "name": "_lpTokenRecipient",
          "type": "address"
        }
      ],
      "name": "createPool",
      "outputs": [
        {
          "internalType": "uint256",
          "name": "",
          "type": "uint256"
        }
      ],
      "stateMutability": "nonpayable",
      "type": "function"
    },
    {
      "inputs": [
        {
          "internalType": "uint256",
          "name": "_pid",
          "type": "uint256"
        },
        {
          "internalType": "uint256",
          "name": "_amount",
          "type": "uint256"
        }
      ],
      "name": "deposit",
      "outputs": [],
      "stateMutability": "nonpayable",
      "type": "function"
    },
    {
      "inputs": [
        {
          "internalType": "contract AMMFactory",
          "name": "_ammFactory",
          "type": "address"
        },
        {
          "internalType": "contract AbstractMarketFactoryV3",
          "name": "_marketFactory",
          "type": "address"
        },
        {
          "internalType": "uint256",
          "name": "_marketId",
          "type": "uint256"
        },
        {
          "internalType": "uint256",
          "name": "_amount",
          "type": "uint256"
        }
      ],
      "name": "depositByMarket",
      "outputs": [],
      "stateMutability": "nonpayable",
      "type": "function"
    },
    {
      "inputs": [
        {
          "internalType": "uint256",
          "name": "_pid",
          "type": "uint256"
        }
      ],
      "name": "emergencyWithdraw",
      "outputs": [],
      "stateMutability": "nonpayable",
      "type": "function"
    },
    {
      "inputs": [
        {
          "internalType": "uint256",
          "name": "_pid",
          "type": "uint256"
        }
      ],
      "name": "getEarlyDepositEndTimestamp",
      "outputs": [
        {
          "internalType": "uint256",
          "name": "",
          "type": "uint256"
        }
      ],
      "stateMutability": "view",
      "type": "function"
    },
    {
      "inputs": [
        {
          "internalType": "contract AMMFactory",
          "name": "_ammFactory",
          "type": "address"
        },
        {
          "internalType": "contract AbstractMarketFactoryV3",
          "name": "_marketFactory",
          "type": "address"
        },
        {
          "internalType": "uint256",
          "name": "_marketId",
          "type": "uint256"
        }
      ],
      "name": "getPoolInfo",
      "outputs": [
        {
          "components": [
            {
              "internalType": "uint256",
              "name": "beginTimestamp",
              "type": "uint256"
            },
            {
              "internalType": "uint256",
              "name": "endTimestamp",
              "type": "uint256"
            },
            {
              "internalType": "uint256",
              "name": "earlyDepositEndTimestamp",
              "type": "uint256"
            },
            {
              "internalType": "uint256",
              "name": "totalRewardsAccrued",
              "type": "uint256"
            },
            {
              "internalType": "bool",
              "name": "created",
              "type": "bool"
            }
          ],
          "internalType": "struct MasterChef.PoolStatusInfo",
          "name": "_poolStatusInfo",
          "type": "tuple"
        }
      ],
      "stateMutability": "view",
      "type": "function"
    },
    {
      "inputs": [
        {
          "internalType": "contract AMMFactory",
          "name": "_ammFactory",
          "type": "address"
        },
        {
          "internalType": "contract AbstractMarketFactoryV3",
          "name": "_marketFactory",
          "type": "address"
        },
        {
          "internalType": "uint256",
          "name": "_marketId",
          "type": "uint256"
        }
      ],
      "name": "getPoolLPToken",
      "outputs": [
        {
          "internalType": "contract IERC20",
          "name": "",
          "type": "address"
        }
      ],
      "stateMutability": "view",
      "type": "function"
    },
    {
      "inputs": [
        {
          "internalType": "contract AMMFactory",
          "name": "_ammFactory",
          "type": "address"
        },
        {
          "internalType": "contract AbstractMarketFactoryV3",
          "name": "_marketFactory",
          "type": "address"
        },
        {
          "internalType": "uint256",
          "name": "_marketId",
          "type": "uint256"
        }
      ],
      "name": "getPoolLPTokenTotalSupply",
      "outputs": [
        {
          "internalType": "uint256",
          "name": "",
          "type": "uint256"
        }
      ],
      "stateMutability": "view",
      "type": "function"
    },
    {
      "inputs": [
        {
          "internalType": "uint256",
          "name": "_pid",
          "type": "uint256"
        }
      ],
      "name": "getPoolRewardEndTimestamp",
      "outputs": [
        {
          "internalType": "uint256",
          "name": "",
          "type": "uint256"
        }
      ],
      "stateMutability": "view",
      "type": "function"
    },
    {
      "inputs": [
        {
          "internalType": "contract AMMFactory",
          "name": "_ammFactory",
          "type": "address"
        },
        {
          "internalType": "contract AbstractMarketFactoryV3",
          "name": "_marketFactory",
          "type": "address"
        },
        {
          "internalType": "uint256",
          "name": "_marketId",
          "type": "uint256"
        },
        {
          "internalType": "address",
          "name": "_user",
          "type": "address"
        }
      ],
      "name": "getPoolTokenBalance",
      "outputs": [
        {
          "internalType": "uint256",
          "name": "",
          "type": "uint256"
        }
      ],
      "stateMutability": "view",
      "type": "function"
    },
    {
      "inputs": [
        {
          "internalType": "uint256",
          "name": "_pid",
          "type": "uint256"
        }
      ],
      "name": "getTimeElapsed",
      "outputs": [
        {
          "internalType": "uint256",
          "name": "",
          "type": "uint256"
        }
      ],
      "stateMutability": "view",
      "type": "function"
    },
    {
      "inputs": [
        {
          "internalType": "uint256",
          "name": "_pid",
          "type": "uint256"
        },
        {
          "internalType": "address",
          "name": "_user",
          "type": "address"
        }
      ],
      "name": "getUserAmount",
      "outputs": [
        {
          "internalType": "uint256",
          "name": "",
          "type": "uint256"
        }
      ],
      "stateMutability": "view",
      "type": "function"
    },
    {
      "inputs": [
        {
          "internalType": "contract AMMFactory",
          "name": "_ammFactory",
          "type": "address"
        },
        {
          "internalType": "contract AbstractMarketFactoryV3",
          "name": "_marketFactory",
          "type": "address"
        },
        {
          "internalType": "uint256",
          "name": "_marketId",
          "type": "uint256"
        },
        {
          "internalType": "address",
          "name": "_userAddress",
          "type": "address"
        }
      ],
      "name": "getUserPendingRewardInfo",
      "outputs": [
        {
          "components": [
            {
              "internalType": "uint256",
              "name": "beginTimestamp",
              "type": "uint256"
            },
            {
              "internalType": "uint256",
              "name": "endTimestamp",
              "type": "uint256"
            },
            {
              "internalType": "uint256",
              "name": "earlyDepositEndTimestamp",
              "type": "uint256"
            },
            {
              "internalType": "uint256",
              "name": "accruedStandardRewards",
              "type": "uint256"
            },
            {
              "internalType": "uint256",
              "name": "accruedEarlyDepositBonusRewards",
              "type": "uint256"
            },
            {
              "internalType": "uint256",
              "name": "pendingEarlyDepositBonusRewards",
              "type": "uint256"
            },
            {
              "internalType": "bool",
              "name": "created",
              "type": "bool"
            }
          ],
          "internalType": "struct MasterChef.PendingRewardInfo",
          "name": "_pendingRewardInfo",
          "type": "tuple"
        }
      ],
      "stateMutability": "view",
      "type": "function"
    },
    {
      "inputs": [],
      "name": "massUpdatePools",
      "outputs": [],
      "stateMutability": "nonpayable",
      "type": "function"
    },
    {
      "inputs": [],
      "name": "owner",
      "outputs": [
        {
          "internalType": "address",
          "name": "",
          "type": "address"
        }
      ],
      "stateMutability": "view",
      "type": "function"
    },
    {
      "inputs": [
        {
          "internalType": "uint256",
          "name": "",
          "type": "uint256"
        }
      ],
      "name": "poolInfo",
      "outputs": [
        {
          "internalType": "contract IERC20",
          "name": "lpToken",
          "type": "address"
        },
        {
          "internalType": "uint256",
          "name": "accRewardsPerShare",
          "type": "uint256"
        },
        {
          "internalType": "uint256",
          "name": "totalEarlyDepositBonusRewardShares",
          "type": "uint256"
        },
        {
          "internalType": "uint256",
          "name": "beginTimestamp",
          "type": "uint256"
        },
        {
          "internalType": "uint256",
          "name": "endTimestamp",
          "type": "uint256"
        },
        {
          "internalType": "uint256",
          "name": "earlyDepositBonusRewards",
          "type": "uint256"
        },
        {
          "internalType": "uint256",
          "name": "lastRewardTimestamp",
          "type": "uint256"
        },
        {
          "internalType": "uint256",
          "name": "rewardsPerSecond",
          "type": "uint256"
        }
      ],
      "stateMutability": "view",
      "type": "function"
    },
    {
      "inputs": [],
      "name": "poolLength",
      "outputs": [
        {
          "internalType": "uint256",
          "name": "",
          "type": "uint256"
        }
      ],
      "stateMutability": "view",
      "type": "function"
    },
    {
      "inputs": [
        {
          "internalType": "contract AMMFactory",
          "name": "_ammFactory",
          "type": "address"
        },
        {
          "internalType": "contract AbstractMarketFactoryV3",
          "name": "_marketFactory",
          "type": "address"
        },
        {
          "internalType": "uint256",
          "name": "_marketId",
          "type": "uint256"
        },
        {
          "internalType": "uint256",
          "name": "_lpTokensIn",
          "type": "uint256"
        },
        {
          "internalType": "uint256",
          "name": "_minCollateralOut",
          "type": "uint256"
        },
        {
          "internalType": "address",
          "name": "_collateralRecipient",
          "type": "address"
        }
      ],
      "name": "removeLiquidity",
      "outputs": [
        {
          "internalType": "uint256",
          "name": "_collateralOut",
          "type": "uint256"
        },
        {
          "internalType": "uint256[]",
          "name": "_balances",
          "type": "uint256[]"
        }
      ],
      "stateMutability": "nonpayable",
      "type": "function"
    },
    {
      "inputs": [],
      "name": "renounceOwnership",
      "outputs": [],
      "stateMutability": "nonpayable",
      "type": "function"
    },
    {
      "inputs": [
        {
          "internalType": "address",
          "name": "",
          "type": "address"
        },
        {
          "internalType": "address",
          "name": "",
          "type": "address"
        },
        {
          "internalType": "uint256",
          "name": "",
          "type": "uint256"
        }
      ],
      "name": "rewardPoolLookup",
      "outputs": [
        {
          "internalType": "uint256",
          "name": "pid",
          "type": "uint256"
        },
        {
          "internalType": "bool",
          "name": "created",
          "type": "bool"
        }
      ],
      "stateMutability": "view",
      "type": "function"
    },
    {
      "inputs": [
        {
          "internalType": "address",
          "name": "newOwner",
          "type": "address"
        }
      ],
      "name": "transferOwnership",
      "outputs": [],
      "stateMutability": "nonpayable",
      "type": "function"
    },
    {
      "inputs": [
        {
          "internalType": "address",
          "name": "_ammFactory",
          "type": "address"
        }
      ],
      "name": "trustAMMFactory",
      "outputs": [],
      "stateMutability": "nonpayable",
      "type": "function"
    },
    {
      "inputs": [
        {
          "internalType": "address",
          "name": "_ammFactory",
          "type": "address"
        }
      ],
      "name": "untrustAMMFactory",
      "outputs": [],
      "stateMutability": "nonpayable",
      "type": "function"
    },
    {
      "inputs": [
        {
          "internalType": "uint256",
          "name": "_pid",
          "type": "uint256"
        }
      ],
      "name": "updatePool",
      "outputs": [],
      "stateMutability": "nonpayable",
      "type": "function"
    },
    {
      "inputs": [
        {
          "internalType": "uint256",
          "name": "",
          "type": "uint256"
        },
        {
          "internalType": "address",
          "name": "",
          "type": "address"
        }
      ],
      "name": "userInfo",
      "outputs": [
        {
          "internalType": "uint256",
          "name": "amount",
          "type": "uint256"
        },
        {
          "internalType": "uint256",
          "name": "rewardDebt",
          "type": "uint256"
        },
        {
          "internalType": "uint256",
          "name": "lastActionTimestamp",
          "type": "uint256"
        }
      ],
      "stateMutability": "view",
      "type": "function"
    },
    {
      "inputs": [
        {
          "internalType": "uint256",
          "name": "_pid",
          "type": "uint256"
        },
        {
          "internalType": "uint256",
          "name": "_amount",
          "type": "uint256"
        }
      ],
      "name": "withdraw",
      "outputs": [],
      "stateMutability": "nonpayable",
      "type": "function"
    },
    {
      "inputs": [
        {
          "internalType": "contract AMMFactory",
          "name": "_ammFactory",
          "type": "address"
        },
        {
          "internalType": "contract AbstractMarketFactoryV3",
          "name": "_marketFactory",
          "type": "address"
        },
        {
          "internalType": "uint256",
          "name": "_marketId",
          "type": "uint256"
        },
        {
          "internalType": "uint256",
          "name": "_amount",
          "type": "uint256"
        }
      ],
      "name": "withdrawByMarket",
      "outputs": [],
      "stateMutability": "nonpayable",
      "type": "function"
    },
    {
      "inputs": [
        {
          "internalType": "uint256",
          "name": "_amount",
          "type": "uint256"
        }
      ],
      "name": "withdrawRewards",
      "outputs": [],
      "stateMutability": "nonpayable",
      "type": "function"
    }
  ],
  "transactionHash": "0x728df5c61f75f1a9343430ff0697e0bd6084101cd5c8b72a2f197643dd3e5d59",
  "args": [
    "0x5799bFe361BEea69f808328FF4884DF92f1f66f0"
  ],
  "solcInputHash": "bcb06b8b228bc6167eb9eeb2cf5701fd",
  "bytecode": "0x60806040523480156200001157600080fd5b5060405162004435380380620044358339810160408190526200003491620000b5565b6200003f3362000065565b600580546001600160a01b0319166001600160a01b0392909216919091179055620000e5565b600080546001600160a01b038381166001600160a01b0319831681178455604051919092169283917f8be0079c531659141344cd1fd0a4f28419497f9722a3daafe3b4186f6b6457e09190a35050565b600060208284031215620000c7578081fd5b81516001600160a01b0381168114620000de578182fd5b9392505050565b61434080620000f56000396000f3fe608060405234801561001057600080fd5b506004361061020b5760003560e01c80639342c8f41161012a578063c36596a6116100bd578063e2bbb1581161008c578063f2fde38b11610071578063f2fde38b146105d2578063fd1b192e146105e5578063fe04b549146105f857600080fd5b8063e2bbb158146105ac578063eb97ed96146105bf57600080fd5b8063c36596a6146104cf578063d20122e0146104de578063d8c08b871461052e578063dcc2b3611461054157600080fd5b8063af9551f7116100f9578063af9551f714610475578063b0f7932614610488578063b453d9b5146104a9578063c0e3ee6b146104bc57600080fd5b80639342c8f4146103a757806393f1a40b146103ba5780639d5dda8f1461040b5780639f7bc32c1461041e57600080fd5b806351eb05a6116101a2578063715018a611610171578063715018a6146103365780638448fd2c1461033e57806388b52b4a146103515780638da5cb5b1461038957600080fd5b806351eb05a6146103005780635312ea8e146103135780636142da6414610326578063630b5ba11461032e57600080fd5b80632af3420e116101de5780632af3420e146102b45780632f4064db146102c75780633437586b146102da578063441a3e70146102ed57600080fd5b8063081e3eda146102105780631526fe27146102275780632137eacf1461028c57806326dde4f8146102a1575b600080fd5b6002545b6040519081526020015b60405180910390f35b61023a610235366004613ee3565b61060b565b6040805173ffffffffffffffffffffffffffffffffffffffff90991689526020890197909752958701949094526060860192909252608085015260a084015260c083015260e08201526101000161021e565b61029f61029a366004613cb9565b610678565b005b6102146102af366004613c53565b610774565b6102146102c2366004613ee3565b6108c5565b61029f6102d5366004613cb9565b610975565b6102146102e8366004613f13565b610a65565b61029f6102fb366004613f87565b610a9c565b61029f61030e366004613ee3565b610b19565b61029f610321366004613ee3565b610c74565b610214610d51565b61029f610d67565b61029f610d8e565b61021461034c366004613cfe565b610da2565b61036461035f366004613c53565b611487565b60405173ffffffffffffffffffffffffffffffffffffffff909116815260200161021e565b60005473ffffffffffffffffffffffffffffffffffffffff16610364565b61029f6103b5366004613ee3565b611551565b6103f06103c8366004613f13565b6001602081815260009384526040808520909152918352912080549181015460029091015483565b6040805193845260208401929092529082015260600161021e565b610214610419366004613ba5565b611603565b61043161042c366004613c53565b611624565b60405161021e9190600060a0820190508251825260208301516020830152604083015160408301526060830151606083015260808301511515608083015292915050565b61029f610483366004613b49565b611772565b61049b610496366004613d5c565b6117c9565b60405161021e929190614094565b6102146104b7366004613ee3565b611fc7565b61049b6104ca366004613d5c565b61201f565b610214670de0b6b3a764000081565b6105196104ec366004613b65565b60046020908152600093845260408085208252928452828420905282529020805460019091015460ff1682565b6040805192835290151560208301520161021e565b61029f61053c366004613bff565b61236a565b61055461054f366004613c67565b6124e7565b60405161021e9190600060e082019050825182526020830151602083015260408301516040830152606083015160608301526080830151608083015260a083015160a083015260c0830151151560c083015292915050565b61029f6105ba366004613f87565b6127ed565b61029f6105cd366004613b49565b612867565b61029f6105e0366004613b49565b6128bb565b6102146105f3366004613ee3565b612972565b610214610606366004613c67565b612a41565b6002818154811061061b57600080fd5b60009182526020909120600890910201805460018201546002830154600384015460048501546005860154600687015460079097015473ffffffffffffffffffffffffffffffffffffffff90961697509395929491939092909188565b73ffffffffffffffffffffffffffffffffffffffff808516600090815260046020908152604080832093871683529281528282208583528152908290208251808401909352805483526001015460ff161515908201819052610761576040517f08c379a000000000000000000000000000000000000000000000000000000000815260206004820152602160248201527f52657761726420706f6f6c20686173206e6f74206265656e206372656174656460448201527f2e0000000000000000000000000000000000000000000000000000000000000060648201526084015b60405180910390fd5b805161076d90836127ed565b5050505050565b73ffffffffffffffffffffffffffffffffffffffff8084166000908152600460209081526040808320938616835292815282822084835281528282208351808501909452805480855260019091015460ff1615159184019190915260028054929392909190811061080e577f4e487b7100000000000000000000000000000000000000000000000000000000600052603260045260246000fd5b600091825260209182902060089091020154604080517f18160ddd000000000000000000000000000000000000000000000000000000008152905173ffffffffffffffffffffffffffffffffffffffff909216926318160ddd92600480840193829003018186803b15801561088257600080fd5b505afa158015610896573d6000803e3d6000fd5b505050506040513d601f19601f820116820180604052508101906108ba9190613efb565b9150505b9392505050565b60008060028381548110610902577f4e487b7100000000000000000000000000000000000000000000000000000000600052603260045260246000fd5b9060005260206000209060080201905060008160030154826004015461092891906141d8565b6003830154909150670de0b6b3a7640000610944600a82614162565b61094e908461419b565b6109589190614162565b610962919061414a565b61096d90600161414a565b949350505050565b73ffffffffffffffffffffffffffffffffffffffff808516600090815260046020908152604080832093871683529281528282208583528152908290208251808401909352805483526001015460ff161515908201819052610a59576040517f08c379a000000000000000000000000000000000000000000000000000000000815260206004820152602160248201527f52657761726420706f6f6c20686173206e6f74206265656e206372656174656460448201527f2e000000000000000000000000000000000000000000000000000000000000006064820152608401610758565b805161076d9083610a9c565b600082815260016020908152604080832073ffffffffffffffffffffffffffffffffffffffff851684529091529020545b92915050565b610aa833838333612ae5565b610b15338260028581548110610ae7577f4e487b7100000000000000000000000000000000000000000000000000000000600052603260045260246000fd5b600091825260209091206008909102015473ffffffffffffffffffffffffffffffffffffffff169190612dc9565b5050565b600060028281548110610b55577f4e487b7100000000000000000000000000000000000000000000000000000000600052603260045260246000fd5b9060005260206000209060080201905080600601544211610b74575050565b80546040517f70a0823100000000000000000000000000000000000000000000000000000000815230600482015260009173ffffffffffffffffffffffffffffffffffffffff16906370a082319060240160206040518083038186803b158015610bdd57600080fd5b505afa158015610bf1573d6000803e3d6000fd5b505050506040513d601f19601f82011682018060405250810190610c159190613efb565b905080610c2757504260069091015550565b6000610c3284612972565b9050610c63610c5883610c52866007015485612ea290919063ffffffff16565b90612eae565b600185015490612eba565b600184015550504260069091015550565b600060028281548110610cb0577f4e487b7100000000000000000000000000000000000000000000000000000000600052603260045260246000fd5b60009182526020808320858452600182526040808520338087529352909320805460089093029093018054909450610d029273ffffffffffffffffffffffffffffffffffffffff919091169190612dc9565b8054604051908152839033907fbb757047c2b5f3974fe26b7c10f732e7bce710b0952a71082702781e62ae05959060200160405180910390a36000808255600182018190556002909101555050565b610d64600a670de0b6b3a7640000614162565b81565b60025460005b81811015610b1557610d7e81610b19565b610d878161421b565b9050610d6d565b610d96612ec6565b610da06000612f47565b565b60008473ffffffffffffffffffffffffffffffffffffffff1663d8dfeb456040518163ffffffff1660e01b815260040160206040518083038186803b158015610dea57600080fd5b505afa158015610dfe573d6000803e3d6000fd5b505050506040513d601f19601f82011682018060405250810190610e229190613dc2565b6040517f23b872dd0000000000000000000000000000000000000000000000000000000081523360048201523060248201526044810185905273ffffffffffffffffffffffffffffffffffffffff91909116906323b872dd90606401602060405180830381600087803b158015610e9857600080fd5b505af1158015610eac573d6000803e3d6000fd5b505050506040513d601f19601f82011682018060405250810190610ed09190613c39565b508473ffffffffffffffffffffffffffffffffffffffff1663d8dfeb456040518163ffffffff1660e01b815260040160206040518083038186803b158015610f1757600080fd5b505afa158015610f2b573d6000803e3d6000fd5b505050506040513d601f19601f82011682018060405250810190610f4f9190613dc2565b6040517f095ea7b300000000000000000000000000000000000000000000000000000000815273ffffffffffffffffffffffffffffffffffffffff888116600483015260248201869052919091169063095ea7b390604401602060405180830381600087803b158015610fc157600080fd5b505af1158015610fd5573d6000803e3d6000fd5b505050506040513d601f19601f82011682018060405250810190610ff99190613c39565b506040517f842980f400000000000000000000000000000000000000000000000000000000815273ffffffffffffffffffffffffffffffffffffffff868116600483015260248201869052604482018590523060648301526000919088169063842980f490608401602060405180830381600087803b15801561107b57600080fd5b505af115801561108f573d6000803e3d6000fd5b505050506040513d601f19601f820116820180604052508101906110b39190613efb565b6040517f5b5b9ea200000000000000000000000000000000000000000000000000000000815273ffffffffffffffffffffffffffffffffffffffff888116600483015260248201889052919250600091891690635b5b9ea29060440160206040518083038186803b15801561112757600080fd5b505afa15801561113b573d6000803e3d6000fd5b505050506040513d601f19601f8201168201806040525081019061115f9190613dc2565b905060006111fa898989858c73ffffffffffffffffffffffffffffffffffffffff166342e0ed168d6040518263ffffffff1660e01b81526004016111a591815260200190565b60206040518083038186803b1580156111bd57600080fd5b505afa1580156111d1573d6000803e3d6000fd5b505050506040513d601f19601f820116820180604052508101906111f59190613efb565b612fbc565b905061120785828561339e565b6040517feb44fdd30000000000000000000000000000000000000000000000000000000081526004810188905260009073ffffffffffffffffffffffffffffffffffffffff8a169063eb44fdd39060240160006040518083038186803b15801561127057600080fd5b505afa158015611284573d6000803e3d6000fd5b505050506040513d6000823e601f3d9081017fffffffffffffffffffffffffffffffffffffffffffffffffffffffffffffffe01682016040526112ca9190810190613dde565b9050600081602001515167ffffffffffffffff811115611313577f4e487b7100000000000000000000000000000000000000000000000000000000600052604160045260246000fd5b60405190808252806020026020018201604052801561133c578160200160208202803683370190505b50905060005b8260200151518110156113a757600082828151811061138a577f4e487b7100000000000000000000000000000000000000000000000000000000600052603260045260246000fd5b60209081029190910101528061139f8161421b565b915050611342565b506040805133815273ffffffffffffffffffffffffffffffffffffffff89811660208301528b92818e1692918f16917ffb27591822deac7913ea973cf845992f243e2ba5634ef8fbe0b6554aca37a428910160405180910390a4888a73ffffffffffffffffffffffffffffffffffffffff168c73ffffffffffffffffffffffffffffffffffffffff167f3f11bf8bba7d372ab2f25e364c99d8205f7d41bd6891af0a1e7adc6f9b2b20ca338b8d61145d90614254565b8b88604051611470959493929190613ffe565b60405180910390a450929998505050505050505050565b73ffffffffffffffffffffffffffffffffffffffff8084166000908152600460209081526040808320938616835292815282822084835281528282208351808501909452805480855260019091015460ff16151591840191909152600280549293929091908110611521577f4e487b7100000000000000000000000000000000000000000000000000000000600052603260045260246000fd5b600091825260209091206008909102015473ffffffffffffffffffffffffffffffffffffffff1695945050505050565b611559612ec6565b6005546040517fa9059cbb0000000000000000000000000000000000000000000000000000000081523360048201526024810183905273ffffffffffffffffffffffffffffffffffffffff9091169063a9059cbb90604401602060405180830381600087803b1580156115cb57600080fd5b505af11580156115df573d6000803e3d6000fd5b505050506040513d601f19601f82011682018060405250810190610b159190613c39565b600061160d612ec6565b61161a8686868686612fbc565b9695505050505050565b6116586040518060a00160405280600081526020016000815260200160008152602001600081526020016000151581525090565b73ffffffffffffffffffffffffffffffffffffffff808516600090815260046020908152604080832093871683529281528282208583528152908290208251808401909352805483526001015460ff161580159183019190915261176a57600060028260000151815481106116f6577f4e487b7100000000000000000000000000000000000000000000000000000000600052603260045260246000fd5b600091825260209182902060036008909202019081015485526004810154918501919091528251909150611729906108c5565b60408401526007810154600382015460048301546117489042906135a7565b61175291906141d8565b61175c919061419b565b606084015250600160808301525b509392505050565b61177a612ec6565b73ffffffffffffffffffffffffffffffffffffffff16600090815260066020526040902080547fffffffffffffffffffffffffffffffffffffffffffffffffffffffffffffff00166001179055565b73ffffffffffffffffffffffffffffffffffffffff8087166000908152600460209081526040808320938916835292815282822087835281528282208351808501909452805480855260019091015460ff1615159184018290529192606092909161199d576040517f5b5b9ea200000000000000000000000000000000000000000000000000000000815273ffffffffffffffffffffffffffffffffffffffff8a81166004830152602482018a9052600091908c1690635b5b9ea29060440160206040518083038186803b1580156118a057600080fd5b505afa1580156118b4573d6000803e3d6000fd5b505050506040513d601f19601f820116820180604052508101906118d89190613dc2565b905073ffffffffffffffffffffffffffffffffffffffff8116611957576040517f08c379a000000000000000000000000000000000000000000000000000000000815260206004820152601160248201527f506f6f6c206e6f7420637265617465642e0000000000000000000000000000006044820152606401610758565b6119998b8b8b848e73ffffffffffffffffffffffffffffffffffffffff166342e0ed168f6040518263ffffffff1660e01b81526004016111a591815260200190565b9150505b8873ffffffffffffffffffffffffffffffffffffffff1663d8dfeb456040518163ffffffff1660e01b815260040160206040518083038186803b1580156119e357600080fd5b505afa1580156119f7573d6000803e3d6000fd5b505050506040513d601f19601f82011682018060405250810190611a1b9190613dc2565b6040517f23b872dd0000000000000000000000000000000000000000000000000000000081523360048201523060248201526044810189905273ffffffffffffffffffffffffffffffffffffffff91909116906323b872dd90606401602060405180830381600087803b158015611a9157600080fd5b505af1158015611aa5573d6000803e3d6000fd5b505050506040513d601f19601f82011682018060405250810190611ac99190613c39565b508873ffffffffffffffffffffffffffffffffffffffff1663d8dfeb456040518163ffffffff1660e01b815260040160206040518083038186803b158015611b1057600080fd5b505afa158015611b24573d6000803e3d6000fd5b505050506040513d601f19601f82011682018060405250810190611b489190613dc2565b6040517f095ea7b300000000000000000000000000000000000000000000000000000000815273ffffffffffffffffffffffffffffffffffffffff8c81166004830152602482018a9052919091169063095ea7b390604401602060405180830381600087803b158015611bba57600080fd5b505af1158015611bce573d6000803e3d6000fd5b505050506040513d601f19601f82011682018060405250810190611bf29190613c39565b506040517f45fa678300000000000000000000000000000000000000000000000000000000815273ffffffffffffffffffffffffffffffffffffffff8a81166004830152602482018a905260448201899052606482018890523060848301528b16906345fa67839060a401600060405180830381600087803b158015611c7757600080fd5b505af1158015611c8b573d6000803e3d6000fd5b505050506040513d6000823e601f3d9081017fffffffffffffffffffffffffffffffffffffffffffffffffffffffffffffffe0168201604052611cd19190810190613f42565b6040517feb44fdd3000000000000000000000000000000000000000000000000000000008152600481018b9052919550935060009073ffffffffffffffffffffffffffffffffffffffff8b169063eb44fdd39060240160006040518083038186803b158015611d3f57600080fd5b505afa158015611d53573d6000803e3d6000fd5b505050506040513d6000823e601f3d9081017fffffffffffffffffffffffffffffffffffffffffffffffffffffffffffffffe0168201604052611d999190810190613dde565b905060005b8451811015611f36576000858281518110611de2577f4e487b7100000000000000000000000000000000000000000000000000000000600052603260045260246000fd5b60200260200101511115611f245781602001518181518110611e2d577f4e487b7100000000000000000000000000000000000000000000000000000000600052603260045260246000fd5b602002602001015173ffffffffffffffffffffffffffffffffffffffff1663a9059cbb88878481518110611e8a577f4e487b7100000000000000000000000000000000000000000000000000000000600052603260045260246000fd5b60200260200101516040518363ffffffff1660e01b8152600401611ed092919073ffffffffffffffffffffffffffffffffffffffff929092168252602082015260400190565b602060405180830381600087803b158015611eea57600080fd5b505af1158015611efe573d6000803e3d6000fd5b505050506040513d601f19601f82011682018060405250810190611f229190613c39565b505b80611f2e8161421b565b915050611d9e565b50611f4286838761339e565b888a73ffffffffffffffffffffffffffffffffffffffff168c73ffffffffffffffffffffffffffffffffffffffff167f3f11bf8bba7d372ab2f25e364c99d8205f7d41bd6891af0a1e7adc6f9b2b20ca338a8d611f9e90614254565b8b8b604051611fb1959493929190613ffe565b60405180910390a4505050965096945050505050565b60008060028381548110612004577f4e487b7100000000000000000000000000000000000000000000000000000000600052603260045260246000fd5b60009182526020909120600460089092020101549392505050565b73ffffffffffffffffffffffffffffffffffffffff8087166000908152600460209081526040808320938916835292815282822087835281528282208351808501909452805484526001015460ff1615159083018190529091606091612107576040517f08c379a000000000000000000000000000000000000000000000000000000000815260206004820152602160248201527f52657761726420706f6f6c20686173206e6f74206265656e206372656174656460448201527f2e000000000000000000000000000000000000000000000000000000000000006064820152608401610758565b6121173382600001518887612ae5565b60006002826000015181548110612157577f4e487b7100000000000000000000000000000000000000000000000000000000600052603260045260246000fd5b6000918252602090912060089091020180546040517f095ea7b300000000000000000000000000000000000000000000000000000000815273ffffffffffffffffffffffffffffffffffffffff8d81166004830152602482018b905292935091169063095ea7b390604401602060405180830381600087803b1580156121dc57600080fd5b505af11580156121f0573d6000803e3d6000fd5b505050506040513d601f19601f820116820180604052508101906122149190613c39565b506040517f59f842b200000000000000000000000000000000000000000000000000000000815273ffffffffffffffffffffffffffffffffffffffff8a81166004830152602482018a9052604482018990526064820188905286811660848301528b16906359f842b29060a401600060405180830381600087803b15801561229b57600080fd5b505af11580156122af573d6000803e3d6000fd5b505050506040513d6000823e601f3d9081017fffffffffffffffffffffffffffffffffffffffffffffffffffffffffffffffe01682016040526122f59190810190613f42565b90945092508773ffffffffffffffffffffffffffffffffffffffff808b16908c167f3f11bf8bba7d372ab2f25e364c99d8205f7d41bd6891af0a1e7adc6f9b2b20ca3389896123438e614254565b8a604051612355959493929190613ffe565b60405180910390a45050965096945050505050565b612372612ec6565b6000600360008673ffffffffffffffffffffffffffffffffffffffff1673ffffffffffffffffffffffffffffffffffffffff16815260200190815260200160002060405180606001604052908160008201548152602001600182015481526020016002820154815250509050604051806060016040528083815260200184815260200185815250600360008773ffffffffffffffffffffffffffffffffffffffff1673ffffffffffffffffffffffffffffffffffffffff1681526020019081526020016000206000820151816000015560208201518160010155604082015181600201559050508473ffffffffffffffffffffffffffffffffffffffff167fe306af96e1d2ee556327ede5cfbae9786f190dd64b7948e676453e607cc73f4982600001518360200151846040015186888a6040516124d896959493929190958652602086019490945260408501929092526060840152608083015260a082015260c00190565b60405180910390a25050505050565b6125296040518060e001604052806000815260200160008152602001600081526020016000815260200160008152602001600081526020016000151581525090565b73ffffffffffffffffffffffffffffffffffffffff808616600090815260046020908152604080832093881683529281528282208683528152908290208251808401909352805483526001015460ff16158015918301919091526127e457600060028260000151815481106125c7577f4e487b7100000000000000000000000000000000000000000000000000000000600052603260045260246000fd5b60009182526020808320855184526001808352604080862073ffffffffffffffffffffffffffffffffffffffff8b81168852945280862060089590950290920190810154815492517f70a0823100000000000000000000000000000000000000000000000000000000815230600482015291965093949291909116906370a082319060240160206040518083038186803b15801561266457600080fd5b505afa158015612678573d6000803e3d6000fd5b505050506040513d601f19601f8201168201806040525081019061269c9190613efb565b90506000846003015485600401546126b491906141d8565b600160c0890152600386015488526004860154602089015286519091506126da906108c5565b6040880181905260028501541161275757600085600201541180156127025750866020015142115b1561272c576002850154845460058701546127229291610c529190612ea2565b6080880152612757565b600285015415612757576002850154845460058701546127519291610c529190612ea2565b60a08801525b84600601544211801561276957508115155b156127a857600061277d8760000151612972565b90506127a461279d84610c52896007015485612ea290919063ffffffff16565b8590612eba565b9350505b6127d984600101546127d3670de0b6b3a7640000610c52878960000154612ea290919063ffffffff16565b906135be565b606088015250505050505b50949350505050565b6127f833838361339e565b610b1533308360028681548110612838577f4e487b7100000000000000000000000000000000000000000000000000000000600052603260045260246000fd5b600091825260209091206008909102015473ffffffffffffffffffffffffffffffffffffffff169291906135ca565b61286f612ec6565b73ffffffffffffffffffffffffffffffffffffffff16600090815260066020526040902080547fffffffffffffffffffffffffffffffffffffffffffffffffffffffffffffff00169055565b6128c3612ec6565b73ffffffffffffffffffffffffffffffffffffffff8116612966576040517f08c379a000000000000000000000000000000000000000000000000000000000815260206004820152602660248201527f4f776e61626c653a206e6577206f776e657220697320746865207a65726f206160448201527f64647265737300000000000000000000000000000000000000000000000000006064820152608401610758565b61296f81612f47565b50565b600080600283815481106129af577f4e487b7100000000000000000000000000000000000000000000000000000000600052603260045260246000fd5b90600052602060002090600802019050600042905080826003015411806129d95750808260060154115b806129e657506007820154155b156129f5575060009392505050565b8160040154826006015410612a0e575060009392505050565b61096d670de0b6b3a7640000612a3b6001612a3586600601546127d38789600401546135a7565b90612eba565b90612ea2565b73ffffffffffffffffffffffffffffffffffffffff8085166000908152600460209081526040808320938716835292815282822085835281528282208351808501909452805484526001015460ff1615801591840191909152909190612ad95751600090815260016020908152604080832073ffffffffffffffffffffffffffffffffffffffff86168452909152902054905061096d565b50600095945050505050565b600060028481548110612b21577f4e487b7100000000000000000000000000000000000000000000000000000000600052603260045260246000fd5b6000918252602080832087845260018252604080852073ffffffffffffffffffffffffffffffffffffffff8b1686529092529220805460089092029092019250841115612bca576040517f08c379a000000000000000000000000000000000000000000000000000000000815260206004820152601260248201527f77697468647261773a206e6f7420676f6f6400000000000000000000000000006044820152606401610758565b612bd385610b19565b600082600301548360040154612be991906141d8565b905060008360030154670de0b6b3a7640000600a670de0b6b3a7640000612c109190614162565b612c1a908561419b565b612c249190614162565b612c2e919061414a565b612c3990600161414a565b90506000846003015483612c4d919061414a565b612c5890600161414a565b9050428111612cb65760008560020154118015612c79575081846002015411155b15612cb1576000612ca38660020154610c5287600001548960050154612ea290919063ffffffff16565b9050612caf8a8261362e565b505b612cf7565b428210612cd6576002850154612ccc90886135be565b6002860155612cf7565b83600201548210612cf75783546002860154612cf1916135be565b60028601555b6000612d2885600101546127d3670de0b6b3a7640000610c528a600101548a60000154612ea290919063ffffffff16565b9050612d34878261362e565b8454612d4090896135be565b8086556001870154612d6091670de0b6b3a764000091610c529190612ea2565b60018601554260028601556040805189815273ffffffffffffffffffffffffffffffffffffffff891660208201528a9133917f8166bf25f8a2b7ed3c85049207da4358d16edbed977d23fa2ee6f0dde3ec2132910160405180910390a350505050505050505050565b60405173ffffffffffffffffffffffffffffffffffffffff8316602482015260448101829052612e9d9084907fa9059cbb00000000000000000000000000000000000000000000000000000000906064015b604080517fffffffffffffffffffffffffffffffffffffffffffffffffffffffffffffffe08184030181529190526020810180517bffffffffffffffffffffffffffffffffffffffffffffffffffffffff167fffffffff00000000000000000000000000000000000000000000000000000000909316929092179091526137e6565b505050565b60006108be828461419b565b60006108be8284614162565b60006108be828461414a565b60005473ffffffffffffffffffffffffffffffffffffffff163314610da0576040517f08c379a000000000000000000000000000000000000000000000000000000000815260206004820181905260248201527f4f776e61626c653a2063616c6c6572206973206e6f7420746865206f776e65726044820152606401610758565b6000805473ffffffffffffffffffffffffffffffffffffffff8381167fffffffffffffffffffffffff0000000000000000000000000000000000000000831681178455604051919092169283917f8be0079c531659141344cd1fd0a4f28419497f9722a3daafe3b4186f6b6457e09190a35050565b73ffffffffffffffffffffffffffffffffffffffff8086166000908152600460209081526040808320938816835292815282822086835290529081206001015460ff161561308c576040517f08c379a000000000000000000000000000000000000000000000000000000000815260206004820152602560248201527f52657761726420706f6f6c2068617320616c7265616479206265656e2063726560448201527f617465642e0000000000000000000000000000000000000000000000000000006064820152608401610758565b73ffffffffffffffffffffffffffffffffffffffff861660009081526006602052604090205460ff16613141576040517f08c379a000000000000000000000000000000000000000000000000000000000815260206004820152602a60248201527f414d4d466163746f7279206d75737420626520617070726f76656420746f206360448201527f726561746520706f6f6c000000000000000000000000000000000000000000006064820152608401610758565b50600280546040805180820182528281526001602080830182815273ffffffffffffffffffffffffffffffffffffffff8c8116600090815260048452868120918d168082529184528681208c8252845286812095518655915194840180547fffffffffffffffffffffffffffffffffffffffffffffffffffffffffffffff001695151595909517909455928352600381528383208451606081018652815481529281015491830182905290950154928101929092529192909190613208906201518061419b565b90504284156132205761321d610e10866141d8565b94505b846132365761322f828261414a565b9450613262565b4261324183876141d8565b11156132585761325182866141d8565b9050613262565b8442106132625750835b60026040518061010001604052808873ffffffffffffffffffffffffffffffffffffffff168152602001600081526020016000815260200183815260200187815260200183886132b291906141d8565b86516132c2906201518090614162565b6132cc919061419b565b81526020018381526020016201518086604001516132ea9190614162565b90528154600180820184556000938452602093849020835160089093020180547fffffffffffffffffffffffff00000000000000000000000000000000000000001673ffffffffffffffffffffffffffffffffffffffff909316929092178255928201519281019290925560408101516002830155606081015160038301556080810151600483015560a0810151600583015560c0810151600683015560e001516007909101555091979650505050505050565b6000600283815481106133da577f4e487b7100000000000000000000000000000000000000000000000000000000600052603260045260246000fd5b6000918252602080832086845260018252604080852073ffffffffffffffffffffffffffffffffffffffff8a16865290925292206008909102909101915061342184610b19565b80541561346757600061345982600101546127d3670de0b6b3a7640000610c5287600101548760000154612ea290919063ffffffff16565b9050613465868261362e565b505b60008260030154836004015461347d91906141d8565b905060008360030154670de0b6b3a7640000600a670de0b6b3a76400006134a49190614162565b6134ae908561419b565b6134b89190614162565b6134c2919061414a565b6134cd90600161414a565b905080421180156134e2575080836002015411155b156134fd57825460028501546134f7916135be565b60028501555b4281111561351a5760028401546135149086612eba565b60028501555b82546135269086612eba565b808455600185015461354691670de0b6b3a764000091610c529190612ea2565b6001840155426002840155604051858152869073ffffffffffffffffffffffffffffffffffffffff8916907f90890809c654f11d6e72a28fa60149770a0d11ec6c92319d6ceb2bb0a4ea1a159060200160405180910390a350505050505050565b60008183116135b7575081610a96565b5080610a96565b60006108be82846141d8565b60405173ffffffffffffffffffffffffffffffffffffffff808516602483015283166044820152606481018290526136289085907f23b872dd0000000000000000000000000000000000000000000000000000000090608401612e1b565b50505050565b6005546040517f70a0823100000000000000000000000000000000000000000000000000000000815230600482015260009173ffffffffffffffffffffffffffffffffffffffff16906370a082319060240160206040518083038186803b15801561369857600080fd5b505afa1580156136ac573d6000803e3d6000fd5b505050506040513d601f19601f820116820180604052508101906136d09190613efb565b905080821115613787576005546040517fa9059cbb00000000000000000000000000000000000000000000000000000000815273ffffffffffffffffffffffffffffffffffffffff8581166004830152602482018490529091169063a9059cbb906044015b602060405180830381600087803b15801561374f57600080fd5b505af1158015613763573d6000803e3d6000fd5b505050506040513d601f19601f820116820180604052508101906136289190613c39565b6005546040517fa9059cbb00000000000000000000000000000000000000000000000000000000815273ffffffffffffffffffffffffffffffffffffffff8581166004830152602482018590529091169063a9059cbb90604401613735565b6000613848826040518060400160405280602081526020017f5361666545524332303a206c6f772d6c6576656c2063616c6c206661696c65648152508573ffffffffffffffffffffffffffffffffffffffff166138f29092919063ffffffff16565b805190915015612e9d57808060200190518101906138669190613c39565b612e9d576040517f08c379a000000000000000000000000000000000000000000000000000000000815260206004820152602a60248201527f5361666545524332303a204552433230206f7065726174696f6e20646964206e60448201527f6f742073756363656564000000000000000000000000000000000000000000006064820152608401610758565b606061096d84846000858573ffffffffffffffffffffffffffffffffffffffff85163b61397b576040517f08c379a000000000000000000000000000000000000000000000000000000000815260206004820152601d60248201527f416464726573733a2063616c6c20746f206e6f6e2d636f6e74726163740000006044820152606401610758565b6000808673ffffffffffffffffffffffffffffffffffffffff1685876040516139a49190613fe2565b60006040518083038185875af1925050503d80600081146139e1576040519150601f19603f3d011682016040523d82523d6000602084013e6139e6565b606091505b50915091506139f6828286613a01565b979650505050505050565b60608315613a105750816108be565b825115613a205782518084602001fd5b816040517f08c379a00000000000000000000000000000000000000000000000000000000081526004016107589190614043565b8051613a5f816142e8565b919050565b600082601f830112613a74578081fd5b81516020613a89613a8483614126565b6140d7565b80838252828201915082860187848660051b8901011115613aa8578586fd5b855b85811015613acf578151613abd816142e8565b84529284019290840190600101613aaa565b5090979650505050505050565b600082601f830112613aec578081fd5b81516020613afc613a8483614126565b80838252828201915082860187848660051b8901011115613b1b578586fd5b855b85811015613acf57815184529284019290840190600101613b1d565b80518015158114613a5f57600080fd5b600060208284031215613b5a578081fd5b81356108be816142e8565b600080600060608486031215613b79578182fd5b8335613b84816142e8565b92506020840135613b94816142e8565b929592945050506040919091013590565b600080600080600060a08688031215613bbc578081fd5b8535613bc7816142e8565b94506020860135613bd7816142e8565b9350604086013592506060860135613bee816142e8565b949793965091946080013592915050565b60008060008060808587031215613c14578384fd5b8435613c1f816142e8565b966020860135965060408601359560600135945092505050565b600060208284031215613c4a578081fd5b6108be82613b39565b600080600060608486031215613b79578283fd5b60008060008060808587031215613c7c578182fd5b8435613c87816142e8565b93506020850135613c97816142e8565b9250604085013591506060850135613cae816142e8565b939692955090935050565b60008060008060808587031215613cce578182fd5b8435613cd9816142e8565b93506020850135613ce9816142e8565b93969395505050506040820135916060013590565b600080600080600060a08688031215613d15578283fd5b8535613d20816142e8565b94506020860135613d30816142e8565b935060408601359250606086013591506080860135613d4e816142e8565b809150509295509295909350565b60008060008060008060c08789031215613d74578384fd5b8635613d7f816142e8565b95506020870135613d8f816142e8565b945060408701359350606087013592506080870135915060a0870135613db4816142e8565b809150509295509295509295565b600060208284031215613dd3578081fd5b81516108be816142e8565b600060208284031215613def578081fd5b815167ffffffffffffffff80821115613e06578283fd5b908301906101608286031215613e1a578283fd5b613e226140ad565b613e2b83613a54565b8152602083015182811115613e3e578485fd5b613e4a87828601613a64565b602083015250613e5c60408401613a54565b6040820152606083015160608201526080830151608082015260a083015160a082015260c083015160c082015260e083015160e08201526101008084015181830152506101208084015183811115613eb2578586fd5b613ebe88828701613adc565b8284015250506101409150613ed4828401613b39565b91810191909152949350505050565b600060208284031215613ef4578081fd5b5035919050565b600060208284031215613f0c578081fd5b5051919050565b60008060408385031215613f25578182fd5b823591506020830135613f37816142e8565b809150509250929050565b60008060408385031215613f54578182fd5b82519150602083015167ffffffffffffffff811115613f71578182fd5b613f7d85828601613adc565b9150509250929050565b60008060408385031215613f99578182fd5b50508035926020909101359150565b6000815180845260208085019450808401835b83811015613fd757815187529582019590820190600101613fbb565b509495945050505050565b60008251613ff48184602087016141ef565b9190910192915050565b600073ffffffffffffffffffffffffffffffffffffffff808816835280871660208401525084604083015283606083015260a060808301526139f660a0830184613fa8565b60208152600082518060208401526140628160408501602087016141ef565b601f017fffffffffffffffffffffffffffffffffffffffffffffffffffffffffffffffe0169190910160400192915050565b82815260406020820152600061096d6040830184613fa8565b604051610160810167ffffffffffffffff811182821017156140d1576140d16142b9565b60405290565b604051601f82017fffffffffffffffffffffffffffffffffffffffffffffffffffffffffffffffe016810167ffffffffffffffff8111828210171561411e5761411e6142b9565b604052919050565b600067ffffffffffffffff821115614140576141406142b9565b5060051b60200190565b6000821982111561415d5761415d61428a565b500190565b600082614196577f4e487b710000000000000000000000000000000000000000000000000000000081526012600452602481fd5b500490565b6000817fffffffffffffffffffffffffffffffffffffffffffffffffffffffffffffffff04831182151516156141d3576141d361428a565b500290565b6000828210156141ea576141ea61428a565b500390565b60005b8381101561420a5781810151838201526020016141f2565b838111156136285750506000910152565b60007fffffffffffffffffffffffffffffffffffffffffffffffffffffffffffffffff82141561424d5761424d61428a565b5060010190565b60007f80000000000000000000000000000000000000000000000000000000000000008214156142865761428661428a565b0390565b7f4e487b7100000000000000000000000000000000000000000000000000000000600052601160045260246000fd5b7f4e487b7100000000000000000000000000000000000000000000000000000000600052604160045260246000fd5b73ffffffffffffffffffffffffffffffffffffffff8116811461296f57600080fdfea26469706673582212205fbcaa6c3688aa00cf8fb7d4f46943852ee8ceb46b053fe6d1c8735f77f9b6ec64736f6c63430008040033",
  "devdoc": {
    "kind": "dev",
    "methods": {
      "owner()": {
        "details": "Returns the address of the current owner."
      },
      "renounceOwnership()": {
        "details": "Leaves the contract without owner. It will not be possible to call `onlyOwner` functions anymore. Can only be called by the current owner. NOTE: Renouncing ownership will leave the contract without an owner, thereby removing any functionality that is only available to the owner."
      },
      "transferOwnership(address)": {
        "details": "Transfers ownership of the contract to a new account (`newOwner`). Can only be called by the current owner."
      }
    },
    "version": 1
  },
  "userdoc": {
    "kind": "user",
    "methods": {},
    "version": 1
  },
  "storageLayout": {
    "storage": [
      {
        "astId": 7,
        "contract": "contracts/rewards/MasterChef.sol:MasterChef",
        "label": "_owner",
        "offset": 0,
        "slot": "0",
        "type": "t_address"
      },
      {
        "astId": 11419,
        "contract": "contracts/rewards/MasterChef.sol:MasterChef",
        "label": "userInfo",
        "offset": 0,
        "slot": "1",
        "type": "t_mapping(t_uint256,t_mapping(t_address,t_struct(UserInfo)11412_storage))"
      },
      {
        "astId": 11441,
        "contract": "contracts/rewards/MasterChef.sol:MasterChef",
        "label": "poolInfo",
        "offset": 0,
        "slot": "2",
        "type": "t_array(t_struct(PoolInfo)11437_storage)dyn_storage"
      },
      {
        "astId": 11479,
        "contract": "contracts/rewards/MasterChef.sol:MasterChef",
        "label": "marketFactoryRewardInfo",
        "offset": 0,
        "slot": "3",
        "type": "t_mapping(t_address,t_struct(MarketFactoryInfo)11474_storage)"
      },
      {
        "astId": 11493,
        "contract": "contracts/rewards/MasterChef.sol:MasterChef",
        "label": "rewardPoolLookup",
        "offset": 0,
        "slot": "4",
        "type": "t_mapping(t_address,t_mapping(t_address,t_mapping(t_uint256,t_struct(RewardPoolLookupInfo)11484_storage)))"
      },
      {
        "astId": 11496,
        "contract": "contracts/rewards/MasterChef.sol:MasterChef",
        "label": "rewardsToken",
        "offset": 0,
        "slot": "5",
        "type": "t_contract(IERC20)776"
      },
      {
        "astId": 11500,
        "contract": "contracts/rewards/MasterChef.sol:MasterChef",
        "label": "approvedAMMFactories",
        "offset": 0,
        "slot": "6",
        "type": "t_mapping(t_address,t_bool)"
      }
    ],
    "types": {
      "t_address": {
        "encoding": "inplace",
        "label": "address",
        "numberOfBytes": "20"
      },
      "t_array(t_struct(PoolInfo)11437_storage)dyn_storage": {
        "base": "t_struct(PoolInfo)11437_storage",
        "encoding": "dynamic_array",
        "label": "struct MasterChef.PoolInfo[]",
        "numberOfBytes": "32"
      },
      "t_bool": {
        "encoding": "inplace",
        "label": "bool",
        "numberOfBytes": "1"
      },
      "t_contract(IERC20)776": {
        "encoding": "inplace",
        "label": "contract IERC20",
        "numberOfBytes": "20"
      },
      "t_mapping(t_address,t_bool)": {
        "encoding": "mapping",
        "key": "t_address",
        "label": "mapping(address => bool)",
        "numberOfBytes": "32",
        "value": "t_bool"
      },
      "t_mapping(t_address,t_mapping(t_address,t_mapping(t_uint256,t_struct(RewardPoolLookupInfo)11484_storage)))": {
        "encoding": "mapping",
        "key": "t_address",
        "label": "mapping(address => mapping(address => mapping(uint256 => struct MasterChef.RewardPoolLookupInfo)))",
        "numberOfBytes": "32",
        "value": "t_mapping(t_address,t_mapping(t_uint256,t_struct(RewardPoolLookupInfo)11484_storage))"
      },
      "t_mapping(t_address,t_mapping(t_uint256,t_struct(RewardPoolLookupInfo)11484_storage))": {
        "encoding": "mapping",
        "key": "t_address",
        "label": "mapping(address => mapping(uint256 => struct MasterChef.RewardPoolLookupInfo))",
        "numberOfBytes": "32",
        "value": "t_mapping(t_uint256,t_struct(RewardPoolLookupInfo)11484_storage)"
      },
      "t_mapping(t_address,t_struct(MarketFactoryInfo)11474_storage)": {
        "encoding": "mapping",
        "key": "t_address",
        "label": "mapping(address => struct MasterChef.MarketFactoryInfo)",
        "numberOfBytes": "32",
        "value": "t_struct(MarketFactoryInfo)11474_storage"
      },
      "t_mapping(t_address,t_struct(UserInfo)11412_storage)": {
        "encoding": "mapping",
        "key": "t_address",
        "label": "mapping(address => struct MasterChef.UserInfo)",
        "numberOfBytes": "32",
        "value": "t_struct(UserInfo)11412_storage"
      },
      "t_mapping(t_uint256,t_mapping(t_address,t_struct(UserInfo)11412_storage))": {
        "encoding": "mapping",
        "key": "t_uint256",
        "label": "mapping(uint256 => mapping(address => struct MasterChef.UserInfo))",
        "numberOfBytes": "32",
        "value": "t_mapping(t_address,t_struct(UserInfo)11412_storage)"
      },
      "t_mapping(t_uint256,t_struct(RewardPoolLookupInfo)11484_storage)": {
        "encoding": "mapping",
        "key": "t_uint256",
        "label": "mapping(uint256 => struct MasterChef.RewardPoolLookupInfo)",
        "numberOfBytes": "32",
        "value": "t_struct(RewardPoolLookupInfo)11484_storage"
      },
      "t_struct(MarketFactoryInfo)11474_storage": {
        "encoding": "inplace",
        "label": "struct MasterChef.MarketFactoryInfo",
        "members": [
          {
            "astId": 11469,
            "contract": "contracts/rewards/MasterChef.sol:MasterChef",
            "label": "earlyDepositBonusRewards",
            "offset": 0,
            "slot": "0",
            "type": "t_uint256"
          },
          {
            "astId": 11471,
            "contract": "contracts/rewards/MasterChef.sol:MasterChef",
            "label": "rewardsPeriods",
            "offset": 0,
            "slot": "1",
            "type": "t_uint256"
          },
          {
            "astId": 11473,
            "contract": "contracts/rewards/MasterChef.sol:MasterChef",
            "label": "rewardsPerPeriod",
            "offset": 0,
            "slot": "2",
            "type": "t_uint256"
          }
        ],
        "numberOfBytes": "96"
      },
      "t_struct(PoolInfo)11437_storage": {
        "encoding": "inplace",
        "label": "struct MasterChef.PoolInfo",
        "members": [
          {
            "astId": 11422,
            "contract": "contracts/rewards/MasterChef.sol:MasterChef",
            "label": "lpToken",
            "offset": 0,
            "slot": "0",
            "type": "t_contract(IERC20)776"
          },
          {
            "astId": 11424,
            "contract": "contracts/rewards/MasterChef.sol:MasterChef",
            "label": "accRewardsPerShare",
            "offset": 0,
            "slot": "1",
            "type": "t_uint256"
          },
          {
            "astId": 11426,
            "contract": "contracts/rewards/MasterChef.sol:MasterChef",
            "label": "totalEarlyDepositBonusRewardShares",
            "offset": 0,
            "slot": "2",
            "type": "t_uint256"
          },
          {
            "astId": 11428,
            "contract": "contracts/rewards/MasterChef.sol:MasterChef",
            "label": "beginTimestamp",
            "offset": 0,
            "slot": "3",
            "type": "t_uint256"
          },
          {
            "astId": 11430,
            "contract": "contracts/rewards/MasterChef.sol:MasterChef",
            "label": "endTimestamp",
            "offset": 0,
            "slot": "4",
            "type": "t_uint256"
          },
          {
            "astId": 11432,
            "contract": "contracts/rewards/MasterChef.sol:MasterChef",
            "label": "earlyDepositBonusRewards",
            "offset": 0,
            "slot": "5",
            "type": "t_uint256"
          },
          {
            "astId": 11434,
            "contract": "contracts/rewards/MasterChef.sol:MasterChef",
            "label": "lastRewardTimestamp",
            "offset": 0,
            "slot": "6",
            "type": "t_uint256"
          },
          {
            "astId": 11436,
            "contract": "contracts/rewards/MasterChef.sol:MasterChef",
            "label": "rewardsPerSecond",
            "offset": 0,
            "slot": "7",
            "type": "t_uint256"
          }
        ],
        "numberOfBytes": "256"
      },
      "t_struct(RewardPoolLookupInfo)11484_storage": {
        "encoding": "inplace",
        "label": "struct MasterChef.RewardPoolLookupInfo",
        "members": [
          {
            "astId": 11481,
            "contract": "contracts/rewards/MasterChef.sol:MasterChef",
            "label": "pid",
            "offset": 0,
            "slot": "0",
            "type": "t_uint256"
          },
          {
            "astId": 11483,
            "contract": "contracts/rewards/MasterChef.sol:MasterChef",
            "label": "created",
            "offset": 0,
            "slot": "1",
            "type": "t_bool"
          }
        ],
        "numberOfBytes": "64"
      },
      "t_struct(UserInfo)11412_storage": {
        "encoding": "inplace",
        "label": "struct MasterChef.UserInfo",
        "members": [
          {
            "astId": 11407,
            "contract": "contracts/rewards/MasterChef.sol:MasterChef",
            "label": "amount",
            "offset": 0,
            "slot": "0",
            "type": "t_uint256"
          },
          {
            "astId": 11409,
            "contract": "contracts/rewards/MasterChef.sol:MasterChef",
            "label": "rewardDebt",
            "offset": 0,
            "slot": "1",
            "type": "t_uint256"
          },
          {
            "astId": 11411,
            "contract": "contracts/rewards/MasterChef.sol:MasterChef",
            "label": "lastActionTimestamp",
            "offset": 0,
            "slot": "2",
            "type": "t_uint256"
          }
        ],
        "numberOfBytes": "96"
      },
      "t_uint256": {
        "encoding": "inplace",
        "label": "uint256",
        "numberOfBytes": "32"
      }
    }
  }
}