{
  "address": "0x9d5FBCf67985040d1479069958F8663350122dba",
  "abi": [
    {
      "inputs": [
        {
          "internalType": "contract IERC20",
          "name": "_rewardsToken",
          "type": "address"
        }
      ],
      "stateMutability": "nonpayable",
      "type": "constructor"
    },
    {
      "anonymous": false,
      "inputs": [
        {
          "indexed": true,
          "internalType": "address",
          "name": "user",
          "type": "address"
        },
        {
          "indexed": true,
          "internalType": "uint256",
          "name": "pid",
          "type": "uint256"
        },
        {
          "indexed": false,
          "internalType": "uint256",
          "name": "amount",
          "type": "uint256"
        }
      ],
      "name": "Deposit",
      "type": "event"
    },
    {
      "anonymous": false,
      "inputs": [
        {
          "indexed": true,
          "internalType": "address",
          "name": "user",
          "type": "address"
        },
        {
          "indexed": true,
          "internalType": "uint256",
          "name": "pid",
          "type": "uint256"
        },
        {
          "indexed": false,
          "internalType": "uint256",
          "name": "amount",
          "type": "uint256"
        }
      ],
      "name": "EmergencyWithdraw",
      "type": "event"
    },
    {
      "anonymous": false,
      "inputs": [
        {
          "indexed": true,
          "internalType": "address",
          "name": "ammFactory",
          "type": "address"
        },
        {
          "indexed": true,
          "internalType": "address",
          "name": "marketFactory",
          "type": "address"
        },
        {
          "indexed": true,
          "internalType": "uint256",
          "name": "marketId",
          "type": "uint256"
        },
        {
          "indexed": false,
          "internalType": "address",
          "name": "user",
          "type": "address"
        },
        {
          "indexed": false,
          "internalType": "address",
          "name": "recipient",
          "type": "address"
        },
        {
          "indexed": false,
          "internalType": "int256",
          "name": "collateral",
          "type": "int256"
        },
        {
          "indexed": false,
          "internalType": "int256",
          "name": "lpTokens",
          "type": "int256"
        },
        {
          "indexed": false,
          "internalType": "uint256[]",
          "name": "sharesReturned",
          "type": "uint256[]"
        }
      ],
      "name": "LiquidityChanged",
      "type": "event"
    },
    {
      "anonymous": false,
      "inputs": [
        {
          "indexed": true,
          "internalType": "address",
          "name": "previousOwner",
          "type": "address"
        },
        {
          "indexed": true,
          "internalType": "address",
          "name": "newOwner",
          "type": "address"
        }
      ],
      "name": "OwnershipTransferred",
      "type": "event"
    },
    {
      "anonymous": false,
      "inputs": [
        {
          "indexed": true,
          "internalType": "address",
          "name": "ammFactory",
          "type": "address"
        },
        {
          "indexed": true,
          "internalType": "address",
          "name": "marketFactory",
          "type": "address"
        },
        {
          "indexed": true,
          "internalType": "uint256",
          "name": "marketId",
          "type": "uint256"
        },
        {
          "indexed": false,
          "internalType": "address",
          "name": "creator",
          "type": "address"
        },
        {
          "indexed": false,
          "internalType": "address",
          "name": "lpTokenRecipient",
          "type": "address"
        }
      ],
      "name": "PoolCreated",
      "type": "event"
    },
    {
      "anonymous": false,
      "inputs": [
        {
          "indexed": true,
          "internalType": "address",
          "name": "MarketFactory",
          "type": "address"
        },
        {
          "indexed": false,
          "internalType": "uint256",
          "name": "OriginEarlyDepositBonusRewards",
          "type": "uint256"
        },
        {
          "indexed": false,
          "internalType": "uint256",
          "name": "OriginrewardsPeriods",
          "type": "uint256"
        },
        {
          "indexed": false,
          "internalType": "uint256",
          "name": "OriginRewardsPerPeriod",
          "type": "uint256"
        },
        {
          "indexed": false,
          "internalType": "uint256",
          "name": "EarlyDepositBonusRewards",
          "type": "uint256"
        },
        {
          "indexed": false,
          "internalType": "uint256",
          "name": "rewardsPeriods",
          "type": "uint256"
        },
        {
          "indexed": false,
          "internalType": "uint256",
          "name": "RewardsPerPeriod",
          "type": "uint256"
        }
      ],
      "name": "TrustMarketFactory",
      "type": "event"
    },
    {
      "anonymous": false,
      "inputs": [
        {
          "indexed": true,
          "internalType": "address",
          "name": "user",
          "type": "address"
        },
        {
          "indexed": true,
          "internalType": "uint256",
          "name": "pid",
          "type": "uint256"
        },
        {
          "indexed": false,
          "internalType": "uint256",
          "name": "amount",
          "type": "uint256"
        },
        {
          "indexed": false,
          "internalType": "address",
          "name": "recipient",
          "type": "address"
        }
      ],
      "name": "Withdraw",
      "type": "event"
    },
    {
      "inputs": [],
      "name": "BONE",
      "outputs": [
        {
          "internalType": "uint256",
          "name": "",
          "type": "uint256"
        }
      ],
      "stateMutability": "view",
      "type": "function"
    },
    {
      "inputs": [],
      "name": "EARLY_DEPOSIT_BONUS_REWARDS_PERCENTAGE",
      "outputs": [
        {
          "internalType": "uint256",
          "name": "",
          "type": "uint256"
        }
      ],
      "stateMutability": "view",
      "type": "function"
    },
    {
      "inputs": [
        {
          "internalType": "address",
          "name": "_ammFactory",
          "type": "address"
        },
        {
          "internalType": "address",
          "name": "_marketFactory",
          "type": "address"
        },
        {
          "internalType": "uint256",
          "name": "_marketId",
          "type": "uint256"
        },
        {
          "internalType": "contract IERC20",
          "name": "_lpToken",
          "type": "address"
        },
        {
          "internalType": "uint256",
          "name": "_endTimestamp",
          "type": "uint256"
        }
      ],
      "name": "add",
      "outputs": [
        {
          "internalType": "uint256",
          "name": "_nextPID",
          "type": "uint256"
        }
      ],
      "stateMutability": "nonpayable",
      "type": "function"
    },
    {
      "inputs": [
        {
          "internalType": "contract AMMFactory",
          "name": "_ammFactory",
          "type": "address"
        },
        {
          "internalType": "contract AbstractMarketFactoryV3",
          "name": "_marketFactory",
          "type": "address"
        },
        {
          "internalType": "uint256",
          "name": "_marketId",
          "type": "uint256"
        },
        {
          "internalType": "uint256",
          "name": "_collateralIn",
          "type": "uint256"
        },
        {
          "internalType": "uint256",
          "name": "_minLPTokensOut",
          "type": "uint256"
        },
        {
          "internalType": "address",
          "name": "_lpTokenRecipient",
          "type": "address"
        }
      ],
      "name": "addLiquidity",
      "outputs": [
        {
          "internalType": "uint256",
          "name": "_poolAmountOut",
          "type": "uint256"
        },
        {
          "internalType": "uint256[]",
          "name": "_balances",
          "type": "uint256[]"
        }
      ],
      "stateMutability": "nonpayable",
      "type": "function"
    },
    {
      "inputs": [
        {
          "internalType": "address",
          "name": "_marketFactory",
          "type": "address"
        },
        {
          "internalType": "uint256",
          "name": "_rewardsPerMarket",
          "type": "uint256"
        },
        {
          "internalType": "uint256",
          "name": "_rewardDaysPerMarket",
          "type": "uint256"
        },
        {
          "internalType": "uint256",
          "name": "_earlyDepositBonusRewards",
          "type": "uint256"
        }
      ],
      "name": "addRewards",
      "outputs": [],
      "stateMutability": "nonpayable",
      "type": "function"
    },
    {
      "inputs": [
        {
          "internalType": "contract AMMFactory",
          "name": "_ammFactory",
          "type": "address"
        },
        {
          "internalType": "contract AbstractMarketFactoryV3",
          "name": "_marketFactory",
          "type": "address"
        },
        {
          "internalType": "uint256",
          "name": "_marketId",
          "type": "uint256"
        },
        {
          "internalType": "uint256",
          "name": "_initialLiquidity",
          "type": "uint256"
        },
        {
          "internalType": "address",
          "name": "_lpTokenRecipient",
          "type": "address"
        }
      ],
      "name": "createPool",
      "outputs": [
        {
          "internalType": "uint256",
          "name": "",
          "type": "uint256"
        }
      ],
      "stateMutability": "nonpayable",
      "type": "function"
    },
    {
      "inputs": [
        {
          "internalType": "uint256",
          "name": "_pid",
          "type": "uint256"
        },
        {
          "internalType": "uint256",
          "name": "_amount",
          "type": "uint256"
        }
      ],
      "name": "deposit",
      "outputs": [],
      "stateMutability": "nonpayable",
      "type": "function"
    },
    {
      "inputs": [
        {
          "internalType": "contract AMMFactory",
          "name": "_ammFactory",
          "type": "address"
        },
        {
          "internalType": "contract AbstractMarketFactoryV3",
          "name": "_marketFactory",
          "type": "address"
        },
        {
          "internalType": "uint256",
          "name": "_marketId",
          "type": "uint256"
        },
        {
          "internalType": "uint256",
          "name": "_amount",
          "type": "uint256"
        }
      ],
      "name": "depositByMarket",
      "outputs": [],
      "stateMutability": "nonpayable",
      "type": "function"
    },
    {
      "inputs": [
        {
          "internalType": "uint256",
          "name": "_pid",
          "type": "uint256"
        }
      ],
      "name": "emergencyWithdraw",
      "outputs": [],
      "stateMutability": "nonpayable",
      "type": "function"
    },
    {
      "inputs": [
        {
          "internalType": "uint256",
          "name": "_pid",
          "type": "uint256"
        }
      ],
      "name": "getEarlyDepositEndTimestamp",
      "outputs": [
        {
          "internalType": "uint256",
          "name": "",
          "type": "uint256"
        }
      ],
      "stateMutability": "view",
      "type": "function"
    },
    {
      "inputs": [
        {
          "internalType": "contract AMMFactory",
          "name": "_ammFactory",
          "type": "address"
        },
        {
          "internalType": "contract AbstractMarketFactoryV3",
          "name": "_marketFactory",
          "type": "address"
        },
        {
          "internalType": "uint256",
          "name": "_marketId",
          "type": "uint256"
        }
      ],
      "name": "getPoolInfo",
      "outputs": [
        {
          "components": [
            {
              "internalType": "uint256",
              "name": "beginTimestamp",
              "type": "uint256"
            },
            {
              "internalType": "uint256",
              "name": "endTimestamp",
              "type": "uint256"
            },
            {
              "internalType": "uint256",
              "name": "earlyDepositEndTimestamp",
              "type": "uint256"
            },
            {
              "internalType": "uint256",
              "name": "totalRewardsAccrued",
              "type": "uint256"
            },
            {
              "internalType": "bool",
              "name": "created",
              "type": "bool"
            }
          ],
          "internalType": "struct MasterChef.PoolStatusInfo",
          "name": "_poolStatusInfo",
          "type": "tuple"
        }
      ],
      "stateMutability": "view",
      "type": "function"
    },
    {
      "inputs": [
        {
          "internalType": "contract AMMFactory",
          "name": "_ammFactory",
          "type": "address"
        },
        {
          "internalType": "contract AbstractMarketFactoryV3",
          "name": "_marketFactory",
          "type": "address"
        },
        {
          "internalType": "uint256",
          "name": "_marketId",
          "type": "uint256"
        }
      ],
      "name": "getPoolLPToken",
      "outputs": [
        {
          "internalType": "contract IERC20",
          "name": "",
          "type": "address"
        }
      ],
      "stateMutability": "view",
      "type": "function"
    },
    {
      "inputs": [
        {
          "internalType": "contract AMMFactory",
          "name": "_ammFactory",
          "type": "address"
        },
        {
          "internalType": "contract AbstractMarketFactoryV3",
          "name": "_marketFactory",
          "type": "address"
        },
        {
          "internalType": "uint256",
          "name": "_marketId",
          "type": "uint256"
        }
      ],
      "name": "getPoolLPTokenTotalSupply",
      "outputs": [
        {
          "internalType": "uint256",
          "name": "",
          "type": "uint256"
        }
      ],
      "stateMutability": "view",
      "type": "function"
    },
    {
      "inputs": [
        {
          "internalType": "uint256",
          "name": "_pid",
          "type": "uint256"
        }
      ],
      "name": "getPoolRewardEndTimestamp",
      "outputs": [
        {
          "internalType": "uint256",
          "name": "",
          "type": "uint256"
        }
      ],
      "stateMutability": "view",
      "type": "function"
    },
    {
      "inputs": [
        {
          "internalType": "contract AMMFactory",
          "name": "_ammFactory",
          "type": "address"
        },
        {
          "internalType": "contract AbstractMarketFactoryV3",
          "name": "_marketFactory",
          "type": "address"
        },
        {
          "internalType": "uint256",
          "name": "_marketId",
          "type": "uint256"
        },
        {
          "internalType": "address",
          "name": "_user",
          "type": "address"
        }
      ],
      "name": "getPoolTokenBalance",
      "outputs": [
        {
          "internalType": "uint256",
          "name": "",
          "type": "uint256"
        }
      ],
      "stateMutability": "view",
      "type": "function"
    },
    {
      "inputs": [
        {
          "internalType": "uint256",
          "name": "_pid",
          "type": "uint256"
        }
      ],
      "name": "getTimeElapsed",
      "outputs": [
        {
          "internalType": "uint256",
          "name": "",
          "type": "uint256"
        }
      ],
      "stateMutability": "view",
      "type": "function"
    },
    {
      "inputs": [
        {
          "internalType": "uint256",
          "name": "_pid",
          "type": "uint256"
        },
        {
          "internalType": "address",
          "name": "_user",
          "type": "address"
        }
      ],
      "name": "getUserAmount",
      "outputs": [
        {
          "internalType": "uint256",
          "name": "",
          "type": "uint256"
        }
      ],
      "stateMutability": "view",
      "type": "function"
    },
    {
      "inputs": [
        {
          "internalType": "contract AMMFactory",
          "name": "_ammFactory",
          "type": "address"
        },
        {
          "internalType": "contract AbstractMarketFactoryV3",
          "name": "_marketFactory",
          "type": "address"
        },
        {
          "internalType": "uint256",
          "name": "_marketId",
          "type": "uint256"
        },
        {
          "internalType": "address",
          "name": "_userAddress",
          "type": "address"
        }
      ],
      "name": "getUserPendingRewardInfo",
      "outputs": [
        {
          "components": [
            {
              "internalType": "uint256",
              "name": "beginTimestamp",
              "type": "uint256"
            },
            {
              "internalType": "uint256",
              "name": "endTimestamp",
              "type": "uint256"
            },
            {
              "internalType": "uint256",
              "name": "earlyDepositEndTimestamp",
              "type": "uint256"
            },
            {
              "internalType": "uint256",
              "name": "accruedStandardRewards",
              "type": "uint256"
            },
            {
              "internalType": "uint256",
              "name": "accruedEarlyDepositBonusRewards",
              "type": "uint256"
            },
            {
              "internalType": "uint256",
              "name": "pendingEarlyDepositBonusRewards",
              "type": "uint256"
            },
            {
              "internalType": "bool",
              "name": "created",
              "type": "bool"
            }
          ],
          "internalType": "struct MasterChef.PendingRewardInfo",
          "name": "_pendingRewardInfo",
          "type": "tuple"
        }
      ],
      "stateMutability": "view",
      "type": "function"
    },
    {
      "inputs": [],
      "name": "massUpdatePools",
      "outputs": [],
      "stateMutability": "nonpayable",
      "type": "function"
    },
    {
      "inputs": [],
      "name": "owner",
      "outputs": [
        {
          "internalType": "address",
          "name": "",
          "type": "address"
        }
      ],
      "stateMutability": "view",
      "type": "function"
    },
    {
      "inputs": [
        {
          "internalType": "uint256",
          "name": "",
          "type": "uint256"
        }
      ],
      "name": "poolInfo",
      "outputs": [
        {
          "internalType": "contract IERC20",
          "name": "lpToken",
          "type": "address"
        },
        {
          "internalType": "uint256",
          "name": "accRewardsPerShare",
          "type": "uint256"
        },
        {
          "internalType": "uint256",
          "name": "totalEarlyDepositBonusRewardShares",
          "type": "uint256"
        },
        {
          "internalType": "uint256",
          "name": "beginTimestamp",
          "type": "uint256"
        },
        {
          "internalType": "uint256",
          "name": "endTimestamp",
          "type": "uint256"
        },
        {
          "internalType": "uint256",
          "name": "earlyDepositBonusRewards",
          "type": "uint256"
        },
        {
          "internalType": "uint256",
          "name": "lastRewardTimestamp",
          "type": "uint256"
        },
        {
          "internalType": "uint256",
          "name": "rewardsPerSecond",
          "type": "uint256"
        }
      ],
      "stateMutability": "view",
      "type": "function"
    },
    {
      "inputs": [],
      "name": "poolLength",
      "outputs": [
        {
          "internalType": "uint256",
          "name": "",
          "type": "uint256"
        }
      ],
      "stateMutability": "view",
      "type": "function"
    },
    {
      "inputs": [
        {
          "internalType": "contract AMMFactory",
          "name": "_ammFactory",
          "type": "address"
        },
        {
          "internalType": "contract AbstractMarketFactoryV3",
          "name": "_marketFactory",
          "type": "address"
        },
        {
          "internalType": "uint256",
          "name": "_marketId",
          "type": "uint256"
        },
        {
          "internalType": "uint256",
          "name": "_lpTokensIn",
          "type": "uint256"
        },
        {
          "internalType": "uint256",
          "name": "_minCollateralOut",
          "type": "uint256"
        },
        {
          "internalType": "address",
          "name": "_collateralRecipient",
          "type": "address"
        }
      ],
      "name": "removeLiquidity",
      "outputs": [
        {
          "internalType": "uint256",
          "name": "_collateralOut",
          "type": "uint256"
        },
        {
          "internalType": "uint256[]",
          "name": "_balances",
          "type": "uint256[]"
        }
      ],
      "stateMutability": "nonpayable",
      "type": "function"
    },
    {
      "inputs": [],
      "name": "renounceOwnership",
      "outputs": [],
      "stateMutability": "nonpayable",
      "type": "function"
    },
    {
      "inputs": [
        {
          "internalType": "address",
          "name": "",
          "type": "address"
        },
        {
          "internalType": "address",
          "name": "",
          "type": "address"
        },
        {
          "internalType": "uint256",
          "name": "",
          "type": "uint256"
        }
      ],
      "name": "rewardPoolLookup",
      "outputs": [
        {
          "internalType": "uint256",
          "name": "pid",
          "type": "uint256"
        },
        {
          "internalType": "bool",
          "name": "created",
          "type": "bool"
        }
      ],
      "stateMutability": "view",
      "type": "function"
    },
    {
      "inputs": [
        {
          "internalType": "address",
          "name": "newOwner",
          "type": "address"
        }
      ],
      "name": "transferOwnership",
      "outputs": [],
      "stateMutability": "nonpayable",
      "type": "function"
    },
    {
      "inputs": [
        {
          "internalType": "address",
          "name": "_ammFactory",
          "type": "address"
        }
      ],
      "name": "trustAMMFactory",
      "outputs": [],
      "stateMutability": "nonpayable",
      "type": "function"
    },
    {
      "inputs": [
        {
          "internalType": "address",
          "name": "_ammFactory",
          "type": "address"
        }
      ],
      "name": "untrustAMMFactory",
      "outputs": [],
      "stateMutability": "nonpayable",
      "type": "function"
    },
    {
      "inputs": [
        {
          "internalType": "uint256",
          "name": "_pid",
          "type": "uint256"
        }
      ],
      "name": "updatePool",
      "outputs": [],
      "stateMutability": "nonpayable",
      "type": "function"
    },
    {
      "inputs": [
        {
          "internalType": "uint256",
          "name": "",
          "type": "uint256"
        },
        {
          "internalType": "address",
          "name": "",
          "type": "address"
        }
      ],
      "name": "userInfo",
      "outputs": [
        {
          "internalType": "uint256",
          "name": "amount",
          "type": "uint256"
        },
        {
          "internalType": "uint256",
          "name": "rewardDebt",
          "type": "uint256"
        },
        {
          "internalType": "uint256",
          "name": "lastActionTimestamp",
          "type": "uint256"
        }
      ],
      "stateMutability": "view",
      "type": "function"
    },
    {
      "inputs": [
        {
          "internalType": "uint256",
          "name": "_pid",
          "type": "uint256"
        },
        {
          "internalType": "uint256",
          "name": "_amount",
          "type": "uint256"
        }
      ],
      "name": "withdraw",
      "outputs": [],
      "stateMutability": "nonpayable",
      "type": "function"
    },
    {
      "inputs": [
        {
          "internalType": "contract AMMFactory",
          "name": "_ammFactory",
          "type": "address"
        },
        {
          "internalType": "contract AbstractMarketFactoryV3",
          "name": "_marketFactory",
          "type": "address"
        },
        {
          "internalType": "uint256",
          "name": "_marketId",
          "type": "uint256"
        },
        {
          "internalType": "uint256",
          "name": "_amount",
          "type": "uint256"
        }
      ],
      "name": "withdrawByMarket",
      "outputs": [],
      "stateMutability": "nonpayable",
      "type": "function"
    },
    {
      "inputs": [
        {
          "internalType": "uint256",
          "name": "_amount",
          "type": "uint256"
        }
      ],
      "name": "withdrawRewards",
      "outputs": [],
      "stateMutability": "nonpayable",
      "type": "function"
    }
  ],
  "transactionHash": "0x249e66751b34850e59126bc571a26edf4713221f7e24f01ef0f848999415b216",
  "args": [
    "0x5799bFe361BEea69f808328FF4884DF92f1f66f0"
  ],
  "numDeployments": 5,
  "solcInputHash": "aff3ef3d431d8e648b9071dcc4406028",
  "bytecode": "0x60806040523480156200001157600080fd5b5060405162003789380380620037898339810160408190526200003491620000b5565b6200003f3362000065565b600580546001600160a01b0319166001600160a01b0392909216919091179055620000e5565b600080546001600160a01b038381166001600160a01b0319831681178455604051919092169283917f8be0079c531659141344cd1fd0a4f28419497f9722a3daafe3b4186f6b6457e09190a35050565b600060208284031215620000c7578081fd5b81516001600160a01b0381168114620000de578182fd5b9392505050565b61369480620000f56000396000f3fe608060405234801561001057600080fd5b50600436106101fb5760003560e01c80639342c8f41161011a578063c36596a6116100ad578063e2bbb1581161007c578063e2bbb15814610575578063eb97ed9614610588578063f2fde38b1461059b578063fd1b192e146105ae578063fe04b549146105c157600080fd5b8063c36596a614610498578063d20122e0146104a7578063d8c08b87146104f7578063dcc2b3611461050a57600080fd5b8063af9551f7116100e9578063af9551f71461043e578063b0f7932614610451578063b453d9b514610472578063c0e3ee6b1461048557600080fd5b80639342c8f41461037057806393f1a40b146103835780639d5dda8f146103d45780639f7bc32c146103e757600080fd5b806351eb05a611610192578063715018a611610161578063715018a6146103195780638448fd2c1461032157806388b52b4a146103345780638da5cb5b1461035f57600080fd5b806351eb05a6146102e35780635312ea8e146102f65780636142da6414610309578063630b5ba11461031157600080fd5b80632af3420e116101ce5780632af3420e146102975780632f4064db146102aa5780633437586b146102bd578063441a3e70146102d057600080fd5b8063081e3eda146102005780631526fe27146102175780632137eacf1461026f57806326dde4f814610284575b600080fd5b6002545b6040519081526020015b60405180910390f35b61022a6102253660046132d4565b6105d4565b604080516001600160a01b0390991689526020890197909752958701949094526060860192909252608085015260a084015260c083015260e08201526101000161020e565b61028261027d3660046130aa565b610634565b005b610204610292366004613044565b6106b7565b6102046102a53660046132d4565b6107bc565b6102826102b83660046130aa565b610853565b6102046102cb366004613304565b6108c6565b6102826102de366004613378565b6108f0565b6102826102f13660046132d4565b610947565b6102826103043660046132d4565b610a63565b610204610b1a565b610282610b30565b610282610b57565b61020461032f3660046130ef565b610b6b565b610347610342366004613044565b6110eb565b6040516001600160a01b03909116815260200161020e565b6000546001600160a01b0316610347565b61028261037e3660046132d4565b611182565b6103b9610391366004613304565b6001602081815260009384526040808520909152918352912080549181015460029091015483565b6040805193845260208401929092529082015260600161020e565b6102046103e2366004612f96565b61120e565b6103fa6103f5366004613044565b61122f565b60405161020e9190600060a0820190508251825260208301516020830152604083015160408301526060830151606083015260808301511515608083015292915050565b61028261044c366004612f3a565b611357565b61046461045f36600461314d565b611383565b60405161020e9291906134b6565b6102046104803660046132d4565b611985565b61046461049336600461314d565b6119c4565b610204670de0b6b3a764000081565b6104e26104b5366004612f56565b60046020908152600093845260408085208252928452828420905282529020805460019091015460ff1682565b6040805192835290151560208301520161020e565b610282610505366004612ff0565b611bff565b61051d610518366004613058565b611d3b565b60405161020e9190600060e082019050825182526020830151602083015260408301516040830152606083015160608301526080830151608083015260a083015160a083015260c0830151151560c083015292915050565b610282610583366004613378565b611ff5565b610282610596366004612f3a565b612049565b6102826105a9366004612f3a565b612072565b6102046105bc3660046132d4565b6120eb565b6102046105cf366004613058565b6121a1565b600281815481106105e457600080fd5b6000918252602090912060089091020180546001820154600283015460038401546004850154600586015460068701546007909701546001600160a01b0390961697509395929491939092909188565b6001600160a01b03808516600090815260046020908152604080832093871683529281528282208583528152908290208251808401909352805483526001015460ff1615159082018190526106a45760405162461bcd60e51b815260040161069b90613475565b60405180910390fd5b80516106b09083611ff5565b5050505050565b6001600160a01b038084166000908152600460209081526040808320938616835292815282822084835281528282208351808501909452805480855260019091015460ff1615159184019190915260028054929392909190811061072b57634e487b7160e01b600052603260045260246000fd5b600091825260209182902060089091020154604080516318160ddd60e01b815290516001600160a01b03909216926318160ddd92600480840193829003018186803b15801561077957600080fd5b505afa15801561078d573d6000803e3d6000fd5b505050506040513d601f19601f820116820180604052508101906107b191906132ec565b9150505b9392505050565b600080600283815481106107e057634e487b7160e01b600052603260045260246000fd5b9060005260206000209060080201905060008160030154826004015461080691906135a5565b6003830154909150670de0b6b3a7640000610822600a82613566565b61082c9084613586565b6108369190613566565b610840919061354e565b61084b90600161354e565b949350505050565b6001600160a01b03808516600090815260046020908152604080832093871683529281528282208583528152908290208251808401909352805483526001015460ff1615159082018190526108ba5760405162461bcd60e51b815260040161069b90613475565b80516106b090836108f0565b60008281526001602090815260408083206001600160a01b03851684529091529020545b92915050565b6108fc3383833361222b565b61094333826002858154811061092257634e487b7160e01b600052603260045260246000fd5b60009182526020909120600890910201546001600160a01b031691906124b7565b5050565b60006002828154811061096a57634e487b7160e01b600052603260045260246000fd5b9060005260206000209060080201905080600601544211610989575050565b80546040516370a0823160e01b81523060048201526000916001600160a01b0316906370a082319060240160206040518083038186803b1580156109cc57600080fd5b505afa1580156109e0573d6000803e3d6000fd5b505050506040513d601f19601f82011682018060405250810190610a0491906132ec565b905080610a1657504260069091015550565b6000610a21846120eb565b9050610a52610a4783610a4186600701548561251290919063ffffffff16565b9061251e565b60018501549061252a565b600184015550504260069091015550565b600060028281548110610a8657634e487b7160e01b600052603260045260246000fd5b60009182526020808320858452600182526040808520338087529352909320805460089093029093018054909450610acb926001600160a01b039190911691906124b7565b8054604051908152839033907fbb757047c2b5f3974fe26b7c10f732e7bce710b0952a71082702781e62ae05959060200160405180910390a36000808255600182018190556002909101555050565b610b2d600a670de0b6b3a7640000613566565b81565b60025460005b8181101561094357610b4781610947565b610b50816135e8565b9050610b36565b610b5f612536565b610b696000612590565b565b6000846001600160a01b031663d8dfeb456040518163ffffffff1660e01b815260040160206040518083038186803b158015610ba657600080fd5b505afa158015610bba573d6000803e3d6000fd5b505050506040513d601f19601f82011682018060405250810190610bde91906131b3565b6040516323b872dd60e01b8152336004820152306024820152604481018590526001600160a01b0391909116906323b872dd90606401602060405180830381600087803b158015610c2e57600080fd5b505af1158015610c42573d6000803e3d6000fd5b505050506040513d601f19601f82011682018060405250810190610c66919061302a565b50846001600160a01b031663d8dfeb456040518163ffffffff1660e01b815260040160206040518083038186803b158015610ca057600080fd5b505afa158015610cb4573d6000803e3d6000fd5b505050506040513d601f19601f82011682018060405250810190610cd891906131b3565b6001600160a01b031663095ea7b387856040518363ffffffff1660e01b8152600401610d05929190613429565b602060405180830381600087803b158015610d1f57600080fd5b505af1158015610d33573d6000803e3d6000fd5b505050506040513d601f19601f82011682018060405250810190610d57919061302a565b5060405163210a603d60e21b81526001600160a01b03868116600483015260248201869052604482018590523060648301526000919088169063842980f490608401602060405180830381600087803b158015610db357600080fd5b505af1158015610dc7573d6000803e3d6000fd5b505050506040513d601f19601f82011682018060405250810190610deb91906132ec565b90506000876001600160a01b0316635b5b9ea288886040518363ffffffff1660e01b8152600401610e1d929190613429565b60206040518083038186803b158015610e3557600080fd5b505afa158015610e49573d6000803e3d6000fd5b505050506040513d601f19601f82011682018060405250810190610e6d91906131b3565b90506000610efb898989858c6001600160a01b03166342e0ed168d6040518263ffffffff1660e01b8152600401610ea691815260200190565b60206040518083038186803b158015610ebe57600080fd5b505afa158015610ed2573d6000803e3d6000fd5b505050506040513d601f19601f82011682018060405250810190610ef691906132ec565b6125e0565b9050610f088582856128ec565b60405163eb44fdd360e01b8152600481018890526000906001600160a01b038a169063eb44fdd39060240160006040518083038186803b158015610f4b57600080fd5b505afa158015610f5f573d6000803e3d6000fd5b505050506040513d6000823e601f3d908101601f19168201604052610f8791908101906131cf565b9050600081602001515167ffffffffffffffff811115610fb757634e487b7160e01b600052604160045260246000fd5b604051908082528060200260200182016040528015610fe0578160200160208202803683370190505b50905060005b82602001515181101561103257600082828151811061101557634e487b7160e01b600052603260045260246000fd5b60209081029190910101528061102a816135e8565b915050610fe6565b50604080513381526001600160a01b0389811660208301528b92818e1692918f16917ffb27591822deac7913ea973cf845992f243e2ba5634ef8fbe0b6554aca37a428910160405180910390a4888a6001600160a01b03168c6001600160a01b03167f3f11bf8bba7d372ab2f25e364c99d8205f7d41bd6891af0a1e7adc6f9b2b20ca338b8d6110c190613603565b8b886040516110d49594939291906133ef565b60405180910390a450929998505050505050505050565b6001600160a01b038084166000908152600460209081526040808320938616835292815282822084835281528282208351808501909452805480855260019091015460ff1615159184019190915260028054929392909190811061115f57634e487b7160e01b600052603260045260246000fd5b60009182526020909120600890910201546001600160a01b031695945050505050565b61118a612536565b60055460405163a9059cbb60e01b81526001600160a01b039091169063a9059cbb906111bc9033908590600401613429565b602060405180830381600087803b1580156111d657600080fd5b505af11580156111ea573d6000803e3d6000fd5b505050506040513d601f19601f82011682018060405250810190610943919061302a565b6000611218612536565b61122586868686866125e0565b9695505050505050565b6112636040518060a00160405280600081526020016000815260200160008152602001600081526020016000151581525090565b6001600160a01b03808516600090815260046020908152604080832093871683529281528282208583528152908290208251808401909352805483526001015460ff161580159183019190915261134f57600060028260000151815481106112db57634e487b7160e01b600052603260045260246000fd5b60009182526020918290206003600890920201908101548552600481015491850191909152825190915061130e906107bc565b604084015260078101546003820154600483015461132d904290612ac2565b61133791906135a5565b6113419190613586565b606084015250600160808301525b509392505050565b61135f612536565b6001600160a01b03166000908152600660205260409020805460ff19166001179055565b6001600160a01b038087166000908152600460209081526040808320938916835292815282822087835281528282208351808501909452805480855260019091015460ff161515918401829052919260609290916114e157604051632dadcf5160e11b81526000906001600160a01b038c1690635b5b9ea29061140c908d908d90600401613429565b60206040518083038186803b15801561142457600080fd5b505afa158015611438573d6000803e3d6000fd5b505050506040513d601f19601f8201168201806040525081019061145c91906131b3565b90506001600160a01b0381166114a85760405162461bcd60e51b81526020600482015260116024820152702837b7b6103737ba1031b932b0ba32b21760791b604482015260640161069b565b6114dd8b8b8b848e6001600160a01b03166342e0ed168f6040518263ffffffff1660e01b8152600401610ea691815260200190565b9150505b886001600160a01b031663d8dfeb456040518163ffffffff1660e01b815260040160206040518083038186803b15801561151a57600080fd5b505afa15801561152e573d6000803e3d6000fd5b505050506040513d601f19601f8201168201806040525081019061155291906131b3565b6040516323b872dd60e01b8152336004820152306024820152604481018990526001600160a01b0391909116906323b872dd90606401602060405180830381600087803b1580156115a257600080fd5b505af11580156115b6573d6000803e3d6000fd5b505050506040513d601f19601f820116820180604052508101906115da919061302a565b50886001600160a01b031663d8dfeb456040518163ffffffff1660e01b815260040160206040518083038186803b15801561161457600080fd5b505afa158015611628573d6000803e3d6000fd5b505050506040513d601f19601f8201168201806040525081019061164c91906131b3565b6001600160a01b031663095ea7b38b896040518363ffffffff1660e01b8152600401611679929190613429565b602060405180830381600087803b15801561169357600080fd5b505af11580156116a7573d6000803e3d6000fd5b505050506040513d601f19601f820116820180604052508101906116cb919061302a565b506040516345fa678360e01b81526001600160a01b038a81166004830152602482018a905260448201899052606482018890523060848301528b16906345fa67839060a401600060405180830381600087803b15801561172a57600080fd5b505af115801561173e573d6000803e3d6000fd5b505050506040513d6000823e601f3d908101601f191682016040526117669190810190613333565b60405163eb44fdd360e01b8152600481018b905291955093506000906001600160a01b038b169063eb44fdd39060240160006040518083038186803b1580156117ae57600080fd5b505afa1580156117c2573d6000803e3d6000fd5b505050506040513d6000823e601f3d908101601f191682016040526117ea91908101906131cf565b905060005b845181101561190e57600085828151811061181a57634e487b7160e01b600052603260045260246000fd5b602002602001015111156118fc578160200151818151811061184c57634e487b7160e01b600052603260045260246000fd5b60200260200101516001600160a01b031663a9059cbb8887848151811061188357634e487b7160e01b600052603260045260246000fd5b60200260200101516040518363ffffffff1660e01b81526004016118a8929190613429565b602060405180830381600087803b1580156118c257600080fd5b505af11580156118d6573d6000803e3d6000fd5b505050506040513d601f19601f820116820180604052508101906118fa919061302a565b505b80611906816135e8565b9150506117ef565b5061191a8683876128ec565b888a6001600160a01b03168c6001600160a01b03167f3f11bf8bba7d372ab2f25e364c99d8205f7d41bd6891af0a1e7adc6f9b2b20ca338a8d61195c90613603565b8b8b60405161196f9594939291906133ef565b60405180910390a4505050965096945050505050565b600080600283815481106119a957634e487b7160e01b600052603260045260246000fd5b60009182526020909120600460089092020101549392505050565b6001600160a01b038087166000908152600460209081526040808320938916835292815282822087835281528282208351808501909452805484526001015460ff1615159083018190529091606091611a2f5760405162461bcd60e51b815260040161069b90613475565b611a3f338260000151888761222b565b60006002826000015181548110611a6657634e487b7160e01b600052603260045260246000fd5b60009182526020909120600890910201805460405163095ea7b360e01b81529192506001600160a01b03169063095ea7b390611aa8908d908b90600401613429565b602060405180830381600087803b158015611ac257600080fd5b505af1158015611ad6573d6000803e3d6000fd5b505050506040513d601f19601f82011682018060405250810190611afa919061302a565b50604051632cfc215960e11b81526001600160a01b038a81166004830152602482018a9052604482018990526064820188905286811660848301528b16906359f842b29060a401600060405180830381600087803b158015611b5b57600080fd5b505af1158015611b6f573d6000803e3d6000fd5b505050506040513d6000823e601f3d908101601f19168201604052611b979190810190613333565b9094509250876001600160a01b03808b16908c167f3f11bf8bba7d372ab2f25e364c99d8205f7d41bd6891af0a1e7adc6f9b2b20ca338989611bd88e613603565b8a604051611bea9594939291906133ef565b60405180910390a45050965096945050505050565b611c07612536565b600060036000866001600160a01b03166001600160a01b031681526020019081526020016000206040518060600160405290816000820154815260200160018201548152602001600282015481525050905060405180606001604052808381526020018481526020018581525060036000876001600160a01b03166001600160a01b03168152602001908152602001600020600082015181600001556020820151816001015560408201518160020155905050846001600160a01b03167fe306af96e1d2ee556327ede5cfbae9786f190dd64b7948e676453e607cc73f4982600001518360200151846040015186888a604051611d2c96959493929190958652602086019490945260408501929092526060840152608083015260a082015260c00190565b60405180910390a25050505050565b611d7d6040518060e001604052806000815260200160008152602001600081526020016000815260200160008152602001600081526020016000151581525090565b6001600160a01b03808616600090815260046020908152604080832093881683529281528282208683528152908290208251808401909352805483526001015460ff1615801591830191909152611fec5760006002826000015181548110611df557634e487b7160e01b600052603260045260246000fd5b6000918252602080832085518452600180835260408086206001600160a01b038b81168852945280862060089590950290920190810154815492516370a0823160e01b815230600482015291965093949291909116906370a082319060240160206040518083038186803b158015611e6c57600080fd5b505afa158015611e80573d6000803e3d6000fd5b505050506040513d601f19601f82011682018060405250810190611ea491906132ec565b9050600084600301548560040154611ebc91906135a5565b600160c089015260038601548852600486015460208901528651909150611ee2906107bc565b60408801819052600285015411611f5f5760008560020154118015611f0a5750866020015142115b15611f3457600285015484546005870154611f2a9291610a419190612512565b6080880152611f5f565b600285015415611f5f57600285015484546005870154611f599291610a419190612512565b60a08801525b846006015442118015611f7157508115155b15611fb0576000611f8587600001516120eb565b9050611fac611fa584610a4189600701548561251290919063ffffffff16565b859061252a565b9350505b611fe18460010154611fdb670de0b6b3a7640000610a4187896000015461251290919063ffffffff16565b90612ad9565b606088015250505050505b50949350505050565b6120003383836128ec565b6109433330836002868154811061202757634e487b7160e01b600052603260045260246000fd5b60009182526020909120600890910201546001600160a01b0316929190612ae5565b612051612536565b6001600160a01b03166000908152600660205260409020805460ff19169055565b61207a612536565b6001600160a01b0381166120df5760405162461bcd60e51b815260206004820152602660248201527f4f776e61626c653a206e6577206f776e657220697320746865207a65726f206160448201526564647265737360d01b606482015260840161069b565b6120e881612590565b50565b6000806002838154811061210f57634e487b7160e01b600052603260045260246000fd5b90600052602060002090600802019050600042905080826003015411806121395750808260060154115b8061214657506007820154155b15612155575060009392505050565b816004015482600601541061216e575060009392505050565b61084b670de0b6b3a764000061219b60016121958660060154611fdb878960040154612ac2565b9061252a565b90612512565b6001600160a01b038085166000908152600460209081526040808320938716835292815282822085835281528282208351808501909452805484526001015460ff161580159184019190915290919061221f575160009081526001602090815260408083206001600160a01b0386168452909152902054905061084b565b50600095945050505050565b60006002848154811061224e57634e487b7160e01b600052603260045260246000fd5b600091825260208083208784526001825260408085206001600160a01b038b16865290925292208054600890920290920192508411156122c55760405162461bcd60e51b81526020600482015260126024820152711dda5d1a191c985dce881b9bdd0819dbdbd960721b604482015260640161069b565b6122ce85610947565b6000826003015483600401546122e491906135a5565b905060008360030154670de0b6b3a7640000600a670de0b6b3a764000061230b9190613566565b6123159085613586565b61231f9190613566565b612329919061354e565b61233490600161354e565b90506000846003015483612348919061354e565b61235390600161354e565b90504281116123b15760008560020154118015612374575081846002015411155b156123ac57600061239e8660020154610a418760000154896005015461251290919063ffffffff16565b90506123aa8a82612b23565b505b6123f2565b4282106123d15760028501546123c79088612ad9565b60028601556123f2565b836002015482106123f257835460028601546123ec91612ad9565b60028601555b60006124238560010154611fdb670de0b6b3a7640000610a418a600101548a6000015461251290919063ffffffff16565b905061242f8782612b23565b845461243b9089612ad9565b808655600187015461245b91670de0b6b3a764000091610a419190612512565b6001860155426002860155604080518981526001600160a01b03891660208201528a9133917f8166bf25f8a2b7ed3c85049207da4358d16edbed977d23fa2ee6f0dde3ec2132910160405180910390a350505050505050505050565b61250d8363a9059cbb60e01b84846040516024016124d6929190613429565b60408051601f198184030181529190526020810180516001600160e01b03166001600160e01b031990931692909217909152612c5f565b505050565b60006107b58284613586565b60006107b58284613566565b60006107b5828461354e565b6000546001600160a01b03163314610b695760405162461bcd60e51b815260206004820181905260248201527f4f776e61626c653a2063616c6c6572206973206e6f7420746865206f776e6572604482015260640161069b565b600080546001600160a01b038381166001600160a01b0319831681178455604051919092169283917f8be0079c531659141344cd1fd0a4f28419497f9722a3daafe3b4186f6b6457e09190a35050565b6001600160a01b038086166000908152600460209081526040808320938816835292815282822086835290529081206001015460ff16156126715760405162461bcd60e51b815260206004820152602560248201527f52657761726420706f6f6c2068617320616c7265616479206265656e2063726560448201526430ba32b21760d91b606482015260840161069b565b6001600160a01b03861660009081526006602052604090205460ff166126ec5760405162461bcd60e51b815260206004820152602a60248201527f414d4d466163746f7279206d75737420626520617070726f76656420746f20636044820152691c99585d19481c1bdbdb60b21b606482015260840161069b565b5060028054604080518082018252828152600160208083018281526001600160a01b038c8116600090815260048452868120918d168082529184528681208c82528452868120955186559151948401805460ff1916951515959095179094559283526003815283832084516060810186528154815292810154918301829052909501549281019290925291929091906127889062015180613586565b90504284156127a05761279d610e10866135a5565b94505b846127b6576127af828261354e565b94506127e2565b426127c183876135a5565b11156127d8576127d182866135a5565b90506127e2565b8442106127e25750835b6002604051806101000160405280886001600160a01b031681526020016000815260200160008152602001838152602001878152602001838861282591906135a5565b8651612835906201518090613566565b61283f9190613586565b815260200183815260200162015180866040015161285d9190613566565b90528154600180820184556000938452602093849020835160089093020180546001600160a01b0319166001600160a01b03909316929092178255928201519281019290925560408101516002830155606081015160038301556080810151600483015560a0810151600583015560c0810151600683015560e001516007909101555091979650505050505050565b60006002838154811061290f57634e487b7160e01b600052603260045260246000fd5b600091825260208083208684526001825260408085206001600160a01b038a16865290925292206008909102909101915061294984610947565b80541561298f5760006129818260010154611fdb670de0b6b3a7640000610a418760010154876000015461251290919063ffffffff16565b905061298d8682612b23565b505b6000826003015483600401546129a591906135a5565b905060008360030154670de0b6b3a7640000600a670de0b6b3a76400006129cc9190613566565b6129d69085613586565b6129e09190613566565b6129ea919061354e565b6129f590600161354e565b90508042118015612a0a575080836002015411155b15612a255782546002850154612a1f91612ad9565b60028501555b42811115612a42576002840154612a3c908661252a565b60028501555b8254612a4e908661252a565b8084556001850154612a6e91670de0b6b3a764000091610a419190612512565b600184015542600284015560405185815286906001600160a01b038916907f90890809c654f11d6e72a28fa60149770a0d11ec6c92319d6ceb2bb0a4ea1a159060200160405180910390a350505050505050565b6000818311612ad25750816108ea565b50806108ea565b60006107b582846135a5565b6040516001600160a01b0380851660248301528316604482015260648101829052612b1d9085906323b872dd60e01b906084016124d6565b50505050565b6005546040516370a0823160e01b81523060048201526000916001600160a01b0316906370a082319060240160206040518083038186803b158015612b6757600080fd5b505afa158015612b7b573d6000803e3d6000fd5b505050506040513d601f19601f82011682018060405250810190612b9f91906132ec565b905080821115612c2d5760055460405163a9059cbb60e01b81526001600160a01b039091169063a9059cbb90612bdb9086908590600401613429565b602060405180830381600087803b158015612bf557600080fd5b505af1158015612c09573d6000803e3d6000fd5b505050506040513d601f19601f82011682018060405250810190612b1d919061302a565b60055460405163a9059cbb60e01b81526001600160a01b039091169063a9059cbb90612bdb9086908690600401613429565b6000612cb4826040518060400160405280602081526020017f5361666545524332303a206c6f772d6c6576656c2063616c6c206661696c6564815250856001600160a01b0316612d319092919063ffffffff16565b80519091501561250d5780806020019051810190612cd2919061302a565b61250d5760405162461bcd60e51b815260206004820152602a60248201527f5361666545524332303a204552433230206f7065726174696f6e20646964206e6044820152691bdd081cdd58d8d9595960b21b606482015260840161069b565b606061084b8484600085856001600160a01b0385163b612d935760405162461bcd60e51b815260206004820152601d60248201527f416464726573733a2063616c6c20746f206e6f6e2d636f6e7472616374000000604482015260640161069b565b600080866001600160a01b03168587604051612daf91906133d3565b60006040518083038185875af1925050503d8060008114612dec576040519150601f19603f3d011682016040523d82523d6000602084013e612df1565b606091505b5091509150612e01828286612e0c565b979650505050505050565b60608315612e1b5750816107b5565b825115612e2b5782518084602001fd5b8160405162461bcd60e51b815260040161069b9190613442565b8051612e5081613649565b919050565b600082601f830112612e65578081fd5b81516020612e7a612e758361352a565b6134f9565b80838252828201915082860187848660051b8901011115612e99578586fd5b855b85811015612ec0578151612eae81613649565b84529284019290840190600101612e9b565b5090979650505050505050565b600082601f830112612edd578081fd5b81516020612eed612e758361352a565b80838252828201915082860187848660051b8901011115612f0c578586fd5b855b85811015612ec057815184529284019290840190600101612f0e565b80518015158114612e5057600080fd5b600060208284031215612f4b578081fd5b81356107b581613649565b600080600060608486031215612f6a578182fd5b8335612f7581613649565b92506020840135612f8581613649565b929592945050506040919091013590565b600080600080600060a08688031215612fad578081fd5b8535612fb881613649565b94506020860135612fc881613649565b9350604086013592506060860135612fdf81613649565b949793965091946080013592915050565b60008060008060808587031215613005578384fd5b843561301081613649565b966020860135965060408601359560600135945092505050565b60006020828403121561303b578081fd5b6107b582612f2a565b600080600060608486031215612f6a578283fd5b6000806000806080858703121561306d578182fd5b843561307881613649565b9350602085013561308881613649565b925060408501359150606085013561309f81613649565b939692955090935050565b600080600080608085870312156130bf578182fd5b84356130ca81613649565b935060208501356130da81613649565b93969395505050506040820135916060013590565b600080600080600060a08688031215613106578283fd5b853561311181613649565b9450602086013561312181613649565b93506040860135925060608601359150608086013561313f81613649565b809150509295509295909350565b60008060008060008060c08789031215613165578384fd5b863561317081613649565b9550602087013561318081613649565b945060408701359350606087013592506080870135915060a08701356131a581613649565b809150509295509295509295565b6000602082840312156131c4578081fd5b81516107b581613649565b6000602082840312156131e0578081fd5b815167ffffffffffffffff808211156131f7578283fd5b90830190610160828603121561320b578283fd5b6132136134cf565b61321c83612e45565b815260208301518281111561322f578485fd5b61323b87828601612e55565b60208301525061324d60408401612e45565b6040820152606083015160608201526080830151608082015260a083015160a082015260c083015160c082015260e083015160e082015261010080840151818301525061012080840151838111156132a3578586fd5b6132af88828701612ecd565b82840152505061014091506132c5828401612f2a565b91810191909152949350505050565b6000602082840312156132e5578081fd5b5035919050565b6000602082840312156132fd578081fd5b5051919050565b60008060408385031215613316578182fd5b82359150602083013561332881613649565b809150509250929050565b60008060408385031215613345578182fd5b82519150602083015167ffffffffffffffff811115613362578182fd5b61336e85828601612ecd565b9150509250929050565b6000806040838503121561338a578182fd5b50508035926020909101359150565b6000815180845260208085019450808401835b838110156133c8578151875295820195908201906001016133ac565b509495945050505050565b600082516133e58184602087016135bc565b9190910192915050565b6001600160a01b03868116825285166020820152604081018490526060810183905260a060808201819052600090612e0190830184613399565b6001600160a01b03929092168252602082015260400190565b60208152600082518060208401526134618160408501602087016135bc565b601f01601f19169190910160400192915050565b60208082526021908201527f52657761726420706f6f6c20686173206e6f74206265656e20637265617465646040820152601760f91b606082015260800190565b82815260406020820152600061084b6040830184613399565b604051610160810167ffffffffffffffff811182821017156134f3576134f3613633565b60405290565b604051601f8201601f1916810167ffffffffffffffff8111828210171561352257613522613633565b604052919050565b600067ffffffffffffffff82111561354457613544613633565b5060051b60200190565b600082198211156135615761356161361d565b500190565b60008261358157634e487b7160e01b81526012600452602481fd5b500490565b60008160001904831182151516156135a0576135a061361d565b500290565b6000828210156135b7576135b761361d565b500390565b60005b838110156135d75781810151838201526020016135bf565b83811115612b1d5750506000910152565b60006000198214156135fc576135fc61361d565b5060010190565b6000600160ff1b8214156136195761361961361d565b0390565b634e487b7160e01b600052601160045260246000fd5b634e487b7160e01b600052604160045260246000fd5b6001600160a01b03811681146120e857600080fdfea264697066735822122083a3ce492c9515457bbefc06da6196eebaf96b7ac1613e78403ebd62b53a5c3c64736f6c63430008040033",
  "devdoc": {
    "kind": "dev",
    "methods": {
      "owner()": {
        "details": "Returns the address of the current owner."
      },
      "renounceOwnership()": {
        "details": "Leaves the contract without owner. It will not be possible to call `onlyOwner` functions anymore. Can only be called by the current owner. NOTE: Renouncing ownership will leave the contract without an owner, thereby removing any functionality that is only available to the owner."
      },
      "transferOwnership(address)": {
        "details": "Transfers ownership of the contract to a new account (`newOwner`). Can only be called by the current owner."
      }
    },
    "version": 1
  },
  "userdoc": {
    "kind": "user",
    "methods": {},
    "version": 1
  },
  "storageLayout": {
    "storage": [
      {
        "astId": 1062,
        "contract": "contracts/rewards/MasterChef.sol:MasterChef",
        "label": "_owner",
        "offset": 0,
        "slot": "0",
        "type": "t_address"
      },
      {
        "astId": 18887,
        "contract": "contracts/rewards/MasterChef.sol:MasterChef",
        "label": "userInfo",
        "offset": 0,
        "slot": "1",
        "type": "t_mapping(t_uint256,t_mapping(t_address,t_struct(UserInfo)18880_storage))"
      },
      {
        "astId": 18909,
        "contract": "contracts/rewards/MasterChef.sol:MasterChef",
        "label": "poolInfo",
        "offset": 0,
        "slot": "2",
        "type": "t_array(t_struct(PoolInfo)18905_storage)dyn_storage"
      },
      {
        "astId": 18947,
        "contract": "contracts/rewards/MasterChef.sol:MasterChef",
        "label": "marketFactoryRewardInfo",
        "offset": 0,
        "slot": "3",
        "type": "t_mapping(t_address,t_struct(MarketFactoryInfo)18942_storage)"
      },
      {
        "astId": 18961,
        "contract": "contracts/rewards/MasterChef.sol:MasterChef",
        "label": "rewardPoolLookup",
        "offset": 0,
        "slot": "4",
        "type": "t_mapping(t_address,t_mapping(t_address,t_mapping(t_uint256,t_struct(RewardPoolLookupInfo)18952_storage)))"
      },
      {
        "astId": 18964,
        "contract": "contracts/rewards/MasterChef.sol:MasterChef",
        "label": "rewardsToken",
        "offset": 0,
        "slot": "5",
        "type": "t_contract(IERC20)1871"
      },
      {
        "astId": 18968,
        "contract": "contracts/rewards/MasterChef.sol:MasterChef",
        "label": "approvedAMMFactories",
        "offset": 0,
        "slot": "6",
        "type": "t_mapping(t_address,t_bool)"
      }
    ],
    "types": {
      "t_address": {
        "encoding": "inplace",
        "label": "address",
        "numberOfBytes": "20"
      },
      "t_array(t_struct(PoolInfo)18905_storage)dyn_storage": {
        "base": "t_struct(PoolInfo)18905_storage",
        "encoding": "dynamic_array",
        "label": "struct MasterChef.PoolInfo[]",
        "numberOfBytes": "32"
      },
      "t_bool": {
        "encoding": "inplace",
        "label": "bool",
        "numberOfBytes": "1"
      },
      "t_contract(IERC20)1871": {
        "encoding": "inplace",
        "label": "contract IERC20",
        "numberOfBytes": "20"
      },
      "t_mapping(t_address,t_bool)": {
        "encoding": "mapping",
        "key": "t_address",
        "label": "mapping(address => bool)",
        "numberOfBytes": "32",
        "value": "t_bool"
      },
      "t_mapping(t_address,t_mapping(t_address,t_mapping(t_uint256,t_struct(RewardPoolLookupInfo)18952_storage)))": {
        "encoding": "mapping",
        "key": "t_address",
        "label": "mapping(address => mapping(address => mapping(uint256 => struct MasterChef.RewardPoolLookupInfo)))",
        "numberOfBytes": "32",
        "value": "t_mapping(t_address,t_mapping(t_uint256,t_struct(RewardPoolLookupInfo)18952_storage))"
      },
      "t_mapping(t_address,t_mapping(t_uint256,t_struct(RewardPoolLookupInfo)18952_storage))": {
        "encoding": "mapping",
        "key": "t_address",
        "label": "mapping(address => mapping(uint256 => struct MasterChef.RewardPoolLookupInfo))",
        "numberOfBytes": "32",
        "value": "t_mapping(t_uint256,t_struct(RewardPoolLookupInfo)18952_storage)"
      },
      "t_mapping(t_address,t_struct(MarketFactoryInfo)18942_storage)": {
        "encoding": "mapping",
        "key": "t_address",
        "label": "mapping(address => struct MasterChef.MarketFactoryInfo)",
        "numberOfBytes": "32",
        "value": "t_struct(MarketFactoryInfo)18942_storage"
      },
      "t_mapping(t_address,t_struct(UserInfo)18880_storage)": {
        "encoding": "mapping",
        "key": "t_address",
        "label": "mapping(address => struct MasterChef.UserInfo)",
        "numberOfBytes": "32",
        "value": "t_struct(UserInfo)18880_storage"
      },
      "t_mapping(t_uint256,t_mapping(t_address,t_struct(UserInfo)18880_storage))": {
        "encoding": "mapping",
        "key": "t_uint256",
        "label": "mapping(uint256 => mapping(address => struct MasterChef.UserInfo))",
        "numberOfBytes": "32",
        "value": "t_mapping(t_address,t_struct(UserInfo)18880_storage)"
      },
      "t_mapping(t_uint256,t_struct(RewardPoolLookupInfo)18952_storage)": {
        "encoding": "mapping",
        "key": "t_uint256",
        "label": "mapping(uint256 => struct MasterChef.RewardPoolLookupInfo)",
        "numberOfBytes": "32",
        "value": "t_struct(RewardPoolLookupInfo)18952_storage"
      },
      "t_struct(MarketFactoryInfo)18942_storage": {
        "encoding": "inplace",
        "label": "struct MasterChef.MarketFactoryInfo",
        "members": [
          {
            "astId": 18937,
            "contract": "contracts/rewards/MasterChef.sol:MasterChef",
            "label": "earlyDepositBonusRewards",
            "offset": 0,
            "slot": "0",
            "type": "t_uint256"
          },
          {
            "astId": 18939,
            "contract": "contracts/rewards/MasterChef.sol:MasterChef",
            "label": "rewardsPeriods",
            "offset": 0,
            "slot": "1",
            "type": "t_uint256"
          },
          {
            "astId": 18941,
            "contract": "contracts/rewards/MasterChef.sol:MasterChef",
            "label": "rewardsPerPeriod",
            "offset": 0,
            "slot": "2",
            "type": "t_uint256"
          }
        ],
        "numberOfBytes": "96"
      },
      "t_struct(PoolInfo)18905_storage": {
        "encoding": "inplace",
        "label": "struct MasterChef.PoolInfo",
        "members": [
          {
            "astId": 18890,
            "contract": "contracts/rewards/MasterChef.sol:MasterChef",
            "label": "lpToken",
            "offset": 0,
            "slot": "0",
            "type": "t_contract(IERC20)1871"
          },
          {
            "astId": 18892,
            "contract": "contracts/rewards/MasterChef.sol:MasterChef",
            "label": "accRewardsPerShare",
            "offset": 0,
            "slot": "1",
            "type": "t_uint256"
          },
          {
            "astId": 18894,
            "contract": "contracts/rewards/MasterChef.sol:MasterChef",
            "label": "totalEarlyDepositBonusRewardShares",
            "offset": 0,
            "slot": "2",
            "type": "t_uint256"
          },
          {
            "astId": 18896,
            "contract": "contracts/rewards/MasterChef.sol:MasterChef",
            "label": "beginTimestamp",
            "offset": 0,
            "slot": "3",
            "type": "t_uint256"
          },
          {
            "astId": 18898,
            "contract": "contracts/rewards/MasterChef.sol:MasterChef",
            "label": "endTimestamp",
            "offset": 0,
            "slot": "4",
            "type": "t_uint256"
          },
          {
            "astId": 18900,
            "contract": "contracts/rewards/MasterChef.sol:MasterChef",
            "label": "earlyDepositBonusRewards",
            "offset": 0,
            "slot": "5",
            "type": "t_uint256"
          },
          {
            "astId": 18902,
            "contract": "contracts/rewards/MasterChef.sol:MasterChef",
            "label": "lastRewardTimestamp",
            "offset": 0,
            "slot": "6",
            "type": "t_uint256"
          },
          {
            "astId": 18904,
            "contract": "contracts/rewards/MasterChef.sol:MasterChef",
            "label": "rewardsPerSecond",
            "offset": 0,
            "slot": "7",
            "type": "t_uint256"
          }
        ],
        "numberOfBytes": "256"
      },
      "t_struct(RewardPoolLookupInfo)18952_storage": {
        "encoding": "inplace",
        "label": "struct MasterChef.RewardPoolLookupInfo",
        "members": [
          {
            "astId": 18949,
            "contract": "contracts/rewards/MasterChef.sol:MasterChef",
            "label": "pid",
            "offset": 0,
            "slot": "0",
            "type": "t_uint256"
          },
          {
            "astId": 18951,
            "contract": "contracts/rewards/MasterChef.sol:MasterChef",
            "label": "created",
            "offset": 0,
            "slot": "1",
            "type": "t_bool"
          }
        ],
        "numberOfBytes": "64"
      },
      "t_struct(UserInfo)18880_storage": {
        "encoding": "inplace",
        "label": "struct MasterChef.UserInfo",
        "members": [
          {
            "astId": 18875,
            "contract": "contracts/rewards/MasterChef.sol:MasterChef",
            "label": "amount",
            "offset": 0,
            "slot": "0",
            "type": "t_uint256"
          },
          {
            "astId": 18877,
            "contract": "contracts/rewards/MasterChef.sol:MasterChef",
            "label": "rewardDebt",
            "offset": 0,
            "slot": "1",
            "type": "t_uint256"
          },
          {
            "astId": 18879,
            "contract": "contracts/rewards/MasterChef.sol:MasterChef",
            "label": "lastActionTimestamp",
            "offset": 0,
            "slot": "2",
            "type": "t_uint256"
          }
        ],
        "numberOfBytes": "96"
      },
      "t_uint256": {
        "encoding": "inplace",
        "label": "uint256",
        "numberOfBytes": "32"
      }
    }
  }
}