{
  "address": "0x23B6e59815CE428eCE3FA0a50bFf52D33d089785",
  "abi": [
    {
      "inputs": [
        {
          "internalType": "address",
          "name": "_controller",
          "type": "address"
        }
      ],
      "stateMutability": "nonpayable",
      "type": "constructor"
    },
    {
      "anonymous": false,
      "inputs": [
        {
          "indexed": true,
          "internalType": "address",
          "name": "owner",
          "type": "address"
        },
        {
          "indexed": true,
          "internalType": "address",
          "name": "spender",
          "type": "address"
        },
        {
          "indexed": true,
          "internalType": "uint256",
          "name": "id",
          "type": "uint256"
        }
      ],
      "name": "Approval",
      "type": "event"
    },
    {
      "anonymous": false,
      "inputs": [
        {
          "indexed": true,
          "internalType": "address",
          "name": "owner",
          "type": "address"
        },
        {
          "indexed": true,
          "internalType": "address",
          "name": "operator",
          "type": "address"
        },
        {
          "indexed": false,
          "internalType": "bool",
          "name": "approved",
          "type": "bool"
        }
      ],
      "name": "ApprovalForAll",
      "type": "event"
    },
    {
      "anonymous": false,
      "inputs": [
        {
          "indexed": true,
          "internalType": "address",
          "name": "from",
          "type": "address"
        },
        {
          "indexed": true,
          "internalType": "address",
          "name": "to",
          "type": "address"
        },
        {
          "indexed": true,
          "internalType": "uint256",
          "name": "id",
          "type": "uint256"
        }
      ],
      "name": "Transfer",
      "type": "event"
    },
    {
      "inputs": [
        {
          "internalType": "address",
          "name": "to",
          "type": "address"
        },
        {
          "internalType": "uint256",
          "name": "score",
          "type": "uint256"
        }
      ],
      "name": "addAverageScore",
      "outputs": [],
      "stateMutability": "nonpayable",
      "type": "function"
    },
    {
      "inputs": [
        {
          "internalType": "address",
          "name": "to",
          "type": "address"
        },
        {
          "internalType": "uint256",
          "name": "score",
          "type": "uint256"
        }
      ],
      "name": "addScore",
      "outputs": [],
      "stateMutability": "nonpayable",
      "type": "function"
    },
    {
      "inputs": [
        {
          "internalType": "address",
          "name": "spender",
          "type": "address"
        },
        {
          "internalType": "uint256",
          "name": "id",
          "type": "uint256"
        }
      ],
      "name": "approve",
      "outputs": [],
      "stateMutability": "nonpayable",
      "type": "function"
    },
    {
      "inputs": [
        {
          "internalType": "address",
          "name": "owner",
          "type": "address"
        }
      ],
      "name": "balanceOf",
      "outputs": [
        {
          "internalType": "uint256",
          "name": "",
          "type": "uint256"
        }
      ],
      "stateMutability": "view",
      "type": "function"
    },
    {
      "inputs": [
        {
          "internalType": "uint256",
          "name": "",
          "type": "uint256"
        },
        {
          "internalType": "address",
          "name": "",
          "type": "address"
        }
      ],
      "name": "balances",
      "outputs": [
        {
          "internalType": "uint256",
          "name": "",
          "type": "uint256"
        }
      ],
      "stateMutability": "view",
      "type": "function"
    },
    {
      "inputs": [
        {
          "internalType": "address",
          "name": "to",
          "type": "address"
        },
        {
          "internalType": "uint256",
          "name": "score",
          "type": "uint256"
        }
      ],
      "name": "decrementScore",
      "outputs": [],
      "stateMutability": "nonpayable",
      "type": "function"
    },
    {
      "inputs": [
        {
          "internalType": "uint256",
          "name": "",
          "type": "uint256"
        }
      ],
      "name": "getApproved",
      "outputs": [
        {
          "internalType": "address",
          "name": "",
          "type": "address"
        }
      ],
      "stateMutability": "view",
      "type": "function"
    },
    {
      "inputs": [],
      "name": "getAvailableTopX",
      "outputs": [
        {
          "internalType": "uint256",
          "name": "",
          "type": "uint256"
        }
      ],
      "stateMutability": "view",
      "type": "function"
    },
    {
      "inputs": [],
      "name": "getAvailableTraderNum",
      "outputs": [
        {
          "internalType": "uint256",
          "name": "",
          "type": "uint256"
        }
      ],
      "stateMutability": "view",
      "type": "function"
    },
    {
      "inputs": [
        {
          "internalType": "uint256",
          "name": "topX",
          "type": "uint256"
        },
        {
          "internalType": "uint256",
          "name": "marketId",
          "type": "uint256"
        }
      ],
      "name": "getMinRepScore",
      "outputs": [
        {
          "internalType": "uint256",
          "name": "",
          "type": "uint256"
        }
      ],
      "stateMutability": "view",
      "type": "function"
    },
    {
      "inputs": [
        {
          "internalType": "address",
          "name": "owner",
          "type": "address"
        }
      ],
      "name": "getReputationScore",
      "outputs": [
        {
          "internalType": "uint256",
          "name": "",
          "type": "uint256"
        }
      ],
      "stateMutability": "view",
      "type": "function"
    },
    {
      "inputs": [
        {
          "internalType": "uint256",
          "name": "marketId",
          "type": "uint256"
        },
        {
          "internalType": "address",
          "name": "trader",
          "type": "address"
        },
        {
          "internalType": "uint256",
          "name": "amount",
          "type": "uint256"
        }
      ],
      "name": "incrementBalance",
      "outputs": [],
      "stateMutability": "nonpayable",
      "type": "function"
    },
    {
      "inputs": [
        {
          "internalType": "address",
          "name": "",
          "type": "address"
        },
        {
          "internalType": "address",
          "name": "",
          "type": "address"
        }
      ],
      "name": "isApprovedForAll",
      "outputs": [
        {
          "internalType": "bool",
          "name": "",
          "type": "bool"
        }
      ],
      "stateMutability": "view",
      "type": "function"
    },
    {
      "inputs": [
        {
          "internalType": "address",
          "name": "to",
          "type": "address"
        }
      ],
      "name": "mint",
      "outputs": [],
      "stateMutability": "nonpayable",
      "type": "function"
    },
    {
      "inputs": [],
      "name": "name",
      "outputs": [
        {
          "internalType": "string",
          "name": "",
          "type": "string"
        }
      ],
      "stateMutability": "view",
      "type": "function"
    },
    {
      "inputs": [
        {
          "internalType": "uint256",
          "name": "id",
          "type": "uint256"
        }
      ],
      "name": "ownerOf",
      "outputs": [
        {
          "internalType": "address",
          "name": "owner",
          "type": "address"
        }
      ],
      "stateMutability": "view",
      "type": "function"
    },
    {
      "inputs": [
        {
          "internalType": "uint256",
          "name": "marketId",
          "type": "uint256"
        },
        {
          "internalType": "address",
          "name": "trader",
          "type": "address"
        }
      ],
      "name": "removeBalance",
      "outputs": [],
      "stateMutability": "nonpayable",
      "type": "function"
    },
    {
      "inputs": [
        {
          "internalType": "address",
          "name": "to",
          "type": "address"
        }
      ],
      "name": "resetScore",
      "outputs": [],
      "stateMutability": "nonpayable",
      "type": "function"
    },
    {
      "inputs": [
        {
          "internalType": "address",
          "name": "from",
          "type": "address"
        },
        {
          "internalType": "address",
          "name": "to",
          "type": "address"
        },
        {
          "internalType": "uint256",
          "name": "id",
          "type": "uint256"
        }
      ],
      "name": "safeTransferFrom",
      "outputs": [],
      "stateMutability": "nonpayable",
      "type": "function"
    },
    {
      "inputs": [
        {
          "internalType": "address",
          "name": "from",
          "type": "address"
        },
        {
          "internalType": "address",
          "name": "to",
          "type": "address"
        },
        {
          "internalType": "uint256",
          "name": "id",
          "type": "uint256"
        },
        {
          "internalType": "bytes",
          "name": "data",
          "type": "bytes"
        }
      ],
      "name": "safeTransferFrom",
      "outputs": [],
      "stateMutability": "nonpayable",
      "type": "function"
    },
    {
      "inputs": [
        {
          "internalType": "address",
          "name": "operator",
          "type": "address"
        },
        {
          "internalType": "bool",
          "name": "approved",
          "type": "bool"
        }
      ],
      "name": "setApprovalForAll",
      "outputs": [],
      "stateMutability": "nonpayable",
      "type": "function"
    },
    {
      "inputs": [
        {
          "internalType": "uint256",
          "name": "topX",
          "type": "uint256"
        },
        {
          "internalType": "uint256",
          "name": "marketId",
          "type": "uint256"
        }
      ],
      "name": "storeTopReputation",
      "outputs": [],
      "stateMutability": "nonpayable",
      "type": "function"
    },
    {
      "inputs": [
        {
          "internalType": "bytes4",
          "name": "interfaceId",
          "type": "bytes4"
        }
      ],
      "name": "supportsInterface",
      "outputs": [
        {
          "internalType": "bool",
          "name": "",
          "type": "bool"
        }
      ],
      "stateMutability": "view",
      "type": "function"
    },
    {
      "inputs": [],
      "name": "symbol",
      "outputs": [
        {
          "internalType": "string",
          "name": "",
          "type": "string"
        }
      ],
      "stateMutability": "view",
      "type": "function"
    },
    {
      "inputs": [],
      "name": "testStore",
      "outputs": [],
      "stateMutability": "view",
      "type": "function"
    },
    {
      "inputs": [
        {
          "internalType": "uint256",
          "name": "id",
          "type": "uint256"
        }
      ],
      "name": "tokenURI",
      "outputs": [
        {
          "internalType": "string",
          "name": "",
          "type": "string"
        }
      ],
      "stateMutability": "view",
      "type": "function"
    },
    {
      "inputs": [
        {
          "internalType": "uint256",
          "name": "marketId",
          "type": "uint256"
        },
        {
          "internalType": "address",
          "name": "trader",
          "type": "address"
        }
      ],
      "name": "traderCanTrade",
      "outputs": [
        {
          "internalType": "bool",
          "name": "",
          "type": "bool"
        }
      ],
      "stateMutability": "nonpayable",
      "type": "function"
    },
    {
      "inputs": [
        {
          "internalType": "address",
          "name": "from",
          "type": "address"
        },
        {
          "internalType": "address",
          "name": "to",
          "type": "address"
        },
        {
          "internalType": "uint256",
          "name": "id",
          "type": "uint256"
        }
      ],
      "name": "transferFrom",
      "outputs": [],
      "stateMutability": "nonpayable",
      "type": "function"
    }
  ],
  "transactionHash": "0x0dee1452398316ae99a19a8d5165db874853d8affee72611a9eef54fd0093025",
  "args": [
    "0x10F3BcF56c012d46B04C9C7C7FFEeb332C25684D"
  ],
  "numDeployments": 7,
  "solcInputHash": "16dc79075d4ab3f83e464f67cd882f79",
  "bytecode": "0x60806040526001600955670de0b6b3a7640000600b553480156200002257600080fd5b5060405162001c0d38038062001c0d83398101604081905262000045916200018b565b604080518082018252601781527f4465626974612052657075746174696f6e20546f6b656e00000000000000000060208083019182528351808501909452600384526211149560ea1b908401528151919291620000a591600091620000e5565b508051620000bb906001906020840190620000e5565b5050600a80546001600160a01b0319166001600160a01b03939093169290921790915550620001f8565b828054620000f390620001bb565b90600052602060002090601f01602090048101928262000117576000855562000162565b82601f106200013257805160ff191683800117855562000162565b8280016001018555821562000162579182015b828111156200016257825182559160200191906001019062000145565b506200017092915062000174565b5090565b5b8082111562000170576000815560010162000175565b6000602082840312156200019d578081fd5b81516001600160a01b0381168114620001b4578182fd5b9392505050565b600181811c90821680620001d057607f821691505b60208210811415620001f257634e487b7160e01b600052602260045260246000fd5b50919050565b611a0580620002086000396000f3fe608060405234801561001057600080fd5b50600436106101c45760003560e01c806379c718ae116100f9578063b66fe3a011610097578063d119db4c11610071578063d119db4c146103d2578063e4385f35146103e5578063e985e9c5146103f8578063ee33db4d1461042657600080fd5b8063b66fe3a0146103a4578063b88d4fde146103ac578063c87b56dd146103bf57600080fd5b806395d89b41116100d357806395d89b411461036e57806396510b1214610376578063a22cb4651461037e578063b5e39ec31461039157600080fd5b806379c718ae146103405780637b2e22b81461035357806384fcaa061461036657600080fd5b806331e062b8116101665780636352211e116101405780636352211e146102f45780636a6278421461030757806370a082311461031a57806375a67d5c1461032d57600080fd5b806331e062b8146102bb57806333620eb8146102ce57806342842e0e146102e157600080fd5b8063095ea7b3116101a2578063095ea7b3146102475780631f3203311461025c578063224e1c2d1461029557806323b872dd146102a857600080fd5b806301ffc9a7146101c957806306fdde03146101f1578063081812fc14610206575b600080fd5b6101dc6101d7366004611707565b610439565b60405190151581526020015b60405180910390f35b6101f961048b565b6040516101e8919061185d565b61022f61021436600461173f565b6004602052600090815260409020546001600160a01b031681565b6040516001600160a01b0390911681526020016101e8565b61025a6102553660046116de565b610519565b005b61028761026a366004611757565b60d860209081526000928352604080842090915290825290205481565b6040519081526020016101e8565b61025a6102a33660046116de565b610600565b61025a6102b63660046115d3565b6106b1565b61025a6102c936600461179d565b610878565b61025a6102dc366004611587565b61093c565b61025a6102ef3660046115d3565b61099e565b61022f61030236600461173f565b610aa0565b61025a610315366004611587565b610af7565b610287610328366004611587565b610bc4565b61028761033b366004611587565b610c27565b61025a61034e3660046116de565b610c88565b6101dc610361366004611757565b610d5c565b60d754610287565b6101f9610da7565b610287610db4565b61025a61038c3660046116a4565b610dca565b61028761039f36600461179d565b610e36565b61025a610e81565b61025a6103ba36600461160e565b610ef1565b6101f96103cd36600461173f565b610fe8565b61025a6103e03660046116de565b6110a4565b61025a6103f3366004611757565b611125565b6101dc6104063660046115a1565b600560209081526000928352604080842090915290825290205460ff1681565b61025a610434366004611779565b611162565b60006301ffc9a760e01b6001600160e01b03198316148061046a57506380ac58cd60e01b6001600160e01b03198316145b806104855750635b5e139f60e01b6001600160e01b03198316145b92915050565b600080546104989061194d565b80601f01602080910402602001604051908101604052809291908181526020018280546104c49061194d565b80156105115780601f106104e657610100808354040283529160200191610511565b820191906000526020600020905b8154815290600101906020018083116104f457829003601f168201915b505050505081565b6000818152600260205260409020546001600160a01b03163381148061056257506001600160a01b038116600090815260056020908152604080832033845290915290205460ff165b6105a45760405162461bcd60e51b815260206004820152600e60248201526d1393d517d055551213d49256915160921b60448201526064015b60405180910390fd5b60008281526004602052604080822080546001600160a01b0319166001600160a01b0387811691821790925591518593918516917f8c5be1e5ebec7d5bd14f71427d1e84f3dd0314c0f7b2291e5b200ac8c7c3b92591a4505050565b600a546001600160a01b0316331461061757600080fd5b6001600160a01b03821660009081526007602052604090205461064c5760405162461bcd60e51b815260040161059b90611892565b6001600160a01b03821660009081526007602090815260408083205483526006909152902060018101548210610688576000600182015561069e565b81816001015461069891906118ef565b60018201555b6106ac8160010154846111b5565b505050565b6000818152600260205260409020546001600160a01b038481169116146107075760405162461bcd60e51b815260206004820152600a60248201526957524f4e475f46524f4d60b01b604482015260640161059b565b6001600160a01b0382166107515760405162461bcd60e51b81526020600482015260116024820152701253959053125117d49150d25412515395607a1b604482015260640161059b565b336001600160a01b038416148061078b57506001600160a01b038316600090815260056020908152604080832033845290915290205460ff165b806107ac57506000818152600460205260409020546001600160a01b031633145b6107e95760405162461bcd60e51b815260206004820152600e60248201526d1393d517d055551213d49256915160921b604482015260640161059b565b6001600160a01b0380841660008181526003602090815260408083208054600019019055938616808352848320805460010190558583526002825284832080546001600160a01b03199081168317909155600490925284832080549092169091559251849392917fddf252ad1be2c89b69c2b068fc378daa952ba7f163c4a11628f55a4df523b3ef91a4505050565b600a546001600160a01b0316331461088f57600080fd5b8161089960d75490565b10156108bc57600081815260d560205260409020805460ff191660011790555050565b60005b828110156106ac57600082815260d460205260408120600191600c84606481106108f957634e487b7160e01b600052603260045260246000fd5b60020201546001600160a01b031681526020810191909152604001600020805460ff19169115159190911790558061093081611988565b9150506108bf565b5050565b6001600160a01b0381166000908152600760205260409020546109715760405162461bcd60e51b815260040161059b90611892565b6001600160a01b031660009081526007602090815260408083205483526006909152812081815560010155565b6109a98383836106b1565b6001600160a01b0382163b1580610a615750604051630a85bd0160e11b8082523360048301526001600160a01b03858116602484015260448301849052608060648401526000608484015290919084169063150b7a029060a401602060405180830381600087803b158015610a1d57600080fd5b505af1158015610a31573d6000803e3d6000fd5b505050506040513d601f19601f82011682018060405250810190610a559190611723565b6001600160e01b031916145b6106ac5760405162461bcd60e51b815260206004820152601060248201526f155394d0519157d49150d2541251539560821b604482015260640161059b565b6000818152600260205260409020546001600160a01b031680610af25760405162461bcd60e51b815260206004820152600a6024820152691393d517d3525395115160b21b604482015260640161059b565b919050565b6001600160a01b03811660009081526007602052604090205415610b685760405162461bcd60e51b815260206004820152602260248201527f63616e206f6e6c79206d696e74206f6e652072657075746174696f6e20746f6b60448201526132b760f11b606482015260840161059b565b610b7481600954611404565b600980546001600160a01b038316600090815260076020908152604080832084905592825260069052908120670de0b6b3a764000060019091015581549190610bbc83611988565b919050555050565b60006001600160a01b038216610c0b5760405162461bcd60e51b815260206004820152600c60248201526b5a45524f5f4144445245535360a01b604482015260640161059b565b506001600160a01b031660009081526003602052604090205490565b6001600160a01b038116600090815260076020526040812054610c5c5760405162461bcd60e51b815260040161059b90611892565b506001600160a01b03166000908152600760209081526040808320548352600690915290206001015490565b600a546001600160a01b03163314610c9f57600080fd5b6001600160a01b038216600090815260076020526040902054610cd45760405162461bcd60e51b815260040161059b90611892565b6001600160a01b0382166000908152600760209081526040808320548352600690915290208054610d0b5760018101829055610d44565b8054610d189060016118b7565b815460018301548491610d2a916118cf565b610d3491906118b7565b610d3e91906118cf565b60018201555b8054816000610d5283611988565b9190505550505050565b600082815260d5602052604081205460ff16610d9d57600083815260d4602090815260408083206001600160a01b038616845290915290205460ff16610da0565b60015b9392505050565b600180546104989061194d565b60006001600954610dc591906118ef565b905090565b3360008181526005602090815260408083206001600160a01b03871680855290835292819020805460ff191686151590811790915590519081529192917f17307eab39ab6107e8899845ad3d59bd9653f200f220920489ca2b5937696c31910160405180910390a35050565b600082610e4260d75490565b1015610e5057506000610485565b600c8360648110610e7157634e487b7160e01b600052603260045260246000fd5b6002020160010154905092915050565b60005b600a811015610eee57610edc6040518060400160405280600581526020016473636f726560d81b815250600c8360648110610ecf57634e487b7160e01b600052603260045260246000fd5b600202016001015461150f565b80610ee681611988565b915050610e84565b50565b610efc8585856106b1565b6001600160a01b0384163b1580610fa25750604051630a85bd0160e11b808252906001600160a01b0386169063150b7a0290610f449033908a9089908990899060040161180c565b602060405180830381600087803b158015610f5e57600080fd5b505af1158015610f72573d6000803e3d6000fd5b505050506040513d601f19601f82011682018060405250810190610f969190611723565b6001600160e01b031916145b610fe15760405162461bcd60e51b815260206004820152601060248201526f155394d0519157d49150d2541251539560821b604482015260640161059b565b5050505050565b6000818152600260205260409020546060906001600160a01b03166110445760405162461bcd60e51b815260206004820152601260248201527124b73b30b634b21024b232b73a34b334b2b960711b604482015260640161059b565b600061105b60408051602081019091526000815290565b9050600081511161107b5760405180602001604052806000815250610da0565b808360405160200161108e9291906117ea565b6040516020818303038152906040529392505050565b600a546001600160a01b031633146110bb57600080fd5b6001600160a01b0382166000908152600760205260409020546110f05760405162461bcd60e51b815260040161059b90611892565b6001600160a01b03821660009081526007602090815260408083205483526006909152902060018101546106989083906118b7565b600a546001600160a01b0316331461113c57600080fd5b600091825260d8602090815260408084206001600160a01b039093168452919052812055565b600a546001600160a01b0316331461117957600080fd5b600083815260d8602090815260408083206001600160a01b0386168452909152812080548392906111ab9084906118b7565b9091555050505050565b60005b60648110156112085782600c82606481106111e357634e487b7160e01b600052603260045260246000fd5b600202016001015410156111f657611208565b8061120081611988565b9150506111b8565b6000611216600160646118ef565b90505b8181111561131057600c61122e6001836118ef565b6064811061124c57634e487b7160e01b600052603260045260246000fd5b6002020160010154600c826064811061127557634e487b7160e01b600052603260045260246000fd5b6002020160010181905550600c60018261128f91906118ef565b606481106112ad57634e487b7160e01b600052603260045260246000fd5b60020201546001600160a01b0316600c82606481106112dc57634e487b7160e01b600052603260045260246000fd5b6002020180546001600160a01b0319166001600160a01b03929092169190911790558061130881611936565b915050611219565b5082600c826064811061133357634e487b7160e01b600052603260045260246000fd5b600202016001018190555081600c826064811061136057634e487b7160e01b600052603260045260246000fd5b6002020180546001600160a01b0319166001600160a01b039283161790558216600090815260d6602052604090205460ff161561139c57505050565b506001600160a01b0316600081815260d660205260408120805460ff1916600190811790915560d7805491820181559091527f8a012a6de2943a5aa4d77acf5e695d4456760a3f1f30a5d6dc2079599187a0710180546001600160a01b031916909117905550565b6001600160a01b03821661144e5760405162461bcd60e51b81526020600482015260116024820152701253959053125117d49150d25412515395607a1b604482015260640161059b565b6000818152600260205260409020546001600160a01b0316156114a45760405162461bcd60e51b815260206004820152600e60248201526d1053149150511657d3525395115160921b604482015260640161059b565b6001600160a01b038216600081815260036020908152604080832080546001019055848352600290915280822080546001600160a01b0319168417905551839291907fddf252ad1be2c89b69c2b068fc378daa952ba7f163c4a11628f55a4df523b3ef908290a45050565b6109388282604051602401611525929190611870565b60408051601f198184030181529190526020810180516001600160e01b03166309710a9d60e41b17905280516a636f6e736f6c652e6c6f67602083016000808483855afa5050505050565b80356001600160a01b0381168114610af257600080fd5b600060208284031215611598578081fd5b610da082611570565b600080604083850312156115b3578081fd5b6115bc83611570565b91506115ca60208401611570565b90509250929050565b6000806000606084860312156115e7578081fd5b6115f084611570565b92506115fe60208501611570565b9150604084013590509250925092565b600080600080600060808688031215611625578081fd5b61162e86611570565b945061163c60208701611570565b935060408601359250606086013567ffffffffffffffff8082111561165f578283fd5b818801915088601f830112611672578283fd5b813581811115611680578384fd5b896020828501011115611691578384fd5b9699959850939650602001949392505050565b600080604083850312156116b6578182fd5b6116bf83611570565b9150602083013580151581146116d3578182fd5b809150509250929050565b600080604083850312156116f0578182fd5b6116f983611570565b946020939093013593505050565b600060208284031215611718578081fd5b8135610da0816119b9565b600060208284031215611734578081fd5b8151610da0816119b9565b600060208284031215611750578081fd5b5035919050565b60008060408385031215611769578182fd5b823591506115ca60208401611570565b60008060006060848603121561178d578283fd5b833592506115fe60208501611570565b600080604083850312156117af578182fd5b50508035926020909101359150565b600081518084526117d6816020860160208601611906565b601f01601f19169290920160200192915050565b600083516117fc818460208801611906565b9190910191825250602001919050565b6001600160a01b038681168252851660208201526040810184905260806060820181905281018290526000828460a084013781830160a090810191909152601f909201601f19160101949350505050565b602081526000610da060208301846117be565b60408152600061188360408301856117be565b90508260208301529392505050565b6020808252600b908201526a139bc8125908199bdd5b9960aa1b604082015260600190565b600082198211156118ca576118ca6119a3565b500190565b6000826118ea57634e487b7160e01b81526012600452602481fd5b500490565b600082821015611901576119016119a3565b500390565b60005b83811015611921578181015183820152602001611909565b83811115611930576000848401525b50505050565b600081611945576119456119a3565b506000190190565b600181811c9082168061196157607f821691505b6020821081141561198257634e487b7160e01b600052602260045260246000fd5b50919050565b600060001982141561199c5761199c6119a3565b5060010190565b634e487b7160e01b600052601160045260246000fd5b6001600160e01b031981168114610eee57600080fdfea26469706673582212206556601e2356de3d65bf0077fe16ae0c16fd2fed108e82b867e1b9fc0ccfcbba64736f6c63430008040033",
  "devdoc": {
    "kind": "dev",
    "methods": {
      "addAverageScore(address,uint256)": {
        "params": {
          "score": ": 60.18 format"
        }
      },
      "addScore(address,uint256)": {
        "params": {
          "score": ": 60.18 format"
        }
      },
      "getMinRepScore(uint256,uint256)": {
        "details": "returns 0 if topX is greater then avaiable nonzero rep scores-> everyone is allowed during reputation constraint periods "
      }
    },
    "version": 1
  },
  "userdoc": {
    "kind": "user",
    "methods": {
      "addAverageScore(address,uint256)": {
        "notice": "calculates average of scores added."
      },
      "addScore(address,uint256)": {
        "notice": "add scores and stores topX "
      },
      "getMinRepScore(uint256,uint256)": {
        "notice": "gets the x's ranked score from all reputation scores "
      },
      "incrementBalance(uint256,address,uint256)": {
        "notice": "incrementBalance"
      },
      "removeBalance(uint256,address)": {
        "notice": "called post reputation update"
      },
      "resetScore(address)": {
        "notice": "reset scores"
      },
      "storeTopReputation(uint256,uint256)": {
        "notice": "called by controller when initiating market,"
      },
      "traderCanTrade(uint256,address)": {
        "notice": "whether trader is above reputation threshold "
      }
    },
    "version": 1
  },
  "storageLayout": {
    "storage": [
      {
        "astId": 26890,
        "contract": "contracts/protocol/reputationtoken.sol:ReputationNFT",
        "label": "name",
        "offset": 0,
        "slot": "0",
        "type": "t_string_storage"
      },
      {
        "astId": 26892,
        "contract": "contracts/protocol/reputationtoken.sol:ReputationNFT",
        "label": "symbol",
        "offset": 0,
        "slot": "1",
        "type": "t_string_storage"
      },
      {
        "astId": 26903,
        "contract": "contracts/protocol/reputationtoken.sol:ReputationNFT",
        "label": "_ownerOf",
        "offset": 0,
        "slot": "2",
        "type": "t_mapping(t_uint256,t_address)"
      },
      {
        "astId": 26907,
        "contract": "contracts/protocol/reputationtoken.sol:ReputationNFT",
        "label": "_balanceOf",
        "offset": 0,
        "slot": "3",
        "type": "t_mapping(t_address,t_uint256)"
      },
      {
        "astId": 26956,
        "contract": "contracts/protocol/reputationtoken.sol:ReputationNFT",
        "label": "getApproved",
        "offset": 0,
        "slot": "4",
        "type": "t_mapping(t_uint256,t_address)"
      },
      {
        "astId": 26962,
        "contract": "contracts/protocol/reputationtoken.sol:ReputationNFT",
        "label": "isApprovedForAll",
        "offset": 0,
        "slot": "5",
        "type": "t_mapping(t_address,t_mapping(t_address,t_bool))"
      },
      {
        "astId": 11549,
        "contract": "contracts/protocol/reputationtoken.sol:ReputationNFT",
        "label": "_reputation",
        "offset": 0,
        "slot": "6",
        "type": "t_mapping(t_uint256,t_struct(ReputationData)11573_storage)"
      },
      {
        "astId": 11553,
        "contract": "contracts/protocol/reputationtoken.sol:ReputationNFT",
        "label": "_ownerToId",
        "offset": 0,
        "slot": "7",
        "type": "t_mapping(t_address,t_uint256)"
      },
      {
        "astId": 11559,
        "contract": "contracts/protocol/reputationtoken.sol:ReputationNFT",
        "label": "_marketData",
        "offset": 0,
        "slot": "8",
        "type": "t_mapping(t_uint256,t_array(t_struct(TraderData)11578_storage)dyn_storage)"
      },
      {
        "astId": 11562,
        "contract": "contracts/protocol/reputationtoken.sol:ReputationNFT",
        "label": "nonce",
        "offset": 0,
        "slot": "9",
        "type": "t_uint256"
      },
      {
        "astId": 11565,
        "contract": "contracts/protocol/reputationtoken.sol:ReputationNFT",
        "label": "controller",
        "offset": 0,
        "slot": "10",
        "type": "t_contract(Controller)7787"
      },
      {
        "astId": 11568,
        "contract": "contracts/protocol/reputationtoken.sol:ReputationNFT",
        "label": "SCALE",
        "offset": 0,
        "slot": "11",
        "type": "t_uint256"
      },
      {
        "astId": 11591,
        "contract": "contracts/protocol/reputationtoken.sol:ReputationNFT",
        "label": "topReputations",
        "offset": 0,
        "slot": "12",
        "type": "t_array(t_struct(TopReputation)11583_storage)100_storage"
      },
      {
        "astId": 11597,
        "contract": "contracts/protocol/reputationtoken.sol:ReputationNFT",
        "label": "canTrade",
        "offset": 0,
        "slot": "212",
        "type": "t_mapping(t_uint256,t_mapping(t_address,t_bool))"
      },
      {
        "astId": 11601,
        "contract": "contracts/protocol/reputationtoken.sol:ReputationNFT",
        "label": "allowAll",
        "offset": 0,
        "slot": "213",
        "type": "t_mapping(t_uint256,t_bool)"
      },
      {
        "astId": 11605,
        "contract": "contracts/protocol/reputationtoken.sol:ReputationNFT",
        "label": "isUnique",
        "offset": 0,
        "slot": "214",
        "type": "t_mapping(t_address,t_bool)"
      },
      {
        "astId": 11608,
        "contract": "contracts/protocol/reputationtoken.sol:ReputationNFT",
        "label": "unique_traders",
        "offset": 0,
        "slot": "215",
        "type": "t_array(t_address)dyn_storage"
      },
      {
        "astId": 11614,
        "contract": "contracts/protocol/reputationtoken.sol:ReputationNFT",
        "label": "balances",
        "offset": 0,
        "slot": "216",
        "type": "t_mapping(t_uint256,t_mapping(t_address,t_uint256))"
      }
    ],
    "types": {
      "t_address": {
        "encoding": "inplace",
        "label": "address",
        "numberOfBytes": "20"
      },
      "t_array(t_address)dyn_storage": {
        "base": "t_address",
        "encoding": "dynamic_array",
        "label": "address[]",
        "numberOfBytes": "32"
      },
      "t_array(t_struct(TopReputation)11583_storage)100_storage": {
        "base": "t_struct(TopReputation)11583_storage",
        "encoding": "inplace",
        "label": "struct ReputationNFT.TopReputation[100]",
        "numberOfBytes": "6400"
      },
      "t_array(t_struct(TraderData)11578_storage)dyn_storage": {
        "base": "t_struct(TraderData)11578_storage",
        "encoding": "dynamic_array",
        "label": "struct ReputationNFT.TraderData[]",
        "numberOfBytes": "32"
      },
      "t_bool": {
        "encoding": "inplace",
        "label": "bool",
        "numberOfBytes": "1"
      },
      "t_contract(Controller)7787": {
        "encoding": "inplace",
        "label": "contract Controller",
        "numberOfBytes": "20"
      },
      "t_mapping(t_address,t_bool)": {
        "encoding": "mapping",
        "key": "t_address",
        "label": "mapping(address => bool)",
        "numberOfBytes": "32",
        "value": "t_bool"
      },
      "t_mapping(t_address,t_mapping(t_address,t_bool))": {
        "encoding": "mapping",
        "key": "t_address",
        "label": "mapping(address => mapping(address => bool))",
        "numberOfBytes": "32",
        "value": "t_mapping(t_address,t_bool)"
      },
      "t_mapping(t_address,t_uint256)": {
        "encoding": "mapping",
        "key": "t_address",
        "label": "mapping(address => uint256)",
        "numberOfBytes": "32",
        "value": "t_uint256"
      },
      "t_mapping(t_uint256,t_address)": {
        "encoding": "mapping",
        "key": "t_uint256",
        "label": "mapping(uint256 => address)",
        "numberOfBytes": "32",
        "value": "t_address"
      },
      "t_mapping(t_uint256,t_array(t_struct(TraderData)11578_storage)dyn_storage)": {
        "encoding": "mapping",
        "key": "t_uint256",
        "label": "mapping(uint256 => struct ReputationNFT.TraderData[])",
        "numberOfBytes": "32",
        "value": "t_array(t_struct(TraderData)11578_storage)dyn_storage"
      },
      "t_mapping(t_uint256,t_bool)": {
        "encoding": "mapping",
        "key": "t_uint256",
        "label": "mapping(uint256 => bool)",
        "numberOfBytes": "32",
        "value": "t_bool"
      },
      "t_mapping(t_uint256,t_mapping(t_address,t_bool))": {
        "encoding": "mapping",
        "key": "t_uint256",
        "label": "mapping(uint256 => mapping(address => bool))",
        "numberOfBytes": "32",
        "value": "t_mapping(t_address,t_bool)"
      },
      "t_mapping(t_uint256,t_mapping(t_address,t_uint256))": {
        "encoding": "mapping",
        "key": "t_uint256",
        "label": "mapping(uint256 => mapping(address => uint256))",
        "numberOfBytes": "32",
        "value": "t_mapping(t_address,t_uint256)"
      },
      "t_mapping(t_uint256,t_struct(ReputationData)11573_storage)": {
        "encoding": "mapping",
        "key": "t_uint256",
        "label": "mapping(uint256 => struct ReputationNFT.ReputationData)",
        "numberOfBytes": "32",
        "value": "t_struct(ReputationData)11573_storage"
      },
      "t_string_storage": {
        "encoding": "bytes",
        "label": "string",
        "numberOfBytes": "32"
      },
      "t_struct(ReputationData)11573_storage": {
        "encoding": "inplace",
        "label": "struct ReputationNFT.ReputationData",
        "members": [
          {
            "astId": 11570,
            "contract": "contracts/protocol/reputationtoken.sol:ReputationNFT",
            "label": "n",
            "offset": 0,
            "slot": "0",
            "type": "t_uint256"
          },
          {
            "astId": 11572,
            "contract": "contracts/protocol/reputationtoken.sol:ReputationNFT",
            "label": "score",
            "offset": 0,
            "slot": "1",
            "type": "t_uint256"
          }
        ],
        "numberOfBytes": "64"
      },
      "t_struct(TopReputation)11583_storage": {
        "encoding": "inplace",
        "label": "struct ReputationNFT.TopReputation",
        "members": [
          {
            "astId": 11580,
            "contract": "contracts/protocol/reputationtoken.sol:ReputationNFT",
            "label": "trader",
            "offset": 0,
            "slot": "0",
            "type": "t_address"
          },
          {
            "astId": 11582,
            "contract": "contracts/protocol/reputationtoken.sol:ReputationNFT",
            "label": "score",
            "offset": 0,
            "slot": "1",
            "type": "t_uint256"
          }
        ],
        "numberOfBytes": "64"
      },
      "t_struct(TraderData)11578_storage": {
        "encoding": "inplace",
        "label": "struct ReputationNFT.TraderData",
        "members": [
          {
            "astId": 11575,
            "contract": "contracts/protocol/reputationtoken.sol:ReputationNFT",
            "label": "trader",
            "offset": 0,
            "slot": "0",
            "type": "t_address"
          },
          {
            "astId": 11577,
            "contract": "contracts/protocol/reputationtoken.sol:ReputationNFT",
            "label": "tokensBought",
            "offset": 0,
            "slot": "1",
            "type": "t_uint256"
          }
        ],
        "numberOfBytes": "64"
      },
      "t_uint256": {
        "encoding": "inplace",
        "label": "uint256",
        "numberOfBytes": "32"
      }
    }
  }
}