{
  "address": "0xFe41448d7948836E13638f5a0e0FbB533Eae9914",
  "abi": [
    {
      "inputs": [
        {
          "internalType": "address",
          "name": "_controller",
          "type": "address"
        }
      ],
      "stateMutability": "nonpayable",
      "type": "constructor"
    },
    {
      "anonymous": false,
      "inputs": [
        {
          "indexed": true,
          "internalType": "address",
          "name": "owner",
          "type": "address"
        },
        {
          "indexed": true,
          "internalType": "address",
          "name": "spender",
          "type": "address"
        },
        {
          "indexed": true,
          "internalType": "uint256",
          "name": "id",
          "type": "uint256"
        }
      ],
      "name": "Approval",
      "type": "event"
    },
    {
      "anonymous": false,
      "inputs": [
        {
          "indexed": true,
          "internalType": "address",
          "name": "owner",
          "type": "address"
        },
        {
          "indexed": true,
          "internalType": "address",
          "name": "operator",
          "type": "address"
        },
        {
          "indexed": false,
          "internalType": "bool",
          "name": "approved",
          "type": "bool"
        }
      ],
      "name": "ApprovalForAll",
      "type": "event"
    },
    {
      "anonymous": false,
      "inputs": [
        {
          "indexed": true,
          "internalType": "address",
          "name": "from",
          "type": "address"
        },
        {
          "indexed": true,
          "internalType": "address",
          "name": "to",
          "type": "address"
        },
        {
          "indexed": true,
          "internalType": "uint256",
          "name": "id",
          "type": "uint256"
        }
      ],
      "name": "Transfer",
      "type": "event"
    },
    {
      "inputs": [
        {
          "internalType": "address",
          "name": "to",
          "type": "address"
        },
        {
          "internalType": "uint256",
          "name": "score",
          "type": "uint256"
        },
        {
          "internalType": "bool",
          "name": "atLoss",
          "type": "bool"
        }
      ],
      "name": "addScore",
      "outputs": [],
      "stateMutability": "nonpayable",
      "type": "function"
    },
    {
      "inputs": [
        {
          "internalType": "address",
          "name": "spender",
          "type": "address"
        },
        {
          "internalType": "uint256",
          "name": "id",
          "type": "uint256"
        }
      ],
      "name": "approve",
      "outputs": [],
      "stateMutability": "nonpayable",
      "type": "function"
    },
    {
      "inputs": [
        {
          "internalType": "address",
          "name": "owner",
          "type": "address"
        }
      ],
      "name": "balanceOf",
      "outputs": [
        {
          "internalType": "uint256",
          "name": "",
          "type": "uint256"
        }
      ],
      "stateMutability": "view",
      "type": "function"
    },
    {
      "inputs": [
        {
          "internalType": "uint256",
          "name": "",
          "type": "uint256"
        }
      ],
      "name": "getApproved",
      "outputs": [
        {
          "internalType": "address",
          "name": "",
          "type": "address"
        }
      ],
      "stateMutability": "view",
      "type": "function"
    },
    {
      "inputs": [
        {
          "internalType": "address",
          "name": "owner",
          "type": "address"
        }
      ],
      "name": "getReputationScore",
      "outputs": [
        {
          "internalType": "uint256",
          "name": "",
          "type": "uint256"
        }
      ],
      "stateMutability": "view",
      "type": "function"
    },
    {
      "inputs": [
        {
          "internalType": "address",
          "name": "",
          "type": "address"
        },
        {
          "internalType": "address",
          "name": "",
          "type": "address"
        }
      ],
      "name": "isApprovedForAll",
      "outputs": [
        {
          "internalType": "bool",
          "name": "",
          "type": "bool"
        }
      ],
      "stateMutability": "view",
      "type": "function"
    },
    {
      "inputs": [
        {
          "internalType": "address",
          "name": "to",
          "type": "address"
        }
      ],
      "name": "mint",
      "outputs": [],
      "stateMutability": "nonpayable",
      "type": "function"
    },
    {
      "inputs": [],
      "name": "name",
      "outputs": [
        {
          "internalType": "string",
          "name": "",
          "type": "string"
        }
      ],
      "stateMutability": "view",
      "type": "function"
    },
    {
      "inputs": [
        {
          "internalType": "uint256",
          "name": "id",
          "type": "uint256"
        }
      ],
      "name": "ownerOf",
      "outputs": [
        {
          "internalType": "address",
          "name": "owner",
          "type": "address"
        }
      ],
      "stateMutability": "view",
      "type": "function"
    },
    {
      "inputs": [
        {
          "internalType": "address",
          "name": "to",
          "type": "address"
        }
      ],
      "name": "resetScore",
      "outputs": [],
      "stateMutability": "nonpayable",
      "type": "function"
    },
    {
      "inputs": [
        {
          "internalType": "address",
          "name": "from",
          "type": "address"
        },
        {
          "internalType": "address",
          "name": "to",
          "type": "address"
        },
        {
          "internalType": "uint256",
          "name": "id",
          "type": "uint256"
        }
      ],
      "name": "safeTransferFrom",
      "outputs": [],
      "stateMutability": "nonpayable",
      "type": "function"
    },
    {
      "inputs": [
        {
          "internalType": "address",
          "name": "from",
          "type": "address"
        },
        {
          "internalType": "address",
          "name": "to",
          "type": "address"
        },
        {
          "internalType": "uint256",
          "name": "id",
          "type": "uint256"
        },
        {
          "internalType": "bytes",
          "name": "data",
          "type": "bytes"
        }
      ],
      "name": "safeTransferFrom",
      "outputs": [],
      "stateMutability": "nonpayable",
      "type": "function"
    },
    {
      "inputs": [
        {
          "internalType": "address",
          "name": "operator",
          "type": "address"
        },
        {
          "internalType": "bool",
          "name": "approved",
          "type": "bool"
        }
      ],
      "name": "setApprovalForAll",
      "outputs": [],
      "stateMutability": "nonpayable",
      "type": "function"
    },
    {
      "inputs": [
        {
          "internalType": "bytes4",
          "name": "interfaceId",
          "type": "bytes4"
        }
      ],
      "name": "supportsInterface",
      "outputs": [
        {
          "internalType": "bool",
          "name": "",
          "type": "bool"
        }
      ],
      "stateMutability": "view",
      "type": "function"
    },
    {
      "inputs": [],
      "name": "symbol",
      "outputs": [
        {
          "internalType": "string",
          "name": "",
          "type": "string"
        }
      ],
      "stateMutability": "view",
      "type": "function"
    },
    {
      "inputs": [
        {
          "internalType": "uint256",
          "name": "id",
          "type": "uint256"
        }
      ],
      "name": "tokenURI",
      "outputs": [
        {
          "internalType": "string",
          "name": "",
          "type": "string"
        }
      ],
      "stateMutability": "view",
      "type": "function"
    },
    {
      "inputs": [
        {
          "internalType": "address",
          "name": "from",
          "type": "address"
        },
        {
          "internalType": "address",
          "name": "to",
          "type": "address"
        },
        {
          "internalType": "uint256",
          "name": "id",
          "type": "uint256"
        }
      ],
      "name": "transferFrom",
      "outputs": [],
      "stateMutability": "nonpayable",
      "type": "function"
    }
  ],
  "transactionHash": "0x7a61163f4b585136586262da99c4b9e39d69ba8e678259aff5a2fe6b339301f7",
  "args": [
    "0x446742632C24a42B21C13F1D3e3B53AcFAe237C4"
  ],
  "numDeployments": 2,
  "solcInputHash": "8691fb0b2a39bd5a97393529a6363a7b",
  "bytecode": "0x60806040526001600955670de0b6b3a7640000600b553480156200002257600080fd5b50604051620014e1380380620014e183398101604081905262000045916200022b565b604080518082018252601781527f4465626974612052657075746174696f6e20546f6b656e00000000000000000060208083019182528351808501909452600384526211149560ea1b908401528151919291620000a59160009162000185565b508051620000bb90600190602084019062000185565b505050620000f0604051806040016040528060048152602001636865726560e01b8152506200011660201b62000c651760201c565b600a80546001600160a01b0319166001600160a01b0392909216919091179055620002ee565b62000161816040516024016200012d91906200025b565b60408051601f198184030181529190526020810180516001600160e01b0390811663104c13eb60e21b179091526200016416565b50565b80516a636f6e736f6c652e6c6f67602083016000808483855afa5050505050565b8280546200019390620002b1565b90600052602060002090601f016020900481019282620001b7576000855562000202565b82601f10620001d257805160ff191683800117855562000202565b8280016001018555821562000202579182015b8281111562000202578251825591602001919060010190620001e5565b506200021092915062000214565b5090565b5b8082111562000210576000815560010162000215565b6000602082840312156200023d578081fd5b81516001600160a01b038116811462000254578182fd5b9392505050565b6000602080835283518082850152825b8181101562000289578581018301518582016040015282016200026b565b818111156200029b5783604083870101525b50601f01601f1916929092016040019392505050565b600181811c90821680620002c657607f821691505b60208210811415620002e857634e487b7160e01b600052602260045260246000fd5b50919050565b6111e380620002fe6000396000f3fe608060405234801561001057600080fd5b506004361061010b5760003560e01c80636352211e116100a257806395d89b411161007157806395d89b4114610249578063a22cb46514610251578063b88d4fde14610264578063c87b56dd14610277578063e985e9c51461028a57600080fd5b80636352211e146101ef5780636a6278421461020257806370a082311461021557806375a67d5c1461023657600080fd5b80630b19c264116100de5780630b19c264146101a357806323b872dd146101b657806333620eb8146101c957806342842e0e146101dc57600080fd5b806301ffc9a71461011057806306fdde0314610138578063081812fc1461014d578063095ea7b31461018e575b600080fd5b61012361011e366004610fa8565b6102b8565b60405190151581526020015b60405180910390f35b61014061030a565b60405161012f919061106b565b61017661015b366004610fe0565b6004602052600090815260409020546001600160a01b031681565b6040516001600160a01b03909116815260200161012f565b6101a161019c366004610f44565b610398565b005b6101a16101b1366004610f6d565b61047f565b6101a16101c4366004610e4a565b61053d565b6101a16101d7366004610dfe565b610704565b6101a16101ea366004610e4a565b610766565b6101766101fd366004610fe0565b61086d565b6101a1610210366004610dfe565b6108c4565b610228610223366004610dfe565b610974565b60405190815260200161012f565b610228610244366004610dfe565b6109d7565b610140610a38565b6101a161025f366004610f1b565b610a45565b6101a1610272366004610e85565b610ab1565b610140610285366004610fe0565b610ba8565b610123610298366004610e18565b600560209081526000928352604080842090915290825290205460ff1681565b60006301ffc9a760e01b6001600160e01b0319831614806102e957506380ac58cd60e01b6001600160e01b03198316145b806103045750635b5e139f60e01b6001600160e01b03198316145b92915050565b600080546103179061112b565b80601f01602080910402602001604051908101604052809291908181526020018280546103439061112b565b80156103905780601f1061036557610100808354040283529160200191610390565b820191906000526020600020905b81548152906001019060200180831161037357829003601f168201915b505050505081565b6000818152600260205260409020546001600160a01b0316338114806103e157506001600160a01b038116600090815260056020908152604080832033845290915290205460ff165b6104235760405162461bcd60e51b815260206004820152600e60248201526d1393d517d055551213d49256915160921b60448201526064015b60405180910390fd5b60008281526004602052604080822080546001600160a01b0319166001600160a01b0387811691821790925591518593918516917f8c5be1e5ebec7d5bd14f71427d1e84f3dd0314c0f7b2291e5b200ac8c7c3b92591a4505050565b6001600160a01b0383166000908152600760205260409020546104b45760405162461bcd60e51b815260040161041a9061109e565b6001600160a01b03831660009081526007602090815260408083205483526006909152902080546104eb5760018101839055610524565b80546104f89060016110c3565b81546001830154859161050a916110db565b61051491906110c3565b61051e91906110db565b60018201555b805481600061053283611166565b919050555050505050565b6000818152600260205260409020546001600160a01b038481169116146105935760405162461bcd60e51b815260206004820152600a60248201526957524f4e475f46524f4d60b01b604482015260640161041a565b6001600160a01b0382166105dd5760405162461bcd60e51b81526020600482015260116024820152701253959053125117d49150d25412515395607a1b604482015260640161041a565b336001600160a01b038416148061061757506001600160a01b038316600090815260056020908152604080832033845290915290205460ff165b8061063857506000818152600460205260409020546001600160a01b031633145b6106755760405162461bcd60e51b815260206004820152600e60248201526d1393d517d055551213d49256915160921b604482015260640161041a565b6001600160a01b0380841660008181526003602090815260408083208054600019019055938616808352848320805460010190558583526002825284832080546001600160a01b03199081168317909155600490925284832080549092169091559251849392917fddf252ad1be2c89b69c2b068fc378daa952ba7f163c4a11628f55a4df523b3ef91a4505050565b6001600160a01b0381166000908152600760205260409020546107395760405162461bcd60e51b815260040161041a9061109e565b6001600160a01b031660009081526007602090815260408083205483526006909152812081815560010155565b61077183838361053d565b6001600160a01b0382163b15806108295750604051630a85bd0160e11b8082523360048301526001600160a01b03858116602484015260448301849052608060648401526000608484015290919084169063150b7a029060a401602060405180830381600087803b1580156107e557600080fd5b505af11580156107f9573d6000803e3d6000fd5b505050506040513d601f19601f8201168201806040525081019061081d9190610fc4565b6001600160e01b031916145b6108685760405162461bcd60e51b815260206004820152601060248201526f155394d0519157d49150d2541251539560821b604482015260640161041a565b505050565b6000818152600260205260409020546001600160a01b0316806108bf5760405162461bcd60e51b815260206004820152600a6024820152691393d517d3525395115160b21b604482015260640161041a565b919050565b6001600160a01b038116600090815260076020526040902054156109355760405162461bcd60e51b815260206004820152602260248201527f63616e206f6e6c79206d696e74206f6e652072657075746174696f6e20746f6b60448201526132b760f11b606482015260840161041a565b61094181600954610cab565b600980546001600160a01b038316600090815260076020526040812082905590919061096c83611166565b919050555050565b60006001600160a01b0382166109bb5760405162461bcd60e51b815260206004820152600c60248201526b5a45524f5f4144445245535360a01b604482015260640161041a565b506001600160a01b031660009081526003602052604090205490565b6001600160a01b038116600090815260076020526040812054610a0c5760405162461bcd60e51b815260040161041a9061109e565b506001600160a01b03166000908152600760209081526040808320548352600690915290206001015490565b600180546103179061112b565b3360008181526005602090815260408083206001600160a01b03871680855290835292819020805460ff191686151590811790915590519081529192917f17307eab39ab6107e8899845ad3d59bd9653f200f220920489ca2b5937696c31910160405180910390a35050565b610abc85858561053d565b6001600160a01b0384163b1580610b625750604051630a85bd0160e11b808252906001600160a01b0386169063150b7a0290610b049033908a9089908990899060040161101a565b602060405180830381600087803b158015610b1e57600080fd5b505af1158015610b32573d6000803e3d6000fd5b505050506040513d601f19601f82011682018060405250810190610b569190610fc4565b6001600160e01b031916145b610ba15760405162461bcd60e51b815260206004820152601060248201526f155394d0519157d49150d2541251539560821b604482015260640161041a565b5050505050565b6000818152600260205260409020546060906001600160a01b0316610c045760405162461bcd60e51b815260206004820152601260248201527124b73b30b634b21024b232b73a34b334b2b960711b604482015260640161041a565b6000610c1b60408051602081019091526000815290565b90506000815111610c3b5760405180602001604052806000815250610c5e565b8083604051602001610c4e929190610ff8565b6040516020818303038152906040525b9392505050565b610ca881604051602401610c79919061106b565b60408051601f198184030181529190526020810180516001600160e01b031663104c13eb60e21b179052610db6565b50565b6001600160a01b038216610cf55760405162461bcd60e51b81526020600482015260116024820152701253959053125117d49150d25412515395607a1b604482015260640161041a565b6000818152600260205260409020546001600160a01b031615610d4b5760405162461bcd60e51b815260206004820152600e60248201526d1053149150511657d3525395115160921b604482015260640161041a565b6001600160a01b038216600081815260036020908152604080832080546001019055848352600290915280822080546001600160a01b0319168417905551839291907fddf252ad1be2c89b69c2b068fc378daa952ba7f163c4a11628f55a4df523b3ef908290a45050565b80516a636f6e736f6c652e6c6f67602083016000808483855afa5050505050565b80356001600160a01b03811681146108bf57600080fd5b803580151581146108bf57600080fd5b600060208284031215610e0f578081fd5b610c5e82610dd7565b60008060408385031215610e2a578081fd5b610e3383610dd7565b9150610e4160208401610dd7565b90509250929050565b600080600060608486031215610e5e578081fd5b610e6784610dd7565b9250610e7560208501610dd7565b9150604084013590509250925092565b600080600080600060808688031215610e9c578081fd5b610ea586610dd7565b9450610eb360208701610dd7565b935060408601359250606086013567ffffffffffffffff80821115610ed6578283fd5b818801915088601f830112610ee9578283fd5b813581811115610ef7578384fd5b896020828501011115610f08578384fd5b9699959850939650602001949392505050565b60008060408385031215610f2d578182fd5b610f3683610dd7565b9150610e4160208401610dee565b60008060408385031215610f56578182fd5b610f5f83610dd7565b946020939093013593505050565b600080600060608486031215610f81578283fd5b610f8a84610dd7565b925060208401359150610f9f60408501610dee565b90509250925092565b600060208284031215610fb9578081fd5b8135610c5e81611197565b600060208284031215610fd5578081fd5b8151610c5e81611197565b600060208284031215610ff1578081fd5b5035919050565b6000835161100a8184602088016110fb565b9190910191825250602001919050565b6001600160a01b038681168252851660208201526040810184905260806060820181905281018290526000828460a084013781830160a090810191909152601f909201601f19160101949350505050565b602081526000825180602084015261108a8160408501602087016110fb565b601f01601f19169190910160400192915050565b6020808252600b908201526a139bc8125908199bdd5b9960aa1b604082015260600190565b600082198211156110d6576110d6611181565b500190565b6000826110f657634e487b7160e01b81526012600452602481fd5b500490565b60005b838110156111165781810151838201526020016110fe565b83811115611125576000848401525b50505050565b600181811c9082168061113f57607f821691505b6020821081141561116057634e487b7160e01b600052602260045260246000fd5b50919050565b600060001982141561117a5761117a611181565b5060010190565b634e487b7160e01b600052601160045260246000fd5b6001600160e01b031981168114610ca857600080fdfea264697066735822122055aae420d303ccf72a5f5741b3a81cbae996ce1c5048a010eb990688a156860064736f6c63430008040033",
  "devdoc": {
    "kind": "dev",
    "methods": {
      "addScore(address,uint256,bool)": {
        "params": {
          "score": ": 60.18 format"
        }
      }
    },
    "version": 1
  },
  "userdoc": {
    "kind": "user",
    "methods": {
      "addScore(address,uint256,bool)": {
        "notice": "calculates average of scores added."
      },
      "resetScore(address)": {
        "notice": "reset scores"
      }
    },
    "version": 1
  },
  "storageLayout": {
    "storage": [
      {
        "astId": 63824,
        "contract": "contracts/stablecoin/reputationtoken.sol:ReputationNFT",
        "label": "name",
        "offset": 0,
        "slot": "0",
        "type": "t_string_storage"
      },
      {
        "astId": 63826,
        "contract": "contracts/stablecoin/reputationtoken.sol:ReputationNFT",
        "label": "symbol",
        "offset": 0,
        "slot": "1",
        "type": "t_string_storage"
      },
      {
        "astId": 63837,
        "contract": "contracts/stablecoin/reputationtoken.sol:ReputationNFT",
        "label": "_ownerOf",
        "offset": 0,
        "slot": "2",
        "type": "t_mapping(t_uint256,t_address)"
      },
      {
        "astId": 63841,
        "contract": "contracts/stablecoin/reputationtoken.sol:ReputationNFT",
        "label": "_balanceOf",
        "offset": 0,
        "slot": "3",
        "type": "t_mapping(t_address,t_uint256)"
      },
      {
        "astId": 63890,
        "contract": "contracts/stablecoin/reputationtoken.sol:ReputationNFT",
        "label": "getApproved",
        "offset": 0,
        "slot": "4",
        "type": "t_mapping(t_uint256,t_address)"
      },
      {
        "astId": 63896,
        "contract": "contracts/stablecoin/reputationtoken.sol:ReputationNFT",
        "label": "isApprovedForAll",
        "offset": 0,
        "slot": "5",
        "type": "t_mapping(t_address,t_mapping(t_address,t_bool))"
      },
      {
        "astId": 27692,
        "contract": "contracts/stablecoin/reputationtoken.sol:ReputationNFT",
        "label": "_reputation",
        "offset": 0,
        "slot": "6",
        "type": "t_mapping(t_uint256,t_struct(ReputationData)27716_storage)"
      },
      {
        "astId": 27696,
        "contract": "contracts/stablecoin/reputationtoken.sol:ReputationNFT",
        "label": "_ownerToId",
        "offset": 0,
        "slot": "7",
        "type": "t_mapping(t_address,t_uint256)"
      },
      {
        "astId": 27702,
        "contract": "contracts/stablecoin/reputationtoken.sol:ReputationNFT",
        "label": "_marketData",
        "offset": 0,
        "slot": "8",
        "type": "t_mapping(t_uint256,t_array(t_struct(TraderData)27721_storage)dyn_storage)"
      },
      {
        "astId": 27705,
        "contract": "contracts/stablecoin/reputationtoken.sol:ReputationNFT",
        "label": "nonce",
        "offset": 0,
        "slot": "9",
        "type": "t_uint256"
      },
      {
        "astId": 27708,
        "contract": "contracts/stablecoin/reputationtoken.sol:ReputationNFT",
        "label": "controller",
        "offset": 0,
        "slot": "10",
        "type": "t_contract(Controller)22706"
      },
      {
        "astId": 27711,
        "contract": "contracts/stablecoin/reputationtoken.sol:ReputationNFT",
        "label": "SCALE",
        "offset": 0,
        "slot": "11",
        "type": "t_uint256"
      }
    ],
    "types": {
      "t_address": {
        "encoding": "inplace",
        "label": "address",
        "numberOfBytes": "20"
      },
      "t_array(t_struct(TraderData)27721_storage)dyn_storage": {
        "base": "t_struct(TraderData)27721_storage",
        "encoding": "dynamic_array",
        "label": "struct ReputationNFT.TraderData[]",
        "numberOfBytes": "32"
      },
      "t_bool": {
        "encoding": "inplace",
        "label": "bool",
        "numberOfBytes": "1"
      },
      "t_contract(Controller)22706": {
        "encoding": "inplace",
        "label": "contract Controller",
        "numberOfBytes": "20"
      },
      "t_mapping(t_address,t_bool)": {
        "encoding": "mapping",
        "key": "t_address",
        "label": "mapping(address => bool)",
        "numberOfBytes": "32",
        "value": "t_bool"
      },
      "t_mapping(t_address,t_mapping(t_address,t_bool))": {
        "encoding": "mapping",
        "key": "t_address",
        "label": "mapping(address => mapping(address => bool))",
        "numberOfBytes": "32",
        "value": "t_mapping(t_address,t_bool)"
      },
      "t_mapping(t_address,t_uint256)": {
        "encoding": "mapping",
        "key": "t_address",
        "label": "mapping(address => uint256)",
        "numberOfBytes": "32",
        "value": "t_uint256"
      },
      "t_mapping(t_uint256,t_address)": {
        "encoding": "mapping",
        "key": "t_uint256",
        "label": "mapping(uint256 => address)",
        "numberOfBytes": "32",
        "value": "t_address"
      },
      "t_mapping(t_uint256,t_array(t_struct(TraderData)27721_storage)dyn_storage)": {
        "encoding": "mapping",
        "key": "t_uint256",
        "label": "mapping(uint256 => struct ReputationNFT.TraderData[])",
        "numberOfBytes": "32",
        "value": "t_array(t_struct(TraderData)27721_storage)dyn_storage"
      },
      "t_mapping(t_uint256,t_struct(ReputationData)27716_storage)": {
        "encoding": "mapping",
        "key": "t_uint256",
        "label": "mapping(uint256 => struct ReputationNFT.ReputationData)",
        "numberOfBytes": "32",
        "value": "t_struct(ReputationData)27716_storage"
      },
      "t_string_storage": {
        "encoding": "bytes",
        "label": "string",
        "numberOfBytes": "32"
      },
      "t_struct(ReputationData)27716_storage": {
        "encoding": "inplace",
        "label": "struct ReputationNFT.ReputationData",
        "members": [
          {
            "astId": 27713,
            "contract": "contracts/stablecoin/reputationtoken.sol:ReputationNFT",
            "label": "n",
            "offset": 0,
            "slot": "0",
            "type": "t_uint256"
          },
          {
            "astId": 27715,
            "contract": "contracts/stablecoin/reputationtoken.sol:ReputationNFT",
            "label": "score",
            "offset": 0,
            "slot": "1",
            "type": "t_uint256"
          }
        ],
        "numberOfBytes": "64"
      },
      "t_struct(TraderData)27721_storage": {
        "encoding": "inplace",
        "label": "struct ReputationNFT.TraderData",
        "members": [
          {
            "astId": 27718,
            "contract": "contracts/stablecoin/reputationtoken.sol:ReputationNFT",
            "label": "trader",
            "offset": 0,
            "slot": "0",
            "type": "t_address"
          },
          {
            "astId": 27720,
            "contract": "contracts/stablecoin/reputationtoken.sol:ReputationNFT",
            "label": "tokensBought",
            "offset": 0,
            "slot": "1",
            "type": "t_uint256"
          }
        ],
        "numberOfBytes": "64"
      },
      "t_uint256": {
        "encoding": "inplace",
        "label": "uint256",
        "numberOfBytes": "32"
      }
    }
  }
}