{
  "address": "0xa74CD2148e30A451205270E94229B2dA547dB315",
  "abi": [
    {
      "inputs": [
        {
          "internalType": "string",
          "name": "_name",
          "type": "string"
        },
        {
          "internalType": "string",
          "name": "_symbol",
          "type": "string"
        },
        {
          "internalType": "address",
          "name": "_deployer_address",
          "type": "address"
        },
        {
          "internalType": "address",
          "name": "_timelock_address",
          "type": "address"
        },
        {
          "internalType": "address",
          "name": "_ds_address",
          "type": "address"
        }
      ],
      "stateMutability": "nonpayable",
      "type": "constructor"
    },
    {
      "anonymous": false,
      "inputs": [
        {
          "indexed": true,
          "internalType": "address",
          "name": "owner",
          "type": "address"
        },
        {
          "indexed": true,
          "internalType": "address",
          "name": "spender",
          "type": "address"
        },
        {
          "indexed": false,
          "internalType": "uint256",
          "name": "value",
          "type": "uint256"
        }
      ],
      "name": "Approval",
      "type": "event"
    },
    {
      "anonymous": false,
      "inputs": [
        {
          "indexed": false,
          "internalType": "address",
          "name": "oldOwner",
          "type": "address"
        },
        {
          "indexed": false,
          "internalType": "address",
          "name": "newOwner",
          "type": "address"
        }
      ],
      "name": "OwnerChanged",
      "type": "event"
    },
    {
      "anonymous": false,
      "inputs": [
        {
          "indexed": false,
          "internalType": "address",
          "name": "newOwner",
          "type": "address"
        }
      ],
      "name": "OwnerNominated",
      "type": "event"
    },
    {
      "anonymous": false,
      "inputs": [
        {
          "indexed": true,
          "internalType": "address",
          "name": "from",
          "type": "address"
        },
        {
          "indexed": true,
          "internalType": "address",
          "name": "to",
          "type": "address"
        },
        {
          "indexed": false,
          "internalType": "uint256",
          "name": "value",
          "type": "uint256"
        }
      ],
      "name": "Transfer",
      "type": "event"
    },
    {
      "inputs": [],
      "name": "acceptOwnership",
      "outputs": [],
      "stateMutability": "nonpayable",
      "type": "function"
    },
    {
      "inputs": [
        {
          "internalType": "address",
          "name": "pool_address",
          "type": "address"
        }
      ],
      "name": "addPool",
      "outputs": [],
      "stateMutability": "nonpayable",
      "type": "function"
    },
    {
      "inputs": [
        {
          "internalType": "address",
          "name": "owner",
          "type": "address"
        },
        {
          "internalType": "address",
          "name": "spender",
          "type": "address"
        }
      ],
      "name": "allowance",
      "outputs": [
        {
          "internalType": "uint256",
          "name": "",
          "type": "uint256"
        }
      ],
      "stateMutability": "view",
      "type": "function"
    },
    {
      "inputs": [
        {
          "internalType": "address",
          "name": "spender",
          "type": "address"
        },
        {
          "internalType": "uint256",
          "name": "amount",
          "type": "uint256"
        }
      ],
      "name": "approve",
      "outputs": [
        {
          "internalType": "bool",
          "name": "",
          "type": "bool"
        }
      ],
      "stateMutability": "nonpayable",
      "type": "function"
    },
    {
      "inputs": [
        {
          "internalType": "address",
          "name": "account",
          "type": "address"
        }
      ],
      "name": "balanceOf",
      "outputs": [
        {
          "internalType": "uint256",
          "name": "",
          "type": "uint256"
        }
      ],
      "stateMutability": "view",
      "type": "function"
    },
    {
      "inputs": [
        {
          "internalType": "address",
          "name": "account",
          "type": "address"
        },
        {
          "internalType": "uint256",
          "name": "amount",
          "type": "uint256"
        },
        {
          "internalType": "uint256",
          "name": "exchange_rate",
          "type": "uint256"
        }
      ],
      "name": "burn",
      "outputs": [],
      "stateMutability": "nonpayable",
      "type": "function"
    },
    {
      "inputs": [],
      "name": "decimals",
      "outputs": [
        {
          "internalType": "uint8",
          "name": "",
          "type": "uint8"
        }
      ],
      "stateMutability": "view",
      "type": "function"
    },
    {
      "inputs": [
        {
          "internalType": "address",
          "name": "spender",
          "type": "address"
        },
        {
          "internalType": "uint256",
          "name": "subtractedValue",
          "type": "uint256"
        }
      ],
      "name": "decreaseAllowance",
      "outputs": [
        {
          "internalType": "bool",
          "name": "",
          "type": "bool"
        }
      ],
      "stateMutability": "nonpayable",
      "type": "function"
    },
    {
      "inputs": [
        {
          "internalType": "address",
          "name": "spender",
          "type": "address"
        },
        {
          "internalType": "uint256",
          "name": "addedValue",
          "type": "uint256"
        }
      ],
      "name": "increaseAllowance",
      "outputs": [
        {
          "internalType": "bool",
          "name": "",
          "type": "bool"
        }
      ],
      "stateMutability": "nonpayable",
      "type": "function"
    },
    {
      "inputs": [
        {
          "internalType": "address",
          "name": "to",
          "type": "address"
        },
        {
          "internalType": "uint256",
          "name": "amount",
          "type": "uint256"
        },
        {
          "internalType": "uint256",
          "name": "exchange_rate",
          "type": "uint256"
        }
      ],
      "name": "mint",
      "outputs": [],
      "stateMutability": "nonpayable",
      "type": "function"
    },
    {
      "inputs": [],
      "name": "name",
      "outputs": [
        {
          "internalType": "string",
          "name": "",
          "type": "string"
        }
      ],
      "stateMutability": "view",
      "type": "function"
    },
    {
      "inputs": [
        {
          "internalType": "address",
          "name": "_owner",
          "type": "address"
        }
      ],
      "name": "nominateNewOwner",
      "outputs": [],
      "stateMutability": "nonpayable",
      "type": "function"
    },
    {
      "inputs": [],
      "name": "nominatedOwner",
      "outputs": [
        {
          "internalType": "address",
          "name": "",
          "type": "address"
        }
      ],
      "stateMutability": "view",
      "type": "function"
    },
    {
      "inputs": [],
      "name": "owner",
      "outputs": [
        {
          "internalType": "address",
          "name": "",
          "type": "address"
        }
      ],
      "stateMutability": "view",
      "type": "function"
    },
    {
      "inputs": [
        {
          "internalType": "uint256",
          "name": "",
          "type": "uint256"
        }
      ],
      "name": "pools_array",
      "outputs": [
        {
          "internalType": "address",
          "name": "",
          "type": "address"
        }
      ],
      "stateMutability": "view",
      "type": "function"
    },
    {
      "inputs": [],
      "name": "symbol",
      "outputs": [
        {
          "internalType": "string",
          "name": "",
          "type": "string"
        }
      ],
      "stateMutability": "view",
      "type": "function"
    },
    {
      "inputs": [],
      "name": "totalSupply",
      "outputs": [
        {
          "internalType": "uint256",
          "name": "",
          "type": "uint256"
        }
      ],
      "stateMutability": "view",
      "type": "function"
    },
    {
      "inputs": [
        {
          "internalType": "address",
          "name": "to",
          "type": "address"
        },
        {
          "internalType": "uint256",
          "name": "amount",
          "type": "uint256"
        }
      ],
      "name": "transfer",
      "outputs": [
        {
          "internalType": "bool",
          "name": "",
          "type": "bool"
        }
      ],
      "stateMutability": "nonpayable",
      "type": "function"
    },
    {
      "inputs": [
        {
          "internalType": "address",
          "name": "from",
          "type": "address"
        },
        {
          "internalType": "address",
          "name": "to",
          "type": "address"
        },
        {
          "internalType": "uint256",
          "name": "amount",
          "type": "uint256"
        }
      ],
      "name": "transferFrom",
      "outputs": [
        {
          "internalType": "bool",
          "name": "",
          "type": "bool"
        }
      ],
      "stateMutability": "nonpayable",
      "type": "function"
    }
  ],
  "transactionHash": "0x4fe4f56636ee3f049ec0f6bf5d84cb4b17ad219ff0ff9e4515b3110853b5537e",
  "args": [
    "stakedDS",
    "sDS",
    "0xFD84b7AC1E646580db8c77f1f05F47977fAda692",
    "0xFD84b7AC1E646580db8c77f1f05F47977fAda692",
    "0x9d1c89B9bD2Fb153cE6838eF10BB37bB5F4e1528"
  ],
  "solcInputHash": "63a65ea2c7a8d8e451dc9af7f6162f0d",
  "bytecode": "0x60806040523480156200001157600080fd5b506040516200172438038062001724833981810160405260a08110156200003757600080fd5b81019080805160405193929190846401000000008211156200005857600080fd5b9083019060208201858111156200006e57600080fd5b82516401000000008111828201881017156200008957600080fd5b82525081516020918201929091019080838360005b83811015620000b85781810151838201526020016200009e565b50505050905090810190601f168015620000e65780820380516001836020036101000a031916815260200191505b50604052602001805160405193929190846401000000008211156200010a57600080fd5b9083019060208201858111156200012057600080fd5b82516401000000008111828201881017156200013b57600080fd5b82525081516020918201929091019080838360005b838110156200016a57818101518382015260200162000150565b50505050905090810190601f168015620001985780820380516001836020036101000a031916815260200191505b506040908152602082810151918301516060909301518751929550929350849187918791620001ce9160039190850190620002e4565b508051620001e4906004906020840190620002e4565b5050506001600160a01b03811662000243576040805162461bcd60e51b815260206004820152601960248201527f4f776e657220616464726573732063616e6e6f74206265203000000000000000604482015290519081900360640190fd5b600580546001600160a01b0319166001600160a01b0383169081179091556040805160008152602081019290925280517fb532073b38c83145e3e5135377a08bf9aab55bc0fd7c1179cd4fb995d2a5159c9281900390910190a150600980546001600160a01b039485166001600160a01b031991821617909155600a805493851693821693909317909255600b805491909316911617905550620003909050565b828054600181600116156101000203166002900490600052602060002090601f0160209004810192826200031c576000855562000367565b82601f106200033757805160ff191683800117855562000367565b8280016001018555821562000367579182015b82811115620003675782518255916020019190600101906200034a565b506200037592915062000379565b5090565b5b808211156200037557600081556001016200037a565b61138480620003a06000396000f3fe608060405234801561001057600080fd5b50600436106101215760003560e01c806353a47bb7116100ad578063a457c2d711610071578063a457c2d714610356578063a9059cbb14610382578063d914cd4b146103ae578063dd62ed3e146103d4578063f5298aca1461040257610121565b806353a47bb71461031057806370a082311461031857806379ba50971461033e5780638da5cb5b1461034657806395d89b411461034e57610121565b80631627540c116100f45780631627540c1461025057806318160ddd1461027657806323b872dd14610290578063313ce567146102c657806339509351146102e457610121565b806306fdde0314610126578063095ea7b3146101a35780631189ebea146101e3578063156e29f61461021c575b600080fd5b61012e610434565b6040805160208082528351818301528351919283929083019185019080838360005b83811015610168578181015183820152602001610150565b50505050905090810190601f1680156101955780820380516001836020036101000a031916815260200191505b509250505060405180910390f35b6101cf600480360360408110156101b957600080fd5b506001600160a01b0381351690602001356104ca565b604080519115158252519081900360200190f35b610200600480360360208110156101f957600080fd5b50356104ee565b604080516001600160a01b039092168252519081900360200190f35b61024e6004803603606081101561023257600080fd5b506001600160a01b038135169060208101359060400135610518565b005b61024e6004803603602081101561026657600080fd5b50356001600160a01b0316610596565b61027e610633565b60408051918252519081900360200190f35b6101cf600480360360608110156102a657600080fd5b506001600160a01b03813581169160208101359091169060400135610639565b6102ce610667565b6040805160ff9092168252519081900360200190f35b6101cf600480360360408110156102fa57600080fd5b506001600160a01b03813516906020013561066c565b61020061068f565b61027e6004803603602081101561032e57600080fd5b50356001600160a01b031661069e565b61024e6106b9565b610200610775565b61012e610784565b6101cf6004803603604081101561036c57600080fd5b506001600160a01b0381351690602001356107e5565b6101cf6004803603604081101561039857600080fd5b506001600160a01b03813516906020013561084c565b61024e600480360360208110156103c457600080fd5b50356001600160a01b0316610864565b61027e600480360360408110156103ea57600080fd5b506001600160a01b03813581169160200135166109cd565b61024e6004803603606081101561041857600080fd5b506001600160a01b0381351690602081013590604001356109f8565b60038054604080516020601f60026000196101006001881615020190951694909404938401819004810282018101909252828152606093909290918301828280156104c05780601f10610495576101008083540402835291602001916104c0565b820191906000526020600020905b8154815290600101906020018083116104a357829003601f168201915b5050505050905090565b6000806104d5610a81565b90506104e2818585610a85565b60019150505b92915050565b600881815481106104fe57600080fd5b6000918252602090912001546001600160a01b0316905081565b3360009081526007602052604090205460ff16151560011461056b5760405162461bcd60e51b815260040180806020018281038252602181526020018061121a6021913960400191505060405180910390fd5b60006105848261057e85620f4240610b71565b90610bd1565b90506105908482610c38565b50505050565b6005546001600160a01b031633146105df5760405162461bcd60e51b815260040180806020018281038252602f81526020018061123b602f913960400191505060405180910390fd5b600680546001600160a01b0383166001600160a01b0319909116811790915560408051918252517f906a1c6bd7e3091ea86693dd029a831c19049ce77f1dce2ce0bab1cacbabce229181900360200190a150565b60025490565b600080610644610a81565b9050610651858285610d08565b61065c858585610d81565b506001949350505050565b601290565b600080610677610a81565b90506104e281858561068985896109cd565b01610a85565b6006546001600160a01b031681565b6001600160a01b031660009081526020819052604090205490565b6006546001600160a01b031633146107025760405162461bcd60e51b815260040180806020018281038252603581526020018061117b6035913960400191505060405180910390fd5b600554600654604080516001600160a01b03938416815292909116602083015280517fb532073b38c83145e3e5135377a08bf9aab55bc0fd7c1179cd4fb995d2a5159c9281900390910190a160068054600580546001600160a01b03199081166001600160a01b03841617909155169055565b6005546001600160a01b031681565b60048054604080516020601f60026000196101006001881615020190951694909404938401819004810282018101909252828152606093909290918301828280156104c05780601f10610495576101008083540402835291602001916104c0565b6000806107f0610a81565b905060006107fe82866109cd565b90508381101561083f5760405162461bcd60e51b815260040180806020018281038252602581526020018061132a6025913960400191505060405180910390fd5b61065c8286868403610a85565b600080610857610a81565b90506104e2818585610d81565b6005546001600160a01b031633146108ad5760405162461bcd60e51b81526004018080602001828103825260358152602001806112d16035913960400191505060405180910390fd5b6001600160a01b038116610900576040805162461bcd60e51b815260206004820152601560248201527416995c9bc81859191c995cdcc819195d1958dd1959605a1b604482015290519081900360640190fd5b6001600160a01b03811660009081526007602052604090205460ff1615610967576040805162461bcd60e51b81526020600482015260166024820152754164647265737320616c72656164792065786973747360501b604482015290519081900360640190fd5b6001600160a01b03166000818152600760205260408120805460ff191660019081179091556008805491820181559091527ff3f7a9fe364faab93b216da50a3214154f22a0a2b415b23a84c8169e8b636ee30180546001600160a01b0319169091179055565b6001600160a01b03918216600090815260016020908152604080832093909416825291909152205490565b3360009081526007602052604090205460ff161515600114610a4b5760405162461bcd60e51b815260040180806020018281038252602181526020018061121a6021913960400191505060405180910390fd5b6000610a5e8261057e85620f4240610b71565b9050610a6a8484610edc565b600b54610590906001600160a01b03168583610fee565b3390565b6001600160a01b038316610aca5760405162461bcd60e51b81526004018080602001828103825260248152602001806113066024913960400191505060405180910390fd5b6001600160a01b038216610b0f5760405162461bcd60e51b81526004018080602001828103825260228152602001806111d26022913960400191505060405180910390fd5b6001600160a01b03808416600081815260016020908152604080832094871680845294825291829020859055815185815291517f8c5be1e5ebec7d5bd14f71427d1e84f3dd0314c0f7b2291e5b200ac8c7c3b9259281900390910190a3505050565b600082610b80575060006104e8565b82820282848281610b8d57fe5b0414610bca5760405162461bcd60e51b815260040180806020018281038252602181526020018061126a6021913960400191505060405180910390fd5b9392505050565b6000808211610c27576040805162461bcd60e51b815260206004820152601a60248201527f536166654d6174683a206469766973696f6e206279207a65726f000000000000604482015290519081900360640190fd5b818381610c3057fe5b049392505050565b6001600160a01b038216610c93576040805162461bcd60e51b815260206004820152601f60248201527f45524332303a206d696e7420746f20746865207a65726f206164647265737300604482015290519081900360640190fd5b610c9f60008383610fe9565b60028054820190556001600160a01b038216600081815260208181526040808320805486019055805185815290517fddf252ad1be2c89b69c2b068fc378daa952ba7f163c4a11628f55a4df523b3ef929181900390910190a3610d0460008383610fe9565b5050565b6000610d1484846109cd565b905060001981146105905781811015610d74576040805162461bcd60e51b815260206004820152601d60248201527f45524332303a20696e73756666696369656e7420616c6c6f77616e6365000000604482015290519081900360640190fd5b6105908484848403610a85565b6001600160a01b038316610dc65760405162461bcd60e51b81526004018080602001828103825260258152602001806112ac6025913960400191505060405180910390fd5b6001600160a01b038216610e0b5760405162461bcd60e51b81526004018080602001828103825260238152602001806111586023913960400191505060405180910390fd5b610e16838383610fe9565b6001600160a01b03831660009081526020819052604090205481811015610e6e5760405162461bcd60e51b81526004018080602001828103825260268152602001806111f46026913960400191505060405180910390fd5b6001600160a01b038085166000818152602081815260408083208787039055938716808352918490208054870190558351868152935191937fddf252ad1be2c89b69c2b068fc378daa952ba7f163c4a11628f55a4df523b3ef929081900390910190a3610590848484610fe9565b6001600160a01b038216610f215760405162461bcd60e51b815260040180806020018281038252602181526020018061128b6021913960400191505060405180910390fd5b610f2d82600083610fe9565b6001600160a01b03821660009081526020819052604090205481811015610f855760405162461bcd60e51b81526004018080602001828103825260228152602001806111b06022913960400191505060405180910390fd5b6001600160a01b0383166000818152602081815260408083208686039055600280548790039055805186815290519293927fddf252ad1be2c89b69c2b068fc378daa952ba7f163c4a11628f55a4df523b3ef929181900390910190a3610fe9836000845b505050565b604080516001600160a01b038481166024830152604480830185905283518084039091018152606490920183526020820180516001600160e01b031663a9059cbb60e01b1781529251825160009485949389169392918291908083835b6020831061106a5780518252601f19909201916020918201910161104b565b6001836020036101000a0380198251168184511680821785525050505050509050019150506000604051808303816000865af19150503d80600081146110cc576040519150601f19603f3d011682016040523d82523d6000602084013e6110d1565b606091505b50915091508180156110ff5750805115806110ff57508080602001905160208110156110fc57600080fd5b50515b611150576040805162461bcd60e51b815260206004820152601f60248201527f5472616e7366657248656c7065723a205452414e534645525f4641494c454400604482015290519081900360640190fd5b505050505056fe45524332303a207472616e7366657220746f20746865207a65726f2061646472657373596f75206d757374206265206e6f6d696e61746564206265666f726520796f752063616e20616363657074206f776e65727368697045524332303a206275726e20616d6f756e7420657863656564732062616c616e636545524332303a20617070726f766520746f20746865207a65726f206164647265737345524332303a207472616e7366657220616d6f756e7420657863656564732062616c616e63654f6e6c7920706f6f6c732063616e2063616c6c20746869732066756e6374696f6e4f6e6c792074686520636f6e7472616374206f776e6572206d617920706572666f726d207468697320616374696f6e536166654d6174683a206d756c7469706c69636174696f6e206f766572666c6f7745524332303a206275726e2066726f6d20746865207a65726f206164647265737345524332303a207472616e736665722066726f6d20746865207a65726f20616464726573734e6f7420746865206f776e65722c20636f6e74726f6c6c65722c206f722074686520676f7665726e616e63652074696d656c6f636b45524332303a20617070726f76652066726f6d20746865207a65726f206164647265737345524332303a2064656372656173656420616c6c6f77616e63652062656c6f77207a65726fa26469706673582212206f950c8214e10e293dd117395619967c96f2dff31c22336f28e54557d09f5a5d64736f6c63430007060033",
  "devdoc": {
    "kind": "dev",
    "methods": {
      "allowance(address,address)": {
        "details": "See {IERC20-allowance}."
      },
      "approve(address,uint256)": {
        "details": "See {IERC20-approve}. NOTE: If `amount` is the maximum `uint256`, the allowance is not updated on `transferFrom`. This is semantically equivalent to an infinite approval. Requirements: - `spender` cannot be the zero address."
      },
      "balanceOf(address)": {
        "details": "See {IERC20-balanceOf}."
      },
      "decimals()": {
        "details": "Returns the number of decimals used to get its user representation. For example, if `decimals` equals `2`, a balance of `505` tokens should be displayed to a user as `5.05` (`505 / 10 ** 2`). Tokens usually opt for a value of 18, imitating the relationship between Ether and Wei. This is the value {ERC20} uses, unless this function is overridden; NOTE: This information is only used for _display_ purposes: it in no way affects any of the arithmetic of the contract, including {IERC20-balanceOf} and {IERC20-transfer}."
      },
      "decreaseAllowance(address,uint256)": {
        "details": "Atomically decreases the allowance granted to `spender` by the caller. This is an alternative to {approve} that can be used as a mitigation for problems described in {IERC20-approve}. Emits an {Approval} event indicating the updated allowance. Requirements: - `spender` cannot be the zero address. - `spender` must have allowance for the caller of at least `subtractedValue`."
      },
      "increaseAllowance(address,uint256)": {
        "details": "Atomically increases the allowance granted to `spender` by the caller. This is an alternative to {approve} that can be used as a mitigation for problems described in {IERC20-approve}. Emits an {Approval} event indicating the updated allowance. Requirements: - `spender` cannot be the zero address."
      },
      "name()": {
        "details": "Returns the name of the token."
      },
      "symbol()": {
        "details": "Returns the symbol of the token, usually a shorter version of the name."
      },
      "totalSupply()": {
        "details": "See {IERC20-totalSupply}."
      },
      "transfer(address,uint256)": {
        "details": "See {IERC20-transfer}. Requirements: - `to` cannot be the zero address. - the caller must have a balance of at least `amount`."
      },
      "transferFrom(address,address,uint256)": {
        "details": "See {IERC20-transferFrom}. Emits an {Approval} event indicating the updated allowance. This is not required by the EIP. See the note at the beginning of {ERC20}. NOTE: Does not update the allowance if the current allowance is the maximum `uint256`. Requirements: - `from` and `to` cannot be the zero address. - `from` must have a balance of at least `amount`. - the caller must have allowance for ``from``'s tokens of at least `amount`."
      }
    },
    "version": 1
  },
  "userdoc": {
    "kind": "user",
    "methods": {},
    "version": 1
  },
  "storageLayout": {
    "storage": [
      {
        "astId": 5167,
        "contract": "contracts/staking/stakedDS.sol:sDS",
        "label": "_balances",
        "offset": 0,
        "slot": "0",
        "type": "t_mapping(t_address,t_uint256)"
      },
      {
        "astId": 5173,
        "contract": "contracts/staking/stakedDS.sol:sDS",
        "label": "_allowances",
        "offset": 0,
        "slot": "1",
        "type": "t_mapping(t_address,t_mapping(t_address,t_uint256))"
      },
      {
        "astId": 5175,
        "contract": "contracts/staking/stakedDS.sol:sDS",
        "label": "_totalSupply",
        "offset": 0,
        "slot": "2",
        "type": "t_uint256"
      },
      {
        "astId": 5177,
        "contract": "contracts/staking/stakedDS.sol:sDS",
        "label": "_name",
        "offset": 0,
        "slot": "3",
        "type": "t_string_storage"
      },
      {
        "astId": 5179,
        "contract": "contracts/staking/stakedDS.sol:sDS",
        "label": "_symbol",
        "offset": 0,
        "slot": "4",
        "type": "t_string_storage"
      },
      {
        "astId": 17936,
        "contract": "contracts/staking/stakedDS.sol:sDS",
        "label": "owner",
        "offset": 0,
        "slot": "5",
        "type": "t_address"
      },
      {
        "astId": 17938,
        "contract": "contracts/staking/stakedDS.sol:sDS",
        "label": "nominatedOwner",
        "offset": 0,
        "slot": "6",
        "type": "t_address"
      },
      {
        "astId": 18744,
        "contract": "contracts/staking/stakedDS.sol:sDS",
        "label": "pools",
        "offset": 0,
        "slot": "7",
        "type": "t_mapping(t_address,t_bool)"
      },
      {
        "astId": 18750,
        "contract": "contracts/staking/stakedDS.sol:sDS",
        "label": "pools_array",
        "offset": 0,
        "slot": "8",
        "type": "t_array(t_address)dyn_storage"
      },
      {
        "astId": 18752,
        "contract": "contracts/staking/stakedDS.sol:sDS",
        "label": "deployer_address",
        "offset": 0,
        "slot": "9",
        "type": "t_address"
      },
      {
        "astId": 18754,
        "contract": "contracts/staking/stakedDS.sol:sDS",
        "label": "timelock_address",
        "offset": 0,
        "slot": "10",
        "type": "t_address"
      },
      {
        "astId": 18756,
        "contract": "contracts/staking/stakedDS.sol:sDS",
        "label": "ds_address",
        "offset": 0,
        "slot": "11",
        "type": "t_address"
      }
    ],
    "types": {
      "t_address": {
        "encoding": "inplace",
        "label": "address",
        "numberOfBytes": "20"
      },
      "t_array(t_address)dyn_storage": {
        "base": "t_address",
        "encoding": "dynamic_array",
        "label": "address[]",
        "numberOfBytes": "32"
      },
      "t_bool": {
        "encoding": "inplace",
        "label": "bool",
        "numberOfBytes": "1"
      },
      "t_mapping(t_address,t_bool)": {
        "encoding": "mapping",
        "key": "t_address",
        "label": "mapping(address => bool)",
        "numberOfBytes": "32",
        "value": "t_bool"
      },
      "t_mapping(t_address,t_mapping(t_address,t_uint256))": {
        "encoding": "mapping",
        "key": "t_address",
        "label": "mapping(address => mapping(address => uint256))",
        "numberOfBytes": "32",
        "value": "t_mapping(t_address,t_uint256)"
      },
      "t_mapping(t_address,t_uint256)": {
        "encoding": "mapping",
        "key": "t_address",
        "label": "mapping(address => uint256)",
        "numberOfBytes": "32",
        "value": "t_uint256"
      },
      "t_string_storage": {
        "encoding": "bytes",
        "label": "string",
        "numberOfBytes": "32"
      },
      "t_uint256": {
        "encoding": "inplace",
        "label": "uint256",
        "numberOfBytes": "32"
      }
    }
  }
}