{
  "address": "0x57C26328D6B811FA81b67debE1a2fC323589CE48",
  "abi": [
    {
      "inputs": [],
      "name": "getA",
      "outputs": [
        {
          "internalType": "uint256",
          "name": "",
          "type": "uint256"
        }
      ],
      "stateMutability": "nonpayable",
      "type": "function"
    }
  ],
  "transactionHash": "0xbd6344440ecc95db2ac1844cda2951ea4c8ccf505b4523f73e5d1c050e8d27f6",
  "args": [],
  "numDeployments": 1,
  "solcInputHash": "2673aea9b3b40da74cc778318b16ab0a",
  "bytecode": "0x6080604052348015600f57600080fd5b50607880601d6000396000f3fe6080604052348015600f57600080fd5b506004361060285760003560e01c8063d46300fd14602d575b600080fd5b60005460405190815260200160405180910390f3fea26469706673582212209f764ef670a0f6f83b8eceb9d87e333fec00b12fb53b733a7aaff0a3ebf796ef64736f6c63430008040033",
  "devdoc": {
    "kind": "dev",
    "methods": {},
    "version": 1
  },
  "userdoc": {
    "kind": "user",
    "methods": {},
    "version": 1
  },
  "storageLayout": {
    "storage": [
      {
        "astId": 5712,
        "contract": "contracts/bonds/bondingcurve.sol:toyFetcher",
        "label": "a",
        "offset": 0,
        "slot": "0",
        "type": "t_uint256"
      }
    ],
    "types": {
      "t_uint256": {
        "encoding": "inplace",
        "label": "uint256",
        "numberOfBytes": "32"
      }
    }
  }
}