{
  "address": "0xa94Ab06f65A3D75dc183abBA737E9BF4f630BD91",
  "abi": [
    {
      "inputs": [],
      "name": "newPool",
      "outputs": [
        {
          "internalType": "address",
          "name": "",
          "type": "address"
        }
      ],
      "stateMutability": "nonpayable",
      "type": "function"
    }
  ],
  "transactionHash": "0x29562e1274249c0111719391dd6212d1fbaaf8a526ab8084e81b4feb116db7a7",
  "args": [],
  "numDeployments": 1,
  "solcInputHash": "29a83bf9ac7eb91e37e2651095822cf1",
  "bytecode": "0x608060405234801561001057600080fd5b50611c57806100206000396000f3fe608060405234801561001057600080fd5b506004361061002b5760003560e01c80630f11779b14610030575b600080fd5b610038610054565b6040516001600160a01b03909116815260200160405180910390f35b60008060405161006390610086565b604051809103906000f08015801561007f573d6000803e3d6000fd5b5092915050565b611b8e806100948339019056fe60c06040526001608081815260a09190915262000020906002908162000035565b503480156200002e57600080fd5b5062000094565b82600281019282156200006b579160200282015b828111156200006b578251829060ff1690559160200191906001019062000049565b50620000799291506200007d565b5090565b5b808211156200007957600081556001016200007e565b611aea80620000a46000396000f3fe608060405234801561001057600080fd5b50600436106100b45760003560e01c80637066b5b2116100715780637066b5b21461014c57806370a082311461015f57806394edaa631461017f578063a60dc3b11461019f578063ca7b8704146101c7578063e25aa5fa146101cf57600080fd5b806313a980aa146100b957806318160ddd146100df5780634903b0d1146100e85780634f64b2be146100fb5780635673b02d146101265780636f76ab1814610139575b600080fd5b6100cc6100c7366004611866565b6101d7565b6040519081526020015b60405180910390f35b6100cc60065481565b6100cc6100f63660046117c1565b610283565b61010e6101093660046117c1565b61029a565b6040516001600160a01b0390911681526020016100d6565b6100cc6101343660046118b2565b6102ba565b6100cc610147366004611775565b610615565b6100cc61015a366004611887565b610a8d565b6100cc61016d36600461174e565b60076020526000908152604090205481565b61019261018d3660046117d9565b610bc6565b6040516100d691906118e3565b6101b26101ad366004611866565b610da1565b604080519283526020830191909152016100d6565b610192610db9565b6100cc610dce565b6000806101e2610e1e565b9050600081846002811061020657634e487b7160e01b600052603260045260246000fd5b6020020151905060008261021b866001611a56565b6002811061023957634e487b7160e01b600052603260045260246000fd5b60200201519050600061024c8783611a56565b9050600061026661025e886001611a56565b888488610ebb565b905060006102748583611a56565b96505050505050505b92915050565b6004816002811061029357600080fd5b0154905081565b600081600281106102aa57600080fd5b01546001600160a01b0316905081565b6000838514156102f95760405162461bcd60e51b815260206004820152600560248201526434901e903560d91b60448201526064015b60405180910390fd5b6000856002811061031a57634e487b7160e01b600052603260045260246000fd5b01546040516323b872dd60e01b8152336004820152306024820152604481018590526001600160a01b03909116906323b872dd90606401602060405180830381600087803b15801561036b57600080fd5b505af115801561037f573d6000803e3d6000fd5b505050506040513d601f19601f820116820180604052508101906103a391906117a1565b5060006103ae610e1e565b90506000600287600281106103d357634e487b7160e01b600052603260045260246000fd5b01546103df9086611a37565b8288600281106103ff57634e487b7160e01b600052603260045260246000fd5b602002015161040e9190611914565b9050600082876002811061043257634e487b7160e01b600052603260045260246000fd5b60200201519050600061044789898587610ebb565b90506002886002811061046a57634e487b7160e01b600052603260045260246000fd5b015460016104788385611a56565b6104829190611a56565b61048c919061192c565b94506000620f42406104a061012c88611a37565b6104aa919061192c565b90506104b68187611a56565b9550868610156104f35760405162461bcd60e51b8152602060048201526008602482015267323c901e1036b4b760c11b60448201526064016102f0565b8760048b6002811061051557634e487b7160e01b600052603260045260246000fd5b0160008282546105259190611914565b9091555086905060048a6002811061054d57634e487b7160e01b600052603260045260246000fd5b01600082825461055d9190611a56565b9091555060009050896002811061058457634e487b7160e01b600052603260045260246000fd5b015460405163a9059cbb60e01b8152336004820152602481018890526001600160a01b039091169063a9059cbb90604401602060405180830381600087803b1580156105cf57600080fd5b505af11580156105e3573d6000803e3d6000fd5b505050506040513d601f19601f8201168201806040525081019061060791906117a1565b505050505050949350505050565b6006546000908180610625610e1e565b905082156106395761063681611092565b91505b610641611730565b60005b600281101561080957600088826002811061066f57634e487b7160e01b600052603260045260246000fd5b6020020135905080156107ad576000826002811061069d57634e487b7160e01b600052603260045260246000fd5b01546040516323b872dd60e01b8152336004820152306024820152604481018390526001600160a01b03909116906323b872dd90606401602060405180830381600087803b1580156106ee57600080fd5b505af1158015610702573d6000803e3d6000fd5b505050506040513d601f19601f8201168201806040525081019061072691906117a1565b506002826002811061074857634e487b7160e01b600052603260045260246000fd5b01546107549082611a37565b84836002811061077457634e487b7160e01b600052603260045260246000fd5b60200201516107839190611914565b8383600281106107a357634e487b7160e01b600052603260045260246000fd5b60200201526107f8565b8382600281106107cd57634e487b7160e01b600052603260045260246000fd5b60200201518383600281106107f257634e487b7160e01b600052603260045260246000fd5b60200201525b5061080281611a6d565b9050610644565b50600061081582611092565b90508381116108665760405162461bcd60e51b815260206004820152601960248201527f6c6971756964697479206469646e277420696e6372656173650000000000000060448201526064016102f0565b6000851561098b5760005b600281101561097a576000868487846002811061089e57634e487b7160e01b600052603260045260246000fd5b60200201516108ad9190611a37565b6108b7919061192c565b905060006108e98684600281106108de57634e487b7160e01b600052603260045260246000fd5b602002015183611261565b9050620f4240816108fc60016002611a56565b610907906004611a37565b610914600261012c611a37565b61091e919061192c565b6109289190611a37565b610932919061192c565b86846002811061095257634e487b7160e01b600052603260045260246000fd5b602002018181516109639190611a56565b9052506109739150829050611a6d565b9050610871565b5061098483611092565b905061098e565b50805b60005b6002811015610a06578981600281106109ba57634e487b7160e01b600052603260045260246000fd5b6020020135600482600281106109e057634e487b7160e01b600052603260045260246000fd5b0160008282546109f09190611914565b909155506109ff905081611a6d565b9050610991565b508515610a34578486610a198284611a56565b610a239190611a37565b610a2d919061192c565b9650610a38565b8096505b87871015610a775760405162461bcd60e51b815260206004820152600c60248201526b39b430b932b9901e1036b4b760a11b60448201526064016102f0565b610a81338861128b565b50505050505092915050565b6000610a9984846112d5565b50905081811015610ad85760405162461bcd60e51b815260206004820152600960248201526837baba101e1036b4b760b91b60448201526064016102f0565b8060048460028110610afa57634e487b7160e01b600052603260045260246000fd5b016000828254610b0a9190611a56565b90915550610b1a90503385611578565b60008360028110610b3b57634e487b7160e01b600052603260045260246000fd5b015460405163a9059cbb60e01b8152336004820152602481018390526001600160a01b039091169063a9059cbb90604401602060405180830381600087803b158015610b8657600080fd5b505af1158015610b9a573d6000803e3d6000fd5b505050506040513d601f19601f82011682018060405250810190610bbe91906117a1565b509392505050565b610bce611730565b60065460005b6002811015610d8f576000828660048460028110610c0257634e487b7160e01b600052603260045260246000fd5b0154610c0e9190611a37565b610c18919061192c565b9050848260028110610c3a57634e487b7160e01b600052603260045260246000fd5b6020020151811015610c7a5760405162461bcd60e51b815260206004820152600960248201526837baba101e1036b4b760b91b60448201526064016102f0565b8060048360028110610c9c57634e487b7160e01b600052603260045260246000fd5b016000828254610cac9190611a56565b90915550819050848360028110610cd357634e487b7160e01b600052603260045260246000fd5b602002015260008260028110610cf957634e487b7160e01b600052603260045260246000fd5b015460405163a9059cbb60e01b8152336004820152602481018390526001600160a01b039091169063a9059cbb90604401602060405180830381600087803b158015610d4457600080fd5b505af1158015610d58573d6000803e3d6000fd5b505050506040513d601f19601f82011682018060405250810190610d7c91906117a1565b505080610d8890611a6d565b9050610bd4565b50610d9a3385611578565b5092915050565b600080610dae84846112d5565b915091509250929050565b610dc1611730565b610dc9610e1e565b905090565b600080610de1610ddc610e1e565b611092565b6006549091508015610e155780610dfa6012600a61198f565b610e049084611a37565b610e0e919061192c565b9250505090565b60009250505090565b610e26611730565b60005b6002811015610eb75760028160028110610e5357634e487b7160e01b600052603260045260246000fd5b015460048260028110610e7657634e487b7160e01b600052603260045260246000fd5b0154610e829190611a37565b828260028110610ea257634e487b7160e01b600052603260045260246000fd5b6020020152610eb081611a6d565b9050610e29565b5090565b6000806002610ecb600182611a56565b610ed690600261198f565b610ee2906103e8611a37565b610eec9190611a37565b90506000610ef984611092565b905060008181805b6002811015610f8d578a811415610f1a57889150610f4f565b89811415610f2757610f7d565b878160028110610f4757634e487b7160e01b600052603260045260246000fd5b602002015191505b610f598285611914565b9350610f66826002611a37565b610f708685611a37565b610f7a919061192c565b92505b610f8681611a6d565b9050610f01565b50610f99856002611a37565b610fa38584611a37565b610fad919061192c565b91506000610fbb868661192c565b610fc59085611914565b9050600085815b60ff81101561104d578192508784836002610fe79190611a37565b610ff19190611914565b610ffb9190611a56565b866110068480611a37565b6110109190611914565b61101a919061192c565b915060016110288385611261565b1161103d5750975061108a9650505050505050565b61104681611a6d565b9050610fcc565b5060405162461bcd60e51b815260206004820152601160248201527079206469646e277420636f6e766572676560781b60448201526064016102f0565b949350505050565b60008060026110a2600182611a56565b6110ad90600261198f565b6110b9906103e8611a37565b6110c39190611a37565b90506000805b6002811015611113578481600281106110f257634e487b7160e01b600052603260045260246000fd5b60200201516111019083611914565b915061110c81611a6d565b90506110c9565b50806000805b60ff811015611224578260005b60028110156111855788816002811061114f57634e487b7160e01b600052603260045260246000fd5b602002015161115f906002611a37565b6111698684611a37565b611173919061192c565b915061117e81611a6d565b9050611126565b508392508061119660026001611914565b6111a09190611a37565b846111ac600189611a56565b6111b69190611a37565b6111c09190611914565b846111cc836002611a37565b6111d6888a611a37565b6111e09190611914565b6111ea9190611a37565b6111f4919061192c565b935060016112028585611261565b116112135750919695505050505050565b5061121d81611a6d565b9050611119565b5060405162461bcd60e51b815260206004820152601160248201527044206469646e277420636f6e766572676560781b60448201526064016102f0565b60008183101561127a576112758383611a56565b611284565b6112848284611a56565b9392505050565b6001600160a01b038216600090815260076020526040812080548392906112b3908490611914565b9250508190555080600660008282546112cc9190611914565b90915550505050565b6006546000908190816112e6610e1e565b905060006112f382611092565b90506000836113028984611a37565b61130c919061192c565b6113169083611a56565b905060006113258885846115b9565b905060006002896002811061134a57634e487b7160e01b600052603260045260246000fd5b015482868b6002811061136d57634e487b7160e01b600052603260045260246000fd5b602002015161137c9190611a56565b611386919061192c565b90506000805b60028110156114e2578a8114156113ea578386868984600281106113c057634e487b7160e01b600052603260045260246000fd5b60200201516113cf9190611a37565b6113d9919061192c565b6113e39190611a56565b9150611457565b858588836002811061140c57634e487b7160e01b600052603260045260246000fd5b602002015161141b9190611a37565b611425919061192c565b87826002811061144557634e487b7160e01b600052603260045260246000fd5b60200201516114549190611a56565b91505b620f42408261146860016002611a56565b611473906004611a37565b611480600261012c611a37565b61148a919061192c565b6114949190611a37565b61149e919061192c565b8782600281106114be57634e487b7160e01b600052603260045260246000fd5b602002018181516114cf9190611a56565b9052506114db81611a6d565b905061138c565b5060006114f08b88876115b9565b905060028b6002811061151357634e487b7160e01b600052603260045260246000fd5b0154600182898e6002811061153857634e487b7160e01b600052603260045260246000fd5b60200201516115479190611a56565b6115519190611a56565b61155b919061192c565b99506115678a84611a56565b985050505050505050509250929050565b6001600160a01b038216600090815260076020526040812080548392906115a0908490611a56565b9250508190555080600660008282546112cc9190611a56565b60008060026115c9600182611a56565b6115d490600261198f565b6115e0906103e8611a37565b6115ea9190611a37565b905060008381805b60028110156116715788811461162e5787816002811061162257634e487b7160e01b600052603260045260246000fd5b60200201519150611633565b611661565b61163d8285611914565b935061164a826002611a37565b6116548885611a37565b61165e919061192c565b92505b61166a81611a6d565b90506115f2565b5061167d846002611a37565b6116878784611a37565b611691919061192c565b9150600061169f858861192c565b6116a99085611914565b9050600087815b60ff81101561104d5781925089848360026116cb9190611a37565b6116d59190611914565b6116df9190611a56565b866116ea8480611a37565b6116f49190611914565b6116fe919061192c565b9150600161170c8385611261565b116117205750965061128495505050505050565b61172981611a6d565b90506116b0565b60405180604001604052806002906020820280368337509192915050565b60006020828403121561175f578081fd5b81356001600160a01b0381168114611284578182fd5b60008060608385031215611787578081fd5b6040830184811115611797578182fd5b9294923593505050565b6000602082840312156117b2578081fd5b81518015158114611284578182fd5b6000602082840312156117d2578081fd5b5035919050565b600080606083850312156117eb578182fd5b82359150602084603f8501126117ff578182fd5b6040516040810181811067ffffffffffffffff8211171561182257611822611a9e565b6040528085830160608701881015611838578485fd5b845b60028110156118575781358352918401919084019060010161183a565b50505080925050509250929050565b60008060408385031215611878578182fd5b50508035926020909101359150565b60008060006060848603121561189b578081fd5b505081359360208301359350604090920135919050565b600080600080608085870312156118c7578081fd5b5050823594602084013594506040840135936060013592509050565b60408101818360005b600281101561190b5781518352602092830192909101906001016118ec565b50505092915050565b6000821982111561192757611927611a88565b500190565b60008261194757634e487b7160e01b81526012600452602481fd5b500490565b600181815b8085111561198757816000190482111561196d5761196d611a88565b8085161561197a57918102915b93841c9390800290611951565b509250929050565b600061128483836000826119a55750600161027d565b816119b25750600061027d565b81600181146119c857600281146119d2576119ee565b600191505061027d565b60ff8411156119e3576119e3611a88565b50506001821b61027d565b5060208310610133831016604e8410600b8410161715611a11575081810a61027d565b611a1b838361194c565b8060001904821115611a2f57611a2f611a88565b029392505050565b6000816000190483118215151615611a5157611a51611a88565b500290565b600082821015611a6857611a68611a88565b500390565b6000600019821415611a8157611a81611a88565b5060010190565b634e487b7160e01b600052601160045260246000fd5b634e487b7160e01b600052604160045260246000fdfea2646970667358221220eb86ad887d2fd4f2adf2a45366fe2c9796f3c707d692f7db47a2486a8738aee064736f6c63430008040033a26469706673582212206b858d98f6e2621a64d7ae74e219ded5b4e4ad37afab0a0f17dfc4ecd4c01e7964736f6c63430008040033",
  "devdoc": {
    "kind": "dev",
    "methods": {},
    "version": 1
  },
  "userdoc": {
    "kind": "user",
    "methods": {},
    "notice": "have to separate factories because of code size limit ",
    "version": 1
  },
  "storageLayout": {
    "storage": [],
    "types": null
  }
}