{
  "address": "0x056AcF0F215CD2b21B861f475b30ED94bd77158A",
  "abi": [
    {
      "inputs": [
        {
          "internalType": "address",
          "name": "_owner",
          "type": "address"
        },
        {
          "internalType": "contract IERC20Full",
          "name": "_collateral",
          "type": "address"
        },
        {
          "internalType": "uint256",
          "name": "_shareFactor",
          "type": "uint256"
        },
        {
          "internalType": "contract FeePot",
          "name": "_feePot",
          "type": "address"
        },
        {
          "internalType": "uint256[3]",
          "name": "_fees",
          "type": "uint256[3]"
        },
        {
          "internalType": "address",
          "name": "_protocol",
          "type": "address"
        }
      ],
      "stateMutability": "nonpayable",
      "type": "constructor"
    },
    {
      "anonymous": false,
      "inputs": [
        {
          "indexed": false,
          "internalType": "uint256",
          "name": "id",
          "type": "uint256"
        }
      ],
      "name": "MarketActivated",
      "type": "event"
    },
    {
      "anonymous": false,
      "inputs": [
        {
          "indexed": false,
          "internalType": "uint256",
          "name": "id",
          "type": "uint256"
        },
        {
          "indexed": false,
          "internalType": "string[]",
          "name": "names",
          "type": "string[]"
        },
        {
          "indexed": false,
          "internalType": "uint256[]",
          "name": "initialOdds",
          "type": "uint256[]"
        }
      ],
      "name": "MarketCreated",
      "type": "event"
    },
    {
      "anonymous": false,
      "inputs": [
        {
          "indexed": false,
          "internalType": "uint256",
          "name": "id",
          "type": "uint256"
        },
        {
          "indexed": false,
          "internalType": "address",
          "name": "winner",
          "type": "address"
        },
        {
          "indexed": false,
          "internalType": "uint256",
          "name": "winnerIndex",
          "type": "uint256"
        },
        {
          "indexed": false,
          "internalType": "string",
          "name": "winnerName",
          "type": "string"
        }
      ],
      "name": "MarketResolved",
      "type": "event"
    },
    {
      "anonymous": false,
      "inputs": [
        {
          "indexed": false,
          "internalType": "uint256",
          "name": "id",
          "type": "uint256"
        },
        {
          "indexed": false,
          "internalType": "uint256",
          "name": "amount",
          "type": "uint256"
        },
        {
          "indexed": false,
          "internalType": "address",
          "name": "receiver",
          "type": "address"
        }
      ],
      "name": "SharesBurned",
      "type": "event"
    },
    {
      "anonymous": false,
      "inputs": [
        {
          "indexed": false,
          "internalType": "uint256",
          "name": "id",
          "type": "uint256"
        },
        {
          "indexed": false,
          "internalType": "uint256",
          "name": "amount",
          "type": "uint256"
        },
        {
          "indexed": false,
          "internalType": "address",
          "name": "receiver",
          "type": "address"
        }
      ],
      "name": "SharesMinted",
      "type": "event"
    },
    {
      "anonymous": false,
      "inputs": [
        {
          "indexed": false,
          "internalType": "uint256",
          "name": "id",
          "type": "uint256"
        },
        {
          "indexed": false,
          "internalType": "address",
          "name": "winningOutcome",
          "type": "address"
        },
        {
          "indexed": false,
          "internalType": "uint256",
          "name": "winningIndex",
          "type": "uint256"
        },
        {
          "indexed": false,
          "internalType": "string",
          "name": "winningName",
          "type": "string"
        },
        {
          "indexed": false,
          "internalType": "uint256",
          "name": "amount",
          "type": "uint256"
        },
        {
          "indexed": false,
          "internalType": "uint256",
          "name": "settlementFee",
          "type": "uint256"
        },
        {
          "indexed": false,
          "internalType": "uint256",
          "name": "payout",
          "type": "uint256"
        },
        {
          "indexed": true,
          "internalType": "address",
          "name": "receiver",
          "type": "address"
        }
      ],
      "name": "WinningsClaimed",
      "type": "event"
    },
    {
      "inputs": [],
      "name": "accumulatedProtocolFee",
      "outputs": [
        {
          "internalType": "uint256",
          "name": "",
          "type": "uint256"
        }
      ],
      "stateMutability": "view",
      "type": "function"
    },
    {
      "inputs": [
        {
          "internalType": "address",
          "name": "",
          "type": "address"
        }
      ],
      "name": "accumulatedSettlementFees",
      "outputs": [
        {
          "internalType": "uint256",
          "name": "",
          "type": "uint256"
        }
      ],
      "stateMutability": "view",
      "type": "function"
    },
    {
      "inputs": [
        {
          "internalType": "uint256",
          "name": "_id",
          "type": "uint256"
        },
        {
          "internalType": "uint256",
          "name": "_sharesToBurn",
          "type": "uint256"
        },
        {
          "internalType": "address",
          "name": "_receiver",
          "type": "address"
        }
      ],
      "name": "burnShares",
      "outputs": [
        {
          "internalType": "uint256",
          "name": "",
          "type": "uint256"
        }
      ],
      "stateMutability": "nonpayable",
      "type": "function"
    },
    {
      "inputs": [
        {
          "internalType": "uint256",
          "name": "_shares",
          "type": "uint256"
        }
      ],
      "name": "calcCost",
      "outputs": [
        {
          "internalType": "uint256",
          "name": "",
          "type": "uint256"
        }
      ],
      "stateMutability": "view",
      "type": "function"
    },
    {
      "inputs": [
        {
          "internalType": "uint256",
          "name": "_collateralIn",
          "type": "uint256"
        }
      ],
      "name": "calcShares",
      "outputs": [
        {
          "internalType": "uint256",
          "name": "",
          "type": "uint256"
        }
      ],
      "stateMutability": "view",
      "type": "function"
    },
    {
      "inputs": [
        {
          "internalType": "uint256[]",
          "name": "_ids",
          "type": "uint256[]"
        },
        {
          "internalType": "address",
          "name": "_receiver",
          "type": "address"
        }
      ],
      "name": "claimManyWinnings",
      "outputs": [
        {
          "internalType": "uint256",
          "name": "",
          "type": "uint256"
        }
      ],
      "stateMutability": "nonpayable",
      "type": "function"
    },
    {
      "inputs": [],
      "name": "claimProtocolFees",
      "outputs": [
        {
          "internalType": "uint256",
          "name": "",
          "type": "uint256"
        }
      ],
      "stateMutability": "nonpayable",
      "type": "function"
    },
    {
      "inputs": [
        {
          "internalType": "address",
          "name": "_receiver",
          "type": "address"
        }
      ],
      "name": "claimSettlementFees",
      "outputs": [
        {
          "internalType": "uint256",
          "name": "",
          "type": "uint256"
        }
      ],
      "stateMutability": "nonpayable",
      "type": "function"
    },
    {
      "inputs": [
        {
          "internalType": "uint256",
          "name": "_id",
          "type": "uint256"
        },
        {
          "internalType": "address",
          "name": "_receiver",
          "type": "address"
        }
      ],
      "name": "claimWinnings",
      "outputs": [
        {
          "internalType": "uint256",
          "name": "",
          "type": "uint256"
        }
      ],
      "stateMutability": "nonpayable",
      "type": "function"
    },
    {
      "inputs": [],
      "name": "collateral",
      "outputs": [
        {
          "internalType": "contract IERC20Full",
          "name": "",
          "type": "address"
        }
      ],
      "stateMutability": "view",
      "type": "function"
    },
    {
      "inputs": [
        {
          "internalType": "address",
          "name": "_creator",
          "type": "address"
        },
        {
          "internalType": "string",
          "name": "_description",
          "type": "string"
        },
        {
          "internalType": "string[]",
          "name": "_names",
          "type": "string[]"
        },
        {
          "internalType": "uint256[]",
          "name": "_odds",
          "type": "uint256[]"
        }
      ],
      "name": "createMarket",
      "outputs": [
        {
          "internalType": "uint256",
          "name": "",
          "type": "uint256"
        }
      ],
      "stateMutability": "nonpayable",
      "type": "function"
    },
    {
      "inputs": [],
      "name": "feePot",
      "outputs": [
        {
          "internalType": "contract FeePot",
          "name": "",
          "type": "address"
        }
      ],
      "stateMutability": "view",
      "type": "function"
    },
    {
      "inputs": [
        {
          "internalType": "uint256",
          "name": "_id",
          "type": "uint256"
        }
      ],
      "name": "getMarket",
      "outputs": [
        {
          "components": [
            {
              "internalType": "address",
              "name": "settlementAddress",
              "type": "address"
            },
            {
              "internalType": "contract OwnedERC20[]",
              "name": "shareTokens",
              "type": "address[]"
            },
            {
              "internalType": "contract OwnedERC20",
              "name": "winner",
              "type": "address"
            },
            {
              "internalType": "uint256",
              "name": "winnerIndex",
              "type": "uint256"
            },
            {
              "internalType": "uint256",
              "name": "settlementFee",
              "type": "uint256"
            },
            {
              "internalType": "uint256",
              "name": "protocolFee",
              "type": "uint256"
            },
            {
              "internalType": "uint256",
              "name": "stakerFee",
              "type": "uint256"
            },
            {
              "internalType": "uint256",
              "name": "creationTimestamp",
              "type": "uint256"
            },
            {
              "internalType": "uint256",
              "name": "resolutionTimestamp",
              "type": "uint256"
            },
            {
              "internalType": "uint256[]",
              "name": "initialOdds",
              "type": "uint256[]"
            },
            {
              "internalType": "bool",
              "name": "active",
              "type": "bool"
            }
          ],
          "internalType": "struct AbstractMarketFactoryV3.Market",
          "name": "",
          "type": "tuple"
        }
      ],
      "stateMutability": "view",
      "type": "function"
    },
    {
      "inputs": [
        {
          "internalType": "uint256",
          "name": "_id",
          "type": "uint256"
        }
      ],
      "name": "getMarketDetails",
      "outputs": [
        {
          "components": [
            {
              "internalType": "string",
              "name": "description",
              "type": "string"
            }
          ],
          "internalType": "struct TrustedMarketFactoryV3.MarketDetails",
          "name": "",
          "type": "tuple"
        }
      ],
      "stateMutability": "view",
      "type": "function"
    },
    {
      "inputs": [],
      "name": "getOwner",
      "outputs": [
        {
          "internalType": "address",
          "name": "",
          "type": "address"
        }
      ],
      "stateMutability": "view",
      "type": "function"
    },
    {
      "inputs": [
        {
          "internalType": "uint256",
          "name": "_marketId",
          "type": "uint256"
        }
      ],
      "name": "getRewardEndTime",
      "outputs": [
        {
          "internalType": "uint256",
          "name": "",
          "type": "uint256"
        }
      ],
      "stateMutability": "view",
      "type": "function"
    },
    {
      "inputs": [
        {
          "internalType": "uint256",
          "name": "_marketId",
          "type": "uint256"
        },
        {
          "internalType": "uint256",
          "name": "_outcome",
          "type": "uint256"
        }
      ],
      "name": "getTradeDetails",
      "outputs": [
        {
          "internalType": "uint256",
          "name": "",
          "type": "uint256"
        }
      ],
      "stateMutability": "view",
      "type": "function"
    },
    {
      "inputs": [],
      "name": "getVersion",
      "outputs": [
        {
          "internalType": "string",
          "name": "",
          "type": "string"
        }
      ],
      "stateMutability": "view",
      "type": "function"
    },
    {
      "inputs": [
        {
          "internalType": "uint256",
          "name": "_id",
          "type": "uint256"
        }
      ],
      "name": "isMarketResolved",
      "outputs": [
        {
          "internalType": "bool",
          "name": "",
          "type": "bool"
        }
      ],
      "stateMutability": "view",
      "type": "function"
    },
    {
      "inputs": [
        {
          "internalType": "uint256",
          "name": "_marketId",
          "type": "uint256"
        },
        {
          "internalType": "uint256",
          "name": "_outcome",
          "type": "uint256"
        },
        {
          "internalType": "uint256",
          "name": "_collateralIn",
          "type": "uint256"
        }
      ],
      "name": "logTrade",
      "outputs": [],
      "stateMutability": "nonpayable",
      "type": "function"
    },
    {
      "inputs": [],
      "name": "marketCount",
      "outputs": [
        {
          "internalType": "uint256",
          "name": "",
          "type": "uint256"
        }
      ],
      "stateMutability": "view",
      "type": "function"
    },
    {
      "inputs": [
        {
          "internalType": "uint256",
          "name": "_id",
          "type": "uint256"
        },
        {
          "internalType": "uint256",
          "name": "_shareToMint",
          "type": "uint256"
        },
        {
          "internalType": "address",
          "name": "_receiver",
          "type": "address"
        }
      ],
      "name": "mintShares",
      "outputs": [],
      "stateMutability": "nonpayable",
      "type": "function"
    },
    {
      "inputs": [],
      "name": "protocol",
      "outputs": [
        {
          "internalType": "address",
          "name": "",
          "type": "address"
        }
      ],
      "stateMutability": "view",
      "type": "function"
    },
    {
      "inputs": [],
      "name": "protocolFee",
      "outputs": [
        {
          "internalType": "uint256",
          "name": "",
          "type": "uint256"
        }
      ],
      "stateMutability": "view",
      "type": "function"
    },
    {
      "inputs": [
        {
          "internalType": "address",
          "name": "_newProtocol",
          "type": "address"
        },
        {
          "internalType": "bool",
          "name": "_claimFirst",
          "type": "bool"
        }
      ],
      "name": "setProtocol",
      "outputs": [],
      "stateMutability": "nonpayable",
      "type": "function"
    },
    {
      "inputs": [
        {
          "internalType": "uint256",
          "name": "_newFee",
          "type": "uint256"
        }
      ],
      "name": "setProtocolFee",
      "outputs": [],
      "stateMutability": "nonpayable",
      "type": "function"
    },
    {
      "inputs": [
        {
          "internalType": "uint256",
          "name": "_newFee",
          "type": "uint256"
        }
      ],
      "name": "setSettlementFee",
      "outputs": [],
      "stateMutability": "nonpayable",
      "type": "function"
    },
    {
      "inputs": [
        {
          "internalType": "uint256",
          "name": "_newFee",
          "type": "uint256"
        }
      ],
      "name": "setStakerFee",
      "outputs": [],
      "stateMutability": "nonpayable",
      "type": "function"
    },
    {
      "inputs": [],
      "name": "settlementFee",
      "outputs": [
        {
          "internalType": "uint256",
          "name": "",
          "type": "uint256"
        }
      ],
      "stateMutability": "view",
      "type": "function"
    },
    {
      "inputs": [],
      "name": "shareFactor",
      "outputs": [
        {
          "internalType": "uint256",
          "name": "",
          "type": "uint256"
        }
      ],
      "stateMutability": "view",
      "type": "function"
    },
    {
      "inputs": [],
      "name": "stakerFee",
      "outputs": [
        {
          "internalType": "uint256",
          "name": "",
          "type": "uint256"
        }
      ],
      "stateMutability": "view",
      "type": "function"
    },
    {
      "inputs": [
        {
          "internalType": "address",
          "name": "_newOwner",
          "type": "address"
        }
      ],
      "name": "transferOwnership",
      "outputs": [
        {
          "internalType": "bool",
          "name": "",
          "type": "bool"
        }
      ],
      "stateMutability": "nonpayable",
      "type": "function"
    },
    {
      "inputs": [
        {
          "internalType": "uint256",
          "name": "_id",
          "type": "uint256"
        },
        {
          "internalType": "uint256",
          "name": "_winningOutcome",
          "type": "uint256"
        }
      ],
      "name": "trustedResolveMarket",
      "outputs": [],
      "stateMutability": "nonpayable",
      "type": "function"
    }
  ],
  "transactionHash": "0x66a823c0a23cb1653add0e33806a9bea38637668c7ee091f48ca88f8c59af4ea",
  "args": [
    "0xFD84b7AC1E646580db8c77f1f05F47977fAda692",
    "0xb21ae1581F747C7913B9d8e3026A949f0cB0221b",
    "1000000000000",
    "0xd0780FD29f17cF568f45d26d4F71f66ed747e605",
    [
      0,
      "500000000000000",
      0
    ],
    "0xFD84b7AC1E646580db8c77f1f05F47977fAda692"
  ],
  "numDeployments": 2,
  "solcInputHash": "f1e7de409326fef85577dc516fa72386",
  "bytecode": "0x608060405260006007553480156200001657600080fd5b506040516200413b3803806200413b8339810160408190526200003991620004bd565b604080518082019091526006815265076312e312e360d41b6020820152600080546001600160a01b0319908116338216176001600160a01b038a81169190911783556001805483168a83161790556009889055600280549092169087161790558790879087908790879087908290602002015160035581600160200201516004558160026020020151600555600680546001600160a01b0319166001600160a01b038381169190911790915560405163095ea7b360e01b8152848216600482015260001960248201529086169063095ea7b390604401602060405180830381600087803b1580156200012a57600080fd5b505af11580156200013f573d6000803e3d6000fd5b505050506040513d601f19601f82011682018060405250810190620001659190620005a3565b50600a6200017262000292565b81546001808201845560009384526020938490208351600b9093020180546001600160a01b0319166001600160a01b0390931692909217825582840151805193949293620001c99392850192919091019062000370565b5060408201516002820180546001600160a01b0319166001600160a01b03909216919091179055606082015160038201556080820151600482015560a0820151600582015560c0820151600682015560e08201516007820155610100820151600882015561012082015180516200024b916009840191602090910190620003da565b506101409190910151600a909101805460ff191691151591909117905550508451620002849450600c9350602086019250905062000418565b505050505050505062000638565b6200030460405180610160016040528060006001600160a01b031681526020016060815260200160006001600160a01b03168152602001600081526020016000815260200160008152602001600081526020016000815260200160008152602001606081526020016000151581525090565b50604080516000808252602082018181526101a083018452928201818152606083018390526080830182905260a0830182905260c0830182905260e083018290526101008301829052610120830182905261014083018290526101608301939093526101809091015290565b828054828255906000526020600020908101928215620003c8579160200282015b82811115620003c857825182546001600160a01b0319166001600160a01b0390911617825560209092019160019091019062000391565b50620003d692915062000494565b5090565b828054828255906000526020600020908101928215620003c8579160200282015b82811115620003c8578251825591602001919060010190620003fb565b8280546200042690620005cc565b90600052602060002090601f0160209004810192826200044a5760008555620003c8565b82601f106200046557805160ff1916838001178555620003c8565b82800160010185558215620003c85791820182811115620003c8578251825591602001919060010190620003fb565b5b80821115620003d6576000815560010162000495565b8051620004b8816200061f565b919050565b6000806000806000806101008789031215620004d7578182fd5b8651620004e4816200061f565b80965050602080880151620004f9816200061f565b604089015160608a0151919750955062000513816200061f565b9350609f8801891362000524578283fd5b604051606081016001600160401b038111828210171562000549576200054962000609565b6040528060808a0160e08b018c81111562000562578687fd5b865b6003811015620005835782518452928501929185019160010162000564565b508396506200059281620004ab565b955050505050509295509295509295565b600060208284031215620005b5578081fd5b81518015158114620005c5578182fd5b9392505050565b600181811c90821680620005e157607f821691505b602082108114156200060357634e487b7160e01b600052602260045260246000fd5b50919050565b634e487b7160e01b600052604160045260246000fd5b6001600160a01b03811681146200063557600080fd5b50565b613af380620006486000396000f3fe60806040523480156200001157600080fd5b5060043610620002255760003560e01c80637d1d7fb81162000131578063b0e21e8a11620000bb578063e5678dfa1162000086578063e5678dfa14620004ca578063ea05487914620004e1578063eb44fdd314620004f8578063ec979082146200051e578063f2fde38b146200052757600080fd5b8063b0e21e8a146200047e578063cc87adea1462000488578063d5da4f1d146200049f578063d8dfeb4514620004b657600080fd5b806397eef18711620000fc57806397eef1871462000420578063992c90791462000437578063a544a62c146200044e578063b06c1ba3146200045857600080fd5b80637d1d7fb814620003d9578063893d20e814620003e35780638ce7442614620003f55780638e0ed193146200040957600080fd5b806349a4d93411620001b357806353ac55f5116200017e57806353ac55f514620003795780636a87a1c514620003a15780637641ab0114620003b8578063787dce3d14620003c257600080fd5b806349a4d93414620003155780634a7d036914620003385780634b2d9ffc14620003425780634c9f66c7146200034c57600080fd5b806335a9cdad11620001f457806335a9cdad14620002b95780633f8dd7aa14620002d057806342e0ed1614620002e7578063473a6d5214620002fe57600080fd5b80630d8e6e2c146200022a5780630d9d7111146200024c578063221fff81146200028957806332ecabe914620002a2575b600080fd5b620002346200053e565b6040516200024391906200265a565b60405180910390f35b6200027a6200025d36600462002531565b6000918252600b6020908152604080842092845291905290205490565b60405190815260200162000243565b620002a06200029a36600462002553565b620005d8565b005b620002a0620002b336600462002266565b62000961565b6200027a620002ca36600462002553565b620009af565b620002a0620002e136600462002531565b62000e3e565b6200027a620002f8366004620024d1565b50600090565b6200027a6200030f366004620024d1565b62000e4e565b6200027a6200032636600462002249565b60086020526000908152604090205481565b6200027a62000e8e565b6200027a60035481565b60025462000360906001600160a01b031681565b6040516001600160a01b03909116815260200162000243565b620003906200038a366004620024d1565b62000f56565b604051901515815260200162000243565b6200027a620003b2366004620022a1565b620010f4565b6200027a60095481565b620002a0620003d3366004620024d1565b620011c1565b6200027a60045481565b6000546001600160a01b031662000360565b60065462000360906001600160a01b031681565b6200027a6200041a36600462002249565b620011de565b620002a062000431366004620024d1565b62001299565b6200027a6200044836600462002503565b620012b6565b6200027a60075481565b6200046f62000469366004620024d1565b62001727565b604051620002439190620026b1565b6200027a60055481565b6200027a62000499366004620024d1565b6200180e565b620002a0620004b0366004620024d1565b62001820565b60015462000360906001600160a01b031681565b6200027a620004db36600462002380565b6200183d565b620002a0620004f23660046200258a565b620018ab565b6200050f62000509366004620024d1565b620018f1565b604051620002439190620026ce565b600a546200027a565b620003906200053836600462002249565b62001a9a565b6060600c80546200054f9062002a7b565b80601f01602080910402602001604051908101604052809291908181526020018280546200057d9062002a7b565b8015620005ce5780601f10620005a257610100808354040283529160200191620005ce565b820191906000526020600020905b815481529060010190602001808311620005b057829003601f168201915b5050505050905090565b600a548310620005e757600080fd5b600a83815481106200060957634e487b7160e01b600052603260045260246000fd5b60009182526020909120600a600b90920201015460ff166200062a57600080fd5b6000620006378362000e4e565b6001546040516323b872dd60e01b8152336004820152306024820152604481018390529192506001600160a01b0316906323b872dd90606401602060405180830381600087803b1580156200068b57600080fd5b505af1158015620006a0573d6000803e3d6000fd5b505050506040513d601f19601f82011682018060405250810190620006c6919062002436565b506000600a8581548110620006eb57634e487b7160e01b600052603260045260246000fd5b60009182526020918290206040805161016081018252600b90930290910180546001600160a01b031683526001810180548351818702810187019094528084529394919385830193928301828280156200076f57602002820191906000526020600020905b81546001600160a01b0316815260019091019060200180831162000750575b505050505081526020016002820160009054906101000a90046001600160a01b03166001600160a01b03166001600160a01b03168152602001600382015481526020016004820154815260200160058201548152602001600682015481526020016007820154815260200160088201548152602001600982018054806020026020016040519081016040528092919081815260200182805480156200083457602002820191906000526020600020905b8154815260200190600101908083116200081f575b5050509183525050600a919091015460ff161515602090910152905060005b8160200151518110156200090c57816020015181815181106200088657634e487b7160e01b600052603260045260246000fd5b6020908102919091010151604051636012669360e11b81526001600160a01b038681166004830152602482018890529091169063c024cd2690604401600060405180830381600087803b158015620008dd57600080fd5b505af1158015620008f2573d6000803e3d6000fd5b505050508080620009039062002ab2565b91505062000853565b5060408051868152602081018690526001600160a01b038516918101919091527fd81c0442e10068a9818f3aa093c9ccb804584690df572d7df3da2d892a6973f2906060015b60405180910390a15050505050565b6000546001600160a01b031633146200097957600080fd5b80156200098c576200098a62000e8e565b505b50600680546001600160a01b0319166001600160a01b0392909216919091179055565b600a546000908410620009c157600080fd5b600a8481548110620009e357634e487b7160e01b600052603260045260246000fd5b60009182526020909120600a600b90920201015460ff1662000a0457600080fd5b6000600a858154811062000a2857634e487b7160e01b600052603260045260246000fd5b60009182526020918290206040805161016081018252600b90930290910180546001600160a01b0316835260018101805483518187028101870190945280845293949193858301939283018282801562000aac57602002820191906000526020600020905b81546001600160a01b0316815260019091019060200180831162000a8d575b505050505081526020016002820160009054906101000a90046001600160a01b03166001600160a01b03166001600160a01b031681526020016003820154815260200160048201548152602001600582015481526020016006820154815260200160078201548152602001600882015481526020016009820180548060200260200160405190810160405280929190818152602001828054801562000b7157602002820191906000526020600020905b81548152602001906001019080831162000b5c575b5050509183525050600a919091015460ff161515602090910152905060005b81602001515181101562000c47578160200151818151811062000bc357634e487b7160e01b600052603260045260246000fd5b60209081029190910101516040516342986e1360e01b8152336004820152602481018790526001600160a01b03909116906342986e1390604401600060405180830381600087803b15801562000c1857600080fd5b505af115801562000c2d573d6000803e3d6000fd5b50505050808062000c3e9062002ab2565b91505062000b90565b50600062000c558562000e4e565b9050600062000c86670de0b6b3a764000062000c7f8560a001518562001aec90919063ffffffff16565b9062001b01565b9050600062000cb0670de0b6b3a764000062000c7f8660c001518662001aec90919063ffffffff16565b905062000cca8162000cc3858562001b0f565b9062001b0f565b9250816007600082825462000ce0919062002923565b909155505060015460405163a9059cbb60e01b81526001600160a01b038881166004830152602482018690529091169063a9059cbb90604401602060405180830381600087803b15801562000d3457600080fd5b505af115801562000d49573d6000803e3d6000fd5b505050506040513d601f19601f8201168201806040525081019062000d6f919062002436565b50600254604051630ebdac0960e41b8152600481018390526001600160a01b039091169063ebdac09090602401602060405180830381600087803b15801562000db757600080fd5b505af115801562000dcc573d6000803e3d6000fd5b505050506040513d601f19601f8201168201806040525081019062000df2919062002436565b506040805189815260208101899052338183015290517fb6fdb729b2ed801daf629f0ab713e4a7a73619505790f6f27fd92d6f2c9688d79181900360600190a150909695505050505050565b62000e4a828262001b1d565b5050565b6000600954821015801562000e6f575060095462000e6d908362002ad0565b155b62000e7957600080fd5b60095462000e8890836200293e565b92915050565b6006546000906001600160a01b031633148062000eaa57503330145b62000eb457600080fd5b600754801562000f5157600060075560015460065460405163a9059cbb60e01b81526001600160a01b0391821660048201526024810184905291169063a9059cbb90604401602060405180830381600087803b15801562000f1457600080fd5b505af115801562000f29573d6000803e3d6000fd5b505050506040513d601f19601f8201168201806040525081019062000f4f919062002436565b505b919050565b600080600a838154811062000f7b57634e487b7160e01b600052603260045260246000fd5b60009182526020918290206040805161016081018252600b90930290910180546001600160a01b0316835260018101805483518187028101870190945280845293949193858301939283018282801562000fff57602002820191906000526020600020905b81546001600160a01b0316815260019091019060200180831162000fe0575b505050505081526020016002820160009054906101000a90046001600160a01b03166001600160a01b03166001600160a01b0316815260200160038201548152602001600482015481526020016005820154815260200160068201548152602001600782015481526020016008820154815260200160098201805480602002602001604051908101604052809291908181526020018280548015620010c457602002820191906000526020600020905b815481526020019060010190808311620010af575b5050509183525050600a919091015460ff161515602090910152604001516001600160a01b031615159392505050565b604080516020601f880181900481028201830183528101878152600092600d929182918b908b9081908501838280828437600092018290525093909452505083546001810185559381526020908190208351805194959190910193620011629350849291909101906200202d565b50620011b5915089905062001178868862002991565b8585808060200260200160405190810160405280939291908181526020018383602002808284376000920191909152506001925062001c6e915050565b98975050505050505050565b6000546001600160a01b03163314620011d957600080fd5b600555565b33600090815260086020526040812054801562000e88573360009081526008602052604080822091909155600154905163a9059cbb60e01b81526001600160a01b038581166004830152602482018490529091169063a9059cbb90604401602060405180830381600087803b1580156200125757600080fd5b505af11580156200126c573d6000803e3d6000fd5b505050506040513d601f19601f8201168201806040525081019062001292919062002436565b5092915050565b6000546001600160a01b03163314620012b157600080fd5b600355565b6000620012c38362000f56565b620013085760405162461bcd60e51b81526020600482015260116024820152701b585c9ad95d081d5b9c995cdbdb1d9959607a1b604482015260640160405180910390fd5b6000600a84815481106200132c57634e487b7160e01b600052603260045260246000fd5b60009182526020918290206040805161016081018252600b90930290910180546001600160a01b03168352600181018054835181870281018701909452808452939491938583019392830182828015620013b057602002820191906000526020600020905b81546001600160a01b0316815260019091019060200180831162001391575b505050505081526020016002820160009054906101000a90046001600160a01b03166001600160a01b03166001600160a01b03168152602001600382015481526020016004820154815260200160058201548152602001600682015481526020016007820154815260200160088201548152602001600982018054806020026020016040519081016040528092919081815260200182805480156200147557602002820191906000526020600020905b81548152602001906001019080831162001460575b5050509183525050600a919091015460ff1615156020909101526040818101519051631c4a5de160e21b81523360048201529192506000916001600160a01b0390911690637129778490602401602060405180830381600087803b158015620014dd57600080fd5b505af1158015620014f2573d6000803e3d6000fd5b505050506040513d601f19601f82011682018060405250810190620015189190620024ea565b6009549091506200152a81836200293e565b62001536919062002955565b90506000620015458262000e4e565b905060006200156f670de0b6b3a764000062000c7f86608001518562001aec90919063ffffffff16565b90506200157d828262001b0f565b84516001600160a01b0316600090815260086020526040812080549294508392909190620015ad90849062002923565b909155505060015460405163a9059cbb60e01b81526001600160a01b038881166004830152602482018590529091169063a9059cbb90604401602060405180830381600087803b1580156200160157600080fd5b505af115801562001616573d6000803e3d6000fd5b505050506040513d601f19601f820116820180604052508101906200163c919062002436565b50600084606001519050600085604001516001600160a01b03166306fdde036040518163ffffffff1660e01b815260040160006040518083038186803b1580156200168657600080fd5b505afa1580156200169b573d6000803e3d6000fd5b505050506040513d6000823e601f3d908101601f19168201604052620016c5919081019062002455565b9050876001600160a01b03167f76ea0c89f1eef8b1ac3908910bbe5ee5120ff997f6b3bcc900659973e6a2ff128a886040015185858a898b604051620017129796959493929190620027d7565b60405180910390a25091979650505050505050565b604080516020810190915260608152600d82815481106200175857634e487b7160e01b600052603260045260246000fd5b906000526020600020016040518060200160405290816000820180546200177f9062002a7b565b80601f0160208091040260200160405190810160405280929190818152602001828054620017ad9062002a7b565b8015620017fe5780601f10620017d257610100808354040283529160200191620017fe565b820191906000526020600020905b815481529060010190602001808311620017e057829003601f168201915b5050505050815250509050919050565b60006009548262000e88919062002955565b6000546001600160a01b031633146200183857600080fd5b600455565b600080805b8451811015620018a3576200188c620018848683815181106200187557634e487b7160e01b600052603260045260246000fd5b602002602001015186620012b6565b839062001e5d565b9150806200189a8162002ab2565b91505062001842565b509392505050565b6000838152600b60209081526040808320858452909152902054620018d290829062002923565b6000938452600b60209081526040808620948652939052919092205550565b620018fb620020bc565b600a5482106200190f5762000e8862001e6b565b600a82815481106200193157634e487b7160e01b600052603260045260246000fd5b60009182526020918290206040805161016081018252600b90930290910180546001600160a01b03168352600181018054835181870281018701909452808452939491938583019392830182828015620019b557602002820191906000526020600020905b81546001600160a01b0316815260019091019060200180831162001996575b505050505081526020016002820160009054906101000a90046001600160a01b03166001600160a01b03166001600160a01b031681526020016003820154815260200160048201548152602001600582015481526020016006820154815260200160078201548152602001600882015481526020016009820180548060200260200160405190810160405280929190818152602001828054801562001a7a57602002820191906000526020600020905b81548152602001906001019080831162001a65575b5050509183525050600a919091015460ff16151560209091015292915050565b600080546001600160a01b0316331462001ab357600080fd5b6001600160a01b03821662001ac757600080fd5b50600080546001600160a01b0383166001600160a01b03199091161790556001919050565b600062001afa828462002955565b9392505050565b600062001afa82846200293e565b600062001afa828462002977565b6000600a838154811062001b4157634e487b7160e01b600052603260045260246000fd5b90600052602060002090600b02019050600081600101838154811062001b7757634e487b7160e01b600052603260045260246000fd5b60009182526020822001546002840180546001600160a01b0319166001600160a01b039092169182179055600a8401805460ff1916905560038401859055426008850155604080516306fdde0360e01b8152905191935083916306fdde03916004808201928692909190829003018186803b15801562001bf657600080fd5b505afa15801562001c0b573d6000803e3d6000fd5b505050506040513d6000823e601f3d908101601f1916820160405262001c35919081019062002455565b90507f8008bbeee2e3c054e71d4965b4c22b41a2287cd6cc67c714bf918b538338be5f858386846040516200095294939291906200279e565b600a80546040805161016081019091526001600160a01b03871681529091906020810162001c9d873062001ee1565b815260006020808301829052604083018290526004546060840152600554608084015260035460a08401524260c084015260e08301829052610100830188905286151561012090930192909252835460018082018655948252908290208351600b9092020180546001600160a01b0319166001600160a01b039092169190911781558282015180519394919362001d3d939285019291909101906200212a565b5060408201516002820180546001600160a01b0319166001600160a01b03909216919091179055606082015160038201556080820151600482015560a0820151600582015560c0820151600682015560e082015160078201556101008201516008820155610120820151805162001dbf91600984019160209091019062002182565b506101409190910151600a909101805460ff19169115159190911790556040517f037fdac9e4b37ad8b184ce958d7b275e578c9e03d4cfbc51aa75de25fdb6bbec9062001e129083908790879062002825565b60405180910390a1811562001e55576040518181527fee570fee9d8debeedea533b8cdfde6b9d9995b915869d4d10d350e75a9bf0f889060200160405180910390a15b949350505050565b600062001afa828462002923565b62001e75620020bc565b50604080516000808252602082018181526101a083018452928201818152606083018390526080830182905260a0830182905260c0830182905260e083018290526101008301829052610120830182905261014083018290526101608301939093526101809091015290565b815160609060008167ffffffffffffffff81111562001f1057634e487b7160e01b600052604160045260246000fd5b60405190808252806020026020018201604052801562001f3a578160200160208202803683370190505b50905060005b82811015620020245785818151811062001f6a57634e487b7160e01b600052603260045260246000fd5b602002602001015186828151811062001f9357634e487b7160e01b600052603260045260246000fd5b60200260200101518660405162001faa90620021bf565b62001fb8939291906200266f565b604051809103906000f08015801562001fd5573d6000803e3d6000fd5b5082828151811062001ff757634e487b7160e01b600052603260045260246000fd5b6001600160a01b0390921660209283029190910190910152806200201b8162002ab2565b91505062001f40565b50949350505050565b8280546200203b9062002a7b565b90600052602060002090601f0160209004810192826200205f5760008555620020aa565b82601f106200207a57805160ff1916838001178555620020aa565b82800160010185558215620020aa579182015b82811115620020aa5782518255916020019190600101906200208d565b50620020b8929150620021cd565b5090565b60405180610160016040528060006001600160a01b031681526020016060815260200160006001600160a01b03168152602001600081526020016000815260200160008152602001600081526020016000815260200160008152602001606081526020016000151581525090565b828054828255906000526020600020908101928215620020aa579160200282015b82811115620020aa57825182546001600160a01b0319166001600160a01b039091161782556020909201916001909101906200214b565b828054828255906000526020600020908101928215620020aa5791602002820182811115620020aa5782518255916020019190600101906200208d565b610f828062002b3c83390190565b5b80821115620020b85760008155600101620021ce565b80356001600160a01b038116811462000f5157600080fd5b60008083601f8401126200220e578182fd5b50813567ffffffffffffffff81111562002226578182fd5b6020830191508360208260051b85010111156200224257600080fd5b9250929050565b6000602082840312156200225b578081fd5b62001afa82620021e4565b6000806040838503121562002279578081fd5b6200228483620021e4565b91506020830135620022968162002b29565b809150509250929050565b60008060008060008060006080888a031215620022bc578283fd5b620022c788620021e4565b9650602088013567ffffffffffffffff80821115620022e4578485fd5b818a0191508a601f830112620022f8578485fd5b81358181111562002307578586fd5b8b602082850101111562002319578586fd5b6020830198508097505060408a013591508082111562002337578485fd5b620023458b838c01620021fc565b909650945060608a01359150808211156200235e578384fd5b506200236d8a828b01620021fc565b989b979a50959850939692959293505050565b6000806040838503121562002393578182fd5b823567ffffffffffffffff811115620023aa578283fd5b8301601f81018513620023bb578283fd5b80356020620023d4620023ce83620028d1565b6200289d565b80838252828201915082850189848660051b8801011115620023f4578788fd5b8795505b8486101562002418578035835260019590950194918301918301620023f8565b5095506200242a9050868201620021e4565b93505050509250929050565b60006020828403121562002448578081fd5b815162001afa8162002b29565b60006020828403121562002467578081fd5b815167ffffffffffffffff8111156200247e578182fd5b8201601f810184136200248f578182fd5b8051620024a0620023ce82620028f8565b818152856020838501011115620024b5578384fd5b620024c882602083016020860162002a48565b95945050505050565b600060208284031215620024e3578081fd5b5035919050565b600060208284031215620024fc578081fd5b5051919050565b6000806040838503121562002516578182fd5b823591506200252860208401620021e4565b90509250929050565b6000806040838503121562002544578182fd5b50508035926020909101359150565b60008060006060848603121562002568578081fd5b83359250602084013591506200258160408501620021e4565b90509250925092565b6000806000606084860312156200259f578081fd5b505081359360208301359350604090920135919050565b6000815180845260208085019450808401835b83811015620025f05781516001600160a01b031687529582019590820190600101620025c9565b509495945050505050565b6000815180845260208085019450808401835b83811015620025f0578151875295820195908201906001016200260e565b600081518084526200264681602086016020860162002a48565b601f01601f19169290920160200192915050565b60208152600062001afa60208301846200262c565b6060815260006200268460608301866200262c565b82810360208401526200269881866200262c565b91505060018060a01b0383166040830152949350505050565b602081526000825160208084015262001e5560408401826200262c565b60208152620026e96020820183516001600160a01b03169052565b6000602083015161016080604085015262002709610180850183620025b6565b915060408501516200272660608601826001600160a01b03169052565b5060608501516080850152608085015160a085015260a085015160c085015260c085015160e085015260e0850151610100818187015280870151915050610120818187015280870151915050610140601f1986850301818701526200278c8483620025fb565b96015115159190940152509192915050565b84815260018060a01b0384166020820152826040820152608060608201526000620027cd60808301846200262c565b9695505050505050565b87815260018060a01b038716602082015285604082015260e0606082015260006200280660e08301876200262c565b60808301959095525060a081019290925260c090910152949350505050565b600060608201858352602060608185015281865180845260808601915060808160051b8701019350828801855b828110156200288457607f19888703018452620028718683516200262c565b9550928401929084019060010162002852565b50505050508281036040840152620027cd8185620025fb565b604051601f8201601f1916810167ffffffffffffffff81118282101715620028c957620028c962002b13565b604052919050565b600067ffffffffffffffff821115620028ee57620028ee62002b13565b5060051b60200190565b600067ffffffffffffffff82111562002915576200291562002b13565b50601f01601f191660200190565b6000821982111562002939576200293962002ae7565b500190565b60008262002950576200295062002afd565b500490565b600081600019048311821515161562002972576200297262002ae7565b500290565b6000828210156200298c576200298c62002ae7565b500390565b6000620029a2620023ce84620028d1565b808482526020808301925084368760051b87011115620029c0578485fd5b845b8781101562002a3c57813567ffffffffffffffff811115620029e2578687fd5b870136601f820112620029f3578687fd5b803562002a04620023ce82620028f8565b818152368683850101111562002a18578889fd5b818684018783013790810185018890528652509382019390820190600101620029c2565b50919695505050505050565b60005b8381101562002a6557818101518382015260200162002a4b565b8381111562002a75576000848401525b50505050565b600181811c9082168062002a9057607f821691505b6020821081141562000f4f57634e487b7160e01b600052602260045260246000fd5b600060001982141562002ac95762002ac962002ae7565b5060010190565b60008262002ae25762002ae262002afd565b500690565b634e487b7160e01b600052601160045260246000fd5b634e487b7160e01b600052601260045260246000fd5b634e487b7160e01b600052604160045260246000fd5b801515811462002b3857600080fd5b5056fe60806040523480156200001157600080fd5b5060405162000f8238038062000f828339810160408190526200003491620001f0565b8251839083906200004d90600390602085019062000097565b5080516200006390600490602084019062000097565b5050600580546001600160a01b031990811633909116176001600160a01b03939093169290921790915550620002cc915050565b828054620000a59062000279565b90600052602060002090601f016020900481019282620000c9576000855562000114565b82601f10620000e457805160ff191683800117855562000114565b8280016001018555821562000114579182015b8281111562000114578251825591602001919060010190620000f7565b506200012292915062000126565b5090565b5b8082111562000122576000815560010162000127565b600082601f8301126200014e578081fd5b81516001600160401b03808211156200016b576200016b620002b6565b604051601f8301601f19908116603f01168101908282118183101715620001965762000196620002b6565b81604052838152602092508683858801011115620001b2578485fd5b8491505b83821015620001d55785820183015181830184015290820190620001b6565b83821115620001e657848385830101525b9695505050505050565b60008060006060848603121562000205578283fd5b83516001600160401b03808211156200021c578485fd5b6200022a878388016200013d565b9450602086015191508082111562000240578384fd5b506200024f868287016200013d565b604086015190935090506001600160a01b03811681146200026e578182fd5b809150509250925092565b600181811c908216806200028e57607f821691505b60208210811415620002b057634e487b7160e01b600052602260045260246000fd5b50919050565b634e487b7160e01b600052604160045260246000fd5b610ca680620002dc6000396000f3fe608060405234801561001057600080fd5b506004361061010b5760003560e01c806370a08231116100a2578063a457c2d711610071578063a457c2d71461021f578063a9059cbb14610232578063c024cd2614610245578063dd62ed3e14610258578063f2fde38b1461026b57600080fd5b806370a08231146101c057806371297784146101e9578063893d20e8146101fc57806395d89b411461021757600080fd5b806323b872dd116100de57806323b872dd14610178578063313ce5671461018b578063395093511461019a57806342986e13146101ad57600080fd5b806306fdde0314610110578063095ea7b31461012e5780630fb665571461015157806318160ddd14610166575b600080fd5b61011861027e565b6040516101259190610b9d565b60405180910390f35b61014161013c366004610b74565b610310565b6040519015158152602001610125565b61016461015f366004610b39565b610328565b005b6002545b604051908152602001610125565b610141610186366004610b39565b61034f565b60405160128152602001610125565b6101416101a8366004610b74565b610373565b6101646101bb366004610b74565b610395565b61016a6101ce366004610ae6565b6001600160a01b031660009081526020819052604090205490565b61016a6101f7366004610ae6565b6103ba565b6005546040516001600160a01b039091168152602001610125565b6101186103ff565b61014161022d366004610b74565b61040e565b610141610240366004610b74565b61048e565b610164610253366004610b74565b61049c565b61016a610266366004610b07565b6104bd565b610141610279366004610ae6565b6104e8565b60606003805461028d90610c1f565b80601f01602080910402602001604051908101604052809291908181526020018280546102b990610c1f565b80156103065780601f106102db57610100808354040283529160200191610306565b820191906000526020600020905b8154815290600101906020018083116102e957829003601f168201915b5050505050905090565b60003361031e81858561053a565b5060019392505050565b6005546001600160a01b0316331461033f57600080fd5b61034a83838361065e565b505050565b60003361035d85828561082e565b61036885858561065e565b506001949350505050565b60003361031e81858561038683836104bd565b6103909190610bf0565b61053a565b6005546001600160a01b031633146103ac57600080fd5b6103b682826108a2565b5050565b6005546000906001600160a01b031633146103d457600080fd5b6001600160a01b0382166000908152602081905260409020546103f783826108a2565b90505b919050565b60606004805461028d90610c1f565b6000338161041c82866104bd565b9050838110156104815760405162461bcd60e51b815260206004820152602560248201527f45524332303a2064656372656173656420616c6c6f77616e63652062656c6f77604482015264207a65726f60d81b60648201526084015b60405180910390fd5b610368828686840361053a565b60003361031e81858561065e565b6005546001600160a01b031633146104b357600080fd5b6103b682826109f0565b6001600160a01b03918216600090815260016020908152604080832093909416825291909152205490565b6005546000906001600160a01b0316331461050257600080fd5b6001600160a01b03821661051557600080fd5b50600580546001600160a01b0383166001600160a01b03199091161790556001919050565b6001600160a01b03831661059c5760405162461bcd60e51b8152602060048201526024808201527f45524332303a20617070726f76652066726f6d20746865207a65726f206164646044820152637265737360e01b6064820152608401610478565b6001600160a01b0382166105fd5760405162461bcd60e51b815260206004820152602260248201527f45524332303a20617070726f766520746f20746865207a65726f206164647265604482015261737360f01b6064820152608401610478565b6001600160a01b0383811660008181526001602090815260408083209487168084529482529182902085905590518481527f8c5be1e5ebec7d5bd14f71427d1e84f3dd0314c0f7b2291e5b200ac8c7c3b925910160405180910390a3505050565b6001600160a01b0383166106c25760405162461bcd60e51b815260206004820152602560248201527f45524332303a207472616e736665722066726f6d20746865207a65726f206164604482015264647265737360d81b6064820152608401610478565b6001600160a01b0382166107245760405162461bcd60e51b815260206004820152602360248201527f45524332303a207472616e7366657220746f20746865207a65726f206164647260448201526265737360e81b6064820152608401610478565b6001600160a01b0383166000908152602081905260409020548181101561079c5760405162461bcd60e51b815260206004820152602660248201527f45524332303a207472616e7366657220616d6f756e7420657863656564732062604482015265616c616e636560d01b6064820152608401610478565b6001600160a01b038085166000908152602081905260408082208585039055918516815290812080548492906107d3908490610bf0565b92505081905550826001600160a01b0316846001600160a01b03167fddf252ad1be2c89b69c2b068fc378daa952ba7f163c4a11628f55a4df523b3ef8460405161081f91815260200190565b60405180910390a35b50505050565b600061083a84846104bd565b9050600019811461082857818110156108955760405162461bcd60e51b815260206004820152601d60248201527f45524332303a20696e73756666696369656e7420616c6c6f77616e63650000006044820152606401610478565b610828848484840361053a565b6001600160a01b0382166109025760405162461bcd60e51b815260206004820152602160248201527f45524332303a206275726e2066726f6d20746865207a65726f206164647265736044820152607360f81b6064820152608401610478565b6001600160a01b038216600090815260208190526040902054818110156109765760405162461bcd60e51b815260206004820152602260248201527f45524332303a206275726e20616d6f756e7420657863656564732062616c616e604482015261636560f01b6064820152608401610478565b6001600160a01b03831660009081526020819052604081208383039055600280548492906109a5908490610c08565b90915550506040518281526000906001600160a01b038516907fddf252ad1be2c89b69c2b068fc378daa952ba7f163c4a11628f55a4df523b3ef9060200160405180910390a3505050565b6001600160a01b038216610a465760405162461bcd60e51b815260206004820152601f60248201527f45524332303a206d696e7420746f20746865207a65726f2061646472657373006044820152606401610478565b8060026000828254610a589190610bf0565b90915550506001600160a01b03821660009081526020819052604081208054839290610a85908490610bf0565b90915550506040518181526001600160a01b038316906000907fddf252ad1be2c89b69c2b068fc378daa952ba7f163c4a11628f55a4df523b3ef9060200160405180910390a35050565b80356001600160a01b03811681146103fa57600080fd5b600060208284031215610af7578081fd5b610b0082610acf565b9392505050565b60008060408385031215610b19578081fd5b610b2283610acf565b9150610b3060208401610acf565b90509250929050565b600080600060608486031215610b4d578081fd5b610b5684610acf565b9250610b6460208501610acf565b9150604084013590509250925092565b60008060408385031215610b86578182fd5b610b8f83610acf565b946020939093013593505050565b6000602080835283518082850152825b81811015610bc957858101830151858201604001528201610bad565b81811115610bda5783604083870101525b50601f01601f1916929092016040019392505050565b60008219821115610c0357610c03610c5a565b500190565b600082821015610c1a57610c1a610c5a565b500390565b600181811c90821680610c3357607f821691505b60208210811415610c5457634e487b7160e01b600052602260045260246000fd5b50919050565b634e487b7160e01b600052601160045260246000fdfea2646970667358221220e452cdb4a719913f78085751e4a8b4a7e94a6b830dab625ede4dc151dd3028d264736f6c63430008040033a26469706673582212203b5422e22dcc211dcddbca26d6f225a0594b3588a614f49b41e53b4c63e592b664736f6c63430008040033",
  "devdoc": {
    "kind": "dev",
    "methods": {
      "transferOwnership(address)": {
        "details": "Allows the current owner to transfer control of the contract to a newOwner.",
        "params": {
          "_newOwner": "The address to transfer ownership to."
        }
      }
    },
    "version": 1
  },
  "userdoc": {
    "kind": "user",
    "methods": {},
    "version": 1
  },
  "storageLayout": {
    "storage": [
      {
        "astId": 13016,
        "contract": "contracts/turbo/TrustedMarketFactoryV3.sol:TrustedMarketFactoryV3",
        "label": "owner",
        "offset": 0,
        "slot": "0",
        "type": "t_address"
      },
      {
        "astId": 26151,
        "contract": "contracts/turbo/TrustedMarketFactoryV3.sol:TrustedMarketFactoryV3",
        "label": "collateral",
        "offset": 0,
        "slot": "1",
        "type": "t_contract(IERC20Full)12848"
      },
      {
        "astId": 26154,
        "contract": "contracts/turbo/TrustedMarketFactoryV3.sol:TrustedMarketFactoryV3",
        "label": "feePot",
        "offset": 0,
        "slot": "2",
        "type": "t_contract(FeePot)30001"
      },
      {
        "astId": 26156,
        "contract": "contracts/turbo/TrustedMarketFactoryV3.sol:TrustedMarketFactoryV3",
        "label": "stakerFee",
        "offset": 0,
        "slot": "3",
        "type": "t_uint256"
      },
      {
        "astId": 26158,
        "contract": "contracts/turbo/TrustedMarketFactoryV3.sol:TrustedMarketFactoryV3",
        "label": "settlementFee",
        "offset": 0,
        "slot": "4",
        "type": "t_uint256"
      },
      {
        "astId": 26160,
        "contract": "contracts/turbo/TrustedMarketFactoryV3.sol:TrustedMarketFactoryV3",
        "label": "protocolFee",
        "offset": 0,
        "slot": "5",
        "type": "t_uint256"
      },
      {
        "astId": 26162,
        "contract": "contracts/turbo/TrustedMarketFactoryV3.sol:TrustedMarketFactoryV3",
        "label": "protocol",
        "offset": 0,
        "slot": "6",
        "type": "t_address"
      },
      {
        "astId": 26165,
        "contract": "contracts/turbo/TrustedMarketFactoryV3.sol:TrustedMarketFactoryV3",
        "label": "accumulatedProtocolFee",
        "offset": 0,
        "slot": "7",
        "type": "t_uint256"
      },
      {
        "astId": 26169,
        "contract": "contracts/turbo/TrustedMarketFactoryV3.sol:TrustedMarketFactoryV3",
        "label": "accumulatedSettlementFees",
        "offset": 0,
        "slot": "8",
        "type": "t_mapping(t_address,t_uint256)"
      },
      {
        "astId": 26171,
        "contract": "contracts/turbo/TrustedMarketFactoryV3.sol:TrustedMarketFactoryV3",
        "label": "shareFactor",
        "offset": 0,
        "slot": "9",
        "type": "t_uint256"
      },
      {
        "astId": 26202,
        "contract": "contracts/turbo/TrustedMarketFactoryV3.sol:TrustedMarketFactoryV3",
        "label": "markets",
        "offset": 0,
        "slot": "10",
        "type": "t_array(t_struct(Market)26198_storage)dyn_storage"
      },
      {
        "astId": 26290,
        "contract": "contracts/turbo/TrustedMarketFactoryV3.sol:TrustedMarketFactoryV3",
        "label": "TradeDetails",
        "offset": 0,
        "slot": "11",
        "type": "t_mapping(t_uint256,t_mapping(t_uint256,t_uint256))"
      },
      {
        "astId": 14006,
        "contract": "contracts/turbo/TrustedMarketFactoryV3.sol:TrustedMarketFactoryV3",
        "label": "version",
        "offset": 0,
        "slot": "12",
        "type": "t_string_storage"
      },
      {
        "astId": 40361,
        "contract": "contracts/turbo/TrustedMarketFactoryV3.sol:TrustedMarketFactoryV3",
        "label": "marketDetails",
        "offset": 0,
        "slot": "13",
        "type": "t_array(t_struct(MarketDetails)40357_storage)dyn_storage"
      },
      {
        "astId": 40382,
        "contract": "contracts/turbo/TrustedMarketFactoryV3.sol:TrustedMarketFactoryV3",
        "label": "managers",
        "offset": 0,
        "slot": "14",
        "type": "t_mapping(t_address,t_bool)"
      }
    ],
    "types": {
      "t_address": {
        "encoding": "inplace",
        "label": "address",
        "numberOfBytes": "20"
      },
      "t_array(t_contract(OwnedERC20)37237)dyn_storage": {
        "base": "t_contract(OwnedERC20)37237",
        "encoding": "dynamic_array",
        "label": "contract OwnedERC20[]",
        "numberOfBytes": "32"
      },
      "t_array(t_struct(Market)26198_storage)dyn_storage": {
        "base": "t_struct(Market)26198_storage",
        "encoding": "dynamic_array",
        "label": "struct AbstractMarketFactoryV3.Market[]",
        "numberOfBytes": "32"
      },
      "t_array(t_struct(MarketDetails)40357_storage)dyn_storage": {
        "base": "t_struct(MarketDetails)40357_storage",
        "encoding": "dynamic_array",
        "label": "struct TrustedMarketFactoryV3.MarketDetails[]",
        "numberOfBytes": "32"
      },
      "t_array(t_uint256)dyn_storage": {
        "base": "t_uint256",
        "encoding": "dynamic_array",
        "label": "uint256[]",
        "numberOfBytes": "32"
      },
      "t_bool": {
        "encoding": "inplace",
        "label": "bool",
        "numberOfBytes": "1"
      },
      "t_contract(FeePot)30001": {
        "encoding": "inplace",
        "label": "contract FeePot",
        "numberOfBytes": "20"
      },
      "t_contract(IERC20Full)12848": {
        "encoding": "inplace",
        "label": "contract IERC20Full",
        "numberOfBytes": "20"
      },
      "t_contract(OwnedERC20)37237": {
        "encoding": "inplace",
        "label": "contract OwnedERC20",
        "numberOfBytes": "20"
      },
      "t_mapping(t_address,t_bool)": {
        "encoding": "mapping",
        "key": "t_address",
        "label": "mapping(address => bool)",
        "numberOfBytes": "32",
        "value": "t_bool"
      },
      "t_mapping(t_address,t_uint256)": {
        "encoding": "mapping",
        "key": "t_address",
        "label": "mapping(address => uint256)",
        "numberOfBytes": "32",
        "value": "t_uint256"
      },
      "t_mapping(t_uint256,t_mapping(t_uint256,t_uint256))": {
        "encoding": "mapping",
        "key": "t_uint256",
        "label": "mapping(uint256 => mapping(uint256 => uint256))",
        "numberOfBytes": "32",
        "value": "t_mapping(t_uint256,t_uint256)"
      },
      "t_mapping(t_uint256,t_uint256)": {
        "encoding": "mapping",
        "key": "t_uint256",
        "label": "mapping(uint256 => uint256)",
        "numberOfBytes": "32",
        "value": "t_uint256"
      },
      "t_string_storage": {
        "encoding": "bytes",
        "label": "string",
        "numberOfBytes": "32"
      },
      "t_struct(Market)26198_storage": {
        "encoding": "inplace",
        "label": "struct AbstractMarketFactoryV3.Market",
        "members": [
          {
            "astId": 26173,
            "contract": "contracts/turbo/TrustedMarketFactoryV3.sol:TrustedMarketFactoryV3",
            "label": "settlementAddress",
            "offset": 0,
            "slot": "0",
            "type": "t_address"
          },
          {
            "astId": 26177,
            "contract": "contracts/turbo/TrustedMarketFactoryV3.sol:TrustedMarketFactoryV3",
            "label": "shareTokens",
            "offset": 0,
            "slot": "1",
            "type": "t_array(t_contract(OwnedERC20)37237)dyn_storage"
          },
          {
            "astId": 26180,
            "contract": "contracts/turbo/TrustedMarketFactoryV3.sol:TrustedMarketFactoryV3",
            "label": "winner",
            "offset": 0,
            "slot": "2",
            "type": "t_contract(OwnedERC20)37237"
          },
          {
            "astId": 26182,
            "contract": "contracts/turbo/TrustedMarketFactoryV3.sol:TrustedMarketFactoryV3",
            "label": "winnerIndex",
            "offset": 0,
            "slot": "3",
            "type": "t_uint256"
          },
          {
            "astId": 26184,
            "contract": "contracts/turbo/TrustedMarketFactoryV3.sol:TrustedMarketFactoryV3",
            "label": "settlementFee",
            "offset": 0,
            "slot": "4",
            "type": "t_uint256"
          },
          {
            "astId": 26186,
            "contract": "contracts/turbo/TrustedMarketFactoryV3.sol:TrustedMarketFactoryV3",
            "label": "protocolFee",
            "offset": 0,
            "slot": "5",
            "type": "t_uint256"
          },
          {
            "astId": 26188,
            "contract": "contracts/turbo/TrustedMarketFactoryV3.sol:TrustedMarketFactoryV3",
            "label": "stakerFee",
            "offset": 0,
            "slot": "6",
            "type": "t_uint256"
          },
          {
            "astId": 26190,
            "contract": "contracts/turbo/TrustedMarketFactoryV3.sol:TrustedMarketFactoryV3",
            "label": "creationTimestamp",
            "offset": 0,
            "slot": "7",
            "type": "t_uint256"
          },
          {
            "astId": 26192,
            "contract": "contracts/turbo/TrustedMarketFactoryV3.sol:TrustedMarketFactoryV3",
            "label": "resolutionTimestamp",
            "offset": 0,
            "slot": "8",
            "type": "t_uint256"
          },
          {
            "astId": 26195,
            "contract": "contracts/turbo/TrustedMarketFactoryV3.sol:TrustedMarketFactoryV3",
            "label": "initialOdds",
            "offset": 0,
            "slot": "9",
            "type": "t_array(t_uint256)dyn_storage"
          },
          {
            "astId": 26197,
            "contract": "contracts/turbo/TrustedMarketFactoryV3.sol:TrustedMarketFactoryV3",
            "label": "active",
            "offset": 0,
            "slot": "10",
            "type": "t_bool"
          }
        ],
        "numberOfBytes": "352"
      },
      "t_struct(MarketDetails)40357_storage": {
        "encoding": "inplace",
        "label": "struct TrustedMarketFactoryV3.MarketDetails",
        "members": [
          {
            "astId": 40356,
            "contract": "contracts/turbo/TrustedMarketFactoryV3.sol:TrustedMarketFactoryV3",
            "label": "description",
            "offset": 0,
            "slot": "0",
            "type": "t_string_storage"
          }
        ],
        "numberOfBytes": "32"
      },
      "t_uint256": {
        "encoding": "inplace",
        "label": "uint256",
        "numberOfBytes": "32"
      }
    }
  }
}