{
  "address": "0xd245204db0b70722E703c9E803a0C461a31fA8F2",
  "abi": [
    {
      "inputs": [],
      "stateMutability": "nonpayable",
      "type": "constructor"
    },
    {
      "inputs": [
        {
          "internalType": "address",
          "name": "_marketFactory",
          "type": "address"
        },
        {
          "internalType": "contract AMMFactory",
          "name": "_ammFactory",
          "type": "address"
        },
        {
          "internalType": "uint256",
          "name": "_offset",
          "type": "uint256"
        },
        {
          "internalType": "uint256",
          "name": "_total",
          "type": "uint256"
        }
      ],
      "name": "fetchDynamic",
      "outputs": [
        {
          "components": [
            {
              "components": [
                {
                  "internalType": "contract AbstractMarketFactoryV3",
                  "name": "factory",
                  "type": "address"
                },
                {
                  "internalType": "uint256",
                  "name": "marketId",
                  "type": "uint256"
                },
                {
                  "components": [
                    {
                      "internalType": "address",
                      "name": "addr",
                      "type": "address"
                    },
                    {
                      "internalType": "uint256[]",
                      "name": "tokenRatios",
                      "type": "uint256[]"
                    },
                    {
                      "internalType": "uint256[]",
                      "name": "balances",
                      "type": "uint256[]"
                    },
                    {
                      "internalType": "uint256[]",
                      "name": "weights",
                      "type": "uint256[]"
                    },
                    {
                      "internalType": "uint256",
                      "name": "swapFee",
                      "type": "uint256"
                    },
                    {
                      "internalType": "uint256",
                      "name": "totalSupply",
                      "type": "uint256"
                    }
                  ],
                  "internalType": "struct Fetcher.PoolBundle",
                  "name": "pool",
                  "type": "tuple"
                },
                {
                  "internalType": "contract OwnedERC20",
                  "name": "winner",
                  "type": "address"
                }
              ],
              "internalType": "struct Fetcher.DynamicMarketBundle",
              "name": "_super",
              "type": "tuple"
            },
            {
              "internalType": "string",
              "name": "description",
              "type": "string"
            }
          ],
          "internalType": "struct TrustedFetcher.SpecificDynamicMarketBundle[]",
          "name": "_bundles",
          "type": "tuple[]"
        },
        {
          "internalType": "uint256",
          "name": "_lowestMarketIndex",
          "type": "uint256"
        },
        {
          "internalType": "uint256",
          "name": "_timestamp",
          "type": "uint256"
        }
      ],
      "stateMutability": "view",
      "type": "function"
    },
    {
      "inputs": [
        {
          "internalType": "address",
          "name": "_marketFactory",
          "type": "address"
        },
        {
          "internalType": "contract AMMFactory",
          "name": "_ammFactory",
          "type": "address"
        },
        {
          "internalType": "contract MasterChef",
          "name": "_masterChef",
          "type": "address"
        },
        {
          "internalType": "uint256",
          "name": "_offset",
          "type": "uint256"
        },
        {
          "internalType": "uint256",
          "name": "_total",
          "type": "uint256"
        }
      ],
      "name": "fetchInitial",
      "outputs": [
        {
          "components": [
            {
              "components": [
                {
                  "internalType": "uint256",
                  "name": "shareFactor",
                  "type": "uint256"
                },
                {
                  "internalType": "uint256",
                  "name": "stakerFee",
                  "type": "uint256"
                },
                {
                  "internalType": "uint256",
                  "name": "settlementFee",
                  "type": "uint256"
                },
                {
                  "internalType": "uint256",
                  "name": "protocolFee",
                  "type": "uint256"
                },
                {
                  "internalType": "contract FeePot",
                  "name": "feePot",
                  "type": "address"
                },
                {
                  "components": [
                    {
                      "internalType": "address",
                      "name": "addr",
                      "type": "address"
                    },
                    {
                      "internalType": "string",
                      "name": "symbol",
                      "type": "string"
                    },
                    {
                      "internalType": "uint256",
                      "name": "decimals",
                      "type": "uint256"
                    }
                  ],
                  "internalType": "struct Fetcher.CollateralBundle",
                  "name": "collateral",
                  "type": "tuple"
                },
                {
                  "internalType": "uint256",
                  "name": "marketCount",
                  "type": "uint256"
                }
              ],
              "internalType": "struct Fetcher.MarketFactoryBundle",
              "name": "_super",
              "type": "tuple"
            }
          ],
          "internalType": "struct TrustedFetcher.SpecificMarketFactoryBundle",
          "name": "_marketFactoryBundle",
          "type": "tuple"
        },
        {
          "components": [
            {
              "components": [
                {
                  "internalType": "contract AbstractMarketFactoryV3",
                  "name": "factory",
                  "type": "address"
                },
                {
                  "internalType": "uint256",
                  "name": "marketId",
                  "type": "uint256"
                },
                {
                  "components": [
                    {
                      "internalType": "address",
                      "name": "addr",
                      "type": "address"
                    },
                    {
                      "internalType": "uint256[]",
                      "name": "tokenRatios",
                      "type": "uint256[]"
                    },
                    {
                      "internalType": "uint256[]",
                      "name": "balances",
                      "type": "uint256[]"
                    },
                    {
                      "internalType": "uint256[]",
                      "name": "weights",
                      "type": "uint256[]"
                    },
                    {
                      "internalType": "uint256",
                      "name": "swapFee",
                      "type": "uint256"
                    },
                    {
                      "internalType": "uint256",
                      "name": "totalSupply",
                      "type": "uint256"
                    }
                  ],
                  "internalType": "struct Fetcher.PoolBundle",
                  "name": "pool",
                  "type": "tuple"
                },
                {
                  "components": [
                    {
                      "internalType": "uint256",
                      "name": "beginTimestamp",
                      "type": "uint256"
                    },
                    {
                      "internalType": "uint256",
                      "name": "endTimestamp",
                      "type": "uint256"
                    },
                    {
                      "internalType": "uint256",
                      "name": "earlyDepositEndTimestamp",
                      "type": "uint256"
                    },
                    {
                      "internalType": "uint256",
                      "name": "totalRewardsAccrued",
                      "type": "uint256"
                    },
                    {
                      "internalType": "bool",
                      "name": "created",
                      "type": "bool"
                    }
                  ],
                  "internalType": "struct MasterChef.PoolStatusInfo",
                  "name": "rewards",
                  "type": "tuple"
                },
                {
                  "internalType": "contract OwnedERC20[]",
                  "name": "shareTokens",
                  "type": "address[]"
                },
                {
                  "internalType": "uint256",
                  "name": "creationTimestamp",
                  "type": "uint256"
                },
                {
                  "internalType": "contract OwnedERC20",
                  "name": "winner",
                  "type": "address"
                },
                {
                  "internalType": "uint256[]",
                  "name": "initialOdds",
                  "type": "uint256[]"
                }
              ],
              "internalType": "struct Fetcher.StaticMarketBundle",
              "name": "_super",
              "type": "tuple"
            },
            {
              "internalType": "string",
              "name": "description",
              "type": "string"
            }
          ],
          "internalType": "struct TrustedFetcher.SpecificStaticMarketBundle[]",
          "name": "_marketBundles",
          "type": "tuple[]"
        },
        {
          "internalType": "uint256",
          "name": "_lowestMarketIndex",
          "type": "uint256"
        },
        {
          "internalType": "uint256",
          "name": "_timestamp",
          "type": "uint256"
        }
      ],
      "stateMutability": "view",
      "type": "function"
    },
    {
      "inputs": [
        {
          "internalType": "address",
          "name": "_marketFactory",
          "type": "address"
        },
        {
          "internalType": "contract AMMFactory",
          "name": "_ammFactory",
          "type": "address"
        },
        {
          "internalType": "contract MasterChef",
          "name": "_masterChef",
          "type": "address"
        },
        {
          "internalType": "uint256",
          "name": "_marketId",
          "type": "uint256"
        }
      ],
      "name": "getMarket",
      "outputs": [
        {
          "components": [
            {
              "components": [
                {
                  "internalType": "contract AbstractMarketFactoryV3",
                  "name": "factory",
                  "type": "address"
                },
                {
                  "internalType": "uint256",
                  "name": "marketId",
                  "type": "uint256"
                },
                {
                  "components": [
                    {
                      "internalType": "address",
                      "name": "addr",
                      "type": "address"
                    },
                    {
                      "internalType": "uint256[]",
                      "name": "tokenRatios",
                      "type": "uint256[]"
                    },
                    {
                      "internalType": "uint256[]",
                      "name": "balances",
                      "type": "uint256[]"
                    },
                    {
                      "internalType": "uint256[]",
                      "name": "weights",
                      "type": "uint256[]"
                    },
                    {
                      "internalType": "uint256",
                      "name": "swapFee",
                      "type": "uint256"
                    },
                    {
                      "internalType": "uint256",
                      "name": "totalSupply",
                      "type": "uint256"
                    }
                  ],
                  "internalType": "struct Fetcher.PoolBundle",
                  "name": "pool",
                  "type": "tuple"
                },
                {
                  "components": [
                    {
                      "internalType": "uint256",
                      "name": "beginTimestamp",
                      "type": "uint256"
                    },
                    {
                      "internalType": "uint256",
                      "name": "endTimestamp",
                      "type": "uint256"
                    },
                    {
                      "internalType": "uint256",
                      "name": "earlyDepositEndTimestamp",
                      "type": "uint256"
                    },
                    {
                      "internalType": "uint256",
                      "name": "totalRewardsAccrued",
                      "type": "uint256"
                    },
                    {
                      "internalType": "bool",
                      "name": "created",
                      "type": "bool"
                    }
                  ],
                  "internalType": "struct MasterChef.PoolStatusInfo",
                  "name": "rewards",
                  "type": "tuple"
                },
                {
                  "internalType": "contract OwnedERC20[]",
                  "name": "shareTokens",
                  "type": "address[]"
                },
                {
                  "internalType": "uint256",
                  "name": "creationTimestamp",
                  "type": "uint256"
                },
                {
                  "internalType": "contract OwnedERC20",
                  "name": "winner",
                  "type": "address"
                },
                {
                  "internalType": "uint256[]",
                  "name": "initialOdds",
                  "type": "uint256[]"
                }
              ],
              "internalType": "struct Fetcher.StaticMarketBundle",
              "name": "_super",
              "type": "tuple"
            },
            {
              "internalType": "string",
              "name": "description",
              "type": "string"
            }
          ],
          "internalType": "struct TrustedFetcher.SpecificStaticMarketBundle",
          "name": "_bundle",
          "type": "tuple"
        }
      ],
      "stateMutability": "view",
      "type": "function"
    },
    {
      "inputs": [],
      "name": "marketType",
      "outputs": [
        {
          "internalType": "string",
          "name": "",
          "type": "string"
        }
      ],
      "stateMutability": "view",
      "type": "function"
    },
    {
      "inputs": [],
      "name": "sayHi",
      "outputs": [
        {
          "internalType": "uint256",
          "name": "",
          "type": "uint256"
        }
      ],
      "stateMutability": "view",
      "type": "function"
    },
    {
      "inputs": [],
      "name": "version",
      "outputs": [
        {
          "internalType": "string",
          "name": "",
          "type": "string"
        }
      ],
      "stateMutability": "view",
      "type": "function"
    }
  ],
  "transactionHash": "0x4c3d1fa4be62ed25b7242f33a714180a841e6c9cc1f316806b500c0b970f4491",
  "args": [],
  "numDeployments": 3,
  "solcInputHash": "8691fb0b2a39bd5a97393529a6363a7b",
  "bytecode": "0x60806040523480156200001157600080fd5b506040805180820182526007815266151c9d5cdd195960ca1b60208083019182528351808501909452600384526215109160ea1b9084015281519192916200005c916000916200007b565b508051620000729060019060208401906200007b565b5050506200015e565b828054620000899062000121565b90600052602060002090601f016020900481019282620000ad5760008555620000f8565b82601f10620000c857805160ff1916838001178555620000f8565b82800160010185558215620000f8579182015b82811115620000f8578251825591602001919060010190620000db565b50620001069291506200010a565b5090565b5b808211156200010657600081556001016200010b565b600181811c908216806200013657607f821691505b602082108114156200015857634e487b7160e01b600052602260045260246000fd5b50919050565b611f4a806200016e6000396000f3fe608060405234801561001057600080fd5b50600436106100625760003560e01c80630c49c36c1461006757806322254b881461007b5780632dd489091461009e57806354fd4d50146100b357806356d27491146100bb57806383116aca146100dd575b600080fd5b604051600081526020015b60405180910390f35b61008e610089366004611616565b6100fd565b6040516100729493929190611cb3565b6100a661021a565b6040516100729190611ca0565b6100a66102a8565b6100ce6100c9366004611670565b6102b5565b60405161007293929190611bdb565b6100f06100eb3660046115c6565b6103bc565b6040516100729190611d72565b6101056112bc565b606060008061011389610461565b935060606101228a8888610479565b81519750935090508567ffffffffffffffff81111561015157634e487b7160e01b600052604160045260246000fd5b60405190808252806020026020018201604052801561018a57816020015b6101776112d4565b81526020019060019003908161016f5790505b50935060005b86811015610209576101cb8b8b8b8585815181106101be57634e487b7160e01b600052603260045260246000fd5b602002602001015161061f565b8582815181106101eb57634e487b7160e01b600052603260045260246000fd5b6020026020010181905250808061020190611eb5565b915050610190565b504291505095509550955095915050565b6000805461022790611e7a565b80601f016020809104026020016040519081016040528092919081815260200182805461025390611e7a565b80156102a05780601f10610275576101008083540402835291602001916102a0565b820191906000526020600020905b81548152906001019060200180831161028357829003601f168201915b505050505081565b6001805461022790611e7a565b606060008060606102c7888787610479565b81519650935090508467ffffffffffffffff8111156102f657634e487b7160e01b600052604160045260246000fd5b60405190808252806020026020018201604052801561032f57816020015b61031c6112f4565b8152602001906001900390816103145790505b50935060005b858110156103ad5761036f898984848151811061036257634e487b7160e01b600052603260045260246000fd5b60200260200101516106be565b85828151811061038f57634e487b7160e01b600052603260045260246000fd5b602002602001018190525080806103a590611eb5565b915050610335565b50429150509450945094915050565b6103c46112d4565b60405163b06c1ba360e01b8152600481018390526000906001600160a01b0387169063b06c1ba39060240160006040518083038186803b15801561040757600080fd5b505afa15801561041b573d6000803e3d6000fd5b505050506040513d6000823e601f3d908101601f191682016040526104439190810190611737565b90506104518686868661076b565b8252516020820152949350505050565b6104696112bc565b610472826108e1565b8152919050565b606060008267ffffffffffffffff8111156104a457634e487b7160e01b600052604160045260246000fd5b6040519080825280602002602001820160405280156104cd578160200160208202803683370190505b50915060006001866001600160a01b031663ec9790826040518163ffffffff1660e01b815260040160206040518083038186803b15801561050d57600080fd5b505afa158015610521573d6000803e3d6000fd5b505050506040513d601f19601f82011682018060405250810190610545919061192e565b61054f9190611e1c565b905080158061055e5750808510155b1561057c575050604080516000808252602082019092529150610617565b6000600161058a8784611e1c565b6105949190611e1c565b92505b6105a18784610c5b565b156105e057828482815181106105c757634e487b7160e01b600052603260045260246000fd5b6020908102919091010152806105dc81611eb5565b9150505b8481106105ec57610608565b826105f657610608565b8261060081611e63565b935050610597565b80851115610614578084525b50505b935093915050565b6106276112d4565b60405163b06c1ba360e01b8152600481018390526000906001600160a01b0387169063b06c1ba39060240160006040518083038186803b15801561066a57600080fd5b505afa15801561067e573d6000803e3d6000fd5b505050506040513d6000823e601f3d908101601f191682016040526106a69190810190611737565b90506104518686866106b9876001611e04565b61076b565b6106c66112f4565b60405163b06c1ba360e01b8152600481018390526000906001600160a01b0386169063b06c1ba39060240160006040518083038186803b15801561070957600080fd5b505afa15801561071d573d6000803e3d6000fd5b505050506040513d6000823e601f3d908101601f191682016040526107459190810190611737565b905061075c8585610757866001611e04565b610d7d565b82525160208201529392505050565b610773611307565b60405163eb44fdd360e01b8152600481018390526000906001600160a01b0387169063eb44fdd39060240160006040518083038186803b1580156107b657600080fd5b505afa1580156107ca573d6000803e3d6000fd5b505050506040513d6000823e601f3d908101601f191682016040526107f291908101906117b6565b6001600160a01b0387168352602083018490529050610812868685610e3d565b604083810191909152516327def0cb60e21b81526001600160a01b038681166004830152878116602483015260448201859052851690639f7bc32c9060640160a06040518083038186803b15801561086957600080fd5b505afa15801561087d573d6000803e3d6000fd5b505050506040513d601f19601f820116820180604052508101906108a191906118bb565b60608301526020810151608083015260e08082015160a084015260408201516001600160a01b031660c08401526101209091015190820152949350505050565b6108e961138b565b816001600160a01b0316637641ab016040518163ffffffff1660e01b815260040160206040518083038186803b15801561092257600080fd5b505afa158015610936573d6000803e3d6000fd5b505050506040513d601f19601f8201168201806040525081019061095a919061192e565b816000018181525050816001600160a01b0316634b2d9ffc6040518163ffffffff1660e01b815260040160206040518083038186803b15801561099c57600080fd5b505afa1580156109b0573d6000803e3d6000fd5b505050506040513d601f19601f820116820180604052508101906109d4919061192e565b816020018181525050816001600160a01b0316637d1d7fb86040518163ffffffff1660e01b815260040160206040518083038186803b158015610a1657600080fd5b505afa158015610a2a573d6000803e3d6000fd5b505050506040513d601f19601f82011682018060405250810190610a4e919061192e565b816040018181525050816001600160a01b031663b0e21e8a6040518163ffffffff1660e01b815260040160206040518083038186803b158015610a9057600080fd5b505afa158015610aa4573d6000803e3d6000fd5b505050506040513d601f19601f82011682018060405250810190610ac8919061192e565b816060018181525050816001600160a01b0316634c9f66c76040518163ffffffff1660e01b815260040160206040518083038186803b158015610b0a57600080fd5b505afa158015610b1e573d6000803e3d6000fd5b505050506040513d601f19601f82011682018060405250810190610b4291906116e8565b81608001906001600160a01b031690816001600160a01b031681525050610bd8826001600160a01b031663d8dfeb456040518163ffffffff1660e01b815260040160206040518083038186803b158015610b9b57600080fd5b505afa158015610baf573d6000803e3d6000fd5b505050506040513d601f19601f82011682018060405250810190610bd391906116e8565b61118a565b8160a00181905250816001600160a01b031663ec9790826040518163ffffffff1660e01b815260040160206040518083038186803b158015610c1957600080fd5b505afa158015610c2d573d6000803e3d6000fd5b505050506040513d601f19601f82011682018060405250810190610c51919061192e565b60c0820152919050565b60405163eb44fdd360e01b81526004810182905260009081906001600160a01b0385169063eb44fdd39060240160006040518083038186803b158015610ca057600080fd5b505afa158015610cb4573d6000803e3d6000fd5b505050506040513d6000823e601f3d908101601f19168201604052610cdc91908101906117b6565b60408101519091506001600160a01b0316610cfb576001915050610d77565b600081604001516001600160a01b03166318160ddd6040518163ffffffff1660e01b815260040160206040518083038186803b158015610d3a57600080fd5b505afa158015610d4e573d6000803e3d6000fd5b505050506040513d601f19601f82011682018060405250810190610d72919061192e565b119150505b92915050565b610d856113fc565b60405163eb44fdd360e01b8152600481018390526000906001600160a01b0386169063eb44fdd39060240160006040518083038186803b158015610dc857600080fd5b505afa158015610ddc573d6000803e3d6000fd5b505050506040513d6000823e601f3d908101601f19168201604052610e0491908101906117b6565b6001600160a01b0380871684526020840185905260408201511660608401529050610e30858585610e3d565b6040830152509392505050565b610e45611428565b604051632dadcf5160e11b81526001600160a01b0385811660048301526024820184905260009190851690635b5b9ea29060440160206040518083038186803b158015610e9157600080fd5b505afa158015610ea5573d6000803e3d6000fd5b505050506040513d601f19601f82011682018060405250810190610ec991906116e8565b90506001600160a01b038116610edf5750611183565b6001600160a01b038116808352604080516318160ddd60e01b815290516318160ddd91600480820192602092909190829003018186803b158015610f2257600080fd5b505afa158015610f36573d6000803e3d6000fd5b505050506040513d601f19601f82011682018060405250810190610f5a919061192e565b60a083015260405163fa0de35960e01b81526001600160a01b0386811660048301526024820185905285169063fa0de3599060440160206040518083038186803b158015610fa757600080fd5b505afa158015610fbb573d6000803e3d6000fd5b505050506040513d601f19601f82011682018060405250810190610fdf919061192e565b608083015260405163d2364bf360e01b81526001600160a01b0386811660048301526024820185905285169063d2364bf39060440160006040518083038186803b15801561102c57600080fd5b505afa158015611040573d6000803e3d6000fd5b505050506040513d6000823e601f3d908101601f1916820160405261106891908101906116b5565b6040838101919091525163c7b4b6dd60e01b81526001600160a01b0386811660048301526024820185905285169063c7b4b6dd9060440160006040518083038186803b1580156110b757600080fd5b505afa1580156110cb573d6000803e3d6000fd5b505050506040513d6000823e601f3d908101601f191682016040526110f391908101906116b5565b602083015260405163d055da7160e01b81526001600160a01b0386811660048301526024820185905285169063d055da719060440160006040518083038186803b15801561114057600080fd5b505afa158015611154573d6000803e3d6000fd5b505050506040513d6000823e601f3d908101601f1916820160405261117c91908101906116b5565b6060830152505b9392505050565b6111b7604051806060016040528060006001600160a01b0316815260200160608152602001600081525090565b6001600160a01b038216808252604080516395d89b4160e01b815290516395d89b4191600480820192600092909190829003018186803b1580156111fa57600080fd5b505afa15801561120e573d6000803e3d6000fd5b505050506040513d6000823e601f3d908101601f191682016040526112369190810190611704565b8160200181905250816001600160a01b031663313ce5676040518163ffffffff1660e01b815260040160206040518083038186803b15801561127757600080fd5b505afa15801561128b573d6000803e3d6000fd5b505050506040513d601f19601f820116820180604052508101906112af9190611946565b60ff166040820152919050565b60405180602001604052806112cf61138b565b905290565b60405180604001604052806112e7611307565b8152602001606081525090565b60405180604001604052806112e76113fc565b604080516101008101825260008082526020820152908101611327611428565b81526020016113606040518060a00160405280600081526020016000815260200160008152602001600081526020016000151581525090565b8152602001606081526020016000815260200160006001600160a01b03168152602001606081525090565b6040518060e001604052806000815260200160008152602001600081526020016000815260200160006001600160a01b031681526020016113ef604051806060016040528060006001600160a01b0316815260200160608152602001600081525090565b8152602001600081525090565b604080516080810182526000808252602082015290810161141b611428565b8152600060209091015290565b6040518060c0016040528060006001600160a01b0316815260200160608152602001606081526020016060815260200160008152602001600081525090565b805161147281611efc565b919050565b600082601f830112611487578081fd5b8151602061149c61149783611de0565b611daf565b80838252828201915082860187848660051b89010111156114bb578586fd5b855b858110156114e25781516114d081611efc565b845292840192908401906001016114bd565b5090979650505050505050565b600082601f8301126114ff578081fd5b8151602061150f61149783611de0565b80838252828201915082860187848660051b890101111561152e578586fd5b855b858110156114e257815184529284019290840190600101611530565b8051801515811461147257600080fd5b600082601f83011261156c578081fd5b815167ffffffffffffffff81111561158657611586611ee6565b611599601f8201601f1916602001611daf565b8181528460208386010111156115ad578283fd5b6115be826020830160208701611e33565b949350505050565b600080600080608085870312156115db578384fd5b84356115e681611efc565b935060208501356115f681611efc565b9250604085013561160681611efc565b9396929550929360600135925050565b600080600080600060a0868803121561162d578081fd5b853561163881611efc565b9450602086013561164881611efc565b9350604086013561165881611efc565b94979396509394606081013594506080013592915050565b60008060008060808587031215611685578182fd5b843561169081611efc565b935060208501356116a081611efc565b93969395505050506040820135916060013590565b6000602082840312156116c6578081fd5b815167ffffffffffffffff8111156116dc578182fd5b6115be848285016114ef565b6000602082840312156116f9578081fd5b815161118381611efc565b600060208284031215611715578081fd5b815167ffffffffffffffff81111561172b578182fd5b6115be8482850161155c565b600060208284031215611748578081fd5b815167ffffffffffffffff8082111561175f578283fd5b9083019060208286031215611772578283fd5b60405160208101818110838211171561178d5761178d611ee6565b60405282518281111561179e578485fd5b6117aa8782860161155c565b82525095945050505050565b6000602082840312156117c7578081fd5b815167ffffffffffffffff808211156117de578283fd5b9083019061016082860312156117f2578283fd5b6117fa611d85565b61180383611467565b8152602083015182811115611816578485fd5b61182287828601611477565b60208301525061183460408401611467565b6040820152606083015160608201526080830151608082015260a083015160a082015260c083015160c082015260e083015160e0820152610100808401518183015250610120808401518381111561188a578586fd5b611896888287016114ef565b82840152505061014091506118ac82840161154c565b91810191909152949350505050565b600060a082840312156118cc578081fd5b60405160a0810181811067ffffffffffffffff821117156118ef576118ef611ee6565b8060405250825181526020830151602082015260408301516040820152606083015160608201526119226080840161154c565b60808201529392505050565b60006020828403121561193f578081fd5b5051919050565b600060208284031215611957578081fd5b815160ff81168114611183578182fd5b6000815180845260208085019450808401835b8381101561199f5781516001600160a01b03168752958201959082019060010161197a565b509495945050505050565b600081518084526020808501808196508360051b81019150828601855b858110156119f15782840389526119df848351611ad4565b988501989350908401906001016119c7565b5091979650505050505050565b6000815180845260208085019450808401835b8381101561199f57815187529582019590820190600101611a11565b60008151808452611a45816020860160208601611e33565b601f01601f19169290920160200192915050565b60018060a01b0381511682526000602082015160c06020850152611a8060c08501826119fe565b905060408301518482036040860152611a9982826119fe565b91505060608301518482036060860152611ab382826119fe565b9150506080830151608085015260a083015160a08501528091505092915050565b6000815160408452611af26040850182516001600160a01b03169052565b602081015160608501526040810151610180806080870152611b186101c0870183611a59565b606084810151805160a08a0152602081015160c08a0152604081015160e08a01529081015161010089015260808101511515610120890152909250506080830151603f198088850301610140890152611b718483611967565b935060a085015161016089015260c08501519150611b99838901836001600160a01b03169052565b60e0850151945080888503016101a0890152505050611bb881836119fe565b91505060208301518482036020860152611bd28282611a2d565b95945050505050565b60006060808301818452808751808352608092508286019150828160051b8701016020808b01875b84811015611c8557898403607f1901865281518051604080875281516001600160a01b0390811682890152868301518c890152908201518a88018b90529190611c4f60c0890184611a59565b918c01511660a08801529185015186830386880152919050611c718183611a2d565b978501979550505090820190600101611c03565b50508701989098525050505060409091019190915250919050565b6020815260006111836020830184611a2d565b608081526000855160206080840152805160a0840152602081015160c0840152604081015160e08401526060810151610100840152608081015160018060a01b0380821661012086015260a0830151915060e06101408601528082511661018086015250602081015160606101a0860152611d326101e0860182611a2d565b905060408201516101c086015260c08301516101608601528481036020860152611d5c81896119aa565b6040860197909752505050506060015292915050565b6020815260006111836020830184611ad4565b604051610160810167ffffffffffffffff81118282101715611da957611da9611ee6565b60405290565b604051601f8201601f1916810167ffffffffffffffff81118282101715611dd857611dd8611ee6565b604052919050565b600067ffffffffffffffff821115611dfa57611dfa611ee6565b5060051b60200190565b60008219821115611e1757611e17611ed0565b500190565b600082821015611e2e57611e2e611ed0565b500390565b60005b83811015611e4e578181015183820152602001611e36565b83811115611e5d576000848401525b50505050565b600081611e7257611e72611ed0565b506000190190565b600181811c90821680611e8e57607f821691505b60208210811415611eaf57634e487b7160e01b600052602260045260246000fd5b50919050565b6000600019821415611ec957611ec9611ed0565b5060010190565b634e487b7160e01b600052601160045260246000fd5b634e487b7160e01b600052604160045260246000fd5b6001600160a01b0381168114611f1157600080fd5b5056fea2646970667358221220fc329e729a3eb3fbcd44e71a2f65b7a84da1f869210abb6ad9c2bcc22280809864736f6c63430008040033",
  "devdoc": {
    "kind": "dev",
    "methods": {},
    "version": 1
  },
  "userdoc": {
    "kind": "user",
    "methods": {},
    "version": 1
  },
  "storageLayout": {
    "storage": [
      {
        "astId": 36930,
        "contract": "contracts/turbo/random.sol:TrustedFetcher",
        "label": "marketType",
        "offset": 0,
        "slot": "0",
        "type": "t_string_storage"
      },
      {
        "astId": 36932,
        "contract": "contracts/turbo/random.sol:TrustedFetcher",
        "label": "version",
        "offset": 0,
        "slot": "1",
        "type": "t_string_storage"
      }
    ],
    "types": {
      "t_string_storage": {
        "encoding": "bytes",
        "label": "string",
        "numberOfBytes": "32"
      }
    }
  }
}