{
  "address": "0x1304e56906267B7410195505B94F0d0B85B7488D",
  "abi": [
    {
      "inputs": [
        {
          "internalType": "address",
          "name": "_owner",
          "type": "address"
        },
        {
          "internalType": "contract IERC20Full",
          "name": "_collateral",
          "type": "address"
        },
        {
          "internalType": "uint256",
          "name": "_shareFactor",
          "type": "uint256"
        },
        {
          "internalType": "contract FeePot",
          "name": "_feePot",
          "type": "address"
        },
        {
          "internalType": "uint256[3]",
          "name": "_fees",
          "type": "uint256[3]"
        },
        {
          "internalType": "address",
          "name": "_protocol",
          "type": "address"
        }
      ],
      "stateMutability": "nonpayable",
      "type": "constructor"
    },
    {
      "anonymous": false,
      "inputs": [
        {
          "indexed": false,
          "internalType": "uint256",
          "name": "id",
          "type": "uint256"
        }
      ],
      "name": "MarketActivated",
      "type": "event"
    },
    {
      "anonymous": false,
      "inputs": [
        {
          "indexed": false,
          "internalType": "uint256",
          "name": "id",
          "type": "uint256"
        },
        {
          "indexed": false,
          "internalType": "string[]",
          "name": "names",
          "type": "string[]"
        },
        {
          "indexed": false,
          "internalType": "uint256[]",
          "name": "initialOdds",
          "type": "uint256[]"
        }
      ],
      "name": "MarketCreated",
      "type": "event"
    },
    {
      "anonymous": false,
      "inputs": [
        {
          "indexed": false,
          "internalType": "uint256",
          "name": "id",
          "type": "uint256"
        },
        {
          "indexed": false,
          "internalType": "address",
          "name": "winner",
          "type": "address"
        },
        {
          "indexed": false,
          "internalType": "uint256",
          "name": "winnerIndex",
          "type": "uint256"
        },
        {
          "indexed": false,
          "internalType": "string",
          "name": "winnerName",
          "type": "string"
        }
      ],
      "name": "MarketResolved",
      "type": "event"
    },
    {
      "anonymous": false,
      "inputs": [
        {
          "indexed": false,
          "internalType": "uint256",
          "name": "id",
          "type": "uint256"
        },
        {
          "indexed": false,
          "internalType": "uint256",
          "name": "amount",
          "type": "uint256"
        },
        {
          "indexed": false,
          "internalType": "address",
          "name": "receiver",
          "type": "address"
        }
      ],
      "name": "SharesBurned",
      "type": "event"
    },
    {
      "anonymous": false,
      "inputs": [
        {
          "indexed": false,
          "internalType": "uint256",
          "name": "id",
          "type": "uint256"
        },
        {
          "indexed": false,
          "internalType": "uint256",
          "name": "amount",
          "type": "uint256"
        },
        {
          "indexed": false,
          "internalType": "address",
          "name": "receiver",
          "type": "address"
        }
      ],
      "name": "SharesMinted",
      "type": "event"
    },
    {
      "anonymous": false,
      "inputs": [
        {
          "indexed": false,
          "internalType": "uint256",
          "name": "id",
          "type": "uint256"
        },
        {
          "indexed": false,
          "internalType": "address",
          "name": "winningOutcome",
          "type": "address"
        },
        {
          "indexed": false,
          "internalType": "uint256",
          "name": "winningIndex",
          "type": "uint256"
        },
        {
          "indexed": false,
          "internalType": "string",
          "name": "winningName",
          "type": "string"
        },
        {
          "indexed": false,
          "internalType": "uint256",
          "name": "amount",
          "type": "uint256"
        },
        {
          "indexed": false,
          "internalType": "uint256",
          "name": "settlementFee",
          "type": "uint256"
        },
        {
          "indexed": false,
          "internalType": "uint256",
          "name": "payout",
          "type": "uint256"
        },
        {
          "indexed": true,
          "internalType": "address",
          "name": "receiver",
          "type": "address"
        }
      ],
      "name": "WinningsClaimed",
      "type": "event"
    },
    {
      "inputs": [],
      "name": "accumulatedProtocolFee",
      "outputs": [
        {
          "internalType": "uint256",
          "name": "",
          "type": "uint256"
        }
      ],
      "stateMutability": "view",
      "type": "function"
    },
    {
      "inputs": [
        {
          "internalType": "address",
          "name": "",
          "type": "address"
        }
      ],
      "name": "accumulatedSettlementFees",
      "outputs": [
        {
          "internalType": "uint256",
          "name": "",
          "type": "uint256"
        }
      ],
      "stateMutability": "view",
      "type": "function"
    },
    {
      "inputs": [
        {
          "internalType": "uint256",
          "name": "_id",
          "type": "uint256"
        },
        {
          "internalType": "uint256",
          "name": "_sharesToBurn",
          "type": "uint256"
        },
        {
          "internalType": "address",
          "name": "_receiver",
          "type": "address"
        }
      ],
      "name": "burnShares",
      "outputs": [
        {
          "internalType": "uint256",
          "name": "",
          "type": "uint256"
        }
      ],
      "stateMutability": "nonpayable",
      "type": "function"
    },
    {
      "inputs": [
        {
          "internalType": "uint256",
          "name": "_shares",
          "type": "uint256"
        }
      ],
      "name": "calcCost",
      "outputs": [
        {
          "internalType": "uint256",
          "name": "",
          "type": "uint256"
        }
      ],
      "stateMutability": "view",
      "type": "function"
    },
    {
      "inputs": [
        {
          "internalType": "uint256",
          "name": "_collateralIn",
          "type": "uint256"
        }
      ],
      "name": "calcShares",
      "outputs": [
        {
          "internalType": "uint256",
          "name": "",
          "type": "uint256"
        }
      ],
      "stateMutability": "view",
      "type": "function"
    },
    {
      "inputs": [
        {
          "internalType": "uint256[]",
          "name": "_ids",
          "type": "uint256[]"
        },
        {
          "internalType": "address",
          "name": "_receiver",
          "type": "address"
        }
      ],
      "name": "claimManyWinnings",
      "outputs": [
        {
          "internalType": "uint256",
          "name": "",
          "type": "uint256"
        }
      ],
      "stateMutability": "nonpayable",
      "type": "function"
    },
    {
      "inputs": [],
      "name": "claimProtocolFees",
      "outputs": [
        {
          "internalType": "uint256",
          "name": "",
          "type": "uint256"
        }
      ],
      "stateMutability": "nonpayable",
      "type": "function"
    },
    {
      "inputs": [
        {
          "internalType": "address",
          "name": "_receiver",
          "type": "address"
        }
      ],
      "name": "claimSettlementFees",
      "outputs": [
        {
          "internalType": "uint256",
          "name": "",
          "type": "uint256"
        }
      ],
      "stateMutability": "nonpayable",
      "type": "function"
    },
    {
      "inputs": [
        {
          "internalType": "uint256",
          "name": "_id",
          "type": "uint256"
        },
        {
          "internalType": "address",
          "name": "_receiver",
          "type": "address"
        }
      ],
      "name": "claimWinnings",
      "outputs": [
        {
          "internalType": "uint256",
          "name": "",
          "type": "uint256"
        }
      ],
      "stateMutability": "nonpayable",
      "type": "function"
    },
    {
      "inputs": [],
      "name": "collateral",
      "outputs": [
        {
          "internalType": "contract IERC20Full",
          "name": "",
          "type": "address"
        }
      ],
      "stateMutability": "view",
      "type": "function"
    },
    {
      "inputs": [
        {
          "internalType": "address",
          "name": "_creator",
          "type": "address"
        },
        {
          "internalType": "string",
          "name": "_description",
          "type": "string"
        },
        {
          "internalType": "string[]",
          "name": "_names",
          "type": "string[]"
        },
        {
          "internalType": "uint256[]",
          "name": "_odds",
          "type": "uint256[]"
        }
      ],
      "name": "createMarket",
      "outputs": [
        {
          "internalType": "uint256",
          "name": "",
          "type": "uint256"
        }
      ],
      "stateMutability": "nonpayable",
      "type": "function"
    },
    {
      "inputs": [],
      "name": "feePot",
      "outputs": [
        {
          "internalType": "contract FeePot",
          "name": "",
          "type": "address"
        }
      ],
      "stateMutability": "view",
      "type": "function"
    },
    {
      "inputs": [
        {
          "internalType": "uint256",
          "name": "_id",
          "type": "uint256"
        }
      ],
      "name": "getMarket",
      "outputs": [
        {
          "components": [
            {
              "internalType": "address",
              "name": "settlementAddress",
              "type": "address"
            },
            {
              "internalType": "contract OwnedERC20[]",
              "name": "shareTokens",
              "type": "address[]"
            },
            {
              "internalType": "contract OwnedERC20",
              "name": "winner",
              "type": "address"
            },
            {
              "internalType": "uint256",
              "name": "winnerIndex",
              "type": "uint256"
            },
            {
              "internalType": "uint256",
              "name": "settlementFee",
              "type": "uint256"
            },
            {
              "internalType": "uint256",
              "name": "protocolFee",
              "type": "uint256"
            },
            {
              "internalType": "uint256",
              "name": "stakerFee",
              "type": "uint256"
            },
            {
              "internalType": "uint256",
              "name": "creationTimestamp",
              "type": "uint256"
            },
            {
              "internalType": "uint256",
              "name": "resolutionTimestamp",
              "type": "uint256"
            },
            {
              "internalType": "uint256[]",
              "name": "initialOdds",
              "type": "uint256[]"
            },
            {
              "internalType": "bool",
              "name": "active",
              "type": "bool"
            }
          ],
          "internalType": "struct AbstractMarketFactoryV3.Market",
          "name": "",
          "type": "tuple"
        }
      ],
      "stateMutability": "view",
      "type": "function"
    },
    {
      "inputs": [
        {
          "internalType": "uint256",
          "name": "_id",
          "type": "uint256"
        }
      ],
      "name": "getMarketDetails",
      "outputs": [
        {
          "components": [
            {
              "internalType": "string",
              "name": "description",
              "type": "string"
            }
          ],
          "internalType": "struct TrustedMarketFactoryV3.MarketDetails",
          "name": "",
          "type": "tuple"
        }
      ],
      "stateMutability": "view",
      "type": "function"
    },
    {
      "inputs": [],
      "name": "getOwner",
      "outputs": [
        {
          "internalType": "address",
          "name": "",
          "type": "address"
        }
      ],
      "stateMutability": "view",
      "type": "function"
    },
    {
      "inputs": [
        {
          "internalType": "uint256",
          "name": "_marketId",
          "type": "uint256"
        }
      ],
      "name": "getRewardEndTime",
      "outputs": [
        {
          "internalType": "uint256",
          "name": "",
          "type": "uint256"
        }
      ],
      "stateMutability": "view",
      "type": "function"
    },
    {
      "inputs": [],
      "name": "getVersion",
      "outputs": [
        {
          "internalType": "string",
          "name": "",
          "type": "string"
        }
      ],
      "stateMutability": "view",
      "type": "function"
    },
    {
      "inputs": [
        {
          "internalType": "uint256",
          "name": "_id",
          "type": "uint256"
        }
      ],
      "name": "isMarketResolved",
      "outputs": [
        {
          "internalType": "bool",
          "name": "",
          "type": "bool"
        }
      ],
      "stateMutability": "view",
      "type": "function"
    },
    {
      "inputs": [],
      "name": "marketCount",
      "outputs": [
        {
          "internalType": "uint256",
          "name": "",
          "type": "uint256"
        }
      ],
      "stateMutability": "view",
      "type": "function"
    },
    {
      "inputs": [
        {
          "internalType": "uint256",
          "name": "_id",
          "type": "uint256"
        },
        {
          "internalType": "uint256",
          "name": "_shareToMint",
          "type": "uint256"
        },
        {
          "internalType": "address",
          "name": "_receiver",
          "type": "address"
        }
      ],
      "name": "mintShares",
      "outputs": [],
      "stateMutability": "nonpayable",
      "type": "function"
    },
    {
      "inputs": [],
      "name": "protocol",
      "outputs": [
        {
          "internalType": "address",
          "name": "",
          "type": "address"
        }
      ],
      "stateMutability": "view",
      "type": "function"
    },
    {
      "inputs": [],
      "name": "protocolFee",
      "outputs": [
        {
          "internalType": "uint256",
          "name": "",
          "type": "uint256"
        }
      ],
      "stateMutability": "view",
      "type": "function"
    },
    {
      "inputs": [
        {
          "internalType": "address",
          "name": "_newProtocol",
          "type": "address"
        },
        {
          "internalType": "bool",
          "name": "_claimFirst",
          "type": "bool"
        }
      ],
      "name": "setProtocol",
      "outputs": [],
      "stateMutability": "nonpayable",
      "type": "function"
    },
    {
      "inputs": [
        {
          "internalType": "uint256",
          "name": "_newFee",
          "type": "uint256"
        }
      ],
      "name": "setProtocolFee",
      "outputs": [],
      "stateMutability": "nonpayable",
      "type": "function"
    },
    {
      "inputs": [
        {
          "internalType": "uint256",
          "name": "_newFee",
          "type": "uint256"
        }
      ],
      "name": "setSettlementFee",
      "outputs": [],
      "stateMutability": "nonpayable",
      "type": "function"
    },
    {
      "inputs": [
        {
          "internalType": "uint256",
          "name": "_newFee",
          "type": "uint256"
        }
      ],
      "name": "setStakerFee",
      "outputs": [],
      "stateMutability": "nonpayable",
      "type": "function"
    },
    {
      "inputs": [],
      "name": "settlementFee",
      "outputs": [
        {
          "internalType": "uint256",
          "name": "",
          "type": "uint256"
        }
      ],
      "stateMutability": "view",
      "type": "function"
    },
    {
      "inputs": [],
      "name": "shareFactor",
      "outputs": [
        {
          "internalType": "uint256",
          "name": "",
          "type": "uint256"
        }
      ],
      "stateMutability": "view",
      "type": "function"
    },
    {
      "inputs": [],
      "name": "stakerFee",
      "outputs": [
        {
          "internalType": "uint256",
          "name": "",
          "type": "uint256"
        }
      ],
      "stateMutability": "view",
      "type": "function"
    },
    {
      "inputs": [
        {
          "internalType": "address",
          "name": "_newOwner",
          "type": "address"
        }
      ],
      "name": "transferOwnership",
      "outputs": [
        {
          "internalType": "bool",
          "name": "",
          "type": "bool"
        }
      ],
      "stateMutability": "nonpayable",
      "type": "function"
    },
    {
      "inputs": [
        {
          "internalType": "uint256",
          "name": "_id",
          "type": "uint256"
        },
        {
          "internalType": "uint256",
          "name": "_winningOutcome",
          "type": "uint256"
        }
      ],
      "name": "trustedResolveMarket",
      "outputs": [],
      "stateMutability": "nonpayable",
      "type": "function"
    }
  ],
  "transactionHash": "0x0e6f40d2de39391e1a08f1121d5fba86d27cfcfc7dd3481bf98bffac567a21b8",
  "args": [
    "0xFD84b7AC1E646580db8c77f1f05F47977fAda692",
    "0xae318fba974478334365adee27e0dd887c64d778",
    "1000000000000",
    "0x8c1544bea4652f5a1530b8ef8d6c42fb20ca93f8",
    [
      0,
      "500000000000000",
      0
    ],
    "0xFD84b7AC1E646580db8c77f1f05F47977fAda692"
  ],
  "solcInputHash": "1d41c0e5bc39a779f835591fb0aee986",
  "bytecode": "0x608060405260006007553480156200001657600080fd5b50604051620040f0380380620040f08339810160408190526200003991620004c9565b604080518082019091526006815265076312e312e360d41b6020820152600080546001600160a01b03808a166001600160a01b03199283163317831617835560018054828b16908416179055600988905560028054918816919092161790558790879087908790879087908290602002015160035581600160200201516004558160026020020151600555600680546001600160a01b0319166001600160a01b038381169190911790915560405163095ea7b360e01b81529086169063095ea7b3906200010f90869060001990600401620005d0565b602060405180830381600087803b1580156200012a57600080fd5b505af11580156200013f573d6000803e3d6000fd5b505050506040513d601f19601f82011682018060405250810190620001659190620005a7565b50600a6200017262000292565b81546001808201845560009384526020938490208351600b9093020180546001600160a01b0319166001600160a01b0390931692909217825582840151805193949293620001c99392850192919091019062000308565b5060408201516002820180546001600160a01b0319166001600160a01b03909216919091179055606082015160038201556080820151600482015560a0820151600582015560c0820151600682015560e08201516007820155610100820151600882015561012082015180516200024b91600984019160209091019062000372565b506101409190910151600a909101805460ff191691151591909117905550508451620002849450600b93506020860192509050620003b0565b505050505050505062000602565b6200029c62000432565b50604080516000808252602082018181526101a083018452928201818152606083018390526080830182905260a0830182905260c0830182905260e083018290526101008301829052610120830182905261014083018290526101608301939093526101809091015290565b82805482825590600052602060002090810192821562000360579160200282015b828111156200036057825182546001600160a01b0319166001600160a01b0390911617825560209092019160019091019062000329565b506200036e929150620004a0565b5090565b82805482825590600052602060002090810192821562000360579160200282015b828111156200036057825182559160200191906001019062000393565b828054600181600116156101000203166002900490600052602060002090601f016020900481019282620003e8576000855562000360565b82601f106200040357805160ff191683800117855562000360565b828001600101855582156200036057918201828111156200036057825182559160200191906001019062000393565b60405180610160016040528060006001600160a01b031681526020016060815260200160006001600160a01b03168152602001600081526020016000815260200160008152602001600081526020016000815260200160008152602001606081526020016000151581525090565b5b808211156200036e5760008155600101620004a1565b8051620004c481620005e9565b919050565b6000806000806000806101008789031215620004e3578182fd5b8651620004f081620005e9565b809650506020808801516200050581620005e9565b604089015160608a015191975095506200051f81620005e9565b9350609f8801891362000530578283fd5b604051606081016001600160401b03811182821017156200054d57fe5b6040528060808a0160e08b018c81111562000566578687fd5b865b6003811015620005875782518452928501929185019160010162000568565b508396506200059681620004b7565b955050505050509295509295509295565b600060208284031215620005b9578081fd5b81518015158114620005c9578182fd5b9392505050565b6001600160a01b03929092168252602082015260400190565b6001600160a01b0381168114620005ff57600080fd5b50565b613ade80620006126000396000f3fe60806040523480156200001157600080fd5b5060043610620002145760003560e01c80637d1d7fb81162000129578063b0e21e8a11620000b1578063e5678dfa116200007b578063e5678dfa146200044d578063eb44fdd31462000464578063ec979082146200048a578063f2fde38b14620004945762000214565b8063b0e21e8a146200040b578063cc87adea1462000415578063d5da4f1d146200042c578063d8dfeb4514620004435762000214565b806397eef18711620000f357806397eef18714620003ad578063992c907914620003c4578063a544a62c14620003db578063b06c1ba314620003e55762000214565b80637d1d7fb81462000378578063893d20e814620003825780638ce74426146200038c5780638e0ed19314620003965762000214565b806349a4d93411620001ad57806353ac55f5116200017757806353ac55f5146200031a5780636a87a1c514620003405780637641ab011462000357578063787dce3d14620003615762000214565b806349a4d93414620002d65780634a7d036914620002ed5780634b2d9ffc14620002f75780634c9f66c714620003015762000214565b806335a9cdad11620001ef57806335a9cdad146200026b5780633f8dd7aa146200029157806342e0ed1614620002a8578063473a6d5214620002bf5762000214565b80630d8e6e2c1462000219578063221fff81146200023b57806332ecabe91462000254575b600080fd5b62000223620004ab565b604051620002329190620024e4565b60405180910390f35b620002526200024c3660046200239a565b62000545565b005b6200025262000265366004620020b0565b62000872565b620002826200027c3660046200239a565b620008c0565b60405162000232919062002654565b62000252620002a236600462002378565b62000cf9565b62000282620002b936600462002318565b62000d21565b62000282620002d036600462002318565b62000d29565b62000282620002e736600462002093565b62000d65565b6200028262000d77565b6200028262000e41565b6200030b62000e47565b60405162000232919062002488565b620003316200032b36600462002318565b62000e56565b604051620002329190620024d9565b6200028262000351366004620020eb565b62000fe0565b62000282620010c3565b620002526200037236600462002318565b620010c9565b62000282620010e6565b6200030b620010ec565b6200030b620010fb565b62000282620003a736600462002093565b6200110a565b62000252620003be36600462002318565b620011c6565b62000282620003d53660046200234a565b620011e3565b6200028262001605565b620003fc620003f636600462002318565b6200160b565b60405162000232919062002566565b62000282620016cf565b620002826200042636600462002318565b620016d5565b620002526200043d36600462002318565b620016dc565b6200030b620016f9565b620002826200045e366004620021ca565b62001708565b6200047b6200047536600462002318565b62001756565b60405162000232919062002583565b62000282620018f5565b62000331620004a536600462002093565b620018fb565b600b8054604080516020601f60026000196101006001881615020190951694909404938401819004810282018101909252828152606093909290918301828280156200053b5780601f106200050f576101008083540402835291602001916200053b565b820191906000526020600020905b8154815290600101906020018083116200051d57829003601f168201915b5050505050905090565b600a5483106200055457600080fd5b600a83815481106200056257fe5b60009182526020909120600a600b90920201015460ff166200058357600080fd5b6000620005908362000d29565b6001546040516323b872dd60e01b81529192506001600160a01b0316906323b872dd90620005c7903390309086906004016200249c565b602060405180830381600087803b158015620005e257600080fd5b505af1158015620005f7573d6000803e3d6000fd5b505050506040513d601f19601f820116820180604052508101906200061d91906200227d565b506000600a85815481106200062e57fe5b60009182526020918290206040805161016081018252600b90930290910180546001600160a01b03168352600181018054835181870281018701909452808452939491938583019392830182828015620006b257602002820191906000526020600020905b81546001600160a01b0316815260019091019060200180831162000693575b505050505081526020016002820160009054906101000a90046001600160a01b03166001600160a01b03166001600160a01b03168152602001600382015481526020016004820154815260200160058201548152602001600682015481526020016007820154815260200160088201548152602001600982018054806020026020016040519081016040528092919081815260200182805480156200077757602002820191906000526020600020905b81548152602001906001019080831162000762575b5050509183525050600a919091015460ff161515602090910152905060005b8160200151518110156200082d5781602001518181518110620007b557fe5b60200260200101516001600160a01b031663c024cd2685876040518363ffffffff1660e01b8152600401620007ec929190620024c0565b600060405180830381600087803b1580156200080757600080fd5b505af11580156200081c573d6000803e3d6000fd5b505060019092019150620007969050565b507fd81c0442e10068a9818f3aa093c9ccb804584690df572d7df3da2d892a6973f285858560405162000863939291906200275b565b60405180910390a15050505050565b6000546001600160a01b031633146200088a57600080fd5b80156200089d576200089b62000d77565b505b50600680546001600160a01b0319166001600160a01b0392909216919091179055565b600a546000908410620008d257600080fd5b600a8481548110620008e057fe5b60009182526020909120600a600b90920201015460ff166200090157600080fd5b6000600a85815481106200091157fe5b60009182526020918290206040805161016081018252600b90930290910180546001600160a01b031683526001810180548351818702810187019094528084529394919385830193928301828280156200099557602002820191906000526020600020905b81546001600160a01b0316815260019091019060200180831162000976575b505050505081526020016002820160009054906101000a90046001600160a01b03166001600160a01b03166001600160a01b031681526020016003820154815260200160048201548152602001600582015481526020016006820154815260200160078201548152602001600882015481526020016009820180548060200260200160405190810160405280929190818152602001828054801562000a5a57602002820191906000526020600020905b81548152602001906001019080831162000a45575b5050509183525050600a919091015460ff161515602090910152905060005b81602001515181101562000b10578160200151818151811062000a9857fe5b60200260200101516001600160a01b03166342986e1333876040518363ffffffff1660e01b815260040162000acf929190620024c0565b600060405180830381600087803b15801562000aea57600080fd5b505af115801562000aff573d6000803e3d6000fd5b50506001909201915062000a799050565b50600062000b1e8562000d29565b9050600062000b4f670de0b6b3a764000062000b488560a00151856200196590919063ffffffff16565b9062001997565b9050600062000b79670de0b6b3a764000062000b488660c00151866200196590919063ffffffff16565b905062000b938162000b8c8585620019ad565b90620019ad565b600780548401905560015460405163a9059cbb60e01b81529194506001600160a01b03169063a9059cbb9062000bd09089908790600401620024c0565b602060405180830381600087803b15801562000beb57600080fd5b505af115801562000c00573d6000803e3d6000fd5b505050506040513d601f19601f8201168201806040525081019062000c2691906200227d565b50600254604051630ebdac0960e41b81526001600160a01b039091169063ebdac0909062000c5990849060040162002654565b602060405180830381600087803b15801562000c7457600080fd5b505af115801562000c89573d6000803e3d6000fd5b505050506040513d601f19601f8201168201806040525081019062000caf91906200227d565b507fb6fdb729b2ed801daf629f0ab713e4a7a73619505790f6f27fd92d6f2c9688d788883360405162000ce5939291906200275b565b60405180910390a150909695505050505050565b6000546001600160a01b0316331462000d1157600080fd5b62000d1d8282620019c3565b5050565b60005b919050565b6000600954821015801562000d485750600954828162000d4557fe5b06155b62000d5257600080fd5b600954828162000d5e57fe5b0492915050565b60086020526000908152604090205481565b6006546000906001600160a01b031633148062000d9357503330145b62000d9d57600080fd5b600754801562000e3c57600060075560015460065460405163a9059cbb60e01b81526001600160a01b039283169263a9059cbb9262000de4929116908590600401620024c0565b602060405180830381600087803b15801562000dff57600080fd5b505af115801562000e14573d6000803e3d6000fd5b505050506040513d601f19601f8201168201806040525081019062000e3a91906200227d565b505b905090565b60035481565b6002546001600160a01b031681565b600080600a838154811062000e6757fe5b60009182526020918290206040805161016081018252600b90930290910180546001600160a01b0316835260018101805483518187028101870190945280845293949193858301939283018282801562000eeb57602002820191906000526020600020905b81546001600160a01b0316815260019091019060200180831162000ecc575b505050505081526020016002820160009054906101000a90046001600160a01b03166001600160a01b03166001600160a01b031681526020016003820154815260200160048201548152602001600582015481526020016006820154815260200160078201548152602001600882015481526020016009820180548060200260200160405190810160405280929190818152602001828054801562000fb057602002820191906000526020600020905b81548152602001906001019080831162000f9b575b5050509183525050600a919091015460ff161515602090910152604001516001600160a01b031615159392505050565b600080546001600160a01b0316331462000ff957600080fd5b604080516020601f890181900481028201830183528101888152600c928291908b908b90819085018382808284376000920182905250939094525050835460018101855593815260209081902083518051949591909101936200106493508492919091019062001e5f565b50620010b791508990506200107a8688620027e1565b8585808060200260200160405190810160405280939291908181526020018383602002808284376000920191909152506001925062001aec915050565b98975050505050505050565b60095481565b6000546001600160a01b03163314620010e157600080fd5b600555565b60045481565b6000546001600160a01b031690565b6006546001600160a01b031681565b336000908152600860205260408120548015620011c0573360009081526008602052604080822091909155600154905163a9059cbb60e01b81526001600160a01b039091169063a9059cbb90620011689086908590600401620024c0565b602060405180830381600087803b1580156200118357600080fd5b505af115801562001198573d6000803e3d6000fd5b505050506040513d601f19601f82011682018060405250810190620011be91906200227d565b505b92915050565b6000546001600160a01b03163314620011de57600080fd5b600355565b6000620011f08362000e56565b620012185760405162461bcd60e51b81526004016200120f906200253b565b60405180910390fd5b6000600a84815481106200122857fe5b60009182526020918290206040805161016081018252600b90930290910180546001600160a01b03168352600181018054835181870281018701909452808452939491938583019392830182828015620012ac57602002820191906000526020600020905b81546001600160a01b031681526001909101906020018083116200128d575b505050505081526020016002820160009054906101000a90046001600160a01b03166001600160a01b03166001600160a01b03168152602001600382015481526020016004820154815260200160058201548152602001600682015481526020016007820154815260200160088201548152602001600982018054806020026020016040519081016040528092919081815260200182805480156200137157602002820191906000526020600020905b8154815260200190600101908083116200135c575b5050509183525050600a919091015460ff1615156020909101526040808201519051631c4a5de160e21b81529192506000916001600160a01b0390911690637129778490620013c590339060040162002488565b602060405180830381600087803b158015620013e057600080fd5b505af1158015620013f5573d6000803e3d6000fd5b505050506040513d601f19601f820116820180604052508101906200141b919062002331565b905060095460095482816200142c57fe5b0402905060006200143d8262000d29565b9050600062001467670de0b6b3a764000062000b488660800151856200196590919063ffffffff16565b9050620014758282620019ad565b84516001600160a01b0390811660009081526008602052604090819020805485019055600154905163a9059cbb60e01b8152929450169063a9059cbb90620014c49089908690600401620024c0565b602060405180830381600087803b158015620014df57600080fd5b505af1158015620014f4573d6000803e3d6000fd5b505050506040513d601f19601f820116820180604052508101906200151a91906200227d565b50600084606001519050600085604001516001600160a01b03166306fdde036040518163ffffffff1660e01b815260040160006040518083038186803b1580156200156457600080fd5b505afa15801562001579573d6000803e3d6000fd5b505050506040513d6000823e601f3d908101601f19168201604052620015a391908101906200229c565b9050876001600160a01b03167f76ea0c89f1eef8b1ac3908910bbe5ee5120ff997f6b3bcc900659973e6a2ff128a886040015185858a898b604051620015f0979695949392919062002696565b60405180910390a25091979650505050505050565b60075481565b6200161562001ef4565b600c82815481106200162357fe5b60009182526020918290206040805192909101805460026001821615610100026000190190911604601f8101859004850284018301835293830184815292939092849290918491840182828015620016bf5780601f106200169357610100808354040283529160200191620016bf565b820191906000526020600020905b815481529060010190602001808311620016a157829003601f168201915b5050505050815250509050919050565b60055481565b6009540290565b6000546001600160a01b03163314620016f457600080fd5b600455565b6001546001600160a01b031681565b600080805b84518110156200174e57620017436200173b8683815181106200172c57fe5b602002602001015186620011e3565b839062001ce1565b91506001016200170d565b509392505050565b6200176062001f07565b600a5482106200177c576200177462001cf4565b905062000d24565b600a82815481106200178a57fe5b60009182526020918290206040805161016081018252600b90930290910180546001600160a01b031683526001810180548351818702810187019094528084529394919385830193928301828280156200180e57602002820191906000526020600020905b81546001600160a01b03168152600190910190602001808311620017ef575b505050505081526020016002820160009054906101000a90046001600160a01b03166001600160a01b03166001600160a01b0316815260200160038201548152602001600482015481526020016005820154815260200160068201548152602001600782015481526020016008820154815260200160098201805480602002602001604051908101604052809291908181526020018280548015620018d357602002820191906000526020600020905b815481526020019060010190808311620018be575b5050509183525050600a919091015460ff161515602090910152905062000d24565b600a5490565b600080546001600160a01b031633146200191457600080fd5b6001600160a01b0382166200192857600080fd5b60005462001940906001600160a01b03168362000d1d565b50600080546001600160a01b0383166001600160a01b03199091161790556001919050565b6000826200197657506000620011c0565b828202828482816200198457fe5b04146200199057600080fd5b9392505050565b600080828481620019a457fe5b04949350505050565b600082821115620019bd57600080fd5b50900390565b6000600a8381548110620019d357fe5b90600052602060002090600b020190506000816001018381548110620019f557fe5b60009182526020822001546002840180546001600160a01b0319166001600160a01b039092169182179055600a8401805460ff1916905560038401859055426008850155604080516306fdde0360e01b8152905191935083916306fdde03916004808201928692909190829003018186803b15801562001a7457600080fd5b505afa15801562001a89573d6000803e3d6000fd5b505050506040513d6000823e601f3d908101601f1916820160405262001ab391908101906200229c565b90507f8008bbeee2e3c054e71d4965b4c22b41a2287cd6cc67c714bf918b538338be5f858386846040516200086394939291906200265d565b600a80546040805161016081019091526001600160a01b03871681529091906020810162001b1b873062001d6a565b815260006020808301829052604083018290526004546060840152600554608084015260035460a08401524260c084015260e08301829052610100830188905286151561012090930192909252835460018082018655948252908290208351600b9092020180546001600160a01b0319166001600160a01b039092169190911781558282015180519394919362001bbb9392850192919091019062001f75565b5060408201516002820180546001600160a01b0319166001600160a01b03909216919091179055606082015160038201556080820151600482015560a0820151600582015560c0820151600682015560e082015160078201556101008201516008820155610120820151805162001c3d91600984019160209091019062001fcd565b506101409190910151600a909101805460ff19169115159190911790556040517f037fdac9e4b37ad8b184ce958d7b275e578c9e03d4cfbc51aa75de25fdb6bbec9062001c9090839087908790620026e4565b60405180910390a1811562001cd9577fee570fee9d8debeedea533b8cdfde6b9d9995b915869d4d10d350e75a9bf0f888160405162001cd0919062002654565b60405180910390a15b949350505050565b6000828201838110156200199057600080fd5b62001cfe62001f07565b50604080516000808252602082018181526101a083018452928201818152606083018390526080830182905260a0830182905260c0830182905260e083018290526101008301829052610120830182905261014083018290526101608301939093526101809091015290565b815160609060008167ffffffffffffffff8111801562001d8957600080fd5b5060405190808252806020026020018201604052801562001db4578160200160208202803683370190505b50905060005b8281101562001e565785818151811062001dd057fe5b602002602001015186828151811062001de557fe5b60200260200101518660405162001dfc906200200a565b62001e0a93929190620024f9565b604051809103906000f08015801562001e27573d6000803e3d6000fd5b5082828151811062001e3557fe5b6001600160a01b039092166020928302919091019091015260010162001dba565b50949350505050565b828054600181600116156101000203166002900490600052602060002090601f01602090048101928262001e97576000855562001ee2565b82601f1062001eb257805160ff191683800117855562001ee2565b8280016001018555821562001ee2579182015b8281111562001ee257825182559160200191906001019062001ec5565b5062001ef092915062002018565b5090565b6040518060200160405280606081525090565b60405180610160016040528060006001600160a01b031681526020016060815260200160006001600160a01b03168152602001600081526020016000815260200160008152602001600081526020016000815260200160008152602001606081526020016000151581525090565b82805482825590600052602060002090810192821562001ee2579160200282015b8281111562001ee257825182546001600160a01b0319166001600160a01b0390911617825560209092019160019091019062001f96565b82805482825590600052602060002090810192821562001ee2579160200282018281111562001ee257825182559160200191906001019062001ec5565b6111f380620028b683390190565b5b8082111562001ef0576000815560010162002019565b80356001600160a01b038116811462000d2457600080fd5b60008083601f84011262002059578182fd5b50813567ffffffffffffffff81111562002071578182fd5b60208301915083602080830285010111156200208c57600080fd5b9250929050565b600060208284031215620020a5578081fd5b62001990826200202f565b60008060408385031215620020c3578081fd5b620020ce836200202f565b91506020830135620020e081620028a3565b809150509250929050565b60008060008060008060006080888a03121562002106578283fd5b62002111886200202f565b9650602088013567ffffffffffffffff808211156200212e578485fd5b818a0191508a601f83011262002142578485fd5b81358181111562002151578586fd5b8b602082850101111562002163578586fd5b6020830198508097505060408a013591508082111562002181578485fd5b6200218f8b838c0162002047565b909650945060608a0135915080821115620021a8578384fd5b50620021b78a828b0162002047565b989b979a50959850939692959293505050565b60008060408385031215620021dd578182fd5b823567ffffffffffffffff811115620021f4578283fd5b8301601f8101851362002205578283fd5b803560206200221e62002218836200279f565b6200277a565b82815281810190848301838502860184018a10156200223b578788fd5b8795505b848610156200225f5780358352600195909501949183019183016200223f565b5095506200227190508682016200202f565b93505050509250929050565b6000602082840312156200228f578081fd5b81516200199081620028a3565b600060208284031215620022ae578081fd5b815167ffffffffffffffff811115620022c5578182fd5b8201601f81018413620022d6578182fd5b8051620022e76200221882620027be565b818152856020838501011115620022fc578384fd5b6200230f82602083016020860162002870565b95945050505050565b6000602082840312156200232a578081fd5b5035919050565b60006020828403121562002343578081fd5b5051919050565b600080604083850312156200235d578182fd5b823591506200236f602084016200202f565b90509250929050565b600080604083850312156200238b578182fd5b50508035926020909101359150565b600080600060608486031215620023af578081fd5b8335925060208401359150620023c8604085016200202f565b90509250925092565b6001600160a01b03169052565b6000815180845260208085019450808401835b83811015620024185781516001600160a01b031687529582019590820190600101620023f1565b509495945050505050565b6000815180845260208085019450808401835b83811015620024185781518752958201959082019060010162002436565b15159052565b600081518084526200247481602086016020860162002870565b601f01601f19169290920160200192915050565b6001600160a01b0391909116815260200190565b6001600160a01b039384168152919092166020820152604081019190915260600190565b6001600160a01b03929092168252602082015260400190565b901515815260200190565b6000602082526200199060208301846200245a565b6000606082526200250e60608301866200245a565b82810360208401526200252281866200245a565b91505060018060a01b0383166040830152949350505050565b6020808252601190820152701b585c9ad95d081d5b9c995cdbdb1d9959607a1b604082015260600190565b600060208252825160208084015262001cd960408401826200245a565b60006020825262002599602083018451620023d1565b6020830151610160806040850152620025b7610180850183620023de565b91506040850151620025cd6060860182620023d1565b5060608501516080850152608085015160a085015260a085015160c085015260c085015160e085015260e0850151610100818187015280870151915050610120818187015280870151915050610140601f19868503018187015262002633848362002423565b9350808701519150506200264a8286018262002454565b5090949350505050565b90815260200190565b600085825260018060a01b0385166020830152836040830152608060608301526200268c60808301846200245a565b9695505050505050565b600088825260018060a01b038816602083015286604083015260e06060830152620026c560e08301876200245a565b60808301959095525060a081019290925260c090910152949350505050565b600060608201858352602060608185015281865180845260808601915060808382028701019350828801855b828110156200274257607f198887030184526200272f8683516200245a565b9550928401929084019060010162002710565b505050505082810360408401526200268c818562002423565b92835260208301919091526001600160a01b0316604082015260600190565b60405181810167ffffffffffffffff811182821017156200279757fe5b604052919050565b600067ffffffffffffffff821115620027b457fe5b5060209081020190565b600067ffffffffffffffff821115620027d357fe5b50601f01601f191660200190565b6000620027f262002218846200279f565b8381526020808201919084845b8781101562002864578135870136601f8201126200281b578687fd5b80356200282c6200221882620027be565b818152368683850101111562002840578889fd5b818684018783013790810185018890528652509382019390820190600101620027ff565b50919695505050505050565b60005b838110156200288d57818101518382015260200162002873565b838111156200289d576000848401525b50505050565b8015158114620028b257600080fd5b5056fe60806040523480156200001157600080fd5b50604051620011f3380380620011f3833981810160405260608110156200003757600080fd5b81019080805160405193929190846401000000008211156200005857600080fd5b9083019060208201858111156200006e57600080fd5b82516401000000008111828201881017156200008957600080fd5b82525081516020918201929091019080838360005b83811015620000b85781810151838201526020016200009e565b50505050905090810190601f168015620000e65780820380516001836020036101000a031916815260200191505b50604052602001805160405193929190846401000000008211156200010a57600080fd5b9083019060208201858111156200012057600080fd5b82516401000000008111828201881017156200013b57600080fd5b82525081516020918201929091019080838360005b838110156200016a57818101518382015260200162000150565b50505050905090810190601f168015620001985780820380516001836020036101000a031916815260200191505b5060405260209081015185519093508592508491620001bd9160039185019062000219565b508051620001d390600490602084019062000219565b5050600580546001600160a01b039390931661010090810233909102610100600160a81b031960ff199095166012178516179093169290921790915550620002c5915050565b828054600181600116156101000203166002900490600052602060002090601f0160209004810192826200025157600085556200029c565b82601f106200026c57805160ff19168380011785556200029c565b828001600101855582156200029c579182015b828111156200029c5782518255916020019190600101906200027f565b50620002aa929150620002ae565b5090565b5b80821115620002aa5760008155600101620002af565b610f1e80620002d56000396000f3fe608060405234801561001057600080fd5b506004361061010b5760003560e01c806370a08231116100a2578063a457c2d711610071578063a457c2d714610343578063a9059cbb1461036f578063c024cd261461039b578063dd62ed3e146103c7578063f2fde38b146103f55761010b565b806370a08231146102cb57806371297784146102f1578063893d20e81461031757806395d89b411461033b5761010b565b806323b872dd116100de57806323b872dd1461021f578063313ce56714610255578063395093511461027357806342986e131461029f5761010b565b806306fdde0314610110578063095ea7b31461018d5780630fb66557146101cd57806318160ddd14610205575b600080fd5b61011861041b565b6040805160208082528351818301528351919283929083019185019080838360005b8381101561015257818101518382015260200161013a565b50505050905090810190601f16801561017f5780820380516001836020036101000a031916815260200191505b509250505060405180910390f35b6101b9600480360360408110156101a357600080fd5b506001600160a01b0381351690602001356104b1565b604080519115158252519081900360200190f35b610203600480360360608110156101e357600080fd5b506001600160a01b038135811691602081013590911690604001356104ce565b005b61020d6104fa565b60408051918252519081900360200190f35b6101b96004803603606081101561023557600080fd5b506001600160a01b03813581169160208101359091169060400135610500565b61025d610587565b6040805160ff9092168252519081900360200190f35b6101b96004803603604081101561028957600080fd5b506001600160a01b038135169060200135610590565b610203600480360360408110156102b557600080fd5b506001600160a01b0381351690602001356105de565b61020d600480360360208110156102e157600080fd5b50356001600160a01b0316610608565b61020d6004803603602081101561030757600080fd5b50356001600160a01b0316610623565b61031f61065f565b604080516001600160a01b039092168252519081900360200190f35b610118610673565b6101b96004803603604081101561035957600080fd5b506001600160a01b0381351690602001356106d4565b6101b96004803603604081101561038557600080fd5b506001600160a01b03813516906020013561073c565b610203600480360360408110156103b157600080fd5b506001600160a01b038135169060200135610750565b61020d600480360360408110156103dd57600080fd5b506001600160a01b0381358116916020013516610776565b6101b96004803603602081101561040b57600080fd5b50356001600160a01b03166107a1565b60038054604080516020601f60026000196101006001881615020190951694909404938401819004810282018101909252828152606093909290918301828280156104a75780601f1061047c576101008083540402835291602001916104a7565b820191906000526020600020905b81548152906001019060200180831161048a57829003601f168201915b5050505050905090565b60006104c56104be610818565b848461081c565b50600192915050565b60055461010090046001600160a01b031633146104ea57600080fd5b6104f5838383610908565b505050565b60025490565b600061050d848484610908565b61057d84610519610818565b61057885604051806060016040528060288152602001610e32602891396001600160a01b038a16600090815260016020526040812090610557610818565b6001600160a01b031681526020810191909152604001600020549190610a63565b61081c565b5060019392505050565b60055460ff1690565b60006104c561059d610818565b8461057885600160006105ae610818565b6001600160a01b03908116825260208083019390935260409182016000908120918c168152925290205490610afa565b60055461010090046001600160a01b031633146105fa57600080fd5b6106048282610b5b565b5050565b6001600160a01b031660009081526020819052604090205490565b60055460009061010090046001600160a01b0316331461064257600080fd5b600061064d83610608565b90506106598382610b5b565b92915050565b60055461010090046001600160a01b031690565b60048054604080516020601f60026000196101006001881615020190951694909404938401819004810282018101909252828152606093909290918301828280156104a75780601f1061047c576101008083540402835291602001916104a7565b60006104c56106e1610818565b8461057885604051806060016040528060258152602001610ec4602591396001600061070b610818565b6001600160a01b03908116825260208083019390935260409182016000908120918d16815292529020549190610a63565b60006104c5610749610818565b8484610908565b60055461010090046001600160a01b0316331461076c57600080fd5b6106048282610c57565b6001600160a01b03918216600090815260016020908152604080832093909416825291909152205490565b60055460009061010090046001600160a01b031633146107c057600080fd5b6001600160a01b0382166107d357600080fd5b6005546107ee9061010090046001600160a01b031683610604565b50600580546001600160a01b03831661010002610100600160a81b03199091161790556001919050565b3390565b6001600160a01b0383166108615760405162461bcd60e51b8152600401808060200182810382526024815260200180610ea06024913960400191505060405180910390fd5b6001600160a01b0382166108a65760405162461bcd60e51b8152600401808060200182810382526022815260200180610dea6022913960400191505060405180910390fd5b6001600160a01b03808416600081815260016020908152604080832094871680845294825291829020859055815185815291517f8c5be1e5ebec7d5bd14f71427d1e84f3dd0314c0f7b2291e5b200ac8c7c3b9259281900390910190a3505050565b6001600160a01b03831661094d5760405162461bcd60e51b8152600401808060200182810382526025815260200180610e7b6025913960400191505060405180910390fd5b6001600160a01b0382166109925760405162461bcd60e51b8152600401808060200182810382526023815260200180610da56023913960400191505060405180910390fd5b61099d8383836104f5565b6109da81604051806060016040528060268152602001610e0c602691396001600160a01b0386166000908152602081905260409020549190610a63565b6001600160a01b038085166000908152602081905260408082209390935590841681522054610a099082610afa565b6001600160a01b038084166000818152602081815260409182902094909455805185815290519193928716927fddf252ad1be2c89b69c2b068fc378daa952ba7f163c4a11628f55a4df523b3ef92918290030190a3505050565b60008184841115610af25760405162461bcd60e51b81526004018080602001828103825283818151815260200191508051906020019080838360005b83811015610ab7578181015183820152602001610a9f565b50505050905090810190601f168015610ae45780820380516001836020036101000a031916815260200191505b509250505060405180910390fd5b505050900390565b600082820183811015610b54576040805162461bcd60e51b815260206004820152601b60248201527f536166654d6174683a206164646974696f6e206f766572666c6f770000000000604482015290519081900360640190fd5b9392505050565b6001600160a01b038216610ba05760405162461bcd60e51b8152600401808060200182810382526021815260200180610e5a6021913960400191505060405180910390fd5b610bac826000836104f5565b610be981604051806060016040528060228152602001610dc8602291396001600160a01b0385166000908152602081905260409020549190610a63565b6001600160a01b038316600090815260208190526040902055600254610c0f9082610d47565b6002556040805182815290516000916001600160a01b038516917fddf252ad1be2c89b69c2b068fc378daa952ba7f163c4a11628f55a4df523b3ef9181900360200190a35050565b6001600160a01b038216610cb2576040805162461bcd60e51b815260206004820152601f60248201527f45524332303a206d696e7420746f20746865207a65726f206164647265737300604482015290519081900360640190fd5b610cbe600083836104f5565b600254610ccb9082610afa565b6002556001600160a01b038216600090815260208190526040902054610cf19082610afa565b6001600160a01b0383166000818152602081815260408083209490945583518581529351929391927fddf252ad1be2c89b69c2b068fc378daa952ba7f163c4a11628f55a4df523b3ef9281900390910190a35050565b600082821115610d9e576040805162461bcd60e51b815260206004820152601e60248201527f536166654d6174683a207375627472616374696f6e206f766572666c6f770000604482015290519081900360640190fd5b5090039056fe45524332303a207472616e7366657220746f20746865207a65726f206164647265737345524332303a206275726e20616d6f756e7420657863656564732062616c616e636545524332303a20617070726f766520746f20746865207a65726f206164647265737345524332303a207472616e7366657220616d6f756e7420657863656564732062616c616e636545524332303a207472616e7366657220616d6f756e74206578636565647320616c6c6f77616e636545524332303a206275726e2066726f6d20746865207a65726f206164647265737345524332303a207472616e736665722066726f6d20746865207a65726f206164647265737345524332303a20617070726f76652066726f6d20746865207a65726f206164647265737345524332303a2064656372656173656420616c6c6f77616e63652062656c6f77207a65726fa2646970667358221220a959fa26780ee508c0f20c51dda2ee1f64a1e187688b2e3b60f447bf5cdbf4de64736f6c63430007060033a2646970667358221220bd5280d14796e5e576a410f0c417bf2e4ddce85cfe3c1aeb2710b2b2547e75de64736f6c63430007060033",
  "devdoc": {
    "kind": "dev",
    "methods": {
      "transferOwnership(address)": {
        "details": "Allows the current owner to transfer control of the contract to a newOwner.",
        "params": {
          "_newOwner": "The address to transfer ownership to."
        }
      }
    },
    "version": 1
  },
  "userdoc": {
    "kind": "user",
    "methods": {},
    "version": 1
  },
  "storageLayout": {
    "storage": [
      {
        "astId": 12537,
        "contract": "contracts/turbo/TrustedMarketFactoryV3.sol:TrustedMarketFactoryV3",
        "label": "owner",
        "offset": 0,
        "slot": "0",
        "type": "t_address"
      },
      {
        "astId": 23370,
        "contract": "contracts/turbo/TrustedMarketFactoryV3.sol:TrustedMarketFactoryV3",
        "label": "collateral",
        "offset": 0,
        "slot": "1",
        "type": "t_contract(IERC20Full)12369"
      },
      {
        "astId": 23372,
        "contract": "contracts/turbo/TrustedMarketFactoryV3.sol:TrustedMarketFactoryV3",
        "label": "feePot",
        "offset": 0,
        "slot": "2",
        "type": "t_contract(FeePot)27075"
      },
      {
        "astId": 23374,
        "contract": "contracts/turbo/TrustedMarketFactoryV3.sol:TrustedMarketFactoryV3",
        "label": "stakerFee",
        "offset": 0,
        "slot": "3",
        "type": "t_uint256"
      },
      {
        "astId": 23376,
        "contract": "contracts/turbo/TrustedMarketFactoryV3.sol:TrustedMarketFactoryV3",
        "label": "settlementFee",
        "offset": 0,
        "slot": "4",
        "type": "t_uint256"
      },
      {
        "astId": 23378,
        "contract": "contracts/turbo/TrustedMarketFactoryV3.sol:TrustedMarketFactoryV3",
        "label": "protocolFee",
        "offset": 0,
        "slot": "5",
        "type": "t_uint256"
      },
      {
        "astId": 23380,
        "contract": "contracts/turbo/TrustedMarketFactoryV3.sol:TrustedMarketFactoryV3",
        "label": "protocol",
        "offset": 0,
        "slot": "6",
        "type": "t_address"
      },
      {
        "astId": 23383,
        "contract": "contracts/turbo/TrustedMarketFactoryV3.sol:TrustedMarketFactoryV3",
        "label": "accumulatedProtocolFee",
        "offset": 0,
        "slot": "7",
        "type": "t_uint256"
      },
      {
        "astId": 23387,
        "contract": "contracts/turbo/TrustedMarketFactoryV3.sol:TrustedMarketFactoryV3",
        "label": "accumulatedSettlementFees",
        "offset": 0,
        "slot": "8",
        "type": "t_mapping(t_address,t_uint256)"
      },
      {
        "astId": 23389,
        "contract": "contracts/turbo/TrustedMarketFactoryV3.sol:TrustedMarketFactoryV3",
        "label": "shareFactor",
        "offset": 0,
        "slot": "9",
        "type": "t_uint256"
      },
      {
        "astId": 23417,
        "contract": "contracts/turbo/TrustedMarketFactoryV3.sol:TrustedMarketFactoryV3",
        "label": "markets",
        "offset": 0,
        "slot": "10",
        "type": "t_array(t_struct(Market)23414_storage)dyn_storage"
      },
      {
        "astId": 14129,
        "contract": "contracts/turbo/TrustedMarketFactoryV3.sol:TrustedMarketFactoryV3",
        "label": "version",
        "offset": 0,
        "slot": "11",
        "type": "t_string_storage"
      },
      {
        "astId": 37204,
        "contract": "contracts/turbo/TrustedMarketFactoryV3.sol:TrustedMarketFactoryV3",
        "label": "marketDetails",
        "offset": 0,
        "slot": "12",
        "type": "t_array(t_struct(MarketDetails)37201_storage)dyn_storage"
      }
    ],
    "types": {
      "t_address": {
        "encoding": "inplace",
        "label": "address",
        "numberOfBytes": "20"
      },
      "t_array(t_contract(OwnedERC20)34115)dyn_storage": {
        "base": "t_contract(OwnedERC20)34115",
        "encoding": "dynamic_array",
        "label": "contract OwnedERC20[]",
        "numberOfBytes": "32"
      },
      "t_array(t_struct(Market)23414_storage)dyn_storage": {
        "base": "t_struct(Market)23414_storage",
        "encoding": "dynamic_array",
        "label": "struct AbstractMarketFactoryV3.Market[]",
        "numberOfBytes": "32"
      },
      "t_array(t_struct(MarketDetails)37201_storage)dyn_storage": {
        "base": "t_struct(MarketDetails)37201_storage",
        "encoding": "dynamic_array",
        "label": "struct TrustedMarketFactoryV3.MarketDetails[]",
        "numberOfBytes": "32"
      },
      "t_array(t_uint256)dyn_storage": {
        "base": "t_uint256",
        "encoding": "dynamic_array",
        "label": "uint256[]",
        "numberOfBytes": "32"
      },
      "t_bool": {
        "encoding": "inplace",
        "label": "bool",
        "numberOfBytes": "1"
      },
      "t_contract(FeePot)27075": {
        "encoding": "inplace",
        "label": "contract FeePot",
        "numberOfBytes": "20"
      },
      "t_contract(IERC20Full)12369": {
        "encoding": "inplace",
        "label": "contract IERC20Full",
        "numberOfBytes": "20"
      },
      "t_contract(OwnedERC20)34115": {
        "encoding": "inplace",
        "label": "contract OwnedERC20",
        "numberOfBytes": "20"
      },
      "t_mapping(t_address,t_uint256)": {
        "encoding": "mapping",
        "key": "t_address",
        "label": "mapping(address => uint256)",
        "numberOfBytes": "32",
        "value": "t_uint256"
      },
      "t_string_storage": {
        "encoding": "bytes",
        "label": "string",
        "numberOfBytes": "32"
      },
      "t_struct(Market)23414_storage": {
        "encoding": "inplace",
        "label": "struct AbstractMarketFactoryV3.Market",
        "members": [
          {
            "astId": 23391,
            "contract": "contracts/turbo/TrustedMarketFactoryV3.sol:TrustedMarketFactoryV3",
            "label": "settlementAddress",
            "offset": 0,
            "slot": "0",
            "type": "t_address"
          },
          {
            "astId": 23394,
            "contract": "contracts/turbo/TrustedMarketFactoryV3.sol:TrustedMarketFactoryV3",
            "label": "shareTokens",
            "offset": 0,
            "slot": "1",
            "type": "t_array(t_contract(OwnedERC20)34115)dyn_storage"
          },
          {
            "astId": 23396,
            "contract": "contracts/turbo/TrustedMarketFactoryV3.sol:TrustedMarketFactoryV3",
            "label": "winner",
            "offset": 0,
            "slot": "2",
            "type": "t_contract(OwnedERC20)34115"
          },
          {
            "astId": 23398,
            "contract": "contracts/turbo/TrustedMarketFactoryV3.sol:TrustedMarketFactoryV3",
            "label": "winnerIndex",
            "offset": 0,
            "slot": "3",
            "type": "t_uint256"
          },
          {
            "astId": 23400,
            "contract": "contracts/turbo/TrustedMarketFactoryV3.sol:TrustedMarketFactoryV3",
            "label": "settlementFee",
            "offset": 0,
            "slot": "4",
            "type": "t_uint256"
          },
          {
            "astId": 23402,
            "contract": "contracts/turbo/TrustedMarketFactoryV3.sol:TrustedMarketFactoryV3",
            "label": "protocolFee",
            "offset": 0,
            "slot": "5",
            "type": "t_uint256"
          },
          {
            "astId": 23404,
            "contract": "contracts/turbo/TrustedMarketFactoryV3.sol:TrustedMarketFactoryV3",
            "label": "stakerFee",
            "offset": 0,
            "slot": "6",
            "type": "t_uint256"
          },
          {
            "astId": 23406,
            "contract": "contracts/turbo/TrustedMarketFactoryV3.sol:TrustedMarketFactoryV3",
            "label": "creationTimestamp",
            "offset": 0,
            "slot": "7",
            "type": "t_uint256"
          },
          {
            "astId": 23408,
            "contract": "contracts/turbo/TrustedMarketFactoryV3.sol:TrustedMarketFactoryV3",
            "label": "resolutionTimestamp",
            "offset": 0,
            "slot": "8",
            "type": "t_uint256"
          },
          {
            "astId": 23411,
            "contract": "contracts/turbo/TrustedMarketFactoryV3.sol:TrustedMarketFactoryV3",
            "label": "initialOdds",
            "offset": 0,
            "slot": "9",
            "type": "t_array(t_uint256)dyn_storage"
          },
          {
            "astId": 23413,
            "contract": "contracts/turbo/TrustedMarketFactoryV3.sol:TrustedMarketFactoryV3",
            "label": "active",
            "offset": 0,
            "slot": "10",
            "type": "t_bool"
          }
        ],
        "numberOfBytes": "352"
      },
      "t_struct(MarketDetails)37201_storage": {
        "encoding": "inplace",
        "label": "struct TrustedMarketFactoryV3.MarketDetails",
        "members": [
          {
            "astId": 37200,
            "contract": "contracts/turbo/TrustedMarketFactoryV3.sol:TrustedMarketFactoryV3",
            "label": "description",
            "offset": 0,
            "slot": "0",
            "type": "t_string_storage"
          }
        ],
        "numberOfBytes": "32"
      },
      "t_uint256": {
        "encoding": "inplace",
        "label": "uint256",
        "numberOfBytes": "32"
      }
    }
  }
}