{
  "address": "0x55C6C0ACEd3d83A1F66E37a6d9a31d0B0259FA70",
  "abi": [
    {
      "inputs": [
        {
          "internalType": "address",
          "name": "_UNDERLYING",
          "type": "address"
        }
      ],
      "stateMutability": "nonpayable",
      "type": "constructor"
    },
    {
      "anonymous": false,
      "inputs": [
        {
          "indexed": true,
          "internalType": "address",
          "name": "owner",
          "type": "address"
        },
        {
          "indexed": true,
          "internalType": "address",
          "name": "spender",
          "type": "address"
        },
        {
          "indexed": false,
          "internalType": "uint256",
          "name": "amount",
          "type": "uint256"
        }
      ],
      "name": "Approval",
      "type": "event"
    },
    {
      "anonymous": false,
      "inputs": [
        {
          "indexed": true,
          "internalType": "address",
          "name": "user",
          "type": "address"
        },
        {
          "indexed": true,
          "internalType": "contract Authority",
          "name": "newAuthority",
          "type": "address"
        }
      ],
      "name": "AuthorityUpdated",
      "type": "event"
    },
    {
      "anonymous": false,
      "inputs": [
        {
          "indexed": true,
          "internalType": "address",
          "name": "caller",
          "type": "address"
        },
        {
          "indexed": true,
          "internalType": "address",
          "name": "owner",
          "type": "address"
        },
        {
          "indexed": false,
          "internalType": "uint256",
          "name": "assets",
          "type": "uint256"
        },
        {
          "indexed": false,
          "internalType": "uint256",
          "name": "shares",
          "type": "uint256"
        }
      ],
      "name": "Deposit",
      "type": "event"
    },
    {
      "anonymous": false,
      "inputs": [
        {
          "indexed": true,
          "internalType": "address",
          "name": "user",
          "type": "address"
        },
        {
          "indexed": true,
          "internalType": "contract Instrument",
          "name": "instrument",
          "type": "address"
        },
        {
          "indexed": false,
          "internalType": "uint256",
          "name": "underlyingAmount",
          "type": "uint256"
        }
      ],
      "name": "InstrumentDeposit",
      "type": "event"
    },
    {
      "anonymous": false,
      "inputs": [
        {
          "indexed": true,
          "internalType": "address",
          "name": "user",
          "type": "address"
        },
        {
          "indexed": true,
          "internalType": "contract Instrument",
          "name": "instrument",
          "type": "address"
        }
      ],
      "name": "InstrumentDistrusted",
      "type": "event"
    },
    {
      "anonymous": false,
      "inputs": [
        {
          "indexed": true,
          "internalType": "address",
          "name": "user",
          "type": "address"
        },
        {
          "indexed": true,
          "internalType": "contract Instrument",
          "name": "instrument",
          "type": "address"
        }
      ],
      "name": "InstrumentTrusted",
      "type": "event"
    },
    {
      "anonymous": false,
      "inputs": [
        {
          "indexed": true,
          "internalType": "address",
          "name": "user",
          "type": "address"
        },
        {
          "indexed": true,
          "internalType": "contract Instrument",
          "name": "instrument",
          "type": "address"
        },
        {
          "indexed": false,
          "internalType": "uint256",
          "name": "underlyingAmount",
          "type": "uint256"
        }
      ],
      "name": "InstrumentWithdrawal",
      "type": "event"
    },
    {
      "anonymous": false,
      "inputs": [
        {
          "indexed": true,
          "internalType": "address",
          "name": "user",
          "type": "address"
        },
        {
          "indexed": true,
          "internalType": "address",
          "name": "newOwner",
          "type": "address"
        }
      ],
      "name": "OwnerUpdated",
      "type": "event"
    },
    {
      "anonymous": false,
      "inputs": [
        {
          "indexed": true,
          "internalType": "address",
          "name": "from",
          "type": "address"
        },
        {
          "indexed": true,
          "internalType": "address",
          "name": "to",
          "type": "address"
        },
        {
          "indexed": false,
          "internalType": "uint256",
          "name": "amount",
          "type": "uint256"
        }
      ],
      "name": "Transfer",
      "type": "event"
    },
    {
      "anonymous": false,
      "inputs": [
        {
          "indexed": true,
          "internalType": "address",
          "name": "caller",
          "type": "address"
        },
        {
          "indexed": true,
          "internalType": "address",
          "name": "receiver",
          "type": "address"
        },
        {
          "indexed": true,
          "internalType": "address",
          "name": "owner",
          "type": "address"
        },
        {
          "indexed": false,
          "internalType": "uint256",
          "name": "assets",
          "type": "uint256"
        },
        {
          "indexed": false,
          "internalType": "uint256",
          "name": "shares",
          "type": "uint256"
        }
      ],
      "name": "Withdraw",
      "type": "event"
    },
    {
      "inputs": [],
      "name": "DOMAIN_SEPARATOR",
      "outputs": [
        {
          "internalType": "bytes32",
          "name": "",
          "type": "bytes32"
        }
      ],
      "stateMutability": "view",
      "type": "function"
    },
    {
      "inputs": [],
      "name": "UNDERLYING",
      "outputs": [
        {
          "internalType": "contract ERC20",
          "name": "",
          "type": "address"
        }
      ],
      "stateMutability": "view",
      "type": "function"
    },
    {
      "inputs": [
        {
          "components": [
            {
              "internalType": "bool",
              "name": "trusted",
              "type": "bool"
            },
            {
              "internalType": "uint248",
              "name": "balance",
              "type": "uint248"
            },
            {
              "internalType": "uint256",
              "name": "faceValue",
              "type": "uint256"
            },
            {
              "internalType": "uint256",
              "name": "marketId",
              "type": "uint256"
            },
            {
              "internalType": "uint256",
              "name": "principal",
              "type": "uint256"
            },
            {
              "internalType": "uint256",
              "name": "expectedYield",
              "type": "uint256"
            },
            {
              "internalType": "uint256",
              "name": "duration",
              "type": "uint256"
            },
            {
              "internalType": "string",
              "name": "description",
              "type": "string"
            },
            {
              "internalType": "address",
              "name": "Instrument_address",
              "type": "address"
            }
          ],
          "internalType": "struct Vault.InstrumentData",
          "name": "data",
          "type": "tuple"
        }
      ],
      "name": "addProposal",
      "outputs": [],
      "stateMutability": "nonpayable",
      "type": "function"
    },
    {
      "inputs": [
        {
          "internalType": "address",
          "name": "",
          "type": "address"
        },
        {
          "internalType": "address",
          "name": "",
          "type": "address"
        }
      ],
      "name": "allowance",
      "outputs": [
        {
          "internalType": "uint256",
          "name": "",
          "type": "uint256"
        }
      ],
      "stateMutability": "view",
      "type": "function"
    },
    {
      "inputs": [
        {
          "internalType": "address",
          "name": "spender",
          "type": "address"
        },
        {
          "internalType": "uint256",
          "name": "amount",
          "type": "uint256"
        }
      ],
      "name": "approve",
      "outputs": [
        {
          "internalType": "bool",
          "name": "",
          "type": "bool"
        }
      ],
      "stateMutability": "nonpayable",
      "type": "function"
    },
    {
      "inputs": [],
      "name": "asset",
      "outputs": [
        {
          "internalType": "contract ERC20",
          "name": "",
          "type": "address"
        }
      ],
      "stateMutability": "view",
      "type": "function"
    },
    {
      "inputs": [],
      "name": "authority",
      "outputs": [
        {
          "internalType": "contract Authority",
          "name": "",
          "type": "address"
        }
      ],
      "stateMutability": "view",
      "type": "function"
    },
    {
      "inputs": [
        {
          "internalType": "address",
          "name": "",
          "type": "address"
        }
      ],
      "name": "balanceOf",
      "outputs": [
        {
          "internalType": "uint256",
          "name": "",
          "type": "uint256"
        }
      ],
      "stateMutability": "view",
      "type": "function"
    },
    {
      "inputs": [
        {
          "internalType": "uint256",
          "name": "shares",
          "type": "uint256"
        }
      ],
      "name": "convertToAssets",
      "outputs": [
        {
          "internalType": "uint256",
          "name": "",
          "type": "uint256"
        }
      ],
      "stateMutability": "view",
      "type": "function"
    },
    {
      "inputs": [
        {
          "internalType": "uint256",
          "name": "assets",
          "type": "uint256"
        }
      ],
      "name": "convertToShares",
      "outputs": [
        {
          "internalType": "uint256",
          "name": "",
          "type": "uint256"
        }
      ],
      "stateMutability": "view",
      "type": "function"
    },
    {
      "inputs": [],
      "name": "decimals",
      "outputs": [
        {
          "internalType": "uint8",
          "name": "",
          "type": "uint8"
        }
      ],
      "stateMutability": "view",
      "type": "function"
    },
    {
      "inputs": [
        {
          "internalType": "uint256",
          "name": "assets",
          "type": "uint256"
        },
        {
          "internalType": "address",
          "name": "receiver",
          "type": "address"
        }
      ],
      "name": "deposit",
      "outputs": [
        {
          "internalType": "uint256",
          "name": "shares",
          "type": "uint256"
        }
      ],
      "stateMutability": "nonpayable",
      "type": "function"
    },
    {
      "inputs": [
        {
          "internalType": "contract Instrument",
          "name": "instrument",
          "type": "address"
        },
        {
          "internalType": "uint256",
          "name": "underlyingAmount",
          "type": "uint256"
        }
      ],
      "name": "depositIntoInstrument",
      "outputs": [],
      "stateMutability": "nonpayable",
      "type": "function"
    },
    {
      "inputs": [
        {
          "internalType": "contract Instrument",
          "name": "instrument",
          "type": "address"
        }
      ],
      "name": "distrustInstrument",
      "outputs": [],
      "stateMutability": "nonpayable",
      "type": "function"
    },
    {
      "inputs": [
        {
          "internalType": "uint256",
          "name": "marketId",
          "type": "uint256"
        }
      ],
      "name": "fetchInstrumentData",
      "outputs": [
        {
          "components": [
            {
              "internalType": "bool",
              "name": "trusted",
              "type": "bool"
            },
            {
              "internalType": "uint248",
              "name": "balance",
              "type": "uint248"
            },
            {
              "internalType": "uint256",
              "name": "faceValue",
              "type": "uint256"
            },
            {
              "internalType": "uint256",
              "name": "marketId",
              "type": "uint256"
            },
            {
              "internalType": "uint256",
              "name": "principal",
              "type": "uint256"
            },
            {
              "internalType": "uint256",
              "name": "expectedYield",
              "type": "uint256"
            },
            {
              "internalType": "uint256",
              "name": "duration",
              "type": "uint256"
            },
            {
              "internalType": "string",
              "name": "description",
              "type": "string"
            },
            {
              "internalType": "address",
              "name": "Instrument_address",
              "type": "address"
            }
          ],
          "internalType": "struct Vault.InstrumentData",
          "name": "",
          "type": "tuple"
        }
      ],
      "stateMutability": "view",
      "type": "function"
    },
    {
      "inputs": [
        {
          "internalType": "contract Instrument",
          "name": "",
          "type": "address"
        }
      ],
      "name": "getInstrumentData",
      "outputs": [
        {
          "internalType": "bool",
          "name": "trusted",
          "type": "bool"
        },
        {
          "internalType": "uint248",
          "name": "balance",
          "type": "uint248"
        },
        {
          "internalType": "uint256",
          "name": "faceValue",
          "type": "uint256"
        },
        {
          "internalType": "uint256",
          "name": "marketId",
          "type": "uint256"
        },
        {
          "internalType": "uint256",
          "name": "principal",
          "type": "uint256"
        },
        {
          "internalType": "uint256",
          "name": "expectedYield",
          "type": "uint256"
        },
        {
          "internalType": "uint256",
          "name": "duration",
          "type": "uint256"
        },
        {
          "internalType": "string",
          "name": "description",
          "type": "string"
        },
        {
          "internalType": "address",
          "name": "Instrument_address",
          "type": "address"
        }
      ],
      "stateMutability": "view",
      "type": "function"
    },
    {
      "inputs": [
        {
          "internalType": "contract Instrument",
          "name": "instrument",
          "type": "address"
        }
      ],
      "name": "harvest",
      "outputs": [],
      "stateMutability": "nonpayable",
      "type": "function"
    },
    {
      "inputs": [
        {
          "internalType": "contract Instrument",
          "name": "instrument",
          "type": "address"
        }
      ],
      "name": "isTrusted",
      "outputs": [
        {
          "internalType": "bool",
          "name": "",
          "type": "bool"
        }
      ],
      "stateMutability": "view",
      "type": "function"
    },
    {
      "inputs": [
        {
          "internalType": "address",
          "name": "",
          "type": "address"
        }
      ],
      "name": "maxDeposit",
      "outputs": [
        {
          "internalType": "uint256",
          "name": "",
          "type": "uint256"
        }
      ],
      "stateMutability": "view",
      "type": "function"
    },
    {
      "inputs": [
        {
          "internalType": "address",
          "name": "",
          "type": "address"
        }
      ],
      "name": "maxMint",
      "outputs": [
        {
          "internalType": "uint256",
          "name": "",
          "type": "uint256"
        }
      ],
      "stateMutability": "view",
      "type": "function"
    },
    {
      "inputs": [
        {
          "internalType": "address",
          "name": "owner",
          "type": "address"
        }
      ],
      "name": "maxRedeem",
      "outputs": [
        {
          "internalType": "uint256",
          "name": "",
          "type": "uint256"
        }
      ],
      "stateMutability": "view",
      "type": "function"
    },
    {
      "inputs": [
        {
          "internalType": "address",
          "name": "owner",
          "type": "address"
        }
      ],
      "name": "maxWithdraw",
      "outputs": [
        {
          "internalType": "uint256",
          "name": "",
          "type": "uint256"
        }
      ],
      "stateMutability": "view",
      "type": "function"
    },
    {
      "inputs": [
        {
          "internalType": "uint256",
          "name": "shares",
          "type": "uint256"
        },
        {
          "internalType": "address",
          "name": "receiver",
          "type": "address"
        }
      ],
      "name": "mint",
      "outputs": [
        {
          "internalType": "uint256",
          "name": "assets",
          "type": "uint256"
        }
      ],
      "stateMutability": "nonpayable",
      "type": "function"
    },
    {
      "inputs": [],
      "name": "name",
      "outputs": [
        {
          "internalType": "string",
          "name": "",
          "type": "string"
        }
      ],
      "stateMutability": "view",
      "type": "function"
    },
    {
      "inputs": [
        {
          "internalType": "address",
          "name": "",
          "type": "address"
        }
      ],
      "name": "nonces",
      "outputs": [
        {
          "internalType": "uint256",
          "name": "",
          "type": "uint256"
        }
      ],
      "stateMutability": "view",
      "type": "function"
    },
    {
      "inputs": [
        {
          "internalType": "address",
          "name": "",
          "type": "address"
        }
      ],
      "name": "num_proposals",
      "outputs": [
        {
          "internalType": "uint256",
          "name": "",
          "type": "uint256"
        }
      ],
      "stateMutability": "view",
      "type": "function"
    },
    {
      "inputs": [],
      "name": "owner",
      "outputs": [
        {
          "internalType": "address",
          "name": "",
          "type": "address"
        }
      ],
      "stateMutability": "view",
      "type": "function"
    },
    {
      "inputs": [
        {
          "internalType": "address",
          "name": "owner",
          "type": "address"
        },
        {
          "internalType": "address",
          "name": "spender",
          "type": "address"
        },
        {
          "internalType": "uint256",
          "name": "value",
          "type": "uint256"
        },
        {
          "internalType": "uint256",
          "name": "deadline",
          "type": "uint256"
        },
        {
          "internalType": "uint8",
          "name": "v",
          "type": "uint8"
        },
        {
          "internalType": "bytes32",
          "name": "r",
          "type": "bytes32"
        },
        {
          "internalType": "bytes32",
          "name": "s",
          "type": "bytes32"
        }
      ],
      "name": "permit",
      "outputs": [],
      "stateMutability": "nonpayable",
      "type": "function"
    },
    {
      "inputs": [
        {
          "internalType": "uint256",
          "name": "assets",
          "type": "uint256"
        }
      ],
      "name": "previewDeposit",
      "outputs": [
        {
          "internalType": "uint256",
          "name": "",
          "type": "uint256"
        }
      ],
      "stateMutability": "view",
      "type": "function"
    },
    {
      "inputs": [
        {
          "internalType": "uint256",
          "name": "shares",
          "type": "uint256"
        }
      ],
      "name": "previewMint",
      "outputs": [
        {
          "internalType": "uint256",
          "name": "",
          "type": "uint256"
        }
      ],
      "stateMutability": "view",
      "type": "function"
    },
    {
      "inputs": [
        {
          "internalType": "uint256",
          "name": "shares",
          "type": "uint256"
        }
      ],
      "name": "previewRedeem",
      "outputs": [
        {
          "internalType": "uint256",
          "name": "",
          "type": "uint256"
        }
      ],
      "stateMutability": "view",
      "type": "function"
    },
    {
      "inputs": [
        {
          "internalType": "uint256",
          "name": "assets",
          "type": "uint256"
        }
      ],
      "name": "previewWithdraw",
      "outputs": [
        {
          "internalType": "uint256",
          "name": "",
          "type": "uint256"
        }
      ],
      "stateMutability": "view",
      "type": "function"
    },
    {
      "inputs": [
        {
          "internalType": "uint256",
          "name": "shares",
          "type": "uint256"
        },
        {
          "internalType": "address",
          "name": "receiver",
          "type": "address"
        },
        {
          "internalType": "address",
          "name": "owner",
          "type": "address"
        }
      ],
      "name": "redeem",
      "outputs": [
        {
          "internalType": "uint256",
          "name": "assets",
          "type": "uint256"
        }
      ],
      "stateMutability": "nonpayable",
      "type": "function"
    },
    {
      "inputs": [
        {
          "internalType": "contract Authority",
          "name": "newAuthority",
          "type": "address"
        }
      ],
      "name": "setAuthority",
      "outputs": [],
      "stateMutability": "nonpayable",
      "type": "function"
    },
    {
      "inputs": [
        {
          "internalType": "address",
          "name": "newAuthority",
          "type": "address"
        }
      ],
      "name": "setNewAuthority",
      "outputs": [],
      "stateMutability": "nonpayable",
      "type": "function"
    },
    {
      "inputs": [
        {
          "internalType": "address",
          "name": "newOwner",
          "type": "address"
        }
      ],
      "name": "setOwner",
      "outputs": [],
      "stateMutability": "nonpayable",
      "type": "function"
    },
    {
      "inputs": [],
      "name": "symbol",
      "outputs": [
        {
          "internalType": "string",
          "name": "",
          "type": "string"
        }
      ],
      "stateMutability": "view",
      "type": "function"
    },
    {
      "inputs": [],
      "name": "totalAssets",
      "outputs": [
        {
          "internalType": "uint256",
          "name": "",
          "type": "uint256"
        }
      ],
      "stateMutability": "view",
      "type": "function"
    },
    {
      "inputs": [],
      "name": "totalFloat",
      "outputs": [
        {
          "internalType": "uint256",
          "name": "",
          "type": "uint256"
        }
      ],
      "stateMutability": "view",
      "type": "function"
    },
    {
      "inputs": [],
      "name": "totalSupply",
      "outputs": [
        {
          "internalType": "uint256",
          "name": "",
          "type": "uint256"
        }
      ],
      "stateMutability": "view",
      "type": "function"
    },
    {
      "inputs": [
        {
          "internalType": "address",
          "name": "to",
          "type": "address"
        },
        {
          "internalType": "uint256",
          "name": "amount",
          "type": "uint256"
        }
      ],
      "name": "transfer",
      "outputs": [
        {
          "internalType": "bool",
          "name": "",
          "type": "bool"
        }
      ],
      "stateMutability": "nonpayable",
      "type": "function"
    },
    {
      "inputs": [
        {
          "internalType": "address",
          "name": "from",
          "type": "address"
        },
        {
          "internalType": "address",
          "name": "to",
          "type": "address"
        },
        {
          "internalType": "uint256",
          "name": "amount",
          "type": "uint256"
        }
      ],
      "name": "transferFrom",
      "outputs": [
        {
          "internalType": "bool",
          "name": "",
          "type": "bool"
        }
      ],
      "stateMutability": "nonpayable",
      "type": "function"
    },
    {
      "inputs": [
        {
          "internalType": "contract Instrument",
          "name": "instrument",
          "type": "address"
        }
      ],
      "name": "trustInstrument",
      "outputs": [],
      "stateMutability": "nonpayable",
      "type": "function"
    },
    {
      "inputs": [
        {
          "internalType": "uint256",
          "name": "assets",
          "type": "uint256"
        },
        {
          "internalType": "address",
          "name": "receiver",
          "type": "address"
        },
        {
          "internalType": "address",
          "name": "owner",
          "type": "address"
        }
      ],
      "name": "withdraw",
      "outputs": [
        {
          "internalType": "uint256",
          "name": "shares",
          "type": "uint256"
        }
      ],
      "stateMutability": "nonpayable",
      "type": "function"
    },
    {
      "inputs": [
        {
          "internalType": "contract Instrument",
          "name": "instrument",
          "type": "address"
        }
      ],
      "name": "withdrawAllFromInstrument",
      "outputs": [],
      "stateMutability": "nonpayable",
      "type": "function"
    },
    {
      "inputs": [
        {
          "internalType": "contract Instrument",
          "name": "instrument",
          "type": "address"
        },
        {
          "internalType": "uint256",
          "name": "underlyingAmount",
          "type": "uint256"
        }
      ],
      "name": "withdrawFromInstrument",
      "outputs": [],
      "stateMutability": "nonpayable",
      "type": "function"
    }
  ],
  "transactionHash": "0x5beabb2083d141e51b487ef2698dc92127a063fe12f5361afc44c2e205129f30",
  "args": [
    "0x5799bFe361BEea69f808328FF4884DF92f1f66f0"
  ],
  "numDeployments": 1,
  "solcInputHash": "29a83bf9ac7eb91e37e2651095822cf1",
  "bytecode": "0x6101206040523480156200001257600080fd5b506040516200333438038062003334833981016040819052620000359162000494565b3381826001600160a01b03166306fdde036040518163ffffffff1660e01b815260040160006040518083038186803b1580156200007157600080fd5b505afa15801562000086573d6000803e3d6000fd5b505050506040513d6000823e601f3d908101601f19168201604052620000b09190810190620004c4565b604051602001620000c291906200066a565b604051602081830303815290604052836001600160a01b03166395d89b416040518163ffffffff1660e01b815260040160006040518083038186803b1580156200010b57600080fd5b505afa15801562000120573d6000803e3d6000fd5b505050506040513d6000823e601f3d908101601f191682016040526200014a9190810190620004c4565b6040516020016200015c91906200063e565b6040516020818303038152906040528181846001600160a01b031663313ce5676040518163ffffffff1660e01b815260040160206040518083038186803b158015620001a757600080fd5b505afa158015620001bc573d6000803e3d6000fd5b505050506040513d601f19601f82011682018060405250810190620001e2919062000578565b8251620001f7906000906020860190620003ee565b5081516200020d906001906020850190620003ee565b507fff0000000000000000000000000000000000000000000000000000000000000060f882901b166080524660a0526200024662000352565b60c052505050505060601b6001600160601b03191660e052600680546001600160a01b0319166001600160a01b03831690811790915560405133907f8292fce18fa69edf4db7b94ea2e58241df0ae57f97e0a6c9b29067028bf92d7690600090a350806001600160a01b0316610100816001600160a01b031660601b81525050806001600160a01b031663313ce5676040518163ffffffff1660e01b815260040160206040518083038186803b1580156200030057600080fd5b505afa15801562000315573d6000803e3d6000fd5b505050506040513d601f19601f820116820180604052508101906200033b919062000578565b6200034890600a620006f4565b6009555062000851565b60007f8b73c3c69bb8fe3d512ecc4cf759cc79239f7b179b0ffacaa9a75d522b39400f60006040516200038691906200059b565b6040805191829003822060208301939093528101919091527fc89efdaa54c0f20c7adf612882df0950f5a951637e0307cdcb4c672f298b8bc660608201524660808201523060a082015260c00160405160208183030381529060405280519060200120905090565b828054620003fc90620007e8565b90600052602060002090601f0160209004810192826200042057600085556200046b565b82601f106200043b57805160ff19168380011785556200046b565b828001600101855582156200046b579182015b828111156200046b5782518255916020019190600101906200044e565b50620004799291506200047d565b5090565b5b808211156200047957600081556001016200047e565b600060208284031215620004a6578081fd5b81516001600160a01b0381168114620004bd578182fd5b9392505050565b600060208284031215620004d6578081fd5b81516001600160401b0380821115620004ed578283fd5b818401915084601f83011262000501578283fd5b8151818111156200051657620005166200083b565b604051601f8201601f19908116603f011681019083821181831017156200054157620005416200083b565b816040528281528760208487010111156200055a578586fd5b6200056d836020830160208801620007b5565b979650505050505050565b6000602082840312156200058a578081fd5b815160ff81168114620004bd578182fd5b600080835482600182811c915080831680620005b857607f831692505b6020808410821415620005d957634e487b7160e01b87526022600452602487fd5b818015620005f05760018114620006025762000630565b60ff1986168952848901965062000630565b60008a815260209020885b86811015620006285781548b8201529085019083016200060d565b505084890196505b509498975050505050505050565b61323160f11b8152600082516200065d816002850160208701620007b5565b9190910160020192915050565b6603232b134ba30960cd1b8152600082516200068e816007850160208701620007b5565b650815985d5b1d60d21b6007939091019283015250600d01919050565b600181815b80851115620006ec578160001904821115620006d057620006d062000825565b80851615620006de57918102915b93841c9390800290620006b0565b509250929050565b6000620004bd60ff8416836000826200071057506001620007af565b816200071f57506000620007af565b8160018114620007385760028114620007435762000763565b6001915050620007af565b60ff84111562000757576200075762000825565b50506001821b620007af565b5060208310610133831016604e8410600b841016171562000788575081810a620007af565b620007948383620006ab565b8060001904821115620007ab57620007ab62000825565b0290505b92915050565b60005b83811015620007d2578181015183820152602001620007b8565b83811115620007e2576000848401525b50505050565b600181811c90821680620007fd57607f821691505b602082108114156200081f57634e487b7160e01b600052602260045260246000fd5b50919050565b634e487b7160e01b600052601160045260246000fd5b634e487b7160e01b600052604160045260246000fd5b60805160f81c60a05160c05160e05160601c6101005160601c612a6b620008c9600039600081816105fa015281816115130152611c930152600081816103b80152818161132b015281816115af015281816119ba0152611af901526000610f2f01526000610eff015260006103770152612a6b6000f3fe608060405234801561001057600080fd5b506004361061028a5760003560e01c80637ecebe001161015c578063b460af94116100ce578063ce96cb7711610087578063ce96cb771461062f578063d1592d6f14610642578063d505accf14610655578063d905777e14610668578063dd62ed3e14610691578063ef8b30f7146106bc57600080fd5b8063b460af94146105bc578063ba087652146105cf578063bf7e214f146105e2578063c5d664c6146105f5578063c63d75b6146103f2578063c6e6f5921461061c57600080fd5b806396d648791161012057806396d64879146105245780639d0eba61146105505780639ec4d40e14610563578063a9059cbb14610583578063b19b1f9114610596578063b3d7f6b9146105a957600080fd5b80637ecebe00146104ce578063841219e5146104ee5780638da5cb5b146104f657806394bf804d1461050957806395d89b411461051c57600080fd5b8063313ce5671161020057806362d6c342116101b957806362d6c34214610442578063692eba09146104555780636e553f65146104755780636fb1365a1461048857806370a082311461049b5780637a9e5e4b146104bb57600080fd5b8063313ce567146103725780633644e515146103ab57806338d52e0f146103b3578063402d267d146103f25780634cdad506146104075780634dc54a381461041a57600080fd5b80630a28a477116102525780630a28a4771461030a5780630e5c011e1461031d57806313af403514610330578063143282461461034357806318160ddd1461035657806323b872dd1461035f57600080fd5b806301e1d1141461028f57806306fdde03146102aa57806307a2d13a146102bf57806307e54376146102d2578063095ea7b3146102e7575b600080fd5b6102976106cf565b6040519081526020015b60405180910390f35b6102b26106eb565b6040516102a191906127ef565b6102976102cd36600461260c565b610779565b6102e56102e03660046123e8565b6107a6565b005b6102fa6102f53660046124f1565b61097c565b60405190151581526020016102a1565b61029761031836600461260c565b6109e9565b6102e561032b3660046123e8565b610a09565b6102e561033e3660046123e8565b610b97565b6102e56103513660046124f1565b610c15565b61029760025481565b6102fa61036d36600461243c565b610e1b565b6103997f000000000000000000000000000000000000000000000000000000000000000081565b60405160ff90911681526020016102a1565b610297610efb565b6103da7f000000000000000000000000000000000000000000000000000000000000000081565b6040516001600160a01b0390911681526020016102a1565b6102976104003660046123e8565b5060001990565b61029761041536600461260c565b610f51565b61042d6104283660046123e8565b610f5c565b6040516102a199989796959493929190612787565b6102e5610450366004612538565b61103d565b6102976104633660046123e8565b600c6020526000908152604090205481565b61029761048336600461263c565b6112d6565b6102e56104963660046123e8565b6113a9565b6102976104a93660046123e8565b60036020526000908152604090205481565b6102e56104c93660046123e8565b6113ff565b6102976104dc3660046123e8565b60056020526000908152604090205481565b6102976114fb565b6006546103da906001600160a01b031681565b61029761051736600461263c565b611595565b6102b2611624565b6102fa6105323660046123e8565b6001600160a01b03166000908152600b602052604090205460ff1690565b6102e561055e3660046123e8565b611631565b61057661057136600461260c565b61166c565b6040516102a19190612828565b6102fa6105913660046124f1565b611805565b6102e56105a43660046123e8565b61186b565b6102976105b736600461260c565b6118be565b6102976105ca366004612660565b6118dd565b6102976105dd366004612660565b6119e1565b6007546103da906001600160a01b031681565b6103da7f000000000000000000000000000000000000000000000000000000000000000081565b61029761062a36600461260c565b611b20565b61029761063d3660046123e8565b611b40565b6102e56106503660046124f1565b611b62565b6102e561066336600461247c565b611d4d565b6102976106763660046123e8565b6001600160a01b031660009081526003602052604090205490565b61029761069f366004612404565b600460209081526000928352604080842090915290825290205481565b6102976106ca36600461260c565b611f91565b60006106d96114fb565b600a546106e69190612916565b905090565b600080546106f89061296d565b80601f01602080910402602001604051908101604052809291908181526020018280546107249061296d565b80156107715780601f1061074657610100808354040283529160200191610771565b820191906000526020600020905b81548152906001019060200180831161075457829003601f168201915b505050505081565b600254600090801561079d576107986107906106cf565b849083611f9c565b61079f565b825b9392505050565b6107bc336000356001600160e01b031916611fbb565b6107e15760405162461bcd60e51b81526004016107d890612802565b60405180910390fd5b604051633af9e66960e01b81526001600160a01b038216600482018190526000916108679190633af9e66990602401602060405180830381600087803b15801561082a57600080fd5b505af115801561083e573d6000803e3d6000fd5b505050506040513d601f19601f820116820180604052508101906108629190612624565b611ff5565b6001600160a01b0383166000908152600b60205260409020549091506001600160f81b036101009091048116906108a4906108629084168361200b565b6001600160a01b0384166000908152600b6020526040902080546001906108da90849061010090046001600160f81b031661292e565b82546101009290920a6001600160f81b0381810219909316918316021790915560405163852a12e360e01b815290841660048201526001600160a01b038516915063852a12e390602401602060405180830381600087803b15801561093e57600080fd5b505af1158015610952573d6000803e3d6000fd5b505050506040513d601f19601f82011682018060405250810190610976919061251c565b50505050565b3360008181526004602090815260408083206001600160a01b038716808552925280832085905551919290917f8c5be1e5ebec7d5bd14f71427d1e84f3dd0314c0f7b2291e5b200ac8c7c3b925906109d79086815260200190565b60405180910390a35060015b92915050565b600254600090801561079d5761079881610a016106cf565b859190612021565b610a1f336000356001600160e01b031916611fbb565b610a3b5760405162461bcd60e51b81526004016107d890612802565b6001600160a01b0381166000908152600b602052604090205460ff16610a9a5760405162461bcd60e51b8152602060048201526014602482015273155395149554d5115117d25b9cdd1c9d5b595b9d60621b60448201526064016107d8565b600a546001600160a01b0382166000818152600b6020526040808220549051633af9e66960e01b8152600481018490526101009091046001600160f81b03169290633af9e66990602401602060405180830381600087803b158015610afe57600080fd5b505af1158015610b12573d6000803e3d6000fd5b505050506040513d601f19601f82011682018060405250810190610b369190612624565b9050610b4181611ff5565b6001600160a01b0385166000908152600b6020526040812080546001600160f81b03939093166101000260ff90931692909217909155610b818383612956565b9050610b8d8185612916565b600a555050505050565b610bad336000356001600160e01b031916611fbb565b610bc95760405162461bcd60e51b81526004016107d890612802565b600680546001600160a01b0319166001600160a01b03831690811790915560405133907f8292fce18fa69edf4db7b94ea2e58241df0ae57f97e0a6c9b29067028bf92d7690600090a350565b610c2b336000356001600160e01b031916611fbb565b610c475760405162461bcd60e51b81526004016107d890612802565b6001600160a01b0382166000908152600b602052604090205460ff16610ca65760405162461bcd60e51b8152602060048201526014602482015273155395149554d5115108125b9cdd1c9d5b595b9d60621b60448201526064016107d8565b610caf81611ff5565b6001600160a01b0383166000908152600b602052604090208054600190610ce590849061010090046001600160f81b031661292e565b92506101000a8154816001600160f81b0302191690836001600160f81b0316021790555080600a6000828254610d1b9190612956565b909155505060405163852a12e360e01b8152600481018290526001600160a01b0383169063852a12e390602401602060405180830381600087803b158015610d6257600080fd5b505af1158015610d76573d6000803e3d6000fd5b505050506040513d601f19601f82011682018060405250810190610d9a919061251c565b610dd65760405162461bcd60e51b815260206004820152600d60248201526c14915111515357d19052531151609a1b60448201526064016107d8565b6040518181526001600160a01b0383169033907fc8e1ada3e3428244364539f5fe21fa3bc368ed3634b0abc2355534eb12ca3524906020015b60405180910390a35050565b6001600160a01b03831660009081526004602090815260408083203384529091528120546000198114610e7757610e528382612956565b6001600160a01b03861660009081526004602090815260408083203384529091529020555b6001600160a01b03851660009081526003602052604081208054859290610e9f908490612956565b90915550506001600160a01b0380851660008181526003602052604090819020805487019055519091871690600080516020612a1683398151915290610ee89087815260200190565b60405180910390a3506001949350505050565b60007f00000000000000000000000000000000000000000000000000000000000000004614610f2c576106e661204f565b507f000000000000000000000000000000000000000000000000000000000000000090565b60006109e382610779565b600b60205260009081526040902080546001820154600283015460038401546004850154600586015460068701805460ff8816986101009098046001600160f81b0316979190610fab9061296d565b80601f0160208091040260200160405190810160405280929190818152602001828054610fd79061296d565b80156110245780601f10610ff957610100808354040283529160200191611024565b820191906000526020600020905b81548152906001019060200180831161100757829003601f168201915b505050600790930154919250506001600160a01b031689565b60008160800151116110915760405162461bcd60e51b815260206004820181905260248201527f7072696e636970616c206d7573742062652067726561746572207468616e203060448201526064016107d8565b60008160c00151116110e55760405162461bcd60e51b815260206004820152601f60248201527f6475726174696f6e206d7573742062652067726561746572207468616e20300060448201526064016107d8565b60008160400151116111395760405162461bcd60e51b815260206004820181905260248201527f6661636556616c7565206d7573742062652067726561746572207468616e203060448201526064016107d8565b6009548160800151101561118f5760405162461bcd60e51b815260206004820152601d60248201527f4e6565647320746f20626520696e20646563696d616c20666f726d617400000060448201526064016107d8565b336000908152600c602052604081208054916111aa836129a8565b90915550506040805161012081018252600080825260208083018281528585015184860190815260608088015190860190815260808089015190870190815260a0808a015190880190815260c0808b015190890190815260e0808c0151908a01908152610100808d0180516001600160a01b03908116838e01529051168a52600b89529a909820895196516001600160f81b0316909a0295151560ff16959095178955925160018901559051600288015551600387015551600486015551600585015590518051929392611284926006850192019061229f565b506101009182015160079190910180546001600160a01b03199081166001600160a01b0393841617909155918301516060909301516000908152600d6020526040902080549092169216919091179055565b60006112e183611f91565b90508061131e5760405162461bcd60e51b815260206004820152600b60248201526a5a45524f5f53484152455360a81b60448201526064016107d8565b6113536001600160a01b037f0000000000000000000000000000000000000000000000000000000000000000163330866120e9565b61135d8282612173565b60408051848152602081018390526001600160a01b0384169133917fdcbc1c05240f31ff3ad067ef1ee35ce4997762752e3a095284754544f4c709d791015b60405180910390a36109e3565b6113bf336000356001600160e01b031916611fbb565b6113db5760405162461bcd60e51b81526004016107d890612802565b6001600160a01b03166000908152600b60205260409020805460ff19166001179055565b6006546001600160a01b03163314806114a6575060075460405163b700961360e01b81523360048201523060248201526000356001600160e01b03191660448201526001600160a01b039091169063b70096139060640160206040518083038186803b15801561146e57600080fd5b505afa158015611482573d6000803e3d6000fd5b505050506040513d601f19601f820116820180604052508101906114a6919061251c565b6114af57600080fd5b600780546001600160a01b0319166001600160a01b03831690811790915560405133907fa3396fd7f6e0a21b50e5089d2da70d5ac0a3bbbd1f617a93f134b7638998019890600090a350565b6040516370a0823160e01b81523060048201526000907f00000000000000000000000000000000000000000000000000000000000000006001600160a01b0316906370a082319060240160206040518083038186803b15801561155d57600080fd5b505afa158015611571573d6000803e3d6000fd5b505050506040513d601f19601f820116820180604052508101906106e69190612624565b60006115a0836118be565b90506115d76001600160a01b037f0000000000000000000000000000000000000000000000000000000000000000163330846120e9565b6115e18284612173565b60408051828152602081018590526001600160a01b0384169133917fdcbc1c05240f31ff3ad067ef1ee35ce4997762752e3a095284754544f4c709d7910161139c565b600180546106f89061296d565b6006546001600160a01b0316331461164857600080fd5b6001600160a01b03166000908152600860205260409020805460ff19166001179055565b6116cf60405180610120016040528060001515815260200160006001600160f81b0316815260200160008152602001600081526020016000815260200160008152602001600081526020016060815260200160006001600160a01b031681525090565b6000828152600d60209081526040808320546001600160a01b03168352600b825291829020825161012081018452815460ff81161515825261010090046001600160f81b0316928101929092526001810154928201929092526002820154606082015260038201546080820152600482015460a0820152600582015460c082015260068201805491929160e0840191906117689061296d565b80601f01602080910402602001604051908101604052809291908181526020018280546117949061296d565b80156117e15780601f106117b6576101008083540402835291602001916117e1565b820191906000526020600020905b8154815290600101906020018083116117c457829003601f168201915b5050509183525050600791909101546001600160a01b031660209091015292915050565b33600090815260036020526040812080548391908390611826908490612956565b90915550506001600160a01b03831660008181526003602052604090819020805485019055513390600080516020612a16833981519152906109d79086815260200190565b611881336000356001600160e01b031916611fbb565b61189d5760405162461bcd60e51b81526004016107d890612802565b6001600160a01b03166000908152600b60205260409020805460ff19169055565b600254600090801561079d576107986118d56106cf565b849083612021565b60006118e8846109e9565b9050336001600160a01b03831614611958576001600160a01b03821660009081526004602090815260408083203384529091529020546000198114611956576119318282612956565b6001600160a01b03841660009081526004602090815260408083203384529091529020555b505b61196282826121c5565b60408051858152602081018390526001600160a01b03808516929086169133917ffbde797d201c681b91056529119e0b02407c7bb96a4a2c75c01fc9667232c8db910160405180910390a461079f6001600160a01b037f0000000000000000000000000000000000000000000000000000000000000000168486612227565b6000336001600160a01b03831614611a51576001600160a01b03821660009081526004602090815260408083203384529091529020546000198114611a4f57611a2a8582612956565b6001600160a01b03841660009081526004602090815260408083203384529091529020555b505b611a5a84610f51565b905080611a975760405162461bcd60e51b815260206004820152600b60248201526a5a45524f5f41535345545360a81b60448201526064016107d8565b611aa182856121c5565b60408051828152602081018690526001600160a01b03808516929086169133917ffbde797d201c681b91056529119e0b02407c7bb96a4a2c75c01fc9667232c8db910160405180910390a461079f6001600160a01b037f0000000000000000000000000000000000000000000000000000000000000000168483612227565b600254600090801561079d5761079881611b386106cf565b859190611f9c565b6001600160a01b0381166000908152600360205260408120546109e390610779565b611b78336000356001600160e01b031916611fbb565b611b945760405162461bcd60e51b81526004016107d890612802565b6001600160a01b0382166000908152600b602052604090205460ff16611bf35760405162461bcd60e51b8152602060048201526014602482015273155395149554d5115108125b9cdd1c9d5b595b9d60621b60448201526064016107d8565b80600a6000828254611c059190612916565b90915550611c14905081611ff5565b6001600160a01b0383166000908152600b602052604090208054600190611c4a90849061010090046001600160f81b03166128eb565b82546001600160f81b039182166101009390930a92830291909202199091161790555060405163a9059cbb60e01b81526001600160a01b038381166004830152602482018390527f0000000000000000000000000000000000000000000000000000000000000000169063a9059cbb90604401602060405180830381600087803b158015611cd757600080fd5b505af1158015611ceb573d6000803e3d6000fd5b505050506040513d601f19601f82011682018060405250810190611d0f919061251c565b506040518181526001600160a01b0383169033907f05fb08df9fd3a3099b9b7c09d3b801273152c1bae4b64e818fa08e212e882f8490602001610e0f565b42841015611d9d5760405162461bcd60e51b815260206004820152601760248201527f5045524d49545f444541444c494e455f4558504952454400000000000000000060448201526064016107d8565b60006001611da9610efb565b6001600160a01b038a811660008181526005602090815260409182902080546001810190915582517f6e71edae12b1b97f4d1f60370fef10105fa2faae0126114a169c64845d6126c98184015280840194909452938d166060840152608083018c905260a083019390935260c08083018b90528151808403909101815260e08301909152805192019190912061190160f01b6101008301526101028201929092526101228101919091526101420160408051601f198184030181528282528051602091820120600084529083018083525260ff871690820152606081018590526080810184905260a0016020604051602081039080840390855afa158015611eb5573d6000803e3d6000fd5b5050604051601f1901519150506001600160a01b03811615801590611eeb5750876001600160a01b0316816001600160a01b0316145b611f285760405162461bcd60e51b815260206004820152600e60248201526d24a72b20a624a22fa9a4a3a722a960911b60448201526064016107d8565b6001600160a01b0390811660009081526004602090815260408083208a8516808552908352928190208990555188815291928a16917f8c5be1e5ebec7d5bd14f71427d1e84f3dd0314c0f7b2291e5b200ac8c7c3b925910160405180910390a350505050505050565b60006109e382611b20565b828202811515841585830485141716611fb457600080fd5b0492915050565b6006546000906001600160a01b038481169116148061079f575050506001600160a01b031660009081526008602052604090205460ff1690565b6000600160f81b821061200757600080fd5b5090565b600081831061201a578161079f565b5090919050565b82820281151584158583048514171661203957600080fd5b6001826001830304018115150290509392505050565b60007f8b73c3c69bb8fe3d512ecc4cf759cc79239f7b179b0ffacaa9a75d522b39400f600060405161208191906126ec565b6040805191829003822060208301939093528101919091527fc89efdaa54c0f20c7adf612882df0950f5a951637e0307cdcb4c672f298b8bc660608201524660808201523060a082015260c00160405160208183030381529060405280519060200120905090565b60006040516323b872dd60e01b81528460048201528360248201528260448201526020600060648360008a5af13d15601f3d116001600051141617169150508061216c5760405162461bcd60e51b81526020600482015260146024820152731514905394d1915497d19493d357d1905253115160621b60448201526064016107d8565b5050505050565b80600260008282546121859190612916565b90915550506001600160a01b038216600081815260036020908152604080832080548601905551848152600080516020612a168339815191529101610e0f565b6001600160a01b038216600090815260036020526040812080548392906121ed908490612956565b90915550506002805482900390556040518181526000906001600160a01b03841690600080516020612a1683398151915290602001610e0f565b600060405163a9059cbb60e01b8152836004820152826024820152602060006044836000895af13d15601f3d11600160005114161716915050806109765760405162461bcd60e51b815260206004820152600f60248201526e1514905394d1915497d19052531151608a1b60448201526064016107d8565b8280546122ab9061296d565b90600052602060002090601f0160209004810192826122cd5760008555612313565b82601f106122e657805160ff1916838001178555612313565b82800160010185558215612313579182015b828111156123135782518255916020019190600101906122f8565b506120079291505b80821115612007576000815560010161231b565b803561233a816129ef565b919050565b803561233a81612a07565b600082601f83011261235a578081fd5b813567ffffffffffffffff80821115612375576123756129d9565b604051601f8301601f19908116603f0116810190828211818310171561239d5761239d6129d9565b816040528381528660208588010111156123b5578485fd5b8360208701602083013792830160200193909352509392505050565b80356001600160f81b038116811461233a57600080fd5b6000602082840312156123f9578081fd5b813561079f816129ef565b60008060408385031215612416578081fd5b8235612421816129ef565b91506020830135612431816129ef565b809150509250929050565b600080600060608486031215612450578081fd5b833561245b816129ef565b9250602084013561246b816129ef565b929592945050506040919091013590565b600080600080600080600060e0888a031215612496578283fd5b87356124a1816129ef565b965060208801356124b1816129ef565b95506040880135945060608801359350608088013560ff811681146124d4578384fd5b9699959850939692959460a0840135945060c09093013592915050565b60008060408385031215612503578182fd5b823561250e816129ef565b946020939093013593505050565b60006020828403121561252d578081fd5b815161079f81612a07565b600060208284031215612549578081fd5b813567ffffffffffffffff80821115612560578283fd5b908301906101208286031215612574578283fd5b61257c6128c1565b6125858361233f565b8152612593602084016123d1565b602082015260408301356040820152606083013560608201526080830135608082015260a083013560a082015260c083013560c082015260e0830135828111156125db578485fd5b6125e78782860161234a565b60e08301525061010091506125fd82840161232f565b91810191909152949350505050565b60006020828403121561261d578081fd5b5035919050565b600060208284031215612635578081fd5b5051919050565b6000806040838503121561264e578182fd5b823591506020830135612431816129ef565b600080600060608486031215612674578081fd5b833592506020840135612686816129ef565b91506040840135612696816129ef565b809150509250925092565b60008151808452815b818110156126c6576020818501810151868301820152016126aa565b818111156126d75782602083870101525b50601f01601f19169290920160200192915050565b600080835482600182811c91508083168061270857607f831692505b602080841082141561272857634e487b7160e01b87526022600452602487fd5b81801561273c576001811461274d57612779565b60ff19861689528489019650612779565b60008a815260209020885b868110156127715781548b820152908501908301612758565b505084890196505b509498975050505050505050565b60006101208b1515835260018060f81b038b1660208401528960408401528860608401528760808401528660a08401528560c08401528060e08401526127cf818401866126a1565b91505060018060a01b0383166101008301529a9950505050505050505050565b60208152600061079f60208301846126a1565b6020808252600c908201526b15539055551213d49256915160a21b604082015260600190565b6020815261283b60208201835115159052565b6000602083015161285760408401826001600160f81b03169052565b506040830151606083015260608301516080830152608083015160a083015260a083015160c083015260c083015160e083015260e083015161012061010081818601526128a86101408601846126a1565b9501516001600160a01b03169301929092525090919050565b604051610120810167ffffffffffffffff811182821017156128e5576128e56129d9565b60405290565b60006001600160f81b0382811684821680830382111561290d5761290d6129c3565b01949350505050565b60008219821115612929576129296129c3565b500190565b60006001600160f81b038381169083168181101561294e5761294e6129c3565b039392505050565b600082821015612968576129686129c3565b500390565b600181811c9082168061298157607f821691505b602082108114156129a257634e487b7160e01b600052602260045260246000fd5b50919050565b60006000198214156129bc576129bc6129c3565b5060010190565b634e487b7160e01b600052601160045260246000fd5b634e487b7160e01b600052604160045260246000fd5b6001600160a01b0381168114612a0457600080fd5b50565b8015158114612a0457600080fdfeddf252ad1be2c89b69c2b068fc378daa952ba7f163c4a11628f55a4df523b3efa2646970667358221220ce5475c1ae50e257d65e00dc983b28b8e820c19485e52e0493a42e3c2e16339264736f6c63430008040033",
  "devdoc": {
    "kind": "dev",
    "methods": {
      "addProposal((bool,uint248,uint256,uint256,uint256,uint256,uint256,string,address))": {
        "details": "Instrument instance should be created before this is called "
      }
    },
    "version": 1
  },
  "userdoc": {
    "kind": "user",
    "methods": {
      "addProposal((bool,uint248,uint256,uint256,uint256,uint256,uint256,string,address))": {
        "notice": "add instrument proposal created by the Utilizer "
      },
      "depositIntoInstrument(address,uint256)": {
        "notice": "Deposit a specific amount of float into a trusted Instrument. Called when market is approved.  Also has the role of granting a credit line to a credit-based Instrument like uncol.loans "
      },
      "distrustInstrument(address)": {
        "notice": "Stores a Instrument as untrusted"
      },
      "harvest(address)": {
        "notice": "Harvest a trusted Instrument, records profit/loss "
      },
      "isTrusted(address)": {
        "notice": "returns true if Instrument is approved"
      },
      "totalAssets()": {
        "notice": "Calculates the total amount of underlying tokens the Vault holds, excluding profit "
      },
      "trustInstrument(address)": {
        "notice": "Stores a Instrument as trusted when its approved"
      },
      "withdrawAllFromInstrument(address)": {
        "notice": "Withdraws all underyling balance from the Instrument to the vault "
      },
      "withdrawFromInstrument(address,uint256)": {
        "notice": "Withdraw a specific amount of underlying tokens from a Instrument."
      }
    },
    "version": 1
  },
  "storageLayout": {
    "storage": [
      {
        "astId": 50036,
        "contract": "contracts/vaults/vault.sol:Vault",
        "label": "name",
        "offset": 0,
        "slot": "0",
        "type": "t_string_storage"
      },
      {
        "astId": 50038,
        "contract": "contracts/vaults/vault.sol:Vault",
        "label": "symbol",
        "offset": 0,
        "slot": "1",
        "type": "t_string_storage"
      },
      {
        "astId": 50042,
        "contract": "contracts/vaults/vault.sol:Vault",
        "label": "totalSupply",
        "offset": 0,
        "slot": "2",
        "type": "t_uint256"
      },
      {
        "astId": 50046,
        "contract": "contracts/vaults/vault.sol:Vault",
        "label": "balanceOf",
        "offset": 0,
        "slot": "3",
        "type": "t_mapping(t_address,t_uint256)"
      },
      {
        "astId": 50052,
        "contract": "contracts/vaults/vault.sol:Vault",
        "label": "allowance",
        "offset": 0,
        "slot": "4",
        "type": "t_mapping(t_address,t_mapping(t_address,t_uint256))"
      },
      {
        "astId": 50060,
        "contract": "contracts/vaults/vault.sol:Vault",
        "label": "nonces",
        "offset": 0,
        "slot": "5",
        "type": "t_mapping(t_address,t_uint256)"
      },
      {
        "astId": 48334,
        "contract": "contracts/vaults/vault.sol:Vault",
        "label": "owner",
        "offset": 0,
        "slot": "6",
        "type": "t_address"
      },
      {
        "astId": 48337,
        "contract": "contracts/vaults/vault.sol:Vault",
        "label": "authority",
        "offset": 0,
        "slot": "7",
        "type": "t_contract(Authority)48477"
      },
      {
        "astId": 48341,
        "contract": "contracts/vaults/vault.sol:Vault",
        "label": "Authorized",
        "offset": 0,
        "slot": "8",
        "type": "t_mapping(t_address,t_bool)"
      },
      {
        "astId": 50985,
        "contract": "contracts/vaults/vault.sol:Vault",
        "label": "BASE_UNIT",
        "offset": 0,
        "slot": "9",
        "type": "t_uint256"
      },
      {
        "astId": 50987,
        "contract": "contracts/vaults/vault.sol:Vault",
        "label": "totalInstrumentHoldings",
        "offset": 0,
        "slot": "10",
        "type": "t_uint256"
      },
      {
        "astId": 50996,
        "contract": "contracts/vaults/vault.sol:Vault",
        "label": "getInstrumentData",
        "offset": 0,
        "slot": "11",
        "type": "t_mapping(t_contract(Instrument)49198,t_struct(InstrumentData)51024_storage)"
      },
      {
        "astId": 51000,
        "contract": "contracts/vaults/vault.sol:Vault",
        "label": "num_proposals",
        "offset": 0,
        "slot": "12",
        "type": "t_mapping(t_address,t_uint256)"
      },
      {
        "astId": 51005,
        "contract": "contracts/vaults/vault.sol:Vault",
        "label": "Instruments",
        "offset": 0,
        "slot": "13",
        "type": "t_mapping(t_uint256,t_contract(Instrument)49198)"
      }
    ],
    "types": {
      "t_address": {
        "encoding": "inplace",
        "label": "address",
        "numberOfBytes": "20"
      },
      "t_bool": {
        "encoding": "inplace",
        "label": "bool",
        "numberOfBytes": "1"
      },
      "t_contract(Authority)48477": {
        "encoding": "inplace",
        "label": "contract Authority",
        "numberOfBytes": "20"
      },
      "t_contract(Instrument)49198": {
        "encoding": "inplace",
        "label": "contract Instrument",
        "numberOfBytes": "20"
      },
      "t_mapping(t_address,t_bool)": {
        "encoding": "mapping",
        "key": "t_address",
        "label": "mapping(address => bool)",
        "numberOfBytes": "32",
        "value": "t_bool"
      },
      "t_mapping(t_address,t_mapping(t_address,t_uint256))": {
        "encoding": "mapping",
        "key": "t_address",
        "label": "mapping(address => mapping(address => uint256))",
        "numberOfBytes": "32",
        "value": "t_mapping(t_address,t_uint256)"
      },
      "t_mapping(t_address,t_uint256)": {
        "encoding": "mapping",
        "key": "t_address",
        "label": "mapping(address => uint256)",
        "numberOfBytes": "32",
        "value": "t_uint256"
      },
      "t_mapping(t_contract(Instrument)49198,t_struct(InstrumentData)51024_storage)": {
        "encoding": "mapping",
        "key": "t_contract(Instrument)49198",
        "label": "mapping(contract Instrument => struct Vault.InstrumentData)",
        "numberOfBytes": "32",
        "value": "t_struct(InstrumentData)51024_storage"
      },
      "t_mapping(t_uint256,t_contract(Instrument)49198)": {
        "encoding": "mapping",
        "key": "t_uint256",
        "label": "mapping(uint256 => contract Instrument)",
        "numberOfBytes": "32",
        "value": "t_contract(Instrument)49198"
      },
      "t_string_storage": {
        "encoding": "bytes",
        "label": "string",
        "numberOfBytes": "32"
      },
      "t_struct(InstrumentData)51024_storage": {
        "encoding": "inplace",
        "label": "struct Vault.InstrumentData",
        "members": [
          {
            "astId": 51007,
            "contract": "contracts/vaults/vault.sol:Vault",
            "label": "trusted",
            "offset": 0,
            "slot": "0",
            "type": "t_bool"
          },
          {
            "astId": 51009,
            "contract": "contracts/vaults/vault.sol:Vault",
            "label": "balance",
            "offset": 1,
            "slot": "0",
            "type": "t_uint248"
          },
          {
            "astId": 51011,
            "contract": "contracts/vaults/vault.sol:Vault",
            "label": "faceValue",
            "offset": 0,
            "slot": "1",
            "type": "t_uint256"
          },
          {
            "astId": 51013,
            "contract": "contracts/vaults/vault.sol:Vault",
            "label": "marketId",
            "offset": 0,
            "slot": "2",
            "type": "t_uint256"
          },
          {
            "astId": 51015,
            "contract": "contracts/vaults/vault.sol:Vault",
            "label": "principal",
            "offset": 0,
            "slot": "3",
            "type": "t_uint256"
          },
          {
            "astId": 51017,
            "contract": "contracts/vaults/vault.sol:Vault",
            "label": "expectedYield",
            "offset": 0,
            "slot": "4",
            "type": "t_uint256"
          },
          {
            "astId": 51019,
            "contract": "contracts/vaults/vault.sol:Vault",
            "label": "duration",
            "offset": 0,
            "slot": "5",
            "type": "t_uint256"
          },
          {
            "astId": 51021,
            "contract": "contracts/vaults/vault.sol:Vault",
            "label": "description",
            "offset": 0,
            "slot": "6",
            "type": "t_string_storage"
          },
          {
            "astId": 51023,
            "contract": "contracts/vaults/vault.sol:Vault",
            "label": "Instrument_address",
            "offset": 0,
            "slot": "7",
            "type": "t_address"
          }
        ],
        "numberOfBytes": "256"
      },
      "t_uint248": {
        "encoding": "inplace",
        "label": "uint248",
        "numberOfBytes": "31"
      },
      "t_uint256": {
        "encoding": "inplace",
        "label": "uint256",
        "numberOfBytes": "32"
      }
    }
  }
}